{
  "address": "0xeDD3B06B7596848E58e5E656e6B4973CD60Be11A",
  "abi": [
    {
      "inputs": [
        {
          "internalType": "address",
          "name": "_divider",
          "type": "address"
        },
        {
          "internalType": "address",
          "name": "_restrictedAdmin",
          "type": "address"
        },
        {
          "internalType": "address",
          "name": "_rewardsRecipient",
          "type": "address"
        },
        {
          "components": [
            {
              "internalType": "address",
              "name": "oracle",
              "type": "address"
            },
            {
              "internalType": "address",
              "name": "stake",
              "type": "address"
            },
            {
              "internalType": "uint256",
              "name": "stakeSize",
              "type": "uint256"
            },
            {
              "internalType": "uint256",
              "name": "minm",
              "type": "uint256"
            },
            {
              "internalType": "uint256",
              "name": "maxm",
              "type": "uint256"
            },
            {
              "internalType": "uint128",
              "name": "ifee",
              "type": "uint128"
            },
            {
              "internalType": "uint16",
              "name": "mode",
              "type": "uint16"
            },
            {
              "internalType": "uint64",
              "name": "tilt",
              "type": "uint64"
            },
            {
              "internalType": "uint256",
              "name": "guard",
              "type": "uint256"
            }
          ],
          "internalType": "struct BaseFactory.FactoryParams",
          "name": "_factoryParams",
          "type": "tuple"
        },
        {
          "internalType": "address",
          "name": "_reward",
          "type": "address"
        }
      ],
      "stateMutability": "nonpayable",
      "type": "constructor"
    },
    {
      "inputs": [],
      "name": "InvalidPrice",
      "type": "error"
    },
    {
      "inputs": [],
      "name": "OnlyPeriphery",
      "type": "error"
    },
    {
      "inputs": [],
      "name": "TargetNotSupported",
      "type": "error"
    },
    {
      "anonymous": false,
      "inputs": [
        {
          "indexed": true,
          "internalType": "address",
          "name": "oldAdmin",
          "type": "address"
        },
        {
          "indexed": true,
          "internalType": "address",
          "name": "newAdmin",
          "type": "address"
        }
      ],
      "name": "AdapterAdminChanged",
      "type": "event"
    },
    {
      "anonymous": false,
      "inputs": [
        {
          "indexed": true,
          "internalType": "address",
          "name": "oldRecipient",
          "type": "address"
        },
        {
          "indexed": true,
          "internalType": "address",
          "name": "newRecipient",
          "type": "address"
        }
      ],
      "name": "RewardsRecipientChanged",
      "type": "event"
    },
    {
      "anonymous": false,
      "inputs": [
        {
          "indexed": true,
          "internalType": "address",
          "name": "target",
          "type": "address"
        },
        {
          "indexed": true,
          "internalType": "bool",
          "name": "supported",
          "type": "bool"
        }
      ],
      "name": "TargetSupported",
      "type": "event"
    },
    {
      "anonymous": false,
      "inputs": [
        {
          "indexed": true,
          "internalType": "address",
          "name": "user",
          "type": "address"
        },
        {
          "indexed": false,
          "internalType": "bool",
          "name": "trusted",
          "type": "bool"
        }
      ],
      "name": "UserTrustUpdated",
      "type": "event"
    },
    {
      "inputs": [],
      "name": "DEFAULT_LEVEL",
      "outputs": [
        {
          "internalType": "uint48",
          "name": "",
          "type": "uint48"
        }
      ],
      "stateMutability": "view",
      "type": "function"
    },
    {
      "inputs": [],
      "name": "ETH_USD_PRICEFEED",
      "outputs": [
        {
          "internalType": "address",
          "name": "",
          "type": "address"
        }
      ],
      "stateMutability": "view",
      "type": "function"
    },
    {
      "inputs": [
        {
          "internalType": "address",
          "name": "_target",
          "type": "address"
        },
        {
          "internalType": "bytes",
          "name": "data",
          "type": "bytes"
        }
      ],
      "name": "deployAdapter",
      "outputs": [
        {
          "internalType": "address",
          "name": "adapter",
          "type": "address"
        }
      ],
      "stateMutability": "nonpayable",
      "type": "function"
    },
    {
      "inputs": [],
      "name": "divider",
      "outputs": [
        {
          "internalType": "address",
          "name": "",
          "type": "address"
        }
      ],
      "stateMutability": "view",
      "type": "function"
    },
    {
      "inputs": [],
      "name": "factoryParams",
      "outputs": [
        {
          "internalType": "address",
          "name": "oracle",
          "type": "address"
        },
        {
          "internalType": "address",
          "name": "stake",
          "type": "address"
        },
        {
          "internalType": "uint256",
          "name": "stakeSize",
          "type": "uint256"
        },
        {
          "internalType": "uint256",
          "name": "minm",
          "type": "uint256"
        },
        {
          "internalType": "uint256",
          "name": "maxm",
          "type": "uint256"
        },
        {
          "internalType": "uint128",
          "name": "ifee",
          "type": "uint128"
        },
        {
          "internalType": "uint16",
          "name": "mode",
          "type": "uint16"
        },
        {
          "internalType": "uint64",
          "name": "tilt",
          "type": "uint64"
        },
        {
          "internalType": "uint256",
          "name": "guard",
          "type": "uint256"
        }
      ],
      "stateMutability": "view",
      "type": "function"
    },
    {
      "inputs": [
        {
          "internalType": "address",
          "name": "",
          "type": "address"
        }
      ],
      "name": "isTrusted",
      "outputs": [
        {
          "internalType": "bool",
          "name": "",
          "type": "bool"
        }
      ],
      "stateMutability": "view",
      "type": "function"
    },
    {
      "inputs": [],
      "name": "restrictedAdmin",
      "outputs": [
        {
          "internalType": "address",
          "name": "",
          "type": "address"
        }
      ],
      "stateMutability": "view",
      "type": "function"
    },
    {
      "inputs": [],
      "name": "reward",
      "outputs": [
        {
          "internalType": "address",
          "name": "",
          "type": "address"
        }
      ],
      "stateMutability": "view",
      "type": "function"
    },
    {
      "inputs": [],
      "name": "rewardsRecipient",
      "outputs": [
        {
          "internalType": "address",
          "name": "",
          "type": "address"
        }
      ],
      "stateMutability": "view",
      "type": "function"
    },
    {
      "inputs": [
        {
          "internalType": "address",
          "name": "_restrictedAdmin",
          "type": "address"
        }
      ],
      "name": "setAdapterAdmin",
      "outputs": [],
      "stateMutability": "nonpayable",
      "type": "function"
    },
    {
      "inputs": [
        {
          "internalType": "address",
          "name": "user",
          "type": "address"
        },
        {
          "internalType": "bool",
          "name": "trusted",
          "type": "bool"
        }
      ],
      "name": "setIsTrusted",
      "outputs": [],
      "stateMutability": "nonpayable",
      "type": "function"
    },
    {
      "inputs": [
        {
          "internalType": "address",
          "name": "_recipient",
          "type": "address"
        }
      ],
      "name": "setRewardsRecipient",
      "outputs": [],
      "stateMutability": "nonpayable",
      "type": "function"
    },
    {
      "inputs": [
        {
          "internalType": "address",
          "name": "_target",
          "type": "address"
        },
        {
          "internalType": "bool",
          "name": "supported",
          "type": "bool"
        }
      ],
      "name": "supportTarget",
      "outputs": [],
      "stateMutability": "nonpayable",
      "type": "function"
    },
    {
      "inputs": [
        {
          "internalType": "address[]",
          "name": "_targets",
          "type": "address[]"
        },
        {
          "internalType": "bool",
          "name": "supported",
          "type": "bool"
        }
      ],
      "name": "supportTargets",
      "outputs": [],
      "stateMutability": "nonpayable",
      "type": "function"
    },
    {
      "inputs": [
        {
          "internalType": "address",
          "name": "",
          "type": "address"
        }
      ],
      "name": "supportedTargets",
      "outputs": [
        {
          "internalType": "bool",
          "name": "",
          "type": "bool"
        }
      ],
      "stateMutability": "view",
      "type": "function"
    }
  ],
  "transactionHash": "0x4a73a64ce80bad1c52fec687ded7a6a5582462ec3e583c3e62427a07bb4bbdee",
  "args": [
    "0x86bA3E96Be68563E41c2f5769F1AF9fAf758e6E0",
    "0xDd76360C26Eaf63AFCF3a8d2c0121F13AE864D57",
    "0xDd76360C26Eaf63AFCF3a8d2c0121F13AE864D57",
    [
      "0x11D341d35BF95654BC7A9db59DBc557cCB4ea101",
      "0xC02aaA39b223FE8D0A0e5C4F27eAD9083C756Cc2",
      "250000000000000000",
      "2629800",
      "315576000",
      "1000000000000000",
      0,
      0,
      "100000000000000000000000"
    ],
    "0x0000000000000000000000000000000000000000"
  ],
  "numDeployments": 1,
  "solcInputHash": "8d5c8c75361f78fa1a08078ad4c0f5da",
  "bytecode": "0x60a06040523480156200001157600080fd5b50604051620053523803806200535283398101604081905262000034916200022e565b33600081815260208181526040808320805460ff191660019081179091559051908152889388938893889391928792879287928792909182917fe95aec380cae16330d146d5499ef7db6f3657e477104a733e771bc09e500d986910160405180910390a2506001600160a01b039384166080908152600180549486166001600160a01b03199586161790556002805493861693851693909317909255805160038054918616918516919091179055602081015160048054918616918516919091179055604081015160055560608101516006559081015160075560a08101516008805460c084015160e08501516001600160401b0316600160901b02600160901b600160d01b031961ffff909216600160801b026001600160901b03199093166001600160801b039095169490941791909117169190911790556101000151600955600a8054939092169216919091179055506200033b975050505050505050565b80516001600160a01b0381168114620001ae57600080fd5b919050565b60405161012081016001600160401b0381118282101715620001e557634e487b7160e01b600052604160045260246000fd5b60405290565b80516001600160801b0381168114620001ae57600080fd5b805161ffff81168114620001ae57600080fd5b80516001600160401b0381168114620001ae57600080fd5b60008060008060008587036101a08112156200024957600080fd5b620002548762000196565b9550620002646020880162000196565b9450620002746040880162000196565b935061012080605f19830112156200028b57600080fd5b62000295620001b3565b9150620002a56060890162000196565b8252620002b56080890162000196565b602083015260a0880151604083015260c0880151606083015260e08801516080830152610100620002e8818a01620001eb565b60a0840152620002fa828a0162000203565b60c08401526200030e6101408a0162000216565b60e0840152610160890151908301525091506200032f610180870162000196565b90509295509295909350565b608051614fd86200037a600039600081816101b00152818161063301528181610713015281816108d801528181610d7101526110110152614fd86000f3fe60806040523480156200001157600080fd5b5060043610620001095760003560e01c806393d4750c11620000a3578063cac0e3c2116200006e578063cac0e3c2146200037a578063dc69c06f1462000391578063fe767c6014620003b7578063ff2a7d3014620003ce57600080fd5b806393d4750c146200020557806395a39fb1146200022657806396d64879146200023d578063bbe451d5146200027457600080fd5b8063228cb73311620000e4578063228cb7331462000189578063378efa3714620001aa5780633cad2dcd14620001d257806340cc63e114620001e957600080fd5b80630c1b7979146200010e5780631393916a14620001595780631a54259c1462000172575b600080fd5b6001546200012f9073ffffffffffffffffffffffffffffffffffffffff1681565b60405173ffffffffffffffffffffffffffffffffffffffff90911681526020015b60405180910390f35b620001706200016a3660046200128e565b620003ef565b005b6200017062000183366004620012cc565b620004f6565b600a546200012f9073ffffffffffffffffffffffffffffffffffffffff1681565b6200012f7f000000000000000000000000000000000000000000000000000000000000000081565b6200012f620001e336600462001374565b620005ff565b6200012f735f4ec3df9cbd43714fe2740f5e3616155c5b841981565b6200020e601f81565b60405165ffffffffffff909116815260200162000150565b620001706200023736600462001445565b620009f5565b620002636200024e366004620012cc565b60006020819052908152604090205460ff1681565b604051901515815260200162000150565b600354600454600554600654600754600854600954620002fd9673ffffffffffffffffffffffffffffffffffffffff9081169616949392916fffffffffffffffffffffffffffffffff811691700100000000000000000000000000000000820461ffff16917201000000000000000000000000000000000000900467ffffffffffffffff169089565b6040805173ffffffffffffffffffffffffffffffffffffffff9a8b1681529990981660208a015296880195909552606087019390935260808601919091526fffffffffffffffffffffffffffffffff1660a085015261ffff1660c084015267ffffffffffffffff1660e08301526101008201526101200162000150565b620001706200038b3660046200128e565b62000b6c565b62000263620003a2366004620012cc565b600b6020526000908152604090205460ff1681565b62000170620003c8366004620012cc565b62000c66565b6002546200012f9073ffffffffffffffffffffffffffffffffffffffff1681565b3360009081526020819052604090205460ff166200046e576040517f08c379a000000000000000000000000000000000000000000000000000000000815260206004820152600960248201527f554e54525553544544000000000000000000000000000000000000000000000060448201526064015b60405180910390fd5b73ffffffffffffffffffffffffffffffffffffffff82166000818152602081815260409182902080547fffffffffffffffffffffffffffffffffffffffffffffffffffffffffffffff001685151590811790915591519182527fe95aec380cae16330d146d5499ef7db6f3657e477104a733e771bc09e500d986910160405180910390a25050565b3360009081526020819052604090205460ff1662000571576040517f08c379a000000000000000000000000000000000000000000000000000000000815260206004820152600960248201527f554e545255535445440000000000000000000000000000000000000000000000604482015260640162000465565b60025460405173ffffffffffffffffffffffffffffffffffffffff8084169216907f952c654458751f95c1440bdb1537809137b3de28466b80ad096a711707ae987a90600090a3600280547fffffffffffffffffffffffff00000000000000000000000000000000000000001673ffffffffffffffffffffffffffffffffffffffff92909216919091179055565b6000808280602001905181019062000618919062001518565b90503373ffffffffffffffffffffffffffffffffffffffff167f000000000000000000000000000000000000000000000000000000000000000073ffffffffffffffffffffffffffffffffffffffff166377aace1a6040518163ffffffff1660e01b8152600401602060405180830381865afa1580156200069d573d6000803e3d6000fd5b505050506040513d601f19601f82011682018060405250810190620006c3919062001518565b73ffffffffffffffffffffffffffffffffffffffff161462000711576040517ffb02114900000000000000000000000000000000000000000000000000000000815260040160405180910390fd5b7f000000000000000000000000000000000000000000000000000000000000000073ffffffffffffffffffffffffffffffffffffffff1663a1256f9f6040518163ffffffff1660e01b8152600401602060405180830381865afa1580156200077d573d6000803e3d6000fd5b505050506040513d601f19601f82011682018060405250810190620007a3919062001538565b158015620007d7575073ffffffffffffffffffffffffffffffffffffffff84166000908152600b602052604090205460ff16155b156200080f576040517fa2a94ace00000000000000000000000000000000000000000000000000000000815260040160405180910390fd5b604080516101008101825260035473ffffffffffffffffffffffffffffffffffffffff9081168252600454811660208301526005548284015260065460608084019190915260075460808401526008547201000000000000000000000000000000000000810467ffffffffffffffff1660a0850152601f60c0850152700100000000000000000000000000000000810461ffff1660e0850152600254945193949189901b7fffffffffffffffffffffffffffffffffffffffff00000000000000000000000016937f0000000000000000000000000000000000000000000000000000000000000000938a9316916fffffffffffffffffffffffffffffffff1690869088906200091e906200123c565b6200092f9695949392919062001558565b8190604051809103906000f590508015801562000950573d6000803e3d6000fd5b5092506200095e8362000d6f565b600180546040517f1393916a00000000000000000000000000000000000000000000000000000000815273ffffffffffffffffffffffffffffffffffffffff91821660048201526024810192909252841690631393916a90604401600060405180830381600087803b158015620009d457600080fd5b505af1158015620009e9573d6000803e3d6000fd5b50505050505092915050565b3360009081526020819052604090205460ff1662000a70576040517f08c379a000000000000000000000000000000000000000000000000000000000815260206004820152600960248201527f554e545255535445440000000000000000000000000000000000000000000000604482015260640162000465565b60005b825181101562000b675781600b600085848151811062000a975762000a9762001642565b602002602001015173ffffffffffffffffffffffffffffffffffffffff1673ffffffffffffffffffffffffffffffffffffffff16815260200190815260200160002060006101000a81548160ff02191690831515021790555081151583828151811062000b085762000b0862001642565b602002602001015173ffffffffffffffffffffffffffffffffffffffff167f34465fae8b1f082faa1eb1845b34c2bfd6b86cc48df2ebf6426eeddd7e3a4c9a60405160405180910390a38062000b5e81620016a0565b91505062000a73565b505050565b3360009081526020819052604090205460ff1662000be7576040517f08c379a000000000000000000000000000000000000000000000000000000000815260206004820152600960248201527f554e545255535445440000000000000000000000000000000000000000000000604482015260640162000465565b73ffffffffffffffffffffffffffffffffffffffff82166000818152600b602052604080822080547fffffffffffffffffffffffffffffffffffffffffffffffffffffffffffffff001685151590811790915590519092917f34465fae8b1f082faa1eb1845b34c2bfd6b86cc48df2ebf6426eeddd7e3a4c9a91a35050565b3360009081526020819052604090205460ff1662000ce1576040517f08c379a000000000000000000000000000000000000000000000000000000000815260206004820152600960248201527f554e545255535445440000000000000000000000000000000000000000000000604482015260640162000465565b60015460405173ffffffffffffffffffffffffffffffffffffffff8084169216907fe7193156e088d62b242ce408a50e41464422fb99a0fb82fec66ab556af195c1590600090a3600180547fffffffffffffffffffffffff00000000000000000000000000000000000000001673ffffffffffffffffffffffffffffffffffffffff92909216919091179055565b7f000000000000000000000000000000000000000000000000000000000000000073ffffffffffffffffffffffffffffffffffffffff166372f7a0306040518163ffffffff1660e01b8152600401602060405180830381865afa15801562000ddb573d6000803e3d6000fd5b505050506040513d601f19601f8201168201806040525081019062000e01919062001538565b15620011d85760008190508073ffffffffffffffffffffffffffffffffffffffff1663468f02d26040518163ffffffff1660e01b8152600401602060405180830381865afa92505050801562000e94575060408051601f3d9081017fffffffffffffffffffffffffffffffffffffffffffffffffffffffffffffffe016820190925262000e9191810190620016dc565b60015b62000e9f57620011d6565b600080735f4ec3df9cbd43714fe2740f5e3616155c5b841973ffffffffffffffffffffffffffffffffffffffff1663feaf968c6040518163ffffffff1660e01b815260040160a060405180830381865afa15801562000f02573d6000803e3d6000fd5b505050506040513d601f19601f8201168201806040525081019062000f28919062001711565b50935050925050611c20814262000f40919062001766565b111562000f78576040517ebfc92100000000000000000000000000000000000000000000000000000000815260040160405180910390fd5b600062000f8b84846305f5e100620011db565b90506200100d818673ffffffffffffffffffffffffffffffffffffffff1663f51e181a6040518163ffffffff1660e01b81526004016020604051808303816000875af115801562000fe0573d6000803e3d6000fd5b505050506040513d601f19601f82011682018060405250810190620010069190620016dc565b90620011f2565b90507f000000000000000000000000000000000000000000000000000000000000000073ffffffffffffffffffffffffffffffffffffffff16635fa0cc0a876200114c848973ffffffffffffffffffffffffffffffffffffffff1663d4b839926040518163ffffffff1660e01b8152600401602060405180830381865afa1580156200109d573d6000803e3d6000fd5b505050506040513d601f19601f82011682018060405250810190620010c3919062001518565b73ffffffffffffffffffffffffffffffffffffffff1663313ce5676040518163ffffffff1660e01b8152600401602060405180830381865afa1580156200110e573d6000803e3d6000fd5b505050506040513d601f19601f82011682018060405250810190620011349190620016dc565b6200114190600a620018b9565b600954919062001212565b6040517fffffffff0000000000000000000000000000000000000000000000000000000060e085901b16815273ffffffffffffffffffffffffffffffffffffffff90921660048301526024820152604401600060405180830381600087803b158015620011b857600080fd5b505af1158015620011cd573d6000803e3d6000fd5b50505050505050505b505b50565b6000620011ea8484846200121c565b949350505050565b6000620012098383670de0b6b3a76400006200121c565b90505b92915050565b6000620011ea8483855b8282028115158415858304851417166200123557600080fd5b0492915050565b6136db80620018c883390190565b73ffffffffffffffffffffffffffffffffffffffff81168114620011d857600080fd5b8015158114620011d857600080fd5b803562001289816200126d565b919050565b60008060408385031215620012a257600080fd5b8235620012af816200124a565b91506020830135620012c1816200126d565b809150509250929050565b600060208284031215620012df57600080fd5b8135620012ec816200124a565b9392505050565b7f4e487b7100000000000000000000000000000000000000000000000000000000600052604160045260246000fd5b604051601f82017fffffffffffffffffffffffffffffffffffffffffffffffffffffffffffffffe016810167ffffffffffffffff811182821017156200136c576200136c620012f3565b604052919050565b600080604083850312156200138857600080fd5b823562001395816200124a565b915060208381013567ffffffffffffffff80821115620013b457600080fd5b818601915086601f830112620013c957600080fd5b813581811115620013de57620013de620012f3565b62001410847fffffffffffffffffffffffffffffffffffffffffffffffffffffffffffffffe0601f8401160162001322565b915080825287848285010111156200142757600080fd5b80848401858401376000848284010152508093505050509250929050565b600080604083850312156200145957600080fd5b823567ffffffffffffffff808211156200147257600080fd5b818501915085601f8301126200148757600080fd5b81356020828211156200149e576200149e620012f3565b8160051b9250620014b181840162001322565b8281529284018101928181019089851115620014cc57600080fd5b948201945b84861015620014fa5785359350620014e9846200124a565b8382529482019490820190620014d1565b96506200150b90508782016200127c565b9450505050509250929050565b6000602082840312156200152b57600080fd5b8151620012ec816200124a565b6000602082840312156200154b57600080fd5b8151620012ec816200126d565b60006101a08201905073ffffffffffffffffffffffffffffffffffffffff8089168352808816602084015280871660408401526fffffffffffffffffffffffffffffffff861660608401528085511660808401528060208601511660a084015250604084015160c0830152606084015160e0830152608084015161010083015267ffffffffffffffff60a08501511661012083015260c08401516200160861014084018265ffffffffffff169052565b5060e084015161ffff81166101608401525073ffffffffffffffffffffffffffffffffffffffff8316610180830152979650505050505050565b7f4e487b7100000000000000000000000000000000000000000000000000000000600052603260045260246000fd5b7f4e487b7100000000000000000000000000000000000000000000000000000000600052601160045260246000fd5b60007fffffffffffffffffffffffffffffffffffffffffffffffffffffffffffffffff821415620016d557620016d562001671565b5060010190565b600060208284031215620016ef57600080fd5b5051919050565b805169ffffffffffffffffffff811681146200128957600080fd5b600080600080600060a086880312156200172a57600080fd5b6200173586620016f6565b94506020860151935060408601519250606086015191506200175a60808701620016f6565b90509295509295909350565b6000828210156200177b576200177b62001671565b500390565b600181815b80851115620017df57817fffffffffffffffffffffffffffffffffffffffffffffffffffffffffffffffff04821115620017c357620017c362001671565b80851615620017d157918102915b93841c939080029062001785565b509250929050565b600082620017f8575060016200120c565b8162001807575060006200120c565b81600181146200182057600281146200182b576200184b565b60019150506200120c565b60ff8411156200183f576200183f62001671565b50506001821b6200120c565b5060208310610133831016604e8410600b841016171562001870575081810a6200120c565b6200187c838362001780565b807fffffffffffffffffffffffffffffffffffffffffffffffffffffffffffffffff04821115620018b157620018b162001671565b029392505050565b6000620012098383620017e756fe6101406040523480156200001257600080fd5b50604051620036db380380620036db833981016040819052620000359162000713565b858187878787878484856001600160a01b03166338d52e0f6040518163ffffffff1660e01b8152600401602060405180830381865afa1580156200007d573d6000803e3d6000fd5b505050506040513d601f19601f82011682018060405250810190620000a391906200083d565b3360008181526020818152604091829020805460ff19166001908117909155915191825288928892889282917fe95aec380cae16330d146d5499ef7db6f3657e477104a733e771bc09e500d986910160405180910390a2506001600160a01b03808716608090815286821660a081815287841660c0908152600180548987166001600160a01b0319918216179091556001600160801b03881660e09081528751600280549189169184169190911790556020880151600380549190981692169190911790955560408087015160049081556060880151600555948701516006559186015160078054928801519688015161ffff16600160701b0261ffff60701b1965ffffffffffff90981668010000000000000000026001600160701b03199094166001600160401b039093169290921792909217959095169490941790935582516306fdde0360e01b8152925190926306fdde0392818101926000929091908290030181865afa1580156200021d573d6000803e3d6000fd5b505050506040513d6000823e601f3d908101601f1916820160405262000247919081019062000893565b6040516020016200025991906200094b565b604051602081830303815290604052600890805190602001906200027f929190620005be565b50846001600160a01b03166395d89b416040518163ffffffff1660e01b8152600401600060405180830381865afa158015620002bf573d6000803e3d6000fd5b505050506040513d6000823e601f3d908101601f19168201604052620002e9919081019062000893565b604051602001620002fb919062000979565b6040516020818303038152906040526009908051906020019062000321929190620005be565b506200034b608051600019876001600160a01b03166200049160201b62001b10179092919060201c565b6200037860805160001983602001516001600160a01b03166200049160201b62001b10179092919060201c565b505050505050600060a0516001600160a01b031663313ce5676040518163ffffffff1660e01b8152600401602060405180830381865afa158015620003c1573d6000803e3d6000fd5b505050506040513d601f19601f82011682018060405250810190620003e79190620009a7565b60ff169050620003f981600a62000ae1565b610100526200040a81601262000aef565b6200041790600a62000ae1565b61012081815250506200044a60a05160001960c0516001600160a01b03166200049160201b62001b10179092919060201c565b505050505050620004638260016200051460201b60201c565b600b80546001600160a01b0319166001600160a01b03929092169190911790555062000b4695505050505050565b600060405163095ea7b360e01b8152836004820152826024820152602060006044836000895af13d15601f3d11600160005114161716915050806200050e5760405162461bcd60e51b815260206004820152600e60248201526d1054141493d59157d1905253115160921b60448201526064015b60405180910390fd5b50505050565b3360009081526020819052604090205460ff16620005615760405162461bcd60e51b8152602060048201526009602482015268155395149554d5115160ba1b604482015260640162000505565b6001600160a01b03821660008181526020818152604091829020805460ff191685151590811790915591519182527fe95aec380cae16330d146d5499ef7db6f3657e477104a733e771bc09e500d986910160405180910390a25050565b828054620005cc9062000b09565b90600052602060002090601f016020900481019282620005f057600085556200063b565b82601f106200060b57805160ff19168380011785556200063b565b828001600101855582156200063b579182015b828111156200063b5782518255916020019190600101906200061e565b50620006499291506200064d565b5090565b5b808211156200064957600081556001016200064e565b6001600160a01b03811681146200067a57600080fd5b50565b80516200068a8162000664565b919050565b634e487b7160e01b600052604160045260246000fd5b60405161010081016001600160401b0381118282101715620006cb57620006cb6200068f565b60405290565b80516001600160401b03811681146200068a57600080fd5b805165ffffffffffff811681146200068a57600080fd5b805161ffff811681146200068a57600080fd5b6000806000806000808688036101a08112156200072f57600080fd5b87516200073c8162000664565b60208901519097506200074f8162000664565b6040890151909650620007628162000664565b60608901519095506001600160801b03811681146200078057600080fd5b9350610100607f1982018113156200079757600080fd5b620007a1620006a5565b91506080890151620007b38162000664565b8252620007c360a08a016200067d565b602083015260c0890151604083015260e089015160608301528801516080820152620007f36101208901620006d1565b60a0820152620008076101408901620006e9565b60c08201526200081b610160890162000700565b60e082015291506200083161018088016200067d565b90509295509295509295565b6000602082840312156200085057600080fd5b81516200085d8162000664565b9392505050565b60005b838110156200088157818101518382015260200162000867565b838111156200050e5750506000910152565b600060208284031215620008a657600080fd5b81516001600160401b0380821115620008be57600080fd5b818401915084601f830112620008d357600080fd5b815181811115620008e857620008e86200068f565b604051601f8201601f19908116603f011681019083821181831017156200091357620009136200068f565b816040528281528760208487010111156200092d57600080fd5b6200094083602083016020880162000864565b979650505050505050565b600082516200095f81846020870162000864565b671020b230b83a32b960c11b920191825250600801919050565b600082516200098d81846020870162000864565b6716b0b230b83a32b960c11b920191825250600801919050565b600060208284031215620009ba57600080fd5b815160ff811681146200085d57600080fd5b634e487b7160e01b600052601160045260246000fd5b600181815b8085111562000a2357816000190482111562000a075762000a07620009cc565b8085161562000a1557918102915b93841c9390800290620009e7565b509250929050565b60008262000a3c5750600162000adb565b8162000a4b5750600062000adb565b816001811462000a64576002811462000a6f5762000a8f565b600191505062000adb565b60ff84111562000a835762000a83620009cc565b50506001821b62000adb565b5060208310610133831016604e8410600b841016171562000ab4575081810a62000adb565b62000ac08383620009e2565b806000190482111562000ad75762000ad7620009cc565b0290505b92915050565b60006200085d838362000a2b565b60008282101562000b045762000b04620009cc565b500390565b600181811c9082168062000b1e57607f821691505b6020821081141562000b4057634e487b7160e01b600052602260045260246000fd5b50919050565b60805160a05160c05160e0516101005161012051612ae362000bf86000396000818161078f0152610b5b0152600081816107550152610b32015260006106f201526000818161062e01528181610c4c0152610d180152600081816104d9015281816107f601528181610b9201528181610d7501528181610e3d015281816114ae015281816115240152818161160c015281816116430152611a8401526000818161055201526113ba0152612ae36000f3fe608060405234801561001057600080fd5b50600436106102e95760003560e01c80636f307dc311610191578063cce59386116100e3578063d4b8399211610097578063f51e181a11610071578063f51e181a1461045d578063f60c05ce14610834578063ff2a7d301461084f57600080fd5b8063d4b83992146107f1578063d9d98ce414610818578063da4ca4131461082b57600080fd5b8063ce4b5bbe116100c8578063ce4b5bbe1461078a578063d01c6f29146107b1578063d379be23146107d157600080fd5b8063cce5938614610750578063cdfb58321461077757600080fd5b806396d6487911610145578063b8c15a9f1161011f578063b8c15a9f146106ed578063c39a3b2914610735578063c5c108c71461074757600080fd5b806396d64879146106ae578063a8d5fd65146106d1578063b484972a146106da57600080fd5b80638237e538116101765780638237e5381461066c5780638aee81271461069357806395d89b41146106a657600080fd5b80636f307dc3146106295780636fd5ae151461065057600080fd5b806329a436081161024a57806351c39ea1116101fe578063608c44d6116101d8578063608c44d6146105e8578063613255ab146105fb57806364c56e3c1461060e57600080fd5b806351c39ea1146105af578063572acb9f146105c25780635cffe9de146105d557600080fd5b8063379f53e31161022f578063379f53e314610574578063468f02d2146105945780634aae9fed1461059c57600080fd5b806329a436081461052d578063378efa371461054d57600080fd5b80631a54259c116102a1578063228cb73311610286578063228cb7331461047357806327b327d0146104b8578063295a52121461050f57600080fd5b80631a54259c1461044a578063226778491461045d57600080fd5b80630e122423116102d25780630e122423146103e35780631393916a1461042157806314282f581461043657600080fd5b806306fdde03146102ee578063083118d51461030c575b600080fd5b6102f661086f565b6040516103039190612571565b60405180910390f35b60025460035460045460055460065460075461037a9573ffffffffffffffffffffffffffffffffffffffff90811695169392919067ffffffffffffffff81169068010000000000000000810465ffffffffffff16906e010000000000000000000000000000900461ffff1688565b6040805173ffffffffffffffffffffffffffffffffffffffff998a168152989097166020890152958701949094526060860192909252608085015267ffffffffffffffff1660a084015265ffffffffffff1660c083015261ffff1660e082015261010001610303565b6104116103f1366004612609565b601260209081526000928352604080842090915290825290205460ff1681565b6040519015158152602001610303565b61043461042f366004612643565b6108fd565b005b61043461044436600461267c565b50505050565b6104346104583660046126ae565b610a03565b610465610b0a565b604051908152602001610303565b600b546104939073ffffffffffffffffffffffffffffffffffffffff1681565b60405173ffffffffffffffffffffffffffffffffffffffff9091168152602001610303565b6003546004546040805173ffffffffffffffffffffffffffffffffffffffff7f0000000000000000000000000000000000000000000000000000000000000000811682529093166020840152820152606001610303565b6007546e010000000000000000000000000000900461ffff16610465565b61046561053b3660046126ae565b600f6020526000908152604090205481565b6104937f000000000000000000000000000000000000000000000000000000000000000081565b6104656105823660046126ae565b60106020526000908152604090205481565b610465610c0c565b6104656105aa3660046126cb565b610cfc565b6104656105bd3660046126cb565b610dfe565b6104346105d0366004612730565b610e81565b6104116105e336600461279c565b61139f565b6104346105f63660046126ae565b611641565b6104656106093660046126ae565b61181e565b60055460065460408051928352602083019190915201610303565b6104937f000000000000000000000000000000000000000000000000000000000000000081565b60075468010000000000000000900465ffffffffffff16610465565b6104657f439148f0bbc682ca079e46d6e2c2f0c1e3b820f1a291b069d8882abf8cf18dd981565b6104346106a13660046126ae565b61188b565b6102f661197b565b6104116106bc3660046126ae565b60006020819052908152604090205460ff1681565b610465600c5481565b6104346106e836600461283b565b611988565b6107147f000000000000000000000000000000000000000000000000000000000000000081565b6040516fffffffffffffffffffffffffffffffff9091168152602001610303565b60075467ffffffffffffffff16610465565b610465600d5481565b6104657f000000000000000000000000000000000000000000000000000000000000000081565b6104346107853660046126ae565b611998565b6104657f000000000000000000000000000000000000000000000000000000000000000081565b6104656107bf3660046126ae565b60116020526000908152604090205481565b600a546104939073ffffffffffffffffffffffffffffffffffffffff1681565b6104937f000000000000000000000000000000000000000000000000000000000000000081565b610465610826366004612609565b611a80565b610465600e5481565b610493731887118e49e0f4a78bd71b792a49de03504a764d81565b6001546104939073ffffffffffffffffffffffffffffffffffffffff1681565b6008805461087c9061287d565b80601f01602080910402602001604051908101604052809291908181526020018280546108a89061287d565b80156108f55780601f106108ca576101008083540402835291602001916108f5565b820191906000526020600020905b8154815290600101906020018083116108d857829003601f168201915b505050505081565b3360009081526020819052604090205460ff1661097b576040517f08c379a000000000000000000000000000000000000000000000000000000000815260206004820152600960248201527f554e54525553544544000000000000000000000000000000000000000000000060448201526064015b60405180910390fd5b73ffffffffffffffffffffffffffffffffffffffff82166000818152602081815260409182902080547fffffffffffffffffffffffffffffffffffffffffffffffffffffffffffffff001685151590811790915591519182527fe95aec380cae16330d146d5499ef7db6f3657e477104a733e771bc09e500d986910160405180910390a25050565b3360009081526020819052604090205460ff16610a7c576040517f08c379a000000000000000000000000000000000000000000000000000000000815260206004820152600960248201527f554e5452555354454400000000000000000000000000000000000000000000006044820152606401610972565b60015460405173ffffffffffffffffffffffffffffffffffffffff8084169216907f952c654458751f95c1440bdb1537809137b3de28466b80ad096a711707ae987a90600090a3600180547fffffffffffffffffffffffff00000000000000000000000000000000000000001673ffffffffffffffffffffffffffffffffffffffff92909216919091179055565b6040517f07a2d13a0000000000000000000000000000000000000000000000000000000081527f000000000000000000000000000000000000000000000000000000000000000060048201526000907f00000000000000000000000000000000000000000000000000000000000000009073ffffffffffffffffffffffffffffffffffffffff7f000000000000000000000000000000000000000000000000000000000000000016906307a2d13a90602401602060405180830381865afa158015610bd9573d6000803e3d6000fd5b505050506040513d601f19601f82011682018060405250810190610bfd91906128d1565b610c079190612919565b905090565b6002546040517faea9107800000000000000000000000000000000000000000000000000000000815273ffffffffffffffffffffffffffffffffffffffff7f000000000000000000000000000000000000000000000000000000000000000081166004830152600092169063aea9107890602401602060405180830381865afa158015610c9d573d6000803e3d6000fd5b505050506040513d601f19601f82011682018060405250810190610cc191906128d1565b905080610cf9576040517ebfc92100000000000000000000000000000000000000000000000000000000815260040160405180910390fd5b90565b6000610d4073ffffffffffffffffffffffffffffffffffffffff7f000000000000000000000000000000000000000000000000000000000000000016333085611bc9565b6040517f6e553f65000000000000000000000000000000000000000000000000000000008152600481018390523360248201527f000000000000000000000000000000000000000000000000000000000000000073ffffffffffffffffffffffffffffffffffffffff1690636e553f65906044015b6020604051808303816000875af1158015610dd4573d6000803e3d6000fd5b505050506040513d601f19601f82011682018060405250810190610df891906128d1565b92915050565b6040517fba08765200000000000000000000000000000000000000000000000000000000815260048101829052336024820181905260448201526000907f000000000000000000000000000000000000000000000000000000000000000073ffffffffffffffffffffffffffffffffffffffff169063ba08765290606401610db5565b60003073ffffffffffffffffffffffffffffffffffffffff1663378efa376040518163ffffffff1660e01b8152600401602060405180830381865afa158015610ece573d6000803e3d6000fd5b505050506040513d601f19601f82011682018060405250810190610ef29190612956565b905060005b828110156113975760005b85811015611384576000878783818110610f1e57610f1e612973565b9050602002016020810190610f3391906126ae565b905060008473ffffffffffffffffffffffffffffffffffffffff1663574e779530898988818110610f6657610f66612973565b6040517fffffffff0000000000000000000000000000000000000000000000000000000060e087901b16815273ffffffffffffffffffffffffffffffffffffffff90941660048501526020029190910135602483015250604401602060405180830381865afa158015610fdd573d6000803e3d6000fd5b505050506040513d601f19601f820116820180604052508101906110019190612956565b6040517f70a0823100000000000000000000000000000000000000000000000000000000815273ffffffffffffffffffffffffffffffffffffffff848116600483015291909116906370a0823190602401602060405180830381865afa15801561106f573d6000803e3d6000fd5b505050506040513d601f19601f8201168201806040525081019061109391906128d1565b9050428787868181106110a8576110a8612973565b90506020020135111580156110bd5750600081115b801561111b575073ffffffffffffffffffffffffffffffffffffffff82166000908152601260205260408120908888878181106110fc576110fc612973565b602090810292909201358352508101919091526040016000205460ff16155b1561136f5761112982611c8f565b60006112098673ffffffffffffffffffffffffffffffffffffffff16632f9cd854308b8b8a81811061115d5761115d612973565b6040517fffffffff0000000000000000000000000000000000000000000000000000000060e087901b16815273ffffffffffffffffffffffffffffffffffffffff9485166004820152602090910292909201356024830152509087166044820152606401602060405180830381865afa1580156111de573d6000803e3d6000fd5b505050506040513d601f19601f8201168201806040525081019061120291906128d1565b8390611ef7565b905080600e600082825461121d91906129a2565b909155505073ffffffffffffffffffffffffffffffffffffffff83166000908152600f6020526040812080548392906112579084906129a2565b909155505073ffffffffffffffffffffffffffffffffffffffff8316600090815260116020526040812080548392906112919084906129b9565b909155505073ffffffffffffffffffffffffffffffffffffffff831660009081526012602052604081206001918a8a898181106112d0576112d0612973565b90506020020135815260200190815260200160002060006101000a81548160ff0219169083151502179055508273ffffffffffffffffffffffffffffffffffffffff167f5758e413a9bfd3ec45a67abaa9ee2396cab143a505332bf7ab48c0e624b65f11828a8a8981811061134757611347612973565b90506020020135604051611365929190918252602082015260400190565b60405180910390a2505b5050808061137c906129d1565b915050610f02565b508061138f816129d1565b915050610ef7565b505050505050565b60003373ffffffffffffffffffffffffffffffffffffffff167f000000000000000000000000000000000000000000000000000000000000000073ffffffffffffffffffffffffffffffffffffffff166377aace1a6040518163ffffffff1660e01b8152600401602060405180830381865afa158015611423573d6000803e3d6000fd5b505050506040513d601f19601f820116820180604052508101906114479190612956565b73ffffffffffffffffffffffffffffffffffffffff1614611494576040517ffb02114900000000000000000000000000000000000000000000000000000000815260040160405180910390fd5b6114d573ffffffffffffffffffffffffffffffffffffffff7f0000000000000000000000000000000000000000000000000000000000000000168786611f13565b6040517f23e30c8b00000000000000000000000000000000000000000000000000000000815260009073ffffffffffffffffffffffffffffffffffffffff8816906323e30c8b906115549033907f0000000000000000000000000000000000000000000000000000000000000000908a9087908b908b90600401612a0a565b6020604051808303816000875af1158015611573573d6000803e3d6000fd5b505050506040513d601f19601f8201168201806040525081019061159791906128d1565b90507f439148f0bbc682ca079e46d6e2c2f0c1e3b820f1a291b069d8882abf8cf18dd981146115f2576040517f207df21c00000000000000000000000000000000000000000000000000000000815260040160405180910390fd5b61163473ffffffffffffffffffffffffffffffffffffffff7f000000000000000000000000000000000000000000000000000000000000000016883088611bc9565b5060019695505050505050565b7f000000000000000000000000000000000000000000000000000000000000000073ffffffffffffffffffffffffffffffffffffffff168173ffffffffffffffffffffffffffffffffffffffff1614806116b5575060035473ffffffffffffffffffffffffffffffffffffffff8281169116145b806116da5750600b5473ffffffffffffffffffffffffffffffffffffffff8281169116145b15611711576040517f3dd1b30500000000000000000000000000000000000000000000000000000000815260040160405180910390fd5b6040517f70a08231000000000000000000000000000000000000000000000000000000008152306004820152819060009073ffffffffffffffffffffffffffffffffffffffff8316906370a0823190602401602060405180830381865afa158015611780573d6000803e3d6000fd5b505050506040513d601f19601f820116820180604052508101906117a491906128d1565b6001549091506117ce9073ffffffffffffffffffffffffffffffffffffffff848116911683611f13565b600154604051829173ffffffffffffffffffffffffffffffffffffffff90811691908616907f9310ccfcb8de723f578a9e4282ea9f521f05ae40dc08f3068dfad528a65ee3c790600090a4505050565b6040517f70a0823100000000000000000000000000000000000000000000000000000000815230600482015260009073ffffffffffffffffffffffffffffffffffffffff8316906370a0823190602401602060405180830381865afa158015610dd4573d6000803e3d6000fd5b3360009081526020819052604090205460ff16611904576040517f08c379a000000000000000000000000000000000000000000000000000000000815260206004820152600960248201527f554e5452555354454400000000000000000000000000000000000000000000006044820152606401610972565b61190c611fcc565b600b80547fffffffffffffffffffffffff00000000000000000000000000000000000000001673ffffffffffffffffffffffffffffffffffffffff83169081179091556040517fb74d956cf6ec7842d08ebf0ab19ec03a88c1efd4a50ea4349d30f9c4ce512e9890600090a250565b6009805461087c9061287d565b6119938383836122e4565b505050565b3360009081526020819052604090205460ff16611a11576040517f08c379a000000000000000000000000000000000000000000000000000000000815260206004820152600960248201527f554e5452555354454400000000000000000000000000000000000000000000006044820152606401610972565b600a80547fffffffffffffffffffffffff00000000000000000000000000000000000000001673ffffffffffffffffffffffffffffffffffffffff83169081179091556040517f70e1f29a97aa858ce785e48a42e40cd51020a45c8a2e4520272a6303585916a990600090a250565b60007f000000000000000000000000000000000000000000000000000000000000000073ffffffffffffffffffffffffffffffffffffffff168373ffffffffffffffffffffffffffffffffffffffff1614611b07576040517f3dd1b30500000000000000000000000000000000000000000000000000000000815260040160405180910390fd5b50600092915050565b60006040517f095ea7b3000000000000000000000000000000000000000000000000000000008152836004820152826024820152602060006044836000895af13d15601f3d1160016000511416171691505080610444576040517f08c379a000000000000000000000000000000000000000000000000000000000815260206004820152600e60248201527f415050524f56455f4641494c45440000000000000000000000000000000000006044820152606401610972565b60006040517f23b872dd0000000000000000000000000000000000000000000000000000000081528460048201528360248201528260448201526020600060648360008a5af13d15601f3d1160016000511416171691505080611c88576040517f08c379a000000000000000000000000000000000000000000000000000000000815260206004820152601460248201527f5452414e534645525f46524f4d5f4641494c45440000000000000000000000006044820152606401610972565b5050505050565b611c97611fcc565b600d54600b546040517f70a082310000000000000000000000000000000000000000000000000000000081523060048201526000929173ffffffffffffffffffffffffffffffffffffffff16906370a0823190602401602060405180830381865afa158015611d0a573d6000803e3d6000fd5b505050506040513d601f19601f82011682018060405250810190611d2e91906128d1565b611d3891906129a2565b600e5490915015611d7557600e54611d5e9082906b033b2e3c9fd0803ce80000006124fe565b600c6000828254611d6f91906129b9565b90915550505b73ffffffffffffffffffffffffffffffffffffffff8216600090815260106020908152604080832054600c54600f90935290832054909291611dc491906b033b2e3c9fd0803ce8000000612513565b905081811115611df457600b54611df49073ffffffffffffffffffffffffffffffffffffffff1685848403611f13565b600b546040517f70a0823100000000000000000000000000000000000000000000000000000000815230600482015273ffffffffffffffffffffffffffffffffffffffff909116906370a0823190602401602060405180830381865afa158015611e62573d6000803e3d6000fd5b505050506040513d601f19601f82011682018060405250810190611e8691906128d1565b600d55600b5473ffffffffffffffffffffffffffffffffffffffff9081169085167fad4a9acf26d8bba7a8cf1a41160d59be042ee554578e256c98d2ab74cdd43542848411611ed6576000611ee0565b611ee085856129a2565b60405190815260200160405180910390a350505050565b6000611f0c83670de0b6b3a76400008461251c565b9392505050565b60006040517fa9059cbb000000000000000000000000000000000000000000000000000000008152836004820152826024820152602060006044836000895af13d15601f3d1160016000511416171691505080610444576040517f08c379a000000000000000000000000000000000000000000000000000000000815260206004820152600f60248201527f5452414e534645525f4641494c454400000000000000000000000000000000006044820152606401610972565b600a5473ffffffffffffffffffffffffffffffffffffffff16156122e25760003073ffffffffffffffffffffffffffffffffffffffff1663d4b839926040518163ffffffff1660e01b8152600401602060405180830381865afa158015612037573d6000803e3d6000fd5b505050506040513d601f19601f8201168201806040525081019061205b9190612956565b6040517f70a0823100000000000000000000000000000000000000000000000000000000815230600482015290915060009073ffffffffffffffffffffffffffffffffffffffff8316906370a0823190602401602060405180830381865afa1580156120cb573d6000803e3d6000fd5b505050506040513d601f19601f820116820180604052508101906120ef91906128d1565b905080156122df57600a546040517fa9059cbb00000000000000000000000000000000000000000000000000000000815273ffffffffffffffffffffffffffffffffffffffff9182166004820152602481018390529083169063a9059cbb906044016020604051808303816000875af1158015612170573d6000803e3d6000fd5b505050506040513d601f19601f820116820180604052508101906121949190612a90565b50600a60009054906101000a900473ffffffffffffffffffffffffffffffffffffffff1673ffffffffffffffffffffffffffffffffffffffff16634e71d92d6040518163ffffffff1660e01b8152600401600060405180830381600087803b1580156121ff57600080fd5b505af1158015612213573d6000803e3d6000fd5b50506040517f70a0823100000000000000000000000000000000000000000000000000000000815230600482015283925073ffffffffffffffffffffffffffffffffffffffff851691506370a0823190602401602060405180830381865afa158015612283573d6000803e3d6000fd5b505050506040513d601f19601f820116820180604052508101906122a791906128d1565b10156122df576040517f41ac6b7d00000000000000000000000000000000000000000000000000000000815260040160405180910390fd5b50505b565b3360009081526020819052604090205460ff1661235d576040517f08c379a000000000000000000000000000000000000000000000000000000000815260206004820152600960248201527f554e5452555354454400000000000000000000000000000000000000000000006044820152606401610972565b61236683611c8f565b81156124915780156123c95781600e600082825461238491906129b9565b909155505073ffffffffffffffffffffffffffffffffffffffff83166000908152600f6020526040812080548492906123be9084906129b9565b909155506124919050565b73ffffffffffffffffffffffffffffffffffffffff83166000908152601160205260409020548015612437578083101561240757600092900361240e565b9091039060005b73ffffffffffffffffffffffffffffffffffffffff841660009081526011602052604090208190555b821561248f5782600e600082825461244f91906129a2565b909155505073ffffffffffffffffffffffffffffffffffffffff84166000908152600f6020526040812080548592906124899084906129a2565b90915550505b505b600c5473ffffffffffffffffffffffffffffffffffffffff84166000908152600f60205260409020546124d0916b033b2e3c9fd0803ce800000061253b565b73ffffffffffffffffffffffffffffffffffffffff9093166000908152601060205260409020929092555050565b600061250b84838561251c565b949350505050565b600061250b8484845b82820281151584158583048514171661253457600080fd5b0492915050565b600061250b84848482820281151584158583048514171661255b57600080fd5b6001826001830304018115150290509392505050565b600060208083528351808285015260005b8181101561259e57858101830151858201604001528201612582565b818111156125b0576000604083870101525b50601f017fffffffffffffffffffffffffffffffffffffffffffffffffffffffffffffffe016929092016040019392505050565b73ffffffffffffffffffffffffffffffffffffffff8116811461260657600080fd5b50565b6000806040838503121561261c57600080fd5b8235612627816125e4565b946020939093013593505050565b801515811461260657600080fd5b6000806040838503121561265657600080fd5b8235612661816125e4565b9150602083013561267181612635565b809150509250929050565b6000806000806080858703121561269257600080fd5b5050823594602084013594506040840135936060013592509050565b6000602082840312156126c057600080fd5b8135611f0c816125e4565b6000602082840312156126dd57600080fd5b5035919050565b60008083601f8401126126f657600080fd5b50813567ffffffffffffffff81111561270e57600080fd5b6020830191508360208260051b850101111561272957600080fd5b9250929050565b6000806000806040858703121561274657600080fd5b843567ffffffffffffffff8082111561275e57600080fd5b61276a888389016126e4565b9096509450602087013591508082111561278357600080fd5b50612790878288016126e4565b95989497509550505050565b6000806000806000608086880312156127b457600080fd5b85356127bf816125e4565b945060208601356127cf816125e4565b935060408601359250606086013567ffffffffffffffff808211156127f357600080fd5b818801915088601f83011261280757600080fd5b81358181111561281657600080fd5b89602082850101111561282857600080fd5b9699959850939650602001949392505050565b60008060006060848603121561285057600080fd5b833561285b816125e4565b925060208401359150604084013561287281612635565b809150509250925092565b600181811c9082168061289157607f821691505b602082108114156128cb577f4e487b7100000000000000000000000000000000000000000000000000000000600052602260045260246000fd5b50919050565b6000602082840312156128e357600080fd5b5051919050565b7f4e487b7100000000000000000000000000000000000000000000000000000000600052601160045260246000fd5b6000817fffffffffffffffffffffffffffffffffffffffffffffffffffffffffffffffff0483118215151615612951576129516128ea565b500290565b60006020828403121561296857600080fd5b8151611f0c816125e4565b7f4e487b7100000000000000000000000000000000000000000000000000000000600052603260045260246000fd5b6000828210156129b4576129b46128ea565b500390565b600082198211156129cc576129cc6128ea565b500190565b60007fffffffffffffffffffffffffffffffffffffffffffffffffffffffffffffffff821415612a0357612a036128ea565b5060010190565b600073ffffffffffffffffffffffffffffffffffffffff808916835280881660208401525085604083015284606083015260a060808301528260a0830152828460c0840137600060c0848401015260c07fffffffffffffffffffffffffffffffffffffffffffffffffffffffffffffffe0601f8501168301019050979650505050505050565b600060208284031215612aa257600080fd5b8151611f0c8161263556fea2646970667358221220ab665131b73e909cefae77806c31ebe3f79a25d3c8e89dcb43e6154e8a9b8ddc64736f6c634300080b0033a26469706673582212207086f3e2db857405ccaaaf1d9e1b6bcc09afc8bbb3fbe8c9ff1639281d044d8f64736f6c634300080b0033",
  "devdoc": {
    "kind": "dev",
    "methods": {
      "deployAdapter(address,bytes)": {
        "params": {
          "_target": "The target address",
          "data": "ABI encoded data"
        }
      },
      "setRewardsRecipient(address)": {
        "details": "existing adapters rewards recipients will not be changed and can be done through `setRewardsRecipient` on each adapter contract"
      },
      "supportTarget(address,bool)": {
        "params": {
          "_target": "The target address",
          "supported": "Whether the target should be supported or not"
        }
      },
      "supportTargets(address[],bool)": {
        "params": {
          "_targets": "Array of target addresses",
          "supported": "Whether the targets should be supported or not"
        }
      }
    },
    "version": 1
  },
  "userdoc": {
    "kind": "user",
    "methods": {
      "DEFAULT_LEVEL()": {
        "notice": "Sets level to `31` by default, which keeps all Divider lifecycle methods public (`issue`, `combine`, `collect`, etc), but not the `onRedeem` hook."
      },
      "deployAdapter(address,bytes)": {
        "notice": "Deploys an ERC4626Adapter contract"
      },
      "divider()": {
        "notice": "Sense core Divider address"
      },
      "factoryParams()": {
        "notice": "params for adapters deployed with this factory"
      },
      "restrictedAdmin()": {
        "notice": "Adapter admin address"
      },
      "rewardsRecipient()": {
        "notice": "Rewards recipient"
      },
      "setRewardsRecipient(address)": {
        "notice": "Set factory rewards recipientall future deployed adapters will have the new rewards recipient"
      },
      "supportTarget(address,bool)": {
        "notice": "(Un)support target"
      },
      "supportTargets(address[],bool)": {
        "notice": "(Un)support multiple target at once"
      }
    },
    "version": 1
  },
  "storageLayout": {
    "storage": [
      {
        "astId": 21535,
        "contract": "@sense-finance/v1-core/src/adapters/abstract/factories/ERC4626CropFactory.sol:ERC4626CropFactory",
        "label": "isTrusted",
        "offset": 0,
        "slot": "0",
        "type": "t_mapping(t_address,t_bool)"
      },
      {
        "astId": 10330,
        "contract": "@sense-finance/v1-core/src/adapters/abstract/factories/ERC4626CropFactory.sol:ERC4626CropFactory",
        "label": "restrictedAdmin",
        "offset": 0,
        "slot": "1",
        "type": "t_address"
      },
      {
        "astId": 10333,
        "contract": "@sense-finance/v1-core/src/adapters/abstract/factories/ERC4626CropFactory.sol:ERC4626CropFactory",
        "label": "rewardsRecipient",
        "offset": 0,
        "slot": "2",
        "type": "t_address"
      },
      {
        "astId": 10337,
        "contract": "@sense-finance/v1-core/src/adapters/abstract/factories/ERC4626CropFactory.sol:ERC4626CropFactory",
        "label": "factoryParams",
        "offset": 0,
        "slot": "3",
        "type": "t_struct(FactoryParams)10356_storage"
      },
      {
        "astId": 10553,
        "contract": "@sense-finance/v1-core/src/adapters/abstract/factories/ERC4626CropFactory.sol:ERC4626CropFactory",
        "label": "reward",
        "offset": 0,
        "slot": "10",
        "type": "t_address"
      },
      {
        "astId": 10602,
        "contract": "@sense-finance/v1-core/src/adapters/abstract/factories/ERC4626CropFactory.sol:ERC4626CropFactory",
        "label": "supportedTargets",
        "offset": 0,
        "slot": "11",
        "type": "t_mapping(t_address,t_bool)"
      }
    ],
    "types": {
      "t_address": {
        "encoding": "inplace",
        "label": "address",
        "numberOfBytes": "20"
      },
      "t_bool": {
        "encoding": "inplace",
        "label": "bool",
        "numberOfBytes": "1"
      },
      "t_mapping(t_address,t_bool)": {
        "encoding": "mapping",
        "key": "t_address",
        "label": "mapping(address => bool)",
        "numberOfBytes": "32",
        "value": "t_bool"
      },
      "t_struct(FactoryParams)10356_storage": {
        "encoding": "inplace",
        "label": "struct BaseFactory.FactoryParams",
        "members": [
          {
            "astId": 10339,
            "contract": "@sense-finance/v1-core/src/adapters/abstract/factories/ERC4626CropFactory.sol:ERC4626CropFactory",
            "label": "oracle",
            "offset": 0,
            "slot": "0",
            "type": "t_address"
          },
          {
            "astId": 10341,
            "contract": "@sense-finance/v1-core/src/adapters/abstract/factories/ERC4626CropFactory.sol:ERC4626CropFactory",
            "label": "stake",
            "offset": 0,
            "slot": "1",
            "type": "t_address"
          },
          {
            "astId": 10343,
            "contract": "@sense-finance/v1-core/src/adapters/abstract/factories/ERC4626CropFactory.sol:ERC4626CropFactory",
            "label": "stakeSize",
            "offset": 0,
            "slot": "2",
            "type": "t_uint256"
          },
          {
            "astId": 10345,
            "contract": "@sense-finance/v1-core/src/adapters/abstract/factories/ERC4626CropFactory.sol:ERC4626CropFactory",
            "label": "minm",
            "offset": 0,
            "slot": "3",
            "type": "t_uint256"
          },
          {
            "astId": 10347,
            "contract": "@sense-finance/v1-core/src/adapters/abstract/factories/ERC4626CropFactory.sol:ERC4626CropFactory",
            "label": "maxm",
            "offset": 0,
            "slot": "4",
            "type": "t_uint256"
          },
          {
            "astId": 10349,
            "contract": "@sense-finance/v1-core/src/adapters/abstract/factories/ERC4626CropFactory.sol:ERC4626CropFactory",
            "label": "ifee",
            "offset": 0,
            "slot": "5",
            "type": "t_uint128"
          },
          {
            "astId": 10351,
            "contract": "@sense-finance/v1-core/src/adapters/abstract/factories/ERC4626CropFactory.sol:ERC4626CropFactory",
            "label": "mode",
            "offset": 16,
            "slot": "5",
            "type": "t_uint16"
          },
          {
            "astId": 10353,
            "contract": "@sense-finance/v1-core/src/adapters/abstract/factories/ERC4626CropFactory.sol:ERC4626CropFactory",
            "label": "tilt",
            "offset": 18,
            "slot": "5",
            "type": "t_uint64"
          },
          {
            "astId": 10355,
            "contract": "@sense-finance/v1-core/src/adapters/abstract/factories/ERC4626CropFactory.sol:ERC4626CropFactory",
            "label": "guard",
            "offset": 0,
            "slot": "6",
            "type": "t_uint256"
          }
        ],
        "numberOfBytes": "224"
      },
      "t_uint128": {
        "encoding": "inplace",
        "label": "uint128",
        "numberOfBytes": "16"
      },
      "t_uint16": {
        "encoding": "inplace",
        "label": "uint16",
        "numberOfBytes": "2"
      },
      "t_uint256": {
        "encoding": "inplace",
        "label": "uint256",
        "numberOfBytes": "32"
      },
      "t_uint64": {
        "encoding": "inplace",
        "label": "uint64",
        "numberOfBytes": "8"
      }
    }
  }
}