{
  "address": "0x93292717B1C0150A68A748C121BE8C3B72dFefb8",
  "abi": [
    {
      "inputs": [
        {
          "internalType": "address",
          "name": "_divider",
          "type": "address"
        },
        {
          "internalType": "address",
          "name": "_restrictedAdmin",
          "type": "address"
        },
        {
          "internalType": "address",
          "name": "_rewardsRecipient",
          "type": "address"
        },
        {
          "components": [
            {
              "internalType": "address",
              "name": "oracle",
              "type": "address"
            },
            {
              "internalType": "address",
              "name": "stake",
              "type": "address"
            },
            {
              "internalType": "uint256",
              "name": "stakeSize",
              "type": "uint256"
            },
            {
              "internalType": "uint256",
              "name": "minm",
              "type": "uint256"
            },
            {
              "internalType": "uint256",
              "name": "maxm",
              "type": "uint256"
            },
            {
              "internalType": "uint128",
              "name": "ifee",
              "type": "uint128"
            },
            {
              "internalType": "uint16",
              "name": "mode",
              "type": "uint16"
            },
            {
              "internalType": "uint64",
              "name": "tilt",
              "type": "uint64"
            },
            {
              "internalType": "uint256",
              "name": "guard",
              "type": "uint256"
            }
          ],
          "internalType": "struct BaseFactory.FactoryParams",
          "name": "_factoryParams",
          "type": "tuple"
        }
      ],
      "stateMutability": "nonpayable",
      "type": "constructor"
    },
    {
      "inputs": [],
      "name": "InvalidPrice",
      "type": "error"
    },
    {
      "inputs": [],
      "name": "OnlyPeriphery",
      "type": "error"
    },
    {
      "inputs": [],
      "name": "TargetNotSupported",
      "type": "error"
    },
    {
      "anonymous": false,
      "inputs": [
        {
          "indexed": true,
          "internalType": "address",
          "name": "oldAdmin",
          "type": "address"
        },
        {
          "indexed": true,
          "internalType": "address",
          "name": "newAdmin",
          "type": "address"
        }
      ],
      "name": "AdapterAdminChanged",
      "type": "event"
    },
    {
      "anonymous": false,
      "inputs": [
        {
          "indexed": true,
          "internalType": "address",
          "name": "oldRecipient",
          "type": "address"
        },
        {
          "indexed": true,
          "internalType": "address",
          "name": "newRecipient",
          "type": "address"
        }
      ],
      "name": "RewardsRecipientChanged",
      "type": "event"
    },
    {
      "anonymous": false,
      "inputs": [
        {
          "indexed": true,
          "internalType": "address",
          "name": "target",
          "type": "address"
        },
        {
          "indexed": true,
          "internalType": "bool",
          "name": "supported",
          "type": "bool"
        }
      ],
      "name": "TargetSupported",
      "type": "event"
    },
    {
      "anonymous": false,
      "inputs": [
        {
          "indexed": true,
          "internalType": "address",
          "name": "user",
          "type": "address"
        },
        {
          "indexed": false,
          "internalType": "bool",
          "name": "trusted",
          "type": "bool"
        }
      ],
      "name": "UserTrustUpdated",
      "type": "event"
    },
    {
      "inputs": [],
      "name": "DEFAULT_LEVEL",
      "outputs": [
        {
          "internalType": "uint48",
          "name": "",
          "type": "uint48"
        }
      ],
      "stateMutability": "view",
      "type": "function"
    },
    {
      "inputs": [],
      "name": "ETH_USD_PRICEFEED",
      "outputs": [
        {
          "internalType": "address",
          "name": "",
          "type": "address"
        }
      ],
      "stateMutability": "view",
      "type": "function"
    },
    {
      "inputs": [
        {
          "internalType": "address",
          "name": "_target",
          "type": "address"
        },
        {
          "internalType": "bytes",
          "name": "data",
          "type": "bytes"
        }
      ],
      "name": "deployAdapter",
      "outputs": [
        {
          "internalType": "address",
          "name": "adapter",
          "type": "address"
        }
      ],
      "stateMutability": "nonpayable",
      "type": "function"
    },
    {
      "inputs": [],
      "name": "divider",
      "outputs": [
        {
          "internalType": "address",
          "name": "",
          "type": "address"
        }
      ],
      "stateMutability": "view",
      "type": "function"
    },
    {
      "inputs": [],
      "name": "factoryParams",
      "outputs": [
        {
          "internalType": "address",
          "name": "oracle",
          "type": "address"
        },
        {
          "internalType": "address",
          "name": "stake",
          "type": "address"
        },
        {
          "internalType": "uint256",
          "name": "stakeSize",
          "type": "uint256"
        },
        {
          "internalType": "uint256",
          "name": "minm",
          "type": "uint256"
        },
        {
          "internalType": "uint256",
          "name": "maxm",
          "type": "uint256"
        },
        {
          "internalType": "uint128",
          "name": "ifee",
          "type": "uint128"
        },
        {
          "internalType": "uint16",
          "name": "mode",
          "type": "uint16"
        },
        {
          "internalType": "uint64",
          "name": "tilt",
          "type": "uint64"
        },
        {
          "internalType": "uint256",
          "name": "guard",
          "type": "uint256"
        }
      ],
      "stateMutability": "view",
      "type": "function"
    },
    {
      "inputs": [
        {
          "internalType": "address",
          "name": "",
          "type": "address"
        }
      ],
      "name": "isTrusted",
      "outputs": [
        {
          "internalType": "bool",
          "name": "",
          "type": "bool"
        }
      ],
      "stateMutability": "view",
      "type": "function"
    },
    {
      "inputs": [],
      "name": "restrictedAdmin",
      "outputs": [
        {
          "internalType": "address",
          "name": "",
          "type": "address"
        }
      ],
      "stateMutability": "view",
      "type": "function"
    },
    {
      "inputs": [],
      "name": "rewardsRecipient",
      "outputs": [
        {
          "internalType": "address",
          "name": "",
          "type": "address"
        }
      ],
      "stateMutability": "view",
      "type": "function"
    },
    {
      "inputs": [
        {
          "internalType": "address",
          "name": "_restrictedAdmin",
          "type": "address"
        }
      ],
      "name": "setAdapterAdmin",
      "outputs": [],
      "stateMutability": "nonpayable",
      "type": "function"
    },
    {
      "inputs": [
        {
          "internalType": "address",
          "name": "user",
          "type": "address"
        },
        {
          "internalType": "bool",
          "name": "trusted",
          "type": "bool"
        }
      ],
      "name": "setIsTrusted",
      "outputs": [],
      "stateMutability": "nonpayable",
      "type": "function"
    },
    {
      "inputs": [
        {
          "internalType": "address",
          "name": "_recipient",
          "type": "address"
        }
      ],
      "name": "setRewardsRecipient",
      "outputs": [],
      "stateMutability": "nonpayable",
      "type": "function"
    },
    {
      "inputs": [
        {
          "internalType": "address",
          "name": "_target",
          "type": "address"
        },
        {
          "internalType": "bool",
          "name": "supported",
          "type": "bool"
        }
      ],
      "name": "supportTarget",
      "outputs": [],
      "stateMutability": "nonpayable",
      "type": "function"
    },
    {
      "inputs": [
        {
          "internalType": "address[]",
          "name": "_targets",
          "type": "address[]"
        },
        {
          "internalType": "bool",
          "name": "supported",
          "type": "bool"
        }
      ],
      "name": "supportTargets",
      "outputs": [],
      "stateMutability": "nonpayable",
      "type": "function"
    },
    {
      "inputs": [
        {
          "internalType": "address",
          "name": "",
          "type": "address"
        }
      ],
      "name": "supportedTargets",
      "outputs": [
        {
          "internalType": "bool",
          "name": "",
          "type": "bool"
        }
      ],
      "stateMutability": "view",
      "type": "function"
    }
  ],
  "transactionHash": "0xa3ef94893d3c16b48c09e16b990940ea63ad9c06cba73a3b9593f6b43465be1b",
  "args": [
    "0x86bA3E96Be68563E41c2f5769F1AF9fAf758e6E0",
    "0xDd76360C26Eaf63AFCF3a8d2c0121F13AE864D57",
    "0xDd76360C26Eaf63AFCF3a8d2c0121F13AE864D57",
    [
      "0x11D341d35BF95654BC7A9db59DBc557cCB4ea101",
      "0xC02aaA39b223FE8D0A0e5C4F27eAD9083C756Cc2",
      "250000000000000000",
      "2629800",
      "315576000",
      "1000000000000000",
      0,
      0,
      "100000000000000000000000"
    ]
  ],
  "numDeployments": 1,
  "solcInputHash": "8d5c8c75361f78fa1a08078ad4c0f5da",
  "bytecode": "0x60a06040523480156200001157600080fd5b50604051620059df380380620059df833981016040819052620000349162000210565b3360008181526020818152604091829020805460ff19166001908117909155915191825286928692869286929182917fe95aec380cae16330d146d5499ef7db6f3657e477104a733e771bc09e500d986910160405180910390a2506001600160a01b039384166080908152600180549486166001600160a01b0319958616179055600280549386169385169390931790925580516003805491861691851691909117905560208101516004805491909516931692909217909255604081015160055560608101516006559081015160075560a08101516008805460c084015160e08501516001600160401b0316600160901b02600160901b600160d01b031961ffff909216600160801b026001600160901b03199093166001600160801b039095169490941791909117169190911790556101000151600955506200030c92505050565b80516001600160a01b03811681146200019057600080fd5b919050565b60405161012081016001600160401b0381118282101715620001c757634e487b7160e01b600052604160045260246000fd5b60405290565b80516001600160801b03811681146200019057600080fd5b805161ffff811681146200019057600080fd5b80516001600160401b03811681146200019057600080fd5b6000806000808486036101808112156200022957600080fd5b620002348662000178565b9450620002446020870162000178565b9350620002546040870162000178565b925061012080605f19830112156200026b57600080fd5b6200027562000195565b9150620002856060880162000178565b8252620002956080880162000178565b602083015260a0870151604083015260c0870151606083015260e08701516080830152610100620002c8818901620001cd565b60a0840152620002da828901620001e5565b60c0840152620002ee6101408901620001f8565b60e08401526101608801518184015250508091505092959194509250565b6080516156946200034b6000396000818161018301528181610606015281816106e6015281816108ab01528181610d440152610fe401526156946000f3fe60806040523480156200001157600080fd5b5060043610620000fd5760003560e01c806395a39fb11162000097578063cac0e3c2116200006e578063cac0e3c2146200034d578063dc69c06f1462000364578063fe767c60146200038a578063ff2a7d3014620003a157600080fd5b806395a39fb114620001f957806396d648791462000210578063bbe451d5146200024757600080fd5b8063378efa3711620000d8578063378efa37146200017d5780633cad2dcd14620001a557806340cc63e114620001bc57806393d4750c14620001d857600080fd5b80630c1b797914620001025780631393916a146200014d5780631a54259c1462000166575b600080fd5b600154620001239073ffffffffffffffffffffffffffffffffffffffff1681565b60405173ffffffffffffffffffffffffffffffffffffffff90911681526020015b60405180910390f35b620001646200015e36600462001261565b620003c2565b005b62000164620001773660046200129f565b620004c9565b620001237f000000000000000000000000000000000000000000000000000000000000000081565b62000123620001b636600462001347565b620005d2565b62000123735f4ec3df9cbd43714fe2740f5e3616155c5b841981565b620001e1601f81565b60405165ffffffffffff909116815260200162000144565b620001646200020a3660046200143f565b620009c8565b62000236620002213660046200129f565b60006020819052908152604090205460ff1681565b604051901515815260200162000144565b600354600454600554600654600754600854600954620002d09673ffffffffffffffffffffffffffffffffffffffff9081169616949392916fffffffffffffffffffffffffffffffff811691700100000000000000000000000000000000820461ffff16917201000000000000000000000000000000000000900467ffffffffffffffff169089565b6040805173ffffffffffffffffffffffffffffffffffffffff9a8b1681529990981660208a015296880195909552606087019390935260808601919091526fffffffffffffffffffffffffffffffff1660a085015261ffff1660c084015267ffffffffffffffff1660e08301526101008201526101200162000144565b620001646200035e36600462001261565b62000b3f565b62000236620003753660046200129f565b600a6020526000908152604090205460ff1681565b620001646200039b3660046200129f565b62000c39565b600254620001239073ffffffffffffffffffffffffffffffffffffffff1681565b3360009081526020819052604090205460ff1662000441576040517f08c379a000000000000000000000000000000000000000000000000000000000815260206004820152600960248201527f554e54525553544544000000000000000000000000000000000000000000000060448201526064015b60405180910390fd5b73ffffffffffffffffffffffffffffffffffffffff82166000818152602081815260409182902080547fffffffffffffffffffffffffffffffffffffffffffffffffffffffffffffff001685151590811790915591519182527fe95aec380cae16330d146d5499ef7db6f3657e477104a733e771bc09e500d986910160405180910390a25050565b3360009081526020819052604090205460ff1662000544576040517f08c379a000000000000000000000000000000000000000000000000000000000815260206004820152600960248201527f554e545255535445440000000000000000000000000000000000000000000000604482015260640162000438565b60025460405173ffffffffffffffffffffffffffffffffffffffff8084169216907f952c654458751f95c1440bdb1537809137b3de28466b80ad096a711707ae987a90600090a3600280547fffffffffffffffffffffffff00000000000000000000000000000000000000001673ffffffffffffffffffffffffffffffffffffffff92909216919091179055565b60008082806020019051810190620005eb9190620014fe565b90503373ffffffffffffffffffffffffffffffffffffffff167f000000000000000000000000000000000000000000000000000000000000000073ffffffffffffffffffffffffffffffffffffffff166377aace1a6040518163ffffffff1660e01b8152600401602060405180830381865afa15801562000670573d6000803e3d6000fd5b505050506040513d601f19601f82011682018060405250810190620006969190620015a3565b73ffffffffffffffffffffffffffffffffffffffff1614620006e4576040517ffb02114900000000000000000000000000000000000000000000000000000000815260040160405180910390fd5b7f000000000000000000000000000000000000000000000000000000000000000073ffffffffffffffffffffffffffffffffffffffff1663a1256f9f6040518163ffffffff1660e01b8152600401602060405180830381865afa15801562000750573d6000803e3d6000fd5b505050506040513d601f19601f82011682018060405250810190620007769190620015c3565b158015620007aa575073ffffffffffffffffffffffffffffffffffffffff84166000908152600a602052604090205460ff16155b15620007e2576040517fa2a94ace00000000000000000000000000000000000000000000000000000000815260040160405180910390fd5b604080516101008101825260035473ffffffffffffffffffffffffffffffffffffffff9081168252600454811660208301526005548284015260065460608084019190915260075460808401526008547201000000000000000000000000000000000000810467ffffffffffffffff1660a0850152601f60c0850152700100000000000000000000000000000000810461ffff1660e0850152600254945193949189901b7fffffffffffffffffffffffffffffffffffffffff00000000000000000000000016937f0000000000000000000000000000000000000000000000000000000000000000938a9316916fffffffffffffffffffffffffffffffff169086908890620008f1906200120f565b620009029695949392919062001636565b8190604051809103906000f590508015801562000923573d6000803e3d6000fd5b509250620009318362000d42565b600180546040517f1393916a00000000000000000000000000000000000000000000000000000000815273ffffffffffffffffffffffffffffffffffffffff91821660048201526024810192909252841690631393916a90604401600060405180830381600087803b158015620009a757600080fd5b505af1158015620009bc573d6000803e3d6000fd5b50505050505092915050565b3360009081526020819052604090205460ff1662000a43576040517f08c379a000000000000000000000000000000000000000000000000000000000815260206004820152600960248201527f554e545255535445440000000000000000000000000000000000000000000000604482015260640162000438565b60005b825181101562000b3a5781600a600085848151811062000a6a5762000a6a62001715565b602002602001015173ffffffffffffffffffffffffffffffffffffffff1673ffffffffffffffffffffffffffffffffffffffff16815260200190815260200160002060006101000a81548160ff02191690831515021790555081151583828151811062000adb5762000adb62001715565b602002602001015173ffffffffffffffffffffffffffffffffffffffff167f34465fae8b1f082faa1eb1845b34c2bfd6b86cc48df2ebf6426eeddd7e3a4c9a60405160405180910390a38062000b318162001773565b91505062000a46565b505050565b3360009081526020819052604090205460ff1662000bba576040517f08c379a000000000000000000000000000000000000000000000000000000000815260206004820152600960248201527f554e545255535445440000000000000000000000000000000000000000000000604482015260640162000438565b73ffffffffffffffffffffffffffffffffffffffff82166000818152600a602052604080822080547fffffffffffffffffffffffffffffffffffffffffffffffffffffffffffffff001685151590811790915590519092917f34465fae8b1f082faa1eb1845b34c2bfd6b86cc48df2ebf6426eeddd7e3a4c9a91a35050565b3360009081526020819052604090205460ff1662000cb4576040517f08c379a000000000000000000000000000000000000000000000000000000000815260206004820152600960248201527f554e545255535445440000000000000000000000000000000000000000000000604482015260640162000438565b60015460405173ffffffffffffffffffffffffffffffffffffffff8084169216907fe7193156e088d62b242ce408a50e41464422fb99a0fb82fec66ab556af195c1590600090a3600180547fffffffffffffffffffffffff00000000000000000000000000000000000000001673ffffffffffffffffffffffffffffffffffffffff92909216919091179055565b7f000000000000000000000000000000000000000000000000000000000000000073ffffffffffffffffffffffffffffffffffffffff166372f7a0306040518163ffffffff1660e01b8152600401602060405180830381865afa15801562000dae573d6000803e3d6000fd5b505050506040513d601f19601f8201168201806040525081019062000dd49190620015c3565b15620011ab5760008190508073ffffffffffffffffffffffffffffffffffffffff1663468f02d26040518163ffffffff1660e01b8152600401602060405180830381865afa92505050801562000e67575060408051601f3d9081017fffffffffffffffffffffffffffffffffffffffffffffffffffffffffffffffe016820190925262000e6491810190620017af565b60015b62000e7257620011a9565b600080735f4ec3df9cbd43714fe2740f5e3616155c5b841973ffffffffffffffffffffffffffffffffffffffff1663feaf968c6040518163ffffffff1660e01b815260040160a060405180830381865afa15801562000ed5573d6000803e3d6000fd5b505050506040513d601f19601f8201168201806040525081019062000efb9190620017e4565b50935050925050611c20814262000f13919062001839565b111562000f4b576040517ebfc92100000000000000000000000000000000000000000000000000000000815260040160405180910390fd5b600062000f5e84846305f5e100620011ae565b905062000fe0818673ffffffffffffffffffffffffffffffffffffffff1663f51e181a6040518163ffffffff1660e01b81526004016020604051808303816000875af115801562000fb3573d6000803e3d6000fd5b505050506040513d601f19601f8201168201806040525081019062000fd99190620017af565b90620011c5565b90507f000000000000000000000000000000000000000000000000000000000000000073ffffffffffffffffffffffffffffffffffffffff16635fa0cc0a876200111f848973ffffffffffffffffffffffffffffffffffffffff1663d4b839926040518163ffffffff1660e01b8152600401602060405180830381865afa15801562001070573d6000803e3d6000fd5b505050506040513d601f19601f82011682018060405250810190620010969190620015a3565b73ffffffffffffffffffffffffffffffffffffffff1663313ce5676040518163ffffffff1660e01b8152600401602060405180830381865afa158015620010e1573d6000803e3d6000fd5b505050506040513d601f19601f82011682018060405250810190620011079190620017af565b6200111490600a6200198c565b6009549190620011e5565b6040517fffffffff0000000000000000000000000000000000000000000000000000000060e085901b16815273ffffffffffffffffffffffffffffffffffffffff90921660048301526024820152604401600060405180830381600087803b1580156200118b57600080fd5b505af1158015620011a0573d6000803e3d6000fd5b50505050505050505b505b50565b6000620011bd848484620011ef565b949350505050565b6000620011dc8383670de0b6b3a7640000620011ef565b90505b92915050565b6000620011bd8483855b8282028115158415858304851417166200120857600080fd5b0492915050565b613cc4806200199b83390190565b73ffffffffffffffffffffffffffffffffffffffff81168114620011ab57600080fd5b8015158114620011ab57600080fd5b80356200125c8162001240565b919050565b600080604083850312156200127557600080fd5b823562001282816200121d565b91506020830135620012948162001240565b809150509250929050565b600060208284031215620012b257600080fd5b8135620012bf816200121d565b9392505050565b7f4e487b7100000000000000000000000000000000000000000000000000000000600052604160045260246000fd5b604051601f82017fffffffffffffffffffffffffffffffffffffffffffffffffffffffffffffffe016810167ffffffffffffffff811182821017156200133f576200133f620012c6565b604052919050565b600080604083850312156200135b57600080fd5b823562001368816200121d565b915060208381013567ffffffffffffffff808211156200138757600080fd5b818601915086601f8301126200139c57600080fd5b813581811115620013b157620013b1620012c6565b620013e3847fffffffffffffffffffffffffffffffffffffffffffffffffffffffffffffffe0601f84011601620012f5565b91508082528784828501011115620013fa57600080fd5b80848401858401376000848284010152508093505050509250929050565b600067ffffffffffffffff821115620014355762001435620012c6565b5060051b60200190565b600080604083850312156200145357600080fd5b823567ffffffffffffffff8111156200146b57600080fd5b8301601f810185136200147d57600080fd5b8035602062001496620014908362001418565b620012f5565b82815260059290921b83018101918181019088841115620014b657600080fd5b938201935b83851015620014e1578435620014d1816200121d565b82529382019390820190620014bb565b9550620014f290508682016200124f565b93505050509250929050565b600060208083850312156200151257600080fd5b825167ffffffffffffffff8111156200152a57600080fd5b8301601f810185136200153c57600080fd5b80516200154d620014908262001418565b81815260059190911b820183019083810190878311156200156d57600080fd5b928401925b828410156200159857835162001588816200121d565b8252928401929084019062001572565b979650505050505050565b600060208284031215620015b657600080fd5b8151620012bf816200121d565b600060208284031215620015d657600080fd5b8151620012bf8162001240565b600081518084526020808501945080840160005b838110156200162b57815173ffffffffffffffffffffffffffffffffffffffff1687529582019590820190600101620015f7565b509495945050505050565b60006101a073ffffffffffffffffffffffffffffffffffffffff808a168452808916602085015280881660408501526fffffffffffffffffffffffffffffffff871660608501528086511660808501528060208701511660a085015250604085015160c0840152606085015160e0840152608085015161010084015267ffffffffffffffff60a08601511661012084015260c0850151620016e261014085018265ffffffffffff169052565b5060e085015161ffff1661016084015261018083018190526200170881840185620015e3565b9998505050505050505050565b7f4e487b7100000000000000000000000000000000000000000000000000000000600052603260045260246000fd5b7f4e487b7100000000000000000000000000000000000000000000000000000000600052601160045260246000fd5b60007fffffffffffffffffffffffffffffffffffffffffffffffffffffffffffffffff821415620017a857620017a862001744565b5060010190565b600060208284031215620017c257600080fd5b5051919050565b805169ffffffffffffffffffff811681146200125c57600080fd5b600080600080600060a08688031215620017fd57600080fd5b6200180886620017c9565b94506020860151935060408601519250606086015191506200182d60808701620017c9565b90509295509295909350565b6000828210156200184e576200184e62001744565b500390565b600181815b80851115620018b257817fffffffffffffffffffffffffffffffffffffffffffffffffffffffffffffffff0482111562001896576200189662001744565b80851615620018a457918102915b93841c939080029062001858565b509250929050565b600082620018cb57506001620011df565b81620018da57506000620011df565b8160018114620018f35760028114620018fe576200191e565b6001915050620011df565b60ff84111562001912576200191262001744565b50506001821b620011df565b5060208310610133831016604e8410600b841016171562001943575081810a620011df565b6200194f838362001853565b807fffffffffffffffffffffffffffffffffffffffffffffffffffffffffffffffff0482111562001984576200198462001744565b029392505050565b6000620011dc8383620018ba56fe6101406040523480156200001257600080fd5b5060405162003cc438038062003cc4833981016040819052620000359162000827565b858187878787878484856001600160a01b03166338d52e0f6040518163ffffffff1660e01b8152600401602060405180830381865afa1580156200007d573d6000803e3d6000fd5b505050506040513d601f19601f82011682018060405250810190620000a391906200096d565b3360008181526020818152604091829020805460ff19166001908117909155915191825288928892889282917fe95aec380cae16330d146d5499ef7db6f3657e477104a733e771bc09e500d986910160405180910390a2506001600160a01b03808716608090815286821660a081815287841660c0908152600180548987166001600160a01b0319918216179091556001600160801b03881660e09081528751600280549189169184169190911790556020880151600380549190981692169190911790955560408087015160049081556060880151600555948701516006559186015160078054928801519688015161ffff16600160701b0261ffff60701b1965ffffffffffff90981668010000000000000000026001600160701b03199094166001600160401b039093169290921792909217959095169490941790935582516306fdde0360e01b8152925190926306fdde0392818101926000929091908290030181865afa1580156200021d573d6000803e3d6000fd5b505050506040513d6000823e601f3d908101601f19168201604052620002479190810190620009c3565b60405160200162000259919062000a61565b604051602081830303815290604052600890805190602001906200027f929190620005b4565b50846001600160a01b03166395d89b416040518163ffffffff1660e01b8152600401600060405180830381865afa158015620002bf573d6000803e3d6000fd5b505050506040513d6000823e601f3d908101601f19168201604052620002e99190810190620009c3565b604051602001620002fb919062000a8f565b6040516020818303038152906040526009908051906020019062000321929190620005b4565b506200034b608051600019876001600160a01b03166200048760201b62001b63179092919060201c565b6200037860805160001983602001516001600160a01b03166200048760201b62001b63179092919060201c565b505050505050600060a0516001600160a01b031663313ce5676040518163ffffffff1660e01b8152600401602060405180830381865afa158015620003c1573d6000803e3d6000fd5b505050506040513d601f19601f82011682018060405250810190620003e7919062000abd565b60ff169050620003f981600a62000bf7565b610100526200040a81601262000c05565b6200041790600a62000bf7565b61012081815250506200044a60a05160001960c0516001600160a01b03166200048760201b62001b63179092919060201c565b505050505050620004638260016200050a60201b60201c565b80516200047890600f90602084019062000643565b50505050505050505062000c5c565b600060405163095ea7b360e01b8152836004820152826024820152602060006044836000895af13d15601f3d1160016000511416171691505080620005045760405162461bcd60e51b815260206004820152600e60248201526d1054141493d59157d1905253115160921b60448201526064015b60405180910390fd5b50505050565b3360009081526020819052604090205460ff16620005575760405162461bcd60e51b8152602060048201526009602482015268155395149554d5115160ba1b6044820152606401620004fb565b6001600160a01b03821660008181526020818152604091829020805460ff191685151590811790915591519182527fe95aec380cae16330d146d5499ef7db6f3657e477104a733e771bc09e500d986910160405180910390a25050565b828054620005c29062000c1f565b90600052602060002090601f016020900481019282620005e6576000855562000631565b82601f106200060157805160ff191683800117855562000631565b8280016001018555821562000631579182015b828111156200063157825182559160200191906001019062000614565b506200063f9291506200069b565b5090565b82805482825590600052602060002090810192821562000631579160200282015b828111156200063157825182546001600160a01b0319166001600160a01b0390911617825560209092019160019091019062000664565b5b808211156200063f57600081556001016200069c565b6001600160a01b0381168114620006c857600080fd5b50565b8051620006d881620006b2565b919050565b634e487b7160e01b600052604160045260246000fd5b60405161010081016001600160401b0381118282101715620007195762000719620006dd565b60405290565b604051601f8201601f191681016001600160401b03811182821017156200074a576200074a620006dd565b604052919050565b80516001600160401b0381168114620006d857600080fd5b805165ffffffffffff81168114620006d857600080fd5b805161ffff81168114620006d857600080fd5b600082601f830112620007a657600080fd5b815160206001600160401b03821115620007c457620007c4620006dd565b8160051b620007d58282016200071f565b9283528481018201928281019087851115620007f057600080fd5b83870192505b848310156200081c5782516200080c81620006b2565b82529183019190830190620007f6565b979650505050505050565b6000806000806000808688036101a08112156200084357600080fd5b87516200085081620006b2565b60208901519097506200086381620006b2565b60408901519096506200087681620006b2565b60608901519095506001600160801b03811681146200089457600080fd5b9350610100607f198201811315620008ab57600080fd5b620008b5620006f3565b91506080890151620008c781620006b2565b8252620008d760a08a01620006cb565b602083015260c0890151604083015260e08901516060830152880151608082015262000907610120890162000752565b60a08201526200091b61014089016200076a565b60c08201526200092f610160890162000781565b60e08201526101808801519092506001600160401b038111156200095257600080fd5b6200096089828a0162000794565b9150509295509295509295565b6000602082840312156200098057600080fd5b81516200098d81620006b2565b9392505050565b60005b83811015620009b157818101518382015260200162000997565b83811115620005045750506000910152565b600060208284031215620009d657600080fd5b81516001600160401b0380821115620009ee57600080fd5b818401915084601f83011262000a0357600080fd5b81518181111562000a185762000a18620006dd565b62000a2d601f8201601f19166020016200071f565b915080825285602082850101111562000a4557600080fd5b62000a5881602084016020860162000994565b50949350505050565b6000825162000a7581846020870162000994565b671020b230b83a32b960c11b920191825250600801919050565b6000825162000aa381846020870162000994565b6716b0b230b83a32b960c11b920191825250600801919050565b60006020828403121562000ad057600080fd5b815160ff811681146200098d57600080fd5b634e487b7160e01b600052601160045260246000fd5b600181815b8085111562000b3957816000190482111562000b1d5762000b1d62000ae2565b8085161562000b2b57918102915b93841c939080029062000afd565b509250929050565b60008262000b525750600162000bf1565b8162000b615750600062000bf1565b816001811462000b7a576002811462000b855762000ba5565b600191505062000bf1565b60ff84111562000b995762000b9962000ae2565b50506001821b62000bf1565b5060208310610133831016604e8410600b841016171562000bca575081810a62000bf1565b62000bd6838362000af8565b806000190482111562000bed5762000bed62000ae2565b0290505b92915050565b60006200098d838362000b41565b60008282101562000c1a5762000c1a62000ae2565b500390565b600181811c9082168062000c3457607f821691505b6020821081141562000c5657634e487b7160e01b600052602260045260246000fd5b50919050565b60805160a05160c05160e0516101005161012051612fb662000d0e600039600081816107620152610c050152600081816107280152610bdc015260006106a70152600081816105ec01528181610cf60152610dc2015260008181610491015281816107c901528181610c3c01528181610e1f01528181610ee701528181611558015281816115ce015281816116b6015281816117740152611ad701526000818161050a01526114640152612fb66000f3fe608060405234801561001057600080fd5b50600436106102d35760003560e01c80636f307dc311610186578063cce59386116100e3578063d4b8399211610097578063f51e181a11610071578063f51e181a1461045a578063f60c05ce14610807578063ff2a7d301461082257600080fd5b8063d4b83992146107c4578063d9d98ce4146107eb578063da4ca413146107fe57600080fd5b8063ce4b5bbe116100c8578063ce4b5bbe1461075d578063d01c6f2914610784578063d379be23146107a457600080fd5b8063cce5938614610723578063cdfb58321461074a57600080fd5b806396d648791161013a578063b8c15a9f1161011f578063b8c15a9f146106a2578063b90d3d0c146106ea578063c39a3b291461071157600080fd5b806396d648791461066c578063b484972a1461068f57600080fd5b80637bb7bed11161016b5780637bb7bed11461062a5780638237e5381461063d57806395d89b411461066457600080fd5b80636f307dc3146105e75780636fd5ae151461060e57600080fd5b806329a4360811610234578063572acb9f116101e8578063608c44d6116101cd578063608c44d6146105a5578063613255ab146105b857806364c56e3c146105cb57600080fd5b8063572acb9f1461057f5780635cffe9de1461059257600080fd5b8063468f02d211610219578063468f02d2146105515780634aae9fed1461055957806351c39ea11461056c57600080fd5b806329a43608146104e5578063378efa371461050557600080fd5b80631a54259c1161028b5780632267784911610270578063226778491461045a57806327b327d014610470578063295a5212146104c757600080fd5b80631a54259c14610434578063201e81a81461044757600080fd5b80630e122423116102bc5780630e122423146103cd5780631393916a1461040b57806314282f581461042057600080fd5b806306fdde03146102d8578063083118d5146102f6575b600080fd5b6102e0610842565b6040516102ed91906128cf565b60405180910390f35b6002546003546004546005546006546007546103649573ffffffffffffffffffffffffffffffffffffffff90811695169392919067ffffffffffffffff81169068010000000000000000810465ffffffffffff16906e010000000000000000000000000000900461ffff1688565b6040805173ffffffffffffffffffffffffffffffffffffffff998a168152989097166020890152958701949094526060860192909252608085015267ffffffffffffffff1660a084015265ffffffffffff1660c083015261ffff1660e0820152610100016102ed565b6103fb6103db366004612977565b600e60209081526000928352604080842090915290825290205460ff1681565b60405190151581526020016102ed565b61041e6104193660046129b1565b6108d0565b005b61041e61042e3660046129ea565b50505050565b61041e610442366004612a1c565b6109d6565b61041e610455366004612a68565b610add565b610462610bb4565b6040519081526020016102ed565b6003546004546040805173ffffffffffffffffffffffffffffffffffffffff7f00000000000000000000000000000000000000000000000000000000000000008116825290931660208401528201526060016102ed565b6007546e010000000000000000000000000000900461ffff16610462565b6104626104f3366004612a1c565b600c6020526000908152604090205481565b61052c7f000000000000000000000000000000000000000000000000000000000000000081565b60405173ffffffffffffffffffffffffffffffffffffffff90911681526020016102ed565b610462610cb6565b610462610567366004612b4b565b610da6565b61046261057a366004612b4b565b610ea8565b61041e61058d366004612bb0565b610f2b565b6103fb6105a0366004612c1c565b611449565b61041e6105b3366004612a1c565b6116eb565b6104626105c6366004612a1c565b61192a565b6005546006545b604080519283526020830191909152016102ed565b61052c7f000000000000000000000000000000000000000000000000000000000000000081565b60075468010000000000000000900465ffffffffffff16610462565b61052c610638366004612b4b565b611997565b6104627f439148f0bbc682ca079e46d6e2c2f0c1e3b820f1a291b069d8882abf8cf18dd981565b6102e06119ce565b6103fb61067a366004612a1c565b60006020819052908152604090205460ff1681565b61041e61069d366004612cbb565b6119db565b6106c97f000000000000000000000000000000000000000000000000000000000000000081565b6040516fffffffffffffffffffffffffffffffff90911681526020016102ed565b6105d26106f8366004612a1c565b6010602052600090815260409020805460019091015482565b60075467ffffffffffffffff16610462565b6104627f000000000000000000000000000000000000000000000000000000000000000081565b61041e610758366004612a1c565b6119eb565b6104627f000000000000000000000000000000000000000000000000000000000000000081565b610462610792366004612a1c565b600d6020526000908152604090205481565b600a5461052c9073ffffffffffffffffffffffffffffffffffffffff1681565b61052c7f000000000000000000000000000000000000000000000000000000000000000081565b6104626107f9366004612977565b611ad3565b610462600b5481565b61052c731887118e49e0f4a78bd71b792a49de03504a764d81565b60015461052c9073ffffffffffffffffffffffffffffffffffffffff1681565b6008805461084f90612cfd565b80601f016020809104026020016040519081016040528092919081815260200182805461087b90612cfd565b80156108c85780601f1061089d576101008083540402835291602001916108c8565b820191906000526020600020905b8154815290600101906020018083116108ab57829003601f168201915b505050505081565b3360009081526020819052604090205460ff1661094e576040517f08c379a000000000000000000000000000000000000000000000000000000000815260206004820152600960248201527f554e54525553544544000000000000000000000000000000000000000000000060448201526064015b60405180910390fd5b73ffffffffffffffffffffffffffffffffffffffff82166000818152602081815260409182902080547fffffffffffffffffffffffffffffffffffffffffffffffffffffffffffffff001685151590811790915591519182527fe95aec380cae16330d146d5499ef7db6f3657e477104a733e771bc09e500d986910160405180910390a25050565b3360009081526020819052604090205460ff16610a4f576040517f08c379a000000000000000000000000000000000000000000000000000000000815260206004820152600960248201527f554e5452555354454400000000000000000000000000000000000000000000006044820152606401610945565b60015460405173ffffffffffffffffffffffffffffffffffffffff8084169216907f952c654458751f95c1440bdb1537809137b3de28466b80ad096a711707ae987a90600090a3600180547fffffffffffffffffffffffff00000000000000000000000000000000000000001673ffffffffffffffffffffffffffffffffffffffff92909216919091179055565b3360009081526020819052604090205460ff16610b56576040517f08c379a000000000000000000000000000000000000000000000000000000000815260206004820152600960248201527f554e5452555354454400000000000000000000000000000000000000000000006044820152606401610945565b610b5e611c1c565b8051610b7190600f906020840190612830565b50600f604051610b819190612d51565b604051908190038120907f45fae61b076570d71d045d3f03e5fa6b6401bebddde54161c7126c56a5ce7d6590600090a250565b6040517f07a2d13a0000000000000000000000000000000000000000000000000000000081527f000000000000000000000000000000000000000000000000000000000000000060048201526000907f00000000000000000000000000000000000000000000000000000000000000009073ffffffffffffffffffffffffffffffffffffffff7f000000000000000000000000000000000000000000000000000000000000000016906307a2d13a90602401602060405180830381865afa158015610c83573d6000803e3d6000fd5b505050506040513d601f19601f82011682018060405250810190610ca79190612da4565b610cb19190612dec565b905090565b6002546040517faea9107800000000000000000000000000000000000000000000000000000000815273ffffffffffffffffffffffffffffffffffffffff7f000000000000000000000000000000000000000000000000000000000000000081166004830152600092169063aea9107890602401602060405180830381865afa158015610d47573d6000803e3d6000fd5b505050506040513d601f19601f82011682018060405250810190610d6b9190612da4565b905080610da3576040517ebfc92100000000000000000000000000000000000000000000000000000000815260040160405180910390fd5b90565b6000610dea73ffffffffffffffffffffffffffffffffffffffff7f000000000000000000000000000000000000000000000000000000000000000016333085611f34565b6040517f6e553f65000000000000000000000000000000000000000000000000000000008152600481018390523360248201527f000000000000000000000000000000000000000000000000000000000000000073ffffffffffffffffffffffffffffffffffffffff1690636e553f65906044015b6020604051808303816000875af1158015610e7e573d6000803e3d6000fd5b505050506040513d601f19601f82011682018060405250810190610ea29190612da4565b92915050565b6040517fba08765200000000000000000000000000000000000000000000000000000000815260048101829052336024820181905260448201526000907f000000000000000000000000000000000000000000000000000000000000000073ffffffffffffffffffffffffffffffffffffffff169063ba08765290606401610e5f565b60003073ffffffffffffffffffffffffffffffffffffffff1663378efa376040518163ffffffff1660e01b8152600401602060405180830381865afa158015610f78573d6000803e3d6000fd5b505050506040513d601f19601f82011682018060405250810190610f9c9190612e29565b905060005b828110156114415760005b8581101561142e576000878783818110610fc857610fc8612e46565b9050602002016020810190610fdd9190612a1c565b905060008473ffffffffffffffffffffffffffffffffffffffff1663574e77953089898881811061101057611010612e46565b6040517fffffffff0000000000000000000000000000000000000000000000000000000060e087901b16815273ffffffffffffffffffffffffffffffffffffffff90941660048501526020029190910135602483015250604401602060405180830381865afa158015611087573d6000803e3d6000fd5b505050506040513d601f19601f820116820180604052508101906110ab9190612e29565b6040517f70a0823100000000000000000000000000000000000000000000000000000000815273ffffffffffffffffffffffffffffffffffffffff848116600483015291909116906370a0823190602401602060405180830381865afa158015611119573d6000803e3d6000fd5b505050506040513d601f19601f8201168201806040525081019061113d9190612da4565b90504287878681811061115257611152612e46565b90506020020135111580156111675750600081115b80156111c5575073ffffffffffffffffffffffffffffffffffffffff82166000908152600e60205260408120908888878181106111a6576111a6612e46565b602090810292909201358352508101919091526040016000205460ff16155b15611419576111d382611ffa565b60006112b38673ffffffffffffffffffffffffffffffffffffffff16632f9cd854308b8b8a81811061120757611207612e46565b6040517fffffffff0000000000000000000000000000000000000000000000000000000060e087901b16815273ffffffffffffffffffffffffffffffffffffffff9485166004820152602090910292909201356024830152509087166044820152606401602060405180830381865afa158015611288573d6000803e3d6000fd5b505050506040513d601f19601f820116820180604052508101906112ac9190612da4565b8390612450565b905080600b60008282546112c79190612e75565b909155505073ffffffffffffffffffffffffffffffffffffffff83166000908152600c602052604081208054839290611301908490612e75565b909155505073ffffffffffffffffffffffffffffffffffffffff83166000908152600d60205260408120805483929061133b908490612e8c565b909155505073ffffffffffffffffffffffffffffffffffffffff83166000908152600e602052604081206001918a8a8981811061137a5761137a612e46565b90506020020135815260200190815260200160002060006101000a81548160ff0219169083151502179055508273ffffffffffffffffffffffffffffffffffffffff167f5758e413a9bfd3ec45a67abaa9ee2396cab143a505332bf7ab48c0e624b65f11828a8a898181106113f1576113f1612e46565b9050602002013560405161140f929190918252602082015260400190565b60405180910390a2505b5050808061142690612ea4565b915050610fac565b508061143981612ea4565b915050610fa1565b505050505050565b60003373ffffffffffffffffffffffffffffffffffffffff167f000000000000000000000000000000000000000000000000000000000000000073ffffffffffffffffffffffffffffffffffffffff166377aace1a6040518163ffffffff1660e01b8152600401602060405180830381865afa1580156114cd573d6000803e3d6000fd5b505050506040513d601f19601f820116820180604052508101906114f19190612e29565b73ffffffffffffffffffffffffffffffffffffffff161461153e576040517ffb02114900000000000000000000000000000000000000000000000000000000815260040160405180910390fd5b61157f73ffffffffffffffffffffffffffffffffffffffff7f000000000000000000000000000000000000000000000000000000000000000016878661246c565b6040517f23e30c8b00000000000000000000000000000000000000000000000000000000815260009073ffffffffffffffffffffffffffffffffffffffff8816906323e30c8b906115fe9033907f0000000000000000000000000000000000000000000000000000000000000000908a9087908b908b90600401612edd565b6020604051808303816000875af115801561161d573d6000803e3d6000fd5b505050506040513d601f19601f820116820180604052508101906116419190612da4565b90507f439148f0bbc682ca079e46d6e2c2f0c1e3b820f1a291b069d8882abf8cf18dd9811461169c576040517f207df21c00000000000000000000000000000000000000000000000000000000815260040160405180910390fd5b6116de73ffffffffffffffffffffffffffffffffffffffff7f000000000000000000000000000000000000000000000000000000000000000016883088611f34565b5060019695505050505050565b60005b600f5481101561177157600f818154811061170b5761170b612e46565b60009182526020909120015473ffffffffffffffffffffffffffffffffffffffff83811691161415611769576040517f3dd1b30500000000000000000000000000000000000000000000000000000000815260040160405180910390fd5b6001016116ee565b507f000000000000000000000000000000000000000000000000000000000000000073ffffffffffffffffffffffffffffffffffffffff168173ffffffffffffffffffffffffffffffffffffffff1614806117e6575060035473ffffffffffffffffffffffffffffffffffffffff8281169116145b1561181d576040517f3dd1b30500000000000000000000000000000000000000000000000000000000815260040160405180910390fd5b6040517f70a08231000000000000000000000000000000000000000000000000000000008152306004820152819060009073ffffffffffffffffffffffffffffffffffffffff8316906370a0823190602401602060405180830381865afa15801561188c573d6000803e3d6000fd5b505050506040513d601f19601f820116820180604052508101906118b09190612da4565b6001549091506118da9073ffffffffffffffffffffffffffffffffffffffff84811691168361246c565b600154604051829173ffffffffffffffffffffffffffffffffffffffff90811691908616907f9310ccfcb8de723f578a9e4282ea9f521f05ae40dc08f3068dfad528a65ee3c790600090a4505050565b6040517f70a0823100000000000000000000000000000000000000000000000000000000815230600482015260009073ffffffffffffffffffffffffffffffffffffffff8316906370a0823190602401602060405180830381865afa158015610e7e573d6000803e3d6000fd5b600f81815481106119a757600080fd5b60009182526020909120015473ffffffffffffffffffffffffffffffffffffffff16905081565b6009805461084f90612cfd565b6119e6838383612525565b505050565b3360009081526020819052604090205460ff16611a64576040517f08c379a000000000000000000000000000000000000000000000000000000000815260206004820152600960248201527f554e5452555354454400000000000000000000000000000000000000000000006044820152606401610945565b600a80547fffffffffffffffffffffffff00000000000000000000000000000000000000001673ffffffffffffffffffffffffffffffffffffffff83169081179091556040517f70e1f29a97aa858ce785e48a42e40cd51020a45c8a2e4520272a6303585916a990600090a250565b60007f000000000000000000000000000000000000000000000000000000000000000073ffffffffffffffffffffffffffffffffffffffff168373ffffffffffffffffffffffffffffffffffffffff1614611b5a576040517f3dd1b30500000000000000000000000000000000000000000000000000000000815260040160405180910390fd5b50600092915050565b60006040517f095ea7b3000000000000000000000000000000000000000000000000000000008152836004820152826024820152602060006044836000895af13d15601f3d116001600051141617169150508061042e576040517f08c379a000000000000000000000000000000000000000000000000000000000815260206004820152600e60248201527f415050524f56455f4641494c45440000000000000000000000000000000000006044820152606401610945565b600a5473ffffffffffffffffffffffffffffffffffffffff1615611f325760003073ffffffffffffffffffffffffffffffffffffffff1663d4b839926040518163ffffffff1660e01b8152600401602060405180830381865afa158015611c87573d6000803e3d6000fd5b505050506040513d601f19601f82011682018060405250810190611cab9190612e29565b6040517f70a0823100000000000000000000000000000000000000000000000000000000815230600482015290915060009073ffffffffffffffffffffffffffffffffffffffff8316906370a0823190602401602060405180830381865afa158015611d1b573d6000803e3d6000fd5b505050506040513d601f19601f82011682018060405250810190611d3f9190612da4565b90508015611f2f57600a546040517fa9059cbb00000000000000000000000000000000000000000000000000000000815273ffffffffffffffffffffffffffffffffffffffff9182166004820152602481018390529083169063a9059cbb906044016020604051808303816000875af1158015611dc0573d6000803e3d6000fd5b505050506040513d601f19601f82011682018060405250810190611de49190612f63565b50600a60009054906101000a900473ffffffffffffffffffffffffffffffffffffffff1673ffffffffffffffffffffffffffffffffffffffff16634e71d92d6040518163ffffffff1660e01b8152600401600060405180830381600087803b158015611e4f57600080fd5b505af1158015611e63573d6000803e3d6000fd5b50506040517f70a0823100000000000000000000000000000000000000000000000000000000815230600482015283925073ffffffffffffffffffffffffffffffffffffffff851691506370a0823190602401602060405180830381865afa158015611ed3573d6000803e3d6000fd5b505050506040513d601f19601f82011682018060405250810190611ef79190612da4565b1015611f2f576040517f41ac6b7d00000000000000000000000000000000000000000000000000000000815260040160405180910390fd5b50505b565b60006040517f23b872dd0000000000000000000000000000000000000000000000000000000081528460048201528360248201528260448201526020600060648360008a5af13d15601f3d1160016000511416171691505080611ff3576040517f08c379a000000000000000000000000000000000000000000000000000000000815260206004820152601460248201527f5452414e534645525f46524f4d5f4641494c45440000000000000000000000006044820152606401610945565b5050505050565b612002611c1c565b60005b600f54811015611f2f57600060106000600f848154811061202857612028612e46565b600091825260208083209091015473ffffffffffffffffffffffffffffffffffffffff168352820192909252604001902060010154600f80548490811061207157612071612e46565b6000918252602090912001546040517f70a0823100000000000000000000000000000000000000000000000000000000815230600482015273ffffffffffffffffffffffffffffffffffffffff909116906370a0823190602401602060405180830381865afa1580156120e8573d6000803e3d6000fd5b505050506040513d601f19601f8201168201806040525081019061210c9190612da4565b6121169190612e75565b600b549091501561219a57600b5461213c9082906b033b2e3c9fd0803ce80000006127bd565b60106000600f858154811061215357612153612e46565b600091825260208083209091015473ffffffffffffffffffffffffffffffffffffffff16835282019290925260400181208054909190612194908490612e8c565b90915550505b600060106000600f85815481106121b3576121b3612e46565b600091825260208083209091015473ffffffffffffffffffffffffffffffffffffffff9081168452838201949094526040928301822093881682526002909301909252812054600f805491935061226e9160109184918890811061221957612219612e46565b600091825260208083209091015473ffffffffffffffffffffffffffffffffffffffff9081168452838201949094526040928301822054938a168252600c90522054906b033b2e3c9fd0803ce80000006127d2565b9050818111156122bb576122bb85838303600f878154811061229257612292612e46565b60009182526020909120015473ffffffffffffffffffffffffffffffffffffffff16919061246c565b600f84815481106122ce576122ce612e46565b6000918252602090912001546040517f70a0823100000000000000000000000000000000000000000000000000000000815230600482015273ffffffffffffffffffffffffffffffffffffffff909116906370a0823190602401602060405180830381865afa158015612345573d6000803e3d6000fd5b505050506040513d601f19601f820116820180604052508101906123699190612da4565b60106000600f878154811061238057612380612e46565b600091825260208083209091015473ffffffffffffffffffffffffffffffffffffffff168352820192909252604001902060010155600f8054859081106123c9576123c9612e46565b60009182526020909120015473ffffffffffffffffffffffffffffffffffffffff9081169086167fad4a9acf26d8bba7a8cf1a41160d59be042ee554578e256c98d2ab74cdd4354284841161241f576000612429565b6124298585612e75565b60405190815260200160405180910390a3505050808061244890612ea4565b915050612005565b600061246583670de0b6b3a7640000846127db565b9392505050565b60006040517fa9059cbb000000000000000000000000000000000000000000000000000000008152836004820152826024820152602060006044836000895af13d15601f3d116001600051141617169150508061042e576040517f08c379a000000000000000000000000000000000000000000000000000000000815260206004820152600f60248201527f5452414e534645525f4641494c454400000000000000000000000000000000006044820152606401610945565b3360009081526020819052604090205460ff1661259e576040517f08c379a000000000000000000000000000000000000000000000000000000000815260206004820152600960248201527f554e5452555354454400000000000000000000000000000000000000000000006044820152606401610945565b6125a783611ffa565b81156126d257801561260a5781600b60008282546125c59190612e8c565b909155505073ffffffffffffffffffffffffffffffffffffffff83166000908152600c6020526040812080548492906125ff908490612e8c565b909155506126d29050565b73ffffffffffffffffffffffffffffffffffffffff83166000908152600d60205260409020548015612678578083101561264857600092900361264f565b9091039060005b73ffffffffffffffffffffffffffffffffffffffff84166000908152600d602052604090208190555b82156126d05782600b60008282546126909190612e75565b909155505073ffffffffffffffffffffffffffffffffffffffff84166000908152600c6020526040812080548592906126ca908490612e75565b90915550505b505b60005b600f5481101561042e5761274e60106000600f84815481106126f9576126f9612e46565b600091825260208083209091015473ffffffffffffffffffffffffffffffffffffffff90811684528382019490945260409283018220549389168252600c90522054906b033b2e3c9fd0803ce80000006127fa565b60106000600f848154811061276557612765612e46565b600091825260208083209091015473ffffffffffffffffffffffffffffffffffffffff9081168452838201949094526040928301822093891682526002909301909252902055806127b581612ea4565b9150506126d5565b60006127ca8483856127db565b949350505050565b60006127ca8484845b8282028115158415858304851417166127f357600080fd5b0492915050565b60006127ca84848482820281151584158583048514171661281a57600080fd5b6001826001830304018115150290509392505050565b8280548282559060005260206000209081019282156128aa579160200282015b828111156128aa57825182547fffffffffffffffffffffffff00000000000000000000000000000000000000001673ffffffffffffffffffffffffffffffffffffffff909116178255602090920191600190910190612850565b506128b69291506128ba565b5090565b5b808211156128b657600081556001016128bb565b600060208083528351808285015260005b818110156128fc578581018301518582016040015282016128e0565b8181111561290e576000604083870101525b50601f017fffffffffffffffffffffffffffffffffffffffffffffffffffffffffffffffe016929092016040019392505050565b73ffffffffffffffffffffffffffffffffffffffff8116811461296457600080fd5b50565b803561297281612942565b919050565b6000806040838503121561298a57600080fd5b823561299581612942565b946020939093013593505050565b801515811461296457600080fd5b600080604083850312156129c457600080fd5b82356129cf81612942565b915060208301356129df816129a3565b809150509250929050565b60008060008060808587031215612a0057600080fd5b5050823594602084013594506040840135936060013592509050565b600060208284031215612a2e57600080fd5b813561246581612942565b7f4e487b7100000000000000000000000000000000000000000000000000000000600052604160045260246000fd5b60006020808385031215612a7b57600080fd5b823567ffffffffffffffff80821115612a9357600080fd5b818501915085601f830112612aa757600080fd5b813581811115612ab957612ab9612a39565b8060051b6040517fffffffffffffffffffffffffffffffffffffffffffffffffffffffffffffffe0603f83011681018181108582111715612afc57612afc612a39565b604052918252848201925083810185019188831115612b1a57600080fd5b938501935b82851015612b3f57612b3085612967565b84529385019392850192612b1f565b98975050505050505050565b600060208284031215612b5d57600080fd5b5035919050565b60008083601f840112612b7657600080fd5b50813567ffffffffffffffff811115612b8e57600080fd5b6020830191508360208260051b8501011115612ba957600080fd5b9250929050565b60008060008060408587031215612bc657600080fd5b843567ffffffffffffffff80821115612bde57600080fd5b612bea88838901612b64565b90965094506020870135915080821115612c0357600080fd5b50612c1087828801612b64565b95989497509550505050565b600080600080600060808688031215612c3457600080fd5b8535612c3f81612942565b94506020860135612c4f81612942565b935060408601359250606086013567ffffffffffffffff80821115612c7357600080fd5b818801915088601f830112612c8757600080fd5b813581811115612c9657600080fd5b896020828501011115612ca857600080fd5b9699959850939650602001949392505050565b600080600060608486031215612cd057600080fd5b8335612cdb81612942565b9250602084013591506040840135612cf2816129a3565b809150509250925092565b600181811c90821680612d1157607f821691505b60208210811415612d4b577f4e487b7100000000000000000000000000000000000000000000000000000000600052602260045260246000fd5b50919050565b60008183548391508460005260208060002060005b83811015612d9857815473ffffffffffffffffffffffffffffffffffffffff1685529382019360019182019101612d66565b50929695505050505050565b600060208284031215612db657600080fd5b5051919050565b7f4e487b7100000000000000000000000000000000000000000000000000000000600052601160045260246000fd5b6000817fffffffffffffffffffffffffffffffffffffffffffffffffffffffffffffffff0483118215151615612e2457612e24612dbd565b500290565b600060208284031215612e3b57600080fd5b815161246581612942565b7f4e487b7100000000000000000000000000000000000000000000000000000000600052603260045260246000fd5b600082821015612e8757612e87612dbd565b500390565b60008219821115612e9f57612e9f612dbd565b500190565b60007fffffffffffffffffffffffffffffffffffffffffffffffffffffffffffffffff821415612ed657612ed6612dbd565b5060010190565b600073ffffffffffffffffffffffffffffffffffffffff808916835280881660208401525085604083015284606083015260a060808301528260a0830152828460c0840137600060c0848401015260c07fffffffffffffffffffffffffffffffffffffffffffffffffffffffffffffffe0601f8501168301019050979650505050505050565b600060208284031215612f7557600080fd5b8151612465816129a356fea26469706673582212202dea51aaa23cf004bdd92a1e8a0f734505e3769189bda60faac7b51ef7789a4764736f6c634300080b0033a264697066735822122058107c57d272ce659e50db30544737e33632a476c917bf89cae9befde44be08a64736f6c634300080b0033",
  "devdoc": {
    "kind": "dev",
    "methods": {
      "deployAdapter(address,bytes)": {
        "params": {
          "_target": "The target address",
          "data": "ABI encoded data"
        }
      },
      "setRewardsRecipient(address)": {
        "details": "existing adapters rewards recipients will not be changed and can be done through `setRewardsRecipient` on each adapter contract"
      },
      "supportTarget(address,bool)": {
        "params": {
          "_target": "The target address",
          "supported": "Whether the target should be supported or not"
        }
      },
      "supportTargets(address[],bool)": {
        "params": {
          "_targets": "Array of target addresses",
          "supported": "Whether the targets should be supported or not"
        }
      }
    },
    "version": 1
  },
  "userdoc": {
    "kind": "user",
    "methods": {
      "DEFAULT_LEVEL()": {
        "notice": "Sets level to `31` by default, which keeps all Divider lifecycle methods public (`issue`, `combine`, `collect`, etc), but not the `onRedeem` hook."
      },
      "deployAdapter(address,bytes)": {
        "notice": "Deploys an ERC4626Adapter contract"
      },
      "divider()": {
        "notice": "Sense core Divider address"
      },
      "factoryParams()": {
        "notice": "params for adapters deployed with this factory"
      },
      "restrictedAdmin()": {
        "notice": "Adapter admin address"
      },
      "rewardsRecipient()": {
        "notice": "Rewards recipient"
      },
      "setRewardsRecipient(address)": {
        "notice": "Set factory rewards recipientall future deployed adapters will have the new rewards recipient"
      },
      "supportTarget(address,bool)": {
        "notice": "(Un)support target"
      },
      "supportTargets(address[],bool)": {
        "notice": "(Un)support multiple target at once"
      }
    },
    "version": 1
  },
  "storageLayout": {
    "storage": [
      {
        "astId": 21535,
        "contract": "@sense-finance/v1-core/src/adapters/abstract/factories/ERC4626CropsFactory.sol:ERC4626CropsFactory",
        "label": "isTrusted",
        "offset": 0,
        "slot": "0",
        "type": "t_mapping(t_address,t_bool)"
      },
      {
        "astId": 10330,
        "contract": "@sense-finance/v1-core/src/adapters/abstract/factories/ERC4626CropsFactory.sol:ERC4626CropsFactory",
        "label": "restrictedAdmin",
        "offset": 0,
        "slot": "1",
        "type": "t_address"
      },
      {
        "astId": 10333,
        "contract": "@sense-finance/v1-core/src/adapters/abstract/factories/ERC4626CropsFactory.sol:ERC4626CropsFactory",
        "label": "rewardsRecipient",
        "offset": 0,
        "slot": "2",
        "type": "t_address"
      },
      {
        "astId": 10337,
        "contract": "@sense-finance/v1-core/src/adapters/abstract/factories/ERC4626CropsFactory.sol:ERC4626CropsFactory",
        "label": "factoryParams",
        "offset": 0,
        "slot": "3",
        "type": "t_struct(FactoryParams)10356_storage"
      },
      {
        "astId": 10831,
        "contract": "@sense-finance/v1-core/src/adapters/abstract/factories/ERC4626CropsFactory.sol:ERC4626CropsFactory",
        "label": "supportedTargets",
        "offset": 0,
        "slot": "10",
        "type": "t_mapping(t_address,t_bool)"
      }
    ],
    "types": {
      "t_address": {
        "encoding": "inplace",
        "label": "address",
        "numberOfBytes": "20"
      },
      "t_bool": {
        "encoding": "inplace",
        "label": "bool",
        "numberOfBytes": "1"
      },
      "t_mapping(t_address,t_bool)": {
        "encoding": "mapping",
        "key": "t_address",
        "label": "mapping(address => bool)",
        "numberOfBytes": "32",
        "value": "t_bool"
      },
      "t_struct(FactoryParams)10356_storage": {
        "encoding": "inplace",
        "label": "struct BaseFactory.FactoryParams",
        "members": [
          {
            "astId": 10339,
            "contract": "@sense-finance/v1-core/src/adapters/abstract/factories/ERC4626CropsFactory.sol:ERC4626CropsFactory",
            "label": "oracle",
            "offset": 0,
            "slot": "0",
            "type": "t_address"
          },
          {
            "astId": 10341,
            "contract": "@sense-finance/v1-core/src/adapters/abstract/factories/ERC4626CropsFactory.sol:ERC4626CropsFactory",
            "label": "stake",
            "offset": 0,
            "slot": "1",
            "type": "t_address"
          },
          {
            "astId": 10343,
            "contract": "@sense-finance/v1-core/src/adapters/abstract/factories/ERC4626CropsFactory.sol:ERC4626CropsFactory",
            "label": "stakeSize",
            "offset": 0,
            "slot": "2",
            "type": "t_uint256"
          },
          {
            "astId": 10345,
            "contract": "@sense-finance/v1-core/src/adapters/abstract/factories/ERC4626CropsFactory.sol:ERC4626CropsFactory",
            "label": "minm",
            "offset": 0,
            "slot": "3",
            "type": "t_uint256"
          },
          {
            "astId": 10347,
            "contract": "@sense-finance/v1-core/src/adapters/abstract/factories/ERC4626CropsFactory.sol:ERC4626CropsFactory",
            "label": "maxm",
            "offset": 0,
            "slot": "4",
            "type": "t_uint256"
          },
          {
            "astId": 10349,
            "contract": "@sense-finance/v1-core/src/adapters/abstract/factories/ERC4626CropsFactory.sol:ERC4626CropsFactory",
            "label": "ifee",
            "offset": 0,
            "slot": "5",
            "type": "t_uint128"
          },
          {
            "astId": 10351,
            "contract": "@sense-finance/v1-core/src/adapters/abstract/factories/ERC4626CropsFactory.sol:ERC4626CropsFactory",
            "label": "mode",
            "offset": 16,
            "slot": "5",
            "type": "t_uint16"
          },
          {
            "astId": 10353,
            "contract": "@sense-finance/v1-core/src/adapters/abstract/factories/ERC4626CropsFactory.sol:ERC4626CropsFactory",
            "label": "tilt",
            "offset": 18,
            "slot": "5",
            "type": "t_uint64"
          },
          {
            "astId": 10355,
            "contract": "@sense-finance/v1-core/src/adapters/abstract/factories/ERC4626CropsFactory.sol:ERC4626CropsFactory",
            "label": "guard",
            "offset": 0,
            "slot": "6",
            "type": "t_uint256"
          }
        ],
        "numberOfBytes": "224"
      },
      "t_uint128": {
        "encoding": "inplace",
        "label": "uint128",
        "numberOfBytes": "16"
      },
      "t_uint16": {
        "encoding": "inplace",
        "label": "uint16",
        "numberOfBytes": "2"
      },
      "t_uint256": {
        "encoding": "inplace",
        "label": "uint256",
        "numberOfBytes": "32"
      },
      "t_uint64": {
        "encoding": "inplace",
        "label": "uint64",
        "numberOfBytes": "8"
      }
    }
  }
}