{
  "address": "0x3C4d1E02Abc4faA8D17B63Ad897BA893cFDb0b37",
  "abi": [
    {
      "inputs": [
        {
          "internalType": "address",
          "name": "_divider",
          "type": "address"
        },
        {
          "internalType": "address",
          "name": "_restrictedAdmin",
          "type": "address"
        },
        {
          "internalType": "address",
          "name": "_rewardsRecipient",
          "type": "address"
        },
        {
          "components": [
            {
              "internalType": "address",
              "name": "oracle",
              "type": "address"
            },
            {
              "internalType": "address",
              "name": "stake",
              "type": "address"
            },
            {
              "internalType": "uint256",
              "name": "stakeSize",
              "type": "uint256"
            },
            {
              "internalType": "uint256",
              "name": "minm",
              "type": "uint256"
            },
            {
              "internalType": "uint256",
              "name": "maxm",
              "type": "uint256"
            },
            {
              "internalType": "uint128",
              "name": "ifee",
              "type": "uint128"
            },
            {
              "internalType": "uint16",
              "name": "mode",
              "type": "uint16"
            },
            {
              "internalType": "uint64",
              "name": "tilt",
              "type": "uint64"
            },
            {
              "internalType": "uint256",
              "name": "guard",
              "type": "uint256"
            }
          ],
          "internalType": "struct BaseFactory.FactoryParams",
          "name": "_factoryParams",
          "type": "tuple"
        },
        {
          "internalType": "address",
          "name": "_rlvFactory",
          "type": "address"
        }
      ],
      "stateMutability": "nonpayable",
      "type": "constructor"
    },
    {
      "inputs": [],
      "name": "InvalidPrice",
      "type": "error"
    },
    {
      "inputs": [],
      "name": "OnlyPeriphery",
      "type": "error"
    },
    {
      "inputs": [],
      "name": "TargetNotSupported",
      "type": "error"
    },
    {
      "anonymous": false,
      "inputs": [
        {
          "indexed": true,
          "internalType": "address",
          "name": "oldAdmin",
          "type": "address"
        },
        {
          "indexed": true,
          "internalType": "address",
          "name": "newAdmin",
          "type": "address"
        }
      ],
      "name": "RestrictedAdminChanged",
      "type": "event"
    },
    {
      "anonymous": false,
      "inputs": [
        {
          "indexed": true,
          "internalType": "address",
          "name": "oldRecipient",
          "type": "address"
        },
        {
          "indexed": true,
          "internalType": "address",
          "name": "newRecipient",
          "type": "address"
        }
      ],
      "name": "RewardsRecipientChanged",
      "type": "event"
    },
    {
      "anonymous": false,
      "inputs": [
        {
          "indexed": true,
          "internalType": "address",
          "name": "rlvFactory",
          "type": "address"
        }
      ],
      "name": "RlvFactoryChanged",
      "type": "event"
    },
    {
      "anonymous": false,
      "inputs": [
        {
          "indexed": true,
          "internalType": "address",
          "name": "target",
          "type": "address"
        },
        {
          "indexed": true,
          "internalType": "bool",
          "name": "supported",
          "type": "bool"
        }
      ],
      "name": "TargetSupported",
      "type": "event"
    },
    {
      "anonymous": false,
      "inputs": [
        {
          "indexed": true,
          "internalType": "address",
          "name": "user",
          "type": "address"
        },
        {
          "indexed": false,
          "internalType": "bool",
          "name": "trusted",
          "type": "bool"
        }
      ],
      "name": "UserTrustUpdated",
      "type": "event"
    },
    {
      "inputs": [],
      "name": "DEFAULT_LEVEL",
      "outputs": [
        {
          "internalType": "uint48",
          "name": "",
          "type": "uint48"
        }
      ],
      "stateMutability": "view",
      "type": "function"
    },
    {
      "inputs": [],
      "name": "ETH_USD_PRICEFEED",
      "outputs": [
        {
          "internalType": "address",
          "name": "",
          "type": "address"
        }
      ],
      "stateMutability": "view",
      "type": "function"
    },
    {
      "inputs": [
        {
          "internalType": "address",
          "name": "_target",
          "type": "address"
        },
        {
          "internalType": "bytes",
          "name": "data",
          "type": "bytes"
        }
      ],
      "name": "deployAdapter",
      "outputs": [
        {
          "internalType": "address",
          "name": "adapter",
          "type": "address"
        }
      ],
      "stateMutability": "nonpayable",
      "type": "function"
    },
    {
      "inputs": [],
      "name": "divider",
      "outputs": [
        {
          "internalType": "address",
          "name": "",
          "type": "address"
        }
      ],
      "stateMutability": "view",
      "type": "function"
    },
    {
      "inputs": [],
      "name": "factoryParams",
      "outputs": [
        {
          "internalType": "address",
          "name": "oracle",
          "type": "address"
        },
        {
          "internalType": "address",
          "name": "stake",
          "type": "address"
        },
        {
          "internalType": "uint256",
          "name": "stakeSize",
          "type": "uint256"
        },
        {
          "internalType": "uint256",
          "name": "minm",
          "type": "uint256"
        },
        {
          "internalType": "uint256",
          "name": "maxm",
          "type": "uint256"
        },
        {
          "internalType": "uint128",
          "name": "ifee",
          "type": "uint128"
        },
        {
          "internalType": "uint16",
          "name": "mode",
          "type": "uint16"
        },
        {
          "internalType": "uint64",
          "name": "tilt",
          "type": "uint64"
        },
        {
          "internalType": "uint256",
          "name": "guard",
          "type": "uint256"
        }
      ],
      "stateMutability": "view",
      "type": "function"
    },
    {
      "inputs": [
        {
          "internalType": "address",
          "name": "",
          "type": "address"
        }
      ],
      "name": "isTrusted",
      "outputs": [
        {
          "internalType": "bool",
          "name": "",
          "type": "bool"
        }
      ],
      "stateMutability": "view",
      "type": "function"
    },
    {
      "inputs": [],
      "name": "restrictedAdmin",
      "outputs": [
        {
          "internalType": "address",
          "name": "",
          "type": "address"
        }
      ],
      "stateMutability": "view",
      "type": "function"
    },
    {
      "inputs": [],
      "name": "reward",
      "outputs": [
        {
          "internalType": "address",
          "name": "",
          "type": "address"
        }
      ],
      "stateMutability": "view",
      "type": "function"
    },
    {
      "inputs": [],
      "name": "rewardsRecipient",
      "outputs": [
        {
          "internalType": "address",
          "name": "",
          "type": "address"
        }
      ],
      "stateMutability": "view",
      "type": "function"
    },
    {
      "inputs": [],
      "name": "rlvFactory",
      "outputs": [
        {
          "internalType": "address",
          "name": "",
          "type": "address"
        }
      ],
      "stateMutability": "view",
      "type": "function"
    },
    {
      "inputs": [
        {
          "internalType": "address",
          "name": "_adapter",
          "type": "address"
        },
        {
          "internalType": "address",
          "name": "_user",
          "type": "address"
        },
        {
          "internalType": "bool",
          "name": "_trusted",
          "type": "bool"
        }
      ],
      "name": "setAdapterTrusted",
      "outputs": [],
      "stateMutability": "nonpayable",
      "type": "function"
    },
    {
      "inputs": [
        {
          "internalType": "address",
          "name": "user",
          "type": "address"
        },
        {
          "internalType": "bool",
          "name": "trusted",
          "type": "bool"
        }
      ],
      "name": "setIsTrusted",
      "outputs": [],
      "stateMutability": "nonpayable",
      "type": "function"
    },
    {
      "inputs": [
        {
          "internalType": "address",
          "name": "_restrictedAdmin",
          "type": "address"
        }
      ],
      "name": "setRestrictedAdmin",
      "outputs": [],
      "stateMutability": "nonpayable",
      "type": "function"
    },
    {
      "inputs": [
        {
          "internalType": "address",
          "name": "_recipient",
          "type": "address"
        }
      ],
      "name": "setRewardsRecipient",
      "outputs": [],
      "stateMutability": "nonpayable",
      "type": "function"
    },
    {
      "inputs": [
        {
          "internalType": "address",
          "name": "_rlvFactory",
          "type": "address"
        }
      ],
      "name": "setRlvFactory",
      "outputs": [],
      "stateMutability": "nonpayable",
      "type": "function"
    },
    {
      "inputs": [
        {
          "internalType": "address",
          "name": "_target",
          "type": "address"
        },
        {
          "internalType": "bool",
          "name": "supported",
          "type": "bool"
        }
      ],
      "name": "supportTarget",
      "outputs": [],
      "stateMutability": "nonpayable",
      "type": "function"
    },
    {
      "inputs": [
        {
          "internalType": "address[]",
          "name": "_targets",
          "type": "address[]"
        },
        {
          "internalType": "bool",
          "name": "supported",
          "type": "bool"
        }
      ],
      "name": "supportTargets",
      "outputs": [],
      "stateMutability": "nonpayable",
      "type": "function"
    },
    {
      "inputs": [
        {
          "internalType": "address",
          "name": "",
          "type": "address"
        }
      ],
      "name": "supportedTargets",
      "outputs": [
        {
          "internalType": "bool",
          "name": "",
          "type": "bool"
        }
      ],
      "stateMutability": "view",
      "type": "function"
    }
  ],
  "transactionHash": "0x8d30a7207c521407b21d3ce0b765174afb8df6e0770c9fb98d82fd0316b73ea4",
  "args": [
    "0x86bA3E96Be68563E41c2f5769F1AF9fAf758e6E0",
    "0xDd76360C26Eaf63AFCF3a8d2c0121F13AE864D57",
    "0xDd76360C26Eaf63AFCF3a8d2c0121F13AE864D57",
    [
      "0x11D341d35BF95654BC7A9db59DBc557cCB4ea101",
      "0xC02aaA39b223FE8D0A0e5C4F27eAD9083C756Cc2",
      "250000000000000000",
      "2629800",
      "315576000",
      "5000000000000000",
      0,
      0,
      "100000000000000000000000"
    ],
    "0x3b0f35bdd6da9e3b8513c58af8fdf231f60232e5"
  ],
  "numDeployments": 1,
  "solcInputHash": "81a806f3e1239505ec8805c5164abe8e",
  "bytecode": "0x60a06040523480156200001157600080fd5b5060405162004b4938038062004b4983398101604081905262000034916200024d565b33600081815260208181526040808320805460ff1916600190811790915590519081528893889388938893879387938793879391928792879287928792909182917fe95aec380cae16330d146d5499ef7db6f3657e477104a733e771bc09e500d986910160405180910390a2506001600160a01b039384166080908152600180549486166001600160a01b03199586161790556002805493861693851693909317909255805160038054918616918516919091179055602081015160048054918616918516919091179055604081015160055560608101516006559081015160075560a08101516008805460c084015160e08501516001600160401b0316600160901b02600160901b600160d01b031961ffff909216600160801b026001600160901b03199093166001600160801b039095169490941791909117169190911790556101000151600955600a805493831693821693909317909255600c80549b9091169a90911699909917909855506200035a9a5050505050505050505050565b80516001600160a01b0381168114620001cd57600080fd5b919050565b60405161012081016001600160401b03811182821017156200020457634e487b7160e01b600052604160045260246000fd5b60405290565b80516001600160801b0381168114620001cd57600080fd5b805161ffff81168114620001cd57600080fd5b80516001600160401b0381168114620001cd57600080fd5b60008060008060008587036101a08112156200026857600080fd5b6200027387620001b5565b95506200028360208801620001b5565b94506200029360408801620001b5565b935061012080605f1983011215620002aa57600080fd5b620002b4620001d2565b9150620002c460608901620001b5565b8252620002d460808901620001b5565b602083015260a0880151604083015260c0880151606083015260e0880151608083015261010062000307818a016200020a565b60a084015262000319828a0162000222565b60c08401526200032d6101408a0162000235565b60e0840152610160890151908301525091506200034e6101808701620001b5565b90509295509295909350565b6080516147b062000399600039600081816101c4015281816105ee0152818161069b015281816107f101528181610c6c0152610e9c01526147b06000f3fe60806040523480156200001157600080fd5b50600436106200012d5760003560e01c806393d4750c11620000af578063cac0e3c2116200007a578063cac0e3c2146200035a578063cd7740bf1462000371578063dc69c06f1462000388578063f67359ea14620003ae578063ff2a7d3014620003c557600080fd5b806393d4750c146200022d57806395a39fb1146200024e57806396d648791462000265578063bbe451d5146200029c57600080fd5b8063228cb73311620000fc578063228cb73314620001aa578063378efa3714620001be5780633cad2dcd14620001e657806340cc63e114620001fd57806358fdac35146200021957600080fd5b80630c1b797914620001325780631393916a146200016357806318a85cee146200017c5780631a54259c1462000193575b600080fd5b60015462000146906001600160a01b031681565b6040516001600160a01b0390911681526020015b60405180910390f35b6200017a62000174366004620010d8565b620003d9565b005b6200017a6200018d36600462001116565b62000487565b6200017a620001a436600462001116565b6200051e565b600a5462000146906001600160a01b031681565b620001467f000000000000000000000000000000000000000000000000000000000000000081565b62000146620001f736600462001187565b620005c7565b62000146735f4ec3df9cbd43714fe2740f5e3616155c5b841981565b600c5462000146906001600160a01b031681565b62000236601f81565b60405165ffffffffffff90911681526020016200015a565b6200017a6200025f3660046200123a565b62000947565b6200028b6200027636600462001116565b60006020819052908152604090205460ff1681565b60405190151581526020016200015a565b600354600454600554600654600754600854600954620002f3966001600160a01b039081169616949392916001600160801b03811691600160801b820461ffff1691600160901b900467ffffffffffffffff169089565b604080516001600160a01b039a8b1681529990981660208a015296880195909552606087019390935260808601919091526001600160801b031660a085015261ffff1660c084015267ffffffffffffffff1660e0830152610100820152610120016200015a565b6200017a6200036b366004620010d8565b62000a69565b6200017a620003823660046200130d565b62000b0a565b6200028b6200039936600462001116565b600b6020526000908152604090205460ff1681565b6200017a620003bf36600462001116565b62000bc1565b60025462000146906001600160a01b031681565b3360009081526020819052604090205460ff166200042a5760405162461bcd60e51b8152602060048201526009602482015268155395149554d5115160ba1b60448201526064015b60405180910390fd5b6001600160a01b03821660008181526020818152604091829020805460ff191685151590811790915591519182527fe95aec380cae16330d146d5499ef7db6f3657e477104a733e771bc09e500d986910160405180910390a25050565b3360009081526020819052604090205460ff16620004d45760405162461bcd60e51b8152602060048201526009602482015268155395149554d5115160ba1b604482015260640162000421565b600c80546001600160a01b0319166001600160a01b0383169081179091556040517faf0375a607cbd4b5dc85497face63eb09a3dbe35af7003230bc31d0edd14eeaa90600090a250565b3360009081526020819052604090205460ff166200056b5760405162461bcd60e51b8152602060048201526009602482015268155395149554d5115160ba1b604482015260640162000421565b6002546040516001600160a01b038084169216907f952c654458751f95c1440bdb1537809137b3de28466b80ad096a711707ae987a90600090a3600280546001600160a01b0319166001600160a01b0392909216919091179055565b60008082806020019051810190620005e091906200135f565b9050336001600160a01b03167f00000000000000000000000000000000000000000000000000000000000000006001600160a01b03166377aace1a6040518163ffffffff1660e01b8152600401602060405180830381865afa1580156200064b573d6000803e3d6000fd5b505050506040513d601f19601f820116820180604052508101906200067191906200135f565b6001600160a01b031614620006995760405163fb02114960e01b815260040160405180910390fd5b7f00000000000000000000000000000000000000000000000000000000000000006001600160a01b031663a1256f9f6040518163ffffffff1660e01b8152600401602060405180830381865afa158015620006f8573d6000803e3d6000fd5b505050506040513d601f19601f820116820180604052508101906200071e91906200137f565b1580156200074557506001600160a01b0384166000908152600b602052604090205460ff16155b156200076457604051635154a56760e11b815260040160405180910390fd5b60408051610100810182526003546001600160a01b03908116825260045481166020830152600554828401526006546060808401919091526007546080840152600854600160901b810467ffffffffffffffff1660a0850152601f60c0850152600160801b810461ffff1660e0850152600254945193949189901b6bffffffffffffffffffffffff1916937f0000000000000000000000000000000000000000000000000000000000000000938a9316916001600160801b031690869088906200082e9062001093565b6200083f969594939291906200139f565b8190604051809103906000f590508015801562000860573d6000803e3d6000fd5b5092506200086e8362000c6a565b600c546040516309c9c8b560e11b81526001600160a01b0391821660048201526001602482015290841690631393916a90604401600060405180830381600087803b158015620008bd57600080fd5b505af1158015620008d2573d6000803e3d6000fd5b5050600180546040516309c9c8b560e11b81526001600160a01b039182166004820152602481019290925286169250631393916a9150604401600060405180830381600087803b1580156200092657600080fd5b505af11580156200093b573d6000803e3d6000fd5b50505050505092915050565b3360009081526020819052604090205460ff16620009945760405162461bcd60e51b8152602060048201526009602482015268155395149554d5115160ba1b604482015260640162000421565b60005b825181101562000a645781600b6000858481518110620009bb57620009bb62001466565b60200260200101516001600160a01b03166001600160a01b0316815260200190815260200160002060006101000a81548160ff02191690831515021790555081151583828151811062000a125762000a1262001466565b60200260200101516001600160a01b03167f34465fae8b1f082faa1eb1845b34c2bfd6b86cc48df2ebf6426eeddd7e3a4c9a60405160405180910390a38062000a5b8162001492565b91505062000997565b505050565b3360009081526020819052604090205460ff1662000ab65760405162461bcd60e51b8152602060048201526009602482015268155395149554d5115160ba1b604482015260640162000421565b6001600160a01b0382166000818152600b6020526040808220805460ff191685151590811790915590519092917f34465fae8b1f082faa1eb1845b34c2bfd6b86cc48df2ebf6426eeddd7e3a4c9a91a35050565b3360009081526020819052604090205460ff1662000b575760405162461bcd60e51b8152602060048201526009602482015268155395149554d5115160ba1b604482015260640162000421565b6040516309c9c8b560e11b81526001600160a01b0383811660048301528215156024830152841690631393916a90604401600060405180830381600087803b15801562000ba357600080fd5b505af115801562000bb8573d6000803e3d6000fd5b50505050505050565b3360009081526020819052604090205460ff1662000c0e5760405162461bcd60e51b8152602060048201526009602482015268155395149554d5115160ba1b604482015260640162000421565b6001546040516001600160a01b038084169216907fb656925e78f8f28c65d9357077dfd5d3d0056d5eac98c8c1a1e0b426ffd43d4a90600090a3600180546001600160a01b0319166001600160a01b0392909216919091179055565b7f00000000000000000000000000000000000000000000000000000000000000006001600160a01b03166372f7a0306040518163ffffffff1660e01b8152600401602060405180830381865afa15801562000cc9573d6000803e3d6000fd5b505050506040513d601f19601f8201168201806040525081019062000cef91906200137f565b156200102f576000819050806001600160a01b031663468f02d26040518163ffffffff1660e01b8152600401602060405180830381865afa92505050801562000d57575060408051601f3d908101601f1916820190925262000d5491810190620014ae565b60015b156200102d57600080735f4ec3df9cbd43714fe2740f5e3616155c5b84196001600160a01b031663feaf968c6040518163ffffffff1660e01b815260040160a060405180830381865afa15801562000db3573d6000803e3d6000fd5b505050506040513d601f19601f8201168201806040525081019062000dd99190620014e3565b50935050925050611c20814262000df1919062001538565b111562000e105760405162bfc92160e01b815260040160405180910390fd5b600062000e2384846305f5e10062001032565b905062000e9881866001600160a01b031663f51e181a6040518163ffffffff1660e01b81526004016020604051808303816000875af115801562000e6b573d6000803e3d6000fd5b505050506040513d601f19601f8201168201806040525081019062000e919190620014ae565b9062001049565b90507f00000000000000000000000000000000000000000000000000000000000000006001600160a01b0316635fa0cc0a8762000fb084896001600160a01b031663d4b839926040518163ffffffff1660e01b8152600401602060405180830381865afa15801562000f0e573d6000803e3d6000fd5b505050506040513d601f19601f8201168201806040525081019062000f3491906200135f565b6001600160a01b031663313ce5676040518163ffffffff1660e01b8152600401602060405180830381865afa15801562000f72573d6000803e3d6000fd5b505050506040513d601f19601f8201168201806040525081019062000f989190620014ae565b62000fa590600a6200164f565b600954919062001069565b6040517fffffffff0000000000000000000000000000000000000000000000000000000060e085901b1681526001600160a01b0390921660048301526024820152604401600060405180830381600087803b1580156200100f57600080fd5b505af115801562001024573d6000803e3d6000fd5b50505050505050505b505b50565b60006200104184848462001073565b949350505050565b6000620010608383670de0b6b3a764000062001073565b90505b92915050565b6000620010418483855b8282028115158415858304851417166200108c57600080fd5b0492915050565b61311d806200165e83390190565b6001600160a01b03811681146200102f57600080fd5b80151581146200102f57600080fd5b8035620010d381620010b7565b919050565b60008060408385031215620010ec57600080fd5b8235620010f981620010a1565b915060208301356200110b81620010b7565b809150509250929050565b6000602082840312156200112957600080fd5b81356200113681620010a1565b9392505050565b634e487b7160e01b600052604160045260246000fd5b604051601f8201601f1916810167ffffffffffffffff811182821017156200117f576200117f6200113d565b604052919050565b600080604083850312156200119b57600080fd5b8235620011a881620010a1565b915060208381013567ffffffffffffffff80821115620011c757600080fd5b818601915086601f830112620011dc57600080fd5b813581811115620011f157620011f16200113d565b62001205601f8201601f1916850162001153565b915080825287848285010111156200121c57600080fd5b80848401858401376000848284010152508093505050509250929050565b600080604083850312156200124e57600080fd5b823567ffffffffffffffff808211156200126757600080fd5b818501915085601f8301126200127c57600080fd5b81356020828211156200129357620012936200113d565b8160051b9250620012a681840162001153565b8281529284018101928181019089851115620012c157600080fd5b948201945b84861015620012ef5785359350620012de84620010a1565b8382529482019490820190620012c6565b9650620013009050878201620010c6565b9450505050509250929050565b6000806000606084860312156200132357600080fd5b83356200133081620010a1565b925060208401356200134281620010a1565b915060408401356200135481620010b7565b809150509250925092565b6000602082840312156200137257600080fd5b81516200113681620010a1565b6000602082840312156200139257600080fd5b81516200113681620010b7565b60006101a0820190506001600160a01b038089168352808816602084015280871660408401526001600160801b03861660608401528085511660808401528060208601511660a084015250604084015160c0830152606084015160e0830152608084015161010083015267ffffffffffffffff60a08501511661012083015260c08401516200143961014084018265ffffffffffff169052565b5060e084015161ffff8116610160840152506001600160a01b038316610180830152979650505050505050565b634e487b7160e01b600052603260045260246000fd5b634e487b7160e01b600052601160045260246000fd5b600060018201620014a757620014a76200147c565b5060010190565b600060208284031215620014c157600080fd5b5051919050565b805169ffffffffffffffffffff81168114620010d357600080fd5b600080600080600060a08688031215620014fc57600080fd5b6200150786620014c8565b94506020860151935060408601519250606086015191506200152c60808701620014c8565b90509295509295909350565b6000828210156200154d576200154d6200147c565b500390565b600181815b80851115620015935781600019048211156200157757620015776200147c565b808516156200158557918102915b93841c939080029062001557565b509250929050565b600082620015ac5750600162001063565b81620015bb5750600062001063565b8160018114620015d45760028114620015df57620015ff565b600191505062001063565b60ff841115620015f357620015f36200147c565b50506001821b62001063565b5060208310610133831016604e8410600b841016171562001624575081810a62001063565b62001630838362001552565b80600019048211156200164757620016476200147c565b029392505050565b60006200106083836200159b56fe61014060405260016013553480156200001757600080fd5b506040516200311d3803806200311d8339810160408190526200003a91620006f1565b8585858585858581878787878782338686876001600160a01b03166338d52e0f6040518163ffffffff1660e01b8152600401602060405180830381865afa1580156200008a573d6000803e3d6000fd5b505050506040513d601f19601f82011682018060405250810190620000b091906200081b565b6001600160a01b03808416608090815283821660a081815284841660c09081526001600160801b038c1660e09081528b51600080549188166001600160a01b031992831617815560208e015160018054919099169216919091179096556040808d015160025560608d0151600355948c01516004908155928c015160058054938e0151928e015161ffff16600160701b0261ffff60701b1965ffffffffffff90941668010000000000000000026001600160701b03199095166001600160401b0390931692909217939093179190911617905582516306fdde0360e01b815292518b948b946306fdde039381810193918290030181865afa158015620001ba573d6000803e3d6000fd5b505050506040513d6000823e601f3d908101601f19168201604052620001e4919081019062000871565b604051602001620001f6919062000929565b60405160208183030381529060405260069081620002159190620009e6565b50836001600160a01b03166395d89b416040518163ffffffff1660e01b8152600401600060405180830381865afa15801562000255573d6000803e3d6000fd5b505050506040513d6000823e601f3d908101601f191682016040526200027f919081019062000871565b60405160200162000291919062000ab2565b60405160208183030381529060405260079081620002b09190620009e6565b50620002da608051600019866001600160a01b03166200050d60201b620016ef179092919060201c565b6200030760805160001983602001516001600160a01b03166200050d60201b620016ef179092919060201c565b505050506001600160a01b038216600081815260086020908152604091829020805460ff1916600190811790915591519182529192507fe95aec380cae16330d146d5499ef7db6f3657e477104a733e771bc09e500d986910160405180910390a25080600960006101000a8154816001600160a01b0302191690836001600160a01b031602179055505060a0516001600160a01b031663313ce5676040518163ffffffff1660e01b8152600401602060405180830381865afa158015620003d2573d6000803e3d6000fd5b505050506040513d601f19601f82011682018060405250810190620003f8919062000ae0565b6200040590600a62000c1a565b610100818152505060c0516001600160a01b031663313ce5676040518163ffffffff1660e01b8152600401602060405180830381865afa1580156200044e573d6000803e3d6000fd5b505050506040513d601f19601f8201168201806040525081019062000474919062000ae0565b6200048190601262000c2b565b6200048e90600a62000c1a565b6101208181525050620004c160a05160001960c0516001600160a01b03166200050d60201b620016ef179092919060201c565b5050505050620004d98260016200059660201b60201c565b600b80546001600160a01b0319166001600160a01b03929092169190911790555062000c519b505050505050505050505050565b600060405163095ea7b360e01b6000528360045282602452602060006044600080895af13d15601f3d1160016000511416171691506000606052806040525080620005905760405162461bcd60e51b815260206004820152600e60248201526d1054141493d59157d1905253115160921b60448201526064015b60405180910390fd5b50505050565b3360009081526008602052604090205460ff16620005e35760405162461bcd60e51b8152602060048201526009602482015268155395149554d5115160ba1b604482015260640162000587565b6001600160a01b038216600081815260086020908152604091829020805460ff191685151590811790915591519182527fe95aec380cae16330d146d5499ef7db6f3657e477104a733e771bc09e500d986910160405180910390a25050565b6001600160a01b03811681146200065857600080fd5b50565b8051620006688162000642565b919050565b634e487b7160e01b600052604160045260246000fd5b60405161010081016001600160401b0381118282101715620006a957620006a96200066d565b60405290565b80516001600160401b03811681146200066857600080fd5b805165ffffffffffff811681146200066857600080fd5b805161ffff811681146200066857600080fd5b6000806000806000808688036101a08112156200070d57600080fd5b87516200071a8162000642565b60208901519097506200072d8162000642565b6040890151909650620007408162000642565b60608901519095506001600160801b03811681146200075e57600080fd5b9350610100607f1982018113156200077557600080fd5b6200077f62000683565b91506080890151620007918162000642565b8252620007a160a08a016200065b565b602083015260c0890151604083015260e089015160608301528801516080820152620007d16101208901620006af565b60a0820152620007e56101408901620006c7565b60c0820152620007f96101608901620006de565b60e082015291506200080f61018088016200065b565b90509295509295509295565b6000602082840312156200082e57600080fd5b81516200083b8162000642565b9392505050565b60005b838110156200085f57818101518382015260200162000845565b83811115620005905750506000910152565b6000602082840312156200088457600080fd5b81516001600160401b03808211156200089c57600080fd5b818401915084601f830112620008b157600080fd5b815181811115620008c657620008c66200066d565b604051601f8201601f19908116603f01168101908382118183101715620008f157620008f16200066d565b816040528281528760208487010111156200090b57600080fd5b6200091e83602083016020880162000842565b979650505050505050565b600082516200093d81846020870162000842565b671020b230b83a32b960c11b920191825250600801919050565b600181811c908216806200096c57607f821691505b6020821081036200098d57634e487b7160e01b600052602260045260246000fd5b50919050565b601f821115620009e157600081815260208120601f850160051c81016020861015620009bc5750805b601f850160051c820191505b81811015620009dd57828155600101620009c8565b5050505b505050565b81516001600160401b0381111562000a025762000a026200066d565b62000a1a8162000a13845462000957565b8462000993565b602080601f83116001811462000a52576000841562000a395750858301515b600019600386901b1c1916600185901b178555620009dd565b600085815260208120601f198616915b8281101562000a835788860151825594840194600190910190840162000a62565b508582101562000aa25787850151600019600388901b60f8161c191681555b5050505050600190811b01905550565b6000825162000ac681846020870162000842565b6716b0b230b83a32b960c11b920191825250600801919050565b60006020828403121562000af357600080fd5b815160ff811681146200083b57600080fd5b634e487b7160e01b600052601160045260246000fd5b600181815b8085111562000b5c57816000190482111562000b405762000b4062000b05565b8085161562000b4e57918102915b93841c939080029062000b20565b509250929050565b60008262000b755750600162000c14565b8162000b845750600062000c14565b816001811462000b9d576002811462000ba85762000bc8565b600191505062000c14565b60ff84111562000bbc5762000bbc62000b05565b50506001821b62000c14565b5060208310610133831016604e8410600b841016171562000bed575081810a62000c14565b62000bf9838362000b1b565b806000190482111562000c105762000c1062000b05565b0290505b92915050565b60006200083b60ff84168362000b64565b600060ff821660ff84168082101562000c485762000c4862000b05565b90039392505050565b60805160a05160c05160e051610100516101205161241a62000d036000396000818161070901526109eb0152600081816106cf01526109c20152600061066c0152600081816105b101528181610b670152610c0f01526000818161045d0152818161076301528181610a1501528181610c5301528181610cf5015281816112340152818161128401528181611346015281816116960152611ab30152600081816104d30152611180015261241a6000f3fe608060405234801561001057600080fd5b50600436106102b45760003560e01c806364c56e3c11610171578063cce59386116100d3578063d4b8399211610097578063f51e181a11610071578063f51e181a14610416578063f60c05ce146107a1578063ff2a7d30146107bc57600080fd5b8063d4b839921461075e578063d9d98ce414610785578063da4ca4131461079857600080fd5b8063cce59386146106ca578063cdfb5832146106f1578063ce4b5bbe14610704578063d01c6f291461072b578063d379be231461074b57600080fd5b806395d89b4111610135578063b8c15a9f1161010f578063b8c15a9f14610667578063c39a3b29146106af578063c5c108c7146106c157600080fd5b806395d89b411461062957806396d6487914610631578063b484972a1461065457600080fd5b806364c56e3c1461058f5780636f307dc3146105ac5780636fd5ae15146105d35780638237e538146105ef5780638aee81271461061657600080fd5b806329a436081161021a5780634aae9fed116101de5780635cffe9de116101b85780635cffe9de14610556578063608c44d614610569578063613255ab1461057c57600080fd5b80634aae9fed1461051d57806351c39ea114610530578063572acb9f1461054357600080fd5b806329a43608146104a65780632c5786b8146104c6578063378efa37146104ce578063379f53e3146104f5578063468f02d21461051557600080fd5b806314282f581161027c578063228cb73311610256578063228cb7331461041e57806327b327d014610449578063295a52121461049357600080fd5b806314282f58146103ef5780631a54259c14610403578063226778491461041657600080fd5b806303314efa146102b957806306fdde03146102d5578063083118d5146102ea5780630e1224231461039c5780631393916a146103da575b600080fd5b6102c2600c5481565b6040519081526020015b60405180910390f35b6102dd6107cf565b6040516102cc9190611f88565b600054600154600254600354600454600554610340956001600160a01b0390811695169392919067ffffffffffffffff81169068010000000000000000810465ffffffffffff1690600160701b900461ffff1688565b604080516001600160a01b03998a168152989097166020890152958701949094526060860192909252608085015267ffffffffffffffff1660a084015265ffffffffffff1660c083015261ffff1660e0820152610100016102cc565b6103ca6103aa366004611ff5565b601260209081526000928352604080842090915290825290205460ff1681565b60405190151581526020016102cc565b6103ed6103e836600461202f565b61085d565b005b6103ed6103fd366004612068565b50505050565b6103ed61041136600461209a565b61090c565b6102c26109b3565b600b54610431906001600160a01b031681565b6040516001600160a01b0390911681526020016102cc565b600154600254604080516001600160a01b037f00000000000000000000000000000000000000000000000000000000000000008116825290931660208401528201526060016102cc565b600554600160701b900461ffff166102c2565b6102c26104b436600461209a565b600f6020526000908152604090205481565b6103ed610a8f565b6104317f000000000000000000000000000000000000000000000000000000000000000081565b6102c261050336600461209a565b60106020526000908152604090205481565b6102c2610b4c565b6102c261052b3660046120b7565b610c00565b6102c261053e3660046120b7565b610ccf565b6103ed61055136600461211c565b610d2c565b6103ca610564366004612188565b611172565b6103ed61057736600461209a565b61137b565b6102c261058a36600461209a565b6114d8565b61059761151f565b604080519283526020830191909152016102cc565b6104317f000000000000000000000000000000000000000000000000000000000000000081565b60055468010000000000000000900465ffffffffffff166102c2565b6102c27f439148f0bbc682ca079e46d6e2c2f0c1e3b820f1a291b069d8882abf8cf18dd981565b6103ed61062436600461209a565b611543565b6102dd6115e0565b6103ca61063f36600461209a565b60086020526000908152604090205460ff1681565b6103ed610662366004612227565b6115ed565b61068e7f000000000000000000000000000000000000000000000000000000000000000081565b6040516fffffffffffffffffffffffffffffffff90911681526020016102cc565b60055467ffffffffffffffff166102c2565b6102c2600d5481565b6102c27f000000000000000000000000000000000000000000000000000000000000000081565b6103ed6106ff36600461209a565b6115fd565b6102c27f000000000000000000000000000000000000000000000000000000000000000081565b6102c261073936600461209a565b60116020526000908152604090205481565b600a54610431906001600160a01b031681565b6104317f000000000000000000000000000000000000000000000000000000000000000081565b6102c2610793366004611ff5565b611692565b6102c2600e5481565b610431731887118e49e0f4a78bd71b792a49de03504a764d81565b600954610431906001600160a01b031681565b600680546107dc90612269565b80601f016020809104026020016040519081016040528092919081815260200182805461080890612269565b80156108555780601f1061082a57610100808354040283529160200191610855565b820191906000526020600020905b81548152906001019060200180831161083857829003601f168201915b505050505081565b3360009081526008602052604090205460ff166108ad5760405162461bcd60e51b8152602060048201526009602482015268155395149554d5115160ba1b60448201526064015b60405180910390fd5b6001600160a01b038216600081815260086020908152604091829020805460ff191685151590811790915591519182527fe95aec380cae16330d146d5499ef7db6f3657e477104a733e771bc09e500d986910160405180910390a25050565b3360009081526008602052604090205460ff166109575760405162461bcd60e51b8152602060048201526009602482015268155395149554d5115160ba1b60448201526064016108a4565b6009546040516001600160a01b038084169216907f952c654458751f95c1440bdb1537809137b3de28466b80ad096a711707ae987a90600090a3600980546001600160a01b0319166001600160a01b0392909216919091179055565b6040516303d1689d60e11b81527f000000000000000000000000000000000000000000000000000000000000000060048201526000907f0000000000000000000000000000000000000000000000000000000000000000906001600160a01b037f000000000000000000000000000000000000000000000000000000000000000016906307a2d13a90602401602060405180830381865afa158015610a5c573d6000803e3d6000fd5b505050506040513d601f19601f82011682018060405250810190610a8091906122a3565b610a8a91906122d2565b905090565b3360009081526008602052604090205460ff16610ada5760405162461bcd60e51b8152602060048201526009602482015268155395149554d5115160ba1b60448201526064016108a4565b60026013819055600154905460405163dfd4718f60e01b81526001600160a01b0390921660048301526024820152339063dfd4718f90604401600060405180830381600087803b158015610b2d57600080fd5b505af1158015610b41573d6000803e3d6000fd5b505060016013555050565b600080546040516315d5220f60e31b81526001600160a01b037f0000000000000000000000000000000000000000000000000000000000000000811660048301529091169063aea9107890602401602060405180830381865afa158015610bb7573d6000803e3d6000fd5b505050506040513d601f19601f82011682018060405250810190610bdb91906122a3565b905080600003610bfd5760405162bfc92160e01b815260040160405180910390fd5b90565b6000610c376001600160a01b037f00000000000000000000000000000000000000000000000000000000000000001633308561177b565b604051636e553f6560e01b8152600481018390523360248201527f00000000000000000000000000000000000000000000000000000000000000006001600160a01b031690636e553f65906044015b6020604051808303816000875af1158015610ca5573d6000803e3d6000fd5b505050506040513d601f19601f82011682018060405250810190610cc991906122a3565b92915050565b604051635d043b2960e11b815260048101829052336024820181905260448201526000907f00000000000000000000000000000000000000000000000000000000000000006001600160a01b03169063ba08765290606401610c86565b6000306001600160a01b031663378efa376040518163ffffffff1660e01b8152600401602060405180830381865afa158015610d6c573d6000803e3d6000fd5b505050506040513d601f19601f82011682018060405250810190610d9091906122f1565b905060005b8281101561116a5760005b85811015611157576000878783818110610dbc57610dbc61230e565b9050602002016020810190610dd1919061209a565b90506000846001600160a01b031663574e779530898988818110610df757610df761230e565b6040516001600160e01b031960e087901b1681526001600160a01b0390941660048501526020029190910135602483015250604401602060405180830381865afa158015610e49573d6000803e3d6000fd5b505050506040513d601f19601f82011682018060405250810190610e6d91906122f1565b6040516370a0823160e01b81526001600160a01b03848116600483015291909116906370a0823190602401602060405180830381865afa158015610eb5573d6000803e3d6000fd5b505050506040513d601f19601f82011682018060405250810190610ed991906122a3565b905042878786818110610eee57610eee61230e565b9050602002013511158015610f035750600081115b8015610f5457506001600160a01b038216600090815260126020526040812090888887818110610f3557610f3561230e565b602090810292909201358352508101919091526040016000205460ff16155b1561114257610f6282611812565b6000611010866001600160a01b0316632f9cd854308b8b8a818110610f8957610f8961230e565b6040516001600160e01b031960e087901b1681526001600160a01b039485166004820152602090910292909201356024830152509087166044820152606401602060405180830381865afa158015610fe5573d6000803e3d6000fd5b505050506040513d601f19601f8201168201806040525081019061100991906122a3565b8390611a07565b905080600e60008282546110249190612324565b90915550506001600160a01b0383166000908152600f602052604081208054839290611051908490612324565b90915550506001600160a01b0383166000908152601160205260408120805483929061107e90849061233b565b90915550506001600160a01b03831660009081526012602052604081206001918a8a898181106110b0576110b061230e565b90506020020135815260200190815260200160002060006101000a81548160ff021916908315150217905550826001600160a01b03167f5758e413a9bfd3ec45a67abaa9ee2396cab143a505332bf7ab48c0e624b65f11828a8a8981811061111a5761111a61230e565b90506020020135604051611138929190918252602082015260400190565b60405180910390a2505b5050808061114f90612353565b915050610da0565b508061116281612353565b915050610d95565b505050505050565b6000336001600160a01b03167f00000000000000000000000000000000000000000000000000000000000000006001600160a01b03166377aace1a6040518163ffffffff1660e01b8152600401602060405180830381865afa1580156111dc573d6000803e3d6000fd5b505050506040513d601f19601f8201168201806040525081019061120091906122f1565b6001600160a01b0316146112275760405163fb02114960e01b815260040160405180910390fd5b61125b6001600160a01b037f0000000000000000000000000000000000000000000000000000000000000000168786611a23565b6040516323e30c8b60e01b81526000906001600160a01b038816906323e30c8b906112b49033907f0000000000000000000000000000000000000000000000000000000000000000908a9087908b908b9060040161236c565b6020604051808303816000875af11580156112d3573d6000803e3d6000fd5b505050506040513d601f19601f820116820180604052508101906112f791906122a3565b90507f439148f0bbc682ca079e46d6e2c2f0c1e3b820f1a291b069d8882abf8cf18dd981146113395760405163081f7c8760e21b815260040160405180910390fd5b61136e6001600160a01b037f00000000000000000000000000000000000000000000000000000000000000001688308861177b565b5060019695505050505050565b61138481611aaf565b6113a157604051633dd1b30560e01b815260040160405180910390fd5b6040516370a0823160e01b815230600482015281906000906001600160a01b038316906370a0823190602401602060405180830381865afa1580156113ea573d6000803e3d6000fd5b505050506040513d601f19601f8201168201806040525081019061140e91906122a3565b6009546040516370a0823160e01b8152306004820152919250611495916001600160a01b03918216918516906370a0823190602401602060405180830381865afa158015611460573d6000803e3d6000fd5b505050506040513d601f19601f8201168201806040525081019061148491906122a3565b6001600160a01b0385169190611a23565b60095460405182916001600160a01b0390811691908616907f9310ccfcb8de723f578a9e4282ea9f521f05ae40dc08f3068dfad528a65ee3c790600090a4505050565b6040516370a0823160e01b81523060048201526000906001600160a01b038316906370a0823190602401602060405180830381865afa158015610ca5573d6000803e3d6000fd5b6000806013546002146115345760008061153b565b6003546004545b915091509091565b3360009081526008602052604090205460ff1661158e5760405162461bcd60e51b8152602060048201526009602482015268155395149554d5115160ba1b60448201526064016108a4565b611596611b1e565b600b80546001600160a01b0319166001600160a01b0383169081179091556040517fb74d956cf6ec7842d08ebf0ab19ec03a88c1efd4a50ea4349d30f9c4ce512e9890600090a250565b600780546107dc90612269565b6115f8838383611d77565b505050565b3360009081526008602052604090205460ff166116485760405162461bcd60e51b8152602060048201526009602482015268155395149554d5115160ba1b60448201526064016108a4565b600a80546001600160a01b0319166001600160a01b0383169081179091556040517f70e1f29a97aa858ce785e48a42e40cd51020a45c8a2e4520272a6303585916a990600090a250565b60007f00000000000000000000000000000000000000000000000000000000000000006001600160a01b0316836001600160a01b0316146116e657604051633dd1b30560e01b815260040160405180910390fd5b50600092915050565b600060405163095ea7b360e01b6000528360045282602452602060006044600080895af13d15601f3d11600160005114161716915060006060528060405250806103fd5760405162461bcd60e51b815260206004820152600e60248201527f415050524f56455f4641494c454400000000000000000000000000000000000060448201526064016108a4565b60006040516323b872dd60e01b6000528460045283602452826044526020600060646000808a5af13d15601f3d116001600051141617169150600060605280604052508061180b5760405162461bcd60e51b815260206004820152601460248201527f5452414e534645525f46524f4d5f4641494c454400000000000000000000000060448201526064016108a4565b5050505050565b61181a611b1e565b600d54600b546040516370a0823160e01b8152306004820152600092916001600160a01b0316906370a0823190602401602060405180830381865afa158015611867573d6000803e3d6000fd5b505050506040513d601f19601f8201168201806040525081019061188b91906122a3565b6118959190612324565b600e54909150156118d257600e546118bb9082906b033b2e3c9fd0803ce8000000611f15565b600c60008282546118cc919061233b565b90915550505b6001600160a01b038216600090815260106020908152604080832054600c54600f9093529083205490929161191491906b033b2e3c9fd0803ce8000000611f2a565b90508181111561193757600b54611937906001600160a01b031685848403611a23565b600b546040516370a0823160e01b81523060048201526001600160a01b03909116906370a0823190602401602060405180830381865afa15801561197f573d6000803e3d6000fd5b505050506040513d601f19601f820116820180604052508101906119a391906122a3565b600d55600b546001600160a01b039081169085167fad4a9acf26d8bba7a8cf1a41160d59be042ee554578e256c98d2ab74cdd435428484116119e65760006119f0565b6119f08585612324565b60405190815260200160405180910390a350505050565b6000611a1c83670de0b6b3a764000084611f33565b9392505050565b600060405163a9059cbb60e01b6000528360045282602452602060006044600080895af13d15601f3d11600160005114161716915060006060528060405250806103fd5760405162461bcd60e51b815260206004820152600f60248201527f5452414e534645525f4641494c4544000000000000000000000000000000000060448201526064016108a4565b60007f00000000000000000000000000000000000000000000000000000000000000006001600160a01b0316826001600160a01b031614158015611b0157506001546001600160a01b03838116911614155b8015610cc9575050600b546001600160a01b039081169116141590565b600a546001600160a01b031615611d75576000306001600160a01b031663d4b839926040518163ffffffff1660e01b8152600401602060405180830381865afa158015611b6f573d6000803e3d6000fd5b505050506040513d601f19601f82011682018060405250810190611b9391906122f1565b6040516370a0823160e01b81523060048201529091506000906001600160a01b038316906370a0823190602401602060405180830381865afa158015611bdd573d6000803e3d6000fd5b505050506040513d601f19601f82011682018060405250810190611c0191906122a3565b90508015611d7257600a5460405163a9059cbb60e01b81526001600160a01b039182166004820152602481018390529083169063a9059cbb906044016020604051808303816000875af1158015611c5c573d6000803e3d6000fd5b505050506040513d601f19601f82011682018060405250810190611c8091906123c7565b50600a60009054906101000a90046001600160a01b03166001600160a01b0316634e71d92d6040518163ffffffff1660e01b8152600401600060405180830381600087803b158015611cd157600080fd5b505af1158015611ce5573d6000803e3d6000fd5b50506040516370a0823160e01b81523060048201528392506001600160a01b03851691506370a0823190602401602060405180830381865afa158015611d2f573d6000803e3d6000fd5b505050506040513d601f19601f82011682018060405250810190611d5391906122a3565b1015611d72576040516341ac6b7d60e01b815260040160405180910390fd5b50505b565b3360009081526008602052604090205460ff16611dc25760405162461bcd60e51b8152602060048201526009602482015268155395149554d5115160ba1b60448201526064016108a4565b611dcb83611812565b8115611ec2578015611e215781600e6000828254611de9919061233b565b90915550506001600160a01b0383166000908152600f602052604081208054849290611e1690849061233b565b90915550611ec29050565b6001600160a01b0383166000908152601160205260409020548015611e755780831015611e52576000929003611e59565b9091039060005b6001600160a01b03841660009081526011602052604090208190555b8215611ec05782600e6000828254611e8d9190612324565b90915550506001600160a01b0384166000908152600f602052604081208054859290611eba908490612324565b90915550505b505b600c546001600160a01b0384166000908152600f6020526040902054611ef4916b033b2e3c9fd0803ce8000000611f52565b6001600160a01b039093166000908152601060205260409020929092555050565b6000611f22848385611f33565b949350505050565b6000611f228484845b828202811515841585830485141716611f4b57600080fd5b0492915050565b6000611f22848484828202811515841585830485141716611f7257600080fd5b6001826001830304018115150290509392505050565b600060208083528351808285015260005b81811015611fb557858101830151858201604001528201611f99565b81811115611fc7576000604083870101525b50601f01601f1916929092016040019392505050565b6001600160a01b0381168114611ff257600080fd5b50565b6000806040838503121561200857600080fd5b823561201381611fdd565b946020939093013593505050565b8015158114611ff257600080fd5b6000806040838503121561204257600080fd5b823561204d81611fdd565b9150602083013561205d81612021565b809150509250929050565b6000806000806080858703121561207e57600080fd5b5050823594602084013594506040840135936060013592509050565b6000602082840312156120ac57600080fd5b8135611a1c81611fdd565b6000602082840312156120c957600080fd5b5035919050565b60008083601f8401126120e257600080fd5b50813567ffffffffffffffff8111156120fa57600080fd5b6020830191508360208260051b850101111561211557600080fd5b9250929050565b6000806000806040858703121561213257600080fd5b843567ffffffffffffffff8082111561214a57600080fd5b612156888389016120d0565b9096509450602087013591508082111561216f57600080fd5b5061217c878288016120d0565b95989497509550505050565b6000806000806000608086880312156121a057600080fd5b85356121ab81611fdd565b945060208601356121bb81611fdd565b935060408601359250606086013567ffffffffffffffff808211156121df57600080fd5b818801915088601f8301126121f357600080fd5b81358181111561220257600080fd5b89602082850101111561221457600080fd5b9699959850939650602001949392505050565b60008060006060848603121561223c57600080fd5b833561224781611fdd565b925060208401359150604084013561225e81612021565b809150509250925092565b600181811c9082168061227d57607f821691505b60208210810361229d57634e487b7160e01b600052602260045260246000fd5b50919050565b6000602082840312156122b557600080fd5b5051919050565b634e487b7160e01b600052601160045260246000fd5b60008160001904831182151516156122ec576122ec6122bc565b500290565b60006020828403121561230357600080fd5b8151611a1c81611fdd565b634e487b7160e01b600052603260045260246000fd5b600082821015612336576123366122bc565b500390565b6000821982111561234e5761234e6122bc565b500190565b600060018201612365576123656122bc565b5060010190565b60006001600160a01b03808916835280881660208401525085604083015284606083015260a060808301528260a0830152828460c0840137600060c0848401015260c0601f19601f8501168301019050979650505050505050565b6000602082840312156123d957600080fd5b8151611a1c8161202156fea264697066735822122061b81b8738903f6fd162c268f593650abc8efb22da81cb36decb182afdec5bc564736f6c634300080f0033a2646970667358221220edeb2b008383ed52f3f43558204a03aefc4c43b461b85e3548492a4452ac24fe64736f6c634300080f0033",
  "devdoc": {
    "kind": "dev",
    "methods": {
      "deployAdapter(address,bytes)": {
        "params": {
          "_target": "The target address",
          "data": "ABI encoded reward tokens address array"
        }
      },
      "setAdapterTrusted(address,address,bool)": {
        "details": "factory must already be a trusted address for the adapter"
      },
      "setRewardsRecipient(address)": {
        "details": "existing adapters rewards recipients will not be changed and can be done through `setRewardsRecipient` on each adapter contract"
      },
      "setRlvFactory(address)": {
        "params": {
          "_rlvFactory": "Address of the new factory"
        }
      },
      "supportTarget(address,bool)": {
        "params": {
          "_target": "The target address",
          "supported": "Whether the target should be supported or not"
        }
      },
      "supportTargets(address[],bool)": {
        "params": {
          "_targets": "Array of target addresses",
          "supported": "Whether the targets should be supported or not"
        }
      }
    },
    "version": 1
  },
  "userdoc": {
    "kind": "user",
    "methods": {
      "DEFAULT_LEVEL()": {
        "notice": "Sets level to `31` by default, which keeps all Divider lifecycle methods public (`issue`, `combine`, `collect`, etc), but not the `onRedeem` hook."
      },
      "deployAdapter(address,bytes)": {
        "notice": "Deploys an OwnableERC4626Adapter contract"
      },
      "divider()": {
        "notice": "Sense core Divider address"
      },
      "factoryParams()": {
        "notice": "params for adapters deployed with this factory"
      },
      "restrictedAdmin()": {
        "notice": "Adapter admin address"
      },
      "rewardsRecipient()": {
        "notice": "Rewards recipient"
      },
      "rlvFactory()": {
        "notice": "Rolling Liquidity Vault Factory address"
      },
      "setAdapterTrusted(address,address,bool)": {
        "notice": "sets trusted address for an adapter"
      },
      "setRewardsRecipient(address)": {
        "notice": "Set factory rewards recipientall future deployed adapters will have the new rewards recipient"
      },
      "setRlvFactory(address)": {
        "notice": "Modify RLV Factory address"
      },
      "supportTarget(address,bool)": {
        "notice": "(Un)support target"
      },
      "supportTargets(address[],bool)": {
        "notice": "(Un)support multiple target at once"
      }
    },
    "notice": "Ownable Crop Factory contract that deploys Ownable Crop Adapters for Rolling Liquidity Vaults",
    "version": 1
  },
  "storageLayout": {
    "storage": [
      {
        "astId": 22126,
        "contract": "@sense-finance/v1-core/src/adapters/abstract/factories/OwnableERC4626CropFactory.sol:OwnableERC4626CropFactory",
        "label": "isTrusted",
        "offset": 0,
        "slot": "0",
        "type": "t_mapping(t_address,t_bool)"
      },
      {
        "astId": 11135,
        "contract": "@sense-finance/v1-core/src/adapters/abstract/factories/OwnableERC4626CropFactory.sol:OwnableERC4626CropFactory",
        "label": "restrictedAdmin",
        "offset": 0,
        "slot": "1",
        "type": "t_address"
      },
      {
        "astId": 11138,
        "contract": "@sense-finance/v1-core/src/adapters/abstract/factories/OwnableERC4626CropFactory.sol:OwnableERC4626CropFactory",
        "label": "rewardsRecipient",
        "offset": 0,
        "slot": "2",
        "type": "t_address"
      },
      {
        "astId": 11142,
        "contract": "@sense-finance/v1-core/src/adapters/abstract/factories/OwnableERC4626CropFactory.sol:OwnableERC4626CropFactory",
        "label": "factoryParams",
        "offset": 0,
        "slot": "3",
        "type": "t_struct(FactoryParams)11161_storage"
      },
      {
        "astId": 11379,
        "contract": "@sense-finance/v1-core/src/adapters/abstract/factories/OwnableERC4626CropFactory.sol:OwnableERC4626CropFactory",
        "label": "reward",
        "offset": 0,
        "slot": "10",
        "type": "t_address"
      },
      {
        "astId": 11430,
        "contract": "@sense-finance/v1-core/src/adapters/abstract/factories/OwnableERC4626CropFactory.sol:OwnableERC4626CropFactory",
        "label": "supportedTargets",
        "offset": 0,
        "slot": "11",
        "type": "t_mapping(t_address,t_bool)"
      },
      {
        "astId": 12098,
        "contract": "@sense-finance/v1-core/src/adapters/abstract/factories/OwnableERC4626CropFactory.sol:OwnableERC4626CropFactory",
        "label": "rlvFactory",
        "offset": 0,
        "slot": "12",
        "type": "t_address"
      }
    ],
    "types": {
      "t_address": {
        "encoding": "inplace",
        "label": "address",
        "numberOfBytes": "20"
      },
      "t_bool": {
        "encoding": "inplace",
        "label": "bool",
        "numberOfBytes": "1"
      },
      "t_mapping(t_address,t_bool)": {
        "encoding": "mapping",
        "key": "t_address",
        "label": "mapping(address => bool)",
        "numberOfBytes": "32",
        "value": "t_bool"
      },
      "t_struct(FactoryParams)11161_storage": {
        "encoding": "inplace",
        "label": "struct BaseFactory.FactoryParams",
        "members": [
          {
            "astId": 11144,
            "contract": "@sense-finance/v1-core/src/adapters/abstract/factories/OwnableERC4626CropFactory.sol:OwnableERC4626CropFactory",
            "label": "oracle",
            "offset": 0,
            "slot": "0",
            "type": "t_address"
          },
          {
            "astId": 11146,
            "contract": "@sense-finance/v1-core/src/adapters/abstract/factories/OwnableERC4626CropFactory.sol:OwnableERC4626CropFactory",
            "label": "stake",
            "offset": 0,
            "slot": "1",
            "type": "t_address"
          },
          {
            "astId": 11148,
            "contract": "@sense-finance/v1-core/src/adapters/abstract/factories/OwnableERC4626CropFactory.sol:OwnableERC4626CropFactory",
            "label": "stakeSize",
            "offset": 0,
            "slot": "2",
            "type": "t_uint256"
          },
          {
            "astId": 11150,
            "contract": "@sense-finance/v1-core/src/adapters/abstract/factories/OwnableERC4626CropFactory.sol:OwnableERC4626CropFactory",
            "label": "minm",
            "offset": 0,
            "slot": "3",
            "type": "t_uint256"
          },
          {
            "astId": 11152,
            "contract": "@sense-finance/v1-core/src/adapters/abstract/factories/OwnableERC4626CropFactory.sol:OwnableERC4626CropFactory",
            "label": "maxm",
            "offset": 0,
            "slot": "4",
            "type": "t_uint256"
          },
          {
            "astId": 11154,
            "contract": "@sense-finance/v1-core/src/adapters/abstract/factories/OwnableERC4626CropFactory.sol:OwnableERC4626CropFactory",
            "label": "ifee",
            "offset": 0,
            "slot": "5",
            "type": "t_uint128"
          },
          {
            "astId": 11156,
            "contract": "@sense-finance/v1-core/src/adapters/abstract/factories/OwnableERC4626CropFactory.sol:OwnableERC4626CropFactory",
            "label": "mode",
            "offset": 16,
            "slot": "5",
            "type": "t_uint16"
          },
          {
            "astId": 11158,
            "contract": "@sense-finance/v1-core/src/adapters/abstract/factories/OwnableERC4626CropFactory.sol:OwnableERC4626CropFactory",
            "label": "tilt",
            "offset": 18,
            "slot": "5",
            "type": "t_uint64"
          },
          {
            "astId": 11160,
            "contract": "@sense-finance/v1-core/src/adapters/abstract/factories/OwnableERC4626CropFactory.sol:OwnableERC4626CropFactory",
            "label": "guard",
            "offset": 0,
            "slot": "6",
            "type": "t_uint256"
          }
        ],
        "numberOfBytes": "224"
      },
      "t_uint128": {
        "encoding": "inplace",
        "label": "uint128",
        "numberOfBytes": "16"
      },
      "t_uint16": {
        "encoding": "inplace",
        "label": "uint16",
        "numberOfBytes": "2"
      },
      "t_uint256": {
        "encoding": "inplace",
        "label": "uint256",
        "numberOfBytes": "32"
      },
      "t_uint64": {
        "encoding": "inplace",
        "label": "uint64",
        "numberOfBytes": "8"
      }
    }
  }
}