{
  "address": "0x66E1AD7cDa66A0B291aEC63f3dBD8cB9eAF76680",
  "abi": [
    {
      "inputs": [
        {
          "internalType": "address",
          "name": "_divider",
          "type": "address"
        },
        {
          "internalType": "address",
          "name": "_target",
          "type": "address"
        },
        {
          "internalType": "address",
          "name": "_rewardsRecipient",
          "type": "address"
        },
        {
          "internalType": "uint128",
          "name": "_ifee",
          "type": "uint128"
        },
        {
          "components": [
            {
              "internalType": "address",
              "name": "oracle",
              "type": "address"
            },
            {
              "internalType": "address",
              "name": "stake",
              "type": "address"
            },
            {
              "internalType": "uint256",
              "name": "stakeSize",
              "type": "uint256"
            },
            {
              "internalType": "uint256",
              "name": "minm",
              "type": "uint256"
            },
            {
              "internalType": "uint256",
              "name": "maxm",
              "type": "uint256"
            },
            {
              "internalType": "uint64",
              "name": "tilt",
              "type": "uint64"
            },
            {
              "internalType": "uint48",
              "name": "level",
              "type": "uint48"
            },
            {
              "internalType": "uint16",
              "name": "mode",
              "type": "uint16"
            }
          ],
          "internalType": "struct BaseAdapter.AdapterParams",
          "name": "_adapterParams",
          "type": "tuple"
        }
      ],
      "stateMutability": "nonpayable",
      "type": "constructor"
    },
    {
      "inputs": [],
      "name": "FlashCallbackFailed",
      "type": "error"
    },
    {
      "inputs": [],
      "name": "InvalidPrice",
      "type": "error"
    },
    {
      "inputs": [],
      "name": "OnlyPeriphery",
      "type": "error"
    },
    {
      "inputs": [],
      "name": "TokenNotSupported",
      "type": "error"
    },
    {
      "anonymous": false,
      "inputs": [
        {
          "indexed": true,
          "internalType": "address",
          "name": "token",
          "type": "address"
        },
        {
          "indexed": true,
          "internalType": "address",
          "name": "recipient",
          "type": "address"
        },
        {
          "indexed": true,
          "internalType": "uint256",
          "name": "amount",
          "type": "uint256"
        }
      ],
      "name": "RewardsClaimed",
      "type": "event"
    },
    {
      "anonymous": false,
      "inputs": [
        {
          "indexed": true,
          "internalType": "address",
          "name": "oldRecipient",
          "type": "address"
        },
        {
          "indexed": true,
          "internalType": "address",
          "name": "newRecipient",
          "type": "address"
        }
      ],
      "name": "RewardsRecipientChanged",
      "type": "event"
    },
    {
      "anonymous": false,
      "inputs": [
        {
          "indexed": true,
          "internalType": "address",
          "name": "user",
          "type": "address"
        },
        {
          "indexed": false,
          "internalType": "bool",
          "name": "trusted",
          "type": "bool"
        }
      ],
      "name": "UserTrustUpdated",
      "type": "event"
    },
    {
      "inputs": [],
      "name": "CALLBACK_SUCCESS",
      "outputs": [
        {
          "internalType": "bytes32",
          "name": "",
          "type": "bytes32"
        }
      ],
      "stateMutability": "view",
      "type": "function"
    },
    {
      "inputs": [],
      "name": "ETH_USD_PRICEFEED",
      "outputs": [
        {
          "internalType": "address",
          "name": "",
          "type": "address"
        }
      ],
      "stateMutability": "view",
      "type": "function"
    },
    {
      "inputs": [],
      "name": "STETH",
      "outputs": [
        {
          "internalType": "address",
          "name": "",
          "type": "address"
        }
      ],
      "stateMutability": "view",
      "type": "function"
    },
    {
      "inputs": [],
      "name": "STETH_USD_PRICEFEED",
      "outputs": [
        {
          "internalType": "address",
          "name": "",
          "type": "address"
        }
      ],
      "stateMutability": "view",
      "type": "function"
    },
    {
      "inputs": [],
      "name": "WSTETH",
      "outputs": [
        {
          "internalType": "address",
          "name": "",
          "type": "address"
        }
      ],
      "stateMutability": "view",
      "type": "function"
    },
    {
      "inputs": [],
      "name": "adapterParams",
      "outputs": [
        {
          "internalType": "address",
          "name": "oracle",
          "type": "address"
        },
        {
          "internalType": "address",
          "name": "stake",
          "type": "address"
        },
        {
          "internalType": "uint256",
          "name": "stakeSize",
          "type": "uint256"
        },
        {
          "internalType": "uint256",
          "name": "minm",
          "type": "uint256"
        },
        {
          "internalType": "uint256",
          "name": "maxm",
          "type": "uint256"
        },
        {
          "internalType": "uint64",
          "name": "tilt",
          "type": "uint64"
        },
        {
          "internalType": "uint48",
          "name": "level",
          "type": "uint48"
        },
        {
          "internalType": "uint16",
          "name": "mode",
          "type": "uint16"
        }
      ],
      "stateMutability": "view",
      "type": "function"
    },
    {
      "inputs": [],
      "name": "divider",
      "outputs": [
        {
          "internalType": "address",
          "name": "",
          "type": "address"
        }
      ],
      "stateMutability": "view",
      "type": "function"
    },
    {
      "inputs": [
        {
          "internalType": "address",
          "name": "token",
          "type": "address"
        }
      ],
      "name": "extractToken",
      "outputs": [],
      "stateMutability": "nonpayable",
      "type": "function"
    },
    {
      "inputs": [
        {
          "internalType": "address",
          "name": "token",
          "type": "address"
        },
        {
          "internalType": "uint256",
          "name": "",
          "type": "uint256"
        }
      ],
      "name": "flashFee",
      "outputs": [
        {
          "internalType": "uint256",
          "name": "",
          "type": "uint256"
        }
      ],
      "stateMutability": "view",
      "type": "function"
    },
    {
      "inputs": [
        {
          "internalType": "contract IERC3156FlashBorrower",
          "name": "receiver",
          "type": "address"
        },
        {
          "internalType": "address",
          "name": "",
          "type": "address"
        },
        {
          "internalType": "uint256",
          "name": "amount",
          "type": "uint256"
        },
        {
          "internalType": "bytes",
          "name": "data",
          "type": "bytes"
        }
      ],
      "name": "flashLoan",
      "outputs": [
        {
          "internalType": "bool",
          "name": "",
          "type": "bool"
        }
      ],
      "stateMutability": "nonpayable",
      "type": "function"
    },
    {
      "inputs": [],
      "name": "getMaturityBounds",
      "outputs": [
        {
          "internalType": "uint256",
          "name": "",
          "type": "uint256"
        },
        {
          "internalType": "uint256",
          "name": "",
          "type": "uint256"
        }
      ],
      "stateMutability": "view",
      "type": "function"
    },
    {
      "inputs": [],
      "name": "getStakeAndTarget",
      "outputs": [
        {
          "internalType": "address",
          "name": "",
          "type": "address"
        },
        {
          "internalType": "address",
          "name": "",
          "type": "address"
        },
        {
          "internalType": "uint256",
          "name": "",
          "type": "uint256"
        }
      ],
      "stateMutability": "view",
      "type": "function"
    },
    {
      "inputs": [],
      "name": "getUnderlyingPrice",
      "outputs": [
        {
          "internalType": "uint256",
          "name": "price",
          "type": "uint256"
        }
      ],
      "stateMutability": "view",
      "type": "function"
    },
    {
      "inputs": [],
      "name": "ifee",
      "outputs": [
        {
          "internalType": "uint128",
          "name": "",
          "type": "uint128"
        }
      ],
      "stateMutability": "view",
      "type": "function"
    },
    {
      "inputs": [
        {
          "internalType": "address",
          "name": "",
          "type": "address"
        }
      ],
      "name": "isTrusted",
      "outputs": [
        {
          "internalType": "bool",
          "name": "",
          "type": "bool"
        }
      ],
      "stateMutability": "view",
      "type": "function"
    },
    {
      "inputs": [],
      "name": "level",
      "outputs": [
        {
          "internalType": "uint256",
          "name": "",
          "type": "uint256"
        }
      ],
      "stateMutability": "view",
      "type": "function"
    },
    {
      "inputs": [
        {
          "internalType": "address",
          "name": "token",
          "type": "address"
        }
      ],
      "name": "maxFlashLoan",
      "outputs": [
        {
          "internalType": "uint256",
          "name": "",
          "type": "uint256"
        }
      ],
      "stateMutability": "view",
      "type": "function"
    },
    {
      "inputs": [],
      "name": "mode",
      "outputs": [
        {
          "internalType": "uint256",
          "name": "",
          "type": "uint256"
        }
      ],
      "stateMutability": "view",
      "type": "function"
    },
    {
      "inputs": [],
      "name": "name",
      "outputs": [
        {
          "internalType": "string",
          "name": "",
          "type": "string"
        }
      ],
      "stateMutability": "view",
      "type": "function"
    },
    {
      "inputs": [
        {
          "internalType": "address",
          "name": "",
          "type": "address"
        },
        {
          "internalType": "uint256",
          "name": "",
          "type": "uint256"
        },
        {
          "internalType": "bool",
          "name": "",
          "type": "bool"
        }
      ],
      "name": "notify",
      "outputs": [],
      "stateMutability": "nonpayable",
      "type": "function"
    },
    {
      "inputs": [
        {
          "internalType": "uint256",
          "name": "",
          "type": "uint256"
        },
        {
          "internalType": "uint256",
          "name": "",
          "type": "uint256"
        },
        {
          "internalType": "uint256",
          "name": "",
          "type": "uint256"
        },
        {
          "internalType": "uint256",
          "name": "",
          "type": "uint256"
        }
      ],
      "name": "onRedeem",
      "outputs": [],
      "stateMutability": "nonpayable",
      "type": "function"
    },
    {
      "inputs": [],
      "name": "openSponsorWindow",
      "outputs": [],
      "stateMutability": "nonpayable",
      "type": "function"
    },
    {
      "inputs": [],
      "name": "rewardsRecipient",
      "outputs": [
        {
          "internalType": "address",
          "name": "",
          "type": "address"
        }
      ],
      "stateMutability": "view",
      "type": "function"
    },
    {
      "inputs": [],
      "name": "scale",
      "outputs": [
        {
          "internalType": "uint256",
          "name": "exRate",
          "type": "uint256"
        }
      ],
      "stateMutability": "nonpayable",
      "type": "function"
    },
    {
      "inputs": [],
      "name": "scaleStored",
      "outputs": [
        {
          "internalType": "uint256",
          "name": "",
          "type": "uint256"
        }
      ],
      "stateMutability": "view",
      "type": "function"
    },
    {
      "inputs": [
        {
          "internalType": "address",
          "name": "user",
          "type": "address"
        },
        {
          "internalType": "bool",
          "name": "trusted",
          "type": "bool"
        }
      ],
      "name": "setIsTrusted",
      "outputs": [],
      "stateMutability": "nonpayable",
      "type": "function"
    },
    {
      "inputs": [
        {
          "internalType": "address",
          "name": "recipient",
          "type": "address"
        }
      ],
      "name": "setRewardsRecipient",
      "outputs": [],
      "stateMutability": "nonpayable",
      "type": "function"
    },
    {
      "inputs": [],
      "name": "symbol",
      "outputs": [
        {
          "internalType": "string",
          "name": "",
          "type": "string"
        }
      ],
      "stateMutability": "view",
      "type": "function"
    },
    {
      "inputs": [],
      "name": "target",
      "outputs": [
        {
          "internalType": "address",
          "name": "",
          "type": "address"
        }
      ],
      "stateMutability": "view",
      "type": "function"
    },
    {
      "inputs": [],
      "name": "tilt",
      "outputs": [
        {
          "internalType": "uint256",
          "name": "",
          "type": "uint256"
        }
      ],
      "stateMutability": "view",
      "type": "function"
    },
    {
      "inputs": [],
      "name": "underlying",
      "outputs": [
        {
          "internalType": "address",
          "name": "",
          "type": "address"
        }
      ],
      "stateMutability": "view",
      "type": "function"
    },
    {
      "inputs": [
        {
          "internalType": "uint256",
          "name": "amount",
          "type": "uint256"
        }
      ],
      "name": "unwrapTarget",
      "outputs": [
        {
          "internalType": "uint256",
          "name": "stETH",
          "type": "uint256"
        }
      ],
      "stateMutability": "nonpayable",
      "type": "function"
    },
    {
      "inputs": [
        {
          "internalType": "uint256",
          "name": "amount",
          "type": "uint256"
        }
      ],
      "name": "wrapUnderlying",
      "outputs": [
        {
          "internalType": "uint256",
          "name": "wstETH",
          "type": "uint256"
        }
      ],
      "stateMutability": "nonpayable",
      "type": "function"
    }
  ],
  "transactionHash": "0xd555c7d4f19c74e6c003c525bc49f8fde1bba593297d8ea3ece8b9045f465749",
  "args": [
    "0x86bA3E96Be68563E41c2f5769F1AF9fAf758e6E0",
    "0x7f39C581F595B53c5cb19bD0b3f8dA6c935E2Ca0",
    "0xDd76360C26Eaf63AFCF3a8d2c0121F13AE864D57",
    "0",
    [
      "0x0000000000000000000000000000000000000000",
      "0xC02aaA39b223FE8D0A0e5C4F27eAD9083C756Cc2",
      "250000000000000000",
      "2629800",
      "315576000",
      0,
      31,
      0
    ]
  ],
  "numDeployments": 1,
  "solcInputHash": "093ad0cd8f849a43d88edf3a5ee36c9a",
  "bytecode": "0x6101006040526001600b553480156200001757600080fd5b5060405162002080380380620020808339810160408190526200003a9162000576565b6001600160a01b03808616608090815281861660a081815273ae7ab96520de3a18e5e111b5eaab095312d7fe8460c08181526001600160801b03881660e09081528751600080549189166001600160a01b031992831617815560208a01516001805491909a1692169190911790975560408089015160025560608901516003559588015160049081559388015160058054938a0151928a015161ffff16600160701b0261ffff60701b1965ffffffffffff90941668010000000000000000026001600160701b03199095166001600160401b0390931692909217939093179190911617905583516306fdde0360e01b815293518a958a958a958a958a95889533958c958c9593948b948b9490936306fdde039380840193919291908290030181865afa1580156200016f573d6000803e3d6000fd5b505050506040513d6000823e601f3d908101601f19168201604052620001999190810190620006c2565b604051602001620001ab91906200077a565b60405160208183030381529060405260069081620001ca919062000837565b50836001600160a01b03166395d89b416040518163ffffffff1660e01b8152600401600060405180830381865afa1580156200020a573d6000803e3d6000fd5b505050506040513d6000823e601f3d908101601f19168201604052620002349190810190620006c2565b60405160200162000246919062000903565b6040516020818303038152906040526007908162000265919062000837565b506200028f608051600019866001600160a01b03166200046560201b620010ad179092919060201c565b620002bc60805160001983602001516001600160a01b03166200046560201b620010ad179092919060201c565b505050506001600160a01b038216600081815260086020908152604091829020805460ff1916600190811790915591519182529192507fe95aec380cae16330d146d5499ef7db6f3657e477104a733e771bc09e500d986910160405180910390a250600980546001600160a01b0319166001600160a01b039290921691909117905560405163095ea7b360e01b8152737f39c581f595b53c5cb19bd0b3f8da6c935e2ca06004820152600019602482015273ae7ab96520de3a18e5e111b5eaab095312d7fe849063095ea7b3906044016020604051808303816000875af1158015620003ac573d6000803e3d6000fd5b505050506040513d601f19601f82011682018060405250810190620003d2919062000931565b50604051630f451f7160e31b8152670de0b6b3a7640000600482015273ae7ab96520de3a18e5e111b5eaab095312d7fe8490637a28fb8890602401602060405180830381865afa1580156200042b573d6000803e3d6000fd5b505050506040513d601f19601f820116820180604052508101906200045191906200095c565b600a55506200097698505050505050505050565b600060405163095ea7b360e01b6000528360045282602452602060006044600080895af13d15601f3d1160016000511416171691506000606052806040525080620004e75760405162461bcd60e51b815260206004820152600e60248201526d1054141493d59157d1905253115160921b604482015260640160405180910390fd5b50505050565b80516001600160a01b03811681146200050557600080fd5b919050565b634e487b7160e01b600052604160045260246000fd5b60405161010081016001600160401b03811182821017156200054657620005466200050a565b60405290565b805165ffffffffffff811681146200050557600080fd5b805161ffff811681146200050557600080fd5b60008060008060008587036101808112156200059157600080fd5b6200059c87620004ed565b9550620005ac60208801620004ed565b9450620005bc60408801620004ed565b60608801519094506001600160801b0381168114620005da57600080fd5b9250610100607f198201811315620005f157600080fd5b620005fb62000520565b91506200060b60808901620004ed565b82526200061b60a08901620004ed565b602083015260c0880151604083015260e0880151606083015287015160808201526101208701516001600160401b03811681146200065857600080fd5b60a08201526200066c61014088016200054c565b60c082015262000680610160880162000563565b60e0820152809150509295509295909350565b60005b83811015620006b057818101518382015260200162000696565b83811115620004e75750506000910152565b600060208284031215620006d557600080fd5b81516001600160401b0380821115620006ed57600080fd5b818401915084601f8301126200070257600080fd5b8151818111156200071757620007176200050a565b604051601f8201601f19908116603f011681019083821181831017156200074257620007426200050a565b816040528281528760208487010111156200075c57600080fd5b6200076f83602083016020880162000693565b979650505050505050565b600082516200078e81846020870162000693565b671020b230b83a32b960c11b920191825250600801919050565b600181811c90821680620007bd57607f821691505b602082108103620007de57634e487b7160e01b600052602260045260246000fd5b50919050565b601f8211156200083257600081815260208120601f850160051c810160208610156200080d5750805b601f850160051c820191505b818110156200082e5782815560010162000819565b5050505b505050565b81516001600160401b038111156200085357620008536200050a565b6200086b81620008648454620007a8565b84620007e4565b602080601f831160018114620008a357600084156200088a5750858301515b600019600386901b1c1916600185901b1785556200082e565b600085815260208120601f198616915b82811015620008d457888601518255948401946001909101908401620008b3565b5085821015620008f35787850151600019600388901b60f8161c191681555b5050505050600190811b01905550565b600082516200091781846020870162000693565b6716b0b230b83a32b960c11b920191825250600801919050565b6000602082840312156200094457600080fd5b815180151581146200095557600080fd5b9392505050565b6000602082840312156200096f57600080fd5b5051919050565b60805160a05160c05160e05161169f620009e1600039600061053e0152600061047b0152600081816103370152818161059801528181610c7801528181610cc801528181610d8a01528181610fc2015261127c01526000818161038d0152610bc4015261169f6000f3fe608060405234801561001057600080fd5b50600436106101fb5760003560e01c8063613255ab1161011a578063b484972a116100ad578063d9d98ce41161007c578063d9d98ce4146105ba578063d9fb643a146105cd578063e00bfe50146105e8578063f51e181a14610603578063ff2a7d301461060b57600080fd5b8063b484972a14610526578063b8c15a9f14610539578063c39a3b2914610581578063d4b839921461059357600080fd5b80638237e538116100e95780638237e538146104b957806395d89b41146104e057806396d64879146104e8578063985579a41461050b57600080fd5b8063613255ab1461044657806364c56e3c146104595780636f307dc3146104765780636fd5ae151461049d57600080fd5b80632c5786b8116101925780634aae9fed116101615780634aae9fed146103ea57806351c39ea1146103fd5780635cffe9de14610410578063608c44d61461043357600080fd5b80632c5786b814610380578063378efa371461038857806340cc63e1146103c7578063468f02d2146103e257600080fd5b80631a54259c116101ce5780631a54259c146102f9578063226778491461030c57806327b327d014610323578063295a52121461036d57600080fd5b806306fdde0314610200578063083118d51461021e5780631393916a146102d057806314282f58146102e5575b600080fd5b61020861061e565b60405161021591906112ec565b60405180910390f35b600054600154600254600354600454600554610274956001600160a01b0390811695169392919067ffffffffffffffff81169068010000000000000000810465ffffffffffff1690600160701b900461ffff1688565b604080516001600160a01b03998a168152989097166020890152958701949094526060860192909252608085015267ffffffffffffffff1660a084015265ffffffffffff1660c083015261ffff1660e082015261010001610215565b6102e36102de366004611369565b6106ac565b005b6102e36102f336600461139e565b50505050565b6102e36103073660046113d0565b61075b565b610315600a5481565b604051908152602001610215565b600154600254604080516001600160a01b037f0000000000000000000000000000000000000000000000000000000000000000811682529093166020840152820152606001610215565b600554600160701b900461ffff16610315565b6102e361080f565b6103af7f000000000000000000000000000000000000000000000000000000000000000081565b6040516001600160a01b039091168152602001610215565b6103af735f4ec3df9cbd43714fe2740f5e3616155c5b841981565b6103156108cc565b6103156103f83660046113ed565b610a39565b61031561040b3660046113ed565b610afa565b61042361041e366004611406565b610bb6565b6040519015158152602001610215565b6102e36104413660046113d0565b610dbf565b6103156104543660046113d0565b610f1c565b610461610f8d565b60408051928352602083019190915201610215565b6103af7f000000000000000000000000000000000000000000000000000000000000000081565b60055468010000000000000000900465ffffffffffff16610315565b6103157f439148f0bbc682ca079e46d6e2c2f0c1e3b820f1a291b069d8882abf8cf18dd981565b610208610fb1565b6104236104f63660046113d0565b60086020526000908152604090205460ff1681565b6103af73cfe54b5cd566ab89272946f602d76ea879cab4a881565b6102e36105343660046114a5565b505050565b6105607f000000000000000000000000000000000000000000000000000000000000000081565b6040516fffffffffffffffffffffffffffffffff9091168152602001610215565b60055467ffffffffffffffff16610315565b6103af7f000000000000000000000000000000000000000000000000000000000000000081565b6103156105c83660046114e3565b610fbe565b6103af737f39c581f595b53c5cb19bd0b3f8da6c935e2ca081565b6103af73ae7ab96520de3a18e5e111b5eaab095312d7fe8481565b61031561101b565b6009546103af906001600160a01b031681565b6006805461062b9061150f565b80601f01602080910402602001604051908101604052809291908181526020018280546106579061150f565b80156106a45780601f10610679576101008083540402835291602001916106a4565b820191906000526020600020905b81548152906001019060200180831161068757829003601f168201915b505050505081565b3360009081526008602052604090205460ff166106fc5760405162461bcd60e51b8152602060048201526009602482015268155395149554d5115160ba1b60448201526064015b60405180910390fd5b6001600160a01b038216600081815260086020908152604091829020805460ff191685151590811790915591519182527fe95aec380cae16330d146d5499ef7db6f3657e477104a733e771bc09e500d986910160405180910390a25050565b3360009081526008602052604090205460ff166107a65760405162461bcd60e51b8152602060048201526009602482015268155395149554d5115160ba1b60448201526064016106f3565b6009546040516001600160a01b038084169216907f952c654458751f95c1440bdb1537809137b3de28466b80ad096a711707ae987a90600090a36009805473ffffffffffffffffffffffffffffffffffffffff19166001600160a01b0392909216919091179055565b3360009081526008602052604090205460ff1661085a5760405162461bcd60e51b8152602060048201526009602482015268155395149554d5115160ba1b60448201526064016106f3565b6002600b819055600154905460405163dfd4718f60e01b81526001600160a01b0390921660048301526024820152339063dfd4718f90604401600060405180830381600087803b1580156108ad57600080fd5b505af11580156108c1573d6000803e3d6000fd5b50506001600b555050565b600080600073cfe54b5cd566ab89272946f602d76ea879cab4a86001600160a01b031663feaf968c6040518163ffffffff1660e01b815260040160a060405180830381865afa158015610923573d6000803e3d6000fd5b505050506040513d601f19601f820116820180604052508101906109479190611563565b50935050925050600080735f4ec3df9cbd43714fe2740f5e3616155c5b84196001600160a01b031663feaf968c6040518163ffffffff1660e01b815260040160a060405180830381865afa1580156109a3573d6000803e3d6000fd5b505050506040513d601f19601f820116820180604052508101906109c79190611563565b50935050925050611c2083426109dd91906115b3565b11156109fb5760405162bfc92160e01b815260040160405180910390fd5b611c20610a0882426115b3565b1115610a265760405162bfc92160e01b815260040160405180910390fd5b610a308483611139565b94505050505090565b6000610a5b73ae7ab96520de3a18e5e111b5eaab095312d7fe84333085611155565b604051630ea598cb60e41b815260048101839052610af5903390737f39c581f595b53c5cb19bd0b3f8da6c935e2ca09063ea598cb0906024016020604051808303816000875af1158015610ab3573d6000803e3d6000fd5b505050506040513d601f19601f82011682018060405250810190610ad791906115d8565b9250737f39c581f595b53c5cb19bd0b3f8da6c935e2ca090836111ec565b919050565b6000610b1c737f39c581f595b53c5cb19bd0b3f8da6c935e2ca0333085611155565b604051636f074d1f60e11b815260048101839052610af5903390737f39c581f595b53c5cb19bd0b3f8da6c935e2ca09063de0e9a3e906024016020604051808303816000875af1158015610b74573d6000803e3d6000fd5b505050506040513d601f19601f82011682018060405250810190610b9891906115d8565b925073ae7ab96520de3a18e5e111b5eaab095312d7fe8490836111ec565b6000336001600160a01b03167f00000000000000000000000000000000000000000000000000000000000000006001600160a01b03166377aace1a6040518163ffffffff1660e01b8152600401602060405180830381865afa158015610c20573d6000803e3d6000fd5b505050506040513d601f19601f82011682018060405250810190610c4491906115f1565b6001600160a01b031614610c6b5760405163fb02114960e01b815260040160405180910390fd5b610c9f6001600160a01b037f00000000000000000000000000000000000000000000000000000000000000001687866111ec565b6040516323e30c8b60e01b81526000906001600160a01b038816906323e30c8b90610cf89033907f0000000000000000000000000000000000000000000000000000000000000000908a9087908b908b9060040161160e565b6020604051808303816000875af1158015610d17573d6000803e3d6000fd5b505050506040513d601f19601f82011682018060405250810190610d3b91906115d8565b90507f439148f0bbc682ca079e46d6e2c2f0c1e3b820f1a291b069d8882abf8cf18dd98114610d7d5760405163081f7c8760e21b815260040160405180910390fd5b610db26001600160a01b037f000000000000000000000000000000000000000000000000000000000000000016883088611155565b5060019695505050505050565b610dc881611278565b610de557604051633dd1b30560e01b815260040160405180910390fd5b6040516370a0823160e01b815230600482015281906000906001600160a01b038316906370a0823190602401602060405180830381865afa158015610e2e573d6000803e3d6000fd5b505050506040513d601f19601f82011682018060405250810190610e5291906115d8565b6009546040516370a0823160e01b8152306004820152919250610ed9916001600160a01b03918216918516906370a0823190602401602060405180830381865afa158015610ea4573d6000803e3d6000fd5b505050506040513d601f19601f82011682018060405250810190610ec891906115d8565b6001600160a01b03851691906111ec565b60095460405182916001600160a01b0390811691908616907f9310ccfcb8de723f578a9e4282ea9f521f05ae40dc08f3068dfad528a65ee3c790600090a4505050565b6040516370a0823160e01b81523060048201526000906001600160a01b038316906370a0823190602401602060405180830381865afa158015610f63573d6000803e3d6000fd5b505050506040513d601f19601f82011682018060405250810190610f8791906115d8565b92915050565b600080600b54600214610fa257600080610fa9565b6003546004545b915091509091565b6007805461062b9061150f565b60007f00000000000000000000000000000000000000000000000000000000000000006001600160a01b0316836001600160a01b03161461101257604051633dd1b30560e01b815260040160405180910390fd5b50600092915050565b604051630f451f7160e31b8152670de0b6b3a7640000600482015260009073ae7ab96520de3a18e5e111b5eaab095312d7fe8490637a28fb8890602401602060405180830381865afa158015611075573d6000803e3d6000fd5b505050506040513d601f19601f8201168201806040525081019061109991906115d8565b9050600a5481146110aa57600a8190555b90565b600060405163095ea7b360e01b6000528360045282602452602060006044600080895af13d15601f3d11600160005114161716915060006060528060405250806102f35760405162461bcd60e51b815260206004820152600e60248201527f415050524f56455f4641494c454400000000000000000000000000000000000060448201526064016106f3565b600061114e83670de0b6b3a7640000846112cd565b9392505050565b60006040516323b872dd60e01b6000528460045283602452826044526020600060646000808a5af13d15601f3d11600160005114161716915060006060528060405250806111e55760405162461bcd60e51b815260206004820152601460248201527f5452414e534645525f46524f4d5f4641494c454400000000000000000000000060448201526064016106f3565b5050505050565b600060405163a9059cbb60e01b6000528360045282602452602060006044600080895af13d15601f3d11600160005114161716915060006060528060405250806102f35760405162461bcd60e51b815260206004820152600f60248201527f5452414e534645525f4641494c4544000000000000000000000000000000000060448201526064016106f3565b60007f00000000000000000000000000000000000000000000000000000000000000006001600160a01b0316826001600160a01b031614158015610f875750506001546001600160a01b039081169116141590565b8282028115158415858304851417166112e557600080fd5b0492915050565b600060208083528351808285015260005b81811015611319578581018301518582016040015282016112fd565b8181111561132b576000604083870101525b50601f01601f1916929092016040019392505050565b6001600160a01b038116811461135657600080fd5b50565b80358015158114610af557600080fd5b6000806040838503121561137c57600080fd5b823561138781611341565b915061139560208401611359565b90509250929050565b600080600080608085870312156113b457600080fd5b5050823594602084013594506040840135936060013592509050565b6000602082840312156113e257600080fd5b813561114e81611341565b6000602082840312156113ff57600080fd5b5035919050565b60008060008060006080868803121561141e57600080fd5b853561142981611341565b9450602086013561143981611341565b935060408601359250606086013567ffffffffffffffff8082111561145d57600080fd5b818801915088601f83011261147157600080fd5b81358181111561148057600080fd5b89602082850101111561149257600080fd5b9699959850939650602001949392505050565b6000806000606084860312156114ba57600080fd5b83356114c581611341565b9250602084013591506114da60408501611359565b90509250925092565b600080604083850312156114f657600080fd5b823561150181611341565b946020939093013593505050565b600181811c9082168061152357607f821691505b60208210810361154357634e487b7160e01b600052602260045260246000fd5b50919050565b805169ffffffffffffffffffff81168114610af557600080fd5b600080600080600060a0868803121561157b57600080fd5b61158486611549565b94506020860151935060408601519250606086015191506115a760808701611549565b90509295509295909350565b6000828210156115d357634e487b7160e01b600052601160045260246000fd5b500390565b6000602082840312156115ea57600080fd5b5051919050565b60006020828403121561160357600080fd5b815161114e81611341565b60006001600160a01b03808916835280881660208401525085604083015284606083015260a060808301528260a0830152828460c0840137600060c0848401015260c0601f19601f850116830101905097965050505050505056fea26469706673582212201ebbb17654b093fef7e5a634d7f58faf7166c34e0179069d659184a741116e0e64736f6c634300080f0033",
  "devdoc": {
    "kind": "dev",
    "methods": {
      "flashLoan(address,address,uint256,bytes)": {
        "params": {
          "amount": "The amount of target lent.",
          "data": "(encoded adapter address, maturity and YT amount the use has sent in)",
          "receiver": "The contract receiving target, needs to implement the `onFlashLoan(address user, address adapter, uint256 maturity, uint256 amount)` interface."
        }
      },
      "getUnderlyingPrice()": {
        "details": "To calculate stETH-ETH price we use Chainlink's stETH-USD and ETH-USD price feeds."
      },
      "maxFlashLoan(address)": {
        "details": "The amount of currency available to be lent.",
        "params": {
          "token": "The loan currency."
        },
        "returns": {
          "_0": "The amount of `token` that can be borrowed."
        }
      },
      "scale()": {
        "returns": {
          "exRate": "Eth per wstEtH (natively in 18 decimals)"
        }
      },
      "unwrapTarget(uint256)": {
        "params": {
          "amount": "Target amount"
        },
        "returns": {
          "stETH": "amount of underlying returned"
        }
      },
      "wrapUnderlying(uint256)": {
        "params": {
          "amount": "Underlying amount"
        },
        "returns": {
          "wstETH": "amount of target returned"
        }
      }
    },
    "version": 1
  },
  "userdoc": {
    "events": {
      "RewardsRecipientChanged(address,address)": {
        "notice": "----------------------------------------------------------------------- Logs -----------------------------------------------------------------------"
      }
    },
    "kind": "user",
    "methods": {
      "adapterParams()": {
        "notice": "adapter params"
      },
      "divider()": {
        "notice": "Sense core Divider address"
      },
      "extractToken(address)": {
        "notice": "Transfers reward tokens from the adapter to Sense's reward container"
      },
      "flashLoan(address,address,uint256,bytes)": {
        "notice": "Loan `amount` target to `receiver`, and takes it back after the callback."
      },
      "ifee()": {
        "notice": "Issuance fee"
      },
      "notify(address,uint256,bool)": {
        "notice": "Notification whenever the Divider adds or removes Target"
      },
      "onRedeem(uint256,uint256,uint256,uint256)": {
        "notice": "Hook called whenever a user redeems PT"
      },
      "rewardsRecipient()": {
        "notice": "Rewards recipient"
      },
      "scaleStored()": {
        "notice": "Cached scale value from the last call to `scale()`"
      },
      "setRewardsRecipient(address)": {
        "notice": "----------------------------------------------------------------------- Admin functions -----------------------------------------------------------------------"
      },
      "target()": {
        "notice": "Target token to divide"
      },
      "underlying()": {
        "notice": "Underlying for the Target"
      },
      "unwrapTarget(uint256)": {
        "notice": "Deposits target `amount`in return for underlying. Must be overriden by child contracts"
      },
      "wrapUnderlying(uint256)": {
        "notice": "Deposits underlying `amount`in return for target. Must be overriden by child contracts"
      }
    },
    "notice": "Adapter contract for wstETH",
    "version": 1
  },
  "storageLayout": {
    "storage": [
      {
        "astId": 7480,
        "contract": "@sense-finance/v1-core/src/adapters/implementations/lido/OwnableWstETHAdapter.sol:OwnableWstETHAdapter",
        "label": "adapterParams",
        "offset": 0,
        "slot": "0",
        "type": "t_struct(AdapterParams)7505_storage"
      },
      {
        "astId": 7507,
        "contract": "@sense-finance/v1-core/src/adapters/implementations/lido/OwnableWstETHAdapter.sol:OwnableWstETHAdapter",
        "label": "name",
        "offset": 0,
        "slot": "6",
        "type": "t_string_storage"
      },
      {
        "astId": 7509,
        "contract": "@sense-finance/v1-core/src/adapters/implementations/lido/OwnableWstETHAdapter.sol:OwnableWstETHAdapter",
        "label": "symbol",
        "offset": 0,
        "slot": "7",
        "type": "t_string_storage"
      },
      {
        "astId": 20673,
        "contract": "@sense-finance/v1-core/src/adapters/implementations/lido/OwnableWstETHAdapter.sol:OwnableWstETHAdapter",
        "label": "isTrusted",
        "offset": 0,
        "slot": "8",
        "type": "t_mapping(t_address,t_bool)"
      },
      {
        "astId": 9920,
        "contract": "@sense-finance/v1-core/src/adapters/implementations/lido/OwnableWstETHAdapter.sol:OwnableWstETHAdapter",
        "label": "rewardsRecipient",
        "offset": 0,
        "slot": "9",
        "type": "t_address"
      },
      {
        "astId": 13094,
        "contract": "@sense-finance/v1-core/src/adapters/implementations/lido/OwnableWstETHAdapter.sol:OwnableWstETHAdapter",
        "label": "scaleStored",
        "offset": 0,
        "slot": "10",
        "type": "t_uint256"
      },
      {
        "astId": 12942,
        "contract": "@sense-finance/v1-core/src/adapters/implementations/lido/OwnableWstETHAdapter.sol:OwnableWstETHAdapter",
        "label": "open",
        "offset": 0,
        "slot": "11",
        "type": "t_uint256"
      }
    ],
    "types": {
      "t_address": {
        "encoding": "inplace",
        "label": "address",
        "numberOfBytes": "20"
      },
      "t_bool": {
        "encoding": "inplace",
        "label": "bool",
        "numberOfBytes": "1"
      },
      "t_mapping(t_address,t_bool)": {
        "encoding": "mapping",
        "key": "t_address",
        "label": "mapping(address => bool)",
        "numberOfBytes": "32",
        "value": "t_bool"
      },
      "t_string_storage": {
        "encoding": "bytes",
        "label": "string",
        "numberOfBytes": "32"
      },
      "t_struct(AdapterParams)7505_storage": {
        "encoding": "inplace",
        "label": "struct BaseAdapter.AdapterParams",
        "members": [
          {
            "astId": 7483,
            "contract": "@sense-finance/v1-core/src/adapters/implementations/lido/OwnableWstETHAdapter.sol:OwnableWstETHAdapter",
            "label": "oracle",
            "offset": 0,
            "slot": "0",
            "type": "t_address"
          },
          {
            "astId": 7486,
            "contract": "@sense-finance/v1-core/src/adapters/implementations/lido/OwnableWstETHAdapter.sol:OwnableWstETHAdapter",
            "label": "stake",
            "offset": 0,
            "slot": "1",
            "type": "t_address"
          },
          {
            "astId": 7489,
            "contract": "@sense-finance/v1-core/src/adapters/implementations/lido/OwnableWstETHAdapter.sol:OwnableWstETHAdapter",
            "label": "stakeSize",
            "offset": 0,
            "slot": "2",
            "type": "t_uint256"
          },
          {
            "astId": 7492,
            "contract": "@sense-finance/v1-core/src/adapters/implementations/lido/OwnableWstETHAdapter.sol:OwnableWstETHAdapter",
            "label": "minm",
            "offset": 0,
            "slot": "3",
            "type": "t_uint256"
          },
          {
            "astId": 7495,
            "contract": "@sense-finance/v1-core/src/adapters/implementations/lido/OwnableWstETHAdapter.sol:OwnableWstETHAdapter",
            "label": "maxm",
            "offset": 0,
            "slot": "4",
            "type": "t_uint256"
          },
          {
            "astId": 7498,
            "contract": "@sense-finance/v1-core/src/adapters/implementations/lido/OwnableWstETHAdapter.sol:OwnableWstETHAdapter",
            "label": "tilt",
            "offset": 0,
            "slot": "5",
            "type": "t_uint64"
          },
          {
            "astId": 7501,
            "contract": "@sense-finance/v1-core/src/adapters/implementations/lido/OwnableWstETHAdapter.sol:OwnableWstETHAdapter",
            "label": "level",
            "offset": 8,
            "slot": "5",
            "type": "t_uint48"
          },
          {
            "astId": 7504,
            "contract": "@sense-finance/v1-core/src/adapters/implementations/lido/OwnableWstETHAdapter.sol:OwnableWstETHAdapter",
            "label": "mode",
            "offset": 14,
            "slot": "5",
            "type": "t_uint16"
          }
        ],
        "numberOfBytes": "192"
      },
      "t_uint16": {
        "encoding": "inplace",
        "label": "uint16",
        "numberOfBytes": "2"
      },
      "t_uint256": {
        "encoding": "inplace",
        "label": "uint256",
        "numberOfBytes": "32"
      },
      "t_uint48": {
        "encoding": "inplace",
        "label": "uint48",
        "numberOfBytes": "6"
      },
      "t_uint64": {
        "encoding": "inplace",
        "label": "uint64",
        "numberOfBytes": "8"
      }
    }
  }
}