{
  "address": "0x40386ec5CF58ea9002dBBb812a0E081129e53277",
  "abi": [
    {
      "inputs": [
        {
          "internalType": "address",
          "name": "_divider",
          "type": "address"
        },
        {
          "internalType": "address",
          "name": "_poolManager",
          "type": "address"
        },
        {
          "internalType": "address",
          "name": "_spaceFactory",
          "type": "address"
        },
        {
          "internalType": "address",
          "name": "_balancerVault",
          "type": "address"
        }
      ],
      "stateMutability": "nonpayable",
      "type": "constructor"
    },
    {
      "inputs": [],
      "name": "ExistingValue",
      "type": "error"
    },
    {
      "inputs": [],
      "name": "FactoryNotSupported",
      "type": "error"
    },
    {
      "inputs": [],
      "name": "FlashBorrowFailed",
      "type": "error"
    },
    {
      "inputs": [],
      "name": "FlashUntrustedBorrower",
      "type": "error"
    },
    {
      "inputs": [],
      "name": "FlashUntrustedLoanInitiator",
      "type": "error"
    },
    {
      "inputs": [],
      "name": "SwapTooSmall",
      "type": "error"
    },
    {
      "inputs": [],
      "name": "TargetMismatch",
      "type": "error"
    },
    {
      "inputs": [],
      "name": "TargetNotSupported",
      "type": "error"
    },
    {
      "inputs": [],
      "name": "UnexpectedSwapAmount",
      "type": "error"
    },
    {
      "anonymous": false,
      "inputs": [
        {
          "indexed": true,
          "internalType": "address",
          "name": "adapter",
          "type": "address"
        }
      ],
      "name": "AdapterDeployed",
      "type": "event"
    },
    {
      "anonymous": false,
      "inputs": [
        {
          "indexed": true,
          "internalType": "address",
          "name": "adapter",
          "type": "address"
        }
      ],
      "name": "AdapterOnboarded",
      "type": "event"
    },
    {
      "anonymous": false,
      "inputs": [
        {
          "indexed": true,
          "internalType": "address",
          "name": "adapter",
          "type": "address"
        }
      ],
      "name": "AdapterVerified",
      "type": "event"
    },
    {
      "anonymous": false,
      "inputs": [
        {
          "indexed": true,
          "internalType": "address",
          "name": "adapter",
          "type": "address"
        },
        {
          "indexed": true,
          "internalType": "bool",
          "name": "isOn",
          "type": "bool"
        }
      ],
      "name": "FactoryChanged",
      "type": "event"
    },
    {
      "anonymous": false,
      "inputs": [
        {
          "indexed": true,
          "internalType": "address",
          "name": "adapter",
          "type": "address"
        },
        {
          "indexed": true,
          "internalType": "uint256",
          "name": "maturity",
          "type": "uint256"
        },
        {
          "indexed": true,
          "internalType": "address",
          "name": "sponsor",
          "type": "address"
        }
      ],
      "name": "SeriesSponsored",
      "type": "event"
    },
    {
      "anonymous": false,
      "inputs": [
        {
          "indexed": true,
          "internalType": "address",
          "name": "sender",
          "type": "address"
        },
        {
          "indexed": true,
          "internalType": "bytes32",
          "name": "poolId",
          "type": "bytes32"
        },
        {
          "indexed": false,
          "internalType": "address",
          "name": "assetIn",
          "type": "address"
        },
        {
          "indexed": false,
          "internalType": "address",
          "name": "assetOut",
          "type": "address"
        },
        {
          "indexed": false,
          "internalType": "uint256",
          "name": "amountIn",
          "type": "uint256"
        },
        {
          "indexed": false,
          "internalType": "uint256",
          "name": "amountOut",
          "type": "uint256"
        },
        {
          "indexed": true,
          "internalType": "bytes4",
          "name": "sig",
          "type": "bytes4"
        }
      ],
      "name": "Swapped",
      "type": "event"
    },
    {
      "anonymous": false,
      "inputs": [
        {
          "indexed": true,
          "internalType": "address",
          "name": "user",
          "type": "address"
        },
        {
          "indexed": false,
          "internalType": "bool",
          "name": "trusted",
          "type": "bool"
        }
      ],
      "name": "UserTrustUpdated",
      "type": "event"
    },
    {
      "inputs": [],
      "name": "MIN_YT_SWAP_IN",
      "outputs": [
        {
          "internalType": "uint256",
          "name": "",
          "type": "uint256"
        }
      ],
      "stateMutability": "view",
      "type": "function"
    },
    {
      "inputs": [],
      "name": "PRICE_ESTIMATE_ACCEPTABLE_ERROR",
      "outputs": [
        {
          "internalType": "uint256",
          "name": "",
          "type": "uint256"
        }
      ],
      "stateMutability": "view",
      "type": "function"
    },
    {
      "inputs": [
        {
          "internalType": "address",
          "name": "adapter",
          "type": "address"
        },
        {
          "internalType": "uint256",
          "name": "maturity",
          "type": "uint256"
        },
        {
          "internalType": "uint256",
          "name": "tBal",
          "type": "uint256"
        },
        {
          "internalType": "uint8",
          "name": "mode",
          "type": "uint8"
        }
      ],
      "name": "addLiquidityFromTarget",
      "outputs": [
        {
          "internalType": "uint256",
          "name": "tAmount",
          "type": "uint256"
        },
        {
          "internalType": "uint256",
          "name": "issued",
          "type": "uint256"
        },
        {
          "internalType": "uint256",
          "name": "lpShares",
          "type": "uint256"
        }
      ],
      "stateMutability": "nonpayable",
      "type": "function"
    },
    {
      "inputs": [
        {
          "internalType": "address",
          "name": "adapter",
          "type": "address"
        },
        {
          "internalType": "uint256",
          "name": "maturity",
          "type": "uint256"
        },
        {
          "internalType": "uint256",
          "name": "uBal",
          "type": "uint256"
        },
        {
          "internalType": "uint8",
          "name": "mode",
          "type": "uint8"
        }
      ],
      "name": "addLiquidityFromUnderlying",
      "outputs": [
        {
          "internalType": "uint256",
          "name": "tAmount",
          "type": "uint256"
        },
        {
          "internalType": "uint256",
          "name": "issued",
          "type": "uint256"
        },
        {
          "internalType": "uint256",
          "name": "lpShares",
          "type": "uint256"
        }
      ],
      "stateMutability": "nonpayable",
      "type": "function"
    },
    {
      "inputs": [],
      "name": "balancerVault",
      "outputs": [
        {
          "internalType": "contract BalancerVault",
          "name": "",
          "type": "address"
        }
      ],
      "stateMutability": "view",
      "type": "function"
    },
    {
      "inputs": [
        {
          "internalType": "address",
          "name": "f",
          "type": "address"
        },
        {
          "internalType": "address",
          "name": "target",
          "type": "address"
        }
      ],
      "name": "deployAdapter",
      "outputs": [
        {
          "internalType": "address",
          "name": "adapter",
          "type": "address"
        }
      ],
      "stateMutability": "nonpayable",
      "type": "function"
    },
    {
      "inputs": [],
      "name": "divider",
      "outputs": [
        {
          "internalType": "contract Divider",
          "name": "",
          "type": "address"
        }
      ],
      "stateMutability": "view",
      "type": "function"
    },
    {
      "inputs": [
        {
          "internalType": "address",
          "name": "",
          "type": "address"
        }
      ],
      "name": "factories",
      "outputs": [
        {
          "internalType": "bool",
          "name": "",
          "type": "bool"
        }
      ],
      "stateMutability": "view",
      "type": "function"
    },
    {
      "inputs": [
        {
          "internalType": "address",
          "name": "",
          "type": "address"
        }
      ],
      "name": "isTrusted",
      "outputs": [
        {
          "internalType": "bool",
          "name": "",
          "type": "bool"
        }
      ],
      "stateMutability": "view",
      "type": "function"
    },
    {
      "inputs": [
        {
          "internalType": "address",
          "name": "srcAdapter",
          "type": "address"
        },
        {
          "internalType": "address",
          "name": "dstAdapter",
          "type": "address"
        },
        {
          "internalType": "uint256",
          "name": "srcMaturity",
          "type": "uint256"
        },
        {
          "internalType": "uint256",
          "name": "dstMaturity",
          "type": "uint256"
        },
        {
          "internalType": "uint256",
          "name": "lpBal",
          "type": "uint256"
        },
        {
          "internalType": "uint256[]",
          "name": "minAmountsOut",
          "type": "uint256[]"
        },
        {
          "internalType": "uint256",
          "name": "minAccepted",
          "type": "uint256"
        },
        {
          "internalType": "uint8",
          "name": "mode",
          "type": "uint8"
        }
      ],
      "name": "migrateLiquidity",
      "outputs": [
        {
          "internalType": "uint256",
          "name": "tAmount",
          "type": "uint256"
        },
        {
          "internalType": "uint256",
          "name": "issued",
          "type": "uint256"
        },
        {
          "internalType": "uint256",
          "name": "lpShares",
          "type": "uint256"
        },
        {
          "internalType": "uint256",
          "name": "ptBal",
          "type": "uint256"
        }
      ],
      "stateMutability": "nonpayable",
      "type": "function"
    },
    {
      "inputs": [
        {
          "internalType": "bytes",
          "name": "",
          "type": "bytes"
        },
        {
          "internalType": "address",
          "name": "initiator",
          "type": "address"
        },
        {
          "internalType": "address",
          "name": "adapter",
          "type": "address"
        },
        {
          "internalType": "uint256",
          "name": "maturity",
          "type": "uint256"
        },
        {
          "internalType": "uint256",
          "name": "ytBalIn",
          "type": "uint256"
        },
        {
          "internalType": "uint256",
          "name": "amount",
          "type": "uint256"
        }
      ],
      "name": "onFlashLoan",
      "outputs": [
        {
          "internalType": "bytes32",
          "name": "id",
          "type": "bytes32"
        },
        {
          "internalType": "uint256",
          "name": "tBalNet",
          "type": "uint256"
        }
      ],
      "stateMutability": "nonpayable",
      "type": "function"
    },
    {
      "inputs": [
        {
          "internalType": "address",
          "name": "adapter",
          "type": "address"
        }
      ],
      "name": "onboardAdapter",
      "outputs": [],
      "stateMutability": "nonpayable",
      "type": "function"
    },
    {
      "inputs": [],
      "name": "poolManager",
      "outputs": [
        {
          "internalType": "contract PoolManager",
          "name": "",
          "type": "address"
        }
      ],
      "stateMutability": "view",
      "type": "function"
    },
    {
      "inputs": [
        {
          "internalType": "address",
          "name": "adapter",
          "type": "address"
        },
        {
          "internalType": "uint256",
          "name": "maturity",
          "type": "uint256"
        },
        {
          "internalType": "uint256",
          "name": "lpBal",
          "type": "uint256"
        },
        {
          "internalType": "uint256[]",
          "name": "minAmountsOut",
          "type": "uint256[]"
        },
        {
          "internalType": "uint256",
          "name": "minAccepted",
          "type": "uint256"
        }
      ],
      "name": "removeLiquidityToTarget",
      "outputs": [
        {
          "internalType": "uint256",
          "name": "tBal",
          "type": "uint256"
        },
        {
          "internalType": "uint256",
          "name": "ptBal",
          "type": "uint256"
        }
      ],
      "stateMutability": "nonpayable",
      "type": "function"
    },
    {
      "inputs": [
        {
          "internalType": "address",
          "name": "adapter",
          "type": "address"
        },
        {
          "internalType": "uint256",
          "name": "maturity",
          "type": "uint256"
        },
        {
          "internalType": "uint256",
          "name": "lpBal",
          "type": "uint256"
        },
        {
          "internalType": "uint256[]",
          "name": "minAmountsOut",
          "type": "uint256[]"
        },
        {
          "internalType": "uint256",
          "name": "minAccepted",
          "type": "uint256"
        }
      ],
      "name": "removeLiquidityToUnderlying",
      "outputs": [
        {
          "internalType": "uint256",
          "name": "uBal",
          "type": "uint256"
        },
        {
          "internalType": "uint256",
          "name": "ptBal",
          "type": "uint256"
        }
      ],
      "stateMutability": "nonpayable",
      "type": "function"
    },
    {
      "inputs": [
        {
          "internalType": "address",
          "name": "f",
          "type": "address"
        },
        {
          "internalType": "bool",
          "name": "isOn",
          "type": "bool"
        }
      ],
      "name": "setFactory",
      "outputs": [],
      "stateMutability": "nonpayable",
      "type": "function"
    },
    {
      "inputs": [
        {
          "internalType": "address",
          "name": "user",
          "type": "address"
        },
        {
          "internalType": "bool",
          "name": "trusted",
          "type": "bool"
        }
      ],
      "name": "setIsTrusted",
      "outputs": [],
      "stateMutability": "nonpayable",
      "type": "function"
    },
    {
      "inputs": [],
      "name": "spaceFactory",
      "outputs": [
        {
          "internalType": "contract SpaceFactoryLike",
          "name": "",
          "type": "address"
        }
      ],
      "stateMutability": "view",
      "type": "function"
    },
    {
      "inputs": [
        {
          "internalType": "address",
          "name": "adapter",
          "type": "address"
        },
        {
          "internalType": "uint256",
          "name": "maturity",
          "type": "uint256"
        },
        {
          "internalType": "bool",
          "name": "withPool",
          "type": "bool"
        }
      ],
      "name": "sponsorSeries",
      "outputs": [
        {
          "internalType": "address",
          "name": "pt",
          "type": "address"
        },
        {
          "internalType": "address",
          "name": "yt",
          "type": "address"
        }
      ],
      "stateMutability": "nonpayable",
      "type": "function"
    },
    {
      "inputs": [
        {
          "internalType": "address",
          "name": "adapter",
          "type": "address"
        },
        {
          "internalType": "uint256",
          "name": "maturity",
          "type": "uint256"
        },
        {
          "internalType": "uint256",
          "name": "ptBal",
          "type": "uint256"
        },
        {
          "internalType": "uint256",
          "name": "minAccepted",
          "type": "uint256"
        }
      ],
      "name": "swapPTsForTarget",
      "outputs": [
        {
          "internalType": "uint256",
          "name": "tBal",
          "type": "uint256"
        }
      ],
      "stateMutability": "nonpayable",
      "type": "function"
    },
    {
      "inputs": [
        {
          "internalType": "address",
          "name": "adapter",
          "type": "address"
        },
        {
          "internalType": "uint256",
          "name": "maturity",
          "type": "uint256"
        },
        {
          "internalType": "uint256",
          "name": "ptBal",
          "type": "uint256"
        },
        {
          "internalType": "uint256",
          "name": "minAccepted",
          "type": "uint256"
        }
      ],
      "name": "swapPTsForUnderlying",
      "outputs": [
        {
          "internalType": "uint256",
          "name": "uBal",
          "type": "uint256"
        }
      ],
      "stateMutability": "nonpayable",
      "type": "function"
    },
    {
      "inputs": [
        {
          "internalType": "address",
          "name": "adapter",
          "type": "address"
        },
        {
          "internalType": "uint256",
          "name": "maturity",
          "type": "uint256"
        },
        {
          "internalType": "uint256",
          "name": "tBal",
          "type": "uint256"
        },
        {
          "internalType": "uint256",
          "name": "minAccepted",
          "type": "uint256"
        }
      ],
      "name": "swapTargetForPTs",
      "outputs": [
        {
          "internalType": "uint256",
          "name": "ptBal",
          "type": "uint256"
        }
      ],
      "stateMutability": "nonpayable",
      "type": "function"
    },
    {
      "inputs": [
        {
          "internalType": "address",
          "name": "adapter",
          "type": "address"
        },
        {
          "internalType": "uint256",
          "name": "maturity",
          "type": "uint256"
        },
        {
          "internalType": "uint256",
          "name": "tBal",
          "type": "uint256"
        },
        {
          "internalType": "uint256",
          "name": "minAccepted",
          "type": "uint256"
        }
      ],
      "name": "swapTargetForYTs",
      "outputs": [
        {
          "internalType": "uint256",
          "name": "ytBal",
          "type": "uint256"
        }
      ],
      "stateMutability": "nonpayable",
      "type": "function"
    },
    {
      "inputs": [
        {
          "internalType": "address",
          "name": "adapter",
          "type": "address"
        },
        {
          "internalType": "uint256",
          "name": "maturity",
          "type": "uint256"
        },
        {
          "internalType": "uint256",
          "name": "uBal",
          "type": "uint256"
        },
        {
          "internalType": "uint256",
          "name": "minAccepted",
          "type": "uint256"
        }
      ],
      "name": "swapUnderlyingForPTs",
      "outputs": [
        {
          "internalType": "uint256",
          "name": "ptBal",
          "type": "uint256"
        }
      ],
      "stateMutability": "nonpayable",
      "type": "function"
    },
    {
      "inputs": [
        {
          "internalType": "address",
          "name": "adapter",
          "type": "address"
        },
        {
          "internalType": "uint256",
          "name": "maturity",
          "type": "uint256"
        },
        {
          "internalType": "uint256",
          "name": "uBal",
          "type": "uint256"
        },
        {
          "internalType": "uint256",
          "name": "minAccepted",
          "type": "uint256"
        }
      ],
      "name": "swapUnderlyingForYTs",
      "outputs": [
        {
          "internalType": "uint256",
          "name": "ytBal",
          "type": "uint256"
        }
      ],
      "stateMutability": "nonpayable",
      "type": "function"
    },
    {
      "inputs": [
        {
          "internalType": "address",
          "name": "adapter",
          "type": "address"
        },
        {
          "internalType": "uint256",
          "name": "maturity",
          "type": "uint256"
        },
        {
          "internalType": "uint256",
          "name": "ytBal",
          "type": "uint256"
        }
      ],
      "name": "swapYTsForTarget",
      "outputs": [
        {
          "internalType": "uint256",
          "name": "tBal",
          "type": "uint256"
        }
      ],
      "stateMutability": "nonpayable",
      "type": "function"
    },
    {
      "inputs": [
        {
          "internalType": "address",
          "name": "adapter",
          "type": "address"
        },
        {
          "internalType": "uint256",
          "name": "maturity",
          "type": "uint256"
        },
        {
          "internalType": "uint256",
          "name": "ytBal",
          "type": "uint256"
        }
      ],
      "name": "swapYTsForUnderlying",
      "outputs": [
        {
          "internalType": "uint256",
          "name": "uBal",
          "type": "uint256"
        }
      ],
      "stateMutability": "nonpayable",
      "type": "function"
    },
    {
      "inputs": [
        {
          "internalType": "address",
          "name": "",
          "type": "address"
        }
      ],
      "name": "verified",
      "outputs": [
        {
          "internalType": "bool",
          "name": "",
          "type": "bool"
        }
      ],
      "stateMutability": "view",
      "type": "function"
    },
    {
      "inputs": [
        {
          "internalType": "address",
          "name": "adapter",
          "type": "address"
        },
        {
          "internalType": "bool",
          "name": "addToPool",
          "type": "bool"
        }
      ],
      "name": "verifyAdapter",
      "outputs": [],
      "stateMutability": "nonpayable",
      "type": "function"
    }
  ],
  "transactionHash": "0x7aa9a3fd730a523c1c9a2f85557efd9aac26d091ed739da689257167a0caa916",
  "args": [
    "0x6961e8650A1548825f3e17335b7Db2158955C22f",
    "0xEBf829fB23bb3caf7eEeD89515264C18e2CE1dFb",
    "0xc65d66650f17319EfA2168E1cA941FEE3739ce16",
    "0xBA12222222228d8Ba445958a75a0704d566BF2C8"
  ],
  "solcInputHash": "09847c7755e2319c9df8555af39fbe1d",
  "bytecode": "0x6101006040523480156200001257600080fd5b50604051620053f5380380620053f58339810160408190526200003591620000c7565b3360008181526020818152604091829020805460ff19166001908117909155915191825282917fe95aec380cae16330d146d5499ef7db6f3657e477104a733e771bc09e500d986910160405180910390a2506001600160a01b0393841660805291831660a052821660c0521660e05262000124565b80516001600160a01b0381168114620000c257600080fd5b919050565b60008060008060808587031215620000de57600080fd5b620000e985620000aa565b9350620000f960208601620000aa565b92506200010960408601620000aa565b91506200011960608601620000aa565b905092959194509250565b60805160a05160c05160e051615194620002616000396000818161022601528181612af201528181612d5301528181612e6501528181613a9c01528181613b8701528181613d8c01528181614327015261444001526000818161038d015281816109ed01528181610b0c015281816110b801528181612433015281816126d90152818161298b0152818161309b015281816133f30152613d18015260008181610488015281816109bf0152610c330152600081816102be01528181610845015281816109070152818161101f015281816112b1015281816113ed01528181611efe0152818161202d01528181612388015281816126420152818161283601528181613004015281816131da015281816133210152818161348e0152818161352a015281816136d3015281816137c40152613f9701526151946000f3fe608060405234801561001057600080fd5b50600436106101cf5760003560e01c8063857bee5f11610104578063ce3a9128116100a2578063e45eb09911610071578063e45eb099146104aa578063f59579c2146104d8578063fab52689146104eb578063fdb8c0461461050e57600080fd5b8063ce3a912814610451578063d3469cdf1461045d578063d3a03e3b14610470578063dc4c90d31461048357600080fd5b806397a27fbf116100de57806397a27fbf146103e5578063b16bdcfe146103f8578063bbaed6bd1461040b578063c859353c1461041e57600080fd5b8063857bee5f146103885780638f1f30f0146103af57806396d64879146103c257600080fd5b8063457dcd2911610171578063643059b51161014b578063643059b514610327578063686884401461034f57806371013c101461036257806376fe37b31461037557600080fd5b8063457dcd29146102e057806347c7a21214610301578063560c98761461031457600080fd5b80631c1c6751116101ad5780631c1c6751146102605780631fc3e73314610273578063318d3c37146102a6578063378efa37146102b957600080fd5b80630db065f4146101d45780631393916a1461020c578063158274a514610221575b600080fd5b6101f76101e23660046145a6565b60026020526000908152604090205460ff1681565b60405190151581526020015b60405180910390f35b61021f61021a3660046145d1565b61051a565b005b6102487f000000000000000000000000000000000000000000000000000000000000000081565b6040516001600160a01b039091168152602001610203565b61024861026e36600461460a565b6105c7565b610286610281366004614638565b6107aa565b604080516001600160a01b03938416815292909116602083015201610203565b61021f6102b43660046145d1565b610bbd565b6102487f000000000000000000000000000000000000000000000000000000000000000081565b6102f36102ee36600461467a565b610d86565b604051908152602001610203565b6102f361030f36600461467a565b610e15565b6102f36103223660046146b5565b610ea5565b61033a6103353660046146ea565b610f6f565b60408051928352602083019190915201610203565b61033a61035d36600461486d565b6114fc565b61021f6103703660046145d1565b611561565b6102f361038336600461467a565b611659565b6102487f000000000000000000000000000000000000000000000000000000000000000081565b6102f36103bd36600461467a565b6116ab565b6101f76103d03660046145a6565b60006020819052908152604090205460ff1681565b6102f36103f336600461467a565b611822565b6102f36104063660046146b5565b6119c4565b6102f361041936600461467a565b611a1e565b61043161042c3660046148e7565b611b8a565b604080519485526020850193909352918301526060820152608001610203565b6102f364e8d4a5100081565b61033a61046b36600461486d565b611cd4565b61021f61047e3660046145a6565b611e83565b6102487f000000000000000000000000000000000000000000000000000000000000000081565b6104bd6104b8366004614985565b6120c1565b60408051938452602084019290925290820152606001610203565b6104bd6104e6366004614985565b612242565b6101f76104f93660046145a6565b60016020526000908152604090205460ff1681565b6102f36402540be40081565b3360009081526020819052604090205460ff1661056a5760405162461bcd60e51b8152602060048201526009602482015268155395149554d5115160ba1b60448201526064015b60405180910390fd5b6001600160a01b03821660008181526020818152604091829020805460ff191685151590811790915591519182527fe95aec380cae16330d146d5499ef7db6f3657e477104a733e771bc09e500d986910160405180910390a25050565b6001600160a01b03821660009081526001602052604081205460ff16610619576040517fe459d6aa00000000000000000000000000000000000000000000000000000000815260040160405180910390fd5b6040517ff6a3d24e0000000000000000000000000000000000000000000000000000000081526001600160a01b03838116600483015284169063f6a3d24e906024016020604051808303816000875af115801561067a573d6000803e3d6000fd5b505050506040513d601f19601f8201168201806040525081019061069e91906149cf565b6106d4576040517fa2a94ace00000000000000000000000000000000000000000000000000000000815260040160405180910390fd5b6040517f639cc2790000000000000000000000000000000000000000000000000000000081526001600160a01b03838116600483015284169063639cc279906024016020604051808303816000875af1158015610735573d6000803e3d6000fd5b505050506040513d601f19601f8201168201806040525081019061075991906149ec565b6040519091506001600160a01b038216907f5c4dabb7dca79d442edd65b39b410aef25f4eea4a498150e7e442d5ca508f6d590600090a261079b816001610bbd565b6107a481611e83565b92915050565b600080600080866001600160a01b03166327b327d06040518163ffffffff1660e01b8152600401606060405180830381865afa1580156107ee573d6000803e3d6000fd5b505050506040513d601f19601f820116820180604052508101906108129190614a09565b909350915061082e90506001600160a01b0383163330846122a7565b60405163095ea7b360e01b81526001600160a01b037f0000000000000000000000000000000000000000000000000000000000000000811660048301526024820183905283169063095ea7b3906044016020604051808303816000875af115801561089d573d6000803e3d6000fd5b505050506040513d601f19601f820116820180604052508101906108c191906149cf565b506040517f3e3972ee0000000000000000000000000000000000000000000000000000000081526001600160a01b038881166004830152602482018890523360448301527f00000000000000000000000000000000000000000000000000000000000000001690633e3972ee9060640160408051808303816000875af115801561094f573d6000803e3d6000fd5b505050506040513d601f19601f820116820180604052508101906109739190614a4c565b6001600160a01b038916600090815260026020526040902054919550935060ff1615610ae057604051630ecaea7360e01b81526001600160a01b038881166004830152602482018890527f0000000000000000000000000000000000000000000000000000000000000000811691635e883823918a918a917f00000000000000000000000000000000000000000000000000000000000000001690630ecaea73906044016020604051808303816000875af1158015610a36573d6000803e3d6000fd5b505050506040513d601f19601f82011682018060405250810190610a5a91906149ec565b60405160e085901b7fffffffff000000000000000000000000000000000000000000000000000000001681526001600160a01b03938416600482015260248101929092529091166044820152606401600060405180830381600087803b158015610ac357600080fd5b505af1158015610ad7573d6000803e3d6000fd5b50505050610b7b565b8415610b7b57604051630ecaea7360e01b81526001600160a01b038881166004830152602482018890527f00000000000000000000000000000000000000000000000000000000000000001690630ecaea73906044016020604051808303816000875af1158015610b55573d6000803e3d6000fd5b505050506040513d601f19601f82011682018060405250810190610b7991906149ec565b505b604051339087906001600160a01b038a16907fe385633dd30b0221b25f7a6f7e18c5992b339b5686322abe8ceb999e81249cd190600090a45050935093915050565b3360009081526020819052604090205460ff16610c085760405162461bcd60e51b8152602060048201526009602482015268155395149554d5115160ba1b6044820152606401610561565b6001600160a01b0382166000908152600260205260409020805460ff191660011790558015610d4e577f00000000000000000000000000000000000000000000000000000000000000006001600160a01b0316631ec64fef836001600160a01b031663d4b839926040518163ffffffff1660e01b8152600401602060405180830381865afa158015610c9e573d6000803e3d6000fd5b505050506040513d601f19601f82011682018060405250810190610cc291906149ec565b6040517fffffffff0000000000000000000000000000000000000000000000000000000060e084901b1681526001600160a01b03918216600482015290851660248201526044016020604051808303816000875af1158015610d28573d6000803e3d6000fd5b505050506040513d601f19601f82011682018060405250810190610d4c91906149ec565b505b6040516001600160a01b038316907ff9f4ea4fb47406a3baf9adc8bd38b1c82e5a5fee5de9b3c5af3218400fb530c090600090a25050565b6000610d948585858561235d565b9050610e0d3382876001600160a01b031663d4b839926040518163ffffffff1660e01b8152600401602060405180830381865afa158015610dd9573d6000803e3d6000fd5b505050506040513d601f19601f82011682018060405250810190610dfd91906149ec565b6001600160a01b03169190612571565b949350505050565b6000610e90333085886001600160a01b031663d4b839926040518163ffffffff1660e01b8152600401602060405180830381865afa158015610e5b573d6000803e3d6000fd5b505050506040513d601f19601f82011682018060405250810190610e7f91906149ec565b6001600160a01b03169291906122a7565b610e9c85858585612617565b95945050505050565b600080610eb43386868661280b565b6040516351c39ea160e01b8152600481018290529091506001600160a01b038616906351c39ea1906024016020604051808303816000875af1158015610efe573d6000803e3d6000fd5b505050506040513d601f19601f82011682018060405250810190610f229190614a7b565b9150610f673383876001600160a01b0316636f307dc36040518163ffffffff1660e01b8152600401602060405180830381865afa158015610dd9573d6000803e3d6000fd5b509392505050565b600080336001600160a01b03871614610fb4576040517f4cd0f00a00000000000000000000000000000000000000000000000000000000815260040160405180910390fd5b6001600160a01b0387163014610ff6576040517f14aa288800000000000000000000000000000000000000000000000000000000815260040160405180910390fd5b60405163574e779560e01b81526001600160a01b038781166004830152602482018790526000917f00000000000000000000000000000000000000000000000000000000000000009091169063574e779590604401602060405180830381865afa158015611068573d6000803e3d6000fd5b505050506040513d601f19601f8201168201806040525081019061108c91906149ec565b604051638f38a55560e01b81526001600160a01b038981166004830152602482018990529192506000917f00000000000000000000000000000000000000000000000000000000000000001690638f38a55590604401602060405180830381865afa1580156110ff573d6000803e3d6000fd5b505050506040513d601f19601f8201168201806040525081019061112391906149ec565b905060006009836001600160a01b031663313ce5676040518163ffffffff1660e01b8152600401602060405180830381865afa158015611167573d6000803e3d6000fd5b505050506040513d601f19601f8201168201806040525081019061118b9190614a94565b60ff161061121f57826001600160a01b031663313ce5676040518163ffffffff1660e01b8152600401602060405180830381865afa1580156111d1573d6000803e3d6000fd5b505050506040513d601f19601f820116820180604052508101906111f59190614a94565b611200906012614ac7565b61120b90600a614bce565b61121a906402540be400614bdd565b611222565b60015b9050600061138e8a6001600160a01b031663d4b839926040518163ffffffff1660e01b8152600401602060405180830381865afa158015611267573d6000803e3d6000fd5b505050506040513d601f19601f8201168201806040525081019061128b91906149ec565b60405163d10eb4b960e01b81526001600160a01b038d81166004830152602482018d90527f0000000000000000000000000000000000000000000000000000000000000000169063d10eb4b990604401602060405180830381865afa1580156112f8573d6000803e3d6000fd5b505050506040513d601f19601f8201168201806040525081019061131c91906149ec565b89866001600160a01b03166338fff2d06040518163ffffffff1660e01b8152600401602060405180830381865afa15801561135b573d6000803e3d6000fd5b505050506040513d601f19601f8201168201806040525081019061137f9190614a7b565b611389878e614bff565b612d3c565b905061139a8289614c16565b81101580156113b257506113ae8289614bff565b8111155b156113e9576040517f51eb56bb00000000000000000000000000000000000000000000000000000000815260040160405180910390fd5b60007f00000000000000000000000000000000000000000000000000000000000000006001600160a01b031663ba89bebd8c8c8c8610611429578c61142b565b855b6040517fffffffff0000000000000000000000000000000000000000000000000000000060e086901b1681526001600160a01b039093166004840152602483019190915260448201526064016020604051808303816000875af1158015611496573d6000803e3d6000fd5b505050506040513d601f19601f820116820180604052508101906114ba9190614a7b565b90507f439148f0bbc682ca079e46d6e2c2f0c1e3b820f1a291b069d8882abf8cf18dd96114e78983614bff565b96509650505050505097509795505050505050565b60008061150c8787878787612f71565b80925081935050506115573383896001600160a01b031663d4b839926040518163ffffffff1660e01b8152600401602060405180830381865afa158015610dd9573d6000803e3d6000fd5b9550959350505050565b3360009081526020819052604090205460ff166115ac5760405162461bcd60e51b8152602060048201526009602482015268155395149554d5115160ba1b6044820152606401610561565b6001600160a01b03821660009081526001602052604090205460ff1615158115151415611605576040517fe2be007400000000000000000000000000000000000000000000000000000000815260040160405180910390fd5b6001600160a01b038216600081815260016020526040808220805460ff191685151590811790915590519092917fe63b400aabb14e166c6cf1b963fc9332222bc4dfe22a7fa4a487411d6cb83b3191a35050565b600061169f333085886001600160a01b031663d4b839926040518163ffffffff1660e01b8152600401602060405180830381865afa158015610e5b573d6000803e3d6000fd5b610e9c858585856133c8565b600080856001600160a01b0316636f307dc36040518163ffffffff1660e01b8152600401602060405180830381865afa1580156116ec573d6000803e3d6000fd5b505050506040513d601f19601f8201168201806040525081019061171091906149ec565b90506117276001600160a01b0382163330876122a7565b60405163095ea7b360e01b81526001600160a01b0387811660048301526024820186905282169063095ea7b3906044016020604051808303816000875af1158015611776573d6000803e3d6000fd5b505050506040513d601f19601f8201168201806040525081019061179a91906149cf565b50604051634aae9fed60e01b8152600481018590526000906001600160a01b03881690634aae9fed906024016020604051808303816000875af11580156117e5573d6000803e3d6000fd5b505050506040513d601f19601f820116820180604052508101906118099190614a7b565b905061181787878387612617565b979650505050505050565b6000806118318686868661235d565b9050856001600160a01b031663d4b839926040518163ffffffff1660e01b8152600401602060405180830381865afa158015611871573d6000803e3d6000fd5b505050506040513d601f19601f8201168201806040525081019061189591906149ec565b60405163095ea7b360e01b81526001600160a01b03888116600483015260248201849052919091169063095ea7b3906044016020604051808303816000875af11580156118e6573d6000803e3d6000fd5b505050506040513d601f19601f8201168201806040525081019061190a91906149cf565b506040516351c39ea160e01b8152600481018290526001600160a01b038716906351c39ea1906024016020604051808303816000875af1158015611952573d6000803e3d6000fd5b505050506040513d601f19601f820116820180604052508101906119769190614a7b565b91506119bb3383886001600160a01b0316636f307dc36040518163ffffffff1660e01b8152600401602060405180830381865afa158015610dd9573d6000803e3d6000fd5b50949350505050565b60006119d23385858561280b565b9050611a173382866001600160a01b031663d4b839926040518163ffffffff1660e01b8152600401602060405180830381865afa158015610dd9573d6000803e3d6000fd5b9392505050565b600080856001600160a01b0316636f307dc36040518163ffffffff1660e01b8152600401602060405180830381865afa158015611a5f573d6000803e3d6000fd5b505050506040513d601f19601f82011682018060405250810190611a8391906149ec565b9050611a9a6001600160a01b0382163330876122a7565b60405163095ea7b360e01b81526001600160a01b0387811660048301526024820186905282169063095ea7b3906044016020604051808303816000875af1158015611ae9573d6000803e3d6000fd5b505050506040513d601f19601f82011682018060405250810190611b0d91906149cf565b50604051634aae9fed60e01b8152600481018590526000906001600160a01b03881690634aae9fed906024016020604051808303816000875af1158015611b58573d6000803e3d6000fd5b505050506040513d601f19601f82011682018060405250810190611b7c9190614a7b565b9050611817878783876133c8565b6000806000808a6001600160a01b031663d4b839926040518163ffffffff1660e01b8152600401602060405180830381865afa158015611bce573d6000803e3d6000fd5b505050506040513d601f19601f82011682018060405250810190611bf291906149ec565b6001600160a01b03168c6001600160a01b031663d4b839926040518163ffffffff1660e01b8152600401602060405180830381865afa158015611c39573d6000803e3d6000fd5b505050506040513d601f19601f82011682018060405250810190611c5d91906149ec565b6001600160a01b031614611c9d576040517f73f3f92700000000000000000000000000000000000000000000000000000000815260040160405180910390fd5b6000611cac8d8c8b8b8b612f71565b92509050611cbc8c8b838961371d565b919f909e50909c50919a509098505050505050505050565b6000806000611ce68888888888612f71565b8093508192505050876001600160a01b031663d4b839926040518163ffffffff1660e01b8152600401602060405180830381865afa158015611d2c573d6000803e3d6000fd5b505050506040513d601f19601f82011682018060405250810190611d5091906149ec565b60405163095ea7b360e01b81526001600160a01b038a8116600483015260248201849052919091169063095ea7b3906044016020604051808303816000875af1158015611da1573d6000803e3d6000fd5b505050506040513d601f19601f82011682018060405250810190611dc591906149cf565b506040516351c39ea160e01b815260048101829052611e789033906001600160a01b038b16906351c39ea1906024016020604051808303816000875af1158015611e13573d6000803e3d6000fd5b505050506040513d601f19601f82011682018060405250810190611e379190614a7b565b9450848a6001600160a01b0316636f307dc36040518163ffffffff1660e01b8152600401602060405180830381865afa158015610dd9573d6000803e3d6000fd5b509550959350505050565b6000816001600160a01b031663d4b839926040518163ffffffff1660e01b8152600401602060405180830381865afa158015611ec3573d6000803e3d6000fd5b505050506040513d601f19601f82011682018060405250810190611ee791906149ec565b60405163095ea7b360e01b81526001600160a01b037f00000000000000000000000000000000000000000000000000000000000000008116600483015260001960248301529192509082169063095ea7b3906044016020604051808303816000875af1158015611f5b573d6000803e3d6000fd5b505050506040513d601f19601f82011682018060405250810190611f7f91906149cf565b5060405163095ea7b360e01b81526001600160a01b038381166004830152600019602483015282169063095ea7b3906044016020604051808303816000875af1158015611fd0573d6000803e3d6000fd5b505050506040513d601f19601f82011682018060405250810190611ff491906149cf565b506040517f60d54d410000000000000000000000000000000000000000000000000000000081526001600160a01b0383811660048301527f000000000000000000000000000000000000000000000000000000000000000016906360d54d4190602401600060405180830381600087803b15801561207157600080fd5b505af1158015612085573d6000803e3d6000fd5b50506040516001600160a01b03851692507fae4a2338a83fc8bfaca3a6cbb54494b5c00e9d8a65dc9cf39135b00da49779829150600090a25050565b600080600080876001600160a01b0316636f307dc36040518163ffffffff1660e01b8152600401602060405180830381865afa158015612105573d6000803e3d6000fd5b505050506040513d601f19601f8201168201806040525081019061212991906149ec565b90506121406001600160a01b0382163330896122a7565b60405163095ea7b360e01b81526001600160a01b0389811660048301526024820188905282169063095ea7b3906044016020604051808303816000875af115801561218f573d6000803e3d6000fd5b505050506040513d601f19601f820116820180604052508101906121b391906149cf565b50604051634aae9fed60e01b8152600481018790526000906001600160a01b038a1690634aae9fed906024016020604051808303816000875af11580156121fe573d6000803e3d6000fd5b505050506040513d601f19601f820116820180604052508101906122229190614a7b565b90506122308989838961371d565b919b909a509098509650505050505050565b600080600061228b3330878a6001600160a01b031663d4b839926040518163ffffffff1660e01b8152600401602060405180830381865afa158015610e5b573d6000803e3d6000fd5b6122978787878761371d565b9199909850909650945050505050565b60006040517f23b872dd0000000000000000000000000000000000000000000000000000000081526001600160a01b03851660048201526001600160a01b038416602482015282604482015260008060648360008a5af191505061230a816137ff565b6123565760405162461bcd60e51b815260206004820152601460248201527f5452414e534645525f46524f4d5f4641494c45440000000000000000000000006044820152606401610561565b5050505050565b60405163d10eb4b960e01b81526001600160a01b0385811660048301526024820185905260009182917f0000000000000000000000000000000000000000000000000000000000000000169063d10eb4b990604401602060405180830381865afa1580156123cf573d6000803e3d6000fd5b505050506040513d601f19601f820116820180604052508101906123f391906149ec565b905061240a6001600160a01b0382163330876122a7565b604051638f38a55560e01b81526001600160a01b038781166004830152602482018790526000917f000000000000000000000000000000000000000000000000000000000000000090911690638f38a55590604401602060405180830381865afa15801561247c573d6000803e3d6000fd5b505050506040513d601f19601f820116820180604052508101906124a091906149ec565b905061181782886001600160a01b031663d4b839926040518163ffffffff1660e01b8152600401602060405180830381865afa1580156124e4573d6000803e3d6000fd5b505050506040513d601f19601f8201168201806040525081019061250891906149ec565b87846001600160a01b03166338fff2d06040518163ffffffff1660e01b8152600401602060405180830381865afa158015612547573d6000803e3d6000fd5b505050506040513d601f19601f8201168201806040525081019061256b9190614a7b565b88612d3c565b60006040517fa9059cbb0000000000000000000000000000000000000000000000000000000081526001600160a01b03841660048201528260248201526000806044836000895af19150506125c5816137ff565b6126115760405162461bcd60e51b815260206004820152600f60248201527f5452414e534645525f4641494c454400000000000000000000000000000000006044820152606401610561565b50505050565b60405163d10eb4b960e01b81526001600160a01b0385811660048301526024820185905260009182917f0000000000000000000000000000000000000000000000000000000000000000169063d10eb4b990604401602060405180830381865afa158015612689573d6000803e3d6000fd5b505050506040513d601f19601f820116820180604052508101906126ad91906149ec565b604051638f38a55560e01b81526001600160a01b038881166004830152602482018890529192506000917f00000000000000000000000000000000000000000000000000000000000000001690638f38a55590604401602060405180830381865afa158015612720573d6000803e3d6000fd5b505050506040513d601f19601f8201168201806040525081019061274491906149ec565b90506127eb876001600160a01b031663d4b839926040518163ffffffff1660e01b8152600401602060405180830381865afa158015612787573d6000803e3d6000fd5b505050506040513d601f19601f820116820180604052508101906127ab91906149ec565b8387846001600160a01b03166338fff2d06040518163ffffffff1660e01b8152600401602060405180830381865afa158015612547573d6000803e3d6000fd5b92506128016001600160a01b0383163385612571565b5050949350505050565b60405163574e779560e01b81526001600160a01b0384811660048301526024820184905260009182917f0000000000000000000000000000000000000000000000000000000000000000169063574e779590604401602060405180830381865afa15801561287d573d6000803e3d6000fd5b505050506040513d601f19601f820116820180604052508101906128a191906149ec565b905064e8d4a51000816001600160a01b031663313ce5676040518163ffffffff1660e01b8152600401602060405180830381865afa1580156128e7573d6000803e3d6000fd5b505050506040513d601f19601f8201168201806040525081019061290b9190614a94565b612916906012614ac7565b61292190600a614bce565b61292b9085614c2e565b11612962576040517f81406f4600000000000000000000000000000000000000000000000000000000815260040160405180910390fd5b604051638f38a55560e01b81526001600160a01b038681166004830152602482018690526000917f000000000000000000000000000000000000000000000000000000000000000090911690638f38a55590604401602060405180830381865afa1580156129d4573d6000803e3d6000fd5b505050506040513d601f19601f820116820180604052508101906129f891906149ec565b90506001600160a01b0387163014612a1f57612a1f6001600160a01b0383163330876122a7565b6000816001600160a01b03166338fff2d06040518163ffffffff1660e01b8152600401602060405180830381865afa158015612a5f573d6000803e3d6000fd5b505050506040513d601f19601f82011682018060405250810190612a839190614a7b565b9050600080836001600160a01b0316635863056d6040518163ffffffff1660e01b81526004016040805180830381865afa158015612ac5573d6000803e3d6000fd5b505050506040513d601f19601f82011682018060405250810190612ae99190614c4d565b915091506000807f00000000000000000000000000000000000000000000000000000000000000006001600160a01b031663f94d4668866040518263ffffffff1660e01b8152600401612b3e91815260200190565b600060405180830381865afa158015612b5b573d6000803e3d6000fd5b505050506040513d6000823e601f3d908101601f19168201604052612b839190810190614ccc565b50915091506000866001600160a01b0316639d2c110c604051806101200160405280600180811115612bb757612bb7614d9a565b8152602001868881518110612bce57612bce614db0565b60200260200101516001600160a01b03168152602001868981518110612bf657612bf6614db0565b60200260200101516001600160a01b031681526020018d81526020018981526020016000815260200160006001600160a01b0316815260200160006001600160a01b0316815260200160405180602001604052806000815250815250848781518110612c6457612c64614db0565b6020026020010151858981518110612c7e57612c7e614db0565b60200260200101516040518463ffffffff1660e01b8152600401612ca493929190614e35565b6020604051808303816000875af1158015612cc3573d6000803e3d6000fd5b505050506040513d601f19601f82011682018060405250810190612ce79190614a7b565b9050612d2b6040518060400160405280600281526020017f30780000000000000000000000000000000000000000000000000000000000008152508d8d8d85613846565b9d9c50505050505050505050505050565b60405163095ea7b360e01b81526001600160a01b037f000000000000000000000000000000000000000000000000000000000000000081166004830152602482018590526000919087169063095ea7b3906044016020604051808303816000875af1158015612daf573d6000803e3d6000fd5b505050506040513d601f19601f82011682018060405250810190612dd391906149cf565b506040805160c081018252848152600060208083018290526001600160a01b03808b168486015289811660608086019190915260808086018b90528651808501885285815260a087015286519081018752308082529381018590528087019390935282019290925292517f52bbbe290000000000000000000000000000000000000000000000000000000081529192917f0000000000000000000000000000000000000000000000000000000000000000909116906352bbbe2990612ea49085908590899060001990600401614efc565b6020604051808303816000875af1158015612ec3573d6000803e3d6000fd5b505050506040513d601f19601f82011682018060405250810190612ee79190614a7b565b604080516001600160a01b038b811682528a166020820152908101889052606081018290529093507fffffffff000000000000000000000000000000000000000000000000000000006000351690869033907f771a8215d0541283507c0ebd99d6a6406b7254dc8feccdaa6c160c305d68d7489060800160405180910390a4505095945050505050565b6000806000876001600160a01b031663d4b839926040518163ffffffff1660e01b8152600401602060405180830381865afa158015612fb4573d6000803e3d6000fd5b505050506040513d601f19601f82011682018060405250810190612fd891906149ec565b60405163d10eb4b960e01b81526001600160a01b038a81166004830152602482018a90529192506000917f0000000000000000000000000000000000000000000000000000000000000000169063d10eb4b990604401602060405180830381865afa15801561304b573d6000803e3d6000fd5b505050506040513d601f19601f8201168201806040525081019061306f91906149ec565b604051638f38a55560e01b81526001600160a01b038b81166004830152602482018b90529192506000917f00000000000000000000000000000000000000000000000000000000000000001690638f38a55590604401602060405180830381865afa1580156130e2573d6000803e3d6000fd5b505050506040513d601f19601f8201168201806040525081019061310691906149ec565b90506000816001600160a01b03166338fff2d06040518163ffffffff1660e01b8152600401602060405180830381865afa158015613148573d6000803e3d6000fd5b505050506040513d601f19601f8201168201806040525081019061316c9190614a7b565b90506131836001600160a01b03831633308c6122a7565b60006131928285878c8e613a95565b6040517f95197d300000000000000000000000000000000000000000000000000000000081526001600160a01b038f81166004830152602482018f90529299509092506000917f000000000000000000000000000000000000000000000000000000000000000016906395197d3090604401602060405180830381865afa158015613221573d6000803e3d6000fd5b505050506040513d601f19601f820116820180604052508101906132459190614a7b565b111561339f576132ba8c6001600160a01b0316636fd5ae156040518163ffffffff1660e01b8152600401602060405180830381865afa15801561328c573d6000803e3d6000fd5b505050506040513d601f19601f820116820180604052508101906132b09190614a7b565b6010908116141590565b156132db576132d36001600160a01b0385163383612571565b8095506133b9565b6040517f2b83cccd0000000000000000000000000000000000000000000000000000000081526001600160a01b038d81166004830152602482018d9052604482018390527f00000000000000000000000000000000000000000000000000000000000000001690632b83cccd906064016020604051808303816000875af115801561336a573d6000803e3d6000fd5b505050506040513d601f19601f8201168201806040525081019061338e9190614a7b565b6133989088614c16565b96506133b9565b6133ac848683858c612d3c565b6133b69088614c16565b96505b50505050509550959350505050565b604051638f38a55560e01b81526001600160a01b0385811660048301526024820185905260009182917f00000000000000000000000000000000000000000000000000000000000000001690638f38a55590604401602060405180830381865afa15801561343a573d6000803e3d6000fd5b505050506040513d601f19601f8201168201806040525081019061345e91906149ec565b604051631bfcbde960e31b81526001600160a01b03888116600483015260248201889052604482018790529192507f00000000000000000000000000000000000000000000000000000000000000009091169063dfe5ef48906064016020604051808303816000875af11580156134d9573d6000803e3d6000fd5b505050506040513d601f19601f820116820180604052508101906134fd9190614a7b565b60405163d10eb4b960e01b81526001600160a01b03888116600483015260248201889052919350613660917f0000000000000000000000000000000000000000000000000000000000000000169063d10eb4b990604401602060405180830381865afa158015613571573d6000803e3d6000fd5b505050506040513d601f19601f8201168201806040525081019061359591906149ec565b876001600160a01b031663d4b839926040518163ffffffff1660e01b8152600401602060405180830381865afa1580156135d3573d6000803e3d6000fd5b505050506040513d601f19601f820116820180604052508101906135f791906149ec565b84846001600160a01b03166338fff2d06040518163ffffffff1660e01b8152600401602060405180830381865afa158015613636573d6000803e3d6000fd5b505050506040513d601f19601f8201168201806040525081019061365a9190614a7b565b87612d3c565b93506136a53385886001600160a01b031663d4b839926040518163ffffffff1660e01b8152600401602060405180830381865afa158015610dd9573d6000803e3d6000fd5b60405163574e779560e01b81526001600160a01b038781166004830152602482018790526119bb91339185917f00000000000000000000000000000000000000000000000000000000000000009091169063574e7795906044015b602060405180830381865afa158015610dd9573d6000803e3d6000fd5b600080600061372d878787613ceb565b909250905081156137f55760ff84166137965761374c3088888561280b565b92506137913384896001600160a01b031663d4b839926040518163ffffffff1660e01b8152600401602060405180830381865afa158015610dd9573d6000803e3d6000fd5b6137f5565b60405163574e779560e01b81526001600160a01b038881166004830152602482018890526137f591339185917f00000000000000000000000000000000000000000000000000000000000000009091169063574e779590604401613700565b9450945094915050565b60003d8261381157806000803e806000fd5b806020811461382957801561383a576000925061383f565b816000803e6000511515925061383f565b600192505b5050919050565b600080856001600160a01b031663d4b839926040518163ffffffff1660e01b8152600401602060405180830381865afa158015613887573d6000803e3d6000fd5b505050506040513d601f19601f820116820180604052508101906138ab91906149ec565b6040517fdd62ed3e0000000000000000000000000000000000000000000000000000000081523060048201526001600160a01b03888116602483015291925060009183169063dd62ed3e90604401602060405180830381865afa158015613916573d6000803e3d6000fd5b505050506040513d601f19601f8201168201806040525081019061393a9190614a7b565b9050838110156139ba5760405163095ea7b360e01b81526001600160a01b038881166004830152600019602483015283169063095ea7b3906044016020604051808303816000875af1158015613994573d6000803e3d6000fd5b505050506040513d601f19601f820116820180604052508101906139b891906149cf565b505b6040517f10d339720000000000000000000000000000000000000000000000000000000081526000906001600160a01b038916906310d3397290613a0c908c9030908d908d908d908d90600401614fb9565b60408051808303816000875af1158015613a2a573d6000803e3d6000fd5b505050506040513d601f19601f82011682018060405250810190613a4e9190615001565b9450905080613a89576040517f87cce7b800000000000000000000000000000000000000000000000000000000815260040160405180910390fd5b50505095945050505050565b60008060007f00000000000000000000000000000000000000000000000000000000000000006001600160a01b031663f94d4668896040518263ffffffff1660e01b8152600401613ae891815260200190565b600060405180830381865afa158015613b05573d6000803e3d6000fd5b505050506040513d6000823e601f3d908101601f19168201604052613b2d9190810190614ccc565b505090506000613b3a8290565b90506000604051806080016040528083815260200188815260200187604051602001613b6891815260200190565b60405160208183030381529060405281526020016000151581525090507f00000000000000000000000000000000000000000000000000000000000000006001600160a01b0316638bdb39138b3030856040518563ffffffff1660e01b8152600401613bd794939291906150f9565b600060405180830381600087803b158015613bf157600080fd5b505af1158015613c05573d6000803e3d6000fd5b50506040516370a0823160e01b81523060048201526001600160a01b038b1692506370a082319150602401602060405180830381865afa158015613c4d573d6000803e3d6000fd5b505050506040513d601f19601f82011682018060405250810190613c719190614a7b565b6040516370a0823160e01b81523060048201529095506001600160a01b038a16906370a0823190602401602060405180830381865afa158015613cb8573d6000803e3d6000fd5b505050506040513d601f19601f82011682018060405250810190613cdc9190614a7b565b93505050509550959350505050565b604051638f38a55560e01b81526001600160a01b03848116600483015260248201849052600091829182917f000000000000000000000000000000000000000000000000000000000000000090911690638f38a55590604401602060405180830381865afa158015613d61573d6000803e3d6000fd5b505050506040513d601f19601f82011682018060405250810190613d8591906149ec565b90506000807f00000000000000000000000000000000000000000000000000000000000000006001600160a01b031663f94d4668846001600160a01b03166338fff2d06040518163ffffffff1660e01b8152600401602060405180830381865afa158015613df7573d6000803e3d6000fd5b505050506040513d601f19601f82011682018060405250810190613e1b9190614a7b565b6040518263ffffffff1660e01b8152600401613e3991815260200190565b600060405180830381865afa158015613e56573d6000803e3d6000fd5b505050506040513d6000823e601f3d908101601f19168201604052613e7e9190810190614ccc565b5091509150600080846001600160a01b0316635863056d6040518163ffffffff1660e01b81526004016040805180830381865afa158015613ec3573d6000803e3d6000fd5b505050506040513d601f19601f82011682018060405250810190613ee79190614c4d565b915091506000838381518110613eff57613eff614db0565b6020026020010151600014159050600081613f1b576000613f59565b613f598c868681518110613f3157613f31614db0565b6020026020010151878681518110613f4b57613f4b614db0565b60200260200101518d6140a1565b905060008111613f6a576000614004565b604051631bfcbde960e31b81526001600160a01b038d81166004830152602482018d9052604482018390527f0000000000000000000000000000000000000000000000000000000000000000169063dfe5ef48906064016020604051808303816000875af1158015613fe0573d6000803e3d6000fd5b505050506040513d601f19601f820116820180604052508101906140049190614a7b565b604080516002808252606082018352929b506000929091602083019080368337019050509050614034828c614bff565b81858151811061404657614046614db0565b6020026020010181815250508981868151811061406557614065614db0565b60200260200101818152505061408f8860405180604001604052808a81526020018481525061427e565b98505050505050505050935093915050565b600080856001600160a01b031663d4b839926040518163ffffffff1660e01b8152600401602060405180830381865afa1580156140e2573d6000803e3d6000fd5b505050506040513d601f19601f8201168201806040525081019061410691906149ec565b6001600160a01b031663313ce5676040518163ffffffff1660e01b8152600401602060405180830381865afa158015614143573d6000803e3d6000fd5b505050506040513d601f19601f820116820180604052508101906141679190614a94565b61417290600a614bce565b90506000866001600160a01b031663b8c15a9f6040518163ffffffff1660e01b8152600401602060405180830381865afa1580156141b4573d6000803e3d6000fd5b505050506040513d601f19601f820116820180604052508101906141d89190614a7b565b9050611817614276876142648861425e6141fa87670de0b6b3a7640000614bff565b8d6001600160a01b031663f51e181a6040518163ffffffff1660e01b81526004016020604051808303816000875af115801561423a573d6000803e3d6000fd5b505050506040513d601f19601f8201168201806040525081019061425e9190614a7b565b90614534565b61426e9190614c16565b889085614549565b859084614556565b600080836001600160a01b03166338fff2d06040518163ffffffff1660e01b8152600401602060405180830381865afa1580156142bf573d6000803e3d6000fd5b505050506040513d601f19601f820116820180604052508101906142e39190614a7b565b835190915060005b84515160ff821610156143ee578451805160ff831690811061430f5761430f614db0565b60200260200101516001600160a01b031663095ea7b37f000000000000000000000000000000000000000000000000000000000000000087602001518460ff168151811061435f5761435f614db0565b60200260200101516040518363ffffffff1660e01b81526004016143989291906001600160a01b03929092168252602082015260400190565b6020604051808303816000875af11580156143b7573d6000803e3d6000fd5b505050506040513d601f19601f820116820180604052508101906143db91906149cf565b50806143e68161512b565b9150506142eb565b5060006040518060800160405280838152602001866020015181526020018660200151604051602001614421919061514b565b60405160208183030381529060405281526020016000151581525090507f00000000000000000000000000000000000000000000000000000000000000006001600160a01b031663b95cac28843033856040518563ffffffff1660e01b815260040161449094939291906150f9565b600060405180830381600087803b1580156144aa57600080fd5b505af11580156144be573d6000803e3d6000fd5b50506040516370a0823160e01b81523360048201526001600160a01b03891692506370a082319150602401602060405180830381865afa158015614506573d6000803e3d6000fd5b505050506040513d601f19601f8201168201806040525081019061452a9190614a7b565b9695505050505050565b6000611a178383670de0b6b3a764000061455f565b6000610e0d84838561455f565b6000610e0d8484845b82820281151584158583048514171661457757600080fd5b0492915050565b6001600160a01b038116811461459357600080fd5b50565b80356145a18161457e565b919050565b6000602082840312156145b857600080fd5b8135611a178161457e565b801515811461459357600080fd5b600080604083850312156145e457600080fd5b82356145ef8161457e565b915060208301356145ff816145c3565b809150509250929050565b6000806040838503121561461d57600080fd5b82356146288161457e565b915060208301356145ff8161457e565b60008060006060848603121561464d57600080fd5b83356146588161457e565b925060208401359150604084013561466f816145c3565b809150509250925092565b6000806000806080858703121561469057600080fd5b843561469b8161457e565b966020860135965060408601359560600135945092505050565b6000806000606084860312156146ca57600080fd5b83356146d58161457e565b95602085013595506040909401359392505050565b600080600080600080600060c0888a03121561470557600080fd5b873567ffffffffffffffff8082111561471d57600080fd5b818a0191508a601f83011261473157600080fd5b81358181111561474057600080fd5b8b602082850101111561475257600080fd5b602092830199509750614768918a019050614596565b945061477660408901614596565b969995985093966060810135956080820135955060a0909101359350915050565b634e487b7160e01b600052604160045260246000fd5b604051601f8201601f1916810167ffffffffffffffff811182821017156147d6576147d6614797565b604052919050565b600067ffffffffffffffff8211156147f8576147f8614797565b5060051b60200190565b600082601f83011261481357600080fd5b81356020614828614823836147de565b6147ad565b82815260059290921b8401810191818101908684111561484757600080fd5b8286015b84811015614862578035835291830191830161484b565b509695505050505050565b600080600080600060a0868803121561488557600080fd5b85356148908161457e565b94506020860135935060408601359250606086013567ffffffffffffffff8111156148ba57600080fd5b6148c688828901614802565b95989497509295608001359392505050565b60ff8116811461459357600080fd5b600080600080600080600080610100898b03121561490457600080fd5b883561490f8161457e565b9750602089013561491f8161457e565b965060408901359550606089013594506080890135935060a089013567ffffffffffffffff81111561495057600080fd5b61495c8b828c01614802565b93505060c0890135915060e0890135614974816148d8565b809150509295985092959890939650565b6000806000806080858703121561499b57600080fd5b84356149a68161457e565b9350602085013592506040850135915060608501356149c4816148d8565b939692955090935050565b6000602082840312156149e157600080fd5b8151611a17816145c3565b6000602082840312156149fe57600080fd5b8151611a178161457e565b600080600060608486031215614a1e57600080fd5b8351614a298161457e565b6020850151909350614a3a8161457e565b80925050604084015190509250925092565b60008060408385031215614a5f57600080fd5b8251614a6a8161457e565b60208401519092506145ff8161457e565b600060208284031215614a8d57600080fd5b5051919050565b600060208284031215614aa657600080fd5b8151611a17816148d8565b634e487b7160e01b600052601160045260246000fd5b600060ff821660ff841680821015614ae157614ae1614ab1565b90039392505050565b600181815b80851115614b25578160001904821115614b0b57614b0b614ab1565b80851615614b1857918102915b93841c9390800290614aef565b509250929050565b600082614b3c575060016107a4565b81614b49575060006107a4565b8160018114614b5f5760028114614b6957614b85565b60019150506107a4565b60ff841115614b7a57614b7a614ab1565b50506001821b6107a4565b5060208310610133831016604e8410600b8410161715614ba8575081810a6107a4565b614bb28383614aea565b8060001904821115614bc657614bc6614ab1565b029392505050565b6000611a1760ff841683614b2d565b600082614bfa57634e487b7160e01b600052601260045260246000fd5b500490565b600082821015614c1157614c11614ab1565b500390565b60008219821115614c2957614c29614ab1565b500190565b6000816000190483118215151615614c4857614c48614ab1565b500290565b60008060408385031215614c6057600080fd5b505080516020909101519092909150565b600082601f830112614c8257600080fd5b81516020614c92614823836147de565b82815260059290921b84018101918181019086841115614cb157600080fd5b8286015b848110156148625780518352918301918301614cb5565b600080600060608486031215614ce157600080fd5b835167ffffffffffffffff80821115614cf957600080fd5b818601915086601f830112614d0d57600080fd5b81516020614d1d614823836147de565b82815260059290921b8401810191818101908a841115614d3c57600080fd5b948201945b83861015614d63578551614d548161457e565b82529482019490820190614d41565b91890151919750909350505080821115614d7c57600080fd5b50614d8986828701614c71565b925050604084015190509250925092565b634e487b7160e01b600052602160045260246000fd5b634e487b7160e01b600052603260045260246000fd5b60028110614de457634e487b7160e01b600052602160045260246000fd5b9052565b6000815180845260005b81811015614e0e57602081850181015186830182015201614df2565b81811115614e20576000602083870101525b50601f01601f19169290920160200192915050565b60608152614e47606082018551614dc6565b60006020850151614e6360808401826001600160a01b03169052565b5060408501516001600160a01b03811660a084015250606085015160c0830152608085015160e083015260a0850151610100818185015260c08701519150610120614eb8818601846001600160a01b03169052565b60e08801516001600160a01b0316610140860152908701516101608501919091529050614ee9610180840182614de8565b6020840195909552505060400152919050565b60e08152845160e082015260006020860151614f1c610100840182614dc6565b5060408601516001600160a01b03908116610120840152606087015116610140830152608086015161016083015260a086015160c0610180840152614f656101a0840182614de8565b915050614fa760208301866001600160a01b03808251168352602082015115156020840152806040830151166040840152506060810151151560608301525050565b60a082019390935260c0015292915050565b60c081526000614fcc60c0830189614de8565b6001600160a01b0397881660208401529590961660408201526060810193909352608083019190915260a09091015292915050565b6000806040838503121561501457600080fd5b825161501f816145c3565b6020939093015192949293505050565b600081518084526020808501945080840160005b8381101561505f57815187529582019590820190600101615043565b509495945050505050565b8051608080845281519084018190526000916020919082019060a0860190845b818110156150af5783516001600160a01b03168352928401929184019160010161508a565b5050828501519150858103838701526150c8818361502f565b92505050604083015184820360408601526150e38282614de8565b9150506060830151610f67606086018215159052565b84815260006001600160a01b0380861660208401528085166040840152506080606083015261452a608083018461506a565b600060ff821660ff81141561514257615142614ab1565b60010192915050565b602081526000611a17602083018461502f56fea26469706673582212201dde04ade960f3c01404639fca1212dbcb5762158d43a57ddf708b9cc70514fc64736f6c634300080b0033",
  "devdoc": {
    "kind": "dev",
    "methods": {
      "addLiquidityFromTarget(address,uint256,uint256,uint8)": {
        "details": "see return description of _addLiquidity",
        "params": {
          "adapter": "Adapter address for the Series",
          "maturity": "Maturity date for the Series",
          "mode": "0 = issues and sell YT, 1 = issue and hold YT",
          "tBal": "Balance of Target to provide"
        }
      },
      "addLiquidityFromUnderlying(address,uint256,uint256,uint8)": {
        "details": "see return description of _addLiquidity",
        "params": {
          "adapter": "Adapter address for the Series",
          "maturity": "Maturity date for the Series",
          "mode": "0 = issues and sell YT, 1 = issue and hold YT",
          "uBal": "Balance of Underlying to provide"
        }
      },
      "deployAdapter(address,address)": {
        "details": "Deploys a new Adapter via an Adapter Factory",
        "params": {
          "f": "Factory to use",
          "target": "Target to onboard"
        }
      },
      "migrateLiquidity(address,address,uint256,uint256,uint256,uint256[],uint256,uint8)": {
        "details": "More info on `minAmountsOut`: https://github.com/balancer-labs/docs-developers/blob/main/resources/joins-and-exits/pool-exits.md#minamountsoutsee return description of _addLiquidity. It also returns amount of Principal Tokens (in case it's called after maturity and redeem is restricted)",
        "params": {
          "dstAdapter": "Adapter address for the destination Series",
          "dstMaturity": "Maturity date for the destination Series",
          "lpBal": "Balance of LP tokens to provide",
          "minAccepted": "Min accepted amount of target when swapping Principal Tokens (only used when removing liquidity on/after maturity)",
          "minAmountsOut": "Minimum accepted amounts of PTs and Target given the amount of LP shares provided",
          "mode": "0 = issues and sell YT, 1 = issue and hold YT",
          "srcAdapter": "Adapter address for the source Series",
          "srcMaturity": "Maturity date for the source Series"
        }
      },
      "onFlashLoan(bytes,address,address,uint256,uint256,uint256)": {
        "details": "ERC-3156 Flash loan callback"
      },
      "onboardAdapter(address)": {
        "details": "Onboards an AdapterOnboards Adapter's target onto Fuse if called from a trusted address",
        "params": {
          "adapter": "Adapter to onboard"
        }
      },
      "removeLiquidityToTarget(address,uint256,uint256,uint256[],uint256)": {
        "details": "More info on `minAmountsOut`: https://github.com/balancer-labs/docs-developers/blob/main/resources/joins-and-exits/pool-exits.md#minamountsout",
        "params": {
          "adapter": "Adapter address for the Series",
          "lpBal": "Balance of LP tokens to provide",
          "maturity": "Maturity date for the Series",
          "minAccepted": "only used when removing liquidity on/after maturity and its the min accepted when swapping Principal Tokens to underlying",
          "minAmountsOut": "minimum accepted amounts of PTs and Target given the amount of LP shares provided"
        },
        "returns": {
          "tBal": "amount of target received and ptBal amount of Principal Tokens (in case it's called after maturity and redeem is restricted)"
        }
      },
      "removeLiquidityToUnderlying(address,uint256,uint256,uint256[],uint256)": {
        "details": "More info on `minAmountsOut`: https://github.com/balancer-labs/docs-developers/blob/main/resources/joins-and-exits/pool-exits.md#minamountsout",
        "params": {
          "adapter": "Adapter address for the Series",
          "lpBal": "Balance of LP tokens to provide",
          "maturity": "Maturity date for the Series",
          "minAccepted": "only used when removing liquidity on/after maturity and its the min accepted when swapping Principal Tokens to underlying",
          "minAmountsOut": "minimum accepted amounts of PTs and Target given the amount of LP shares provided"
        },
        "returns": {
          "uBal": "amount of underlying received and ptBal Principal Tokens (in case it's called after maturity and redeem is restricted)"
        }
      },
      "setFactory(address,bool)": {
        "params": {
          "f": "Factory's address",
          "isOn": "Flag setting this factory to enabled or disabled"
        }
      },
      "sponsorSeries(address,uint256,bool)": {
        "details": "Calls divider to initalise a new series",
        "params": {
          "adapter": "Adapter to associate with the Series",
          "maturity": "Maturity date for the Series, in units of unix time",
          "withPool": "Whether to deploy a Space pool or not (only works for unverified adapters)"
        }
      },
      "swapPTsForTarget(address,uint256,uint256,uint256)": {
        "params": {
          "adapter": "Adapter address for the Series",
          "maturity": "Maturity date for the Series",
          "minAccepted": "Min accepted amount of Target",
          "ptBal": "Balance of PT to sell"
        }
      },
      "swapPTsForUnderlying(address,uint256,uint256,uint256)": {
        "params": {
          "adapter": "Adapter address for the Series",
          "maturity": "Maturity date for the Series",
          "minAccepted": "Min accepted amount of Target",
          "ptBal": "Balance of PT to sell"
        }
      },
      "swapTargetForPTs(address,uint256,uint256,uint256)": {
        "params": {
          "adapter": "Adapter address for the Series",
          "maturity": "Maturity date for the Series",
          "minAccepted": "Min accepted amount of PT",
          "tBal": "Balance of Target to sell"
        },
        "returns": {
          "ptBal": "amount of PT received"
        }
      },
      "swapTargetForYTs(address,uint256,uint256,uint256)": {
        "params": {
          "adapter": "Adapter address for the Series",
          "maturity": "Maturity date for the Series",
          "minAccepted": "Min accepted amount of YT",
          "tBal": "Balance of Target to sell"
        },
        "returns": {
          "ytBal": "amount of YT received"
        }
      },
      "swapUnderlyingForPTs(address,uint256,uint256,uint256)": {
        "params": {
          "adapter": "Adapter address for the Series",
          "maturity": "Maturity date for the Series",
          "minAccepted": "Min accepted amount of PT",
          "uBal": "Balance of Underlying to sell"
        },
        "returns": {
          "ptBal": "amount of PT received"
        }
      },
      "swapUnderlyingForYTs(address,uint256,uint256,uint256)": {
        "params": {
          "adapter": "Adapter address for the Series",
          "maturity": "Maturity date for the Series",
          "minAccepted": "Min accepted amount of YT",
          "uBal": "Balance of Underlying to sell"
        },
        "returns": {
          "ytBal": "amount of YT received"
        }
      },
      "swapYTsForTarget(address,uint256,uint256)": {
        "params": {
          "adapter": "Adapter address for the Series",
          "maturity": "Maturity date for the Series",
          "ytBal": "Balance of Yield Tokens to swap"
        }
      },
      "swapYTsForUnderlying(address,uint256,uint256)": {
        "params": {
          "adapter": "Adapter address for the Series",
          "maturity": "Maturity date for the Series",
          "ytBal": "Balance of Yield Tokens to swap"
        }
      },
      "verifyAdapter(address,bool)": {
        "details": "Verifies an Adapter and optionally adds the Target to the money market",
        "params": {
          "adapter": "Adapter to verify"
        }
      }
    },
    "title": "Periphery",
    "version": 1
  },
  "userdoc": {
    "kind": "user",
    "methods": {
      "MIN_YT_SWAP_IN()": {
        "notice": "Lower bound on the amount of Claim tokens one can swap in for Target"
      },
      "PRICE_ESTIMATE_ACCEPTABLE_ERROR()": {
        "notice": "Acceptable error when estimating the tokens resulting from a specific swap"
      },
      "addLiquidityFromTarget(address,uint256,uint256,uint8)": {
        "notice": "Adds liquidity providing target"
      },
      "addLiquidityFromUnderlying(address,uint256,uint256,uint8)": {
        "notice": "Adds liquidity providing underlying"
      },
      "balancerVault()": {
        "notice": "Sense core Divider address"
      },
      "deployAdapter(address,address)": {
        "notice": "Deploy and onboard an Adapter"
      },
      "divider()": {
        "notice": "Sense core Divider address"
      },
      "factories(address)": {
        "notice": "adapter factories -> is supported"
      },
      "migrateLiquidity(address,address,uint256,uint256,uint256,uint256[],uint256,uint8)": {
        "notice": "Migrates liquidity position from one series to another"
      },
      "poolManager()": {
        "notice": "Sense core Divider address"
      },
      "removeLiquidityToTarget(address,uint256,uint256,uint256[],uint256)": {
        "notice": "Removes liquidity providing an amount of LP tokens and returns target"
      },
      "removeLiquidityToUnderlying(address,uint256,uint256,uint256[],uint256)": {
        "notice": "Removes liquidity providing an amount of LP tokens and returns underlying"
      },
      "setFactory(address,bool)": {
        "notice": "Enable or disable a factory"
      },
      "spaceFactory()": {
        "notice": "Sense core Divider address"
      },
      "sponsorSeries(address,uint256,bool)": {
        "notice": "Sponsor a new Series"
      },
      "swapPTsForTarget(address,uint256,uint256,uint256)": {
        "notice": "Swap Principal Tokens for Target of a particular series"
      },
      "swapPTsForUnderlying(address,uint256,uint256,uint256)": {
        "notice": "Swap Principal Tokens for Underlying of a particular series"
      },
      "swapTargetForPTs(address,uint256,uint256,uint256)": {
        "notice": "Swap Target to Principal Tokens of a particular series"
      },
      "swapTargetForYTs(address,uint256,uint256,uint256)": {
        "notice": "Swap Target to Yield Tokens of a particular series"
      },
      "swapUnderlyingForPTs(address,uint256,uint256,uint256)": {
        "notice": "Swap Underlying to Principal Tokens of a particular series"
      },
      "swapUnderlyingForYTs(address,uint256,uint256,uint256)": {
        "notice": "Swap Underlying to Yield of a particular series"
      },
      "swapYTsForTarget(address,uint256,uint256)": {
        "notice": "Swap YT for Target of a particular series"
      },
      "swapYTsForUnderlying(address,uint256,uint256)": {
        "notice": "Swap YT for Underlying of a particular series"
      },
      "verified(address)": {
        "notice": "adapter -> bool"
      }
    },
    "version": 1
  },
  "storageLayout": {
    "storage": [
      {
        "astId": 14650,
        "contract": "@sense-finance/v1-core/src/Periphery.sol:Periphery",
        "label": "isTrusted",
        "offset": 0,
        "slot": "0",
        "type": "t_mapping(t_address,t_bool)"
      },
      {
        "astId": 4095,
        "contract": "@sense-finance/v1-core/src/Periphery.sol:Periphery",
        "label": "factories",
        "offset": 0,
        "slot": "1",
        "type": "t_mapping(t_address,t_bool)"
      },
      {
        "astId": 4100,
        "contract": "@sense-finance/v1-core/src/Periphery.sol:Periphery",
        "label": "verified",
        "offset": 0,
        "slot": "2",
        "type": "t_mapping(t_address,t_bool)"
      }
    ],
    "types": {
      "t_address": {
        "encoding": "inplace",
        "label": "address",
        "numberOfBytes": "20"
      },
      "t_bool": {
        "encoding": "inplace",
        "label": "bool",
        "numberOfBytes": "1"
      },
      "t_mapping(t_address,t_bool)": {
        "encoding": "mapping",
        "key": "t_address",
        "label": "mapping(address => bool)",
        "numberOfBytes": "32",
        "value": "t_bool"
      }
    }
  }
}