{
  "address": "0xEBf829fB23bb3caf7eEeD89515264C18e2CE1dFb",
  "abi": [
    {
      "inputs": [
        {
          "internalType": "address",
          "name": "_fuseDirectory",
          "type": "address"
        },
        {
          "internalType": "address",
          "name": "_comptrollerImpl",
          "type": "address"
        },
        {
          "internalType": "address",
          "name": "_cERC20Impl",
          "type": "address"
        },
        {
          "internalType": "address",
          "name": "_divider",
          "type": "address"
        },
        {
          "internalType": "address",
          "name": "_oracleImpl",
          "type": "address"
        }
      ],
      "stateMutability": "nonpayable",
      "type": "constructor"
    },
    {
      "inputs": [],
      "name": "DuplicateSeries",
      "type": "error"
    },
    {
      "inputs": [],
      "name": "FailedAddLpMarket",
      "type": "error"
    },
    {
      "inputs": [],
      "name": "FailedAddTargetMarket",
      "type": "error"
    },
    {
      "inputs": [],
      "name": "FailedBecomeAdmin",
      "type": "error"
    },
    {
      "inputs": [],
      "name": "FailedToAddPTMarket",
      "type": "error"
    },
    {
      "inputs": [],
      "name": "InvalidParam",
      "type": "error"
    },
    {
      "inputs": [],
      "name": "OracleNotReady",
      "type": "error"
    },
    {
      "inputs": [],
      "name": "PTParamsNotSet",
      "type": "error"
    },
    {
      "inputs": [],
      "name": "PoolNotDeployed",
      "type": "error"
    },
    {
      "inputs": [],
      "name": "PoolParamsNotSet",
      "type": "error"
    },
    {
      "inputs": [],
      "name": "SeriesDoesNotExist",
      "type": "error"
    },
    {
      "inputs": [],
      "name": "SeriesNotQueued",
      "type": "error"
    },
    {
      "inputs": [],
      "name": "TargetNotInFuse",
      "type": "error"
    },
    {
      "inputs": [],
      "name": "TargetParamsNotSet",
      "type": "error"
    },
    {
      "anonymous": false,
      "inputs": [
        {
          "indexed": true,
          "internalType": "bytes32",
          "name": "what",
          "type": "bytes32"
        },
        {
          "components": [
            {
              "internalType": "address",
              "name": "irModel",
              "type": "address"
            },
            {
              "internalType": "uint256",
              "name": "reserveFactor",
              "type": "uint256"
            },
            {
              "internalType": "uint256",
              "name": "collateralFactor",
              "type": "uint256"
            }
          ],
          "indexed": false,
          "internalType": "struct PoolManager.AssetParams",
          "name": "data",
          "type": "tuple"
        }
      ],
      "name": "ParamsSet",
      "type": "event"
    },
    {
      "anonymous": false,
      "inputs": [
        {
          "indexed": false,
          "internalType": "string",
          "name": "name",
          "type": "string"
        },
        {
          "indexed": false,
          "internalType": "address",
          "name": "comptroller",
          "type": "address"
        },
        {
          "indexed": false,
          "internalType": "uint256",
          "name": "poolIndex",
          "type": "uint256"
        },
        {
          "indexed": false,
          "internalType": "uint256",
          "name": "closeFactor",
          "type": "uint256"
        },
        {
          "indexed": false,
          "internalType": "uint256",
          "name": "liqIncentive",
          "type": "uint256"
        }
      ],
      "name": "PoolDeployed",
      "type": "event"
    },
    {
      "anonymous": false,
      "inputs": [
        {
          "indexed": true,
          "internalType": "address",
          "name": "pt",
          "type": "address"
        },
        {
          "indexed": true,
          "internalType": "address",
          "name": "lpToken",
          "type": "address"
        }
      ],
      "name": "SeriesAdded",
      "type": "event"
    },
    {
      "anonymous": false,
      "inputs": [
        {
          "indexed": true,
          "internalType": "address",
          "name": "adapter",
          "type": "address"
        },
        {
          "indexed": true,
          "internalType": "uint256",
          "name": "maturity",
          "type": "uint256"
        },
        {
          "indexed": true,
          "internalType": "address",
          "name": "pool",
          "type": "address"
        }
      ],
      "name": "SeriesQueued",
      "type": "event"
    },
    {
      "anonymous": false,
      "inputs": [
        {
          "indexed": true,
          "internalType": "address",
          "name": "target",
          "type": "address"
        },
        {
          "indexed": true,
          "internalType": "address",
          "name": "cTarget",
          "type": "address"
        }
      ],
      "name": "TargetAdded",
      "type": "event"
    },
    {
      "anonymous": false,
      "inputs": [
        {
          "indexed": true,
          "internalType": "address",
          "name": "user",
          "type": "address"
        },
        {
          "indexed": false,
          "internalType": "bool",
          "name": "trusted",
          "type": "bool"
        }
      ],
      "name": "UserTrustUpdated",
      "type": "event"
    },
    {
      "inputs": [
        {
          "internalType": "address",
          "name": "adapter",
          "type": "address"
        },
        {
          "internalType": "uint256",
          "name": "maturity",
          "type": "uint256"
        }
      ],
      "name": "addSeries",
      "outputs": [
        {
          "internalType": "address",
          "name": "cPT",
          "type": "address"
        },
        {
          "internalType": "address",
          "name": "cLPToken",
          "type": "address"
        }
      ],
      "stateMutability": "nonpayable",
      "type": "function"
    },
    {
      "inputs": [
        {
          "internalType": "address",
          "name": "target",
          "type": "address"
        },
        {
          "internalType": "address",
          "name": "adapter",
          "type": "address"
        }
      ],
      "name": "addTarget",
      "outputs": [
        {
          "internalType": "address",
          "name": "cTarget",
          "type": "address"
        }
      ],
      "stateMutability": "nonpayable",
      "type": "function"
    },
    {
      "inputs": [],
      "name": "cERC20Impl",
      "outputs": [
        {
          "internalType": "address",
          "name": "",
          "type": "address"
        }
      ],
      "stateMutability": "view",
      "type": "function"
    },
    {
      "inputs": [],
      "name": "comptroller",
      "outputs": [
        {
          "internalType": "address",
          "name": "",
          "type": "address"
        }
      ],
      "stateMutability": "view",
      "type": "function"
    },
    {
      "inputs": [],
      "name": "comptrollerImpl",
      "outputs": [
        {
          "internalType": "address",
          "name": "",
          "type": "address"
        }
      ],
      "stateMutability": "view",
      "type": "function"
    },
    {
      "inputs": [
        {
          "internalType": "string",
          "name": "name",
          "type": "string"
        },
        {
          "internalType": "uint256",
          "name": "closeFactor",
          "type": "uint256"
        },
        {
          "internalType": "uint256",
          "name": "liqIncentive",
          "type": "uint256"
        },
        {
          "internalType": "address",
          "name": "fallbackOracle",
          "type": "address"
        }
      ],
      "name": "deployPool",
      "outputs": [
        {
          "internalType": "uint256",
          "name": "_poolIndex",
          "type": "uint256"
        },
        {
          "internalType": "address",
          "name": "_comptroller",
          "type": "address"
        }
      ],
      "stateMutability": "nonpayable",
      "type": "function"
    },
    {
      "inputs": [],
      "name": "divider",
      "outputs": [
        {
          "internalType": "address",
          "name": "",
          "type": "address"
        }
      ],
      "stateMutability": "view",
      "type": "function"
    },
    {
      "inputs": [
        {
          "internalType": "address",
          "name": "to",
          "type": "address"
        },
        {
          "internalType": "uint256",
          "name": "value",
          "type": "uint256"
        },
        {
          "internalType": "bytes",
          "name": "data",
          "type": "bytes"
        },
        {
          "internalType": "uint256",
          "name": "txGas",
          "type": "uint256"
        }
      ],
      "name": "execute",
      "outputs": [
        {
          "internalType": "bool",
          "name": "success",
          "type": "bool"
        }
      ],
      "stateMutability": "nonpayable",
      "type": "function"
    },
    {
      "inputs": [],
      "name": "fuseDirectory",
      "outputs": [
        {
          "internalType": "address",
          "name": "",
          "type": "address"
        }
      ],
      "stateMutability": "view",
      "type": "function"
    },
    {
      "inputs": [
        {
          "internalType": "address",
          "name": "",
          "type": "address"
        }
      ],
      "name": "isTrusted",
      "outputs": [
        {
          "internalType": "bool",
          "name": "",
          "type": "bool"
        }
      ],
      "stateMutability": "view",
      "type": "function"
    },
    {
      "inputs": [],
      "name": "lpOracle",
      "outputs": [
        {
          "internalType": "address",
          "name": "",
          "type": "address"
        }
      ],
      "stateMutability": "view",
      "type": "function"
    },
    {
      "inputs": [],
      "name": "lpTokenParams",
      "outputs": [
        {
          "internalType": "address",
          "name": "irModel",
          "type": "address"
        },
        {
          "internalType": "uint256",
          "name": "reserveFactor",
          "type": "uint256"
        },
        {
          "internalType": "uint256",
          "name": "collateralFactor",
          "type": "uint256"
        }
      ],
      "stateMutability": "view",
      "type": "function"
    },
    {
      "inputs": [],
      "name": "masterOracle",
      "outputs": [
        {
          "internalType": "address",
          "name": "",
          "type": "address"
        }
      ],
      "stateMutability": "view",
      "type": "function"
    },
    {
      "inputs": [],
      "name": "oracleImpl",
      "outputs": [
        {
          "internalType": "address",
          "name": "",
          "type": "address"
        }
      ],
      "stateMutability": "view",
      "type": "function"
    },
    {
      "inputs": [],
      "name": "ptOracle",
      "outputs": [
        {
          "internalType": "address",
          "name": "",
          "type": "address"
        }
      ],
      "stateMutability": "view",
      "type": "function"
    },
    {
      "inputs": [],
      "name": "ptParams",
      "outputs": [
        {
          "internalType": "address",
          "name": "irModel",
          "type": "address"
        },
        {
          "internalType": "uint256",
          "name": "reserveFactor",
          "type": "uint256"
        },
        {
          "internalType": "uint256",
          "name": "collateralFactor",
          "type": "uint256"
        }
      ],
      "stateMutability": "view",
      "type": "function"
    },
    {
      "inputs": [
        {
          "internalType": "address",
          "name": "adapter",
          "type": "address"
        },
        {
          "internalType": "uint256",
          "name": "maturity",
          "type": "uint256"
        },
        {
          "internalType": "address",
          "name": "pool",
          "type": "address"
        }
      ],
      "name": "queueSeries",
      "outputs": [],
      "stateMutability": "nonpayable",
      "type": "function"
    },
    {
      "inputs": [
        {
          "internalType": "address",
          "name": "",
          "type": "address"
        },
        {
          "internalType": "uint256",
          "name": "",
          "type": "uint256"
        }
      ],
      "name": "sSeries",
      "outputs": [
        {
          "internalType": "enum PoolManager.SeriesStatus",
          "name": "status",
          "type": "uint8"
        },
        {
          "internalType": "address",
          "name": "pool",
          "type": "address"
        }
      ],
      "stateMutability": "view",
      "type": "function"
    },
    {
      "inputs": [
        {
          "internalType": "address",
          "name": "user",
          "type": "address"
        },
        {
          "internalType": "bool",
          "name": "trusted",
          "type": "bool"
        }
      ],
      "name": "setIsTrusted",
      "outputs": [],
      "stateMutability": "nonpayable",
      "type": "function"
    },
    {
      "inputs": [
        {
          "internalType": "bytes32",
          "name": "what",
          "type": "bytes32"
        },
        {
          "components": [
            {
              "internalType": "address",
              "name": "irModel",
              "type": "address"
            },
            {
              "internalType": "uint256",
              "name": "reserveFactor",
              "type": "uint256"
            },
            {
              "internalType": "uint256",
              "name": "collateralFactor",
              "type": "uint256"
            }
          ],
          "internalType": "struct PoolManager.AssetParams",
          "name": "data",
          "type": "tuple"
        }
      ],
      "name": "setParams",
      "outputs": [],
      "stateMutability": "nonpayable",
      "type": "function"
    },
    {
      "inputs": [],
      "name": "targetOracle",
      "outputs": [
        {
          "internalType": "address",
          "name": "",
          "type": "address"
        }
      ],
      "stateMutability": "view",
      "type": "function"
    },
    {
      "inputs": [],
      "name": "targetParams",
      "outputs": [
        {
          "internalType": "address",
          "name": "irModel",
          "type": "address"
        },
        {
          "internalType": "uint256",
          "name": "reserveFactor",
          "type": "uint256"
        },
        {
          "internalType": "uint256",
          "name": "collateralFactor",
          "type": "uint256"
        }
      ],
      "stateMutability": "view",
      "type": "function"
    },
    {
      "inputs": [],
      "name": "underlyingOracle",
      "outputs": [
        {
          "internalType": "address",
          "name": "",
          "type": "address"
        }
      ],
      "stateMutability": "view",
      "type": "function"
    }
  ],
  "transactionHash": "0x2beea9900885e4319fd4e8fc7b90626f718a3d0f7ff8ad4fc75a1647d05b641c",
  "args": [
    "0x835482FE0532f169024d5E9410199369aAD5C77E",
    "0xE16DB319d9dA7Ce40b666DD2E365a4b8B3C18217",
    "0x67db14e73c2dce786b5bbbfa4d010deab4bbfcf9",
    "0x6961e8650A1548825f3e17335b7Db2158955C22f",
    "0xb3c8ee7309be658c186f986388c2377da436d8fb"
  ],
  "solcInputHash": "09847c7755e2319c9df8555af39fbe1d",
  "bytecode": "0x6101a06040523480156200001257600080fd5b5060405162004ab738038062004ab78339810160408190526200003591620001f2565b3360008181526020818152604091829020805460ff19166001908117909155915191825282917fe95aec380cae16330d146d5499ef7db6f3657e477104a733e771bc09e500d986910160405180910390a2506001600160a01b0380861660c05284811660805283811660a05282811660e052811661010052604051620000bb906200019d565b604051809103906000f080158015620000d8573d6000803e3d6000fd5b506001600160a01b031661012052604051620000f490620001ab565b604051809103906000f08015801562000111573d6000803e3d6000fd5b506001600160a01b0316610140526040516200012d90620001b9565b604051809103906000f0801580156200014a573d6000803e3d6000fd5b506001600160a01b0316610160526040516200016690620001c7565b604051809103906000f08015801562000183573d6000803e3d6000fd5b506001600160a01b03166101805250620002629350505050565b6106288062002bfd83390190565b610c77806200322583390190565b6106a28062003e9c83390190565b610579806200453e83390190565b80516001600160a01b0381168114620001ed57600080fd5b919050565b600080600080600060a086880312156200020b57600080fd5b6200021686620001d5565b94506200022660208701620001d5565b93506200023660408701620001d5565b92506200024660608701620001d5565b91506200025660808701620001d5565b90509295509295909350565b60805160a05160c05160e05161010051610120516101405161016051610180516128c16200033c600039600081816102020152818161092101526109a10152600081816101db015261189601526000818161019701528181611842015261191601526000818161049d015281816108cd0152610a3d015260008181610326015261123001526000818161028b01528181610e1601526116410152600081816102d9015261135c01526000818161025101528181610bf501528181611ace0152611cb80152600081816102b2015261139001526128c16000f3fe608060405234801561001057600080fd5b506004361061018d5760003560e01c80635fe3b567116100e3578063cd387def1161008c578063e53e268411610066578063e53e268414610498578063eaada382146104bf578063f191f72d146104d257600080fd5b8063cd387def146103f1578063d8deea6914610431578063e1b08b2f1461047d57600080fd5b806371987b15116100bd57806371987b151461037857806374420f4c146103ab57806396d64879146103ce57600080fd5b80635fe3b5671461030e57806366e671fa146103215780636f2cec031461034857600080fd5b80631e75fda81161014557806338d170d01161011f57806338d170d0146102ad5780634fe9a165146102d45780635e883823146102fb57600080fd5b80631e75fda81461024c5780631ec64fef14610273578063378efa371461028657600080fd5b806312c46e611161017657806312c46e61146101fd5780631393916a146102245780631e4134721461023957600080fd5b806305d7b9a214610192578063062b032f146101d6575b600080fd5b6101b97f000000000000000000000000000000000000000000000000000000000000000081565b6040516001600160a01b0390911681526020015b60405180910390f35b6101b97f000000000000000000000000000000000000000000000000000000000000000081565b6101b97f000000000000000000000000000000000000000000000000000000000000000081565b6102376102323660046120e5565b6104ed565b005b61023761024736600461211e565b61059b565b6101b97f000000000000000000000000000000000000000000000000000000000000000081565b6101b9610281366004612156565b6106ef565b6101b97f000000000000000000000000000000000000000000000000000000000000000081565b6101b97f000000000000000000000000000000000000000000000000000000000000000081565b6101b97f000000000000000000000000000000000000000000000000000000000000000081565b610237610309366004612184565b610da2565b6001546101b9906001600160a01b031681565b6101b97f000000000000000000000000000000000000000000000000000000000000000081565b61035b6103563660046121c6565b6111de565b604080519283526001600160a01b039091166020830152016101cd565b61038b61038636600461225d565b611520565b604080516001600160a01b039384168152929091166020830152016101cd565b6103be6103b93660046122f8565b611fa1565b60405190151581526020016101cd565b6103be6103dc36600461239c565b60006020819052908152604090205460ff1681565b600954600a54600b5461040c926001600160a01b0316919083565b604080516001600160a01b0390941684526020840192909252908201526060016101cd565b61046f61043f36600461225d565b600c60209081526000928352604080842090915290825290205460ff81169061010090046001600160a01b031682565b6040516101cd9291906123d6565b60035460045460055461040c926001600160a01b0316919083565b6101b97f000000000000000000000000000000000000000000000000000000000000000081565b6002546101b9906001600160a01b031681565b60065460075460085461040c926001600160a01b0316919083565b3360009081526020819052604090205460ff1661053d5760405162461bcd60e51b8152602060048201526009602482015268155395149554d5115160ba1b60448201526064015b60405180910390fd5b6001600160a01b03821660008181526020818152604091829020805460ff191685151590811790915591519182527fe95aec380cae16330d146d5499ef7db6f3657e477104a733e771bc09e500d98691015b60405180910390a25050565b3360009081526020819052604090205460ff166105e65760405162461bcd60e51b8152602060048201526009602482015268155395149554d5115160ba1b6044820152606401610534565b817f50545f504152414d53000000000000000000000000000000000000000000000014156106235780600661061b8282612410565b9050506106bf565b817f4c505f544f4b454e5f504152414d53000000000000000000000000000000000014156106585780600961061b8282612410565b817f5441524745545f504152414d5300000000000000000000000000000000000000141561068d5780600361061b8282612410565b6040517fd252903400000000000000000000000000000000000000000000000000000000815260040160405180910390fd5b817f19343ac82232ade4f61d24859ca30233e9760fe231cc39a90ddf5bd49acb517e8260405161058f919061245a565b3360009081526020819052604081205460ff1661073a5760405162461bcd60e51b8152602060048201526009602482015268155395149554d5115160ba1b6044820152606401610534565b6001546001600160a01b031661077c576040517f3945869100000000000000000000000000000000000000000000000000000000815260040160405180910390fd5b6003546001600160a01b03166107be576040517f6bf00ef400000000000000000000000000000000000000000000000000000000815260040160405180910390fd5b6000826001600160a01b0316636f307dc36040518163ffffffff1660e01b8152600401602060405180830381865afa1580156107fe573d6000803e3d6000fd5b505050506040513d601f19601f820116820180604052508101906108229190612490565b6040805160028082526060820183529293506000929091602083019080368337019050509050848160008151811061085c5761085c6124ad565b60200260200101906001600160a01b031690816001600160a01b0316815250508181600181518110610890576108906124ad565b6001600160a01b039290921660209283029190910182015260408051600280825260608201835260009391929091830190803683370190505090507f0000000000000000000000000000000000000000000000000000000000000000816000815181106108ff576108ff6124ad565b60200260200101906001600160a01b031690816001600160a01b0316815250507f000000000000000000000000000000000000000000000000000000000000000081600181518110610953576109536124ad565b6001600160a01b0392831660209182029290920101526040517f11b04cfa000000000000000000000000000000000000000000000000000000008152848216600482015286821660248201527f0000000000000000000000000000000000000000000000000000000000000000909116906311b04cfa90604401600060405180830381600087803b1580156109e757600080fd5b505af11580156109fb573d6000803e3d6000fd5b50506040517f3ecf06bd0000000000000000000000000000000000000000000000000000000081526001600160a01b03898116600483015288811660248301527f0000000000000000000000000000000000000000000000000000000000000000169250633ecf06bd9150604401600060405180830381600087803b158015610a8357600080fd5b505af1158015610a97573d6000803e3d6000fd5b5050600254604051634e48c96360e11b81526001600160a01b039091169250639c9192c69150610acd9085908590600401612507565b600060405180830381600087803b158015610ae757600080fd5b505af1158015610afb573d6000803e3d6000fd5b5050600154600354604080516306fdde0360e01b81529051600095508b94506001600160a01b0393841693928316928516916306fdde0391600480830192899291908290030181865afa158015610b56573d6000803e3d6000fd5b505050506040513d6000823e601f3d908101601f19168201604052610b7e9190810190612565565b8a6001600160a01b03166395d89b416040518163ffffffff1660e01b8152600401600060405180830381865afa158015610bbc573d6000803e3d6000fd5b505050506040513d6000823e601f3d908101601f19168201604052610be49190810190612565565b600454604051610c209695949392917f0000000000000000000000000000000000000000000000000000000000000000916000906020016125ff565b60408051601f19818403018152908290526001546005546315746b7360e31b84529193506000926001600160a01b039091169163aba35b9891610c6a91859187919060040161267a565b6020604051808303816000875af1158015610c89573d6000803e3d6000fd5b505050506040513d601f19601f82011682018060405250810190610cad91906126a5565b90508015610ce7576040517f53c72d3d00000000000000000000000000000000000000000000000000000000815260040160405180910390fd5b6001546040516318ffa3fd60e11b81526001600160a01b038a81166004830152909116906331ff47fa90602401602060405180830381865afa158015610d31573d6000803e3d6000fd5b505050506040513d601f19601f82011682018060405250810190610d559190612490565b9550856001600160a01b0316886001600160a01b03167f3ba6ba3fcb7369ef738bc90958eec7a66fb09fe03af0a3f5c4c2863c6b36d2ad60405160405180910390a3505050505092915050565b3360009081526020819052604090205460ff16610ded5760405162461bcd60e51b8152602060048201526009602482015268155395149554d5115160ba1b6044820152606401610534565b60405163d10eb4b960e01b81526001600160a01b038481166004830152602482018490526000917f00000000000000000000000000000000000000000000000000000000000000009091169063d10eb4b990604401602060405180830381865afa158015610e5f573d6000803e3d6000fd5b505050506040513d601f19601f82011682018060405250810190610e839190612490565b6001600160a01b03161415610ec4576040517f1760174300000000000000000000000000000000000000000000000000000000815260040160405180910390fd5b6001600160a01b0383166000908152600c6020908152604080832085845290915281205460ff166002811115610efc57610efc6123c0565b14610f33576040517fd309d88400000000000000000000000000000000000000000000000000000000815260040160405180910390fd5b6000600160009054906101000a90046001600160a01b03166001600160a01b03166331ff47fa856001600160a01b031663d4b839926040518163ffffffff1660e01b8152600401602060405180830381865afa158015610f97573d6000803e3d6000fd5b505050506040513d601f19601f82011682018060405250810190610fbb9190612490565b6040517fffffffff0000000000000000000000000000000000000000000000000000000060e084901b1681526001600160a01b039091166004820152602401602060405180830381865afa158015611017573d6000803e3d6000fd5b505050506040513d601f19601f8201168201806040525081019061103b9190612490565b90506001600160a01b03811661106457604051632f6924d160e01b815260040160405180910390fd5b6001546040517f8e8f294b0000000000000000000000000000000000000000000000000000000081526001600160a01b0383811660048301526000921690638e8f294b906024016040805180830381865afa1580156110c7573d6000803e3d6000fd5b505050506040513d601f19601f820116820180604052508101906110eb91906126be565b5090508061110c57604051632f6924d160e01b815260040160405180910390fd5b6040805180820190915280600181526001600160a01b0380861660209283015287166000908152600c825260408082208883529092522081518154829060ff19166001836002811115611161576111616123c0565b02179055506020919091015181547fffffffffffffffffffffff0000000000000000000000000000000000000000ff166101006001600160a01b039283160217909155604051848216918691908816907f02f6226cb15bc6c090b3bcd5d2443620fe13f5d3675a554b09b91cd344ac52bb90600090a45050505050565b33600090815260208190526040812054819060ff1661122b5760405162461bcd60e51b8152602060048201526009602482015268155395149554d5115160ba1b6044820152606401610534565b61127a7f00000000000000000000000000000000000000000000000000000000000000003060601b7fffffffffffffffffffffffffffffffffffffffff00000000000000000000000016612002565b6002805473ffffffffffffffffffffffffffffffffffffffff19166001600160a01b0392909216918217905560408051600080825260208201908152818301928390527f278aa1460000000000000000000000000000000000000000000000000000000090925263278aa146916112f9919087306001604485016126ec565b600060405180830381600087803b15801561131357600080fd5b505af1158015611327573d6000803e3d6000fd5b50506002546040517f5710c6d80000000000000000000000000000000000000000000000000000000081526001600160a01b037f000000000000000000000000000000000000000000000000000000000000000081169450635710c6d893506113c1928c928c927f0000000000000000000000000000000000000000000000000000000000000000926000928e928e921690600401612764565b60408051808303816000875af11580156113df573d6000803e3d6000fd5b505050506040513d601f19601f8201168201806040525081019061140391906127b3565b80925081935050506000816001600160a01b031663e9c714f26040518163ffffffff1660e01b81526004016020604051808303816000875af115801561144d573d6000803e3d6000fd5b505050506040513d601f19601f8201168201806040525081019061147191906126a5565b905080156114ab576040517f9782db4a00000000000000000000000000000000000000000000000000000000815260040160405180910390fd5b6001805473ffffffffffffffffffffffffffffffffffffffff19166001600160a01b0384161790556040517f200a9e26954b1b18425cdd75101b3db8dae378a7e43369b4a5acf31252409f409061150d908a908a90869088908c908c906127d8565b60405180910390a1509550959350505050565b60008060016001600160a01b0385166000908152600c6020908152604080832087845290915290205460ff16600281111561155d5761155d6123c0565b14611594576040517f662e50ac00000000000000000000000000000000000000000000000000000000815260040160405180910390fd5b6006546001600160a01b03166115d6576040517f24df3c2300000000000000000000000000000000000000000000000000000000815260040160405180910390fd5b6009546001600160a01b0316611618576040517f98d12d3e00000000000000000000000000000000000000000000000000000000815260040160405180910390fd5b60405163d10eb4b960e01b81526001600160a01b038581166004830152602482018590526000917f00000000000000000000000000000000000000000000000000000000000000009091169063d10eb4b990604401602060405180830381865afa15801561168a573d6000803e3d6000fd5b505050506040513d601f19601f820116820180604052508101906116ae9190612490565b6001600160a01b038681166000908152600c602090815260408083208984529091528082205490517f60d1507c0000000000000000000000000000000000000000000000000000000081526103ff600482015293945061010090049091169182906360d1507c9060240160e060405180830381865afa158015611735573d6000803e3d6000fd5b505050506040513d601f19601f82011682018060405250810190611759919061281a565b9650505050505050806000141561179c576040517f6e155fc600000000000000000000000000000000000000000000000000000000815260040160405180910390fd5b60408051600280825260608201835260009260208301908036833701905050905083816000815181106117d1576117d16124ad565b60200260200101906001600160a01b031690816001600160a01b0316815250508281600181518110611805576118056124ad565b6001600160a01b039290921660209283029190910182015260408051600280825260608201835260009391929091830190803683370190505090507f000000000000000000000000000000000000000000000000000000000000000081600081518110611874576118746124ad565b60200260200101906001600160a01b031690816001600160a01b0316815250507f0000000000000000000000000000000000000000000000000000000000000000816001815181106118c8576118c86124ad565b6001600160a01b0392831660209182029290920101526040517f2b7f9ab5000000000000000000000000000000000000000000000000000000008152868216600482015285821660248201527f000000000000000000000000000000000000000000000000000000000000000090911690632b7f9ab590604401600060405180830381600087803b15801561195c57600080fd5b505af1158015611970573d6000803e3d6000fd5b5050600254604051634e48c96360e11b81526001600160a01b039091169250639c9192c691506119a69085908590600401612507565b600060405180830381600087803b1580156119c057600080fd5b505af11580156119d4573d6000803e3d6000fd5b5050600154600654604080516306fdde0360e01b81529051600095508a94506001600160a01b0393841693928316928516916306fdde0391600480830192899291908290030181865afa158015611a2f573d6000803e3d6000fd5b505050506040513d6000823e601f3d908101601f19168201604052611a579190810190612565565b896001600160a01b03166395d89b416040518163ffffffff1660e01b8152600401600060405180830381865afa158015611a95573d6000803e3d6000fd5b505050506040513d6000823e601f3d908101601f19168201604052611abd9190810190612565565b600754604051611af99695949392917f0000000000000000000000000000000000000000000000000000000000000000916000906020016125ff565b60408051601f19818403018152908290526001546008546315746b7360e31b84529193506000926001600160a01b039091169163aba35b9891611b4391859187919060040161267a565b6020604051808303816000875af1158015611b62573d6000803e3d6000fd5b505050506040513d601f19601f82011682018060405250810190611b8691906126a5565b90508015611bc0576040517f4158dfcd00000000000000000000000000000000000000000000000000000000815260040160405180910390fd5b600154600954604080516306fdde0360e01b815290516000938a936001600160a01b039182169390821692918516916306fdde039160048082019289929091908290030181865afa158015611c19573d6000803e3d6000fd5b505050506040513d6000823e601f3d908101601f19168201604052611c419190810190612565565b8a6001600160a01b03166395d89b416040518163ffffffff1660e01b8152600401600060405180830381865afa158015611c7f573d6000803e3d6000fd5b505050506040513d6000823e601f3d908101601f19168201604052611ca79190810190612565565b600a54604051611ce39695949392917f0000000000000000000000000000000000000000000000000000000000000000916000906020016125ff565b60408051601f1981840301815290829052600154600b546315746b7360e31b84529193506000926001600160a01b039091169163aba35b9891611d2d91859187919060040161267a565b6020604051808303816000875af1158015611d4c573d6000803e3d6000fd5b505050506040513d601f19601f82011682018060405250810190611d7091906126a5565b90508015611daa576040517f185bfbc000000000000000000000000000000000000000000000000000000000815260040160405180910390fd5b6001546040516318ffa3fd60e11b81526001600160a01b038b81166004830152909116906331ff47fa90602401602060405180830381865afa158015611df4573d6000803e3d6000fd5b505050506040513d601f19601f82011682018060405250810190611e189190612490565b6001546040516318ffa3fd60e11b81526001600160a01b038b81166004830152929d509116906331ff47fa90602401602060405180830381865afa158015611e64573d6000803e3d6000fd5b505050506040513d601f19601f82011682018060405250810190611e889190612490565b600180546040517f18c882a50000000000000000000000000000000000000000000000000000000081526001600160a01b0380851660048301526024820193909352929c5016906318c882a5906044016020604051808303816000875af1158015611ef7573d6000803e3d6000fd5b505050506040513d601f19601f82011682018060405250810190611f1b919061286e565b506001600160a01b038d166000908152600c602090815260408083208f8452909152902080546002919060ff19166001830217905550876001600160a01b0316896001600160a01b03167f8d522d548d59788ba6bc4204397b0769e9d1f34961a0a60bdade4c473f30e91460405160405180910390a35050505050505050509250929050565b3360009081526020819052604081205460ff16611fec5760405162461bcd60e51b8152602060048201526009602482015268155395149554d5115160ba1b6044820152606401610534565b600080845160208601878987f195945050505050565b60006040517f3d602d80600a3d3981f3363d3d373d3d3d363d7300000000000000000000000081528360601b60148201527f5af43d82803e903d91602b57fd5bf300000000000000000000000000000000006028820152826037826000f59150506001600160a01b0381166120b95760405162461bcd60e51b815260206004820152601760248201527f455243313136373a2063726561746532206661696c65640000000000000000006044820152606401610534565b92915050565b6001600160a01b03811681146120d457600080fd5b50565b80151581146120d457600080fd5b600080604083850312156120f857600080fd5b8235612103816120bf565b91506020830135612113816120d7565b809150509250929050565b600080828403608081121561213257600080fd5b833592506060601f198201121561214857600080fd5b506020830190509250929050565b6000806040838503121561216957600080fd5b8235612174816120bf565b91506020830135612113816120bf565b60008060006060848603121561219957600080fd5b83356121a4816120bf565b92506020840135915060408401356121bb816120bf565b809150509250925092565b6000806000806000608086880312156121de57600080fd5b853567ffffffffffffffff808211156121f657600080fd5b818801915088601f83011261220a57600080fd5b81358181111561221957600080fd5b89602082850101111561222b57600080fd5b60209283019750955050860135925060408601359150606086013561224f816120bf565b809150509295509295909350565b6000806040838503121561227057600080fd5b823561227b816120bf565b946020939093013593505050565b634e487b7160e01b600052604160045260246000fd5b604051601f8201601f1916810167ffffffffffffffff811182821017156122c8576122c8612289565b604052919050565b600067ffffffffffffffff8211156122ea576122ea612289565b50601f01601f191660200190565b6000806000806080858703121561230e57600080fd5b8435612319816120bf565b935060208501359250604085013567ffffffffffffffff81111561233c57600080fd5b8501601f8101871361234d57600080fd5b803561236061235b826122d0565b61229f565b81815288602083850101111561237557600080fd5b81602084016020830137600091810160200191909152949793965093946060013593505050565b6000602082840312156123ae57600080fd5b81356123b9816120bf565b9392505050565b634e487b7160e01b600052602160045260246000fd5b60408101600384106123f857634e487b7160e01b600052602160045260246000fd5b9281526001600160a01b039190911660209091015290565b813561241b816120bf565b6001600160a01b03811673ffffffffffffffffffffffffffffffffffffffff198354161782555060208201356001820155604082013560028201555050565b606081018235612469816120bf565b6001600160a01b038116835250602083013560208301526040830135604083015292915050565b6000602082840312156124a257600080fd5b81516123b9816120bf565b634e487b7160e01b600052603260045260246000fd5b600081518084526020808501945080840160005b838110156124fc5781516001600160a01b0316875295820195908201906001016124d7565b509495945050505050565b60408152600061251a60408301856124c3565b828103602084015261252c81856124c3565b95945050505050565b60005b83811015612550578181015183820152602001612538565b8381111561255f576000848401525b50505050565b60006020828403121561257757600080fd5b815167ffffffffffffffff81111561258e57600080fd5b8201601f8101841361259f57600080fd5b80516125ad61235b826122d0565b8181528560208385010111156125c257600080fd5b61252c826020830160208601612535565b600081518084526125eb816020860160208601612535565b601f01601f19169290920160200192915050565b60006101206001600160a01b03808c168452808b166020850152808a1660408501528160608501526126338285018a6125d3565b9150838203608085015261264782896125d3565b961660a0840152505080840360c08201526000845260e081019290925260ff166101009091015260200195945050505050565b831515815260606020820152600061269560608301856125d3565b9050826040830152949350505050565b6000602082840312156126b757600080fd5b5051919050565b600080604083850312156126d157600080fd5b82516126dc816120d7565b6020939093015192949293505050565b60a0815260006126ff60a08301886124c3565b828103602084015261271181886124c3565b6001600160a01b039687166040850152949095166060830152509015156080909101529392505050565b81835281816020850137506000828201602090810191909152601f909101601f19169091010190565b60c08152600061277860c08301898b61273b565b90506001600160a01b038088166020840152861515604084015285606084015284608084015280841660a08401525098975050505050505050565b600080604083850312156127c657600080fd5b825191506020830151612113816120bf565b60a0815260006127ec60a08301888a61273b565b90506001600160a01b0386166020830152846040830152836060830152826080830152979650505050505050565b600080600080600080600060e0888a03121561283557600080fd5b5050855160208701516040880151606089015160808a015160a08b015160c0909b0151949c939b50919990985090965094509092509050565b60006020828403121561288057600080fd5b81516123b9816120d756fea2646970667358221220efab0d0daba8433c96e8ca72f2da7d0aa6eb4786c62335e7ddafb2f8cb6ca98d64736f6c634300080b0033608060405234801561001057600080fd5b503360008181526020818152604091829020805460ff19166001908117909155915191825282917fe95aec380cae16330d146d5499ef7db6f3657e477104a733e771bc09e500d986910160405180910390a2506105b6806100726000396000f3fe608060405234801561001057600080fd5b506004361061007d5760003560e01c806396d648791161005b57806396d64879146100c7578063aea91078146100ea578063e5711ffc1461010b578063fc57d4df1461014c57600080fd5b80631393916a146100825780633ecf06bd1461009757806366331bba146100aa575b600080fd5b6100956100903660046104c1565b61015f565b005b6100956100a53660046104ff565b610220565b6100b2600181565b60405190151581526020015b60405180910390f35b6100b26100d536600461052d565b60006020819052908152604090205460ff1681565b6100fd6100f836600461052d565b6102c5565b6040519081526020016100be565b61013461011936600461052d565b6001602052600090815260409020546001600160a01b031681565b6040516001600160a01b0390911681526020016100be565b6100fd61015a36600461052d565b6102d6565b3360009081526020819052604090205460ff166101c35760405162461bcd60e51b815260206004820152600960248201527f554e54525553544544000000000000000000000000000000000000000000000060448201526064015b60405180910390fd5b6001600160a01b03821660008181526020818152604091829020805460ff191685151590811790915591519182527fe95aec380cae16330d146d5499ef7db6f3657e477104a733e771bc09e500d986910160405180910390a25050565b3360009081526020819052604090205460ff1661027f5760405162461bcd60e51b815260206004820152600960248201527f554e54525553544544000000000000000000000000000000000000000000000060448201526064016101ba565b6001600160a01b03918216600090815260016020526040902080547fffffffffffffffffffffffff00000000000000000000000000000000000000001691909216179055565b60006102d08261034d565b92915050565b600080826001600160a01b0316636f307dc36040518163ffffffff1660e01b8152600401602060405180830381865afa158015610317573d6000803e3d6000fd5b505050506040513d601f19601f8201168201806040525081019061033b919061054a565b90506103468161034d565b9392505050565b6001600160a01b03808216600090815260016020526040812054909116806103a1576040517fa091855e00000000000000000000000000000000000000000000000000000000815260040160405180910390fd5b6000816001600160a01b031663226778496040518163ffffffff1660e01b8152600401602060405180830381865afa1580156103e1573d6000803e3d6000fd5b505050506040513d601f19601f820116820180604052508101906104059190610567565b9050610473826001600160a01b031663468f02d26040518163ffffffff1660e01b8152600401602060405180830381865afa158015610448573d6000803e3d6000fd5b505050506040513d601f19601f8201168201806040525081019061046c9190610567565b829061047b565b949350505050565b60006103468383670de0b6b3a764000081830283810483148415176001166104a257600080fd5b0492915050565b6001600160a01b03811681146104be57600080fd5b50565b600080604083850312156104d457600080fd5b82356104df816104a9565b9150602083013580151581146104f457600080fd5b809150509250929050565b6000806040838503121561051257600080fd5b823561051d816104a9565b915060208301356104f4816104a9565b60006020828403121561053f57600080fd5b8135610346816104a9565b60006020828403121561055c57600080fd5b8151610346816104a9565b60006020828403121561057957600080fd5b505191905056fea26469706673582212207aedbabedd73b33ffdf70f4241f0c4e3d399ae44e9a8170639bdd9b66f93159a64736f6c634300080b0033608060405234801561001057600080fd5b503360008181526020818152604091829020805460ff19166001908117909155915191825282917fe95aec380cae16330d146d5499ef7db6f3657e477104a733e771bc09e500d986910160405180910390a2506729a2241af62c0000600255620891c0600355610bf2806100856000396000f3fe608060405234801561001057600080fd5b50600436106100c95760003560e01c806396d6487911610081578063b371e4ce1161005b578063b371e4ce146101be578063f6207326146101c7578063fc57d4df146101d057600080fd5b806396d6487914610139578063a4063dbc1461015c578063aea910781461019d57600080fd5b8063501f34ce116100b2578063501f34ce146100f65780635e657adf1461010957806366331bba1461011c57600080fd5b80631393916a146100ce5780632b7f9ab5146100e3575b600080fd5b6100e16100dc366004610916565b6101e3565b005b6100e16100f1366004610954565b610290565b6100e1610104366004610982565b610321565b6100e1610117366004610982565b610371565b610124600181565b60405190151581526020015b60405180910390f35b61012461014736600461099b565b60006020819052908152604090205460ff1681565b61018561016a36600461099b565b6001602052600090815260409020546001600160a01b031681565b6040516001600160a01b039091168152602001610130565b6101b06101ab36600461099b565b6103c1565b604051908152602001610130565b6101b060025481565b6101b060035481565b6101b06101de36600461099b565b6103d2565b3360009081526020819052604090205460ff166102335760405162461bcd60e51b8152602060048201526009602482015268155395149554d5115160ba1b60448201526064015b60405180910390fd5b6001600160a01b03821660008181526020818152604091829020805460ff191685151590811790915591519182527fe95aec380cae16330d146d5499ef7db6f3657e477104a733e771bc09e500d986910160405180910390a25050565b3360009081526020819052604090205460ff166102db5760405162461bcd60e51b8152602060048201526009602482015268155395149554d5115160ba1b604482015260640161022a565b6001600160a01b03918216600090815260016020526040902080547fffffffffffffffffffffffff00000000000000000000000000000000000000001691909216179055565b3360009081526020819052604090205460ff1661036c5760405162461bcd60e51b8152602060048201526009602482015268155395149554d5115160ba1b604482015260640161022a565b600255565b3360009081526020819052604090205460ff166103bc5760405162461bcd60e51b8152602060048201526009602482015268155395149554d5115160ba1b604482015260640161022a565b600355565b60006103cc82610439565b92915050565b60006103cc826001600160a01b0316636f307dc36040518163ffffffff1660e01b8152600401602060405180830381865afa158015610415573d6000803e3d6000fd5b505050506040513d601f19601f8201168201806040525081019061043991906109b8565b6001600160a01b038082166000908152600160205260408120549091168061048d576040517f3c67586300000000000000000000000000000000000000000000000000000000815260040160405180910390fd5b6000816001600160a01b03166360d1507c6001846001600160a01b031663b48b5b406040518163ffffffff1660e01b8152600401602060405180830381865afa1580156104de573d6000803e3d6000fd5b505050506040513d601f19601f8201168201806040525081019061050291906109d5565b61050c91906109ee565b6040518263ffffffff1660e01b815260040161052a91815260200190565b60e060405180830381865afa158015610547573d6000803e3d6000fd5b505050506040513d601f19601f8201168201806040525081019061056b9190610a13565b965050505050505080600014156105ae576040517f6e155fc600000000000000000000000000000000000000000000000000000000815260040160405180910390fd5b604080516001808252818301909252600091816020015b6105ea6040805160608101909152806000815260200160008152602001600081525090565b8152602001906001900390816105c557905050604080516060810190915290915080600181526020016003548152602001610e108152508160008151811061063457610634610a7d565b60200260200101819052506000836001600160a01b0316631dccd830836040518263ffffffff1660e01b815260040161066d9190610a93565b600060405180830381865afa15801561068a573d6000803e3d6000fd5b505050506040513d6000823e601f3d908101601f191682016040526106b29190810190610b0a565b90506000816000815181106106c9576106c9610a7d565b602002602001015190506002548111156106e257506002545b6000856001600160a01b03166303eadcfc6040518163ffffffff1660e01b8152600401602060405180830381865afa158015610722573d6000803e3d6000fd5b505050506040513d601f19601f8201168201806040525081019061074691906109b8565b6001600160a01b031663d4b839926040518163ffffffff1660e01b8152600401602060405180830381865afa158015610783573d6000803e3d6000fd5b505050506040513d601f19601f820116820180604052508101906107a791906109b8565b6040517faea910780000000000000000000000000000000000000000000000000000000081526001600160a01b03821660048201529091506108b790339063aea9107890602401602060405180830381865afa15801561080b573d6000803e3d6000fd5b505050506040513d601f19601f8201168201806040525081019061082f91906109d5565b6040517ff3f586e5000000000000000000000000000000000000000000000000000000008152600481018590526001600160a01b0389169063f3f586e590602401602060405180830381865afa15801561088d573d6000803e3d6000fd5b505050506040513d601f19601f820116820180604052508101906108b191906109d5565b906108c3565b98975050505050505050565b60006108d88383670de0b6b3a76400006108df565b9392505050565b8282028115158415858304851417166108f757600080fd5b0492915050565b6001600160a01b038116811461091357600080fd5b50565b6000806040838503121561092957600080fd5b8235610934816108fe565b91506020830135801515811461094957600080fd5b809150509250929050565b6000806040838503121561096757600080fd5b8235610972816108fe565b91506020830135610949816108fe565b60006020828403121561099457600080fd5b5035919050565b6000602082840312156109ad57600080fd5b81356108d8816108fe565b6000602082840312156109ca57600080fd5b81516108d8816108fe565b6000602082840312156109e757600080fd5b5051919050565b600082821015610a0e57634e487b7160e01b600052601160045260246000fd5b500390565b600080600080600080600060e0888a031215610a2e57600080fd5b5050855160208701516040880151606089015160808a015160a08b015160c0909b0151949c939b50919990985090965094509092509050565b634e487b7160e01b600052604160045260246000fd5b634e487b7160e01b600052603260045260246000fd5b60208082528251828201819052600091906040908185019086840185805b83811015610afc578251805160038110610ad957634e487b7160e01b84526021600452602484fd5b865280880151888701528601518686015260609094019391860191600101610ab1565b509298975050505050505050565b60006020808385031215610b1d57600080fd5b825167ffffffffffffffff80821115610b3557600080fd5b818501915085601f830112610b4957600080fd5b815181811115610b5b57610b5b610a67565b8060051b604051601f19603f83011681018181108582111715610b8057610b80610a67565b604052918252848201925083810185019188831115610b9e57600080fd5b938501935b828510156108b757845184529385019392850192610ba356fea26469706673582212205ef539e96ad1c8ecbedefb4efa686908cc70588da1b8aec9146df5f53276418264736f6c634300080b0033608060405234801561001057600080fd5b503360008181526020818152604091829020805460ff19166001908117909155915191825282917fe95aec380cae16330d146d5499ef7db6f3657e477104a733e771bc09e500d986910160405180910390a250615b6860025561062a806100786000396000f3fe608060405234801561001057600080fd5b50600436106100885760003560e01c8063a4063dbc1161005b578063a4063dbc146100f5578063aea9107814610136578063f620732614610157578063fc57d4df1461016057600080fd5b80631393916a1461008d5780635e657adf146100a257806366331bba146100b557806396d64879146100d2575b600080fd5b6100a061009b36600461054a565b610173565b005b6100a06100b0366004610588565b610234565b6100bd600181565b60405190151581526020015b60405180910390f35b6100bd6100e03660046105a1565b60006020819052908152604090205460ff1681565b61011e6101033660046105a1565b6001602052600090815260409020546001600160a01b031681565b6040516001600160a01b0390911681526020016100c9565b6101496101443660046105a1565b610298565b6040519081526020016100c9565b61014960025481565b61014961016e3660046105a1565b6102a9565b3360009081526020819052604090205460ff166101d75760405162461bcd60e51b815260206004820152600960248201527f554e54525553544544000000000000000000000000000000000000000000000060448201526064015b60405180910390fd5b6001600160a01b03821660008181526020818152604091829020805460ff191685151590811790915591519182527fe95aec380cae16330d146d5499ef7db6f3657e477104a733e771bc09e500d986910160405180910390a25050565b3360009081526020819052604090205460ff166102935760405162461bcd60e51b815260206004820152600960248201527f554e54525553544544000000000000000000000000000000000000000000000060448201526064016101ce565b600255565b60006102a382610310565b92915050565b60006102a3826001600160a01b0316636f307dc36040518163ffffffff1660e01b8152600401602060405180830381865afa1580156102ec573d6000803e3d6000fd5b505050506040513d601f19601f8201168201806040525081019061031091906105be565b6000808290506000816001600160a01b03166303eadcfc6040518163ffffffff1660e01b8152600401602060405180830381865afa158015610356573d6000803e3d6000fd5b505050506040513d601f19601f8201168201806040525081019061037a91906105be565b6001600160a01b031663d4b839926040518163ffffffff1660e01b8152600401602060405180830381865afa1580156103b7573d6000803e3d6000fd5b505050506040513d601f19601f820116820180604052508101906103db91906105be565b6040517faea910780000000000000000000000000000000000000000000000000000000081526001600160a01b03821660048201529091506104ef90339063aea9107890602401602060405180830381865afa15801561043f573d6000803e3d6000fd5b505050506040513d601f19601f8201168201806040525081019061046391906105db565b6002546040517f7259d21700000000000000000000000000000000000000000000000000000000815260048101919091526001600160a01b03851690637259d21790602401602060405180830381865afa1580156104c5573d6000803e3d6000fd5b505050506040513d601f19601f820116820180604052508101906104e991906105db565b906104f7565b949350505050565b600061050c8383670de0b6b3a7640000610513565b9392505050565b82820281151584158583048514171661052b57600080fd5b0492915050565b6001600160a01b038116811461054757600080fd5b50565b6000806040838503121561055d57600080fd5b823561056881610532565b91506020830135801515811461057d57600080fd5b809150509250929050565b60006020828403121561059a57600080fd5b5035919050565b6000602082840312156105b357600080fd5b813561050c81610532565b6000602082840312156105d057600080fd5b815161050c81610532565b6000602082840312156105ed57600080fd5b505191905056fea2646970667358221220b2ee2ea1484d6d3bf0abbe92c2e90cf0670a9c1aba4fb81957cf8147d7963f2764736f6c634300080b0033608060405234801561001057600080fd5b503360008181526020818152604091829020805460ff19166001908117909155915191825282917fe95aec380cae16330d146d5499ef7db6f3657e477104a733e771bc09e500d986910160405180910390a250610507806100726000396000f3fe608060405234801561001057600080fd5b506004361061007d5760003560e01c806396d648791161005b57806396d64879146100c7578063aea91078146100ea578063e5711ffc1461010b578063fc57d4df1461014c57600080fd5b806311b04cfa146100825780631393916a1461009757806366331bba146100aa575b600080fd5b610095610090366004610412565b61015f565b005b6100956100a536600461044b565b610209565b6100b2600181565b60405190151581526020015b60405180910390f35b6100b26100d536600461047e565b60006020819052908152604090205460ff1681565b6100fd6100f836600461047e565b6102c5565b6040519081526020016100be565b61013461011936600461047e565b6001602052600090815260409020546001600160a01b031681565b6040516001600160a01b0390911681526020016100be565b6100fd61015a36600461047e565b6102d6565b3360009081526020819052604090205460ff166101c35760405162461bcd60e51b815260206004820152600960248201527f554e54525553544544000000000000000000000000000000000000000000000060448201526064015b60405180910390fd5b6001600160a01b03918216600090815260016020526040902080547fffffffffffffffffffffffff00000000000000000000000000000000000000001691909216179055565b3360009081526020819052604090205460ff166102685760405162461bcd60e51b815260206004820152600960248201527f554e54525553544544000000000000000000000000000000000000000000000060448201526064016101ba565b6001600160a01b03821660008181526020818152604091829020805460ff191685151590811790915591519182527fe95aec380cae16330d146d5499ef7db6f3657e477104a733e771bc09e500d986910160405180910390a25050565b60006102d08261033d565b92915050565b60006102d0826001600160a01b0316636f307dc36040518163ffffffff1660e01b8152600401602060405180830381865afa158015610319573d6000803e3d6000fd5b505050506040513d601f19601f8201168201806040525081019061033d919061049b565b6001600160a01b0380821660009081526001602052604081205490911680610391576040517fa091855e00000000000000000000000000000000000000000000000000000000815260040160405180910390fd5b806001600160a01b031663468f02d26040518163ffffffff1660e01b8152600401602060405180830381865afa1580156103cf573d6000803e3d6000fd5b505050506040513d601f19601f820116820180604052508101906103f391906104b8565b9392505050565b6001600160a01b038116811461040f57600080fd5b50565b6000806040838503121561042557600080fd5b8235610430816103fa565b91506020830135610440816103fa565b809150509250929050565b6000806040838503121561045e57600080fd5b8235610469816103fa565b91506020830135801515811461044057600080fd5b60006020828403121561049057600080fd5b81356103f3816103fa565b6000602082840312156104ad57600080fd5b81516103f3816103fa565b6000602082840312156104ca57600080fd5b505191905056fea2646970667358221220a0f25862ae9ba93fea4f01fa1be4862178ef5c5a435cf9c30e057bea11ceea0c64736f6c634300080b0033",
  "devdoc": {
    "kind": "dev",
    "methods": {
      "addSeries(address,uint256)": {
        "details": "this can only be done once the yield space pool has filled its buffer and has a TWAP"
      },
      "queueSeries(address,uint256,address)": {
        "details": "called by the Periphery, which will know which pool address to set for this Series"
      }
    },
    "title": "Fuse Pool Manager",
    "version": 1
  },
  "userdoc": {
    "kind": "user",
    "methods": {
      "addSeries(address,uint256)": {
        "notice": "open method to add queued Principal Tokens and LPShares to Fuse pool"
      },
      "cERC20Impl()": {
        "notice": "Implementation of Fuse's cERC20"
      },
      "comptroller()": {
        "notice": "Fuse comptroller for the Sense pool"
      },
      "comptrollerImpl()": {
        "notice": "Implementation of Fuse's comptroller"
      },
      "divider()": {
        "notice": "Sense core Divider address"
      },
      "fuseDirectory()": {
        "notice": "Fuse's pool directory"
      },
      "lpOracle()": {
        "notice": "Sense oracle for Space LP Shares"
      },
      "masterOracle()": {
        "notice": "Master oracle for Sense's assets deployed on Fuse"
      },
      "oracleImpl()": {
        "notice": "Implementation of Fuse's master oracle that routes to individual asset oracles"
      },
      "ptOracle()": {
        "notice": "Sense oracle for Sense Principal Tokens"
      },
      "queueSeries(address,uint256,address)": {
        "notice": "queues a set of (Principal Tokens, LPShare) for a Fuse pool to be deployed once the TWAP is ready"
      },
      "sSeries(address,uint256)": {
        "notice": "Series Pools: adapter -> maturity -> (series status (pt/lp shares), AMM pool)"
      },
      "targetOracle()": {
        "notice": "Sense oracle for SEnse Targets"
      },
      "targetParams()": {
        "notice": "Fuse param config"
      },
      "underlyingOracle()": {
        "notice": "Sense oracle for Underlying assets"
      }
    },
    "notice": "Consolidated Fuse interactions",
    "version": 1
  },
  "storageLayout": {
    "storage": [
      {
        "astId": 14650,
        "contract": "@sense-finance/v1-fuse/src/PoolManager.sol:PoolManager",
        "label": "isTrusted",
        "offset": 0,
        "slot": "0",
        "type": "t_mapping(t_address,t_bool)"
      },
      {
        "astId": 12835,
        "contract": "@sense-finance/v1-fuse/src/PoolManager.sol:PoolManager",
        "label": "comptroller",
        "offset": 0,
        "slot": "1",
        "type": "t_address"
      },
      {
        "astId": 12838,
        "contract": "@sense-finance/v1-fuse/src/PoolManager.sol:PoolManager",
        "label": "masterOracle",
        "offset": 0,
        "slot": "2",
        "type": "t_address"
      },
      {
        "astId": 12842,
        "contract": "@sense-finance/v1-fuse/src/PoolManager.sol:PoolManager",
        "label": "targetParams",
        "offset": 0,
        "slot": "3",
        "type": "t_struct(AssetParams)12867_storage"
      },
      {
        "astId": 12845,
        "contract": "@sense-finance/v1-fuse/src/PoolManager.sol:PoolManager",
        "label": "ptParams",
        "offset": 0,
        "slot": "6",
        "type": "t_struct(AssetParams)12867_storage"
      },
      {
        "astId": 12848,
        "contract": "@sense-finance/v1-fuse/src/PoolManager.sol:PoolManager",
        "label": "lpTokenParams",
        "offset": 0,
        "slot": "9",
        "type": "t_struct(AssetParams)12867_storage"
      },
      {
        "astId": 12856,
        "contract": "@sense-finance/v1-fuse/src/PoolManager.sol:PoolManager",
        "label": "sSeries",
        "offset": 0,
        "slot": "12",
        "type": "t_mapping(t_address,t_mapping(t_uint256,t_struct(Series)12873_storage))"
      }
    ],
    "types": {
      "t_address": {
        "encoding": "inplace",
        "label": "address",
        "numberOfBytes": "20"
      },
      "t_bool": {
        "encoding": "inplace",
        "label": "bool",
        "numberOfBytes": "1"
      },
      "t_enum(SeriesStatus)12860": {
        "encoding": "inplace",
        "label": "enum PoolManager.SeriesStatus",
        "numberOfBytes": "1"
      },
      "t_mapping(t_address,t_bool)": {
        "encoding": "mapping",
        "key": "t_address",
        "label": "mapping(address => bool)",
        "numberOfBytes": "32",
        "value": "t_bool"
      },
      "t_mapping(t_address,t_mapping(t_uint256,t_struct(Series)12873_storage))": {
        "encoding": "mapping",
        "key": "t_address",
        "label": "mapping(address => mapping(uint256 => struct PoolManager.Series))",
        "numberOfBytes": "32",
        "value": "t_mapping(t_uint256,t_struct(Series)12873_storage)"
      },
      "t_mapping(t_uint256,t_struct(Series)12873_storage)": {
        "encoding": "mapping",
        "key": "t_uint256",
        "label": "mapping(uint256 => struct PoolManager.Series)",
        "numberOfBytes": "32",
        "value": "t_struct(Series)12873_storage"
      },
      "t_struct(AssetParams)12867_storage": {
        "encoding": "inplace",
        "label": "struct PoolManager.AssetParams",
        "members": [
          {
            "astId": 12862,
            "contract": "@sense-finance/v1-fuse/src/PoolManager.sol:PoolManager",
            "label": "irModel",
            "offset": 0,
            "slot": "0",
            "type": "t_address"
          },
          {
            "astId": 12864,
            "contract": "@sense-finance/v1-fuse/src/PoolManager.sol:PoolManager",
            "label": "reserveFactor",
            "offset": 0,
            "slot": "1",
            "type": "t_uint256"
          },
          {
            "astId": 12866,
            "contract": "@sense-finance/v1-fuse/src/PoolManager.sol:PoolManager",
            "label": "collateralFactor",
            "offset": 0,
            "slot": "2",
            "type": "t_uint256"
          }
        ],
        "numberOfBytes": "96"
      },
      "t_struct(Series)12873_storage": {
        "encoding": "inplace",
        "label": "struct PoolManager.Series",
        "members": [
          {
            "astId": 12870,
            "contract": "@sense-finance/v1-fuse/src/PoolManager.sol:PoolManager",
            "label": "status",
            "offset": 0,
            "slot": "0",
            "type": "t_enum(SeriesStatus)12860"
          },
          {
            "astId": 12872,
            "contract": "@sense-finance/v1-fuse/src/PoolManager.sol:PoolManager",
            "label": "pool",
            "offset": 1,
            "slot": "0",
            "type": "t_address"
          }
        ],
        "numberOfBytes": "32"
      },
      "t_uint256": {
        "encoding": "inplace",
        "label": "uint256",
        "numberOfBytes": "32"
      }
    }
  }
}