{
  "address": "0x07eA2AA734aECC89A2bD01Bc8BF564B5F69BdC69",
  "abi": [
    {
      "inputs": [
        {
          "internalType": "address",
          "name": "_morpho",
          "type": "address"
        }
      ],
      "stateMutability": "nonpayable",
      "type": "constructor"
    },
    {
      "inputs": [],
      "name": "AlreadyClaimed",
      "type": "error"
    },
    {
      "inputs": [],
      "name": "ProofInvalidOrExpired",
      "type": "error"
    },
    {
      "anonymous": false,
      "inputs": [
        {
          "indexed": false,
          "internalType": "address",
          "name": "to",
          "type": "address"
        },
        {
          "indexed": false,
          "internalType": "uint256",
          "name": "amount",
          "type": "uint256"
        }
      ],
      "name": "MorphoWithdrawn",
      "type": "event"
    },
    {
      "anonymous": false,
      "inputs": [
        {
          "indexed": true,
          "internalType": "address",
          "name": "previousOwner",
          "type": "address"
        },
        {
          "indexed": true,
          "internalType": "address",
          "name": "newOwner",
          "type": "address"
        }
      ],
      "name": "OwnershipTransferred",
      "type": "event"
    },
    {
      "anonymous": false,
      "inputs": [
        {
          "indexed": false,
          "internalType": "address",
          "name": "account",
          "type": "address"
        },
        {
          "indexed": false,
          "internalType": "uint256",
          "name": "amount",
          "type": "uint256"
        }
      ],
      "name": "RewardsClaimed",
      "type": "event"
    },
    {
      "anonymous": false,
      "inputs": [
        {
          "indexed": false,
          "internalType": "bytes32",
          "name": "newRoot",
          "type": "bytes32"
        }
      ],
      "name": "RootUpdated",
      "type": "event"
    },
    {
      "inputs": [],
      "name": "MORPHO",
      "outputs": [
        {
          "internalType": "contract ERC20",
          "name": "",
          "type": "address"
        }
      ],
      "stateMutability": "view",
      "type": "function"
    },
    {
      "inputs": [
        {
          "internalType": "address",
          "name": "_account",
          "type": "address"
        },
        {
          "internalType": "uint256",
          "name": "_claimable",
          "type": "uint256"
        },
        {
          "internalType": "bytes32[]",
          "name": "_proof",
          "type": "bytes32[]"
        }
      ],
      "name": "claim",
      "outputs": [],
      "stateMutability": "nonpayable",
      "type": "function"
    },
    {
      "inputs": [
        {
          "internalType": "address",
          "name": "",
          "type": "address"
        }
      ],
      "name": "claimed",
      "outputs": [
        {
          "internalType": "uint256",
          "name": "",
          "type": "uint256"
        }
      ],
      "stateMutability": "view",
      "type": "function"
    },
    {
      "inputs": [],
      "name": "currRoot",
      "outputs": [
        {
          "internalType": "bytes32",
          "name": "",
          "type": "bytes32"
        }
      ],
      "stateMutability": "view",
      "type": "function"
    },
    {
      "inputs": [],
      "name": "owner",
      "outputs": [
        {
          "internalType": "address",
          "name": "",
          "type": "address"
        }
      ],
      "stateMutability": "view",
      "type": "function"
    },
    {
      "inputs": [],
      "name": "prevRoot",
      "outputs": [
        {
          "internalType": "bytes32",
          "name": "",
          "type": "bytes32"
        }
      ],
      "stateMutability": "view",
      "type": "function"
    },
    {
      "inputs": [],
      "name": "renounceOwnership",
      "outputs": [],
      "stateMutability": "nonpayable",
      "type": "function"
    },
    {
      "inputs": [
        {
          "internalType": "address",
          "name": "newOwner",
          "type": "address"
        }
      ],
      "name": "transferOwnership",
      "outputs": [],
      "stateMutability": "nonpayable",
      "type": "function"
    },
    {
      "inputs": [
        {
          "internalType": "bytes32",
          "name": "_newRoot",
          "type": "bytes32"
        }
      ],
      "name": "updateRoot",
      "outputs": [],
      "stateMutability": "nonpayable",
      "type": "function"
    },
    {
      "inputs": [
        {
          "internalType": "address",
          "name": "_to",
          "type": "address"
        },
        {
          "internalType": "uint256",
          "name": "_amount",
          "type": "uint256"
        }
      ],
      "name": "withdrawMorphoTokens",
      "outputs": [],
      "stateMutability": "nonpayable",
      "type": "function"
    }
  ],
  "transactionHash": "0xa01cae529f40fd78a4abcaef29ffd77dbe12b4c0d226e618fb372f7cf0431a0a",
  "args": [
    "0x31429d1856aD1377A8A0079410B297e1a9e214c2"
  ],
  "numDeployments": 2,
  "solcInputHash": "dab9ae4babbda7c3778242e91642d7b7",
  "bytecode": "0x60a060405234801561001057600080fd5b5060405161095b38038061095b83398101604081905261002f91610099565b61003833610049565b6001600160a01b03166080526100c9565b600080546001600160a01b038381166001600160a01b0319831681178455604051919092169283917f8be0079c531659141344cd1fd0a4f28419497f9722a3daafe3b4186f6b6457e09190a35050565b6000602082840312156100ab57600080fd5b81516001600160a01b03811681146100c257600080fd5b9392505050565b6080516108636100f86000396000818160d0015281816101ae01528181610243015261040d01526108636000f3fe608060405234801561001057600080fd5b506004361061009e5760003560e01c80638da5cb5b116100665780638da5cb5b1461012a578063c884ef831461013b578063e3f5b19514610169578063f2fde38b14610172578063fdb4beda1461018557600080fd5b80630ebe7884146100a357806321ff9970146100b85780633acb5624146100cb5780633d13f8741461010f578063715018a614610122575b600080fd5b6100b66100b13660046106ef565b61018e565b005b6100b66100c6366004610719565b6102b2565b6100f27f000000000000000000000000000000000000000000000000000000000000000081565b6040516001600160a01b0390911681526020015b60405180910390f35b6100b661011d366004610732565b6102fa565b6100b661047f565b6000546001600160a01b03166100f2565b61015b6101493660046107bc565b60036020526000908152604090205481565b604051908152602001610106565b61015b60015481565b6100b66101803660046107bc565b610493565b61015b60025481565b610196610511565b6040516370a0823160e01b81523060048201526000907f00000000000000000000000000000000000000000000000000000000000000006001600160a01b0316906370a0823190602401602060405180830381865afa1580156101fd573d6000803e3d6000fd5b505050506040513d601f19601f8201168201806040525081019061022191906107d7565b905060008282106102325782610234565b815b905061026a6001600160a01b037f000000000000000000000000000000000000000000000000000000000000000016858361056b565b604080516001600160a01b0386168152602081018390527f0a83c45ce2a0cc02c5b9a1eb1df9f36419b122df5ed78e38aa87300742019134910160405180910390a150505050565b6102ba610511565b600180546002558190556040518181527f2cbc14f49c068133583f7cb530018af451c87c1cf1327cf2a4ff4698c4730aa49060200160405180910390a150565b600061037a838380806020026020016040519081016040528093929190818152602001838360200280828437600092019190915250506040516bffffffffffffffffffffffff1960608b901b16602082015260348101899052605401915061035f9050565b604051602081830303815290604052805190602001206105f7565b9050600154811415801561039057506002548114155b156103ae5760405163f542095760e01b815260040160405180910390fd5b6001600160a01b0385166000908152600360205260409020548085116103e757604051630c8d9eab60e31b815260040160405180910390fd5b6001600160a01b03808716600090815260036020526040902086905581860390610434907f000000000000000000000000000000000000000000000000000000000000000016888361056b565b604080516001600160a01b0389168152602081018390527ffc30cddea38e2bf4d6ea7d3f9ed3b6ad7f176419f4963bd81318067a4aee73fe910160405180910390a150505050505050565b610487610511565b6104916000610644565b565b61049b610511565b6001600160a01b0381166105055760405162461bcd60e51b815260206004820152602660248201527f4f776e61626c653a206e6577206f776e657220697320746865207a65726f206160448201526564647265737360d01b60648201526084015b60405180910390fd5b61050e81610644565b50565b6000546001600160a01b031633146104915760405162461bcd60e51b815260206004820181905260248201527f4f776e61626c653a2063616c6c6572206973206e6f7420746865206f776e657260448201526064016104fc565b600060405163a9059cbb60e01b8152836004820152826024820152602060006044836000895af13d15601f3d11600160005114161716915050806105f15760405162461bcd60e51b815260206004820152600f60248201527f5452414e534645525f4641494c4544000000000000000000000000000000000060448201526064016104fc565b50505050565b600081815b845181101561063c576106288286838151811061061b5761061b6107f0565b60200260200101516106a1565b91508061063481610806565b9150506105fc565b509392505050565b600080546001600160a01b0383811673ffffffffffffffffffffffffffffffffffffffff19831681178455604051919092169283917f8be0079c531659141344cd1fd0a4f28419497f9722a3daafe3b4186f6b6457e09190a35050565b60008183106106bd5760008281526020849052604090206106cc565b60008381526020839052604090205b9392505050565b80356001600160a01b03811681146106ea57600080fd5b919050565b6000806040838503121561070257600080fd5b61070b836106d3565b946020939093013593505050565b60006020828403121561072b57600080fd5b5035919050565b6000806000806060858703121561074857600080fd5b610751856106d3565b935060208501359250604085013567ffffffffffffffff8082111561077557600080fd5b818701915087601f83011261078957600080fd5b81358181111561079857600080fd5b8860208260051b85010111156107ad57600080fd5b95989497505060200194505050565b6000602082840312156107ce57600080fd5b6106cc826106d3565b6000602082840312156107e957600080fd5b5051919050565b634e487b7160e01b600052603260045260246000fd5b60006001820161082657634e487b7160e01b600052601160045260246000fd5b506001019056fea2646970667358221220ba778b259214492362918fb22c079b7634f6b5bebbe94171108a8a241a21a54664736f6c634300080f0033",
  "devdoc": {
    "author": "Morpho Labs.",
    "custom:contact": "security@morpho.xyz",
    "events": {
      "MorphoWithdrawn(address,uint256)": {
        "params": {
          "amount": "The amount of MORPHO tokens withdrawn.",
          "to": "The address of the recipient."
        }
      },
      "RewardsClaimed(address,uint256)": {
        "params": {
          "account": "The address of the claimer.",
          "amount": "The amount of rewards claimed."
        }
      },
      "RootUpdated(bytes32)": {
        "params": {
          "newRoot": "The new merkle's tree root."
        }
      }
    },
    "kind": "dev",
    "methods": {
      "claim(address,uint256,bytes32[])": {
        "params": {
          "_account": "The address of the claimer.",
          "_claimable": "The overall claimable amount of token rewards.",
          "_proof": "The merkle proof that validates this claim."
        }
      },
      "constructor": {
        "params": {
          "_morpho": "The address of the MORPHO token to distribute."
        }
      },
      "owner()": {
        "details": "Returns the address of the current owner."
      },
      "renounceOwnership()": {
        "details": "Leaves the contract without owner. It will not be possible to call `onlyOwner` functions anymore. Can only be called by the current owner. NOTE: Renouncing ownership will leave the contract without an owner, thereby removing any functionality that is only available to the owner."
      },
      "transferOwnership(address)": {
        "details": "Transfers ownership of the contract to a new account (`newOwner`). Can only be called by the current owner."
      },
      "updateRoot(bytes32)": {
        "params": {
          "_newRoot": "The new merkle tree's root."
        }
      },
      "withdrawMorphoTokens(address,uint256)": {
        "params": {
          "_amount": "The amount of MORPHO tokens to transfer.",
          "_to": "The address of the recipient."
        }
      }
    },
    "title": "Morpho Rewards Distributor.",
    "version": 1
  },
  "userdoc": {
    "errors": {
      "AlreadyClaimed()": [
        {
          "notice": "Thrown when the claimer has already claimed the rewards."
        }
      ],
      "ProofInvalidOrExpired()": [
        {
          "notice": "Thrown when the proof is invalid or expired."
        }
      ]
    },
    "events": {
      "MorphoWithdrawn(address,uint256)": {
        "notice": "Emitted when MORPHO tokens are withdrawn."
      },
      "RewardsClaimed(address,uint256)": {
        "notice": "Emitted when an account claims rewards."
      },
      "RootUpdated(bytes32)": {
        "notice": "Emitted when the root is updated."
      }
    },
    "kind": "user",
    "methods": {
      "MORPHO()": {
        "notice": "STORAGE ///"
      },
      "claim(address,uint256,bytes32[])": {
        "notice": "Claims rewards."
      },
      "constructor": {
        "notice": "Constructs Morpho's RewardsDistributor contract."
      },
      "updateRoot(bytes32)": {
        "notice": "Updates the current merkle tree's root."
      },
      "withdrawMorphoTokens(address,uint256)": {
        "notice": "Withdraws MORPHO tokens to a recipient."
      }
    },
    "notice": "This contract allows Morpho users to claim their rewards. This contract is largely inspired by Euler Distributor's contract: https://github.com/euler-xyz/euler-contracts/blob/master/contracts/mining/EulDistributor.sol.",
    "version": 1
  },
  "storageLayout": {
    "storage": [
      {
        "astId": 7,
        "contract": "lib/morpho-core-v1/contracts/common/rewards-distribution/RewardsDistributor.sol:RewardsDistributor",
        "label": "_owner",
        "offset": 0,
        "slot": "0",
        "type": "t_address"
      },
      {
        "astId": 28373,
        "contract": "lib/morpho-core-v1/contracts/common/rewards-distribution/RewardsDistributor.sol:RewardsDistributor",
        "label": "currRoot",
        "offset": 0,
        "slot": "1",
        "type": "t_bytes32"
      },
      {
        "astId": 28375,
        "contract": "lib/morpho-core-v1/contracts/common/rewards-distribution/RewardsDistributor.sol:RewardsDistributor",
        "label": "prevRoot",
        "offset": 0,
        "slot": "2",
        "type": "t_bytes32"
      },
      {
        "astId": 28379,
        "contract": "lib/morpho-core-v1/contracts/common/rewards-distribution/RewardsDistributor.sol:RewardsDistributor",
        "label": "claimed",
        "offset": 0,
        "slot": "3",
        "type": "t_mapping(t_address,t_uint256)"
      }
    ],
    "types": {
      "t_address": {
        "encoding": "inplace",
        "label": "address",
        "numberOfBytes": "20"
      },
      "t_bytes32": {
        "encoding": "inplace",
        "label": "bytes32",
        "numberOfBytes": "32"
      },
      "t_mapping(t_address,t_uint256)": {
        "encoding": "mapping",
        "key": "t_address",
        "label": "mapping(address => uint256)",
        "numberOfBytes": "32",
        "value": "t_uint256"
      },
      "t_uint256": {
        "encoding": "inplace",
        "label": "uint256",
        "numberOfBytes": "32"
      }
    }
  }
}