{
  "address": "0x9f0bf99cE35DCf1D054a604d1BC823887ac1f23C",
  "abi": [
    {
      "inputs": [
        {
          "internalType": "address",
          "name": "admin",
          "type": "address"
        }
      ],
      "stateMutability": "nonpayable",
      "type": "constructor"
    },
    {
      "anonymous": false,
      "inputs": [
        {
          "indexed": true,
          "internalType": "bytes32",
          "name": "role",
          "type": "bytes32"
        },
        {
          "indexed": true,
          "internalType": "bytes32",
          "name": "previousAdminRole",
          "type": "bytes32"
        },
        {
          "indexed": true,
          "internalType": "bytes32",
          "name": "newAdminRole",
          "type": "bytes32"
        }
      ],
      "name": "RoleAdminChanged",
      "type": "event"
    },
    {
      "anonymous": false,
      "inputs": [
        {
          "indexed": true,
          "internalType": "bytes32",
          "name": "role",
          "type": "bytes32"
        },
        {
          "indexed": true,
          "internalType": "address",
          "name": "account",
          "type": "address"
        },
        {
          "indexed": true,
          "internalType": "address",
          "name": "sender",
          "type": "address"
        }
      ],
      "name": "RoleGranted",
      "type": "event"
    },
    {
      "anonymous": false,
      "inputs": [
        {
          "indexed": true,
          "internalType": "bytes32",
          "name": "role",
          "type": "bytes32"
        },
        {
          "indexed": true,
          "internalType": "address",
          "name": "account",
          "type": "address"
        },
        {
          "indexed": true,
          "internalType": "address",
          "name": "sender",
          "type": "address"
        }
      ],
      "name": "RoleRevoked",
      "type": "event"
    },
    {
      "inputs": [],
      "name": "DEFAULT_ADMIN_ROLE",
      "outputs": [
        {
          "internalType": "bytes32",
          "name": "",
          "type": "bytes32"
        }
      ],
      "stateMutability": "view",
      "type": "function"
    },
    {
      "inputs": [
        {
          "internalType": "bytes32",
          "name": "actionId",
          "type": "bytes32"
        },
        {
          "internalType": "address",
          "name": "account",
          "type": "address"
        },
        {
          "internalType": "address",
          "name": "",
          "type": "address"
        }
      ],
      "name": "canPerform",
      "outputs": [
        {
          "internalType": "bool",
          "name": "",
          "type": "bool"
        }
      ],
      "stateMutability": "view",
      "type": "function"
    },
    {
      "inputs": [
        {
          "internalType": "bytes32",
          "name": "role",
          "type": "bytes32"
        }
      ],
      "name": "getRoleAdmin",
      "outputs": [
        {
          "internalType": "bytes32",
          "name": "",
          "type": "bytes32"
        }
      ],
      "stateMutability": "view",
      "type": "function"
    },
    {
      "inputs": [
        {
          "internalType": "bytes32",
          "name": "role",
          "type": "bytes32"
        },
        {
          "internalType": "uint256",
          "name": "index",
          "type": "uint256"
        }
      ],
      "name": "getRoleMember",
      "outputs": [
        {
          "internalType": "address",
          "name": "",
          "type": "address"
        }
      ],
      "stateMutability": "view",
      "type": "function"
    },
    {
      "inputs": [
        {
          "internalType": "bytes32",
          "name": "role",
          "type": "bytes32"
        }
      ],
      "name": "getRoleMemberCount",
      "outputs": [
        {
          "internalType": "uint256",
          "name": "",
          "type": "uint256"
        }
      ],
      "stateMutability": "view",
      "type": "function"
    },
    {
      "inputs": [
        {
          "internalType": "bytes32",
          "name": "role",
          "type": "bytes32"
        },
        {
          "internalType": "address",
          "name": "account",
          "type": "address"
        }
      ],
      "name": "grantRole",
      "outputs": [],
      "stateMutability": "nonpayable",
      "type": "function"
    },
    {
      "inputs": [
        {
          "internalType": "bytes32[]",
          "name": "roles",
          "type": "bytes32[]"
        },
        {
          "internalType": "address",
          "name": "account",
          "type": "address"
        }
      ],
      "name": "grantRoles",
      "outputs": [],
      "stateMutability": "nonpayable",
      "type": "function"
    },
    {
      "inputs": [
        {
          "internalType": "bytes32[]",
          "name": "roles",
          "type": "bytes32[]"
        },
        {
          "internalType": "address[]",
          "name": "accounts",
          "type": "address[]"
        }
      ],
      "name": "grantRolesToMany",
      "outputs": [],
      "stateMutability": "nonpayable",
      "type": "function"
    },
    {
      "inputs": [
        {
          "internalType": "bytes32",
          "name": "role",
          "type": "bytes32"
        },
        {
          "internalType": "address",
          "name": "account",
          "type": "address"
        }
      ],
      "name": "hasRole",
      "outputs": [
        {
          "internalType": "bool",
          "name": "",
          "type": "bool"
        }
      ],
      "stateMutability": "view",
      "type": "function"
    },
    {
      "inputs": [
        {
          "internalType": "bytes32",
          "name": "role",
          "type": "bytes32"
        },
        {
          "internalType": "address",
          "name": "account",
          "type": "address"
        }
      ],
      "name": "renounceRole",
      "outputs": [],
      "stateMutability": "nonpayable",
      "type": "function"
    },
    {
      "inputs": [
        {
          "internalType": "bytes32",
          "name": "role",
          "type": "bytes32"
        },
        {
          "internalType": "address",
          "name": "account",
          "type": "address"
        }
      ],
      "name": "revokeRole",
      "outputs": [],
      "stateMutability": "nonpayable",
      "type": "function"
    },
    {
      "inputs": [
        {
          "internalType": "bytes32[]",
          "name": "roles",
          "type": "bytes32[]"
        },
        {
          "internalType": "address",
          "name": "account",
          "type": "address"
        }
      ],
      "name": "revokeRoles",
      "outputs": [],
      "stateMutability": "nonpayable",
      "type": "function"
    },
    {
      "inputs": [
        {
          "internalType": "bytes32[]",
          "name": "roles",
          "type": "bytes32[]"
        },
        {
          "internalType": "address[]",
          "name": "accounts",
          "type": "address[]"
        }
      ],
      "name": "revokeRolesFromMany",
      "outputs": [],
      "stateMutability": "nonpayable",
      "type": "function"
    }
  ],
  "transactionHash": "0xb721a2902f2a40c9dcbbd4212987a1f4a39bf45fcbf8e85e096f65384d159102",
  "args": [
    "0x32B4a291f1a6991B55f2F8F70194BD894C075546"
  ],
  "numDeployments": 2,
  "solcInputHash": "f350057db35b0a6661d3e59468a8cedc",
  "bytecode": "0x608060405234801561001057600080fd5b50604051610c70380380610c708339818101604052602081101561003357600080fd5b5051610040600082610046565b5061013d565b6100508282610054565b5050565b6000828152602081815260409091206100769183906107f36100b7821b17901c565b156100505760405133906001600160a01b0383169084907f2f8788117e7eff1d82e926ec794901d17c78024a50270940304540a733656f0d90600090a45050565b60006100c3838361011c565b61011257508154600180820184556000848152602080822090930180546001600160a01b0319166001600160a01b03861690811790915585549082528286019093526040902091909155610116565b5060005b92915050565b6001600160a01b031660009081526001919091016020526040902054151590565b610b248061014c6000396000f3fe608060405234801561001057600080fd5b50600436106100bf5760003560e01c8063988360a31161007c578063988360a3146102ef5780639be2a8841461039b578063a217fddf146103cf578063a73cb2ab146103d7578063ca15c873146104fa578063d547741f14610517578063fcd7627e14610543576100bf565b806318b2cde9146100c4578063248a9ca3146101e95780632f2ff15d1461021857806336568abe146102445780639010d07c1461027057806391d14854146102af575b600080fd5b6101e7600480360360408110156100da57600080fd5b810190602081018135600160201b8111156100f457600080fd5b82018360208201111561010657600080fd5b803590602001918460208302840111600160201b8311171561012757600080fd5b9190808060200260200160405190810160405280939291908181526020018383602002808284376000920191909152509295949360208101935035915050600160201b81111561017657600080fd5b82018360208201111561018857600080fd5b803590602001918460208302840111600160201b831117156101a957600080fd5b9190808060200260200160405190810160405280939291908181526020018383602002808284376000920191909152509295506105ef945050505050565b005b610206600480360360208110156101ff57600080fd5b5035610644565b60408051918252519081900360200190f35b6101e76004803603604081101561022e57600080fd5b50803590602001356001600160a01b0316610659565b6101e76004803603604081101561025a57600080fd5b50803590602001356001600160a01b031661068f565b6102936004803603604081101561028657600080fd5b50803590602001356106b0565b604080516001600160a01b039092168252519081900360200190f35b6102db600480360360408110156102c557600080fd5b50803590602001356001600160a01b03166106d1565b604080519115158252519081900360200190f35b6101e76004803603604081101561030557600080fd5b810190602081018135600160201b81111561031f57600080fd5b82018360208201111561033157600080fd5b803590602001918460208302840111600160201b8311171561035257600080fd5b919080806020026020016040519081016040528093929190818152602001838360200280828437600092019190915250929550505090356001600160a01b031691506106e99050565b6102db600480360360608110156103b157600080fd5b508035906001600160a01b036020820135811691604001351661071a565b61020661072e565b6101e7600480360360408110156103ed57600080fd5b810190602081018135600160201b81111561040757600080fd5b82018360208201111561041957600080fd5b803590602001918460208302840111600160201b8311171561043a57600080fd5b9190808060200260200160405190810160405280939291908181526020018383602002808284376000920191909152509295949360208101935035915050600160201b81111561048957600080fd5b82018360208201111561049b57600080fd5b803590602001918460208302840111600160201b831117156104bc57600080fd5b919080806020026020016040519081016040528093929190818152602001838360200280828437600092019190915250929550610733945050505050565b6102066004803603602081101561051057600080fd5b5035610783565b6101e76004803603604081101561052d57600080fd5b50803590602001356001600160a01b031661079a565b6101e76004803603604081101561055957600080fd5b810190602081018135600160201b81111561057357600080fd5b82018360208201111561058557600080fd5b803590602001918460208302840111600160201b831117156105a657600080fd5b919080806020026020016040519081016040528093929190818152602001838360200280828437600092019190915250929550505090356001600160a01b031691506107c29050565b6105fb82518251610856565b60005b825181101561063f5761063783828151811061061657fe5b602002602001015183838151811061062a57fe5b602002602001015161079a565b6001016105fe565b505050565b60009081526020819052604090206002015490565b6000828152602081905260409020600201546106819061067990336106d1565b6101a661085f565b61068b828261086d565b5050565b6106a66001600160a01b03821633146101a861085f565b61068b82826108c6565b60008281526020819052604081206106c8908361091f565b90505b92915050565b60008281526020819052604081206106c8908361093b565b60005b825181101561063f5761071283828151811061070457fe5b60200260200101518361079a565b6001016106ec565b600061072684846106d1565b949350505050565b600081565b61073f82518251610856565b60005b825181101561063f5761077b83828151811061075a57fe5b602002602001015183838151811061076e57fe5b6020026020010151610659565b600101610742565b60008181526020819052604081206106cb9061095c565b6000828152602081905260409020600201546106a6906107ba90336106d1565b6101a761085f565b60005b825181101561063f576107eb8382815181106107dd57fe5b602002602001015183610659565b6001016107c5565b60006107ff838361093b565b61084e57508154600180820184556000848152602080822090930180546001600160a01b0319166001600160a01b038616908117909155855490825282860190935260409020919091556106cb565b5060006106cb565b61068b81831460675b8161068b5761068b81610960565b600082815260208190526040902061088590826107f3565b1561068b5760405133906001600160a01b0383169084907f2f8788117e7eff1d82e926ec794901d17c78024a50270940304540a733656f0d90600090a45050565b60008281526020819052604090206108de90826109b3565b1561068b5760405133906001600160a01b0383169084907ff6391f5c32d9c69d2a47ea670b442974b53935d1edc7fd64eb21e047a839171b90600090a45050565b8154600090610931908310606461085f565b6106c88383610ac1565b6001600160a01b031660009081526001919091016020526040902054151590565b5490565b62461bcd60e51b6000908152602060045260076024526642414c23000030600a808404818106603090810160081b95839006959095019082900491820690940160101b939093010160c81b604452606490fd5b6001600160a01b03811660009081526001830160205260408120548015610ab75783546000198083019101808214610a5f5760008660000182815481106109f657fe5b60009182526020909120015487546001600160a01b0390911691508190889085908110610a1f57fe5b600091825260208083209190910180546001600160a01b0319166001600160a01b0394851617905592909116815260018881019092526040902090830190555b8554869080610a6a57fe5b60008281526020808220830160001990810180546001600160a01b03191690559092019092556001600160a01b03871682526001888101909152604082209190915593506106cb92505050565b60009150506106cb565b6000826000018281548110610ad257fe5b6000918252602090912001546001600160a01b0316939250505056fea26469706673582212202d461f176271099b3ffcc1047111bd55cd053afa7cdadb3c41833fbeb79b779364736f6c63430007050033",
  "devdoc": {
    "details": "Basic Authorizer implementation, based on OpenZeppelin's Access Control. Users are allowed to perform actions if they have the role with the same identifier. In this sense, roles are not being truly used as such, since they each map to a single action identifier. This temporary implementation is expected to be replaced soon after launch by a more sophisticated one, able to manage permissions across multiple contracts and to natively handle timelocks.",
    "kind": "dev",
    "methods": {
      "getRoleAdmin(bytes32)": {
        "details": "Returns the admin role that controls `role`. See {grantRole} and {revokeRole}. To change a role's admin, use {_setRoleAdmin}."
      },
      "getRoleMember(bytes32,uint256)": {
        "details": "Returns one of the accounts that have `role`. `index` must be a value between 0 and {getRoleMemberCount}, non-inclusive. Role bearers are not sorted in any particular way, and their ordering may change at any point. WARNING: When using {getRoleMember} and {getRoleMemberCount}, make sure you perform all queries on the same block. See the following https://forum.openzeppelin.com/t/iterating-over-elements-on-enumerableset-in-openzeppelin-contracts/2296[forum post] for more information."
      },
      "getRoleMemberCount(bytes32)": {
        "details": "Returns the number of accounts that have `role`. Can be used together with {getRoleMember} to enumerate all bearers of a role."
      },
      "grantRole(bytes32,address)": {
        "details": "Grants `role` to `account`. If `account` had not been already granted `role`, emits a {RoleGranted} event. Requirements: - the caller must have ``role``'s admin role."
      },
      "grantRoles(bytes32[],address)": {
        "details": "Grants multiple roles to a single account."
      },
      "grantRolesToMany(bytes32[],address[])": {
        "details": "Grants roles to a list of accounts."
      },
      "hasRole(bytes32,address)": {
        "details": "Returns `true` if `account` has been granted `role`."
      },
      "renounceRole(bytes32,address)": {
        "details": "Revokes `role` from the calling account. Roles are often managed via {grantRole} and {revokeRole}: this function's purpose is to provide a mechanism for accounts to lose their privileges if they are compromised (such as when a trusted device is misplaced). If the calling account had been granted `role`, emits a {RoleRevoked} event. Requirements: - the caller must be `account`."
      },
      "revokeRole(bytes32,address)": {
        "details": "Revokes `role` from `account`. If `account` had already been granted `role`, emits a {RoleRevoked} event. Requirements: - the caller must have ``role``'s admin role."
      },
      "revokeRoles(bytes32[],address)": {
        "details": "Revokes multiple roles from a single account."
      },
      "revokeRolesFromMany(bytes32[],address[])": {
        "details": "Revokes roles from a list of accounts."
      }
    },
    "version": 1
  },
  "userdoc": {
    "kind": "user",
    "methods": {},
    "version": 1
  },
  "storageLayout": {
    "storage": [
      {
        "astId": 4164,
        "contract": "@balancer-labs/v2-vault/contracts/Authorizer.sol:Authorizer",
        "label": "_roles",
        "offset": 0,
        "slot": "0",
        "type": "t_mapping(t_bytes32,t_struct(RoleData)4160_storage)"
      }
    ],
    "types": {
      "t_address": {
        "encoding": "inplace",
        "label": "address",
        "numberOfBytes": "20"
      },
      "t_array(t_address)dyn_storage": {
        "base": "t_address",
        "encoding": "dynamic_array",
        "label": "address[]",
        "numberOfBytes": "32"
      },
      "t_bytes32": {
        "encoding": "inplace",
        "label": "bytes32",
        "numberOfBytes": "32"
      },
      "t_mapping(t_address,t_uint256)": {
        "encoding": "mapping",
        "key": "t_address",
        "label": "mapping(address => uint256)",
        "numberOfBytes": "32",
        "value": "t_uint256"
      },
      "t_mapping(t_bytes32,t_struct(RoleData)4160_storage)": {
        "encoding": "mapping",
        "key": "t_bytes32",
        "label": "mapping(bytes32 => struct AccessControl.RoleData)",
        "numberOfBytes": "32",
        "value": "t_struct(RoleData)4160_storage"
      },
      "t_struct(AddressSet)5641_storage": {
        "encoding": "inplace",
        "label": "struct EnumerableSet.AddressSet",
        "members": [
          {
            "astId": 5636,
            "contract": "@balancer-labs/v2-vault/contracts/Authorizer.sol:Authorizer",
            "label": "_values",
            "offset": 0,
            "slot": "0",
            "type": "t_array(t_address)dyn_storage"
          },
          {
            "astId": 5640,
            "contract": "@balancer-labs/v2-vault/contracts/Authorizer.sol:Authorizer",
            "label": "_indexes",
            "offset": 0,
            "slot": "1",
            "type": "t_mapping(t_address,t_uint256)"
          }
        ],
        "numberOfBytes": "64"
      },
      "t_struct(RoleData)4160_storage": {
        "encoding": "inplace",
        "label": "struct AccessControl.RoleData",
        "members": [
          {
            "astId": 4157,
            "contract": "@balancer-labs/v2-vault/contracts/Authorizer.sol:Authorizer",
            "label": "members",
            "offset": 0,
            "slot": "0",
            "type": "t_struct(AddressSet)5641_storage"
          },
          {
            "astId": 4159,
            "contract": "@balancer-labs/v2-vault/contracts/Authorizer.sol:Authorizer",
            "label": "adminRole",
            "offset": 0,
            "slot": "2",
            "type": "t_bytes32"
          }
        ],
        "numberOfBytes": "96"
      },
      "t_uint256": {
        "encoding": "inplace",
        "label": "uint256",
        "numberOfBytes": "32"
      }
    }
  }
}