{
  "address": "0x4639B62A9f49408dBf5B1dD45301931ece92971b",
  "abi": [
    {
      "inputs": [],
      "name": "_price",
      "outputs": [
        {
          "internalType": "uint256",
          "name": "",
          "type": "uint256"
        }
      ],
      "stateMutability": "view",
      "type": "function"
    },
    {
      "inputs": [
        {
          "internalType": "address[]",
          "name": "underlyings",
          "type": "address[]"
        },
        {
          "internalType": "contract PriceOracle[]",
          "name": "_oracles",
          "type": "address[]"
        }
      ],
      "name": "add",
      "outputs": [],
      "stateMutability": "nonpayable",
      "type": "function"
    },
    {
      "inputs": [
        {
          "internalType": "contract CToken",
          "name": "",
          "type": "address"
        }
      ],
      "name": "getUnderlyingPrice",
      "outputs": [
        {
          "internalType": "uint256",
          "name": "",
          "type": "uint256"
        }
      ],
      "stateMutability": "view",
      "type": "function"
    },
    {
      "inputs": [
        {
          "internalType": "address[]",
          "name": "underlyings",
          "type": "address[]"
        },
        {
          "internalType": "contract PriceOracle[]",
          "name": "_oracles",
          "type": "address[]"
        },
        {
          "internalType": "contract PriceOracle",
          "name": "_defaultOracle",
          "type": "address"
        },
        {
          "internalType": "address",
          "name": "_admin",
          "type": "address"
        },
        {
          "internalType": "bool",
          "name": "_canAdminOverwrite",
          "type": "bool"
        }
      ],
      "name": "initialize",
      "outputs": [],
      "stateMutability": "nonpayable",
      "type": "function"
    },
    {
      "inputs": [],
      "name": "isPriceOracle",
      "outputs": [
        {
          "internalType": "bool",
          "name": "",
          "type": "bool"
        }
      ],
      "stateMutability": "view",
      "type": "function"
    },
    {
      "inputs": [
        {
          "internalType": "address",
          "name": "",
          "type": "address"
        }
      ],
      "name": "price",
      "outputs": [
        {
          "internalType": "uint256",
          "name": "",
          "type": "uint256"
        }
      ],
      "stateMutability": "view",
      "type": "function"
    },
    {
      "inputs": [
        {
          "internalType": "uint256",
          "name": "price_",
          "type": "uint256"
        }
      ],
      "name": "setPrice",
      "outputs": [],
      "stateMutability": "nonpayable",
      "type": "function"
    },
    {
      "inputs": [
        {
          "internalType": "address",
          "name": "zero",
          "type": "address"
        },
        {
          "internalType": "address",
          "name": "pool",
          "type": "address"
        }
      ],
      "name": "setZero",
      "outputs": [],
      "stateMutability": "nonpayable",
      "type": "function"
    }
  ],
  "transactionHash": "0xb03e01f2bd265d0f7952993ee6fed166b7ad5355e07720a4c51d5e7db8cf4a43",
  "args": [],
  "numDeployments": 2,
  "solcInputHash": "75f4fcb7939c57656ec53f8d567e8f44",
  "bytecode": "0x6080604052670de0b6b3a764000060005534801561001c57600080fd5b506104858061002c6000396000f3fe608060405234801561001057600080fd5b50600436106100785760003560e01c8063235b6ea11461007d578063278aa1461461009957806366331bba146100b057806391b7f5ed146100c85780639c9192c6146100db578063a162e823146100ef578063aea9107814610101578063fc57d4df14610101575b600080fd5b61008660005481565b6040519081526020015b60405180910390f35b6100ae6100a736600461022d565b5050505050565b005b6100b8600181565b6040519015158152602001610090565b6100ae6100d6366004610321565b600055565b6100ae6100e9366004610386565b50505050565b6100ae6100fd3660046103f2565b5050565b61008661010f36600461042b565b5060005490565b634e487b7160e01b600052604160045260246000fd5b604051601f8201601f1916810167ffffffffffffffff8111828210171561015557610155610116565b604052919050565b600067ffffffffffffffff82111561017757610177610116565b5060051b60200190565b6001600160a01b038116811461019657600080fd5b50565b80356101a481610181565b919050565b600082601f8301126101ba57600080fd5b813560206101cf6101ca8361015d565b61012c565b82815260059290921b840181019181810190868411156101ee57600080fd5b8286015b8481101561021257803561020581610181565b83529183019183016101f2565b509695505050505050565b803580151581146101a457600080fd5b600080600080600060a0868803121561024557600080fd5b853567ffffffffffffffff8082111561025d57600080fd5b818801915088601f83011261027157600080fd5b813560206102816101ca8361015d565b82815260059290921b8401810191818101908c8411156102a057600080fd5b948201945b838610156102c75785356102b881610181565b825294820194908201906102a5565b995050890135925050808211156102dd57600080fd5b506102ea888289016101a9565b9450506102f960408701610199565b925061030760608701610199565b91506103156080870161021d565b90509295509295909350565b60006020828403121561033357600080fd5b5035919050565b60008083601f84011261034c57600080fd5b50813567ffffffffffffffff81111561036457600080fd5b6020830191508360208260051b850101111561037f57600080fd5b9250929050565b6000806000806040858703121561039c57600080fd5b843567ffffffffffffffff808211156103b457600080fd5b6103c08883890161033a565b909650945060208701359150808211156103d957600080fd5b506103e68782880161033a565b95989497509550505050565b6000806040838503121561040557600080fd5b823561041081610181565b9150602083013561042081610181565b809150509250929050565b60006020828403121561043d57600080fd5b813561044881610181565b939250505056fea26469706673582212207054694dbe9c91dfcb9971d4954d0d71ab69a4155a58fccbf27aa039b89eb7e564736f6c634300080b0033",
  "devdoc": {
    "kind": "dev",
    "methods": {},
    "version": 1
  },
  "userdoc": {
    "kind": "user",
    "methods": {
      "isPriceOracle()": {
        "notice": "Indicator that this is a PriceOracle contract (for inspection)"
      }
    },
    "version": 1
  },
  "storageLayout": {
    "storage": [
      {
        "astId": 12467,
        "contract": "@sense-finance/v1-core/src/tests/test-helpers/mocks/fuse/MockOracle.sol:MockOracle",
        "label": "_price",
        "offset": 0,
        "slot": "0",
        "type": "t_uint256"
      }
    ],
    "types": {
      "t_uint256": {
        "encoding": "inplace",
        "label": "uint256",
        "numberOfBytes": "32"
      }
    }
  }
}