{
  "address": "0xD17AbF4f90644b8c0f1a94efaB7f8A43965198Be",
  "abi": [
    {
      "inputs": [
        {
          "internalType": "address",
          "name": "_comptroller",
          "type": "address"
        }
      ],
      "stateMutability": "nonpayable",
      "type": "constructor"
    },
    {
      "inputs": [],
      "name": "comptroller",
      "outputs": [
        {
          "internalType": "address",
          "name": "",
          "type": "address"
        }
      ],
      "stateMutability": "view",
      "type": "function"
    },
    {
      "inputs": [
        {
          "internalType": "string",
          "name": "name",
          "type": "string"
        },
        {
          "internalType": "address",
          "name": "implementation",
          "type": "address"
        },
        {
          "internalType": "bool",
          "name": "enforceWhitelist",
          "type": "bool"
        },
        {
          "internalType": "uint256",
          "name": "closeFactor",
          "type": "uint256"
        },
        {
          "internalType": "uint256",
          "name": "liquidationIncentive",
          "type": "uint256"
        },
        {
          "internalType": "address",
          "name": "priceOracle",
          "type": "address"
        }
      ],
      "name": "deployPool",
      "outputs": [
        {
          "internalType": "uint256",
          "name": "",
          "type": "uint256"
        },
        {
          "internalType": "address",
          "name": "",
          "type": "address"
        }
      ],
      "stateMutability": "nonpayable",
      "type": "function"
    }
  ],
  "transactionHash": "0xb7fb8c17948889afeff2c8ba5b8ed82e65a9e39d3fc549cf75172915bb76b6fc",
  "args": [
    "0x1Fe46c74017D5d35aCf1344D01c7eF4cC8aC2d9D"
  ],
  "numDeployments": 2,
  "solcInputHash": "75f4fcb7939c57656ec53f8d567e8f44",
  "bytecode": "0x608060405234801561001057600080fd5b506040516102ae3803806102ae83398101604081905261002f91610054565b600080546001600160a01b0319166001600160a01b0392909216919091179055610084565b60006020828403121561006657600080fd5b81516001600160a01b038116811461007d57600080fd5b9392505050565b61021b806100936000396000f3fe608060405234801561001057600080fd5b50600436106100365760003560e01c80635710c6d81461003b5780635fe3b56714610083575b600080fd5b6100616100493660046100f0565b600080546001600160a01b0316965096945050505050565b604080519283526001600160a01b039091166020830152015b60405180910390f35b600054610096906001600160a01b031681565b6040516001600160a01b03909116815260200161007a565b634e487b7160e01b600052604160045260246000fd5b80356001600160a01b03811681146100db57600080fd5b919050565b803580151581146100db57600080fd5b60008060008060008060c0878903121561010957600080fd5b863567ffffffffffffffff8082111561012157600080fd5b818901915089601f83011261013557600080fd5b813581811115610147576101476100ae565b604051601f8201601f19908116603f0116810190838211818310171561016f5761016f6100ae565b816040528281528c602084870101111561018857600080fd5b82602086016020830137600060208483010152809a5050505050506101af602088016100c4565b94506101bd604088016100e0565b935060608701359250608087013591506101d960a088016100c4565b9050929550929550929556fea26469706673582212201560bed2bd46a36e5c1c1a196da5e7cd89806758e368c2eb97cee84239cc449e64736f6c634300080b0033",
  "devdoc": {
    "kind": "dev",
    "methods": {},
    "version": 1
  },
  "userdoc": {
    "kind": "user",
    "methods": {},
    "version": 1
  },
  "storageLayout": {
    "storage": [
      {
        "astId": 12421,
        "contract": "@sense-finance/v1-core/src/tests/test-helpers/mocks/fuse/MockFuseDirectory.sol:MockFuseDirectory",
        "label": "comptroller",
        "offset": 0,
        "slot": "0",
        "type": "t_address"
      }
    ],
    "types": {
      "t_address": {
        "encoding": "inplace",
        "label": "address",
        "numberOfBytes": "20"
      }
    }
  }
}