{
  "address": "0xa45F944f1cbD09fc961cdC8Dd625853F0a963B5f",
  "abi": [
    {
      "inputs": [
        {
          "internalType": "address",
          "name": "_divider",
          "type": "address"
        },
        {
          "internalType": "address",
          "name": "_target",
          "type": "address"
        },
        {
          "internalType": "address",
          "name": "_oracle",
          "type": "address"
        },
        {
          "internalType": "uint256",
          "name": "_ifee",
          "type": "uint256"
        },
        {
          "internalType": "address",
          "name": "_stake",
          "type": "address"
        },
        {
          "internalType": "uint256",
          "name": "_stakeSize",
          "type": "uint256"
        },
        {
          "internalType": "uint256",
          "name": "_minm",
          "type": "uint256"
        },
        {
          "internalType": "uint256",
          "name": "_maxm",
          "type": "uint256"
        },
        {
          "internalType": "uint16",
          "name": "_mode",
          "type": "uint16"
        },
        {
          "internalType": "uint64",
          "name": "_tilt",
          "type": "uint64"
        },
        {
          "internalType": "uint256",
          "name": "_level",
          "type": "uint256"
        },
        {
          "internalType": "address",
          "name": "_reward",
          "type": "address"
        }
      ],
      "stateMutability": "nonpayable",
      "type": "constructor"
    },
    {
      "inputs": [],
      "name": "FlashCallbackFailed",
      "type": "error"
    },
    {
      "inputs": [],
      "name": "InvalidMaturityOffsets",
      "type": "error"
    },
    {
      "inputs": [],
      "name": "OnlyDivider",
      "type": "error"
    },
    {
      "inputs": [],
      "name": "OnlyPeriphery",
      "type": "error"
    },
    {
      "inputs": [],
      "name": "TokenNotSupported",
      "type": "error"
    },
    {
      "anonymous": false,
      "inputs": [
        {
          "indexed": true,
          "internalType": "address",
          "name": "usr",
          "type": "address"
        },
        {
          "indexed": true,
          "internalType": "address",
          "name": "token",
          "type": "address"
        },
        {
          "indexed": false,
          "internalType": "uint256",
          "name": "amount",
          "type": "uint256"
        }
      ],
      "name": "Distributed",
      "type": "event"
    },
    {
      "inputs": [],
      "name": "CALLBACK_SUCCESS",
      "outputs": [
        {
          "internalType": "bytes32",
          "name": "",
          "type": "bytes32"
        }
      ],
      "stateMutability": "view",
      "type": "function"
    },
    {
      "inputs": [],
      "name": "INITIAL_VALUE",
      "outputs": [
        {
          "internalType": "uint256",
          "name": "",
          "type": "uint256"
        }
      ],
      "stateMutability": "view",
      "type": "function"
    },
    {
      "inputs": [],
      "name": "divider",
      "outputs": [
        {
          "internalType": "address",
          "name": "",
          "type": "address"
        }
      ],
      "stateMutability": "view",
      "type": "function"
    },
    {
      "inputs": [
        {
          "internalType": "uint256",
          "name": "maturity",
          "type": "uint256"
        },
        {
          "internalType": "uint256",
          "name": "uBal",
          "type": "uint256"
        }
      ],
      "name": "doCombine",
      "outputs": [
        {
          "internalType": "uint256",
          "name": "tBal",
          "type": "uint256"
        }
      ],
      "stateMutability": "nonpayable",
      "type": "function"
    },
    {
      "inputs": [
        {
          "internalType": "uint256",
          "name": "maturity",
          "type": "uint256"
        },
        {
          "internalType": "address",
          "name": "sponsor",
          "type": "address"
        }
      ],
      "name": "doInitSeries",
      "outputs": [],
      "stateMutability": "nonpayable",
      "type": "function"
    },
    {
      "inputs": [
        {
          "internalType": "uint256",
          "name": "maturity",
          "type": "uint256"
        },
        {
          "internalType": "uint256",
          "name": "tBal",
          "type": "uint256"
        }
      ],
      "name": "doIssue",
      "outputs": [],
      "stateMutability": "nonpayable",
      "type": "function"
    },
    {
      "inputs": [
        {
          "internalType": "uint256",
          "name": "maturity",
          "type": "uint256"
        },
        {
          "internalType": "uint256",
          "name": "uBal",
          "type": "uint256"
        }
      ],
      "name": "doRedeemPrincipal",
      "outputs": [],
      "stateMutability": "nonpayable",
      "type": "function"
    },
    {
      "inputs": [
        {
          "internalType": "address",
          "name": "token",
          "type": "address"
        },
        {
          "internalType": "uint256",
          "name": "",
          "type": "uint256"
        }
      ],
      "name": "flashFee",
      "outputs": [
        {
          "internalType": "uint256",
          "name": "",
          "type": "uint256"
        }
      ],
      "stateMutability": "view",
      "type": "function"
    },
    {
      "inputs": [
        {
          "internalType": "contract IERC3156FlashBorrower",
          "name": "receiver",
          "type": "address"
        },
        {
          "internalType": "address",
          "name": "",
          "type": "address"
        },
        {
          "internalType": "uint256",
          "name": "amount",
          "type": "uint256"
        },
        {
          "internalType": "bytes",
          "name": "data",
          "type": "bytes"
        }
      ],
      "name": "flashLoan",
      "outputs": [
        {
          "internalType": "bool",
          "name": "",
          "type": "bool"
        }
      ],
      "stateMutability": "nonpayable",
      "type": "function"
    },
    {
      "inputs": [],
      "name": "getMaturityBounds",
      "outputs": [
        {
          "internalType": "uint256",
          "name": "",
          "type": "uint256"
        },
        {
          "internalType": "uint256",
          "name": "",
          "type": "uint256"
        }
      ],
      "stateMutability": "view",
      "type": "function"
    },
    {
      "inputs": [],
      "name": "getStakeAndTarget",
      "outputs": [
        {
          "internalType": "address",
          "name": "",
          "type": "address"
        },
        {
          "internalType": "address",
          "name": "",
          "type": "address"
        },
        {
          "internalType": "uint256",
          "name": "",
          "type": "uint256"
        }
      ],
      "stateMutability": "view",
      "type": "function"
    },
    {
      "inputs": [],
      "name": "getUnderlyingPrice",
      "outputs": [
        {
          "internalType": "uint256",
          "name": "",
          "type": "uint256"
        }
      ],
      "stateMutability": "view",
      "type": "function"
    },
    {
      "inputs": [],
      "name": "ifee",
      "outputs": [
        {
          "internalType": "uint256",
          "name": "",
          "type": "uint256"
        }
      ],
      "stateMutability": "view",
      "type": "function"
    },
    {
      "inputs": [],
      "name": "level",
      "outputs": [
        {
          "internalType": "uint256",
          "name": "",
          "type": "uint256"
        }
      ],
      "stateMutability": "view",
      "type": "function"
    },
    {
      "inputs": [],
      "name": "lscale",
      "outputs": [
        {
          "internalType": "uint256",
          "name": "timestamp",
          "type": "uint256"
        },
        {
          "internalType": "uint256",
          "name": "value",
          "type": "uint256"
        }
      ],
      "stateMutability": "view",
      "type": "function"
    },
    {
      "inputs": [
        {
          "internalType": "address",
          "name": "token",
          "type": "address"
        }
      ],
      "name": "maxFlashLoan",
      "outputs": [
        {
          "internalType": "uint256",
          "name": "",
          "type": "uint256"
        }
      ],
      "stateMutability": "view",
      "type": "function"
    },
    {
      "inputs": [],
      "name": "maxm",
      "outputs": [
        {
          "internalType": "uint256",
          "name": "",
          "type": "uint256"
        }
      ],
      "stateMutability": "view",
      "type": "function"
    },
    {
      "inputs": [],
      "name": "minm",
      "outputs": [
        {
          "internalType": "uint256",
          "name": "",
          "type": "uint256"
        }
      ],
      "stateMutability": "view",
      "type": "function"
    },
    {
      "inputs": [],
      "name": "mode",
      "outputs": [
        {
          "internalType": "uint256",
          "name": "",
          "type": "uint256"
        }
      ],
      "stateMutability": "view",
      "type": "function"
    },
    {
      "inputs": [],
      "name": "name",
      "outputs": [
        {
          "internalType": "string",
          "name": "",
          "type": "string"
        }
      ],
      "stateMutability": "view",
      "type": "function"
    },
    {
      "inputs": [
        {
          "internalType": "address",
          "name": "_usr",
          "type": "address"
        },
        {
          "internalType": "uint256",
          "name": "amt",
          "type": "uint256"
        },
        {
          "internalType": "bool",
          "name": "join",
          "type": "bool"
        }
      ],
      "name": "notify",
      "outputs": [],
      "stateMutability": "nonpayable",
      "type": "function"
    },
    {
      "inputs": [
        {
          "internalType": "uint256",
          "name": "",
          "type": "uint256"
        },
        {
          "internalType": "uint256",
          "name": "",
          "type": "uint256"
        },
        {
          "internalType": "uint256",
          "name": "",
          "type": "uint256"
        },
        {
          "internalType": "uint256",
          "name": "",
          "type": "uint256"
        }
      ],
      "name": "onRedeem",
      "outputs": [],
      "stateMutability": "nonpayable",
      "type": "function"
    },
    {
      "inputs": [],
      "name": "onRedeemCalls",
      "outputs": [
        {
          "internalType": "uint256",
          "name": "",
          "type": "uint256"
        }
      ],
      "stateMutability": "view",
      "type": "function"
    },
    {
      "inputs": [],
      "name": "oracle",
      "outputs": [
        {
          "internalType": "address",
          "name": "",
          "type": "address"
        }
      ],
      "stateMutability": "view",
      "type": "function"
    },
    {
      "inputs": [],
      "name": "reward",
      "outputs": [
        {
          "internalType": "address",
          "name": "",
          "type": "address"
        }
      ],
      "stateMutability": "view",
      "type": "function"
    },
    {
      "inputs": [],
      "name": "rewardBal",
      "outputs": [
        {
          "internalType": "uint256",
          "name": "",
          "type": "uint256"
        }
      ],
      "stateMutability": "view",
      "type": "function"
    },
    {
      "inputs": [
        {
          "internalType": "address",
          "name": "",
          "type": "address"
        }
      ],
      "name": "rewarded",
      "outputs": [
        {
          "internalType": "uint256",
          "name": "",
          "type": "uint256"
        }
      ],
      "stateMutability": "view",
      "type": "function"
    },
    {
      "inputs": [],
      "name": "scale",
      "outputs": [
        {
          "internalType": "uint256",
          "name": "_value",
          "type": "uint256"
        }
      ],
      "stateMutability": "nonpayable",
      "type": "function"
    },
    {
      "inputs": [],
      "name": "scaleStored",
      "outputs": [
        {
          "internalType": "uint256",
          "name": "_value",
          "type": "uint256"
        }
      ],
      "stateMutability": "view",
      "type": "function"
    },
    {
      "inputs": [
        {
          "internalType": "uint256",
          "name": "_value",
          "type": "uint256"
        }
      ],
      "name": "setScale",
      "outputs": [],
      "stateMutability": "nonpayable",
      "type": "function"
    },
    {
      "inputs": [],
      "name": "share",
      "outputs": [
        {
          "internalType": "uint256",
          "name": "",
          "type": "uint256"
        }
      ],
      "stateMutability": "view",
      "type": "function"
    },
    {
      "inputs": [],
      "name": "stake",
      "outputs": [
        {
          "internalType": "address",
          "name": "",
          "type": "address"
        }
      ],
      "stateMutability": "view",
      "type": "function"
    },
    {
      "inputs": [],
      "name": "stakeSize",
      "outputs": [
        {
          "internalType": "uint256",
          "name": "",
          "type": "uint256"
        }
      ],
      "stateMutability": "view",
      "type": "function"
    },
    {
      "inputs": [],
      "name": "symbol",
      "outputs": [
        {
          "internalType": "string",
          "name": "",
          "type": "string"
        }
      ],
      "stateMutability": "view",
      "type": "function"
    },
    {
      "inputs": [
        {
          "internalType": "address",
          "name": "",
          "type": "address"
        }
      ],
      "name": "tBalance",
      "outputs": [
        {
          "internalType": "uint256",
          "name": "",
          "type": "uint256"
        }
      ],
      "stateMutability": "view",
      "type": "function"
    },
    {
      "inputs": [],
      "name": "target",
      "outputs": [
        {
          "internalType": "address",
          "name": "",
          "type": "address"
        }
      ],
      "stateMutability": "view",
      "type": "function"
    },
    {
      "inputs": [],
      "name": "tilt",
      "outputs": [
        {
          "internalType": "uint256",
          "name": "",
          "type": "uint256"
        }
      ],
      "stateMutability": "view",
      "type": "function"
    },
    {
      "inputs": [],
      "name": "totalTarget",
      "outputs": [
        {
          "internalType": "uint256",
          "name": "",
          "type": "uint256"
        }
      ],
      "stateMutability": "view",
      "type": "function"
    },
    {
      "inputs": [],
      "name": "under",
      "outputs": [
        {
          "internalType": "address",
          "name": "",
          "type": "address"
        }
      ],
      "stateMutability": "view",
      "type": "function"
    },
    {
      "inputs": [],
      "name": "underlying",
      "outputs": [
        {
          "internalType": "address",
          "name": "",
          "type": "address"
        }
      ],
      "stateMutability": "view",
      "type": "function"
    },
    {
      "inputs": [
        {
          "internalType": "uint256",
          "name": "tBal",
          "type": "uint256"
        }
      ],
      "name": "unwrapTarget",
      "outputs": [
        {
          "internalType": "uint256",
          "name": "",
          "type": "uint256"
        }
      ],
      "stateMutability": "nonpayable",
      "type": "function"
    },
    {
      "inputs": [
        {
          "internalType": "uint256",
          "name": "uBal",
          "type": "uint256"
        }
      ],
      "name": "wrapUnderlying",
      "outputs": [
        {
          "internalType": "uint256",
          "name": "",
          "type": "uint256"
        }
      ],
      "stateMutability": "nonpayable",
      "type": "function"
    }
  ],
  "transactionHash": "0x84f92bb3e816cb9fd10be16fcb7a9c6b58ae71c899e42f3c3bc6303c5adc658c",
  "args": [
    "0xe42fc83A7B91160E9EC549e6B3935e72C5A436F8",
    "0x07021D7a5fF15B555B933C5E2Aa6A0b418e62154",
    "0x0000000000000000000000000000000000000000",
    "10000000000000000",
    "0x8565e5163b08A869bF7eE1028D2f100775d85e4f",
    "10000000000000000",
    "0",
    "4838400",
    1,
    0,
    31,
    "0x6B7C42A5C54f1424776bacd095747cf693Aca5F5"
  ],
  "numDeployments": 1,
  "solcInputHash": "75f4fcb7939c57656ec53f8d567e8f44",
  "bytecode": "0x61022060405264b89345ad6a600a553480156200001b57600080fd5b506040516200271b3803806200271b8339810160408190526200003e916200048e565b8b8b8c6001600160a01b0316636f307dc36040518163ffffffff1660e01b8152600401602060405180830381865afa1580156200007f573d6000803e3d6000fd5b505050506040513d601f19601f82011682018060405250810190620000a591906200055e565b8c8c8c8c8c8c8c8c8c8c8c8c8c8c8c8c8c8c8c8c61ffff168c6001600160401b03168c838510620000e9576040516315a68d0760e11b815260040160405180910390fd5b6001600160a01b03808d166080528b811660a08190528b821660c0528a821660e0526101a08a9052908816610100526101208790526101408690526101608590526101808490526101c0839052604080516306fdde0360e01b815290516306fdde03916004808201926000929091908290030181865afa15801562000172573d6000803e3d6000fd5b505050506040513d6000823e601f3d908101601f191682016040526200019c9190810190620005cc565b604051602001620001ae919062000684565b60405160208183030381529060405260009080519060200190620001d4929190620003b3565b508a6001600160a01b03166395d89b416040518163ffffffff1660e01b8152600401600060405180830381865afa15801562000214573d6000803e3d6000fd5b505050506040513d6000823e601f3d908101601f191682016040526200023e9190810190620005cc565b604051602001620002509190620006b2565b6040516020818303038152906040526001908051906020019062000276929190620003b3565b506101e081905260405163095ea7b360e01b81526001600160a01b038d8116600483015260001960248301528c169063095ea7b3906044016020604051808303816000875af1158015620002ce573d6000803e3d6000fd5b505050506040513d601f19601f82011682018060405250810190620002f49190620006e0565b5060405163095ea7b360e01b81526001600160a01b038d81166004830152600019602483015288169063095ea7b3906044016020604051808303816000875af115801562000346573d6000803e3d6000fd5b505050506040513d601f19601f820116820180604052508101906200036c9190620006e0565b50505050505050505050505050806001600160a01b0316610200816001600160a01b0316815250505050505050505050505050505050505050505050505050505062000741565b828054620003c19062000704565b90600052602060002090601f016020900481019282620003e5576000855562000430565b82601f106200040057805160ff191683800117855562000430565b8280016001018555821562000430579182015b828111156200043057825182559160200191906001019062000413565b506200043e92915062000442565b5090565b5b808211156200043e576000815560010162000443565b80516001600160a01b03811681146200047157600080fd5b919050565b80516001600160401b03811681146200047157600080fd5b6000806000806000806000806000806000806101808d8f031215620004b257600080fd5b620004bd8d62000459565b9b50620004cd60208e0162000459565b9a50620004dd60408e0162000459565b995060608d01519850620004f460808e0162000459565b975060a08d0151965060c08d0151955060e08d015194506101008d015161ffff811681146200052257600080fd5b9350620005336101208e0162000476565b92506101408d015191506200054c6101608e0162000459565b90509295989b509295989b509295989b565b6000602082840312156200057157600080fd5b6200057c8262000459565b9392505050565b634e487b7160e01b600052604160045260246000fd5b60005b83811015620005b65781810151838201526020016200059c565b83811115620005c6576000848401525b50505050565b600060208284031215620005df57600080fd5b81516001600160401b0380821115620005f757600080fd5b818401915084601f8301126200060c57600080fd5b81518181111562000621576200062162000583565b604051601f8201601f19908116603f011681019083821181831017156200064c576200064c62000583565b816040528281528760208487010111156200066657600080fd5b6200067983602083016020880162000599565b979650505050505050565b600082516200069881846020870162000599565b671020b230b83a32b960c11b920191825250600801919050565b60008251620006c681846020870162000599565b6716b0b230b83a32b960c11b920191825250600801919050565b600060208284031215620006f357600080fd5b815180151581146200057c57600080fd5b600181811c908216806200071957607f821691505b602082108114156200073b57634e487b7160e01b600052602260045260246000fd5b50919050565b60805160a05160c05160e05161010051610120516101405161016051610180516101a0516101c0516101e05161020051611e9c6200087f600039600081816102f80152818161164b01528181611776015281816117b60152611839015260006105a6015260006106820152600061065b015260006103910152600081816102bb0152610537015260008181610516015261071001526000818161035e015261041f01526000818161033d0152610446015260006105d60152600061057f01526000818161031c015281816106c5015281816107e00152818161097401528181610af701528181610f2401528181610f740152818161103601526114050152600081816103d801528181610b8b01528181610c0d01528181610e70015281816110fb0152818161119501528181611225015261138f0152611e9c6000f3fe608060405234801561001057600080fd5b506004361061025e5760003560e01c806362e10b4e11610146578063a8d5fd65116100c3578063cc074d4911610087578063cc074d49146106ad578063d4b83992146106c0578063d9d98ce4146106e7578063da4ca413146106fa578063f51e181a14610703578063fc024d2c1461070b57600080fd5b8063a8d5fd651461063a578063b484972a14610643578063b8c15a9f14610656578063c39a3b291461067d578063c5c108c7146106a457600080fd5b806375b2cda81161010a57806375b2cda8146105c85780637dc0d1d0146105d15780638237e538146105f85780638d8475c41461061f57806395d89b411461063257600080fd5b806362e10b4e1461050157806364c56e3c146105145780636b0706ed1461056c5780636f307dc31461057a5780636fd5ae15146105a157600080fd5b8063379f53e3116101df5780634aae9fed116101a35780634aae9fed1461048957806351c39ea11461049c57806353e0719e146104af5780635cffe9de146104c25780635f677404146104e5578063613255ab146104ee57600080fd5b8063379f53e3146103fa5780633a34330e1461041a5780633a4b66f1146104415780633edc351914610468578063468f02d21461047b57600080fd5b8063228cb73311610226578063228cb733146102f357806327b327d01461031a578063295a52121461038c57806329a43608146103b3578063378efa37146103d357600080fd5b806302e9e93d1461026357806306fdde031461028c57806314282f58146102a1578063167c3a4f146102b657806322677849146102eb575b600080fd5b600954610276906001600160a01b031681565b6040516102839190611957565b60405180910390f35b610294610732565b604051610283919061196b565b6102b46102af3660046119c0565b6107c0565b005b6102dd7f000000000000000000000000000000000000000000000000000000000000000081565b604051908152602001610283565b600d546102dd565b6102767f000000000000000000000000000000000000000000000000000000000000000081565b7f00000000000000000000000000000000000000000000000000000000000000007f00000000000000000000000000000000000000000000000000000000000000007f0000000000000000000000000000000000000000000000000000000000000000604051610283939291906119f2565b6102dd7f000000000000000000000000000000000000000000000000000000000000000081565b6102dd6103c1366004611a2e565b60056020526000908152604090205481565b6102767f000000000000000000000000000000000000000000000000000000000000000081565b6102dd610408366004611a2e565b60066020526000908152604090205481565b6102dd7f000000000000000000000000000000000000000000000000000000000000000081565b6102767f000000000000000000000000000000000000000000000000000000000000000081565b6102b4610476366004611a4b565b600755565b670de0b6b3a76400006102dd565b6102dd610497366004611a4b565b6107db565b6102dd6104aa366004611a4b565b610962565b6102b46104bd366004611a64565b610ae0565b6104d56104d0366004611a86565b610e62565b6040519015158152602001610283565b6102dd60085481565b6102dd6104fc366004611a2e565b61106b565b6102dd61050f366004611a64565b6110e1565b7f00000000000000000000000000000000000000000000000000000000000000007f00000000000000000000000000000000000000000000000000000000000000005b60408051928352602083019190915201610283565b600c54600d54610557919082565b6102767f000000000000000000000000000000000000000000000000000000000000000081565b6102dd7f000000000000000000000000000000000000000000000000000000000000000081565b6102dd600b5481565b6102767f000000000000000000000000000000000000000000000000000000000000000081565b6102dd7f439148f0bbc682ca079e46d6e2c2f0c1e3b820f1a291b069d8882abf8cf18dd981565b6102b461062d366004611a64565b61117e565b610294611216565b6102dd60025481565b6102b4610651366004611b33565b611223565b6102dd7f000000000000000000000000000000000000000000000000000000000000000081565b6102dd7f000000000000000000000000000000000000000000000000000000000000000081565b6102dd60035481565b6102b46106bb366004611b75565b611363565b6102767f000000000000000000000000000000000000000000000000000000000000000081565b6102dd6106f5366004611ba5565b611401565b6102dd60045481565b6102dd61145e565b6102dd7f000000000000000000000000000000000000000000000000000000000000000081565b6000805461073f90611bd1565b80601f016020809104026020016040519081016040528092919081815260200182805461076b90611bd1565b80156107b85780601f1061078d576101008083540402835291602001916107b8565b820191906000526020600020905b81548152906001019060200180831161079b57829003601f168201915b505050505081565b600b80549060006107d083611c22565b919050555050505050565b6000807f000000000000000000000000000000000000000000000000000000000000000090506000816001600160a01b0316636f307dc36040518163ffffffff1660e01b8152600401602060405180830381865afa158015610841573d6000803e3d6000fd5b505050506040513d601f19601f820116820180604052508101906108659190611c4d565b6040516323b872dd60e01b81529091506001600160a01b038216906323b872dd90610898903390309089906004016119f2565b6020604051808303816000875af11580156108b7573d6000803e3d6000fd5b505050506040513d601f19601f820116820180604052508101906108db9190611c6a565b50600d546000906108f6908690670de0b6b3a7640000611517565b6040516340c10f1960e01b81529091506001600160a01b038416906340c10f19906109279033908590600401611c87565b600060405180830381600087803b15801561094157600080fd5b505af1158015610955573d6000803e3d6000fd5b5092979650505050505050565b6040516323b872dd60e01b81526000907f0000000000000000000000000000000000000000000000000000000000000000906001600160a01b038216906323b872dd906109b7903390309088906004016119f2565b6020604051808303816000875af11580156109d6573d6000803e3d6000fd5b505050506040513d601f19601f820116820180604052508101906109fa9190611c6a565b50600d54600090610a15908590670de0b6b3a764000061152c565b9050816001600160a01b0316636f307dc36040518163ffffffff1660e01b8152600401602060405180830381865afa158015610a55573d6000803e3d6000fd5b505050506040513d601f19601f82011682018060405250810190610a799190611c4d565b6001600160a01b03166340c10f1933836040518363ffffffff1660e01b8152600401610aa6929190611c87565b600060405180830381600087803b158015610ac057600080fd5b505af1158015610ad4573d6000803e3d6000fd5b50929695505050505050565b6040516323b872dd60e01b81526001600160a01b037f000000000000000000000000000000000000000000000000000000000000000016906323b872dd90610b30903390309086906004016119f2565b6020604051808303816000875af1158015610b4f573d6000803e3d6000fd5b505050506040513d601f19601f82011682018060405250810190610b739190611c6a565b50604051631bfcbde960e31b81526001600160a01b037f0000000000000000000000000000000000000000000000000000000000000000169063dfe5ef4890610bc490309086908690600401611ca0565b6020604051808303816000875af1158015610be3573d6000803e3d6000fd5b505050506040513d601f19601f82011682018060405250810190610c079190611cc1565b506000807f00000000000000000000000000000000000000000000000000000000000000006001600160a01b0316630891d30a30866040518363ffffffff1660e01b8152600401610c59929190611c87565b61012060405180830381865afa158015610c77573d6000803e3d6000fd5b505050506040513d601f19601f82011682018060405250810190610c9b9190611cda565b5050505050509250509150816001600160a01b031663a9059cbb33846001600160a01b03166370a08231306040518263ffffffff1660e01b8152600401610ce29190611957565b602060405180830381865afa158015610cff573d6000803e3d6000fd5b505050506040513d601f19601f82011682018060405250810190610d239190611cc1565b6040518363ffffffff1660e01b8152600401610d40929190611c87565b6020604051808303816000875af1158015610d5f573d6000803e3d6000fd5b505050506040513d601f19601f82011682018060405250810190610d839190611c6a565b506040516370a0823160e01b81526001600160a01b0382169063a9059cbb90339083906370a0823190610dba903090600401611957565b602060405180830381865afa158015610dd7573d6000803e3d6000fd5b505050506040513d601f19601f82011682018060405250810190610dfb9190611cc1565b6040518363ffffffff1660e01b8152600401610e18929190611c87565b6020604051808303816000875af1158015610e37573d6000803e3d6000fd5b505050506040513d601f19601f82011682018060405250810190610e5b9190611c6a565b5050505050565b6000336001600160a01b03167f00000000000000000000000000000000000000000000000000000000000000006001600160a01b03166377aace1a6040518163ffffffff1660e01b8152600401602060405180830381865afa158015610ecc573d6000803e3d6000fd5b505050506040513d601f19601f82011682018060405250810190610ef09190611c4d565b6001600160a01b031614610f175760405163fb02114960e01b815260040160405180910390fd5b610f4b6001600160a01b037f0000000000000000000000000000000000000000000000000000000000000000168786611539565b6040516323e30c8b60e01b81526000906001600160a01b038816906323e30c8b90610fa49033907f0000000000000000000000000000000000000000000000000000000000000000908a9087908b908b90600401611d8d565b6020604051808303816000875af1158015610fc3573d6000803e3d6000fd5b505050506040513d601f19601f82011682018060405250810190610fe79190611cc1565b90507f439148f0bbc682ca079e46d6e2c2f0c1e3b820f1a291b069d8882abf8cf18dd981146110295760405163081f7c8760e21b815260040160405180910390fd5b61105e6001600160a01b037f0000000000000000000000000000000000000000000000000000000000000000168830886115b7565b5060019695505050505050565b6040516370a0823160e01b81526000906001600160a01b038316906370a082319061109a903090600401611957565b602060405180830381865afa1580156110b7573d6000803e3d6000fd5b505050506040513d601f19601f820116820180604052508101906110db9190611cc1565b92915050565b60405163ba89bebd60e01b81526000906001600160a01b037f0000000000000000000000000000000000000000000000000000000000000000169063ba89bebd9061113490309087908790600401611ca0565b6020604051808303816000875af1158015611153573d6000803e3d6000fd5b505050506040513d601f19601f820116820180604052508101906111779190611cc1565b9392505050565b604051632b83cccd60e01b81526001600160a01b037f00000000000000000000000000000000000000000000000000000000000000001690632b83cccd906111ce90309086908690600401611ca0565b6020604051808303816000875af11580156111ed573d6000803e3d6000fd5b505050506040513d601f19601f820116820180604052508101906112119190611cc1565b505050565b6001805461073f90611bd1565b7f00000000000000000000000000000000000000000000000000000000000000006001600160a01b0316331461126c57604051638604e36160e01b815260040160405180910390fd5b61127583611644565b81156113105780156112cb5781600460008282546112939190611de9565b90915550506001600160a01b038316600090815260056020526040812080548492906112c0908490611de9565b909155506113109050565b81600460008282546112dd9190611e01565b90915550506001600160a01b0383166000908152600560205260408120805484929061130a908490611e01565b90915550505b6002546001600160a01b038416600090815260056020526040902054611342916b033b2e3c9fd0803ce80000006118ad565b6001600160a01b039093166000908152600660205260409020929092555050565b604051631f1cb97760e11b8152306004820152602481018390526001600160a01b0382811660448301527f00000000000000000000000000000000000000000000000000000000000000001690633e3972ee9060640160408051808303816000875af11580156113d7573d6000803e3d6000fd5b505050506040513d601f19601f820116820180604052508101906113fb9190611e18565b50505050565b60007f00000000000000000000000000000000000000000000000000000000000000006001600160a01b0316836001600160a01b03161461145557604051633dd1b30560e01b815260040160405180910390fd5b50600092915050565b600754600090156114775750600754600d81905542600c555b60085461148b57670de0b6b3a76400006008555b600a546000906114ac90670dbd2fc137a30000670de0b6b3a764000061152c565b600c549091506000906114bf9042611e01565b600d549091506114d1576008546114fc565b600d546114f281670de0b6b3a76400006114eb8587611e47565b919061152c565b6114fc9190611de9565b600d54909350831461151257600d83905542600c555b505090565b60006115248483856118b6565b949350505050565b60006115248484846118e4565b600060405163a9059cbb60e01b81526001600160a01b03841660048201528260248201526000806044836000895af191505061157481611903565b6113fb5760405162461bcd60e51b815260206004820152600f60248201526e1514905394d1915497d19052531151608a1b60448201526064015b60405180910390fd5b60006040516323b872dd60e01b81526001600160a01b03851660048201526001600160a01b038416602482015282604482015260008060648360008a5af191505061160181611903565b610e5b5760405162461bcd60e51b81526020600482015260146024820152731514905394d1915497d19493d357d1905253115160621b60448201526064016115ae565b60006003547f00000000000000000000000000000000000000000000000000000000000000006001600160a01b03166370a08231306040518263ffffffff1660e01b81526004016116959190611957565b602060405180830381865afa1580156116b2573d6000803e3d6000fd5b505050506040513d601f19601f820116820180604052508101906116d69190611cc1565b6116e09190611e01565b6004549091501561171d576004546117069082906b033b2e3c9fd0803ce800000061194a565b600260008282546117179190611de9565b90915550505b6001600160a01b03821660009081526006602090815260408083205460025460059093529083205490929161175f91906b033b2e3c9fd0803ce800000061152c565b90508181111561179f5761179f6001600160a01b037f00000000000000000000000000000000000000000000000000000000000000001685848403611539565b6040516370a0823160e01b81526001600160a01b037f000000000000000000000000000000000000000000000000000000000000000016906370a08231906117eb903090600401611957565b602060405180830381865afa158015611808573d6000803e3d6000fd5b505050506040513d601f19601f8201168201806040525081019061182c9190611cc1565b6003556001600160a01b037f000000000000000000000000000000000000000000000000000000000000000081169085167fad4a9acf26d8bba7a8cf1a41160d59be042ee554578e256c98d2ab74cdd4354284841161188c576000611896565b6118968585611e01565b60405190815260200160405180910390a350505050565b60006115248484845b8282028115158415858304851417166118ce57600080fd5b6001826001830304018115150290509392505050565b8282028115158415858304851417166118fc57600080fd5b0492915050565b60003d8261191557806000803e806000fd5b806020811461192d57801561193e5760009250611943565b816000803e60005115159250611943565b600192505b5050919050565b60006115248483856118e4565b6001600160a01b0391909116815260200190565b600060208083528351808285015260005b818110156119985785810183015185820160400152820161197c565b818111156119aa576000604083870101525b50601f01601f1916929092016040019392505050565b600080600080608085870312156119d657600080fd5b5050823594602084013594506040840135936060013592509050565b6001600160a01b039384168152919092166020820152604081019190915260600190565b6001600160a01b0381168114611a2b57600080fd5b50565b600060208284031215611a4057600080fd5b813561117781611a16565b600060208284031215611a5d57600080fd5b5035919050565b60008060408385031215611a7757600080fd5b50508035926020909101359150565b600080600080600060808688031215611a9e57600080fd5b8535611aa981611a16565b94506020860135611ab981611a16565b935060408601359250606086013567ffffffffffffffff80821115611add57600080fd5b818801915088601f830112611af157600080fd5b813581811115611b0057600080fd5b896020828501011115611b1257600080fd5b9699959850939650602001949392505050565b8015158114611a2b57600080fd5b600080600060608486031215611b4857600080fd5b8335611b5381611a16565b9250602084013591506040840135611b6a81611b25565b809150509250925092565b60008060408385031215611b8857600080fd5b823591506020830135611b9a81611a16565b809150509250929050565b60008060408385031215611bb857600080fd5b8235611bc381611a16565b946020939093013593505050565b600181811c90821680611be557607f821691505b60208210811415611c0657634e487b7160e01b600052602260045260246000fd5b50919050565b634e487b7160e01b600052601160045260246000fd5b6000600019821415611c3657611c36611c0c565b5060010190565b8051611c4881611a16565b919050565b600060208284031215611c5f57600080fd5b815161117781611a16565b600060208284031215611c7c57600080fd5b815161117781611b25565b6001600160a01b03929092168252602082015260400190565b6001600160a01b039390931683526020830191909152604082015260600190565b600060208284031215611cd357600080fd5b5051919050565b60008060008060008060008060006101208a8c031215611cf957600080fd5b8951611d0481611a16565b60208b015190995065ffffffffffff81168114611d2057600080fd5b60408b0151909850611d3181611a16565b60608b01519097506bffffffffffffffffffffffff81168114611d5357600080fd5b9550611d6160808b01611c3d565b945060a08a0151935060c08a0151925060e08a015191506101008a015190509295985092959850929598565b6001600160a01b03878116825286166020820152604081018590526060810184905260a06080820181905281018290526000828460c0840137600060c0848401015260c0601f19601f8501168301019050979650505050505050565b60008219821115611dfc57611dfc611c0c565b500190565b600082821015611e1357611e13611c0c565b500390565b60008060408385031215611e2b57600080fd5b8251611e3681611a16565b6020840151909250611b9a81611a16565b6000816000190483118215151615611e6157611e61611c0c565b50029056fea264697066735822122087ad4e3acd8c8d15399603e4a0147ca1d5f0cfd6b4821a17c1baaf39565571e764736f6c634300080b0033",
  "devdoc": {
    "kind": "dev",
    "methods": {
      "flashLoan(address,address,uint256,bytes)": {
        "params": {
          "amount": "The amount of target lent.",
          "data": "(encoded adapter address, maturity and YT amount the use has sent in)",
          "receiver": "The contract receiving target, needs to implement the `onFlashLoan(address user, address adapter, uint256 maturity, uint256 amount)` interface."
        }
      },
      "maxFlashLoan(address)": {
        "details": "The amount of currency available to be lent.",
        "params": {
          "token": "The loan currency."
        },
        "returns": {
          "_0": "The amount of `token` that can be borrowed."
        }
      },
      "scale()": {
        "details": "For some Targets, such as cTokens, this is simply the exchange rate, or `supply cToken / supply underlying`For other Targets, such as AMM LP shares, specialized logic will be requiredThis function _must_ return a WAD number representing the current exchange rate between the Target and the Underlying.",
        "returns": {
          "_value": "value WAD Scale value"
        }
      },
      "scaleStored()": {
        "details": "For situations where you need scale from a view function"
      }
    },
    "version": 1
  },
  "userdoc": {
    "kind": "user",
    "methods": {
      "divider()": {
        "notice": "Sense core Divider address"
      },
      "flashLoan(address,address,uint256,bytes)": {
        "notice": "Loan `amount` target to `receiver`, and takes it back after the callback."
      },
      "getUnderlyingPrice()": {
        "notice": "Returns the current price of the underlying in ETH terms"
      },
      "ifee()": {
        "notice": "Issuance fee"
      },
      "level()": {
        "notice": "The number this function returns will be used to determine its access by checking for binary digits using the following scheme:<onRedeem(y/n)><collect(y/n)><combine(y/n)><issue(y/n)> (e.g. 0101 enables `collect` and `issue`, but not `combine`)"
      },
      "lscale()": {
        "notice": "Cached scale value from the last call to `scale()`"
      },
      "maxm()": {
        "notice": "Max maturity (seconds after block.timstamp)"
      },
      "minm()": {
        "notice": "Min maturity (seconds after block.timstamp)"
      },
      "mode()": {
        "notice": "0 for monthly, 1 for weekly"
      },
      "onRedeem(uint256,uint256,uint256,uint256)": {
        "notice": "Hook called whenever a user redeems PT"
      },
      "oracle()": {
        "notice": "Oracle address"
      },
      "reward()": {
        "notice": "Program state"
      },
      "scale()": {
        "notice": "Calculate and return this adapter's Scale value for the current timestamp. To be overriden by child contracts"
      },
      "scaleStored()": {
        "notice": "Cached scale value getter"
      },
      "stake()": {
        "notice": "Token to stake at issuance"
      },
      "stakeSize()": {
        "notice": "Amount to stake at issuance"
      },
      "target()": {
        "notice": "Target token to divide"
      },
      "tilt()": {
        "notice": "WAD number representing the percentage of the total principal that's set aside for Yield Tokens (e.g. 0.1e18 means that 10% of the principal is reserved).If `0`, it means no principal is set aside for Yield Tokens"
      },
      "underlying()": {
        "notice": "Underlying for the Target"
      }
    },
    "version": 1
  },
  "storageLayout": {
    "storage": [
      {
        "astId": 6545,
        "contract": "@sense-finance/v1-core/src/tests/test-helpers/mocks/MockAdapter.sol:MockAdapter",
        "label": "name",
        "offset": 0,
        "slot": "0",
        "type": "t_string_storage"
      },
      {
        "astId": 6547,
        "contract": "@sense-finance/v1-core/src/tests/test-helpers/mocks/MockAdapter.sol:MockAdapter",
        "label": "symbol",
        "offset": 0,
        "slot": "1",
        "type": "t_string_storage"
      },
      {
        "astId": 7015,
        "contract": "@sense-finance/v1-core/src/tests/test-helpers/mocks/MockAdapter.sol:MockAdapter",
        "label": "share",
        "offset": 0,
        "slot": "2",
        "type": "t_uint256"
      },
      {
        "astId": 7017,
        "contract": "@sense-finance/v1-core/src/tests/test-helpers/mocks/MockAdapter.sol:MockAdapter",
        "label": "rewardBal",
        "offset": 0,
        "slot": "3",
        "type": "t_uint256"
      },
      {
        "astId": 7019,
        "contract": "@sense-finance/v1-core/src/tests/test-helpers/mocks/MockAdapter.sol:MockAdapter",
        "label": "totalTarget",
        "offset": 0,
        "slot": "4",
        "type": "t_uint256"
      },
      {
        "astId": 7023,
        "contract": "@sense-finance/v1-core/src/tests/test-helpers/mocks/MockAdapter.sol:MockAdapter",
        "label": "tBalance",
        "offset": 0,
        "slot": "5",
        "type": "t_mapping(t_address,t_uint256)"
      },
      {
        "astId": 7027,
        "contract": "@sense-finance/v1-core/src/tests/test-helpers/mocks/MockAdapter.sol:MockAdapter",
        "label": "rewarded",
        "offset": 0,
        "slot": "6",
        "type": "t_mapping(t_address,t_uint256)"
      },
      {
        "astId": 11352,
        "contract": "@sense-finance/v1-core/src/tests/test-helpers/mocks/MockAdapter.sol:MockAdapter",
        "label": "value",
        "offset": 0,
        "slot": "7",
        "type": "t_uint256"
      },
      {
        "astId": 11354,
        "contract": "@sense-finance/v1-core/src/tests/test-helpers/mocks/MockAdapter.sol:MockAdapter",
        "label": "INITIAL_VALUE",
        "offset": 0,
        "slot": "8",
        "type": "t_uint256"
      },
      {
        "astId": 11356,
        "contract": "@sense-finance/v1-core/src/tests/test-helpers/mocks/MockAdapter.sol:MockAdapter",
        "label": "under",
        "offset": 0,
        "slot": "9",
        "type": "t_address"
      },
      {
        "astId": 11359,
        "contract": "@sense-finance/v1-core/src/tests/test-helpers/mocks/MockAdapter.sol:MockAdapter",
        "label": "GROWTH_PER_SECOND",
        "offset": 0,
        "slot": "10",
        "type": "t_uint256"
      },
      {
        "astId": 11361,
        "contract": "@sense-finance/v1-core/src/tests/test-helpers/mocks/MockAdapter.sol:MockAdapter",
        "label": "onRedeemCalls",
        "offset": 0,
        "slot": "11",
        "type": "t_uint256"
      },
      {
        "astId": 11370,
        "contract": "@sense-finance/v1-core/src/tests/test-helpers/mocks/MockAdapter.sol:MockAdapter",
        "label": "lscale",
        "offset": 0,
        "slot": "12",
        "type": "t_struct(LScale)11366_storage"
      }
    ],
    "types": {
      "t_address": {
        "encoding": "inplace",
        "label": "address",
        "numberOfBytes": "20"
      },
      "t_mapping(t_address,t_uint256)": {
        "encoding": "mapping",
        "key": "t_address",
        "label": "mapping(address => uint256)",
        "numberOfBytes": "32",
        "value": "t_uint256"
      },
      "t_string_storage": {
        "encoding": "bytes",
        "label": "string",
        "numberOfBytes": "32"
      },
      "t_struct(LScale)11366_storage": {
        "encoding": "inplace",
        "label": "struct MockAdapter.LScale",
        "members": [
          {
            "astId": 11363,
            "contract": "@sense-finance/v1-core/src/tests/test-helpers/mocks/MockAdapter.sol:MockAdapter",
            "label": "timestamp",
            "offset": 0,
            "slot": "0",
            "type": "t_uint256"
          },
          {
            "astId": 11365,
            "contract": "@sense-finance/v1-core/src/tests/test-helpers/mocks/MockAdapter.sol:MockAdapter",
            "label": "value",
            "offset": 0,
            "slot": "1",
            "type": "t_uint256"
          }
        ],
        "numberOfBytes": "64"
      },
      "t_uint256": {
        "encoding": "inplace",
        "label": "uint256",
        "numberOfBytes": "32"
      }
    }
  }
}