{
  "address": "0x806b03ae154E36b251A0717721e8D6a85590Bd53",
  "abi": [
    {
      "inputs": [
        {
          "internalType": "address",
          "name": "_divider",
          "type": "address"
        },
        {
          "internalType": "address",
          "name": "_poolManager",
          "type": "address"
        },
        {
          "internalType": "address",
          "name": "_spaceFactory",
          "type": "address"
        },
        {
          "internalType": "address",
          "name": "_balancerVault",
          "type": "address"
        }
      ],
      "stateMutability": "nonpayable",
      "type": "constructor"
    },
    {
      "inputs": [],
      "name": "ExistingValue",
      "type": "error"
    },
    {
      "inputs": [],
      "name": "FactoryNotSupported",
      "type": "error"
    },
    {
      "inputs": [],
      "name": "FlashBorrowFailed",
      "type": "error"
    },
    {
      "inputs": [],
      "name": "FlashUntrustedBorrower",
      "type": "error"
    },
    {
      "inputs": [],
      "name": "FlashUntrustedLoanInitiator",
      "type": "error"
    },
    {
      "inputs": [],
      "name": "OnlyPermissionless",
      "type": "error"
    },
    {
      "inputs": [],
      "name": "SwapTooSmall",
      "type": "error"
    },
    {
      "inputs": [],
      "name": "TargetMismatch",
      "type": "error"
    },
    {
      "inputs": [],
      "name": "TargetNotSupported",
      "type": "error"
    },
    {
      "inputs": [],
      "name": "UnexpectedSwapAmount",
      "type": "error"
    },
    {
      "anonymous": false,
      "inputs": [
        {
          "indexed": true,
          "internalType": "address",
          "name": "adapter",
          "type": "address"
        }
      ],
      "name": "AdapterDeployed",
      "type": "event"
    },
    {
      "anonymous": false,
      "inputs": [
        {
          "indexed": true,
          "internalType": "address",
          "name": "adapter",
          "type": "address"
        }
      ],
      "name": "AdapterOnboarded",
      "type": "event"
    },
    {
      "anonymous": false,
      "inputs": [
        {
          "indexed": true,
          "internalType": "address",
          "name": "adapter",
          "type": "address"
        }
      ],
      "name": "AdapterVerified",
      "type": "event"
    },
    {
      "anonymous": false,
      "inputs": [
        {
          "indexed": true,
          "internalType": "address",
          "name": "factory",
          "type": "address"
        },
        {
          "indexed": true,
          "internalType": "bool",
          "name": "isOn",
          "type": "bool"
        }
      ],
      "name": "FactoryChanged",
      "type": "event"
    },
    {
      "anonymous": false,
      "inputs": [
        {
          "indexed": true,
          "internalType": "address",
          "name": "adapter",
          "type": "address"
        },
        {
          "indexed": true,
          "internalType": "uint256",
          "name": "maturity",
          "type": "uint256"
        },
        {
          "indexed": true,
          "internalType": "address",
          "name": "sponsor",
          "type": "address"
        }
      ],
      "name": "SeriesSponsored",
      "type": "event"
    },
    {
      "anonymous": false,
      "inputs": [
        {
          "indexed": true,
          "internalType": "address",
          "name": "sender",
          "type": "address"
        },
        {
          "indexed": true,
          "internalType": "bytes32",
          "name": "poolId",
          "type": "bytes32"
        },
        {
          "indexed": false,
          "internalType": "address",
          "name": "assetIn",
          "type": "address"
        },
        {
          "indexed": false,
          "internalType": "address",
          "name": "assetOut",
          "type": "address"
        },
        {
          "indexed": false,
          "internalType": "uint256",
          "name": "amountIn",
          "type": "uint256"
        },
        {
          "indexed": false,
          "internalType": "uint256",
          "name": "amountOut",
          "type": "uint256"
        },
        {
          "indexed": true,
          "internalType": "bytes4",
          "name": "sig",
          "type": "bytes4"
        }
      ],
      "name": "Swapped",
      "type": "event"
    },
    {
      "anonymous": false,
      "inputs": [
        {
          "indexed": true,
          "internalType": "address",
          "name": "user",
          "type": "address"
        },
        {
          "indexed": false,
          "internalType": "bool",
          "name": "trusted",
          "type": "bool"
        }
      ],
      "name": "UserTrustUpdated",
      "type": "event"
    },
    {
      "inputs": [],
      "name": "MIN_YT_SWAP_IN",
      "outputs": [
        {
          "internalType": "uint256",
          "name": "",
          "type": "uint256"
        }
      ],
      "stateMutability": "view",
      "type": "function"
    },
    {
      "inputs": [],
      "name": "PRICE_ESTIMATE_ACCEPTABLE_ERROR",
      "outputs": [
        {
          "internalType": "uint256",
          "name": "",
          "type": "uint256"
        }
      ],
      "stateMutability": "view",
      "type": "function"
    },
    {
      "inputs": [
        {
          "internalType": "address",
          "name": "adapter",
          "type": "address"
        },
        {
          "internalType": "uint256",
          "name": "maturity",
          "type": "uint256"
        },
        {
          "internalType": "uint256",
          "name": "tBal",
          "type": "uint256"
        },
        {
          "internalType": "uint8",
          "name": "mode",
          "type": "uint8"
        },
        {
          "internalType": "uint256",
          "name": "minBptOut",
          "type": "uint256"
        }
      ],
      "name": "addLiquidityFromTarget",
      "outputs": [
        {
          "internalType": "uint256",
          "name": "tAmount",
          "type": "uint256"
        },
        {
          "internalType": "uint256",
          "name": "issued",
          "type": "uint256"
        },
        {
          "internalType": "uint256",
          "name": "lpShares",
          "type": "uint256"
        }
      ],
      "stateMutability": "nonpayable",
      "type": "function"
    },
    {
      "inputs": [
        {
          "internalType": "address",
          "name": "adapter",
          "type": "address"
        },
        {
          "internalType": "uint256",
          "name": "maturity",
          "type": "uint256"
        },
        {
          "internalType": "uint256",
          "name": "uBal",
          "type": "uint256"
        },
        {
          "internalType": "uint8",
          "name": "mode",
          "type": "uint8"
        },
        {
          "internalType": "uint256",
          "name": "minBptOut",
          "type": "uint256"
        }
      ],
      "name": "addLiquidityFromUnderlying",
      "outputs": [
        {
          "internalType": "uint256",
          "name": "tAmount",
          "type": "uint256"
        },
        {
          "internalType": "uint256",
          "name": "issued",
          "type": "uint256"
        },
        {
          "internalType": "uint256",
          "name": "lpShares",
          "type": "uint256"
        }
      ],
      "stateMutability": "nonpayable",
      "type": "function"
    },
    {
      "inputs": [],
      "name": "balancerVault",
      "outputs": [
        {
          "internalType": "contract BalancerVault",
          "name": "",
          "type": "address"
        }
      ],
      "stateMutability": "view",
      "type": "function"
    },
    {
      "inputs": [
        {
          "internalType": "address",
          "name": "f",
          "type": "address"
        },
        {
          "internalType": "address",
          "name": "target",
          "type": "address"
        }
      ],
      "name": "deployAdapter",
      "outputs": [
        {
          "internalType": "address",
          "name": "adapter",
          "type": "address"
        }
      ],
      "stateMutability": "nonpayable",
      "type": "function"
    },
    {
      "inputs": [],
      "name": "divider",
      "outputs": [
        {
          "internalType": "contract Divider",
          "name": "",
          "type": "address"
        }
      ],
      "stateMutability": "view",
      "type": "function"
    },
    {
      "inputs": [
        {
          "internalType": "address",
          "name": "",
          "type": "address"
        }
      ],
      "name": "factories",
      "outputs": [
        {
          "internalType": "bool",
          "name": "",
          "type": "bool"
        }
      ],
      "stateMutability": "view",
      "type": "function"
    },
    {
      "inputs": [
        {
          "internalType": "address",
          "name": "",
          "type": "address"
        }
      ],
      "name": "isTrusted",
      "outputs": [
        {
          "internalType": "bool",
          "name": "",
          "type": "bool"
        }
      ],
      "stateMutability": "view",
      "type": "function"
    },
    {
      "inputs": [
        {
          "internalType": "address",
          "name": "srcAdapter",
          "type": "address"
        },
        {
          "internalType": "address",
          "name": "dstAdapter",
          "type": "address"
        },
        {
          "internalType": "uint256",
          "name": "srcMaturity",
          "type": "uint256"
        },
        {
          "internalType": "uint256",
          "name": "dstMaturity",
          "type": "uint256"
        },
        {
          "internalType": "uint256",
          "name": "lpBal",
          "type": "uint256"
        },
        {
          "internalType": "uint256[]",
          "name": "minAmountsOut",
          "type": "uint256[]"
        },
        {
          "internalType": "uint256",
          "name": "minAccepted",
          "type": "uint256"
        },
        {
          "internalType": "uint8",
          "name": "mode",
          "type": "uint8"
        },
        {
          "internalType": "bool",
          "name": "intoTarget",
          "type": "bool"
        },
        {
          "internalType": "uint256",
          "name": "minBptOut",
          "type": "uint256"
        }
      ],
      "name": "migrateLiquidity",
      "outputs": [
        {
          "internalType": "uint256",
          "name": "tAmount",
          "type": "uint256"
        },
        {
          "internalType": "uint256",
          "name": "issued",
          "type": "uint256"
        },
        {
          "internalType": "uint256",
          "name": "lpShares",
          "type": "uint256"
        },
        {
          "internalType": "uint256",
          "name": "ptBal",
          "type": "uint256"
        }
      ],
      "stateMutability": "nonpayable",
      "type": "function"
    },
    {
      "inputs": [
        {
          "internalType": "address",
          "name": "initiator",
          "type": "address"
        },
        {
          "internalType": "address",
          "name": "",
          "type": "address"
        },
        {
          "internalType": "uint256",
          "name": "amount",
          "type": "uint256"
        },
        {
          "internalType": "uint256",
          "name": "",
          "type": "uint256"
        },
        {
          "internalType": "bytes",
          "name": "data",
          "type": "bytes"
        }
      ],
      "name": "onFlashLoan",
      "outputs": [
        {
          "internalType": "bytes32",
          "name": "",
          "type": "bytes32"
        }
      ],
      "stateMutability": "nonpayable",
      "type": "function"
    },
    {
      "inputs": [
        {
          "internalType": "address",
          "name": "adapter",
          "type": "address"
        },
        {
          "internalType": "bool",
          "name": "addAdapter",
          "type": "bool"
        }
      ],
      "name": "onboardAdapter",
      "outputs": [],
      "stateMutability": "nonpayable",
      "type": "function"
    },
    {
      "inputs": [],
      "name": "poolManager",
      "outputs": [
        {
          "internalType": "contract PoolManager",
          "name": "",
          "type": "address"
        }
      ],
      "stateMutability": "view",
      "type": "function"
    },
    {
      "inputs": [
        {
          "internalType": "address",
          "name": "adapter",
          "type": "address"
        },
        {
          "internalType": "uint256",
          "name": "maturity",
          "type": "uint256"
        },
        {
          "internalType": "uint256",
          "name": "lpBal",
          "type": "uint256"
        },
        {
          "internalType": "uint256[]",
          "name": "minAmountsOut",
          "type": "uint256[]"
        },
        {
          "internalType": "uint256",
          "name": "minAccepted",
          "type": "uint256"
        },
        {
          "internalType": "bool",
          "name": "intoTarget",
          "type": "bool"
        }
      ],
      "name": "removeLiquidity",
      "outputs": [
        {
          "internalType": "uint256",
          "name": "tBal",
          "type": "uint256"
        },
        {
          "internalType": "uint256",
          "name": "ptBal",
          "type": "uint256"
        }
      ],
      "stateMutability": "nonpayable",
      "type": "function"
    },
    {
      "inputs": [
        {
          "internalType": "address",
          "name": "adapter",
          "type": "address"
        },
        {
          "internalType": "uint256",
          "name": "maturity",
          "type": "uint256"
        },
        {
          "internalType": "uint256",
          "name": "lpBal",
          "type": "uint256"
        },
        {
          "internalType": "uint256[]",
          "name": "minAmountsOut",
          "type": "uint256[]"
        },
        {
          "internalType": "uint256",
          "name": "minAccepted",
          "type": "uint256"
        },
        {
          "internalType": "bool",
          "name": "intoTarget",
          "type": "bool"
        }
      ],
      "name": "removeLiquidityAndUnwrapTarget",
      "outputs": [
        {
          "internalType": "uint256",
          "name": "uBal",
          "type": "uint256"
        },
        {
          "internalType": "uint256",
          "name": "ptBal",
          "type": "uint256"
        }
      ],
      "stateMutability": "nonpayable",
      "type": "function"
    },
    {
      "inputs": [
        {
          "internalType": "address",
          "name": "f",
          "type": "address"
        },
        {
          "internalType": "bool",
          "name": "isOn",
          "type": "bool"
        }
      ],
      "name": "setFactory",
      "outputs": [],
      "stateMutability": "nonpayable",
      "type": "function"
    },
    {
      "inputs": [
        {
          "internalType": "address",
          "name": "user",
          "type": "address"
        },
        {
          "internalType": "bool",
          "name": "trusted",
          "type": "bool"
        }
      ],
      "name": "setIsTrusted",
      "outputs": [],
      "stateMutability": "nonpayable",
      "type": "function"
    },
    {
      "inputs": [],
      "name": "spaceFactory",
      "outputs": [
        {
          "internalType": "contract SpaceFactoryLike",
          "name": "",
          "type": "address"
        }
      ],
      "stateMutability": "view",
      "type": "function"
    },
    {
      "inputs": [
        {
          "internalType": "address",
          "name": "adapter",
          "type": "address"
        },
        {
          "internalType": "uint256",
          "name": "maturity",
          "type": "uint256"
        },
        {
          "internalType": "bool",
          "name": "withPool",
          "type": "bool"
        }
      ],
      "name": "sponsorSeries",
      "outputs": [
        {
          "internalType": "address",
          "name": "pt",
          "type": "address"
        },
        {
          "internalType": "address",
          "name": "yt",
          "type": "address"
        }
      ],
      "stateMutability": "nonpayable",
      "type": "function"
    },
    {
      "inputs": [
        {
          "internalType": "address",
          "name": "adapter",
          "type": "address"
        },
        {
          "internalType": "uint256",
          "name": "maturity",
          "type": "uint256"
        },
        {
          "internalType": "uint256",
          "name": "ptBal",
          "type": "uint256"
        },
        {
          "internalType": "uint256",
          "name": "minAccepted",
          "type": "uint256"
        }
      ],
      "name": "swapPTsForTarget",
      "outputs": [
        {
          "internalType": "uint256",
          "name": "tBal",
          "type": "uint256"
        }
      ],
      "stateMutability": "nonpayable",
      "type": "function"
    },
    {
      "inputs": [
        {
          "internalType": "address",
          "name": "adapter",
          "type": "address"
        },
        {
          "internalType": "uint256",
          "name": "maturity",
          "type": "uint256"
        },
        {
          "internalType": "uint256",
          "name": "ptBal",
          "type": "uint256"
        },
        {
          "internalType": "uint256",
          "name": "minAccepted",
          "type": "uint256"
        }
      ],
      "name": "swapPTsForUnderlying",
      "outputs": [
        {
          "internalType": "uint256",
          "name": "uBal",
          "type": "uint256"
        }
      ],
      "stateMutability": "nonpayable",
      "type": "function"
    },
    {
      "inputs": [
        {
          "internalType": "address",
          "name": "adapter",
          "type": "address"
        },
        {
          "internalType": "uint256",
          "name": "maturity",
          "type": "uint256"
        },
        {
          "internalType": "uint256",
          "name": "tBal",
          "type": "uint256"
        },
        {
          "internalType": "uint256",
          "name": "minAccepted",
          "type": "uint256"
        }
      ],
      "name": "swapTargetForPTs",
      "outputs": [
        {
          "internalType": "uint256",
          "name": "ptBal",
          "type": "uint256"
        }
      ],
      "stateMutability": "nonpayable",
      "type": "function"
    },
    {
      "inputs": [
        {
          "internalType": "address",
          "name": "adapter",
          "type": "address"
        },
        {
          "internalType": "uint256",
          "name": "maturity",
          "type": "uint256"
        },
        {
          "internalType": "uint256",
          "name": "tBal",
          "type": "uint256"
        },
        {
          "internalType": "uint256",
          "name": "minAccepted",
          "type": "uint256"
        }
      ],
      "name": "swapTargetForYTs",
      "outputs": [
        {
          "internalType": "uint256",
          "name": "ytBal",
          "type": "uint256"
        }
      ],
      "stateMutability": "nonpayable",
      "type": "function"
    },
    {
      "inputs": [
        {
          "internalType": "address",
          "name": "adapter",
          "type": "address"
        },
        {
          "internalType": "uint256",
          "name": "maturity",
          "type": "uint256"
        },
        {
          "internalType": "uint256",
          "name": "uBal",
          "type": "uint256"
        },
        {
          "internalType": "uint256",
          "name": "minAccepted",
          "type": "uint256"
        }
      ],
      "name": "swapUnderlyingForPTs",
      "outputs": [
        {
          "internalType": "uint256",
          "name": "ptBal",
          "type": "uint256"
        }
      ],
      "stateMutability": "nonpayable",
      "type": "function"
    },
    {
      "inputs": [
        {
          "internalType": "address",
          "name": "adapter",
          "type": "address"
        },
        {
          "internalType": "uint256",
          "name": "maturity",
          "type": "uint256"
        },
        {
          "internalType": "uint256",
          "name": "uBal",
          "type": "uint256"
        },
        {
          "internalType": "uint256",
          "name": "minAccepted",
          "type": "uint256"
        }
      ],
      "name": "swapUnderlyingForYTs",
      "outputs": [
        {
          "internalType": "uint256",
          "name": "ytBal",
          "type": "uint256"
        }
      ],
      "stateMutability": "nonpayable",
      "type": "function"
    },
    {
      "inputs": [
        {
          "internalType": "address",
          "name": "adapter",
          "type": "address"
        },
        {
          "internalType": "uint256",
          "name": "maturity",
          "type": "uint256"
        },
        {
          "internalType": "uint256",
          "name": "ytBal",
          "type": "uint256"
        }
      ],
      "name": "swapYTsForTarget",
      "outputs": [
        {
          "internalType": "uint256",
          "name": "tBal",
          "type": "uint256"
        }
      ],
      "stateMutability": "nonpayable",
      "type": "function"
    },
    {
      "inputs": [
        {
          "internalType": "address",
          "name": "adapter",
          "type": "address"
        },
        {
          "internalType": "uint256",
          "name": "maturity",
          "type": "uint256"
        },
        {
          "internalType": "uint256",
          "name": "ytBal",
          "type": "uint256"
        }
      ],
      "name": "swapYTsForUnderlying",
      "outputs": [
        {
          "internalType": "uint256",
          "name": "uBal",
          "type": "uint256"
        }
      ],
      "stateMutability": "nonpayable",
      "type": "function"
    },
    {
      "inputs": [
        {
          "internalType": "address",
          "name": "",
          "type": "address"
        }
      ],
      "name": "verified",
      "outputs": [
        {
          "internalType": "bool",
          "name": "",
          "type": "bool"
        }
      ],
      "stateMutability": "view",
      "type": "function"
    },
    {
      "inputs": [
        {
          "internalType": "address",
          "name": "adapter",
          "type": "address"
        },
        {
          "internalType": "bool",
          "name": "addToPool",
          "type": "bool"
        }
      ],
      "name": "verifyAdapter",
      "outputs": [],
      "stateMutability": "nonpayable",
      "type": "function"
    }
  ],
  "transactionHash": "0x834cb0745b4816b60c1c2bfa13d092a325a4a93336a324206a9f5512bc5a4ced",
  "args": [
    "0xe42fc83A7B91160E9EC549e6B3935e72C5A436F8",
    "0xc2Cbeff55cEfd57Fb64e177A57463d3Ec7e29d88",
    "0xB583370107831b76F93E3977b8b69C691c67B1a0",
    "0x22342ca91e649fA9f9dB01Fa8FE8679e8e2ddbE2"
  ],
  "numDeployments": 1,
  "solcInputHash": "75f4fcb7939c57656ec53f8d567e8f44",
  "bytecode": "0x6101006040523480156200001257600080fd5b5060405162004f3c38038062004f3c8339810160408190526200003591620000c7565b3360008181526020818152604091829020805460ff19166001908117909155915191825282917fe95aec380cae16330d146d5499ef7db6f3657e477104a733e771bc09e500d986910160405180910390a2506001600160a01b0393841660805291831660a052821660c0521660e05262000124565b80516001600160a01b0381168114620000c257600080fd5b919050565b60008060008060808587031215620000de57600080fd5b620000e985620000aa565b9350620000f960208601620000aa565b92506200010960408601620000aa565b91506200011960608601620000aa565b905092959194509250565b60805160a05160c05160e051614cd46200026860003960008181610214015281816120e1015281816121c701528181612e1d0152818161344d015281816137690152818161385401528181613dea0152613ef50152600081816103b60152818161098801528181610a8901528181610c49015281816123bb015281816127a301528181612a0301528181612cab0152818161305101526133b901526000818161046b015281816109570152611c7d0152600081816102f50152818161082f015281816108b401528181610bcb01528181610e5501528181610f830152818161184b01528181611bde01528181611e430152818161201901528181612328015281816124e0015281816125f1015281816126e50152818161297001528181612b5c015281816130f80152818161317b0152818161331f015261362d0152614cd46000f3fe608060405234801561001057600080fd5b506004361061018f5760003560e01c806371013c10116100e4578063a239739611610092578063a239739614610421578063b16bdcfe14610434578063bbaed6bd14610447578063ce3a91281461045a578063dc4c90d314610466578063f8e8801e1461048d578063fab52689146104a0578063fdb8c046146104c357600080fd5b806371013c101461037857806376fe37b31461038b5780637ab71cb01461039e578063857bee5f146103b15780638f1f30f0146103d857806396d64879146103eb57806397a27fbf1461040e57600080fd5b80632d673b7b116101415780632d673b7b146102aa578063318d3c37146102dd578063378efa37146102f0578063457dcd291461031757806347c7a2121461032a57806349c569cb1461033d578063560c98761461036557600080fd5b80630db065f4146101945780630f8b15d3146101cc5780631393916a146101fa578063158274a51461020f5780631c1c6751146102435780631fc3e7331461025657806323e30c8b14610289575b600080fd5b6101b76101a2366004614050565b60026020526000908152604090205460ff1681565b60405190151581526020015b60405180910390f35b6101df6101da36600461407c565b6104cf565b604080519384526020840192909252908201526060016101c3565b61020d6102083660046140dc565b61056b565b005b6102367f000000000000000000000000000000000000000000000000000000000000000081565b6040516101c39190614115565b610236610251366004614129565b610600565b610269610264366004614157565b610787565b604080516001600160a01b039384168152929091166020830152016101c3565b61029c610297366004614199565b610b47565b6040519081526020016101c3565b6102bd6102b8366004614319565b611056565b6040805194855260208501939093529183015260608201526080016101c3565b61020d6102eb3660046140dc565b61118f565b6102367f000000000000000000000000000000000000000000000000000000000000000081565b61029c6103253660046143d5565b6111cc565b61029c6103383660046143d5565b61125b565b61035061034b366004614410565b6112b6565b604080519283526020830191909152016101c3565b61029c610373366004614490565b61138d565b61020d6103863660046140dc565b611457565b61029c6103993660046143d5565b61151a565b6101df6103ac36600461407c565b61156c565b6102367f000000000000000000000000000000000000000000000000000000000000000081565b61029c6103e63660046143d5565b61167b565b6101b76103f9366004614050565b60006020819052908152604090205460ff1681565b61029c61041c3660046143d5565b61177e565b61020d61042f3660046140dc565b611849565b61029c610442366004614490565b611910565b61029c6104553660046143d5565b61196a565b61029c64e8d4a5100081565b6102367f000000000000000000000000000000000000000000000000000000000000000081565b61035061049b366004614410565b611a62565b6101b76104ae366004614050565b60016020526000908152604090205460ff1681565b61029c6402540be40081565b600080600061054d3330888b6001600160a01b031663d4b839926040518163ffffffff1660e01b8152600401602060405180830381865afa158015610518573d6000803e3d6000fd5b505050506040513d601f19601f8201168201806040525081019061053c91906144c5565b6001600160a01b0316929190611ac9565b61055a8888888888611b5d565b919a90995090975095505050505050565b3360009081526020819052604090205460ff166105a35760405162461bcd60e51b815260040161059a906144e2565b60405180910390fd5b6001600160a01b03821660008181526020818152604091829020805460ff191685151590811790915591519182527fe95aec380cae16330d146d5499ef7db6f3657e477104a733e771bc09e500d986910160405180910390a25050565b6001600160a01b03821660009081526001602052604081205460ff166106395760405163722ceb5560e11b815260040160405180910390fd5b604051637b51e92760e11b81526001600160a01b0384169063f6a3d24e90610665908590600401614115565b6020604051808303816000875af1158015610684573d6000803e3d6000fd5b505050506040513d601f19601f820116820180604052508101906106a89190614505565b6106c557604051635154a56760e11b815260040160405180910390fd5b60405163639cc27960e01b81526001600160a01b0384169063639cc279906106f1908590600401614115565b6020604051808303816000875af1158015610710573d6000803e3d6000fd5b505050506040513d601f19601f8201168201806040525081019061073491906144c5565b6040519091506001600160a01b038216907f5c4dabb7dca79d442edd65b39b410aef25f4eea4a498150e7e442d5ca508f6d590600090a2610776816001611c52565b610781816001611db8565b92915050565b600080600080866001600160a01b03166327b327d06040518163ffffffff1660e01b8152600401606060405180830381865afa1580156107cb573d6000803e3d6000fd5b505050506040513d601f19601f820116820180604052508101906107ef9190614522565b909350915061080b90506001600160a01b038316333084611ac9565b60405163095ea7b360e01b81526001600160a01b0383169063095ea7b390610859907f0000000000000000000000000000000000000000000000000000000000000000908590600401614565565b6020604051808303816000875af1158015610878573d6000803e3d6000fd5b505050506040513d601f19601f8201168201806040525081019061089c9190614505565b50604051631f1cb97760e11b81526001600160a01b037f00000000000000000000000000000000000000000000000000000000000000001690633e3972ee906108ed908a908a90339060040161457e565b60408051808303816000875af115801561090b573d6000803e3d6000fd5b505050506040513d601f19601f8201168201806040525081019061092f91906145a1565b6001600160a01b038916600090815260026020526040902054919550935060ff1615610a6c577f00000000000000000000000000000000000000000000000000000000000000006001600160a01b0316635e88382388887f00000000000000000000000000000000000000000000000000000000000000006001600160a01b0316630ecaea738c8c6040518363ffffffff1660e01b81526004016109d4929190614565565b6020604051808303816000875af11580156109f3573d6000803e3d6000fd5b505050506040513d601f19601f82011682018060405250810190610a1791906144c5565b6040518463ffffffff1660e01b8152600401610a359392919061457e565b600060405180830381600087803b158015610a4f57600080fd5b505af1158015610a63573d6000803e3d6000fd5b50505050610b05565b8415610b0557604051630ecaea7360e01b81526001600160a01b037f00000000000000000000000000000000000000000000000000000000000000001690630ecaea7390610ac0908a908a90600401614565565b6020604051808303816000875af1158015610adf573d6000803e3d6000fd5b505050506040513d601f19601f82011682018060405250810190610b0391906144c5565b505b604051339087906001600160a01b038a16907fe385633dd30b0221b25f7a6f7e18c5992b339b5686322abe8ceb999e81249cd190600090a45050935093915050565b6000808080610b5885870187614490565b91945092509050336001600160a01b03841614610b8857604051632668780560e11b815260040160405180910390fd5b6001600160a01b038a163014610bb157604051630295451160e31b815260040160405180910390fd5b60405163574e779560e01b81526000906001600160a01b037f0000000000000000000000000000000000000000000000000000000000000000169063574e779590610c029087908790600401614565565b602060405180830381865afa158015610c1f573d6000803e3d6000fd5b505050506040513d601f19601f82011682018060405250810190610c4391906144c5565b905060007f00000000000000000000000000000000000000000000000000000000000000006001600160a01b0316638f38a55586866040518363ffffffff1660e01b8152600401610c95929190614565565b602060405180830381865afa158015610cb2573d6000803e3d6000fd5b505050506040513d601f19601f82011682018060405250810190610cd691906144c5565b905060006009836001600160a01b031663313ce5676040518163ffffffff1660e01b8152600401602060405180830381865afa158015610d1a573d6000803e3d6000fd5b505050506040513d601f19601f82011682018060405250810190610d3e91906145d0565b60ff1610610dd257826001600160a01b031663313ce5676040518163ffffffff1660e01b8152600401602060405180830381865afa158015610d84573d6000803e3d6000fd5b505050506040513d601f19601f82011682018060405250810190610da891906145d0565b610db3906012614603565b610dbe90600a61470a565b610dcd906402540be400614719565b610dd5565b60015b90506000610f3f876001600160a01b031663d4b839926040518163ffffffff1660e01b8152600401602060405180830381865afa158015610e1a573d6000803e3d6000fd5b505050506040513d601f19601f82011682018060405250810190610e3e91906144c5565b60405163d10eb4b960e01b81526001600160a01b037f0000000000000000000000000000000000000000000000000000000000000000169063d10eb4b990610e8c908c908c90600401614565565b602060405180830381865afa158015610ea9573d6000803e3d6000fd5b505050506040513d601f19601f82011682018060405250810190610ecd91906144c5565b8e866001600160a01b03166338fff2d06040518163ffffffff1660e01b8152600401602060405180830381865afa158015610f0c573d6000803e3d6000fd5b505050506040513d601f19601f82011682018060405250810190610f30919061473b565b610f3a878b614754565b6120ba565b9050610f4b828661476b565b8110158015610f635750610f5f8286614754565b8111155b15610f81576040516351eb56bb60e01b815260040160405180910390fd5b7f00000000000000000000000000000000000000000000000000000000000000006001600160a01b031663ba89bebd8888888510610fbf5788610fc1565b845b6040518463ffffffff1660e01b8152600401610fdf93929190614783565b6020604051808303816000875af1158015610ffe573d6000803e3d6000fd5b505050506040513d601f19601f82011682018060405250810190611022919061473b565b507f439148f0bbc682ca079e46d6e2c2f0c1e3b820f1a291b069d8882abf8cf18dd99e9d5050505050505050505050505050565b6000806000808c6001600160a01b031663d4b839926040518163ffffffff1660e01b8152600401602060405180830381865afa15801561109a573d6000803e3d6000fd5b505050506040513d601f19601f820116820180604052508101906110be91906144c5565b6001600160a01b03168e6001600160a01b031663d4b839926040518163ffffffff1660e01b8152600401602060405180830381865afa158015611105573d6000803e3d6000fd5b505050506040513d601f19601f8201168201806040525081019061112991906144c5565b6001600160a01b031614611150576040516373f3f92760e01b815260040160405180910390fd5b60006111608f8e8d8d8d8c6122bb565b925090506111718e8d838b8a611b5d565b809550819650829750505050509a509a509a509a9650505050505050565b3360009081526020819052604090205460ff166111be5760405162461bcd60e51b815260040161059a906144e2565b6111c88282611c52565b5050565b60006111da858585856126e0565b90506112533382876001600160a01b031663d4b839926040518163ffffffff1660e01b8152600401602060405180830381865afa15801561121f573d6000803e3d6000fd5b505050506040513d601f19601f8201168201806040525081019061124391906144c5565b6001600160a01b031691906128ec565b949350505050565b60006112a1333085886001600160a01b031663d4b839926040518163ffffffff1660e01b8152600401602060405180830381865afa158015610518573d6000803e3d6000fd5b6112ad8585858561296b565b95945050505050565b60008060006112c98989898989896122bb565b6040516351c39ea160e01b8152600481018390529093509091506113819033906001600160a01b038c16906351c39ea1906024016020604051808303816000875af115801561131c573d6000803e3d6000fd5b505050506040513d601f19601f82011682018060405250810190611340919061473b565b9450848b6001600160a01b0316636f307dc36040518163ffffffff1660e01b8152600401602060405180830381865afa15801561121f573d6000803e3d6000fd5b50965096945050505050565b60008061139c33868686612b57565b6040516351c39ea160e01b8152600481018290529091506001600160a01b038616906351c39ea1906024016020604051808303816000875af11580156113e6573d6000803e3d6000fd5b505050506040513d601f19601f8201168201806040525081019061140a919061473b565b915061144f3383876001600160a01b0316636f307dc36040518163ffffffff1660e01b8152600401602060405180830381865afa15801561121f573d6000803e3d6000fd5b509392505050565b3360009081526020819052604090205460ff166114865760405162461bcd60e51b815260040161059a906144e2565b6001600160a01b03821660009081526001602052604090205460ff16151581151514156114c6576040516338af801d60e21b815260040160405180910390fd5b6001600160a01b038216600081815260016020526040808220805460ff191685151590811790915590519092917fe63b400aabb14e166c6cf1b963fc9332222bc4dfe22a7fa4a487411d6cb83b3191a35050565b6000611560333085886001600160a01b031663d4b839926040518163ffffffff1660e01b8152600401602060405180830381865afa158015610518573d6000803e3d6000fd5b6112ad8585858561304c565b600080600080886001600160a01b0316636f307dc36040518163ffffffff1660e01b8152600401602060405180830381865afa1580156115b0573d6000803e3d6000fd5b505050506040513d601f19601f820116820180604052508101906115d491906144c5565b90506115eb6001600160a01b03821633308a611ac9565b604051634aae9fed60e01b8152600481018890526000906001600160a01b038b1690634aae9fed906024016020604051808303816000875af1158015611635573d6000803e3d6000fd5b505050506040513d601f19601f82011682018060405250810190611659919061473b565b90506116688a8a838a8a611b5d565b919c909b50909950975050505050505050565b600080856001600160a01b0316636f307dc36040518163ffffffff1660e01b8152600401602060405180830381865afa1580156116bc573d6000803e3d6000fd5b505050506040513d601f19601f820116820180604052508101906116e091906144c5565b90506116f76001600160a01b038216333087611ac9565b604051634aae9fed60e01b8152600481018590526000906001600160a01b03881690634aae9fed906024016020604051808303816000875af1158015611741573d6000803e3d6000fd5b505050506040513d601f19601f82011682018060405250810190611765919061473b565b90506117738787838761296b565b979650505050505050565b60008061178d868686866126e0565b6040516351c39ea160e01b8152600481018290529091506001600160a01b038716906351c39ea1906024016020604051808303816000875af11580156117d7573d6000803e3d6000fd5b505050506040513d601f19601f820116820180604052508101906117fb919061473b565b91506118403383886001600160a01b0316636f307dc36040518163ffffffff1660e01b8152600401602060405180830381865afa15801561121f573d6000803e3d6000fd5b50949350505050565b7f00000000000000000000000000000000000000000000000000000000000000006001600160a01b031663a1256f9f6040518163ffffffff1660e01b8152600401602060405180830381865afa1580156118a7573d6000803e3d6000fd5b505050506040513d601f19601f820116820180604052508101906118cb9190614505565b1580156118e857503360009081526020819052604090205460ff16155b15611906576040516321c64d4b60e21b815260040160405180910390fd5b6111c88282611db8565b600061191e33858585612b57565b90506119633382866001600160a01b031663d4b839926040518163ffffffff1660e01b8152600401602060405180830381865afa15801561121f573d6000803e3d6000fd5b9392505050565b600080856001600160a01b0316636f307dc36040518163ffffffff1660e01b8152600401602060405180830381865afa1580156119ab573d6000803e3d6000fd5b505050506040513d601f19601f820116820180604052508101906119cf91906144c5565b90506119e66001600160a01b038216333087611ac9565b604051634aae9fed60e01b8152600481018590526000906001600160a01b03881690634aae9fed906024016020604051808303816000875af1158015611a30573d6000803e3d6000fd5b505050506040513d601f19601f82011682018060405250810190611a54919061473b565b90506117738787838761304c565b600080611a738888888888886122bb565b8092508193505050611abe33838a6001600160a01b031663d4b839926040518163ffffffff1660e01b8152600401602060405180830381865afa15801561121f573d6000803e3d6000fd5b965096945050505050565b60006040516323b872dd60e01b81526001600160a01b03851660048201526001600160a01b038416602482015282604482015260008060648360008a5af1915050611b138161336b565b611b565760405162461bcd60e51b81526020600482015260146024820152731514905394d1915497d19493d357d1905253115160621b604482015260640161059a565b5050505050565b6000806000611b6e888888876133b2565b90925090508115611c475760ff8516611bd757611b8d30898985612b57565b9250611bd233848a6001600160a01b031663d4b839926040518163ffffffff1660e01b8152600401602060405180830381865afa15801561121f573d6000803e3d6000fd5b611c47565b611c4733837f00000000000000000000000000000000000000000000000000000000000000006001600160a01b031663574e77958c8c6040518363ffffffff1660e01b8152600401611c2a929190614565565b602060405180830381865afa15801561121f573d6000803e3d6000fd5b955095509592505050565b6001600160a01b0382166000908152600260205260409020805460ff191660011790558015611d80577f00000000000000000000000000000000000000000000000000000000000000006001600160a01b0316631ec64fef836001600160a01b031663d4b839926040518163ffffffff1660e01b8152600401602060405180830381865afa158015611ce8573d6000803e3d6000fd5b505050506040513d601f19601f82011682018060405250810190611d0c91906144c5565b6040516001600160e01b031960e084901b1681526001600160a01b03918216600482015290851660248201526044016020604051808303816000875af1158015611d5a573d6000803e3d6000fd5b505050506040513d601f19601f82011682018060405250810190611d7e91906144c5565b505b6040516001600160a01b038316907ff9f4ea4fb47406a3baf9adc8bd38b1c82e5a5fee5de9b3c5af3218400fb530c090600090a25050565b6000826001600160a01b031663d4b839926040518163ffffffff1660e01b8152600401602060405180830381865afa158015611df8573d6000803e3d6000fd5b505050506040513d601f19601f82011682018060405250810190611e1c91906144c5565b60405163095ea7b360e01b81529091506001600160a01b0382169063095ea7b390611e6f907f00000000000000000000000000000000000000000000000000000000000000009060001990600401614565565b6020604051808303816000875af1158015611e8e573d6000803e3d6000fd5b505050506040513d601f19601f82011682018060405250810190611eb29190614505565b5060405163095ea7b360e01b81526001600160a01b0382169063095ea7b390611ee390869060001990600401614565565b6020604051808303816000875af1158015611f02573d6000803e3d6000fd5b505050506040513d601f19601f82011682018060405250810190611f269190614505565b50826001600160a01b0316636f307dc36040518163ffffffff1660e01b8152600401602060405180830381865afa158015611f65573d6000803e3d6000fd5b505050506040513d601f19601f82011682018060405250810190611f8991906144c5565b6001600160a01b031663095ea7b3846000196040518363ffffffff1660e01b8152600401611fb8929190614565565b6020604051808303816000875af1158015611fd7573d6000803e3d6000fd5b505050506040513d601f19601f82011682018060405250810190611ffb9190614505565b508115612081576040516360d54d4160e01b81526001600160a01b037f000000000000000000000000000000000000000000000000000000000000000016906360d54d419061204e908690600401614115565b600060405180830381600087803b15801561206857600080fd5b505af115801561207c573d6000803e3d6000fd5b505050505b6040516001600160a01b038416907fae4a2338a83fc8bfaca3a6cbb54494b5c00e9d8a65dc9cf39135b00da497798290600090a2505050565b60405163095ea7b360e01b81526000906001600160a01b0387169063095ea7b39061210b907f0000000000000000000000000000000000000000000000000000000000000000908890600401614565565b6020604051808303816000875af115801561212a573d6000803e3d6000fd5b505050506040513d601f19601f8201168201806040525081019061214e9190614505565b506040805160c081018252848152600060208083018290526001600160a01b03808b168486015289811660608086019190915260808086018b90528651808501885285815260a087015286519081018752308082529381018590528087019390935282019290925292516352bbbe2960e01b81529192917f0000000000000000000000000000000000000000000000000000000000000000909116906352bbbe29906122069085908590899060001990600401614829565b6020604051808303816000875af1158015612225573d6000803e3d6000fd5b505050506040513d601f19601f82011682018060405250810190612249919061473b565b604080516001600160a01b038b811682528a166020820152908101889052606081018290529093506001600160e01b03196000351690869033907f771a8215d0541283507c0ebd99d6a6406b7254dc8feccdaa6c160c305d68d7489060800160405180910390a4505095945050505050565b6000806000886001600160a01b031663d4b839926040518163ffffffff1660e01b8152600401602060405180830381865afa1580156122fe573d6000803e3d6000fd5b505050506040513d601f19601f8201168201806040525081019061232291906144c5565b905060007f00000000000000000000000000000000000000000000000000000000000000006001600160a01b031663d10eb4b98b8b6040518363ffffffff1660e01b8152600401612374929190614565565b602060405180830381865afa158015612391573d6000803e3d6000fd5b505050506040513d601f19601f820116820180604052508101906123b591906144c5565b905060007f00000000000000000000000000000000000000000000000000000000000000006001600160a01b0316638f38a5558c8c6040518363ffffffff1660e01b8152600401612407929190614565565b602060405180830381865afa158015612424573d6000803e3d6000fd5b505050506040513d601f19601f8201168201806040525081019061244891906144c5565b90506000816001600160a01b03166338fff2d06040518163ffffffff1660e01b8152600401602060405180830381865afa15801561248a573d6000803e3d6000fd5b505050506040513d601f19601f820116820180604052508101906124ae919061473b565b90506124c56001600160a01b03831633308d611ac9565b60006124d48285878d8f613762565b809250819850505060007f00000000000000000000000000000000000000000000000000000000000000006001600160a01b03166395197d308f8f6040518363ffffffff1660e01b815260040161252c929190614565565b602060405180830381865afa158015612549573d6000803e3d6000fd5b505050506040513d601f19601f8201168201806040525081019061256d919061473b565b1115612693576125e28d6001600160a01b0316636fd5ae156040518163ffffffff1660e01b8152600401602060405180830381865afa1580156125b4573d6000803e3d6000fd5b505050506040513d601f19601f820116820180604052508101906125d8919061473b565b6010908116141590565b156125ef578095506126b6565b7f00000000000000000000000000000000000000000000000000000000000000006001600160a01b0316632b83cccd8e8e846040518463ffffffff1660e01b815260040161263f93929190614783565b6020604051808303816000875af115801561265e573d6000803e3d6000fd5b505050506040513d601f19601f82011682018060405250810190612682919061473b565b61268c908861476b565b96506126b6565b6000811180156126a05750875b156126b257612682848683858d6120ba565b8095505b85156126d0576126d06001600160a01b03851633886128ec565b5050505050965096945050505050565b6000807f00000000000000000000000000000000000000000000000000000000000000006001600160a01b031663d10eb4b987876040518363ffffffff1660e01b8152600401612731929190614565565b602060405180830381865afa15801561274e573d6000803e3d6000fd5b505050506040513d601f19601f8201168201806040525081019061277291906144c5565b90506127896001600160a01b038216333087611ac9565b604051638f38a55560e01b81526000906001600160a01b037f00000000000000000000000000000000000000000000000000000000000000001690638f38a555906127da908a908a90600401614565565b602060405180830381865afa1580156127f7573d6000803e3d6000fd5b505050506040513d601f19601f8201168201806040525081019061281b91906144c5565b905061177382886001600160a01b031663d4b839926040518163ffffffff1660e01b8152600401602060405180830381865afa15801561285f573d6000803e3d6000fd5b505050506040513d601f19601f8201168201806040525081019061288391906144c5565b87846001600160a01b03166338fff2d06040518163ffffffff1660e01b8152600401602060405180830381865afa1580156128c2573d6000803e3d6000fd5b505050506040513d601f19601f820116820180604052508101906128e6919061473b565b886120ba565b600060405163a9059cbb60e01b81526001600160a01b03841660048201528260248201526000806044836000895af19150506129278161336b565b6129655760405162461bcd60e51b815260206004820152600f60248201526e1514905394d1915497d19052531151608a1b604482015260640161059a565b50505050565b6000807f00000000000000000000000000000000000000000000000000000000000000006001600160a01b031663d10eb4b987876040518363ffffffff1660e01b81526004016129bc929190614565565b602060405180830381865afa1580156129d9573d6000803e3d6000fd5b505050506040513d601f19601f820116820180604052508101906129fd91906144c5565b905060007f00000000000000000000000000000000000000000000000000000000000000006001600160a01b0316638f38a55588886040518363ffffffff1660e01b8152600401612a4f929190614565565b602060405180830381865afa158015612a6c573d6000803e3d6000fd5b505050506040513d601f19601f82011682018060405250810190612a9091906144c5565b9050612b37876001600160a01b031663d4b839926040518163ffffffff1660e01b8152600401602060405180830381865afa158015612ad3573d6000803e3d6000fd5b505050506040513d601f19601f82011682018060405250810190612af791906144c5565b8387846001600160a01b03166338fff2d06040518163ffffffff1660e01b8152600401602060405180830381865afa1580156128c2573d6000803e3d6000fd5b9250612b4d6001600160a01b03831633856128ec565b5050949350505050565b6000807f00000000000000000000000000000000000000000000000000000000000000006001600160a01b031663574e779586866040518363ffffffff1660e01b8152600401612ba8929190614565565b602060405180830381865afa158015612bc5573d6000803e3d6000fd5b505050506040513d601f19601f82011682018060405250810190612be991906144c5565b905064e8d4a51000816001600160a01b031663313ce5676040518163ffffffff1660e01b8152600401602060405180830381865afa158015612c2f573d6000803e3d6000fd5b505050506040513d601f19601f82011682018060405250810190612c5391906145d0565b612c5e906012614603565b612c6990600a61470a565b612c7390856148e4565b11612c91576040516340a037a360e11b815260040160405180910390fd5b604051638f38a55560e01b81526000906001600160a01b037f00000000000000000000000000000000000000000000000000000000000000001690638f38a55590612ce29089908990600401614565565b602060405180830381865afa158015612cff573d6000803e3d6000fd5b505050506040513d601f19601f82011682018060405250810190612d2391906144c5565b90506001600160a01b0387163014612d4a57612d4a6001600160a01b038316333087611ac9565b6000816001600160a01b03166338fff2d06040518163ffffffff1660e01b8152600401602060405180830381865afa158015612d8a573d6000803e3d6000fd5b505050506040513d601f19601f82011682018060405250810190612dae919061473b565b9050600080836001600160a01b0316635863056d6040518163ffffffff1660e01b81526004016040805180830381865afa158015612df0573d6000803e3d6000fd5b505050506040513d601f19601f82011682018060405250810190612e149190614903565b915091506000807f00000000000000000000000000000000000000000000000000000000000000006001600160a01b031663f94d4668866040518263ffffffff1660e01b8152600401612e6991815260200190565b600060405180830381865afa158015612e86573d6000803e3d6000fd5b505050506040513d6000823e601f3d908101601f19168201604052612eae9190810190614982565b50915091506000866001600160a01b0316639d2c110c604051806101200160405280600180811115612ee257612ee26147a4565b8152602001868881518110612ef957612ef9614a50565b60200260200101516001600160a01b03168152602001868981518110612f2157612f21614a50565b60200260200101516001600160a01b031681526020018d81526020018981526020016000815260200160006001600160a01b0316815260200160006001600160a01b0316815260200160405180602001604052806000815250815250848781518110612f8f57612f8f614a50565b6020026020010151858981518110612fa957612fa9614a50565b60200260200101516040518463ffffffff1660e01b8152600401612fcf93929190614a66565b6020604051808303816000875af1158015612fee573d6000803e3d6000fd5b505050506040513d601f19601f82011682018060405250810190613012919061473b565b905061303b60405180604001604052806002815260200161060f60f31b8152508d8d8d856139c2565b9d9c50505050505050505050505050565b6000807f00000000000000000000000000000000000000000000000000000000000000006001600160a01b0316638f38a55587876040518363ffffffff1660e01b815260040161309d929190614565565b602060405180830381865afa1580156130ba573d6000803e3d6000fd5b505050506040513d601f19601f820116820180604052508101906130de91906144c5565b604051631bfcbde960e31b81529091506001600160a01b037f0000000000000000000000000000000000000000000000000000000000000000169063dfe5ef489061313190899089908990600401614783565b6020604051808303816000875af1158015613150573d6000803e3d6000fd5b505050506040513d601f19601f82011682018060405250810190613174919061473b565b91506132d37f00000000000000000000000000000000000000000000000000000000000000006001600160a01b031663d10eb4b988886040518363ffffffff1660e01b81526004016131c7929190614565565b602060405180830381865afa1580156131e4573d6000803e3d6000fd5b505050506040513d601f19601f8201168201806040525081019061320891906144c5565b876001600160a01b031663d4b839926040518163ffffffff1660e01b8152600401602060405180830381865afa158015613246573d6000803e3d6000fd5b505050506040513d601f19601f8201168201806040525081019061326a91906144c5565b84846001600160a01b03166338fff2d06040518163ffffffff1660e01b8152600401602060405180830381865afa1580156132a9573d6000803e3d6000fd5b505050506040513d601f19601f820116820180604052508101906132cd919061473b565b876120ba565b93506133183385886001600160a01b031663d4b839926040518163ffffffff1660e01b8152600401602060405180830381865afa15801561121f573d6000803e3d6000fd5b61184033837f00000000000000000000000000000000000000000000000000000000000000006001600160a01b031663574e77958a8a6040518363ffffffff1660e01b8152600401611c2a929190614565565b60003d8261337d57806000803e806000fd5b80602081146133955780156133a657600092506133ab565b816000803e600051151592506133ab565b600192505b5050919050565b60008060007f00000000000000000000000000000000000000000000000000000000000000006001600160a01b0316638f38a55588886040518363ffffffff1660e01b8152600401613405929190614565565b602060405180830381865afa158015613422573d6000803e3d6000fd5b505050506040513d601f19601f8201168201806040525081019061344691906144c5565b90506000807f00000000000000000000000000000000000000000000000000000000000000006001600160a01b031663f94d4668846001600160a01b03166338fff2d06040518163ffffffff1660e01b8152600401602060405180830381865afa1580156134b8573d6000803e3d6000fd5b505050506040513d601f19601f820116820180604052508101906134dc919061473b565b6040518263ffffffff1660e01b81526004016134fa91815260200190565b600060405180830381865afa158015613517573d6000803e3d6000fd5b505050506040513d6000823e601f3d908101601f1916820160405261353f9190810190614982565b5091509150600080846001600160a01b0316635863056d6040518163ffffffff1660e01b81526004016040805180830381865afa158015613584573d6000803e3d6000fd5b505050506040513d601f19601f820116820180604052508101906135a89190614903565b9150915060008383815181106135c0576135c0614a50565b60200260200101516000141590506000816135dc57600061361a565b61361a8d8686815181106135f2576135f2614a50565b602002602001015187868151811061360c5761360c614a50565b60200260200101518e613b64565b90506000811161362b5760006136be565b7f00000000000000000000000000000000000000000000000000000000000000006001600160a01b031663dfe5ef488e8e846040518463ffffffff1660e01b815260040161367b93929190614783565b6020604051808303816000875af115801561369a573d6000803e3d6000fd5b505050506040513d601f19601f820116820180604052508101906136be919061473b565b604080516002808252606082018352929b5060009290916020830190803683370190505090506136ee828d614754565b81858151811061370057613700614a50565b6020026020010181815250508981868151811061371f5761371f614a50565b60200260200101818152505061374f8860405180606001604052808a81526020018481526020018e815250613d41565b9850505050505050505094509492505050565b60008060007f00000000000000000000000000000000000000000000000000000000000000006001600160a01b031663f94d4668896040518263ffffffff1660e01b81526004016137b591815260200190565b600060405180830381865afa1580156137d2573d6000803e3d6000fd5b505050506040513d6000823e601f3d908101601f191682016040526137fa9190810190614982565b5050905060006138078290565b9050600060405180608001604052808381526020018881526020018760405160200161383591815260200190565b60405160208183030381529060405281526020016000151581525090507f00000000000000000000000000000000000000000000000000000000000000006001600160a01b0316638bdb39138b3030856040518563ffffffff1660e01b81526004016138a49493929190614bf7565b600060405180830381600087803b1580156138be57600080fd5b505af11580156138d2573d6000803e3d6000fd5b50506040516370a0823160e01b81526001600160a01b038b1692506370a082319150613902903090600401614115565b602060405180830381865afa15801561391f573d6000803e3d6000fd5b505050506040513d601f19601f82011682018060405250810190613943919061473b565b6040516370a0823160e01b81529095506001600160a01b038a16906370a0823190613972903090600401614115565b602060405180830381865afa15801561398f573d6000803e3d6000fd5b505050506040513d601f19601f820116820180604052508101906139b3919061473b565b93505050509550959350505050565b600080856001600160a01b031663d4b839926040518163ffffffff1660e01b8152600401602060405180830381865afa158015613a03573d6000803e3d6000fd5b505050506040513d601f19601f82011682018060405250810190613a2791906144c5565b90506000868686604051602001613a4093929190614783565b60408051601f1981840301815290829052632e7ff4ef60e11b825291506000906001600160a01b03891690635cffe9de90613a8590309087908a908890600401614c29565b6020604051808303816000875af1158015613aa4573d6000803e3d6000fd5b505050506040513d601f19601f82011682018060405250810190613ac89190614505565b6040516370a0823160e01b81529091506001600160a01b038416906370a0823190613af7903090600401614115565b602060405180830381865afa158015613b14573d6000803e3d6000fd5b505050506040513d601f19601f82011682018060405250810190613b38919061473b565b935080613b58576040516310f99cf760e31b815260040160405180910390fd5b50505095945050505050565b600080856001600160a01b031663d4b839926040518163ffffffff1660e01b8152600401602060405180830381865afa158015613ba5573d6000803e3d6000fd5b505050506040513d601f19601f82011682018060405250810190613bc991906144c5565b6001600160a01b031663313ce5676040518163ffffffff1660e01b8152600401602060405180830381865afa158015613c06573d6000803e3d6000fd5b505050506040513d601f19601f82011682018060405250810190613c2a91906145d0565b613c3590600a61470a565b90506000866001600160a01b031663b8c15a9f6040518163ffffffff1660e01b8152600401602060405180830381865afa158015613c77573d6000803e3d6000fd5b505050506040513d601f19601f82011682018060405250810190613c9b919061473b565b9050611773613d3987613d2788613d21613cbd87670de0b6b3a7640000614754565b8d6001600160a01b031663f51e181a6040518163ffffffff1660e01b81526004016020604051808303816000875af1158015613cfd573d6000803e3d6000fd5b505050506040513d601f19601f82011682018060405250810190613d21919061473b565b90613fee565b613d31919061476b565b889085614003565b859084614010565b600080836001600160a01b03166338fff2d06040518163ffffffff1660e01b8152600401602060405180830381865afa158015613d82573d6000803e3d6000fd5b505050506040513d601f19601f82011682018060405250810190613da6919061473b565b835190915060005b84515160ff82161015613e9d578451805160ff8316908110613dd257613dd2614a50565b60200260200101516001600160a01b031663095ea7b37f000000000000000000000000000000000000000000000000000000000000000087602001518460ff1681518110613e2257613e22614a50565b60200260200101516040518363ffffffff1660e01b8152600401613e47929190614565565b6020604051808303816000875af1158015613e66573d6000803e3d6000fd5b505050506040513d601f19601f82011682018060405250810190613e8a9190614505565b5080613e9581614c5c565b915050613dae565b50600060405180608001604052808381526020018660200151815260200186602001518760400151604051602001613ed6929190614c7c565b60405160208183030381529060405281526020016000151581525090507f00000000000000000000000000000000000000000000000000000000000000006001600160a01b031663b95cac28843033856040518563ffffffff1660e01b8152600401613f459493929190614bf7565b600060405180830381600087803b158015613f5f57600080fd5b505af1158015613f73573d6000803e3d6000fd5b50506040516370a0823160e01b81526001600160a01b03891692506370a082319150613fa3903390600401614115565b602060405180830381865afa158015613fc0573d6000803e3d6000fd5b505050506040513d601f19601f82011682018060405250810190613fe4919061473b565b9695505050505050565b60006119638383670de0b6b3a7640000614019565b6000611253848385614019565b60006112538484845b82820281151584158583048514171661403157600080fd5b0492915050565b6001600160a01b038116811461404d57600080fd5b50565b60006020828403121561406257600080fd5b813561196381614038565b60ff8116811461404d57600080fd5b600080600080600060a0868803121561409457600080fd5b853561409f81614038565b9450602086013593506040860135925060608601356140bd8161406d565b949793965091946080013592915050565b801515811461404d57600080fd5b600080604083850312156140ef57600080fd5b82356140fa81614038565b9150602083013561410a816140ce565b809150509250929050565b6001600160a01b0391909116815260200190565b6000806040838503121561413c57600080fd5b823561414781614038565b9150602083013561410a81614038565b60008060006060848603121561416c57600080fd5b833561417781614038565b925060208401359150604084013561418e816140ce565b809150509250925092565b60008060008060008060a087890312156141b257600080fd5b86356141bd81614038565b955060208701356141cd81614038565b94506040870135935060608701359250608087013567ffffffffffffffff808211156141f857600080fd5b818901915089601f83011261420c57600080fd5b81358181111561421b57600080fd5b8a602082850101111561422d57600080fd5b6020830194508093505050509295509295509295565b634e487b7160e01b600052604160045260246000fd5b604051601f8201601f1916810167ffffffffffffffff8111828210171561428257614282614243565b604052919050565b600067ffffffffffffffff8211156142a4576142a4614243565b5060051b60200190565b600082601f8301126142bf57600080fd5b813560206142d46142cf8361428a565b614259565b82815260059290921b840181019181810190868411156142f357600080fd5b8286015b8481101561430e57803583529183019183016142f7565b509695505050505050565b6000806000806000806000806000806101408b8d03121561433957600080fd5b8a3561434481614038565b995060208b013561435481614038565b985060408b0135975060608b0135965060808b0135955060a08b013567ffffffffffffffff81111561438557600080fd5b6143918d828e016142ae565b95505060c08b0135935060e08b01356143a98161406d565b92506101008b01356143ba816140ce565b809250506101208b013590509295989b9194979a5092959850565b600080600080608085870312156143eb57600080fd5b84356143f681614038565b966020860135965060408601359560600135945092505050565b60008060008060008060c0878903121561442957600080fd5b863561443481614038565b95506020870135945060408701359350606087013567ffffffffffffffff81111561445e57600080fd5b61446a89828a016142ae565b9350506080870135915060a0870135614482816140ce565b809150509295509295509295565b6000806000606084860312156144a557600080fd5b83356144b081614038565b95602085013595506040909401359392505050565b6000602082840312156144d757600080fd5b815161196381614038565b602080825260099082015268155395149554d5115160ba1b604082015260600190565b60006020828403121561451757600080fd5b8151611963816140ce565b60008060006060848603121561453757600080fd5b835161454281614038565b602085015190935061455381614038565b80925050604084015190509250925092565b6001600160a01b03929092168252602082015260400190565b6001600160a01b0393841681526020810192909252909116604082015260600190565b600080604083850312156145b457600080fd5b82516145bf81614038565b602084015190925061410a81614038565b6000602082840312156145e257600080fd5b81516119638161406d565b634e487b7160e01b600052601160045260246000fd5b600060ff821660ff84168082101561461d5761461d6145ed565b90039392505050565b600181815b80851115614661578160001904821115614647576146476145ed565b8085161561465457918102915b93841c939080029061462b565b509250929050565b60008261467857506001610781565b8161468557506000610781565b816001811461469b57600281146146a5576146c1565b6001915050610781565b60ff8411156146b6576146b66145ed565b50506001821b610781565b5060208310610133831016604e8410600b84101617156146e4575081810a610781565b6146ee8383614626565b8060001904821115614702576147026145ed565b029392505050565b600061196360ff841683614669565b60008261473657634e487b7160e01b600052601260045260246000fd5b500490565b60006020828403121561474d57600080fd5b5051919050565b600082821015614766576147666145ed565b500390565b6000821982111561477e5761477e6145ed565b500190565b6001600160a01b039390931683526020830191909152604082015260600190565b634e487b7160e01b600052602160045260246000fd5b600281106147d857634e487b7160e01b600052602160045260246000fd5b9052565b6000815180845260005b81811015614802576020818501810151868301820152016147e6565b81811115614814576000602083870101525b50601f01601f19169290920160200192915050565b60e08152845160e0820152600060208601516148496101008401826147ba565b5060408601516001600160a01b03908116610120840152606087015116610140830152608086015161016083015260a086015160c06101808401526148926101a08401826147dc565b9150506148d2602083018680516001600160a01b039081168352602080830151151590840152604080830151909116908301526060908101511515910152565b60a082019390935260c0015292915050565b60008160001904831182151516156148fe576148fe6145ed565b500290565b6000806040838503121561491657600080fd5b505080516020909101519092909150565b600082601f83011261493857600080fd5b815160206149486142cf8361428a565b82815260059290921b8401810191818101908684111561496757600080fd5b8286015b8481101561430e578051835291830191830161496b565b60008060006060848603121561499757600080fd5b835167ffffffffffffffff808211156149af57600080fd5b818601915086601f8301126149c357600080fd5b815160206149d36142cf8361428a565b82815260059290921b8401810191818101908a8411156149f257600080fd5b948201945b83861015614a19578551614a0a81614038565b825294820194908201906149f7565b91890151919750909350505080821115614a3257600080fd5b50614a3f86828701614927565b925050604084015190509250925092565b634e487b7160e01b600052603260045260246000fd5b60608152614a786060820185516147ba565b60006020850151614a9460808401826001600160a01b03169052565b5060408501516001600160a01b03811660a084015250606085015160c0830152608085015160e083015260a0850151610100818185015260c08701519150610120614ae9818601846001600160a01b03169052565b60e08801516001600160a01b0316610140860152908701516101608501919091529050614b1a6101808401826147dc565b6020840195909552505060400152919050565b600081518084526020808501945080840160005b83811015614b5d57815187529582019590820190600101614b41565b509495945050505050565b8051608080845281519084018190526000916020919082019060a0860190845b81811015614bad5783516001600160a01b031683529284019291840191600101614b88565b505082850151915085810383870152614bc68183614b2d565b9250505060408301518482036040860152614be182826147dc565b915050606083015161144f606086018215159052565b8481526001600160a01b03848116602083015283166040820152608060608201819052600090613fe490830184614b68565b6001600160a01b0385811682528416602082015260408101839052608060608201819052600090613fe4908301846147dc565b600060ff821660ff811415614c7357614c736145ed565b60010192915050565b604081526000614c8f6040830185614b2d565b9050826020830152939250505056fea2646970667358221220c7980b2dd85382ce822957814b0082fa48512558eaa9f5ef83665c1cbb35842b64736f6c634300080b0033",
  "devdoc": {
    "kind": "dev",
    "methods": {
      "addLiquidityFromTarget(address,uint256,uint256,uint8,uint256)": {
        "details": "see return description of _addLiquidity",
        "params": {
          "adapter": "Adapter address for the Series",
          "maturity": "Maturity date for the Series",
          "minBptOut": "Minimum BPT the user will accept out for this transaction",
          "mode": "0 = issues and sell YT, 1 = issue and hold YT",
          "tBal": "Balance of Target to provide"
        }
      },
      "addLiquidityFromUnderlying(address,uint256,uint256,uint8,uint256)": {
        "details": "see return description of _addLiquidity",
        "params": {
          "adapter": "Adapter address for the Series",
          "maturity": "Maturity date for the Series",
          "minBptOut": "Minimum BPT the user will accept out for this transaction",
          "mode": "0 = issues and sell YT, 1 = issue and hold YT",
          "uBal": "Balance of Underlying to provide"
        }
      },
      "deployAdapter(address,address)": {
        "details": "Called by external address, deploy a new Adapter via an Adapter Factory",
        "params": {
          "f": "Factory to use",
          "target": "Target to onboard"
        }
      },
      "migrateLiquidity(address,address,uint256,uint256,uint256,uint256[],uint256,uint8,bool,uint256)": {
        "details": "More info on `minAmountsOut`: https://github.com/balancer-labs/docs-developers/blob/main/resources/joins-and-exits/pool-exits.md#minamountsoutsee return description of _addLiquidity. It also returns amount of PTs (in case it's called after maturity and redeem is restricted or inttoTarget is false)",
        "params": {
          "dstAdapter": "Adapter address for the destination Series",
          "dstMaturity": "Maturity date for the destination Series",
          "intoTarget": "if true, it will try to swap PTs into Target. Will revert if there's not enough liquidity to perform the swap",
          "lpBal": "Balance of LP tokens to provide",
          "minAccepted": "Min accepted amount of target when swapping Principal Tokens (only used when removing liquidity on/after maturity)",
          "minAmountsOut": "Minimum accepted amounts of PTs and Target given the amount of LP shares provided",
          "minBptOut": "Minimum BPT the user will accept out for this transaction",
          "mode": "0 = issues and sell YT, 1 = issue and hold YT",
          "srcAdapter": "Adapter address for the source Series",
          "srcMaturity": "Maturity date for the source Series"
        }
      },
      "onFlashLoan(address,address,uint256,uint256,bytes)": {
        "details": "ERC-3156 Flash loan callback"
      },
      "onboardAdapter(address,bool)": {
        "details": "Called by a trusted address, approves Target for issuance, and onboards adapter to the Divider",
        "params": {
          "adapter": "Adapter to onboard",
          "addAdapter": "Whether to call divider.addAdapter or not (useful e.g when upgrading Periphery)"
        }
      },
      "removeLiquidity(address,uint256,uint256,uint256[],uint256,bool)": {
        "details": "More info on `minAmountsOut`: https://github.com/balancer-labs/docs-developers/blob/main/resources/joins-and-exits/pool-exits.md#minamountsout",
        "params": {
          "adapter": "Adapter address for the Series",
          "intoTarget": "if true, it will try to swap PTs into Target. Will revert if there's not enough liquidity to perform the swap.",
          "lpBal": "Balance of LP tokens to provide",
          "maturity": "Maturity date for the Series",
          "minAccepted": "only used when removing liquidity on/after maturity and its the min accepted when swapping Principal Tokens to underlying",
          "minAmountsOut": "minimum accepted amounts of PTs and Target given the amount of LP shares provided"
        },
        "returns": {
          "tBal": "amount of target received and ptBal amount of Principal Tokens (in case it's called after maturity and redeem is restricted)"
        }
      },
      "removeLiquidityAndUnwrapTarget(address,uint256,uint256,uint256[],uint256,bool)": {
        "details": "More info on `minAmountsOut`: https://github.com/balancer-labs/docs-developers/blob/main/resources/joins-and-exits/pool-exits.md#minamountsout",
        "params": {
          "adapter": "Adapter address for the Series",
          "intoTarget": "if true, it will try to swap PTs into Target. Will revert if there's not enough liquidity to perform the swap.",
          "lpBal": "Balance of LP tokens to provide",
          "maturity": "Maturity date for the Series",
          "minAccepted": "only used when removing liquidity on/after maturity and its the min accepted when swapping Principal Tokens to underlying",
          "minAmountsOut": "minimum accepted amounts of PTs and Target given the amount of LP shares provided"
        },
        "returns": {
          "uBal": "amount of underlying received and ptBal Principal Tokens (in case it's called after maturity and redeem is restricted or intoTarget is false)"
        }
      },
      "setFactory(address,bool)": {
        "params": {
          "f": "Factory's address",
          "isOn": "Flag setting this factory to enabled or disabled"
        }
      },
      "sponsorSeries(address,uint256,bool)": {
        "details": "Called by an external address, initializes a new series in the Divider",
        "params": {
          "adapter": "Adapter to associate with the Series",
          "maturity": "Maturity date for the Series, in units of unix time",
          "withPool": "Whether to deploy a Space pool or not (only works for unverified adapters)"
        }
      },
      "swapPTsForTarget(address,uint256,uint256,uint256)": {
        "params": {
          "adapter": "Adapter address for the Series",
          "maturity": "Maturity date for the Series",
          "minAccepted": "Min accepted amount of Target",
          "ptBal": "Balance of PT to sell"
        }
      },
      "swapPTsForUnderlying(address,uint256,uint256,uint256)": {
        "params": {
          "adapter": "Adapter address for the Series",
          "maturity": "Maturity date for the Series",
          "minAccepted": "Min accepted amount of Target",
          "ptBal": "Balance of PT to sell"
        }
      },
      "swapTargetForPTs(address,uint256,uint256,uint256)": {
        "params": {
          "adapter": "Adapter address for the Series",
          "maturity": "Maturity date for the Series",
          "minAccepted": "Min accepted amount of PT",
          "tBal": "Balance of Target to sell"
        },
        "returns": {
          "ptBal": "amount of PT received"
        }
      },
      "swapTargetForYTs(address,uint256,uint256,uint256)": {
        "params": {
          "adapter": "Adapter address for the Series",
          "maturity": "Maturity date for the Series",
          "minAccepted": "Min accepted amount of YT",
          "tBal": "Balance of Target to sell"
        },
        "returns": {
          "ytBal": "amount of YT received"
        }
      },
      "swapUnderlyingForPTs(address,uint256,uint256,uint256)": {
        "params": {
          "adapter": "Adapter address for the Series",
          "maturity": "Maturity date for the Series",
          "minAccepted": "Min accepted amount of PT",
          "uBal": "Balance of Underlying to sell"
        },
        "returns": {
          "ptBal": "amount of PT received"
        }
      },
      "swapUnderlyingForYTs(address,uint256,uint256,uint256)": {
        "params": {
          "adapter": "Adapter address for the Series",
          "maturity": "Maturity date for the Series",
          "minAccepted": "Min accepted amount of YT",
          "uBal": "Balance of Underlying to sell"
        },
        "returns": {
          "ytBal": "amount of YT received"
        }
      },
      "swapYTsForTarget(address,uint256,uint256)": {
        "params": {
          "adapter": "Adapter address for the Series",
          "maturity": "Maturity date for the Series",
          "ytBal": "Balance of Yield Tokens to swap"
        }
      },
      "swapYTsForUnderlying(address,uint256,uint256)": {
        "params": {
          "adapter": "Adapter address for the Series",
          "maturity": "Maturity date for the Series",
          "ytBal": "Balance of Yield Tokens to swap"
        }
      },
      "verifyAdapter(address,bool)": {
        "details": "Verifies an Adapter and optionally adds the Target to the money market",
        "params": {
          "adapter": "Adapter to verify"
        }
      }
    },
    "title": "Periphery",
    "version": 1
  },
  "userdoc": {
    "kind": "user",
    "methods": {
      "MIN_YT_SWAP_IN()": {
        "notice": "Lower bound on the amount of Claim tokens one can swap in for Target"
      },
      "PRICE_ESTIMATE_ACCEPTABLE_ERROR()": {
        "notice": "Acceptable error when estimating the tokens resulting from a specific swap"
      },
      "addLiquidityFromTarget(address,uint256,uint256,uint8,uint256)": {
        "notice": "Adds liquidity providing target"
      },
      "addLiquidityFromUnderlying(address,uint256,uint256,uint8,uint256)": {
        "notice": "Adds liquidity providing underlying"
      },
      "balancerVault()": {
        "notice": "Sense core Divider address"
      },
      "deployAdapter(address,address)": {
        "notice": "Deploy and onboard a Adapter"
      },
      "divider()": {
        "notice": "Sense core Divider address"
      },
      "factories(address)": {
        "notice": "adapter factories -> is supported"
      },
      "migrateLiquidity(address,address,uint256,uint256,uint256,uint256[],uint256,uint8,bool,uint256)": {
        "notice": "Migrates liquidity position from one series to another"
      },
      "onboardAdapter(address,bool)": {
        "notice": "Onboard a single Adapter w/o needing a factory"
      },
      "poolManager()": {
        "notice": "Sense core Divider address"
      },
      "removeLiquidity(address,uint256,uint256,uint256[],uint256,bool)": {
        "notice": "Removes liquidity providing an amount of LP tokens and returns target"
      },
      "removeLiquidityAndUnwrapTarget(address,uint256,uint256,uint256[],uint256,bool)": {
        "notice": "Removes liquidity providing an amount of LP tokens and returns underlying"
      },
      "setFactory(address,bool)": {
        "notice": "Enable or disable a factory"
      },
      "spaceFactory()": {
        "notice": "Sense core Divider address"
      },
      "sponsorSeries(address,uint256,bool)": {
        "notice": "Sponsor a new Series in any adapter previously onboarded onto the Divider"
      },
      "swapPTsForTarget(address,uint256,uint256,uint256)": {
        "notice": "Swap Principal Tokens for Target of a particular series"
      },
      "swapPTsForUnderlying(address,uint256,uint256,uint256)": {
        "notice": "Swap Principal Tokens for Underlying of a particular series"
      },
      "swapTargetForPTs(address,uint256,uint256,uint256)": {
        "notice": "Swap Target to Principal Tokens of a particular series"
      },
      "swapTargetForYTs(address,uint256,uint256,uint256)": {
        "notice": "Swap Target to Yield Tokens of a particular series"
      },
      "swapUnderlyingForPTs(address,uint256,uint256,uint256)": {
        "notice": "Swap Underlying to Principal Tokens of a particular series"
      },
      "swapUnderlyingForYTs(address,uint256,uint256,uint256)": {
        "notice": "Swap Underlying to Yield of a particular series"
      },
      "swapYTsForTarget(address,uint256,uint256)": {
        "notice": "Swap YT for Target of a particular series"
      },
      "swapYTsForUnderlying(address,uint256,uint256)": {
        "notice": "Swap YT for Underlying of a particular series"
      },
      "verified(address)": {
        "notice": "adapter -> bool"
      }
    },
    "version": 1
  },
  "storageLayout": {
    "storage": [
      {
        "astId": 14718,
        "contract": "@sense-finance/v1-core/src/Periphery.sol:Periphery",
        "label": "isTrusted",
        "offset": 0,
        "slot": "0",
        "type": "t_mapping(t_address,t_bool)"
      },
      {
        "astId": 4073,
        "contract": "@sense-finance/v1-core/src/Periphery.sol:Periphery",
        "label": "factories",
        "offset": 0,
        "slot": "1",
        "type": "t_mapping(t_address,t_bool)"
      },
      {
        "astId": 4078,
        "contract": "@sense-finance/v1-core/src/Periphery.sol:Periphery",
        "label": "verified",
        "offset": 0,
        "slot": "2",
        "type": "t_mapping(t_address,t_bool)"
      }
    ],
    "types": {
      "t_address": {
        "encoding": "inplace",
        "label": "address",
        "numberOfBytes": "20"
      },
      "t_bool": {
        "encoding": "inplace",
        "label": "bool",
        "numberOfBytes": "1"
      },
      "t_mapping(t_address,t_bool)": {
        "encoding": "mapping",
        "key": "t_address",
        "label": "mapping(address => bool)",
        "numberOfBytes": "32",
        "value": "t_bool"
      }
    }
  }
}