{
  "address": "0xFff11417a58781D3C72083CB45EF54d79Cd02437",
  "abi": [
    {
      "inputs": [
        {
          "internalType": "address",
          "name": "_divider",
          "type": "address"
        },
        {
          "internalType": "address",
          "name": "_poolManager",
          "type": "address"
        },
        {
          "internalType": "address",
          "name": "_spaceFactory",
          "type": "address"
        },
        {
          "internalType": "address",
          "name": "_balancerVault",
          "type": "address"
        }
      ],
      "stateMutability": "nonpayable",
      "type": "constructor"
    },
    {
      "inputs": [],
      "name": "ExistingValue",
      "type": "error"
    },
    {
      "inputs": [],
      "name": "FactoryNotSupported",
      "type": "error"
    },
    {
      "inputs": [],
      "name": "FlashBorrowFailed",
      "type": "error"
    },
    {
      "inputs": [],
      "name": "FlashUntrustedBorrower",
      "type": "error"
    },
    {
      "inputs": [],
      "name": "FlashUntrustedLoanInitiator",
      "type": "error"
    },
    {
      "inputs": [],
      "name": "OnlyPermissionless",
      "type": "error"
    },
    {
      "inputs": [],
      "name": "SwapTooSmall",
      "type": "error"
    },
    {
      "inputs": [],
      "name": "TargetMismatch",
      "type": "error"
    },
    {
      "anonymous": false,
      "inputs": [
        {
          "indexed": true,
          "internalType": "address",
          "name": "adapter",
          "type": "address"
        }
      ],
      "name": "AdapterDeployed",
      "type": "event"
    },
    {
      "anonymous": false,
      "inputs": [
        {
          "indexed": true,
          "internalType": "address",
          "name": "adapter",
          "type": "address"
        }
      ],
      "name": "AdapterOnboarded",
      "type": "event"
    },
    {
      "anonymous": false,
      "inputs": [
        {
          "indexed": true,
          "internalType": "address",
          "name": "adapter",
          "type": "address"
        }
      ],
      "name": "AdapterVerified",
      "type": "event"
    },
    {
      "anonymous": false,
      "inputs": [
        {
          "indexed": true,
          "internalType": "address",
          "name": "factory",
          "type": "address"
        },
        {
          "indexed": true,
          "internalType": "bool",
          "name": "isOn",
          "type": "bool"
        }
      ],
      "name": "FactoryChanged",
      "type": "event"
    },
    {
      "anonymous": false,
      "inputs": [
        {
          "indexed": false,
          "internalType": "address",
          "name": "newPoolManager",
          "type": "address"
        }
      ],
      "name": "PoolManagerChanged",
      "type": "event"
    },
    {
      "anonymous": false,
      "inputs": [
        {
          "indexed": true,
          "internalType": "address",
          "name": "adapter",
          "type": "address"
        },
        {
          "indexed": true,
          "internalType": "uint256",
          "name": "maturity",
          "type": "uint256"
        },
        {
          "indexed": true,
          "internalType": "address",
          "name": "sponsor",
          "type": "address"
        }
      ],
      "name": "SeriesSponsored",
      "type": "event"
    },
    {
      "anonymous": false,
      "inputs": [
        {
          "indexed": false,
          "internalType": "address",
          "name": "newSpaceFactory",
          "type": "address"
        }
      ],
      "name": "SpaceFactoryChanged",
      "type": "event"
    },
    {
      "anonymous": false,
      "inputs": [
        {
          "indexed": true,
          "internalType": "address",
          "name": "sender",
          "type": "address"
        },
        {
          "indexed": true,
          "internalType": "bytes32",
          "name": "poolId",
          "type": "bytes32"
        },
        {
          "indexed": false,
          "internalType": "address",
          "name": "assetIn",
          "type": "address"
        },
        {
          "indexed": false,
          "internalType": "address",
          "name": "assetOut",
          "type": "address"
        },
        {
          "indexed": false,
          "internalType": "uint256",
          "name": "amountIn",
          "type": "uint256"
        },
        {
          "indexed": false,
          "internalType": "uint256",
          "name": "amountOut",
          "type": "uint256"
        },
        {
          "indexed": true,
          "internalType": "bytes4",
          "name": "sig",
          "type": "bytes4"
        }
      ],
      "name": "Swapped",
      "type": "event"
    },
    {
      "anonymous": false,
      "inputs": [
        {
          "indexed": true,
          "internalType": "address",
          "name": "user",
          "type": "address"
        },
        {
          "indexed": false,
          "internalType": "bool",
          "name": "trusted",
          "type": "bool"
        }
      ],
      "name": "UserTrustUpdated",
      "type": "event"
    },
    {
      "anonymous": false,
      "inputs": [
        {
          "indexed": true,
          "internalType": "address",
          "name": "sender",
          "type": "address"
        },
        {
          "indexed": false,
          "internalType": "address",
          "name": "adapter",
          "type": "address"
        },
        {
          "indexed": false,
          "internalType": "uint256",
          "name": "maturity",
          "type": "uint256"
        },
        {
          "indexed": false,
          "internalType": "uint256",
          "name": "targetIn",
          "type": "uint256"
        },
        {
          "indexed": false,
          "internalType": "uint256",
          "name": "targetReturned",
          "type": "uint256"
        },
        {
          "indexed": false,
          "internalType": "uint256",
          "name": "ytOut",
          "type": "uint256"
        }
      ],
      "name": "YTsPurchased",
      "type": "event"
    },
    {
      "inputs": [],
      "name": "MIN_YT_SWAP_IN",
      "outputs": [
        {
          "internalType": "uint256",
          "name": "",
          "type": "uint256"
        }
      ],
      "stateMutability": "view",
      "type": "function"
    },
    {
      "inputs": [],
      "name": "PRICE_ESTIMATE_ACCEPTABLE_ERROR",
      "outputs": [
        {
          "internalType": "uint256",
          "name": "",
          "type": "uint256"
        }
      ],
      "stateMutability": "view",
      "type": "function"
    },
    {
      "inputs": [
        {
          "internalType": "address",
          "name": "adapter",
          "type": "address"
        },
        {
          "internalType": "uint256",
          "name": "maturity",
          "type": "uint256"
        },
        {
          "internalType": "uint256",
          "name": "tBal",
          "type": "uint256"
        },
        {
          "internalType": "uint8",
          "name": "mode",
          "type": "uint8"
        },
        {
          "internalType": "uint256",
          "name": "minBptOut",
          "type": "uint256"
        }
      ],
      "name": "addLiquidityFromTarget",
      "outputs": [
        {
          "internalType": "uint256",
          "name": "tAmount",
          "type": "uint256"
        },
        {
          "internalType": "uint256",
          "name": "issued",
          "type": "uint256"
        },
        {
          "internalType": "uint256",
          "name": "lpShares",
          "type": "uint256"
        }
      ],
      "stateMutability": "nonpayable",
      "type": "function"
    },
    {
      "inputs": [
        {
          "internalType": "address",
          "name": "adapter",
          "type": "address"
        },
        {
          "internalType": "uint256",
          "name": "maturity",
          "type": "uint256"
        },
        {
          "internalType": "uint256",
          "name": "uBal",
          "type": "uint256"
        },
        {
          "internalType": "uint8",
          "name": "mode",
          "type": "uint8"
        },
        {
          "internalType": "uint256",
          "name": "minBptOut",
          "type": "uint256"
        }
      ],
      "name": "addLiquidityFromUnderlying",
      "outputs": [
        {
          "internalType": "uint256",
          "name": "tAmount",
          "type": "uint256"
        },
        {
          "internalType": "uint256",
          "name": "issued",
          "type": "uint256"
        },
        {
          "internalType": "uint256",
          "name": "lpShares",
          "type": "uint256"
        }
      ],
      "stateMutability": "nonpayable",
      "type": "function"
    },
    {
      "inputs": [],
      "name": "balancerVault",
      "outputs": [
        {
          "internalType": "contract BalancerVault",
          "name": "",
          "type": "address"
        }
      ],
      "stateMutability": "view",
      "type": "function"
    },
    {
      "inputs": [
        {
          "internalType": "address",
          "name": "f",
          "type": "address"
        },
        {
          "internalType": "address",
          "name": "target",
          "type": "address"
        },
        {
          "internalType": "bytes",
          "name": "data",
          "type": "bytes"
        }
      ],
      "name": "deployAdapter",
      "outputs": [
        {
          "internalType": "address",
          "name": "adapter",
          "type": "address"
        }
      ],
      "stateMutability": "nonpayable",
      "type": "function"
    },
    {
      "inputs": [],
      "name": "divider",
      "outputs": [
        {
          "internalType": "contract Divider",
          "name": "",
          "type": "address"
        }
      ],
      "stateMutability": "view",
      "type": "function"
    },
    {
      "inputs": [
        {
          "internalType": "address",
          "name": "",
          "type": "address"
        }
      ],
      "name": "factories",
      "outputs": [
        {
          "internalType": "bool",
          "name": "",
          "type": "bool"
        }
      ],
      "stateMutability": "view",
      "type": "function"
    },
    {
      "inputs": [
        {
          "internalType": "address",
          "name": "",
          "type": "address"
        }
      ],
      "name": "isTrusted",
      "outputs": [
        {
          "internalType": "bool",
          "name": "",
          "type": "bool"
        }
      ],
      "stateMutability": "view",
      "type": "function"
    },
    {
      "inputs": [
        {
          "internalType": "address",
          "name": "srcAdapter",
          "type": "address"
        },
        {
          "internalType": "address",
          "name": "dstAdapter",
          "type": "address"
        },
        {
          "internalType": "uint256",
          "name": "srcMaturity",
          "type": "uint256"
        },
        {
          "internalType": "uint256",
          "name": "dstMaturity",
          "type": "uint256"
        },
        {
          "internalType": "uint256",
          "name": "lpBal",
          "type": "uint256"
        },
        {
          "internalType": "uint256[]",
          "name": "minAmountsOut",
          "type": "uint256[]"
        },
        {
          "internalType": "uint256",
          "name": "minAccepted",
          "type": "uint256"
        },
        {
          "internalType": "uint8",
          "name": "mode",
          "type": "uint8"
        },
        {
          "internalType": "bool",
          "name": "intoTarget",
          "type": "bool"
        },
        {
          "internalType": "uint256",
          "name": "minBptOut",
          "type": "uint256"
        }
      ],
      "name": "migrateLiquidity",
      "outputs": [
        {
          "internalType": "uint256",
          "name": "tAmount",
          "type": "uint256"
        },
        {
          "internalType": "uint256",
          "name": "issued",
          "type": "uint256"
        },
        {
          "internalType": "uint256",
          "name": "lpShares",
          "type": "uint256"
        },
        {
          "internalType": "uint256",
          "name": "ptBal",
          "type": "uint256"
        }
      ],
      "stateMutability": "nonpayable",
      "type": "function"
    },
    {
      "inputs": [
        {
          "internalType": "address",
          "name": "initiator",
          "type": "address"
        },
        {
          "internalType": "address",
          "name": "",
          "type": "address"
        },
        {
          "internalType": "uint256",
          "name": "amountBorrrowed",
          "type": "uint256"
        },
        {
          "internalType": "uint256",
          "name": "",
          "type": "uint256"
        },
        {
          "internalType": "bytes",
          "name": "data",
          "type": "bytes"
        }
      ],
      "name": "onFlashLoan",
      "outputs": [
        {
          "internalType": "bytes32",
          "name": "",
          "type": "bytes32"
        }
      ],
      "stateMutability": "nonpayable",
      "type": "function"
    },
    {
      "inputs": [
        {
          "internalType": "address",
          "name": "adapter",
          "type": "address"
        },
        {
          "internalType": "bool",
          "name": "addAdapter",
          "type": "bool"
        }
      ],
      "name": "onboardAdapter",
      "outputs": [],
      "stateMutability": "nonpayable",
      "type": "function"
    },
    {
      "inputs": [],
      "name": "poolManager",
      "outputs": [
        {
          "internalType": "contract PoolManager",
          "name": "",
          "type": "address"
        }
      ],
      "stateMutability": "view",
      "type": "function"
    },
    {
      "inputs": [
        {
          "internalType": "address",
          "name": "adapter",
          "type": "address"
        },
        {
          "internalType": "uint256",
          "name": "maturity",
          "type": "uint256"
        },
        {
          "internalType": "uint256",
          "name": "lpBal",
          "type": "uint256"
        },
        {
          "internalType": "uint256[]",
          "name": "minAmountsOut",
          "type": "uint256[]"
        },
        {
          "internalType": "uint256",
          "name": "minAccepted",
          "type": "uint256"
        },
        {
          "internalType": "bool",
          "name": "intoTarget",
          "type": "bool"
        }
      ],
      "name": "removeLiquidity",
      "outputs": [
        {
          "internalType": "uint256",
          "name": "tBal",
          "type": "uint256"
        },
        {
          "internalType": "uint256",
          "name": "ptBal",
          "type": "uint256"
        }
      ],
      "stateMutability": "nonpayable",
      "type": "function"
    },
    {
      "inputs": [
        {
          "internalType": "address",
          "name": "adapter",
          "type": "address"
        },
        {
          "internalType": "uint256",
          "name": "maturity",
          "type": "uint256"
        },
        {
          "internalType": "uint256",
          "name": "lpBal",
          "type": "uint256"
        },
        {
          "internalType": "uint256[]",
          "name": "minAmountsOut",
          "type": "uint256[]"
        },
        {
          "internalType": "uint256",
          "name": "minAccepted",
          "type": "uint256"
        },
        {
          "internalType": "bool",
          "name": "intoTarget",
          "type": "bool"
        }
      ],
      "name": "removeLiquidityAndUnwrapTarget",
      "outputs": [
        {
          "internalType": "uint256",
          "name": "uBal",
          "type": "uint256"
        },
        {
          "internalType": "uint256",
          "name": "ptBal",
          "type": "uint256"
        }
      ],
      "stateMutability": "nonpayable",
      "type": "function"
    },
    {
      "inputs": [
        {
          "internalType": "address",
          "name": "f",
          "type": "address"
        },
        {
          "internalType": "bool",
          "name": "isOn",
          "type": "bool"
        }
      ],
      "name": "setFactory",
      "outputs": [],
      "stateMutability": "nonpayable",
      "type": "function"
    },
    {
      "inputs": [
        {
          "internalType": "address",
          "name": "user",
          "type": "address"
        },
        {
          "internalType": "bool",
          "name": "trusted",
          "type": "bool"
        }
      ],
      "name": "setIsTrusted",
      "outputs": [],
      "stateMutability": "nonpayable",
      "type": "function"
    },
    {
      "inputs": [
        {
          "internalType": "address",
          "name": "newPoolManager",
          "type": "address"
        }
      ],
      "name": "setPoolManager",
      "outputs": [],
      "stateMutability": "nonpayable",
      "type": "function"
    },
    {
      "inputs": [
        {
          "internalType": "address",
          "name": "newSpaceFactory",
          "type": "address"
        }
      ],
      "name": "setSpaceFactory",
      "outputs": [],
      "stateMutability": "nonpayable",
      "type": "function"
    },
    {
      "inputs": [],
      "name": "spaceFactory",
      "outputs": [
        {
          "internalType": "contract SpaceFactoryLike",
          "name": "",
          "type": "address"
        }
      ],
      "stateMutability": "view",
      "type": "function"
    },
    {
      "inputs": [
        {
          "internalType": "address",
          "name": "adapter",
          "type": "address"
        },
        {
          "internalType": "uint256",
          "name": "maturity",
          "type": "uint256"
        },
        {
          "internalType": "bool",
          "name": "withPool",
          "type": "bool"
        }
      ],
      "name": "sponsorSeries",
      "outputs": [
        {
          "internalType": "address",
          "name": "pt",
          "type": "address"
        },
        {
          "internalType": "address",
          "name": "yt",
          "type": "address"
        }
      ],
      "stateMutability": "nonpayable",
      "type": "function"
    },
    {
      "inputs": [
        {
          "internalType": "address",
          "name": "adapter",
          "type": "address"
        },
        {
          "internalType": "uint256",
          "name": "maturity",
          "type": "uint256"
        },
        {
          "internalType": "uint256",
          "name": "ptBal",
          "type": "uint256"
        },
        {
          "internalType": "uint256",
          "name": "minAccepted",
          "type": "uint256"
        }
      ],
      "name": "swapPTsForTarget",
      "outputs": [
        {
          "internalType": "uint256",
          "name": "tBal",
          "type": "uint256"
        }
      ],
      "stateMutability": "nonpayable",
      "type": "function"
    },
    {
      "inputs": [
        {
          "internalType": "address",
          "name": "adapter",
          "type": "address"
        },
        {
          "internalType": "uint256",
          "name": "maturity",
          "type": "uint256"
        },
        {
          "internalType": "uint256",
          "name": "ptBal",
          "type": "uint256"
        },
        {
          "internalType": "uint256",
          "name": "minAccepted",
          "type": "uint256"
        }
      ],
      "name": "swapPTsForUnderlying",
      "outputs": [
        {
          "internalType": "uint256",
          "name": "uBal",
          "type": "uint256"
        }
      ],
      "stateMutability": "nonpayable",
      "type": "function"
    },
    {
      "inputs": [
        {
          "internalType": "address",
          "name": "adapter",
          "type": "address"
        },
        {
          "internalType": "uint256",
          "name": "maturity",
          "type": "uint256"
        },
        {
          "internalType": "uint256",
          "name": "tBal",
          "type": "uint256"
        },
        {
          "internalType": "uint256",
          "name": "minAccepted",
          "type": "uint256"
        }
      ],
      "name": "swapTargetForPTs",
      "outputs": [
        {
          "internalType": "uint256",
          "name": "ptBal",
          "type": "uint256"
        }
      ],
      "stateMutability": "nonpayable",
      "type": "function"
    },
    {
      "inputs": [
        {
          "internalType": "address",
          "name": "adapter",
          "type": "address"
        },
        {
          "internalType": "uint256",
          "name": "maturity",
          "type": "uint256"
        },
        {
          "internalType": "uint256",
          "name": "targetIn",
          "type": "uint256"
        },
        {
          "internalType": "uint256",
          "name": "targetToBorrow",
          "type": "uint256"
        },
        {
          "internalType": "uint256",
          "name": "minOut",
          "type": "uint256"
        }
      ],
      "name": "swapTargetForYTs",
      "outputs": [
        {
          "internalType": "uint256",
          "name": "targetBal",
          "type": "uint256"
        },
        {
          "internalType": "uint256",
          "name": "ytBal",
          "type": "uint256"
        }
      ],
      "stateMutability": "nonpayable",
      "type": "function"
    },
    {
      "inputs": [
        {
          "internalType": "address",
          "name": "adapter",
          "type": "address"
        },
        {
          "internalType": "uint256",
          "name": "maturity",
          "type": "uint256"
        },
        {
          "internalType": "uint256",
          "name": "uBal",
          "type": "uint256"
        },
        {
          "internalType": "uint256",
          "name": "minAccepted",
          "type": "uint256"
        }
      ],
      "name": "swapUnderlyingForPTs",
      "outputs": [
        {
          "internalType": "uint256",
          "name": "ptBal",
          "type": "uint256"
        }
      ],
      "stateMutability": "nonpayable",
      "type": "function"
    },
    {
      "inputs": [
        {
          "internalType": "address",
          "name": "adapter",
          "type": "address"
        },
        {
          "internalType": "uint256",
          "name": "maturity",
          "type": "uint256"
        },
        {
          "internalType": "uint256",
          "name": "underlyingIn",
          "type": "uint256"
        },
        {
          "internalType": "uint256",
          "name": "targetToBorrow",
          "type": "uint256"
        },
        {
          "internalType": "uint256",
          "name": "minOut",
          "type": "uint256"
        }
      ],
      "name": "swapUnderlyingForYTs",
      "outputs": [
        {
          "internalType": "uint256",
          "name": "targetBal",
          "type": "uint256"
        },
        {
          "internalType": "uint256",
          "name": "ytBal",
          "type": "uint256"
        }
      ],
      "stateMutability": "nonpayable",
      "type": "function"
    },
    {
      "inputs": [
        {
          "internalType": "address",
          "name": "adapter",
          "type": "address"
        },
        {
          "internalType": "uint256",
          "name": "maturity",
          "type": "uint256"
        },
        {
          "internalType": "uint256",
          "name": "ytBal",
          "type": "uint256"
        }
      ],
      "name": "swapYTsForTarget",
      "outputs": [
        {
          "internalType": "uint256",
          "name": "tBal",
          "type": "uint256"
        }
      ],
      "stateMutability": "nonpayable",
      "type": "function"
    },
    {
      "inputs": [
        {
          "internalType": "address",
          "name": "adapter",
          "type": "address"
        },
        {
          "internalType": "uint256",
          "name": "maturity",
          "type": "uint256"
        },
        {
          "internalType": "uint256",
          "name": "ytBal",
          "type": "uint256"
        }
      ],
      "name": "swapYTsForUnderlying",
      "outputs": [
        {
          "internalType": "uint256",
          "name": "uBal",
          "type": "uint256"
        }
      ],
      "stateMutability": "nonpayable",
      "type": "function"
    },
    {
      "inputs": [
        {
          "internalType": "address",
          "name": "",
          "type": "address"
        }
      ],
      "name": "verified",
      "outputs": [
        {
          "internalType": "bool",
          "name": "",
          "type": "bool"
        }
      ],
      "stateMutability": "view",
      "type": "function"
    },
    {
      "inputs": [
        {
          "internalType": "address",
          "name": "adapter",
          "type": "address"
        },
        {
          "internalType": "bool",
          "name": "addToPool",
          "type": "bool"
        }
      ],
      "name": "verifyAdapter",
      "outputs": [],
      "stateMutability": "nonpayable",
      "type": "function"
    }
  ],
  "transactionHash": "0xe230c5c94d41f1b9dc8fe1f2d0e28c69ae097606f9c814c4c073da06813b7f2c",
  "args": [
    "0x86bA3E96Be68563E41c2f5769F1AF9fAf758e6E0",
    "0xf01eb98de53ed964ac3f786b80ed8ce33f05f417",
    "0x984682770f1EED90C00cd57B06b151EC12e7c51C",
    "0xBA12222222228d8Ba445958a75a0704d566BF2C8"
  ],
  "numDeployments": 1,
  "solcInputHash": "d2bb84c7e09b97435d6a81ce2338de4a",
  "bytecode": "0x60c06040523480156200001157600080fd5b5060405162005cfc38038062005cfc8339810160408190526200003491620000e3565b3360008181526020818152604091829020805460ff19166001908117909155915191825282917fe95aec380cae16330d146d5499ef7db6f3657e477104a733e771bc09e500d986910160405180910390a2506001600160a01b03938416608052600180549385166001600160a01b03199485161790556002805492851692909316919091179091551660a05262000140565b80516001600160a01b0381168114620000de57600080fd5b919050565b60008060008060808587031215620000fa57600080fd5b6200010585620000c6565b93506200011560208601620000c6565b92506200012560408601620000c6565b91506200013560608601620000c6565b905092959194509250565b60805160a051615ad26200022a6000396000818161026a0152818161248a0152818161259c0152818161386601528181613ef8015281816142520152818161435b0152818161497f0152614a9e015260008181610343015281816107770152818161083901528181610cbc01528181610e1401528181610ef301528181610ff60152818161168201528181611cb101528181611ef00152818161241e015281816127720152818161290901528181612a7201528181612d1201528181612fcd01528181613414015281816135b101528181613b2c01528181613dc6015261413a0152615ad26000f3fe608060405234801561001057600080fd5b50600436106101e55760003560e01c80637ab71cb01161010f578063b16bdcfe116100a2578063dc4c90d311610071578063dc4c90d3146104d9578063f8e8801e146104ec578063fab52689146104ff578063fdb8c0461461052257600080fd5b8063b16bdcfe14610494578063bfe642ca146104a7578063ce3a9128146104ba578063da43f3d6146104c657600080fd5b80638f1f30f0116100de5780638f1f30f01461043857806396d648791461044b57806397a27fbf1461046e578063a23973961461048157600080fd5b80637ab71cb0146103ec5780637aef6715146103ff578063836ce94514610412578063857bee5f1461042557600080fd5b8063318d3c371161018757806349c569cb1161015657806349c569cb1461038b5780634a6370c3146103b3578063560c9876146103c657806371013c10146103d957600080fd5b8063318d3c371461032b578063378efa371461033e578063457dcd291461036557806347c7a2121461037857600080fd5b8063158274a5116101c3578063158274a5146102655780631fc3e733146102a457806323e30c8b146102d75780632d673b7b146102f857600080fd5b80630db065f4146101ea5780630f8b15d3146102225780631393916a14610250575b600080fd5b61020d6101f8366004614c11565b60046020526000908152604090205460ff1681565b60405190151581526020015b60405180910390f35b610235610230366004614c3d565b61052e565b60408051938452602084019290925290820152606001610219565b61026361025e366004614c9d565b6105ca565b005b61028c7f000000000000000000000000000000000000000000000000000000000000000081565b6040516001600160a01b039091168152602001610219565b6102b76102b2366004614cd6565b6106c3565b604080516001600160a01b03938416815292909116602083015201610219565b6102ea6102e5366004614d18565b610acc565b604051908152602001610219565b61030b610306366004614ecf565b6111e9565b604080519485526020850193909352918301526060820152608001610219565b610263610339366004614c9d565b61133b565b61028c7f000000000000000000000000000000000000000000000000000000000000000081565b6102ea610373366004614f8b565b6113c2565b6102ea610386366004614f8b565b611451565b61039e610399366004614fc6565b6114ac565b60408051928352602083019190915201610219565b61039e6103c1366004615046565b61159c565b6102ea6103d436600461508a565b6116d6565b6102636103e7366004614c9d565b6117b9565b6102356103fa366004614c3d565b6118fd565b61026361040d366004614c11565b611a25565b61039e610420366004615046565b611b0b565b60025461028c906001600160a01b031681565b6102ea610446366004614f8b565b611cee565b61020d610459366004614c11565b60006020819052908152604090205460ff1681565b6102ea61047c366004614f8b565b611e0a565b61026361048f366004614c9d565b611eee565b6102ea6104a236600461508a565b611fce565b61028c6104b53660046150bf565b612028565b6102ea64e8d4a5100081565b6102636104d4366004614c11565b612151565b60015461028c906001600160a01b031681565b61039e6104fa366004614fc6565b612230565b61020d61050d366004614c11565b60036020526000908152604090205460ff1681565b6102ea6402540be40081565b60008060006105ac3330888b6001600160a01b031663d4b839926040518163ffffffff1660e01b8152600401602060405180830381865afa158015610577573d6000803e3d6000fd5b505050506040513d601f19601f8201168201806040525081019061059b9190615197565b6001600160a01b0316929190612297565b6105b9888888888861235d565b919a90995090975095505050505050565b3360009081526020819052604090205460ff16610648576040517f08c379a000000000000000000000000000000000000000000000000000000000815260206004820152600960248201527f554e54525553544544000000000000000000000000000000000000000000000060448201526064015b60405180910390fd5b6001600160a01b0382166000818152602081815260409182902080547fffffffffffffffffffffffffffffffffffffffffffffffffffffffffffffff001685151590811790915591519182527fe95aec380cae16330d146d5499ef7db6f3657e477104a733e771bc09e500d986910160405180910390a25050565b600080600080866001600160a01b03166327b327d06040518163ffffffff1660e01b8152600401606060405180830381865afa158015610707573d6000803e3d6000fd5b505050506040513d601f19601f8201168201806040525081019061072b91906151b4565b909350915061074790506001600160a01b038316333084612297565b6040517f095ea7b30000000000000000000000000000000000000000000000000000000081526001600160a01b037f0000000000000000000000000000000000000000000000000000000000000000811660048301526024820183905283169063095ea7b3906044016020604051808303816000875af11580156107cf573d6000803e3d6000fd5b505050506040513d601f19601f820116820180604052508101906107f391906151f7565b506040517f3e3972ee0000000000000000000000000000000000000000000000000000000081526001600160a01b038881166004830152602482018890523360448301527f00000000000000000000000000000000000000000000000000000000000000001690633e3972ee9060640160408051808303816000875af1158015610881573d6000803e3d6000fd5b505050506040513d601f19601f820116820180604052508101906108a59190615214565b6001600160a01b038916600090815260046020526040902054919550935060ff16156109f2576001546002546040517f0ecaea730000000000000000000000000000000000000000000000000000000081526001600160a01b038a81166004830152602482018a905292831692635e883823928b928b9290911690630ecaea73906044016020604051808303816000875af1158015610948573d6000803e3d6000fd5b505050506040513d601f19601f8201168201806040525081019061096c9190615197565b60405160e085901b7fffffffff000000000000000000000000000000000000000000000000000000001681526001600160a01b03938416600482015260248101929092529091166044820152606401600060405180830381600087803b1580156109d557600080fd5b505af11580156109e9573d6000803e3d6000fd5b50505050610a8a565b8415610a8a576002546040517f0ecaea730000000000000000000000000000000000000000000000000000000081526001600160a01b0389811660048301526024820189905290911690630ecaea73906044016020604051808303816000875af1158015610a64573d6000803e3d6000fd5b505050506040513d601f19601f82011682018060405250810190610a889190615197565b505b604051339087906001600160a01b038a16907fe385633dd30b0221b25f7a6f7e18c5992b339b5686322abe8ceb999e81249cd190600090a45050935093915050565b60008080808080610adf87890189615243565b94509450945094509450846001600160a01b0316336001600160a01b031614610b34576040517f4cd0f00a00000000000000000000000000000000000000000000000000000000815260040160405180910390fd5b6001600160a01b038c163014610b76576040517f14aa288800000000000000000000000000000000000000000000000000000000815260040160405180910390fd5b6002546040517f8f38a5550000000000000000000000000000000000000000000000000000000081526001600160a01b038781166004830152602482018790526000921690638f38a55590604401602060405180830381865afa158015610be1573d6000803e3d6000fd5b505050506040513d601f19601f82011682018060405250810190610c059190615197565b90508115610ee9576000866001600160a01b031663d4b839926040518163ffffffff1660e01b8152600401602060405180830381865afa158015610c4d573d6000803e3d6000fd5b505050506040513d601f19601f82011682018060405250810190610c719190615197565b6040517fd10eb4b90000000000000000000000000000000000000000000000000000000081526001600160a01b03898116600483015260248201899052919250600091610e109184917f0000000000000000000000000000000000000000000000000000000000000000169063d10eb4b990604401602060405180830381865afa158015610d03573d6000803e3d6000fd5b505050506040513d601f19601f82011682018060405250810190610d279190615197565b6040517f70a082310000000000000000000000000000000000000000000000000000000081523060048201526001600160a01b038616906370a0823190602401602060405180830381865afa158015610d84573d6000803e3d6000fd5b505050506040513d601f19601f82011682018060405250810190610da89190615299565b866001600160a01b03166338fff2d06040518163ffffffff1660e01b8152600401602060405180830381865afa158015610de6573d6000803e3d6000fd5b505050506040513d601f19601f82011682018060405250810190610e0a9190615299565b8961245a565b90507f00000000000000000000000000000000000000000000000000000000000000006001600160a01b031663ba89bebd8989898510610e505789610e52565b845b6040517fffffffff0000000000000000000000000000000000000000000000000000000060e086901b1681526001600160a01b039093166004840152602483019190915260448201526064016020604051808303816000875af1158015610ebd573d6000803e3d6000fd5b505050506040513d601f19601f82011682018060405250810190610ee19190615299565b5050506111b7565b6001600160a01b037f00000000000000000000000000000000000000000000000000000000000000001663dfe5ef488787610f248f896152e1565b6040517fffffffff0000000000000000000000000000000000000000000000000000000060e086901b1681526001600160a01b039093166004840152602483019190915260448201526064016020604051808303816000875af1158015610f8f573d6000803e3d6000fd5b505050506040513d601f19601f82011682018060405250810190610fb39190615299565b506040517fd10eb4b90000000000000000000000000000000000000000000000000000000081526001600160a01b038781166004830152602482018790526000917f00000000000000000000000000000000000000000000000000000000000000009091169063d10eb4b990604401602060405180830381865afa15801561103f573d6000803e3d6000fd5b505050506040513d601f19601f820116820180604052508101906110639190615197565b90506111b481886001600160a01b031663d4b839926040518163ffffffff1660e01b8152600401602060405180830381865afa1580156110a7573d6000803e3d6000fd5b505050506040513d601f19601f820116820180604052508101906110cb9190615197565b6040517f70a082310000000000000000000000000000000000000000000000000000000081523060048201526001600160a01b038516906370a0823190602401602060405180830381865afa158015611128573d6000803e3d6000fd5b505050506040513d601f19601f8201168201806040525081019061114c9190615299565b856001600160a01b03166338fff2d06040518163ffffffff1660e01b8152600401602060405180830381865afa15801561118a573d6000803e3d6000fd5b505050506040513d601f19601f820116820180604052508101906111ae9190615299565b8861245a565b50505b507f439148f0bbc682ca079e46d6e2c2f0c1e3b820f1a291b069d8882abf8cf18dd99c9b505050505050505050505050565b6000806000808c6001600160a01b031663d4b839926040518163ffffffff1660e01b8152600401602060405180830381865afa15801561122d573d6000803e3d6000fd5b505050506040513d601f19601f820116820180604052508101906112519190615197565b6001600160a01b03168e6001600160a01b031663d4b839926040518163ffffffff1660e01b8152600401602060405180830381865afa158015611298573d6000803e3d6000fd5b505050506040513d601f19601f820116820180604052508101906112bc9190615197565b6001600160a01b0316146112fc576040517f73f3f92700000000000000000000000000000000000000000000000000000000815260040160405180910390fd5b600061130c8f8e8d8d8d8c6126c6565b9250905061131d8e8d838b8a61235d565b809550819650829750505050509a509a509a509a9650505050505050565b3360009081526020819052604090205460ff166113b4576040517f08c379a000000000000000000000000000000000000000000000000000000000815260206004820152600960248201527f554e545255535445440000000000000000000000000000000000000000000000604482015260640161063f565b6113be8282612b3d565b5050565b60006113d085858585612cce565b90506114493382876001600160a01b031663d4b839926040518163ffffffff1660e01b8152600401602060405180830381865afa158015611415573d6000803e3d6000fd5b505050506040513d601f19601f820116820180604052508101906114399190615197565b6001600160a01b03169190612eca565b949350505050565b6000611497333085886001600160a01b031663d4b839926040518163ffffffff1660e01b8152600401602060405180830381865afa158015610577573d6000803e3d6000fd5b6114a385858585612f89565b95945050505050565b60008060006114bf8989898989896126c6565b6040517f51c39ea1000000000000000000000000000000000000000000000000000000008152600481018390529093509091506115909033906001600160a01b038c16906351c39ea1906024016020604051808303816000875af115801561152b573d6000803e3d6000fd5b505050506040513d601f19601f8201168201806040525081019061154f9190615299565b9450848b6001600160a01b0316636f307dc36040518163ffffffff1660e01b8152600401602060405180830381865afa158015611415573d6000803e3d6000fd5b50965096945050505050565b6000806115e33330878a6001600160a01b031663d4b839926040518163ffffffff1660e01b8152600401602060405180830381865afa158015610577573d6000803e3d6000fd5b6115f08787878787613193565b809250819350505061163b3383896001600160a01b031663d4b839926040518163ffffffff1660e01b8152600401602060405180830381865afa158015611415573d6000803e3d6000fd5b6040517f574e77950000000000000000000000000000000000000000000000000000000081526001600160a01b038881166004830152602482018890526116cc91339184917f00000000000000000000000000000000000000000000000000000000000000009091169063574e7795906044015b602060405180830381865afa158015611415573d6000803e3d6000fd5b9550959350505050565b6000806116e53386868661356d565b6040517f51c39ea1000000000000000000000000000000000000000000000000000000008152600481018290529091506001600160a01b038616906351c39ea1906024016020604051808303816000875af1158015611748573d6000803e3d6000fd5b505050506040513d601f19601f8201168201806040525081019061176c9190615299565b91506117b13383876001600160a01b0316636f307dc36040518163ffffffff1660e01b8152600401602060405180830381865afa158015611415573d6000803e3d6000fd5b509392505050565b3360009081526020819052604090205460ff16611832576040517f08c379a000000000000000000000000000000000000000000000000000000000815260206004820152600960248201527f554e545255535445440000000000000000000000000000000000000000000000604482015260640161063f565b6001600160a01b03821660009081526003602052604090205460ff161515811515141561188b576040517fe2be007400000000000000000000000000000000000000000000000000000000815260040160405180910390fd5b6001600160a01b03821660008181526003602052604080822080547fffffffffffffffffffffffffffffffffffffffffffffffffffffffffffffff001685151590811790915590519092917fe63b400aabb14e166c6cf1b963fc9332222bc4dfe22a7fa4a487411d6cb83b3191a35050565b600080600080886001600160a01b0316636f307dc36040518163ffffffff1660e01b8152600401602060405180830381865afa158015611941573d6000803e3d6000fd5b505050506040513d601f19601f820116820180604052508101906119659190615197565b905061197c6001600160a01b03821633308a612297565b6040517f4aae9fed000000000000000000000000000000000000000000000000000000008152600481018890526000906001600160a01b038b1690634aae9fed906024016020604051808303816000875af11580156119df573d6000803e3d6000fd5b505050506040513d601f19601f82011682018060405250810190611a039190615299565b9050611a128a8a838a8a61235d565b919c909b50909950975050505050505050565b3360009081526020819052604090205460ff16611a9e576040517f08c379a000000000000000000000000000000000000000000000000000000000815260206004820152600960248201527f554e545255535445440000000000000000000000000000000000000000000000604482015260640161063f565b600180547fffffffffffffffffffffffff0000000000000000000000000000000000000000166001600160a01b0383169081179091556040519081527fe53395243914ebc025ce712146f66fa5e9d3f04b308fae19ac4123350d1cd20f906020015b60405180910390a150565b6000806000876001600160a01b0316636f307dc36040518163ffffffff1660e01b8152600401602060405180830381865afa158015611b4e573d6000803e3d6000fd5b505050506040513d601f19601f82011682018060405250810190611b729190615197565b9050611b896001600160a01b038216333089612297565b6040517f4aae9fed000000000000000000000000000000000000000000000000000000008152600481018790526000906001600160a01b038a1690634aae9fed906024016020604051808303816000875af1158015611bec573d6000803e3d6000fd5b505050506040513d601f19601f82011682018060405250810190611c109190615299565b9050611c1f8989838989613193565b8094508195505050611c6a33858b6001600160a01b031663d4b839926040518163ffffffff1660e01b8152600401602060405180830381865afa158015611415573d6000803e3d6000fd5b6040517f574e77950000000000000000000000000000000000000000000000000000000081526001600160a01b038a81166004830152602482018a9052611ce291339186917f00000000000000000000000000000000000000000000000000000000000000009091169063574e7795906044016116af565b50509550959350505050565b600080856001600160a01b0316636f307dc36040518163ffffffff1660e01b8152600401602060405180830381865afa158015611d2f573d6000803e3d6000fd5b505050506040513d601f19601f82011682018060405250810190611d539190615197565b9050611d6a6001600160a01b038216333087612297565b6040517f4aae9fed000000000000000000000000000000000000000000000000000000008152600481018590526000906001600160a01b03881690634aae9fed906024016020604051808303816000875af1158015611dcd573d6000803e3d6000fd5b505050506040513d601f19601f82011682018060405250810190611df19190615299565b9050611dff87878387612f89565b979650505050505050565b600080611e1986868686612cce565b6040517f51c39ea1000000000000000000000000000000000000000000000000000000008152600481018290529091506001600160a01b038716906351c39ea1906024016020604051808303816000875af1158015611e7c573d6000803e3d6000fd5b505050506040513d601f19601f82011682018060405250810190611ea09190615299565b9150611ee53383886001600160a01b0316636f307dc36040518163ffffffff1660e01b8152600401602060405180830381865afa158015611415573d6000803e3d6000fd5b50949350505050565b7f00000000000000000000000000000000000000000000000000000000000000006001600160a01b031663a1256f9f6040518163ffffffff1660e01b8152600401602060405180830381865afa158015611f4c573d6000803e3d6000fd5b505050506040513d601f19601f82011682018060405250810190611f7091906151f7565b158015611f8d57503360009081526020819052604090205460ff16155b15611fc4576040517f8719352c00000000000000000000000000000000000000000000000000000000815260040160405180910390fd5b6113be8282613a98565b6000611fdc3385858561356d565b90506120213382866001600160a01b031663d4b839926040518163ffffffff1660e01b8152600401602060405180830381865afa158015611415573d6000803e3d6000fd5b9392505050565b6001600160a01b03831660009081526003602052604081205460ff1661207a576040517fe459d6aa00000000000000000000000000000000000000000000000000000000815260040160405180910390fd5b6040517f3cad2dcd0000000000000000000000000000000000000000000000000000000081526001600160a01b03851690633cad2dcd906120c19086908690600401615364565b6020604051808303816000875af11580156120e0573d6000803e3d6000fd5b505050506040513d601f19601f820116820180604052508101906121049190615197565b6040519091506001600160a01b038216907f5c4dabb7dca79d442edd65b39b410aef25f4eea4a498150e7e442d5ca508f6d590600090a2612146816001612b3d565b612021816001613a98565b3360009081526020819052604090205460ff166121ca576040517f08c379a000000000000000000000000000000000000000000000000000000000815260206004820152600960248201527f554e545255535445440000000000000000000000000000000000000000000000604482015260640161063f565b600280547fffffffffffffffffffffffff0000000000000000000000000000000000000000166001600160a01b0383169081179091556040519081527f40f94fbaa39b621298d12a4ed99759484633cff7680c01e6bb3a07ae7aa8d79590602001611b00565b6000806122418888888888886126c6565b809250819350505061228c33838a6001600160a01b031663d4b839926040518163ffffffff1660e01b8152600401602060405180830381865afa158015611415573d6000803e3d6000fd5b965096945050505050565b60006040517f23b872dd0000000000000000000000000000000000000000000000000000000081528460048201528360248201528260448201526020600060648360008a5af13d15601f3d1160016000511416171691505080612356576040517f08c379a000000000000000000000000000000000000000000000000000000000815260206004820152601460248201527f5452414e534645525f46524f4d5f4641494c4544000000000000000000000000604482015260640161063f565b5050505050565b600080600061236e88888887613e5c565b9092509050811561244f5760ff85166123d75761238d3089898561356d565b92506123d233848a6001600160a01b031663d4b839926040518163ffffffff1660e01b8152600401602060405180830381865afa158015611415573d6000803e3d6000fd5b61244f565b6040517f574e77950000000000000000000000000000000000000000000000000000000081526001600160a01b0389811660048301526024820189905261244f91339185917f00000000000000000000000000000000000000000000000000000000000000009091169063574e7795906044016116af565b955095509592505050565b6040517f095ea7b30000000000000000000000000000000000000000000000000000000081526001600160a01b037f000000000000000000000000000000000000000000000000000000000000000081166004830152602482018590526000919087169063095ea7b3906044016020604051808303816000875af11580156124e6573d6000803e3d6000fd5b505050506040513d601f19601f8201168201806040525081019061250a91906151f7565b506040805160c081018252848152600060208083018290526001600160a01b03808b168486015289811660608086019190915260808086018b90528651808501885285815260a087015286519081018752308082529381018590528087019390935282019290925292517f52bbbe290000000000000000000000000000000000000000000000000000000081529192917f0000000000000000000000000000000000000000000000000000000000000000909116906352bbbe29906125f9908590859089907fffffffffffffffffffffffffffffffffffffffffffffffffffffffffffffffff906004016153f0565b6020604051808303816000875af1158015612618573d6000803e3d6000fd5b505050506040513d601f19601f8201168201806040525081019061263c9190615299565b604080516001600160a01b038b811682528a166020820152908101889052606081018290529093507fffffffff000000000000000000000000000000000000000000000000000000006000351690869033907f771a8215d0541283507c0ebd99d6a6406b7254dc8feccdaa6c160c305d68d7489060800160405180910390a4505095945050505050565b6000806000886001600160a01b031663d4b839926040518163ffffffff1660e01b8152600401602060405180830381865afa158015612709573d6000803e3d6000fd5b505050506040513d601f19601f8201168201806040525081019061272d9190615197565b6040517fd10eb4b90000000000000000000000000000000000000000000000000000000081526001600160a01b038b81166004830152602482018b90529192506000917f0000000000000000000000000000000000000000000000000000000000000000169063d10eb4b990604401602060405180830381865afa1580156127b9573d6000803e3d6000fd5b505050506040513d601f19601f820116820180604052508101906127dd9190615197565b6002546040517f8f38a5550000000000000000000000000000000000000000000000000000000081526001600160a01b038d81166004830152602482018d905292935060009290911690638f38a55590604401602060405180830381865afa15801561284d573d6000803e3d6000fd5b505050506040513d601f19601f820116820180604052508101906128719190615197565b90506000816001600160a01b03166338fff2d06040518163ffffffff1660e01b8152600401602060405180830381865afa1580156128b3573d6000803e3d6000fd5b505050506040513d601f19601f820116820180604052508101906128d79190615299565b90506128ee6001600160a01b03831633308d612297565b60006128fd8285878d8f61424b565b809250819850505060007f00000000000000000000000000000000000000000000000000000000000000006001600160a01b03166395197d308f8f6040518363ffffffff1660e01b81526004016129699291906001600160a01b03929092168252602082015260400190565b602060405180830381865afa158015612986573d6000803e3d6000fd5b505050506040513d601f19601f820116820180604052508101906129aa9190615299565b1115612af057612a1f8d6001600160a01b0316636fd5ae156040518163ffffffff1660e01b8152600401602060405180830381865afa1580156129f1573d6000803e3d6000fd5b505050506040513d601f19601f82011682018060405250810190612a159190615299565b6010908116141590565b15612a2c57809550612b13565b6040517f2b83cccd0000000000000000000000000000000000000000000000000000000081526001600160a01b038e81166004830152602482018e9052604482018390527f00000000000000000000000000000000000000000000000000000000000000001690632b83cccd906064016020604051808303816000875af1158015612abb573d6000803e3d6000fd5b505050506040513d601f19601f82011682018060405250810190612adf9190615299565b612ae990886152e1565b9650612b13565b600081118015612afd5750875b15612b0f57612adf848683858d61245a565b8095505b8515612b2d57612b2d6001600160a01b0385163388612eca565b5050505050965096945050505050565b6001600160a01b038216600090815260046020526040902080547fffffffffffffffffffffffffffffffffffffffffffffffffffffffffffffff001660011790558015612c9657600160009054906101000a90046001600160a01b03166001600160a01b0316631ec64fef836001600160a01b031663d4b839926040518163ffffffff1660e01b8152600401602060405180830381865afa158015612be6573d6000803e3d6000fd5b505050506040513d601f19601f82011682018060405250810190612c0a9190615197565b6040517fffffffff0000000000000000000000000000000000000000000000000000000060e084901b1681526001600160a01b03918216600482015290851660248201526044016020604051808303816000875af1158015612c70573d6000803e3d6000fd5b505050506040513d601f19601f82011682018060405250810190612c949190615197565b505b6040516001600160a01b038316907ff9f4ea4fb47406a3baf9adc8bd38b1c82e5a5fee5de9b3c5af3218400fb530c090600090a25050565b6040517fd10eb4b90000000000000000000000000000000000000000000000000000000081526001600160a01b0385811660048301526024820185905260009182917f0000000000000000000000000000000000000000000000000000000000000000169063d10eb4b990604401602060405180830381865afa158015612d59573d6000803e3d6000fd5b505050506040513d601f19601f82011682018060405250810190612d7d9190615197565b9050612d946001600160a01b038216333087612297565b6002546040517f8f38a5550000000000000000000000000000000000000000000000000000000081526001600160a01b038881166004830152602482018890526000921690638f38a55590604401602060405180830381865afa158015612dff573d6000803e3d6000fd5b505050506040513d601f19601f82011682018060405250810190612e239190615197565b9050611dff82886001600160a01b031663d4b839926040518163ffffffff1660e01b8152600401602060405180830381865afa158015612e67573d6000803e3d6000fd5b505050506040513d601f19601f82011682018060405250810190612e8b9190615197565b87846001600160a01b03166338fff2d06040518163ffffffff1660e01b8152600401602060405180830381865afa15801561118a573d6000803e3d6000fd5b60006040517fa9059cbb000000000000000000000000000000000000000000000000000000008152836004820152826024820152602060006044836000895af13d15601f3d1160016000511416171691505080612f83576040517f08c379a000000000000000000000000000000000000000000000000000000000815260206004820152600f60248201527f5452414e534645525f4641494c45440000000000000000000000000000000000604482015260640161063f565b50505050565b6040517fd10eb4b90000000000000000000000000000000000000000000000000000000081526001600160a01b0385811660048301526024820185905260009182917f0000000000000000000000000000000000000000000000000000000000000000169063d10eb4b990604401602060405180830381865afa158015613014573d6000803e3d6000fd5b505050506040513d601f19601f820116820180604052508101906130389190615197565b6002546040517f8f38a5550000000000000000000000000000000000000000000000000000000081526001600160a01b0389811660048301526024820189905292935060009290911690638f38a55590604401602060405180830381865afa1580156130a8573d6000803e3d6000fd5b505050506040513d601f19601f820116820180604052508101906130cc9190615197565b9050613173876001600160a01b031663d4b839926040518163ffffffff1660e01b8152600401602060405180830381865afa15801561310f573d6000803e3d6000fd5b505050506040513d601f19601f820116820180604052508101906131339190615197565b8387846001600160a01b03166338fff2d06040518163ffffffff1660e01b8152600401602060405180830381865afa15801561118a573d6000803e3d6000fd5b92506131896001600160a01b0383163385612eca565b5050949350505050565b604080516001600160a01b03871660208201529081018590526060810184905260808101829052600060a08201819052908190819060c00160405160208183030381529060405290506000886001600160a01b0316635cffe9de308b6001600160a01b031663d4b839926040518163ffffffff1660e01b8152600401602060405180830381865afa15801561322c573d6000803e3d6000fd5b505050506040513d601f19601f820116820180604052508101906132509190615197565b89866040518563ffffffff1660e01b815260040161327194939291906154ad565b6020604051808303816000875af1158015613290573d6000803e3d6000fd5b505050506040513d601f19601f820116820180604052508101906132b491906151f7565b9050806132ed576040517f87cce7b800000000000000000000000000000000000000000000000000000000815260040160405180910390fd5b886001600160a01b031663d4b839926040518163ffffffff1660e01b8152600401602060405180830381865afa15801561332b573d6000803e3d6000fd5b505050506040513d601f19601f8201168201806040525081019061334f9190615197565b6040517f70a082310000000000000000000000000000000000000000000000000000000081523060048201526001600160a01b0391909116906370a0823190602401602060405180830381865afa1580156133ae573d6000803e3d6000fd5b505050506040513d601f19601f820116820180604052508101906133d29190615299565b6040517f574e77950000000000000000000000000000000000000000000000000000000081526001600160a01b038b81166004830152602482018b90529195507f00000000000000000000000000000000000000000000000000000000000000009091169063574e779590604401602060405180830381865afa15801561345d573d6000803e3d6000fd5b505050506040513d601f19601f820116820180604052508101906134819190615197565b6040517f70a082310000000000000000000000000000000000000000000000000000000081523060048201526001600160a01b0391909116906370a0823190602401602060405180830381865afa1580156134e0573d6000803e3d6000fd5b505050506040513d601f19601f820116820180604052508101906135049190615299565b604080516001600160a01b038c168152602081018b9052908101899052606081018690526080810182905290935033907f25841a32c1c1cef7b2d2bcea90bd94fcafbcd2459595475b86087699c16dc4959060a00160405180910390a250509550959350505050565b6040517f574e77950000000000000000000000000000000000000000000000000000000081526001600160a01b0384811660048301526024820184905260009182917f0000000000000000000000000000000000000000000000000000000000000000169063574e779590604401602060405180830381865afa1580156135f8573d6000803e3d6000fd5b505050506040513d601f19601f8201168201806040525081019061361c9190615197565b905064e8d4a51000816001600160a01b031663313ce5676040518163ffffffff1660e01b8152600401602060405180830381865afa158015613662573d6000803e3d6000fd5b505050506040513d601f19601f8201168201806040525081019061368691906154df565b6136919060126154fc565b61369c90600a61563f565b6136a6908561564e565b116136dd576040517f81406f4600000000000000000000000000000000000000000000000000000000815260040160405180910390fd5b6002546040517f8f38a5550000000000000000000000000000000000000000000000000000000081526001600160a01b038781166004830152602482018790526000921690638f38a55590604401602060405180830381865afa158015613748573d6000803e3d6000fd5b505050506040513d601f19601f8201168201806040525081019061376c9190615197565b90506001600160a01b0387163014613793576137936001600160a01b038316333087612297565b6000816001600160a01b03166338fff2d06040518163ffffffff1660e01b8152600401602060405180830381865afa1580156137d3573d6000803e3d6000fd5b505050506040513d601f19601f820116820180604052508101906137f79190615299565b9050600080836001600160a01b0316635863056d6040518163ffffffff1660e01b81526004016040805180830381865afa158015613839573d6000803e3d6000fd5b505050506040513d601f19601f8201168201806040525081019061385d919061568b565b915091506000807f00000000000000000000000000000000000000000000000000000000000000006001600160a01b031663f94d4668866040518263ffffffff1660e01b81526004016138b291815260200190565b600060405180830381865afa1580156138cf573d6000803e3d6000fd5b505050506040513d6000823e601f3d9081017fffffffffffffffffffffffffffffffffffffffffffffffffffffffffffffffe0168201604052613915919081019061570a565b50915091506000866001600160a01b0316639d2c110c60405180610120016040528060018081111561394957613949615386565b8152602001868881518110613960576139606157d8565b60200260200101516001600160a01b03168152602001868981518110613988576139886157d8565b60200260200101516001600160a01b031681526020018d81526020018981526020016000815260200160006001600160a01b0316815260200160006001600160a01b03168152602001604051806020016040528060008152508152508487815181106139f6576139f66157d8565b6020026020010151858981518110613a1057613a106157d8565b60200260200101516040518463ffffffff1660e01b8152600401613a3693929190615807565b6020604051808303816000875af1158015613a55573d6000803e3d6000fd5b505050506040513d601f19601f82011682018060405250810190613a799190615299565b9050613a878c8c8c846144f1565b9d9c50505050505050505050505050565b6000826001600160a01b031663d4b839926040518163ffffffff1660e01b8152600401602060405180830381865afa158015613ad8573d6000803e3d6000fd5b505050506040513d601f19601f82011682018060405250810190613afc9190615197565b6040517f095ea7b30000000000000000000000000000000000000000000000000000000081526001600160a01b037f0000000000000000000000000000000000000000000000000000000000000000811660048301527fffffffffffffffffffffffffffffffffffffffffffffffffffffffffffffffff60248301529192509082169063095ea7b3906044016020604051808303816000875af1158015613ba7573d6000803e3d6000fd5b505050506040513d601f19601f82011682018060405250810190613bcb91906151f7565b506040517f095ea7b30000000000000000000000000000000000000000000000000000000081526001600160a01b0384811660048301527fffffffffffffffffffffffffffffffffffffffffffffffffffffffffffffffff602483015282169063095ea7b3906044016020604051808303816000875af1158015613c53573d6000803e3d6000fd5b505050506040513d601f19601f82011682018060405250810190613c7791906151f7565b50826001600160a01b0316636f307dc36040518163ffffffff1660e01b8152600401602060405180830381865afa158015613cb6573d6000803e3d6000fd5b505050506040513d601f19601f82011682018060405250810190613cda9190615197565b6040517f095ea7b30000000000000000000000000000000000000000000000000000000081526001600160a01b0385811660048301527fffffffffffffffffffffffffffffffffffffffffffffffffffffffffffffffff6024830152919091169063095ea7b3906044016020604051808303816000875af1158015613d63573d6000803e3d6000fd5b505050506040513d601f19601f82011682018060405250810190613d8791906151f7565b508115613e23576040517f60d54d410000000000000000000000000000000000000000000000000000000081526001600160a01b0384811660048301527f000000000000000000000000000000000000000000000000000000000000000016906360d54d4190602401600060405180830381600087803b158015613e0a57600080fd5b505af1158015613e1e573d6000803e3d6000fd5b505050505b6040516001600160a01b038416907fae4a2338a83fc8bfaca3a6cbb54494b5c00e9d8a65dc9cf39135b00da497798290600090a2505050565b6002546040517f8f38a5550000000000000000000000000000000000000000000000000000000081526001600160a01b038681166004830152602482018690526000928392839290911690638f38a55590604401602060405180830381865afa158015613ecd573d6000803e3d6000fd5b505050506040513d601f19601f82011682018060405250810190613ef19190615197565b90506000807f00000000000000000000000000000000000000000000000000000000000000006001600160a01b031663f94d4668846001600160a01b03166338fff2d06040518163ffffffff1660e01b8152600401602060405180830381865afa158015613f63573d6000803e3d6000fd5b505050506040513d601f19601f82011682018060405250810190613f879190615299565b6040518263ffffffff1660e01b8152600401613fa591815260200190565b600060405180830381865afa158015613fc2573d6000803e3d6000fd5b505050506040513d6000823e601f3d9081017fffffffffffffffffffffffffffffffffffffffffffffffffffffffffffffffe0168201604052614008919081019061570a565b5091509150600080846001600160a01b0316635863056d6040518163ffffffff1660e01b81526004016040805180830381865afa15801561404d573d6000803e3d6000fd5b505050506040513d601f19601f82011682018060405250810190614071919061568b565b915091506000838381518110614089576140896157d8565b60200260200101516000141590506000816140a55760006140e3565b6140e38d8686815181106140bb576140bb6157d8565b60200260200101518786815181106140d5576140d56157d8565b60200260200101518e6147be565b9050600081116140f45760006141a7565b6040517fdfe5ef480000000000000000000000000000000000000000000000000000000081526001600160a01b038e81166004830152602482018e9052604482018390527f0000000000000000000000000000000000000000000000000000000000000000169063dfe5ef48906064016020604051808303816000875af1158015614183573d6000803e3d6000fd5b505050506040513d601f19601f820116820180604052508101906141a79190615299565b604080516002808252606082018352929b5060009290916020830190803683370190505090506141d7828d6158ce565b8185815181106141e9576141e96157d8565b60200260200101818152505089818681518110614208576142086157d8565b6020026020010181815250506142388860405180606001604052808a81526020018481526020018e8152506148d6565b9850505050505050505094509492505050565b60008060007f00000000000000000000000000000000000000000000000000000000000000006001600160a01b031663f94d4668896040518263ffffffff1660e01b815260040161429e91815260200190565b600060405180830381865afa1580156142bb573d6000803e3d6000fd5b505050506040513d6000823e601f3d9081017fffffffffffffffffffffffffffffffffffffffffffffffffffffffffffffffe0168201604052614301919081019061570a565b50509050600061430e8290565b9050600060405180608001604052808381526020018881526020018760405160200161433c91815260200190565b60405160208183030381529060405281526020016000151581525090507f00000000000000000000000000000000000000000000000000000000000000006001600160a01b0316638bdb39138b3030856040518563ffffffff1660e01b81526004016143ab94939291906159af565b600060405180830381600087803b1580156143c557600080fd5b505af11580156143d9573d6000803e3d6000fd5b50506040517f70a082310000000000000000000000000000000000000000000000000000000081523060048201526001600160a01b038b1692506370a082319150602401602060405180830381865afa15801561443a573d6000803e3d6000fd5b505050506040513d601f19601f8201168201806040525081019061445e9190615299565b6040517f70a082310000000000000000000000000000000000000000000000000000000081523060048201529095506001600160a01b038a16906370a0823190602401602060405180830381865afa1580156144be573d6000803e3d6000fd5b505050506040513d601f19601f820116820180604052508101906144e29190615299565b93505050509550959350505050565b600080856001600160a01b031663d4b839926040518163ffffffff1660e01b8152600401602060405180830381865afa158015614532573d6000803e3d6000fd5b505050506040513d601f19601f820116820180604052508101906145569190615197565b90506000816001600160a01b031663313ce5676040518163ffffffff1660e01b8152600401602060405180830381865afa158015614598573d6000803e3d6000fd5b505050506040513d601f19601f820116820180604052508101906145bc91906154df565b60ff1690506000600982106145f5576145d68260126158ce565b6145e190600a6159e1565b6145f0906402540be4006159ed565b6145f8565b60015b9050600088888861460985826158ce565b604080516001600160a01b03909516602086015284019290925260608301526080820152600160a082015260c001604080517fffffffffffffffffffffffffffffffffffffffffffffffffffffffffffffffe0818403018152908290527f5cffe9de00000000000000000000000000000000000000000000000000000000825291506000906001600160a01b038b1690635cffe9de906146b390309089908c9088906004016154ad565b6020604051808303816000875af11580156146d2573d6000803e3d6000fd5b505050506040513d601f19601f820116820180604052508101906146f691906151f7565b90508061472f576040517f87cce7b800000000000000000000000000000000000000000000000000000000815260040160405180910390fd5b6040517f70a082310000000000000000000000000000000000000000000000000000000081523060048201526001600160a01b038616906370a0823190602401602060405180830381865afa15801561478c573d6000803e3d6000fd5b505050506040513d601f19601f820116820180604052508101906147b09190615299565b9a9950505050505050505050565b60006114a36148cf856148be866148b88a6001600160a01b031663b8c15a9f6040518163ffffffff1660e01b8152600401602060405180830381865afa15801561480c573d6000803e3d6000fd5b505050506040513d601f19601f820116820180604052508101906148309190615a28565b614854906fffffffffffffffffffffffffffffffff16670de0b6b3a76400006158ce565b8b6001600160a01b031663f51e181a6040518163ffffffff1660e01b81526004016020604051808303816000875af1158015614894573d6000803e3d6000fd5b505050506040513d601f19601f820116820180604052508101906148b89190615299565b90614bab565b6148c891906152e1565b8690614bc9565b8390614bab565b600080836001600160a01b03166338fff2d06040518163ffffffff1660e01b8152600401602060405180830381865afa158015614917573d6000803e3d6000fd5b505050506040513d601f19601f8201168201806040525081019061493b9190615299565b835190915060005b84515160ff82161015614a46578451805160ff8316908110614967576149676157d8565b60200260200101516001600160a01b031663095ea7b37f000000000000000000000000000000000000000000000000000000000000000087602001518460ff16815181106149b7576149b76157d8565b60200260200101516040518363ffffffff1660e01b81526004016149f09291906001600160a01b03929092168252602082015260400190565b6020604051808303816000875af1158015614a0f573d6000803e3d6000fd5b505050506040513d601f19601f82011682018060405250810190614a3391906151f7565b5080614a3e81615a5a565b915050614943565b50600060405180608001604052808381526020018660200151815260200186602001518760400151604051602001614a7f929190615a7a565b60405160208183030381529060405281526020016000151581525090507f00000000000000000000000000000000000000000000000000000000000000006001600160a01b031663b95cac28843033856040518563ffffffff1660e01b8152600401614aee94939291906159af565b600060405180830381600087803b158015614b0857600080fd5b505af1158015614b1c573d6000803e3d6000fd5b50506040517f70a082310000000000000000000000000000000000000000000000000000000081523360048201526001600160a01b03891692506370a082319150602401602060405180830381865afa158015614b7d573d6000803e3d6000fd5b505050506040513d601f19601f82011682018060405250810190614ba19190615299565b9695505050505050565b6000614bc08383670de0b6b3a7640000614bda565b90505b92915050565b6000614bc083670de0b6b3a7640000845b828202811515841585830485141716614bf257600080fd5b0492915050565b6001600160a01b0381168114614c0e57600080fd5b50565b600060208284031215614c2357600080fd5b813561202181614bf9565b60ff81168114614c0e57600080fd5b600080600080600060a08688031215614c5557600080fd5b8535614c6081614bf9565b945060208601359350604086013592506060860135614c7e81614c2e565b949793965091946080013592915050565b8015158114614c0e57600080fd5b60008060408385031215614cb057600080fd5b8235614cbb81614bf9565b91506020830135614ccb81614c8f565b809150509250929050565b600080600060608486031215614ceb57600080fd5b8335614cf681614bf9565b9250602084013591506040840135614d0d81614c8f565b809150509250925092565b60008060008060008060a08789031215614d3157600080fd5b8635614d3c81614bf9565b95506020870135614d4c81614bf9565b94506040870135935060608701359250608087013567ffffffffffffffff80821115614d7757600080fd5b818901915089601f830112614d8b57600080fd5b813581811115614d9a57600080fd5b8a6020828501011115614dac57600080fd5b6020830194508093505050509295509295509295565b7f4e487b7100000000000000000000000000000000000000000000000000000000600052604160045260246000fd5b604051601f82017fffffffffffffffffffffffffffffffffffffffffffffffffffffffffffffffe016810167ffffffffffffffff81118282101715614e3857614e38614dc2565b604052919050565b600067ffffffffffffffff821115614e5a57614e5a614dc2565b5060051b60200190565b600082601f830112614e7557600080fd5b81356020614e8a614e8583614e40565b614df1565b82815260059290921b84018101918181019086841115614ea957600080fd5b8286015b84811015614ec45780358352918301918301614ead565b509695505050505050565b6000806000806000806000806000806101408b8d031215614eef57600080fd5b8a35614efa81614bf9565b995060208b0135614f0a81614bf9565b985060408b0135975060608b0135965060808b0135955060a08b013567ffffffffffffffff811115614f3b57600080fd5b614f478d828e01614e64565b95505060c08b0135935060e08b0135614f5f81614c2e565b92506101008b0135614f7081614c8f565b809250506101208b013590509295989b9194979a5092959850565b60008060008060808587031215614fa157600080fd5b8435614fac81614bf9565b966020860135965060408601359560600135945092505050565b60008060008060008060c08789031215614fdf57600080fd5b8635614fea81614bf9565b95506020870135945060408701359350606087013567ffffffffffffffff81111561501457600080fd5b61502089828a01614e64565b9350506080870135915060a087013561503881614c8f565b809150509295509295509295565b600080600080600060a0868803121561505e57600080fd5b853561506981614bf9565b97602087013597506040870135966060810135965060800135945092505050565b60008060006060848603121561509f57600080fd5b83356150aa81614bf9565b95602085013595506040909401359392505050565b6000806000606084860312156150d457600080fd5b83356150df81614bf9565b92506020848101356150f081614bf9565b9250604085013567ffffffffffffffff8082111561510d57600080fd5b818701915087601f83011261512157600080fd5b81358181111561513357615133614dc2565b615163847fffffffffffffffffffffffffffffffffffffffffffffffffffffffffffffffe0601f84011601614df1565b9150808252888482850101111561517957600080fd5b80848401858401376000848284010152508093505050509250925092565b6000602082840312156151a957600080fd5b815161202181614bf9565b6000806000606084860312156151c957600080fd5b83516151d481614bf9565b60208501519093506151e581614bf9565b80925050604084015190509250925092565b60006020828403121561520957600080fd5b815161202181614c8f565b6000806040838503121561522757600080fd5b825161523281614bf9565b6020840151909250614ccb81614bf9565b600080600080600060a0868803121561525b57600080fd5b853561526681614bf9565b9450602086013593506040860135925060608601359150608086013561528b81614c8f565b809150509295509295909350565b6000602082840312156152ab57600080fd5b5051919050565b7f4e487b7100000000000000000000000000000000000000000000000000000000600052601160045260246000fd5b600082198211156152f4576152f46152b2565b500190565b6000815180845260005b8181101561531f57602081850181015186830182015201615303565b81811115615331576000602083870101525b50601f017fffffffffffffffffffffffffffffffffffffffffffffffffffffffffffffffe0169290920160200192915050565b6001600160a01b038316815260406020820152600061144960408301846152f9565b7f4e487b7100000000000000000000000000000000000000000000000000000000600052602160045260246000fd5b600281106153ec577f4e487b7100000000000000000000000000000000000000000000000000000000600052602160045260246000fd5b9052565b60e08152845160e0820152600060208601516154106101008401826153b5565b5060408601516001600160a01b03908116610120840152606087015116610140830152608086015161016083015260a086015160c06101808401526154596101a08401826152f9565b91505061549b60208301866001600160a01b03808251168352602082015115156020840152806040830151166040840152506060810151151560608301525050565b60a082019390935260c0015292915050565b60006001600160a01b03808716835280861660208401525083604083015260806060830152614ba160808301846152f9565b6000602082840312156154f157600080fd5b815161202181614c2e565b600060ff821660ff841680821015615516576155166152b2565b90039392505050565b600181815b8085111561557857817fffffffffffffffffffffffffffffffffffffffffffffffffffffffffffffffff0482111561555e5761555e6152b2565b8085161561556b57918102915b93841c9390800290615524565b509250929050565b60008261558f57506001614bc3565b8161559c57506000614bc3565b81600181146155b257600281146155bc576155d8565b6001915050614bc3565b60ff8411156155cd576155cd6152b2565b50506001821b614bc3565b5060208310610133831016604e8410600b84101617156155fb575081810a614bc3565b615605838361551f565b807fffffffffffffffffffffffffffffffffffffffffffffffffffffffffffffffff04821115615637576156376152b2565b029392505050565b6000614bc060ff841683615580565b6000817fffffffffffffffffffffffffffffffffffffffffffffffffffffffffffffffff0483118215151615615686576156866152b2565b500290565b6000806040838503121561569e57600080fd5b505080516020909101519092909150565b600082601f8301126156c057600080fd5b815160206156d0614e8583614e40565b82815260059290921b840181019181810190868411156156ef57600080fd5b8286015b84811015614ec457805183529183019183016156f3565b60008060006060848603121561571f57600080fd5b835167ffffffffffffffff8082111561573757600080fd5b818601915086601f83011261574b57600080fd5b8151602061575b614e8583614e40565b82815260059290921b8401810191818101908a84111561577a57600080fd5b948201945b838610156157a157855161579281614bf9565b8252948201949082019061577f565b918901519197509093505050808211156157ba57600080fd5b506157c7868287016156af565b925050604084015190509250925092565b7f4e487b7100000000000000000000000000000000000000000000000000000000600052603260045260246000fd5b606081526158196060820185516153b5565b6000602085015161583560808401826001600160a01b03169052565b5060408501516001600160a01b03811660a084015250606085015160c0830152608085015160e083015260a0850151610100818185015260c0870151915061012061588a818601846001600160a01b03169052565b60e08801516001600160a01b03166101408601529087015161016085019190915290506158bb6101808401826152f9565b6020840195909552505060400152919050565b6000828210156158e0576158e06152b2565b500390565b600081518084526020808501945080840160005b83811015615915578151875295820195908201906001016158f9565b509495945050505050565b8051608080845281519084018190526000916020919082019060a0860190845b818110156159655783516001600160a01b031683529284019291840191600101615940565b50508285015191508581038387015261597e81836158e5565b925050506040830151848203604086015261599982826152f9565b91505060608301516117b1606086018215159052565b84815260006001600160a01b03808616602084015280851660408401525060806060830152614ba16080830184615920565b6000614bc08383615580565b600082615a23577f4e487b7100000000000000000000000000000000000000000000000000000000600052601260045260246000fd5b500490565b600060208284031215615a3a57600080fd5b81516fffffffffffffffffffffffffffffffff8116811461202157600080fd5b600060ff821660ff811415615a7157615a716152b2565b60010192915050565b604081526000615a8d60408301856158e5565b9050826020830152939250505056fea264697066735822122056dca0d2b10eb7769e8cf4038d14d7e56dc9c76b27843e968f78a7f5c963066264736f6c634300080b0033",
  "devdoc": {
    "kind": "dev",
    "methods": {
      "addLiquidityFromTarget(address,uint256,uint256,uint8,uint256)": {
        "details": "see return description of _addLiquidity",
        "params": {
          "adapter": "Adapter address for the Series",
          "maturity": "Maturity date for the Series",
          "minBptOut": "Minimum BPT the user will accept out for this transaction",
          "mode": "0 = issues and sell YT, 1 = issue and hold YT",
          "tBal": "Balance of Target to provide"
        }
      },
      "addLiquidityFromUnderlying(address,uint256,uint256,uint8,uint256)": {
        "details": "see return description of _addLiquidity",
        "params": {
          "adapter": "Adapter address for the Series",
          "maturity": "Maturity date for the Series",
          "minBptOut": "Minimum BPT the user will accept out for this transaction",
          "mode": "0 = issues and sell YT, 1 = issue and hold YT",
          "uBal": "Balance of Underlying to provide"
        }
      },
      "deployAdapter(address,address,bytes)": {
        "details": "Called by external address, deploy a new Adapter via an Adapter Factory",
        "params": {
          "data": "Additional encoded data needed to deploy the adapter",
          "f": "Factory to use",
          "target": "Target to onboard"
        }
      },
      "migrateLiquidity(address,address,uint256,uint256,uint256,uint256[],uint256,uint8,bool,uint256)": {
        "details": "More info on `minAmountsOut`: https://github.com/balancer-labs/docs-developers/blob/main/resources/joins-and-exits/pool-exits.md#minamountsoutsee return description of _addLiquidity. It also returns amount of PTs (in case it's called after maturity and redeem is restricted or inttoTarget is false)",
        "params": {
          "dstAdapter": "Adapter address for the destination Series",
          "dstMaturity": "Maturity date for the destination Series",
          "intoTarget": "if true, it will try to swap PTs into Target. Will revert if there's not enough liquidity to perform the swap",
          "lpBal": "Balance of LP tokens to provide",
          "minAccepted": "Min accepted amount of target when swapping Principal Tokens (only used when removing liquidity on/after maturity)",
          "minAmountsOut": "Minimum accepted amounts of PTs and Target given the amount of LP shares provided",
          "minBptOut": "Minimum BPT the user will accept out for this transaction",
          "mode": "0 = issues and sell YT, 1 = issue and hold YT",
          "srcAdapter": "Adapter address for the source Series",
          "srcMaturity": "Maturity date for the source Series"
        }
      },
      "onFlashLoan(address,address,uint256,uint256,bytes)": {
        "details": "ERC-3156 Flash loan callback"
      },
      "onboardAdapter(address,bool)": {
        "details": "Called by a trusted address, approves Target for issuance, and onboards adapter to the Divider",
        "params": {
          "adapter": "Adapter to onboard",
          "addAdapter": "Whether to call divider.addAdapter or not (useful e.g when upgrading Periphery)"
        }
      },
      "removeLiquidity(address,uint256,uint256,uint256[],uint256,bool)": {
        "details": "More info on `minAmountsOut`: https://github.com/balancer-labs/docs-developers/blob/main/resources/joins-and-exits/pool-exits.md#minamountsout",
        "params": {
          "adapter": "Adapter address for the Series",
          "intoTarget": "if true, it will try to swap PTs into Target. Will revert if there's not enough liquidity to perform the swap.",
          "lpBal": "Balance of LP tokens to provide",
          "maturity": "Maturity date for the Series",
          "minAccepted": "only used when removing liquidity on/after maturity and its the min accepted when swapping Principal Tokens to underlying",
          "minAmountsOut": "minimum accepted amounts of PTs and Target given the amount of LP shares provided"
        },
        "returns": {
          "tBal": "amount of target received and ptBal amount of Principal Tokens (in case it's called after maturity and redeem is restricted)"
        }
      },
      "removeLiquidityAndUnwrapTarget(address,uint256,uint256,uint256[],uint256,bool)": {
        "details": "More info on `minAmountsOut`: https://github.com/balancer-labs/docs-developers/blob/main/resources/joins-and-exits/pool-exits.md#minamountsout",
        "params": {
          "adapter": "Adapter address for the Series",
          "intoTarget": "if true, it will try to swap PTs into Target. Will revert if there's not enough liquidity to perform the swap.",
          "lpBal": "Balance of LP tokens to provide",
          "maturity": "Maturity date for the Series",
          "minAccepted": "only used when removing liquidity on/after maturity and its the min accepted when swapping Principal Tokens to underlying",
          "minAmountsOut": "minimum accepted amounts of PTs and Target given the amount of LP shares provided"
        },
        "returns": {
          "uBal": "amount of underlying received and ptBal Principal Tokens (in case it's called after maturity and redeem is restricted or intoTarget is false)"
        }
      },
      "setFactory(address,bool)": {
        "params": {
          "f": "Factory's address",
          "isOn": "Flag setting this factory to enabled or disabled"
        }
      },
      "setPoolManager(address)": {
        "params": {
          "newPoolManager": "The Pool Manager addresss to set"
        }
      },
      "setSpaceFactory(address)": {
        "params": {
          "newSpaceFactory": "The Space Factory addresss to set"
        }
      },
      "sponsorSeries(address,uint256,bool)": {
        "details": "Called by an external address, initializes a new series in the Divider",
        "params": {
          "adapter": "Adapter to associate with the Series",
          "maturity": "Maturity date for the Series, in units of unix time",
          "withPool": "Whether to deploy a Space pool or not (only works for unverified adapters)"
        }
      },
      "swapPTsForTarget(address,uint256,uint256,uint256)": {
        "params": {
          "adapter": "Adapter address for the Series",
          "maturity": "Maturity date for the Series",
          "minAccepted": "Min accepted amount of Target",
          "ptBal": "Balance of PT to sell"
        }
      },
      "swapPTsForUnderlying(address,uint256,uint256,uint256)": {
        "params": {
          "adapter": "Adapter address for the Series",
          "maturity": "Maturity date for the Series",
          "minAccepted": "Min accepted amount of Target",
          "ptBal": "Balance of PT to sell"
        }
      },
      "swapTargetForPTs(address,uint256,uint256,uint256)": {
        "params": {
          "adapter": "Adapter address for the Series",
          "maturity": "Maturity date for the Series",
          "minAccepted": "Min accepted amount of PT",
          "tBal": "Balance of Target to sell"
        },
        "returns": {
          "ptBal": "amount of PT received"
        }
      },
      "swapTargetForYTs(address,uint256,uint256,uint256,uint256)": {
        "params": {
          "adapter": "Adapter address for the Series",
          "maturity": "Maturity date for the Series",
          "minOut": "Min accepted amount of YT",
          "targetIn": "Balance of Target to sell",
          "targetToBorrow": "Balance of Target to borrow"
        },
        "returns": {
          "targetBal": "amount of Target sent back",
          "ytBal": "amount of YT received"
        }
      },
      "swapUnderlyingForPTs(address,uint256,uint256,uint256)": {
        "params": {
          "adapter": "Adapter address for the Series",
          "maturity": "Maturity date for the Series",
          "minAccepted": "Min accepted amount of PT",
          "uBal": "Balance of Underlying to sell"
        },
        "returns": {
          "ptBal": "amount of PT received"
        }
      },
      "swapUnderlyingForYTs(address,uint256,uint256,uint256,uint256)": {
        "params": {
          "adapter": "Adapter address for the Series",
          "maturity": "Maturity date for the Series",
          "minOut": "Min accepted amount of YT",
          "targetToBorrow": "Balance of Target to borrow",
          "underlyingIn": "Balance of Underlying to sell"
        },
        "returns": {
          "targetBal": "amount of Target sent back",
          "ytBal": "amount of YT received"
        }
      },
      "swapYTsForTarget(address,uint256,uint256)": {
        "params": {
          "adapter": "Adapter address for the Series",
          "maturity": "Maturity date for the Series",
          "ytBal": "Balance of Yield Tokens to swap"
        }
      },
      "swapYTsForUnderlying(address,uint256,uint256)": {
        "params": {
          "adapter": "Adapter address for the Series",
          "maturity": "Maturity date for the Series",
          "ytBal": "Balance of Yield Tokens to swap"
        }
      },
      "verifyAdapter(address,bool)": {
        "details": "Verifies an Adapter and optionally adds the Target to the money market",
        "params": {
          "adapter": "Adapter to verify"
        }
      }
    },
    "title": "Periphery",
    "version": 1
  },
  "userdoc": {
    "kind": "user",
    "methods": {
      "MIN_YT_SWAP_IN()": {
        "notice": "Lower bound on the amount of Claim tokens one can swap in for Target"
      },
      "PRICE_ESTIMATE_ACCEPTABLE_ERROR()": {
        "notice": "Acceptable error when estimating the tokens resulting from a specific swap"
      },
      "addLiquidityFromTarget(address,uint256,uint256,uint8,uint256)": {
        "notice": "Adds liquidity providing target"
      },
      "addLiquidityFromUnderlying(address,uint256,uint256,uint8,uint256)": {
        "notice": "Adds liquidity providing underlying"
      },
      "balancerVault()": {
        "notice": "Sense core Divider address"
      },
      "deployAdapter(address,address,bytes)": {
        "notice": "Deploy and onboard a Adapter"
      },
      "divider()": {
        "notice": "Sense core Divider address"
      },
      "factories(address)": {
        "notice": "adapter factories -> is supported"
      },
      "migrateLiquidity(address,address,uint256,uint256,uint256,uint256[],uint256,uint8,bool,uint256)": {
        "notice": "Migrates liquidity position from one series to another"
      },
      "onboardAdapter(address,bool)": {
        "notice": "Onboard a single Adapter w/o needing a factory"
      },
      "poolManager()": {
        "notice": "Sense core Divider address"
      },
      "removeLiquidity(address,uint256,uint256,uint256[],uint256,bool)": {
        "notice": "Removes liquidity providing an amount of LP tokens and returns target"
      },
      "removeLiquidityAndUnwrapTarget(address,uint256,uint256,uint256[],uint256,bool)": {
        "notice": "Removes liquidity providing an amount of LP tokens and returns underlying"
      },
      "setFactory(address,bool)": {
        "notice": "Enable or disable a factory"
      },
      "setPoolManager(address)": {
        "notice": "Update the address for the Pool Manager"
      },
      "setSpaceFactory(address)": {
        "notice": "Update the address for the Space Factory"
      },
      "spaceFactory()": {
        "notice": "Sense core Divider address"
      },
      "sponsorSeries(address,uint256,bool)": {
        "notice": "Sponsor a new Series in any adapter previously onboarded onto the Divider"
      },
      "swapPTsForTarget(address,uint256,uint256,uint256)": {
        "notice": "Swap Principal Tokens for Target of a particular series"
      },
      "swapPTsForUnderlying(address,uint256,uint256,uint256)": {
        "notice": "Swap Principal Tokens for Underlying of a particular series"
      },
      "swapTargetForPTs(address,uint256,uint256,uint256)": {
        "notice": "Swap Target to Principal Tokens of a particular series"
      },
      "swapTargetForYTs(address,uint256,uint256,uint256,uint256)": {
        "notice": "Swap Target to Yield Tokens of a particular series"
      },
      "swapUnderlyingForPTs(address,uint256,uint256,uint256)": {
        "notice": "Swap Underlying to Principal Tokens of a particular series"
      },
      "swapUnderlyingForYTs(address,uint256,uint256,uint256,uint256)": {
        "notice": "Swap Underlying to Yield of a particular series"
      },
      "swapYTsForTarget(address,uint256,uint256)": {
        "notice": "Swap YT for Target of a particular series"
      },
      "swapYTsForUnderlying(address,uint256,uint256)": {
        "notice": "Swap YT for Underlying of a particular series"
      },
      "verified(address)": {
        "notice": "adapter -> bool"
      }
    },
    "version": 1
  },
  "storageLayout": {
    "storage": [
      {
        "astId": 17068,
        "contract": "@sense-finance/v1-core/src/Periphery.sol:Periphery",
        "label": "isTrusted",
        "offset": 0,
        "slot": "0",
        "type": "t_mapping(t_address,t_bool)"
      },
      {
        "astId": 4050,
        "contract": "@sense-finance/v1-core/src/Periphery.sol:Periphery",
        "label": "poolManager",
        "offset": 0,
        "slot": "1",
        "type": "t_contract(PoolManager)16145"
      },
      {
        "astId": 4054,
        "contract": "@sense-finance/v1-core/src/Periphery.sol:Periphery",
        "label": "spaceFactory",
        "offset": 0,
        "slot": "2",
        "type": "t_contract(SpaceFactoryLike)4015"
      },
      {
        "astId": 4059,
        "contract": "@sense-finance/v1-core/src/Periphery.sol:Periphery",
        "label": "factories",
        "offset": 0,
        "slot": "3",
        "type": "t_mapping(t_address,t_bool)"
      },
      {
        "astId": 4064,
        "contract": "@sense-finance/v1-core/src/Periphery.sol:Periphery",
        "label": "verified",
        "offset": 0,
        "slot": "4",
        "type": "t_mapping(t_address,t_bool)"
      }
    ],
    "types": {
      "t_address": {
        "encoding": "inplace",
        "label": "address",
        "numberOfBytes": "20"
      },
      "t_bool": {
        "encoding": "inplace",
        "label": "bool",
        "numberOfBytes": "1"
      },
      "t_contract(PoolManager)16145": {
        "encoding": "inplace",
        "label": "contract PoolManager",
        "numberOfBytes": "20"
      },
      "t_contract(SpaceFactoryLike)4015": {
        "encoding": "inplace",
        "label": "contract SpaceFactoryLike",
        "numberOfBytes": "20"
      },
      "t_mapping(t_address,t_bool)": {
        "encoding": "mapping",
        "key": "t_address",
        "label": "mapping(address => bool)",
        "numberOfBytes": "32",
        "value": "t_bool"
      }
    }
  }
}