{
  "address": "0x6fC4843aac4786b4420e954a2271BE16f225a482",
  "abi": [
    {
      "inputs": [
        {
          "internalType": "address",
          "name": "_divider",
          "type": "address"
        },
        {
          "internalType": "address",
          "name": "_target",
          "type": "address"
        },
        {
          "internalType": "uint128",
          "name": "_ifee",
          "type": "uint128"
        },
        {
          "components": [
            {
              "internalType": "address",
              "name": "oracle",
              "type": "address"
            },
            {
              "internalType": "address",
              "name": "stake",
              "type": "address"
            },
            {
              "internalType": "uint256",
              "name": "stakeSize",
              "type": "uint256"
            },
            {
              "internalType": "uint256",
              "name": "minm",
              "type": "uint256"
            },
            {
              "internalType": "uint256",
              "name": "maxm",
              "type": "uint256"
            },
            {
              "internalType": "uint64",
              "name": "tilt",
              "type": "uint64"
            },
            {
              "internalType": "uint48",
              "name": "level",
              "type": "uint48"
            },
            {
              "internalType": "uint16",
              "name": "mode",
              "type": "uint16"
            }
          ],
          "internalType": "struct BaseAdapter.AdapterParams",
          "name": "_adapterParams",
          "type": "tuple"
        }
      ],
      "stateMutability": "nonpayable",
      "type": "constructor"
    },
    {
      "inputs": [],
      "name": "FlashCallbackFailed",
      "type": "error"
    },
    {
      "inputs": [],
      "name": "InvalidPrice",
      "type": "error"
    },
    {
      "inputs": [],
      "name": "OnlyPeriphery",
      "type": "error"
    },
    {
      "inputs": [],
      "name": "TokenNotSupported",
      "type": "error"
    },
    {
      "inputs": [],
      "name": "CALLBACK_SUCCESS",
      "outputs": [
        {
          "internalType": "bytes32",
          "name": "",
          "type": "bytes32"
        }
      ],
      "stateMutability": "view",
      "type": "function"
    },
    {
      "inputs": [],
      "name": "ETH_USD_PRICEFEED",
      "outputs": [
        {
          "internalType": "address",
          "name": "",
          "type": "address"
        }
      ],
      "stateMutability": "view",
      "type": "function"
    },
    {
      "inputs": [],
      "name": "STETH",
      "outputs": [
        {
          "internalType": "address",
          "name": "",
          "type": "address"
        }
      ],
      "stateMutability": "view",
      "type": "function"
    },
    {
      "inputs": [],
      "name": "STETH_USD_PRICEFEED",
      "outputs": [
        {
          "internalType": "address",
          "name": "",
          "type": "address"
        }
      ],
      "stateMutability": "view",
      "type": "function"
    },
    {
      "inputs": [],
      "name": "WSTETH",
      "outputs": [
        {
          "internalType": "address",
          "name": "",
          "type": "address"
        }
      ],
      "stateMutability": "view",
      "type": "function"
    },
    {
      "inputs": [],
      "name": "adapterParams",
      "outputs": [
        {
          "internalType": "address",
          "name": "oracle",
          "type": "address"
        },
        {
          "internalType": "address",
          "name": "stake",
          "type": "address"
        },
        {
          "internalType": "uint256",
          "name": "stakeSize",
          "type": "uint256"
        },
        {
          "internalType": "uint256",
          "name": "minm",
          "type": "uint256"
        },
        {
          "internalType": "uint256",
          "name": "maxm",
          "type": "uint256"
        },
        {
          "internalType": "uint64",
          "name": "tilt",
          "type": "uint64"
        },
        {
          "internalType": "uint48",
          "name": "level",
          "type": "uint48"
        },
        {
          "internalType": "uint16",
          "name": "mode",
          "type": "uint16"
        }
      ],
      "stateMutability": "view",
      "type": "function"
    },
    {
      "inputs": [],
      "name": "divider",
      "outputs": [
        {
          "internalType": "address",
          "name": "",
          "type": "address"
        }
      ],
      "stateMutability": "view",
      "type": "function"
    },
    {
      "inputs": [
        {
          "internalType": "address",
          "name": "token",
          "type": "address"
        },
        {
          "internalType": "uint256",
          "name": "",
          "type": "uint256"
        }
      ],
      "name": "flashFee",
      "outputs": [
        {
          "internalType": "uint256",
          "name": "",
          "type": "uint256"
        }
      ],
      "stateMutability": "view",
      "type": "function"
    },
    {
      "inputs": [
        {
          "internalType": "contract IERC3156FlashBorrower",
          "name": "receiver",
          "type": "address"
        },
        {
          "internalType": "address",
          "name": "",
          "type": "address"
        },
        {
          "internalType": "uint256",
          "name": "amount",
          "type": "uint256"
        },
        {
          "internalType": "bytes",
          "name": "data",
          "type": "bytes"
        }
      ],
      "name": "flashLoan",
      "outputs": [
        {
          "internalType": "bool",
          "name": "",
          "type": "bool"
        }
      ],
      "stateMutability": "nonpayable",
      "type": "function"
    },
    {
      "inputs": [],
      "name": "getMaturityBounds",
      "outputs": [
        {
          "internalType": "uint256",
          "name": "",
          "type": "uint256"
        },
        {
          "internalType": "uint256",
          "name": "",
          "type": "uint256"
        }
      ],
      "stateMutability": "view",
      "type": "function"
    },
    {
      "inputs": [],
      "name": "getStakeAndTarget",
      "outputs": [
        {
          "internalType": "address",
          "name": "",
          "type": "address"
        },
        {
          "internalType": "address",
          "name": "",
          "type": "address"
        },
        {
          "internalType": "uint256",
          "name": "",
          "type": "uint256"
        }
      ],
      "stateMutability": "view",
      "type": "function"
    },
    {
      "inputs": [],
      "name": "getUnderlyingPrice",
      "outputs": [
        {
          "internalType": "uint256",
          "name": "price",
          "type": "uint256"
        }
      ],
      "stateMutability": "view",
      "type": "function"
    },
    {
      "inputs": [],
      "name": "ifee",
      "outputs": [
        {
          "internalType": "uint128",
          "name": "",
          "type": "uint128"
        }
      ],
      "stateMutability": "view",
      "type": "function"
    },
    {
      "inputs": [],
      "name": "level",
      "outputs": [
        {
          "internalType": "uint256",
          "name": "",
          "type": "uint256"
        }
      ],
      "stateMutability": "view",
      "type": "function"
    },
    {
      "inputs": [
        {
          "internalType": "address",
          "name": "token",
          "type": "address"
        }
      ],
      "name": "maxFlashLoan",
      "outputs": [
        {
          "internalType": "uint256",
          "name": "",
          "type": "uint256"
        }
      ],
      "stateMutability": "view",
      "type": "function"
    },
    {
      "inputs": [],
      "name": "mode",
      "outputs": [
        {
          "internalType": "uint256",
          "name": "",
          "type": "uint256"
        }
      ],
      "stateMutability": "view",
      "type": "function"
    },
    {
      "inputs": [],
      "name": "name",
      "outputs": [
        {
          "internalType": "string",
          "name": "",
          "type": "string"
        }
      ],
      "stateMutability": "view",
      "type": "function"
    },
    {
      "inputs": [
        {
          "internalType": "address",
          "name": "",
          "type": "address"
        },
        {
          "internalType": "uint256",
          "name": "",
          "type": "uint256"
        },
        {
          "internalType": "bool",
          "name": "",
          "type": "bool"
        }
      ],
      "name": "notify",
      "outputs": [],
      "stateMutability": "nonpayable",
      "type": "function"
    },
    {
      "inputs": [
        {
          "internalType": "uint256",
          "name": "",
          "type": "uint256"
        },
        {
          "internalType": "uint256",
          "name": "",
          "type": "uint256"
        },
        {
          "internalType": "uint256",
          "name": "",
          "type": "uint256"
        },
        {
          "internalType": "uint256",
          "name": "",
          "type": "uint256"
        }
      ],
      "name": "onRedeem",
      "outputs": [],
      "stateMutability": "nonpayable",
      "type": "function"
    },
    {
      "inputs": [],
      "name": "scale",
      "outputs": [
        {
          "internalType": "uint256",
          "name": "exRate",
          "type": "uint256"
        }
      ],
      "stateMutability": "nonpayable",
      "type": "function"
    },
    {
      "inputs": [],
      "name": "scaleStored",
      "outputs": [
        {
          "internalType": "uint256",
          "name": "",
          "type": "uint256"
        }
      ],
      "stateMutability": "view",
      "type": "function"
    },
    {
      "inputs": [],
      "name": "symbol",
      "outputs": [
        {
          "internalType": "string",
          "name": "",
          "type": "string"
        }
      ],
      "stateMutability": "view",
      "type": "function"
    },
    {
      "inputs": [],
      "name": "target",
      "outputs": [
        {
          "internalType": "address",
          "name": "",
          "type": "address"
        }
      ],
      "stateMutability": "view",
      "type": "function"
    },
    {
      "inputs": [],
      "name": "tilt",
      "outputs": [
        {
          "internalType": "uint256",
          "name": "",
          "type": "uint256"
        }
      ],
      "stateMutability": "view",
      "type": "function"
    },
    {
      "inputs": [],
      "name": "underlying",
      "outputs": [
        {
          "internalType": "address",
          "name": "",
          "type": "address"
        }
      ],
      "stateMutability": "view",
      "type": "function"
    },
    {
      "inputs": [
        {
          "internalType": "uint256",
          "name": "amount",
          "type": "uint256"
        }
      ],
      "name": "unwrapTarget",
      "outputs": [
        {
          "internalType": "uint256",
          "name": "stETH",
          "type": "uint256"
        }
      ],
      "stateMutability": "nonpayable",
      "type": "function"
    },
    {
      "inputs": [
        {
          "internalType": "uint256",
          "name": "amount",
          "type": "uint256"
        }
      ],
      "name": "wrapUnderlying",
      "outputs": [
        {
          "internalType": "uint256",
          "name": "wstETH",
          "type": "uint256"
        }
      ],
      "stateMutability": "nonpayable",
      "type": "function"
    }
  ],
  "transactionHash": "0xb7ae97e358b1111f46ae66fafa35978bd64912382a995e6461c7e01a91ff48bb",
  "args": [
    "0x86bA3E96Be68563E41c2f5769F1AF9fAf758e6E0",
    "0x7f39C581F595B53c5cb19bD0b3f8dA6c935E2Ca0",
    "0",
    [
      "0x0000000000000000000000000000000000000000",
      "0xC02aaA39b223FE8D0A0e5C4F27eAD9083C756Cc2",
      "250000000000000000",
      "2629800",
      "315576000",
      0,
      31,
      0
    ]
  ],
  "numDeployments": 1,
  "solcInputHash": "f2cef6243952cf2b302e545440ec7ffa",
  "bytecode": "0x6101006040523480156200001257600080fd5b5060405162001cd038038062001cd08339810160408190526200003591620005b9565b6001600160a01b03808516608090815281851660a081815273ae7ab96520de3a18e5e111b5eaab095312d7fe8460c08181526001600160801b03881660e09081528751600080549189166001600160a01b031992831617815560208a01516001805491909a1692169190911790975560408089015160025560608901516003559588015160049081559388015160058054938a0151928a015161ffff16600160701b0261ffff60701b1965ffffffffffff90941668010000000000000000026001600160701b03199095166001600160401b0390931692909217939093179190911617905583516306fdde0360e01b815293518995899592948994899491936306fdde0393838301939092908290030181865afa1580156200015b573d6000803e3d6000fd5b505050506040513d6000823e601f3d908101601f19168201604052620001859190810190620006f3565b604051602001620001979190620007ab565b60405160208183030381529060405260069080519060200190620001bd9291906200048a565b50836001600160a01b03166395d89b416040518163ffffffff1660e01b8152600401600060405180830381865afa158015620001fd573d6000803e3d6000fd5b505050506040513d6000823e601f3d908101601f19168201604052620002279190810190620006f3565b604051602001620002399190620007d9565b604051602081830303815290604052600790805190602001906200025f9291906200048a565b5060805160405163095ea7b360e01b81526001600160a01b03918216600482015260001960248201529085169063095ea7b3906044016020604051808303816000875af1158015620002b5573d6000803e3d6000fd5b505050506040513d601f19601f82011682018060405250810190620002db919062000807565b50602081015160805160405163095ea7b360e01b81526001600160a01b039182166004820152600019602482015291169063095ea7b3906044016020604051808303816000875af115801562000335573d6000803e3d6000fd5b505050506040513d601f19601f820116820180604052508101906200035b919062000807565b505060405163095ea7b360e01b8152737f39c581f595b53c5cb19bd0b3f8da6c935e2ca06004820152600019602482015273ae7ab96520de3a18e5e111b5eaab095312d7fe84945063095ea7b393506044019150620003b79050565b6020604051808303816000875af1158015620003d7573d6000803e3d6000fd5b505050506040513d601f19601f82011682018060405250810190620003fd919062000807565b50604051630f451f7160e31b8152670de0b6b3a7640000600482015273ae7ab96520de3a18e5e111b5eaab095312d7fe8490637a28fb8890602401602060405180830381865afa15801562000456573d6000803e3d6000fd5b505050506040513d601f19601f820116820180604052508101906200047c919062000832565b600855506200088992505050565b82805462000498906200084c565b90600052602060002090601f016020900481019282620004bc576000855562000507565b82601f10620004d757805160ff191683800117855562000507565b8280016001018555821562000507579182015b8281111562000507578251825591602001919060010190620004ea565b506200051592915062000519565b5090565b5b808211156200051557600081556001016200051a565b80516001600160a01b03811681146200054857600080fd5b919050565b634e487b7160e01b600052604160045260246000fd5b60405161010081016001600160401b03811182821017156200058957620005896200054d565b60405290565b805165ffffffffffff811681146200054857600080fd5b805161ffff811681146200054857600080fd5b600080600080848603610160811215620005d257600080fd5b620005dd8662000530565b9450620005ed6020870162000530565b60408701519094506001600160801b03811681146200060b57600080fd5b9250610100605f1982018113156200062257600080fd5b6200062c62000563565b91506200063c6060880162000530565b82526200064c6080880162000530565b602083015260a0870151604083015260c0870151606083015260e087015160808301528601516001600160401b03811681146200068857600080fd5b60a08201526200069c61012087016200058f565b60c0820152620006b06101408701620005a6565b60e0820152939692955090935050565b60005b83811015620006dd578181015183820152602001620006c3565b83811115620006ed576000848401525b50505050565b6000602082840312156200070657600080fd5b81516001600160401b03808211156200071e57600080fd5b818401915084601f8301126200073357600080fd5b8151818111156200074857620007486200054d565b604051601f8201601f19908116603f011681019083821181831017156200077357620007736200054d565b816040528281528760208487010111156200078d57600080fd5b620007a0836020830160208801620006c0565b979650505050505050565b60008251620007bf818460208701620006c0565b671020b230b83a32b960c11b920191825250600801919050565b60008251620007ed818460208701620006c0565b6716b0b230b83a32b960c11b920191825250600801919050565b6000602082840312156200081a57600080fd5b815180151581146200082b57600080fd5b9392505050565b6000602082840312156200084557600080fd5b5051919050565b600181811c908216806200086157607f821691505b602082108114156200088357634e487b7160e01b600052602260045260246000fd5b50919050565b60805160a05160c05160e0516113e3620008ed60003960006104e0015260006104400152600081816103010152818161053a01528181610ab201528181610b2801528181610c100152610ced01526000818161035a01526109be01526113e36000f3fe608060405234801561001057600080fd5b50600436106101b95760003560e01c806364c56e3c116100f9578063b8c15a9f11610097578063d9d98ce411610071578063d9d98ce41461055c578063d9fb643a1461056f578063e00bfe501461058a578063f51e181a146105a557600080fd5b8063b8c15a9f146104db578063c39a3b2914610523578063d4b839921461053557600080fd5b80638237e538116100d35780638237e5381461047e57806395d89b41146104a5578063985579a4146104ad578063b484972a146104c857600080fd5b806364c56e3c146104205780636f307dc31461043b5780636fd5ae151461046257600080fd5b8063378efa37116101665780634aae9fed116101405780634aae9fed146103c457806351c39ea1146103d75780635cffe9de146103ea578063613255ab1461040d57600080fd5b8063378efa371461035557806340cc63e1146103a1578063468f02d2146103bc57600080fd5b8063226778491161019757806322677849146102c957806327b327d0146102e0578063295a52121461033757600080fd5b806306fdde03146101be578063083118d5146101dc57806314282f58146102b3575b600080fd5b6101c66105ad565b6040516101d39190610fe3565b60405180910390f35b60005460015460025460035460045460055461024a9573ffffffffffffffffffffffffffffffffffffffff90811695169392919067ffffffffffffffff81169068010000000000000000810465ffffffffffff16906e010000000000000000000000000000900461ffff1688565b6040805173ffffffffffffffffffffffffffffffffffffffff998a168152989097166020890152958701949094526060860192909252608085015267ffffffffffffffff1660a084015265ffffffffffff1660c083015261ffff1660e0820152610100016101d3565b6102c76102c1366004611056565b50505050565b005b6102d260085481565b6040519081526020016101d3565b6001546002546040805173ffffffffffffffffffffffffffffffffffffffff7f00000000000000000000000000000000000000000000000000000000000000008116825290931660208401528201526060016101d3565b6005546e010000000000000000000000000000900461ffff166102d2565b61037c7f000000000000000000000000000000000000000000000000000000000000000081565b60405173ffffffffffffffffffffffffffffffffffffffff90911681526020016101d3565b61037c735f4ec3df9cbd43714fe2740f5e3616155c5b841981565b6102d261063b565b6102d26103d2366004611088565b6107f4565b6102d26103e5366004611088565b6108ce565b6103fd6103f83660046110c6565b6109a3565b60405190151581526020016101d3565b6102d261041b366004611165565b610c45565b600354600454604080519283526020830191909152016101d3565b61037c7f000000000000000000000000000000000000000000000000000000000000000081565b60055468010000000000000000900465ffffffffffff166102d2565b6102d27f439148f0bbc682ca079e46d6e2c2f0c1e3b820f1a291b069d8882abf8cf18dd981565b6101c6610cdc565b61037c73cfe54b5cd566ab89272946f602d76ea879cab4a881565b6102c76104d6366004611182565b505050565b6105027f000000000000000000000000000000000000000000000000000000000000000081565b6040516fffffffffffffffffffffffffffffffff90911681526020016101d3565b60055467ffffffffffffffff166102d2565b61037c7f000000000000000000000000000000000000000000000000000000000000000081565b6102d261056a3660046111c9565b610ce9565b61037c737f39c581f595b53c5cb19bd0b3f8da6c935e2ca081565b61037c73ae7ab96520de3a18e5e111b5eaab095312d7fe8481565b6102d2610d79565b600680546105ba906111f5565b80601f01602080910402602001604051908101604052809291908181526020018280546105e6906111f5565b80156106335780601f1061060857610100808354040283529160200191610633565b820191906000526020600020905b81548152906001019060200180831161061657829003601f168201915b505050505081565b600080600073cfe54b5cd566ab89272946f602d76ea879cab4a873ffffffffffffffffffffffffffffffffffffffff1663feaf968c6040518163ffffffff1660e01b815260040160a060405180830381865afa15801561069f573d6000803e3d6000fd5b505050506040513d601f19601f820116820180604052508101906106c39190611263565b50935050925050600080735f4ec3df9cbd43714fe2740f5e3616155c5b841973ffffffffffffffffffffffffffffffffffffffff1663feaf968c6040518163ffffffff1660e01b815260040160a060405180830381865afa15801561072c573d6000803e3d6000fd5b505050506040513d601f19601f820116820180604052508101906107509190611263565b50935050925050611c20834261076691906112b3565b111561079d576040517ebfc92100000000000000000000000000000000000000000000000000000000815260040160405180910390fd5b611c206107aa82426112b3565b11156107e1576040517ebfc92100000000000000000000000000000000000000000000000000000000815260040160405180910390fd5b6107eb8483610e24565b94505050505090565b600061081673ae7ab96520de3a18e5e111b5eaab095312d7fe84333085610e40565b6040517fea598cb0000000000000000000000000000000000000000000000000000000008152600481018390526108c9903390737f39c581f595b53c5cb19bd0b3f8da6c935e2ca09063ea598cb0906024016020604051808303816000875af1158015610887573d6000803e3d6000fd5b505050506040513d601f19601f820116820180604052508101906108ab91906112f1565b9250737f39c581f595b53c5cb19bd0b3f8da6c935e2ca09083610f0b565b919050565b60006108f0737f39c581f595b53c5cb19bd0b3f8da6c935e2ca0333085610e40565b6040517fde0e9a3e000000000000000000000000000000000000000000000000000000008152600481018390526108c9903390737f39c581f595b53c5cb19bd0b3f8da6c935e2ca09063de0e9a3e906024016020604051808303816000875af1158015610961573d6000803e3d6000fd5b505050506040513d601f19601f8201168201806040525081019061098591906112f1565b925073ae7ab96520de3a18e5e111b5eaab095312d7fe849083610f0b565b60003373ffffffffffffffffffffffffffffffffffffffff167f000000000000000000000000000000000000000000000000000000000000000073ffffffffffffffffffffffffffffffffffffffff166377aace1a6040518163ffffffff1660e01b8152600401602060405180830381865afa158015610a27573d6000803e3d6000fd5b505050506040513d601f19601f82011682018060405250810190610a4b919061130a565b73ffffffffffffffffffffffffffffffffffffffff1614610a98576040517ffb02114900000000000000000000000000000000000000000000000000000000815260040160405180910390fd5b610ad973ffffffffffffffffffffffffffffffffffffffff7f0000000000000000000000000000000000000000000000000000000000000000168786610f0b565b6040517f23e30c8b00000000000000000000000000000000000000000000000000000000815260009073ffffffffffffffffffffffffffffffffffffffff8816906323e30c8b90610b589033907f0000000000000000000000000000000000000000000000000000000000000000908a9087908b908b90600401611327565b6020604051808303816000875af1158015610b77573d6000803e3d6000fd5b505050506040513d601f19601f82011682018060405250810190610b9b91906112f1565b90507f439148f0bbc682ca079e46d6e2c2f0c1e3b820f1a291b069d8882abf8cf18dd98114610bf6576040517f207df21c00000000000000000000000000000000000000000000000000000000815260040160405180910390fd5b610c3873ffffffffffffffffffffffffffffffffffffffff7f000000000000000000000000000000000000000000000000000000000000000016883088610e40565b5060019695505050505050565b6040517f70a0823100000000000000000000000000000000000000000000000000000000815230600482015260009073ffffffffffffffffffffffffffffffffffffffff8316906370a0823190602401602060405180830381865afa158015610cb2573d6000803e3d6000fd5b505050506040513d601f19601f82011682018060405250810190610cd691906112f1565b92915050565b600780546105ba906111f5565b60007f000000000000000000000000000000000000000000000000000000000000000073ffffffffffffffffffffffffffffffffffffffff168373ffffffffffffffffffffffffffffffffffffffff1614610d70576040517f3dd1b30500000000000000000000000000000000000000000000000000000000815260040160405180910390fd5b50600092915050565b6040517f7a28fb88000000000000000000000000000000000000000000000000000000008152670de0b6b3a7640000600482015260009073ae7ab96520de3a18e5e111b5eaab095312d7fe8490637a28fb8890602401602060405180830381865afa158015610dec573d6000803e3d6000fd5b505050506040513d601f19601f82011682018060405250810190610e1091906112f1565b90506008548114610e215760088190555b90565b6000610e3983670de0b6b3a764000084610fc4565b9392505050565b60006040517f23b872dd0000000000000000000000000000000000000000000000000000000081528460048201528360248201528260448201526020600060648360008a5af13d15601f3d1160016000511416171691505080610f04576040517f08c379a000000000000000000000000000000000000000000000000000000000815260206004820152601460248201527f5452414e534645525f46524f4d5f4641494c454400000000000000000000000060448201526064015b60405180910390fd5b5050505050565b60006040517fa9059cbb000000000000000000000000000000000000000000000000000000008152836004820152826024820152602060006044836000895af13d15601f3d11600160005114161716915050806102c1576040517f08c379a000000000000000000000000000000000000000000000000000000000815260206004820152600f60248201527f5452414e534645525f4641494c454400000000000000000000000000000000006044820152606401610efb565b828202811515841585830485141716610fdc57600080fd5b0492915050565b600060208083528351808285015260005b8181101561101057858101830151858201604001528201610ff4565b81811115611022576000604083870101525b50601f017fffffffffffffffffffffffffffffffffffffffffffffffffffffffffffffffe016929092016040019392505050565b6000806000806080858703121561106c57600080fd5b5050823594602084013594506040840135936060013592509050565b60006020828403121561109a57600080fd5b5035919050565b73ffffffffffffffffffffffffffffffffffffffff811681146110c357600080fd5b50565b6000806000806000608086880312156110de57600080fd5b85356110e9816110a1565b945060208601356110f9816110a1565b935060408601359250606086013567ffffffffffffffff8082111561111d57600080fd5b818801915088601f83011261113157600080fd5b81358181111561114057600080fd5b89602082850101111561115257600080fd5b9699959850939650602001949392505050565b60006020828403121561117757600080fd5b8135610e39816110a1565b60008060006060848603121561119757600080fd5b83356111a2816110a1565b925060208401359150604084013580151581146111be57600080fd5b809150509250925092565b600080604083850312156111dc57600080fd5b82356111e7816110a1565b946020939093013593505050565b600181811c9082168061120957607f821691505b60208210811415611243577f4e487b7100000000000000000000000000000000000000000000000000000000600052602260045260246000fd5b50919050565b805169ffffffffffffffffffff811681146108c957600080fd5b600080600080600060a0868803121561127b57600080fd5b61128486611249565b94506020860151935060408601519250606086015191506112a760808701611249565b90509295509295909350565b6000828210156112ec577f4e487b7100000000000000000000000000000000000000000000000000000000600052601160045260246000fd5b500390565b60006020828403121561130357600080fd5b5051919050565b60006020828403121561131c57600080fd5b8151610e39816110a1565b600073ffffffffffffffffffffffffffffffffffffffff808916835280881660208401525085604083015284606083015260a060808301528260a0830152828460c0840137600060c0848401015260c07fffffffffffffffffffffffffffffffffffffffffffffffffffffffffffffffe0601f850116830101905097965050505050505056fea264697066735822122019a07943a88d6e771fa48c8e3ea76e9c59bbc7fa1c05636b7041a4c126e4837b64736f6c634300080b0033",
  "devdoc": {
    "kind": "dev",
    "methods": {
      "flashLoan(address,address,uint256,bytes)": {
        "params": {
          "amount": "The amount of target lent.",
          "data": "(encoded adapter address, maturity and YT amount the use has sent in)",
          "receiver": "The contract receiving target, needs to implement the `onFlashLoan(address user, address adapter, uint256 maturity, uint256 amount)` interface."
        }
      },
      "getUnderlyingPrice()": {
        "details": "To calculate stETH-ETH price we use Chainlink's stETH-USD and ETH-USD price feeds."
      },
      "maxFlashLoan(address)": {
        "details": "The amount of currency available to be lent.",
        "params": {
          "token": "The loan currency."
        },
        "returns": {
          "_0": "The amount of `token` that can be borrowed."
        }
      },
      "scale()": {
        "returns": {
          "exRate": "Eth per wstEtH (natively in 18 decimals)"
        }
      },
      "unwrapTarget(uint256)": {
        "params": {
          "amount": "Target amount"
        },
        "returns": {
          "stETH": "amount of underlying returned"
        }
      },
      "wrapUnderlying(uint256)": {
        "params": {
          "amount": "Underlying amount"
        },
        "returns": {
          "wstETH": "amount of target returned"
        }
      }
    },
    "version": 1
  },
  "userdoc": {
    "kind": "user",
    "methods": {
      "adapterParams()": {
        "notice": "adapter params"
      },
      "divider()": {
        "notice": "Sense core Divider address"
      },
      "flashLoan(address,address,uint256,bytes)": {
        "notice": "Loan `amount` target to `receiver`, and takes it back after the callback."
      },
      "ifee()": {
        "notice": "Issuance fee"
      },
      "notify(address,uint256,bool)": {
        "notice": "Notification whenever the Divider adds or removes Target"
      },
      "onRedeem(uint256,uint256,uint256,uint256)": {
        "notice": "Hook called whenever a user redeems PT"
      },
      "scaleStored()": {
        "notice": "Cached scale value from the last call to `scale()`"
      },
      "target()": {
        "notice": "Target token to divide"
      },
      "underlying()": {
        "notice": "Underlying for the Target"
      },
      "unwrapTarget(uint256)": {
        "notice": "Deposits target `amount`in return for underlying. Must be overriden by child contracts"
      },
      "wrapUnderlying(uint256)": {
        "notice": "Deposits underlying `amount`in return for target. Must be overriden by child contracts"
      }
    },
    "notice": "Adapter contract for wstETH",
    "version": 1
  },
  "storageLayout": {
    "storage": [
      {
        "astId": 7393,
        "contract": "@sense-finance/v1-core/src/adapters/implementations/lido/WstETHAdapter.sol:WstETHAdapter",
        "label": "adapterParams",
        "offset": 0,
        "slot": "0",
        "type": "t_struct(AdapterParams)7418_storage"
      },
      {
        "astId": 7420,
        "contract": "@sense-finance/v1-core/src/adapters/implementations/lido/WstETHAdapter.sol:WstETHAdapter",
        "label": "name",
        "offset": 0,
        "slot": "6",
        "type": "t_string_storage"
      },
      {
        "astId": 7422,
        "contract": "@sense-finance/v1-core/src/adapters/implementations/lido/WstETHAdapter.sol:WstETHAdapter",
        "label": "symbol",
        "offset": 0,
        "slot": "7",
        "type": "t_string_storage"
      },
      {
        "astId": 11485,
        "contract": "@sense-finance/v1-core/src/adapters/implementations/lido/WstETHAdapter.sol:WstETHAdapter",
        "label": "scaleStored",
        "offset": 0,
        "slot": "8",
        "type": "t_uint256"
      }
    ],
    "types": {
      "t_address": {
        "encoding": "inplace",
        "label": "address",
        "numberOfBytes": "20"
      },
      "t_string_storage": {
        "encoding": "bytes",
        "label": "string",
        "numberOfBytes": "32"
      },
      "t_struct(AdapterParams)7418_storage": {
        "encoding": "inplace",
        "label": "struct BaseAdapter.AdapterParams",
        "members": [
          {
            "astId": 7396,
            "contract": "@sense-finance/v1-core/src/adapters/implementations/lido/WstETHAdapter.sol:WstETHAdapter",
            "label": "oracle",
            "offset": 0,
            "slot": "0",
            "type": "t_address"
          },
          {
            "astId": 7399,
            "contract": "@sense-finance/v1-core/src/adapters/implementations/lido/WstETHAdapter.sol:WstETHAdapter",
            "label": "stake",
            "offset": 0,
            "slot": "1",
            "type": "t_address"
          },
          {
            "astId": 7402,
            "contract": "@sense-finance/v1-core/src/adapters/implementations/lido/WstETHAdapter.sol:WstETHAdapter",
            "label": "stakeSize",
            "offset": 0,
            "slot": "2",
            "type": "t_uint256"
          },
          {
            "astId": 7405,
            "contract": "@sense-finance/v1-core/src/adapters/implementations/lido/WstETHAdapter.sol:WstETHAdapter",
            "label": "minm",
            "offset": 0,
            "slot": "3",
            "type": "t_uint256"
          },
          {
            "astId": 7408,
            "contract": "@sense-finance/v1-core/src/adapters/implementations/lido/WstETHAdapter.sol:WstETHAdapter",
            "label": "maxm",
            "offset": 0,
            "slot": "4",
            "type": "t_uint256"
          },
          {
            "astId": 7411,
            "contract": "@sense-finance/v1-core/src/adapters/implementations/lido/WstETHAdapter.sol:WstETHAdapter",
            "label": "tilt",
            "offset": 0,
            "slot": "5",
            "type": "t_uint64"
          },
          {
            "astId": 7414,
            "contract": "@sense-finance/v1-core/src/adapters/implementations/lido/WstETHAdapter.sol:WstETHAdapter",
            "label": "level",
            "offset": 8,
            "slot": "5",
            "type": "t_uint48"
          },
          {
            "astId": 7417,
            "contract": "@sense-finance/v1-core/src/adapters/implementations/lido/WstETHAdapter.sol:WstETHAdapter",
            "label": "mode",
            "offset": 14,
            "slot": "5",
            "type": "t_uint16"
          }
        ],
        "numberOfBytes": "192"
      },
      "t_uint16": {
        "encoding": "inplace",
        "label": "uint16",
        "numberOfBytes": "2"
      },
      "t_uint256": {
        "encoding": "inplace",
        "label": "uint256",
        "numberOfBytes": "32"
      },
      "t_uint48": {
        "encoding": "inplace",
        "label": "uint48",
        "numberOfBytes": "6"
      },
      "t_uint64": {
        "encoding": "inplace",
        "label": "uint64",
        "numberOfBytes": "8"
      }
    }
  }
}