{
  "address": "0xE5e6206f37fcb99Bac3c0Ae5f860f83A06900CDE",
  "abi": [
    {
      "inputs": [
        {
          "internalType": "address",
          "name": "_underlying",
          "type": "address"
        },
        {
          "internalType": "string",
          "name": "_name",
          "type": "string"
        },
        {
          "internalType": "string",
          "name": "_symbol",
          "type": "string"
        },
        {
          "internalType": "uint8",
          "name": "_decimal",
          "type": "uint8"
        }
      ],
      "stateMutability": "nonpayable",
      "type": "constructor"
    },
    {
      "anonymous": false,
      "inputs": [
        {
          "indexed": true,
          "internalType": "address",
          "name": "owner",
          "type": "address"
        },
        {
          "indexed": true,
          "internalType": "address",
          "name": "spender",
          "type": "address"
        },
        {
          "indexed": false,
          "internalType": "uint256",
          "name": "amount",
          "type": "uint256"
        }
      ],
      "name": "Approval",
      "type": "event"
    },
    {
      "anonymous": false,
      "inputs": [
        {
          "indexed": true,
          "internalType": "address",
          "name": "from",
          "type": "address"
        },
        {
          "indexed": true,
          "internalType": "address",
          "name": "to",
          "type": "address"
        },
        {
          "indexed": false,
          "internalType": "uint256",
          "name": "amount",
          "type": "uint256"
        }
      ],
      "name": "Transfer",
      "type": "event"
    },
    {
      "anonymous": false,
      "inputs": [
        {
          "indexed": true,
          "internalType": "address",
          "name": "user",
          "type": "address"
        },
        {
          "indexed": false,
          "internalType": "bool",
          "name": "trusted",
          "type": "bool"
        }
      ],
      "name": "UserTrustUpdated",
      "type": "event"
    },
    {
      "inputs": [],
      "name": "DOMAIN_SEPARATOR",
      "outputs": [
        {
          "internalType": "bytes32",
          "name": "",
          "type": "bytes32"
        }
      ],
      "stateMutability": "view",
      "type": "function"
    },
    {
      "inputs": [],
      "name": "PERMIT_TYPEHASH",
      "outputs": [
        {
          "internalType": "bytes32",
          "name": "",
          "type": "bytes32"
        }
      ],
      "stateMutability": "view",
      "type": "function"
    },
    {
      "inputs": [
        {
          "internalType": "address",
          "name": "",
          "type": "address"
        },
        {
          "internalType": "address",
          "name": "",
          "type": "address"
        }
      ],
      "name": "allowance",
      "outputs": [
        {
          "internalType": "uint256",
          "name": "",
          "type": "uint256"
        }
      ],
      "stateMutability": "view",
      "type": "function"
    },
    {
      "inputs": [
        {
          "internalType": "address",
          "name": "spender",
          "type": "address"
        },
        {
          "internalType": "uint256",
          "name": "amount",
          "type": "uint256"
        }
      ],
      "name": "approve",
      "outputs": [
        {
          "internalType": "bool",
          "name": "",
          "type": "bool"
        }
      ],
      "stateMutability": "nonpayable",
      "type": "function"
    },
    {
      "inputs": [
        {
          "internalType": "address",
          "name": "",
          "type": "address"
        }
      ],
      "name": "balanceOf",
      "outputs": [
        {
          "internalType": "uint256",
          "name": "",
          "type": "uint256"
        }
      ],
      "stateMutability": "view",
      "type": "function"
    },
    {
      "inputs": [
        {
          "internalType": "address",
          "name": "account",
          "type": "address"
        },
        {
          "internalType": "uint256",
          "name": "amount",
          "type": "uint256"
        }
      ],
      "name": "burn",
      "outputs": [],
      "stateMutability": "nonpayable",
      "type": "function"
    },
    {
      "inputs": [],
      "name": "decimals",
      "outputs": [
        {
          "internalType": "uint8",
          "name": "",
          "type": "uint8"
        }
      ],
      "stateMutability": "view",
      "type": "function"
    },
    {
      "inputs": [
        {
          "internalType": "address",
          "name": "",
          "type": "address"
        }
      ],
      "name": "isTrusted",
      "outputs": [
        {
          "internalType": "bool",
          "name": "",
          "type": "bool"
        }
      ],
      "stateMutability": "view",
      "type": "function"
    },
    {
      "inputs": [
        {
          "internalType": "address",
          "name": "account",
          "type": "address"
        },
        {
          "internalType": "uint256",
          "name": "amount",
          "type": "uint256"
        }
      ],
      "name": "mint",
      "outputs": [],
      "stateMutability": "nonpayable",
      "type": "function"
    },
    {
      "inputs": [],
      "name": "name",
      "outputs": [
        {
          "internalType": "string",
          "name": "",
          "type": "string"
        }
      ],
      "stateMutability": "view",
      "type": "function"
    },
    {
      "inputs": [
        {
          "internalType": "address",
          "name": "",
          "type": "address"
        }
      ],
      "name": "nonces",
      "outputs": [
        {
          "internalType": "uint256",
          "name": "",
          "type": "uint256"
        }
      ],
      "stateMutability": "view",
      "type": "function"
    },
    {
      "inputs": [
        {
          "internalType": "address",
          "name": "owner",
          "type": "address"
        },
        {
          "internalType": "address",
          "name": "spender",
          "type": "address"
        },
        {
          "internalType": "uint256",
          "name": "value",
          "type": "uint256"
        },
        {
          "internalType": "uint256",
          "name": "deadline",
          "type": "uint256"
        },
        {
          "internalType": "uint8",
          "name": "v",
          "type": "uint8"
        },
        {
          "internalType": "bytes32",
          "name": "r",
          "type": "bytes32"
        },
        {
          "internalType": "bytes32",
          "name": "s",
          "type": "bytes32"
        }
      ],
      "name": "permit",
      "outputs": [],
      "stateMutability": "nonpayable",
      "type": "function"
    },
    {
      "inputs": [
        {
          "internalType": "address",
          "name": "user",
          "type": "address"
        },
        {
          "internalType": "bool",
          "name": "trusted",
          "type": "bool"
        }
      ],
      "name": "setIsTrusted",
      "outputs": [],
      "stateMutability": "nonpayable",
      "type": "function"
    },
    {
      "inputs": [],
      "name": "symbol",
      "outputs": [
        {
          "internalType": "string",
          "name": "",
          "type": "string"
        }
      ],
      "stateMutability": "view",
      "type": "function"
    },
    {
      "inputs": [],
      "name": "totalSupply",
      "outputs": [
        {
          "internalType": "uint256",
          "name": "",
          "type": "uint256"
        }
      ],
      "stateMutability": "view",
      "type": "function"
    },
    {
      "inputs": [
        {
          "internalType": "address",
          "name": "to",
          "type": "address"
        },
        {
          "internalType": "uint256",
          "name": "amount",
          "type": "uint256"
        }
      ],
      "name": "transfer",
      "outputs": [
        {
          "internalType": "bool",
          "name": "",
          "type": "bool"
        }
      ],
      "stateMutability": "nonpayable",
      "type": "function"
    },
    {
      "inputs": [
        {
          "internalType": "address",
          "name": "from",
          "type": "address"
        },
        {
          "internalType": "address",
          "name": "to",
          "type": "address"
        },
        {
          "internalType": "uint256",
          "name": "amount",
          "type": "uint256"
        }
      ],
      "name": "transferFrom",
      "outputs": [
        {
          "internalType": "bool",
          "name": "",
          "type": "bool"
        }
      ],
      "stateMutability": "nonpayable",
      "type": "function"
    },
    {
      "inputs": [],
      "name": "underlying",
      "outputs": [
        {
          "internalType": "address",
          "name": "",
          "type": "address"
        }
      ],
      "stateMutability": "view",
      "type": "function"
    }
  ],
  "transactionHash": "0x0395adc68119229be1f12c89c71075e7e3174169f0795608da58ed59523afa41",
  "args": [
    "0x2bc195A2175e7F50E13DC2caa989Af8630A86b71",
    "cUSDC",
    "cUSDC",
    8
  ],
  "numDeployments": 1,
  "solcInputHash": "a62402fa1f1d1283a4a3002b020572e4",
  "bytecode": "0x60e06040523480156200001157600080fd5b50604051620012883803806200128883398101604081905262000034916200031d565b82828233838383826000908051906020019062000053929190620001aa565b50815162000069906001906020850190620001aa565b5060ff81166080524660a0526200007f6200010e565b60c0525050506001600160a01b038116600081815260066020908152604091829020805460ff1916600190811790915591519182527fe95aec380cae16330d146d5499ef7db6f3657e477104a733e771bc09e500d986910160405180910390a25050600780546001600160a01b0319166001600160a01b03979097169690961790955550620004a29350505050565b60007f8b73c3c69bb8fe3d512ecc4cf759cc79239f7b179b0ffacaa9a75d522b39400f6000604051620001429190620003fe565b6040805191829003822060208301939093528101919091527fc89efdaa54c0f20c7adf612882df0950f5a951637e0307cdcb4c672f298b8bc660608201524660808201523060a082015260c00160405160208183030381529060405280519060200120905090565b828054620001b890620003c1565b90600052602060002090601f016020900481019282620001dc576000855562000227565b82601f10620001f757805160ff191683800117855562000227565b8280016001018555821562000227579182015b82811115620002275782518255916020019190600101906200020a565b506200023592915062000239565b5090565b5b808211156200023557600081556001016200023a565b634e487b7160e01b600052604160045260246000fd5b600082601f8301126200027857600080fd5b81516001600160401b038082111562000295576200029562000250565b604051601f8301601f19908116603f01168101908282118183101715620002c057620002c062000250565b81604052838152602092508683858801011115620002dd57600080fd5b600091505b83821015620003015785820183015181830184015290820190620002e2565b83821115620003135760008385830101525b9695505050505050565b600080600080608085870312156200033457600080fd5b84516001600160a01b03811681146200034c57600080fd5b60208601519094506001600160401b03808211156200036a57600080fd5b620003788883890162000266565b945060408701519150808211156200038f57600080fd5b506200039e8782880162000266565b925050606085015160ff81168114620003b657600080fd5b939692955090935050565b600181811c90821680620003d657607f821691505b60208210811415620003f857634e487b7160e01b600052602260045260246000fd5b50919050565b600080835481600182811c9150808316806200041b57607f831692505b60208084108214156200043c57634e487b7160e01b86526022600452602486fd5b818015620004535760018114620004655762000494565b60ff1986168952848901965062000494565b60008a81526020902060005b868110156200048c5781548b82015290850190830162000471565b505084890196505b509498975050505050505050565b60805160a05160c051610db6620004d2600039600061059a01526000610565015260006101a70152610db66000f3fe608060405234801561001057600080fd5b50600436106100f65760003560e01c80636f307dc3116100925780636f307dc3146101f657806370a08231146102215780637ecebe001461024157806395d89b411461026157806396d64879146102695780639dc29fac1461028c578063a9059cbb1461029f578063d505accf146102b2578063dd62ed3e146102c557600080fd5b806306fdde03146100fb578063095ea7b3146101195780631393916a1461013c57806318160ddd1461015157806323b872dd1461016857806330adf81f1461017b578063313ce567146101a25780633644e515146101db57806340c10f19146101e3575b600080fd5b6101036102f0565b6040516101109190610a46565b60405180910390f35b61012c610127366004610ab7565b61037e565b6040519015158152602001610110565b61014f61014a366004610ae1565b6103ea565b005b61015a60025481565b604051908152602001610110565b61012c610176366004610b1d565b610481565b61015a7f6e71edae12b1b97f4d1f60370fef10105fa2faae0126114a169c64845d6126c981565b6101c97f000000000000000000000000000000000000000000000000000000000000000081565b60405160ff9091168152602001610110565b61015a610561565b61014f6101f1366004610ab7565b6105bc565b600754610209906001600160a01b031681565b6040516001600160a01b039091168152602001610110565b61015a61022f366004610b59565b60036020526000908152604090205481565b61015a61024f366004610b59565b60056020526000908152604090205481565b6101036105f9565b61012c610277366004610b59565b60066020526000908152604090205460ff1681565b61014f61029a366004610ab7565b610606565b61012c6102ad366004610ab7565b61063f565b61014f6102c0366004610b7b565b6106a5565b61015a6102d3366004610bee565b600460209081526000928352604080842090915290825290205481565b600080546102fd90610c21565b80601f016020809104026020016040519081016040528092919081815260200182805461032990610c21565b80156103765780601f1061034b57610100808354040283529160200191610376565b820191906000526020600020905b81548152906001019060200180831161035957829003601f168201915b505050505081565b3360008181526004602090815260408083206001600160a01b038716808552925280832085905551919290917f8c5be1e5ebec7d5bd14f71427d1e84f3dd0314c0f7b2291e5b200ac8c7c3b925906103d99086815260200190565b60405180910390a350600192915050565b3360009081526006602052604090205460ff166104225760405162461bcd60e51b815260040161041990610c5c565b60405180910390fd5b6001600160a01b038216600081815260066020908152604091829020805460ff191685151590811790915591519182527fe95aec380cae16330d146d5499ef7db6f3657e477104a733e771bc09e500d986910160405180910390a25050565b6001600160a01b038316600090815260046020908152604080832033845290915281205460001981146104dd576104b88382610c95565b6001600160a01b03861660009081526004602090815260408083203384529091529020555b6001600160a01b03851660009081526003602052604081208054859290610505908490610c95565b90915550506001600160a01b0380851660008181526003602052604090819020805487019055519091871690600080516020610d618339815191529061054e9087815260200190565b60405180910390a3506001949350505050565b60007f00000000000000000000000000000000000000000000000000000000000000004614610597576105926108f0565b905090565b507f000000000000000000000000000000000000000000000000000000000000000090565b3360009081526006602052604090205460ff166105eb5760405162461bcd60e51b815260040161041990610c5c565b6105f5828261098a565b5050565b600180546102fd90610c21565b3360009081526006602052604090205460ff166106355760405162461bcd60e51b815260040161041990610c5c565b6105f582826109e4565b33600090815260036020526040812080548391908390610660908490610c95565b90915550506001600160a01b03831660008181526003602052604090819020805485019055513390600080516020610d61833981519152906103d99086815260200190565b428410156106ef5760405162461bcd60e51b815260206004820152601760248201527614115493525517d11150511312539157d1561412549151604a1b6044820152606401610419565b60006106f9610561565b6001600160a01b0389811660008181526005602090815260409182902080546001810190915582517f6e71edae12b1b97f4d1f60370fef10105fa2faae0126114a169c64845d6126c98184015280840194909452938c166060840152608083018b905260a083019390935260c08083018a90528151808403909101815260e08301909152805192019190912061190160f01b6101008301526101028201929092526101228101919091526101420160408051601f198184030181528282528051602091820120600080855291840180845281905260ff88169284019290925260608301869052608083018590529092509060019060a0016020604051602081039080840390855afa158015610812573d6000803e3d6000fd5b5050604051601f1901519150506001600160a01b038116158015906108485750886001600160a01b0316816001600160a01b0316145b6108855760405162461bcd60e51b815260206004820152600e60248201526d24a72b20a624a22fa9a4a3a722a960911b6044820152606401610419565b6001600160a01b0390811660009081526004602090815260408083208b8516808552908352928190208a905551898152919350918a16917f8c5be1e5ebec7d5bd14f71427d1e84f3dd0314c0f7b2291e5b200ac8c7c3b925910160405180910390a350505050505050565b60007f8b73c3c69bb8fe3d512ecc4cf759cc79239f7b179b0ffacaa9a75d522b39400f60006040516109229190610cac565b6040805191829003822060208301939093528101919091527fc89efdaa54c0f20c7adf612882df0950f5a951637e0307cdcb4c672f298b8bc660608201524660808201523060a082015260c00160405160208183030381529060405280519060200120905090565b806002600082825461099c9190610d48565b90915550506001600160a01b038216600081815260036020908152604080832080548601905551848152600080516020610d6183398151915291015b60405180910390a35050565b6001600160a01b03821660009081526003602052604081208054839290610a0c908490610c95565b90915550506002805482900390556040518181526000906001600160a01b03841690600080516020610d61833981519152906020016109d8565b600060208083528351808285015260005b81811015610a7357858101830151858201604001528201610a57565b81811115610a85576000604083870101525b50601f01601f1916929092016040019392505050565b80356001600160a01b0381168114610ab257600080fd5b919050565b60008060408385031215610aca57600080fd5b610ad383610a9b565b946020939093013593505050565b60008060408385031215610af457600080fd5b610afd83610a9b565b915060208301358015158114610b1257600080fd5b809150509250929050565b600080600060608486031215610b3257600080fd5b610b3b84610a9b565b9250610b4960208501610a9b565b9150604084013590509250925092565b600060208284031215610b6b57600080fd5b610b7482610a9b565b9392505050565b600080600080600080600060e0888a031215610b9657600080fd5b610b9f88610a9b565b9650610bad60208901610a9b565b95506040880135945060608801359350608088013560ff81168114610bd157600080fd5b9699959850939692959460a0840135945060c09093013592915050565b60008060408385031215610c0157600080fd5b610c0a83610a9b565b9150610c1860208401610a9b565b90509250929050565b600181811c90821680610c3557607f821691505b60208210811415610c5657634e487b7160e01b600052602260045260246000fd5b50919050565b602080825260099082015268155395149554d5115160ba1b604082015260600190565b634e487b7160e01b600052601160045260246000fd5b600082821015610ca757610ca7610c7f565b500390565b600080835481600182811c915080831680610cc857607f831692505b6020808410821415610ce857634e487b7160e01b86526022600452602486fd5b818015610cfc5760018114610d0d57610d3a565b60ff19861689528489019650610d3a565b60008a81526020902060005b86811015610d325781548b820152908501908301610d19565b505084890196505b509498975050505050505050565b60008219821115610d5b57610d5b610c7f565b50019056feddf252ad1be2c89b69c2b068fc378daa952ba7f163c4a11628f55a4df523b3efa26469706673582212203de006e845013ec839f7d6fc3bea3c47f505394e2c1e6c40dae829017642ac1264736f6c634300080b0033",
  "devdoc": {
    "kind": "dev",
    "methods": {},
    "version": 1
  },
  "userdoc": {
    "kind": "user",
    "methods": {},
    "version": 1
  },
  "storageLayout": {
    "storage": [
      {
        "astId": 863,
        "contract": "@sense-finance/v1-core/src/tests/test-helpers/mocks/MockTarget.sol:AuthdMockTarget",
        "label": "name",
        "offset": 0,
        "slot": "0",
        "type": "t_string_storage"
      },
      {
        "astId": 865,
        "contract": "@sense-finance/v1-core/src/tests/test-helpers/mocks/MockTarget.sol:AuthdMockTarget",
        "label": "symbol",
        "offset": 0,
        "slot": "1",
        "type": "t_string_storage"
      },
      {
        "astId": 869,
        "contract": "@sense-finance/v1-core/src/tests/test-helpers/mocks/MockTarget.sol:AuthdMockTarget",
        "label": "totalSupply",
        "offset": 0,
        "slot": "2",
        "type": "t_uint256"
      },
      {
        "astId": 873,
        "contract": "@sense-finance/v1-core/src/tests/test-helpers/mocks/MockTarget.sol:AuthdMockTarget",
        "label": "balanceOf",
        "offset": 0,
        "slot": "3",
        "type": "t_mapping(t_address,t_uint256)"
      },
      {
        "astId": 879,
        "contract": "@sense-finance/v1-core/src/tests/test-helpers/mocks/MockTarget.sol:AuthdMockTarget",
        "label": "allowance",
        "offset": 0,
        "slot": "4",
        "type": "t_mapping(t_address,t_mapping(t_address,t_uint256))"
      },
      {
        "astId": 892,
        "contract": "@sense-finance/v1-core/src/tests/test-helpers/mocks/MockTarget.sol:AuthdMockTarget",
        "label": "nonces",
        "offset": 0,
        "slot": "5",
        "type": "t_mapping(t_address,t_uint256)"
      },
      {
        "astId": 14705,
        "contract": "@sense-finance/v1-core/src/tests/test-helpers/mocks/MockTarget.sol:AuthdMockTarget",
        "label": "isTrusted",
        "offset": 0,
        "slot": "6",
        "type": "t_mapping(t_address,t_bool)"
      },
      {
        "astId": 12086,
        "contract": "@sense-finance/v1-core/src/tests/test-helpers/mocks/MockTarget.sol:AuthdMockTarget",
        "label": "underlying",
        "offset": 0,
        "slot": "7",
        "type": "t_address"
      }
    ],
    "types": {
      "t_address": {
        "encoding": "inplace",
        "label": "address",
        "numberOfBytes": "20"
      },
      "t_bool": {
        "encoding": "inplace",
        "label": "bool",
        "numberOfBytes": "1"
      },
      "t_mapping(t_address,t_bool)": {
        "encoding": "mapping",
        "key": "t_address",
        "label": "mapping(address => bool)",
        "numberOfBytes": "32",
        "value": "t_bool"
      },
      "t_mapping(t_address,t_mapping(t_address,t_uint256))": {
        "encoding": "mapping",
        "key": "t_address",
        "label": "mapping(address => mapping(address => uint256))",
        "numberOfBytes": "32",
        "value": "t_mapping(t_address,t_uint256)"
      },
      "t_mapping(t_address,t_uint256)": {
        "encoding": "mapping",
        "key": "t_address",
        "label": "mapping(address => uint256)",
        "numberOfBytes": "32",
        "value": "t_uint256"
      },
      "t_string_storage": {
        "encoding": "bytes",
        "label": "string",
        "numberOfBytes": "32"
      },
      "t_uint256": {
        "encoding": "inplace",
        "label": "uint256",
        "numberOfBytes": "32"
      }
    }
  }
}