{
  "address": "0x4bCBA1316C95B812cC014CA18C08971Ce1C10861",
  "abi": [
    {
      "inputs": [
        {
          "internalType": "address",
          "name": "_divider",
          "type": "address"
        },
        {
          "internalType": "address",
          "name": "_poolManager",
          "type": "address"
        },
        {
          "internalType": "address",
          "name": "_spaceFactory",
          "type": "address"
        },
        {
          "internalType": "address",
          "name": "_balancerVault",
          "type": "address"
        }
      ],
      "stateMutability": "nonpayable",
      "type": "constructor"
    },
    {
      "inputs": [],
      "name": "ExistingValue",
      "type": "error"
    },
    {
      "inputs": [],
      "name": "FactoryNotSupported",
      "type": "error"
    },
    {
      "inputs": [],
      "name": "FlashBorrowFailed",
      "type": "error"
    },
    {
      "inputs": [],
      "name": "FlashUntrustedBorrower",
      "type": "error"
    },
    {
      "inputs": [],
      "name": "FlashUntrustedLoanInitiator",
      "type": "error"
    },
    {
      "inputs": [],
      "name": "OnlyPermissionless",
      "type": "error"
    },
    {
      "inputs": [],
      "name": "SwapTooSmall",
      "type": "error"
    },
    {
      "inputs": [],
      "name": "TargetMismatch",
      "type": "error"
    },
    {
      "anonymous": false,
      "inputs": [
        {
          "indexed": true,
          "internalType": "address",
          "name": "adapter",
          "type": "address"
        }
      ],
      "name": "AdapterDeployed",
      "type": "event"
    },
    {
      "anonymous": false,
      "inputs": [
        {
          "indexed": true,
          "internalType": "address",
          "name": "adapter",
          "type": "address"
        }
      ],
      "name": "AdapterOnboarded",
      "type": "event"
    },
    {
      "anonymous": false,
      "inputs": [
        {
          "indexed": true,
          "internalType": "address",
          "name": "adapter",
          "type": "address"
        }
      ],
      "name": "AdapterVerified",
      "type": "event"
    },
    {
      "anonymous": false,
      "inputs": [
        {
          "indexed": true,
          "internalType": "address",
          "name": "factory",
          "type": "address"
        },
        {
          "indexed": true,
          "internalType": "bool",
          "name": "isOn",
          "type": "bool"
        }
      ],
      "name": "FactoryChanged",
      "type": "event"
    },
    {
      "anonymous": false,
      "inputs": [
        {
          "indexed": false,
          "internalType": "address",
          "name": "oldPoolManager",
          "type": "address"
        },
        {
          "indexed": false,
          "internalType": "address",
          "name": "newPoolManager",
          "type": "address"
        }
      ],
      "name": "PoolManagerChanged",
      "type": "event"
    },
    {
      "anonymous": false,
      "inputs": [
        {
          "indexed": true,
          "internalType": "address",
          "name": "adapter",
          "type": "address"
        },
        {
          "indexed": true,
          "internalType": "uint256",
          "name": "maturity",
          "type": "uint256"
        },
        {
          "indexed": true,
          "internalType": "address",
          "name": "sponsor",
          "type": "address"
        }
      ],
      "name": "SeriesSponsored",
      "type": "event"
    },
    {
      "anonymous": false,
      "inputs": [
        {
          "indexed": false,
          "internalType": "address",
          "name": "oldSpaceFactory",
          "type": "address"
        },
        {
          "indexed": false,
          "internalType": "address",
          "name": "newSpaceFactory",
          "type": "address"
        }
      ],
      "name": "SpaceFactoryChanged",
      "type": "event"
    },
    {
      "anonymous": false,
      "inputs": [
        {
          "indexed": true,
          "internalType": "address",
          "name": "sender",
          "type": "address"
        },
        {
          "indexed": true,
          "internalType": "bytes32",
          "name": "poolId",
          "type": "bytes32"
        },
        {
          "indexed": false,
          "internalType": "address",
          "name": "assetIn",
          "type": "address"
        },
        {
          "indexed": false,
          "internalType": "address",
          "name": "assetOut",
          "type": "address"
        },
        {
          "indexed": false,
          "internalType": "uint256",
          "name": "amountIn",
          "type": "uint256"
        },
        {
          "indexed": false,
          "internalType": "uint256",
          "name": "amountOut",
          "type": "uint256"
        },
        {
          "indexed": true,
          "internalType": "bytes4",
          "name": "sig",
          "type": "bytes4"
        }
      ],
      "name": "Swapped",
      "type": "event"
    },
    {
      "anonymous": false,
      "inputs": [
        {
          "indexed": true,
          "internalType": "address",
          "name": "user",
          "type": "address"
        },
        {
          "indexed": false,
          "internalType": "bool",
          "name": "trusted",
          "type": "bool"
        }
      ],
      "name": "UserTrustUpdated",
      "type": "event"
    },
    {
      "anonymous": false,
      "inputs": [
        {
          "indexed": true,
          "internalType": "address",
          "name": "sender",
          "type": "address"
        },
        {
          "indexed": false,
          "internalType": "address",
          "name": "adapter",
          "type": "address"
        },
        {
          "indexed": false,
          "internalType": "uint256",
          "name": "maturity",
          "type": "uint256"
        },
        {
          "indexed": false,
          "internalType": "uint256",
          "name": "targetIn",
          "type": "uint256"
        },
        {
          "indexed": false,
          "internalType": "uint256",
          "name": "targetReturned",
          "type": "uint256"
        },
        {
          "indexed": false,
          "internalType": "uint256",
          "name": "ytOut",
          "type": "uint256"
        }
      ],
      "name": "YTsPurchased",
      "type": "event"
    },
    {
      "inputs": [],
      "name": "MIN_YT_SWAP_IN",
      "outputs": [
        {
          "internalType": "uint256",
          "name": "",
          "type": "uint256"
        }
      ],
      "stateMutability": "view",
      "type": "function"
    },
    {
      "inputs": [],
      "name": "PRICE_ESTIMATE_ACCEPTABLE_ERROR",
      "outputs": [
        {
          "internalType": "uint256",
          "name": "",
          "type": "uint256"
        }
      ],
      "stateMutability": "view",
      "type": "function"
    },
    {
      "inputs": [
        {
          "internalType": "address",
          "name": "adapter",
          "type": "address"
        },
        {
          "internalType": "uint256",
          "name": "maturity",
          "type": "uint256"
        },
        {
          "internalType": "uint256",
          "name": "tBal",
          "type": "uint256"
        },
        {
          "internalType": "uint8",
          "name": "mode",
          "type": "uint8"
        },
        {
          "internalType": "uint256",
          "name": "minBptOut",
          "type": "uint256"
        }
      ],
      "name": "addLiquidityFromTarget",
      "outputs": [
        {
          "internalType": "uint256",
          "name": "tAmount",
          "type": "uint256"
        },
        {
          "internalType": "uint256",
          "name": "issued",
          "type": "uint256"
        },
        {
          "internalType": "uint256",
          "name": "lpShares",
          "type": "uint256"
        }
      ],
      "stateMutability": "nonpayable",
      "type": "function"
    },
    {
      "inputs": [
        {
          "internalType": "address",
          "name": "adapter",
          "type": "address"
        },
        {
          "internalType": "uint256",
          "name": "maturity",
          "type": "uint256"
        },
        {
          "internalType": "uint256",
          "name": "uBal",
          "type": "uint256"
        },
        {
          "internalType": "uint8",
          "name": "mode",
          "type": "uint8"
        },
        {
          "internalType": "uint256",
          "name": "minBptOut",
          "type": "uint256"
        }
      ],
      "name": "addLiquidityFromUnderlying",
      "outputs": [
        {
          "internalType": "uint256",
          "name": "tAmount",
          "type": "uint256"
        },
        {
          "internalType": "uint256",
          "name": "issued",
          "type": "uint256"
        },
        {
          "internalType": "uint256",
          "name": "lpShares",
          "type": "uint256"
        }
      ],
      "stateMutability": "nonpayable",
      "type": "function"
    },
    {
      "inputs": [],
      "name": "balancerVault",
      "outputs": [
        {
          "internalType": "contract BalancerVault",
          "name": "",
          "type": "address"
        }
      ],
      "stateMutability": "view",
      "type": "function"
    },
    {
      "inputs": [
        {
          "internalType": "address",
          "name": "f",
          "type": "address"
        },
        {
          "internalType": "address",
          "name": "target",
          "type": "address"
        },
        {
          "internalType": "bytes",
          "name": "data",
          "type": "bytes"
        }
      ],
      "name": "deployAdapter",
      "outputs": [
        {
          "internalType": "address",
          "name": "adapter",
          "type": "address"
        }
      ],
      "stateMutability": "nonpayable",
      "type": "function"
    },
    {
      "inputs": [],
      "name": "divider",
      "outputs": [
        {
          "internalType": "contract Divider",
          "name": "",
          "type": "address"
        }
      ],
      "stateMutability": "view",
      "type": "function"
    },
    {
      "inputs": [
        {
          "internalType": "address",
          "name": "",
          "type": "address"
        }
      ],
      "name": "factories",
      "outputs": [
        {
          "internalType": "bool",
          "name": "",
          "type": "bool"
        }
      ],
      "stateMutability": "view",
      "type": "function"
    },
    {
      "inputs": [
        {
          "internalType": "address",
          "name": "",
          "type": "address"
        }
      ],
      "name": "isTrusted",
      "outputs": [
        {
          "internalType": "bool",
          "name": "",
          "type": "bool"
        }
      ],
      "stateMutability": "view",
      "type": "function"
    },
    {
      "inputs": [
        {
          "internalType": "address",
          "name": "srcAdapter",
          "type": "address"
        },
        {
          "internalType": "address",
          "name": "dstAdapter",
          "type": "address"
        },
        {
          "internalType": "uint256",
          "name": "srcMaturity",
          "type": "uint256"
        },
        {
          "internalType": "uint256",
          "name": "dstMaturity",
          "type": "uint256"
        },
        {
          "internalType": "uint256",
          "name": "lpBal",
          "type": "uint256"
        },
        {
          "internalType": "uint256[]",
          "name": "minAmountsOut",
          "type": "uint256[]"
        },
        {
          "internalType": "uint256",
          "name": "minAccepted",
          "type": "uint256"
        },
        {
          "internalType": "uint8",
          "name": "mode",
          "type": "uint8"
        },
        {
          "internalType": "bool",
          "name": "intoTarget",
          "type": "bool"
        },
        {
          "internalType": "uint256",
          "name": "minBptOut",
          "type": "uint256"
        }
      ],
      "name": "migrateLiquidity",
      "outputs": [
        {
          "internalType": "uint256",
          "name": "tAmount",
          "type": "uint256"
        },
        {
          "internalType": "uint256",
          "name": "issued",
          "type": "uint256"
        },
        {
          "internalType": "uint256",
          "name": "lpShares",
          "type": "uint256"
        },
        {
          "internalType": "uint256",
          "name": "ptBal",
          "type": "uint256"
        }
      ],
      "stateMutability": "nonpayable",
      "type": "function"
    },
    {
      "inputs": [
        {
          "internalType": "address",
          "name": "initiator",
          "type": "address"
        },
        {
          "internalType": "address",
          "name": "",
          "type": "address"
        },
        {
          "internalType": "uint256",
          "name": "amountBorrrowed",
          "type": "uint256"
        },
        {
          "internalType": "uint256",
          "name": "",
          "type": "uint256"
        },
        {
          "internalType": "bytes",
          "name": "data",
          "type": "bytes"
        }
      ],
      "name": "onFlashLoan",
      "outputs": [
        {
          "internalType": "bytes32",
          "name": "",
          "type": "bytes32"
        }
      ],
      "stateMutability": "nonpayable",
      "type": "function"
    },
    {
      "inputs": [
        {
          "internalType": "address",
          "name": "adapter",
          "type": "address"
        },
        {
          "internalType": "bool",
          "name": "addAdapter",
          "type": "bool"
        }
      ],
      "name": "onboardAdapter",
      "outputs": [],
      "stateMutability": "nonpayable",
      "type": "function"
    },
    {
      "inputs": [],
      "name": "poolManager",
      "outputs": [
        {
          "internalType": "contract PoolManager",
          "name": "",
          "type": "address"
        }
      ],
      "stateMutability": "view",
      "type": "function"
    },
    {
      "inputs": [
        {
          "internalType": "address",
          "name": "adapter",
          "type": "address"
        },
        {
          "internalType": "uint256",
          "name": "maturity",
          "type": "uint256"
        },
        {
          "internalType": "uint256",
          "name": "lpBal",
          "type": "uint256"
        },
        {
          "internalType": "uint256[]",
          "name": "minAmountsOut",
          "type": "uint256[]"
        },
        {
          "internalType": "uint256",
          "name": "minAccepted",
          "type": "uint256"
        },
        {
          "internalType": "bool",
          "name": "intoTarget",
          "type": "bool"
        }
      ],
      "name": "removeLiquidity",
      "outputs": [
        {
          "internalType": "uint256",
          "name": "tBal",
          "type": "uint256"
        },
        {
          "internalType": "uint256",
          "name": "ptBal",
          "type": "uint256"
        }
      ],
      "stateMutability": "nonpayable",
      "type": "function"
    },
    {
      "inputs": [
        {
          "internalType": "address",
          "name": "adapter",
          "type": "address"
        },
        {
          "internalType": "uint256",
          "name": "maturity",
          "type": "uint256"
        },
        {
          "internalType": "uint256",
          "name": "lpBal",
          "type": "uint256"
        },
        {
          "internalType": "uint256[]",
          "name": "minAmountsOut",
          "type": "uint256[]"
        },
        {
          "internalType": "uint256",
          "name": "minAccepted",
          "type": "uint256"
        },
        {
          "internalType": "bool",
          "name": "intoTarget",
          "type": "bool"
        }
      ],
      "name": "removeLiquidityAndUnwrapTarget",
      "outputs": [
        {
          "internalType": "uint256",
          "name": "uBal",
          "type": "uint256"
        },
        {
          "internalType": "uint256",
          "name": "ptBal",
          "type": "uint256"
        }
      ],
      "stateMutability": "nonpayable",
      "type": "function"
    },
    {
      "inputs": [
        {
          "internalType": "address",
          "name": "f",
          "type": "address"
        },
        {
          "internalType": "bool",
          "name": "isOn",
          "type": "bool"
        }
      ],
      "name": "setFactory",
      "outputs": [],
      "stateMutability": "nonpayable",
      "type": "function"
    },
    {
      "inputs": [
        {
          "internalType": "address",
          "name": "user",
          "type": "address"
        },
        {
          "internalType": "bool",
          "name": "trusted",
          "type": "bool"
        }
      ],
      "name": "setIsTrusted",
      "outputs": [],
      "stateMutability": "nonpayable",
      "type": "function"
    },
    {
      "inputs": [
        {
          "internalType": "address",
          "name": "newPoolManager",
          "type": "address"
        }
      ],
      "name": "setPoolManager",
      "outputs": [],
      "stateMutability": "nonpayable",
      "type": "function"
    },
    {
      "inputs": [
        {
          "internalType": "address",
          "name": "newSpaceFactory",
          "type": "address"
        }
      ],
      "name": "setSpaceFactory",
      "outputs": [],
      "stateMutability": "nonpayable",
      "type": "function"
    },
    {
      "inputs": [],
      "name": "spaceFactory",
      "outputs": [
        {
          "internalType": "contract SpaceFactoryLike",
          "name": "",
          "type": "address"
        }
      ],
      "stateMutability": "view",
      "type": "function"
    },
    {
      "inputs": [
        {
          "internalType": "address",
          "name": "adapter",
          "type": "address"
        },
        {
          "internalType": "uint256",
          "name": "maturity",
          "type": "uint256"
        },
        {
          "internalType": "bool",
          "name": "withPool",
          "type": "bool"
        }
      ],
      "name": "sponsorSeries",
      "outputs": [
        {
          "internalType": "address",
          "name": "pt",
          "type": "address"
        },
        {
          "internalType": "address",
          "name": "yt",
          "type": "address"
        }
      ],
      "stateMutability": "nonpayable",
      "type": "function"
    },
    {
      "inputs": [
        {
          "internalType": "address",
          "name": "adapter",
          "type": "address"
        },
        {
          "internalType": "uint256",
          "name": "maturity",
          "type": "uint256"
        },
        {
          "internalType": "uint256",
          "name": "ptBal",
          "type": "uint256"
        },
        {
          "internalType": "uint256",
          "name": "minAccepted",
          "type": "uint256"
        }
      ],
      "name": "swapPTsForTarget",
      "outputs": [
        {
          "internalType": "uint256",
          "name": "tBal",
          "type": "uint256"
        }
      ],
      "stateMutability": "nonpayable",
      "type": "function"
    },
    {
      "inputs": [
        {
          "internalType": "address",
          "name": "adapter",
          "type": "address"
        },
        {
          "internalType": "uint256",
          "name": "maturity",
          "type": "uint256"
        },
        {
          "internalType": "uint256",
          "name": "ptBal",
          "type": "uint256"
        },
        {
          "internalType": "uint256",
          "name": "minAccepted",
          "type": "uint256"
        }
      ],
      "name": "swapPTsForUnderlying",
      "outputs": [
        {
          "internalType": "uint256",
          "name": "uBal",
          "type": "uint256"
        }
      ],
      "stateMutability": "nonpayable",
      "type": "function"
    },
    {
      "inputs": [
        {
          "internalType": "address",
          "name": "adapter",
          "type": "address"
        },
        {
          "internalType": "uint256",
          "name": "maturity",
          "type": "uint256"
        },
        {
          "internalType": "uint256",
          "name": "tBal",
          "type": "uint256"
        },
        {
          "internalType": "uint256",
          "name": "minAccepted",
          "type": "uint256"
        }
      ],
      "name": "swapTargetForPTs",
      "outputs": [
        {
          "internalType": "uint256",
          "name": "ptBal",
          "type": "uint256"
        }
      ],
      "stateMutability": "nonpayable",
      "type": "function"
    },
    {
      "inputs": [
        {
          "internalType": "address",
          "name": "adapter",
          "type": "address"
        },
        {
          "internalType": "uint256",
          "name": "maturity",
          "type": "uint256"
        },
        {
          "internalType": "uint256",
          "name": "targetIn",
          "type": "uint256"
        },
        {
          "internalType": "uint256",
          "name": "targetToBorrow",
          "type": "uint256"
        },
        {
          "internalType": "uint256",
          "name": "minOut",
          "type": "uint256"
        }
      ],
      "name": "swapTargetForYTs",
      "outputs": [
        {
          "internalType": "uint256",
          "name": "targetBal",
          "type": "uint256"
        },
        {
          "internalType": "uint256",
          "name": "ytBal",
          "type": "uint256"
        }
      ],
      "stateMutability": "nonpayable",
      "type": "function"
    },
    {
      "inputs": [
        {
          "internalType": "address",
          "name": "adapter",
          "type": "address"
        },
        {
          "internalType": "uint256",
          "name": "maturity",
          "type": "uint256"
        },
        {
          "internalType": "uint256",
          "name": "uBal",
          "type": "uint256"
        },
        {
          "internalType": "uint256",
          "name": "minAccepted",
          "type": "uint256"
        }
      ],
      "name": "swapUnderlyingForPTs",
      "outputs": [
        {
          "internalType": "uint256",
          "name": "ptBal",
          "type": "uint256"
        }
      ],
      "stateMutability": "nonpayable",
      "type": "function"
    },
    {
      "inputs": [
        {
          "internalType": "address",
          "name": "adapter",
          "type": "address"
        },
        {
          "internalType": "uint256",
          "name": "maturity",
          "type": "uint256"
        },
        {
          "internalType": "uint256",
          "name": "underlyingIn",
          "type": "uint256"
        },
        {
          "internalType": "uint256",
          "name": "targetToBorrow",
          "type": "uint256"
        },
        {
          "internalType": "uint256",
          "name": "minOut",
          "type": "uint256"
        }
      ],
      "name": "swapUnderlyingForYTs",
      "outputs": [
        {
          "internalType": "uint256",
          "name": "targetBal",
          "type": "uint256"
        },
        {
          "internalType": "uint256",
          "name": "ytBal",
          "type": "uint256"
        }
      ],
      "stateMutability": "nonpayable",
      "type": "function"
    },
    {
      "inputs": [
        {
          "internalType": "address",
          "name": "adapter",
          "type": "address"
        },
        {
          "internalType": "uint256",
          "name": "maturity",
          "type": "uint256"
        },
        {
          "internalType": "uint256",
          "name": "ytBal",
          "type": "uint256"
        }
      ],
      "name": "swapYTsForTarget",
      "outputs": [
        {
          "internalType": "uint256",
          "name": "tBal",
          "type": "uint256"
        }
      ],
      "stateMutability": "nonpayable",
      "type": "function"
    },
    {
      "inputs": [
        {
          "internalType": "address",
          "name": "adapter",
          "type": "address"
        },
        {
          "internalType": "uint256",
          "name": "maturity",
          "type": "uint256"
        },
        {
          "internalType": "uint256",
          "name": "ytBal",
          "type": "uint256"
        }
      ],
      "name": "swapYTsForUnderlying",
      "outputs": [
        {
          "internalType": "uint256",
          "name": "uBal",
          "type": "uint256"
        }
      ],
      "stateMutability": "nonpayable",
      "type": "function"
    },
    {
      "inputs": [
        {
          "internalType": "address",
          "name": "",
          "type": "address"
        }
      ],
      "name": "verified",
      "outputs": [
        {
          "internalType": "bool",
          "name": "",
          "type": "bool"
        }
      ],
      "stateMutability": "view",
      "type": "function"
    },
    {
      "inputs": [
        {
          "internalType": "address",
          "name": "adapter",
          "type": "address"
        },
        {
          "internalType": "bool",
          "name": "addToPool",
          "type": "bool"
        }
      ],
      "name": "verifyAdapter",
      "outputs": [],
      "stateMutability": "nonpayable",
      "type": "function"
    }
  ],
  "transactionHash": "0xc3617e8479207084413c15eaeac9c655dbf2f5fd9c7278d901c164fa02e0ffb7",
  "args": [
    "0x09B10E45A912BcD4E80a8A3119f0cfCcad1e1f12",
    "0xaBFA7080ABe1012f6A8f74E2CDDd9033c34d1A44",
    "0x93158100B4351935c9BC2DE9A33357c4D54D94Bb",
    "0x1aB16CB0cb0e5520e0C081530C679B2e846e4D37"
  ],
  "numDeployments": 1,
  "solcInputHash": "33b60920864c2967ac87921090fbdc5e",
  "bytecode": "0x60c06040523480156200001157600080fd5b5060405162005bed38038062005bed8339810160408190526200003491620000e3565b3360008181526020818152604091829020805460ff19166001908117909155915191825282917fe95aec380cae16330d146d5499ef7db6f3657e477104a733e771bc09e500d986910160405180910390a2506001600160a01b03938416608052600180549385166001600160a01b03199485161790556002805492851692909316919091179091551660a05262000140565b80516001600160a01b0381168114620000de57600080fd5b919050565b60008060008060808587031215620000fa57600080fd5b6200010585620000c6565b93506200011560208601620000c6565b92506200012560408601620000c6565b91506200013560608601620000c6565b905092959194509250565b60805160a0516159c36200022a6000396000818161026a01528181612593015281816126490152818161392901528181613e50015281816141aa015281816142b3015281816148ad015261499001526000818161034301528181610756015281816107c001528181610ce901528181610e4101528181610f2001528181611023015281816116af01528181611cf201528181611f31015281816124810152818161281f015281816129b601528181612b1f01528181612dd501528181613090015281816134d70152818161367401528181613bd001528181613d1e015261409201526159c36000f3fe608060405234801561001057600080fd5b50600436106101e55760003560e01c80637ab71cb01161010f578063b16bdcfe116100a2578063dc4c90d311610071578063dc4c90d3146104d9578063f8e8801e146104ec578063fab52689146104ff578063fdb8c0461461052257600080fd5b8063b16bdcfe14610494578063bfe642ca146104a7578063ce3a9128146104ba578063da43f3d6146104c657600080fd5b80638f1f30f0116100de5780638f1f30f01461043857806396d648791461044b57806397a27fbf1461046e578063a23973961461048157600080fd5b80637ab71cb0146103ec5780637aef6715146103ff578063836ce94514610412578063857bee5f1461042557600080fd5b8063318d3c371161018757806349c569cb1161015657806349c569cb1461038b5780634a6370c3146103b3578063560c9876146103c657806371013c10146103d957600080fd5b8063318d3c371461032b578063378efa371461033e578063457dcd291461036557806347c7a2121461037857600080fd5b8063158274a5116101c3578063158274a5146102655780631fc3e733146102a457806323e30c8b146102d75780632d673b7b146102f857600080fd5b80630db065f4146101ea5780630f8b15d3146102225780631393916a14610250575b600080fd5b61020d6101f8366004614b03565b60046020526000908152604090205460ff1681565b60405190151581526020015b60405180910390f35b610235610230366004614b2f565b61052e565b60408051938452602084019290925290820152606001610219565b61026361025e366004614b8f565b6105ca565b005b61028c7f000000000000000000000000000000000000000000000000000000000000000081565b6040516001600160a01b039091168152602001610219565b6102b76102b2366004614bc8565b6106c3565b604080516001600160a01b03938416815292909116602083015201610219565b6102ea6102e5366004614c0a565b610af9565b604051908152602001610219565b61030b610306366004614dc1565b611216565b604080519485526020850193909352918301526060820152608001610219565b610263610339366004614b8f565b611368565b61028c7f000000000000000000000000000000000000000000000000000000000000000081565b6102ea610373366004614e7d565b6113ef565b6102ea610386366004614e7d565b61147e565b61039e610399366004614eb8565b6114d9565b60408051928352602083019190915201610219565b61039e6103c1366004614f38565b6115c9565b6102ea6103d4366004614f7c565b611703565b6102636103e7366004614b8f565b6117e6565b6102356103fa366004614b2f565b61192b565b61026361040d366004614b03565b611a53565b61039e610420366004614f38565b611b4c565b60025461028c906001600160a01b031681565b6102ea610446366004614e7d565b611d2f565b61020d610459366004614b03565b60006020819052908152604090205460ff1681565b6102ea61047c366004614e7d565b611e4b565b61026361048f366004614b8f565b611f2f565b6102ea6104a2366004614f7c565b61200f565b61028c6104b5366004614fb1565b612069565b6102ea64e8d4a5100081565b6102636104d4366004614b03565b612192565b60015461028c906001600160a01b031681565b61039e6104fa366004614eb8565b61228c565b61020d61050d366004614b03565b60036020526000908152604090205460ff1681565b6102ea6402540be40081565b60008060006105ac3330888b6001600160a01b031663d4b839926040518163ffffffff1660e01b8152600401602060405180830381865afa158015610577573d6000803e3d6000fd5b505050506040513d601f19601f8201168201806040525081019061059b9190615089565b6001600160a01b03169291906122f3565b6105b988888888886123bd565b919a90995090975095505050505050565b3360009081526020819052604090205460ff16610648576040517f08c379a000000000000000000000000000000000000000000000000000000000815260206004820152600960248201527f554e54525553544544000000000000000000000000000000000000000000000060448201526064015b60405180910390fd5b6001600160a01b0382166000818152602081815260409182902080547fffffffffffffffffffffffffffffffffffffffffffffffffffffffffffffff001685151590811790915591519182527fe95aec380cae16330d146d5499ef7db6f3657e477104a733e771bc09e500d986910160405180910390a25050565b600080600080866001600160a01b03166327b327d06040518163ffffffff1660e01b8152600401606060405180830381865afa158015610707573d6000803e3d6000fd5b505050506040513d601f19601f8201168201806040525081019061072b91906150a6565b909350915061074790506001600160a01b0383163330846122f3565b61077b6001600160a01b0383167f0000000000000000000000000000000000000000000000000000000000000000836124bd565b6040517f3e3972ee0000000000000000000000000000000000000000000000000000000081526001600160a01b038881166004830152602482018890523360448301527f00000000000000000000000000000000000000000000000000000000000000001690633e3972ee9060640160408051808303816000875af1158015610808573d6000803e3d6000fd5b505050506040513d601f19601f8201168201806040525081019061082c91906150e9565b6001600160a01b038916600090815260046020526040902054919550935060ff1615610a1f576001546001600160a01b03166108f8576002546040517f0ecaea730000000000000000000000000000000000000000000000000000000081526001600160a01b0389811660048301526024820189905290911690630ecaea73906044016020604051808303816000875af11580156108ce573d6000803e3d6000fd5b505050506040513d601f19601f820116820180604052508101906108f29190615089565b50610ab7565b6001546002546040517f0ecaea730000000000000000000000000000000000000000000000000000000081526001600160a01b038a81166004830152602482018a905292831692635e883823928b928b9290911690630ecaea73906044016020604051808303816000875af1158015610975573d6000803e3d6000fd5b505050506040513d601f19601f820116820180604052508101906109999190615089565b60405160e085901b7fffffffff000000000000000000000000000000000000000000000000000000001681526001600160a01b03938416600482015260248101929092529091166044820152606401600060405180830381600087803b158015610a0257600080fd5b505af1158015610a16573d6000803e3d6000fd5b50505050610ab7565b8415610ab7576002546040517f0ecaea730000000000000000000000000000000000000000000000000000000081526001600160a01b0389811660048301526024820189905290911690630ecaea73906044016020604051808303816000875af1158015610a91573d6000803e3d6000fd5b505050506040513d601f19601f82011682018060405250810190610ab59190615089565b505b604051339087906001600160a01b038a16907fe385633dd30b0221b25f7a6f7e18c5992b339b5686322abe8ceb999e81249cd190600090a45050935093915050565b60008080808080610b0c87890189615118565b94509450945094509450846001600160a01b0316336001600160a01b031614610b61576040517f4cd0f00a00000000000000000000000000000000000000000000000000000000815260040160405180910390fd5b6001600160a01b038c163014610ba3576040517f14aa288800000000000000000000000000000000000000000000000000000000815260040160405180910390fd5b6002546040517f8f38a5550000000000000000000000000000000000000000000000000000000081526001600160a01b038781166004830152602482018790526000921690638f38a55590604401602060405180830381865afa158015610c0e573d6000803e3d6000fd5b505050506040513d601f19601f82011682018060405250810190610c329190615089565b90508115610f16576000866001600160a01b031663d4b839926040518163ffffffff1660e01b8152600401602060405180830381865afa158015610c7a573d6000803e3d6000fd5b505050506040513d601f19601f82011682018060405250810190610c9e9190615089565b6040517fd10eb4b90000000000000000000000000000000000000000000000000000000081526001600160a01b03898116600483015260248201899052919250600091610e3d9184917f0000000000000000000000000000000000000000000000000000000000000000169063d10eb4b990604401602060405180830381865afa158015610d30573d6000803e3d6000fd5b505050506040513d601f19601f82011682018060405250810190610d549190615089565b6040517f70a082310000000000000000000000000000000000000000000000000000000081523060048201526001600160a01b038616906370a0823190602401602060405180830381865afa158015610db1573d6000803e3d6000fd5b505050506040513d601f19601f82011682018060405250810190610dd5919061516e565b866001600160a01b03166338fff2d06040518163ffffffff1660e01b8152600401602060405180830381865afa158015610e13573d6000803e3d6000fd5b505050506040513d601f19601f82011682018060405250810190610e37919061516e565b89612582565b90507f00000000000000000000000000000000000000000000000000000000000000006001600160a01b031663ba89bebd8989898510610e7d5789610e7f565b845b6040517fffffffff0000000000000000000000000000000000000000000000000000000060e086901b1681526001600160a01b039093166004840152602483019190915260448201526064016020604051808303816000875af1158015610eea573d6000803e3d6000fd5b505050506040513d601f19601f82011682018060405250810190610f0e919061516e565b5050506111e4565b6001600160a01b037f00000000000000000000000000000000000000000000000000000000000000001663dfe5ef488787610f518f896151b6565b6040517fffffffff0000000000000000000000000000000000000000000000000000000060e086901b1681526001600160a01b039093166004840152602483019190915260448201526064016020604051808303816000875af1158015610fbc573d6000803e3d6000fd5b505050506040513d601f19601f82011682018060405250810190610fe0919061516e565b506040517fd10eb4b90000000000000000000000000000000000000000000000000000000081526001600160a01b038781166004830152602482018790526000917f00000000000000000000000000000000000000000000000000000000000000009091169063d10eb4b990604401602060405180830381865afa15801561106c573d6000803e3d6000fd5b505050506040513d601f19601f820116820180604052508101906110909190615089565b90506111e181886001600160a01b031663d4b839926040518163ffffffff1660e01b8152600401602060405180830381865afa1580156110d4573d6000803e3d6000fd5b505050506040513d601f19601f820116820180604052508101906110f89190615089565b6040517f70a082310000000000000000000000000000000000000000000000000000000081523060048201526001600160a01b038516906370a0823190602401602060405180830381865afa158015611155573d6000803e3d6000fd5b505050506040513d601f19601f82011682018060405250810190611179919061516e565b856001600160a01b03166338fff2d06040518163ffffffff1660e01b8152600401602060405180830381865afa1580156111b7573d6000803e3d6000fd5b505050506040513d601f19601f820116820180604052508101906111db919061516e565b88612582565b50505b507f439148f0bbc682ca079e46d6e2c2f0c1e3b820f1a291b069d8882abf8cf18dd99c9b505050505050505050505050565b6000806000808c6001600160a01b031663d4b839926040518163ffffffff1660e01b8152600401602060405180830381865afa15801561125a573d6000803e3d6000fd5b505050506040513d601f19601f8201168201806040525081019061127e9190615089565b6001600160a01b03168e6001600160a01b031663d4b839926040518163ffffffff1660e01b8152600401602060405180830381865afa1580156112c5573d6000803e3d6000fd5b505050506040513d601f19601f820116820180604052508101906112e99190615089565b6001600160a01b031614611329576040517f73f3f92700000000000000000000000000000000000000000000000000000000815260040160405180910390fd5b60006113398f8e8d8d8d8c612773565b9250905061134a8e8d838b8a6123bd565b809550819650829750505050509a509a509a509a9650505050505050565b3360009081526020819052604090205460ff166113e1576040517f08c379a000000000000000000000000000000000000000000000000000000000815260206004820152600960248201527f554e545255535445440000000000000000000000000000000000000000000000604482015260640161063f565b6113eb8282612bea565b5050565b60006113fd85858585612d91565b90506114763382876001600160a01b031663d4b839926040518163ffffffff1660e01b8152600401602060405180830381865afa158015611442573d6000803e3d6000fd5b505050506040513d601f19601f820116820180604052508101906114669190615089565b6001600160a01b03169190612f8d565b949350505050565b60006114c4333085886001600160a01b031663d4b839926040518163ffffffff1660e01b8152600401602060405180830381865afa158015610577573d6000803e3d6000fd5b6114d08585858561304c565b95945050505050565b60008060006114ec898989898989612773565b6040517f51c39ea1000000000000000000000000000000000000000000000000000000008152600481018390529093509091506115bd9033906001600160a01b038c16906351c39ea1906024016020604051808303816000875af1158015611558573d6000803e3d6000fd5b505050506040513d601f19601f8201168201806040525081019061157c919061516e565b9450848b6001600160a01b0316636f307dc36040518163ffffffff1660e01b8152600401602060405180830381865afa158015611442573d6000803e3d6000fd5b50965096945050505050565b6000806116103330878a6001600160a01b031663d4b839926040518163ffffffff1660e01b8152600401602060405180830381865afa158015610577573d6000803e3d6000fd5b61161d8787878787613256565b80925081935050506116683383896001600160a01b031663d4b839926040518163ffffffff1660e01b8152600401602060405180830381865afa158015611442573d6000803e3d6000fd5b6040517f574e77950000000000000000000000000000000000000000000000000000000081526001600160a01b038881166004830152602482018890526116f991339184917f00000000000000000000000000000000000000000000000000000000000000009091169063574e7795906044015b602060405180830381865afa158015611442573d6000803e3d6000fd5b9550959350505050565b60008061171233868686613630565b6040517f51c39ea1000000000000000000000000000000000000000000000000000000008152600481018290529091506001600160a01b038616906351c39ea1906024016020604051808303816000875af1158015611775573d6000803e3d6000fd5b505050506040513d601f19601f82011682018060405250810190611799919061516e565b91506117de3383876001600160a01b0316636f307dc36040518163ffffffff1660e01b8152600401602060405180830381865afa158015611442573d6000803e3d6000fd5b509392505050565b3360009081526020819052604090205460ff1661185f576040517f08c379a000000000000000000000000000000000000000000000000000000000815260206004820152600960248201527f554e545255535445440000000000000000000000000000000000000000000000604482015260640161063f565b6001600160a01b03821660009081526003602052604090205481151560ff9091161515036118b9576040517fe2be007400000000000000000000000000000000000000000000000000000000815260040160405180910390fd5b6001600160a01b03821660008181526003602052604080822080547fffffffffffffffffffffffffffffffffffffffffffffffffffffffffffffff001685151590811790915590519092917fe63b400aabb14e166c6cf1b963fc9332222bc4dfe22a7fa4a487411d6cb83b3191a35050565b600080600080886001600160a01b0316636f307dc36040518163ffffffff1660e01b8152600401602060405180830381865afa15801561196f573d6000803e3d6000fd5b505050506040513d601f19601f820116820180604052508101906119939190615089565b90506119aa6001600160a01b03821633308a6122f3565b6040517f4aae9fed000000000000000000000000000000000000000000000000000000008152600481018890526000906001600160a01b038b1690634aae9fed906024016020604051808303816000875af1158015611a0d573d6000803e3d6000fd5b505050506040513d601f19601f82011682018060405250810190611a31919061516e565b9050611a408a8a838a8a6123bd565b919c909b50909950975050505050505050565b3360009081526020819052604090205460ff16611acc576040517f08c379a000000000000000000000000000000000000000000000000000000000815260206004820152600960248201527f554e545255535445440000000000000000000000000000000000000000000000604482015260640161063f565b600154604080516001600160a01b03928316815291831660208301527edeff9fe78b1f38e51f917f8ea2a7e4028c825ff9aa26757f819a9f20362849910160405180910390a1600180547fffffffffffffffffffffffff0000000000000000000000000000000000000000166001600160a01b0392909216919091179055565b6000806000876001600160a01b0316636f307dc36040518163ffffffff1660e01b8152600401602060405180830381865afa158015611b8f573d6000803e3d6000fd5b505050506040513d601f19601f82011682018060405250810190611bb39190615089565b9050611bca6001600160a01b0382163330896122f3565b6040517f4aae9fed000000000000000000000000000000000000000000000000000000008152600481018790526000906001600160a01b038a1690634aae9fed906024016020604051808303816000875af1158015611c2d573d6000803e3d6000fd5b505050506040513d601f19601f82011682018060405250810190611c51919061516e565b9050611c608989838989613256565b8094508195505050611cab33858b6001600160a01b031663d4b839926040518163ffffffff1660e01b8152600401602060405180830381865afa158015611442573d6000803e3d6000fd5b6040517f574e77950000000000000000000000000000000000000000000000000000000081526001600160a01b038a81166004830152602482018a9052611d2391339186917f00000000000000000000000000000000000000000000000000000000000000009091169063574e7795906044016116dc565b50509550959350505050565b600080856001600160a01b0316636f307dc36040518163ffffffff1660e01b8152600401602060405180830381865afa158015611d70573d6000803e3d6000fd5b505050506040513d601f19601f82011682018060405250810190611d949190615089565b9050611dab6001600160a01b0382163330876122f3565b6040517f4aae9fed000000000000000000000000000000000000000000000000000000008152600481018590526000906001600160a01b03881690634aae9fed906024016020604051808303816000875af1158015611e0e573d6000803e3d6000fd5b505050506040513d601f19601f82011682018060405250810190611e32919061516e565b9050611e408787838761304c565b979650505050505050565b600080611e5a86868686612d91565b6040517f51c39ea1000000000000000000000000000000000000000000000000000000008152600481018290529091506001600160a01b038716906351c39ea1906024016020604051808303816000875af1158015611ebd573d6000803e3d6000fd5b505050506040513d601f19601f82011682018060405250810190611ee1919061516e565b9150611f263383886001600160a01b0316636f307dc36040518163ffffffff1660e01b8152600401602060405180830381865afa158015611442573d6000803e3d6000fd5b50949350505050565b7f00000000000000000000000000000000000000000000000000000000000000006001600160a01b031663a1256f9f6040518163ffffffff1660e01b8152600401602060405180830381865afa158015611f8d573d6000803e3d6000fd5b505050506040513d601f19601f82011682018060405250810190611fb191906151ce565b158015611fce57503360009081526020819052604090205460ff16155b15612005576040517f8719352c00000000000000000000000000000000000000000000000000000000815260040160405180910390fd5b6113eb8282613b5b565b600061201d33858585613630565b90506120623382866001600160a01b031663d4b839926040518163ffffffff1660e01b8152600401602060405180830381865afa158015611442573d6000803e3d6000fd5b9392505050565b6001600160a01b03831660009081526003602052604081205460ff166120bb576040517fe459d6aa00000000000000000000000000000000000000000000000000000000815260040160405180910390fd5b6040517f3cad2dcd0000000000000000000000000000000000000000000000000000000081526001600160a01b03851690633cad2dcd906121029086908690600401615256565b6020604051808303816000875af1158015612121573d6000803e3d6000fd5b505050506040513d601f19601f820116820180604052508101906121459190615089565b6040519091506001600160a01b038216907f5c4dabb7dca79d442edd65b39b410aef25f4eea4a498150e7e442d5ca508f6d590600090a2612187816001612bea565b612062816001613b5b565b3360009081526020819052604090205460ff1661220b576040517f08c379a000000000000000000000000000000000000000000000000000000000815260206004820152600960248201527f554e545255535445440000000000000000000000000000000000000000000000604482015260640161063f565b600254604080516001600160a01b03928316815291831660208301527f561ac07fd1f491d12bc2774d0ae20a65b9f4b67297f14592626f265defc9c2c6910160405180910390a1600280547fffffffffffffffffffffffff0000000000000000000000000000000000000000166001600160a01b0392909216919091179055565b60008061229d888888888888612773565b80925081935050506122e833838a6001600160a01b031663d4b839926040518163ffffffff1660e01b8152600401602060405180830381865afa158015611442573d6000803e3d6000fd5b965096945050505050565b60006040517f23b872dd000000000000000000000000000000000000000000000000000000006000528460045283602452826044526020600060646000808a5af13d15601f3d11600160005114161716915060006060528060405250806123b6576040517f08c379a000000000000000000000000000000000000000000000000000000000815260206004820152601460248201527f5452414e534645525f46524f4d5f4641494c4544000000000000000000000000604482015260640161063f565b5050505050565b60008060006123ce88888887613db4565b909250905081156124b2578460ff1660000361243a576123f030898985613630565b925061243533848a6001600160a01b031663d4b839926040518163ffffffff1660e01b8152600401602060405180830381865afa158015611442573d6000803e3d6000fd5b6124b2565b6040517f574e77950000000000000000000000000000000000000000000000000000000081526001600160a01b038981166004830152602482018990526124b291339185917f00000000000000000000000000000000000000000000000000000000000000009091169063574e7795906044016116dc565b955095509592505050565b60006040517f095ea7b3000000000000000000000000000000000000000000000000000000006000528360045282602452602060006044600080895af13d15601f3d116001600051141617169150600060605280604052508061257c576040517f08c379a000000000000000000000000000000000000000000000000000000000815260206004820152600e60248201527f415050524f56455f4641494c4544000000000000000000000000000000000000604482015260640161063f565b50505050565b60006125b86001600160a01b0387167f0000000000000000000000000000000000000000000000000000000000000000866124bd565b6040805160c081018252848152600060208083018290526001600160a01b03808b168486015289811660608086019190915260808086018b90528651808501885285815260a087015286519081018752308082529381018590528087019390935282019290925292517f52bbbe290000000000000000000000000000000000000000000000000000000081529192917f0000000000000000000000000000000000000000000000000000000000000000909116906352bbbe29906126a6908590859089907fffffffffffffffffffffffffffffffffffffffffffffffffffffffffffffffff906004016152e2565b6020604051808303816000875af11580156126c5573d6000803e3d6000fd5b505050506040513d601f19601f820116820180604052508101906126e9919061516e565b604080516001600160a01b038b811682528a166020820152908101889052606081018290529093507fffffffff000000000000000000000000000000000000000000000000000000006000351690869033907f771a8215d0541283507c0ebd99d6a6406b7254dc8feccdaa6c160c305d68d7489060800160405180910390a4505095945050505050565b6000806000886001600160a01b031663d4b839926040518163ffffffff1660e01b8152600401602060405180830381865afa1580156127b6573d6000803e3d6000fd5b505050506040513d601f19601f820116820180604052508101906127da9190615089565b6040517fd10eb4b90000000000000000000000000000000000000000000000000000000081526001600160a01b038b81166004830152602482018b90529192506000917f0000000000000000000000000000000000000000000000000000000000000000169063d10eb4b990604401602060405180830381865afa158015612866573d6000803e3d6000fd5b505050506040513d601f19601f8201168201806040525081019061288a9190615089565b6002546040517f8f38a5550000000000000000000000000000000000000000000000000000000081526001600160a01b038d81166004830152602482018d905292935060009290911690638f38a55590604401602060405180830381865afa1580156128fa573d6000803e3d6000fd5b505050506040513d601f19601f8201168201806040525081019061291e9190615089565b90506000816001600160a01b03166338fff2d06040518163ffffffff1660e01b8152600401602060405180830381865afa158015612960573d6000803e3d6000fd5b505050506040513d601f19601f82011682018060405250810190612984919061516e565b905061299b6001600160a01b03831633308d6122f3565b60006129aa8285878d8f6141a3565b809250819850505060007f00000000000000000000000000000000000000000000000000000000000000006001600160a01b03166395197d308f8f6040518363ffffffff1660e01b8152600401612a169291906001600160a01b03929092168252602082015260400190565b602060405180830381865afa158015612a33573d6000803e3d6000fd5b505050506040513d601f19601f82011682018060405250810190612a57919061516e565b1115612b9d57612acc8d6001600160a01b0316636fd5ae156040518163ffffffff1660e01b8152600401602060405180830381865afa158015612a9e573d6000803e3d6000fd5b505050506040513d601f19601f82011682018060405250810190612ac2919061516e565b6010908116141590565b15612ad957809550612bc0565b6040517f2b83cccd0000000000000000000000000000000000000000000000000000000081526001600160a01b038e81166004830152602482018e9052604482018390527f00000000000000000000000000000000000000000000000000000000000000001690632b83cccd906064016020604051808303816000875af1158015612b68573d6000803e3d6000fd5b505050506040513d601f19601f82011682018060405250810190612b8c919061516e565b612b9690886151b6565b9650612bc0565b600081118015612baa5750875b15612bbc57612b8c848683858d612582565b8095505b8515612bda57612bda6001600160a01b0385163388612f8d565b5050505050965096945050505050565b6001600160a01b038216600090815260046020526040902080547fffffffffffffffffffffffffffffffffffffffffffffffffffffffffffffff00166001179055808015612c4257506001546001600160a01b031615155b15612d5957600160009054906101000a90046001600160a01b03166001600160a01b0316631ec64fef836001600160a01b031663d4b839926040518163ffffffff1660e01b8152600401602060405180830381865afa158015612ca9573d6000803e3d6000fd5b505050506040513d601f19601f82011682018060405250810190612ccd9190615089565b6040517fffffffff0000000000000000000000000000000000000000000000000000000060e084901b1681526001600160a01b03918216600482015290851660248201526044016020604051808303816000875af1158015612d33573d6000803e3d6000fd5b505050506040513d601f19601f82011682018060405250810190612d579190615089565b505b6040516001600160a01b038316907ff9f4ea4fb47406a3baf9adc8bd38b1c82e5a5fee5de9b3c5af3218400fb530c090600090a25050565b6040517fd10eb4b90000000000000000000000000000000000000000000000000000000081526001600160a01b0385811660048301526024820185905260009182917f0000000000000000000000000000000000000000000000000000000000000000169063d10eb4b990604401602060405180830381865afa158015612e1c573d6000803e3d6000fd5b505050506040513d601f19601f82011682018060405250810190612e409190615089565b9050612e576001600160a01b0382163330876122f3565b6002546040517f8f38a5550000000000000000000000000000000000000000000000000000000081526001600160a01b038881166004830152602482018890526000921690638f38a55590604401602060405180830381865afa158015612ec2573d6000803e3d6000fd5b505050506040513d601f19601f82011682018060405250810190612ee69190615089565b9050611e4082886001600160a01b031663d4b839926040518163ffffffff1660e01b8152600401602060405180830381865afa158015612f2a573d6000803e3d6000fd5b505050506040513d601f19601f82011682018060405250810190612f4e9190615089565b87846001600160a01b03166338fff2d06040518163ffffffff1660e01b8152600401602060405180830381865afa1580156111b7573d6000803e3d6000fd5b60006040517fa9059cbb000000000000000000000000000000000000000000000000000000006000528360045282602452602060006044600080895af13d15601f3d116001600051141617169150600060605280604052508061257c576040517f08c379a000000000000000000000000000000000000000000000000000000000815260206004820152600f60248201527f5452414e534645525f4641494c45440000000000000000000000000000000000604482015260640161063f565b6040517fd10eb4b90000000000000000000000000000000000000000000000000000000081526001600160a01b0385811660048301526024820185905260009182917f0000000000000000000000000000000000000000000000000000000000000000169063d10eb4b990604401602060405180830381865afa1580156130d7573d6000803e3d6000fd5b505050506040513d601f19601f820116820180604052508101906130fb9190615089565b6002546040517f8f38a5550000000000000000000000000000000000000000000000000000000081526001600160a01b0389811660048301526024820189905292935060009290911690638f38a55590604401602060405180830381865afa15801561316b573d6000803e3d6000fd5b505050506040513d601f19601f8201168201806040525081019061318f9190615089565b9050613236876001600160a01b031663d4b839926040518163ffffffff1660e01b8152600401602060405180830381865afa1580156131d2573d6000803e3d6000fd5b505050506040513d601f19601f820116820180604052508101906131f69190615089565b8387846001600160a01b03166338fff2d06040518163ffffffff1660e01b8152600401602060405180830381865afa1580156111b7573d6000803e3d6000fd5b925061324c6001600160a01b0383163385612f8d565b5050949350505050565b604080516001600160a01b03871660208201529081018590526060810184905260808101829052600060a08201819052908190819060c00160405160208183030381529060405290506000886001600160a01b0316635cffe9de308b6001600160a01b031663d4b839926040518163ffffffff1660e01b8152600401602060405180830381865afa1580156132ef573d6000803e3d6000fd5b505050506040513d601f19601f820116820180604052508101906133139190615089565b89866040518563ffffffff1660e01b8152600401613334949392919061539f565b6020604051808303816000875af1158015613353573d6000803e3d6000fd5b505050506040513d601f19601f8201168201806040525081019061337791906151ce565b9050806133b0576040517f87cce7b800000000000000000000000000000000000000000000000000000000815260040160405180910390fd5b886001600160a01b031663d4b839926040518163ffffffff1660e01b8152600401602060405180830381865afa1580156133ee573d6000803e3d6000fd5b505050506040513d601f19601f820116820180604052508101906134129190615089565b6040517f70a082310000000000000000000000000000000000000000000000000000000081523060048201526001600160a01b0391909116906370a0823190602401602060405180830381865afa158015613471573d6000803e3d6000fd5b505050506040513d601f19601f82011682018060405250810190613495919061516e565b6040517f574e77950000000000000000000000000000000000000000000000000000000081526001600160a01b038b81166004830152602482018b90529195507f00000000000000000000000000000000000000000000000000000000000000009091169063574e779590604401602060405180830381865afa158015613520573d6000803e3d6000fd5b505050506040513d601f19601f820116820180604052508101906135449190615089565b6040517f70a082310000000000000000000000000000000000000000000000000000000081523060048201526001600160a01b0391909116906370a0823190602401602060405180830381865afa1580156135a3573d6000803e3d6000fd5b505050506040513d601f19601f820116820180604052508101906135c7919061516e565b604080516001600160a01b038c168152602081018b9052908101899052606081018690526080810182905290935033907f25841a32c1c1cef7b2d2bcea90bd94fcafbcd2459595475b86087699c16dc4959060a00160405180910390a250509550959350505050565b6040517f574e77950000000000000000000000000000000000000000000000000000000081526001600160a01b0384811660048301526024820184905260009182917f0000000000000000000000000000000000000000000000000000000000000000169063574e779590604401602060405180830381865afa1580156136bb573d6000803e3d6000fd5b505050506040513d601f19601f820116820180604052508101906136df9190615089565b905064e8d4a51000816001600160a01b031663313ce5676040518163ffffffff1660e01b8152600401602060405180830381865afa158015613725573d6000803e3d6000fd5b505050506040513d601f19601f8201168201806040525081019061374991906153d1565b6137549060126153ee565b61375f90600a615531565b6137699085615540565b116137a0576040517f81406f4600000000000000000000000000000000000000000000000000000000815260040160405180910390fd5b6002546040517f8f38a5550000000000000000000000000000000000000000000000000000000081526001600160a01b038781166004830152602482018790526000921690638f38a55590604401602060405180830381865afa15801561380b573d6000803e3d6000fd5b505050506040513d601f19601f8201168201806040525081019061382f9190615089565b90506001600160a01b0387163014613856576138566001600160a01b0383163330876122f3565b6000816001600160a01b03166338fff2d06040518163ffffffff1660e01b8152600401602060405180830381865afa158015613896573d6000803e3d6000fd5b505050506040513d601f19601f820116820180604052508101906138ba919061516e565b9050600080836001600160a01b0316635863056d6040518163ffffffff1660e01b81526004016040805180830381865afa1580156138fc573d6000803e3d6000fd5b505050506040513d601f19601f82011682018060405250810190613920919061557d565b915091506000807f00000000000000000000000000000000000000000000000000000000000000006001600160a01b031663f94d4668866040518263ffffffff1660e01b815260040161397591815260200190565b600060405180830381865afa158015613992573d6000803e3d6000fd5b505050506040513d6000823e601f3d9081017fffffffffffffffffffffffffffffffffffffffffffffffffffffffffffffffe01682016040526139d891908101906155fc565b50915091506000866001600160a01b0316639d2c110c604051806101200160405280600180811115613a0c57613a0c615278565b8152602001868881518110613a2357613a236156ca565b60200260200101516001600160a01b03168152602001868981518110613a4b57613a4b6156ca565b60200260200101516001600160a01b031681526020018d81526020018981526020016000815260200160006001600160a01b0316815260200160006001600160a01b0316815260200160405180602001604052806000815250815250848781518110613ab957613ab96156ca565b6020026020010151858981518110613ad357613ad36156ca565b60200260200101516040518463ffffffff1660e01b8152600401613af9939291906156f9565b6020604051808303816000875af1158015613b18573d6000803e3d6000fd5b505050506040513d601f19601f82011682018060405250810190613b3c919061516e565b9050613b4a8c8c8c84614449565b9d9c50505050505050505050505050565b6000826001600160a01b031663d4b839926040518163ffffffff1660e01b8152600401602060405180830381865afa158015613b9b573d6000803e3d6000fd5b505050506040513d601f19601f82011682018060405250810190613bbf9190615089565b9050613c156001600160a01b0382167f00000000000000000000000000000000000000000000000000000000000000007fffffffffffffffffffffffffffffffffffffffffffffffffffffffffffffffff6124bd565b613c496001600160a01b038216847fffffffffffffffffffffffffffffffffffffffffffffffffffffffffffffffff6124bd565b613ce0837fffffffffffffffffffffffffffffffffffffffffffffffffffffffffffffffff856001600160a01b0316636f307dc36040518163ffffffff1660e01b8152600401602060405180830381865afa158015613cac573d6000803e3d6000fd5b505050506040513d601f19601f82011682018060405250810190613cd09190615089565b6001600160a01b031691906124bd565b8115613d7b576040517f60d54d410000000000000000000000000000000000000000000000000000000081526001600160a01b0384811660048301527f000000000000000000000000000000000000000000000000000000000000000016906360d54d4190602401600060405180830381600087803b158015613d6257600080fd5b505af1158015613d76573d6000803e3d6000fd5b505050505b6040516001600160a01b038416907fae4a2338a83fc8bfaca3a6cbb54494b5c00e9d8a65dc9cf39135b00da497798290600090a2505050565b6002546040517f8f38a5550000000000000000000000000000000000000000000000000000000081526001600160a01b038681166004830152602482018690526000928392839290911690638f38a55590604401602060405180830381865afa158015613e25573d6000803e3d6000fd5b505050506040513d601f19601f82011682018060405250810190613e499190615089565b90506000807f00000000000000000000000000000000000000000000000000000000000000006001600160a01b031663f94d4668846001600160a01b03166338fff2d06040518163ffffffff1660e01b8152600401602060405180830381865afa158015613ebb573d6000803e3d6000fd5b505050506040513d601f19601f82011682018060405250810190613edf919061516e565b6040518263ffffffff1660e01b8152600401613efd91815260200190565b600060405180830381865afa158015613f1a573d6000803e3d6000fd5b505050506040513d6000823e601f3d9081017fffffffffffffffffffffffffffffffffffffffffffffffffffffffffffffffe0168201604052613f6091908101906155fc565b5091509150600080846001600160a01b0316635863056d6040518163ffffffff1660e01b81526004016040805180830381865afa158015613fa5573d6000803e3d6000fd5b505050506040513d601f19601f82011682018060405250810190613fc9919061557d565b915091506000838381518110613fe157613fe16156ca565b6020026020010151600014159050600081613ffd57600061403b565b61403b8d868681518110614013576140136156ca565b602002602001015187868151811061402d5761402d6156ca565b60200260200101518e614716565b90506000811161404c5760006140ff565b6040517fdfe5ef480000000000000000000000000000000000000000000000000000000081526001600160a01b038e81166004830152602482018e9052604482018390527f0000000000000000000000000000000000000000000000000000000000000000169063dfe5ef48906064016020604051808303816000875af11580156140db573d6000803e3d6000fd5b505050506040513d601f19601f820116820180604052508101906140ff919061516e565b604080516002808252606082018352929b50600092909160208301908036833701905050905061412f828d6157c0565b818581518110614141576141416156ca565b60200260200101818152505089818681518110614160576141606156ca565b6020026020010181815250506141908860405180606001604052808a81526020018481526020018e81525061482e565b9850505050505050505094509492505050565b60008060007f00000000000000000000000000000000000000000000000000000000000000006001600160a01b031663f94d4668896040518263ffffffff1660e01b81526004016141f691815260200190565b600060405180830381865afa158015614213573d6000803e3d6000fd5b505050506040513d6000823e601f3d9081017fffffffffffffffffffffffffffffffffffffffffffffffffffffffffffffffe016820160405261425991908101906155fc565b5050905060006142668290565b9050600060405180608001604052808381526020018881526020018760405160200161429491815260200190565b60405160208183030381529060405281526020016000151581525090507f00000000000000000000000000000000000000000000000000000000000000006001600160a01b0316638bdb39138b3030856040518563ffffffff1660e01b815260040161430394939291906158a1565b600060405180830381600087803b15801561431d57600080fd5b505af1158015614331573d6000803e3d6000fd5b50506040517f70a082310000000000000000000000000000000000000000000000000000000081523060048201526001600160a01b038b1692506370a082319150602401602060405180830381865afa158015614392573d6000803e3d6000fd5b505050506040513d601f19601f820116820180604052508101906143b6919061516e565b6040517f70a082310000000000000000000000000000000000000000000000000000000081523060048201529095506001600160a01b038a16906370a0823190602401602060405180830381865afa158015614416573d6000803e3d6000fd5b505050506040513d601f19601f8201168201806040525081019061443a919061516e565b93505050509550959350505050565b600080856001600160a01b031663d4b839926040518163ffffffff1660e01b8152600401602060405180830381865afa15801561448a573d6000803e3d6000fd5b505050506040513d601f19601f820116820180604052508101906144ae9190615089565b90506000816001600160a01b031663313ce5676040518163ffffffff1660e01b8152600401602060405180830381865afa1580156144f0573d6000803e3d6000fd5b505050506040513d601f19601f8201168201806040525081019061451491906153d1565b60ff16905060006009821061454d5761452e8260126157c0565b61453990600a6158d3565b614548906402540be4006158df565b614550565b60015b9050600088888861456185826157c0565b604080516001600160a01b03909516602086015284019290925260608301526080820152600160a082015260c001604080517fffffffffffffffffffffffffffffffffffffffffffffffffffffffffffffffe0818403018152908290527f5cffe9de00000000000000000000000000000000000000000000000000000000825291506000906001600160a01b038b1690635cffe9de9061460b90309089908c90889060040161539f565b6020604051808303816000875af115801561462a573d6000803e3d6000fd5b505050506040513d601f19601f8201168201806040525081019061464e91906151ce565b905080614687576040517f87cce7b800000000000000000000000000000000000000000000000000000000815260040160405180910390fd5b6040517f70a082310000000000000000000000000000000000000000000000000000000081523060048201526001600160a01b038616906370a0823190602401602060405180830381865afa1580156146e4573d6000803e3d6000fd5b505050506040513d601f19601f82011682018060405250810190614708919061516e565b9a9950505050505050505050565b60006114d061482785614816866148108a6001600160a01b031663b8c15a9f6040518163ffffffff1660e01b8152600401602060405180830381865afa158015614764573d6000803e3d6000fd5b505050506040513d601f19601f82011682018060405250810190614788919061591a565b6147ac906fffffffffffffffffffffffffffffffff16670de0b6b3a76400006157c0565b8b6001600160a01b031663f51e181a6040518163ffffffff1660e01b81526004016020604051808303816000875af11580156147ec573d6000803e3d6000fd5b505050506040513d601f19601f82011682018060405250810190614810919061516e565b90614a9d565b61482091906151b6565b8690614abb565b8390614a9d565b600080836001600160a01b03166338fff2d06040518163ffffffff1660e01b8152600401602060405180830381865afa15801561486f573d6000803e3d6000fd5b505050506040513d601f19601f82011682018060405250810190614893919061516e565b835190915060005b84515160ff82161015614938576149267f000000000000000000000000000000000000000000000000000000000000000086602001518360ff16815181106148e5576148e56156ca565b602002602001015187600001518460ff1681518110614906576149066156ca565b60200260200101516001600160a01b03166124bd9092919063ffffffff16565b806149308161594c565b91505061489b565b5060006040518060800160405280838152602001866020015181526020018660200151876040015160405160200161497192919061596b565b60405160208183030381529060405281526020016000151581525090507f00000000000000000000000000000000000000000000000000000000000000006001600160a01b031663b95cac28843033856040518563ffffffff1660e01b81526004016149e094939291906158a1565b600060405180830381600087803b1580156149fa57600080fd5b505af1158015614a0e573d6000803e3d6000fd5b50506040517f70a082310000000000000000000000000000000000000000000000000000000081523360048201526001600160a01b03891692506370a082319150602401602060405180830381865afa158015614a6f573d6000803e3d6000fd5b505050506040513d601f19601f82011682018060405250810190614a93919061516e565b9695505050505050565b6000614ab28383670de0b6b3a7640000614acc565b90505b92915050565b6000614ab283670de0b6b3a7640000845b828202811515841585830485141716614ae457600080fd5b0492915050565b6001600160a01b0381168114614b0057600080fd5b50565b600060208284031215614b1557600080fd5b813561206281614aeb565b60ff81168114614b0057600080fd5b600080600080600060a08688031215614b4757600080fd5b8535614b5281614aeb565b945060208601359350604086013592506060860135614b7081614b20565b949793965091946080013592915050565b8015158114614b0057600080fd5b60008060408385031215614ba257600080fd5b8235614bad81614aeb565b91506020830135614bbd81614b81565b809150509250929050565b600080600060608486031215614bdd57600080fd5b8335614be881614aeb565b9250602084013591506040840135614bff81614b81565b809150509250925092565b60008060008060008060a08789031215614c2357600080fd5b8635614c2e81614aeb565b95506020870135614c3e81614aeb565b94506040870135935060608701359250608087013567ffffffffffffffff80821115614c6957600080fd5b818901915089601f830112614c7d57600080fd5b813581811115614c8c57600080fd5b8a6020828501011115614c9e57600080fd5b6020830194508093505050509295509295509295565b7f4e487b7100000000000000000000000000000000000000000000000000000000600052604160045260246000fd5b604051601f82017fffffffffffffffffffffffffffffffffffffffffffffffffffffffffffffffe016810167ffffffffffffffff81118282101715614d2a57614d2a614cb4565b604052919050565b600067ffffffffffffffff821115614d4c57614d4c614cb4565b5060051b60200190565b600082601f830112614d6757600080fd5b81356020614d7c614d7783614d32565b614ce3565b82815260059290921b84018101918181019086841115614d9b57600080fd5b8286015b84811015614db65780358352918301918301614d9f565b509695505050505050565b6000806000806000806000806000806101408b8d031215614de157600080fd5b8a35614dec81614aeb565b995060208b0135614dfc81614aeb565b985060408b0135975060608b0135965060808b0135955060a08b013567ffffffffffffffff811115614e2d57600080fd5b614e398d828e01614d56565b95505060c08b0135935060e08b0135614e5181614b20565b92506101008b0135614e6281614b81565b809250506101208b013590509295989b9194979a5092959850565b60008060008060808587031215614e9357600080fd5b8435614e9e81614aeb565b966020860135965060408601359560600135945092505050565b60008060008060008060c08789031215614ed157600080fd5b8635614edc81614aeb565b95506020870135945060408701359350606087013567ffffffffffffffff811115614f0657600080fd5b614f1289828a01614d56565b9350506080870135915060a0870135614f2a81614b81565b809150509295509295509295565b600080600080600060a08688031215614f5057600080fd5b8535614f5b81614aeb565b97602087013597506040870135966060810135965060800135945092505050565b600080600060608486031215614f9157600080fd5b8335614f9c81614aeb565b95602085013595506040909401359392505050565b600080600060608486031215614fc657600080fd5b8335614fd181614aeb565b9250602084810135614fe281614aeb565b9250604085013567ffffffffffffffff80821115614fff57600080fd5b818701915087601f83011261501357600080fd5b81358181111561502557615025614cb4565b615055847fffffffffffffffffffffffffffffffffffffffffffffffffffffffffffffffe0601f84011601614ce3565b9150808252888482850101111561506b57600080fd5b80848401858401376000848284010152508093505050509250925092565b60006020828403121561509b57600080fd5b815161206281614aeb565b6000806000606084860312156150bb57600080fd5b83516150c681614aeb565b60208501519093506150d781614aeb565b80925050604084015190509250925092565b600080604083850312156150fc57600080fd5b825161510781614aeb565b6020840151909250614bbd81614aeb565b600080600080600060a0868803121561513057600080fd5b853561513b81614aeb565b9450602086013593506040860135925060608601359150608086013561516081614b81565b809150509295509295909350565b60006020828403121561518057600080fd5b5051919050565b7f4e487b7100000000000000000000000000000000000000000000000000000000600052601160045260246000fd5b600082198211156151c9576151c9615187565b500190565b6000602082840312156151e057600080fd5b815161206281614b81565b6000815180845260005b81811015615211576020818501810151868301820152016151f5565b81811115615223576000602083870101525b50601f017fffffffffffffffffffffffffffffffffffffffffffffffffffffffffffffffe0169290920160200192915050565b6001600160a01b038316815260406020820152600061147660408301846151eb565b7f4e487b7100000000000000000000000000000000000000000000000000000000600052602160045260246000fd5b600281106152de577f4e487b7100000000000000000000000000000000000000000000000000000000600052602160045260246000fd5b9052565b60e08152845160e0820152600060208601516153026101008401826152a7565b5060408601516001600160a01b03908116610120840152606087015116610140830152608086015161016083015260a086015160c061018084015261534b6101a08401826151eb565b91505061538d60208301866001600160a01b03808251168352602082015115156020840152806040830151166040840152506060810151151560608301525050565b60a082019390935260c0015292915050565b60006001600160a01b03808716835280861660208401525083604083015260806060830152614a9360808301846151eb565b6000602082840312156153e357600080fd5b815161206281614b20565b600060ff821660ff84168082101561540857615408615187565b90039392505050565b600181815b8085111561546a57817fffffffffffffffffffffffffffffffffffffffffffffffffffffffffffffffff0482111561545057615450615187565b8085161561545d57918102915b93841c9390800290615416565b509250929050565b60008261548157506001614ab5565b8161548e57506000614ab5565b81600181146154a457600281146154ae576154ca565b6001915050614ab5565b60ff8411156154bf576154bf615187565b50506001821b614ab5565b5060208310610133831016604e8410600b84101617156154ed575081810a614ab5565b6154f78383615411565b807fffffffffffffffffffffffffffffffffffffffffffffffffffffffffffffffff0482111561552957615529615187565b029392505050565b6000614ab260ff841683615472565b6000817fffffffffffffffffffffffffffffffffffffffffffffffffffffffffffffffff048311821515161561557857615578615187565b500290565b6000806040838503121561559057600080fd5b505080516020909101519092909150565b600082601f8301126155b257600080fd5b815160206155c2614d7783614d32565b82815260059290921b840181019181810190868411156155e157600080fd5b8286015b84811015614db657805183529183019183016155e5565b60008060006060848603121561561157600080fd5b835167ffffffffffffffff8082111561562957600080fd5b818601915086601f83011261563d57600080fd5b8151602061564d614d7783614d32565b82815260059290921b8401810191818101908a84111561566c57600080fd5b948201945b8386101561569357855161568481614aeb565b82529482019490820190615671565b918901519197509093505050808211156156ac57600080fd5b506156b9868287016155a1565b925050604084015190509250925092565b7f4e487b7100000000000000000000000000000000000000000000000000000000600052603260045260246000fd5b6060815261570b6060820185516152a7565b6000602085015161572760808401826001600160a01b03169052565b5060408501516001600160a01b03811660a084015250606085015160c0830152608085015160e083015260a0850151610100818185015260c0870151915061012061577c818601846001600160a01b03169052565b60e08801516001600160a01b03166101408601529087015161016085019190915290506157ad6101808401826151eb565b6020840195909552505060400152919050565b6000828210156157d2576157d2615187565b500390565b600081518084526020808501945080840160005b83811015615807578151875295820195908201906001016157eb565b509495945050505050565b8051608080845281519084018190526000916020919082019060a0860190845b818110156158575783516001600160a01b031683529284019291840191600101615832565b50508285015191508581038387015261587081836157d7565b925050506040830151848203604086015261588b82826151eb565b91505060608301516117de606086018215159052565b84815260006001600160a01b03808616602084015280851660408401525060806060830152614a936080830184615812565b6000614ab28383615472565b600082615915577f4e487b7100000000000000000000000000000000000000000000000000000000600052601260045260246000fd5b500490565b60006020828403121561592c57600080fd5b81516fffffffffffffffffffffffffffffffff8116811461206257600080fd5b600060ff821660ff810361596257615962615187565b60010192915050565b60408152600061597e60408301856157d7565b9050826020830152939250505056fea2646970667358221220f5e2028e67a0cac4c1cf3e8253f61570db177b4441ebcf6c1b3dc62adb890c6d64736f6c634300080f0033",
  "devdoc": {
    "kind": "dev",
    "methods": {
      "addLiquidityFromTarget(address,uint256,uint256,uint8,uint256)": {
        "details": "see return description of _addLiquidity",
        "params": {
          "adapter": "Adapter address for the Series",
          "maturity": "Maturity date for the Series",
          "minBptOut": "Minimum BPT the user will accept out for this transaction",
          "mode": "0 = issues and sell YT, 1 = issue and hold YT",
          "tBal": "Balance of Target to provide"
        }
      },
      "addLiquidityFromUnderlying(address,uint256,uint256,uint8,uint256)": {
        "details": "see return description of _addLiquidity",
        "params": {
          "adapter": "Adapter address for the Series",
          "maturity": "Maturity date for the Series",
          "minBptOut": "Minimum BPT the user will accept out for this transaction",
          "mode": "0 = issues and sell YT, 1 = issue and hold YT",
          "uBal": "Balance of Underlying to provide"
        }
      },
      "deployAdapter(address,address,bytes)": {
        "details": "Called by external address, deploy a new Adapter via an Adapter Factory",
        "params": {
          "data": "Additional encoded data needed to deploy the adapter",
          "f": "Factory to use",
          "target": "Target to onboard"
        }
      },
      "migrateLiquidity(address,address,uint256,uint256,uint256,uint256[],uint256,uint8,bool,uint256)": {
        "details": "More info on `minAmountsOut`: https://github.com/balancer-labs/docs-developers/blob/main/resources/joins-and-exits/pool-exits.md#minamountsoutsee return description of _addLiquidity. It also returns amount of PTs (in case it's called after maturity and redeem is restricted or inttoTarget is false)",
        "params": {
          "dstAdapter": "Adapter address for the destination Series",
          "dstMaturity": "Maturity date for the destination Series",
          "intoTarget": "if true, it will try to swap PTs into Target. Will revert if there's not enough liquidity to perform the swap",
          "lpBal": "Balance of LP tokens to provide",
          "minAccepted": "Min accepted amount of target when swapping Principal Tokens (only used when removing liquidity on/after maturity)",
          "minAmountsOut": "Minimum accepted amounts of PTs and Target given the amount of LP shares provided",
          "minBptOut": "Minimum BPT the user will accept out for this transaction",
          "mode": "0 = issues and sell YT, 1 = issue and hold YT",
          "srcAdapter": "Adapter address for the source Series",
          "srcMaturity": "Maturity date for the source Series"
        }
      },
      "onFlashLoan(address,address,uint256,uint256,bytes)": {
        "details": "ERC-3156 Flash loan callback"
      },
      "onboardAdapter(address,bool)": {
        "details": "Called by a trusted address, approves Target for issuance, and onboards adapter to the Divider",
        "params": {
          "adapter": "Adapter to onboard",
          "addAdapter": "Whether to call divider.addAdapter or not (useful e.g when upgrading Periphery)"
        }
      },
      "removeLiquidity(address,uint256,uint256,uint256[],uint256,bool)": {
        "details": "More info on `minAmountsOut`: https://github.com/balancer-labs/docs-developers/blob/main/resources/joins-and-exits/pool-exits.md#minamountsout",
        "params": {
          "adapter": "Adapter address for the Series",
          "intoTarget": "if true, it will try to swap PTs into Target. Will revert if there's not enough liquidity to perform the swap.",
          "lpBal": "Balance of LP tokens to provide",
          "maturity": "Maturity date for the Series",
          "minAccepted": "only used when removing liquidity on/after maturity and its the min accepted when swapping Principal Tokens to underlying",
          "minAmountsOut": "minimum accepted amounts of PTs and Target given the amount of LP shares provided"
        },
        "returns": {
          "tBal": "amount of target received and ptBal amount of Principal Tokens (in case it's called after maturity and redeem is restricted)"
        }
      },
      "removeLiquidityAndUnwrapTarget(address,uint256,uint256,uint256[],uint256,bool)": {
        "details": "More info on `minAmountsOut`: https://github.com/balancer-labs/docs-developers/blob/main/resources/joins-and-exits/pool-exits.md#minamountsout",
        "params": {
          "adapter": "Adapter address for the Series",
          "intoTarget": "if true, it will try to swap PTs into Target. Will revert if there's not enough liquidity to perform the swap.",
          "lpBal": "Balance of LP tokens to provide",
          "maturity": "Maturity date for the Series",
          "minAccepted": "only used when removing liquidity on/after maturity and its the min accepted when swapping Principal Tokens to underlying",
          "minAmountsOut": "minimum accepted amounts of PTs and Target given the amount of LP shares provided"
        },
        "returns": {
          "uBal": "amount of underlying received and ptBal Principal Tokens (in case it's called after maturity and redeem is restricted or intoTarget is false)"
        }
      },
      "setFactory(address,bool)": {
        "params": {
          "f": "Factory's address",
          "isOn": "Flag setting this factory to enabled or disabled"
        }
      },
      "setPoolManager(address)": {
        "params": {
          "newPoolManager": "The Pool Manager addresss to set"
        }
      },
      "setSpaceFactory(address)": {
        "params": {
          "newSpaceFactory": "The Space Factory addresss to set"
        }
      },
      "sponsorSeries(address,uint256,bool)": {
        "details": "Called by an external address, initializes a new series in the Divider",
        "params": {
          "adapter": "Adapter to associate with the Series",
          "maturity": "Maturity date for the Series, in units of unix time",
          "withPool": "Whether to deploy a Space pool or not (only works for unverified adapters)"
        }
      },
      "swapPTsForTarget(address,uint256,uint256,uint256)": {
        "params": {
          "adapter": "Adapter address for the Series",
          "maturity": "Maturity date for the Series",
          "minAccepted": "Min accepted amount of Target",
          "ptBal": "Balance of PT to sell"
        }
      },
      "swapPTsForUnderlying(address,uint256,uint256,uint256)": {
        "params": {
          "adapter": "Adapter address for the Series",
          "maturity": "Maturity date for the Series",
          "minAccepted": "Min accepted amount of Target",
          "ptBal": "Balance of PT to sell"
        }
      },
      "swapTargetForPTs(address,uint256,uint256,uint256)": {
        "params": {
          "adapter": "Adapter address for the Series",
          "maturity": "Maturity date for the Series",
          "minAccepted": "Min accepted amount of PT",
          "tBal": "Balance of Target to sell"
        },
        "returns": {
          "ptBal": "amount of PT received"
        }
      },
      "swapTargetForYTs(address,uint256,uint256,uint256,uint256)": {
        "params": {
          "adapter": "Adapter address for the Series",
          "maturity": "Maturity date for the Series",
          "minOut": "Min accepted amount of YT",
          "targetIn": "Balance of Target to sell",
          "targetToBorrow": "Balance of Target to borrow"
        },
        "returns": {
          "targetBal": "amount of Target sent back",
          "ytBal": "amount of YT received"
        }
      },
      "swapUnderlyingForPTs(address,uint256,uint256,uint256)": {
        "params": {
          "adapter": "Adapter address for the Series",
          "maturity": "Maturity date for the Series",
          "minAccepted": "Min accepted amount of PT",
          "uBal": "Balance of Underlying to sell"
        },
        "returns": {
          "ptBal": "amount of PT received"
        }
      },
      "swapUnderlyingForYTs(address,uint256,uint256,uint256,uint256)": {
        "params": {
          "adapter": "Adapter address for the Series",
          "maturity": "Maturity date for the Series",
          "minOut": "Min accepted amount of YT",
          "targetToBorrow": "Balance of Target to borrow",
          "underlyingIn": "Balance of Underlying to sell"
        },
        "returns": {
          "targetBal": "amount of Target sent back",
          "ytBal": "amount of YT received"
        }
      },
      "swapYTsForTarget(address,uint256,uint256)": {
        "params": {
          "adapter": "Adapter address for the Series",
          "maturity": "Maturity date for the Series",
          "ytBal": "Balance of Yield Tokens to swap"
        }
      },
      "swapYTsForUnderlying(address,uint256,uint256)": {
        "params": {
          "adapter": "Adapter address for the Series",
          "maturity": "Maturity date for the Series",
          "ytBal": "Balance of Yield Tokens to swap"
        }
      },
      "verifyAdapter(address,bool)": {
        "details": "Verifies an Adapter and optionally adds the Target to the money market",
        "params": {
          "adapter": "Adapter to verify"
        }
      }
    },
    "title": "Periphery",
    "version": 1
  },
  "userdoc": {
    "kind": "user",
    "methods": {
      "MIN_YT_SWAP_IN()": {
        "notice": "Lower bound on the amount of Claim tokens one can swap in for Target"
      },
      "PRICE_ESTIMATE_ACCEPTABLE_ERROR()": {
        "notice": "Acceptable error when estimating the tokens resulting from a specific swap"
      },
      "addLiquidityFromTarget(address,uint256,uint256,uint8,uint256)": {
        "notice": "Adds liquidity providing target"
      },
      "addLiquidityFromUnderlying(address,uint256,uint256,uint8,uint256)": {
        "notice": "Adds liquidity providing underlying"
      },
      "balancerVault()": {
        "notice": "Sense core Divider address"
      },
      "deployAdapter(address,address,bytes)": {
        "notice": "Deploy and onboard a Adapter"
      },
      "divider()": {
        "notice": "Sense core Divider address"
      },
      "factories(address)": {
        "notice": "adapter factories -> is supported"
      },
      "migrateLiquidity(address,address,uint256,uint256,uint256,uint256[],uint256,uint8,bool,uint256)": {
        "notice": "Migrates liquidity position from one series to another"
      },
      "onboardAdapter(address,bool)": {
        "notice": "Onboard a single Adapter w/o needing a factory"
      },
      "poolManager()": {
        "notice": "Sense core Divider address"
      },
      "removeLiquidity(address,uint256,uint256,uint256[],uint256,bool)": {
        "notice": "Removes liquidity providing an amount of LP tokens and returns target"
      },
      "removeLiquidityAndUnwrapTarget(address,uint256,uint256,uint256[],uint256,bool)": {
        "notice": "Removes liquidity providing an amount of LP tokens and returns underlying"
      },
      "setFactory(address,bool)": {
        "notice": "Enable or disable a factory"
      },
      "setPoolManager(address)": {
        "notice": "Update the address for the Pool Manager"
      },
      "setSpaceFactory(address)": {
        "notice": "Update the address for the Space Factory"
      },
      "spaceFactory()": {
        "notice": "Sense core Divider address"
      },
      "sponsorSeries(address,uint256,bool)": {
        "notice": "Sponsor a new Series in any adapter previously onboarded onto the Divider"
      },
      "swapPTsForTarget(address,uint256,uint256,uint256)": {
        "notice": "Swap Principal Tokens for Target of a particular series"
      },
      "swapPTsForUnderlying(address,uint256,uint256,uint256)": {
        "notice": "Swap Principal Tokens for Underlying of a particular series"
      },
      "swapTargetForPTs(address,uint256,uint256,uint256)": {
        "notice": "Swap Target to Principal Tokens of a particular series"
      },
      "swapTargetForYTs(address,uint256,uint256,uint256,uint256)": {
        "notice": "Swap Target to Yield Tokens of a particular series"
      },
      "swapUnderlyingForPTs(address,uint256,uint256,uint256)": {
        "notice": "Swap Underlying to Principal Tokens of a particular series"
      },
      "swapUnderlyingForYTs(address,uint256,uint256,uint256,uint256)": {
        "notice": "Swap Underlying to Yield of a particular series"
      },
      "swapYTsForTarget(address,uint256,uint256)": {
        "notice": "Swap YT for Target of a particular series"
      },
      "swapYTsForUnderlying(address,uint256,uint256)": {
        "notice": "Swap YT for Underlying of a particular series"
      },
      "verified(address)": {
        "notice": "adapter -> bool"
      }
    },
    "version": 1
  },
  "storageLayout": {
    "storage": [
      {
        "astId": 20319,
        "contract": "@sense-finance/v1-core/src/Periphery.sol:Periphery",
        "label": "isTrusted",
        "offset": 0,
        "slot": "0",
        "type": "t_mapping(t_address,t_bool)"
      },
      {
        "astId": 4818,
        "contract": "@sense-finance/v1-core/src/Periphery.sol:Periphery",
        "label": "poolManager",
        "offset": 0,
        "slot": "1",
        "type": "t_contract(PoolManager)19396"
      },
      {
        "astId": 4822,
        "contract": "@sense-finance/v1-core/src/Periphery.sol:Periphery",
        "label": "spaceFactory",
        "offset": 0,
        "slot": "2",
        "type": "t_contract(SpaceFactoryLike)4783"
      },
      {
        "astId": 4827,
        "contract": "@sense-finance/v1-core/src/Periphery.sol:Periphery",
        "label": "factories",
        "offset": 0,
        "slot": "3",
        "type": "t_mapping(t_address,t_bool)"
      },
      {
        "astId": 4832,
        "contract": "@sense-finance/v1-core/src/Periphery.sol:Periphery",
        "label": "verified",
        "offset": 0,
        "slot": "4",
        "type": "t_mapping(t_address,t_bool)"
      }
    ],
    "types": {
      "t_address": {
        "encoding": "inplace",
        "label": "address",
        "numberOfBytes": "20"
      },
      "t_bool": {
        "encoding": "inplace",
        "label": "bool",
        "numberOfBytes": "1"
      },
      "t_contract(PoolManager)19396": {
        "encoding": "inplace",
        "label": "contract PoolManager",
        "numberOfBytes": "20"
      },
      "t_contract(SpaceFactoryLike)4783": {
        "encoding": "inplace",
        "label": "contract SpaceFactoryLike",
        "numberOfBytes": "20"
      },
      "t_mapping(t_address,t_bool)": {
        "encoding": "mapping",
        "key": "t_address",
        "label": "mapping(address => bool)",
        "numberOfBytes": "32",
        "value": "t_bool"
      }
    }
  }
}