{
  "address": "0x5dCc6b2B6b15cffC2931882e6f2a3B4d0Cb2cC0b",
  "abi": [
    {
      "inputs": [
        {
          "internalType": "address",
          "name": "_divider",
          "type": "address"
        },
        {
          "internalType": "address",
          "name": "_restrictedAdmin",
          "type": "address"
        },
        {
          "internalType": "address",
          "name": "_rewardsRecipient",
          "type": "address"
        },
        {
          "components": [
            {
              "internalType": "address",
              "name": "oracle",
              "type": "address"
            },
            {
              "internalType": "address",
              "name": "stake",
              "type": "address"
            },
            {
              "internalType": "uint256",
              "name": "stakeSize",
              "type": "uint256"
            },
            {
              "internalType": "uint256",
              "name": "minm",
              "type": "uint256"
            },
            {
              "internalType": "uint256",
              "name": "maxm",
              "type": "uint256"
            },
            {
              "internalType": "uint128",
              "name": "ifee",
              "type": "uint128"
            },
            {
              "internalType": "uint16",
              "name": "mode",
              "type": "uint16"
            },
            {
              "internalType": "uint64",
              "name": "tilt",
              "type": "uint64"
            },
            {
              "internalType": "uint256",
              "name": "guard",
              "type": "uint256"
            }
          ],
          "internalType": "struct BaseFactory.FactoryParams",
          "name": "_factoryParams",
          "type": "tuple"
        }
      ],
      "stateMutability": "nonpayable",
      "type": "constructor"
    },
    {
      "inputs": [],
      "name": "InvalidPrice",
      "type": "error"
    },
    {
      "inputs": [],
      "name": "OnlyPeriphery",
      "type": "error"
    },
    {
      "inputs": [],
      "name": "TargetNotSupported",
      "type": "error"
    },
    {
      "anonymous": false,
      "inputs": [
        {
          "indexed": true,
          "internalType": "address",
          "name": "oldAdmin",
          "type": "address"
        },
        {
          "indexed": true,
          "internalType": "address",
          "name": "newAdmin",
          "type": "address"
        }
      ],
      "name": "RestrictedAdminChanged",
      "type": "event"
    },
    {
      "anonymous": false,
      "inputs": [
        {
          "indexed": true,
          "internalType": "address",
          "name": "oldRecipient",
          "type": "address"
        },
        {
          "indexed": true,
          "internalType": "address",
          "name": "newRecipient",
          "type": "address"
        }
      ],
      "name": "RewardsRecipientChanged",
      "type": "event"
    },
    {
      "anonymous": false,
      "inputs": [
        {
          "indexed": true,
          "internalType": "address",
          "name": "target",
          "type": "address"
        },
        {
          "indexed": true,
          "internalType": "bool",
          "name": "supported",
          "type": "bool"
        }
      ],
      "name": "TargetSupported",
      "type": "event"
    },
    {
      "anonymous": false,
      "inputs": [
        {
          "indexed": true,
          "internalType": "address",
          "name": "user",
          "type": "address"
        },
        {
          "indexed": false,
          "internalType": "bool",
          "name": "trusted",
          "type": "bool"
        }
      ],
      "name": "UserTrustUpdated",
      "type": "event"
    },
    {
      "inputs": [],
      "name": "DEFAULT_LEVEL",
      "outputs": [
        {
          "internalType": "uint48",
          "name": "",
          "type": "uint48"
        }
      ],
      "stateMutability": "view",
      "type": "function"
    },
    {
      "inputs": [],
      "name": "ETH_USD_PRICEFEED",
      "outputs": [
        {
          "internalType": "address",
          "name": "",
          "type": "address"
        }
      ],
      "stateMutability": "view",
      "type": "function"
    },
    {
      "inputs": [
        {
          "internalType": "address",
          "name": "_target",
          "type": "address"
        },
        {
          "internalType": "bytes",
          "name": "data",
          "type": "bytes"
        }
      ],
      "name": "deployAdapter",
      "outputs": [
        {
          "internalType": "address",
          "name": "adapter",
          "type": "address"
        }
      ],
      "stateMutability": "nonpayable",
      "type": "function"
    },
    {
      "inputs": [],
      "name": "divider",
      "outputs": [
        {
          "internalType": "address",
          "name": "",
          "type": "address"
        }
      ],
      "stateMutability": "view",
      "type": "function"
    },
    {
      "inputs": [],
      "name": "factoryParams",
      "outputs": [
        {
          "internalType": "address",
          "name": "oracle",
          "type": "address"
        },
        {
          "internalType": "address",
          "name": "stake",
          "type": "address"
        },
        {
          "internalType": "uint256",
          "name": "stakeSize",
          "type": "uint256"
        },
        {
          "internalType": "uint256",
          "name": "minm",
          "type": "uint256"
        },
        {
          "internalType": "uint256",
          "name": "maxm",
          "type": "uint256"
        },
        {
          "internalType": "uint128",
          "name": "ifee",
          "type": "uint128"
        },
        {
          "internalType": "uint16",
          "name": "mode",
          "type": "uint16"
        },
        {
          "internalType": "uint64",
          "name": "tilt",
          "type": "uint64"
        },
        {
          "internalType": "uint256",
          "name": "guard",
          "type": "uint256"
        }
      ],
      "stateMutability": "view",
      "type": "function"
    },
    {
      "inputs": [
        {
          "internalType": "address",
          "name": "",
          "type": "address"
        }
      ],
      "name": "isTrusted",
      "outputs": [
        {
          "internalType": "bool",
          "name": "",
          "type": "bool"
        }
      ],
      "stateMutability": "view",
      "type": "function"
    },
    {
      "inputs": [],
      "name": "restrictedAdmin",
      "outputs": [
        {
          "internalType": "address",
          "name": "",
          "type": "address"
        }
      ],
      "stateMutability": "view",
      "type": "function"
    },
    {
      "inputs": [],
      "name": "rewardsRecipient",
      "outputs": [
        {
          "internalType": "address",
          "name": "",
          "type": "address"
        }
      ],
      "stateMutability": "view",
      "type": "function"
    },
    {
      "inputs": [
        {
          "internalType": "address",
          "name": "user",
          "type": "address"
        },
        {
          "internalType": "bool",
          "name": "trusted",
          "type": "bool"
        }
      ],
      "name": "setIsTrusted",
      "outputs": [],
      "stateMutability": "nonpayable",
      "type": "function"
    },
    {
      "inputs": [
        {
          "internalType": "address",
          "name": "_restrictedAdmin",
          "type": "address"
        }
      ],
      "name": "setRestrictedAdmin",
      "outputs": [],
      "stateMutability": "nonpayable",
      "type": "function"
    },
    {
      "inputs": [
        {
          "internalType": "address",
          "name": "_recipient",
          "type": "address"
        }
      ],
      "name": "setRewardsRecipient",
      "outputs": [],
      "stateMutability": "nonpayable",
      "type": "function"
    },
    {
      "inputs": [
        {
          "internalType": "address",
          "name": "_target",
          "type": "address"
        },
        {
          "internalType": "bool",
          "name": "supported",
          "type": "bool"
        }
      ],
      "name": "supportTarget",
      "outputs": [],
      "stateMutability": "nonpayable",
      "type": "function"
    },
    {
      "inputs": [
        {
          "internalType": "address[]",
          "name": "_targets",
          "type": "address[]"
        },
        {
          "internalType": "bool",
          "name": "supported",
          "type": "bool"
        }
      ],
      "name": "supportTargets",
      "outputs": [],
      "stateMutability": "nonpayable",
      "type": "function"
    },
    {
      "inputs": [
        {
          "internalType": "address",
          "name": "",
          "type": "address"
        }
      ],
      "name": "supportedTargets",
      "outputs": [
        {
          "internalType": "bool",
          "name": "",
          "type": "bool"
        }
      ],
      "stateMutability": "view",
      "type": "function"
    }
  ],
  "transactionHash": "0xbc06151d46d1be136cfbd0789a2c3398acd845f6135dd126b1a0043adaede21c",
  "args": [
    "0x09B10E45A912BcD4E80a8A3119f0cfCcad1e1f12",
    "0xf13519734649f7464e5be4aa91987a35594b2b16",
    "0xf13519734649f7464e5be4aa91987a35594b2b16",
    [
      "0xB3e70779c1d1f2637483A02f1446b211fe4183Fa",
      "0xC02aaA39b223FE8D0A0e5C4F27eAD9083C756Cc2",
      "250000000000000000",
      "2629800",
      "315576000",
      "1000000000000000",
      0,
      0,
      "100000000000000000000000"
    ]
  ],
  "numDeployments": 1,
  "solcInputHash": "29b38443a54b95d1242c428e67ea9304",
  "bytecode": "0x60a06040523480156200001157600080fd5b506040516200407c3803806200407c833981016040819052620000349162000210565b3360008181526020818152604091829020805460ff19166001908117909155915191825286928692869286929182917fe95aec380cae16330d146d5499ef7db6f3657e477104a733e771bc09e500d986910160405180910390a2506001600160a01b039384166080908152600180549486166001600160a01b0319958616179055600280549386169385169390931790925580516003805491861691851691909117905560208101516004805491909516931692909217909255604081015160055560608101516006559081015160075560a08101516008805460c084015160e08501516001600160401b0316600160901b02600160901b600160d01b031961ffff909216600160801b026001600160901b03199093166001600160801b039095169490941791909117169190911790556101000151600955506200030c92505050565b80516001600160a01b03811681146200019057600080fd5b919050565b60405161012081016001600160401b0381118282101715620001c757634e487b7160e01b600052604160045260246000fd5b60405290565b80516001600160801b03811681146200019057600080fd5b805161ffff811681146200019057600080fd5b80516001600160401b03811681146200019057600080fd5b6000806000808486036101808112156200022957600080fd5b620002348662000178565b9450620002446020870162000178565b9350620002546040870162000178565b925061012080605f19830112156200026b57600080fd5b6200027562000195565b9150620002856060880162000178565b8252620002956080880162000178565b602083015260a0870151604083015260c0870151606083015260e08701516080830152610100620002c8818901620001cd565b60a0840152620002da828901620001e5565b60c0840152620002ee6101408901620001f8565b60e08401526101608801518184015250508091505092959194509250565b608051613d316200034b60003960008181610183015281816105ed015281816106cd0152818161089201528181610d270152610fc20152613d316000f3fe60806040523480156200001157600080fd5b5060043610620000fd5760003560e01c806395a39fb11162000097578063cac0e3c2116200006e578063cac0e3c2146200034d578063dc69c06f1462000364578063f67359ea146200038a578063ff2a7d3014620003a157600080fd5b806395a39fb114620001f957806396d648791462000210578063bbe451d5146200024757600080fd5b8063378efa3711620000d8578063378efa37146200017d5780633cad2dcd14620001a557806340cc63e114620001bc57806393d4750c14620001d857600080fd5b80630c1b797914620001025780631393916a146200014d5780631a54259c1462000166575b600080fd5b600154620001239073ffffffffffffffffffffffffffffffffffffffff1681565b60405173ffffffffffffffffffffffffffffffffffffffff90911681526020015b60405180910390f35b620001646200015e3660046200123f565b620003c2565b005b62000164620001773660046200127d565b620004c9565b620001237f000000000000000000000000000000000000000000000000000000000000000081565b62000123620001b636600462001325565b620005d2565b62000123735f4ec3df9cbd43714fe2740f5e3616155c5b841981565b620001e1601f81565b60405165ffffffffffff909116815260200162000144565b620001646200020a366004620013f6565b620009ab565b62000236620002213660046200127d565b60006020819052908152604090205460ff1681565b604051901515815260200162000144565b600354600454600554600654600754600854600954620002d09673ffffffffffffffffffffffffffffffffffffffff9081169616949392916fffffffffffffffffffffffffffffffff811691700100000000000000000000000000000000820461ffff16917201000000000000000000000000000000000000900467ffffffffffffffff169089565b6040805173ffffffffffffffffffffffffffffffffffffffff9a8b1681529990981660208a015296880195909552606087019390935260808601919091526fffffffffffffffffffffffffffffffff1660a085015261ffff1660c084015267ffffffffffffffff1660e08301526101008201526101200162000144565b620001646200035e3660046200123f565b62000b22565b62000236620003753660046200127d565b600a6020526000908152604090205460ff1681565b620001646200039b3660046200127d565b62000c1c565b600254620001239073ffffffffffffffffffffffffffffffffffffffff1681565b3360009081526020819052604090205460ff1662000441576040517f08c379a000000000000000000000000000000000000000000000000000000000815260206004820152600960248201527f554e54525553544544000000000000000000000000000000000000000000000060448201526064015b60405180910390fd5b73ffffffffffffffffffffffffffffffffffffffff82166000818152602081815260409182902080547fffffffffffffffffffffffffffffffffffffffffffffffffffffffffffffff001685151590811790915591519182527fe95aec380cae16330d146d5499ef7db6f3657e477104a733e771bc09e500d986910160405180910390a25050565b3360009081526020819052604090205460ff1662000544576040517f08c379a000000000000000000000000000000000000000000000000000000000815260206004820152600960248201527f554e545255535445440000000000000000000000000000000000000000000000604482015260640162000438565b60025460405173ffffffffffffffffffffffffffffffffffffffff8084169216907f952c654458751f95c1440bdb1537809137b3de28466b80ad096a711707ae987a90600090a3600280547fffffffffffffffffffffffff00000000000000000000000000000000000000001673ffffffffffffffffffffffffffffffffffffffff92909216919091179055565b60003373ffffffffffffffffffffffffffffffffffffffff167f000000000000000000000000000000000000000000000000000000000000000073ffffffffffffffffffffffffffffffffffffffff166377aace1a6040518163ffffffff1660e01b8152600401602060405180830381865afa15801562000657573d6000803e3d6000fd5b505050506040513d601f19601f820116820180604052508101906200067d9190620014c9565b73ffffffffffffffffffffffffffffffffffffffff1614620006cb576040517ffb02114900000000000000000000000000000000000000000000000000000000815260040160405180910390fd5b7f000000000000000000000000000000000000000000000000000000000000000073ffffffffffffffffffffffffffffffffffffffff1663a1256f9f6040518163ffffffff1660e01b8152600401602060405180830381865afa15801562000737573d6000803e3d6000fd5b505050506040513d601f19601f820116820180604052508101906200075d9190620014e9565b15801562000791575073ffffffffffffffffffffffffffffffffffffffff83166000908152600a602052604090205460ff16155b15620007c9576040517fa2a94ace00000000000000000000000000000000000000000000000000000000815260040160405180910390fd5b604080516101008101825260035473ffffffffffffffffffffffffffffffffffffffff9081168252600454811660208301526005548284015260065460608084019190915260075460808401526008547201000000000000000000000000000000000000810467ffffffffffffffff1660a0850152601f60c0850152700100000000000000000000000000000000810461ffff1660e0850152600254945193949188901b7fffffffffffffffffffffffffffffffffffffffff00000000000000000000000016937f000000000000000000000000000000000000000000000000000000000000000093899316916fffffffffffffffffffffffffffffffff16908690620008d690620011ed565b620008e695949392919062001509565b8190604051809103906000f590508015801562000907573d6000803e3d6000fd5b509150620009158262000d25565b600180546040517f1393916a00000000000000000000000000000000000000000000000000000000815273ffffffffffffffffffffffffffffffffffffffff91821660048201526024810192909252831690631393916a90604401600060405180830381600087803b1580156200098b57600080fd5b505af1158015620009a0573d6000803e3d6000fd5b505050505092915050565b3360009081526020819052604090205460ff1662000a26576040517f08c379a000000000000000000000000000000000000000000000000000000000815260206004820152600960248201527f554e545255535445440000000000000000000000000000000000000000000000604482015260640162000438565b60005b825181101562000b1d5781600a600085848151811062000a4d5762000a4d620015d5565b602002602001015173ffffffffffffffffffffffffffffffffffffffff1673ffffffffffffffffffffffffffffffffffffffff16815260200190815260200160002060006101000a81548160ff02191690831515021790555081151583828151811062000abe5762000abe620015d5565b602002602001015173ffffffffffffffffffffffffffffffffffffffff167f34465fae8b1f082faa1eb1845b34c2bfd6b86cc48df2ebf6426eeddd7e3a4c9a60405160405180910390a38062000b148162001633565b91505062000a29565b505050565b3360009081526020819052604090205460ff1662000b9d576040517f08c379a000000000000000000000000000000000000000000000000000000000815260206004820152600960248201527f554e545255535445440000000000000000000000000000000000000000000000604482015260640162000438565b73ffffffffffffffffffffffffffffffffffffffff82166000818152600a602052604080822080547fffffffffffffffffffffffffffffffffffffffffffffffffffffffffffffff001685151590811790915590519092917f34465fae8b1f082faa1eb1845b34c2bfd6b86cc48df2ebf6426eeddd7e3a4c9a91a35050565b3360009081526020819052604090205460ff1662000c97576040517f08c379a000000000000000000000000000000000000000000000000000000000815260206004820152600960248201527f554e545255535445440000000000000000000000000000000000000000000000604482015260640162000438565b60015460405173ffffffffffffffffffffffffffffffffffffffff8084169216907fb656925e78f8f28c65d9357077dfd5d3d0056d5eac98c8c1a1e0b426ffd43d4a90600090a3600180547fffffffffffffffffffffffff00000000000000000000000000000000000000001673ffffffffffffffffffffffffffffffffffffffff92909216919091179055565b7f000000000000000000000000000000000000000000000000000000000000000073ffffffffffffffffffffffffffffffffffffffff166372f7a0306040518163ffffffff1660e01b8152600401602060405180830381865afa15801562000d91573d6000803e3d6000fd5b505050506040513d601f19601f8201168201806040525081019062000db79190620014e9565b15620011895760008190508073ffffffffffffffffffffffffffffffffffffffff1663468f02d26040518163ffffffff1660e01b8152600401602060405180830381865afa92505050801562000e4a575060408051601f3d9081017fffffffffffffffffffffffffffffffffffffffffffffffffffffffffffffffe016820190925262000e47918101906200166e565b60015b156200118757600080735f4ec3df9cbd43714fe2740f5e3616155c5b841973ffffffffffffffffffffffffffffffffffffffff1663feaf968c6040518163ffffffff1660e01b815260040160a060405180830381865afa15801562000eb3573d6000803e3d6000fd5b505050506040513d601f19601f8201168201806040525081019062000ed99190620016a3565b50935050925050611c20814262000ef19190620016f8565b111562000f29576040517ebfc92100000000000000000000000000000000000000000000000000000000815260040160405180910390fd5b600062000f3c84846305f5e1006200118c565b905062000fbe818673ffffffffffffffffffffffffffffffffffffffff1663f51e181a6040518163ffffffff1660e01b81526004016020604051808303816000875af115801562000f91573d6000803e3d6000fd5b505050506040513d601f19601f8201168201806040525081019062000fb791906200166e565b90620011a3565b90507f000000000000000000000000000000000000000000000000000000000000000073ffffffffffffffffffffffffffffffffffffffff16635fa0cc0a87620010fd848973ffffffffffffffffffffffffffffffffffffffff1663d4b839926040518163ffffffff1660e01b8152600401602060405180830381865afa1580156200104e573d6000803e3d6000fd5b505050506040513d601f19601f82011682018060405250810190620010749190620014c9565b73ffffffffffffffffffffffffffffffffffffffff1663313ce5676040518163ffffffff1660e01b8152600401602060405180830381865afa158015620010bf573d6000803e3d6000fd5b505050506040513d601f19601f82011682018060405250810190620010e591906200166e565b620010f290600a6200184b565b6009549190620011c3565b6040517fffffffff0000000000000000000000000000000000000000000000000000000060e085901b16815273ffffffffffffffffffffffffffffffffffffffff90921660048301526024820152604401600060405180830381600087803b1580156200116957600080fd5b505af11580156200117e573d6000803e3d6000fd5b50505050505050505b505b50565b60006200119b848484620011cd565b949350505050565b6000620011ba8383670de0b6b3a7640000620011cd565b90505b92915050565b60006200119b8483855b828202811515841585830485141716620011e657600080fd5b0492915050565b6124a2806200185a83390190565b73ffffffffffffffffffffffffffffffffffffffff811681146200118957600080fd5b80151581146200118957600080fd5b80356200123a816200121e565b919050565b600080604083850312156200125357600080fd5b82356200126081620011fb565b9150602083013562001272816200121e565b809150509250929050565b6000602082840312156200129057600080fd5b81356200129d81620011fb565b9392505050565b7f4e487b7100000000000000000000000000000000000000000000000000000000600052604160045260246000fd5b604051601f82017fffffffffffffffffffffffffffffffffffffffffffffffffffffffffffffffe016810167ffffffffffffffff811182821017156200131d576200131d620012a4565b604052919050565b600080604083850312156200133957600080fd5b82356200134681620011fb565b915060208381013567ffffffffffffffff808211156200136557600080fd5b818601915086601f8301126200137a57600080fd5b8135818111156200138f576200138f620012a4565b620013c1847fffffffffffffffffffffffffffffffffffffffffffffffffffffffffffffffe0601f84011601620012d3565b91508082528784828501011115620013d857600080fd5b80848401858401376000848284010152508093505050509250929050565b600080604083850312156200140a57600080fd5b823567ffffffffffffffff808211156200142357600080fd5b818501915085601f8301126200143857600080fd5b81356020828211156200144f576200144f620012a4565b8160051b925062001462818401620012d3565b82815292840181019281810190898511156200147d57600080fd5b948201945b84861015620014ab57853593506200149a84620011fb565b838252948201949082019062001482565b9650620014bc90508782016200122d565b9450505050509250929050565b600060208284031215620014dc57600080fd5b81516200129d81620011fb565b600060208284031215620014fc57600080fd5b81516200129d816200121e565b60006101808201905073ffffffffffffffffffffffffffffffffffffffff8088168352808716602084015280861660408401526fffffffffffffffffffffffffffffffff851660608401528084511660808401528060208501511660a084015250604083015160c0830152606083015160e0830152608083015161010083015267ffffffffffffffff60a08401511661012083015260c0830151620015b961014084018265ffffffffffff169052565b5060e083015161ffff8116610160840152509695505050505050565b7f4e487b7100000000000000000000000000000000000000000000000000000000600052603260045260246000fd5b7f4e487b7100000000000000000000000000000000000000000000000000000000600052601160045260246000fd5b60007fffffffffffffffffffffffffffffffffffffffffffffffffffffffffffffffff820362001667576200166762001604565b5060010190565b6000602082840312156200168157600080fd5b5051919050565b805169ffffffffffffffffffff811681146200123a57600080fd5b600080600080600060a08688031215620016bc57600080fd5b620016c78662001688565b9450602086015193506040860151925060608601519150620016ec6080870162001688565b90509295509295909350565b6000828210156200170d576200170d62001604565b500390565b600181815b808511156200177157817fffffffffffffffffffffffffffffffffffffffffffffffffffffffffffffffff0482111562001755576200175562001604565b808516156200176357918102915b93841c939080029062001717565b509250929050565b6000826200178a57506001620011bd565b816200179957506000620011bd565b8160018114620017b25760028114620017bd57620017dd565b6001915050620011bd565b60ff841115620017d157620017d162001604565b50506001821b620011bd565b5060208310610133831016604e8410600b841016171562001802575081810a620011bd565b6200180e838362001712565b807fffffffffffffffffffffffffffffffffffffffffffffffffffffffffffffffff0482111562001843576200184362001604565b029392505050565b6000620011ba83836200177956fe6101406040523480156200001257600080fd5b50604051620024a2380380620024a28339810160408190526200003591620005f1565b82338686876001600160a01b03166338d52e0f6040518163ffffffff1660e01b8152600401602060405180830381865afa15801562000078573d6000803e3d6000fd5b505050506040513d601f19601f820116820180604052508101906200009e91906200070b565b6001600160a01b03808416608090815283821660a081815284841660c09081526001600160801b038c1660e09081528b51600080549188166001600160a01b031992831617815560208e015160018054919099169216919091179096556040808d015160025560608d0151600355948c01516004908155928c015160058054938e0151928e015161ffff16600160701b0261ffff60701b1965ffffffffffff90941668010000000000000000026001600160701b03199095166001600160401b0390931692909217939093179190911617905582516306fdde0360e01b815292518b948b946306fdde039381810193918290030181865afa158015620001a8573d6000803e3d6000fd5b505050506040513d6000823e601f3d908101601f19168201604052620001d2919081019062000761565b604051602001620001e4919062000819565b60405160208183030381529060405260069081620002039190620008d6565b50836001600160a01b03166395d89b416040518163ffffffff1660e01b8152600401600060405180830381865afa15801562000243573d6000803e3d6000fd5b505050506040513d6000823e601f3d908101601f191682016040526200026d919081019062000761565b6040516020016200027f9190620009a2565b604051602081830303815290604052600790816200029e9190620008d6565b50620002c8608051600019866001600160a01b0316620004ba60201b620011e8179092919060201c565b620002f560805160001983602001516001600160a01b0316620004ba60201b620011e8179092919060201c565b505050506001600160a01b038216600081815260086020908152604091829020805460ff1916600190811790915591519182529192507fe95aec380cae16330d146d5499ef7db6f3657e477104a733e771bc09e500d986910160405180910390a25080600960006101000a8154816001600160a01b0302191690836001600160a01b031602179055505060a0516001600160a01b031663313ce5676040518163ffffffff1660e01b8152600401602060405180830381865afa158015620003c0573d6000803e3d6000fd5b505050506040513d601f19601f82011682018060405250810190620003e69190620009d0565b620003f390600a62000b0a565b610100818152505060c0516001600160a01b031663313ce5676040518163ffffffff1660e01b8152600401602060405180830381865afa1580156200043c573d6000803e3d6000fd5b505050506040513d601f19601f82011682018060405250810190620004629190620009d0565b6200046f90601262000b1b565b6200047c90600a62000b0a565b6101208181525050620004af60a05160001960c0516001600160a01b0316620004ba60201b620011e8179092919060201c565b505050505062000b41565b600060405163095ea7b360e01b6000528360045282602452602060006044600080895af13d15601f3d11600160005114161716915060006060528060405250806200053c5760405162461bcd60e51b815260206004820152600e60248201526d1054141493d59157d1905253115160921b604482015260640160405180910390fd5b50505050565b6001600160a01b03811681146200055857600080fd5b50565b8051620005688162000542565b919050565b634e487b7160e01b600052604160045260246000fd5b60405161010081016001600160401b0381118282101715620005a957620005a96200056d565b60405290565b80516001600160401b03811681146200056857600080fd5b805165ffffffffffff811681146200056857600080fd5b805161ffff811681146200056857600080fd5b60008060008060008587036101808112156200060c57600080fd5b8651620006198162000542565b60208801519096506200062c8162000542565b60408801519095506200063f8162000542565b60608801519094506001600160801b03811681146200065d57600080fd5b9250610100607f1982018113156200067457600080fd5b6200067e62000583565b91506080880151620006908162000542565b8252620006a060a089016200055b565b602083015260c0880151604083015260e088015160608301528701516080820152620006d06101208801620005af565b60a0820152620006e46101408801620005c7565b60c0820152620006f86101608801620005de565b60e0820152809150509295509295909350565b6000602082840312156200071e57600080fd5b81516200072b8162000542565b9392505050565b60005b838110156200074f57818101518382015260200162000735565b838111156200053c5750506000910152565b6000602082840312156200077457600080fd5b81516001600160401b03808211156200078c57600080fd5b818401915084601f830112620007a157600080fd5b815181811115620007b657620007b66200056d565b604051601f8201601f19908116603f01168101908382118183101715620007e157620007e16200056d565b81604052828152876020848701011115620007fb57600080fd5b6200080e83602083016020880162000732565b979650505050505050565b600082516200082d81846020870162000732565b671020b230b83a32b960c11b920191825250600801919050565b600181811c908216806200085c57607f821691505b6020821081036200087d57634e487b7160e01b600052602260045260246000fd5b50919050565b601f821115620008d157600081815260208120601f850160051c81016020861015620008ac5750805b601f850160051c820191505b81811015620008cd57828155600101620008b8565b5050505b505050565b81516001600160401b03811115620008f257620008f26200056d565b6200090a8162000903845462000847565b8462000883565b602080601f831160018114620009425760008415620009295750858301515b600019600386901b1c1916600185901b178555620008cd565b600085815260208120601f198616915b82811015620009735788860151825594840194600190910190840162000952565b5085821015620009925787850151600019600388901b60f8161c191681555b5050505050600190811b01905550565b60008251620009b681846020870162000732565b6716b0b230b83a32b960c11b920191825250600801919050565b600060208284031215620009e357600080fd5b815160ff811681146200072b57600080fd5b634e487b7160e01b600052601160045260246000fd5b600181815b8085111562000a4c57816000190482111562000a305762000a30620009f5565b8085161562000a3e57918102915b93841c939080029062000a10565b509250929050565b60008262000a655750600162000b04565b8162000a745750600062000b04565b816001811462000a8d576002811462000a985762000ab8565b600191505062000b04565b60ff84111562000aac5762000aac620009f5565b50506001821b62000b04565b5060208310610133831016604e8410600b841016171562000add575081810a62000b04565b62000ae9838362000a0b565b806000190482111562000b005762000b00620009f5565b0290505b92915050565b60006200072b60ff84168362000a54565b600060ff821660ff84168082101562000b385762000b38620009f5565b90039392505050565b60805160a05160c05160e05161010051610120516118af62000bf3600039600081816105b2015261093701526000818161058b015261090e0152600061053101526000818161048901528181610a290152610af7015260008181610352015281816105d90152818161096e01528181610b5401528181610c1c01528181610d6f01528181610de501528181610ecd0152818161115c01526114340152600081816103ab0152610c7b01526118af6000f3fe608060405234801561001057600080fd5b50600436106101e55760003560e01c806364c56e3c1161010f578063c39a3b29116100a2578063d9d98ce411610071578063d9d98ce4146105fb578063f51e181a1461031b578063f60c05ce1461060e578063ff2a7d301461062957600080fd5b8063c39a3b2914610574578063cce5938614610586578063ce4b5bbe146105ad578063d4b83992146105d457600080fd5b806395d89b41116100de57806395d89b41146104ee57806396d64879146104f6578063b484972a14610519578063b8c15a9f1461052c57600080fd5b806364c56e3c146104695780636f307dc3146104845780636fd5ae15146104ab5780638237e538146104c757600080fd5b8063295a52121161018757806351c39ea11161015657806351c39ea11461040d5780635cffe9de14610420578063608c44d614610443578063613255ab1461045657600080fd5b8063295a521214610388578063378efa37146103a6578063468f02d2146103f25780634aae9fed146103fa57600080fd5b806314282f58116101c357806314282f58146102f45780631a54259c14610308578063226778491461031b57806327b327d01461033157600080fd5b806306fdde03146101ea578063083118d5146102085780631393916a146102df575b600080fd5b6101f2610649565b6040516101ff91906114ac565b60405180910390f35b6000546001546002546003546004546005546102769573ffffffffffffffffffffffffffffffffffffffff90811695169392919067ffffffffffffffff81169068010000000000000000810465ffffffffffff16906e010000000000000000000000000000900461ffff1688565b6040805173ffffffffffffffffffffffffffffffffffffffff998a168152989097166020890152958701949094526060860192909252608085015267ffffffffffffffff1660a084015265ffffffffffff1660c083015261ffff1660e0820152610100016101ff565b6102f26102ed366004611559565b6106d7565b005b6102f261030236600461158e565b50505050565b6102f26103163660046115c0565b6107df565b6103236108e6565b6040519081526020016101ff565b6001546002546040805173ffffffffffffffffffffffffffffffffffffffff7f00000000000000000000000000000000000000000000000000000000000000008116825290931660208401528201526060016101ff565b6005546e010000000000000000000000000000900461ffff16610323565b6103cd7f000000000000000000000000000000000000000000000000000000000000000081565b60405173ffffffffffffffffffffffffffffffffffffffff90911681526020016101ff565b6103236109e8565b6103236104083660046115e4565b610adb565b61032361041b3660046115e4565b610bdd565b61043361042e3660046115fd565b610c60565b60405190151581526020016101ff565b6102f26104513660046115c0565b610f02565b6103236104643660046115c0565b6110de565b600354600454604080519283526020830191909152016101ff565b6103cd7f000000000000000000000000000000000000000000000000000000000000000081565b60055468010000000000000000900465ffffffffffff16610323565b6103237f439148f0bbc682ca079e46d6e2c2f0c1e3b820f1a291b069d8882abf8cf18dd981565b6101f261114b565b6104336105043660046115c0565b60086020526000908152604090205460ff1681565b6102f261052736600461169c565b505050565b6105537f000000000000000000000000000000000000000000000000000000000000000081565b6040516fffffffffffffffffffffffffffffffff90911681526020016101ff565b60055467ffffffffffffffff16610323565b6103237f000000000000000000000000000000000000000000000000000000000000000081565b6103237f000000000000000000000000000000000000000000000000000000000000000081565b6103cd7f000000000000000000000000000000000000000000000000000000000000000081565b6103236106093660046116da565b611158565b6103cd731887118e49e0f4a78bd71b792a49de03504a764d81565b6009546103cd9073ffffffffffffffffffffffffffffffffffffffff1681565b6006805461065690611706565b80601f016020809104026020016040519081016040528092919081815260200182805461068290611706565b80156106cf5780601f106106a4576101008083540402835291602001916106cf565b820191906000526020600020905b8154815290600101906020018083116106b257829003601f168201915b505050505081565b3360009081526008602052604090205460ff16610755576040517f08c379a000000000000000000000000000000000000000000000000000000000815260206004820152600960248201527f554e54525553544544000000000000000000000000000000000000000000000060448201526064015b60405180910390fd5b73ffffffffffffffffffffffffffffffffffffffff821660008181526008602090815260409182902080547fffffffffffffffffffffffffffffffffffffffffffffffffffffffffffffff001685151590811790915591519182527fe95aec380cae16330d146d5499ef7db6f3657e477104a733e771bc09e500d986910160405180910390a25050565b3360009081526008602052604090205460ff16610858576040517f08c379a000000000000000000000000000000000000000000000000000000000815260206004820152600960248201527f554e545255535445440000000000000000000000000000000000000000000000604482015260640161074c565b60095460405173ffffffffffffffffffffffffffffffffffffffff8084169216907f952c654458751f95c1440bdb1537809137b3de28466b80ad096a711707ae987a90600090a3600980547fffffffffffffffffffffffff00000000000000000000000000000000000000001673ffffffffffffffffffffffffffffffffffffffff92909216919091179055565b6040517f07a2d13a0000000000000000000000000000000000000000000000000000000081527f000000000000000000000000000000000000000000000000000000000000000060048201526000907f00000000000000000000000000000000000000000000000000000000000000009073ffffffffffffffffffffffffffffffffffffffff7f000000000000000000000000000000000000000000000000000000000000000016906307a2d13a90602401602060405180830381865afa1580156109b5573d6000803e3d6000fd5b505050506040513d601f19601f820116820180604052508101906109d99190611759565b6109e39190611772565b905090565b600080546040517faea9107800000000000000000000000000000000000000000000000000000000815273ffffffffffffffffffffffffffffffffffffffff7f0000000000000000000000000000000000000000000000000000000000000000811660048301529091169063aea9107890602401602060405180830381865afa158015610a79573d6000803e3d6000fd5b505050506040513d601f19601f82011682018060405250810190610a9d9190611759565b905080600003610ad8576040517ebfc92100000000000000000000000000000000000000000000000000000000815260040160405180910390fd5b90565b6000610b1f73ffffffffffffffffffffffffffffffffffffffff7f0000000000000000000000000000000000000000000000000000000000000000163330856112a7565b6040517f6e553f65000000000000000000000000000000000000000000000000000000008152600481018390523360248201527f000000000000000000000000000000000000000000000000000000000000000073ffffffffffffffffffffffffffffffffffffffff1690636e553f65906044015b6020604051808303816000875af1158015610bb3573d6000803e3d6000fd5b505050506040513d601f19601f82011682018060405250810190610bd79190611759565b92915050565b6040517fba08765200000000000000000000000000000000000000000000000000000000815260048101829052336024820181905260448201526000907f000000000000000000000000000000000000000000000000000000000000000073ffffffffffffffffffffffffffffffffffffffff169063ba08765290606401610b94565b60003373ffffffffffffffffffffffffffffffffffffffff167f000000000000000000000000000000000000000000000000000000000000000073ffffffffffffffffffffffffffffffffffffffff166377aace1a6040518163ffffffff1660e01b8152600401602060405180830381865afa158015610ce4573d6000803e3d6000fd5b505050506040513d601f19601f82011682018060405250810190610d0891906117d6565b73ffffffffffffffffffffffffffffffffffffffff1614610d55576040517ffb02114900000000000000000000000000000000000000000000000000000000815260040160405180910390fd5b610d9673ffffffffffffffffffffffffffffffffffffffff7f0000000000000000000000000000000000000000000000000000000000000000168786611371565b6040517f23e30c8b00000000000000000000000000000000000000000000000000000000815260009073ffffffffffffffffffffffffffffffffffffffff8816906323e30c8b90610e159033907f0000000000000000000000000000000000000000000000000000000000000000908a9087908b908b906004016117f3565b6020604051808303816000875af1158015610e34573d6000803e3d6000fd5b505050506040513d601f19601f82011682018060405250810190610e589190611759565b90507f439148f0bbc682ca079e46d6e2c2f0c1e3b820f1a291b069d8882abf8cf18dd98114610eb3576040517f207df21c00000000000000000000000000000000000000000000000000000000815260040160405180910390fd5b610ef573ffffffffffffffffffffffffffffffffffffffff7f0000000000000000000000000000000000000000000000000000000000000000168830886112a7565b5060019695505050505050565b610f0b81611430565b610f41576040517f3dd1b30500000000000000000000000000000000000000000000000000000000815260040160405180910390fd5b6040517f70a08231000000000000000000000000000000000000000000000000000000008152306004820152819060009073ffffffffffffffffffffffffffffffffffffffff8316906370a0823190602401602060405180830381865afa158015610fb0573d6000803e3d6000fd5b505050506040513d601f19601f82011682018060405250810190610fd49190611759565b6009546040517f70a0823100000000000000000000000000000000000000000000000000000000815230600482015291925061108e9173ffffffffffffffffffffffffffffffffffffffff918216918516906370a0823190602401602060405180830381865afa15801561104c573d6000803e3d6000fd5b505050506040513d601f19601f820116820180604052508101906110709190611759565b73ffffffffffffffffffffffffffffffffffffffff85169190611371565b600954604051829173ffffffffffffffffffffffffffffffffffffffff90811691908616907f9310ccfcb8de723f578a9e4282ea9f521f05ae40dc08f3068dfad528a65ee3c790600090a4505050565b6040517f70a0823100000000000000000000000000000000000000000000000000000000815230600482015260009073ffffffffffffffffffffffffffffffffffffffff8316906370a0823190602401602060405180830381865afa158015610bb3573d6000803e3d6000fd5b6007805461065690611706565b60007f000000000000000000000000000000000000000000000000000000000000000073ffffffffffffffffffffffffffffffffffffffff168373ffffffffffffffffffffffffffffffffffffffff16146111df576040517f3dd1b30500000000000000000000000000000000000000000000000000000000815260040160405180910390fd5b50600092915050565b60006040517f095ea7b3000000000000000000000000000000000000000000000000000000006000528360045282602452602060006044600080895af13d15601f3d1160016000511416171691506000606052806040525080610302576040517f08c379a000000000000000000000000000000000000000000000000000000000815260206004820152600e60248201527f415050524f56455f4641494c4544000000000000000000000000000000000000604482015260640161074c565b60006040517f23b872dd000000000000000000000000000000000000000000000000000000006000528460045283602452826044526020600060646000808a5af13d15601f3d116001600051141617169150600060605280604052508061136a576040517f08c379a000000000000000000000000000000000000000000000000000000000815260206004820152601460248201527f5452414e534645525f46524f4d5f4641494c4544000000000000000000000000604482015260640161074c565b5050505050565b60006040517fa9059cbb000000000000000000000000000000000000000000000000000000006000528360045282602452602060006044600080895af13d15601f3d1160016000511416171691506000606052806040525080610302576040517f08c379a000000000000000000000000000000000000000000000000000000000815260206004820152600f60248201527f5452414e534645525f4641494c45440000000000000000000000000000000000604482015260640161074c565b60007f000000000000000000000000000000000000000000000000000000000000000073ffffffffffffffffffffffffffffffffffffffff168273ffffffffffffffffffffffffffffffffffffffff1614158015610bd757505060015473ffffffffffffffffffffffffffffffffffffffff9081169116141590565b600060208083528351808285015260005b818110156114d9578581018301518582016040015282016114bd565b818111156114eb576000604083870101525b50601f017fffffffffffffffffffffffffffffffffffffffffffffffffffffffffffffffe016929092016040019392505050565b73ffffffffffffffffffffffffffffffffffffffff8116811461154157600080fd5b50565b8035801515811461155457600080fd5b919050565b6000806040838503121561156c57600080fd5b82356115778161151f565b915061158560208401611544565b90509250929050565b600080600080608085870312156115a457600080fd5b5050823594602084013594506040840135936060013592509050565b6000602082840312156115d257600080fd5b81356115dd8161151f565b9392505050565b6000602082840312156115f657600080fd5b5035919050565b60008060008060006080868803121561161557600080fd5b85356116208161151f565b945060208601356116308161151f565b935060408601359250606086013567ffffffffffffffff8082111561165457600080fd5b818801915088601f83011261166857600080fd5b81358181111561167757600080fd5b89602082850101111561168957600080fd5b9699959850939650602001949392505050565b6000806000606084860312156116b157600080fd5b83356116bc8161151f565b9250602084013591506116d160408501611544565b90509250925092565b600080604083850312156116ed57600080fd5b82356116f88161151f565b946020939093013593505050565b600181811c9082168061171a57607f821691505b602082108103611753577f4e487b7100000000000000000000000000000000000000000000000000000000600052602260045260246000fd5b50919050565b60006020828403121561176b57600080fd5b5051919050565b6000817fffffffffffffffffffffffffffffffffffffffffffffffffffffffffffffffff04831182151516156117d1577f4e487b7100000000000000000000000000000000000000000000000000000000600052601160045260246000fd5b500290565b6000602082840312156117e857600080fd5b81516115dd8161151f565b600073ffffffffffffffffffffffffffffffffffffffff808916835280881660208401525085604083015284606083015260a060808301528260a0830152828460c0840137600060c0848401015260c07fffffffffffffffffffffffffffffffffffffffffffffffffffffffffffffffe0601f850116830101905097965050505050505056fea2646970667358221220fde995634f2b2efee765ea97efd0097dd3e7ffe7c494cd66c766909dc374ed6e64736f6c634300080f0033a2646970667358221220eeb4738fb35190a003837c268a1287bd1dd0902a797f680cdf979906538a473f64736f6c634300080f0033",
  "devdoc": {
    "kind": "dev",
    "methods": {
      "deployAdapter(address,bytes)": {
        "params": {
          "_target": "The target address",
          "data": "ABI encoded reward tokens address array"
        }
      },
      "setRewardsRecipient(address)": {
        "details": "existing adapters rewards recipients will not be changed and can be done through `setRewardsRecipient` on each adapter contract"
      },
      "supportTarget(address,bool)": {
        "params": {
          "_target": "The target address",
          "supported": "Whether the target should be supported or not"
        }
      },
      "supportTargets(address[],bool)": {
        "params": {
          "_targets": "Array of target addresses",
          "supported": "Whether the targets should be supported or not"
        }
      }
    },
    "version": 1
  },
  "userdoc": {
    "kind": "user",
    "methods": {
      "DEFAULT_LEVEL()": {
        "notice": "Sets level to `31` by default, which keeps all Divider lifecycle methods public (`issue`, `combine`, `collect`, etc), but not the `onRedeem` hook."
      },
      "deployAdapter(address,bytes)": {
        "notice": "Deploys an ERC4626Adapter contract"
      },
      "divider()": {
        "notice": "Sense core Divider address"
      },
      "factoryParams()": {
        "notice": "params for adapters deployed with this factory"
      },
      "restrictedAdmin()": {
        "notice": "Adapter admin address"
      },
      "rewardsRecipient()": {
        "notice": "Rewards recipient"
      },
      "setRewardsRecipient(address)": {
        "notice": "Set factory rewards recipientall future deployed adapters will have the new rewards recipient"
      },
      "supportTarget(address,bool)": {
        "notice": "(Un)support target"
      },
      "supportTargets(address[],bool)": {
        "notice": "(Un)support multiple target at once"
      }
    },
    "version": 1
  },
  "storageLayout": {
    "storage": [
      {
        "astId": 20319,
        "contract": "@sense-finance/v1-core/src/adapters/abstract/factories/ERC4626Factory.sol:ERC4626Factory",
        "label": "isTrusted",
        "offset": 0,
        "slot": "0",
        "type": "t_mapping(t_address,t_bool)"
      },
      {
        "astId": 10001,
        "contract": "@sense-finance/v1-core/src/adapters/abstract/factories/ERC4626Factory.sol:ERC4626Factory",
        "label": "restrictedAdmin",
        "offset": 0,
        "slot": "1",
        "type": "t_address"
      },
      {
        "astId": 10004,
        "contract": "@sense-finance/v1-core/src/adapters/abstract/factories/ERC4626Factory.sol:ERC4626Factory",
        "label": "rewardsRecipient",
        "offset": 0,
        "slot": "2",
        "type": "t_address"
      },
      {
        "astId": 10008,
        "contract": "@sense-finance/v1-core/src/adapters/abstract/factories/ERC4626Factory.sol:ERC4626Factory",
        "label": "factoryParams",
        "offset": 0,
        "slot": "3",
        "type": "t_struct(FactoryParams)10027_storage"
      },
      {
        "astId": 10731,
        "contract": "@sense-finance/v1-core/src/adapters/abstract/factories/ERC4626Factory.sol:ERC4626Factory",
        "label": "supportedTargets",
        "offset": 0,
        "slot": "10",
        "type": "t_mapping(t_address,t_bool)"
      }
    ],
    "types": {
      "t_address": {
        "encoding": "inplace",
        "label": "address",
        "numberOfBytes": "20"
      },
      "t_bool": {
        "encoding": "inplace",
        "label": "bool",
        "numberOfBytes": "1"
      },
      "t_mapping(t_address,t_bool)": {
        "encoding": "mapping",
        "key": "t_address",
        "label": "mapping(address => bool)",
        "numberOfBytes": "32",
        "value": "t_bool"
      },
      "t_struct(FactoryParams)10027_storage": {
        "encoding": "inplace",
        "label": "struct BaseFactory.FactoryParams",
        "members": [
          {
            "astId": 10010,
            "contract": "@sense-finance/v1-core/src/adapters/abstract/factories/ERC4626Factory.sol:ERC4626Factory",
            "label": "oracle",
            "offset": 0,
            "slot": "0",
            "type": "t_address"
          },
          {
            "astId": 10012,
            "contract": "@sense-finance/v1-core/src/adapters/abstract/factories/ERC4626Factory.sol:ERC4626Factory",
            "label": "stake",
            "offset": 0,
            "slot": "1",
            "type": "t_address"
          },
          {
            "astId": 10014,
            "contract": "@sense-finance/v1-core/src/adapters/abstract/factories/ERC4626Factory.sol:ERC4626Factory",
            "label": "stakeSize",
            "offset": 0,
            "slot": "2",
            "type": "t_uint256"
          },
          {
            "astId": 10016,
            "contract": "@sense-finance/v1-core/src/adapters/abstract/factories/ERC4626Factory.sol:ERC4626Factory",
            "label": "minm",
            "offset": 0,
            "slot": "3",
            "type": "t_uint256"
          },
          {
            "astId": 10018,
            "contract": "@sense-finance/v1-core/src/adapters/abstract/factories/ERC4626Factory.sol:ERC4626Factory",
            "label": "maxm",
            "offset": 0,
            "slot": "4",
            "type": "t_uint256"
          },
          {
            "astId": 10020,
            "contract": "@sense-finance/v1-core/src/adapters/abstract/factories/ERC4626Factory.sol:ERC4626Factory",
            "label": "ifee",
            "offset": 0,
            "slot": "5",
            "type": "t_uint128"
          },
          {
            "astId": 10022,
            "contract": "@sense-finance/v1-core/src/adapters/abstract/factories/ERC4626Factory.sol:ERC4626Factory",
            "label": "mode",
            "offset": 16,
            "slot": "5",
            "type": "t_uint16"
          },
          {
            "astId": 10024,
            "contract": "@sense-finance/v1-core/src/adapters/abstract/factories/ERC4626Factory.sol:ERC4626Factory",
            "label": "tilt",
            "offset": 18,
            "slot": "5",
            "type": "t_uint64"
          },
          {
            "astId": 10026,
            "contract": "@sense-finance/v1-core/src/adapters/abstract/factories/ERC4626Factory.sol:ERC4626Factory",
            "label": "guard",
            "offset": 0,
            "slot": "6",
            "type": "t_uint256"
          }
        ],
        "numberOfBytes": "224"
      },
      "t_uint128": {
        "encoding": "inplace",
        "label": "uint128",
        "numberOfBytes": "16"
      },
      "t_uint16": {
        "encoding": "inplace",
        "label": "uint16",
        "numberOfBytes": "2"
      },
      "t_uint256": {
        "encoding": "inplace",
        "label": "uint256",
        "numberOfBytes": "32"
      },
      "t_uint64": {
        "encoding": "inplace",
        "label": "uint64",
        "numberOfBytes": "8"
      }
    }
  }
}