{
  "address": "0x545daBe6afcC775A55A1c5895E14cf154B6610B2",
  "abi": [
    {
      "inputs": [
        {
          "internalType": "address",
          "name": "_divider",
          "type": "address"
        },
        {
          "internalType": "address",
          "name": "_restrictedAdmin",
          "type": "address"
        },
        {
          "internalType": "address",
          "name": "_rewardsRecipient",
          "type": "address"
        },
        {
          "components": [
            {
              "internalType": "address",
              "name": "oracle",
              "type": "address"
            },
            {
              "internalType": "address",
              "name": "stake",
              "type": "address"
            },
            {
              "internalType": "uint256",
              "name": "stakeSize",
              "type": "uint256"
            },
            {
              "internalType": "uint256",
              "name": "minm",
              "type": "uint256"
            },
            {
              "internalType": "uint256",
              "name": "maxm",
              "type": "uint256"
            },
            {
              "internalType": "uint128",
              "name": "ifee",
              "type": "uint128"
            },
            {
              "internalType": "uint16",
              "name": "mode",
              "type": "uint16"
            },
            {
              "internalType": "uint64",
              "name": "tilt",
              "type": "uint64"
            },
            {
              "internalType": "uint256",
              "name": "guard",
              "type": "uint256"
            }
          ],
          "internalType": "struct BaseFactory.FactoryParams",
          "name": "_factoryParams",
          "type": "tuple"
        }
      ],
      "stateMutability": "nonpayable",
      "type": "constructor"
    },
    {
      "inputs": [],
      "name": "OnlyPeriphery",
      "type": "error"
    },
    {
      "inputs": [],
      "name": "TargetNotSupported",
      "type": "error"
    },
    {
      "anonymous": false,
      "inputs": [
        {
          "indexed": true,
          "internalType": "address",
          "name": "oldAdmin",
          "type": "address"
        },
        {
          "indexed": true,
          "internalType": "address",
          "name": "newAdmin",
          "type": "address"
        }
      ],
      "name": "RestrictedAdminChanged",
      "type": "event"
    },
    {
      "anonymous": false,
      "inputs": [
        {
          "indexed": true,
          "internalType": "address",
          "name": "oldRecipient",
          "type": "address"
        },
        {
          "indexed": true,
          "internalType": "address",
          "name": "newRecipient",
          "type": "address"
        }
      ],
      "name": "RewardsRecipientChanged",
      "type": "event"
    },
    {
      "anonymous": false,
      "inputs": [
        {
          "indexed": true,
          "internalType": "address",
          "name": "user",
          "type": "address"
        },
        {
          "indexed": false,
          "internalType": "bool",
          "name": "trusted",
          "type": "bool"
        }
      ],
      "name": "UserTrustUpdated",
      "type": "event"
    },
    {
      "inputs": [],
      "name": "DEFAULT_LEVEL",
      "outputs": [
        {
          "internalType": "uint48",
          "name": "",
          "type": "uint48"
        }
      ],
      "stateMutability": "view",
      "type": "function"
    },
    {
      "inputs": [],
      "name": "ETH_USD_PRICEFEED",
      "outputs": [
        {
          "internalType": "address",
          "name": "",
          "type": "address"
        }
      ],
      "stateMutability": "view",
      "type": "function"
    },
    {
      "inputs": [
        {
          "internalType": "address",
          "name": "_target",
          "type": "address"
        },
        {
          "internalType": "bytes",
          "name": "data",
          "type": "bytes"
        }
      ],
      "name": "deployAdapter",
      "outputs": [
        {
          "internalType": "address",
          "name": "adapter",
          "type": "address"
        }
      ],
      "stateMutability": "nonpayable",
      "type": "function"
    },
    {
      "inputs": [],
      "name": "divider",
      "outputs": [
        {
          "internalType": "address",
          "name": "",
          "type": "address"
        }
      ],
      "stateMutability": "view",
      "type": "function"
    },
    {
      "inputs": [],
      "name": "factoryParams",
      "outputs": [
        {
          "internalType": "address",
          "name": "oracle",
          "type": "address"
        },
        {
          "internalType": "address",
          "name": "stake",
          "type": "address"
        },
        {
          "internalType": "uint256",
          "name": "stakeSize",
          "type": "uint256"
        },
        {
          "internalType": "uint256",
          "name": "minm",
          "type": "uint256"
        },
        {
          "internalType": "uint256",
          "name": "maxm",
          "type": "uint256"
        },
        {
          "internalType": "uint128",
          "name": "ifee",
          "type": "uint128"
        },
        {
          "internalType": "uint16",
          "name": "mode",
          "type": "uint16"
        },
        {
          "internalType": "uint64",
          "name": "tilt",
          "type": "uint64"
        },
        {
          "internalType": "uint256",
          "name": "guard",
          "type": "uint256"
        }
      ],
      "stateMutability": "view",
      "type": "function"
    },
    {
      "inputs": [
        {
          "internalType": "address",
          "name": "",
          "type": "address"
        }
      ],
      "name": "isTrusted",
      "outputs": [
        {
          "internalType": "bool",
          "name": "",
          "type": "bool"
        }
      ],
      "stateMutability": "view",
      "type": "function"
    },
    {
      "inputs": [],
      "name": "restrictedAdmin",
      "outputs": [
        {
          "internalType": "address",
          "name": "",
          "type": "address"
        }
      ],
      "stateMutability": "view",
      "type": "function"
    },
    {
      "inputs": [],
      "name": "rewardsRecipient",
      "outputs": [
        {
          "internalType": "address",
          "name": "",
          "type": "address"
        }
      ],
      "stateMutability": "view",
      "type": "function"
    },
    {
      "inputs": [
        {
          "internalType": "address",
          "name": "user",
          "type": "address"
        },
        {
          "internalType": "bool",
          "name": "trusted",
          "type": "bool"
        }
      ],
      "name": "setIsTrusted",
      "outputs": [],
      "stateMutability": "nonpayable",
      "type": "function"
    },
    {
      "inputs": [
        {
          "internalType": "address",
          "name": "_restrictedAdmin",
          "type": "address"
        }
      ],
      "name": "setRestrictedAdmin",
      "outputs": [],
      "stateMutability": "nonpayable",
      "type": "function"
    },
    {
      "inputs": [
        {
          "internalType": "address",
          "name": "_recipient",
          "type": "address"
        }
      ],
      "name": "setRewardsRecipient",
      "outputs": [],
      "stateMutability": "nonpayable",
      "type": "function"
    },
    {
      "inputs": [
        {
          "internalType": "address",
          "name": "_target",
          "type": "address"
        },
        {
          "internalType": "bool",
          "name": "status",
          "type": "bool"
        }
      ],
      "name": "supportTarget",
      "outputs": [],
      "stateMutability": "nonpayable",
      "type": "function"
    },
    {
      "inputs": [
        {
          "internalType": "address",
          "name": "",
          "type": "address"
        }
      ],
      "name": "targets",
      "outputs": [
        {
          "internalType": "bool",
          "name": "",
          "type": "bool"
        }
      ],
      "stateMutability": "view",
      "type": "function"
    }
  ],
  "transactionHash": "0x1fe9531774ab8bf894c5af86a9218f0ca144b48a713536e25f01ed584b9145cc",
  "args": [
    "0x09B10E45A912BcD4E80a8A3119f0cfCcad1e1f12",
    "0xf13519734649f7464e5be4aa91987a35594b2b16",
    "0xf13519734649f7464e5be4aa91987a35594b2b16",
    [
      "0xB3e70779c1d1f2637483A02f1446b211fe4183Fa",
      "0xC027849ac78202A17A872021Bd0271DA5df04168",
      "50000000000000000",
      0,
      "315576000",
      "1000000000000000",
      1,
      0,
      "100000000000000000000000"
    ]
  ],
  "numDeployments": 4,
  "solcInputHash": "760921f9722f116fe51f943ec85e3cb7",
  "bytecode": "0x60a06040523480156200001157600080fd5b5060405162003b1a38038062003b1a833981016040819052620000349162000210565b3360008181526020818152604091829020805460ff19166001908117909155915191825286928692869286929182917fe95aec380cae16330d146d5499ef7db6f3657e477104a733e771bc09e500d986910160405180910390a2506001600160a01b039384166080908152600180549486166001600160a01b0319958616179055600280549386169385169390931790925580516003805491861691851691909117905560208101516004805491909516931692909217909255604081015160055560608101516006559081015160075560a08101516008805460c084015160e08501516001600160401b0316600160901b02600160901b600160d01b031961ffff909216600160801b026001600160901b03199093166001600160801b039095169490941791909117169190911790556101000151600955506200030c92505050565b80516001600160a01b03811681146200019057600080fd5b919050565b60405161012081016001600160401b0381118282101715620001c757634e487b7160e01b600052604160045260246000fd5b60405290565b80516001600160801b03811681146200019057600080fd5b805161ffff811681146200019057600080fd5b80516001600160401b03811681146200019057600080fd5b6000806000808486036101808112156200022957600080fd5b620002348662000178565b9450620002446020870162000178565b9350620002546040870162000178565b925061012080605f19830112156200026b57600080fd5b6200027562000195565b9150620002856060880162000178565b8252620002956080880162000178565b602083015260a0870151604083015260c0870151606083015260e08701516080830152610100620002c8818901620001cd565b60a0840152620002da828901620001e5565b60c0840152620002ee6101408901620001f8565b60e08401526101608801518184015250508091505092959194509250565b6080516137d662000344600039600081816101770152818161067801528181610818015281816109250152610a2601526137d66000f3fe60806040523480156200001157600080fd5b5060043610620000f15760003560e01c8063562c47841162000097578063bbe451d5116200006e578063bbe451d5146200024a578063cac0e3c21462000350578063f67359ea14620003b7578063ff2a7d3014620003ce57600080fd5b8063562c478414620001cc57806393d4750c146200020357806396d64879146200022457600080fd5b8063378efa3711620000cc578063378efa3714620001715780633cad2dcd146200019957806340cc63e114620001b057600080fd5b80630c1b797914620000f65780631393916a14620001415780631a54259c146200015a575b600080fd5b600154620001179073ffffffffffffffffffffffffffffffffffffffff1681565b60405173ffffffffffffffffffffffffffffffffffffffff90911681526020015b60405180910390f35b620001586200015236600462000c67565b620003ef565b005b620001586200016b36600462000ca5565b620004f6565b620001177f000000000000000000000000000000000000000000000000000000000000000081565b62000117620001aa36600462000cfb565b620005ff565b62000117735f4ec3df9cbd43714fe2740f5e3616155c5b841981565b620001f2620001dd36600462000ca5565b600a6020526000908152604090205460ff1681565b604051901515815260200162000138565b6200020c601f81565b60405165ffffffffffff909116815260200162000138565b620001f26200023536600462000ca5565b60006020819052908152604090205460ff1681565b600354600454600554600654600754600854600954620002d39673ffffffffffffffffffffffffffffffffffffffff9081169616949392916fffffffffffffffffffffffffffffffff811691700100000000000000000000000000000000820461ffff16917201000000000000000000000000000000000000900467ffffffffffffffff169089565b6040805173ffffffffffffffffffffffffffffffffffffffff9a8b1681529990981660208a015296880195909552606087019390935260808601919091526fffffffffffffffffffffffffffffffff1660a085015261ffff1660c084015267ffffffffffffffff1660e08301526101008201526101200162000138565b620001586200036136600462000c67565b73ffffffffffffffffffffffffffffffffffffffff919091166000908152600a6020526040902080547fffffffffffffffffffffffffffffffffffffffffffffffffffffffffffffff0016911515919091179055565b62000158620003c836600462000ca5565b62000b1b565b600254620001179073ffffffffffffffffffffffffffffffffffffffff1681565b3360009081526020819052604090205460ff166200046e576040517f08c379a000000000000000000000000000000000000000000000000000000000815260206004820152600960248201527f554e54525553544544000000000000000000000000000000000000000000000060448201526064015b60405180910390fd5b73ffffffffffffffffffffffffffffffffffffffff82166000818152602081815260409182902080547fffffffffffffffffffffffffffffffffffffffffffffffffffffffffffffff001685151590811790915591519182527fe95aec380cae16330d146d5499ef7db6f3657e477104a733e771bc09e500d986910160405180910390a25050565b3360009081526020819052604090205460ff1662000571576040517f08c379a000000000000000000000000000000000000000000000000000000000815260206004820152600960248201527f554e545255535445440000000000000000000000000000000000000000000000604482015260640162000465565b60025460405173ffffffffffffffffffffffffffffffffffffffff8084169216907f952c654458751f95c1440bdb1537809137b3de28466b80ad096a711707ae987a90600090a3600280547fffffffffffffffffffffffff00000000000000000000000000000000000000001673ffffffffffffffffffffffffffffffffffffffff92909216919091179055565b73ffffffffffffffffffffffffffffffffffffffff82166000908152600a602052604081205460ff166200065f576040517fa2a94ace00000000000000000000000000000000000000000000000000000000815260040160405180910390fd5b3373ffffffffffffffffffffffffffffffffffffffff167f000000000000000000000000000000000000000000000000000000000000000073ffffffffffffffffffffffffffffffffffffffff166377aace1a6040518163ffffffff1660e01b8152600401602060405180830381865afa158015620006e2573d6000803e3d6000fd5b505050506040513d601f19601f8201168201806040525081019062000708919062000de9565b73ffffffffffffffffffffffffffffffffffffffff161462000756576040517ffb02114900000000000000000000000000000000000000000000000000000000815260040160405180910390fd5b604080516101008101825260035473ffffffffffffffffffffffffffffffffffffffff90811682526004541660208201526005549181019190915260065460608083019190915260075460808301526008547201000000000000000000000000000000000000810467ffffffffffffffff1660a0840152601f60c0840152700100000000000000000000000000000000900461ffff1660e083015284901b7fffffffffffffffffffffffffffffffffffffffff000000000000000000000000167f0000000000000000000000000000000000000000000000000000000000000000858673ffffffffffffffffffffffffffffffffffffffff16636f307dc36040518163ffffffff1660e01b8152600401602060405180830381865afa15801562000884573d6000803e3d6000fd5b505050506040513d601f19601f82011682018060405250810190620008aa919062000de9565b60025460085460405173ffffffffffffffffffffffffffffffffffffffff909216916fffffffffffffffffffffffffffffffff909116908790620008ee9062000c24565b620008ff9695949392919062000e09565b8190604051809103906000f590508015801562000920573d6000803e3d6000fd5b5091507f000000000000000000000000000000000000000000000000000000000000000073ffffffffffffffffffffffffffffffffffffffff166372f7a0306040518163ffffffff1660e01b8152600401602060405180830381865afa1580156200098f573d6000803e3d6000fd5b505050506040513d601f19601f82011682018060405250810190620009b5919062000edf565b1562000a85576040517f5fa0cc0a00000000000000000000000000000000000000000000000000000000815273ffffffffffffffffffffffffffffffffffffffff83811660048301527fffffffffffffffffffffffffffffffffffffffffffffffffffffffffffffffff60248301527f00000000000000000000000000000000000000000000000000000000000000001690635fa0cc0a90604401600060405180830381600087803b15801562000a6b57600080fd5b505af115801562000a80573d6000803e3d6000fd5b505050505b600180546040517f1393916a00000000000000000000000000000000000000000000000000000000815273ffffffffffffffffffffffffffffffffffffffff91821660048201526024810192909252831690631393916a90604401600060405180830381600087803b15801562000afb57600080fd5b505af115801562000b10573d6000803e3d6000fd5b505050505092915050565b3360009081526020819052604090205460ff1662000b96576040517f08c379a000000000000000000000000000000000000000000000000000000000815260206004820152600960248201527f554e545255535445440000000000000000000000000000000000000000000000604482015260640162000465565b60015460405173ffffffffffffffffffffffffffffffffffffffff8084169216907fb656925e78f8f28c65d9357077dfd5d3d0056d5eac98c8c1a1e0b426ffd43d4a90600090a3600180547fffffffffffffffffffffffff00000000000000000000000000000000000000001673ffffffffffffffffffffffffffffffffffffffff92909216919091179055565b6128a18062000f0083390190565b73ffffffffffffffffffffffffffffffffffffffff8116811462000c5557600080fd5b50565b801515811462000c5557600080fd5b6000806040838503121562000c7b57600080fd5b823562000c888162000c32565b9150602083013562000c9a8162000c58565b809150509250929050565b60006020828403121562000cb857600080fd5b813562000cc58162000c32565b9392505050565b7f4e487b7100000000000000000000000000000000000000000000000000000000600052604160045260246000fd5b6000806040838503121562000d0f57600080fd5b823562000d1c8162000c32565b9150602083013567ffffffffffffffff8082111562000d3a57600080fd5b818501915085601f83011262000d4f57600080fd5b81358181111562000d645762000d6462000ccc565b604051601f82017fffffffffffffffffffffffffffffffffffffffffffffffffffffffffffffffe0908116603f0116810190838211818310171562000dad5762000dad62000ccc565b8160405282815288602084870101111562000dc757600080fd5b8260208601602083013760006020848301015280955050505050509250929050565b60006020828403121562000dfc57600080fd5b815162000cc58162000c32565b60006101a08201905073ffffffffffffffffffffffffffffffffffffffff80891683528088166020840152808716604084015280861660608401526fffffffffffffffffffffffffffffffff851660808401528084511660a08401528060208501511660c084015250604083015160e08301526060830151610100830152608083015161012083015267ffffffffffffffff60a08401511661014083015260c083015162000ec261016084018265ffffffffffff169052565b5060e083015161ffff811661018084015250979650505050505050565b60006020828403121562000ef257600080fd5b815162000cc58162000c5856fe610100604052670de0b6b3a7640000600b5564b89345ad6a600c553480156200002757600080fd5b50604051620028a1380380620028a18339810160408190526200004a9162000557565b6001600160a01b03808716608090815281871660a081815283881660c09081526001600160801b03871660e09081528651600080549188166001600160a01b03199283161781556020890151600180549190991692169190911790965560408088015160025560608801516003559487015160049081559287015160058054938901519289015161ffff16600160701b0261ffff60701b1965ffffffffffff90941668010000000000000000026001600160701b03199095166001600160401b0390931692909217939093179190911617905582516306fdde0360e01b81529251879433948c948c948c948b948b946306fdde039381810193918290030181865afa1580156200015e573d6000803e3d6000fd5b505050506040513d6000823e601f3d908101601f19168201604052620001889190810190620006b5565b6040516020016200019a91906200076d565b60405160208183030381529060405260069081620001b991906200082a565b50836001600160a01b03166395d89b416040518163ffffffff1660e01b8152600401600060405180830381865afa158015620001f9573d6000803e3d6000fd5b505050506040513d6000823e601f3d908101601f19168201604052620002239190810190620006b5565b604051602001620002359190620008f6565b604051602081830303815290604052600790816200025491906200082a565b506200027e608051600019866001600160a01b03166200044660201b6200156c179092919060201c565b620002ab60805160001983602001516001600160a01b03166200044660201b6200156c179092919060201c565b505050506001600160a01b038216600081815260086020908152604091829020805460ff1916600190811790915591519182529192507fe95aec380cae16330d146d5499ef7db6f3657e477104a733e771bc09e500d986910160405180910390a250600980546001600160a01b0319166001600160a01b039283161790556040805163313ce56760e01b8152905160009288169163313ce5679160048083019260209291908290030181865afa1580156200036a573d6000803e3d6000fd5b505050506040513d601f19601f8201168201806040525081019062000390919062000924565b60ff1690506000856001600160a01b031663313ce5676040518163ffffffff1660e01b8152600401602060405180830381865afa158015620003d6573d6000803e3d6000fd5b505050506040513d601f19601f82011682018060405250810190620003fc919062000924565b60ff1690508082116200041b5762000415828262000966565b62000427565b62000427818362000966565b6200043490600a62000a7f565b600e555062000a8d9650505050505050565b600060405163095ea7b360e01b6000528360045282602452602060006044600080895af13d15601f3d1160016000511416171691506000606052806040525080620004c85760405162461bcd60e51b815260206004820152600e60248201526d1054141493d59157d1905253115160921b604482015260640160405180910390fd5b50505050565b80516001600160a01b0381168114620004e657600080fd5b919050565b634e487b7160e01b600052604160045260246000fd5b60405161010081016001600160401b0381118282101715620005275762000527620004eb565b60405290565b805165ffffffffffff81168114620004e657600080fd5b805161ffff81168114620004e657600080fd5b6000806000806000808688036101a08112156200057357600080fd5b6200057e88620004ce565b96506200058e60208901620004ce565b95506200059e60408901620004ce565b9450620005ae60608901620004ce565b60808901519094506001600160801b0381168114620005cc57600080fd5b9250610100609f198201811315620005e357600080fd5b620005ed62000501565b9150620005fd60a08a01620004ce565b82526200060d60c08a01620004ce565b602083015260e08901516040830152880151606082015261012088015160808201526101408801516001600160401b03811681146200064b57600080fd5b60a08201526200065f61016089016200052d565b60c082015262000673610180890162000544565b60e0820152809150509295509295509295565b60005b83811015620006a357818101518382015260200162000689565b83811115620004c85750506000910152565b600060208284031215620006c857600080fd5b81516001600160401b0380821115620006e057600080fd5b818401915084601f830112620006f557600080fd5b8151818111156200070a576200070a620004eb565b604051601f8201601f19908116603f01168101908382118183101715620007355762000735620004eb565b816040528281528760208487010111156200074f57600080fd5b6200076283602083016020880162000686565b979650505050505050565b600082516200078181846020870162000686565b671020b230b83a32b960c11b920191825250600801919050565b600181811c90821680620007b057607f821691505b602082108103620007d157634e487b7160e01b600052602260045260246000fd5b50919050565b601f8211156200082557600081815260208120601f850160051c81016020861015620008005750805b601f850160051c820191505b8181101562000821578281556001016200080c565b5050505b505050565b81516001600160401b03811115620008465762000846620004eb565b6200085e816200085784546200079b565b84620007d7565b602080601f8311600181146200089657600084156200087d5750858301515b600019600386901b1c1916600185901b17855562000821565b600085815260208120601f198616915b82811015620008c757888601518255948401946001909101908401620008a6565b5085821015620008e65787850151600019600388901b60f8161c191681555b5050505050600190811b01905550565b600082516200090a81846020870162000686565b6716b0b230b83a32b960c11b920191825250600801919050565b6000602082840312156200093757600080fd5b815160ff811681146200094957600080fd5b9392505050565b634e487b7160e01b600052601160045260246000fd5b6000828210156200097b576200097b62000950565b500390565b600181815b80851115620009c1578160001904821115620009a557620009a562000950565b80851615620009b357918102915b93841c939080029062000985565b509250929050565b600082620009da5750600162000a79565b81620009e95750600062000a79565b816001811462000a02576002811462000a0d5762000a2d565b600191505062000a79565b60ff84111562000a215762000a2162000950565b50506001821b62000a79565b5060208310610133831016604e8410600b841016171562000a52575081810a62000a79565b62000a5e838362000980565b806000190482111562000a755762000a7562000950565b0290505b92915050565b6000620009498383620009c9565b60805160a05160c05160e051611d9b62000b066000396000610590015260006104df015260008181610377015281816105ea0152818161092601528181610c0c01528181611035015281816110ab015281816111930152818161144c01526117ef0152600081816103d00152610f410152611d9b6000f3fe608060405234801561001057600080fd5b506004361061020b5760003560e01c8063613255ab1161012a57806396d64879116100bd578063d4b839921161008c578063ed3437f811610071578063ed3437f81461061f578063f51e181a14610628578063ff2a7d301461063057600080fd5b8063d4b83992146105e5578063d9d98ce41461060c57600080fd5b806396d6487914610555578063b484972a14610578578063b8c15a9f1461058b578063c39a3b29146105d357600080fd5b80636fd5ae15116100f95780636fd5ae151461050157806375b2cda81461051d5780638237e5381461052657806395d89b411461054d57600080fd5b8063613255ab1461049d57806364c56e3c146104b05780636b0706ed146104cc5780636f307dc3146104da57600080fd5b8063378efa37116101a257806351c39ea11161017157806351c39ea11461044b5780635cffe9de1461045e5780635f67740414610481578063608c44d61461048a57600080fd5b8063378efa37146103cb5780633edc351914610417578063468f02d21461042a5780634aae9fed1461043857600080fd5b80631a54259c116101de5780631a54259c1461032d578063226778491461034057806327b327d014610356578063295a5212146103ad57600080fd5b806306fdde0314610210578063083118d51461022e5780631393916a1461030557806314282f581461031a575b600080fd5b610218610650565b60405161022591906118b4565b60405180910390f35b60005460015460025460035460045460055461029c9573ffffffffffffffffffffffffffffffffffffffff90811695169392919067ffffffffffffffff81169068010000000000000000810465ffffffffffff16906e010000000000000000000000000000900461ffff1688565b6040805173ffffffffffffffffffffffffffffffffffffffff998a168152989097166020890152958701949094526060860192909252608085015267ffffffffffffffff1660a084015265ffffffffffff1660c083015261ffff1660e082015261010001610225565b61031861031336600461195a565b6106de565b005b610318610328366004611993565b6107e6565b61031861033b3660046119c5565b610801565b610348610908565b604051908152602001610225565b6001546002546040805173ffffffffffffffffffffffffffffffffffffffff7f0000000000000000000000000000000000000000000000000000000000000000811682529093166020840152820152606001610225565b6005546e010000000000000000000000000000900461ffff16610348565b6103f27f000000000000000000000000000000000000000000000000000000000000000081565b60405173ffffffffffffffffffffffffffffffffffffffff9091168152602001610225565b6103186104253660046119e2565b600a55565b670de0b6b3a7640000610348565b6103486104463660046119e2565b610921565b6103486104593660046119e2565b610c07565b61047161046c3660046119fb565b610f26565b6040519015158152602001610225565b610348600b5481565b6103186104983660046119c5565b6111c8565b6103486104ab3660046119c5565b6113a4565b6003546004545b60408051928352602083019190915201610225565b600f546010546104b7919082565b6103f27f000000000000000000000000000000000000000000000000000000000000000081565b60055468010000000000000000900465ffffffffffff16610348565b610348600d5481565b6103487f439148f0bbc682ca079e46d6e2c2f0c1e3b820f1a291b069d8882abf8cf18dd981565b61021861143b565b6104716105633660046119c5565b60086020526000908152604090205460ff1681565b610318610586366004611a9a565b505050565b6105b27f000000000000000000000000000000000000000000000000000000000000000081565b6040516fffffffffffffffffffffffffffffffff9091168152602001610225565b60055467ffffffffffffffff16610348565b6103f27f000000000000000000000000000000000000000000000000000000000000000081565b61034861061a366004611adc565b611448565b610348600e5481565b6103486114d8565b6009546103f29073ffffffffffffffffffffffffffffffffffffffff1681565b6006805461065d90611b08565b80601f016020809104026020016040519081016040528092919081815260200182805461068990611b08565b80156106d65780601f106106ab576101008083540402835291602001916106d6565b820191906000526020600020905b8154815290600101906020018083116106b957829003601f168201915b505050505081565b3360009081526008602052604090205460ff1661075c576040517f08c379a000000000000000000000000000000000000000000000000000000000815260206004820152600960248201527f554e54525553544544000000000000000000000000000000000000000000000060448201526064015b60405180910390fd5b73ffffffffffffffffffffffffffffffffffffffff821660008181526008602090815260409182902080547fffffffffffffffffffffffffffffffffffffffffffffffffffffffffffffff001685151590811790915591519182527fe95aec380cae16330d146d5499ef7db6f3657e477104a733e771bc09e500d986910160405180910390a25050565b600d80549060006107f683611b8a565b919050555050505050565b3360009081526008602052604090205460ff1661087a576040517f08c379a000000000000000000000000000000000000000000000000000000000815260206004820152600960248201527f554e5452555354454400000000000000000000000000000000000000000000006044820152606401610753565b60095460405173ffffffffffffffffffffffffffffffffffffffff8084169216907f952c654458751f95c1440bdb1537809137b3de28466b80ad096a711707ae987a90600090a3600980547fffffffffffffffffffffffff00000000000000000000000000000000000000001673ffffffffffffffffffffffffffffffffffffffff92909216919091179055565b6010546000901561091a575060105490565b50600b5490565b6000807f0000000000000000000000000000000000000000000000000000000000000000905060008173ffffffffffffffffffffffffffffffffffffffff16636f307dc36040518163ffffffff1660e01b8152600401602060405180830381865afa158015610994573d6000803e3d6000fd5b505050506040513d601f19601f820116820180604052508101906109b89190611bc2565b6040517f23b872dd0000000000000000000000000000000000000000000000000000000081523360048201523060248201526044810186905290915073ffffffffffffffffffffffffffffffffffffffff8216906323b872dd906064016020604051808303816000875af1158015610a34573d6000803e3d6000fd5b505050506040513d601f19601f82011682018060405250810190610a589190611bdf565b50601054600090610a6a908690611631565b90508273ffffffffffffffffffffffffffffffffffffffff1663313ce5676040518163ffffffff1660e01b8152600401602060405180830381865afa158015610ab7573d6000803e3d6000fd5b505050506040513d601f19601f82011682018060405250810190610adb9190611bfc565b60ff168273ffffffffffffffffffffffffffffffffffffffff1663313ce5676040518163ffffffff1660e01b8152600401602060405180830381865afa158015610b29573d6000803e3d6000fd5b505050506040513d601f19601f82011682018060405250810190610b4d9190611bfc565b60ff1611610b6757600e54610b629082611c1f565b610b74565b600e54610b749082611c5c565b6040517f40c10f190000000000000000000000000000000000000000000000000000000081523360048201526024810182905290915073ffffffffffffffffffffffffffffffffffffffff8416906340c10f19906044015b600060405180830381600087803b158015610be657600080fd5b505af1158015610bfa573d6000803e3d6000fd5b5092979650505050505050565b6000807f0000000000000000000000000000000000000000000000000000000000000000905060008173ffffffffffffffffffffffffffffffffffffffff16636f307dc36040518163ffffffff1660e01b8152600401602060405180830381865afa158015610c7a573d6000803e3d6000fd5b505050506040513d601f19601f82011682018060405250810190610c9e9190611bc2565b6040517f23b872dd0000000000000000000000000000000000000000000000000000000081523360048201523060248201526044810186905290915073ffffffffffffffffffffffffffffffffffffffff8316906323b872dd906064016020604051808303816000875af1158015610d1a573d6000803e3d6000fd5b505050506040513d601f19601f82011682018060405250810190610d3e9190611bdf565b50601054600090610d5090869061164d565b90508273ffffffffffffffffffffffffffffffffffffffff1663313ce5676040518163ffffffff1660e01b8152600401602060405180830381865afa158015610d9d573d6000803e3d6000fd5b505050506040513d601f19601f82011682018060405250810190610dc19190611bfc565b60ff168273ffffffffffffffffffffffffffffffffffffffff1663313ce5676040518163ffffffff1660e01b8152600401602060405180830381865afa158015610e0f573d6000803e3d6000fd5b505050506040513d601f19601f82011682018060405250810190610e339190611bfc565b60ff1611610e4d57600e54610e489082611c5c565b610e5a565b600e54610e5a9082611c1f565b90508273ffffffffffffffffffffffffffffffffffffffff16636f307dc36040518163ffffffff1660e01b8152600401602060405180830381865afa158015610ea7573d6000803e3d6000fd5b505050506040513d601f19601f82011682018060405250810190610ecb9190611bc2565b6040517f40c10f190000000000000000000000000000000000000000000000000000000081523360048201526024810183905273ffffffffffffffffffffffffffffffffffffffff91909116906340c10f1990604401610bcc565b60003373ffffffffffffffffffffffffffffffffffffffff167f000000000000000000000000000000000000000000000000000000000000000073ffffffffffffffffffffffffffffffffffffffff166377aace1a6040518163ffffffff1660e01b8152600401602060405180830381865afa158015610faa573d6000803e3d6000fd5b505050506040513d601f19601f82011682018060405250810190610fce9190611bc2565b73ffffffffffffffffffffffffffffffffffffffff161461101b576040517ffb02114900000000000000000000000000000000000000000000000000000000815260040160405180910390fd5b61105c73ffffffffffffffffffffffffffffffffffffffff7f0000000000000000000000000000000000000000000000000000000000000000168786611662565b6040517f23e30c8b00000000000000000000000000000000000000000000000000000000815260009073ffffffffffffffffffffffffffffffffffffffff8816906323e30c8b906110db9033907f0000000000000000000000000000000000000000000000000000000000000000908a9087908b908b90600401611c97565b6020604051808303816000875af11580156110fa573d6000803e3d6000fd5b505050506040513d601f19601f8201168201806040525081019061111e9190611d1d565b90507f439148f0bbc682ca079e46d6e2c2f0c1e3b820f1a291b069d8882abf8cf18dd98114611179576040517f207df21c00000000000000000000000000000000000000000000000000000000815260040160405180910390fd5b6111bb73ffffffffffffffffffffffffffffffffffffffff7f000000000000000000000000000000000000000000000000000000000000000016883088611721565b5060019695505050505050565b6111d1816117eb565b611207576040517f3dd1b30500000000000000000000000000000000000000000000000000000000815260040160405180910390fd5b6040517f70a08231000000000000000000000000000000000000000000000000000000008152306004820152819060009073ffffffffffffffffffffffffffffffffffffffff8316906370a0823190602401602060405180830381865afa158015611276573d6000803e3d6000fd5b505050506040513d601f19601f8201168201806040525081019061129a9190611d1d565b6009546040517f70a082310000000000000000000000000000000000000000000000000000000081523060048201529192506113549173ffffffffffffffffffffffffffffffffffffffff918216918516906370a0823190602401602060405180830381865afa158015611312573d6000803e3d6000fd5b505050506040513d601f19601f820116820180604052508101906113369190611d1d565b73ffffffffffffffffffffffffffffffffffffffff85169190611662565b600954604051829173ffffffffffffffffffffffffffffffffffffffff90811691908616907f9310ccfcb8de723f578a9e4282ea9f521f05ae40dc08f3068dfad528a65ee3c790600090a4505050565b6040517f70a0823100000000000000000000000000000000000000000000000000000000815230600482015260009073ffffffffffffffffffffffffffffffffffffffff8316906370a0823190602401602060405180830381865afa158015611411573d6000803e3d6000fd5b505050506040513d601f19601f820116820180604052508101906114359190611d1d565b92915050565b6007805461065d90611b08565b60007f000000000000000000000000000000000000000000000000000000000000000073ffffffffffffffffffffffffffffffffffffffff168373ffffffffffffffffffffffffffffffffffffffff16146114cf576040517f3dd1b30500000000000000000000000000000000000000000000000000000000815260040160405180910390fd5b50600092915050565b600a54600090156114f35750600a54601081905542600f5590565b600c5460009061150b90670dbd2fc137a3000061164d565b600f5490915060009061151e9042611d36565b60105490915061153057600b54611551565b601054611547816115418486611c1f565b9061164d565b6115519190611d4d565b601054909350831461156757601083905542600f555b505090565b60006040517f095ea7b3000000000000000000000000000000000000000000000000000000006000528360045282602452602060006044600080895af13d15601f3d116001600051141617169150600060605280604052508061162b576040517f08c379a000000000000000000000000000000000000000000000000000000000815260206004820152600e60248201527f415050524f56455f4641494c45440000000000000000000000000000000000006044820152606401610753565b50505050565b600061164683670de0b6b3a764000084611867565b9392505050565b60006116468383670de0b6b3a7640000611895565b60006040517fa9059cbb000000000000000000000000000000000000000000000000000000006000528360045282602452602060006044600080895af13d15601f3d116001600051141617169150600060605280604052508061162b576040517f08c379a000000000000000000000000000000000000000000000000000000000815260206004820152600f60248201527f5452414e534645525f4641494c454400000000000000000000000000000000006044820152606401610753565b60006040517f23b872dd000000000000000000000000000000000000000000000000000000006000528460045283602452826044526020600060646000808a5af13d15601f3d11600160005114161716915060006060528060405250806117e4576040517f08c379a000000000000000000000000000000000000000000000000000000000815260206004820152601460248201527f5452414e534645525f46524f4d5f4641494c45440000000000000000000000006044820152606401610753565b5050505050565b60007f000000000000000000000000000000000000000000000000000000000000000073ffffffffffffffffffffffffffffffffffffffff168273ffffffffffffffffffffffffffffffffffffffff161415801561143557505060015473ffffffffffffffffffffffffffffffffffffffff9081169116141590565b82820281151584158583048514171661187f57600080fd5b6001826001830304018115150290509392505050565b8282028115158415858304851417166118ad57600080fd5b0492915050565b600060208083528351808285015260005b818110156118e1578581018301518582016040015282016118c5565b818111156118f3576000604083870101525b50601f017fffffffffffffffffffffffffffffffffffffffffffffffffffffffffffffffe016929092016040019392505050565b73ffffffffffffffffffffffffffffffffffffffff8116811461194957600080fd5b50565b801515811461194957600080fd5b6000806040838503121561196d57600080fd5b823561197881611927565b915060208301356119888161194c565b809150509250929050565b600080600080608085870312156119a957600080fd5b5050823594602084013594506040840135936060013592509050565b6000602082840312156119d757600080fd5b813561164681611927565b6000602082840312156119f457600080fd5b5035919050565b600080600080600060808688031215611a1357600080fd5b8535611a1e81611927565b94506020860135611a2e81611927565b935060408601359250606086013567ffffffffffffffff80821115611a5257600080fd5b818801915088601f830112611a6657600080fd5b813581811115611a7557600080fd5b896020828501011115611a8757600080fd5b9699959850939650602001949392505050565b600080600060608486031215611aaf57600080fd5b8335611aba81611927565b9250602084013591506040840135611ad18161194c565b809150509250925092565b60008060408385031215611aef57600080fd5b8235611afa81611927565b946020939093013593505050565b600181811c90821680611b1c57607f821691505b602082108103611b55577f4e487b7100000000000000000000000000000000000000000000000000000000600052602260045260246000fd5b50919050565b7f4e487b7100000000000000000000000000000000000000000000000000000000600052601160045260246000fd5b60007fffffffffffffffffffffffffffffffffffffffffffffffffffffffffffffffff8203611bbb57611bbb611b5b565b5060010190565b600060208284031215611bd457600080fd5b815161164681611927565b600060208284031215611bf157600080fd5b81516116468161194c565b600060208284031215611c0e57600080fd5b815160ff8116811461164657600080fd5b6000817fffffffffffffffffffffffffffffffffffffffffffffffffffffffffffffffff0483118215151615611c5757611c57611b5b565b500290565b600082611c92577f4e487b7100000000000000000000000000000000000000000000000000000000600052601260045260246000fd5b500490565b600073ffffffffffffffffffffffffffffffffffffffff808916835280881660208401525085604083015284606083015260a060808301528260a0830152828460c0840137600060c0848401015260c07fffffffffffffffffffffffffffffffffffffffffffffffffffffffffffffffe0601f8501168301019050979650505050505050565b600060208284031215611d2f57600080fd5b5051919050565b600082821015611d4857611d48611b5b565b500390565b60008219821115611d6057611d60611b5b565b50019056fea2646970667358221220794c55feb9196de32971577169074f9d033dc406eb18903cf74535e3acb0248e64736f6c634300080f0033a2646970667358221220a6e050fa85f49e88b01f761884aa266276efc2f4737dd38df650ee80fd396e4964736f6c634300080f0033",
  "devdoc": {
    "kind": "dev",
    "methods": {
      "setRewardsRecipient(address)": {
        "details": "existing adapters rewards recipients will not be changed and can be done through `setRewardsRecipient` on each adapter contract"
      }
    },
    "version": 1
  },
  "userdoc": {
    "kind": "user",
    "methods": {
      "DEFAULT_LEVEL()": {
        "notice": "Sets level to `31` by default, which keeps all Divider lifecycle methods public (`issue`, `combine`, `collect`, etc), but not the `onRedeem` hook."
      },
      "divider()": {
        "notice": "Sense core Divider address"
      },
      "factoryParams()": {
        "notice": "params for adapters deployed with this factory"
      },
      "restrictedAdmin()": {
        "notice": "Adapter admin address"
      },
      "rewardsRecipient()": {
        "notice": "Rewards recipient"
      },
      "setRewardsRecipient(address)": {
        "notice": "Set factory rewards recipientall future deployed adapters will have the new rewards recipient"
      }
    },
    "version": 1
  },
  "storageLayout": {
    "storage": [
      {
        "astId": 20334,
        "contract": "@sense-finance/v1-core/src/tests/test-helpers/mocks/MockFactory.sol:MockFactory",
        "label": "isTrusted",
        "offset": 0,
        "slot": "0",
        "type": "t_mapping(t_address,t_bool)"
      },
      {
        "astId": 10001,
        "contract": "@sense-finance/v1-core/src/tests/test-helpers/mocks/MockFactory.sol:MockFactory",
        "label": "restrictedAdmin",
        "offset": 0,
        "slot": "1",
        "type": "t_address"
      },
      {
        "astId": 10004,
        "contract": "@sense-finance/v1-core/src/tests/test-helpers/mocks/MockFactory.sol:MockFactory",
        "label": "rewardsRecipient",
        "offset": 0,
        "slot": "2",
        "type": "t_address"
      },
      {
        "astId": 10008,
        "contract": "@sense-finance/v1-core/src/tests/test-helpers/mocks/MockFactory.sol:MockFactory",
        "label": "factoryParams",
        "offset": 0,
        "slot": "3",
        "type": "t_struct(FactoryParams)10027_storage"
      },
      {
        "astId": 16560,
        "contract": "@sense-finance/v1-core/src/tests/test-helpers/mocks/MockFactory.sol:MockFactory",
        "label": "targets",
        "offset": 0,
        "slot": "10",
        "type": "t_mapping(t_address,t_bool)"
      }
    ],
    "types": {
      "t_address": {
        "encoding": "inplace",
        "label": "address",
        "numberOfBytes": "20"
      },
      "t_bool": {
        "encoding": "inplace",
        "label": "bool",
        "numberOfBytes": "1"
      },
      "t_mapping(t_address,t_bool)": {
        "encoding": "mapping",
        "key": "t_address",
        "label": "mapping(address => bool)",
        "numberOfBytes": "32",
        "value": "t_bool"
      },
      "t_struct(FactoryParams)10027_storage": {
        "encoding": "inplace",
        "label": "struct BaseFactory.FactoryParams",
        "members": [
          {
            "astId": 10010,
            "contract": "@sense-finance/v1-core/src/tests/test-helpers/mocks/MockFactory.sol:MockFactory",
            "label": "oracle",
            "offset": 0,
            "slot": "0",
            "type": "t_address"
          },
          {
            "astId": 10012,
            "contract": "@sense-finance/v1-core/src/tests/test-helpers/mocks/MockFactory.sol:MockFactory",
            "label": "stake",
            "offset": 0,
            "slot": "1",
            "type": "t_address"
          },
          {
            "astId": 10014,
            "contract": "@sense-finance/v1-core/src/tests/test-helpers/mocks/MockFactory.sol:MockFactory",
            "label": "stakeSize",
            "offset": 0,
            "slot": "2",
            "type": "t_uint256"
          },
          {
            "astId": 10016,
            "contract": "@sense-finance/v1-core/src/tests/test-helpers/mocks/MockFactory.sol:MockFactory",
            "label": "minm",
            "offset": 0,
            "slot": "3",
            "type": "t_uint256"
          },
          {
            "astId": 10018,
            "contract": "@sense-finance/v1-core/src/tests/test-helpers/mocks/MockFactory.sol:MockFactory",
            "label": "maxm",
            "offset": 0,
            "slot": "4",
            "type": "t_uint256"
          },
          {
            "astId": 10020,
            "contract": "@sense-finance/v1-core/src/tests/test-helpers/mocks/MockFactory.sol:MockFactory",
            "label": "ifee",
            "offset": 0,
            "slot": "5",
            "type": "t_uint128"
          },
          {
            "astId": 10022,
            "contract": "@sense-finance/v1-core/src/tests/test-helpers/mocks/MockFactory.sol:MockFactory",
            "label": "mode",
            "offset": 16,
            "slot": "5",
            "type": "t_uint16"
          },
          {
            "astId": 10024,
            "contract": "@sense-finance/v1-core/src/tests/test-helpers/mocks/MockFactory.sol:MockFactory",
            "label": "tilt",
            "offset": 18,
            "slot": "5",
            "type": "t_uint64"
          },
          {
            "astId": 10026,
            "contract": "@sense-finance/v1-core/src/tests/test-helpers/mocks/MockFactory.sol:MockFactory",
            "label": "guard",
            "offset": 0,
            "slot": "6",
            "type": "t_uint256"
          }
        ],
        "numberOfBytes": "224"
      },
      "t_uint128": {
        "encoding": "inplace",
        "label": "uint128",
        "numberOfBytes": "16"
      },
      "t_uint16": {
        "encoding": "inplace",
        "label": "uint16",
        "numberOfBytes": "2"
      },
      "t_uint256": {
        "encoding": "inplace",
        "label": "uint256",
        "numberOfBytes": "32"
      },
      "t_uint64": {
        "encoding": "inplace",
        "label": "uint64",
        "numberOfBytes": "8"
      }
    }
  }
}