{
  "address": "0x3B0f35bDD6Da9e3b8513c58Af8Fdf231f60232E5",
  "abi": [
    {
      "inputs": [
        {
          "internalType": "contract DividerLike",
          "name": "_divider",
          "type": "address"
        },
        {
          "internalType": "address",
          "name": "_balancerVault",
          "type": "address"
        },
        {
          "internalType": "address",
          "name": "_periphery",
          "type": "address"
        },
        {
          "internalType": "address",
          "name": "_rollerPeriphery",
          "type": "address"
        },
        {
          "internalType": "contract RollerUtils",
          "name": "_utils",
          "type": "address"
        }
      ],
      "stateMutability": "nonpayable",
      "type": "constructor"
    },
    {
      "inputs": [],
      "name": "RollerQuantityLimitExceeded",
      "type": "error"
    },
    {
      "anonymous": false,
      "inputs": [
        {
          "indexed": true,
          "internalType": "address",
          "name": "adapter",
          "type": "address"
        },
        {
          "indexed": false,
          "internalType": "address",
          "name": "autoRoller",
          "type": "address"
        }
      ],
      "name": "PeripheryChanged",
      "type": "event"
    },
    {
      "anonymous": false,
      "inputs": [
        {
          "indexed": true,
          "internalType": "address",
          "name": "adapter",
          "type": "address"
        },
        {
          "indexed": false,
          "internalType": "address",
          "name": "autoRoller",
          "type": "address"
        }
      ],
      "name": "RollerCreated",
      "type": "event"
    },
    {
      "anonymous": false,
      "inputs": [
        {
          "indexed": true,
          "internalType": "address",
          "name": "adapter",
          "type": "address"
        },
        {
          "indexed": false,
          "internalType": "address",
          "name": "autoRoller",
          "type": "address"
        }
      ],
      "name": "RollerPeripheryChanged",
      "type": "event"
    },
    {
      "anonymous": false,
      "inputs": [
        {
          "indexed": true,
          "internalType": "address",
          "name": "user",
          "type": "address"
        },
        {
          "indexed": false,
          "internalType": "bool",
          "name": "trusted",
          "type": "bool"
        }
      ],
      "name": "UserTrustUpdated",
      "type": "event"
    },
    {
      "anonymous": false,
      "inputs": [
        {
          "indexed": true,
          "internalType": "address",
          "name": "adapter",
          "type": "address"
        },
        {
          "indexed": false,
          "internalType": "address",
          "name": "autoRoller",
          "type": "address"
        }
      ],
      "name": "UtilsChanged",
      "type": "event"
    },
    {
      "inputs": [
        {
          "internalType": "contract OwnedAdapterLike",
          "name": "adapter",
          "type": "address"
        },
        {
          "internalType": "address",
          "name": "rewardRecipient",
          "type": "address"
        },
        {
          "internalType": "uint256",
          "name": "targetDuration",
          "type": "uint256"
        }
      ],
      "name": "create",
      "outputs": [
        {
          "internalType": "contract AutoRoller",
          "name": "autoRoller",
          "type": "address"
        }
      ],
      "stateMutability": "nonpayable",
      "type": "function"
    },
    {
      "inputs": [],
      "name": "getCreationCode",
      "outputs": [
        {
          "internalType": "bytes",
          "name": "",
          "type": "bytes"
        }
      ],
      "stateMutability": "view",
      "type": "function"
    },
    {
      "inputs": [],
      "name": "getCreationCodeContracts",
      "outputs": [
        {
          "internalType": "address",
          "name": "contractA",
          "type": "address"
        },
        {
          "internalType": "address",
          "name": "contractB",
          "type": "address"
        }
      ],
      "stateMutability": "view",
      "type": "function"
    },
    {
      "inputs": [
        {
          "internalType": "address",
          "name": "",
          "type": "address"
        }
      ],
      "name": "isTrusted",
      "outputs": [
        {
          "internalType": "bool",
          "name": "",
          "type": "bool"
        }
      ],
      "stateMutability": "view",
      "type": "function"
    },
    {
      "inputs": [],
      "name": "periphery",
      "outputs": [
        {
          "internalType": "contract PeripheryLike",
          "name": "",
          "type": "address"
        }
      ],
      "stateMutability": "view",
      "type": "function"
    },
    {
      "inputs": [],
      "name": "rollerPeriphery",
      "outputs": [
        {
          "internalType": "contract RollerPeripheryLike",
          "name": "",
          "type": "address"
        }
      ],
      "stateMutability": "view",
      "type": "function"
    },
    {
      "inputs": [
        {
          "internalType": "address",
          "name": "",
          "type": "address"
        },
        {
          "internalType": "uint256",
          "name": "",
          "type": "uint256"
        }
      ],
      "name": "rollers",
      "outputs": [
        {
          "internalType": "contract AutoRoller",
          "name": "",
          "type": "address"
        }
      ],
      "stateMutability": "view",
      "type": "function"
    },
    {
      "inputs": [
        {
          "internalType": "address",
          "name": "user",
          "type": "address"
        },
        {
          "internalType": "bool",
          "name": "trusted",
          "type": "bool"
        }
      ],
      "name": "setIsTrusted",
      "outputs": [],
      "stateMutability": "nonpayable",
      "type": "function"
    },
    {
      "inputs": [
        {
          "internalType": "address",
          "name": "newPeriphery",
          "type": "address"
        }
      ],
      "name": "setPeriphery",
      "outputs": [],
      "stateMutability": "nonpayable",
      "type": "function"
    },
    {
      "inputs": [
        {
          "internalType": "address",
          "name": "newRollerPeriphery",
          "type": "address"
        }
      ],
      "name": "setRollerPeriphery",
      "outputs": [],
      "stateMutability": "nonpayable",
      "type": "function"
    },
    {
      "inputs": [
        {
          "internalType": "address",
          "name": "newUtils",
          "type": "address"
        }
      ],
      "name": "setUtils",
      "outputs": [],
      "stateMutability": "nonpayable",
      "type": "function"
    },
    {
      "inputs": [],
      "name": "utils",
      "outputs": [
        {
          "internalType": "contract RollerUtils",
          "name": "",
          "type": "address"
        }
      ],
      "stateMutability": "view",
      "type": "function"
    }
  ],
  "transactionHash": "0x3a7d1bab7b286287694509294f4d41511dee4cef64191912c462365094501f1b",
  "args": [
    "0x86bA3E96Be68563E41c2f5769F1AF9fAf758e6E0",
    "0xBA12222222228d8Ba445958a75a0704d566BF2C8",
    "0xaa17633AA5A3Cb56698838561161bdb16Cebb8E3",
    "0xF3244CDCC765B15CbE1479c564f5fa31125d4FC3",
    "0xb6f7643fd0831eda3BAbe20EE9c98DA4D473807e"
  ],
  "numDeployments": 2,
  "solcInputHash": "efb394fedefafe06cf5bf21c067ab730",
  "bytecode": "0x6101406040523480156200001257600080fd5b5060405162007cd338038062007cd38339810160408190526200003591620001ee565b6040516200004660208201620001c7565b601f1982820381018352601f9091011660408181523360008181526020818152929020805460ff1916600190811790915583529182917fe95aec380cae16330d146d5499ef7db6f3657e477104a733e771bc09e500d986910160405180910390a25080516000620000b96002836200026e565b60a081905290506000620000ce828462000291565b60e0819052828552905083620000f08162000178602090811b62000bcf17901c565b6001600160a01b031660805282850180518382526200011b8262000178602090811b62000bcf17901c565b6001600160a01b0390811660c05295909252525050958616610100525092841661012052600180549285166001600160a01b03199384161790556002805491851691831691909117905560038054929093169116179055620002b7565b80517f602038038060206000396000f3fefefefefefefefefefefefefefefefefefefe808352600091602081018484f090845291506001600160a01b038216620001c157600080fd5b50919050565b616a40806200129383390190565b6001600160a01b0381168114620001eb57600080fd5b50565b600080600080600060a086880312156200020757600080fd5b85516200021481620001d5565b60208701519095506200022781620001d5565b60408701519094506200023a81620001d5565b60608701519093506200024d81620001d5565b60808701519092506200026081620001d5565b809150509295509295909350565b6000826200028c57634e487b7160e01b600052601260045260246000fd5b500490565b600082821015620002b257634e487b7160e01b600052601160045260246000fd5b500390565b60805160a05160c05160e0516101005161012051610f7e6200031560003960006106e10152600061063601526000610c840152600081816101640152610c6301526000610c4201526000818161013f0152610c210152610f7e6000f3fe608060405234801561001057600080fd5b50600436106100d25760003560e01c80635e1c8dff1161008157806396d648791161005b57806396d64879146101ee578063aeb2293414610221578063ffe5725f1461023457600080fd5b80635e1c8dff146101b557806369953501146101c857806377aace1a146101db57600080fd5b8063174481fa116100b2578063174481fa1461013157806341f8f3391461018f5780635a29638d146101a257600080fd5b80629f38c6146100d7578062c194db146101075780631393916a1461011c575b600080fd5b6100ea6100e5366004610d9b565b610247565b6040516001600160a01b0390911681526020015b60405180910390f35b61010f61027f565b6040516100fe9190610e14565b61012f61012a366004610e2e565b61029e565b005b604080516001600160a01b037f0000000000000000000000000000000000000000000000000000000000000000811682527f0000000000000000000000000000000000000000000000000000000000000000166020820152016100fe565b6002546100ea906001600160a01b031681565b6003546100ea906001600160a01b031681565b61012f6101c3366004610e6c565b61034b565b61012f6101d6366004610e6c565b6103fc565b6001546100ea906001600160a01b031681565b6102116101fc366004610e6c565b60006020819052908152604090205460ff1681565b60405190151581526020016100fe565b61012f61022f366004610e6c565b6104ad565b6100ea610242366004610e89565b61055e565b6004602052816000526040600020818154811061026357600080fd5b6000918252602090912001546001600160a01b03169150829050565b606061029960405180602001604052806000815250610c1d565b905090565b3360009081526020819052604090205460ff166102ee5760405162461bcd60e51b8152602060048201526009602482015268155395149554d5115160ba1b60448201526064015b60405180910390fd5b6001600160a01b03821660008181526020818152604091829020805460ff191685151590811790915591519182527fe95aec380cae16330d146d5499ef7db6f3657e477104a733e771bc09e500d986910160405180910390a25050565b3360009081526020819052604090205460ff166103965760405162461bcd60e51b8152602060048201526009602482015268155395149554d5115160ba1b60448201526064016102e5565b6002546040516001600160a01b038381168252909116907f78c77f29d344706aae2e94699fe660d4279de80f0e5e837e9e4ecf9a81c1511c9060200160405180910390a2600280546001600160a01b0319166001600160a01b0392909216919091179055565b3360009081526020819052604090205460ff166104475760405162461bcd60e51b8152602060048201526009602482015268155395149554d5115160ba1b60448201526064016102e5565b6003546040516001600160a01b038381168252909116907ff94bf076e2bde5e66a9646461dc3302f81f1c396ff403e6e6987393253d1225d9060200160405180910390a2600380546001600160a01b0319166001600160a01b0392909216919091179055565b3360009081526020819052604090205460ff166104f85760405162461bcd60e51b8152602060048201526009602482015268155395149554d5115160ba1b60448201526064016102e5565b6001546040516001600160a01b038381168252909116907f048e3f12102075493ebe1af4170104d8cb7aa917e553a0da4b0f608755900d909060200160405180910390a2600180546001600160a01b0319166001600160a01b0392909216919091179055565b600080846001600160a01b031663d4b839926040518163ffffffff1660e01b8152600401602060405180830381865afa15801561059f573d6000803e3d6000fd5b505050506040513d601f19601f820116820180604052508101906105c39190610eca565b6001600160a01b03861660009081526004602052604090205490915080158015906105fe57503360009081526020819052604090205460ff16155b1561061c57604051636bb5d4dd60e01b815260040160405180910390fd5b6001546040805163857bee5f60e01b8152905160009285927f0000000000000000000000000000000000000000000000000000000000000000926001600160a01b0390921691829163857bee5f9160048083019260209291908290030181865afa15801561068e573d6000803e3d6000fd5b505050506040513d601f19601f820116820180604052508101906106b29190610eca565b600354604080516001600160a01b039687166020820152948616908501529184166060840152831660808301527f0000000000000000000000000000000000000000000000000000000000000000831660a0830152828a1660c0830152821660e082015290871661010082015261012001604051602081830303815290604052905060008183604051602001610749929190610ee7565b60405160208183030381529060405280519060200120905061076b8282610d09565b6040516309c9c8b560e11b81526001600160a01b0380831660048301526001602483015291965090891690631393916a90604401600060405180830381600087803b1580156107b957600080fd5b505af11580156107cd573d6000803e3d6000fd5b5050604051634f98248560e11b81527f5441524745545f4455524154494f4e00000000000000000000000000000000006004820152602481018990526001600160a01b0388169250639f30490a9150604401600060405180830381600087803b15801561083957600080fd5b505af115801561084d573d6000803e3d6000fd5b50506040516376e8d85f60e11b81526427aba722a960d91b60048201523360248201526001600160a01b038816925063edd1b0be9150604401600060405180830381600087803b1580156108a057600080fd5b505af11580156108b4573d6000803e3d6000fd5b5050600254604051633f2a32dd60e11b81526001600160a01b03888116600483015289811660248301529091169250637e5465ba9150604401600060405180830381600087803b15801561090757600080fd5b505af115801561091b573d6000803e3d6000fd5b505050506000886001600160a01b0316636f307dc36040518163ffffffff1660e01b8152600401602060405180830381865afa15801561095f573d6000803e3d6000fd5b505050506040513d601f19601f820116820180604052508101906109839190610eca565b600254604051636eb1769f60e11b81526001600160a01b0391821660048201528b8216602482015291925082169063dd62ed3e90604401602060405180830381865afa1580156109d7573d6000803e3d6000fd5b505050506040513d601f19601f820116820180604052508101906109fb9190610f09565b600003610a6a57600254604051633f2a32dd60e11b81526001600160a01b0383811660048301528b8116602483015290911690637e5465ba90604401600060405180830381600087803b158015610a5157600080fd5b505af1158015610a65573d6000803e3d6000fd5b505050505b600254604051636eb1769f60e11b81526001600160a01b0391821660048201528a821660248201529086169063dd62ed3e90604401602060405180830381865afa158015610abc573d6000803e3d6000fd5b505050506040513d601f19601f82011682018060405250810190610ae09190610f09565b600003610b4f57600254604051633f2a32dd60e11b81526001600160a01b0387811660048301528b8116602483015290911690637e5465ba90604401600060405180830381600087803b158015610b3657600080fd5b505af1158015610b4a573d6000803e3d6000fd5b505050505b6001600160a01b03898116600081815260046020908152604080832080546001810182559084529282902090920180546001600160a01b031916948b169485179055905192835290917f4e97ce40cd8c01fd56afde7beff5ade3d5ce12b6120445922609ed01d1bc69d3910160405180910390a250505050509392505050565b80517f602038038060206000396000f3fefefefefefefefefefefefefefefefefefefe808352600091602081018484f090845291506001600160a01b038216610c1757600080fd5b50919050565b60607f00000000000000000000000000000000000000000000000000000000000000007f00000000000000000000000000000000000000000000000000000000000000007f00000000000000000000000000000000000000000000000000000000000000007f00000000000000000000000000000000000000000000000000000000000000006000610caf8285610f22565b87519091506000610cc08284610f22565b9050604051975060208101880160405280885260208801866000828a3c846000888301883c5060208981019089850101610cfb818386610d45565b505050505050505050919050565b600080610d1584610c1d565b90506000838251602084016000f590506001600160a01b038116610d3d573d6000803e3d6000fd5b949350505050565b5b60208110610d65578151835260209283019290910190601f1901610d46565b905182516020929092036101000a6000190180199091169116179052565b6001600160a01b0381168114610d9857600080fd5b50565b60008060408385031215610dae57600080fd5b8235610db981610d83565b946020939093013593505050565b6000815180845260005b81811015610ded57602081850181015186830182015201610dd1565b81811115610dff576000602083870101525b50601f01601f19169290920160200192915050565b602081526000610e276020830184610dc7565b9392505050565b60008060408385031215610e4157600080fd5b8235610e4c81610d83565b915060208301358015158114610e6157600080fd5b809150509250929050565b600060208284031215610e7e57600080fd5b8135610e2781610d83565b600080600060608486031215610e9e57600080fd5b8335610ea981610d83565b92506020840135610eb981610d83565b929592945050506040919091013590565b600060208284031215610edc57600080fd5b8151610e2781610d83565b604081526000610efa6040830185610dc7565b90508260208301529392505050565b600060208284031215610f1b57600080fd5b5051919050565b60008219821115610f4357634e487b7160e01b600052601160045260246000fd5b50019056fea2646970667358221220601ae4701405f2e8c9a64966d7bc287c5c2189b5ee0f40c040bee463bb2a318a64736f6c634300080f0033610200604052600160065563ffffffff6010556970896b8d763479c0000060135567283edea298a200006014556003601555620d2f006016553480156200004557600080fd5b5060405162006a4038038062006a4083398101604081905262000068916200059f565b87886001600160a01b03166306fdde036040518163ffffffff1660e01b8152600401600060405180830381865afa158015620000a8573d6000803e3d6000fd5b505050506040513d6000823e601f3d908101601f19168201604052620000d29190810190620006a5565b604051602001620000e491906200075d565b604051602081830303815290604052896001600160a01b03166395d89b416040518163ffffffff1660e01b8152600401600060405180830381865afa15801562000132573d6000803e3d6000fd5b505050506040513d6000823e601f3d908101601f191682016040526200015c9190810190620006a5565b6040516020016200016e919062000795565b6040516020818303038152906040528181846001600160a01b031663313ce5676040518163ffffffff1660e01b8152600401602060405180830381865afa158015620001be573d6000803e3d6000fd5b505050506040513d601f19601f82011682018060405250810190620001e49190620007bf565b6000620001f284826200087a565b5060016200020183826200087a565b5060ff81166080524660a0526200021762000462565b60c052505050506001600160a01b0391821660e0525087811661010052600780546001600160a01b03199081168984161790915560088054909116878316179055848116610120526200027c90891688600019620004fe602090811b620039e517901c565b620002a3846000198a6001600160a01b0316620004fe60201b620039e5179092919060201c565b60006080516012620002b691906200095c565b620002c390600a62000a81565b9050806001600760009054906101000a90046001600160a01b03166001600160a01b031663ce3a91286040518163ffffffff1660e01b8152600401602060405180830381865afa1580156200031c573d6000803e3d6000fd5b505050506040513d601f19601f8201168201806040525081019062000342919062000a92565b6200034e919062000aac565b6200035a919062000ac6565b6200036790600162000ae9565b610180526200037a816298967f62000ac6565b6200038790600162000ae9565b6101c0526200039e81662386f26fc0ffff62000ac6565b620003ab90600162000ae9565b6101a0526001600160a01b0384166101408190526040805163b8c15a9f60e01b8152905163b8c15a9f916004808201926020929091908290030181865afa158015620003fb573d6000803e3d6000fd5b505050506040513d601f19601f8201168201806040525081019062000421919062000a92565b610160525060098054336001600160a01b031991821617909155600a80549091166001600160a01b03938416179055166101e0525062000b82945050505050565b60007f8b73c3c69bb8fe3d512ecc4cf759cc79239f7b179b0ffacaa9a75d522b39400f600060405162000496919062000b04565b6040805191829003822060208301939093528101919091527fc89efdaa54c0f20c7adf612882df0950f5a951637e0307cdcb4c672f298b8bc660608201524660808201523060a082015260c00160405160208183030381529060405280519060200120905090565b600060405163095ea7b360e01b6000528360045282602452602060006044600080895af13d15601f3d1160016000511416171691506000606052806040525080620005805760405162461bcd60e51b815260206004820152600e60248201526d1054141493d59157d1905253115160921b604482015260640160405180910390fd5b50505050565b6001600160a01b03811681146200059c57600080fd5b50565b600080600080600080600080610100898b031215620005bd57600080fd5b8851620005ca8162000586565b60208a0151909850620005dd8162000586565b60408a0151909750620005f08162000586565b60608a0151909650620006038162000586565b60808a0151909550620006168162000586565b60a08a0151909450620006298162000586565b60c08a01519093506200063c8162000586565b60e08a01519092506200064f8162000586565b809150509295985092959890939650565b634e487b7160e01b600052604160045260246000fd5b60005b838110156200069357818101518382015260200162000679565b83811115620005805750506000910152565b600060208284031215620006b857600080fd5b81516001600160401b0380821115620006d057600080fd5b818401915084601f830112620006e557600080fd5b815181811115620006fa57620006fa62000660565b604051601f8201601f19908116603f0116810190838211818310171562000725576200072562000660565b816040528281528760208487010111156200073f57600080fd5b6200075283602083016020880162000676565b979650505050505050565b600082516200077181846020870162000676565b711029b2b739b29020baba37902937b63632b960711b920191825250601201919050565b60008251620007a981846020870162000676565b6316b9a0a960e11b920191825250600401919050565b600060208284031215620007d257600080fd5b815160ff81168114620007e457600080fd5b9392505050565b600181811c908216806200080057607f821691505b6020821081036200082157634e487b7160e01b600052602260045260246000fd5b50919050565b601f8211156200087557600081815260208120601f850160051c81016020861015620008505750805b601f850160051c820191505b8181101562000871578281556001016200085c565b5050505b505050565b81516001600160401b0381111562000896576200089662000660565b620008ae81620008a78454620007eb565b8462000827565b602080601f831160018114620008e65760008415620008cd5750858301515b600019600386901b1c1916600185901b17855562000871565b600085815260208120601f198616915b828110156200091757888601518255948401946001909101908401620008f6565b5085821015620009365787850151600019600388901b60f8161c191681555b5050505050600190811b01905550565b634e487b7160e01b600052601160045260246000fd5b600060ff821660ff84168082101562000979576200097962000946565b90039392505050565b600181815b80851115620009c3578160001904821115620009a757620009a762000946565b80851615620009b557918102915b93841c939080029062000987565b509250929050565b600082620009dc5750600162000a7b565b81620009eb5750600062000a7b565b816001811462000a04576002811462000a0f5762000a2f565b600191505062000a7b565b60ff84111562000a235762000a2362000946565b50506001821b62000a7b565b5060208310610133831016604e8410600b841016171562000a54575081810a62000a7b565b62000a60838362000982565b806000190482111562000a775762000a7762000946565b0290505b92915050565b6000620007e460ff841683620009cb565b60006020828403121562000aa557600080fd5b5051919050565b60008282101562000ac15762000ac162000946565b500390565b60008262000ae457634e487b7160e01b600052601260045260246000fd5b500490565b6000821982111562000aff5762000aff62000946565b500190565b600080835462000b1481620007eb565b6001828116801562000b2f576001811462000b455762000b76565b60ff198416875282151583028701945062000b76565b8760005260208060002060005b8581101562000b6d5781548a82015290840190820162000b52565b50505082870194505b50929695505050505050565b60805160a05160c05160e05161010051610120516101405161016051610180516101a0516101c0516101e051615c9d62000da360003960006135cf015260008181610b8801528181611341015261145a0152600081816109ff015261231c01526000818161127a0152818161138701526151bf015260008181611c5f015281816138a60152614b9601526000818161026d0152818161078d01528181610c9501528181610df501528181611065015281816114cb015281816117260152818161189f01528181611c930152818161239c01528181612a2501528181612b2401528181612fb901528181613702015281816147b90152818161487801528181614f23015281816150a10152615287015260008181612c5201528181613a780152818161402301528181614bf901528181614c690152614dc2015260008181610cc80152818161149e015281816116fc01528181612f8a015281816147f0015281816148af015261507201526000818161037a015281816105cc01528181610c0801528181610d3b01528181610dc901528181610e7c015281816111aa0152818161157701528181611fa00152818161214d015281816127ae01528181612d520152818161352c015281816137b401528181613c7c015281816140ec015281816141880152818161432501528181614471015281816145c501528181614e5f015261521e01526000610ffb01526000610fcb015260006103390152615c9d6000f3fe608060405234801561001057600080fd5b50600436106102485760003560e01c806394bf804d1161013b578063c6e6f592116100b8578063dd62ed3e1161007c578063dd62ed3e1461052f578063dfd4718f1461055a578063edd1b0be1461056d578063ef5cfb8c14610580578063ef8b30f71461059357600080fd5b8063c6e6f592146104db578063cd5e3c5d146104ee578063ce96cb77146104f6578063d505accf14610509578063d905777e1461051c57600080fd5b8063b3d7f6b9116100ff578063b3d7f6b914610472578063b460af9414610485578063ba08765214610498578063c5c3d910146104ab578063c63d75b61461039c57600080fd5b806394bf804d1461042857806395d89b411461043b57806395fa99c7146104435780639f30490a1461044c578063a9059cbb1461045f57600080fd5b8063313ce567116101c9578063680ff4581161018d578063680ff458146103c45780636e553f65146103cc57806370a08231146103df578063787a08a6146103ff5780637ecebe001461040857600080fd5b8063313ce567146103345780633644e5151461036d57806338d52e0f14610375578063402d267d1461039c5780634cdad506146103b157600080fd5b80630a28a477116102105780630a28a477146102f257806311da60b41461030557806318160ddd1461030f578063204f83f91461031857806323b872dd1461032157600080fd5b806301e1d1141461024d57806303eadcfc1461026857806306fdde03146102a757806307a2d13a146102bc578063095ea7b3146102cf575b600080fd5b6102556105a6565b6040519081526020015b60405180910390f35b61028f7f000000000000000000000000000000000000000000000000000000000000000081565b6040516001600160a01b03909116815260200161025f565b6102af6108b9565b60405161025f919061536d565b6102556102ca366004615380565b610947565b6102e26102dd3660046153b1565b610974565b604051901515815260200161025f565b610255610300366004615380565b6109e1565b61030d610bc5565b005b61025560025481565b61025560105481565b6102e261032f3660046153dd565b610ed5565b61035b7f000000000000000000000000000000000000000000000000000000000000000081565b60405160ff909116815260200161025f565b610255610fc7565b61028f7f000000000000000000000000000000000000000000000000000000000000000081565b6102556103aa36600461541e565b5060001990565b6102556103bf366004615380565b61101d565b61030d611484565b6102556103da36600461543b565b61196c565b6102556103ed36600461541e565b60036020526000908152604090205481565b61025560165481565b61025561041636600461541e565b60056020526000908152604090205481565b61025561043636600461543b565b611a01565b6102af611a96565b61025560175481565b61030d61045a36600461546b565b611aa3565b6102e261046d3660046153b1565b611ba0565b610255610480366004615380565b611c18565b61025561049336600461548d565b611d3f565b6102556104a636600461548d565b611ddd565b6104be6104b936600461548d565b611e73565b60408051938452602084019290925215159082015260600161025f565b6102556104e9366004615380565b6122c7565b61030d6122e7565b61025561050436600461541e565b6123ff565b61030d6105173660046154cf565b612425565b61025561052a36600461541e565b612678565b61025561053d366004615546565b600460209081526000928352604080842090915290825290205481565b61030d6105683660046153b1565b612a1a565b61030d61057b36600461543b565b6133f4565b61030d61058e36600461541e565b6134de565b6102556105a1366004615380565b61365d565b60105460009063fffffffe1901610644576040516370a0823160e01b81523060048201527f00000000000000000000000000000000000000000000000000000000000000006001600160a01b0316906370a0823190602401602060405180830381865afa15801561061b573d6000803e3d6000fd5b505050506040513d601f19601f8201168201806040525081019061063f9190615574565b905090565b600d546001600160a01b031660008061065b613a71565b91509150600080600061067385856002546001613b60565b509250925092506000866001600160a01b031663f3f586e5670de0b6b3a764000061071e6106ac6011548a613e3a90919063ffffffff16565b8b6001600160a01b0316638f1314b66040518163ffffffff1660e01b8152600401602060405180830381865afa1580156106ea573d6000803e3d6000fd5b505050506040513d601f19601f8201168201806040525081019061070e9190615574565b610718908c6155a3565b90613e4f565b61072891906155bb565b6040518263ffffffff1660e01b815260040161074691815260200190565b602060405180830381865afa158015610763573d6000803e3d6000fd5b505050506040513d601f19601f820116820180604052508101906107879190615574565b905060007f00000000000000000000000000000000000000000000000000000000000000006001600160a01b031663226778496040518163ffffffff1660e01b8152600401602060405180830381865afa1580156107e9573d6000803e3d6000fd5b505050506040513d601f19601f8201168201806040525081019061080d9190615574565b90508284106108555761082a61082384866155bb565b8390613e3a565b6108348483613e4f565b61083e90876155a3565b61084891906155a3565b9850505050505050505090565b6000610877826108658582613e3a565b61071890670de0b6b3a76400006155bb565b905061088d61088686866155bb565b8290613e3a565b6108978684613e4f565b6108a190886155a3565b6108ab91906155a3565b995050505050505050505090565b600080546108c6906155d2565b80601f01602080910402602001604051908101604052809291908181526020018280546108f2906155d2565b801561093f5780601f106109145761010080835404028352916020019161093f565b820191906000526020600020905b81548152906001019060200180831161092257829003601f168201915b505050505081565b600254600090801561096b5761096661095e6105a6565b849083613e60565b61096d565b825b9392505050565b3360008181526004602090815260408083206001600160a01b038716808552925280832085905551919290917f8c5be1e5ebec7d5bd14f71427d1e84f3dd0314c0f7b2291e5b200ac8c7c3b925906109cf9086815260200190565b60405180910390a35060015b92915050565b60105460009063fffffffe19016109fb576109db82613e7f565b60007f0000000000000000000000000000000000000000000000000000000000000000600254610a2b91906155bb565b90506000610a41610a3c8584613e9f565b613eb6565b90506000610a4e85613eb6565b610a5d610a3c6103bf85613ecc565b610a67919061560c565b90506000670de0b6b3a7640000610a86670d2f13f7789f00008561564b565b610a9091906156d2565b90506000610a9d85613eb6565b905060005b6014811015610b855781831315610ab7578192505b6000610ac289613eb6565b610ad1610a3c6103bf87613ecc565b610adb919061560c565b9050600081138015610b005750610afc610a3c8a66038d7ea4c68000613e3a565b8113155b80610b0a57508085145b15610b155750610b85565b8284148015610b245750600081125b15610b425760405163bb55fd2760e01b815260040160405180910390fd5b6000610b4e868361560c565b610b58888761560c565b610b62908461564b565b610b6c91906156d2565b610b76908661560c565b94965090945050600101610aa2565b507f0000000000000000000000000000000000000000000000000000000000000000610bb083613ecc565b610bba91906155a3565b979650505050505050565b600f546001600160a01b03163314610bf057604051633a731e2960e01b815260040160405180910390fd5b6040516370a0823160e01b81523060048201526000907f00000000000000000000000000000000000000000000000000000000000000006001600160a01b0316906370a0823190602401602060405180830381865afa158015610c57573d6000803e3d6000fd5b505050506040513d601f19601f82011682018060405250810190610c7b9190615574565b60105460405163148282c760e31b81526001600160a01b037f00000000000000000000000000000000000000000000000000000000000000008116600483015260248201929092529192507f0000000000000000000000000000000000000000000000000000000000000000169063a414163890604401600060405180830381600087803b158015610d0c57600080fd5b505af1158015610d20573d6000803e3d6000fd5b50506040516370a0823160e01b8152306004820152600092507f00000000000000000000000000000000000000000000000000000000000000006001600160a01b031691506370a0823190602401602060405180830381865afa158015610d8b573d6000803e3d6000fd5b505050506040513d601f19601f82011682018060405250810190610daf9190615574565b9050610df033610dbf84846155bb565b6001600160a01b037f0000000000000000000000000000000000000000000000000000000000000000169190613edb565b6000807f00000000000000000000000000000000000000000000000000000000000000006001600160a01b03166327b327d06040518163ffffffff1660e01b8152600401606060405180830381865afa158015610e51573d6000803e3d6000fd5b505050506040513d601f19601f82011682018060405250810190610e75919061570e565b92509250507f00000000000000000000000000000000000000000000000000000000000000006001600160a01b0316826001600160a01b031614610ec757610ec76001600160a01b0383163383613edb565b610ecf611484565b50505050565b6001600160a01b03831660009081526004602090815260408083203384529091528120546000198114610f3157610f0c83826155bb565b6001600160a01b03861660009081526004602090815260408083203384529091529020555b6001600160a01b03851660009081526003602052604081208054859290610f599084906155bb565b90915550506001600160a01b03808516600081815260036020526040908190208054870190555190918716907fddf252ad1be2c89b69c2b068fc378daa952ba7f163c4a11628f55a4df523b3ef90610fb49087815260200190565b60405180910390a3506001949350505050565b60007f00000000000000000000000000000000000000000000000000000000000000004614610ff85761063f613f67565b507f000000000000000000000000000000000000000000000000000000000000000090565b60105460009063fffffffe1901611037576109db82614001565b600080611042613a71565b9150915060008060008061105986868a6000613b60565b935093509350935060007f00000000000000000000000000000000000000000000000000000000000000006001600160a01b031663226778496040518163ffffffff1660e01b8152600401602060405180830381865afa1580156110c1573d6000803e3d6000fd5b505050506040513d601f19601f820116820180604052508101906110e59190615574565b90506110f184886155bb565b96506110fd85876155bb565b600c546040516370a0823160e01b815230600482015291975061117c916001600160a01b03909116906370a08231906024015b602060405180830381865afa15801561114d573d6000803e3d6000fd5b505050506040513d601f19601f820116820180604052508101906111719190615574565b6002548b9190613e60565b61118690856155a3565b6040516370a0823160e01b81523060048201529094506111d9906001600160a01b037f000000000000000000000000000000000000000000000000000000000000000016906370a0823190602401611130565b6111e390866155a3565b9450600082600d60009054906101000a90046001600160a01b03166001600160a01b0316638f1314b66040518163ffffffff1660e01b8152600401602060405180830381865afa15801561123b573d6000803e3d6000fd5b505050506040513d601f19601f8201168201806040525081019061125f9190615574565b61126991906155bb565b9050838511156113805783850360007f000000000000000000000000000000000000000000000000000000000000000082116112a657600061133d565b600d5460405163590aa98560e01b8152600160048201819052602482015260448101849052606481018c9052608481018b905260a4810185905260c481018690526001600160a01b039091169063590aa9859060e401602060405180830381865afa158015611319573d6000803e3d6000fd5b505050506040513d601f19601f8201168201806040525081019061133d9190615574565b90507f00000000000000000000000000000000000000000000000000000000000000008161136b8887613e4f565b8a0101039a5050505050505050505050919050565b84840360007f000000000000000000000000000000000000000000000000000000000000000082116113b3576000611456565b600d5460405163590aa98560e01b8152600060048201819052602482015260448101849052606481018b9052608481018c905260a4810185905260c481018690526001600160a01b039091169063590aa9859060e401602060405180830381865afa158015611426573d6000803e3d6000fd5b505050506040513d601f19601f8201168201806040525081019061144a9190615574565b6114548386613e4f565b035b90507f00000000000000000000000000000000000000000000000000000000000000008161136b8987613e4f565b60105460405163095197d360e41b81526001600160a01b037f000000000000000000000000000000000000000000000000000000000000000016916395197d3091611507917f0000000000000000000000000000000000000000000000000000000000000000916004016001600160a01b03929092168252602082015260400190565b602060405180830381865afa158015611524573d6000803e3d6000fd5b505050506040513d601f19601f820116820180604052508101906115489190615574565b60000361155457600080fd5b6040805160028082526060820183526000926020830190803683370190505090507f00000000000000000000000000000000000000000000000000000000000000008160125460016115a691906155bb565b815181106115b6576115b6615767565b6001600160a01b039283166020918202929092010152600c5460125483519190921691839181106115e9576115e9615767565b6001600160a01b0392909216602092830291909101820152600e5460408051608081018252848152815160028082526060820184526116d99592938484019383019080368337019050508152600d546040516370a0823160e01b81523060048201526020909201916001600160a01b03909116906370a0823190602401602060405180830381865afa158015611683573d6000803e3d6000fd5b505050506040513d601f19601f820116820180604052508101906116a79190615574565b6040516020016116b991815260200190565b60405160208183030381529060405281526020016000151581525061400c565b601054600c546040516370a0823160e01b81523060048201526001600160a01b037f0000000000000000000000000000000000000000000000000000000000000000811693632b83cccd937f000000000000000000000000000000000000000000000000000000000000000093919216906370a0823190602401602060405180830381865afa158015611770573d6000803e3d6000fd5b505050506040513d601f19601f820116820180604052508101906117949190615574565b6040516001600160e01b031960e086901b1681526001600160a01b03909316600484015260248301919091526044820152606401600060405180830381600087803b1580156117e257600080fd5b505af11580156117f6573d6000803e3d6000fd5b50505050600b60009054906101000a90046001600160a01b03166001600160a01b031663e52253816040518163ffffffff1660e01b81526004016020604051808303816000875af115801561184f573d6000803e3d6000fd5b505050506040513d601f19601f820116820180604052508101906118739190615574565b50600a54601454601054600d5460405163afb9eaef60e01b815260048101939093526001600160a01b037f0000000000000000000000000000000000000000000000000000000000000000811660248501526044840192909252811660648301529091169063afb9eaef906084016020604051808303816000875af1158015611900573d6000803e3d6000fd5b505050506040513d601f19601f820116820180604052508101906119249190615574565b6014555063ffffffff60108190554216601755600c80546001600160a01b0319908116909155600b805482169055600d8054909116905560006012819055600e819055601155565b60105460009063ffffffff146119f757600b60009054906101000a90046001600160a01b03166001600160a01b031663e52253816040518163ffffffff1660e01b81526004016020604051808303816000875af11580156119d1573d6000803e3d6000fd5b505050506040513d601f19601f820116820180604052508101906119f59190615574565b505b61096d8383614094565b60105460009063ffffffff14611a8c57600b60009054906101000a90046001600160a01b03166001600160a01b031663e52253816040518163ffffffff1660e01b81526004016020604051808303816000875af1158015611a66573d6000803e3d6000fd5b505050506040513d601f19601f82011682018060405250810190611a8a9190615574565b505b61096d838361416e565b600180546108c6906155d2565b6009546001600160a01b03163314611aba57600080fd5b81674d41585f5241544560c01b03611ad6576013819055611b62565b817f5441524745545f4455524154494f4e000000000000000000000000000000000003611b07576015819055611b62565b816721a7a7a62227aba760c11b03611b41576017541580611b2e575060105463ffffffff14155b611b3757600080fd5b6016819055611b62565b6040516335802fa360e01b8152600481018390526024015b60405180910390fd5b60408051838152602081018390527f891f9bcb4792409309cff2d2fe1731948faa5e57dd60a1c7888e961e7777606691015b60405180910390a15050565b33600090815260036020526040812080548391908390611bc19084906155bb565b90915550506001600160a01b038316600081815260036020526040908190208054850190555133907fddf252ad1be2c89b69c2b068fc378daa952ba7f163c4a11628f55a4df523b3ef906109cf9086815260200190565b60105460009063fffffffe1901611c32576109db8261420a565b600080611c3d613a71565b91509150600080611c518484886001613b60565b505091509150611d20611d197f0000000000000000000000000000000000000000000000000000000000000000670de0b6b3a7640000611c9191906155bb565b7f00000000000000000000000000000000000000000000000000000000000000006001600160a01b031663226778496040518163ffffffff1660e01b8152600401602060405180830381865afa158015611cef573d6000803e3d6000fd5b505050506040513d601f19601f82011682018060405250810190611d139190615574565b90613e3a565b8290614229565b611d2a90836155a3565b611d359060016155a3565b9695505050505050565b60105460009063ffffffff14611dca57600b60009054906101000a90046001600160a01b03166001600160a01b031663e52253816040518163ffffffff1660e01b81526004016020604051808303816000875af1158015611da4573d6000803e3d6000fd5b505050506040513d601f19601f82011682018060405250810190611dc89190615574565b505b611dd584848461423e565b949350505050565b60105460009063ffffffff14611e6857600b60009054906101000a90046001600160a01b03166001600160a01b031663e52253816040518163ffffffff1660e01b81526004016020604051808303816000875af1158015611e42573d6000803e3d6000fd5b505050506040513d601f19601f82011682018060405250810190611e669190615574565b505b611dd584848461434c565b600080600063ffffffff801660105403611ea05760405163a3d496c560e01b815260040160405180910390fd5b336001600160a01b03851614611f0e576001600160a01b03841660009081526004602090815260408083203384529091529020546000198114611f0c57611ee787826155bb565b6001600160a01b03861660009081526004602090815260408083203384529091529020555b505b600b60009054906101000a90046001600160a01b03166001600160a01b031663e52253816040518163ffffffff1660e01b81526004016020604051808303816000875af1158015611f63573d6000803e3d6000fd5b505050506040513d601f19601f82011682018060405250810190611f879190615574565b506040516370a0823160e01b81523060048201526000907f00000000000000000000000000000000000000000000000000000000000000006001600160a01b0316906370a0823190602401602060405180830381865afa158015611fef573d6000803e3d6000fd5b505050506040513d601f19601f820116820180604052508101906120139190615574565b905061202c8160025489613e609092919063ffffffff16565b935061203787614498565b9093509150612046858861491e565b81156120c957600c5460405163a9059cbb60e01b81526001600160a01b038881166004830152602482018690529091169063a9059cbb906044016020604051808303816000875af115801561209f573d6000803e3d6000fd5b505050506040513d601f19601f820116820180604052508101906120c3919061577d565b50612130565b600b5460405163a9059cbb60e01b81526001600160a01b038881166004830152602482018690529091169063a9059cbb90604401600060405180830381600087803b15801561211757600080fd5b505af115801561212b573d6000803e3d6000fd5b505050505b6040516370a0823160e01b81523060048201526001600160a01b037f0000000000000000000000000000000000000000000000000000000000000000169063a9059cbb908890849084906370a0823190602401602060405180830381865afa1580156121a0573d6000803e3d6000fd5b505050506040513d601f19601f820116820180604052508101906121c49190615574565b6121ce90896155a3565b6121d891906155bb565b6040516001600160e01b031960e085901b1681526001600160a01b0390921660048301526024820181905296506044016020604051808303816000875af1158015612227573d6000803e3d6000fd5b505050506040513d601f19601f8201168201806040525081019061224b919061577d565b506001600160a01b03808616908716337f8fdfb10c262f1ccaa0936a422af82535bd50d466e2354ed2b98841f244cbfbc9878b8761228a57600061228c565b885b88612297578961229a565b60005b60408051948552602085019390935291830152606082015260800160405180910390a45093509350939050565b600254600090801561096b57610966816122df6105a6565b859190613e60565b60105463ffffffff1461230d576040516369dc023f60e01b815260040160405180910390fd5b601754600003612348576123427f0000000000000000000000000000000000000000000000000000000000000000600061196c565b50612378565b4260165460175461235991906155a3565b1115612378576040516369dc023f60e01b815260040160405180910390fd5b600f80546001600160a01b031916331790556040805163058af0d760e31b815290517f00000000000000000000000000000000000000000000000000000000000000006001600160a01b031691632c5786b891600480830192600092919082900301818387803b1580156123eb57600080fd5b505af1158015610ecf573d6000803e3d6000fd5b60105460009063fffffffe1901612419576109db8261499a565b6109db6103bf83612678565b428410156124755760405162461bcd60e51b815260206004820152601760248201527f5045524d49545f444541444c494e455f455850495245440000000000000000006044820152606401611b59565b60006001612481610fc7565b6001600160a01b038a811660008181526005602090815260409182902080546001810190915582517f6e71edae12b1b97f4d1f60370fef10105fa2faae0126114a169c64845d6126c98184015280840194909452938d166060840152608083018c905260a083019390935260c08083018b90528151808403909101815260e08301909152805192019190912061190160f01b6101008301526101028201929092526101228101919091526101420160408051601f198184030181528282528051602091820120600084529083018083525260ff871690820152606081018590526080810184905260a0016020604051602081039080840390855afa15801561258d573d6000803e3d6000fd5b5050604051601f1901519150506001600160a01b038116158015906125c35750876001600160a01b0316816001600160a01b0316145b61260f5760405162461bcd60e51b815260206004820152600e60248201527f494e56414c49445f5349474e45520000000000000000000000000000000000006044820152606401611b59565b6001600160a01b0390811660009081526004602090815260408083208a8516808552908352928190208990555188815291928a16917f8c5be1e5ebec7d5bd14f71427d1e84f3dd0314c0f7b2291e5b200ac8c7c3b925910160405180910390a350505050505050565b60105460009063fffffffe19016126a7576001600160a01b0382166000908152600360205260409020546109db565b6001600160a01b03821660009081526003602052604081205490806126ca613a71565b915091506000806000806126e18686896000613b60565b935093509350935082866126f591906155bb565b955061270184866155bb565b600c546040516370a0823160e01b8152306004820152919650612780916001600160a01b03909116906370a08231906024015b602060405180830381865afa158015612751573d6000803e3d6000fd5b505050506040513d601f19601f820116820180604052508101906127759190615574565b600254899190613e60565b61278a90846155a3565b6040516370a0823160e01b81523060048201529093506127dd906001600160a01b037f000000000000000000000000000000000000000000000000000000000000000016906370a0823190602401612734565b6127e790856155a3565b9350600081600d60009054906101000a90046001600160a01b03166001600160a01b0316638f1314b66040518163ffffffff1660e01b8152600401602060405180830381865afa15801561283f573d6000803e3d6000fd5b505050506040513d601f19601f820116820180604052508101906128639190615574565b61286d91906155bb565b90508284116000816128885761288386866155bb565b612892565b61289285876155bb565b905081156129665760006128a78a8a866149bc565b90508181106128c15750989b9a5050505050505050505050565b60006128cd8387613e4f565b600254600d546040516370a0823160e01b8152306004820152929350612954926001600160a01b03909116906370a0823190602401602060405180830381865afa15801561291f573d6000803e3d6000fd5b505050506040513d601f19601f820116820180604052508101906129439190615574565b61294d8585613e4f565b9190613e60565b9e9d5050505050505050505050505050565b80891061297d5750979a9950505050505050505050565b60006129898286613e4f565b600254600d546040516370a0823160e01b8152306004820152929350612a09926001600160a01b03909116906370a0823190602401602060405180830381865afa1580156129db573d6000803e3d6000fd5b505050506040513d601f19601f820116820180604052508101906129ff9190615574565b61294d8d85613e4f565b9d9c50505050505050505050505050565b336001600160a01b037f00000000000000000000000000000000000000000000000000000000000000001614612a63576040516308ce245d60e31b815260040160405180910390fd5b600f54612a7e906001600160a01b0384811691163084614aea565b600754612a98906001600160a01b038481169116836139e5565b600a54601554604051635c25b08360e01b815260048101919091526000916001600160a01b031690635c25b08390602401602060405180830381865afa158015612ae6573d6000803e3d6000fd5b505050506040513d601f19601f82011682018060405250810190612b0a9190615574565b600754604051631fc3e73360e01b81526001600160a01b037f000000000000000000000000000000000000000000000000000000000000000081166004830152602482018490526001604483015292935060009283921690631fc3e7339060640160408051808303816000875af1158015612b89573d6000803e3d6000fd5b505050506040513d601f19601f82011682018060405250810190612bad919061579f565b600a546007546040516322bf3cff60e11b81526001600160a01b0391821660048201523360248201526044810188905293955091935060009283928392839291169063457e79fe906064016080604051808303816000875af1158015612c17573d6000803e3d6000fd5b505050506040513d601f19601f82011682018060405250810190612c3b91906157ce565b60405163095ea7b360e01b81526001600160a01b037f000000000000000000000000000000000000000000000000000000000000000081166004830152600019602483015294985092965090945092509087169063095ea7b3906044016020604051808303816000875af1158015612cb7573d6000803e3d6000fd5b505050506040513d601f19601f82011682018060405250810190612cdb919061577d565b5060075460405163095ea7b360e01b81526001600160a01b03918216600482015260001960248201529086169063095ea7b390604401600060405180830381600087803b158015612d2b57600080fd5b505af1158015612d3f573d6000803e3d6000fd5b50506040805160028082526060820183527f000000000000000000000000000000000000000000000000000000000000000094506000935090916020830190803683370190505090508181612d958660016155bb565b81518110612da557612da5615767565b60200260200101906001600160a01b031690816001600160a01b03168152505087818581518110612dd857612dd8615767565b6001600160a01b0392831660209182029290920101526040516370a0823160e01b81523060048201526000918416906370a0823190602401602060405180830381865afa158015612e2d573d6000803e3d6000fd5b505050506040513d601f19601f82011682018060405250810190612e519190615574565b9050600080886001600160a01b031663f6b025ba662386f26fc1000060145410612e7d57601454612e86565b662386f26fc100005b8e600087612e94818d613e3a565b8f6001600160a01b0316636970a9246040518163ffffffff1660e01b8152600401602060405180830381865afa158015612ed2573d6000803e3d6000fd5b505050506040513d601f19601f82011682018060405250810190612ef69190615574565b6040516001600160e01b031960e089901b1681526004810196909652602486019490945260448501929092526064840152608483015260a482015260c4016040805180830381865afa158015612f50573d6000803e3d6000fd5b505050506040513d601f19601f82011682018060405250810190612f74919061580d565b915091506000612f868383868a614b81565b90507f00000000000000000000000000000000000000000000000000000000000000006001600160a01b031663dfe5ef487f00000000000000000000000000000000000000000000000000000000000000008f846040518463ffffffff1660e01b8152600401613014939291906001600160a01b039390931683526020830191909152604082015260600190565b6020604051808303816000875af1158015613033573d6000803e3d6000fd5b505050506040513d601f19601f820116820180604052508101906130579190615574565b5060408051600280825260608201835260009260208301908036833701905050905061308382866155bb565b8161308f8b60016155bb565b8151811061309f5761309f615767565b6020026020010181815250506130fa8a60405180608001604052808981526020018481526020018460006040516020016130da92919061586c565b604051602081830303815290604052815260200160001515815250614be2565b6040805160c081019091528a81526131ae9060208101600081526020018f6001600160a01b03168152602001888c600161313491906155bb565b8151811061314457613144615767565b60200260200101516001600160a01b03168152602001613194848d600161316b91906155bb565b8151811061317b5761317b615767565b60200260200101518989613e609092919063ffffffff16565b815260408051602081810190925260008152910152614c34565b6040516370a0823160e01b81523060048201526001600160a01b038e16906370a0823190602401602060405180830381865afa1580156131f2573d6000803e3d6000fd5b505050506040513d601f19601f820116820180604052508101906132169190615574565b818a8151811061322857613228615767565b60209081029190910101526040516370a0823160e01b81523060048201526001600160a01b038816906370a0823190602401602060405180830381865afa158015613277573d6000803e3d6000fd5b505050506040513d601f19601f8201168201806040525081019061329b9190615574565b816132a78b60016155bb565b815181106132b7576132b7615767565b6020026020010181815250506132f28a60405180608001604052808981526020018481526020018460006040516020016130da92919061586c565b8a600d60006101000a8154816001600160a01b0302191690836001600160a01b0316021790555089600e819055508c600c60006101000a8154816001600160a01b0302191690836001600160a01b031602179055508b600b60006101000a8154816001600160a01b0302191690836001600160a01b03160217905550876011819055508d601081905550886012819055507fb5a6a15c68a4ea4c68e5f0a092ebb1fb66348d576f36915719c20098c8d554c18e898d336040516133da949392919093845260208401929092526001600160a01b03908116604084015216606082015260800190565b60405180910390a150505050505050505050505050505050565b6009546001600160a01b0316331461340b57600080fd5b816c53504143455f464143544f525960981b0361344257600880546001600160a01b0319166001600160a01b0383161790556134a0565b816850455249504845525960b81b0361347557600780546001600160a01b0319166001600160a01b0383161790556134a0565b816427aba722a960d91b03611b4157600980546001600160a01b0319166001600160a01b0383161790555b604080518381526001600160a01b03831660208201527fa732c61ad32bf32bfbf84fe12f5118319c3e0ec6afbacae92623da0b037f112b9101611b94565b60065460011461351d5760405162461bcd60e51b815260206004820152600a6024820152695245454e5452414e435960b01b6044820152606401611b59565b60026006556001600160a01b037f000000000000000000000000000000000000000000000000000000000000000081169082160361355a57600080fd5b60105463ffffffff146135b657600b546001600160a01b038281169116148015906135935750600c546001600160a01b03828116911614155b80156135ad5750600d546001600160a01b03828116911614155b6135b657600080fd5b6040516370a0823160e01b8152306004820152613655907f0000000000000000000000000000000000000000000000000000000000000000906001600160a01b038416906370a0823190602401602060405180830381865afa158015613620573d6000803e3d6000fd5b505050506040513d601f19601f820116820180604052508101906136449190615574565b6001600160a01b0384169190613edb565b506001600655565b60105460009063fffffffe1901613677576109db82614cf4565b600d546001600160a01b031660008061368e613a71565b915091506000613791846001600160a01b0316638f1314b66040518163ffffffff1660e01b8152600401602060405180830381865afa1580156136d5573d6000803e3d6000fd5b505050506040513d601f19601f820116820180604052508101906136f99190615574565b8361378786868b7f00000000000000000000000000000000000000000000000000000000000000006001600160a01b031663226778496040518163ffffffff1660e01b8152600401602060405180830381865afa15801561375e573d6000803e3d6000fd5b505050506040513d601f19601f820116820180604052508101906137829190615574565b614b81565b61294d908a6155bb565b6040516370a0823160e01b81523060048201529091506000906001600160a01b037f000000000000000000000000000000000000000000000000000000000000000016906370a0823190602401602060405180830381865afa1580156137fb573d6000803e3d6000fd5b505050506040513d601f19601f8201168201806040525081019061381f9190615574565b600d546040516370a0823160e01b8152306004820152919250600091613897918a9186916001600160a01b0316906370a0823190602401602060405180830381865afa158015613873573d6000803e3d6000fd5b505050506040513d601f19601f8201168201806040525081019061294d9190615574565b905060006139456138d3611c917f0000000000000000000000000000000000000000000000000000000000000000670de0b6b3a76400006155bb565b600c546040516370a0823160e01b81523060048201526001600160a01b03909116906370a0823190602401602060405180830381865afa15801561391b573d6000803e3d6000fd5b505050506040513d601f19601f8201168201806040525081019061393f9190615574565b90614229565b90506139d8828461395682856155a3565b61396091906155a3565b6002546040516370a0823160e01b815230600482015261294d91906001600160a01b038d16906370a0823190602401602060405180830381865afa1580156139ac573d6000803e3d6000fd5b505050506040513d601f19601f820116820180604052508101906139d09190615574565b899190613e60565b9998505050505050505050565b600060405163095ea7b360e01b6000528360045282602452602060006044600080895af13d15601f3d1160016000511416171691506000606052806040525080610ecf5760405162461bcd60e51b815260206004820152600e60248201527f415050524f56455f4641494c45440000000000000000000000000000000000006044820152606401611b59565b60008060007f00000000000000000000000000000000000000000000000000000000000000006001600160a01b031663f94d4668600e546040518263ffffffff1660e01b8152600401613ac691815260200190565b600060405180830381865afa158015613ae3573d6000803e3d6000fd5b505050506040513d6000823e601f3d908101601f19168201604052613b0b9190810190615951565b5091505060006012549050818181518110613b2857613b28615767565b602002602001015182826001613b3e91906155bb565b81518110613b4e57613b4e615767565b60200260200101519350935050509091565b600254600d546040516370a0823160e01b81523060048201526000928392839283929183916001600160a01b03909116906370a0823190602401602060405180830381865afa158015613bb7573d6000803e3d6000fd5b505050506040513d601f19601f82011682018060405250810190613bdb9190615574565b90506000600d60009054906101000a90046001600160a01b03166001600160a01b0316638f1314b66040518163ffffffff1660e01b8152600401602060405180830381865afa158015613c32573d6000803e3d6000fd5b505050506040513d601f19601f82011682018060405250810190613c569190615574565b9050613d0c88613c67576000613cef565b6040516370a0823160e01b81523060048201527f00000000000000000000000000000000000000000000000000000000000000006001600160a01b0316906370a0823190602401602060405180830381865afa158015613ccb573d6000803e3d6000fd5b505050506040513d601f19601f82011682018060405250810190613cef9190615574565b613cfa848d85614cff565b613d0491906155a3565b8a9085613e60565b613da489613d1b576000613d87565b600c546040516370a0823160e01b81523060048201526001600160a01b03909116906370a0823190602401602060405180830381865afa158015613d63573d6000803e3d6000fd5b505050506040513d601f19601f82011682018060405250810190613d879190615574565b613d92858f86614cff565b613d9c91906155a3565b8b9086613e60565b600b546040516370a0823160e01b8152306004820152613e1a916001600160a01b0316906370a0823190602401602060405180830381865afa158015613dee573d6000803e3d6000fd5b505050506040513d601f19601f82011682018060405250810190613e129190615574565b8c9087613e60565b613e258c8688613e60565b929e919d509b50909950975050505050505050565b600061096d8383670de0b6b3a7640000613e60565b600061096d83670de0b6b3a7640000845b828202811515841585830485141716613e7857600080fd5b0492915050565b600254600090801561096b5761096681613e976105a6565b859190614cff565b600081831115613eaf578161096d565b5090919050565b6000600160ff1b8210613ec857600080fd5b5090565b600080821215613ec857600080fd5b600060405163a9059cbb60e01b6000528360045282602452602060006044600080895af13d15601f3d1160016000511416171691506000606052806040525080610ecf5760405162461bcd60e51b815260206004820152600f60248201527f5452414e534645525f4641494c454400000000000000000000000000000000006044820152606401611b59565b60007f8b73c3c69bb8fe3d512ecc4cf759cc79239f7b179b0ffacaa9a75d522b39400f6000604051613f999190615a1f565b6040805191829003822060208301939093528101919091527fc89efdaa54c0f20c7adf612882df0950f5a951637e0307cdcb4c672f298b8bc660608201524660808201523060a082015260c00160405160208183030381529060405280519060200120905090565b60006109db82610947565b604051638bdb391360e01b81526001600160a01b037f00000000000000000000000000000000000000000000000000000000000000001690638bdb39139061405e908590309081908790600401615b55565b600060405180830381600087803b15801561407857600080fd5b505af115801561408c573d6000803e3d6000fd5b505050505050565b600061409f8361365d565b9050806000036140df5760405162461bcd60e51b815260206004820152600b60248201526a5a45524f5f53484152455360a81b6044820152606401611b59565b6141146001600160a01b037f000000000000000000000000000000000000000000000000000000000000000016333086614aea565b61411e8282614d2d565b60408051848152602081018390526001600160a01b0384169133917fdcbc1c05240f31ff3ad067ef1ee35ce4997762752e3a095284754544f4c709d7910160405180910390a36109db8382614d91565b600061417983611c18565b90506141b06001600160a01b037f000000000000000000000000000000000000000000000000000000000000000016333084614aea565b6141ba8284614d2d565b60408051828152602081018590526001600160a01b0384169133917fdcbc1c05240f31ff3ad067ef1ee35ce4997762752e3a095284754544f4c709d7910160405180910390a36109db8184614d91565b600254600090801561096b576109666142216105a6565b849083614cff565b600061096d83670de0b6b3a764000084614cff565b6000614249846109e1565b9050336001600160a01b038316146142b9576001600160a01b038216600090815260046020908152604080832033845290915290205460001981146142b75761429282826155bb565b6001600160a01b03841660009081526004602090815260408083203384529091529020555b505b6142c384826151a0565b6142cd828261491e565b60408051858152602081018390526001600160a01b03808516929086169133917ffbde797d201c681b91056529119e0b02407c7bb96a4a2c75c01fc9667232c8db910160405180910390a461096d6001600160a01b037f0000000000000000000000000000000000000000000000000000000000000000168486613edb565b6000336001600160a01b038316146143bc576001600160a01b038216600090815260046020908152604080832033845290915290205460001981146143ba5761439585826155bb565b6001600160a01b03841660009081526004602090815260408083203384529091529020555b505b6143c58461101d565b9050806000036144055760405162461bcd60e51b815260206004820152600b60248201526a5a45524f5f41535345545360a81b6044820152606401611b59565b61440f81856151a0565b614419828561491e565b60408051828152602081018690526001600160a01b03808516929086169133917ffbde797d201c681b91056529119e0b02407c7bb96a4a2c75c01fc9667232c8db910160405180910390a461096d6001600160a01b037f0000000000000000000000000000000000000000000000000000000000000000168483613edb565b600254600d546040516370a0823160e01b815230600482015260009283929091839161451c916001600160a01b03909116906370a0823190602401602060405180830381865afa1580156144f0573d6000803e3d6000fd5b505050506040513d601f19601f820116820180604052508101906145149190615574565b869084613e60565b600c546040516370a0823160e01b81523060048201529192506000916001600160a01b03909116906370a0823190602401602060405180830381865afa15801561456a573d6000803e3d6000fd5b505050506040513d601f19601f8201168201806040525081019061458e9190615574565b9050600061459d878386613e60565b60408051600280825260608201835292935060009290916020830190803683370190505090507f00000000000000000000000000000000000000000000000000000000000000008160125460016145f491906155bb565b8151811061460457614604615767565b6001600160a01b039283166020918202929092010152600c54601254835191909216918391811061463757614637615767565b6001600160a01b0392909216602092830291909101820152600e5460408051608081018252848152815160028082526060820184526146999592938484019383019080368337019050508152602001876040516020016116b991815260200190565b600c546040516370a0823160e01b815230600482015284916001600160a01b0316906370a0823190602401602060405180830381865afa1580156146e1573d6000803e3d6000fd5b505050506040513d601f19601f820116820180604052508101906147059190615574565b61470f91906155bb565b61471990836155a3565b600b546040516370a0823160e01b8152306004820152919350600091614795916001600160a01b0316906370a0823190602401602060405180830381865afa158015614769573d6000803e3d6000fd5b505050506040513d601f19601f8201168201806040525081019061478d9190615574565b8a9088613e60565b90508083111561485e5760105460405163ba89bebd60e01b81526001600160a01b037f0000000000000000000000000000000000000000000000000000000000000000811660048301526024820192909252604481018390527f00000000000000000000000000000000000000000000000000000000000000009091169063ba89bebd90606401600060405180830381600087803b15801561483657600080fd5b505af115801561484a573d6000803e3d6000fd5b505050920398600198509650505050505050565b60105460405163ba89bebd60e01b81526001600160a01b037f0000000000000000000000000000000000000000000000000000000000000000811660048301526024820192909252604481018590527f00000000000000000000000000000000000000000000000000000000000000009091169063ba89bebd90606401600060405180830381600087803b1580156148f557600080fd5b505af1158015614909573d6000803e3d6000fd5b50505092900398600098509650505050505050565b6001600160a01b038216600090815260036020526040812080548392906149469084906155bb565b90915550506002805482900390556040518181526000906001600160a01b038416907fddf252ad1be2c89b69c2b068fc378daa952ba7f163c4a11628f55a4df523b3ef906020015b60405180910390a35050565b6001600160a01b0381166000908152600360205260408120546109db90610947565b600d5460135460105460408051631a5c2a4960e21b8152905160009485946001600160a01b039091169363f6b025ba93919290918a918a918a918891636970a9249160048083019260209291908290030181865afa158015614a22573d6000803e3d6000fd5b505050506040513d601f19601f82011682018060405250810190614a469190615574565b6040516001600160e01b031960e089901b1681526004810196909652602486019490945260448501929092526064840152608483015260a482015260c4016040805180830381865afa158015614aa0573d6000803e3d6000fd5b505050506040513d601f19601f82011682018060405250810190614ac4919061580d565b50905080851015614ade57614ad985826155bb565b614ae1565b60005b95945050505050565b60006040516323b872dd60e01b6000528460045283602452826044526020600060646000808a5af13d15601f3d1160016000511416171691506000606052806040525080614b7a5760405162461bcd60e51b815260206004820152601460248201527f5452414e534645525f46524f4d5f4641494c45440000000000000000000000006044820152606401611b59565b5050505050565b6000614ae1614bdb86614bca87611d13614bc37f0000000000000000000000000000000000000000000000000000000000000000670de0b6b3a76400006155bb565b8890613e3a565b614bd491906155a3565b8790614229565b849061530b565b60405163172b958560e31b81526001600160a01b037f0000000000000000000000000000000000000000000000000000000000000000169063b95cac289061405e908590309081908790600401615b55565b6040805160808101825230808252600060208301819052828401919091526060820181905291516352bbbe2960e01b815290917f00000000000000000000000000000000000000000000000000000000000000006001600160a01b0316916352bbbe2991614cac918691869160001990600401615b87565b6020604051808303816000875af1158015614ccb573d6000803e3d6000fd5b505050506040513d601f19601f82011682018060405250810190614cef9190615574565b505050565b60006109db826122c7565b828202811515841585830485141716614d1757600080fd5b6001826001830304018115150290509392505050565b8060026000828254614d3f91906155a3565b90915550506001600160a01b0382166000818152600360209081526040808320805486019055518481527fddf252ad1be2c89b69c2b068fc378daa952ba7f163c4a11628f55a4df523b3ef910161498e565b60105463ffffffff1461519c57600254600e54601254604051631f29a8cd60e31b81526004810183905260009081907f00000000000000000000000000000000000000000000000000000000000000006001600160a01b03169063f94d466890602401600060405180830381865afa158015614e11573d6000803e3d6000fd5b505050506040513d6000823e601f3d908101601f19168201604052614e399190810190615951565b506040516370a0823160e01b815230600482015291935091506000906001600160a01b037f000000000000000000000000000000000000000000000000000000000000000016906370a0823190602401602060405180830381865afa158015614ea6573d6000803e3d6000fd5b505050506040513d601f19601f82011682018060405250810190614eca9190615574565b90506000614ed888886155bb565b15614f8e57614f7f838681518110614ef257614ef2615767565b602002602001015184876001614f0891906155bb565b81518110614f1857614f18615767565b6020026020010151847f00000000000000000000000000000000000000000000000000000000000000006001600160a01b031663226778496040518163ffffffff1660e01b8152600401602060405180830381865afa15801561375e573d6000803e3d6000fd5b614f8990836155bb565b615034565b61503483614f9d8760016155bb565b81518110614fad57614fad615767565b6020026020010151600d60009054906101000a90046001600160a01b03166001600160a01b0316638f1314b66040518163ffffffff1660e01b8152600401602060405180830381865afa158015615008573d6000803e3d6000fd5b505050506040513d601f19601f8201168201806040525081019061502c9190615574565b8a9190614cff565b905080836150438760016155bb565b8151811061505357615053615767565b6020908102919091010152600061506a82846155bb565b1115615165577f00000000000000000000000000000000000000000000000000000000000000006001600160a01b031663dfe5ef487f000000000000000000000000000000000000000000000000000000000000000060105484866150cf91906155bb565b6040516001600160e01b031960e086901b1681526001600160a01b039093166004840152602483019190915260448201526064016020604051808303816000875af1158015615122573d6000803e3d6000fd5b505050506040513d601f19601f820116820180604052508101906151469190615574565b83868151811061515857615158615767565b6020026020010181815250505b6151948660405180608001604052808781526020018681526020018660006040516020016130da92919061586c565b505050505050505b5050565b60105463ffffffff1461519c576000806151b983614498565b915091507f00000000000000000000000000000000000000000000000000000000000000008210156151eb5750505050565b801561526a576040805160c081018252600e54815260006020808301829052600c546001600160a01b03908116848601527f0000000000000000000000000000000000000000000000000000000000000000166060840152608083018690528351908101909352825260a081019190915261526590614c34565b610ecf565b6007546010546040516358b5ee7f60e11b81526001600160a01b037f00000000000000000000000000000000000000000000000000000000000000008116600483015260248201929092526044810185905291169063b16bdcfe906064016020604051808303816000875af11580156152e7573d6000803e3d6000fd5b505050506040513d601f19601f82011682018060405250810190614b7a9190615574565b600061096d8383670de0b6b3a7640000614cff565b6000815180845260005b818110156153465760208185018101518683018201520161532a565b81811115615358576000602083870101525b50601f01601f19169290920160200192915050565b60208152600061096d6020830184615320565b60006020828403121561539257600080fd5b5035919050565b6001600160a01b03811681146153ae57600080fd5b50565b600080604083850312156153c457600080fd5b82356153cf81615399565b946020939093013593505050565b6000806000606084860312156153f257600080fd5b83356153fd81615399565b9250602084013561540d81615399565b929592945050506040919091013590565b60006020828403121561543057600080fd5b813561096d81615399565b6000806040838503121561544e57600080fd5b82359150602083013561546081615399565b809150509250929050565b6000806040838503121561547e57600080fd5b50508035926020909101359150565b6000806000606084860312156154a257600080fd5b8335925060208401356154b481615399565b915060408401356154c481615399565b809150509250925092565b600080600080600080600060e0888a0312156154ea57600080fd5b87356154f581615399565b9650602088013561550581615399565b95506040880135945060608801359350608088013560ff8116811461552957600080fd5b9699959850939692959460a0840135945060c09093013592915050565b6000806040838503121561555957600080fd5b823561556481615399565b9150602083013561546081615399565b60006020828403121561558657600080fd5b5051919050565b634e487b7160e01b600052601160045260246000fd5b600082198211156155b6576155b661558d565b500190565b6000828210156155cd576155cd61558d565b500390565b600181811c908216806155e657607f821691505b60208210810361560657634e487b7160e01b600052602260045260246000fd5b50919050565b60008083128015600160ff1b85018412161561562a5761562a61558d565b836001600160ff1b030183138116156156455761564561558d565b50500390565b60006001600160ff1b036000841360008413858304851182821616156156735761567361558d565b600160ff1b60008712828116878305891216156156925761569261558d565b600087129250878205871284841616156156ae576156ae61558d565b878505871281841616156156c4576156c461558d565b505050929093029392505050565b6000826156ef57634e487b7160e01b600052601260045260246000fd5b600160ff1b8214600019841416156157095761570961558d565b500590565b60008060006060848603121561572357600080fd5b835161572e81615399565b602085015190935061573f81615399565b80925050604084015190509250925092565b634e487b7160e01b600052604160045260246000fd5b634e487b7160e01b600052603260045260246000fd5b60006020828403121561578f57600080fd5b8151801515811461096d57600080fd5b600080604083850312156157b257600080fd5b82516157bd81615399565b602084015190925061546081615399565b600080600080608085870312156157e457600080fd5b84516157ef81615399565b60208601516040870151606090970151919890975090945092505050565b6000806040838503121561582057600080fd5b505080516020909101519092909150565b600081518084526020808501945080840160005b8381101561586157815187529582019590820190600101615845565b509495945050505050565b60408152600061587f6040830185615831565b905060ff831660208301529392505050565b604051601f8201601f1916810167ffffffffffffffff811182821017156158ba576158ba615751565b604052919050565b600067ffffffffffffffff8211156158dc576158dc615751565b5060051b60200190565b600082601f8301126158f757600080fd5b8151602061590c615907836158c2565b615891565b82815260059290921b8401810191818101908684111561592b57600080fd5b8286015b84811015615946578051835291830191830161592f565b509695505050505050565b60008060006060848603121561596657600080fd5b835167ffffffffffffffff8082111561597e57600080fd5b818601915086601f83011261599257600080fd5b815160206159a2615907836158c2565b82815260059290921b8401810191818101908a8411156159c157600080fd5b948201945b838610156159e85785516159d981615399565b825294820194908201906159c6565b91890151919750909350505080821115615a0157600080fd5b50615a0e868287016158e6565b925050604084015190509250925092565b600080835481600182811c915080831680615a3b57607f831692505b60208084108203615a5a57634e487b7160e01b86526022600452602486fd5b818015615a6e5760018114615a8357615ab0565b60ff1986168952841515850289019650615ab0565b60008a81526020902060005b86811015615aa85781548b820152908501908301615a8f565b505084890196505b509498975050505050505050565b8051608080845281519084018190526000916020919082019060a0860190845b81811015615b035783516001600160a01b031683529284019291840191600101615ade565b505082850151915085810383870152615b1c8183615831565b9250505060408301518482036040860152615b378282615320565b9150506060830151615b4d606086018215159052565b509392505050565b84815260006001600160a01b03808616602084015280851660408401525060806060830152611d356080830184615abe565b60e08152845160e08201526000602086015160028110615bb757634e487b7160e01b600052602160045260246000fd5b61010083015260408601516001600160a01b03166101208301526060860151615bec6101408401826001600160a01b03169052565b50608086015161016083015260a086015160c0610180840152615c136101a0840182615320565b915050615c5560208301866001600160a01b03808251168352602082015115156020840152806040830151166040840152506060810151151560608301525050565b60a082019390935260c001529291505056fea26469706673582212208a9a08e9c53ca1a91271fcaf70157938bc8ac832a2d22b4ece97e8f44fc91b8464736f6c634300080f0033",
  "devdoc": {
    "kind": "dev",
    "methods": {
      "getCreationCode()": {
        "details": "Returns the creation code of the contract this factory creates."
      },
      "getCreationCodeContracts()": {
        "details": "Returns the two addresses where the creation code of the contract created by this factory is stored."
      },
      "setPeriphery(address)": {
        "params": {
          "newPeriphery": "The Periphery addresss to set"
        }
      },
      "setRollerPeriphery(address)": {
        "params": {
          "newRollerPeriphery": "The Roller Periphery addresss to set"
        }
      },
      "setUtils(address)": {
        "params": {
          "newUtils": "The Utils addresss to set"
        }
      }
    },
    "version": 1
  },
  "userdoc": {
    "kind": "user",
    "methods": {
      "setPeriphery(address)": {
        "notice": "Update the address for the Periphery"
      },
      "setRollerPeriphery(address)": {
        "notice": "Update the address for the Roller Periphery"
      },
      "setUtils(address)": {
        "notice": "Update the address for the Utils"
      }
    },
    "version": 1
  },
  "storageLayout": {
    "storage": [
      {
        "astId": 20673,
        "contract": "lib/auto-roller/src/AutoRollerFactory.sol:AutoRollerFactory",
        "label": "isTrusted",
        "offset": 0,
        "slot": "0",
        "type": "t_mapping(t_address,t_bool)"
      },
      {
        "astId": 24326,
        "contract": "lib/auto-roller/src/AutoRollerFactory.sol:AutoRollerFactory",
        "label": "periphery",
        "offset": 0,
        "slot": "1",
        "type": "t_contract(PeripheryLike)21140"
      },
      {
        "astId": 24329,
        "contract": "lib/auto-roller/src/AutoRollerFactory.sol:AutoRollerFactory",
        "label": "rollerPeriphery",
        "offset": 0,
        "slot": "2",
        "type": "t_contract(RollerPeripheryLike)24312"
      },
      {
        "astId": 24332,
        "contract": "lib/auto-roller/src/AutoRollerFactory.sol:AutoRollerFactory",
        "label": "utils",
        "offset": 0,
        "slot": "3",
        "type": "t_contract(RollerUtils)24289"
      },
      {
        "astId": 24338,
        "contract": "lib/auto-roller/src/AutoRollerFactory.sol:AutoRollerFactory",
        "label": "rollers",
        "offset": 0,
        "slot": "4",
        "type": "t_mapping(t_address,t_array(t_contract(AutoRoller)24052)dyn_storage)"
      }
    ],
    "types": {
      "t_address": {
        "encoding": "inplace",
        "label": "address",
        "numberOfBytes": "20"
      },
      "t_array(t_contract(AutoRoller)24052)dyn_storage": {
        "base": "t_contract(AutoRoller)24052",
        "encoding": "dynamic_array",
        "label": "contract AutoRoller[]",
        "numberOfBytes": "32"
      },
      "t_bool": {
        "encoding": "inplace",
        "label": "bool",
        "numberOfBytes": "1"
      },
      "t_contract(AutoRoller)24052": {
        "encoding": "inplace",
        "label": "contract AutoRoller",
        "numberOfBytes": "20"
      },
      "t_contract(PeripheryLike)21140": {
        "encoding": "inplace",
        "label": "contract PeripheryLike",
        "numberOfBytes": "20"
      },
      "t_contract(RollerPeripheryLike)24312": {
        "encoding": "inplace",
        "label": "contract RollerPeripheryLike",
        "numberOfBytes": "20"
      },
      "t_contract(RollerUtils)24289": {
        "encoding": "inplace",
        "label": "contract RollerUtils",
        "numberOfBytes": "20"
      },
      "t_mapping(t_address,t_array(t_contract(AutoRoller)24052)dyn_storage)": {
        "encoding": "mapping",
        "key": "t_address",
        "label": "mapping(address => contract AutoRoller[])",
        "numberOfBytes": "32",
        "value": "t_array(t_contract(AutoRoller)24052)dyn_storage"
      },
      "t_mapping(t_address,t_bool)": {
        "encoding": "mapping",
        "key": "t_address",
        "label": "mapping(address => bool)",
        "numberOfBytes": "32",
        "value": "t_bool"
      }
    }
  }
}