{
  "address": "0x60cD94a921C651723AFcbA8030951F2EB3Ca572a",
  "abi": [
    {
      "inputs": [
        {
          "internalType": "address",
          "name": "_divider",
          "type": "address"
        },
        {
          "internalType": "address",
          "name": "_restrictedAdmin",
          "type": "address"
        },
        {
          "internalType": "address",
          "name": "_rewardsRecipient",
          "type": "address"
        },
        {
          "components": [
            {
              "internalType": "address",
              "name": "oracle",
              "type": "address"
            },
            {
              "internalType": "address",
              "name": "stake",
              "type": "address"
            },
            {
              "internalType": "uint256",
              "name": "stakeSize",
              "type": "uint256"
            },
            {
              "internalType": "uint256",
              "name": "minm",
              "type": "uint256"
            },
            {
              "internalType": "uint256",
              "name": "maxm",
              "type": "uint256"
            },
            {
              "internalType": "uint128",
              "name": "ifee",
              "type": "uint128"
            },
            {
              "internalType": "uint16",
              "name": "mode",
              "type": "uint16"
            },
            {
              "internalType": "uint64",
              "name": "tilt",
              "type": "uint64"
            },
            {
              "internalType": "uint256",
              "name": "guard",
              "type": "uint256"
            }
          ],
          "internalType": "struct BaseFactory.FactoryParams",
          "name": "_factoryParams",
          "type": "tuple"
        },
        {
          "internalType": "address",
          "name": "_rlvFactory",
          "type": "address"
        }
      ],
      "stateMutability": "nonpayable",
      "type": "constructor"
    },
    {
      "inputs": [],
      "name": "InvalidPrice",
      "type": "error"
    },
    {
      "inputs": [],
      "name": "OnlyPeriphery",
      "type": "error"
    },
    {
      "inputs": [],
      "name": "TargetNotSupported",
      "type": "error"
    },
    {
      "anonymous": false,
      "inputs": [
        {
          "indexed": true,
          "internalType": "address",
          "name": "oldAdmin",
          "type": "address"
        },
        {
          "indexed": true,
          "internalType": "address",
          "name": "newAdmin",
          "type": "address"
        }
      ],
      "name": "RestrictedAdminChanged",
      "type": "event"
    },
    {
      "anonymous": false,
      "inputs": [
        {
          "indexed": true,
          "internalType": "address",
          "name": "oldRecipient",
          "type": "address"
        },
        {
          "indexed": true,
          "internalType": "address",
          "name": "newRecipient",
          "type": "address"
        }
      ],
      "name": "RewardsRecipientChanged",
      "type": "event"
    },
    {
      "anonymous": false,
      "inputs": [
        {
          "indexed": true,
          "internalType": "address",
          "name": "rlvFactory",
          "type": "address"
        }
      ],
      "name": "RlvFactoryChanged",
      "type": "event"
    },
    {
      "anonymous": false,
      "inputs": [
        {
          "indexed": true,
          "internalType": "address",
          "name": "target",
          "type": "address"
        },
        {
          "indexed": true,
          "internalType": "bool",
          "name": "supported",
          "type": "bool"
        }
      ],
      "name": "TargetSupported",
      "type": "event"
    },
    {
      "anonymous": false,
      "inputs": [
        {
          "indexed": true,
          "internalType": "address",
          "name": "user",
          "type": "address"
        },
        {
          "indexed": false,
          "internalType": "bool",
          "name": "trusted",
          "type": "bool"
        }
      ],
      "name": "UserTrustUpdated",
      "type": "event"
    },
    {
      "inputs": [],
      "name": "DEFAULT_LEVEL",
      "outputs": [
        {
          "internalType": "uint48",
          "name": "",
          "type": "uint48"
        }
      ],
      "stateMutability": "view",
      "type": "function"
    },
    {
      "inputs": [],
      "name": "ETH_USD_PRICEFEED",
      "outputs": [
        {
          "internalType": "address",
          "name": "",
          "type": "address"
        }
      ],
      "stateMutability": "view",
      "type": "function"
    },
    {
      "inputs": [
        {
          "internalType": "address",
          "name": "_target",
          "type": "address"
        },
        {
          "internalType": "bytes",
          "name": "data",
          "type": "bytes"
        }
      ],
      "name": "deployAdapter",
      "outputs": [
        {
          "internalType": "address",
          "name": "adapter",
          "type": "address"
        }
      ],
      "stateMutability": "nonpayable",
      "type": "function"
    },
    {
      "inputs": [],
      "name": "divider",
      "outputs": [
        {
          "internalType": "address",
          "name": "",
          "type": "address"
        }
      ],
      "stateMutability": "view",
      "type": "function"
    },
    {
      "inputs": [],
      "name": "factoryParams",
      "outputs": [
        {
          "internalType": "address",
          "name": "oracle",
          "type": "address"
        },
        {
          "internalType": "address",
          "name": "stake",
          "type": "address"
        },
        {
          "internalType": "uint256",
          "name": "stakeSize",
          "type": "uint256"
        },
        {
          "internalType": "uint256",
          "name": "minm",
          "type": "uint256"
        },
        {
          "internalType": "uint256",
          "name": "maxm",
          "type": "uint256"
        },
        {
          "internalType": "uint128",
          "name": "ifee",
          "type": "uint128"
        },
        {
          "internalType": "uint16",
          "name": "mode",
          "type": "uint16"
        },
        {
          "internalType": "uint64",
          "name": "tilt",
          "type": "uint64"
        },
        {
          "internalType": "uint256",
          "name": "guard",
          "type": "uint256"
        }
      ],
      "stateMutability": "view",
      "type": "function"
    },
    {
      "inputs": [
        {
          "internalType": "address",
          "name": "",
          "type": "address"
        }
      ],
      "name": "isTrusted",
      "outputs": [
        {
          "internalType": "bool",
          "name": "",
          "type": "bool"
        }
      ],
      "stateMutability": "view",
      "type": "function"
    },
    {
      "inputs": [],
      "name": "restrictedAdmin",
      "outputs": [
        {
          "internalType": "address",
          "name": "",
          "type": "address"
        }
      ],
      "stateMutability": "view",
      "type": "function"
    },
    {
      "inputs": [],
      "name": "rewardsRecipient",
      "outputs": [
        {
          "internalType": "address",
          "name": "",
          "type": "address"
        }
      ],
      "stateMutability": "view",
      "type": "function"
    },
    {
      "inputs": [],
      "name": "rlvFactory",
      "outputs": [
        {
          "internalType": "address",
          "name": "",
          "type": "address"
        }
      ],
      "stateMutability": "view",
      "type": "function"
    },
    {
      "inputs": [
        {
          "internalType": "address",
          "name": "user",
          "type": "address"
        },
        {
          "internalType": "bool",
          "name": "trusted",
          "type": "bool"
        }
      ],
      "name": "setIsTrusted",
      "outputs": [],
      "stateMutability": "nonpayable",
      "type": "function"
    },
    {
      "inputs": [
        {
          "internalType": "address",
          "name": "_restrictedAdmin",
          "type": "address"
        }
      ],
      "name": "setRestrictedAdmin",
      "outputs": [],
      "stateMutability": "nonpayable",
      "type": "function"
    },
    {
      "inputs": [
        {
          "internalType": "address",
          "name": "_recipient",
          "type": "address"
        }
      ],
      "name": "setRewardsRecipient",
      "outputs": [],
      "stateMutability": "nonpayable",
      "type": "function"
    },
    {
      "inputs": [
        {
          "internalType": "address",
          "name": "_rlvFactory",
          "type": "address"
        }
      ],
      "name": "setRlvFactory",
      "outputs": [],
      "stateMutability": "nonpayable",
      "type": "function"
    },
    {
      "inputs": [
        {
          "internalType": "address",
          "name": "_target",
          "type": "address"
        },
        {
          "internalType": "bool",
          "name": "supported",
          "type": "bool"
        }
      ],
      "name": "supportTarget",
      "outputs": [],
      "stateMutability": "nonpayable",
      "type": "function"
    },
    {
      "inputs": [
        {
          "internalType": "address[]",
          "name": "_targets",
          "type": "address[]"
        },
        {
          "internalType": "bool",
          "name": "supported",
          "type": "bool"
        }
      ],
      "name": "supportTargets",
      "outputs": [],
      "stateMutability": "nonpayable",
      "type": "function"
    },
    {
      "inputs": [
        {
          "internalType": "address",
          "name": "",
          "type": "address"
        }
      ],
      "name": "supportedTargets",
      "outputs": [
        {
          "internalType": "bool",
          "name": "",
          "type": "bool"
        }
      ],
      "stateMutability": "view",
      "type": "function"
    }
  ],
  "transactionHash": "0x286082862c523095265abc1147e7ee93cce162b45ea94506f665ea6483a380bd",
  "args": [
    "0x86bA3E96Be68563E41c2f5769F1AF9fAf758e6E0",
    "0xDd76360C26Eaf63AFCF3a8d2c0121F13AE864D57",
    "0xDd76360C26Eaf63AFCF3a8d2c0121F13AE864D57",
    [
      "0x11D341d35BF95654BC7A9db59DBc557cCB4ea101",
      "0xC02aaA39b223FE8D0A0e5C4F27eAD9083C756Cc2",
      "250000000000000000",
      "2629800",
      "315576000",
      "500000000000000",
      0,
      0,
      "100000000000000000000000"
    ],
    "0x3b0f35bdd6da9e3b8513c58af8fdf231f60232e5"
  ],
  "numDeployments": 1,
  "solcInputHash": "759d0c56916f5da6d6dc3899b2a40c2f",
  "bytecode": "0x60a06040523480156200001157600080fd5b50604051620039a1380380620039a183398101604081905262000034916200022d565b3360008181526020818152604091829020805460ff19166001908117909155915191825287928792879287928692869286928692909182917fe95aec380cae16330d146d5499ef7db6f3657e477104a733e771bc09e500d986910160405180910390a2506001600160a01b039384166080908152600180549486166001600160a01b03199586161790556002805493861693851693909317909255805160038054918616918516919091179055602081015160048054918616918516919091179055604081015160055560608101516006559081015160075560a08101516008805460c084015160e08501516001600160401b0316600160901b02600160901b600160d01b031961ffff909216600160801b026001600160901b03199093166001600160801b039095169490941791909117169190911790556101000151600955600b805497909216961695909517909455506200033a9650505050505050565b80516001600160a01b0381168114620001ad57600080fd5b919050565b60405161012081016001600160401b0381118282101715620001e457634e487b7160e01b600052604160045260246000fd5b60405290565b80516001600160801b0381168114620001ad57600080fd5b805161ffff81168114620001ad57600080fd5b80516001600160401b0381168114620001ad57600080fd5b60008060008060008587036101a08112156200024857600080fd5b620002538762000195565b9550620002636020880162000195565b9450620002736040880162000195565b935061012080605f19830112156200028a57600080fd5b62000294620001b2565b9150620002a46060890162000195565b8252620002b46080890162000195565b602083015260a0880151604083015260c0880151606083015260e08801516080830152610100620002e7818a01620001ea565b60a0840152620002f9828a0162000202565b60c08401526200030d6101408a0162000215565b60e0840152610160890151908301525091506200032e610180870162000195565b90509295509295909350565b6080516136286200037960003960008181610198015281816105920152818161063f0152818161079501528181610b550152610d8501526136286000f3fe60806040523480156200001157600080fd5b5060043610620001155760003560e01c806393d4750c11620000a3578063cac0e3c2116200006e578063cac0e3c2146200032e578063dc69c06f1462000345578063f67359ea146200036b578063ff2a7d30146200038257600080fd5b806393d4750c146200020157806395a39fb1146200022257806396d648791462000239578063bbe451d5146200027057600080fd5b8063378efa3711620000e4578063378efa3714620001925780633cad2dcd14620001ba57806340cc63e114620001d157806358fdac3514620001ed57600080fd5b80630c1b7979146200011a5780631393916a146200014b57806318a85cee14620001645780631a54259c146200017b575b600080fd5b6001546200012e906001600160a01b031681565b6040516001600160a01b0390911681526020015b60405180910390f35b620001626200015c36600462000fc1565b62000396565b005b620001626200017536600462000fff565b62000444565b620001626200018c36600462000fff565b620004db565b6200012e7f000000000000000000000000000000000000000000000000000000000000000081565b6200012e620001cb36600462001070565b62000584565b6200012e735f4ec3df9cbd43714fe2740f5e3616155c5b841981565b600b546200012e906001600160a01b031681565b6200020a601f81565b60405165ffffffffffff909116815260200162000142565b620001626200023336600462001123565b620008e7565b6200025f6200024a36600462000fff565b60006020819052908152604090205460ff1681565b604051901515815260200162000142565b600354600454600554600654600754600854600954620002c7966001600160a01b039081169616949392916001600160801b03811691600160801b820461ffff1691600160901b900467ffffffffffffffff169089565b604080516001600160a01b039a8b1681529990981660208a015296880195909552606087019390935260808601919091526001600160801b031660a085015261ffff1660c084015267ffffffffffffffff1660e08301526101008201526101200162000142565b620001626200033f36600462000fc1565b62000a09565b6200025f6200035636600462000fff565b600a6020526000908152604090205460ff1681565b620001626200037c36600462000fff565b62000aaa565b6002546200012e906001600160a01b031681565b3360009081526020819052604090205460ff16620003e75760405162461bcd60e51b8152602060048201526009602482015268155395149554d5115160ba1b60448201526064015b60405180910390fd5b6001600160a01b03821660008181526020818152604091829020805460ff191685151590811790915591519182527fe95aec380cae16330d146d5499ef7db6f3657e477104a733e771bc09e500d986910160405180910390a25050565b3360009081526020819052604090205460ff16620004915760405162461bcd60e51b8152602060048201526009602482015268155395149554d5115160ba1b6044820152606401620003de565b600b80546001600160a01b0319166001600160a01b0383169081179091556040517faf0375a607cbd4b5dc85497face63eb09a3dbe35af7003230bc31d0edd14eeaa90600090a250565b3360009081526020819052604090205460ff16620005285760405162461bcd60e51b8152602060048201526009602482015268155395149554d5115160ba1b6044820152606401620003de565b6002546040516001600160a01b038084169216907f952c654458751f95c1440bdb1537809137b3de28466b80ad096a711707ae987a90600090a3600280546001600160a01b0319166001600160a01b0392909216919091179055565b6000336001600160a01b03167f00000000000000000000000000000000000000000000000000000000000000006001600160a01b03166377aace1a6040518163ffffffff1660e01b8152600401602060405180830381865afa158015620005ef573d6000803e3d6000fd5b505050506040513d601f19601f82011682018060405250810190620006159190620011f6565b6001600160a01b0316146200063d5760405163fb02114960e01b815260040160405180910390fd5b7f00000000000000000000000000000000000000000000000000000000000000006001600160a01b031663a1256f9f6040518163ffffffff1660e01b8152600401602060405180830381865afa1580156200069c573d6000803e3d6000fd5b505050506040513d601f19601f82011682018060405250810190620006c2919062001216565b158015620006e957506001600160a01b0383166000908152600a602052604090205460ff16155b156200070857604051635154a56760e11b815260040160405180910390fd5b60408051610100810182526003546001600160a01b03908116825260045481166020830152600554828401526006546060808401919091526007546080840152600854600160901b810467ffffffffffffffff1660a0850152601f60c0850152600160801b810461ffff1660e0850152600254945193949188901b6bffffffffffffffffffffffff1916937f000000000000000000000000000000000000000000000000000000000000000093899316916001600160801b0316908690620007d09062000f7c565b620007e095949392919062001236565b8190604051809103906000f590508015801562000801573d6000803e3d6000fd5b5091506200080f8262000b53565b600b546040516309c9c8b560e11b81526001600160a01b0391821660048201526001602482015290831690631393916a90604401600060405180830381600087803b1580156200085e57600080fd5b505af115801562000873573d6000803e3d6000fd5b5050600180546040516309c9c8b560e11b81526001600160a01b039182166004820152602481019290925285169250631393916a9150604401600060405180830381600087803b158015620008c757600080fd5b505af1158015620008dc573d6000803e3d6000fd5b505050505092915050565b3360009081526020819052604090205460ff16620009345760405162461bcd60e51b8152602060048201526009602482015268155395149554d5115160ba1b6044820152606401620003de565b60005b825181101562000a045781600a60008584815181106200095b576200095b620012ec565b60200260200101516001600160a01b03166001600160a01b0316815260200190815260200160002060006101000a81548160ff021916908315150217905550811515838281518110620009b257620009b2620012ec565b60200260200101516001600160a01b03167f34465fae8b1f082faa1eb1845b34c2bfd6b86cc48df2ebf6426eeddd7e3a4c9a60405160405180910390a380620009fb8162001318565b91505062000937565b505050565b3360009081526020819052604090205460ff1662000a565760405162461bcd60e51b8152602060048201526009602482015268155395149554d5115160ba1b6044820152606401620003de565b6001600160a01b0382166000818152600a6020526040808220805460ff191685151590811790915590519092917f34465fae8b1f082faa1eb1845b34c2bfd6b86cc48df2ebf6426eeddd7e3a4c9a91a35050565b3360009081526020819052604090205460ff1662000af75760405162461bcd60e51b8152602060048201526009602482015268155395149554d5115160ba1b6044820152606401620003de565b6001546040516001600160a01b038084169216907fb656925e78f8f28c65d9357077dfd5d3d0056d5eac98c8c1a1e0b426ffd43d4a90600090a3600180546001600160a01b0319166001600160a01b0392909216919091179055565b7f00000000000000000000000000000000000000000000000000000000000000006001600160a01b03166372f7a0306040518163ffffffff1660e01b8152600401602060405180830381865afa15801562000bb2573d6000803e3d6000fd5b505050506040513d601f19601f8201168201806040525081019062000bd8919062001216565b1562000f18576000819050806001600160a01b031663468f02d26040518163ffffffff1660e01b8152600401602060405180830381865afa92505050801562000c40575060408051601f3d908101601f1916820190925262000c3d9181019062001334565b60015b1562000f1657600080735f4ec3df9cbd43714fe2740f5e3616155c5b84196001600160a01b031663feaf968c6040518163ffffffff1660e01b815260040160a060405180830381865afa15801562000c9c573d6000803e3d6000fd5b505050506040513d601f19601f8201168201806040525081019062000cc2919062001369565b50935050925050611c20814262000cda9190620013be565b111562000cf95760405162bfc92160e01b815260040160405180910390fd5b600062000d0c84846305f5e10062000f1b565b905062000d8181866001600160a01b031663f51e181a6040518163ffffffff1660e01b81526004016020604051808303816000875af115801562000d54573d6000803e3d6000fd5b505050506040513d601f19601f8201168201806040525081019062000d7a919062001334565b9062000f32565b90507f00000000000000000000000000000000000000000000000000000000000000006001600160a01b0316635fa0cc0a8762000e9984896001600160a01b031663d4b839926040518163ffffffff1660e01b8152600401602060405180830381865afa15801562000df7573d6000803e3d6000fd5b505050506040513d601f19601f8201168201806040525081019062000e1d9190620011f6565b6001600160a01b031663313ce5676040518163ffffffff1660e01b8152600401602060405180830381865afa15801562000e5b573d6000803e3d6000fd5b505050506040513d601f19601f8201168201806040525081019062000e81919062001334565b62000e8e90600a620014d5565b600954919062000f52565b6040517fffffffff0000000000000000000000000000000000000000000000000000000060e085901b1681526001600160a01b0390921660048301526024820152604401600060405180830381600087803b15801562000ef857600080fd5b505af115801562000f0d573d6000803e3d6000fd5b50505050505050505b505b50565b600062000f2a84848462000f5c565b949350505050565b600062000f498383670de0b6b3a764000062000f5c565b90505b92915050565b600062000f2a8483855b82820281151584158583048514171662000f7557600080fd5b0492915050565b61210f80620014e483390190565b6001600160a01b038116811462000f1857600080fd5b801515811462000f1857600080fd5b803562000fbc8162000fa0565b919050565b6000806040838503121562000fd557600080fd5b823562000fe28162000f8a565b9150602083013562000ff48162000fa0565b809150509250929050565b6000602082840312156200101257600080fd5b81356200101f8162000f8a565b9392505050565b634e487b7160e01b600052604160045260246000fd5b604051601f8201601f1916810167ffffffffffffffff8111828210171562001068576200106862001026565b604052919050565b600080604083850312156200108457600080fd5b8235620010918162000f8a565b915060208381013567ffffffffffffffff80821115620010b057600080fd5b818601915086601f830112620010c557600080fd5b813581811115620010da57620010da62001026565b620010ee601f8201601f191685016200103c565b915080825287848285010111156200110557600080fd5b80848401858401376000848284010152508093505050509250929050565b600080604083850312156200113757600080fd5b823567ffffffffffffffff808211156200115057600080fd5b818501915085601f8301126200116557600080fd5b81356020828211156200117c576200117c62001026565b8160051b92506200118f8184016200103c565b8281529284018101928181019089851115620011aa57600080fd5b948201945b84861015620011d85785359350620011c78462000f8a565b8382529482019490820190620011af565b9650620011e9905087820162000faf565b9450505050509250929050565b6000602082840312156200120957600080fd5b81516200101f8162000f8a565b6000602082840312156200122957600080fd5b81516200101f8162000fa0565b6000610180820190506001600160a01b038088168352808716602084015280861660408401526001600160801b03851660608401528084511660808401528060208501511660a084015250604083015160c0830152606083015160e0830152608083015161010083015267ffffffffffffffff60a08401511661012083015260c0830151620012d061014084018265ffffffffffff169052565b5060e083015161ffff8116610160840152509695505050505050565b634e487b7160e01b600052603260045260246000fd5b634e487b7160e01b600052601160045260246000fd5b6000600182016200132d576200132d62001302565b5060010190565b6000602082840312156200134757600080fd5b5051919050565b805169ffffffffffffffffffff8116811462000fbc57600080fd5b600080600080600060a086880312156200138257600080fd5b6200138d866200134e565b9450602086015193506040860151925060608601519150620013b2608087016200134e565b90509295509295909350565b600082821015620013d357620013d362001302565b500390565b600181815b8085111562001419578160001904821115620013fd57620013fd62001302565b808516156200140b57918102915b93841c9390800290620013dd565b509250929050565b600082620014325750600162000f4c565b81620014415750600062000f4c565b81600181146200145a5760028114620014655762001485565b600191505062000f4c565b60ff84111562001479576200147962001302565b50506001821b62000f4c565b5060208310610133831016604e8410600b8410161715620014aa575081810a62000f4c565b620014b68383620013d8565b8060001904821115620014cd57620014cd62001302565b029392505050565b600062000f4983836200142156fe6101406040526001600a553480156200001757600080fd5b506040516200210f3803806200210f8339810160408190526200003a9162000600565b848484848482338686876001600160a01b03166338d52e0f6040518163ffffffff1660e01b8152600401602060405180830381865afa15801562000082573d6000803e3d6000fd5b505050506040513d601f19601f82011682018060405250810190620000a891906200071a565b6001600160a01b03808416608090815283821660a081815284841660c09081526001600160801b038c1660e09081528b51600080549188166001600160a01b031992831617815560208e015160018054919099169216919091179096556040808d015160025560608d0151600355948c01516004908155928c015160058054938e0151928e015161ffff16600160701b0261ffff60701b1965ffffffffffff90941668010000000000000000026001600160701b03199095166001600160401b0390931692909217939093179190911617905582516306fdde0360e01b815292518b948b946306fdde039381810193918290030181865afa158015620001b2573d6000803e3d6000fd5b505050506040513d6000823e601f3d908101601f19168201604052620001dc919081019062000770565b604051602001620001ee919062000828565b604051602081830303815290604052600690816200020d9190620008e5565b50836001600160a01b03166395d89b416040518163ffffffff1660e01b8152600401600060405180830381865afa1580156200024d573d6000803e3d6000fd5b505050506040513d6000823e601f3d908101601f1916820160405262000277919081019062000770565b604051602001620002899190620009b1565b60405160208183030381529060405260079081620002a89190620008e5565b50620002d2608051600019866001600160a01b0316620004c960201b62000fac179092919060201c565b620002ff60805160001983602001516001600160a01b0316620004c960201b62000fac179092919060201c565b505050506001600160a01b038216600081815260086020908152604091829020805460ff1916600190811790915591519182529192507fe95aec380cae16330d146d5499ef7db6f3657e477104a733e771bc09e500d986910160405180910390a25080600960006101000a8154816001600160a01b0302191690836001600160a01b031602179055505060a0516001600160a01b031663313ce5676040518163ffffffff1660e01b8152600401602060405180830381865afa158015620003ca573d6000803e3d6000fd5b505050506040513d601f19601f82011682018060405250810190620003f09190620009df565b620003fd90600a62000b19565b610100818152505060c0516001600160a01b031663313ce5676040518163ffffffff1660e01b8152600401602060405180830381865afa15801562000446573d6000803e3d6000fd5b505050506040513d601f19601f820116820180604052508101906200046c9190620009df565b6200047990601262000b2a565b6200048690600a62000b19565b6101208181525050620004b960a05160001960c0516001600160a01b0316620004c960201b62000fac179092919060201c565b5050505050505050505062000b50565b600060405163095ea7b360e01b6000528360045282602452602060006044600080895af13d15601f3d11600160005114161716915060006060528060405250806200054b5760405162461bcd60e51b815260206004820152600e60248201526d1054141493d59157d1905253115160921b604482015260640160405180910390fd5b50505050565b6001600160a01b03811681146200056757600080fd5b50565b8051620005778162000551565b919050565b634e487b7160e01b600052604160045260246000fd5b60405161010081016001600160401b0381118282101715620005b857620005b86200057c565b60405290565b80516001600160401b03811681146200057757600080fd5b805165ffffffffffff811681146200057757600080fd5b805161ffff811681146200057757600080fd5b60008060008060008587036101808112156200061b57600080fd5b8651620006288162000551565b60208801519096506200063b8162000551565b60408801519095506200064e8162000551565b60608801519094506001600160801b03811681146200066c57600080fd5b9250610100607f1982018113156200068357600080fd5b6200068d62000592565b915060808801516200069f8162000551565b8252620006af60a089016200056a565b602083015260c0880151604083015260e088015160608301528701516080820152620006df6101208801620005be565b60a0820152620006f36101408801620005d6565b60c0820152620007076101608801620005ed565b60e0820152809150509295509295909350565b6000602082840312156200072d57600080fd5b81516200073a8162000551565b9392505050565b60005b838110156200075e57818101518382015260200162000744565b838111156200054b5750506000910152565b6000602082840312156200078357600080fd5b81516001600160401b03808211156200079b57600080fd5b818401915084601f830112620007b057600080fd5b815181811115620007c557620007c56200057c565b604051601f8201601f19908116603f01168101908382118183101715620007f057620007f06200057c565b816040528281528760208487010111156200080a57600080fd5b6200081d83602083016020880162000741565b979650505050505050565b600082516200083c81846020870162000741565b671020b230b83a32b960c11b920191825250600801919050565b600181811c908216806200086b57607f821691505b6020821081036200088c57634e487b7160e01b600052602260045260246000fd5b50919050565b601f821115620008e057600081815260208120601f850160051c81016020861015620008bb5750805b601f850160051c820191505b81811015620008dc57828155600101620008c7565b5050505b505050565b81516001600160401b038111156200090157620009016200057c565b620009198162000912845462000856565b8462000892565b602080601f831160018114620009515760008415620009385750858301515b600019600386901b1c1916600185901b178555620008dc565b600085815260208120601f198616915b82811015620009825788860151825594840194600190910190840162000961565b5085821015620009a15787850151600019600388901b60f8161c191681555b5050505050600190811b01905550565b60008251620009c581846020870162000741565b6716b0b230b83a32b960c11b920191825250600801919050565b600060208284031215620009f257600080fd5b815160ff811681146200073a57600080fd5b634e487b7160e01b600052601160045260246000fd5b600181815b8085111562000a5b57816000190482111562000a3f5762000a3f62000a04565b8085161562000a4d57918102915b93841c939080029062000a1f565b509250929050565b60008262000a745750600162000b13565b8162000a835750600062000b13565b816001811462000a9c576002811462000aa75762000ac7565b600191505062000b13565b60ff84111562000abb5762000abb62000a04565b50506001821b62000b13565b5060208310610133831016604e8410600b841016171562000aec575081810a62000b13565b62000af8838362000a1a565b806000190482111562000b0f5762000b0f62000a04565b0290505b92915050565b60006200073a60ff84168362000a63565b600060ff821660ff84168082101562000b475762000b4762000a04565b90039392505050565b60805160a05160c05160e051610100516101205161150d62000c026000396000818161057d01526108300152600081816105560152610807015260006104fc015260008181610454015281816109ac0152610a5401526000818161032b015281816105a40152818161085a01528181610a9801528181610b3a01528181610c3301528181610c8301528181610d4501528181610f53015261115f0152600081816103810152610b7f015261150d6000f3fe608060405234801561001057600080fd5b50600436106101f05760003560e01c806364c56e3c1161010f578063c39a3b29116100a2578063d9d98ce411610071578063d9d98ce4146105c6578063f51e181a14610301578063f60c05ce146105d9578063ff2a7d30146105f457600080fd5b8063c39a3b291461053f578063cce5938614610551578063ce4b5bbe14610578578063d4b839921461059f57600080fd5b806395d89b41116100de57806395d89b41146104b957806396d64879146104c1578063b484972a146104e4578063b8c15a9f146104f757600080fd5b806364c56e3c146104325780636f307dc31461044f5780636fd5ae15146104765780638237e5381461049257600080fd5b80632c5786b81161018757806351c39ea11161015657806351c39ea1146103d65780635cffe9de146103e9578063608c44d61461040c578063613255ab1461041f57600080fd5b80632c5786b814610374578063378efa371461037c578063468f02d2146103bb5780634aae9fed146103c357600080fd5b80631a54259c116101c35780631a54259c146102ee578063226778491461030157806327b327d014610317578063295a52121461036157600080fd5b806306fdde03146101f5578063083118d5146102135780631393916a146102c557806314282f58146102da575b600080fd5b6101fd610607565b60405161020a91906111b0565b60405180910390f35b600054600154600254600354600454600554610269956001600160a01b0390811695169392919067ffffffffffffffff81169068010000000000000000810465ffffffffffff1690600160701b900461ffff1688565b604080516001600160a01b03998a168152989097166020890152958701949094526060860192909252608085015267ffffffffffffffff1660a084015265ffffffffffff1660c083015261ffff1660e08201526101000161020a565b6102d86102d3366004611232565b610695565b005b6102d86102e8366004611267565b50505050565b6102d86102fc366004611299565b610744565b6103096107f8565b60405190815260200161020a565b600154600254604080516001600160a01b037f000000000000000000000000000000000000000000000000000000000000000081168252909316602084015282015260600161020a565b600554600160701b900461ffff16610309565b6102d86108d4565b6103a37f000000000000000000000000000000000000000000000000000000000000000081565b6040516001600160a01b03909116815260200161020a565b610309610991565b6103096103d13660046112bd565b610a45565b6103096103e43660046112bd565b610b14565b6103fc6103f73660046112d6565b610b71565b604051901515815260200161020a565b6102d861041a366004611299565b610d7a565b61030961042d366004611299565b610ed7565b61043a610f1e565b6040805192835260208301919091520161020a565b6103a37f000000000000000000000000000000000000000000000000000000000000000081565b60055468010000000000000000900465ffffffffffff16610309565b6103097f439148f0bbc682ca079e46d6e2c2f0c1e3b820f1a291b069d8882abf8cf18dd981565b6101fd610f42565b6103fc6104cf366004611299565b60086020526000908152604090205460ff1681565b6102d86104f2366004611375565b505050565b61051e7f000000000000000000000000000000000000000000000000000000000000000081565b6040516fffffffffffffffffffffffffffffffff909116815260200161020a565b60055467ffffffffffffffff16610309565b6103097f000000000000000000000000000000000000000000000000000000000000000081565b6103097f000000000000000000000000000000000000000000000000000000000000000081565b6103a37f000000000000000000000000000000000000000000000000000000000000000081565b6103096105d43660046113b3565b610f4f565b6103a3731887118e49e0f4a78bd71b792a49de03504a764d81565b6009546103a3906001600160a01b031681565b60068054610614906113df565b80601f0160208091040260200160405190810160405280929190818152602001828054610640906113df565b801561068d5780601f106106625761010080835404028352916020019161068d565b820191906000526020600020905b81548152906001019060200180831161067057829003601f168201915b505050505081565b3360009081526008602052604090205460ff166106e55760405162461bcd60e51b8152602060048201526009602482015268155395149554d5115160ba1b60448201526064015b60405180910390fd5b6001600160a01b038216600081815260086020908152604091829020805460ff191685151590811790915591519182527fe95aec380cae16330d146d5499ef7db6f3657e477104a733e771bc09e500d986910160405180910390a25050565b3360009081526008602052604090205460ff1661078f5760405162461bcd60e51b8152602060048201526009602482015268155395149554d5115160ba1b60448201526064016106dc565b6009546040516001600160a01b038084169216907f952c654458751f95c1440bdb1537809137b3de28466b80ad096a711707ae987a90600090a36009805473ffffffffffffffffffffffffffffffffffffffff19166001600160a01b0392909216919091179055565b6040516303d1689d60e11b81527f000000000000000000000000000000000000000000000000000000000000000060048201526000907f0000000000000000000000000000000000000000000000000000000000000000906001600160a01b037f000000000000000000000000000000000000000000000000000000000000000016906307a2d13a90602401602060405180830381865afa1580156108a1573d6000803e3d6000fd5b505050506040513d601f19601f820116820180604052508101906108c59190611419565b6108cf9190611432565b905090565b3360009081526008602052604090205460ff1661091f5760405162461bcd60e51b8152602060048201526009602482015268155395149554d5115160ba1b60448201526064016106dc565b6002600a819055600154905460405163dfd4718f60e01b81526001600160a01b0390921660048301526024820152339063dfd4718f90604401600060405180830381600087803b15801561097257600080fd5b505af1158015610986573d6000803e3d6000fd5b50506001600a555050565b600080546040516315d5220f60e31b81526001600160a01b037f0000000000000000000000000000000000000000000000000000000000000000811660048301529091169063aea9107890602401602060405180830381865afa1580156109fc573d6000803e3d6000fd5b505050506040513d601f19601f82011682018060405250810190610a209190611419565b905080600003610a425760405162bfc92160e01b815260040160405180910390fd5b90565b6000610a7c6001600160a01b037f000000000000000000000000000000000000000000000000000000000000000016333085611038565b604051636e553f6560e01b8152600481018390523360248201527f00000000000000000000000000000000000000000000000000000000000000006001600160a01b031690636e553f65906044015b6020604051808303816000875af1158015610aea573d6000803e3d6000fd5b505050506040513d601f19601f82011682018060405250810190610b0e9190611419565b92915050565b604051635d043b2960e11b815260048101829052336024820181905260448201526000907f00000000000000000000000000000000000000000000000000000000000000006001600160a01b03169063ba08765290606401610acb565b6000336001600160a01b03167f00000000000000000000000000000000000000000000000000000000000000006001600160a01b03166377aace1a6040518163ffffffff1660e01b8152600401602060405180830381865afa158015610bdb573d6000803e3d6000fd5b505050506040513d601f19601f82011682018060405250810190610bff919061145f565b6001600160a01b031614610c265760405163fb02114960e01b815260040160405180910390fd5b610c5a6001600160a01b037f00000000000000000000000000000000000000000000000000000000000000001687866110cf565b6040516323e30c8b60e01b81526000906001600160a01b038816906323e30c8b90610cb39033907f0000000000000000000000000000000000000000000000000000000000000000908a9087908b908b9060040161147c565b6020604051808303816000875af1158015610cd2573d6000803e3d6000fd5b505050506040513d601f19601f82011682018060405250810190610cf69190611419565b90507f439148f0bbc682ca079e46d6e2c2f0c1e3b820f1a291b069d8882abf8cf18dd98114610d385760405163081f7c8760e21b815260040160405180910390fd5b610d6d6001600160a01b037f000000000000000000000000000000000000000000000000000000000000000016883088611038565b5060019695505050505050565b610d838161115b565b610da057604051633dd1b30560e01b815260040160405180910390fd5b6040516370a0823160e01b815230600482015281906000906001600160a01b038316906370a0823190602401602060405180830381865afa158015610de9573d6000803e3d6000fd5b505050506040513d601f19601f82011682018060405250810190610e0d9190611419565b6009546040516370a0823160e01b8152306004820152919250610e94916001600160a01b03918216918516906370a0823190602401602060405180830381865afa158015610e5f573d6000803e3d6000fd5b505050506040513d601f19601f82011682018060405250810190610e839190611419565b6001600160a01b03851691906110cf565b60095460405182916001600160a01b0390811691908616907f9310ccfcb8de723f578a9e4282ea9f521f05ae40dc08f3068dfad528a65ee3c790600090a4505050565b6040516370a0823160e01b81523060048201526000906001600160a01b038316906370a0823190602401602060405180830381865afa158015610aea573d6000803e3d6000fd5b600080600a54600214610f3357600080610f3a565b6003546004545b915091509091565b60078054610614906113df565b60007f00000000000000000000000000000000000000000000000000000000000000006001600160a01b0316836001600160a01b031614610fa357604051633dd1b30560e01b815260040160405180910390fd5b50600092915050565b600060405163095ea7b360e01b6000528360045282602452602060006044600080895af13d15601f3d11600160005114161716915060006060528060405250806102e85760405162461bcd60e51b815260206004820152600e60248201527f415050524f56455f4641494c454400000000000000000000000000000000000060448201526064016106dc565b60006040516323b872dd60e01b6000528460045283602452826044526020600060646000808a5af13d15601f3d11600160005114161716915060006060528060405250806110c85760405162461bcd60e51b815260206004820152601460248201527f5452414e534645525f46524f4d5f4641494c454400000000000000000000000060448201526064016106dc565b5050505050565b600060405163a9059cbb60e01b6000528360045282602452602060006044600080895af13d15601f3d11600160005114161716915060006060528060405250806102e85760405162461bcd60e51b815260206004820152600f60248201527f5452414e534645525f4641494c4544000000000000000000000000000000000060448201526064016106dc565b60007f00000000000000000000000000000000000000000000000000000000000000006001600160a01b0316826001600160a01b031614158015610b0e5750506001546001600160a01b039081169116141590565b600060208083528351808285015260005b818110156111dd578581018301518582016040015282016111c1565b818111156111ef576000604083870101525b50601f01601f1916929092016040019392505050565b6001600160a01b038116811461121a57600080fd5b50565b8035801515811461122d57600080fd5b919050565b6000806040838503121561124557600080fd5b823561125081611205565b915061125e6020840161121d565b90509250929050565b6000806000806080858703121561127d57600080fd5b5050823594602084013594506040840135936060013592509050565b6000602082840312156112ab57600080fd5b81356112b681611205565b9392505050565b6000602082840312156112cf57600080fd5b5035919050565b6000806000806000608086880312156112ee57600080fd5b85356112f981611205565b9450602086013561130981611205565b935060408601359250606086013567ffffffffffffffff8082111561132d57600080fd5b818801915088601f83011261134157600080fd5b81358181111561135057600080fd5b89602082850101111561136257600080fd5b9699959850939650602001949392505050565b60008060006060848603121561138a57600080fd5b833561139581611205565b9250602084013591506113aa6040850161121d565b90509250925092565b600080604083850312156113c657600080fd5b82356113d181611205565b946020939093013593505050565b600181811c908216806113f357607f821691505b60208210810361141357634e487b7160e01b600052602260045260246000fd5b50919050565b60006020828403121561142b57600080fd5b5051919050565b600081600019048311821515161561145a57634e487b7160e01b600052601160045260246000fd5b500290565b60006020828403121561147157600080fd5b81516112b681611205565b60006001600160a01b03808916835280881660208401525085604083015284606083015260a060808301528260a0830152828460c0840137600060c0848401015260c0601f19601f850116830101905097965050505050505056fea2646970667358221220f25c382b229701619770184386407ae610d7d9b228f58ab8febcc01b4c7c6afc64736f6c634300080f0033a2646970667358221220983a0bf99c2ef417a9cb02844e683e0041c2c4120bd176f018f4a366fcbf9afa64736f6c634300080f0033",
  "devdoc": {
    "kind": "dev",
    "methods": {
      "deployAdapter(address,bytes)": {
        "params": {
          "_target": "The target address",
          "data": "ABI encoded reward tokens address array"
        }
      },
      "setRewardsRecipient(address)": {
        "details": "existing adapters rewards recipients will not be changed and can be done through `setRewardsRecipient` on each adapter contract"
      },
      "setRlvFactory(address)": {
        "params": {
          "_rlvFactory": "Address of the new factory"
        }
      },
      "supportTarget(address,bool)": {
        "params": {
          "_target": "The target address",
          "supported": "Whether the target should be supported or not"
        }
      },
      "supportTargets(address[],bool)": {
        "params": {
          "_targets": "Array of target addresses",
          "supported": "Whether the targets should be supported or not"
        }
      }
    },
    "version": 1
  },
  "userdoc": {
    "kind": "user",
    "methods": {
      "DEFAULT_LEVEL()": {
        "notice": "Sets level to `31` by default, which keeps all Divider lifecycle methods public (`issue`, `combine`, `collect`, etc), but not the `onRedeem` hook."
      },
      "deployAdapter(address,bytes)": {
        "notice": "Deploys an OwnableERC4626Adapter contract"
      },
      "divider()": {
        "notice": "Sense core Divider address"
      },
      "factoryParams()": {
        "notice": "params for adapters deployed with this factory"
      },
      "restrictedAdmin()": {
        "notice": "Adapter admin address"
      },
      "rewardsRecipient()": {
        "notice": "Rewards recipient"
      },
      "rlvFactory()": {
        "notice": "Rolling Liquidity Vault Factory address"
      },
      "setRewardsRecipient(address)": {
        "notice": "Set factory rewards recipientall future deployed adapters will have the new rewards recipient"
      },
      "setRlvFactory(address)": {
        "notice": "Modify RLV Factory address"
      },
      "supportTarget(address,bool)": {
        "notice": "(Un)support target"
      },
      "supportTargets(address[],bool)": {
        "notice": "(Un)support multiple target at once"
      }
    },
    "notice": "Ownable Factoy contract that deploys Ownable Adapters for Rolling Liquidity Vaults",
    "version": 1
  },
  "storageLayout": {
    "storage": [
      {
        "astId": 21392,
        "contract": "@sense-finance/v1-core/src/adapters/abstract/factories/OwnableERC4626Factory.sol:OwnableERC4626Factory",
        "label": "isTrusted",
        "offset": 0,
        "slot": "0",
        "type": "t_mapping(t_address,t_bool)"
      },
      {
        "astId": 10654,
        "contract": "@sense-finance/v1-core/src/adapters/abstract/factories/OwnableERC4626Factory.sol:OwnableERC4626Factory",
        "label": "restrictedAdmin",
        "offset": 0,
        "slot": "1",
        "type": "t_address"
      },
      {
        "astId": 10657,
        "contract": "@sense-finance/v1-core/src/adapters/abstract/factories/OwnableERC4626Factory.sol:OwnableERC4626Factory",
        "label": "rewardsRecipient",
        "offset": 0,
        "slot": "2",
        "type": "t_address"
      },
      {
        "astId": 10661,
        "contract": "@sense-finance/v1-core/src/adapters/abstract/factories/OwnableERC4626Factory.sol:OwnableERC4626Factory",
        "label": "factoryParams",
        "offset": 0,
        "slot": "3",
        "type": "t_struct(FactoryParams)10680_storage"
      },
      {
        "astId": 11384,
        "contract": "@sense-finance/v1-core/src/adapters/abstract/factories/OwnableERC4626Factory.sol:OwnableERC4626Factory",
        "label": "supportedTargets",
        "offset": 0,
        "slot": "10",
        "type": "t_mapping(t_address,t_bool)"
      },
      {
        "astId": 11596,
        "contract": "@sense-finance/v1-core/src/adapters/abstract/factories/OwnableERC4626Factory.sol:OwnableERC4626Factory",
        "label": "rlvFactory",
        "offset": 0,
        "slot": "11",
        "type": "t_address"
      }
    ],
    "types": {
      "t_address": {
        "encoding": "inplace",
        "label": "address",
        "numberOfBytes": "20"
      },
      "t_bool": {
        "encoding": "inplace",
        "label": "bool",
        "numberOfBytes": "1"
      },
      "t_mapping(t_address,t_bool)": {
        "encoding": "mapping",
        "key": "t_address",
        "label": "mapping(address => bool)",
        "numberOfBytes": "32",
        "value": "t_bool"
      },
      "t_struct(FactoryParams)10680_storage": {
        "encoding": "inplace",
        "label": "struct BaseFactory.FactoryParams",
        "members": [
          {
            "astId": 10663,
            "contract": "@sense-finance/v1-core/src/adapters/abstract/factories/OwnableERC4626Factory.sol:OwnableERC4626Factory",
            "label": "oracle",
            "offset": 0,
            "slot": "0",
            "type": "t_address"
          },
          {
            "astId": 10665,
            "contract": "@sense-finance/v1-core/src/adapters/abstract/factories/OwnableERC4626Factory.sol:OwnableERC4626Factory",
            "label": "stake",
            "offset": 0,
            "slot": "1",
            "type": "t_address"
          },
          {
            "astId": 10667,
            "contract": "@sense-finance/v1-core/src/adapters/abstract/factories/OwnableERC4626Factory.sol:OwnableERC4626Factory",
            "label": "stakeSize",
            "offset": 0,
            "slot": "2",
            "type": "t_uint256"
          },
          {
            "astId": 10669,
            "contract": "@sense-finance/v1-core/src/adapters/abstract/factories/OwnableERC4626Factory.sol:OwnableERC4626Factory",
            "label": "minm",
            "offset": 0,
            "slot": "3",
            "type": "t_uint256"
          },
          {
            "astId": 10671,
            "contract": "@sense-finance/v1-core/src/adapters/abstract/factories/OwnableERC4626Factory.sol:OwnableERC4626Factory",
            "label": "maxm",
            "offset": 0,
            "slot": "4",
            "type": "t_uint256"
          },
          {
            "astId": 10673,
            "contract": "@sense-finance/v1-core/src/adapters/abstract/factories/OwnableERC4626Factory.sol:OwnableERC4626Factory",
            "label": "ifee",
            "offset": 0,
            "slot": "5",
            "type": "t_uint128"
          },
          {
            "astId": 10675,
            "contract": "@sense-finance/v1-core/src/adapters/abstract/factories/OwnableERC4626Factory.sol:OwnableERC4626Factory",
            "label": "mode",
            "offset": 16,
            "slot": "5",
            "type": "t_uint16"
          },
          {
            "astId": 10677,
            "contract": "@sense-finance/v1-core/src/adapters/abstract/factories/OwnableERC4626Factory.sol:OwnableERC4626Factory",
            "label": "tilt",
            "offset": 18,
            "slot": "5",
            "type": "t_uint64"
          },
          {
            "astId": 10679,
            "contract": "@sense-finance/v1-core/src/adapters/abstract/factories/OwnableERC4626Factory.sol:OwnableERC4626Factory",
            "label": "guard",
            "offset": 0,
            "slot": "6",
            "type": "t_uint256"
          }
        ],
        "numberOfBytes": "224"
      },
      "t_uint128": {
        "encoding": "inplace",
        "label": "uint128",
        "numberOfBytes": "16"
      },
      "t_uint16": {
        "encoding": "inplace",
        "label": "uint16",
        "numberOfBytes": "2"
      },
      "t_uint256": {
        "encoding": "inplace",
        "label": "uint256",
        "numberOfBytes": "32"
      },
      "t_uint64": {
        "encoding": "inplace",
        "label": "uint64",
        "numberOfBytes": "8"
      }
    }
  }
}