{
  "address": "0x2E2Ed0Cfd3AD2f1d34481277b3204d807Ca2F8c2",
  "abi": [
    {
      "inputs": [
        {
          "internalType": "address",
          "name": "_implementation",
          "type": "address"
        },
        {
          "internalType": "address",
          "name": "_divider",
          "type": "address"
        },
        {
          "internalType": "uint256",
          "name": "_delta",
          "type": "uint256"
        },
        {
          "internalType": "address",
          "name": "_airdropToken",
          "type": "address"
        }
      ],
      "stateMutability": "nonpayable",
      "type": "constructor"
    },
    {
      "anonymous": false,
      "inputs": [
        {
          "indexed": false,
          "internalType": "uint256",
          "name": "delta",
          "type": "uint256"
        }
      ],
      "name": "DeltaChanged",
      "type": "event"
    },
    {
      "anonymous": false,
      "inputs": [
        {
          "indexed": false,
          "internalType": "address",
          "name": "divider",
          "type": "address"
        }
      ],
      "name": "DividerChanged",
      "type": "event"
    },
    {
      "anonymous": false,
      "inputs": [
        {
          "indexed": false,
          "internalType": "address",
          "name": "addr",
          "type": "address"
        }
      ],
      "name": "FeedDeployed",
      "type": "event"
    },
    {
      "anonymous": false,
      "inputs": [
        {
          "indexed": false,
          "internalType": "address",
          "name": "implementation",
          "type": "address"
        }
      ],
      "name": "ImplementationChanged",
      "type": "event"
    },
    {
      "anonymous": false,
      "inputs": [
        {
          "indexed": false,
          "internalType": "address",
          "name": "protocol",
          "type": "address"
        }
      ],
      "name": "ProtocolChanged",
      "type": "event"
    },
    {
      "anonymous": false,
      "inputs": [
        {
          "indexed": true,
          "internalType": "address",
          "name": "user",
          "type": "address"
        },
        {
          "indexed": false,
          "internalType": "bool",
          "name": "trusted",
          "type": "bool"
        }
      ],
      "name": "UserTrustUpdated",
      "type": "event"
    },
    {
      "inputs": [],
      "name": "airdropToken",
      "outputs": [
        {
          "internalType": "address",
          "name": "",
          "type": "address"
        }
      ],
      "stateMutability": "view",
      "type": "function"
    },
    {
      "inputs": [],
      "name": "delta",
      "outputs": [
        {
          "internalType": "uint256",
          "name": "",
          "type": "uint256"
        }
      ],
      "stateMutability": "view",
      "type": "function"
    },
    {
      "inputs": [
        {
          "internalType": "address",
          "name": "_target",
          "type": "address"
        }
      ],
      "name": "deployFeed",
      "outputs": [
        {
          "internalType": "address",
          "name": "clone",
          "type": "address"
        },
        {
          "internalType": "address",
          "name": "wtarget",
          "type": "address"
        }
      ],
      "stateMutability": "nonpayable",
      "type": "function"
    },
    {
      "inputs": [],
      "name": "divider",
      "outputs": [
        {
          "internalType": "address",
          "name": "",
          "type": "address"
        }
      ],
      "stateMutability": "view",
      "type": "function"
    },
    {
      "inputs": [
        {
          "internalType": "address",
          "name": "",
          "type": "address"
        }
      ],
      "name": "feeds",
      "outputs": [
        {
          "internalType": "address",
          "name": "",
          "type": "address"
        }
      ],
      "stateMutability": "view",
      "type": "function"
    },
    {
      "inputs": [],
      "name": "implementation",
      "outputs": [
        {
          "internalType": "address",
          "name": "",
          "type": "address"
        }
      ],
      "stateMutability": "view",
      "type": "function"
    },
    {
      "inputs": [
        {
          "internalType": "address",
          "name": "",
          "type": "address"
        }
      ],
      "name": "isTrusted",
      "outputs": [
        {
          "internalType": "bool",
          "name": "",
          "type": "bool"
        }
      ],
      "stateMutability": "view",
      "type": "function"
    },
    {
      "inputs": [],
      "name": "protocol",
      "outputs": [
        {
          "internalType": "address",
          "name": "",
          "type": "address"
        }
      ],
      "stateMutability": "view",
      "type": "function"
    },
    {
      "inputs": [
        {
          "internalType": "uint256",
          "name": "_delta",
          "type": "uint256"
        }
      ],
      "name": "setDelta",
      "outputs": [],
      "stateMutability": "nonpayable",
      "type": "function"
    },
    {
      "inputs": [
        {
          "internalType": "address",
          "name": "_divider",
          "type": "address"
        }
      ],
      "name": "setDivider",
      "outputs": [],
      "stateMutability": "nonpayable",
      "type": "function"
    },
    {
      "inputs": [
        {
          "internalType": "address",
          "name": "_implementation",
          "type": "address"
        }
      ],
      "name": "setImplementation",
      "outputs": [],
      "stateMutability": "nonpayable",
      "type": "function"
    },
    {
      "inputs": [
        {
          "internalType": "address",
          "name": "user",
          "type": "address"
        },
        {
          "internalType": "bool",
          "name": "trusted",
          "type": "bool"
        }
      ],
      "name": "setIsTrusted",
      "outputs": [],
      "stateMutability": "nonpayable",
      "type": "function"
    },
    {
      "inputs": [
        {
          "internalType": "address",
          "name": "_protocol",
          "type": "address"
        }
      ],
      "name": "setProtocol",
      "outputs": [],
      "stateMutability": "nonpayable",
      "type": "function"
    }
  ],
  "transactionHash": "0x776d3cab373064544b17ba82b1a9d543140381db893a6a3ec2c19b3d68f207ad",
  "args": [
    "0x21dF544947ba3E8b3c32561399E88B52Dc8b2823",
    "0x04C89607413713Ec9775E14b954286519d836FEf",
    150,
    "0x0000000000000000000000000000000000000000"
  ],
  "solcInputHash": "7c5715d138b09e9a9a5e2707a1a686c2",
  "bytecode": "0x608060405260001960015534801561001657600080fd5b506040516118e93803806118e98339810160408190526100359161011e565b3360008181526020818152604091829020805460ff191660019081179091559151918252733d9819210a31b4961b30ef54be2aed79b9c9cd3b928792879287928792909182917fe95aec380cae16330d146d5499ef7db6f3657e477104a733e771bc09e500d986910160405180910390a250600380546001600160a01b039687166001600160a01b03199182161790915560048054958716958216959095179094556005805493861693851693909317909255600655600780549190931691161790555061016b92505050565b80516001600160a01b038116811461011957600080fd5b919050565b6000806000806080858703121561013457600080fd5b61013d85610102565b935061014b60208601610102565b92506040850151915061016060608601610102565b905092959194509250565b61176f8061017a6000396000f3fe608060405234801561001057600080fd5b50600436106100bf5760003560e01c8063378efa371161007c578063378efa37146101845780634d06068a146101975780635c60da1b146101aa5780638ce74426146101bd57806396d64879146101d05780639e1991bc14610203578063d784d4261461021657600080fd5b8063025ff0a5146100c45780630581771c146100d95780630a9d793d1461011157806312b495a8146101245780631393916a1461013b5780632fba4aa91461014e575b600080fd5b6100d76100d236600461096f565b610229565b005b6100ec6100e73660046108d3565b61029d565b604080516001600160a01b039384168152929091166020830152015b60405180910390f35b6100d761011f3660046108d3565b610587565b61012d60065481565b604051908152602001610108565b6100d76101493660046108f5565b610601565b61017761015c3660046108d3565b6002602052600090815260409020546001600160a01b031681565b6040516101089190610988565b600554610177906001600160a01b031681565b600754610177906001600160a01b031681565b600454610177906001600160a01b031681565b600354610177906001600160a01b031681565b6101f36101de3660046108d3565b60006020819052908152604090205460ff1681565b6040519015158152602001610108565b6100d76102113660046108d3565b61068d565b6100d76102243660046108d3565b610707565b3360009081526020819052604090205460ff166102615760405162461bcd60e51b8152600401610258906109f1565b60405180910390fd5b60068190556040518181527f97a9e80a219b5a7a3e31cad6874bf9a41e1f9b57727cd8b25d9352c6dff1df5b906020015b60405180910390a150565b6000806102a983610781565b6040518060400160405280601781526020017615185c99d95d081a5cc81b9bdd081cdd5c1c1bdc9d1959604a1b815250906102f75760405162461bcd60e51b8152600401610258919061099c565b506001600160a01b0383811660009081526002602090815260409182902054825180840190935260138352724665656420616c72656164792065786973747360681b91830191909152909116156103615760405162461bcd60e51b8152600401610258919061099c565b50600454610377906001600160a01b0316610812565b6005546006546040516305e52ecf60e21b81526001600160a01b03878116600483015292831660248201526044810191909152919350831690631794bb3c90606401600060405180830381600087803b1580156103d357600080fd5b505af11580156103e7573d6000803e3d6000fd5b50506005546040516331f1cf3560e21b81526001600160a01b03868116600483015260016024830152909116925063c7c73cd49150604401600060405180830381600087803b15801561043957600080fd5b505af115801561044d573d6000803e3d6000fd5b5050600554600754604051600094508793506001600160a01b039283169290911690610478906108af565b6001600160a01b03938416815291831660208301529091166040820152606001604051809103906000f0801580156104b4573d6000803e3d6000fd5b5060055460405163c2167d9360e01b81529192506001600160a01b03169063c2167d93906104e6908490600401610988565b600060405180830381600087803b15801561050057600080fd5b505af1158015610514573d6000803e3d6000fd5b505050506001600160a01b038481166000908152600260205260409081902080546001600160a01b03191692861692909217909155517f6625b50f85bc9b983d1edb72ff22dd0391166673bd5a0e3ad061ae27690d393490610577908590610988565b60405180910390a1919391925050565b3360009081526020819052604090205460ff166105b65760405162461bcd60e51b8152600401610258906109f1565b600380546001600160a01b0319166001600160a01b0383161790556040517f15b84596b3c567ae2998116949ae5f2d47f3055c12d9053db4d6e50f4c794dd990610292908390610988565b3360009081526020819052604090205460ff166106305760405162461bcd60e51b8152600401610258906109f1565b6001600160a01b03821660008181526020818152604091829020805460ff191685151590811790915591519182527fe95aec380cae16330d146d5499ef7db6f3657e477104a733e771bc09e500d986910160405180910390a25050565b3360009081526020819052604090205460ff166106bc5760405162461bcd60e51b8152600401610258906109f1565b600580546001600160a01b0319166001600160a01b0383161790556040517f18590070e5b081bc1b0ca0231791392f05752a341aca711640503809a737d36190610292908390610988565b3360009081526020819052604090205460ff166107365760405162461bcd60e51b8152600401610258906109f1565b600480546001600160a01b0319166001600160a01b0383161790556040517f2989b377844ae55f0ca303ad21490d8519f8cf871ad6b5ba3dbec736bb54c63f90610292908390610988565b600354604051638e8f294b60e01b815260009182916001600160a01b0390911690638e8f294b906107b6908690600401610988565b606060405180830381600087803b1580156107d057600080fd5b505af11580156107e4573d6000803e3d6000fd5b505050506040513d601f19601f82011682018060405250810190610808919061092c565b5090949350505050565b6000604051733d602d80600a3d3981f3363d3d373d3d3d363d7360601b81528260601b60148201526e5af43d82803e903d91602b57fd5bf360881b60288201526037816000f09150506001600160a01b0381166108aa5760405162461bcd60e51b8152602060048201526016602482015275115490cc4c4d8dce8818dc99585d194819985a5b195960521b6044820152606401610258565b919050565b610d1480610a2683390190565b80356001600160a01b03811681146108aa57600080fd5b6000602082840312156108e557600080fd5b6108ee826108bc565b9392505050565b6000806040838503121561090857600080fd5b610911836108bc565b9150602083013561092181610a14565b809150509250929050565b60008060006060848603121561094157600080fd5b835161094c81610a14565b60208501516040860151919450925061096481610a14565b809150509250925092565b60006020828403121561098157600080fd5b5035919050565b6001600160a01b0391909116815260200190565b600060208083528351808285015260005b818110156109c9578581018301518582016040015282016109ad565b818111156109db576000604083870101525b50601f01601f1916929092016040019392505050565b602080825260099082015268155395149554d5115160ba1b604082015260600190565b8015158114610a2257600080fd5b5056fe608060405260001960015534801561001657600080fd5b50604051610d14380380610d148339810160408190526100359161015f565b3360008181526020818152604091829020805460ff19166001908117909155915191825282917fe95aec380cae16330d146d5499ef7db6f3657e477104a733e771bc09e500d986910160405180910390a250600280546001600160a01b038581166001600160a01b031992831681179093556003805485831690841617905560048054918616919092168117825560015460405163095ea7b360e01b815292830191909152602482015263095ea7b390604401602060405180830381600087803b15801561010257600080fd5b505af1158015610116573d6000803e3d6000fd5b505050506040513d601f19601f8201168201806040525081019061013a91906101a2565b505050506101cb565b80516001600160a01b038116811461015a57600080fd5b919050565b60008060006060848603121561017457600080fd5b61017d84610143565b925061018b60208501610143565b915061019960408501610143565b90509250925092565b6000602082840312156101b457600080fd5b815180151581146101c457600080fd5b9392505050565b610b3a806101da6000396000f3fe608060405234801561001057600080fd5b50600436106100785760003560e01c80631393916a1461007d578063378efa37146100925780634d06068a146100bb578063578bcf35146100ce57806396d64879146100fc578063aadbe18f1461012f578063b6ea46b01461014f578063d4b8399214610162575b600080fd5b61009061008b36600461096d565b610175565b005b6004546100a5906001600160a01b031681565b6040516100b29190610a24565b60405180910390f35b6003546100a5906001600160a01b031681565b6100ee6100dc3660046108d5565b60066020526000908152604090205481565b6040519081526020016100b2565b61011f61010a3660046108d5565b60006020819052908152604090205460ff1681565b60405190151581526020016100b2565b6100ee61013d3660046108d5565b60056020526000908152604090205481565b61009061015d3660046109a6565b610221565b6002546100a5906001600160a01b031681565b3360009081526020819052604090205460ff166101c45760405162461bcd60e51b8152602060048201526009602482015268155395149554d5115160ba1b604482015260640160405180910390fd5b6001600160a01b03821660008181526020818152604091829020805460ff191685151590811790915591519182527fe95aec380cae16330d146d5499ef7db6f3657e477104a733e771bc09e500d986910160405180910390a25050565b60048054604051630448e98560e11b81526001600160a01b03878116938201939093526024810186905260009290911690630891d30a9060440160e06040518083038186803b15801561027357600080fd5b505afa158015610287573d6000803e3d6000fd5b505050506040513d601f19601f820116820180604052508101906102ab91906108f9565b50505050509150506000816001600160a01b03166318160ddd6040518163ffffffff1660e01b815260040160206040518083038186803b1580156102ee57600080fd5b505afa158015610302573d6000803e3d6000fd5b505050506040513d601f19601f820116820180604052508101906103269190610a0b565b156104d1576001600160a01b03808516600090815260066020526040908190205460035491516370a0823160e01b8152909291909116906370a0823190610371903090600401610a24565b60206040518083038186803b15801561038957600080fd5b505afa15801561039d573d6000803e3d6000fd5b505050506040513d601f19601f820116820180604052508101906103c19190610a0b565b6103cb9190610a91565b826001600160a01b03166318160ddd6040518163ffffffff1660e01b815260040160206040518083038186803b15801561040457600080fd5b505afa158015610418573d6000803e3d6000fd5b505050506040513d601f19601f8201168201806040525081019061043c9190610a0b565b6040516370a0823160e01b81526001600160a01b038516906370a0823190610468908990600401610a24565b60206040518083038186803b15801561048057600080fd5b505afa158015610494573d6000803e3d6000fd5b505050506040513d601f19601f820116820180604052508101906104b89190610a0b565b6104c29190610a50565b6104cc9190610a72565b6104d4565b60005b9050600080516020610ae5833981519152826001600160a01b03166318160ddd6040518163ffffffff1660e01b815260040160206040518083038186803b15801561051e57600080fd5b505afa158015610532573d6000803e3d6000fd5b505050506040513d601f19601f820116820180604052508101906105569190610a0b565b60405190815260200160405180910390a16040516370a0823160e01b8152600080516020610ae5833981519152906001600160a01b038416906370a08231906105a3908890600401610a24565b60206040518083038186803b1580156105bb57600080fd5b505afa1580156105cf573d6000803e3d6000fd5b505050506040513d601f19601f820116820180604052508101906105f39190610a0b565b60405190815260200160405180910390a1600080516020610ae5833981519152826001600160a01b03166318160ddd6040518163ffffffff1660e01b815260040160206040518083038186803b15801561064c57600080fd5b505afa158015610660573d6000803e3d6000fd5b505050506040513d601f19601f820116820180604052508101906106849190610a0b565b6040516370a0823160e01b81526001600160a01b038516906370a08231906106b0908990600401610a24565b60206040518083038186803b1580156106c857600080fd5b505afa1580156106dc573d6000803e3d6000fd5b505050506040513d601f19601f820116820180604052508101906107009190610a0b565b61070a9190610a50565b60405190815260200160405180910390a16003546040516370a0823160e01b8152600080516020610ae5833981519152916001600160a01b0316906370a0823190610759903090600401610a24565b60206040518083038186803b15801561077157600080fd5b505afa158015610785573d6000803e3d6000fd5b505050506040513d601f19601f820116820180604052508101906107a99190610a0b565b60405190815260200160405180910390a1604051818152600080516020610ae58339815191529060200160405180910390a16001600160a01b03841660009081526006602052604081208054839290610803908490610a38565b909155505060035460405163a9059cbb60e01b81526001600160a01b038681166004830152602482018490529091169063a9059cbb90604401602060405180830381600087803b15801561085657600080fd5b505af115801561086a573d6000803e3d6000fd5b505050506040513d601f19601f8201168201806040525081019061088e91906109ee565b5060035460405182916001600160a01b0390811691908716907fad4a9acf26d8bba7a8cf1a41160d59be042ee554578e256c98d2ab74cdd4354290600090a4505050505050565b6000602082840312156108e757600080fd5b81356108f281610abe565b9392505050565b600080600080600080600060e0888a03121561091457600080fd5b875161091f81610abe565b602089015190975061093081610abe565b604089015190965061094181610abe565b80955050606088015193506080880151925060a0880151915060c0880151905092959891949750929550565b6000806040838503121561098057600080fd5b823561098b81610abe565b9150602083013561099b81610ad6565b809150509250929050565b600080600080608085870312156109bc57600080fd5b84356109c781610abe565b93506020850135925060408501356109de81610abe565b9396929550929360600135925050565b600060208284031215610a0057600080fd5b81516108f281610ad6565b600060208284031215610a1d57600080fd5b5051919050565b6001600160a01b0391909116815260200190565b60008219821115610a4b57610a4b610aa8565b500190565b600082610a6d57634e487b7160e01b600052601260045260246000fd5b500490565b6000816000190483118215151615610a8c57610a8c610aa8565b500290565b600082821015610aa357610aa3610aa8565b500390565b634e487b7160e01b600052601160045260246000fd5b6001600160a01b0381168114610ad357600080fd5b50565b8015158114610ad357600080fdfe9144e1e2e3507b17fc6668db38d7d405740a32037f971e97b977d571cb7ac56fa26469706673582212204e707564185fa4e3eafec99b40f1d2c3a45c6f195c844effaa9a96a64c3316e264736f6c63430008060033a26469706673582212207da1ccb043f8d1c65be70fe64a03227fd900508df63657ae30e3b25813f3335d64736f6c63430008060033",
  "devdoc": {
    "kind": "dev",
    "methods": {
      "deployFeed(address)": {
        "params": {
          "_target": "Address of the target token"
        }
      }
    },
    "version": 1
  },
  "userdoc": {
    "kind": "user",
    "methods": {
      "deployFeed(address)": {
        "notice": "Deploys a feed for the given _target"
      }
    },
    "version": 1
  },
  "storageLayout": {
    "storage": [
      {
        "astId": 138,
        "contract": "src/feeds/compound/CFactory.sol:CFactory",
        "label": "isTrusted",
        "offset": 0,
        "slot": "0",
        "type": "t_mapping(t_address,t_bool)"
      },
      {
        "astId": 3025,
        "contract": "src/feeds/compound/CFactory.sol:CFactory",
        "label": "MAX_INT",
        "offset": 0,
        "slot": "1",
        "type": "t_uint256"
      },
      {
        "astId": 3029,
        "contract": "src/feeds/compound/CFactory.sol:CFactory",
        "label": "feeds",
        "offset": 0,
        "slot": "2",
        "type": "t_mapping(t_address,t_address)"
      },
      {
        "astId": 3031,
        "contract": "src/feeds/compound/CFactory.sol:CFactory",
        "label": "protocol",
        "offset": 0,
        "slot": "3",
        "type": "t_address"
      },
      {
        "astId": 3033,
        "contract": "src/feeds/compound/CFactory.sol:CFactory",
        "label": "implementation",
        "offset": 0,
        "slot": "4",
        "type": "t_address"
      },
      {
        "astId": 3035,
        "contract": "src/feeds/compound/CFactory.sol:CFactory",
        "label": "divider",
        "offset": 0,
        "slot": "5",
        "type": "t_address"
      },
      {
        "astId": 3037,
        "contract": "src/feeds/compound/CFactory.sol:CFactory",
        "label": "delta",
        "offset": 0,
        "slot": "6",
        "type": "t_uint256"
      },
      {
        "astId": 3039,
        "contract": "src/feeds/compound/CFactory.sol:CFactory",
        "label": "airdropToken",
        "offset": 0,
        "slot": "7",
        "type": "t_address"
      }
    ],
    "types": {
      "t_address": {
        "encoding": "inplace",
        "label": "address",
        "numberOfBytes": "20"
      },
      "t_bool": {
        "encoding": "inplace",
        "label": "bool",
        "numberOfBytes": "1"
      },
      "t_mapping(t_address,t_address)": {
        "encoding": "mapping",
        "key": "t_address",
        "label": "mapping(address => address)",
        "numberOfBytes": "32",
        "value": "t_address"
      },
      "t_mapping(t_address,t_bool)": {
        "encoding": "mapping",
        "key": "t_address",
        "label": "mapping(address => bool)",
        "numberOfBytes": "32",
        "value": "t_bool"
      },
      "t_uint256": {
        "encoding": "inplace",
        "label": "uint256",
        "numberOfBytes": "32"
      }
    }
  }
}