{
  "address": "0x21dF544947ba3E8b3c32561399E88B52Dc8b2823",
  "abi": [
    {
      "anonymous": false,
      "inputs": [],
      "name": "Initialized",
      "type": "event"
    },
    {
      "inputs": [],
      "name": "delta",
      "outputs": [
        {
          "internalType": "uint256",
          "name": "",
          "type": "uint256"
        }
      ],
      "stateMutability": "view",
      "type": "function"
    },
    {
      "inputs": [],
      "name": "divider",
      "outputs": [
        {
          "internalType": "address",
          "name": "",
          "type": "address"
        }
      ],
      "stateMutability": "view",
      "type": "function"
    },
    {
      "inputs": [
        {
          "internalType": "address",
          "name": "_target",
          "type": "address"
        },
        {
          "internalType": "address",
          "name": "_divider",
          "type": "address"
        },
        {
          "internalType": "uint256",
          "name": "_delta",
          "type": "uint256"
        }
      ],
      "name": "initialize",
      "outputs": [],
      "stateMutability": "nonpayable",
      "type": "function"
    },
    {
      "inputs": [],
      "name": "lscale",
      "outputs": [
        {
          "internalType": "uint256",
          "name": "timestamp",
          "type": "uint256"
        },
        {
          "internalType": "uint256",
          "name": "value",
          "type": "uint256"
        }
      ],
      "stateMutability": "view",
      "type": "function"
    },
    {
      "inputs": [],
      "name": "name",
      "outputs": [
        {
          "internalType": "string",
          "name": "",
          "type": "string"
        }
      ],
      "stateMutability": "view",
      "type": "function"
    },
    {
      "inputs": [],
      "name": "scale",
      "outputs": [
        {
          "internalType": "uint256",
          "name": "_value",
          "type": "uint256"
        }
      ],
      "stateMutability": "nonpayable",
      "type": "function"
    },
    {
      "inputs": [],
      "name": "symbol",
      "outputs": [
        {
          "internalType": "string",
          "name": "",
          "type": "string"
        }
      ],
      "stateMutability": "view",
      "type": "function"
    },
    {
      "inputs": [],
      "name": "target",
      "outputs": [
        {
          "internalType": "address",
          "name": "",
          "type": "address"
        }
      ],
      "stateMutability": "view",
      "type": "function"
    }
  ],
  "transactionHash": "0x4f942dfda8b41a81ec186f61483b84fe36c2559c99152ad62d73a686832065f9",
  "args": [],
  "solcInputHash": "885381d4adfc3f3fad2e724560f105f3",
  "bytecode": "0x608060405234801561001057600080fd5b50610c91806100206000396000f3fe608060405234801561001057600080fd5b50600436106100785760003560e01c806306fdde031461007d57806312b495a81461009b5780631794bb3c146100b2578063378efa37146100c75780636b0706ed146100f257806395d89b4114610115578063d4b839921461011d578063f51e181a14610136575b600080fd5b61008561013e565b6040516100929190610a10565b60405180910390f35b6100a460025481565b604051908152602001610092565b6100c56100c0366004610892565b6101cc565b005b6001546100da906001600160a01b031681565b6040516001600160a01b039091168152602001610092565b600554600654610100919082565b60408051928352602083019190915201610092565b61008561045f565b6000546100da906201000090046001600160a01b031681565b6100a461046c565b6003805461014b90610bdc565b80601f016020809104026020016040519081016040528092919081815260200182805461017790610bdc565b80156101c45780601f10610199576101008083540402835291602001916101c4565b820191906000526020600020905b8154815290600101906020018083116101a757829003601f168201915b505050505081565b600054610100900460ff16806101e5575060005460ff16155b61024d5760405162461bcd60e51b815260206004820152602e60248201527f496e697469616c697a61626c653a20636f6e747261637420697320616c72656160448201526d191e481a5b9a5d1a585b1a5e995960921b60648201526084015b60405180910390fd5b600054610100900460ff1615801561026f576000805461ffff19166101011790555b600180546001600160a01b0319166001600160a01b038581169190911790915560028390556000805462010000600160b01b03191662010000878416810291909117808355604080516306fdde0360e01b8152905192909104909316926306fdde03926004808301939192829003018186803b1580156102ee57600080fd5b505afa158015610302573d6000803e3d6000fd5b505050506040513d6000823e601f3d908101601f1916820160405261032a91908101906108d3565b60405160200161033a91906109e6565b6040516020818303038152906040526003908051906020019061035e9291906107d5565b50600060029054906101000a90046001600160a01b03166001600160a01b03166395d89b416040518163ffffffff1660e01b815260040160006040518083038186803b1580156103ad57600080fd5b505afa1580156103c1573d6000803e3d6000fd5b505050506040513d6000823e601f3d908101601f191682016040526103e991908101906108d3565b6040516020016103f991906109bc565b6040516020818303038152906040526004908051906020019061041d9291906107d5565b506040517f5daa87a0e9463431830481fd4b6e3403442dfb9a12b9c07597e9f61d50b633c890600090a18015610459576000805461ff00191690555b50505050565b6004805461014b90610bdc565b600061047661060d565b60065460408051808201909152601681527514d8d85b19481d985b1d59481a5cc81a5b9d985b1a5960521b602082015291925090818310156104cb5760405162461bcd60e51b81526004016102449190610a10565b506005546000906104dc9042610b99565b90506000811180156104ed57508115155b156105f55760006105a36105018385610b7a565b600060029054906101000a90046001600160a01b03166001600160a01b031663313ce5676040518163ffffffff1660e01b815260040160206040518083038186803b15801561054f57600080fd5b505afa158015610563573d6000803e3d6000fd5b505050506040513d601f19601f820116820180604052508101906105879190610999565b61059290600a610acc565b61059c8688610b99565b91906107b6565b90506002548111156105f357604080518082018252601681527514d8d85b19481d985b1d59481a5cc81a5b9d985b1a5960521b6020820152905162461bcd60e51b81526102449190600401610a10565b505b6006548314610608576006839055426005555b505090565b600080600060029054906101000a90046001600160a01b031690506000816001600160a01b0316636f307dc36040518163ffffffff1660e01b8152600401602060405180830381600087803b15801561066557600080fd5b505af1158015610679573d6000803e3d6000fd5b505050506040513d601f19601f8201168201806040525081019061069d919061086e565b6001600160a01b031663313ce5676040518163ffffffff1660e01b8152600401602060405180830381600087803b1580156106d757600080fd5b505af11580156106eb573d6000803e3d6000fd5b505050506040513d601f19601f8201168201806040525081019061070f9190610980565b61071a90600a610a43565b905061072781600a610ac0565b610732906001610b7a565b826001600160a01b031663bd6d894d6040518163ffffffff1660e01b8152600401602060405180830381600087803b15801561076d57600080fd5b505af1158015610781573d6000803e3d6000fd5b505050506040513d601f19601f820116820180604052508101906107a59190610980565b6107af9190610a5b565b9250505090565b6000826107c38386610b7a565b6107cd9190610a5b565b949350505050565b8280546107e190610bdc565b90600052602060002090601f0160209004810192826108035760008555610849565b82601f1061081c57805160ff1916838001178555610849565b82800160010185558215610849579182015b8281111561084957825182559160200191906001019061082e565b50610855929150610859565b5090565b5b80821115610855576000815560010161085a565b60006020828403121561088057600080fd5b815161088b81610c43565b9392505050565b6000806000606084860312156108a757600080fd5b83356108b281610c43565b925060208401356108c281610c43565b929592945050506040919091013590565b6000602082840312156108e557600080fd5b815167ffffffffffffffff808211156108fd57600080fd5b818401915084601f83011261091157600080fd5b81518181111561092357610923610c2d565b604051601f8201601f19908116603f0116810190838211818310171561094b5761094b610c2d565b8160405282815287602084870101111561096457600080fd5b610975836020830160208801610bb0565b979650505050505050565b60006020828403121561099257600080fd5b5051919050565b6000602082840312156109ab57600080fd5b815160ff8116811461088b57600080fd5b600082516109ce818460208701610bb0565b650b5e5a595b1960d21b920191825250600601919050565b600082516109f8818460208701610bb0565b6508165a595b1960d21b920191825250600601919050565b6020815260008251806020840152610a2f816040850160208701610bb0565b601f01601f19169190910160400192915050565b60008219821115610a5657610a56610c17565b500190565b600082610a7857634e487b7160e01b600052601260045260246000fd5b500490565b600181815b80851115610ab8578160001904821115610a9e57610a9e610c17565b80851615610aab57918102915b93841c9390800290610a82565b509250929050565b600061088b8383610ad7565b600061088b60ff8416835b600082610ae657506001610b74565b81610af357506000610b74565b8160018114610b095760028114610b1357610b2f565b6001915050610b74565b60ff841115610b2457610b24610c17565b50506001821b610b74565b5060208310610133831016604e8410600b8410161715610b52575081810a610b74565b610b5c8383610a7d565b8060001904821115610b7057610b70610c17565b0290505b92915050565b6000816000190483118215151615610b9457610b94610c17565b500290565b600082821015610bab57610bab610c17565b500390565b60005b83811015610bcb578181015183820152602001610bb3565b838111156104595750506000910152565b600181811c90821680610bf057607f821691505b60208210811415610c1157634e487b7160e01b600052602260045260246000fd5b50919050565b634e487b7160e01b600052601160045260246000fd5b634e487b7160e01b600052604160045260246000fd5b6001600160a01b0381168114610c5857600080fd5b5056fea2646970667358221220f98aec2458e33861a975b8abc9f9301b35fcea5123c3aa6b6d1ed4f54f58659164736f6c63430008060033",
  "devdoc": {
    "kind": "dev",
    "methods": {
      "scale()": {
        "details": "For some Targets, such as cTokens, this is simply the exchange rate, or `supply cToken / supply underlying`For other Targets, such as AMM LP shares, specialized logic will be required",
        "returns": {
          "_value": "WAD Scale value"
        }
      }
    },
    "version": 1
  },
  "userdoc": {
    "kind": "user",
    "methods": {
      "scale()": {
        "notice": "Calculate and return this feed's Scale value for the current timestamp"
      }
    },
    "version": 1
  },
  "storageLayout": {
    "storage": [
      {
        "astId": 85,
        "contract": "src/feeds/compound/CFeed.sol:CFeed",
        "label": "_initialized",
        "offset": 0,
        "slot": "0",
        "type": "t_bool"
      },
      {
        "astId": 88,
        "contract": "src/feeds/compound/CFeed.sol:CFeed",
        "label": "_initializing",
        "offset": 1,
        "slot": "0",
        "type": "t_bool"
      },
      {
        "astId": 3284,
        "contract": "src/feeds/compound/CFeed.sol:CFeed",
        "label": "target",
        "offset": 2,
        "slot": "0",
        "type": "t_address"
      },
      {
        "astId": 3286,
        "contract": "src/feeds/compound/CFeed.sol:CFeed",
        "label": "divider",
        "offset": 0,
        "slot": "1",
        "type": "t_address"
      },
      {
        "astId": 3288,
        "contract": "src/feeds/compound/CFeed.sol:CFeed",
        "label": "delta",
        "offset": 0,
        "slot": "2",
        "type": "t_uint256"
      },
      {
        "astId": 3290,
        "contract": "src/feeds/compound/CFeed.sol:CFeed",
        "label": "name",
        "offset": 0,
        "slot": "3",
        "type": "t_string_storage"
      },
      {
        "astId": 3292,
        "contract": "src/feeds/compound/CFeed.sol:CFeed",
        "label": "symbol",
        "offset": 0,
        "slot": "4",
        "type": "t_string_storage"
      },
      {
        "astId": 3295,
        "contract": "src/feeds/compound/CFeed.sol:CFeed",
        "label": "lscale",
        "offset": 0,
        "slot": "5",
        "type": "t_struct(LScale)3300_storage"
      }
    ],
    "types": {
      "t_address": {
        "encoding": "inplace",
        "label": "address",
        "numberOfBytes": "20"
      },
      "t_bool": {
        "encoding": "inplace",
        "label": "bool",
        "numberOfBytes": "1"
      },
      "t_string_storage": {
        "encoding": "bytes",
        "label": "string",
        "numberOfBytes": "32"
      },
      "t_struct(LScale)3300_storage": {
        "encoding": "inplace",
        "label": "struct BaseFeed.LScale",
        "members": [
          {
            "astId": 3297,
            "contract": "src/feeds/compound/CFeed.sol:CFeed",
            "label": "timestamp",
            "offset": 0,
            "slot": "0",
            "type": "t_uint256"
          },
          {
            "astId": 3299,
            "contract": "src/feeds/compound/CFeed.sol:CFeed",
            "label": "value",
            "offset": 0,
            "slot": "1",
            "type": "t_uint256"
          }
        ],
        "numberOfBytes": "64"
      },
      "t_uint256": {
        "encoding": "inplace",
        "label": "uint256",
        "numberOfBytes": "32"
      }
    }
  }
}