{
  "address": "0x304df20FCD8541bF750Cf41B3D4B8551B9a3eDc2",
  "abi": [
    {
      "inputs": [
        {
          "internalType": "address",
          "name": "_divider",
          "type": "address"
        },
        {
          "internalType": "address",
          "name": "_restrictedAdmin",
          "type": "address"
        },
        {
          "internalType": "address",
          "name": "_rewardsRecipient",
          "type": "address"
        },
        {
          "components": [
            {
              "internalType": "address",
              "name": "oracle",
              "type": "address"
            },
            {
              "internalType": "address",
              "name": "stake",
              "type": "address"
            },
            {
              "internalType": "uint256",
              "name": "stakeSize",
              "type": "uint256"
            },
            {
              "internalType": "uint256",
              "name": "minm",
              "type": "uint256"
            },
            {
              "internalType": "uint256",
              "name": "maxm",
              "type": "uint256"
            },
            {
              "internalType": "uint128",
              "name": "ifee",
              "type": "uint128"
            },
            {
              "internalType": "uint16",
              "name": "mode",
              "type": "uint16"
            },
            {
              "internalType": "uint64",
              "name": "tilt",
              "type": "uint64"
            },
            {
              "internalType": "uint256",
              "name": "guard",
              "type": "uint256"
            }
          ],
          "internalType": "struct BaseFactory.FactoryParams",
          "name": "_factoryParams",
          "type": "tuple"
        }
      ],
      "stateMutability": "nonpayable",
      "type": "constructor"
    },
    {
      "inputs": [],
      "name": "InvalidPrice",
      "type": "error"
    },
    {
      "inputs": [],
      "name": "OnlyPeriphery",
      "type": "error"
    },
    {
      "inputs": [],
      "name": "TargetNotSupported",
      "type": "error"
    },
    {
      "anonymous": false,
      "inputs": [
        {
          "indexed": true,
          "internalType": "address",
          "name": "oldAdmin",
          "type": "address"
        },
        {
          "indexed": true,
          "internalType": "address",
          "name": "newAdmin",
          "type": "address"
        }
      ],
      "name": "RestrictedAdminChanged",
      "type": "event"
    },
    {
      "anonymous": false,
      "inputs": [
        {
          "indexed": true,
          "internalType": "address",
          "name": "oldRecipient",
          "type": "address"
        },
        {
          "indexed": true,
          "internalType": "address",
          "name": "newRecipient",
          "type": "address"
        }
      ],
      "name": "RewardsRecipientChanged",
      "type": "event"
    },
    {
      "anonymous": false,
      "inputs": [
        {
          "indexed": true,
          "internalType": "address",
          "name": "target",
          "type": "address"
        },
        {
          "indexed": true,
          "internalType": "bool",
          "name": "supported",
          "type": "bool"
        }
      ],
      "name": "TargetSupported",
      "type": "event"
    },
    {
      "anonymous": false,
      "inputs": [
        {
          "indexed": true,
          "internalType": "address",
          "name": "user",
          "type": "address"
        },
        {
          "indexed": false,
          "internalType": "bool",
          "name": "trusted",
          "type": "bool"
        }
      ],
      "name": "UserTrustUpdated",
      "type": "event"
    },
    {
      "inputs": [],
      "name": "DEFAULT_LEVEL",
      "outputs": [
        {
          "internalType": "uint48",
          "name": "",
          "type": "uint48"
        }
      ],
      "stateMutability": "view",
      "type": "function"
    },
    {
      "inputs": [],
      "name": "ETH_USD_PRICEFEED",
      "outputs": [
        {
          "internalType": "address",
          "name": "",
          "type": "address"
        }
      ],
      "stateMutability": "view",
      "type": "function"
    },
    {
      "inputs": [
        {
          "internalType": "address",
          "name": "_target",
          "type": "address"
        },
        {
          "internalType": "bytes",
          "name": "data",
          "type": "bytes"
        }
      ],
      "name": "deployAdapter",
      "outputs": [
        {
          "internalType": "address",
          "name": "adapter",
          "type": "address"
        }
      ],
      "stateMutability": "nonpayable",
      "type": "function"
    },
    {
      "inputs": [],
      "name": "divider",
      "outputs": [
        {
          "internalType": "address",
          "name": "",
          "type": "address"
        }
      ],
      "stateMutability": "view",
      "type": "function"
    },
    {
      "inputs": [],
      "name": "factoryParams",
      "outputs": [
        {
          "internalType": "address",
          "name": "oracle",
          "type": "address"
        },
        {
          "internalType": "address",
          "name": "stake",
          "type": "address"
        },
        {
          "internalType": "uint256",
          "name": "stakeSize",
          "type": "uint256"
        },
        {
          "internalType": "uint256",
          "name": "minm",
          "type": "uint256"
        },
        {
          "internalType": "uint256",
          "name": "maxm",
          "type": "uint256"
        },
        {
          "internalType": "uint128",
          "name": "ifee",
          "type": "uint128"
        },
        {
          "internalType": "uint16",
          "name": "mode",
          "type": "uint16"
        },
        {
          "internalType": "uint64",
          "name": "tilt",
          "type": "uint64"
        },
        {
          "internalType": "uint256",
          "name": "guard",
          "type": "uint256"
        }
      ],
      "stateMutability": "view",
      "type": "function"
    },
    {
      "inputs": [
        {
          "internalType": "address",
          "name": "",
          "type": "address"
        }
      ],
      "name": "isTrusted",
      "outputs": [
        {
          "internalType": "bool",
          "name": "",
          "type": "bool"
        }
      ],
      "stateMutability": "view",
      "type": "function"
    },
    {
      "inputs": [],
      "name": "restrictedAdmin",
      "outputs": [
        {
          "internalType": "address",
          "name": "",
          "type": "address"
        }
      ],
      "stateMutability": "view",
      "type": "function"
    },
    {
      "inputs": [],
      "name": "rewardsRecipient",
      "outputs": [
        {
          "internalType": "address",
          "name": "",
          "type": "address"
        }
      ],
      "stateMutability": "view",
      "type": "function"
    },
    {
      "inputs": [
        {
          "internalType": "address",
          "name": "user",
          "type": "address"
        },
        {
          "internalType": "bool",
          "name": "trusted",
          "type": "bool"
        }
      ],
      "name": "setIsTrusted",
      "outputs": [],
      "stateMutability": "nonpayable",
      "type": "function"
    },
    {
      "inputs": [
        {
          "internalType": "address",
          "name": "_restrictedAdmin",
          "type": "address"
        }
      ],
      "name": "setRestrictedAdmin",
      "outputs": [],
      "stateMutability": "nonpayable",
      "type": "function"
    },
    {
      "inputs": [
        {
          "internalType": "address",
          "name": "_recipient",
          "type": "address"
        }
      ],
      "name": "setRewardsRecipient",
      "outputs": [],
      "stateMutability": "nonpayable",
      "type": "function"
    },
    {
      "inputs": [
        {
          "internalType": "address",
          "name": "_target",
          "type": "address"
        },
        {
          "internalType": "bool",
          "name": "supported",
          "type": "bool"
        }
      ],
      "name": "supportTarget",
      "outputs": [],
      "stateMutability": "nonpayable",
      "type": "function"
    },
    {
      "inputs": [
        {
          "internalType": "address[]",
          "name": "_targets",
          "type": "address[]"
        },
        {
          "internalType": "bool",
          "name": "supported",
          "type": "bool"
        }
      ],
      "name": "supportTargets",
      "outputs": [],
      "stateMutability": "nonpayable",
      "type": "function"
    },
    {
      "inputs": [
        {
          "internalType": "address",
          "name": "",
          "type": "address"
        }
      ],
      "name": "supportedTargets",
      "outputs": [
        {
          "internalType": "bool",
          "name": "",
          "type": "bool"
        }
      ],
      "stateMutability": "view",
      "type": "function"
    }
  ],
  "transactionHash": "0x73444f9950c8430228f57b9930be7e65c3a3e5c0f285b28a4a3d27805cb28887",
  "args": [
    "0x86bA3E96Be68563E41c2f5769F1AF9fAf758e6E0",
    "0xDd76360C26Eaf63AFCF3a8d2c0121F13AE864D57",
    "0xDd76360C26Eaf63AFCF3a8d2c0121F13AE864D57",
    [
      "0x11D341d35BF95654BC7A9db59DBc557cCB4ea101",
      "0xC02aaA39b223FE8D0A0e5C4F27eAD9083C756Cc2",
      "250000000000000000",
      "2629800",
      "315576000",
      "1000000000000000",
      0,
      0,
      "100000000000000000000000"
    ]
  ],
  "numDeployments": 1,
  "solcInputHash": "0a8288c74dca66ed183d7508fd414b1d",
  "bytecode": "0x60a06040523480156200001157600080fd5b5060405162003ffb38038062003ffb833981016040819052620000349162000210565b3360008181526020818152604091829020805460ff19166001908117909155915191825286928692869286929182917fe95aec380cae16330d146d5499ef7db6f3657e477104a733e771bc09e500d986910160405180910390a2506001600160a01b039384166080908152600180549486166001600160a01b0319958616179055600280549386169385169390931790925580516003805491861691851691909117905560208101516004805491909516931692909217909255604081015160055560608101516006559081015160075560a08101516008805460c084015160e08501516001600160401b0316600160901b02600160901b600160d01b031961ffff909216600160801b026001600160901b03199093166001600160801b039095169490941791909117169190911790556101000151600955506200030c92505050565b80516001600160a01b03811681146200019057600080fd5b919050565b60405161012081016001600160401b0381118282101715620001c757634e487b7160e01b600052604160045260246000fd5b60405290565b80516001600160801b03811681146200019057600080fd5b805161ffff811681146200019057600080fd5b80516001600160401b03811681146200019057600080fd5b6000806000808486036101808112156200022957600080fd5b620002348662000178565b9450620002446020870162000178565b9350620002546040870162000178565b925061012080605f19830112156200026b57600080fd5b6200027562000195565b9150620002856060880162000178565b8252620002956080880162000178565b602083015260a0870151604083015260c0870151606083015260e08701516080830152610100620002c8818901620001cd565b60a0840152620002da828901620001e5565b60c0840152620002ee6101408901620001f8565b60e08401526101608801518184015250508091505092959194509250565b608051613cb06200034b60003960008181610183015281816105ed015281816106cd0152818161089201528181610d270152610fc20152613cb06000f3fe60806040523480156200001157600080fd5b5060043610620000fd5760003560e01c806395a39fb11162000097578063cac0e3c2116200006e578063cac0e3c2146200034d578063dc69c06f1462000364578063f67359ea146200038a578063ff2a7d3014620003a157600080fd5b806395a39fb114620001f957806396d648791462000210578063bbe451d5146200024757600080fd5b8063378efa3711620000d8578063378efa37146200017d5780633cad2dcd14620001a557806340cc63e114620001bc57806393d4750c14620001d857600080fd5b80630c1b797914620001025780631393916a146200014d5780631a54259c1462000166575b600080fd5b600154620001239073ffffffffffffffffffffffffffffffffffffffff1681565b60405173ffffffffffffffffffffffffffffffffffffffff90911681526020015b60405180910390f35b620001646200015e3660046200123f565b620003c2565b005b62000164620001773660046200127d565b620004c9565b620001237f000000000000000000000000000000000000000000000000000000000000000081565b62000123620001b636600462001325565b620005d2565b62000123735f4ec3df9cbd43714fe2740f5e3616155c5b841981565b620001e1601f81565b60405165ffffffffffff909116815260200162000144565b620001646200020a366004620013f6565b620009ab565b62000236620002213660046200127d565b60006020819052908152604090205460ff1681565b604051901515815260200162000144565b600354600454600554600654600754600854600954620002d09673ffffffffffffffffffffffffffffffffffffffff9081169616949392916fffffffffffffffffffffffffffffffff811691700100000000000000000000000000000000820461ffff16917201000000000000000000000000000000000000900467ffffffffffffffff169089565b6040805173ffffffffffffffffffffffffffffffffffffffff9a8b1681529990981660208a015296880195909552606087019390935260808601919091526fffffffffffffffffffffffffffffffff1660a085015261ffff1660c084015267ffffffffffffffff1660e08301526101008201526101200162000144565b620001646200035e3660046200123f565b62000b22565b62000236620003753660046200127d565b600a6020526000908152604090205460ff1681565b620001646200039b3660046200127d565b62000c1c565b600254620001239073ffffffffffffffffffffffffffffffffffffffff1681565b3360009081526020819052604090205460ff1662000441576040517f08c379a000000000000000000000000000000000000000000000000000000000815260206004820152600960248201527f554e54525553544544000000000000000000000000000000000000000000000060448201526064015b60405180910390fd5b73ffffffffffffffffffffffffffffffffffffffff82166000818152602081815260409182902080547fffffffffffffffffffffffffffffffffffffffffffffffffffffffffffffff001685151590811790915591519182527fe95aec380cae16330d146d5499ef7db6f3657e477104a733e771bc09e500d986910160405180910390a25050565b3360009081526020819052604090205460ff1662000544576040517f08c379a000000000000000000000000000000000000000000000000000000000815260206004820152600960248201527f554e545255535445440000000000000000000000000000000000000000000000604482015260640162000438565b60025460405173ffffffffffffffffffffffffffffffffffffffff8084169216907f952c654458751f95c1440bdb1537809137b3de28466b80ad096a711707ae987a90600090a3600280547fffffffffffffffffffffffff00000000000000000000000000000000000000001673ffffffffffffffffffffffffffffffffffffffff92909216919091179055565b60003373ffffffffffffffffffffffffffffffffffffffff167f000000000000000000000000000000000000000000000000000000000000000073ffffffffffffffffffffffffffffffffffffffff166377aace1a6040518163ffffffff1660e01b8152600401602060405180830381865afa15801562000657573d6000803e3d6000fd5b505050506040513d601f19601f820116820180604052508101906200067d9190620014c9565b73ffffffffffffffffffffffffffffffffffffffff1614620006cb576040517ffb02114900000000000000000000000000000000000000000000000000000000815260040160405180910390fd5b7f000000000000000000000000000000000000000000000000000000000000000073ffffffffffffffffffffffffffffffffffffffff1663a1256f9f6040518163ffffffff1660e01b8152600401602060405180830381865afa15801562000737573d6000803e3d6000fd5b505050506040513d601f19601f820116820180604052508101906200075d9190620014e9565b15801562000791575073ffffffffffffffffffffffffffffffffffffffff83166000908152600a602052604090205460ff16155b15620007c9576040517fa2a94ace00000000000000000000000000000000000000000000000000000000815260040160405180910390fd5b604080516101008101825260035473ffffffffffffffffffffffffffffffffffffffff9081168252600454811660208301526005548284015260065460608084019190915260075460808401526008547201000000000000000000000000000000000000810467ffffffffffffffff1660a0850152601f60c0850152700100000000000000000000000000000000810461ffff1660e0850152600254945193949188901b7fffffffffffffffffffffffffffffffffffffffff00000000000000000000000016937f000000000000000000000000000000000000000000000000000000000000000093899316916fffffffffffffffffffffffffffffffff16908690620008d690620011ed565b620008e695949392919062001509565b8190604051809103906000f590508015801562000907573d6000803e3d6000fd5b509150620009158262000d25565b600180546040517f1393916a00000000000000000000000000000000000000000000000000000000815273ffffffffffffffffffffffffffffffffffffffff91821660048201526024810192909252831690631393916a90604401600060405180830381600087803b1580156200098b57600080fd5b505af1158015620009a0573d6000803e3d6000fd5b505050505092915050565b3360009081526020819052604090205460ff1662000a26576040517f08c379a000000000000000000000000000000000000000000000000000000000815260206004820152600960248201527f554e545255535445440000000000000000000000000000000000000000000000604482015260640162000438565b60005b825181101562000b1d5781600a600085848151811062000a4d5762000a4d620015d5565b602002602001015173ffffffffffffffffffffffffffffffffffffffff1673ffffffffffffffffffffffffffffffffffffffff16815260200190815260200160002060006101000a81548160ff02191690831515021790555081151583828151811062000abe5762000abe620015d5565b602002602001015173ffffffffffffffffffffffffffffffffffffffff167f34465fae8b1f082faa1eb1845b34c2bfd6b86cc48df2ebf6426eeddd7e3a4c9a60405160405180910390a38062000b148162001633565b91505062000a29565b505050565b3360009081526020819052604090205460ff1662000b9d576040517f08c379a000000000000000000000000000000000000000000000000000000000815260206004820152600960248201527f554e545255535445440000000000000000000000000000000000000000000000604482015260640162000438565b73ffffffffffffffffffffffffffffffffffffffff82166000818152600a602052604080822080547fffffffffffffffffffffffffffffffffffffffffffffffffffffffffffffff001685151590811790915590519092917f34465fae8b1f082faa1eb1845b34c2bfd6b86cc48df2ebf6426eeddd7e3a4c9a91a35050565b3360009081526020819052604090205460ff1662000c97576040517f08c379a000000000000000000000000000000000000000000000000000000000815260206004820152600960248201527f554e545255535445440000000000000000000000000000000000000000000000604482015260640162000438565b60015460405173ffffffffffffffffffffffffffffffffffffffff8084169216907fb656925e78f8f28c65d9357077dfd5d3d0056d5eac98c8c1a1e0b426ffd43d4a90600090a3600180547fffffffffffffffffffffffff00000000000000000000000000000000000000001673ffffffffffffffffffffffffffffffffffffffff92909216919091179055565b7f000000000000000000000000000000000000000000000000000000000000000073ffffffffffffffffffffffffffffffffffffffff166372f7a0306040518163ffffffff1660e01b8152600401602060405180830381865afa15801562000d91573d6000803e3d6000fd5b505050506040513d601f19601f8201168201806040525081019062000db79190620014e9565b15620011895760008190508073ffffffffffffffffffffffffffffffffffffffff1663468f02d26040518163ffffffff1660e01b8152600401602060405180830381865afa92505050801562000e4a575060408051601f3d9081017fffffffffffffffffffffffffffffffffffffffffffffffffffffffffffffffe016820190925262000e47918101906200166e565b60015b156200118757600080735f4ec3df9cbd43714fe2740f5e3616155c5b841973ffffffffffffffffffffffffffffffffffffffff1663feaf968c6040518163ffffffff1660e01b815260040160a060405180830381865afa15801562000eb3573d6000803e3d6000fd5b505050506040513d601f19601f8201168201806040525081019062000ed99190620016a3565b50935050925050611c20814262000ef19190620016f8565b111562000f29576040517ebfc92100000000000000000000000000000000000000000000000000000000815260040160405180910390fd5b600062000f3c84846305f5e1006200118c565b905062000fbe818673ffffffffffffffffffffffffffffffffffffffff1663f51e181a6040518163ffffffff1660e01b81526004016020604051808303816000875af115801562000f91573d6000803e3d6000fd5b505050506040513d601f19601f8201168201806040525081019062000fb791906200166e565b90620011a3565b90507f000000000000000000000000000000000000000000000000000000000000000073ffffffffffffffffffffffffffffffffffffffff16635fa0cc0a87620010fd848973ffffffffffffffffffffffffffffffffffffffff1663d4b839926040518163ffffffff1660e01b8152600401602060405180830381865afa1580156200104e573d6000803e3d6000fd5b505050506040513d601f19601f82011682018060405250810190620010749190620014c9565b73ffffffffffffffffffffffffffffffffffffffff1663313ce5676040518163ffffffff1660e01b8152600401602060405180830381865afa158015620010bf573d6000803e3d6000fd5b505050506040513d601f19601f82011682018060405250810190620010e591906200166e565b620010f290600a6200184b565b6009549190620011c3565b6040517fffffffff0000000000000000000000000000000000000000000000000000000060e085901b16815273ffffffffffffffffffffffffffffffffffffffff90921660048301526024820152604401600060405180830381600087803b1580156200116957600080fd5b505af11580156200117e573d6000803e3d6000fd5b50505050505050505b505b50565b60006200119b848484620011cd565b949350505050565b6000620011ba8383670de0b6b3a7640000620011cd565b90505b92915050565b60006200119b8483855b828202811515841585830485141716620011e657600080fd5b0492915050565b612421806200185a83390190565b73ffffffffffffffffffffffffffffffffffffffff811681146200118957600080fd5b80151581146200118957600080fd5b80356200123a816200121e565b919050565b600080604083850312156200125357600080fd5b82356200126081620011fb565b9150602083013562001272816200121e565b809150509250929050565b6000602082840312156200129057600080fd5b81356200129d81620011fb565b9392505050565b7f4e487b7100000000000000000000000000000000000000000000000000000000600052604160045260246000fd5b604051601f82017fffffffffffffffffffffffffffffffffffffffffffffffffffffffffffffffe016810167ffffffffffffffff811182821017156200131d576200131d620012a4565b604052919050565b600080604083850312156200133957600080fd5b82356200134681620011fb565b915060208381013567ffffffffffffffff808211156200136557600080fd5b818601915086601f8301126200137a57600080fd5b8135818111156200138f576200138f620012a4565b620013c1847fffffffffffffffffffffffffffffffffffffffffffffffffffffffffffffffe0601f84011601620012d3565b91508082528784828501011115620013d857600080fd5b80848401858401376000848284010152508093505050509250929050565b600080604083850312156200140a57600080fd5b823567ffffffffffffffff808211156200142357600080fd5b818501915085601f8301126200143857600080fd5b81356020828211156200144f576200144f620012a4565b8160051b925062001462818401620012d3565b82815292840181019281810190898511156200147d57600080fd5b948201945b84861015620014ab57853593506200149a84620011fb565b838252948201949082019062001482565b9650620014bc90508782016200122d565b9450505050509250929050565b600060208284031215620014dc57600080fd5b81516200129d81620011fb565b600060208284031215620014fc57600080fd5b81516200129d816200121e565b60006101808201905073ffffffffffffffffffffffffffffffffffffffff8088168352808716602084015280861660408401526fffffffffffffffffffffffffffffffff851660608401528084511660808401528060208501511660a084015250604083015160c0830152606083015160e0830152608083015161010083015267ffffffffffffffff60a08401511661012083015260c0830151620015b961014084018265ffffffffffff169052565b5060e083015161ffff8116610160840152509695505050505050565b7f4e487b7100000000000000000000000000000000000000000000000000000000600052603260045260246000fd5b7f4e487b7100000000000000000000000000000000000000000000000000000000600052601160045260246000fd5b60007fffffffffffffffffffffffffffffffffffffffffffffffffffffffffffffffff820362001667576200166762001604565b5060010190565b6000602082840312156200168157600080fd5b5051919050565b805169ffffffffffffffffffff811681146200123a57600080fd5b600080600080600060a08688031215620016bc57600080fd5b620016c78662001688565b9450602086015193506040860151925060608601519150620016ec6080870162001688565b90509295509295909350565b6000828210156200170d576200170d62001604565b500390565b600181815b808511156200177157817fffffffffffffffffffffffffffffffffffffffffffffffffffffffffffffffff0482111562001755576200175562001604565b808516156200176357918102915b93841c939080029062001717565b509250929050565b6000826200178a57506001620011bd565b816200179957506000620011bd565b8160018114620017b25760028114620017bd57620017dd565b6001915050620011bd565b60ff841115620017d157620017d162001604565b50506001821b620011bd565b5060208310610133831016604e8410600b841016171562001802575081810a620011bd565b6200180e838362001712565b807fffffffffffffffffffffffffffffffffffffffffffffffffffffffffffffffff0482111562001843576200184362001604565b029392505050565b6000620011ba83836200177956fe6101406040523480156200001257600080fd5b50604051620024213803806200242183398101604081905262000035916200069f565b82338686876001600160a01b03166338d52e0f6040518163ffffffff1660e01b8152600401602060405180830381865afa15801562000078573d6000803e3d6000fd5b505050506040513d601f19601f820116820180604052508101906200009e9190620007b9565b6001600160a01b03808416608090815283821660a081815284841660c09081526001600160801b038c1660e09081528b51600080549188166001600160a01b031992831617815560208e015160018054919099169216919091179096556040808d015160025560608d0151600355948c01516004908155928c015160058054938e0151928e015161ffff16600160701b0261ffff60701b1965ffffffffffff90941668010000000000000000026001600160701b03199095166001600160401b0390931692909217939093179190911617905582516306fdde0360e01b815292518b948b946306fdde039381810193918290030181865afa158015620001a8573d6000803e3d6000fd5b505050506040513d6000823e601f3d908101601f19168201604052620001d291908101906200080f565b604051602001620001e49190620008c7565b604051602081830303815290604052600690805190602001906200020a9291906200054a565b50836001600160a01b03166395d89b416040518163ffffffff1660e01b8152600401600060405180830381865afa1580156200024a573d6000803e3d6000fd5b505050506040513d6000823e601f3d908101601f191682016040526200027491908101906200080f565b604051602001620002869190620008f5565b60405160208183030381529060405260079080519060200190620002ac9291906200054a565b50620002d6608051600019866001600160a01b0316620004c860201b620011e8179092919060201c565b6200030360805160001983602001516001600160a01b0316620004c860201b620011e8179092919060201c565b505050506001600160a01b038216600081815260086020908152604091829020805460ff1916600190811790915591519182529192507fe95aec380cae16330d146d5499ef7db6f3657e477104a733e771bc09e500d986910160405180910390a25080600960006101000a8154816001600160a01b0302191690836001600160a01b031602179055505060a0516001600160a01b031663313ce5676040518163ffffffff1660e01b8152600401602060405180830381865afa158015620003ce573d6000803e3d6000fd5b505050506040513d601f19601f82011682018060405250810190620003f4919062000923565b6200040190600a62000a5d565b610100818152505060c0516001600160a01b031663313ce5676040518163ffffffff1660e01b8152600401602060405180830381865afa1580156200044a573d6000803e3d6000fd5b505050506040513d601f19601f8201168201806040525081019062000470919062000923565b6200047d90601262000a6e565b6200048a90600a62000a5d565b6101208181525050620004bd60a05160001960c0516001600160a01b0316620004c860201b620011e8179092919060201c565b505050505062000ad0565b600060405163095ea7b360e01b8152836004820152826024820152602060006044836000895af13d15601f3d1160016000511416171691505080620005445760405162461bcd60e51b815260206004820152600e60248201526d1054141493d59157d1905253115160921b604482015260640160405180910390fd5b50505050565b828054620005589062000a94565b90600052602060002090601f0160209004810192826200057c5760008555620005c7565b82601f106200059757805160ff1916838001178555620005c7565b82800160010185558215620005c7579182015b82811115620005c7578251825591602001919060010190620005aa565b50620005d5929150620005d9565b5090565b5b80821115620005d55760008155600101620005da565b6001600160a01b03811681146200060657600080fd5b50565b80516200061681620005f0565b919050565b634e487b7160e01b600052604160045260246000fd5b60405161010081016001600160401b03811182821017156200065757620006576200061b565b60405290565b80516001600160401b03811681146200061657600080fd5b805165ffffffffffff811681146200061657600080fd5b805161ffff811681146200061657600080fd5b6000806000806000858703610180811215620006ba57600080fd5b8651620006c781620005f0565b6020880151909650620006da81620005f0565b6040880151909550620006ed81620005f0565b60608801519094506001600160801b03811681146200070b57600080fd5b9250610100607f1982018113156200072257600080fd5b6200072c62000631565b915060808801516200073e81620005f0565b82526200074e60a0890162000609565b602083015260c0880151604083015260e0880151606083015287015160808201526200077e61012088016200065d565b60a082015262000792610140880162000675565b60c0820152620007a661016088016200068c565b60e0820152809150509295509295909350565b600060208284031215620007cc57600080fd5b8151620007d981620005f0565b9392505050565b60005b83811015620007fd578181015183820152602001620007e3565b83811115620005445750506000910152565b6000602082840312156200082257600080fd5b81516001600160401b03808211156200083a57600080fd5b818401915084601f8301126200084f57600080fd5b8151818111156200086457620008646200061b565b604051601f8201601f19908116603f011681019083821181831017156200088f576200088f6200061b565b81604052828152876020848701011115620008a957600080fd5b620008bc836020830160208801620007e0565b979650505050505050565b60008251620008db818460208701620007e0565b671020b230b83a32b960c11b920191825250600801919050565b6000825162000909818460208701620007e0565b6716b0b230b83a32b960c11b920191825250600801919050565b6000602082840312156200093657600080fd5b815160ff81168114620007d957600080fd5b634e487b7160e01b600052601160045260246000fd5b600181815b808511156200099f57816000190482111562000983576200098362000948565b808516156200099157918102915b93841c939080029062000963565b509250929050565b600082620009b85750600162000a57565b81620009c75750600062000a57565b8160018114620009e05760028114620009eb5762000a0b565b600191505062000a57565b60ff841115620009ff57620009ff62000948565b50506001821b62000a57565b5060208310610133831016604e8410600b841016171562000a30575081810a62000a57565b62000a3c83836200095e565b806000190482111562000a535762000a5362000948565b0290505b92915050565b6000620007d960ff841683620009a7565b600060ff821660ff84168082101562000a8b5762000a8b62000948565b90039392505050565b600181811c9082168062000aa957607f821691505b60208210810362000aca57634e487b7160e01b600052602260045260246000fd5b50919050565b60805160a05160c05160e051610100516101205161189f62000b82600039600081816105b2015261093701526000818161058b015261090e0152600061053101526000818161048901528181610a290152610af7015260008181610352015281816105d90152818161096e01528181610b5401528181610c1c01528181610d6f01528181610de501528181610ecd0152818161115c01526114240152600081816103ab0152610c7b015261189f6000f3fe608060405234801561001057600080fd5b50600436106101e55760003560e01c806364c56e3c1161010f578063c39a3b29116100a2578063d9d98ce411610071578063d9d98ce4146105fb578063f51e181a1461031b578063f60c05ce1461060e578063ff2a7d301461062957600080fd5b8063c39a3b2914610574578063cce5938614610586578063ce4b5bbe146105ad578063d4b83992146105d457600080fd5b806395d89b41116100de57806395d89b41146104ee57806396d64879146104f6578063b484972a14610519578063b8c15a9f1461052c57600080fd5b806364c56e3c146104695780636f307dc3146104845780636fd5ae15146104ab5780638237e538146104c757600080fd5b8063295a52121161018757806351c39ea11161015657806351c39ea11461040d5780635cffe9de14610420578063608c44d614610443578063613255ab1461045657600080fd5b8063295a521214610388578063378efa37146103a6578063468f02d2146103f25780634aae9fed146103fa57600080fd5b806314282f58116101c357806314282f58146102f45780631a54259c14610308578063226778491461031b57806327b327d01461033157600080fd5b806306fdde03146101ea578063083118d5146102085780631393916a146102df575b600080fd5b6101f2610649565b6040516101ff919061149c565b60405180910390f35b6000546001546002546003546004546005546102769573ffffffffffffffffffffffffffffffffffffffff90811695169392919067ffffffffffffffff81169068010000000000000000810465ffffffffffff16906e010000000000000000000000000000900461ffff1688565b6040805173ffffffffffffffffffffffffffffffffffffffff998a168152989097166020890152958701949094526060860192909252608085015267ffffffffffffffff1660a084015265ffffffffffff1660c083015261ffff1660e0820152610100016101ff565b6102f26102ed366004611549565b6106d7565b005b6102f261030236600461157e565b50505050565b6102f26103163660046115b0565b6107df565b6103236108e6565b6040519081526020016101ff565b6001546002546040805173ffffffffffffffffffffffffffffffffffffffff7f00000000000000000000000000000000000000000000000000000000000000008116825290931660208401528201526060016101ff565b6005546e010000000000000000000000000000900461ffff16610323565b6103cd7f000000000000000000000000000000000000000000000000000000000000000081565b60405173ffffffffffffffffffffffffffffffffffffffff90911681526020016101ff565b6103236109e8565b6103236104083660046115d4565b610adb565b61032361041b3660046115d4565b610bdd565b61043361042e3660046115ed565b610c60565b60405190151581526020016101ff565b6102f26104513660046115b0565b610f02565b6103236104643660046115b0565b6110de565b600354600454604080519283526020830191909152016101ff565b6103cd7f000000000000000000000000000000000000000000000000000000000000000081565b60055468010000000000000000900465ffffffffffff16610323565b6103237f439148f0bbc682ca079e46d6e2c2f0c1e3b820f1a291b069d8882abf8cf18dd981565b6101f261114b565b6104336105043660046115b0565b60086020526000908152604090205460ff1681565b6102f261052736600461168c565b505050565b6105537f000000000000000000000000000000000000000000000000000000000000000081565b6040516fffffffffffffffffffffffffffffffff90911681526020016101ff565b60055467ffffffffffffffff16610323565b6103237f000000000000000000000000000000000000000000000000000000000000000081565b6103237f000000000000000000000000000000000000000000000000000000000000000081565b6103cd7f000000000000000000000000000000000000000000000000000000000000000081565b6103236106093660046116ca565b611158565b6103cd731887118e49e0f4a78bd71b792a49de03504a764d81565b6009546103cd9073ffffffffffffffffffffffffffffffffffffffff1681565b60068054610656906116f6565b80601f0160208091040260200160405190810160405280929190818152602001828054610682906116f6565b80156106cf5780601f106106a4576101008083540402835291602001916106cf565b820191906000526020600020905b8154815290600101906020018083116106b257829003601f168201915b505050505081565b3360009081526008602052604090205460ff16610755576040517f08c379a000000000000000000000000000000000000000000000000000000000815260206004820152600960248201527f554e54525553544544000000000000000000000000000000000000000000000060448201526064015b60405180910390fd5b73ffffffffffffffffffffffffffffffffffffffff821660008181526008602090815260409182902080547fffffffffffffffffffffffffffffffffffffffffffffffffffffffffffffff001685151590811790915591519182527fe95aec380cae16330d146d5499ef7db6f3657e477104a733e771bc09e500d986910160405180910390a25050565b3360009081526008602052604090205460ff16610858576040517f08c379a000000000000000000000000000000000000000000000000000000000815260206004820152600960248201527f554e545255535445440000000000000000000000000000000000000000000000604482015260640161074c565b60095460405173ffffffffffffffffffffffffffffffffffffffff8084169216907f952c654458751f95c1440bdb1537809137b3de28466b80ad096a711707ae987a90600090a3600980547fffffffffffffffffffffffff00000000000000000000000000000000000000001673ffffffffffffffffffffffffffffffffffffffff92909216919091179055565b6040517f07a2d13a0000000000000000000000000000000000000000000000000000000081527f000000000000000000000000000000000000000000000000000000000000000060048201526000907f00000000000000000000000000000000000000000000000000000000000000009073ffffffffffffffffffffffffffffffffffffffff7f000000000000000000000000000000000000000000000000000000000000000016906307a2d13a90602401602060405180830381865afa1580156109b5573d6000803e3d6000fd5b505050506040513d601f19601f820116820180604052508101906109d99190611749565b6109e39190611762565b905090565b600080546040517faea9107800000000000000000000000000000000000000000000000000000000815273ffffffffffffffffffffffffffffffffffffffff7f0000000000000000000000000000000000000000000000000000000000000000811660048301529091169063aea9107890602401602060405180830381865afa158015610a79573d6000803e3d6000fd5b505050506040513d601f19601f82011682018060405250810190610a9d9190611749565b905080600003610ad8576040517ebfc92100000000000000000000000000000000000000000000000000000000815260040160405180910390fd5b90565b6000610b1f73ffffffffffffffffffffffffffffffffffffffff7f0000000000000000000000000000000000000000000000000000000000000000163330856112a1565b6040517f6e553f65000000000000000000000000000000000000000000000000000000008152600481018390523360248201527f000000000000000000000000000000000000000000000000000000000000000073ffffffffffffffffffffffffffffffffffffffff1690636e553f65906044015b6020604051808303816000875af1158015610bb3573d6000803e3d6000fd5b505050506040513d601f19601f82011682018060405250810190610bd79190611749565b92915050565b6040517fba08765200000000000000000000000000000000000000000000000000000000815260048101829052336024820181905260448201526000907f000000000000000000000000000000000000000000000000000000000000000073ffffffffffffffffffffffffffffffffffffffff169063ba08765290606401610b94565b60003373ffffffffffffffffffffffffffffffffffffffff167f000000000000000000000000000000000000000000000000000000000000000073ffffffffffffffffffffffffffffffffffffffff166377aace1a6040518163ffffffff1660e01b8152600401602060405180830381865afa158015610ce4573d6000803e3d6000fd5b505050506040513d601f19601f82011682018060405250810190610d0891906117c6565b73ffffffffffffffffffffffffffffffffffffffff1614610d55576040517ffb02114900000000000000000000000000000000000000000000000000000000815260040160405180910390fd5b610d9673ffffffffffffffffffffffffffffffffffffffff7f0000000000000000000000000000000000000000000000000000000000000000168786611367565b6040517f23e30c8b00000000000000000000000000000000000000000000000000000000815260009073ffffffffffffffffffffffffffffffffffffffff8816906323e30c8b90610e159033907f0000000000000000000000000000000000000000000000000000000000000000908a9087908b908b906004016117e3565b6020604051808303816000875af1158015610e34573d6000803e3d6000fd5b505050506040513d601f19601f82011682018060405250810190610e589190611749565b90507f439148f0bbc682ca079e46d6e2c2f0c1e3b820f1a291b069d8882abf8cf18dd98114610eb3576040517f207df21c00000000000000000000000000000000000000000000000000000000815260040160405180910390fd5b610ef573ffffffffffffffffffffffffffffffffffffffff7f0000000000000000000000000000000000000000000000000000000000000000168830886112a1565b5060019695505050505050565b610f0b81611420565b610f41576040517f3dd1b30500000000000000000000000000000000000000000000000000000000815260040160405180910390fd5b6040517f70a08231000000000000000000000000000000000000000000000000000000008152306004820152819060009073ffffffffffffffffffffffffffffffffffffffff8316906370a0823190602401602060405180830381865afa158015610fb0573d6000803e3d6000fd5b505050506040513d601f19601f82011682018060405250810190610fd49190611749565b6009546040517f70a0823100000000000000000000000000000000000000000000000000000000815230600482015291925061108e9173ffffffffffffffffffffffffffffffffffffffff918216918516906370a0823190602401602060405180830381865afa15801561104c573d6000803e3d6000fd5b505050506040513d601f19601f820116820180604052508101906110709190611749565b73ffffffffffffffffffffffffffffffffffffffff85169190611367565b600954604051829173ffffffffffffffffffffffffffffffffffffffff90811691908616907f9310ccfcb8de723f578a9e4282ea9f521f05ae40dc08f3068dfad528a65ee3c790600090a4505050565b6040517f70a0823100000000000000000000000000000000000000000000000000000000815230600482015260009073ffffffffffffffffffffffffffffffffffffffff8316906370a0823190602401602060405180830381865afa158015610bb3573d6000803e3d6000fd5b60078054610656906116f6565b60007f000000000000000000000000000000000000000000000000000000000000000073ffffffffffffffffffffffffffffffffffffffff168373ffffffffffffffffffffffffffffffffffffffff16146111df576040517f3dd1b30500000000000000000000000000000000000000000000000000000000815260040160405180910390fd5b50600092915050565b60006040517f095ea7b3000000000000000000000000000000000000000000000000000000008152836004820152826024820152602060006044836000895af13d15601f3d1160016000511416171691505080610302576040517f08c379a000000000000000000000000000000000000000000000000000000000815260206004820152600e60248201527f415050524f56455f4641494c4544000000000000000000000000000000000000604482015260640161074c565b60006040517f23b872dd0000000000000000000000000000000000000000000000000000000081528460048201528360248201528260448201526020600060648360008a5af13d15601f3d1160016000511416171691505080611360576040517f08c379a000000000000000000000000000000000000000000000000000000000815260206004820152601460248201527f5452414e534645525f46524f4d5f4641494c4544000000000000000000000000604482015260640161074c565b5050505050565b60006040517fa9059cbb000000000000000000000000000000000000000000000000000000008152836004820152826024820152602060006044836000895af13d15601f3d1160016000511416171691505080610302576040517f08c379a000000000000000000000000000000000000000000000000000000000815260206004820152600f60248201527f5452414e534645525f4641494c45440000000000000000000000000000000000604482015260640161074c565b60007f000000000000000000000000000000000000000000000000000000000000000073ffffffffffffffffffffffffffffffffffffffff168273ffffffffffffffffffffffffffffffffffffffff1614158015610bd757505060015473ffffffffffffffffffffffffffffffffffffffff9081169116141590565b600060208083528351808285015260005b818110156114c9578581018301518582016040015282016114ad565b818111156114db576000604083870101525b50601f017fffffffffffffffffffffffffffffffffffffffffffffffffffffffffffffffe016929092016040019392505050565b73ffffffffffffffffffffffffffffffffffffffff8116811461153157600080fd5b50565b8035801515811461154457600080fd5b919050565b6000806040838503121561155c57600080fd5b82356115678161150f565b915061157560208401611534565b90509250929050565b6000806000806080858703121561159457600080fd5b5050823594602084013594506040840135936060013592509050565b6000602082840312156115c257600080fd5b81356115cd8161150f565b9392505050565b6000602082840312156115e657600080fd5b5035919050565b60008060008060006080868803121561160557600080fd5b85356116108161150f565b945060208601356116208161150f565b935060408601359250606086013567ffffffffffffffff8082111561164457600080fd5b818801915088601f83011261165857600080fd5b81358181111561166757600080fd5b89602082850101111561167957600080fd5b9699959850939650602001949392505050565b6000806000606084860312156116a157600080fd5b83356116ac8161150f565b9250602084013591506116c160408501611534565b90509250925092565b600080604083850312156116dd57600080fd5b82356116e88161150f565b946020939093013593505050565b600181811c9082168061170a57607f821691505b602082108103611743577f4e487b7100000000000000000000000000000000000000000000000000000000600052602260045260246000fd5b50919050565b60006020828403121561175b57600080fd5b5051919050565b6000817fffffffffffffffffffffffffffffffffffffffffffffffffffffffffffffffff04831182151516156117c1577f4e487b7100000000000000000000000000000000000000000000000000000000600052601160045260246000fd5b500290565b6000602082840312156117d857600080fd5b81516115cd8161150f565b600073ffffffffffffffffffffffffffffffffffffffff808916835280881660208401525085604083015284606083015260a060808301528260a0830152828460c0840137600060c0848401015260c07fffffffffffffffffffffffffffffffffffffffffffffffffffffffffffffffe0601f850116830101905097965050505050505056fea2646970667358221220d11b38159d6983e1ca800ad6a44cd353cf2e0fcc33b5e217ec9053572f8b80fa64736f6c634300080d0033a2646970667358221220479900823776e58ef21bf83d14c7a0fbebf2215c7162a3af3cf082bceb3cd0ad64736f6c634300080d0033",
  "devdoc": {
    "kind": "dev",
    "methods": {
      "deployAdapter(address,bytes)": {
        "params": {
          "_target": "The target address",
          "data": "ABI encoded reward tokens address array"
        }
      },
      "setRewardsRecipient(address)": {
        "details": "existing adapters rewards recipients will not be changed and can be done through `setRewardsRecipient` on each adapter contract"
      },
      "supportTarget(address,bool)": {
        "params": {
          "_target": "The target address",
          "supported": "Whether the target should be supported or not"
        }
      },
      "supportTargets(address[],bool)": {
        "params": {
          "_targets": "Array of target addresses",
          "supported": "Whether the targets should be supported or not"
        }
      }
    },
    "version": 1
  },
  "userdoc": {
    "kind": "user",
    "methods": {
      "DEFAULT_LEVEL()": {
        "notice": "Sets level to `31` by default, which keeps all Divider lifecycle methods public (`issue`, `combine`, `collect`, etc), but not the `onRedeem` hook."
      },
      "deployAdapter(address,bytes)": {
        "notice": "Deploys an ERC4626Adapter contract"
      },
      "divider()": {
        "notice": "Sense core Divider address"
      },
      "factoryParams()": {
        "notice": "params for adapters deployed with this factory"
      },
      "restrictedAdmin()": {
        "notice": "Adapter admin address"
      },
      "rewardsRecipient()": {
        "notice": "Rewards recipient"
      },
      "setRewardsRecipient(address)": {
        "notice": "Set factory rewards recipientall future deployed adapters will have the new rewards recipient"
      },
      "supportTarget(address,bool)": {
        "notice": "(Un)support target"
      },
      "supportTargets(address[],bool)": {
        "notice": "(Un)support multiple target at once"
      }
    },
    "version": 1
  },
  "storageLayout": {
    "storage": [
      {
        "astId": 20319,
        "contract": "@sense-finance/v1-core/src/adapters/abstract/factories/ERC4626Factory.sol:ERC4626Factory",
        "label": "isTrusted",
        "offset": 0,
        "slot": "0",
        "type": "t_mapping(t_address,t_bool)"
      },
      {
        "astId": 10001,
        "contract": "@sense-finance/v1-core/src/adapters/abstract/factories/ERC4626Factory.sol:ERC4626Factory",
        "label": "restrictedAdmin",
        "offset": 0,
        "slot": "1",
        "type": "t_address"
      },
      {
        "astId": 10004,
        "contract": "@sense-finance/v1-core/src/adapters/abstract/factories/ERC4626Factory.sol:ERC4626Factory",
        "label": "rewardsRecipient",
        "offset": 0,
        "slot": "2",
        "type": "t_address"
      },
      {
        "astId": 10008,
        "contract": "@sense-finance/v1-core/src/adapters/abstract/factories/ERC4626Factory.sol:ERC4626Factory",
        "label": "factoryParams",
        "offset": 0,
        "slot": "3",
        "type": "t_struct(FactoryParams)10027_storage"
      },
      {
        "astId": 10731,
        "contract": "@sense-finance/v1-core/src/adapters/abstract/factories/ERC4626Factory.sol:ERC4626Factory",
        "label": "supportedTargets",
        "offset": 0,
        "slot": "10",
        "type": "t_mapping(t_address,t_bool)"
      }
    ],
    "types": {
      "t_address": {
        "encoding": "inplace",
        "label": "address",
        "numberOfBytes": "20"
      },
      "t_bool": {
        "encoding": "inplace",
        "label": "bool",
        "numberOfBytes": "1"
      },
      "t_mapping(t_address,t_bool)": {
        "encoding": "mapping",
        "key": "t_address",
        "label": "mapping(address => bool)",
        "numberOfBytes": "32",
        "value": "t_bool"
      },
      "t_struct(FactoryParams)10027_storage": {
        "encoding": "inplace",
        "label": "struct BaseFactory.FactoryParams",
        "members": [
          {
            "astId": 10010,
            "contract": "@sense-finance/v1-core/src/adapters/abstract/factories/ERC4626Factory.sol:ERC4626Factory",
            "label": "oracle",
            "offset": 0,
            "slot": "0",
            "type": "t_address"
          },
          {
            "astId": 10012,
            "contract": "@sense-finance/v1-core/src/adapters/abstract/factories/ERC4626Factory.sol:ERC4626Factory",
            "label": "stake",
            "offset": 0,
            "slot": "1",
            "type": "t_address"
          },
          {
            "astId": 10014,
            "contract": "@sense-finance/v1-core/src/adapters/abstract/factories/ERC4626Factory.sol:ERC4626Factory",
            "label": "stakeSize",
            "offset": 0,
            "slot": "2",
            "type": "t_uint256"
          },
          {
            "astId": 10016,
            "contract": "@sense-finance/v1-core/src/adapters/abstract/factories/ERC4626Factory.sol:ERC4626Factory",
            "label": "minm",
            "offset": 0,
            "slot": "3",
            "type": "t_uint256"
          },
          {
            "astId": 10018,
            "contract": "@sense-finance/v1-core/src/adapters/abstract/factories/ERC4626Factory.sol:ERC4626Factory",
            "label": "maxm",
            "offset": 0,
            "slot": "4",
            "type": "t_uint256"
          },
          {
            "astId": 10020,
            "contract": "@sense-finance/v1-core/src/adapters/abstract/factories/ERC4626Factory.sol:ERC4626Factory",
            "label": "ifee",
            "offset": 0,
            "slot": "5",
            "type": "t_uint128"
          },
          {
            "astId": 10022,
            "contract": "@sense-finance/v1-core/src/adapters/abstract/factories/ERC4626Factory.sol:ERC4626Factory",
            "label": "mode",
            "offset": 16,
            "slot": "5",
            "type": "t_uint16"
          },
          {
            "astId": 10024,
            "contract": "@sense-finance/v1-core/src/adapters/abstract/factories/ERC4626Factory.sol:ERC4626Factory",
            "label": "tilt",
            "offset": 18,
            "slot": "5",
            "type": "t_uint64"
          },
          {
            "astId": 10026,
            "contract": "@sense-finance/v1-core/src/adapters/abstract/factories/ERC4626Factory.sol:ERC4626Factory",
            "label": "guard",
            "offset": 0,
            "slot": "6",
            "type": "t_uint256"
          }
        ],
        "numberOfBytes": "224"
      },
      "t_uint128": {
        "encoding": "inplace",
        "label": "uint128",
        "numberOfBytes": "16"
      },
      "t_uint16": {
        "encoding": "inplace",
        "label": "uint16",
        "numberOfBytes": "2"
      },
      "t_uint256": {
        "encoding": "inplace",
        "label": "uint256",
        "numberOfBytes": "32"
      },
      "t_uint64": {
        "encoding": "inplace",
        "label": "uint64",
        "numberOfBytes": "8"
      }
    }
  }
}