{
  "address": "0xAd06eFC15638BAc0D9D5BA5497dfbe204956a53d",
  "abi": [
    {
      "inputs": [
        {
          "internalType": "contract ERC20",
          "name": "asset_",
          "type": "address"
        },
        {
          "internalType": "contract ERC4626",
          "name": "aToken_",
          "type": "address"
        },
        {
          "internalType": "contract IBalancerStablePreview",
          "name": "previewHelper_",
          "type": "address"
        }
      ],
      "stateMutability": "nonpayable",
      "type": "constructor"
    },
    {
      "inputs": [],
      "name": "BoosterDepositFailed",
      "type": "error"
    },
    {
      "inputs": [],
      "name": "NotImplemented",
      "type": "error"
    },
    {
      "inputs": [],
      "name": "TokenNotSupported",
      "type": "error"
    },
    {
      "anonymous": false,
      "inputs": [
        {
          "indexed": true,
          "internalType": "address",
          "name": "owner",
          "type": "address"
        },
        {
          "indexed": true,
          "internalType": "address",
          "name": "spender",
          "type": "address"
        },
        {
          "indexed": false,
          "internalType": "uint256",
          "name": "amount",
          "type": "uint256"
        }
      ],
      "name": "Approval",
      "type": "event"
    },
    {
      "anonymous": false,
      "inputs": [
        {
          "indexed": true,
          "internalType": "address",
          "name": "caller",
          "type": "address"
        },
        {
          "indexed": true,
          "internalType": "address",
          "name": "owner",
          "type": "address"
        },
        {
          "indexed": false,
          "internalType": "uint256",
          "name": "assets",
          "type": "uint256"
        },
        {
          "indexed": false,
          "internalType": "uint256",
          "name": "shares",
          "type": "uint256"
        }
      ],
      "name": "Deposit",
      "type": "event"
    },
    {
      "anonymous": false,
      "inputs": [
        {
          "indexed": true,
          "internalType": "address",
          "name": "sender",
          "type": "address"
        },
        {
          "indexed": true,
          "internalType": "address",
          "name": "receiver",
          "type": "address"
        },
        {
          "indexed": true,
          "internalType": "uint256",
          "name": "amount",
          "type": "uint256"
        }
      ],
      "name": "DepositFromBPT",
      "type": "event"
    },
    {
      "anonymous": false,
      "inputs": [
        {
          "indexed": true,
          "internalType": "address",
          "name": "token",
          "type": "address"
        },
        {
          "indexed": true,
          "internalType": "address",
          "name": "recipient",
          "type": "address"
        },
        {
          "indexed": true,
          "internalType": "uint256",
          "name": "amount",
          "type": "uint256"
        }
      ],
      "name": "RewardsClaimed",
      "type": "event"
    },
    {
      "anonymous": false,
      "inputs": [
        {
          "indexed": true,
          "internalType": "address",
          "name": "oldRecipient",
          "type": "address"
        },
        {
          "indexed": true,
          "internalType": "address",
          "name": "newRecipient",
          "type": "address"
        }
      ],
      "name": "RewardsRecipientChanged",
      "type": "event"
    },
    {
      "anonymous": false,
      "inputs": [
        {
          "indexed": true,
          "internalType": "address",
          "name": "from",
          "type": "address"
        },
        {
          "indexed": true,
          "internalType": "address",
          "name": "to",
          "type": "address"
        },
        {
          "indexed": false,
          "internalType": "uint256",
          "name": "amount",
          "type": "uint256"
        }
      ],
      "name": "Transfer",
      "type": "event"
    },
    {
      "anonymous": false,
      "inputs": [
        {
          "indexed": true,
          "internalType": "address",
          "name": "user",
          "type": "address"
        },
        {
          "indexed": false,
          "internalType": "bool",
          "name": "trusted",
          "type": "bool"
        }
      ],
      "name": "UserTrustUpdated",
      "type": "event"
    },
    {
      "anonymous": false,
      "inputs": [
        {
          "indexed": true,
          "internalType": "address",
          "name": "caller",
          "type": "address"
        },
        {
          "indexed": true,
          "internalType": "address",
          "name": "receiver",
          "type": "address"
        },
        {
          "indexed": true,
          "internalType": "address",
          "name": "owner",
          "type": "address"
        },
        {
          "indexed": false,
          "internalType": "uint256",
          "name": "assets",
          "type": "uint256"
        },
        {
          "indexed": false,
          "internalType": "uint256",
          "name": "shares",
          "type": "uint256"
        }
      ],
      "name": "Withdraw",
      "type": "event"
    },
    {
      "anonymous": false,
      "inputs": [
        {
          "indexed": true,
          "internalType": "address",
          "name": "sender",
          "type": "address"
        },
        {
          "indexed": true,
          "internalType": "address",
          "name": "receiver",
          "type": "address"
        },
        {
          "indexed": false,
          "internalType": "address",
          "name": "owner",
          "type": "address"
        },
        {
          "indexed": true,
          "internalType": "uint256",
          "name": "amount",
          "type": "uint256"
        }
      ],
      "name": "WithdrawToBPT",
      "type": "event"
    },
    {
      "inputs": [],
      "name": "ALL_TOKENS_EXEMPT",
      "outputs": [
        {
          "internalType": "bool",
          "name": "",
          "type": "bool"
        }
      ],
      "stateMutability": "view",
      "type": "function"
    },
    {
      "inputs": [],
      "name": "BPT_INDEX",
      "outputs": [
        {
          "internalType": "uint256",
          "name": "",
          "type": "uint256"
        }
      ],
      "stateMutability": "view",
      "type": "function"
    },
    {
      "inputs": [],
      "name": "DOMAIN_SEPARATOR",
      "outputs": [
        {
          "internalType": "bytes32",
          "name": "",
          "type": "bytes32"
        }
      ],
      "stateMutability": "view",
      "type": "function"
    },
    {
      "inputs": [],
      "name": "NO_TOKENS_EXEMPT",
      "outputs": [
        {
          "internalType": "bool",
          "name": "",
          "type": "bool"
        }
      ],
      "stateMutability": "view",
      "type": "function"
    },
    {
      "inputs": [],
      "name": "aToken",
      "outputs": [
        {
          "internalType": "contract ERC4626",
          "name": "",
          "type": "address"
        }
      ],
      "stateMutability": "view",
      "type": "function"
    },
    {
      "inputs": [
        {
          "internalType": "address",
          "name": "",
          "type": "address"
        },
        {
          "internalType": "address",
          "name": "",
          "type": "address"
        }
      ],
      "name": "allowance",
      "outputs": [
        {
          "internalType": "uint256",
          "name": "",
          "type": "uint256"
        }
      ],
      "stateMutability": "view",
      "type": "function"
    },
    {
      "inputs": [
        {
          "internalType": "address",
          "name": "spender",
          "type": "address"
        },
        {
          "internalType": "uint256",
          "name": "amount",
          "type": "uint256"
        }
      ],
      "name": "approve",
      "outputs": [
        {
          "internalType": "bool",
          "name": "",
          "type": "bool"
        }
      ],
      "stateMutability": "nonpayable",
      "type": "function"
    },
    {
      "inputs": [],
      "name": "asset",
      "outputs": [
        {
          "internalType": "contract ERC20",
          "name": "",
          "type": "address"
        }
      ],
      "stateMutability": "view",
      "type": "function"
    },
    {
      "inputs": [],
      "name": "auraBooster",
      "outputs": [
        {
          "internalType": "contract IBooster",
          "name": "",
          "type": "address"
        }
      ],
      "stateMutability": "view",
      "type": "function"
    },
    {
      "inputs": [],
      "name": "auraPID",
      "outputs": [
        {
          "internalType": "uint256",
          "name": "",
          "type": "uint256"
        }
      ],
      "stateMutability": "view",
      "type": "function"
    },
    {
      "inputs": [
        {
          "internalType": "address",
          "name": "",
          "type": "address"
        }
      ],
      "name": "balanceOf",
      "outputs": [
        {
          "internalType": "uint256",
          "name": "",
          "type": "uint256"
        }
      ],
      "stateMutability": "view",
      "type": "function"
    },
    {
      "inputs": [],
      "name": "balancerVault",
      "outputs": [
        {
          "internalType": "contract BalancerVault",
          "name": "",
          "type": "address"
        }
      ],
      "stateMutability": "view",
      "type": "function"
    },
    {
      "inputs": [
        {
          "internalType": "uint256",
          "name": "shares",
          "type": "uint256"
        }
      ],
      "name": "convertToAssets",
      "outputs": [
        {
          "internalType": "uint256",
          "name": "assets",
          "type": "uint256"
        }
      ],
      "stateMutability": "view",
      "type": "function"
    },
    {
      "inputs": [
        {
          "internalType": "uint256",
          "name": "assets",
          "type": "uint256"
        }
      ],
      "name": "convertToShares",
      "outputs": [
        {
          "internalType": "uint256",
          "name": "",
          "type": "uint256"
        }
      ],
      "stateMutability": "view",
      "type": "function"
    },
    {
      "inputs": [],
      "name": "decimals",
      "outputs": [
        {
          "internalType": "uint8",
          "name": "",
          "type": "uint8"
        }
      ],
      "stateMutability": "view",
      "type": "function"
    },
    {
      "inputs": [
        {
          "internalType": "uint256",
          "name": "assets",
          "type": "uint256"
        },
        {
          "internalType": "address",
          "name": "receiver",
          "type": "address"
        }
      ],
      "name": "deposit",
      "outputs": [
        {
          "internalType": "uint256",
          "name": "shares",
          "type": "uint256"
        }
      ],
      "stateMutability": "nonpayable",
      "type": "function"
    },
    {
      "inputs": [
        {
          "internalType": "uint256",
          "name": "bptIn",
          "type": "uint256"
        },
        {
          "internalType": "address",
          "name": "receiver",
          "type": "address"
        }
      ],
      "name": "depositFromBPT",
      "outputs": [],
      "stateMutability": "nonpayable",
      "type": "function"
    },
    {
      "inputs": [
        {
          "internalType": "address",
          "name": "token",
          "type": "address"
        }
      ],
      "name": "extractToken",
      "outputs": [],
      "stateMutability": "nonpayable",
      "type": "function"
    },
    {
      "inputs": [
        {
          "internalType": "address",
          "name": "",
          "type": "address"
        }
      ],
      "name": "isTrusted",
      "outputs": [
        {
          "internalType": "bool",
          "name": "",
          "type": "bool"
        }
      ],
      "stateMutability": "view",
      "type": "function"
    },
    {
      "inputs": [
        {
          "internalType": "address",
          "name": "",
          "type": "address"
        }
      ],
      "name": "maxDeposit",
      "outputs": [
        {
          "internalType": "uint256",
          "name": "",
          "type": "uint256"
        }
      ],
      "stateMutability": "view",
      "type": "function"
    },
    {
      "inputs": [
        {
          "internalType": "address",
          "name": "",
          "type": "address"
        }
      ],
      "name": "maxMint",
      "outputs": [
        {
          "internalType": "uint256",
          "name": "",
          "type": "uint256"
        }
      ],
      "stateMutability": "view",
      "type": "function"
    },
    {
      "inputs": [
        {
          "internalType": "address",
          "name": "owner",
          "type": "address"
        }
      ],
      "name": "maxRedeem",
      "outputs": [
        {
          "internalType": "uint256",
          "name": "",
          "type": "uint256"
        }
      ],
      "stateMutability": "view",
      "type": "function"
    },
    {
      "inputs": [
        {
          "internalType": "address",
          "name": "owner",
          "type": "address"
        }
      ],
      "name": "maxWithdraw",
      "outputs": [
        {
          "internalType": "uint256",
          "name": "",
          "type": "uint256"
        }
      ],
      "stateMutability": "view",
      "type": "function"
    },
    {
      "inputs": [
        {
          "internalType": "uint256",
          "name": "shares",
          "type": "uint256"
        },
        {
          "internalType": "address",
          "name": "receiver",
          "type": "address"
        }
      ],
      "name": "mint",
      "outputs": [
        {
          "internalType": "uint256",
          "name": "assets",
          "type": "uint256"
        }
      ],
      "stateMutability": "nonpayable",
      "type": "function"
    },
    {
      "inputs": [],
      "name": "name",
      "outputs": [
        {
          "internalType": "string",
          "name": "",
          "type": "string"
        }
      ],
      "stateMutability": "view",
      "type": "function"
    },
    {
      "inputs": [
        {
          "internalType": "address",
          "name": "",
          "type": "address"
        }
      ],
      "name": "nonces",
      "outputs": [
        {
          "internalType": "uint256",
          "name": "",
          "type": "uint256"
        }
      ],
      "stateMutability": "view",
      "type": "function"
    },
    {
      "inputs": [
        {
          "internalType": "address",
          "name": "owner",
          "type": "address"
        },
        {
          "internalType": "address",
          "name": "spender",
          "type": "address"
        },
        {
          "internalType": "uint256",
          "name": "value",
          "type": "uint256"
        },
        {
          "internalType": "uint256",
          "name": "deadline",
          "type": "uint256"
        },
        {
          "internalType": "uint8",
          "name": "v",
          "type": "uint8"
        },
        {
          "internalType": "bytes32",
          "name": "r",
          "type": "bytes32"
        },
        {
          "internalType": "bytes32",
          "name": "s",
          "type": "bytes32"
        }
      ],
      "name": "permit",
      "outputs": [],
      "stateMutability": "nonpayable",
      "type": "function"
    },
    {
      "inputs": [],
      "name": "pool",
      "outputs": [
        {
          "internalType": "contract BalancerPool",
          "name": "",
          "type": "address"
        }
      ],
      "stateMutability": "view",
      "type": "function"
    },
    {
      "inputs": [
        {
          "internalType": "uint256",
          "name": "assets",
          "type": "uint256"
        }
      ],
      "name": "previewDeposit",
      "outputs": [
        {
          "internalType": "uint256",
          "name": "",
          "type": "uint256"
        }
      ],
      "stateMutability": "view",
      "type": "function"
    },
    {
      "inputs": [],
      "name": "previewHelper",
      "outputs": [
        {
          "internalType": "contract IBalancerStablePreview",
          "name": "",
          "type": "address"
        }
      ],
      "stateMutability": "view",
      "type": "function"
    },
    {
      "inputs": [
        {
          "internalType": "uint256",
          "name": "",
          "type": "uint256"
        }
      ],
      "name": "previewMint",
      "outputs": [
        {
          "internalType": "uint256",
          "name": "",
          "type": "uint256"
        }
      ],
      "stateMutability": "view",
      "type": "function"
    },
    {
      "inputs": [
        {
          "internalType": "uint256",
          "name": "shares",
          "type": "uint256"
        }
      ],
      "name": "previewRedeem",
      "outputs": [
        {
          "internalType": "uint256",
          "name": "",
          "type": "uint256"
        }
      ],
      "stateMutability": "view",
      "type": "function"
    },
    {
      "inputs": [
        {
          "internalType": "uint256",
          "name": "",
          "type": "uint256"
        }
      ],
      "name": "previewWithdraw",
      "outputs": [
        {
          "internalType": "uint256",
          "name": "",
          "type": "uint256"
        }
      ],
      "stateMutability": "view",
      "type": "function"
    },
    {
      "inputs": [
        {
          "internalType": "uint256",
          "name": "",
          "type": "uint256"
        }
      ],
      "name": "rateProviders",
      "outputs": [
        {
          "internalType": "address",
          "name": "",
          "type": "address"
        }
      ],
      "stateMutability": "view",
      "type": "function"
    },
    {
      "inputs": [
        {
          "internalType": "uint256",
          "name": "shares",
          "type": "uint256"
        },
        {
          "internalType": "address",
          "name": "receiver",
          "type": "address"
        },
        {
          "internalType": "address",
          "name": "owner",
          "type": "address"
        }
      ],
      "name": "redeem",
      "outputs": [
        {
          "internalType": "uint256",
          "name": "assets",
          "type": "uint256"
        }
      ],
      "stateMutability": "nonpayable",
      "type": "function"
    },
    {
      "inputs": [],
      "name": "rewardsRecipient",
      "outputs": [
        {
          "internalType": "address",
          "name": "",
          "type": "address"
        }
      ],
      "stateMutability": "view",
      "type": "function"
    },
    {
      "inputs": [
        {
          "internalType": "address",
          "name": "user",
          "type": "address"
        },
        {
          "internalType": "bool",
          "name": "trusted",
          "type": "bool"
        }
      ],
      "name": "setIsTrusted",
      "outputs": [],
      "stateMutability": "nonpayable",
      "type": "function"
    },
    {
      "inputs": [
        {
          "internalType": "address",
          "name": "recipient",
          "type": "address"
        }
      ],
      "name": "setRewardsRecipient",
      "outputs": [],
      "stateMutability": "nonpayable",
      "type": "function"
    },
    {
      "inputs": [],
      "name": "symbol",
      "outputs": [
        {
          "internalType": "string",
          "name": "",
          "type": "string"
        }
      ],
      "stateMutability": "view",
      "type": "function"
    },
    {
      "inputs": [],
      "name": "totalAssets",
      "outputs": [
        {
          "internalType": "uint256",
          "name": "",
          "type": "uint256"
        }
      ],
      "stateMutability": "view",
      "type": "function"
    },
    {
      "inputs": [],
      "name": "totalSupply",
      "outputs": [
        {
          "internalType": "uint256",
          "name": "",
          "type": "uint256"
        }
      ],
      "stateMutability": "view",
      "type": "function"
    },
    {
      "inputs": [
        {
          "internalType": "address",
          "name": "to",
          "type": "address"
        },
        {
          "internalType": "uint256",
          "name": "amount",
          "type": "uint256"
        }
      ],
      "name": "transfer",
      "outputs": [
        {
          "internalType": "bool",
          "name": "",
          "type": "bool"
        }
      ],
      "stateMutability": "nonpayable",
      "type": "function"
    },
    {
      "inputs": [
        {
          "internalType": "address",
          "name": "from",
          "type": "address"
        },
        {
          "internalType": "address",
          "name": "to",
          "type": "address"
        },
        {
          "internalType": "uint256",
          "name": "amount",
          "type": "uint256"
        }
      ],
      "name": "transferFrom",
      "outputs": [
        {
          "internalType": "bool",
          "name": "",
          "type": "bool"
        }
      ],
      "stateMutability": "nonpayable",
      "type": "function"
    },
    {
      "inputs": [
        {
          "internalType": "uint256",
          "name": "assets",
          "type": "uint256"
        },
        {
          "internalType": "address",
          "name": "receiver",
          "type": "address"
        },
        {
          "internalType": "address",
          "name": "owner",
          "type": "address"
        }
      ],
      "name": "withdraw",
      "outputs": [
        {
          "internalType": "uint256",
          "name": "shares",
          "type": "uint256"
        }
      ],
      "stateMutability": "nonpayable",
      "type": "function"
    },
    {
      "inputs": [
        {
          "internalType": "uint256",
          "name": "shares",
          "type": "uint256"
        },
        {
          "internalType": "address",
          "name": "receiver",
          "type": "address"
        },
        {
          "internalType": "address",
          "name": "owner",
          "type": "address"
        }
      ],
      "name": "withdrawToBPT",
      "outputs": [],
      "stateMutability": "nonpayable",
      "type": "function"
    }
  ],
  "transactionHash": "0x009a05b54fd3736466fca6ebcb402230a9581f4b0dd97c2bc22f9fa8a1daa69b",
  "args": [
    "0xae78736cd615f374d3085123a210448e74fc6393",
    "0xd26948E7a0223700e3C3cdEA21cA2471abCb8d47",
    "0x4d1ed96dDa2F3344b49aB7C993A6d65EcCAE74B9"
  ],
  "numDeployments": 2,
  "solcInputHash": "d14946f6d7a4291703bdcf4ed20ab297",
  "bytecode": "0x61022060405260006101a08181526101c08290526101e0829052610200919091526200003090600a90600462000803565b503480156200003e57600080fd5b5060405162003de138038062003de1833981016040819052620000619162000937565b3380846200006f85620005cf565b6200007a8662000662565b8181846001600160a01b031663313ce5676040518163ffffffff1660e01b8152600401602060405180830381865afa158015620000bb573d6000803e3d6000fd5b505050506040513d601f19601f82011682018060405250810190620000e191906200098b565b6000620000ef848262000a5c565b506001620000fe838262000a5c565b5060ff81166080524660a05262000114620006df565b60c052505050506001600160a01b0391821660e052508116600081815260066020908152604091829020805460ff1916600190811790915591519182527fe95aec380cae16330d146d5499ef7db6f3657e477104a733e771bc09e500d986910160405180910390a250600780546001600160a01b0319166001600160a01b0392831617905581811661018052821661010081905260408051633c41a11560e21b8152905163f1068454916004808201926020929091908290030181865afa158015620001e4573d6000803e3d6000fd5b505050506040513d601f19601f820116820180604052508101906200020a919062000b28565b6101208181525050610100516001600160a01b03166338d52e0f6040518163ffffffff1660e01b8152600401602060405180830381865afa15801562000254573d6000803e3d6000fd5b505050506040513d601f19601f820116820180604052508101906200027a919062000b42565b6001600160a01b03166101408190526040805163038fff2d60e41b815290516338fff2d0916004808201926020929091908290030181865afa158015620002c5573d6000803e3d6000fd5b505050506040513d601f19601f82011682018060405250810190620002eb919062000b28565b610160819052604051631f29a8cd60e31b815260009173ba12222222228d8ba445958a75a0704d566bf2c89163f94d4668916200032e9160040190815260200190565b600060405180830381865afa1580156200034c573d6000803e3d6000fd5b505050506040513d6000823e601f3d908101601f1916820160405262000376919081019062000c2e565b5050905060005b81518160ff161015620004fc576009828260ff1681518110620003a457620003a462000d09565b60200260200101516001600160a01b031663313ce5676040518163ffffffff1660e01b8152600401602060405180830381865afa158015620003ea573d6000803e3d6000fd5b505050506040513d601f19601f820116820180604052508101906200041091906200098b565b6200041d90600a62000e34565b815460018101835560009283526020909220909101558151620004929073ba12222222228d8ba445958a75a0704d566bf2c89060001990859060ff86169081106200046c576200046c62000d09565b60200260200101516001600160a01b03166200077b60201b620016be179092919060201c565b600b828260ff1681518110620004ac57620004ac62000d09565b60209081029190910181015182546001810184556000938452919092200180546001600160a01b0319166001600160a01b0390921691909117905580620004f38162000e45565b9150506200037d565b5062000570610140516001600160a01b031663238a2d596040518163ffffffff1660e01b8152600401600060405180830381865afa15801562000543573d6000803e3d6000fd5b505050506040513d6000823e601f3d908101601f191682016040526200056d919081019062000e67565b90565b80516200058691600891602090910190620008af565b50620005c573a57b8d98dae62b26ec3bcc4a365338157060b234600019610140516001600160a01b03166200077b60201b620016be179092919060201c565b50505050620010b4565b6060816001600160a01b03166395d89b416040518163ffffffff1660e01b8152600401600060405180830381865afa15801562000610573d6000803e3d6000fd5b505050506040513d6000823e601f3d908101601f191682016040526200063a919081019062000f3a565b6040516020016200064c919062000fd8565b6040516020818303038152906040529050919050565b6060816001600160a01b03166395d89b416040518163ffffffff1660e01b8152600401600060405180830381865afa158015620006a3573d6000803e3d6000fd5b505050506040513d6000823e601f3d908101601f19168201604052620006cd919081019062000f3a565b6040516020016200064c91906200100a565b60007f8b73c3c69bb8fe3d512ecc4cf759cc79239f7b179b0ffacaa9a75d522b39400f600060405162000713919062001036565b6040805191829003822060208301939093528101919091527fc89efdaa54c0f20c7adf612882df0950f5a951637e0307cdcb4c672f298b8bc660608201524660808201523060a082015260c00160405160208183030381529060405280519060200120905090565b600060405163095ea7b360e01b6000528360045282602452602060006044600080895af13d15601f3d1160016000511416171691506000606052806040525080620007fd5760405162461bcd60e51b815260206004820152600e60248201526d1054141493d59157d1905253115160921b604482015260640160405180910390fd5b50505050565b82805482825590600052602060002090601f016020900481019282156200089d5791602002820160005b838211156200086c57835183826101000a81548160ff02191690831515021790555092602001926001016020816000010492830192600103026200082d565b80156200089b5782816101000a81549060ff02191690556001016020816000010492830192600103026200086c565b505b50620008ab92915062000907565b5090565b8280548282559060005260206000209081019282156200089d579160200282015b828111156200089d57825182546001600160a01b0319166001600160a01b03909116178255602090920191600190910190620008d0565b5b80821115620008ab576000815560010162000908565b6001600160a01b03811681146200093457600080fd5b50565b6000806000606084860312156200094d57600080fd5b83516200095a816200091e565b60208501519093506200096d816200091e565b604085015190925062000980816200091e565b809150509250925092565b6000602082840312156200099e57600080fd5b815160ff81168114620009b057600080fd5b9392505050565b634e487b7160e01b600052604160045260246000fd5b600181811c90821680620009e257607f821691505b60208210810362000a0357634e487b7160e01b600052602260045260246000fd5b50919050565b601f82111562000a5757600081815260208120601f850160051c8101602086101562000a325750805b601f850160051c820191505b8181101562000a535782815560010162000a3e565b5050505b505050565b81516001600160401b0381111562000a785762000a78620009b7565b62000a908162000a898454620009cd565b8462000a09565b602080601f83116001811462000ac8576000841562000aaf5750858301515b600019600386901b1c1916600185901b17855562000a53565b600085815260208120601f198616915b8281101562000af95788860151825594840194600190910190840162000ad8565b508582101562000b185787850151600019600388901b60f8161c191681555b5050505050600190811b01905550565b60006020828403121562000b3b57600080fd5b5051919050565b60006020828403121562000b5557600080fd5b8151620009b0816200091e565b604051601f8201601f191681016001600160401b038111828210171562000b8d5762000b8d620009b7565b604052919050565b60006001600160401b0382111562000bb15762000bb1620009b7565b5060051b60200190565b600082601f83011262000bcd57600080fd5b8151602062000be662000be08362000b95565b62000b62565b82815260059290921b8401810191818101908684111562000c0657600080fd5b8286015b8481101562000c23578051835291830191830162000c0a565b509695505050505050565b60008060006060848603121562000c4457600080fd5b83516001600160401b038082111562000c5c57600080fd5b818601915086601f83011262000c7157600080fd5b8151602062000c8462000be08362000b95565b82815260059290921b8401810191818101908a84111562000ca457600080fd5b948201945b8386101562000ccf57855162000cbf816200091e565b8252948201949082019062000ca9565b9189015191975090935050508082111562000ce957600080fd5b5062000cf88682870162000bbb565b925050604084015190509250925092565b634e487b7160e01b600052603260045260246000fd5b634e487b7160e01b600052601160045260246000fd5b600181815b8085111562000d7657816000190482111562000d5a5762000d5a62000d1f565b8085161562000d6857918102915b93841c939080029062000d3a565b509250929050565b60008262000d8f5750600162000e2e565b8162000d9e5750600062000e2e565b816001811462000db7576002811462000dc25762000de2565b600191505062000e2e565b60ff84111562000dd65762000dd662000d1f565b50506001821b62000e2e565b5060208310610133831016604e8410600b841016171562000e07575081810a62000e2e565b62000e13838362000d35565b806000190482111562000e2a5762000e2a62000d1f565b0290505b92915050565b6000620009b060ff84168362000d7e565b600060ff821660ff810362000e5e5762000e5e62000d1f565b60010192915050565b6000602080838503121562000e7b57600080fd5b82516001600160401b0381111562000e9257600080fd5b8301601f8101851362000ea457600080fd5b805162000eb562000be08262000b95565b81815260059190911b8201830190838101908783111562000ed557600080fd5b928401925b8284101562000f0057835162000ef0816200091e565b8252928401929084019062000eda565b979650505050505050565b60005b8381101562000f2857818101518382015260200162000f0e565b83811115620007fd5750506000910152565b60006020828403121562000f4d57600080fd5b81516001600160401b038082111562000f6557600080fd5b818401915084601f83011262000f7a57600080fd5b81518181111562000f8f5762000f8f620009b7565b62000fa4601f8201601f191660200162000b62565b915080825285602082850101111562000fbc57600080fd5b62000fcf81602084016020860162000f0b565b50949350505050565b6702bb930b83832b2160c51b81526000825162000ffd81600885016020870162000f0b565b9190910160080192915050565b61772d60f01b8152600082516200102981600285016020870162000f0b565b9190910160020192915050565b60008083546200104681620009cd565b600182811680156200106157600181146200107757620010a8565b60ff1984168752821515830287019450620010a8565b8760005260208060002060005b858110156200109f5781548a82015290840190820162001084565b50505082870194505b50929695505050505050565b60805160a05160c05160e0516101005161012051610140516101605161018051612c22620011bf600039600081816102a4015281816107c401526111040152600081816107f30152818161113301528181612201015261237c015260008181610366015281816115220152818161155b01528181611acb01526122760152600081816104d50152818161159c0152611d5801526000818161053a015281816114980152611e260152600081816103fd015281816106ab01528181610d0901528181610da501528181610f81015281816110cd0152818161181a01528181612040015281816122b201526123f501526000610b4301526000610b13015260006103bc0152612c226000f3fe608060405234801561001057600080fd5b506004361061027f5760003560e01c806381bf829d1161015c578063c6e6f592116100ce578063e5a7de0c11610087578063e5a7de0c1461062a578063e77d291c1461063d578063e7fc9cd514610645578063ef407c3c14610658578063ef8b30f71461066b578063ff2a7d301461067e57600080fd5b8063c6e6f59214610595578063ce96cb77146105a8578063d505accf146105bb578063d8954f22146105ce578063d905777e146105d6578063dd62ed3e146105ff57600080fd5b8063a0c1f15e11610120578063a0c1f15e14610535578063a9059cbb1461055c578063b3d7f6b91461031e578063b460af941461056f578063ba08765214610582578063c63d75b61461041f57600080fd5b806381bf829d146104b557806391fde378146104d057806394bf804d146104f757806395d89b411461050a57806396d648791461051257600080fd5b806323b872dd116101f55780634cdad506116101b95780634cdad5061461043457806356e3a24914610447578063608c44d61461044f5780636e553f651461046257806370a08231146104755780637ecebe001461049557600080fd5b806323b872dd146103a4578063313ce567146103b75780633644e515146103f057806338d52e0f146103f8578063402d267d1461041f57600080fd5b80630a28a477116102475780630a28a4771461031e5780631393916a14610331578063158274a51461034657806316f0115b1461036157806318160ddd146103885780631a54259c1461039157600080fd5b806301e1d114146102845780630390c8391461029f57806306fdde03146102d357806307a2d13a146102e8578063095ea7b3146102fb575b600080fd5b61028c610691565b6040519081526020015b60405180910390f35b6102c67f000000000000000000000000000000000000000000000000000000000000000081565b6040516102969190612481565b6102db610726565b60405161029691906124e2565b61028c6102f63660046124f5565b6107b4565b61030e61030936600461252a565b610885565b6040519015158152602001610296565b61028c61032c3660046124f5565b6108f2565b61034461033f366004612565565b61090d565b005b6102c673ba12222222228d8ba445958a75a0704d566bf2c881565b6102c67f000000000000000000000000000000000000000000000000000000000000000081565b61028c60025481565b61034461039f36600461259c565b6109a4565b61030e6103b23660046125b7565b610a2f565b6103de7f000000000000000000000000000000000000000000000000000000000000000081565b60405160ff9091168152602001610296565b61028c610b0f565b6102c67f000000000000000000000000000000000000000000000000000000000000000081565b61028c61042d36600461259c565b5060001990565b61028c6104423660046124f5565b610b65565b61030e600181565b61034461045d36600461259c565b610b70565b61028c6104703660046125f3565b610cb1565b61028c61048336600461259c565b60036020526000908152604090205481565b61028c6104a336600461259c565b60056020526000908152604090205481565b6102c673a57b8d98dae62b26ec3bcc4a365338157060b23481565b61028c7f000000000000000000000000000000000000000000000000000000000000000081565b61028c6105053660046125f3565b610d8b565b6102db610e27565b61030e61052036600461259c565b60066020526000908152604090205460ff1681565b6102c67f000000000000000000000000000000000000000000000000000000000000000081565b61030e61056a36600461252a565b610e34565b61028c61057d36600461261f565b610e9a565b61028c61059036600461261f565b610fa8565b61028c6105a33660046124f5565b6110f4565b61028c6105b636600461259c565b61115d565b6103446105c936600461265b565b61117f565b61030e600081565b61028c6105e436600461259c565b6001600160a01b031660009081526003602052604090205490565b61028c61060d3660046126ce565b600460209081526000928352604080842090915290825290205481565b61034461063836600461261f565b6113bd565b61028c600081565b6103446106533660046125f3565b61154e565b6102c66106663660046124f5565b611689565b61028c6106793660046124f5565b6116b3565b6007546102c6906001600160a01b031681565b6040516370a0823160e01b81526000906001600160a01b037f000000000000000000000000000000000000000000000000000000000000000016906370a08231906106e0903090600401612481565b602060405180830381865afa1580156106fd573d6000803e3d6000fd5b505050506040513d601f19601f8201168201806040525081019061072191906126f8565b905090565b6000805461073390612711565b80601f016020809104026020016040519081016040528092919081815260200182805461075f90612711565b80156107ac5780601f10610781576101008083540402835291602001916107ac565b820191906000526020600020905b81548152906001019060200180831161078f57829003601f168201915b505050505081565b6000806107c083611741565b90507f00000000000000000000000000000000000000000000000000000000000000006001600160a01b031663626117307f000000000000000000000000000000000000000000000000000000000000000030308561081d6118fc565b6040518663ffffffff1660e01b815260040161083d95949392919061281d565b602060405180830381865afa15801561085a573d6000803e3d6000fd5b505050506040513d601f19601f8201168201806040525081019061087e91906126f8565b9392505050565b3360008181526004602090815260408083206001600160a01b038716808552925280832085905551919290917f8c5be1e5ebec7d5bd14f71427d1e84f3dd0314c0f7b2291e5b200ac8c7c3b925906108e09086815260200190565b60405180910390a35060015b92915050565b600060405163d623472560e01b815260040160405180910390fd5b3360009081526006602052604090205460ff166109455760405162461bcd60e51b815260040161093c9061286d565b60405180910390fd5b6001600160a01b038216600081815260066020908152604091829020805460ff191685151590811790915591519182527fe95aec380cae16330d146d5499ef7db6f3657e477104a733e771bc09e500d986910160405180910390a25050565b3360009081526006602052604090205460ff166109d35760405162461bcd60e51b815260040161093c9061286d565b6007546040516001600160a01b038084169216907f952c654458751f95c1440bdb1537809137b3de28466b80ad096a711707ae987a90600090a3600780546001600160a01b0319166001600160a01b0392909216919091179055565b6001600160a01b03831660009081526004602090815260408083203384529091528120546000198114610a8b57610a6683826128a6565b6001600160a01b03861660009081526004602090815260408083203384529091529020555b6001600160a01b03851660009081526003602052604081208054859290610ab39084906128a6565b90915550506001600160a01b0380851660008181526003602052604090819020805487019055519091871690600080516020612bcd83398151915290610afc9087815260200190565b60405180910390a3506001949350505050565b60007f00000000000000000000000000000000000000000000000000000000000000004614610b4057610721611b3c565b507f000000000000000000000000000000000000000000000000000000000000000090565b60006108ec826107b4565b6040516370a0823160e01b815281906000906001600160a01b038316906370a0823190610ba1903090600401612481565b602060405180830381865afa158015610bbe573d6000803e3d6000fd5b505050506040513d601f19601f82011682018060405250810190610be291906126f8565b6007546040516370a0823160e01b8152919250610c6e916001600160a01b03918216918516906370a0823190610c1c903090600401612481565b602060405180830381865afa158015610c39573d6000803e3d6000fd5b505050506040513d601f19601f82011682018060405250810190610c5d91906126f8565b6001600160a01b0385169190611bd6565b60075460405182916001600160a01b0390811691908616907f9310ccfcb8de723f578a9e4282ea9f521f05ae40dc08f3068dfad528a65ee3c790600090a4505050565b6000610cbc836116b3565b905080600003610cfc5760405162461bcd60e51b815260206004820152600b60248201526a5a45524f5f53484152455360a81b604482015260640161093c565b610d316001600160a01b037f000000000000000000000000000000000000000000000000000000000000000016333086611c54565b610d3b8282611ce2565b60408051848152602081018390526001600160a01b0384169133917fdcbc1c05240f31ff3ad067ef1ee35ce4997762752e3a095284754544f4c709d7910160405180910390a36108ec8382611d3c565b6000610d96836108f2565b9050610dcd6001600160a01b037f000000000000000000000000000000000000000000000000000000000000000016333084611c54565b610dd78284611ce2565b60408051828152602081018590526001600160a01b0384169133917fdcbc1c05240f31ff3ad067ef1ee35ce4997762752e3a095284754544f4c709d7910160405180910390a36108ec8184611d3c565b6001805461073390612711565b33600090815260036020526040812080548391908390610e559084906128a6565b90915550506001600160a01b03831660008181526003602052604090819020805485019055513390600080516020612bcd833981519152906108e09086815260200190565b6000610ea5846108f2565b9050336001600160a01b03831614610f15576001600160a01b03821660009081526004602090815260408083203384529091529020546000198114610f1357610eee82826128a6565b6001600160a01b03841660009081526004602090815260408083203384529091529020555b505b610f1f8482611e0f565b610f298282611eac565b60408051858152602081018390526001600160a01b03808516929086169133917ffbde797d201c681b91056529119e0b02407c7bb96a4a2c75c01fc9667232c8db910160405180910390a461087e6001600160a01b037f0000000000000000000000000000000000000000000000000000000000000000168486611bd6565b6000336001600160a01b03831614611018576001600160a01b0382166000908152600460209081526040808320338452909152902054600019811461101657610ff185826128a6565b6001600160a01b03841660009081526004602090815260408083203384529091529020555b505b61102184610b65565b9050806000036110615760405162461bcd60e51b815260206004820152600b60248201526a5a45524f5f41535345545360a81b604482015260640161093c565b61106b8185611e0f565b6110758285611eac565b60408051828152602081018690526001600160a01b03808516929086169133917ffbde797d201c681b91056529119e0b02407c7bb96a4a2c75c01fc9667232c8db910160405180910390a461087e6001600160a01b037f0000000000000000000000000000000000000000000000000000000000000000168483611bd6565b60008061110083611f0e565b90507f00000000000000000000000000000000000000000000000000000000000000006001600160a01b031663666950607f000000000000000000000000000000000000000000000000000000000000000030308561081d6118fc565b6001600160a01b0381166000908152600360205260408120546108ec906107b4565b428410156111c95760405162461bcd60e51b815260206004820152601760248201527614115493525517d11150511312539157d1561412549151604a1b604482015260640161093c565b600060016111d5610b0f565b6001600160a01b038a811660008181526005602090815260409182902080546001810190915582517f6e71edae12b1b97f4d1f60370fef10105fa2faae0126114a169c64845d6126c98184015280840194909452938d166060840152608083018c905260a083019390935260c08083018b90528151808403909101815260e08301909152805192019190912061190160f01b6101008301526101028201929092526101228101919091526101420160408051601f198184030181528282528051602091820120600084529083018083525260ff871690820152606081018590526080810184905260a0016020604051602081039080840390855afa1580156112e1573d6000803e3d6000fd5b5050604051601f1901519150506001600160a01b038116158015906113175750876001600160a01b0316816001600160a01b0316145b6113545760405162461bcd60e51b815260206004820152600e60248201526d24a72b20a624a22fa9a4a3a722a960911b604482015260640161093c565b6001600160a01b0390811660009081526004602090815260408083208a8516808552908352928190208990555188815291928a16917f8c5be1e5ebec7d5bd14f71427d1e84f3dd0314c0f7b2291e5b200ac8c7c3b925910160405180910390a350505050505050565b336001600160a01b0382161461142b576001600160a01b038116600090815260046020908152604080832033845290915290205460001981146114295761140484826128a6565b6001600160a01b03831660009081526004602090815260408083203384529091529020555b505b6114358184611eac565b82826001600160a01b0316336001600160a01b03167fccac76f4ab9b89bcd3294752c4dd2e51435879186cd400004778af52ad987b21846040516114799190612481565b60405180910390a4604051632d182be560e21b81526001600160a01b037f0000000000000000000000000000000000000000000000000000000000000000169063b460af94906114d1908690309081906004016128bd565b6020604051808303816000875af11580156114f0573d6000803e3d6000fd5b505050506040513d601f19601f8201168201806040525081019061151491906126f8565b506115496001600160a01b037f0000000000000000000000000000000000000000000000000000000000000000168385611bd6565b505050565b6115836001600160a01b037f000000000000000000000000000000000000000000000000000000000000000016333085611c54565b61158d8183611ce2565b6040516321d0683360e11b81527f00000000000000000000000000000000000000000000000000000000000000006004820152602481018390526001604482015273a57b8d98dae62b26ec3bcc4a365338157060b234906343a0d066906064016020604051808303816000875af115801561160c573d6000803e3d6000fd5b505050506040513d601f19601f8201168201806040525081019061163091906128dc565b61164d57604051633fb65bab60e01b815260040160405180910390fd5b60405182906001600160a01b0383169033907f4df1ad357595959f9efc5b0eb2f9f8f692474fd27bb4db4405c0e5a24f90762c90600090a45050565b6008818154811061169957600080fd5b6000918252602090912001546001600160a01b0316905081565b60006108ec826110f4565b600060405163095ea7b360e01b6000528360045282602452602060006044600080895af13d15601f3d116001600051141617169150600060605280604052508061173b5760405162461bcd60e51b815260206004820152600e60248201526d1054141493d59157d1905253115160921b604482015260640161093c565b50505050565b61176e60405180608001604052806060815260200160608152602001606081526020016000151581525090565b600b5460009067ffffffffffffffff81111561178c5761178c6128f9565b6040519080825280602002602001820160405280156117b5578160200160208202803683370190505b509050600061183e600b80548060200260200160405190810160405280929190818152602001828054801561181357602002820191906000526020600020905b81546001600160a01b031681526001909101906020018083116117f5575b50505050507f0000000000000000000000000000000000000000000000000000000000000000612165565b90508060001061184e5780611859565b6118596001826128a6565b9050600080858360405160200161187293929190612925565b60408051601f19818403018152600b805460a060208202860181019094526080850181815292955084938401828280156118d557602002820191906000526020600020905b81546001600160a01b031681526001909101906020018083116118b7575b50505050508152602001848152602001828152602001600015158152509350505050919050565b604080516101208101825260608082526020820181905291810182905280820182905260006080820181905260a0820181905260c0820181905260e082018190526101008201526119a4600b80548060200260200160405190810160405280929190818152602001828054801561199c57602002820191906000526020600020905b81546001600160a01b0316815260019091019060200180831161197e575b505050505090565b815260088054604080516020808402820181019092528281529291908301828280156119f957602002820191906000526020600020905b81546001600160a01b031681526001909101906020018083116119db575b505050506020808401929092525060098054604080518285028101850190915281815292830182828015611a4c57602002820191906000526020600020905b815481526020019060010190808311611a38575b5050505060408084019290925250600a8054825160208083028201810190945281815292830182828015611abf57602002820191906000526020600020906000905b825461010083900a900460ff161515815260206001928301818104948501949093039092029101808411611a8e5790505b505050505060608201527f00000000000000000000000000000000000000000000000000000000000000006001600160a01b03166080820152600160a0820152600060c0820181905260e0820152805151610100820152604051611b279082906020016129b8565b60405160208183030381529060405291505090565b60007f8b73c3c69bb8fe3d512ecc4cf759cc79239f7b179b0ffacaa9a75d522b39400f6000604051611b6e9190612a8a565b6040805191829003822060208301939093528101919091527fc89efdaa54c0f20c7adf612882df0950f5a951637e0307cdcb4c672f298b8bc660608201524660808201523060a082015260c00160405160208183030381529060405280519060200120905090565b600060405163a9059cbb60e01b6000528360045282602452602060006044600080895af13d15601f3d116001600051141617169150600060605280604052508061173b5760405162461bcd60e51b815260206004820152600f60248201526e1514905394d1915497d19052531151608a1b604482015260640161093c565b60006040516323b872dd60e01b6000528460045283602452826044526020600060646000808a5af13d15601f3d1160016000511416171691506000606052806040525080611cdb5760405162461bcd60e51b81526020600482015260146024820152731514905394d1915497d19493d357d1905253115160621b604482015260640161093c565b5050505050565b8060026000828254611cf49190612b29565b90915550506001600160a01b038216600081815260036020908152604080832080548601905551848152600080516020612bcd83398151915291015b60405180910390a35050565b73a57b8d98dae62b26ec3bcc4a365338157060b2346343a0d0667f0000000000000000000000000000000000000000000000000000000000000000611d80856121c3565b6040516001600160e01b031960e085901b16815260048101929092526024820152600160448201526064016020604051808303816000875af1158015611dca573d6000803e3d6000fd5b505050506040513d601f19601f82011682018060405250810190611dee91906128dc565b611e0b57604051633fb65bab60e01b815260040160405180910390fd5b5050565b604051632d182be560e21b81526001600160a01b037f0000000000000000000000000000000000000000000000000000000000000000169063b460af9490611e5f908490309081906004016128bd565b6020604051808303816000875af1158015611e7e573d6000803e3d6000fd5b505050506040513d601f19601f82011682018060405250810190611ea291906126f8565b50611549816122ad565b6001600160a01b03821660009081526003602052604081208054839290611ed49084906128a6565b90915550506002805482900390556040518181526000906001600160a01b03841690600080516020612bcd83398151915290602001611d30565b611f3b60405180608001604052806060815260200160608152602001606081526020016000151581525090565b6000600b54611f4c906001906128a6565b905060008167ffffffffffffffff811115611f6957611f696128f9565b604051908082528060200260200182016040528015611f92578160200160208202803683370190505b50600b5490915060009067ffffffffffffffff811115611fb457611fb46128f9565b604051908082528060200260200182016040528015611fdd578160200160208202803683370190505b5090506000612064600b805480602002602001604051908101604052809291908181526020018280548015611813576020028201919060005260206000209081546001600160a01b031681526001909101906020018083116117f55750505050507f0000000000000000000000000000000000000000000000000000000000000000612165565b905060008082116120755781612080565b6120806001836128a6565b90508684828151811061209557612095612b41565b60200260200101818152508383815181106120b2576120b2612b41565b602002602001018181525050600080600186836040516020016120d793929190612b57565b60408051601f19818403018152600b805460a0602082028601810190945260808501818152929550849384018282801561213a57602002820191906000526020600020905b81546001600160a01b0316815260019091019060200180831161211c575b5050505050815260200186815260200182815260200160001515815250975050505050505050919050565b8151600090815b818110156121b757836001600160a01b031685828151811061219057612190612b41565b60200260200101516001600160a01b0316036121af5791506108ec9050565b60010161216c565b50600019949350505050565b6000806121cf83611f0e565b60405163172b958560e31b815290915073ba12222222228d8ba445958a75a0704d566bf2c89063b95cac289061222f907f000000000000000000000000000000000000000000000000000000000000000090309081908790600401612b90565b600060405180830381600087803b15801561224957600080fd5b505af115801561225d573d6000803e3d6000fd5b50506040516370a0823160e01b81526001600160a01b037f00000000000000000000000000000000000000000000000000000000000000001692506370a08231915061083d903090600401612481565b6000807f00000000000000000000000000000000000000000000000000000000000000006001600160a01b03166370a08231306040518263ffffffff1660e01b81526004016122fc9190612481565b602060405180830381865afa158015612319573d6000803e3d6000fd5b505050506040513d601f19601f8201168201806040525081019061233d91906126f8565b9050600061234a84611741565b604051638bdb391360e01b815290915073ba12222222228d8ba445958a75a0704d566bf2c890638bdb3913906123aa907f000000000000000000000000000000000000000000000000000000000000000090309081908790600401612b90565b600060405180830381600087803b1580156123c457600080fd5b505af11580156123d8573d6000803e3d6000fd5b50506040516370a0823160e01b8152600092506001600160a01b037f00000000000000000000000000000000000000000000000000000000000000001691506370a082319061242b903090600401612481565b602060405180830381865afa158015612448573d6000803e3d6000fd5b505050506040513d601f19601f8201168201806040525081019061246c91906126f8565b905061247883826128a6565b95945050505050565b6001600160a01b0391909116815260200190565b6000815180845260005b818110156124bb5760208185018101518683018201520161249f565b818111156124cd576000602083870101525b50601f01601f19169290920160200192915050565b60208152600061087e6020830184612495565b60006020828403121561250757600080fd5b5035919050565b80356001600160a01b038116811461252557600080fd5b919050565b6000806040838503121561253d57600080fd5b6125468361250e565b946020939093013593505050565b801515811461256257600080fd5b50565b6000806040838503121561257857600080fd5b6125818361250e565b9150602083013561259181612554565b809150509250929050565b6000602082840312156125ae57600080fd5b61087e8261250e565b6000806000606084860312156125cc57600080fd5b6125d58461250e565b92506125e36020850161250e565b9150604084013590509250925092565b6000806040838503121561260657600080fd5b823591506126166020840161250e565b90509250929050565b60008060006060848603121561263457600080fd5b833592506126446020850161250e565b91506126526040850161250e565b90509250925092565b600080600080600080600060e0888a03121561267657600080fd5b61267f8861250e565b965061268d6020890161250e565b95506040880135945060608801359350608088013560ff811681146126b157600080fd5b9699959850939692959460a0840135945060c09093013592915050565b600080604083850312156126e157600080fd5b6126ea8361250e565b91506126166020840161250e565b60006020828403121561270a57600080fd5b5051919050565b600181811c9082168061272557607f821691505b60208210810361274557634e487b7160e01b600052602260045260246000fd5b50919050565b600081518084526020808501945080840160005b8381101561277b5781518752958201959082019060010161275f565b509495945050505050565b8051608080845281519084018190526000916020919082019060a0860190845b818110156127cb5783516001600160a01b0316835292840192918401916001016127a6565b5050828501519150858103838701526127e4818361274b565b92505050604083015184820360408601526127ff8282612495565b9150506060830151612815606086018215159052565b509392505050565b8581526001600160a01b0385811660208301528416604082015260a06060820181905260009061284f90830185612786565b82810360808401526128618185612495565b98975050505050505050565b602080825260099082015268155395149554d5115160ba1b604082015260600190565b634e487b7160e01b600052601160045260246000fd5b6000828210156128b8576128b8612890565b500390565b9283526001600160a01b03918216602084015216604082015260600190565b6000602082840312156128ee57600080fd5b815161087e81612554565b634e487b7160e01b600052604160045260246000fd5b634e487b7160e01b600052602160045260246000fd5b60608101600285106129395761293961290f565b938152602081019290925260409091015290565b600081518084526020808501945080840160005b8381101561277b5781516001600160a01b031687529582019590820190600101612961565b600081518084526020808501945080840160005b8381101561277b57815115158752958201959082019060010161299a565b60208152600082516101208060208501526129d761014085018361294d565b91506020850151601f19808685030160408701526129f5848361294d565b93506040870151915080868503016060870152612a12848361274b565b9350606087015191508086850301608087015250612a308382612986565b9250506080850151612a4d60a08601826001600160a01b03169052565b5060a085015180151560c08601525060c085015180151560e08601525060e085015161010085810191909152909401519390920192909252919050565b600080835481600182811c915080831680612aa657607f831692505b60208084108203612ac557634e487b7160e01b86526022600452602486fd5b818015612ad95760018114612aee57612b1b565b60ff1986168952841515850289019650612b1b565b60008a81526020902060005b86811015612b135781548b820152908501908301612afa565b505084890196505b509498975050505050505050565b60008219821115612b3c57612b3c612890565b500190565b634e487b7160e01b600052603260045260246000fd5b600060038510612b6957612b6961290f565b84825260606020830152612b80606083018561274b565b9050826040830152949350505050565b8481526001600160a01b03848116602083015283166040820152608060608201819052600090612bc290830184612786565b969550505050505056feddf252ad1be2c89b69c2b068fc378daa952ba7f163c4a11628f55a4df523b3efa2646970667358221220f0b7597a20c0615d2f4ef506024c045d8027dd652cfa8205f8929fe30c24ffea64736f6c634300080f0033",
  "devdoc": {
    "details": "This contracts inherits ERC4626 but it does not implement all of it's function",
    "kind": "dev",
    "methods": {},
    "title": "Aura Vault Wrapper",
    "version": 1
  },
  "userdoc": {
    "events": {
      "RewardsRecipientChanged(address,address)": {
        "notice": "----------------------------------------------------------------------- Logs -----------------------------------------------------------------------"
      }
    },
    "kind": "user",
    "methods": {
      "aToken()": {
        "notice": "The Aura vault contract"
      },
      "extractToken(address)": {
        "notice": "Transfers reward tokens from the adapter to Sense's reward container"
      },
      "pool()": {
        "notice": "pool data"
      },
      "rewardsRecipient()": {
        "notice": "Rewards recipient"
      },
      "setRewardsRecipient(address)": {
        "notice": "----------------------------------------------------------------------- Admin functions -----------------------------------------------------------------------"
      }
    },
    "notice": "Wraps an Aura vault to make it transferable. Its asset token (underlying) is the base token of the Balancer pool.",
    "version": 1
  },
  "storageLayout": {
    "storage": [
      {
        "astId": 39827,
        "contract": "@sense-finance/v1-core/src/adapters/implementations/aura/AuraVaultWrapper.sol:AuraVaultWrapper",
        "label": "name",
        "offset": 0,
        "slot": "0",
        "type": "t_string_storage"
      },
      {
        "astId": 39829,
        "contract": "@sense-finance/v1-core/src/adapters/implementations/aura/AuraVaultWrapper.sol:AuraVaultWrapper",
        "label": "symbol",
        "offset": 0,
        "slot": "1",
        "type": "t_string_storage"
      },
      {
        "astId": 39833,
        "contract": "@sense-finance/v1-core/src/adapters/implementations/aura/AuraVaultWrapper.sol:AuraVaultWrapper",
        "label": "totalSupply",
        "offset": 0,
        "slot": "2",
        "type": "t_uint256"
      },
      {
        "astId": 39837,
        "contract": "@sense-finance/v1-core/src/adapters/implementations/aura/AuraVaultWrapper.sol:AuraVaultWrapper",
        "label": "balanceOf",
        "offset": 0,
        "slot": "3",
        "type": "t_mapping(t_address,t_uint256)"
      },
      {
        "astId": 39843,
        "contract": "@sense-finance/v1-core/src/adapters/implementations/aura/AuraVaultWrapper.sol:AuraVaultWrapper",
        "label": "allowance",
        "offset": 0,
        "slot": "4",
        "type": "t_mapping(t_address,t_mapping(t_address,t_uint256))"
      },
      {
        "astId": 39851,
        "contract": "@sense-finance/v1-core/src/adapters/implementations/aura/AuraVaultWrapper.sol:AuraVaultWrapper",
        "label": "nonces",
        "offset": 0,
        "slot": "5",
        "type": "t_mapping(t_address,t_uint256)"
      },
      {
        "astId": 24246,
        "contract": "@sense-finance/v1-core/src/adapters/implementations/aura/AuraVaultWrapper.sol:AuraVaultWrapper",
        "label": "isTrusted",
        "offset": 0,
        "slot": "6",
        "type": "t_mapping(t_address,t_bool)"
      },
      {
        "astId": 11011,
        "contract": "@sense-finance/v1-core/src/adapters/implementations/aura/AuraVaultWrapper.sol:AuraVaultWrapper",
        "label": "rewardsRecipient",
        "offset": 0,
        "slot": "7",
        "type": "t_address"
      },
      {
        "astId": 13036,
        "contract": "@sense-finance/v1-core/src/adapters/implementations/aura/AuraVaultWrapper.sol:AuraVaultWrapper",
        "label": "rateProviders",
        "offset": 0,
        "slot": "8",
        "type": "t_array(t_address)dyn_storage"
      },
      {
        "astId": 13039,
        "contract": "@sense-finance/v1-core/src/adapters/implementations/aura/AuraVaultWrapper.sol:AuraVaultWrapper",
        "label": "scalingFactors",
        "offset": 0,
        "slot": "9",
        "type": "t_array(t_uint256)dyn_storage"
      },
      {
        "astId": 13047,
        "contract": "@sense-finance/v1-core/src/adapters/implementations/aura/AuraVaultWrapper.sol:AuraVaultWrapper",
        "label": "exemptions",
        "offset": 0,
        "slot": "10",
        "type": "t_array(t_bool)dyn_storage"
      },
      {
        "astId": 13051,
        "contract": "@sense-finance/v1-core/src/adapters/implementations/aura/AuraVaultWrapper.sol:AuraVaultWrapper",
        "label": "poolAssets",
        "offset": 0,
        "slot": "11",
        "type": "t_array(t_contract(IAsset)18249)dyn_storage"
      }
    ],
    "types": {
      "t_address": {
        "encoding": "inplace",
        "label": "address",
        "numberOfBytes": "20"
      },
      "t_array(t_address)dyn_storage": {
        "base": "t_address",
        "encoding": "dynamic_array",
        "label": "address[]",
        "numberOfBytes": "32"
      },
      "t_array(t_bool)dyn_storage": {
        "base": "t_bool",
        "encoding": "dynamic_array",
        "label": "bool[]",
        "numberOfBytes": "32"
      },
      "t_array(t_contract(IAsset)18249)dyn_storage": {
        "base": "t_contract(IAsset)18249",
        "encoding": "dynamic_array",
        "label": "contract IAsset[]",
        "numberOfBytes": "32"
      },
      "t_array(t_uint256)dyn_storage": {
        "base": "t_uint256",
        "encoding": "dynamic_array",
        "label": "uint256[]",
        "numberOfBytes": "32"
      },
      "t_bool": {
        "encoding": "inplace",
        "label": "bool",
        "numberOfBytes": "1"
      },
      "t_contract(IAsset)18249": {
        "encoding": "inplace",
        "label": "contract IAsset",
        "numberOfBytes": "20"
      },
      "t_mapping(t_address,t_bool)": {
        "encoding": "mapping",
        "key": "t_address",
        "label": "mapping(address => bool)",
        "numberOfBytes": "32",
        "value": "t_bool"
      },
      "t_mapping(t_address,t_mapping(t_address,t_uint256))": {
        "encoding": "mapping",
        "key": "t_address",
        "label": "mapping(address => mapping(address => uint256))",
        "numberOfBytes": "32",
        "value": "t_mapping(t_address,t_uint256)"
      },
      "t_mapping(t_address,t_uint256)": {
        "encoding": "mapping",
        "key": "t_address",
        "label": "mapping(address => uint256)",
        "numberOfBytes": "32",
        "value": "t_uint256"
      },
      "t_string_storage": {
        "encoding": "bytes",
        "label": "string",
        "numberOfBytes": "32"
      },
      "t_uint256": {
        "encoding": "inplace",
        "label": "uint256",
        "numberOfBytes": "32"
      }
    }
  }
}