{
  "address": "0x5B487e3fcD7660d59F5af7cD6E56D6708a4b40cE",
  "abi": [
    {
      "inputs": [
        {
          "internalType": "contract ERC20",
          "name": "asset_",
          "type": "address"
        },
        {
          "internalType": "contract ERC4626",
          "name": "aToken_",
          "type": "address"
        }
      ],
      "stateMutability": "nonpayable",
      "type": "constructor"
    },
    {
      "inputs": [],
      "name": "BoosterDepositFailed",
      "type": "error"
    },
    {
      "inputs": [],
      "name": "NotImplemented",
      "type": "error"
    },
    {
      "inputs": [],
      "name": "TokenNotSupported",
      "type": "error"
    },
    {
      "anonymous": false,
      "inputs": [
        {
          "indexed": true,
          "internalType": "address",
          "name": "owner",
          "type": "address"
        },
        {
          "indexed": true,
          "internalType": "address",
          "name": "spender",
          "type": "address"
        },
        {
          "indexed": false,
          "internalType": "uint256",
          "name": "amount",
          "type": "uint256"
        }
      ],
      "name": "Approval",
      "type": "event"
    },
    {
      "anonymous": false,
      "inputs": [
        {
          "indexed": true,
          "internalType": "address",
          "name": "caller",
          "type": "address"
        },
        {
          "indexed": true,
          "internalType": "address",
          "name": "owner",
          "type": "address"
        },
        {
          "indexed": false,
          "internalType": "uint256",
          "name": "assets",
          "type": "uint256"
        },
        {
          "indexed": false,
          "internalType": "uint256",
          "name": "shares",
          "type": "uint256"
        }
      ],
      "name": "Deposit",
      "type": "event"
    },
    {
      "anonymous": false,
      "inputs": [
        {
          "indexed": true,
          "internalType": "address",
          "name": "sender",
          "type": "address"
        },
        {
          "indexed": true,
          "internalType": "address",
          "name": "receiver",
          "type": "address"
        },
        {
          "indexed": true,
          "internalType": "uint256",
          "name": "amount",
          "type": "uint256"
        }
      ],
      "name": "DepositFromBPT",
      "type": "event"
    },
    {
      "anonymous": false,
      "inputs": [
        {
          "indexed": true,
          "internalType": "address",
          "name": "token",
          "type": "address"
        },
        {
          "indexed": true,
          "internalType": "address",
          "name": "recipient",
          "type": "address"
        },
        {
          "indexed": true,
          "internalType": "uint256",
          "name": "amount",
          "type": "uint256"
        }
      ],
      "name": "RewardsClaimed",
      "type": "event"
    },
    {
      "anonymous": false,
      "inputs": [
        {
          "indexed": true,
          "internalType": "address",
          "name": "oldRecipient",
          "type": "address"
        },
        {
          "indexed": true,
          "internalType": "address",
          "name": "newRecipient",
          "type": "address"
        }
      ],
      "name": "RewardsRecipientChanged",
      "type": "event"
    },
    {
      "anonymous": false,
      "inputs": [
        {
          "indexed": true,
          "internalType": "address",
          "name": "from",
          "type": "address"
        },
        {
          "indexed": true,
          "internalType": "address",
          "name": "to",
          "type": "address"
        },
        {
          "indexed": false,
          "internalType": "uint256",
          "name": "amount",
          "type": "uint256"
        }
      ],
      "name": "Transfer",
      "type": "event"
    },
    {
      "anonymous": false,
      "inputs": [
        {
          "indexed": true,
          "internalType": "address",
          "name": "user",
          "type": "address"
        },
        {
          "indexed": false,
          "internalType": "bool",
          "name": "trusted",
          "type": "bool"
        }
      ],
      "name": "UserTrustUpdated",
      "type": "event"
    },
    {
      "anonymous": false,
      "inputs": [
        {
          "indexed": true,
          "internalType": "address",
          "name": "caller",
          "type": "address"
        },
        {
          "indexed": true,
          "internalType": "address",
          "name": "receiver",
          "type": "address"
        },
        {
          "indexed": true,
          "internalType": "address",
          "name": "owner",
          "type": "address"
        },
        {
          "indexed": false,
          "internalType": "uint256",
          "name": "assets",
          "type": "uint256"
        },
        {
          "indexed": false,
          "internalType": "uint256",
          "name": "shares",
          "type": "uint256"
        }
      ],
      "name": "Withdraw",
      "type": "event"
    },
    {
      "anonymous": false,
      "inputs": [
        {
          "indexed": true,
          "internalType": "address",
          "name": "sender",
          "type": "address"
        },
        {
          "indexed": true,
          "internalType": "address",
          "name": "receiver",
          "type": "address"
        },
        {
          "indexed": false,
          "internalType": "address",
          "name": "owner",
          "type": "address"
        },
        {
          "indexed": true,
          "internalType": "uint256",
          "name": "amount",
          "type": "uint256"
        }
      ],
      "name": "WithdrawToBPT",
      "type": "event"
    },
    {
      "inputs": [],
      "name": "DOMAIN_SEPARATOR",
      "outputs": [
        {
          "internalType": "bytes32",
          "name": "",
          "type": "bytes32"
        }
      ],
      "stateMutability": "view",
      "type": "function"
    },
    {
      "inputs": [],
      "name": "aToken",
      "outputs": [
        {
          "internalType": "contract ERC4626",
          "name": "",
          "type": "address"
        }
      ],
      "stateMutability": "view",
      "type": "function"
    },
    {
      "inputs": [
        {
          "internalType": "address",
          "name": "",
          "type": "address"
        },
        {
          "internalType": "address",
          "name": "",
          "type": "address"
        }
      ],
      "name": "allowance",
      "outputs": [
        {
          "internalType": "uint256",
          "name": "",
          "type": "uint256"
        }
      ],
      "stateMutability": "view",
      "type": "function"
    },
    {
      "inputs": [
        {
          "internalType": "address",
          "name": "spender",
          "type": "address"
        },
        {
          "internalType": "uint256",
          "name": "amount",
          "type": "uint256"
        }
      ],
      "name": "approve",
      "outputs": [
        {
          "internalType": "bool",
          "name": "",
          "type": "bool"
        }
      ],
      "stateMutability": "nonpayable",
      "type": "function"
    },
    {
      "inputs": [],
      "name": "asset",
      "outputs": [
        {
          "internalType": "contract ERC20",
          "name": "",
          "type": "address"
        }
      ],
      "stateMutability": "view",
      "type": "function"
    },
    {
      "inputs": [],
      "name": "auraBooster",
      "outputs": [
        {
          "internalType": "contract IBooster",
          "name": "",
          "type": "address"
        }
      ],
      "stateMutability": "view",
      "type": "function"
    },
    {
      "inputs": [],
      "name": "auraPID",
      "outputs": [
        {
          "internalType": "uint256",
          "name": "",
          "type": "uint256"
        }
      ],
      "stateMutability": "view",
      "type": "function"
    },
    {
      "inputs": [
        {
          "internalType": "address",
          "name": "",
          "type": "address"
        }
      ],
      "name": "balanceOf",
      "outputs": [
        {
          "internalType": "uint256",
          "name": "",
          "type": "uint256"
        }
      ],
      "stateMutability": "view",
      "type": "function"
    },
    {
      "inputs": [],
      "name": "balancerVault",
      "outputs": [
        {
          "internalType": "contract BalancerVault",
          "name": "",
          "type": "address"
        }
      ],
      "stateMutability": "view",
      "type": "function"
    },
    {
      "inputs": [
        {
          "internalType": "uint256",
          "name": "shares",
          "type": "uint256"
        }
      ],
      "name": "convertToAssets",
      "outputs": [
        {
          "internalType": "uint256",
          "name": "assets",
          "type": "uint256"
        }
      ],
      "stateMutability": "view",
      "type": "function"
    },
    {
      "inputs": [
        {
          "internalType": "uint256",
          "name": "assets",
          "type": "uint256"
        }
      ],
      "name": "convertToShares",
      "outputs": [
        {
          "internalType": "uint256",
          "name": "",
          "type": "uint256"
        }
      ],
      "stateMutability": "view",
      "type": "function"
    },
    {
      "inputs": [],
      "name": "decimals",
      "outputs": [
        {
          "internalType": "uint8",
          "name": "",
          "type": "uint8"
        }
      ],
      "stateMutability": "view",
      "type": "function"
    },
    {
      "inputs": [
        {
          "internalType": "uint256",
          "name": "assets",
          "type": "uint256"
        },
        {
          "internalType": "address",
          "name": "receiver",
          "type": "address"
        }
      ],
      "name": "deposit",
      "outputs": [
        {
          "internalType": "uint256",
          "name": "shares",
          "type": "uint256"
        }
      ],
      "stateMutability": "nonpayable",
      "type": "function"
    },
    {
      "inputs": [
        {
          "internalType": "uint256",
          "name": "bptIn",
          "type": "uint256"
        },
        {
          "internalType": "address",
          "name": "receiver",
          "type": "address"
        }
      ],
      "name": "depositFromBPT",
      "outputs": [],
      "stateMutability": "nonpayable",
      "type": "function"
    },
    {
      "inputs": [
        {
          "internalType": "address",
          "name": "token",
          "type": "address"
        }
      ],
      "name": "extractToken",
      "outputs": [],
      "stateMutability": "nonpayable",
      "type": "function"
    },
    {
      "inputs": [
        {
          "internalType": "address",
          "name": "",
          "type": "address"
        }
      ],
      "name": "isTrusted",
      "outputs": [
        {
          "internalType": "bool",
          "name": "",
          "type": "bool"
        }
      ],
      "stateMutability": "view",
      "type": "function"
    },
    {
      "inputs": [
        {
          "internalType": "address",
          "name": "",
          "type": "address"
        }
      ],
      "name": "maxDeposit",
      "outputs": [
        {
          "internalType": "uint256",
          "name": "",
          "type": "uint256"
        }
      ],
      "stateMutability": "view",
      "type": "function"
    },
    {
      "inputs": [
        {
          "internalType": "address",
          "name": "",
          "type": "address"
        }
      ],
      "name": "maxMint",
      "outputs": [
        {
          "internalType": "uint256",
          "name": "",
          "type": "uint256"
        }
      ],
      "stateMutability": "view",
      "type": "function"
    },
    {
      "inputs": [
        {
          "internalType": "address",
          "name": "owner",
          "type": "address"
        }
      ],
      "name": "maxRedeem",
      "outputs": [
        {
          "internalType": "uint256",
          "name": "",
          "type": "uint256"
        }
      ],
      "stateMutability": "view",
      "type": "function"
    },
    {
      "inputs": [
        {
          "internalType": "address",
          "name": "owner",
          "type": "address"
        }
      ],
      "name": "maxWithdraw",
      "outputs": [
        {
          "internalType": "uint256",
          "name": "",
          "type": "uint256"
        }
      ],
      "stateMutability": "view",
      "type": "function"
    },
    {
      "inputs": [
        {
          "internalType": "uint256",
          "name": "shares",
          "type": "uint256"
        },
        {
          "internalType": "address",
          "name": "receiver",
          "type": "address"
        }
      ],
      "name": "mint",
      "outputs": [
        {
          "internalType": "uint256",
          "name": "assets",
          "type": "uint256"
        }
      ],
      "stateMutability": "nonpayable",
      "type": "function"
    },
    {
      "inputs": [],
      "name": "name",
      "outputs": [
        {
          "internalType": "string",
          "name": "",
          "type": "string"
        }
      ],
      "stateMutability": "view",
      "type": "function"
    },
    {
      "inputs": [
        {
          "internalType": "address",
          "name": "",
          "type": "address"
        }
      ],
      "name": "nonces",
      "outputs": [
        {
          "internalType": "uint256",
          "name": "",
          "type": "uint256"
        }
      ],
      "stateMutability": "view",
      "type": "function"
    },
    {
      "inputs": [
        {
          "internalType": "address",
          "name": "owner",
          "type": "address"
        },
        {
          "internalType": "address",
          "name": "spender",
          "type": "address"
        },
        {
          "internalType": "uint256",
          "name": "value",
          "type": "uint256"
        },
        {
          "internalType": "uint256",
          "name": "deadline",
          "type": "uint256"
        },
        {
          "internalType": "uint8",
          "name": "v",
          "type": "uint8"
        },
        {
          "internalType": "bytes32",
          "name": "r",
          "type": "bytes32"
        },
        {
          "internalType": "bytes32",
          "name": "s",
          "type": "bytes32"
        }
      ],
      "name": "permit",
      "outputs": [],
      "stateMutability": "nonpayable",
      "type": "function"
    },
    {
      "inputs": [],
      "name": "pool",
      "outputs": [
        {
          "internalType": "contract BalancerPool",
          "name": "",
          "type": "address"
        }
      ],
      "stateMutability": "view",
      "type": "function"
    },
    {
      "inputs": [
        {
          "internalType": "uint256",
          "name": "assets",
          "type": "uint256"
        }
      ],
      "name": "previewDeposit",
      "outputs": [
        {
          "internalType": "uint256",
          "name": "",
          "type": "uint256"
        }
      ],
      "stateMutability": "view",
      "type": "function"
    },
    {
      "inputs": [
        {
          "internalType": "uint256",
          "name": "",
          "type": "uint256"
        }
      ],
      "name": "previewMint",
      "outputs": [
        {
          "internalType": "uint256",
          "name": "",
          "type": "uint256"
        }
      ],
      "stateMutability": "view",
      "type": "function"
    },
    {
      "inputs": [
        {
          "internalType": "uint256",
          "name": "shares",
          "type": "uint256"
        }
      ],
      "name": "previewRedeem",
      "outputs": [
        {
          "internalType": "uint256",
          "name": "",
          "type": "uint256"
        }
      ],
      "stateMutability": "view",
      "type": "function"
    },
    {
      "inputs": [
        {
          "internalType": "uint256",
          "name": "",
          "type": "uint256"
        }
      ],
      "name": "previewWithdraw",
      "outputs": [
        {
          "internalType": "uint256",
          "name": "",
          "type": "uint256"
        }
      ],
      "stateMutability": "view",
      "type": "function"
    },
    {
      "inputs": [
        {
          "internalType": "uint256",
          "name": "shares",
          "type": "uint256"
        },
        {
          "internalType": "address",
          "name": "receiver",
          "type": "address"
        },
        {
          "internalType": "address",
          "name": "owner",
          "type": "address"
        }
      ],
      "name": "redeem",
      "outputs": [
        {
          "internalType": "uint256",
          "name": "assets",
          "type": "uint256"
        }
      ],
      "stateMutability": "nonpayable",
      "type": "function"
    },
    {
      "inputs": [],
      "name": "rewardsRecipient",
      "outputs": [
        {
          "internalType": "address",
          "name": "",
          "type": "address"
        }
      ],
      "stateMutability": "view",
      "type": "function"
    },
    {
      "inputs": [
        {
          "internalType": "address",
          "name": "user",
          "type": "address"
        },
        {
          "internalType": "bool",
          "name": "trusted",
          "type": "bool"
        }
      ],
      "name": "setIsTrusted",
      "outputs": [],
      "stateMutability": "nonpayable",
      "type": "function"
    },
    {
      "inputs": [
        {
          "internalType": "address",
          "name": "recipient",
          "type": "address"
        }
      ],
      "name": "setRewardsRecipient",
      "outputs": [],
      "stateMutability": "nonpayable",
      "type": "function"
    },
    {
      "inputs": [],
      "name": "symbol",
      "outputs": [
        {
          "internalType": "string",
          "name": "",
          "type": "string"
        }
      ],
      "stateMutability": "view",
      "type": "function"
    },
    {
      "inputs": [],
      "name": "totalAssets",
      "outputs": [
        {
          "internalType": "uint256",
          "name": "",
          "type": "uint256"
        }
      ],
      "stateMutability": "view",
      "type": "function"
    },
    {
      "inputs": [],
      "name": "totalSupply",
      "outputs": [
        {
          "internalType": "uint256",
          "name": "",
          "type": "uint256"
        }
      ],
      "stateMutability": "view",
      "type": "function"
    },
    {
      "inputs": [
        {
          "internalType": "address",
          "name": "to",
          "type": "address"
        },
        {
          "internalType": "uint256",
          "name": "amount",
          "type": "uint256"
        }
      ],
      "name": "transfer",
      "outputs": [
        {
          "internalType": "bool",
          "name": "",
          "type": "bool"
        }
      ],
      "stateMutability": "nonpayable",
      "type": "function"
    },
    {
      "inputs": [
        {
          "internalType": "address",
          "name": "from",
          "type": "address"
        },
        {
          "internalType": "address",
          "name": "to",
          "type": "address"
        },
        {
          "internalType": "uint256",
          "name": "amount",
          "type": "uint256"
        }
      ],
      "name": "transferFrom",
      "outputs": [
        {
          "internalType": "bool",
          "name": "",
          "type": "bool"
        }
      ],
      "stateMutability": "nonpayable",
      "type": "function"
    },
    {
      "inputs": [
        {
          "internalType": "uint256",
          "name": "assets",
          "type": "uint256"
        },
        {
          "internalType": "address",
          "name": "receiver",
          "type": "address"
        },
        {
          "internalType": "address",
          "name": "owner",
          "type": "address"
        }
      ],
      "name": "withdraw",
      "outputs": [
        {
          "internalType": "uint256",
          "name": "shares",
          "type": "uint256"
        }
      ],
      "stateMutability": "nonpayable",
      "type": "function"
    },
    {
      "inputs": [
        {
          "internalType": "uint256",
          "name": "shares",
          "type": "uint256"
        },
        {
          "internalType": "address",
          "name": "receiver",
          "type": "address"
        },
        {
          "internalType": "address",
          "name": "owner",
          "type": "address"
        }
      ],
      "name": "withdrawToBPT",
      "outputs": [],
      "stateMutability": "nonpayable",
      "type": "function"
    }
  ],
  "transactionHash": "0xd0227bca8fe4b6a9b70617a8d14a5a0b365ee7bed72ca3716c0bdb76bd73ee7e",
  "args": [
    "0xC02aaA39b223FE8D0A0e5C4F27eAD9083C756Cc2",
    "0xd26948E7a0223700e3C3cdEA21cA2471abCb8d47"
  ],
  "numDeployments": 1,
  "solcInputHash": "31d1c4ad1a16c7c23255475a9a8f2b21",
  "bytecode": "0x6101806040523480156200001257600080fd5b5060405162003a2b38038062003a2b833981016040819052620000359162000891565b3380836200004384620005c3565b6200004e8562000656565b8181846001600160a01b031663313ce5676040518163ffffffff1660e01b8152600401602060405180830381865afa1580156200008f573d6000803e3d6000fd5b505050506040513d601f19601f82011682018060405250810190620000b59190620008d0565b6000620000c38482620009a1565b506001620000d28382620009a1565b5060ff81166080524660a052620000e8620006d3565b60c052505050506001600160a01b0391821660e052508116600081815260066020908152604091829020805460ff1916600190811790915591519182527fe95aec380cae16330d146d5499ef7db6f3657e477104a733e771bc09e500d986910160405180910390a250600780546001600160a01b0319166001600160a01b03928316179055811661010081905260408051633c41a11560e21b8152905163f1068454916004808201926020929091908290030181865afa158015620001b1573d6000803e3d6000fd5b505050506040513d601f19601f82011682018060405250810190620001d7919062000a6d565b6101208181525050610100516001600160a01b03166338d52e0f6040518163ffffffff1660e01b8152600401602060405180830381865afa15801562000221573d6000803e3d6000fd5b505050506040513d601f19601f8201168201806040525081019062000247919062000a87565b6001600160a01b03166101408190526040805163038fff2d60e41b8152905160009273ba12222222228d8ba445958a75a0704d566bf2c89263f94d4668926338fff2d0916004808201926020929091908290030181865afa158015620002b1573d6000803e3d6000fd5b505050506040513d601f19601f82011682018060405250810190620002d7919062000a6d565b6040518263ffffffff1660e01b8152600401620002f691815260200190565b600060405180830381865afa15801562000314573d6000803e3d6000fd5b505050506040513d6000823e601f3d908101601f191682016040526200033e919081019062000b73565b50509050610140516001600160a01b03166338fff2d06040518163ffffffff1660e01b8152600401602060405180830381865afa15801562000384573d6000803e3d6000fd5b505050506040513d601f19601f82011682018060405250810190620003aa919062000a6d565b6101605260005b81518160ff161015620004db576009828260ff1681518110620003d857620003d862000c4e565b60200260200101516001600160a01b031663313ce5676040518163ffffffff1660e01b8152600401602060405180830381865afa1580156200041e573d6000803e3d6000fd5b505050506040513d601f19601f82011682018060405250810190620004449190620008d0565b6200045190600a62000d79565b815460018101835560009283526020909220909101558151620004c69073ba12222222228d8ba445958a75a0704d566bf2c89060001990859060ff8616908110620004a057620004a062000c4e565b60200260200101516001600160a01b03166200076f60201b620015e1179092919060201c565b80620004d28162000d8a565b915050620003b1565b508051620004f190600a906020840190620007f7565b5062000565610140516001600160a01b031663238a2d596040518163ffffffff1660e01b8152600401600060405180830381865afa15801562000538573d6000803e3d6000fd5b505050506040513d6000823e601f3d908101601f1916820160405262000562919081019062000dac565b90565b80516200057b91600891602090910190620007f7565b50620005ba73a57b8d98dae62b26ec3bcc4a365338157060b234600019610140516001600160a01b03166200076f60201b620015e1179092919060201c565b50505062000ff9565b6060816001600160a01b03166395d89b416040518163ffffffff1660e01b8152600401600060405180830381865afa15801562000604573d6000803e3d6000fd5b505050506040513d6000823e601f3d908101601f191682016040526200062e919081019062000e7f565b60405160200162000640919062000f1d565b6040516020818303038152906040529050919050565b6060816001600160a01b03166395d89b416040518163ffffffff1660e01b8152600401600060405180830381865afa15801562000697573d6000803e3d6000fd5b505050506040513d6000823e601f3d908101601f19168201604052620006c1919081019062000e7f565b60405160200162000640919062000f4f565b60007f8b73c3c69bb8fe3d512ecc4cf759cc79239f7b179b0ffacaa9a75d522b39400f600060405162000707919062000f7b565b6040805191829003822060208301939093528101919091527fc89efdaa54c0f20c7adf612882df0950f5a951637e0307cdcb4c672f298b8bc660608201524660808201523060a082015260c00160405160208183030381529060405280519060200120905090565b600060405163095ea7b360e01b6000528360045282602452602060006044600080895af13d15601f3d1160016000511416171691506000606052806040525080620007f15760405162461bcd60e51b815260206004820152600e60248201526d1054141493d59157d1905253115160921b604482015260640160405180910390fd5b50505050565b8280548282559060005260206000209081019282156200084f579160200282015b828111156200084f57825182546001600160a01b0319166001600160a01b0390911617825560209092019160019091019062000818565b506200085d92915062000861565b5090565b5b808211156200085d576000815560010162000862565b6001600160a01b03811681146200088e57600080fd5b50565b60008060408385031215620008a557600080fd5b8251620008b28162000878565b6020840151909250620008c58162000878565b809150509250929050565b600060208284031215620008e357600080fd5b815160ff81168114620008f557600080fd5b9392505050565b634e487b7160e01b600052604160045260246000fd5b600181811c908216806200092757607f821691505b6020821081036200094857634e487b7160e01b600052602260045260246000fd5b50919050565b601f8211156200099c57600081815260208120601f850160051c81016020861015620009775750805b601f850160051c820191505b81811015620009985782815560010162000983565b5050505b505050565b81516001600160401b03811115620009bd57620009bd620008fc565b620009d581620009ce845462000912565b846200094e565b602080601f83116001811462000a0d5760008415620009f45750858301515b600019600386901b1c1916600185901b17855562000998565b600085815260208120601f198616915b8281101562000a3e5788860151825594840194600190910190840162000a1d565b508582101562000a5d5787850151600019600388901b60f8161c191681555b5050505050600190811b01905550565b60006020828403121562000a8057600080fd5b5051919050565b60006020828403121562000a9a57600080fd5b8151620008f58162000878565b604051601f8201601f191681016001600160401b038111828210171562000ad25762000ad2620008fc565b604052919050565b60006001600160401b0382111562000af65762000af6620008fc565b5060051b60200190565b600082601f83011262000b1257600080fd5b8151602062000b2b62000b258362000ada565b62000aa7565b82815260059290921b8401810191818101908684111562000b4b57600080fd5b8286015b8481101562000b68578051835291830191830162000b4f565b509695505050505050565b60008060006060848603121562000b8957600080fd5b83516001600160401b038082111562000ba157600080fd5b818601915086601f83011262000bb657600080fd5b8151602062000bc962000b258362000ada565b82815260059290921b8401810191818101908a84111562000be957600080fd5b948201945b8386101562000c1457855162000c048162000878565b8252948201949082019062000bee565b9189015191975090935050508082111562000c2e57600080fd5b5062000c3d8682870162000b00565b925050604084015190509250925092565b634e487b7160e01b600052603260045260246000fd5b634e487b7160e01b600052601160045260246000fd5b600181815b8085111562000cbb57816000190482111562000c9f5762000c9f62000c64565b8085161562000cad57918102915b93841c939080029062000c7f565b509250929050565b60008262000cd45750600162000d73565b8162000ce35750600062000d73565b816001811462000cfc576002811462000d075762000d27565b600191505062000d73565b60ff84111562000d1b5762000d1b62000c64565b50506001821b62000d73565b5060208310610133831016604e8410600b841016171562000d4c575081810a62000d73565b62000d58838362000c7a565b806000190482111562000d6f5762000d6f62000c64565b0290505b92915050565b6000620008f560ff84168362000cc3565b600060ff821660ff810362000da35762000da362000c64565b60010192915050565b6000602080838503121562000dc057600080fd5b82516001600160401b0381111562000dd757600080fd5b8301601f8101851362000de957600080fd5b805162000dfa62000b258262000ada565b81815260059190911b8201830190838101908783111562000e1a57600080fd5b928401925b8284101562000e4557835162000e358162000878565b8252928401929084019062000e1f565b979650505050505050565b60005b8381101562000e6d57818101518382015260200162000e53565b83811115620007f15750506000910152565b60006020828403121562000e9257600080fd5b81516001600160401b038082111562000eaa57600080fd5b818401915084601f83011262000ebf57600080fd5b81518181111562000ed45762000ed4620008fc565b62000ee9601f8201601f191660200162000aa7565b915080825285602082850101111562000f0157600080fd5b62000f1481602084016020860162000e50565b50949350505050565b6702bb930b83832b2160c51b81526000825162000f4281600885016020870162000e50565b9190910160080192915050565b61772d60f01b81526000825162000f6e81600285016020870162000e50565b9190910160020192915050565b600080835462000f8b8162000912565b6001828116801562000fa6576001811462000fbc5762000fed565b60ff198416875282151583028701945062000fed565b8760005260208060002060005b8581101562000fe45781548a82015290840190820162000fc9565b50505082870194505b50929695505050505050565b60805160a05160c05160e05161010051610120516101405161016051612940620010eb600039600081816107550152818161108001528181611fb901526121340152600081816103080152818161146f015281816114a801528181611826015261202e01526000818161046f015281816114e90152611ba60152600081816104d4015281816113e50152611c7401526000818161039f0152818161062201528181610c6b01528181610d0701528181610ee30152818161102f0152818161173d01528181611e330152818161206a01526121ad01526000610aa501526000610a750152600061035e01526129406000f3fe608060405234801561001057600080fd5b50600436106102485760003560e01c806381bf829d1161013b578063c63d75b6116100b8578063dd62ed3e1161007c578063dd62ed3e14610591578063e5a7de0c146105bc578063e7fc9cd5146105cf578063ef8b30f7146105e2578063ff2a7d30146105f557600080fd5b8063c63d75b6146103c1578063c6e6f5921461052f578063ce96cb7714610542578063d505accf14610555578063d905777e1461056857600080fd5b8063a0c1f15e116100ff578063a0c1f15e146104cf578063a9059cbb146104f6578063b3d7f6b9146102b3578063b460af9414610509578063ba0876521461051c57600080fd5b806381bf829d1461044f57806391fde3781461046a57806394bf804d1461049157806395d89b41146104a457806396d64879146104ac57600080fd5b806323b872dd116101c95780634cdad5061161018d5780634cdad506146103d6578063608c44d6146103e95780636e553f65146103fc57806370a082311461040f5780637ecebe001461042f57600080fd5b806323b872dd14610346578063313ce567146103595780633644e5151461039257806338d52e0f1461039a578063402d267d146103c157600080fd5b80631393916a116102105780631393916a146102c6578063158274a5146102db57806316f0115b1461030357806318160ddd1461032a5780631a54259c1461033357600080fd5b806301e1d1141461024d57806306fdde031461026857806307a2d13a1461027d578063095ea7b3146102905780630a28a477146102b3575b600080fd5b610255610608565b6040519081526020015b60405180910390f35b61027061069d565b60405161025f9190612286565b61025561028b366004612299565b61072b565b6102a361029e3660046122ce565b6107e7565b604051901515815260200161025f565b6102556102c1366004612299565b610854565b6102d96102d4366004612309565b61086f565b005b6102f673ba12222222228d8ba445958a75a0704d566bf2c881565b60405161025f9190612340565b6102f67f000000000000000000000000000000000000000000000000000000000000000081565b61025560025481565b6102d9610341366004612354565b610906565b6102a361035436600461236f565b610991565b6103807f000000000000000000000000000000000000000000000000000000000000000081565b60405160ff909116815260200161025f565b610255610a71565b6102f67f000000000000000000000000000000000000000000000000000000000000000081565b6102556103cf366004612354565b5060001990565b6102556103e4366004612299565b610ac7565b6102d96103f7366004612354565b610ad2565b61025561040a3660046123ab565b610c13565b61025561041d366004612354565b60036020526000908152604090205481565b61025561043d366004612354565b60056020526000908152604090205481565b6102f673a57b8d98dae62b26ec3bcc4a365338157060b23481565b6102557f000000000000000000000000000000000000000000000000000000000000000081565b61025561049f3660046123ab565b610ced565b610270610d89565b6102a36104ba366004612354565b60066020526000908152604090205460ff1681565b6102f67f000000000000000000000000000000000000000000000000000000000000000081565b6102a36105043660046122ce565b610d96565b6102556105173660046123d7565b610dfc565b61025561052a3660046123d7565b610f0a565b61025561053d366004612299565b611056565b610255610550366004612354565b6110aa565b6102d9610563366004612413565b6110cc565b610255610576366004612354565b6001600160a01b031660009081526003602052604090205490565b61025561059f366004612486565b600460209081526000928352604080842090915290825290205481565b6102d96105ca3660046123d7565b61130a565b6102d96105dd3660046123ab565b61149b565b6102556105f0366004612299565b6115d6565b6007546102f6906001600160a01b031681565b6040516370a0823160e01b81526000906001600160a01b037f000000000000000000000000000000000000000000000000000000000000000016906370a0823190610657903090600401612340565b602060405180830381865afa158015610674573d6000803e3d6000fd5b505050506040513d601f19601f8201168201806040525081019061069891906124b0565b905090565b600080546106aa906124c9565b80601f01602080910402602001604051908101604052809291908181526020018280546106d6906124c9565b80156107235780601f106106f857610100808354040283529160200191610723565b820191906000526020600020905b81548152906001019060200180831161070657829003601f168201915b505050505081565b60008061073783611664565b90507321a9fd7212f37c35b030e9374510f99128d59cd363626117307f000000000000000000000000000000000000000000000000000000000000000030808561077f611804565b6040518663ffffffff1660e01b815260040161079f9594939291906125d5565b602060405180830381865afa1580156107bc573d6000803e3d6000fd5b505050506040513d601f19601f820116820180604052508101906107e091906124b0565b9392505050565b3360008181526004602090815260408083206001600160a01b038716808552925280832085905551919290917f8c5be1e5ebec7d5bd14f71427d1e84f3dd0314c0f7b2291e5b200ac8c7c3b925906108429086815260200190565b60405180910390a35060015b92915050565b600060405163d623472560e01b815260040160405180910390fd5b3360009081526006602052604090205460ff166108a75760405162461bcd60e51b815260040161089e90612625565b60405180910390fd5b6001600160a01b038216600081815260066020908152604091829020805460ff191685151590811790915591519182527fe95aec380cae16330d146d5499ef7db6f3657e477104a733e771bc09e500d986910160405180910390a25050565b3360009081526006602052604090205460ff166109355760405162461bcd60e51b815260040161089e90612625565b6007546040516001600160a01b038084169216907f952c654458751f95c1440bdb1537809137b3de28466b80ad096a711707ae987a90600090a3600780546001600160a01b0319166001600160a01b0392909216919091179055565b6001600160a01b038316600090815260046020908152604080832033845290915281205460001981146109ed576109c8838261265e565b6001600160a01b03861660009081526004602090815260408083203384529091529020555b6001600160a01b03851660009081526003602052604081208054859290610a1590849061265e565b90915550506001600160a01b03808516600081815260036020526040908190208054870190555190918716906000805160206128eb83398151915290610a5e9087815260200190565b60405180910390a3506001949350505050565b60007f00000000000000000000000000000000000000000000000000000000000000004614610aa25761069861198a565b507f000000000000000000000000000000000000000000000000000000000000000090565b600061084e8261072b565b6040516370a0823160e01b815281906000906001600160a01b038316906370a0823190610b03903090600401612340565b602060405180830381865afa158015610b20573d6000803e3d6000fd5b505050506040513d601f19601f82011682018060405250810190610b4491906124b0565b6007546040516370a0823160e01b8152919250610bd0916001600160a01b03918216918516906370a0823190610b7e903090600401612340565b602060405180830381865afa158015610b9b573d6000803e3d6000fd5b505050506040513d601f19601f82011682018060405250810190610bbf91906124b0565b6001600160a01b0385169190611a24565b60075460405182916001600160a01b0390811691908616907f9310ccfcb8de723f578a9e4282ea9f521f05ae40dc08f3068dfad528a65ee3c790600090a4505050565b6000610c1e836115d6565b905080600003610c5e5760405162461bcd60e51b815260206004820152600b60248201526a5a45524f5f53484152455360a81b604482015260640161089e565b610c936001600160a01b037f000000000000000000000000000000000000000000000000000000000000000016333086611aa2565b610c9d8282611b30565b60408051848152602081018390526001600160a01b0384169133917fdcbc1c05240f31ff3ad067ef1ee35ce4997762752e3a095284754544f4c709d7910160405180910390a361084e8382611b8a565b6000610cf883610854565b9050610d2f6001600160a01b037f000000000000000000000000000000000000000000000000000000000000000016333084611aa2565b610d398284611b30565b60408051828152602081018590526001600160a01b0384169133917fdcbc1c05240f31ff3ad067ef1ee35ce4997762752e3a095284754544f4c709d7910160405180910390a361084e8184611b8a565b600180546106aa906124c9565b33600090815260036020526040812080548391908390610db790849061265e565b90915550506001600160a01b038316600081815260036020526040908190208054850190555133906000805160206128eb833981519152906108429086815260200190565b6000610e0784610854565b9050336001600160a01b03831614610e77576001600160a01b03821660009081526004602090815260408083203384529091529020546000198114610e7557610e50828261265e565b6001600160a01b03841660009081526004602090815260408083203384529091529020555b505b610e818482611c5d565b610e8b8282611cfa565b60408051858152602081018390526001600160a01b03808516929086169133917ffbde797d201c681b91056529119e0b02407c7bb96a4a2c75c01fc9667232c8db910160405180910390a46107e06001600160a01b037f0000000000000000000000000000000000000000000000000000000000000000168486611a24565b6000336001600160a01b03831614610f7a576001600160a01b03821660009081526004602090815260408083203384529091529020546000198114610f7857610f53858261265e565b6001600160a01b03841660009081526004602090815260408083203384529091529020555b505b610f8384610ac7565b905080600003610fc35760405162461bcd60e51b815260206004820152600b60248201526a5a45524f5f41535345545360a81b604482015260640161089e565b610fcd8185611c5d565b610fd78285611cfa565b60408051828152602081018690526001600160a01b03808516929086169133917ffbde797d201c681b91056529119e0b02407c7bb96a4a2c75c01fc9667232c8db910160405180910390a46107e06001600160a01b037f0000000000000000000000000000000000000000000000000000000000000000168483611a24565b60008061106283611d5c565b90507321a9fd7212f37c35b030e9374510f99128d59cd363666950607f000000000000000000000000000000000000000000000000000000000000000030808561077f611804565b6001600160a01b03811660009081526003602052604081205461084e9061072b565b428410156111165760405162461bcd60e51b815260206004820152601760248201527614115493525517d11150511312539157d1561412549151604a1b604482015260640161089e565b60006001611122610a71565b6001600160a01b038a811660008181526005602090815260409182902080546001810190915582517f6e71edae12b1b97f4d1f60370fef10105fa2faae0126114a169c64845d6126c98184015280840194909452938d166060840152608083018c905260a083019390935260c08083018b90528151808403909101815260e08301909152805192019190912061190160f01b6101008301526101028201929092526101228101919091526101420160408051601f198184030181528282528051602091820120600084529083018083525260ff871690820152606081018590526080810184905260a0016020604051602081039080840390855afa15801561122e573d6000803e3d6000fd5b5050604051601f1901519150506001600160a01b038116158015906112645750876001600160a01b0316816001600160a01b0316145b6112a15760405162461bcd60e51b815260206004820152600e60248201526d24a72b20a624a22fa9a4a3a722a960911b604482015260640161089e565b6001600160a01b0390811660009081526004602090815260408083208a8516808552908352928190208990555188815291928a16917f8c5be1e5ebec7d5bd14f71427d1e84f3dd0314c0f7b2291e5b200ac8c7c3b925910160405180910390a350505050505050565b336001600160a01b03821614611378576001600160a01b0381166000908152600460209081526040808320338452909152902054600019811461137657611351848261265e565b6001600160a01b03831660009081526004602090815260408083203384529091529020555b505b6113828184611cfa565b82826001600160a01b0316336001600160a01b03167fccac76f4ab9b89bcd3294752c4dd2e51435879186cd400004778af52ad987b21846040516113c69190612340565b60405180910390a4604051632d182be560e21b81526001600160a01b037f0000000000000000000000000000000000000000000000000000000000000000169063b460af949061141e90869030908190600401612675565b6020604051808303816000875af115801561143d573d6000803e3d6000fd5b505050506040513d601f19601f8201168201806040525081019061146191906124b0565b506114966001600160a01b037f0000000000000000000000000000000000000000000000000000000000000000168385611a24565b505050565b6114d06001600160a01b037f000000000000000000000000000000000000000000000000000000000000000016333085611aa2565b6114da8183611b30565b6040516321d0683360e11b81527f00000000000000000000000000000000000000000000000000000000000000006004820152602481018390526001604482015273a57b8d98dae62b26ec3bcc4a365338157060b234906343a0d066906064016020604051808303816000875af1158015611559573d6000803e3d6000fd5b505050506040513d601f19601f8201168201806040525081019061157d9190612694565b61159a57604051633fb65bab60e01b815260040160405180910390fd5b60405182906001600160a01b0383169033907f4df1ad357595959f9efc5b0eb2f9f8f692474fd27bb4db4405c0e5a24f90762c90600090a45050565b600061084e82611056565b600060405163095ea7b360e01b6000528360045282602452602060006044600080895af13d15601f3d116001600051141617169150600060605280604052508061165e5760405162461bcd60e51b815260206004820152600e60248201526d1054141493d59157d1905253115160921b604482015260640161089e565b50505050565b61169160405180608001604052806060815260200160608152602001606081526020016000151581525090565b600a5460009067ffffffffffffffff8111156116af576116af6126b1565b6040519080825280602002602001820160405280156116d8578160200160208202803683370190505b5090506000611761600a80548060200260200160405190810160405280929190818152602001828054801561173657602002820191906000526020600020905b81546001600160a01b03168152600190910190602001808311611718575b50505050507f0000000000000000000000000000000000000000000000000000000000000000611f1d565b9050600080858360405160200161177a939291906126dd565b60408051601f19818403018152600a805460a060208202860181019094526080850181815292955084938401828280156117dd57602002820191906000526020600020905b81546001600160a01b031681526001909101906020018083116117bf575b50505050508152602001848152602001828152602001600015158152509350505050919050565b60408051608081018252606060208083018290528284018290528183018290527f00000000000000000000000000000000000000000000000000000000000000006001600160a01b03168352600a805485518184028101840190965280865292946118ac9390928301828280156118a457602002820191906000526020600020905b81546001600160a01b03168152600190910190602001808311611886575b505050505090565b6020808301919091526008805460408051828502810185019091528181529283018282801561190457602002820191906000526020600020905b81546001600160a01b031681526001909101906020018083116118e6575b50505050604080840192909252506009805482516020808302820181019094528181529283018282801561195757602002820191906000526020600020905b815481526020019060010190808311611943575b5050505050816060018190525080604051602001611975919061273e565b60405160208183030381529060405291505090565b60007f8b73c3c69bb8fe3d512ecc4cf759cc79239f7b179b0ffacaa9a75d522b39400f60006040516119bc91906127a8565b6040805191829003822060208301939093528101919091527fc89efdaa54c0f20c7adf612882df0950f5a951637e0307cdcb4c672f298b8bc660608201524660808201523060a082015260c00160405160208183030381529060405280519060200120905090565b600060405163a9059cbb60e01b6000528360045282602452602060006044600080895af13d15601f3d116001600051141617169150600060605280604052508061165e5760405162461bcd60e51b815260206004820152600f60248201526e1514905394d1915497d19052531151608a1b604482015260640161089e565b60006040516323b872dd60e01b6000528460045283602452826044526020600060646000808a5af13d15601f3d1160016000511416171691506000606052806040525080611b295760405162461bcd60e51b81526020600482015260146024820152731514905394d1915497d19493d357d1905253115160621b604482015260640161089e565b5050505050565b8060026000828254611b429190612847565b90915550506001600160a01b0382166000818152600360209081526040808320805486019055518481526000805160206128eb83398151915291015b60405180910390a35050565b73a57b8d98dae62b26ec3bcc4a365338157060b2346343a0d0667f0000000000000000000000000000000000000000000000000000000000000000611bce85611f7b565b6040516001600160e01b031960e085901b16815260048101929092526024820152600160448201526064016020604051808303816000875af1158015611c18573d6000803e3d6000fd5b505050506040513d601f19601f82011682018060405250810190611c3c9190612694565b611c5957604051633fb65bab60e01b815260040160405180910390fd5b5050565b604051632d182be560e21b81526001600160a01b037f0000000000000000000000000000000000000000000000000000000000000000169063b460af9490611cad90849030908190600401612675565b6020604051808303816000875af1158015611ccc573d6000803e3d6000fd5b505050506040513d601f19601f82011682018060405250810190611cf091906124b0565b5061149681612065565b6001600160a01b03821660009081526003602052604081208054839290611d2290849061265e565b90915550506002805482900390556040518181526000906001600160a01b038416906000805160206128eb83398151915290602001611b7e565b611d8960405180608001604052806060815260200160608152602001606081526020016000151581525090565b600a5460008167ffffffffffffffff811115611da757611da76126b1565b604051908082528060200260200182016040528015611dd0578160200160208202803683370190505b5090506000611e57600a805480602002602001604051908101604052809291908181526020018280548015611736576020028201919060005260206000209081546001600160a01b031681526001909101906020018083116117185750505050507f0000000000000000000000000000000000000000000000000000000000000000611f1d565b905084828281518110611e6c57611e6c61285f565b60200260200101818152505060008060018483604051602001611e9193929190612875565b60408051601f19818403018152600a805460a06020820286018101909452608085018181529295508493840182828015611ef457602002820191906000526020600020905b81546001600160a01b03168152600190910190602001808311611ed6575b505050505081526020018581526020018281526020016000151581525095505050505050919050565b8151600090815b81811015611f6f57836001600160a01b0316858281518110611f4857611f4861285f565b60200260200101516001600160a01b031603611f6757915061084e9050565b600101611f24565b50600019949350505050565b600080611f8783611d5c565b60405163172b958560e31b815290915073ba12222222228d8ba445958a75a0704d566bf2c89063b95cac2890611fe7907f0000000000000000000000000000000000000000000000000000000000000000903090819087906004016128ae565b600060405180830381600087803b15801561200157600080fd5b505af1158015612015573d6000803e3d6000fd5b50506040516370a0823160e01b81526001600160a01b037f00000000000000000000000000000000000000000000000000000000000000001692506370a08231915061079f903090600401612340565b6000807f00000000000000000000000000000000000000000000000000000000000000006001600160a01b03166370a08231306040518263ffffffff1660e01b81526004016120b49190612340565b602060405180830381865afa1580156120d1573d6000803e3d6000fd5b505050506040513d601f19601f820116820180604052508101906120f591906124b0565b9050600061210284611664565b604051638bdb391360e01b815290915073ba12222222228d8ba445958a75a0704d566bf2c890638bdb391390612162907f0000000000000000000000000000000000000000000000000000000000000000903090819087906004016128ae565b600060405180830381600087803b15801561217c57600080fd5b505af1158015612190573d6000803e3d6000fd5b50506040516370a0823160e01b8152600092506001600160a01b037f00000000000000000000000000000000000000000000000000000000000000001691506370a08231906121e3903090600401612340565b602060405180830381865afa158015612200573d6000803e3d6000fd5b505050506040513d601f19601f8201168201806040525081019061222491906124b0565b9050612230838261265e565b95945050505050565b6000815180845260005b8181101561225f57602081850181015186830182015201612243565b81811115612271576000602083870101525b50601f01601f19169290920160200192915050565b6020815260006107e06020830184612239565b6000602082840312156122ab57600080fd5b5035919050565b80356001600160a01b03811681146122c957600080fd5b919050565b600080604083850312156122e157600080fd5b6122ea836122b2565b946020939093013593505050565b801515811461230657600080fd5b50565b6000806040838503121561231c57600080fd5b612325836122b2565b91506020830135612335816122f8565b809150509250929050565b6001600160a01b0391909116815260200190565b60006020828403121561236657600080fd5b6107e0826122b2565b60008060006060848603121561238457600080fd5b61238d846122b2565b925061239b602085016122b2565b9150604084013590509250925092565b600080604083850312156123be57600080fd5b823591506123ce602084016122b2565b90509250929050565b6000806000606084860312156123ec57600080fd5b833592506123fc602085016122b2565b915061240a604085016122b2565b90509250925092565b600080600080600080600060e0888a03121561242e57600080fd5b612437886122b2565b9650612445602089016122b2565b95506040880135945060608801359350608088013560ff8116811461246957600080fd5b9699959850939692959460a0840135945060c09093013592915050565b6000806040838503121561249957600080fd5b6124a2836122b2565b91506123ce602084016122b2565b6000602082840312156124c257600080fd5b5051919050565b600181811c908216806124dd57607f821691505b6020821081036124fd57634e487b7160e01b600052602260045260246000fd5b50919050565b600081518084526020808501945080840160005b8381101561253357815187529582019590820190600101612517565b509495945050505050565b8051608080845281519084018190526000916020919082019060a0860190845b818110156125835783516001600160a01b03168352928401929184019160010161255e565b50508285015191508581038387015261259c8183612503565b92505050604083015184820360408601526125b78282612239565b91505060608301516125cd606086018215159052565b509392505050565b8581526001600160a01b0385811660208301528416604082015260a0606082018190526000906126079083018561253e565b82810360808401526126198185612239565b98975050505050505050565b602080825260099082015268155395149554d5115160ba1b604082015260600190565b634e487b7160e01b600052601160045260246000fd5b60008282101561267057612670612648565b500390565b9283526001600160a01b03918216602084015216604082015260600190565b6000602082840312156126a657600080fd5b81516107e0816122f8565b634e487b7160e01b600052604160045260246000fd5b634e487b7160e01b600052602160045260246000fd5b60608101600285106126f1576126f16126c7565b938152602081019290925260409091015290565b600081518084526020808501945080840160005b838110156125335781516001600160a01b031687529582019590820190600101612719565b602080825282516001600160a01b0316828201528201516080604083015260009061276c60a0840182612705565b90506040840151601f198085840301606086015261278a8383612705565b92506060860151915080858403016080860152506122308282612503565b600080835481600182811c9150808316806127c457607f831692505b602080841082036127e357634e487b7160e01b86526022600452602486fd5b8180156127f7576001811461280c57612839565b60ff1986168952841515850289019650612839565b60008a81526020902060005b868110156128315781548b820152908501908301612818565b505084890196505b509498975050505050505050565b6000821982111561285a5761285a612648565b500190565b634e487b7160e01b600052603260045260246000fd5b600060038510612887576128876126c7565b8482526060602083015261289e6060830185612503565b9050826040830152949350505050565b8481526001600160a01b038481166020830152831660408201526080606082018190526000906128e09083018461253e565b969550505050505056feddf252ad1be2c89b69c2b068fc378daa952ba7f163c4a11628f55a4df523b3efa26469706673582212205a5a36341818386f8eca3cb7a98e53ae23518d69834d9d455395c540abdd19f664736f6c634300080f0033",
  "devdoc": {
    "details": "This contracts inherits ERC4626 but it does not implement all of it's function",
    "kind": "dev",
    "methods": {},
    "title": "Aura Vault Wrapper",
    "version": 1
  },
  "userdoc": {
    "events": {
      "RewardsRecipientChanged(address,address)": {
        "notice": "----------------------------------------------------------------------- Logs -----------------------------------------------------------------------"
      }
    },
    "kind": "user",
    "methods": {
      "aToken()": {
        "notice": "The Aura vault contract"
      },
      "extractToken(address)": {
        "notice": "Transfers reward tokens from the adapter to Sense's reward container"
      },
      "pool()": {
        "notice": "pool data"
      },
      "rewardsRecipient()": {
        "notice": "Rewards recipient"
      },
      "setRewardsRecipient(address)": {
        "notice": "----------------------------------------------------------------------- Admin functions -----------------------------------------------------------------------"
      }
    },
    "notice": "Wraps an Aura vault to make it transferable. Its asset token (underlying) is the base token of the Balancer pool.",
    "version": 1
  },
  "storageLayout": {
    "storage": [
      {
        "astId": 41206,
        "contract": "@sense-finance/v1-core/src/adapters/implementations/aura/AuraVaultWrapper.sol:AuraVaultWrapper",
        "label": "name",
        "offset": 0,
        "slot": "0",
        "type": "t_string_storage"
      },
      {
        "astId": 41208,
        "contract": "@sense-finance/v1-core/src/adapters/implementations/aura/AuraVaultWrapper.sol:AuraVaultWrapper",
        "label": "symbol",
        "offset": 0,
        "slot": "1",
        "type": "t_string_storage"
      },
      {
        "astId": 41212,
        "contract": "@sense-finance/v1-core/src/adapters/implementations/aura/AuraVaultWrapper.sol:AuraVaultWrapper",
        "label": "totalSupply",
        "offset": 0,
        "slot": "2",
        "type": "t_uint256"
      },
      {
        "astId": 41216,
        "contract": "@sense-finance/v1-core/src/adapters/implementations/aura/AuraVaultWrapper.sol:AuraVaultWrapper",
        "label": "balanceOf",
        "offset": 0,
        "slot": "3",
        "type": "t_mapping(t_address,t_uint256)"
      },
      {
        "astId": 41222,
        "contract": "@sense-finance/v1-core/src/adapters/implementations/aura/AuraVaultWrapper.sol:AuraVaultWrapper",
        "label": "allowance",
        "offset": 0,
        "slot": "4",
        "type": "t_mapping(t_address,t_mapping(t_address,t_uint256))"
      },
      {
        "astId": 41230,
        "contract": "@sense-finance/v1-core/src/adapters/implementations/aura/AuraVaultWrapper.sol:AuraVaultWrapper",
        "label": "nonces",
        "offset": 0,
        "slot": "5",
        "type": "t_mapping(t_address,t_uint256)"
      },
      {
        "astId": 25568,
        "contract": "@sense-finance/v1-core/src/adapters/implementations/aura/AuraVaultWrapper.sol:AuraVaultWrapper",
        "label": "isTrusted",
        "offset": 0,
        "slot": "6",
        "type": "t_mapping(t_address,t_bool)"
      },
      {
        "astId": 12423,
        "contract": "@sense-finance/v1-core/src/adapters/implementations/aura/AuraVaultWrapper.sol:AuraVaultWrapper",
        "label": "rewardsRecipient",
        "offset": 0,
        "slot": "7",
        "type": "t_address"
      },
      {
        "astId": 14424,
        "contract": "@sense-finance/v1-core/src/adapters/implementations/aura/AuraVaultWrapper.sol:AuraVaultWrapper",
        "label": "rateProviders",
        "offset": 0,
        "slot": "8",
        "type": "t_array(t_address)dyn_storage"
      },
      {
        "astId": 14427,
        "contract": "@sense-finance/v1-core/src/adapters/implementations/aura/AuraVaultWrapper.sol:AuraVaultWrapper",
        "label": "scalingFactors",
        "offset": 0,
        "slot": "9",
        "type": "t_array(t_uint256)dyn_storage"
      },
      {
        "astId": 14431,
        "contract": "@sense-finance/v1-core/src/adapters/implementations/aura/AuraVaultWrapper.sol:AuraVaultWrapper",
        "label": "poolAssets",
        "offset": 0,
        "slot": "10",
        "type": "t_array(t_contract(IAsset)19567)dyn_storage"
      }
    ],
    "types": {
      "t_address": {
        "encoding": "inplace",
        "label": "address",
        "numberOfBytes": "20"
      },
      "t_array(t_address)dyn_storage": {
        "base": "t_address",
        "encoding": "dynamic_array",
        "label": "address[]",
        "numberOfBytes": "32"
      },
      "t_array(t_contract(IAsset)19567)dyn_storage": {
        "base": "t_contract(IAsset)19567",
        "encoding": "dynamic_array",
        "label": "contract IAsset[]",
        "numberOfBytes": "32"
      },
      "t_array(t_uint256)dyn_storage": {
        "base": "t_uint256",
        "encoding": "dynamic_array",
        "label": "uint256[]",
        "numberOfBytes": "32"
      },
      "t_bool": {
        "encoding": "inplace",
        "label": "bool",
        "numberOfBytes": "1"
      },
      "t_contract(IAsset)19567": {
        "encoding": "inplace",
        "label": "contract IAsset",
        "numberOfBytes": "20"
      },
      "t_mapping(t_address,t_bool)": {
        "encoding": "mapping",
        "key": "t_address",
        "label": "mapping(address => bool)",
        "numberOfBytes": "32",
        "value": "t_bool"
      },
      "t_mapping(t_address,t_mapping(t_address,t_uint256))": {
        "encoding": "mapping",
        "key": "t_address",
        "label": "mapping(address => mapping(address => uint256))",
        "numberOfBytes": "32",
        "value": "t_mapping(t_address,t_uint256)"
      },
      "t_mapping(t_address,t_uint256)": {
        "encoding": "mapping",
        "key": "t_address",
        "label": "mapping(address => uint256)",
        "numberOfBytes": "32",
        "value": "t_uint256"
      },
      "t_string_storage": {
        "encoding": "bytes",
        "label": "string",
        "numberOfBytes": "32"
      },
      "t_uint256": {
        "encoding": "inplace",
        "label": "uint256",
        "numberOfBytes": "32"
      }
    }
  }
}