{
  "address": "0x4d1ed96dDa2F3344b49aB7C993A6d65EcCAE74B9",
  "abi": [
    {
      "inputs": [
        {
          "internalType": "bytes32",
          "name": "poolId",
          "type": "bytes32"
        },
        {
          "internalType": "address",
          "name": "sender",
          "type": "address"
        },
        {
          "internalType": "address",
          "name": "recipient",
          "type": "address"
        },
        {
          "components": [
            {
              "internalType": "address[]",
              "name": "assets",
              "type": "address[]"
            },
            {
              "internalType": "uint256[]",
              "name": "minAmountsOut",
              "type": "uint256[]"
            },
            {
              "internalType": "bytes",
              "name": "userData",
              "type": "bytes"
            },
            {
              "internalType": "bool",
              "name": "toInternalBalance",
              "type": "bool"
            }
          ],
          "internalType": "struct IVault.ExitPoolRequest",
          "name": "request",
          "type": "tuple"
        },
        {
          "internalType": "bytes",
          "name": "data",
          "type": "bytes"
        }
      ],
      "name": "exitPoolPreview",
      "outputs": [
        {
          "internalType": "uint256",
          "name": "amountTokenOut",
          "type": "uint256"
        }
      ],
      "stateMutability": "view",
      "type": "function"
    },
    {
      "inputs": [
        {
          "internalType": "bytes32",
          "name": "poolId",
          "type": "bytes32"
        },
        {
          "internalType": "address",
          "name": "sender",
          "type": "address"
        },
        {
          "internalType": "address",
          "name": "recipient",
          "type": "address"
        },
        {
          "components": [
            {
              "internalType": "address[]",
              "name": "assets",
              "type": "address[]"
            },
            {
              "internalType": "uint256[]",
              "name": "maxAmountsIn",
              "type": "uint256[]"
            },
            {
              "internalType": "bytes",
              "name": "userData",
              "type": "bytes"
            },
            {
              "internalType": "bool",
              "name": "fromInternalBalance",
              "type": "bool"
            }
          ],
          "internalType": "struct IVault.JoinPoolRequest",
          "name": "request",
          "type": "tuple"
        },
        {
          "internalType": "bytes",
          "name": "data",
          "type": "bytes"
        }
      ],
      "name": "joinPoolPreview",
      "outputs": [
        {
          "internalType": "uint256",
          "name": "amountBptOut",
          "type": "uint256"
        }
      ],
      "stateMutability": "view",
      "type": "function"
    }
  ],
  "transactionHash": "0xcede8d5714258d2cf053f484dfc9bb7bdb9ee292982879ad73e4a001190f35b7",
  "args": [],
  "numDeployments": 1,
  "solcInputHash": "539889e47416bb0fe46426a35238c5d6",
  "bytecode": "0x608060405234801561001057600080fd5b50612615806100206000396000f3fe608060405234801561001057600080fd5b50600436106100365760003560e01c8063626117301461003b5780636669506014610060575b600080fd5b61004e610049366004611fe4565b610073565b60405190815260200160405180910390f35b61004e61006e366004611fe4565b610096565b600061008c6001878787610086886100a5565b876100d6565b9695505050505050565b600061008c6000878787610086885b6100d260405180608001604052806060815260200160608152602001606081526020016000151581525090565b5090565b6000806100e68460000151610117565b90506000806100f589846101cf565b915091506101098a8a8a8a8a87878c61025f565b9a9950505050505050505050565b6060600082516001600160401b0381111561013457610134611d41565b60405190808252806020026020018201604052801561015d578160200160208202803683370190505b50905060005b83518110156101c85761018e84828151811061018157610181612076565b60200260200101516102c5565b8282815181106101a0576101a0612076565b6001600160a01b03909216602092830291909101909101526101c1816120a2565b9050610163565b5092915050565b604051631f29a8cd60e31b8152600481018390526060906000908190819073ba12222222228d8ba445958a75a0704d566bf2c89063f94d466890602401600060405180830381865afa158015610229573d6000803e3d6000fd5b505050506040513d6000823e601f3d908101601f191682016040526102519190810190612116565b909890975095505050505050565b600080896001811115610274576102746121e3565b0361029b5761029488888887876102896102f8565b8b6040015189610375565b90506102b9565b6102b688888887876102ab6102f8565b8b60400151896103d6565b90505b98975050505050505050565b60006001600160a01b038216156102dc57816102f2565b73c02aaa39b223fe8d0a0e5c4f27ead9083c756cc25b92915050565b600073ce88686553686da562ce7cea497ce749da109f9f6001600160a01b03166355c676286040518163ffffffff1660e01b8152600401602060405180830381865afa15801561034c573d6000803e3d6000fd5b505050506040513d601f19601f8201168201806040525081019061037091906121f9565b905090565b6000808280602001905181019061038c91906122f0565b90506000610399826104b2565b905060006103a783836104bd565b90506103b38982610588565b6103c58c8c8c8c8c8c878d8b8b610604565b509c9b505050505050505050505050565b600080828060200190518101906103ed91906122f0565b90506000606060006103fe846104b2565b9050600061040c85836104bd565b90506104188b82610588565b61042a8e8e8e8e8e8e878f8d8b61062a565b9094509250610439838261063d565b60005b83518110156104a057600084828151811061045957610459612076565b6020026020010151111561048e5783818151811061047957610479612076565b602002602001015196505050505050506102b9565b80610498816120a2565b91505061043c565b50505050505098975050505050505050565b60606102f2826106b3565b606060008361010001516001600160401b038111156104de576104de611d41565b604051908082528060200260200182016040528015610507578160200160208202803683370190505b50905060005b846101000151811015610580576105536105278583610768565b8660400151838151811061053d5761053d612076565b60200260200101516107c390919063ffffffff16565b82828151811061056557610565612076565b6020908102919091010152610579816120a2565b905061050d565b509392505050565b815160005b818110156105fe576105d18482815181106105aa576105aa612076565b60200260200101518483815181106105c4576105c4612076565b60200260200101516107c3565b8482815181106105e3576105e3612076565b60209081029190910101526105f7816120a2565b905061058d565b50505050565b6000606061061760018a888888886107e2565b915091509a509a98505050505050505050565b6000606061061760008a888888886107e2565b815160005b818110156105fe5761068684828151811061065f5761065f612076565b602002602001015184838151811061067957610679612076565b602002602001015161084b565b84828151811061069857610698612076565b60209081029190910101526106ac816120a2565b9050610642565b60608161010001516001600160401b038111156106d2576106d2611d41565b60405190808252806020026020018201604052801561071757816020015b60408051808201909152600080825260208201528152602001906001900390816106f05790505b50905060005b8261010001518110156107625761073481846108ae565b82828151811061074657610746612076565b60200260200101819052508061075b906120a2565b905061071d565b50919050565b600082828151811061077c5761077c612076565b6020026020010151600001516000146107b2578282815181106107a1576107a1612076565b6020026020010151600001516107bc565b670de0b6b3a76400005b9392505050565b6000670de0b6b3a76400006107d88385612413565b6107bc9190612440565b600060606000806000806107f78b8989610a1c565b9350935093509350611d1f8c61080f57610b44610813565b610b665b9050610828848487858f8f8f8863ffffffff16565b90975095506108398660008b610b79565b95505050505050965096945050505050565b6000816000036108765760405162461bcd60e51b815260040161086d90612462565b60405180910390fd5b82600003610886575060006102f2565b600061089a670de0b6b3a764000085612413565b90506108a68382612440565b9150506102f2565b60408051808201909152600080825260208201528160e001518314806108db57506108d98284610c4f565b155b6102f257600082608001516001600160a01b0316637f1260d18460000151868151811061090a5761090a612076565b60200260200101516040518263ffffffff1660e01b815260040161093d91906001600160a01b0391909116815260200190565b608060405180830381865afa15801561095a573d6000803e3d6000fd5b505050506040513d601f19601f8201168201806040525081019061097e9190612489565b6020860192909252509083529050428110156101c857826020015184815181106109aa576109aa612076565b60200260200101516001600160a01b031663679aefce6040518163ffffffff1660e01b8152600401602060405180830381865afa1580156109ef573d6000803e3d6000fd5b505050506040513d601f19601f82011682018060405250810190610a1391906121f9565b82525092915050565b6000606060008060008087608001516001600160a01b0316633c975d516040518163ffffffff1660e01b81526004016040805180830381865afa158015610a67573d6000803e3d6000fd5b505050506040513d601f19601f82011682018060405250810190610a8b91906124bf565b915091506000806000610aa18c86868e8e610c8c565b92509250925060008b608001516001600160a01b0316636daccffa6040518163ffffffff1660e01b8152600401606060405180830381865afa158015610aeb573d6000803e3d6000fd5b505050506040513d601f19601f82011682018060405250810190610b0f91906124e3565b505090506000868214610b2b57610b268285610ce3565b610b2d565b825b949e939d50909b5092995090975050505050505050565b60006060610b5687878a8c8888610e90565b9150915097509795505050505050565b60006060610b5687878a8c898989610f93565b606083516001610b89919061251c565b6001600160401b03811115610ba057610ba0611d41565b604051908082528060200260200182016040528015610bc9578160200160208202803683370190505b50905060005b8151811015610580578260e001518114610c1e57848360e001518210610bff57610bfa60018361252f565b610c01565b815b81518110610c1157610c11612076565b6020026020010151610c20565b835b828281518110610c3257610c32612076565b602090810291909101015280610c47816120a2565b915050610bcf565b6000806001600160a01b031683602001518381518110610c7157610c71612076565b60200260200101516001600160a01b03161415905092915050565b600060606000806000610c9f878b611043565b91509150600080610cb3838c8c8c8c611083565b915091506000610cc385846111fa565b9050610ccf818661251c565b9d939c50909a509198505050505050505050565b80516000908190815b81811015610d2a57610d20858281518110610d0957610d09612076565b60200260200101518461121890919063ffffffff16565b9250600101610cec565b5081600003610d3e576000925050506102f2565b600082868302825b60ff811015610e3d578260005b86811015610d9a57610d90610d688387611224565b610d8b8c8481518110610d7d57610d7d612076565b60200260200101518a611224565b61124d565b9150600101610d53565b50839450610df3610dd2610dcc610db1848a611224565b610dc6610dbe888d611224565b6103e861124d565b90611218565b86611224565b610d8b610de28960010185611224565b610dc6610dbe6103e889038a611224565b935084841115610e1b57600185850311610e1657839750505050505050506102f2565b610e34565b600184860311610e3457839750505050505050506102f2565b50600101610d46565b5060405162461bcd60e51b815260206004820152602160248201527f537461626c6520496e76617269616e7420646964206e6f7420636f6e766572676044820152606560f81b606482015260840161086d565b60006060600080610ea086611273565b91509150600087516001600160401b03811115610ebf57610ebf611d41565b604051908082528060200260200182016040528015610ee8578160200160208202803683370190505b509050610f658883858e8e8b608001516001600160a01b03166355c676286040518163ffffffff1660e01b8152600401602060405180830381865afa158015610f35573d6000803e3d6000fd5b505050506040513d601f19601f82011682018060405250810190610f5991906121f9565b8f959493929190611295565b818381518110610f7757610f77612076565b6020908102919091010152919a91995090975050505050505050565b600060606000610fa2856113c9565b509050610fb881610fb386896113e1565b610588565b600061103288838d8d89608001516001600160a01b03166355c676286040518163ffffffff1660e01b8152600401602060405180830381865afa158015611003573d6000803e3d6000fd5b505050506040513d601f19601f8201168201806040525081019061102791906121f9565b8e94939291906114a7565b9b919a509098505050505050505050565b6000606061106e84848660e001518151811061106157611061612076565b602002602001015161178d565b61107885856113e1565b915091509250929050565b60008060008060006110978a8a89896117ff565b92509250925060008884116110ad5760006110b7565b6110b7898561252f565b905060008484116110c95760006110d3565b6110d3858561252f565b60808a0151604051633823200b60e11b8152600060048201819052929350611159916001600160a01b031690637046401690602401602060405180830381865afa158015611125573d6000803e3d6000fd5b505050506040513d601f19601f8201168201806040525081019061114991906121f9565b611153858761084b565b906107c3565b60808b0151604051633823200b60e11b8152600260048201529192506000916111da916001600160a01b031690637046401690602401602060405180830381865afa1580156111ac573d6000803e3d6000fd5b505050506040513d601f19601f820116820180604052508101906111d091906121f9565b611153858861084b565b90506111e6818361251c565b9e949d50939b505050505050505050505050565b60006107bc61120883611882565b61121285856107c3565b9061084b565b60006107bc828461251c565b60008282028315806112445750828482816112415761124161242a565b04145b6107bc57600080fd5b60008160000361125c57600080fd5b81838161126b5761126b61242a565b049392505050565b6000808280602001905181019061128a9190612542565b909590945092505050565b6000806112b6846112b0876112aa818b6118a8565b906118b4565b9061191a565b905060006112c68a8a848b61194e565b905060006112f6828b8b815181106112e0576112e0612076565b60200260200101516118a890919063ffffffff16565b90506000805b8b5181101561133b576113318c828151811061131a5761131a612076565b60200260200101518361121890919063ffffffff16565b91506001016112fc565b50600061136a828d8d8151811061135457611354612076565b602002602001015161084b90919063ffffffff16565b9050600061137782611882565b90506000611385858361191a565b9050600061139386836118a8565b90506113b46113ad83670de0b6b3a76400008d90036107c3565b8290611218565b98505050505050505050979650505050505050565b606060008280602001905181019061128a919061257d565b60606000600183516113f3919061252f565b6001600160401b0381111561140a5761140a611d41565b604051908082528060200260200182016040528015611433578160200160208202803683370190505b50905060005b815181101561058057838560e00151821061145e5761145982600161251c565b611460565b815b8151811061147057611470612076565b602002602001015182828151811061148a5761148a612076565b60209081029190910101528061149f816120a2565b915050611439565b600080805b87518110156114d4576114ca88828151811061131a5761131a612076565b91506001016114ac565b50600086516001600160401b038111156114f0576114f0611d41565b604051908082528060200260200182016040528015611519578160200160208202803683370190505b5090506000805b89518110156115ee576000611541858c848151811061135457611354612076565b90506115a58b838151811061155857611558612076565b60200260200101516112128c858151811061157557611575612076565b60200260200101518e868151811061158f5761158f612076565b602002602001015161121890919063ffffffff16565b8483815181106115b7576115b7612076565b6020026020010181815250506115e36115dc8286858151811061053d5761053d612076565b8490611218565b925050600101611520565b50600089516001600160401b0381111561160a5761160a611d41565b604051908082528060200260200182016040528015611633578160200160208202803683370190505b50905060005b8a5181101561172b5760008385838151811061165757611657612076565b602002602001015111156116d257600061168e61167c86670de0b6b3a76400006118a8565b8e858151811061053d5761053d612076565b905060006116a8828e86815181106112e0576112e0612076565b90506116c96116c282670de0b6b3a76400008d90036107c3565b8390611218565b925050506116ef565b8a82815181106116e4576116e4612076565b602002602001015190505b611705818d848151811061158f5761158f612076565b83838151811061171757611717612076565b602090810291909101015250600101611639565b5060006117388c83610ce3565b90506000611746828a61084b565b9050670de0b6b3a764000081111561177a5761176d8a670de0b6b3a763ffff1983016107c3565b965050505050505061008c565b5060009c9b505050505050505050505050565b60006107bc8284608001516001600160a01b03166318160ddd6040518163ffffffff1660e01b8152600401602060405180830381865afa1580156117d5573d6000803e3d6000fd5b505050506040513d601f19601f820116820180604052508101906117f991906121f9565b906118a8565b600080600061181b6118148860018888611b75565b8790610ce3565b92508460a001511561183b576118318688610ce3565b9150819050611878565b8460c0015115611859578291506118528688610ce3565b9050611878565b6118696118148860008888611b75565b91506118758688610ce3565b90505b9450945094915050565b6000670de0b6b3a7640000821061189a5760006102f2565b50670de0b6b3a76400000390565b60006107bc828461252f565b6000816000036118d65760405162461bcd60e51b815260040161086d90612462565b826000036118e6575060006102f2565b60006118fa670de0b6b3a764000085612413565b905082600182038161190e5761190e61242a565b046001019150506102f2565b6000806119278385612413565b90508060000361193b5760009150506102f2565b670de0b6b3a7640000600019820161190e565b60008084518602905060008560008151811061196c5761196c612076565b60200260200101519050600086518760008151811061198d5761198d612076565b60200260200101510290506000600190505b87518110156119ff576119de6119d86119d1848b85815181106119c4576119c4612076565b6020026020010151611224565b8a51611224565b8861124d565b91506119f5888281518110610d0957610d09612076565b925060010161199f565b50868581518110611a1257611a12612076565b6020026020010151820391506000611a2a8788611224565b90506000611a61611a4f611a4784611a428988611224565b611ca6565b6103e8611224565b8a89815181106119c4576119c4612076565b90506000611a7c611a75611a478b8961124d565b8690611218565b9050600080611a98611a8e8686611218565b611a428d86611218565b905060005b60ff811015611b1857819250611acd611aba86610dc68586611224565b611a428e6117f988610dc6886002611224565b915082821115611af657600183830311611af157509750611b6d9650505050505050565b611b10565b600182840311611b1057509750611b6d9650505050505050565b600101611a9d565b5060405162461bcd60e51b815260206004820152602360248201527f537461626c65206765742062616c616e636520646964206e6f7420636f6e766560448201526272676560e81b606482015260840161086d565b949350505050565b83516060906000816001600160401b03811115611b9457611b94611d41565b604051908082528060200260200182016040528015611bbd578160200160208202803683370190505b50905060005b82811015611c9b5760008660e00151821015611bdf5781611bea565b611bea82600161251c565b9050611bf68782611ce2565b80611c0e5750878015611c0e5750611c0e8782610c4f565b611c3157888281518110611c2457611c24612076565b6020026020010151611c6d565b611c6d898381518110611c4657611c46612076565b6020026020010151878381518110611c6057611c60612076565b6020026020010151611d0a565b838381518110611c7f57611c7f612076565b602090810291909101015250611c94816120a2565b9050611bc3565b509695505050505050565b600081600003611cb557600080fd5b82600003611cc5575060006102f2565b816001840381611cd757611cd761242a565b0460010190506102f2565b600082606001518281518110611cfa57611cfa612076565b6020026020010151905092915050565b80516020820151600091906107d89085612413565b611d276125c9565b565b6001600160a01b0381168114611d3e57600080fd5b50565b634e487b7160e01b600052604160045260246000fd5b604051608081016001600160401b0381118282101715611d7957611d79611d41565b60405290565b60405161012081016001600160401b0381118282101715611d7957611d79611d41565b604051601f8201601f191681016001600160401b0381118282101715611dca57611dca611d41565b604052919050565b60006001600160401b03821115611deb57611deb611d41565b5060051b60200190565b600082601f830112611e0657600080fd5b81356020611e1b611e1683611dd2565b611da2565b82815260059290921b84018101918181019086841115611e3a57600080fd5b8286015b84811015611c9b5780358352918301918301611e3e565b600082601f830112611e6657600080fd5b81356001600160401b03811115611e7f57611e7f611d41565b611e92601f8201601f1916602001611da2565b818152846020838601011115611ea757600080fd5b816020850160208301376000918101602001919091529392505050565b8015158114611d3e57600080fd5b8035611edd81611ec4565b919050565b600060808284031215611ef457600080fd5b611efc611d57565b905081356001600160401b0380821115611f1557600080fd5b818401915084601f830112611f2957600080fd5b81356020611f39611e1683611dd2565b82815260059290921b84018101918181019088841115611f5857600080fd5b948201945b83861015611f7f578535611f7081611d29565b82529482019490820190611f5d565b86525085810135935082841115611f9557600080fd5b611fa187858801611df5565b90850152506040840135915080821115611fba57600080fd5b50611fc784828501611e55565b604083015250611fd960608301611ed2565b606082015292915050565b600080600080600060a08688031215611ffc57600080fd5b85359450602086013561200e81611d29565b9350604086013561201e81611d29565b925060608601356001600160401b038082111561203a57600080fd5b61204689838a01611ee2565b9350608088013591508082111561205c57600080fd5b5061206988828901611e55565b9150509295509295909350565b634e487b7160e01b600052603260045260246000fd5b634e487b7160e01b600052601160045260246000fd5b6000600182016120b4576120b461208c565b5060010190565b600082601f8301126120cc57600080fd5b815160206120dc611e1683611dd2565b82815260059290921b840181019181810190868411156120fb57600080fd5b8286015b84811015611c9b57805183529183019183016120ff565b60008060006060848603121561212b57600080fd5b83516001600160401b038082111561214257600080fd5b818601915086601f83011261215657600080fd5b81516020612166611e1683611dd2565b82815260059290921b8401810191818101908a84111561218557600080fd5b948201945b838610156121ac57855161219d81611d29565b8252948201949082019061218a565b918901519197509093505050808211156121c557600080fd5b506121d2868287016120bb565b925050604084015190509250925092565b634e487b7160e01b600052602160045260246000fd5b60006020828403121561220b57600080fd5b5051919050565b8051611edd81611d29565b600082601f83011261222e57600080fd5b8151602061223e611e1683611dd2565b82815260059290921b8401810191818101908684111561225d57600080fd5b8286015b84811015611c9b57805161227481611d29565b8352918301918301612261565b8051611edd81611ec4565b600082601f83011261229d57600080fd5b815160206122ad611e1683611dd2565b82815260059290921b840181019181810190868411156122cc57600080fd5b8286015b84811015611c9b5780516122e381611ec4565b83529183019183016122d0565b60006020828403121561230257600080fd5b81516001600160401b038082111561231957600080fd5b90830190610120828603121561232e57600080fd5b612336611d7f565b82518281111561234557600080fd5b6123518782860161221d565b82525060208301518281111561236657600080fd5b6123728782860161221d565b60208301525060408301518281111561238a57600080fd5b612396878286016120bb565b6040830152506060830151828111156123ae57600080fd5b6123ba8782860161228c565b6060830152506123cc60808401612212565b60808201526123dd60a08401612281565b60a08201526123ee60c08401612281565b60c082015260e083810151908201526101009283015192810192909252509392505050565b80820281158282048414176102f2576102f261208c565b634e487b7160e01b600052601260045260246000fd5b60008261245d57634e487b7160e01b600052601260045260246000fd5b500490565b6020808252600d908201526c2d32b937903234bb34b9b4b7b760991b604082015260600190565b6000806000806080858703121561249f57600080fd5b505082516020840151604085015160609095015191969095509092509050565b600080604083850312156124d257600080fd5b505080516020909101519092909150565b6000806000606084860312156124f857600080fd5b83519250602084015161250a81611ec4565b80925050604084015190509250925092565b808201808211156102f2576102f261208c565b818103818111156102f2576102f261208c565b60008060006060848603121561255757600080fd5b83516002811061256657600080fd5b602085015160409095015190969495509392505050565b60008060006060848603121561259257600080fd5b8351600381106125a157600080fd5b60208501519093506001600160401b038111156125bd57600080fd5b6121d2868287016120bb565b634e487b7160e01b600052605160045260246000fdfea2646970667358221220aaeace29dfa23275a4dfac9f7064939108c975c877373c67dc7b12a93a13e77d64736f6c63430008110033",
  "devdoc": {
    "kind": "dev",
    "methods": {},
    "version": 1
  },
  "userdoc": {
    "kind": "user",
    "methods": {},
    "notice": "from https://github.com/pendle-finance/pendle-core-v2-public/blob/e0b8164f8837df85dd1f9cf2f5d9752c8fc5f704/contracts/core/StandardizedYield/implementations/BalancerStable/base/ComposableStable/ComposableStablePreview.sol",
    "version": 1
  },
  "storageLayout": {
    "storage": [],
    "types": null
  }
}