{
  "address": "0x1B8Bb8ce576d9FD9865f47F92dac9A6D21713E1C",
  "abi": [
    {
      "inputs": [
        {
          "internalType": "contract ERC20[]",
          "name": "_rewards",
          "type": "address[]"
        }
      ],
      "stateMutability": "nonpayable",
      "type": "constructor"
    },
    {
      "inputs": [],
      "name": "AlreadyClaimed",
      "type": "error"
    },
    {
      "inputs": [],
      "name": "ProofInvalidOrExpired",
      "type": "error"
    },
    {
      "anonymous": false,
      "inputs": [
        {
          "indexed": true,
          "internalType": "address",
          "name": "previousOwner",
          "type": "address"
        },
        {
          "indexed": true,
          "internalType": "address",
          "name": "newOwner",
          "type": "address"
        }
      ],
      "name": "OwnershipTransferred",
      "type": "event"
    },
    {
      "anonymous": false,
      "inputs": [
        {
          "indexed": false,
          "internalType": "contract ERC20",
          "name": "reward",
          "type": "address"
        },
        {
          "indexed": false,
          "internalType": "address",
          "name": "account",
          "type": "address"
        },
        {
          "indexed": false,
          "internalType": "uint256",
          "name": "amount",
          "type": "uint256"
        }
      ],
      "name": "RewardsClaimed",
      "type": "event"
    },
    {
      "anonymous": false,
      "inputs": [
        {
          "indexed": false,
          "internalType": "contract ERC20",
          "name": "reward",
          "type": "address"
        },
        {
          "indexed": false,
          "internalType": "address",
          "name": "to",
          "type": "address"
        },
        {
          "indexed": false,
          "internalType": "uint256",
          "name": "amount",
          "type": "uint256"
        }
      ],
      "name": "RewardsWithdrawn",
      "type": "event"
    },
    {
      "anonymous": false,
      "inputs": [
        {
          "indexed": false,
          "internalType": "contract ERC20",
          "name": "reward",
          "type": "address"
        },
        {
          "indexed": false,
          "internalType": "bytes32",
          "name": "newRoot",
          "type": "bytes32"
        }
      ],
      "name": "RootUpdated",
      "type": "event"
    },
    {
      "inputs": [
        {
          "internalType": "contract ERC20",
          "name": "_reward",
          "type": "address"
        },
        {
          "internalType": "address",
          "name": "_account",
          "type": "address"
        },
        {
          "internalType": "uint256",
          "name": "_claimable",
          "type": "uint256"
        },
        {
          "internalType": "bytes32[]",
          "name": "_proof",
          "type": "bytes32[]"
        }
      ],
      "name": "claim",
      "outputs": [],
      "stateMutability": "nonpayable",
      "type": "function"
    },
    {
      "inputs": [
        {
          "internalType": "contract ERC20",
          "name": "",
          "type": "address"
        }
      ],
      "name": "nodes",
      "outputs": [
        {
          "internalType": "bytes32",
          "name": "currRoot",
          "type": "bytes32"
        },
        {
          "internalType": "bytes32",
          "name": "prevRoot",
          "type": "bytes32"
        }
      ],
      "stateMutability": "view",
      "type": "function"
    },
    {
      "inputs": [],
      "name": "owner",
      "outputs": [
        {
          "internalType": "address",
          "name": "",
          "type": "address"
        }
      ],
      "stateMutability": "view",
      "type": "function"
    },
    {
      "inputs": [],
      "name": "renounceOwnership",
      "outputs": [],
      "stateMutability": "nonpayable",
      "type": "function"
    },
    {
      "inputs": [
        {
          "internalType": "uint256",
          "name": "",
          "type": "uint256"
        }
      ],
      "name": "rewards",
      "outputs": [
        {
          "internalType": "contract ERC20",
          "name": "",
          "type": "address"
        }
      ],
      "stateMutability": "view",
      "type": "function"
    },
    {
      "inputs": [
        {
          "internalType": "address",
          "name": "newOwner",
          "type": "address"
        }
      ],
      "name": "transferOwnership",
      "outputs": [],
      "stateMutability": "nonpayable",
      "type": "function"
    },
    {
      "inputs": [
        {
          "internalType": "contract ERC20",
          "name": "_reward",
          "type": "address"
        },
        {
          "internalType": "bytes32",
          "name": "_newRoot",
          "type": "bytes32"
        }
      ],
      "name": "updateRoot",
      "outputs": [],
      "stateMutability": "nonpayable",
      "type": "function"
    },
    {
      "inputs": [
        {
          "internalType": "address",
          "name": "_to",
          "type": "address"
        },
        {
          "internalType": "uint256[]",
          "name": "_amounts",
          "type": "uint256[]"
        }
      ],
      "name": "withdrawTokens",
      "outputs": [],
      "stateMutability": "nonpayable",
      "type": "function"
    }
  ],
  "transactionHash": "0x2062f9905ed3e0b6b699a485e2f0cae9952640eb7cfb92568fc047fdf6664dae",
  "args": [
    [
      "0xC0c293ce456fF0ED870ADd98a0828Dd4d2903DBF",
      "0xba100000625a3754423978a60c9317c58a424e3D"
    ]
  ],
  "numDeployments": 1,
  "solcInputHash": "31d1c4ad1a16c7c23255475a9a8f2b21",
  "bytecode": "0x60806040523480156200001157600080fd5b5060405162000ba338038062000ba3833981016040819052620000349162000160565b6200003f336200005c565b805162000054906002906020840190620000ac565b505062000232565b600080546001600160a01b038381166001600160a01b0319831681178455604051919092169283917f8be0079c531659141344cd1fd0a4f28419497f9722a3daafe3b4186f6b6457e09190a35050565b82805482825590600052602060002090810192821562000104579160200282015b828111156200010457825182546001600160a01b0319166001600160a01b03909116178255602090920191600190910190620000cd565b506200011292915062000116565b5090565b5b8082111562000112576000815560010162000117565b634e487b7160e01b600052604160045260246000fd5b80516001600160a01b03811681146200015b57600080fd5b919050565b600060208083850312156200017457600080fd5b82516001600160401b03808211156200018c57600080fd5b818501915085601f830112620001a157600080fd5b815181811115620001b657620001b66200012d565b8060051b604051601f19603f83011681018181108582111715620001de57620001de6200012d565b604052918252848201925083810185019188831115620001fd57600080fd5b938501935b828510156200022657620002168562000143565b8452938501939285019262000202565b98975050505050505050565b61096180620002426000396000f3fe608060405234801561001057600080fd5b50600436106100785760003560e01c8063189a5a171461007d578063715018a6146100be5780638da5cb5b146100c8578063bc6cc417146100ed578063d731fff014610100578063f2fde38b14610113578063f301af4214610126578063fabed41214610139575b600080fd5b6100a461008b36600461073b565b6001602081905260009182526040909120805491015482565b604080519283526020830191909152015b60405180910390f35b6100c661014c565b005b6000546001600160a01b03165b6040516001600160a01b0390911681526020016100b5565b6100c66100fb366004610758565b610160565b6100c661010e3660046107d0565b6101ca565b6100c661012136600461073b565b61031b565b6100d5610134366004610825565b610399565b6100c661014736600461083e565b6103c3565b61015461057f565b61015e60006105d9565b565b61016861057f565b6001600160a01b03821660008181526001602081815260409283902080549281019290925590849055815192835282018390527f0b294da292f26e55fd442b5c0164fbb9013036ff00c5cfdde0efd01c1baaf632910160405180910390a15050565b6101d261057f565b60005b600254811015610315576000600282815481106101f4576101f46108b1565b60009182526020822001546040516370a0823160e01b81523060048201526001600160a01b03909116925082906370a0823190602401602060405180830381865afa158015610247573d6000803e3d6000fd5b505050506040513d601f19601f8201168201806040525081019061026b91906108c7565b90506000858585818110610281576102816108b1565b9050602002013582106102ac578585858181106102a0576102a06108b1565b905060200201356102ae565b815b90506102c46001600160a01b0384168883610629565b7fd01566b65da2d62cb66f3844588c99d9a95b38394ccdc9c3f7604536e653cf1b8388836040516102f7939291906108e0565b60405180910390a1505050808061030d90610904565b9150506101d5565b50505050565b61032361057f565b6001600160a01b03811661038d5760405162461bcd60e51b815260206004820152602660248201527f4f776e61626c653a206e6577206f776e657220697320746865207a65726f206160448201526564647265737360d01b60648201526084015b60405180910390fd5b610396816105d9565b50565b600281815481106103a957600080fd5b6000918252602090912001546001600160a01b0316905081565b600061044d838380806020026020016040519081016040528093929190818152602001838360200280828437600092019190915250506040516bffffffffffffffffffffffff1960608c811b821660208401528b901b1660348201526048810189905260680191506104329050565b604051602081830303815290604052805190602001206106a7565b6001600160a01b038716600090815260016020526040902054909150811480159061049457506001600160a01b038616600090815260016020819052604090912001548114155b156104b25760405163f542095760e01b815260040160405180910390fd5b6001600160a01b03808716600090815260016020908152604080832093891683526002909301905220548085116104fc57604051630c8d9eab60e31b815260040160405180910390fd5b6001600160a01b038088166000818152600160209081526040808320948b16835260029094019052919091208690558186039061053a908883610629565b7f9310ccfcb8de723f578a9e4282ea9f521f05ae40dc08f3068dfad528a65ee3c788888360405161056d939291906108e0565b60405180910390a15050505050505050565b6000546001600160a01b0316331461015e5760405162461bcd60e51b815260206004820181905260248201527f4f776e61626c653a2063616c6c6572206973206e6f7420746865206f776e65726044820152606401610384565b600080546001600160a01b038381166001600160a01b0319831681178455604051919092169283917f8be0079c531659141344cd1fd0a4f28419497f9722a3daafe3b4186f6b6457e09190a35050565b600060405163a9059cbb60e01b6000528360045282602452602060006044600080895af13d15601f3d11600160005114161716915060006060528060405250806103155760405162461bcd60e51b815260206004820152600f60248201526e1514905394d1915497d19052531151608a1b6044820152606401610384565b600081815b84518110156106ec576106d8828683815181106106cb576106cb6108b1565b60200260200101516106f4565b9150806106e481610904565b9150506106ac565b509392505050565b600081831061071057600082815260208490526040902061071f565b60008381526020839052604090205b9392505050565b6001600160a01b038116811461039657600080fd5b60006020828403121561074d57600080fd5b813561071f81610726565b6000806040838503121561076b57600080fd5b823561077681610726565b946020939093013593505050565b60008083601f84011261079657600080fd5b50813567ffffffffffffffff8111156107ae57600080fd5b6020830191508360208260051b85010111156107c957600080fd5b9250929050565b6000806000604084860312156107e557600080fd5b83356107f081610726565b9250602084013567ffffffffffffffff81111561080c57600080fd5b61081886828701610784565b9497909650939450505050565b60006020828403121561083757600080fd5b5035919050565b60008060008060006080868803121561085657600080fd5b853561086181610726565b9450602086013561087181610726565b935060408601359250606086013567ffffffffffffffff81111561089457600080fd5b6108a088828901610784565b969995985093965092949392505050565b634e487b7160e01b600052603260045260246000fd5b6000602082840312156108d957600080fd5b5051919050565b6001600160a01b039384168152919092166020820152604081019190915260600190565b60006001820161092457634e487b7160e01b600052601160045260246000fd5b506001019056fea264697066735822122045c145824346260b676f665c80c39e55f3cc13ab5a7419efb58d0fe1875a3ee864736f6c634300080f0033",
  "devdoc": {
    "author": "Sense Finance.",
    "events": {
      "RewardsClaimed(address,address,uint256)": {
        "params": {
          "account": "The address of the claimer.",
          "amount": "The amount of rewards claimed.",
          "reward": "The address of the reward token."
        }
      },
      "RewardsWithdrawn(address,address,uint256)": {
        "params": {
          "amount": "The amount of reward tokens withdrawn.",
          "reward": "The address of the reward token.",
          "to": "The address of the recipient."
        }
      },
      "RootUpdated(address,bytes32)": {
        "params": {
          "newRoot": "The new merkle's tree root."
        }
      }
    },
    "kind": "dev",
    "methods": {
      "claim(address,address,uint256,bytes32[])": {
        "params": {
          "_account": "The address of the claimer.",
          "_claimable": "The overall claimable amount of token rewards.",
          "_proof": "The merkle proof that validates this claim."
        }
      },
      "constructor": {
        "params": {
          "_rewards": "The address of the MORPHO token to distribute."
        }
      },
      "owner()": {
        "details": "Returns the address of the current owner."
      },
      "renounceOwnership()": {
        "details": "Leaves the contract without owner. It will not be possible to call `onlyOwner` functions anymore. Can only be called by the current owner. NOTE: Renouncing ownership will leave the contract without an owner, thereby removing any functionality that is only available to the owner."
      },
      "transferOwnership(address)": {
        "details": "Transfers ownership of the contract to a new account (`newOwner`). Can only be called by the current owner."
      },
      "updateRoot(address,bytes32)": {
        "params": {
          "_newRoot": "The new merkle tree's root."
        }
      },
      "withdrawTokens(address,uint256[])": {
        "params": {
          "_amounts": "The amounts for each reward token to transfer.",
          "_to": "The address of the recipient."
        }
      }
    },
    "title": "Sense Multi Rewards Distributor.",
    "version": 1
  },
  "userdoc": {
    "errors": {
      "AlreadyClaimed()": [
        {
          "notice": "Thrown when the claimer has already claimed the rewards."
        }
      ],
      "ProofInvalidOrExpired()": [
        {
          "notice": "Thrown when the proof is invalid or expired."
        }
      ]
    },
    "events": {
      "RewardsClaimed(address,address,uint256)": {
        "notice": "Emitted when an account claims rewards."
      },
      "RewardsWithdrawn(address,address,uint256)": {
        "notice": "Emitted when reward tokens are withdrawn."
      },
      "RootUpdated(address,bytes32)": {
        "notice": "Emitted when the root is updated."
      }
    },
    "kind": "user",
    "methods": {
      "claim(address,address,uint256,bytes32[])": {
        "notice": "Claims rewards."
      },
      "constructor": {
        "notice": "Constructs Morpho's RewardsDistributor contract."
      },
      "updateRoot(address,bytes32)": {
        "notice": "Updates the current merkle tree's root."
      },
      "withdrawTokens(address,uint256[])": {
        "notice": "Withdraws reward tokens to a recipient."
      }
    },
    "notice": "This contract allows users to claim their rewards. This contract is largely inspired by Morpho's Reward Distributor contract: https://github.com/morpho-dao/morpho-v1/blob/main/src/common/rewards-distribution/RewardsDistributor.sol. and modified to allow multiple rewards tokens.",
    "version": 1
  },
  "storageLayout": {
    "storage": [
      {
        "astId": 7,
        "contract": "@sense-finance/v1-core/src/external/MultiRewardsDistributor.sol:MultiRewardsDistributor",
        "label": "_owner",
        "offset": 0,
        "slot": "0",
        "type": "t_address"
      },
      {
        "astId": 19192,
        "contract": "@sense-finance/v1-core/src/external/MultiRewardsDistributor.sol:MultiRewardsDistributor",
        "label": "nodes",
        "offset": 0,
        "slot": "1",
        "type": "t_mapping(t_contract(ERC20)41573,t_struct(Node)19186_storage)"
      },
      {
        "astId": 19196,
        "contract": "@sense-finance/v1-core/src/external/MultiRewardsDistributor.sol:MultiRewardsDistributor",
        "label": "rewards",
        "offset": 0,
        "slot": "2",
        "type": "t_array(t_contract(ERC20)41573)dyn_storage"
      }
    ],
    "types": {
      "t_address": {
        "encoding": "inplace",
        "label": "address",
        "numberOfBytes": "20"
      },
      "t_array(t_contract(ERC20)41573)dyn_storage": {
        "base": "t_contract(ERC20)41573",
        "encoding": "dynamic_array",
        "label": "contract ERC20[]",
        "numberOfBytes": "32"
      },
      "t_bytes32": {
        "encoding": "inplace",
        "label": "bytes32",
        "numberOfBytes": "32"
      },
      "t_contract(ERC20)41573": {
        "encoding": "inplace",
        "label": "contract ERC20",
        "numberOfBytes": "20"
      },
      "t_mapping(t_address,t_uint256)": {
        "encoding": "mapping",
        "key": "t_address",
        "label": "mapping(address => uint256)",
        "numberOfBytes": "32",
        "value": "t_uint256"
      },
      "t_mapping(t_contract(ERC20)41573,t_struct(Node)19186_storage)": {
        "encoding": "mapping",
        "key": "t_contract(ERC20)41573",
        "label": "mapping(contract ERC20 => struct MultiRewardsDistributor.Node)",
        "numberOfBytes": "32",
        "value": "t_struct(Node)19186_storage"
      },
      "t_struct(Node)19186_storage": {
        "encoding": "inplace",
        "label": "struct MultiRewardsDistributor.Node",
        "members": [
          {
            "astId": 19179,
            "contract": "@sense-finance/v1-core/src/external/MultiRewardsDistributor.sol:MultiRewardsDistributor",
            "label": "currRoot",
            "offset": 0,
            "slot": "0",
            "type": "t_bytes32"
          },
          {
            "astId": 19181,
            "contract": "@sense-finance/v1-core/src/external/MultiRewardsDistributor.sol:MultiRewardsDistributor",
            "label": "prevRoot",
            "offset": 0,
            "slot": "1",
            "type": "t_bytes32"
          },
          {
            "astId": 19185,
            "contract": "@sense-finance/v1-core/src/external/MultiRewardsDistributor.sol:MultiRewardsDistributor",
            "label": "claimed",
            "offset": 0,
            "slot": "2",
            "type": "t_mapping(t_address,t_uint256)"
          }
        ],
        "numberOfBytes": "96"
      },
      "t_uint256": {
        "encoding": "inplace",
        "label": "uint256",
        "numberOfBytes": "32"
      }
    }
  }
}