{
  "address": "0x58b78221fE4A8aA5B02A4538A145a5C6Da3AFE0f",
  "abi": [
    {
      "inputs": [
        {
          "internalType": "address",
          "name": "_divider",
          "type": "address"
        },
        {
          "internalType": "address",
          "name": "_target",
          "type": "address"
        },
        {
          "internalType": "address",
          "name": "_rewardsRecipient",
          "type": "address"
        },
        {
          "internalType": "uint128",
          "name": "_ifee",
          "type": "uint128"
        },
        {
          "components": [
            {
              "internalType": "address",
              "name": "oracle",
              "type": "address"
            },
            {
              "internalType": "address",
              "name": "stake",
              "type": "address"
            },
            {
              "internalType": "uint256",
              "name": "stakeSize",
              "type": "uint256"
            },
            {
              "internalType": "uint256",
              "name": "minm",
              "type": "uint256"
            },
            {
              "internalType": "uint256",
              "name": "maxm",
              "type": "uint256"
            },
            {
              "internalType": "uint64",
              "name": "tilt",
              "type": "uint64"
            },
            {
              "internalType": "uint48",
              "name": "level",
              "type": "uint48"
            },
            {
              "internalType": "uint16",
              "name": "mode",
              "type": "uint16"
            }
          ],
          "internalType": "struct BaseAdapter.AdapterParams",
          "name": "_adapterParams",
          "type": "tuple"
        },
        {
          "internalType": "address[]",
          "name": "_rewardTokens",
          "type": "address[]"
        }
      ],
      "stateMutability": "nonpayable",
      "type": "constructor"
    },
    {
      "inputs": [],
      "name": "FlashCallbackFailed",
      "type": "error"
    },
    {
      "inputs": [],
      "name": "OnlyPeriphery",
      "type": "error"
    },
    {
      "inputs": [],
      "name": "TokenNotSupported",
      "type": "error"
    },
    {
      "anonymous": false,
      "inputs": [
        {
          "indexed": true,
          "internalType": "address",
          "name": "claimer",
          "type": "address"
        }
      ],
      "name": "ClaimerChanged",
      "type": "event"
    },
    {
      "anonymous": false,
      "inputs": [
        {
          "indexed": true,
          "internalType": "address",
          "name": "usr",
          "type": "address"
        },
        {
          "indexed": true,
          "internalType": "address",
          "name": "token",
          "type": "address"
        },
        {
          "indexed": false,
          "internalType": "uint256",
          "name": "amount",
          "type": "uint256"
        }
      ],
      "name": "Distributed",
      "type": "event"
    },
    {
      "anonymous": false,
      "inputs": [
        {
          "indexed": true,
          "internalType": "address",
          "name": "usr",
          "type": "address"
        },
        {
          "indexed": false,
          "internalType": "uint256",
          "name": "tBal",
          "type": "uint256"
        },
        {
          "indexed": false,
          "internalType": "uint256",
          "name": "maturity",
          "type": "uint256"
        }
      ],
      "name": "Reconciled",
      "type": "event"
    },
    {
      "anonymous": false,
      "inputs": [
        {
          "indexed": true,
          "internalType": "address[]",
          "name": "rewardTokens",
          "type": "address[]"
        }
      ],
      "name": "RewardTokensChanged",
      "type": "event"
    },
    {
      "anonymous": false,
      "inputs": [
        {
          "indexed": true,
          "internalType": "address",
          "name": "token",
          "type": "address"
        },
        {
          "indexed": true,
          "internalType": "address",
          "name": "recipient",
          "type": "address"
        },
        {
          "indexed": true,
          "internalType": "uint256",
          "name": "amount",
          "type": "uint256"
        }
      ],
      "name": "RewardsClaimed",
      "type": "event"
    },
    {
      "anonymous": false,
      "inputs": [
        {
          "indexed": true,
          "internalType": "address",
          "name": "oldRecipient",
          "type": "address"
        },
        {
          "indexed": true,
          "internalType": "address",
          "name": "newRecipient",
          "type": "address"
        }
      ],
      "name": "RewardsRecipientChanged",
      "type": "event"
    },
    {
      "anonymous": false,
      "inputs": [
        {
          "indexed": true,
          "internalType": "address",
          "name": "user",
          "type": "address"
        },
        {
          "indexed": false,
          "internalType": "bool",
          "name": "trusted",
          "type": "bool"
        }
      ],
      "name": "UserTrustUpdated",
      "type": "event"
    },
    {
      "inputs": [],
      "name": "CALLBACK_SUCCESS",
      "outputs": [
        {
          "internalType": "bytes32",
          "name": "",
          "type": "bytes32"
        }
      ],
      "stateMutability": "view",
      "type": "function"
    },
    {
      "inputs": [],
      "name": "adapterParams",
      "outputs": [
        {
          "internalType": "address",
          "name": "oracle",
          "type": "address"
        },
        {
          "internalType": "address",
          "name": "stake",
          "type": "address"
        },
        {
          "internalType": "uint256",
          "name": "stakeSize",
          "type": "uint256"
        },
        {
          "internalType": "uint256",
          "name": "minm",
          "type": "uint256"
        },
        {
          "internalType": "uint256",
          "name": "maxm",
          "type": "uint256"
        },
        {
          "internalType": "uint64",
          "name": "tilt",
          "type": "uint64"
        },
        {
          "internalType": "uint48",
          "name": "level",
          "type": "uint48"
        },
        {
          "internalType": "uint16",
          "name": "mode",
          "type": "uint16"
        }
      ],
      "stateMutability": "view",
      "type": "function"
    },
    {
      "inputs": [],
      "name": "claimer",
      "outputs": [
        {
          "internalType": "address",
          "name": "",
          "type": "address"
        }
      ],
      "stateMutability": "view",
      "type": "function"
    },
    {
      "inputs": [
        {
          "internalType": "address",
          "name": "",
          "type": "address"
        }
      ],
      "name": "data",
      "outputs": [
        {
          "internalType": "uint256",
          "name": "shares",
          "type": "uint256"
        },
        {
          "internalType": "uint256",
          "name": "rewardBal",
          "type": "uint256"
        }
      ],
      "stateMutability": "view",
      "type": "function"
    },
    {
      "inputs": [],
      "name": "divider",
      "outputs": [
        {
          "internalType": "address",
          "name": "",
          "type": "address"
        }
      ],
      "stateMutability": "view",
      "type": "function"
    },
    {
      "inputs": [
        {
          "internalType": "address",
          "name": "token",
          "type": "address"
        }
      ],
      "name": "extractToken",
      "outputs": [],
      "stateMutability": "nonpayable",
      "type": "function"
    },
    {
      "inputs": [
        {
          "internalType": "address",
          "name": "token",
          "type": "address"
        },
        {
          "internalType": "uint256",
          "name": "",
          "type": "uint256"
        }
      ],
      "name": "flashFee",
      "outputs": [
        {
          "internalType": "uint256",
          "name": "",
          "type": "uint256"
        }
      ],
      "stateMutability": "view",
      "type": "function"
    },
    {
      "inputs": [
        {
          "internalType": "contract IERC3156FlashBorrower",
          "name": "receiver",
          "type": "address"
        },
        {
          "internalType": "address",
          "name": "",
          "type": "address"
        },
        {
          "internalType": "uint256",
          "name": "amount",
          "type": "uint256"
        },
        {
          "internalType": "bytes",
          "name": "data",
          "type": "bytes"
        }
      ],
      "name": "flashLoan",
      "outputs": [
        {
          "internalType": "bool",
          "name": "",
          "type": "bool"
        }
      ],
      "stateMutability": "nonpayable",
      "type": "function"
    },
    {
      "inputs": [],
      "name": "getMaturityBounds",
      "outputs": [
        {
          "internalType": "uint256",
          "name": "",
          "type": "uint256"
        },
        {
          "internalType": "uint256",
          "name": "",
          "type": "uint256"
        }
      ],
      "stateMutability": "view",
      "type": "function"
    },
    {
      "inputs": [],
      "name": "getStakeAndTarget",
      "outputs": [
        {
          "internalType": "address",
          "name": "",
          "type": "address"
        },
        {
          "internalType": "address",
          "name": "",
          "type": "address"
        },
        {
          "internalType": "uint256",
          "name": "",
          "type": "uint256"
        }
      ],
      "stateMutability": "view",
      "type": "function"
    },
    {
      "inputs": [],
      "name": "getUnderlyingPrice",
      "outputs": [
        {
          "internalType": "uint256",
          "name": "price",
          "type": "uint256"
        }
      ],
      "stateMutability": "view",
      "type": "function"
    },
    {
      "inputs": [],
      "name": "ifee",
      "outputs": [
        {
          "internalType": "uint128",
          "name": "",
          "type": "uint128"
        }
      ],
      "stateMutability": "view",
      "type": "function"
    },
    {
      "inputs": [
        {
          "internalType": "address",
          "name": "",
          "type": "address"
        }
      ],
      "name": "isTrusted",
      "outputs": [
        {
          "internalType": "bool",
          "name": "",
          "type": "bool"
        }
      ],
      "stateMutability": "view",
      "type": "function"
    },
    {
      "inputs": [],
      "name": "level",
      "outputs": [
        {
          "internalType": "uint256",
          "name": "",
          "type": "uint256"
        }
      ],
      "stateMutability": "view",
      "type": "function"
    },
    {
      "inputs": [
        {
          "internalType": "address",
          "name": "token",
          "type": "address"
        }
      ],
      "name": "maxFlashLoan",
      "outputs": [
        {
          "internalType": "uint256",
          "name": "",
          "type": "uint256"
        }
      ],
      "stateMutability": "view",
      "type": "function"
    },
    {
      "inputs": [],
      "name": "mode",
      "outputs": [
        {
          "internalType": "uint256",
          "name": "",
          "type": "uint256"
        }
      ],
      "stateMutability": "view",
      "type": "function"
    },
    {
      "inputs": [],
      "name": "name",
      "outputs": [
        {
          "internalType": "string",
          "name": "",
          "type": "string"
        }
      ],
      "stateMutability": "view",
      "type": "function"
    },
    {
      "inputs": [
        {
          "internalType": "address",
          "name": "_usr",
          "type": "address"
        },
        {
          "internalType": "uint256",
          "name": "amt",
          "type": "uint256"
        },
        {
          "internalType": "bool",
          "name": "join",
          "type": "bool"
        }
      ],
      "name": "notify",
      "outputs": [],
      "stateMutability": "nonpayable",
      "type": "function"
    },
    {
      "inputs": [
        {
          "internalType": "uint256",
          "name": "",
          "type": "uint256"
        },
        {
          "internalType": "uint256",
          "name": "",
          "type": "uint256"
        },
        {
          "internalType": "uint256",
          "name": "",
          "type": "uint256"
        },
        {
          "internalType": "uint256",
          "name": "",
          "type": "uint256"
        }
      ],
      "name": "onRedeem",
      "outputs": [],
      "stateMutability": "nonpayable",
      "type": "function"
    },
    {
      "inputs": [],
      "name": "openSponsorWindow",
      "outputs": [],
      "stateMutability": "nonpayable",
      "type": "function"
    },
    {
      "inputs": [
        {
          "internalType": "address[]",
          "name": "_usrs",
          "type": "address[]"
        },
        {
          "internalType": "uint256[]",
          "name": "_maturities",
          "type": "uint256[]"
        }
      ],
      "name": "reconcile",
      "outputs": [],
      "stateMutability": "nonpayable",
      "type": "function"
    },
    {
      "inputs": [
        {
          "internalType": "address",
          "name": "",
          "type": "address"
        },
        {
          "internalType": "uint256",
          "name": "",
          "type": "uint256"
        }
      ],
      "name": "reconciled",
      "outputs": [
        {
          "internalType": "bool",
          "name": "",
          "type": "bool"
        }
      ],
      "stateMutability": "view",
      "type": "function"
    },
    {
      "inputs": [
        {
          "internalType": "address",
          "name": "",
          "type": "address"
        }
      ],
      "name": "reconciledAmt",
      "outputs": [
        {
          "internalType": "uint256",
          "name": "",
          "type": "uint256"
        }
      ],
      "stateMutability": "view",
      "type": "function"
    },
    {
      "inputs": [
        {
          "internalType": "uint256",
          "name": "",
          "type": "uint256"
        }
      ],
      "name": "rewardTokens",
      "outputs": [
        {
          "internalType": "address",
          "name": "",
          "type": "address"
        }
      ],
      "stateMutability": "view",
      "type": "function"
    },
    {
      "inputs": [],
      "name": "rewardsRecipient",
      "outputs": [
        {
          "internalType": "address",
          "name": "",
          "type": "address"
        }
      ],
      "stateMutability": "view",
      "type": "function"
    },
    {
      "inputs": [],
      "name": "scale",
      "outputs": [
        {
          "internalType": "uint256",
          "name": "exRate",
          "type": "uint256"
        }
      ],
      "stateMutability": "nonpayable",
      "type": "function"
    },
    {
      "inputs": [],
      "name": "scaleStored",
      "outputs": [
        {
          "internalType": "uint256",
          "name": "",
          "type": "uint256"
        }
      ],
      "stateMutability": "view",
      "type": "function"
    },
    {
      "inputs": [
        {
          "internalType": "address",
          "name": "_claimer",
          "type": "address"
        }
      ],
      "name": "setClaimer",
      "outputs": [],
      "stateMutability": "nonpayable",
      "type": "function"
    },
    {
      "inputs": [
        {
          "internalType": "address",
          "name": "user",
          "type": "address"
        },
        {
          "internalType": "bool",
          "name": "trusted",
          "type": "bool"
        }
      ],
      "name": "setIsTrusted",
      "outputs": [],
      "stateMutability": "nonpayable",
      "type": "function"
    },
    {
      "inputs": [
        {
          "internalType": "address[]",
          "name": "_rewardTokens",
          "type": "address[]"
        }
      ],
      "name": "setRewardTokens",
      "outputs": [],
      "stateMutability": "nonpayable",
      "type": "function"
    },
    {
      "inputs": [
        {
          "internalType": "address",
          "name": "recipient",
          "type": "address"
        }
      ],
      "name": "setRewardsRecipient",
      "outputs": [],
      "stateMutability": "nonpayable",
      "type": "function"
    },
    {
      "inputs": [],
      "name": "symbol",
      "outputs": [
        {
          "internalType": "string",
          "name": "",
          "type": "string"
        }
      ],
      "stateMutability": "view",
      "type": "function"
    },
    {
      "inputs": [
        {
          "internalType": "address",
          "name": "",
          "type": "address"
        }
      ],
      "name": "tBalance",
      "outputs": [
        {
          "internalType": "uint256",
          "name": "",
          "type": "uint256"
        }
      ],
      "stateMutability": "view",
      "type": "function"
    },
    {
      "inputs": [],
      "name": "target",
      "outputs": [
        {
          "internalType": "address",
          "name": "",
          "type": "address"
        }
      ],
      "stateMutability": "view",
      "type": "function"
    },
    {
      "inputs": [],
      "name": "tilt",
      "outputs": [
        {
          "internalType": "uint256",
          "name": "",
          "type": "uint256"
        }
      ],
      "stateMutability": "view",
      "type": "function"
    },
    {
      "inputs": [],
      "name": "totalTarget",
      "outputs": [
        {
          "internalType": "uint256",
          "name": "",
          "type": "uint256"
        }
      ],
      "stateMutability": "view",
      "type": "function"
    },
    {
      "inputs": [],
      "name": "underlying",
      "outputs": [
        {
          "internalType": "address",
          "name": "",
          "type": "address"
        }
      ],
      "stateMutability": "view",
      "type": "function"
    },
    {
      "inputs": [
        {
          "internalType": "uint256",
          "name": "amount",
          "type": "uint256"
        }
      ],
      "name": "unwrapTarget",
      "outputs": [
        {
          "internalType": "uint256",
          "name": "assets",
          "type": "uint256"
        }
      ],
      "stateMutability": "nonpayable",
      "type": "function"
    },
    {
      "inputs": [
        {
          "internalType": "uint256",
          "name": "amount",
          "type": "uint256"
        }
      ],
      "name": "wrapUnderlying",
      "outputs": [
        {
          "internalType": "uint256",
          "name": "aToken",
          "type": "uint256"
        }
      ],
      "stateMutability": "nonpayable",
      "type": "function"
    }
  ],
  "transactionHash": "0xeea5bfb117632b8f5babce7edebc6a0b6ccfe20b1381d993515de031e83af05e",
  "args": [
    "0x86bA3E96Be68563E41c2f5769F1AF9fAf758e6E0",
    "0x5B487e3fcD7660d59F5af7cD6E56D6708a4b40cE",
    "0xDd76360C26Eaf63AFCF3a8d2c0121F13AE864D57",
    "500000000000000",
    [
      "0x11D341d35BF95654BC7A9db59DBc557cCB4ea101",
      "0xC02aaA39b223FE8D0A0e5C4F27eAD9083C756Cc2",
      "250000000000000000",
      "2629800",
      "315576000",
      0,
      31,
      0
    ],
    [
      "0xC0c293ce456fF0ED870ADd98a0828Dd4d2903DBF",
      "0xba100000625a3754423978a60c9317c58a424e3D"
    ]
  ],
  "numDeployments": 1,
  "solcInputHash": "31d1c4ad1a16c7c23255475a9a8f2b21",
  "bytecode": "0x61010060405260016012553480156200001757600080fd5b5060405162003567380380620035678339810160408190526200003a91620008cf565b8585858585858386823389898a6001600160a01b03166338d52e0f6040518163ffffffff1660e01b8152600401602060405180830381865afa15801562000085573d6000803e3d6000fd5b505050506040513d601f19601f82011682018060405250810190620000ab919062000a15565b8989846001600160a01b03166080816001600160a01b031681525050836001600160a01b031660a0816001600160a01b031681525050826001600160a01b031660c0816001600160a01b031681525050816001600160801b031660e0816001600160801b031681525050806000808201518160000160006101000a8154816001600160a01b0302191690836001600160a01b0316021790555060208201518160010160006101000a8154816001600160a01b0302191690836001600160a01b0316021790555060408201518160020155606082015181600301556080820151816004015560a08201518160050160006101000a8154816001600160401b0302191690836001600160401b0316021790555060c08201518160050160086101000a81548165ffffffffffff021916908365ffffffffffff16021790555060e082015181600501600e6101000a81548161ffff021916908361ffff160217905550905050836001600160a01b03166306fdde036040518163ffffffff1660e01b8152600401600060405180830381865afa1580156200024c573d6000803e3d6000fd5b505050506040513d6000823e601f3d908101601f1916820160405262000276919081019062000a6b565b60405160200162000288919062000b09565b60405160208183030381529060405260069081620002a7919062000bc6565b50836001600160a01b03166395d89b416040518163ffffffff1660e01b8152600401600060405180830381865afa158015620002e7573d6000803e3d6000fd5b505050506040513d6000823e601f3d908101601f1916820160405262000311919081019062000a6b565b60405160200162000323919062000c92565b6040516020818303038152906040526007908162000342919062000bc6565b506200036c608051600019866001600160a01b0316620004d260201b62001464179092919060201c565b6200039960805160001983602001516001600160a01b0316620004d260201b62001464179092919060201c565b505050506001600160a01b038216600081815260086020908152604091829020805460ff1916600190811790915591519182529192507fe95aec380cae16330d146d5499ef7db6f3657e477104a733e771bc09e500d986910160405180910390a250620004088260016200055b565b80516200041d90600e906020840190620006d9565b5050601080546001600160a01b0319166001600160a01b039384161790555060c05160a05160405163095ea7b360e01b81529083166004820152600019602482015291169063095ea7b3906044016020604051808303816000875af11580156200048b573d6000803e3d6000fd5b505050506040513d601f19601f82011682018060405250810190620004b1919062000cc0565b50620004bc62000607565b6011555062000cfe9a5050505050505050505050565b600060405163095ea7b360e01b6000528360045282602452602060006044600080895af13d15601f3d1160016000511416171691506000606052806040525080620005555760405162461bcd60e51b815260206004820152600e60248201526d1054141493d59157d1905253115160921b60448201526064015b60405180910390fd5b50505050565b3360009081526008602052604090205460ff16620005a85760405162461bcd60e51b8152602060048201526009602482015268155395149554d5115160ba1b60448201526064016200054c565b6001600160a01b038216600081815260086020908152604091829020805460ff191685151590811790915591519182527fe95aec380cae16330d146d5499ef7db6f3657e477104a733e771bc09e500d986910160405180910390a25050565b600060a0516001600160a01b03166316f0115b6040518163ffffffff1660e01b8152600401602060405180830381865afa1580156200064a573d6000803e3d6000fd5b505050506040513d601f19601f8201168201806040525081019062000670919062000a15565b6001600160a01b031663679aefce6040518163ffffffff1660e01b8152600401602060405180830381865afa158015620006ae573d6000803e3d6000fd5b505050506040513d601f19601f82011682018060405250810190620006d4919062000ce4565b905090565b82805482825590600052602060002090810192821562000731579160200282015b828111156200073157825182546001600160a01b0319166001600160a01b03909116178255602090920191600190910190620006fa565b506200073f92915062000743565b5090565b5b808211156200073f576000815560010162000744565b6001600160a01b03811681146200077057600080fd5b50565b805162000780816200075a565b919050565b634e487b7160e01b600052604160045260246000fd5b60405161010081016001600160401b0381118282101715620007c157620007c162000785565b60405290565b604051601f8201601f191681016001600160401b0381118282101715620007f257620007f262000785565b604052919050565b80516001600160401b03811681146200078057600080fd5b805165ffffffffffff811681146200078057600080fd5b805161ffff811681146200078057600080fd5b600082601f8301126200084e57600080fd5b815160206001600160401b038211156200086c576200086c62000785565b8160051b6200087d828201620007c7565b92835284810182019282810190878511156200089857600080fd5b83870192505b84831015620008c4578251620008b4816200075a565b825291830191908301906200089e565b979650505050505050565b6000806000806000808688036101a0811215620008eb57600080fd5b8751620008f8816200075a565b60208901519097506200090b816200075a565b60408901519096506200091e816200075a565b60608901519095506001600160801b03811681146200093c57600080fd5b9350610100607f1982018113156200095357600080fd5b6200095d6200079b565b915060808901516200096f816200075a565b82526200097f60a08a0162000773565b602083015260c0890151604083015260e089015160608301528801516080820152620009af6101208901620007fa565b60a0820152620009c3610140890162000812565b60c0820152620009d7610160890162000829565b60e08201526101808801519092506001600160401b03811115620009fa57600080fd5b62000a0889828a016200083c565b9150509295509295509295565b60006020828403121562000a2857600080fd5b815162000a35816200075a565b9392505050565b60005b8381101562000a5957818101518382015260200162000a3f565b83811115620005555750506000910152565b60006020828403121562000a7e57600080fd5b81516001600160401b038082111562000a9657600080fd5b818401915084601f83011262000aab57600080fd5b81518181111562000ac05762000ac062000785565b62000ad5601f8201601f1916602001620007c7565b915080825285602082850101111562000aed57600080fd5b62000b0081602084016020860162000a3c565b50949350505050565b6000825162000b1d81846020870162000a3c565b671020b230b83a32b960c11b920191825250600801919050565b600181811c9082168062000b4c57607f821691505b60208210810362000b6d57634e487b7160e01b600052602260045260246000fd5b50919050565b601f82111562000bc157600081815260208120601f850160051c8101602086101562000b9c5750805b601f850160051c820191505b8181101562000bbd5782815560010162000ba8565b5050505b505050565b81516001600160401b0381111562000be25762000be262000785565b62000bfa8162000bf3845462000b37565b8462000b73565b602080601f83116001811462000c32576000841562000c195750858301515b600019600386901b1c1916600185901b17855562000bbd565b600085815260208120601f198616915b8281101562000c635788860151825594840194600190910190840162000c42565b508582101562000c825787850151600019600388901b60f8161c191681555b5050505050600190811b01905550565b6000825162000ca681846020870162000a3c565b6716b0b230b83a32b960c11b920191825250600801919050565b60006020828403121562000cd357600080fd5b8151801515811462000a3557600080fd5b60006020828403121562000cf757600080fd5b5051919050565b60805160a05160c05160e0516127b862000daf60003960006105b00152600081816104fa01526109b30152600081816103b30152818161066d015281816109f701528181610a8201528181610acc0152818161100b0152818161105b0152818161111d015281816113ed015281816114e5015281816115ec015281816116850152818161172b0152818161181401528181611db8015261200d0152600081816104290152610f5701526127b86000f3fe608060405234801561001057600080fd5b506004361061022d5760003560e01c8063613255ab1161013b578063b90d3d0c116100b8578063d4b839921161007c578063d4b8399214610668578063d9d98ce41461068f578063da4ca413146106a2578063f51e181a146106ab578063ff2a7d30146106b357600080fd5b8063b90d3d0c146105ea578063c39a3b2914610611578063cdfb583214610622578063d01c6f2914610635578063d379be231461065557600080fd5b80638237e538116100ff5780638237e5381461054657806395d89b411461056d57806396d6487914610575578063b484972a14610598578063b8c15a9f146105ab57600080fd5b8063613255ab146104c557806364c56e3c146104d85780636f307dc3146104f55780636fd5ae151461051c5780637bb7bed11461053357600080fd5b8063295a5212116101c95780634aae9fed1161018d5780634aae9fed1461046657806351c39ea114610479578063572acb9f1461048c5780635cffe9de1461049f578063608c44d6146104b257600080fd5b8063295a5212146103e957806329a43608146103fc5780632c5786b81461041c578063378efa3714610424578063468f02d21461045857600080fd5b806306fdde0314610232578063083118d5146102505780630e122423146102fb5780631393916a1461033957806314282f581461034e5780631a54259c14610362578063201e81a814610375578063226778491461038857806327b327d01461039f575b600080fd5b61023a6106c6565b60405161024791906121e0565b60405180910390f35b6000546001546002546003546004546005546102a0956001600160a01b039081169516939291906001600160401b03811690600160401b810465ffffffffffff1690600160701b900461ffff1688565b604080516001600160a01b03998a16815298909716602089015295870194909452606086019290925260808501526001600160401b031660a084015265ffffffffffff1660c083015261ffff1660e082015261010001610247565b61032961030936600461225d565b600d60209081526000928352604080842090915290825290205460ff1681565b6040519015158152602001610247565b61034c610347366004612297565b610754565b005b61034c61035c3660046122d0565b50505050565b61034c610370366004612302565b6107eb565b61034c610383366004612335565b610876565b61039160115481565b604051908152602001610247565b600154600254604080516001600160a01b037f0000000000000000000000000000000000000000000000000000000000000000811682529093166020840152820152606001610247565b600554600160701b900461ffff16610391565b61039161040a366004612302565b600b6020526000908152604090205481565b61034c610903565b61044b7f000000000000000000000000000000000000000000000000000000000000000081565b60405161024791906123f9565b670de0b6b3a7640000610391565b61039161047436600461240d565b6109a4565b61039161048736600461240d565b610a73565b61034c61049a366004612471565b610b03565b6103296104ad3660046124dc565b610f49565b61034c6104c0366004612302565b611152565b6103916104d3366004612302565b6112b9565b6104e0611305565b60408051928352602083019190915201610247565b61044b7f000000000000000000000000000000000000000000000000000000000000000081565b600554600160401b900465ffffffffffff16610391565b61044b61054136600461240d565b611329565b6103917f439148f0bbc682ca079e46d6e2c2f0c1e3b820f1a291b069d8882abf8cf18dd981565b61023a611353565b610329610583366004612302565b60086020526000908152604090205460ff1681565b61034c6105a636600461257a565b611360565b6105d27f000000000000000000000000000000000000000000000000000000000000000081565b6040516001600160801b039091168152602001610247565b6104e06105f8366004612302565b600f602052600090815260409020805460019091015482565b6005546001600160401b0316610391565b61034c610630366004612302565b611370565b610391610643366004612302565b600c6020526000908152604090205481565b60095461044b906001600160a01b031681565b61044b7f000000000000000000000000000000000000000000000000000000000000000081565b61039161069d36600461225d565b6113e9565b610391600a5481565b610391611446565b60105461044b906001600160a01b031681565b600680546106d3906125bc565b80601f01602080910402602001604051908101604052809291908181526020018280546106ff906125bc565b801561074c5780601f106107215761010080835404028352916020019161074c565b820191906000526020600020905b81548152906001019060200180831161072f57829003601f168201915b505050505081565b3360009081526008602052604090205460ff1661078c5760405162461bcd60e51b8152600401610783906125f6565b60405180910390fd5b6001600160a01b038216600081815260086020908152604091829020805460ff191685151590811790915591519182527fe95aec380cae16330d146d5499ef7db6f3657e477104a733e771bc09e500d986910160405180910390a25050565b3360009081526008602052604090205460ff1661081a5760405162461bcd60e51b8152600401610783906125f6565b6010546040516001600160a01b038084169216907f952c654458751f95c1440bdb1537809137b3de28466b80ad096a711707ae987a90600090a3601080546001600160a01b0319166001600160a01b0392909216919091179055565b3360009081526008602052604090205460ff166108a55760405162461bcd60e51b8152600401610783906125f6565b6108ad6114e1565b80516108c090600e906020840190612166565b50600e6040516108d09190612619565b604051908190038120907f45fae61b076570d71d045d3f03e5fa6b6401bebddde54161c7126c56a5ce7d6590600090a250565b3360009081526008602052604090205460ff166109325760405162461bcd60e51b8152600401610783906125f6565b60026012819055600154905460405163dfd4718f60e01b81526001600160a01b0390921660048301526024820152339063dfd4718f90604401600060405180830381600087803b15801561098557600080fd5b505af1158015610999573d6000803e3d6000fd5b505060016012555050565b60006109db6001600160a01b037f0000000000000000000000000000000000000000000000000000000000000000163330856118cf565b604051636e553f6560e01b8152600481018390523360248201527f00000000000000000000000000000000000000000000000000000000000000006001600160a01b031690636e553f65906044015b6020604051808303816000875af1158015610a49573d6000803e3d6000fd5b505050506040513d601f19601f82011682018060405250810190610a6d919061265f565b92915050565b6000610aaa6001600160a01b037f0000000000000000000000000000000000000000000000000000000000000000163330856118cf565b604051635d043b2960e11b8152600481018390523360248201523060448201527f00000000000000000000000000000000000000000000000000000000000000006001600160a01b03169063ba08765290606401610a2a565b6000306001600160a01b031663378efa376040518163ffffffff1660e01b8152600401602060405180830381865afa158015610b43573d6000803e3d6000fd5b505050506040513d601f19601f82011682018060405250810190610b679190612678565b905060005b82811015610f415760005b85811015610f2e576000878783818110610b9357610b93612695565b9050602002016020810190610ba89190612302565b90506000846001600160a01b031663574e779530898988818110610bce57610bce612695565b6040516001600160e01b031960e087901b1681526001600160a01b0390941660048501526020029190910135602483015250604401602060405180830381865afa158015610c20573d6000803e3d6000fd5b505050506040513d601f19601f82011682018060405250810190610c449190612678565b6001600160a01b03166370a08231836040518263ffffffff1660e01b8152600401610c6f91906123f9565b602060405180830381865afa158015610c8c573d6000803e3d6000fd5b505050506040513d601f19601f82011682018060405250810190610cb0919061265f565b905042878786818110610cc557610cc5612695565b9050602002013511158015610cda5750600081115b8015610d2b57506001600160a01b0382166000908152600d6020526040812090888887818110610d0c57610d0c612695565b602090810292909201358352508101919091526040016000205460ff16155b15610f1957610d398261195d565b6000610de7866001600160a01b0316632f9cd854308b8b8a818110610d6057610d60612695565b6040516001600160e01b031960e087901b1681526001600160a01b039485166004820152602090910292909201356024830152509087166044820152606401602060405180830381865afa158015610dbc573d6000803e3d6000fd5b505050506040513d601f19601f82011682018060405250810190610de0919061265f565b8390611d1a565b905080600a6000828254610dfb91906126c1565b90915550506001600160a01b0383166000908152600b602052604081208054839290610e289084906126c1565b90915550506001600160a01b0383166000908152600c602052604081208054839290610e559084906126d8565b90915550506001600160a01b0383166000908152600d602052604081206001918a8a89818110610e8757610e87612695565b90506020020135815260200190815260200160002060006101000a81548160ff021916908315150217905550826001600160a01b03167f5758e413a9bfd3ec45a67abaa9ee2396cab143a505332bf7ab48c0e624b65f11828a8a89818110610ef157610ef1612695565b90506020020135604051610f0f929190918252602082015260400190565b60405180910390a2505b50508080610f26906126f0565b915050610b77565b5080610f39816126f0565b915050610b6c565b505050505050565b6000336001600160a01b03167f00000000000000000000000000000000000000000000000000000000000000006001600160a01b03166377aace1a6040518163ffffffff1660e01b8152600401602060405180830381865afa158015610fb3573d6000803e3d6000fd5b505050506040513d601f19601f82011682018060405250810190610fd79190612678565b6001600160a01b031614610ffe5760405163fb02114960e01b815260040160405180910390fd5b6110326001600160a01b037f0000000000000000000000000000000000000000000000000000000000000000168786611d36565b6040516323e30c8b60e01b81526000906001600160a01b038816906323e30c8b9061108b9033907f0000000000000000000000000000000000000000000000000000000000000000908a9087908b908b90600401612709565b6020604051808303816000875af11580156110aa573d6000803e3d6000fd5b505050506040513d601f19601f820116820180604052508101906110ce919061265f565b90507f439148f0bbc682ca079e46d6e2c2f0c1e3b820f1a291b069d8882abf8cf18dd981146111105760405163081f7c8760e21b815260040160405180910390fd5b6111456001600160a01b037f0000000000000000000000000000000000000000000000000000000000000000168830886118cf565b5060019695505050505050565b61115b81611db4565b61117857604051633dd1b30560e01b815260040160405180910390fd5b6040516370a0823160e01b815281906000906001600160a01b038316906370a08231906111a99030906004016123f9565b602060405180830381865afa1580156111c6573d6000803e3d6000fd5b505050506040513d601f19601f820116820180604052508101906111ea919061265f565b6010546040516370a0823160e01b8152919250611276916001600160a01b03918216918516906370a08231906112249030906004016123f9565b602060405180830381865afa158015611241573d6000803e3d6000fd5b505050506040513d601f19601f82011682018060405250810190611265919061265f565b6001600160a01b0385169190611d36565b60105460405182916001600160a01b0390811691908616907f9310ccfcb8de723f578a9e4282ea9f521f05ae40dc08f3068dfad528a65ee3c790600090a4505050565b6040516370a0823160e01b81526000906001600160a01b038316906370a08231906112e89030906004016123f9565b602060405180830381865afa158015610a49573d6000803e3d6000fd5b60008060125460021461131a57600080611321565b6003546004545b915091509091565b600e818154811061133957600080fd5b6000918252602090912001546001600160a01b0316905081565b600780546106d3906125bc565b61136b838383611e09565b505050565b3360009081526008602052604090205460ff1661139f5760405162461bcd60e51b8152600401610783906125f6565b600980546001600160a01b0319166001600160a01b0383169081179091556040517f70e1f29a97aa858ce785e48a42e40cd51020a45c8a2e4520272a6303585916a990600090a250565b60007f00000000000000000000000000000000000000000000000000000000000000006001600160a01b0316836001600160a01b03161461143d57604051633dd1b30560e01b815260040160405180910390fd5b50600092915050565b6000611450612009565b905060115481146114615760118190555b90565b600060405163095ea7b360e01b6000528360045282602452602060006044600080895af13d15601f3d116001600051141617169150600060605280604052508061035c5760405162461bcd60e51b815260206004820152600e60248201526d1054141493d59157d1905253115160921b6044820152606401610783565b60007f00000000000000000000000000000000000000000000000000000000000000006001600160a01b031663a0c1f15e6040518163ffffffff1660e01b8152600401602060405180830381865afa158015611541573d6000803e3d6000fd5b505050506040513d601f19601f820116820180604052508101906115659190612678565b90506000816001600160a01b031663d55a23f46040518163ffffffff1660e01b8152600401602060405180830381865afa1580156115a7573d6000803e3d6000fd5b505050506040513d601f19601f820116820180604052508101906115cb919061265f565b90508060000361166e57604051637050ccd960e01b81526001600160a01b037f00000000000000000000000000000000000000000000000000000000000000008116600483015260006024830152831690637050ccd9906044016020604051808303816000875af1158015611644573d6000803e3d6000fd5b505050506040513d601f19601f820116820180604052508101906116689190612765565b50611805565b604051637050ccd960e01b81526001600160a01b037f00000000000000000000000000000000000000000000000000000000000000008116600483015260016024830152831690637050ccd9906044016020604051808303816000875af11580156116dd573d6000803e3d6000fd5b505050506040513d601f19601f820116820180604052508101906117019190612765565b5060005b8181101561180357604051632061aa2360e11b8152600481018290526001600160a01b037f000000000000000000000000000000000000000000000000000000000000000081169163608c44d6918616906340c35446906024016020604051808303816000875af115801561177e573d6000803e3d6000fd5b505050506040513d601f19601f820116820180604052508101906117a29190612678565b6040518263ffffffff1660e01b81526004016117be91906123f9565b600060405180830381600087803b1580156117d857600080fd5b505af11580156117ec573d6000803e3d6000fd5b5050505080806117fb906126f0565b915050611705565b505b60005b600e5481101561136b577f00000000000000000000000000000000000000000000000000000000000000006001600160a01b031663608c44d6600e838154811061185457611854612695565b6000918252602090912001546040516001600160e01b031960e084901b16815261188a916001600160a01b0316906004016123f9565b600060405180830381600087803b1580156118a457600080fd5b505af11580156118b8573d6000803e3d6000fd5b5050505080806118c7906126f0565b915050611808565b60006040516323b872dd60e01b6000528460045283602452826044526020600060646000808a5af13d15601f3d11600160005114161716915060006060528060405250806119565760405162461bcd60e51b81526020600482015260146024820152731514905394d1915497d19493d357d1905253115160621b6044820152606401610783565b5050505050565b6119656114e1565b60005b600e54811015611d16576000600f6000600e848154811061198b5761198b612695565b60009182526020808320909101546001600160a01b03168352820192909252604001902060010154600e8054849081106119c7576119c7612695565b6000918252602090912001546040516370a0823160e01b81526001600160a01b03909116906370a0823190611a009030906004016123f9565b602060405180830381865afa158015611a1d573d6000803e3d6000fd5b505050506040513d601f19601f82011682018060405250810190611a41919061265f565b611a4b91906126c1565b600a5490915015611ac257600a54611a719082906b033b2e3c9fd0803ce80000006120f3565b600f6000600e8581548110611a8857611a88612695565b60009182526020808320909101546001600160a01b0316835282019290925260400181208054909190611abc9084906126d8565b90915550505b6000600f6000600e8581548110611adb57611adb612695565b60009182526020808320909101546001600160a01b039081168452838201949094526040928301822093881682526002909301909252812054600e8054919350611b7c91600f91849188908110611b3457611b34612695565b60009182526020808320909101546001600160a01b039081168452838201949094526040928301822054938a168252600b90522054906b033b2e3c9fd0803ce8000000612108565b905081811115611bbc57611bbc85838303600e8781548110611ba057611ba0612695565b6000918252602090912001546001600160a01b03169190611d36565b600e8481548110611bcf57611bcf612695565b6000918252602090912001546040516370a0823160e01b81526001600160a01b03909116906370a0823190611c089030906004016123f9565b602060405180830381865afa158015611c25573d6000803e3d6000fd5b505050506040513d601f19601f82011682018060405250810190611c49919061265f565b600f6000600e8781548110611c6057611c60612695565b60009182526020808320909101546001600160a01b03168352820192909252604001902060010155600e805485908110611c9c57611c9c612695565b6000918252602090912001546001600160a01b039081169086167fad4a9acf26d8bba7a8cf1a41160d59be042ee554578e256c98d2ab74cdd43542848411611ce5576000611cef565b611cef85856126c1565b60405190815260200160405180910390a35050508080611d0e906126f0565b915050611968565b5050565b6000611d2f83670de0b6b3a764000084612111565b9392505050565b600060405163a9059cbb60e01b6000528360045282602452602060006044600080895af13d15601f3d116001600051141617169150600060605280604052508061035c5760405162461bcd60e51b815260206004820152600f60248201526e1514905394d1915497d19052531151608a1b6044820152606401610783565b60007f00000000000000000000000000000000000000000000000000000000000000006001600160a01b0316826001600160a01b031614158015610a6d5750506001546001600160a01b039081169116141590565b3360009081526008602052604090205460ff16611e385760405162461bcd60e51b8152600401610783906125f6565b611e418361195d565b8115611f38578015611e975781600a6000828254611e5f91906126d8565b90915550506001600160a01b0383166000908152600b602052604081208054849290611e8c9084906126d8565b90915550611f389050565b6001600160a01b0383166000908152600c60205260409020548015611eeb5780831015611ec8576000929003611ecf565b9091039060005b6001600160a01b0384166000908152600c602052604090208190555b8215611f365782600a6000828254611f0391906126c1565b90915550506001600160a01b0384166000908152600b602052604081208054859290611f309084906126c1565b90915550505b505b60005b600e5481101561035c57611fa7600f6000600e8481548110611f5f57611f5f612695565b60009182526020808320909101546001600160a01b0390811684528382019490945260409283018220549389168252600b90522054906b033b2e3c9fd0803ce8000000612130565b600f6000600e8481548110611fbe57611fbe612695565b60009182526020808320909101546001600160a01b03908116845283820194909452604092830182209389168252600290930190925290205580612001816126f0565b915050611f3b565b60007f00000000000000000000000000000000000000000000000000000000000000006001600160a01b03166316f0115b6040518163ffffffff1660e01b8152600401602060405180830381865afa158015612069573d6000803e3d6000fd5b505050506040513d601f19601f8201168201806040525081019061208d9190612678565b6001600160a01b031663679aefce6040518163ffffffff1660e01b8152600401602060405180830381865afa1580156120ca573d6000803e3d6000fd5b505050506040513d601f19601f820116820180604052508101906120ee919061265f565b905090565b6000612100848385612111565b949350505050565b60006121008484845b82820281151584158583048514171661212957600080fd5b0492915050565b600061210084848482820281151584158583048514171661215057600080fd5b6001826001830304018115150290509392505050565b8280548282559060005260206000209081019282156121bb579160200282015b828111156121bb57825182546001600160a01b0319166001600160a01b03909116178255602090920191600190910190612186565b506121c79291506121cb565b5090565b5b808211156121c757600081556001016121cc565b600060208083528351808285015260005b8181101561220d578581018301518582016040015282016121f1565b8181111561221f576000604083870101525b50601f01601f1916929092016040019392505050565b6001600160a01b038116811461224a57600080fd5b50565b803561225881612235565b919050565b6000806040838503121561227057600080fd5b823561227b81612235565b946020939093013593505050565b801515811461224a57600080fd5b600080604083850312156122aa57600080fd5b82356122b581612235565b915060208301356122c581612289565b809150509250929050565b600080600080608085870312156122e657600080fd5b5050823594602084013594506040840135936060013592509050565b60006020828403121561231457600080fd5b8135611d2f81612235565b634e487b7160e01b600052604160045260246000fd5b6000602080838503121561234857600080fd5b82356001600160401b038082111561235f57600080fd5b818501915085601f83011261237357600080fd5b8135818111156123855761238561231f565b8060051b604051601f19603f830116810181811085821117156123aa576123aa61231f565b6040529182528482019250838101850191888311156123c857600080fd5b938501935b828510156123ed576123de8561224d565b845293850193928501926123cd565b98975050505050505050565b6001600160a01b0391909116815260200190565b60006020828403121561241f57600080fd5b5035919050565b60008083601f84011261243857600080fd5b5081356001600160401b0381111561244f57600080fd5b6020830191508360208260051b850101111561246a57600080fd5b9250929050565b6000806000806040858703121561248757600080fd5b84356001600160401b038082111561249e57600080fd5b6124aa88838901612426565b909650945060208701359150808211156124c357600080fd5b506124d087828801612426565b95989497509550505050565b6000806000806000608086880312156124f457600080fd5b85356124ff81612235565b9450602086013561250f81612235565b93506040860135925060608601356001600160401b038082111561253257600080fd5b818801915088601f83011261254657600080fd5b81358181111561255557600080fd5b89602082850101111561256757600080fd5b9699959850939650602001949392505050565b60008060006060848603121561258f57600080fd5b833561259a81612235565b92506020840135915060408401356125b181612289565b809150509250925092565b600181811c908216806125d057607f821691505b6020821081036125f057634e487b7160e01b600052602260045260246000fd5b50919050565b602080825260099082015268155395149554d5115160ba1b604082015260600190565b60008183548391508460005260208060002060005b838110156126535781546001600160a01b03168552938201936001918201910161262e565b50929695505050505050565b60006020828403121561267157600080fd5b5051919050565b60006020828403121561268a57600080fd5b8151611d2f81612235565b634e487b7160e01b600052603260045260246000fd5b634e487b7160e01b600052601160045260246000fd5b6000828210156126d3576126d36126ab565b500390565b600082198211156126eb576126eb6126ab565b500190565b600060018201612702576127026126ab565b5060010190565b6001600160a01b03878116825286166020820152604081018590526060810184905260a06080820181905281018290526000828460c0840137600060c0848401015260c0601f19601f8501168301019050979650505050505050565b60006020828403121561277757600080fd5b8151611d2f8161228956fea2646970667358221220b8b2fe8ed84c6a8b1d5a8b411e28b1cbbaaca5548e0ffb826aea67d0480a0cf464736f6c634300080f0033",
  "devdoc": {
    "kind": "dev",
    "methods": {
      "flashLoan(address,address,uint256,bytes)": {
        "params": {
          "amount": "The amount of target lent.",
          "data": "(encoded adapter address, maturity and YT amount the use has sent in)",
          "receiver": "The contract receiving target, needs to implement the `onFlashLoan(address user, address adapter, uint256 maturity, uint256 amount)` interface."
        }
      },
      "maxFlashLoan(address)": {
        "details": "The amount of currency available to be lent.",
        "params": {
          "token": "The loan currency."
        },
        "returns": {
          "_0": "The amount of `token` that can be borrowed."
        }
      },
      "reconcile(address[],uint256[])": {
        "params": {
          "_maturities": "Maturities of the series that we want to reconcile users on.",
          "_usrs": "Users to reconcile"
        }
      },
      "scale()": {
        "returns": {
          "exRate": "Eth per wstEtH (natively in 18 decimals)"
        }
      },
      "setClaimer(address)": {
        "params": {
          "_claimer": "New claimer contract address"
        }
      },
      "setRewardTokens(address[])": {
        "details": "Calls _claimRewards() in case the new array contains less reward tokens than the old one.",
        "params": {
          "_rewardTokens": "New reward tokens array"
        }
      },
      "unwrapTarget(uint256)": {
        "params": {
          "amount": "Target amount"
        },
        "returns": {
          "assets": "amount of underlying returned"
        }
      },
      "wrapUnderlying(uint256)": {
        "params": {
          "amount": "Underlying amount"
        },
        "returns": {
          "aToken": "amount of target returned"
        }
      }
    },
    "version": 1
  },
  "userdoc": {
    "events": {
      "RewardsRecipientChanged(address,address)": {
        "notice": "----------------------------------------------------------------------- Logs -----------------------------------------------------------------------"
      }
    },
    "kind": "user",
    "methods": {
      "adapterParams()": {
        "notice": "adapter params"
      },
      "claimer()": {
        "notice": "Program state"
      },
      "divider()": {
        "notice": "Sense core Divider address"
      },
      "extractToken(address)": {
        "notice": "Transfers reward tokens from the adapter to Sense's reward container"
      },
      "flashLoan(address,address,uint256,bytes)": {
        "notice": "Loan `amount` target to `receiver`, and takes it back after the callback."
      },
      "getUnderlyingPrice()": {
        "notice": "Returns the current price of the underlying in ETH terms"
      },
      "ifee()": {
        "notice": "Issuance fee"
      },
      "onRedeem(uint256,uint256,uint256,uint256)": {
        "notice": "Hook called whenever a user redeems PT"
      },
      "reconcile(address[],uint256[])": {
        "notice": "Reconciles users target balances to zero by distributing rewards on their holdings, to avoid dilution of next Series' YT holders. This function should be called right after a Series matures and will save the user's YT balance (in target terms) on reconciledAmt[usr]. When `notify()` is triggered for on a new Series, we will take that amount and subtract it from the user's target balance (`tBalance`) which will fix (or reconcile) his position to prevent dilution."
      },
      "rewardsRecipient()": {
        "notice": "Rewards recipient"
      },
      "scaleStored()": {
        "notice": "Cached scale value from the last call to `scale()`"
      },
      "setClaimer(address)": {
        "notice": "Sets `claimer`."
      },
      "setRewardTokens(address[])": {
        "notice": "Overrides the rewardTokens array with a new one."
      },
      "setRewardsRecipient(address)": {
        "notice": "----------------------------------------------------------------------- Admin functions -----------------------------------------------------------------------"
      },
      "target()": {
        "notice": "Target token to divide"
      },
      "underlying()": {
        "notice": "Underlying for the Target"
      },
      "unwrapTarget(uint256)": {
        "notice": "Deposits target `amount`in return for underlying. Must be overriden by child contracts"
      },
      "wrapUnderlying(uint256)": {
        "notice": "Deposits underlying `amount`in return for target. Must be overriden by child contracts"
      }
    },
    "notice": "Adapter contract for Aura Vaults (aToken)",
    "version": 1
  },
  "storageLayout": {
    "storage": [
      {
        "astId": 9323,
        "contract": "@sense-finance/v1-core/src/adapters/implementations/aura/OwnableAuraAdapter.sol:OwnableAuraAdapter",
        "label": "adapterParams",
        "offset": 0,
        "slot": "0",
        "type": "t_struct(AdapterParams)9348_storage"
      },
      {
        "astId": 9350,
        "contract": "@sense-finance/v1-core/src/adapters/implementations/aura/OwnableAuraAdapter.sol:OwnableAuraAdapter",
        "label": "name",
        "offset": 0,
        "slot": "6",
        "type": "t_string_storage"
      },
      {
        "astId": 9352,
        "contract": "@sense-finance/v1-core/src/adapters/implementations/aura/OwnableAuraAdapter.sol:OwnableAuraAdapter",
        "label": "symbol",
        "offset": 0,
        "slot": "7",
        "type": "t_string_storage"
      },
      {
        "astId": 25568,
        "contract": "@sense-finance/v1-core/src/adapters/implementations/aura/OwnableAuraAdapter.sol:OwnableAuraAdapter",
        "label": "isTrusted",
        "offset": 0,
        "slot": "8",
        "type": "t_mapping(t_address,t_bool)"
      },
      {
        "astId": 11793,
        "contract": "@sense-finance/v1-core/src/adapters/implementations/aura/OwnableAuraAdapter.sol:OwnableAuraAdapter",
        "label": "claimer",
        "offset": 0,
        "slot": "9",
        "type": "t_address"
      },
      {
        "astId": 11795,
        "contract": "@sense-finance/v1-core/src/adapters/implementations/aura/OwnableAuraAdapter.sol:OwnableAuraAdapter",
        "label": "totalTarget",
        "offset": 0,
        "slot": "10",
        "type": "t_uint256"
      },
      {
        "astId": 11799,
        "contract": "@sense-finance/v1-core/src/adapters/implementations/aura/OwnableAuraAdapter.sol:OwnableAuraAdapter",
        "label": "tBalance",
        "offset": 0,
        "slot": "11",
        "type": "t_mapping(t_address,t_uint256)"
      },
      {
        "astId": 11803,
        "contract": "@sense-finance/v1-core/src/adapters/implementations/aura/OwnableAuraAdapter.sol:OwnableAuraAdapter",
        "label": "reconciledAmt",
        "offset": 0,
        "slot": "12",
        "type": "t_mapping(t_address,t_uint256)"
      },
      {
        "astId": 11809,
        "contract": "@sense-finance/v1-core/src/adapters/implementations/aura/OwnableAuraAdapter.sol:OwnableAuraAdapter",
        "label": "reconciled",
        "offset": 0,
        "slot": "13",
        "type": "t_mapping(t_address,t_mapping(t_uint256,t_bool))"
      },
      {
        "astId": 11812,
        "contract": "@sense-finance/v1-core/src/adapters/implementations/aura/OwnableAuraAdapter.sol:OwnableAuraAdapter",
        "label": "rewardTokens",
        "offset": 0,
        "slot": "14",
        "type": "t_array(t_address)dyn_storage"
      },
      {
        "astId": 11817,
        "contract": "@sense-finance/v1-core/src/adapters/implementations/aura/OwnableAuraAdapter.sol:OwnableAuraAdapter",
        "label": "data",
        "offset": 0,
        "slot": "15",
        "type": "t_mapping(t_address,t_struct(Crop)11826_storage)"
      },
      {
        "astId": 12423,
        "contract": "@sense-finance/v1-core/src/adapters/implementations/aura/OwnableAuraAdapter.sol:OwnableAuraAdapter",
        "label": "rewardsRecipient",
        "offset": 0,
        "slot": "16",
        "type": "t_address"
      },
      {
        "astId": 13997,
        "contract": "@sense-finance/v1-core/src/adapters/implementations/aura/OwnableAuraAdapter.sol:OwnableAuraAdapter",
        "label": "scaleStored",
        "offset": 0,
        "slot": "17",
        "type": "t_uint256"
      },
      {
        "astId": 15355,
        "contract": "@sense-finance/v1-core/src/adapters/implementations/aura/OwnableAuraAdapter.sol:OwnableAuraAdapter",
        "label": "open",
        "offset": 0,
        "slot": "18",
        "type": "t_uint256"
      }
    ],
    "types": {
      "t_address": {
        "encoding": "inplace",
        "label": "address",
        "numberOfBytes": "20"
      },
      "t_array(t_address)dyn_storage": {
        "base": "t_address",
        "encoding": "dynamic_array",
        "label": "address[]",
        "numberOfBytes": "32"
      },
      "t_bool": {
        "encoding": "inplace",
        "label": "bool",
        "numberOfBytes": "1"
      },
      "t_mapping(t_address,t_bool)": {
        "encoding": "mapping",
        "key": "t_address",
        "label": "mapping(address => bool)",
        "numberOfBytes": "32",
        "value": "t_bool"
      },
      "t_mapping(t_address,t_mapping(t_uint256,t_bool))": {
        "encoding": "mapping",
        "key": "t_address",
        "label": "mapping(address => mapping(uint256 => bool))",
        "numberOfBytes": "32",
        "value": "t_mapping(t_uint256,t_bool)"
      },
      "t_mapping(t_address,t_struct(Crop)11826_storage)": {
        "encoding": "mapping",
        "key": "t_address",
        "label": "mapping(address => struct Crops.Crop)",
        "numberOfBytes": "32",
        "value": "t_struct(Crop)11826_storage"
      },
      "t_mapping(t_address,t_uint256)": {
        "encoding": "mapping",
        "key": "t_address",
        "label": "mapping(address => uint256)",
        "numberOfBytes": "32",
        "value": "t_uint256"
      },
      "t_mapping(t_uint256,t_bool)": {
        "encoding": "mapping",
        "key": "t_uint256",
        "label": "mapping(uint256 => bool)",
        "numberOfBytes": "32",
        "value": "t_bool"
      },
      "t_string_storage": {
        "encoding": "bytes",
        "label": "string",
        "numberOfBytes": "32"
      },
      "t_struct(AdapterParams)9348_storage": {
        "encoding": "inplace",
        "label": "struct BaseAdapter.AdapterParams",
        "members": [
          {
            "astId": 9326,
            "contract": "@sense-finance/v1-core/src/adapters/implementations/aura/OwnableAuraAdapter.sol:OwnableAuraAdapter",
            "label": "oracle",
            "offset": 0,
            "slot": "0",
            "type": "t_address"
          },
          {
            "astId": 9329,
            "contract": "@sense-finance/v1-core/src/adapters/implementations/aura/OwnableAuraAdapter.sol:OwnableAuraAdapter",
            "label": "stake",
            "offset": 0,
            "slot": "1",
            "type": "t_address"
          },
          {
            "astId": 9332,
            "contract": "@sense-finance/v1-core/src/adapters/implementations/aura/OwnableAuraAdapter.sol:OwnableAuraAdapter",
            "label": "stakeSize",
            "offset": 0,
            "slot": "2",
            "type": "t_uint256"
          },
          {
            "astId": 9335,
            "contract": "@sense-finance/v1-core/src/adapters/implementations/aura/OwnableAuraAdapter.sol:OwnableAuraAdapter",
            "label": "minm",
            "offset": 0,
            "slot": "3",
            "type": "t_uint256"
          },
          {
            "astId": 9338,
            "contract": "@sense-finance/v1-core/src/adapters/implementations/aura/OwnableAuraAdapter.sol:OwnableAuraAdapter",
            "label": "maxm",
            "offset": 0,
            "slot": "4",
            "type": "t_uint256"
          },
          {
            "astId": 9341,
            "contract": "@sense-finance/v1-core/src/adapters/implementations/aura/OwnableAuraAdapter.sol:OwnableAuraAdapter",
            "label": "tilt",
            "offset": 0,
            "slot": "5",
            "type": "t_uint64"
          },
          {
            "astId": 9344,
            "contract": "@sense-finance/v1-core/src/adapters/implementations/aura/OwnableAuraAdapter.sol:OwnableAuraAdapter",
            "label": "level",
            "offset": 8,
            "slot": "5",
            "type": "t_uint48"
          },
          {
            "astId": 9347,
            "contract": "@sense-finance/v1-core/src/adapters/implementations/aura/OwnableAuraAdapter.sol:OwnableAuraAdapter",
            "label": "mode",
            "offset": 14,
            "slot": "5",
            "type": "t_uint16"
          }
        ],
        "numberOfBytes": "192"
      },
      "t_struct(Crop)11826_storage": {
        "encoding": "inplace",
        "label": "struct Crops.Crop",
        "members": [
          {
            "astId": 11819,
            "contract": "@sense-finance/v1-core/src/adapters/implementations/aura/OwnableAuraAdapter.sol:OwnableAuraAdapter",
            "label": "shares",
            "offset": 0,
            "slot": "0",
            "type": "t_uint256"
          },
          {
            "astId": 11821,
            "contract": "@sense-finance/v1-core/src/adapters/implementations/aura/OwnableAuraAdapter.sol:OwnableAuraAdapter",
            "label": "rewardBal",
            "offset": 0,
            "slot": "1",
            "type": "t_uint256"
          },
          {
            "astId": 11825,
            "contract": "@sense-finance/v1-core/src/adapters/implementations/aura/OwnableAuraAdapter.sol:OwnableAuraAdapter",
            "label": "rewarded",
            "offset": 0,
            "slot": "2",
            "type": "t_mapping(t_address,t_uint256)"
          }
        ],
        "numberOfBytes": "96"
      },
      "t_uint16": {
        "encoding": "inplace",
        "label": "uint16",
        "numberOfBytes": "2"
      },
      "t_uint256": {
        "encoding": "inplace",
        "label": "uint256",
        "numberOfBytes": "32"
      },
      "t_uint48": {
        "encoding": "inplace",
        "label": "uint48",
        "numberOfBytes": "6"
      },
      "t_uint64": {
        "encoding": "inplace",
        "label": "uint64",
        "numberOfBytes": "8"
      }
    }
  }
}