{
  "address": "0xD28372e7b9904589d05BD257B85FeA40FbD4dF2b",
  "abi": [
    {
      "inputs": [
        {
          "internalType": "address",
          "name": "_divider",
          "type": "address"
        },
        {
          "internalType": "address",
          "name": "_restrictedAdmin",
          "type": "address"
        },
        {
          "internalType": "address",
          "name": "_rewardsRecipient",
          "type": "address"
        },
        {
          "components": [
            {
              "internalType": "address",
              "name": "oracle",
              "type": "address"
            },
            {
              "internalType": "address",
              "name": "stake",
              "type": "address"
            },
            {
              "internalType": "uint256",
              "name": "stakeSize",
              "type": "uint256"
            },
            {
              "internalType": "uint256",
              "name": "minm",
              "type": "uint256"
            },
            {
              "internalType": "uint256",
              "name": "maxm",
              "type": "uint256"
            },
            {
              "internalType": "uint128",
              "name": "ifee",
              "type": "uint128"
            },
            {
              "internalType": "uint16",
              "name": "mode",
              "type": "uint16"
            },
            {
              "internalType": "uint64",
              "name": "tilt",
              "type": "uint64"
            },
            {
              "internalType": "uint256",
              "name": "guard",
              "type": "uint256"
            }
          ],
          "internalType": "struct BaseFactory.FactoryParams",
          "name": "_factoryParams",
          "type": "tuple"
        }
      ],
      "stateMutability": "nonpayable",
      "type": "constructor"
    },
    {
      "inputs": [],
      "name": "InvalidPrice",
      "type": "error"
    },
    {
      "inputs": [],
      "name": "OnlyPeriphery",
      "type": "error"
    },
    {
      "inputs": [],
      "name": "TargetNotSupported",
      "type": "error"
    },
    {
      "anonymous": false,
      "inputs": [
        {
          "indexed": true,
          "internalType": "address",
          "name": "oldAdmin",
          "type": "address"
        },
        {
          "indexed": true,
          "internalType": "address",
          "name": "newAdmin",
          "type": "address"
        }
      ],
      "name": "AdapterAdminChanged",
      "type": "event"
    },
    {
      "anonymous": false,
      "inputs": [
        {
          "indexed": true,
          "internalType": "address",
          "name": "oldRecipient",
          "type": "address"
        },
        {
          "indexed": true,
          "internalType": "address",
          "name": "newRecipient",
          "type": "address"
        }
      ],
      "name": "RewardsRecipientChanged",
      "type": "event"
    },
    {
      "anonymous": false,
      "inputs": [
        {
          "indexed": true,
          "internalType": "address",
          "name": "target",
          "type": "address"
        },
        {
          "indexed": true,
          "internalType": "bool",
          "name": "supported",
          "type": "bool"
        }
      ],
      "name": "TargetSupported",
      "type": "event"
    },
    {
      "anonymous": false,
      "inputs": [
        {
          "indexed": true,
          "internalType": "address",
          "name": "user",
          "type": "address"
        },
        {
          "indexed": false,
          "internalType": "bool",
          "name": "trusted",
          "type": "bool"
        }
      ],
      "name": "UserTrustUpdated",
      "type": "event"
    },
    {
      "inputs": [],
      "name": "DEFAULT_LEVEL",
      "outputs": [
        {
          "internalType": "uint48",
          "name": "",
          "type": "uint48"
        }
      ],
      "stateMutability": "view",
      "type": "function"
    },
    {
      "inputs": [],
      "name": "ETH_USD_PRICEFEED",
      "outputs": [
        {
          "internalType": "address",
          "name": "",
          "type": "address"
        }
      ],
      "stateMutability": "view",
      "type": "function"
    },
    {
      "inputs": [
        {
          "internalType": "address",
          "name": "_target",
          "type": "address"
        },
        {
          "internalType": "bytes",
          "name": "data",
          "type": "bytes"
        }
      ],
      "name": "deployAdapter",
      "outputs": [
        {
          "internalType": "address",
          "name": "adapter",
          "type": "address"
        }
      ],
      "stateMutability": "nonpayable",
      "type": "function"
    },
    {
      "inputs": [],
      "name": "divider",
      "outputs": [
        {
          "internalType": "address",
          "name": "",
          "type": "address"
        }
      ],
      "stateMutability": "view",
      "type": "function"
    },
    {
      "inputs": [],
      "name": "factoryParams",
      "outputs": [
        {
          "internalType": "address",
          "name": "oracle",
          "type": "address"
        },
        {
          "internalType": "address",
          "name": "stake",
          "type": "address"
        },
        {
          "internalType": "uint256",
          "name": "stakeSize",
          "type": "uint256"
        },
        {
          "internalType": "uint256",
          "name": "minm",
          "type": "uint256"
        },
        {
          "internalType": "uint256",
          "name": "maxm",
          "type": "uint256"
        },
        {
          "internalType": "uint128",
          "name": "ifee",
          "type": "uint128"
        },
        {
          "internalType": "uint16",
          "name": "mode",
          "type": "uint16"
        },
        {
          "internalType": "uint64",
          "name": "tilt",
          "type": "uint64"
        },
        {
          "internalType": "uint256",
          "name": "guard",
          "type": "uint256"
        }
      ],
      "stateMutability": "view",
      "type": "function"
    },
    {
      "inputs": [
        {
          "internalType": "address",
          "name": "",
          "type": "address"
        }
      ],
      "name": "isTrusted",
      "outputs": [
        {
          "internalType": "bool",
          "name": "",
          "type": "bool"
        }
      ],
      "stateMutability": "view",
      "type": "function"
    },
    {
      "inputs": [],
      "name": "restrictedAdmin",
      "outputs": [
        {
          "internalType": "address",
          "name": "",
          "type": "address"
        }
      ],
      "stateMutability": "view",
      "type": "function"
    },
    {
      "inputs": [],
      "name": "rewardsRecipient",
      "outputs": [
        {
          "internalType": "address",
          "name": "",
          "type": "address"
        }
      ],
      "stateMutability": "view",
      "type": "function"
    },
    {
      "inputs": [
        {
          "internalType": "address",
          "name": "_restrictedAdmin",
          "type": "address"
        }
      ],
      "name": "setAdapterAdmin",
      "outputs": [],
      "stateMutability": "nonpayable",
      "type": "function"
    },
    {
      "inputs": [
        {
          "internalType": "address",
          "name": "user",
          "type": "address"
        },
        {
          "internalType": "bool",
          "name": "trusted",
          "type": "bool"
        }
      ],
      "name": "setIsTrusted",
      "outputs": [],
      "stateMutability": "nonpayable",
      "type": "function"
    },
    {
      "inputs": [
        {
          "internalType": "address",
          "name": "_recipient",
          "type": "address"
        }
      ],
      "name": "setRewardsRecipient",
      "outputs": [],
      "stateMutability": "nonpayable",
      "type": "function"
    },
    {
      "inputs": [
        {
          "internalType": "address",
          "name": "_target",
          "type": "address"
        },
        {
          "internalType": "bool",
          "name": "supported",
          "type": "bool"
        }
      ],
      "name": "supportTarget",
      "outputs": [],
      "stateMutability": "nonpayable",
      "type": "function"
    },
    {
      "inputs": [
        {
          "internalType": "address[]",
          "name": "_targets",
          "type": "address[]"
        },
        {
          "internalType": "bool",
          "name": "supported",
          "type": "bool"
        }
      ],
      "name": "supportTargets",
      "outputs": [],
      "stateMutability": "nonpayable",
      "type": "function"
    },
    {
      "inputs": [
        {
          "internalType": "address",
          "name": "",
          "type": "address"
        }
      ],
      "name": "supportedTargets",
      "outputs": [
        {
          "internalType": "bool",
          "name": "",
          "type": "bool"
        }
      ],
      "stateMutability": "view",
      "type": "function"
    }
  ],
  "transactionHash": "0x07cb04104aad77e8dc857d0244ffc607e615c585728916ec23f9b548d304cd37",
  "args": [
    "0x86bA3E96Be68563E41c2f5769F1AF9fAf758e6E0",
    "0xDd76360C26Eaf63AFCF3a8d2c0121F13AE864D57",
    "0xDd76360C26Eaf63AFCF3a8d2c0121F13AE864D57",
    [
      "0x11D341d35BF95654BC7A9db59DBc557cCB4ea101",
      "0xC02aaA39b223FE8D0A0e5C4F27eAD9083C756Cc2",
      "250000000000000000",
      "2629800",
      "315576000",
      "1000000000000000",
      0,
      0,
      "100000000000000000000000"
    ]
  ],
  "numDeployments": 1,
  "solcInputHash": "8d5c8c75361f78fa1a08078ad4c0f5da",
  "bytecode": "0x60a06040523480156200001157600080fd5b5060405162003ed638038062003ed6833981016040819052620000349162000210565b3360008181526020818152604091829020805460ff19166001908117909155915191825286928692869286929182917fe95aec380cae16330d146d5499ef7db6f3657e477104a733e771bc09e500d986910160405180910390a2506001600160a01b039384166080908152600180549486166001600160a01b0319958616179055600280549386169385169390931790925580516003805491861691851691909117905560208101516004805491909516931692909217909255604081015160055560608101516006559081015160075560a08101516008805460c084015160e08501516001600160401b0316600160901b02600160901b600160d01b031961ffff909216600160801b026001600160901b03199093166001600160801b039095169490941791909117169190911790556101000151600955506200030c92505050565b80516001600160a01b03811681146200019057600080fd5b919050565b60405161012081016001600160401b0381118282101715620001c757634e487b7160e01b600052604160045260246000fd5b60405290565b80516001600160801b03811681146200019057600080fd5b805161ffff811681146200019057600080fd5b80516001600160401b03811681146200019057600080fd5b6000806000808486036101808112156200022957600080fd5b620002348662000178565b9450620002446020870162000178565b9350620002546040870162000178565b925061012080605f19830112156200026b57600080fd5b6200027562000195565b9150620002856060880162000178565b8252620002956080880162000178565b602083015260a0870151604083015260c0870151606083015260e08701516080830152610100620002c8818901620001cd565b60a0840152620002da828901620001e5565b60c0840152620002ee6101408901620001f8565b60e08401526101608801518184015250508091505092959194509250565b608051613b8b6200034b60003960008181610183015281816105ed015281816106cd0152818161089201528181610d270152610fc70152613b8b6000f3fe60806040523480156200001157600080fd5b5060043610620000fd5760003560e01c806395a39fb11162000097578063cac0e3c2116200006e578063cac0e3c2146200034d578063dc69c06f1462000364578063fe767c60146200038a578063ff2a7d3014620003a157600080fd5b806395a39fb114620001f957806396d648791462000210578063bbe451d5146200024757600080fd5b8063378efa3711620000d8578063378efa37146200017d5780633cad2dcd14620001a557806340cc63e114620001bc57806393d4750c14620001d857600080fd5b80630c1b797914620001025780631393916a146200014d5780631a54259c1462000166575b600080fd5b600154620001239073ffffffffffffffffffffffffffffffffffffffff1681565b60405173ffffffffffffffffffffffffffffffffffffffff90911681526020015b60405180910390f35b620001646200015e36600462001244565b620003c2565b005b620001646200017736600462001282565b620004c9565b620001237f000000000000000000000000000000000000000000000000000000000000000081565b62000123620001b63660046200132a565b620005d2565b62000123735f4ec3df9cbd43714fe2740f5e3616155c5b841981565b620001e1601f81565b60405165ffffffffffff909116815260200162000144565b620001646200020a366004620013fb565b620009ab565b620002366200022136600462001282565b60006020819052908152604090205460ff1681565b604051901515815260200162000144565b600354600454600554600654600754600854600954620002d09673ffffffffffffffffffffffffffffffffffffffff9081169616949392916fffffffffffffffffffffffffffffffff811691700100000000000000000000000000000000820461ffff16917201000000000000000000000000000000000000900467ffffffffffffffff169089565b6040805173ffffffffffffffffffffffffffffffffffffffff9a8b1681529990981660208a015296880195909552606087019390935260808601919091526fffffffffffffffffffffffffffffffff1660a085015261ffff1660c084015267ffffffffffffffff1660e08301526101008201526101200162000144565b620001646200035e36600462001244565b62000b22565b620002366200037536600462001282565b600a6020526000908152604090205460ff1681565b620001646200039b36600462001282565b62000c1c565b600254620001239073ffffffffffffffffffffffffffffffffffffffff1681565b3360009081526020819052604090205460ff1662000441576040517f08c379a000000000000000000000000000000000000000000000000000000000815260206004820152600960248201527f554e54525553544544000000000000000000000000000000000000000000000060448201526064015b60405180910390fd5b73ffffffffffffffffffffffffffffffffffffffff82166000818152602081815260409182902080547fffffffffffffffffffffffffffffffffffffffffffffffffffffffffffffff001685151590811790915591519182527fe95aec380cae16330d146d5499ef7db6f3657e477104a733e771bc09e500d986910160405180910390a25050565b3360009081526020819052604090205460ff1662000544576040517f08c379a000000000000000000000000000000000000000000000000000000000815260206004820152600960248201527f554e545255535445440000000000000000000000000000000000000000000000604482015260640162000438565b60025460405173ffffffffffffffffffffffffffffffffffffffff8084169216907f952c654458751f95c1440bdb1537809137b3de28466b80ad096a711707ae987a90600090a3600280547fffffffffffffffffffffffff00000000000000000000000000000000000000001673ffffffffffffffffffffffffffffffffffffffff92909216919091179055565b60003373ffffffffffffffffffffffffffffffffffffffff167f000000000000000000000000000000000000000000000000000000000000000073ffffffffffffffffffffffffffffffffffffffff166377aace1a6040518163ffffffff1660e01b8152600401602060405180830381865afa15801562000657573d6000803e3d6000fd5b505050506040513d601f19601f820116820180604052508101906200067d9190620014ce565b73ffffffffffffffffffffffffffffffffffffffff1614620006cb576040517ffb02114900000000000000000000000000000000000000000000000000000000815260040160405180910390fd5b7f000000000000000000000000000000000000000000000000000000000000000073ffffffffffffffffffffffffffffffffffffffff1663a1256f9f6040518163ffffffff1660e01b8152600401602060405180830381865afa15801562000737573d6000803e3d6000fd5b505050506040513d601f19601f820116820180604052508101906200075d9190620014ee565b15801562000791575073ffffffffffffffffffffffffffffffffffffffff83166000908152600a602052604090205460ff16155b15620007c9576040517fa2a94ace00000000000000000000000000000000000000000000000000000000815260040160405180910390fd5b604080516101008101825260035473ffffffffffffffffffffffffffffffffffffffff9081168252600454811660208301526005548284015260065460608084019190915260075460808401526008547201000000000000000000000000000000000000810467ffffffffffffffff1660a0850152601f60c0850152700100000000000000000000000000000000810461ffff1660e0850152600254945193949188901b7fffffffffffffffffffffffffffffffffffffffff00000000000000000000000016937f000000000000000000000000000000000000000000000000000000000000000093899316916fffffffffffffffffffffffffffffffff16908690620008d690620011f2565b620008e69594939291906200150e565b8190604051809103906000f590508015801562000907573d6000803e3d6000fd5b509150620009158262000d25565b600180546040517f1393916a00000000000000000000000000000000000000000000000000000000815273ffffffffffffffffffffffffffffffffffffffff91821660048201526024810192909252831690631393916a90604401600060405180830381600087803b1580156200098b57600080fd5b505af1158015620009a0573d6000803e3d6000fd5b505050505092915050565b3360009081526020819052604090205460ff1662000a26576040517f08c379a000000000000000000000000000000000000000000000000000000000815260206004820152600960248201527f554e545255535445440000000000000000000000000000000000000000000000604482015260640162000438565b60005b825181101562000b1d5781600a600085848151811062000a4d5762000a4d620015da565b602002602001015173ffffffffffffffffffffffffffffffffffffffff1673ffffffffffffffffffffffffffffffffffffffff16815260200190815260200160002060006101000a81548160ff02191690831515021790555081151583828151811062000abe5762000abe620015da565b602002602001015173ffffffffffffffffffffffffffffffffffffffff167f34465fae8b1f082faa1eb1845b34c2bfd6b86cc48df2ebf6426eeddd7e3a4c9a60405160405180910390a38062000b148162001638565b91505062000a29565b505050565b3360009081526020819052604090205460ff1662000b9d576040517f08c379a000000000000000000000000000000000000000000000000000000000815260206004820152600960248201527f554e545255535445440000000000000000000000000000000000000000000000604482015260640162000438565b73ffffffffffffffffffffffffffffffffffffffff82166000818152600a602052604080822080547fffffffffffffffffffffffffffffffffffffffffffffffffffffffffffffff001685151590811790915590519092917f34465fae8b1f082faa1eb1845b34c2bfd6b86cc48df2ebf6426eeddd7e3a4c9a91a35050565b3360009081526020819052604090205460ff1662000c97576040517f08c379a000000000000000000000000000000000000000000000000000000000815260206004820152600960248201527f554e545255535445440000000000000000000000000000000000000000000000604482015260640162000438565b60015460405173ffffffffffffffffffffffffffffffffffffffff8084169216907fe7193156e088d62b242ce408a50e41464422fb99a0fb82fec66ab556af195c1590600090a3600180547fffffffffffffffffffffffff00000000000000000000000000000000000000001673ffffffffffffffffffffffffffffffffffffffff92909216919091179055565b7f000000000000000000000000000000000000000000000000000000000000000073ffffffffffffffffffffffffffffffffffffffff166372f7a0306040518163ffffffff1660e01b8152600401602060405180830381865afa15801562000d91573d6000803e3d6000fd5b505050506040513d601f19601f8201168201806040525081019062000db79190620014ee565b156200118e5760008190508073ffffffffffffffffffffffffffffffffffffffff1663468f02d26040518163ffffffff1660e01b8152600401602060405180830381865afa92505050801562000e4a575060408051601f3d9081017fffffffffffffffffffffffffffffffffffffffffffffffffffffffffffffffe016820190925262000e479181019062001674565b60015b62000e55576200118c565b600080735f4ec3df9cbd43714fe2740f5e3616155c5b841973ffffffffffffffffffffffffffffffffffffffff1663feaf968c6040518163ffffffff1660e01b815260040160a060405180830381865afa15801562000eb8573d6000803e3d6000fd5b505050506040513d601f19601f8201168201806040525081019062000ede9190620016a9565b50935050925050611c20814262000ef69190620016fe565b111562000f2e576040517ebfc92100000000000000000000000000000000000000000000000000000000815260040160405180910390fd5b600062000f4184846305f5e10062001191565b905062000fc3818673ffffffffffffffffffffffffffffffffffffffff1663f51e181a6040518163ffffffff1660e01b81526004016020604051808303816000875af115801562000f96573d6000803e3d6000fd5b505050506040513d601f19601f8201168201806040525081019062000fbc919062001674565b90620011a8565b90507f000000000000000000000000000000000000000000000000000000000000000073ffffffffffffffffffffffffffffffffffffffff16635fa0cc0a8762001102848973ffffffffffffffffffffffffffffffffffffffff1663d4b839926040518163ffffffff1660e01b8152600401602060405180830381865afa15801562001053573d6000803e3d6000fd5b505050506040513d601f19601f82011682018060405250810190620010799190620014ce565b73ffffffffffffffffffffffffffffffffffffffff1663313ce5676040518163ffffffff1660e01b8152600401602060405180830381865afa158015620010c4573d6000803e3d6000fd5b505050506040513d601f19601f82011682018060405250810190620010ea919062001674565b620010f790600a62001851565b6009549190620011c8565b6040517fffffffff0000000000000000000000000000000000000000000000000000000060e085901b16815273ffffffffffffffffffffffffffffffffffffffff90921660048301526024820152604401600060405180830381600087803b1580156200116e57600080fd5b505af115801562001183573d6000803e3d6000fd5b50505050505050505b505b50565b6000620011a0848484620011d2565b949350505050565b6000620011bf8383670de0b6b3a7640000620011d2565b90505b92915050565b6000620011a08483855b828202811515841585830485141716620011eb57600080fd5b0492915050565b6122f6806200186083390190565b73ffffffffffffffffffffffffffffffffffffffff811681146200118e57600080fd5b80151581146200118e57600080fd5b80356200123f8162001223565b919050565b600080604083850312156200125857600080fd5b8235620012658162001200565b91506020830135620012778162001223565b809150509250929050565b6000602082840312156200129557600080fd5b8135620012a28162001200565b9392505050565b7f4e487b7100000000000000000000000000000000000000000000000000000000600052604160045260246000fd5b604051601f82017fffffffffffffffffffffffffffffffffffffffffffffffffffffffffffffffe016810167ffffffffffffffff81118282101715620013225762001322620012a9565b604052919050565b600080604083850312156200133e57600080fd5b82356200134b8162001200565b915060208381013567ffffffffffffffff808211156200136a57600080fd5b818601915086601f8301126200137f57600080fd5b813581811115620013945762001394620012a9565b620013c6847fffffffffffffffffffffffffffffffffffffffffffffffffffffffffffffffe0601f84011601620012d8565b91508082528784828501011115620013dd57600080fd5b80848401858401376000848284010152508093505050509250929050565b600080604083850312156200140f57600080fd5b823567ffffffffffffffff808211156200142857600080fd5b818501915085601f8301126200143d57600080fd5b8135602082821115620014545762001454620012a9565b8160051b925062001467818401620012d8565b82815292840181019281810190898511156200148257600080fd5b948201945b84861015620014b057853593506200149f8462001200565b838252948201949082019062001487565b9650620014c1905087820162001232565b9450505050509250929050565b600060208284031215620014e157600080fd5b8151620012a28162001200565b6000602082840312156200150157600080fd5b8151620012a28162001223565b60006101808201905073ffffffffffffffffffffffffffffffffffffffff8088168352808716602084015280861660408401526fffffffffffffffffffffffffffffffff851660608401528084511660808401528060208501511660a084015250604083015160c0830152606083015160e0830152608083015161010083015267ffffffffffffffff60a08401511661012083015260c0830151620015be61014084018265ffffffffffff169052565b5060e083015161ffff8116610160840152509695505050505050565b7f4e487b7100000000000000000000000000000000000000000000000000000000600052603260045260246000fd5b7f4e487b7100000000000000000000000000000000000000000000000000000000600052601160045260246000fd5b60007fffffffffffffffffffffffffffffffffffffffffffffffffffffffffffffffff8214156200166d576200166d62001609565b5060010190565b6000602082840312156200168757600080fd5b5051919050565b805169ffffffffffffffffffff811681146200123f57600080fd5b600080600080600060a08688031215620016c257600080fd5b620016cd866200168e565b9450602086015193506040860151925060608601519150620016f2608087016200168e565b90509295509295909350565b60008282101562001713576200171362001609565b500390565b600181815b808511156200177757817fffffffffffffffffffffffffffffffffffffffffffffffffffffffffffffffff048211156200175b576200175b62001609565b808516156200176957918102915b93841c93908002906200171d565b509250929050565b6000826200179057506001620011c2565b816200179f57506000620011c2565b8160018114620017b85760028114620017c357620017e3565b6001915050620011c2565b60ff841115620017d757620017d762001609565b50506001821b620011c2565b5060208310610133831016604e8410600b841016171562001808575081810a620011c2565b62001814838362001718565b807fffffffffffffffffffffffffffffffffffffffffffffffffffffffffffffffff0482111562001849576200184962001609565b029392505050565b6000620011bf83836200177f56fe6101406040523480156200001257600080fd5b50604051620022f6380380620022f6833981016040819052620000359162000626565b8484856001600160a01b03166338d52e0f6040518163ffffffff1660e01b8152600401602060405180830381865afa15801562000076573d6000803e3d6000fd5b505050506040513d601f19601f820116820180604052508101906200009c919062000740565b3360008181526020818152604091829020805460ff19166001908117909155915191825288928892889282917fe95aec380cae16330d146d5499ef7db6f3657e477104a733e771bc09e500d986910160405180910390a2506001600160a01b03808716608090815286821660a081815287841660c0908152600180548987166001600160a01b0319918216179091556001600160801b03881660e09081528751600280549189169184169190911790556020880151600380549190981692169190911790955560408087015160049081556060880151600555948701516006559186015160078054928801519688015161ffff16600160701b0261ffff60701b1965ffffffffffff90981668010000000000000000026001600160701b03199094166001600160401b039093169290921792909217959095169490941790935582516306fdde0360e01b8152925190926306fdde0392818101926000929091908290030181865afa15801562000216573d6000803e3d6000fd5b505050506040513d6000823e601f3d908101601f1916820160405262000240919081019062000796565b6040516020016200025291906200084e565b6040516020818303038152906040526008908051906020019062000278929190620004d1565b50846001600160a01b03166395d89b416040518163ffffffff1660e01b8152600401600060405180830381865afa158015620002b8573d6000803e3d6000fd5b505050506040513d6000823e601f3d908101601f19168201604052620002e2919081019062000796565b604051602001620002f491906200087c565b604051602081830303815290604052600990805190602001906200031a929190620004d1565b5062000344608051600019876001600160a01b03166200044f60201b620011bf179092919060201c565b6200037160805160001983602001516001600160a01b03166200044f60201b620011bf179092919060201c565b505050505050600060a0516001600160a01b031663313ce5676040518163ffffffff1660e01b8152600401602060405180830381865afa158015620003ba573d6000803e3d6000fd5b505050506040513d601f19601f82011682018060405250810190620003e09190620008aa565b60ff169050620003f281600a620009e4565b6101005262000403816012620009f2565b6200041090600a620009e4565b61012081815250506200044360a05160001960c0516001600160a01b03166200044f60201b620011bf179092919060201c565b50505050505062000a49565b600060405163095ea7b360e01b8152836004820152826024820152602060006044836000895af13d15601f3d1160016000511416171691505080620004cb5760405162461bcd60e51b815260206004820152600e60248201526d1054141493d59157d1905253115160921b604482015260640160405180910390fd5b50505050565b828054620004df9062000a0c565b90600052602060002090601f0160209004810192826200050357600085556200054e565b82601f106200051e57805160ff19168380011785556200054e565b828001600101855582156200054e579182015b828111156200054e57825182559160200191906001019062000531565b506200055c92915062000560565b5090565b5b808211156200055c576000815560010162000561565b6001600160a01b03811681146200058d57600080fd5b50565b80516200059d8162000577565b919050565b634e487b7160e01b600052604160045260246000fd5b60405161010081016001600160401b0381118282101715620005de57620005de620005a2565b60405290565b80516001600160401b03811681146200059d57600080fd5b805165ffffffffffff811681146200059d57600080fd5b805161ffff811681146200059d57600080fd5b60008060008060008587036101808112156200064157600080fd5b86516200064e8162000577565b6020880151909650620006618162000577565b6040880151909550620006748162000577565b60608801519094506001600160801b03811681146200069257600080fd5b9250610100607f198201811315620006a957600080fd5b620006b3620005b8565b91506080880151620006c58162000577565b8252620006d560a0890162000590565b602083015260c0880151604083015260e088015160608301528701516080820152620007056101208801620005e4565b60a0820152620007196101408801620005fc565b60c08201526200072d610160880162000613565b60e0820152809150509295509295909350565b6000602082840312156200075357600080fd5b8151620007608162000577565b9392505050565b60005b83811015620007845781810151838201526020016200076a565b83811115620004cb5750506000910152565b600060208284031215620007a957600080fd5b81516001600160401b0380821115620007c157600080fd5b818401915084601f830112620007d657600080fd5b815181811115620007eb57620007eb620005a2565b604051601f8201601f19908116603f01168101908382118183101715620008165762000816620005a2565b816040528281528760208487010111156200083057600080fd5b6200084383602083016020880162000767565b979650505050505050565b600082516200086281846020870162000767565b671020b230b83a32b960c11b920191825250600801919050565b600082516200089081846020870162000767565b6716b0b230b83a32b960c11b920191825250600801919050565b600060208284031215620008bd57600080fd5b815160ff811681146200076057600080fd5b634e487b7160e01b600052601160045260246000fd5b600181815b80851115620009265781600019048211156200090a576200090a620008cf565b808516156200091857918102915b93841c9390800290620008ea565b509250929050565b6000826200093f57506001620009de565b816200094e57506000620009de565b8160018114620009675760028114620009725762000992565b6001915050620009de565b60ff841115620009865762000986620008cf565b50506001821b620009de565b5060208310610133831016604e8410600b8410161715620009b7575081810a620009de565b620009c38383620008e5565b8060001904821115620009da57620009da620008cf565b0290505b92915050565b60006200076083836200092e565b60008282101562000a075762000a07620008cf565b500390565b600181811c9082168062000a2157607f821691505b6020821081141562000a4357634e487b7160e01b600052602260045260246000fd5b50919050565b60805160a05160c05160e05161010051610120516117fb62000afb600039600081816105b2015261093501526000818161058b015261090c0152600061053101526000818161048901528181610a260152610af2015260008181610352015281816105d90152818161096c01528181610b4f01528181610c1701528181610d6a01528181610de001528181610ec801528181610eff01526111330152600081816103ab0152610c7601526117fb6000f3fe608060405234801561001057600080fd5b50600436106101e55760003560e01c806364c56e3c1161010f578063c39a3b29116100a2578063d9d98ce411610071578063d9d98ce4146105fb578063f51e181a1461031b578063f60c05ce1461060e578063ff2a7d301461062957600080fd5b8063c39a3b2914610574578063cce5938614610586578063ce4b5bbe146105ad578063d4b83992146105d457600080fd5b806395d89b41116100de57806395d89b41146104ee57806396d64879146104f6578063b484972a14610519578063b8c15a9f1461052c57600080fd5b806364c56e3c146104695780636f307dc3146104845780636fd5ae15146104ab5780638237e538146104c757600080fd5b8063295a52121161018757806351c39ea11161015657806351c39ea11461040d5780635cffe9de14610420578063608c44d614610443578063613255ab1461045657600080fd5b8063295a521214610388578063378efa37146103a6578063468f02d2146103f25780634aae9fed146103fa57600080fd5b806314282f58116101c357806314282f58146102f45780631a54259c14610308578063226778491461031b57806327b327d01461033157600080fd5b806306fdde03146101ea578063083118d5146102085780631393916a146102df575b600080fd5b6101f2610649565b6040516101ff91906113f7565b60405180910390f35b6002546003546004546005546006546007546102769573ffffffffffffffffffffffffffffffffffffffff90811695169392919067ffffffffffffffff81169068010000000000000000810465ffffffffffff16906e010000000000000000000000000000900461ffff1688565b6040805173ffffffffffffffffffffffffffffffffffffffff998a168152989097166020890152958701949094526060860192909252608085015267ffffffffffffffff1660a084015265ffffffffffff1660c083015261ffff1660e0820152610100016101ff565b6102f26102ed3660046114a4565b6106d7565b005b6102f26103023660046114d9565b50505050565b6102f261031636600461150b565b6107dd565b6103236108e4565b6040519081526020016101ff565b6003546004546040805173ffffffffffffffffffffffffffffffffffffffff7f00000000000000000000000000000000000000000000000000000000000000008116825290931660208401528201526060016101ff565b6007546e010000000000000000000000000000900461ffff16610323565b6103cd7f000000000000000000000000000000000000000000000000000000000000000081565b60405173ffffffffffffffffffffffffffffffffffffffff90911681526020016101ff565b6103236109e6565b61032361040836600461152f565b610ad6565b61032361041b36600461152f565b610bd8565b61043361042e366004611548565b610c5b565b60405190151581526020016101ff565b6102f261045136600461150b565b610efd565b61032361046436600461150b565b6110b5565b600554600654604080519283526020830191909152016101ff565b6103cd7f000000000000000000000000000000000000000000000000000000000000000081565b60075468010000000000000000900465ffffffffffff16610323565b6103237f439148f0bbc682ca079e46d6e2c2f0c1e3b820f1a291b069d8882abf8cf18dd981565b6101f2611122565b61043361050436600461150b565b60006020819052908152604090205460ff1681565b6102f26105273660046115e7565b505050565b6105537f000000000000000000000000000000000000000000000000000000000000000081565b6040516fffffffffffffffffffffffffffffffff90911681526020016101ff565b60075467ffffffffffffffff16610323565b6103237f000000000000000000000000000000000000000000000000000000000000000081565b6103237f000000000000000000000000000000000000000000000000000000000000000081565b6103cd7f000000000000000000000000000000000000000000000000000000000000000081565b610323610609366004611625565b61112f565b6103cd731887118e49e0f4a78bd71b792a49de03504a764d81565b6001546103cd9073ffffffffffffffffffffffffffffffffffffffff1681565b6008805461065690611651565b80601f016020809104026020016040519081016040528092919081815260200182805461068290611651565b80156106cf5780601f106106a4576101008083540402835291602001916106cf565b820191906000526020600020905b8154815290600101906020018083116106b257829003601f168201915b505050505081565b3360009081526020819052604090205460ff16610755576040517f08c379a000000000000000000000000000000000000000000000000000000000815260206004820152600960248201527f554e54525553544544000000000000000000000000000000000000000000000060448201526064015b60405180910390fd5b73ffffffffffffffffffffffffffffffffffffffff82166000818152602081815260409182902080547fffffffffffffffffffffffffffffffffffffffffffffffffffffffffffffff001685151590811790915591519182527fe95aec380cae16330d146d5499ef7db6f3657e477104a733e771bc09e500d986910160405180910390a25050565b3360009081526020819052604090205460ff16610856576040517f08c379a000000000000000000000000000000000000000000000000000000000815260206004820152600960248201527f554e545255535445440000000000000000000000000000000000000000000000604482015260640161074c565b60015460405173ffffffffffffffffffffffffffffffffffffffff8084169216907f952c654458751f95c1440bdb1537809137b3de28466b80ad096a711707ae987a90600090a3600180547fffffffffffffffffffffffff00000000000000000000000000000000000000001673ffffffffffffffffffffffffffffffffffffffff92909216919091179055565b6040517f07a2d13a0000000000000000000000000000000000000000000000000000000081527f000000000000000000000000000000000000000000000000000000000000000060048201526000907f00000000000000000000000000000000000000000000000000000000000000009073ffffffffffffffffffffffffffffffffffffffff7f000000000000000000000000000000000000000000000000000000000000000016906307a2d13a90602401602060405180830381865afa1580156109b3573d6000803e3d6000fd5b505050506040513d601f19601f820116820180604052508101906109d791906116a5565b6109e191906116be565b905090565b6002546040517faea9107800000000000000000000000000000000000000000000000000000000815273ffffffffffffffffffffffffffffffffffffffff7f000000000000000000000000000000000000000000000000000000000000000081166004830152600092169063aea9107890602401602060405180830381865afa158015610a77573d6000803e3d6000fd5b505050506040513d601f19601f82011682018060405250810190610a9b91906116a5565b905080610ad3576040517ebfc92100000000000000000000000000000000000000000000000000000000815260040160405180910390fd5b90565b6000610b1a73ffffffffffffffffffffffffffffffffffffffff7f000000000000000000000000000000000000000000000000000000000000000016333085611278565b6040517f6e553f65000000000000000000000000000000000000000000000000000000008152600481018390523360248201527f000000000000000000000000000000000000000000000000000000000000000073ffffffffffffffffffffffffffffffffffffffff1690636e553f65906044015b6020604051808303816000875af1158015610bae573d6000803e3d6000fd5b505050506040513d601f19601f82011682018060405250810190610bd291906116a5565b92915050565b6040517fba08765200000000000000000000000000000000000000000000000000000000815260048101829052336024820181905260448201526000907f000000000000000000000000000000000000000000000000000000000000000073ffffffffffffffffffffffffffffffffffffffff169063ba08765290606401610b8f565b60003373ffffffffffffffffffffffffffffffffffffffff167f000000000000000000000000000000000000000000000000000000000000000073ffffffffffffffffffffffffffffffffffffffff166377aace1a6040518163ffffffff1660e01b8152600401602060405180830381865afa158015610cdf573d6000803e3d6000fd5b505050506040513d601f19601f82011682018060405250810190610d039190611722565b73ffffffffffffffffffffffffffffffffffffffff1614610d50576040517ffb02114900000000000000000000000000000000000000000000000000000000815260040160405180910390fd5b610d9173ffffffffffffffffffffffffffffffffffffffff7f000000000000000000000000000000000000000000000000000000000000000016878661133e565b6040517f23e30c8b00000000000000000000000000000000000000000000000000000000815260009073ffffffffffffffffffffffffffffffffffffffff8816906323e30c8b90610e109033907f0000000000000000000000000000000000000000000000000000000000000000908a9087908b908b9060040161173f565b6020604051808303816000875af1158015610e2f573d6000803e3d6000fd5b505050506040513d601f19601f82011682018060405250810190610e5391906116a5565b90507f439148f0bbc682ca079e46d6e2c2f0c1e3b820f1a291b069d8882abf8cf18dd98114610eae576040517f207df21c00000000000000000000000000000000000000000000000000000000815260040160405180910390fd5b610ef073ffffffffffffffffffffffffffffffffffffffff7f000000000000000000000000000000000000000000000000000000000000000016883088611278565b5060019695505050505050565b7f000000000000000000000000000000000000000000000000000000000000000073ffffffffffffffffffffffffffffffffffffffff168173ffffffffffffffffffffffffffffffffffffffff161480610f71575060035473ffffffffffffffffffffffffffffffffffffffff8281169116145b15610fa8576040517f3dd1b30500000000000000000000000000000000000000000000000000000000815260040160405180910390fd5b6040517f70a08231000000000000000000000000000000000000000000000000000000008152306004820152819060009073ffffffffffffffffffffffffffffffffffffffff8316906370a0823190602401602060405180830381865afa158015611017573d6000803e3d6000fd5b505050506040513d601f19601f8201168201806040525081019061103b91906116a5565b6001549091506110659073ffffffffffffffffffffffffffffffffffffffff84811691168361133e565b600154604051829173ffffffffffffffffffffffffffffffffffffffff90811691908616907f9310ccfcb8de723f578a9e4282ea9f521f05ae40dc08f3068dfad528a65ee3c790600090a4505050565b6040517f70a0823100000000000000000000000000000000000000000000000000000000815230600482015260009073ffffffffffffffffffffffffffffffffffffffff8316906370a0823190602401602060405180830381865afa158015610bae573d6000803e3d6000fd5b6009805461065690611651565b60007f000000000000000000000000000000000000000000000000000000000000000073ffffffffffffffffffffffffffffffffffffffff168373ffffffffffffffffffffffffffffffffffffffff16146111b6576040517f3dd1b30500000000000000000000000000000000000000000000000000000000815260040160405180910390fd5b50600092915050565b60006040517f095ea7b3000000000000000000000000000000000000000000000000000000008152836004820152826024820152602060006044836000895af13d15601f3d1160016000511416171691505080610302576040517f08c379a000000000000000000000000000000000000000000000000000000000815260206004820152600e60248201527f415050524f56455f4641494c4544000000000000000000000000000000000000604482015260640161074c565b60006040517f23b872dd0000000000000000000000000000000000000000000000000000000081528460048201528360248201528260448201526020600060648360008a5af13d15601f3d1160016000511416171691505080611337576040517f08c379a000000000000000000000000000000000000000000000000000000000815260206004820152601460248201527f5452414e534645525f46524f4d5f4641494c4544000000000000000000000000604482015260640161074c565b5050505050565b60006040517fa9059cbb000000000000000000000000000000000000000000000000000000008152836004820152826024820152602060006044836000895af13d15601f3d1160016000511416171691505080610302576040517f08c379a000000000000000000000000000000000000000000000000000000000815260206004820152600f60248201527f5452414e534645525f4641494c45440000000000000000000000000000000000604482015260640161074c565b600060208083528351808285015260005b8181101561142457858101830151858201604001528201611408565b81811115611436576000604083870101525b50601f017fffffffffffffffffffffffffffffffffffffffffffffffffffffffffffffffe016929092016040019392505050565b73ffffffffffffffffffffffffffffffffffffffff8116811461148c57600080fd5b50565b8035801515811461149f57600080fd5b919050565b600080604083850312156114b757600080fd5b82356114c28161146a565b91506114d06020840161148f565b90509250929050565b600080600080608085870312156114ef57600080fd5b5050823594602084013594506040840135936060013592509050565b60006020828403121561151d57600080fd5b81356115288161146a565b9392505050565b60006020828403121561154157600080fd5b5035919050565b60008060008060006080868803121561156057600080fd5b853561156b8161146a565b9450602086013561157b8161146a565b935060408601359250606086013567ffffffffffffffff8082111561159f57600080fd5b818801915088601f8301126115b357600080fd5b8135818111156115c257600080fd5b8960208285010111156115d457600080fd5b9699959850939650602001949392505050565b6000806000606084860312156115fc57600080fd5b83356116078161146a565b92506020840135915061161c6040850161148f565b90509250925092565b6000806040838503121561163857600080fd5b82356116438161146a565b946020939093013593505050565b600181811c9082168061166557607f821691505b6020821081141561169f577f4e487b7100000000000000000000000000000000000000000000000000000000600052602260045260246000fd5b50919050565b6000602082840312156116b757600080fd5b5051919050565b6000817fffffffffffffffffffffffffffffffffffffffffffffffffffffffffffffffff048311821515161561171d577f4e487b7100000000000000000000000000000000000000000000000000000000600052601160045260246000fd5b500290565b60006020828403121561173457600080fd5b81516115288161146a565b600073ffffffffffffffffffffffffffffffffffffffff808916835280881660208401525085604083015284606083015260a060808301528260a0830152828460c0840137600060c0848401015260c07fffffffffffffffffffffffffffffffffffffffffffffffffffffffffffffffe0601f850116830101905097965050505050505056fea2646970667358221220e00b8665331451c6068edd5514c063abf1108e8576e16f2629c9417f17bb852264736f6c634300080b0033a2646970667358221220b6c0ac7452e8f3f7c25808bb5d5274393ac3c9e0bed90296ababf97147df844564736f6c634300080b0033",
  "devdoc": {
    "kind": "dev",
    "methods": {
      "deployAdapter(address,bytes)": {
        "params": {
          "_target": "The target address",
          "data": "ABI encoded reward tokens address array"
        }
      },
      "setRewardsRecipient(address)": {
        "details": "existing adapters rewards recipients will not be changed and can be done through `setRewardsRecipient` on each adapter contract"
      },
      "supportTarget(address,bool)": {
        "params": {
          "_target": "The target address",
          "supported": "Whether the target should be supported or not"
        }
      },
      "supportTargets(address[],bool)": {
        "params": {
          "_targets": "Array of target addresses",
          "supported": "Whether the targets should be supported or not"
        }
      }
    },
    "version": 1
  },
  "userdoc": {
    "kind": "user",
    "methods": {
      "DEFAULT_LEVEL()": {
        "notice": "Sets level to `31` by default, which keeps all Divider lifecycle methods public (`issue`, `combine`, `collect`, etc), but not the `onRedeem` hook."
      },
      "deployAdapter(address,bytes)": {
        "notice": "Deploys an ERC4626Adapter contract"
      },
      "divider()": {
        "notice": "Sense core Divider address"
      },
      "factoryParams()": {
        "notice": "params for adapters deployed with this factory"
      },
      "restrictedAdmin()": {
        "notice": "Adapter admin address"
      },
      "rewardsRecipient()": {
        "notice": "Rewards recipient"
      },
      "setRewardsRecipient(address)": {
        "notice": "Set factory rewards recipientall future deployed adapters will have the new rewards recipient"
      },
      "supportTarget(address,bool)": {
        "notice": "(Un)support target"
      },
      "supportTargets(address[],bool)": {
        "notice": "(Un)support multiple target at once"
      }
    },
    "version": 1
  },
  "storageLayout": {
    "storage": [
      {
        "astId": 21535,
        "contract": "@sense-finance/v1-core/src/adapters/abstract/factories/ERC4626Factory.sol:ERC4626Factory",
        "label": "isTrusted",
        "offset": 0,
        "slot": "0",
        "type": "t_mapping(t_address,t_bool)"
      },
      {
        "astId": 10330,
        "contract": "@sense-finance/v1-core/src/adapters/abstract/factories/ERC4626Factory.sol:ERC4626Factory",
        "label": "restrictedAdmin",
        "offset": 0,
        "slot": "1",
        "type": "t_address"
      },
      {
        "astId": 10333,
        "contract": "@sense-finance/v1-core/src/adapters/abstract/factories/ERC4626Factory.sol:ERC4626Factory",
        "label": "rewardsRecipient",
        "offset": 0,
        "slot": "2",
        "type": "t_address"
      },
      {
        "astId": 10337,
        "contract": "@sense-finance/v1-core/src/adapters/abstract/factories/ERC4626Factory.sol:ERC4626Factory",
        "label": "factoryParams",
        "offset": 0,
        "slot": "3",
        "type": "t_struct(FactoryParams)10356_storage"
      },
      {
        "astId": 11056,
        "contract": "@sense-finance/v1-core/src/adapters/abstract/factories/ERC4626Factory.sol:ERC4626Factory",
        "label": "supportedTargets",
        "offset": 0,
        "slot": "10",
        "type": "t_mapping(t_address,t_bool)"
      }
    ],
    "types": {
      "t_address": {
        "encoding": "inplace",
        "label": "address",
        "numberOfBytes": "20"
      },
      "t_bool": {
        "encoding": "inplace",
        "label": "bool",
        "numberOfBytes": "1"
      },
      "t_mapping(t_address,t_bool)": {
        "encoding": "mapping",
        "key": "t_address",
        "label": "mapping(address => bool)",
        "numberOfBytes": "32",
        "value": "t_bool"
      },
      "t_struct(FactoryParams)10356_storage": {
        "encoding": "inplace",
        "label": "struct BaseFactory.FactoryParams",
        "members": [
          {
            "astId": 10339,
            "contract": "@sense-finance/v1-core/src/adapters/abstract/factories/ERC4626Factory.sol:ERC4626Factory",
            "label": "oracle",
            "offset": 0,
            "slot": "0",
            "type": "t_address"
          },
          {
            "astId": 10341,
            "contract": "@sense-finance/v1-core/src/adapters/abstract/factories/ERC4626Factory.sol:ERC4626Factory",
            "label": "stake",
            "offset": 0,
            "slot": "1",
            "type": "t_address"
          },
          {
            "astId": 10343,
            "contract": "@sense-finance/v1-core/src/adapters/abstract/factories/ERC4626Factory.sol:ERC4626Factory",
            "label": "stakeSize",
            "offset": 0,
            "slot": "2",
            "type": "t_uint256"
          },
          {
            "astId": 10345,
            "contract": "@sense-finance/v1-core/src/adapters/abstract/factories/ERC4626Factory.sol:ERC4626Factory",
            "label": "minm",
            "offset": 0,
            "slot": "3",
            "type": "t_uint256"
          },
          {
            "astId": 10347,
            "contract": "@sense-finance/v1-core/src/adapters/abstract/factories/ERC4626Factory.sol:ERC4626Factory",
            "label": "maxm",
            "offset": 0,
            "slot": "4",
            "type": "t_uint256"
          },
          {
            "astId": 10349,
            "contract": "@sense-finance/v1-core/src/adapters/abstract/factories/ERC4626Factory.sol:ERC4626Factory",
            "label": "ifee",
            "offset": 0,
            "slot": "5",
            "type": "t_uint128"
          },
          {
            "astId": 10351,
            "contract": "@sense-finance/v1-core/src/adapters/abstract/factories/ERC4626Factory.sol:ERC4626Factory",
            "label": "mode",
            "offset": 16,
            "slot": "5",
            "type": "t_uint16"
          },
          {
            "astId": 10353,
            "contract": "@sense-finance/v1-core/src/adapters/abstract/factories/ERC4626Factory.sol:ERC4626Factory",
            "label": "tilt",
            "offset": 18,
            "slot": "5",
            "type": "t_uint64"
          },
          {
            "astId": 10355,
            "contract": "@sense-finance/v1-core/src/adapters/abstract/factories/ERC4626Factory.sol:ERC4626Factory",
            "label": "guard",
            "offset": 0,
            "slot": "6",
            "type": "t_uint256"
          }
        ],
        "numberOfBytes": "224"
      },
      "t_uint128": {
        "encoding": "inplace",
        "label": "uint128",
        "numberOfBytes": "16"
      },
      "t_uint16": {
        "encoding": "inplace",
        "label": "uint16",
        "numberOfBytes": "2"
      },
      "t_uint256": {
        "encoding": "inplace",
        "label": "uint256",
        "numberOfBytes": "32"
      },
      "t_uint64": {
        "encoding": "inplace",
        "label": "uint64",
        "numberOfBytes": "8"
      }
    }
  }
}