{
  "address": "0xAe90a191999DfA22d42c2D704f4712D6eb3cB0B3",
  "abi": [
    {
      "inputs": [
        {
          "internalType": "address",
          "name": "_divider",
          "type": "address"
        },
        {
          "internalType": "address",
          "name": "_spaceFactory",
          "type": "address"
        },
        {
          "internalType": "address",
          "name": "_balancerVault",
          "type": "address"
        },
        {
          "internalType": "address",
          "name": "_permit2",
          "type": "address"
        },
        {
          "internalType": "address",
          "name": "_exchangeProxy",
          "type": "address"
        }
      ],
      "stateMutability": "nonpayable",
      "type": "constructor"
    },
    {
      "inputs": [],
      "name": "ExistingValue",
      "type": "error"
    },
    {
      "inputs": [],
      "name": "FactoryNotSupported",
      "type": "error"
    },
    {
      "inputs": [],
      "name": "FlashBorrowFailed",
      "type": "error"
    },
    {
      "inputs": [],
      "name": "FlashUntrustedBorrower",
      "type": "error"
    },
    {
      "inputs": [],
      "name": "FlashUntrustedLoanInitiator",
      "type": "error"
    },
    {
      "inputs": [],
      "name": "InvalidExchangeProxy",
      "type": "error"
    },
    {
      "inputs": [],
      "name": "OnlyPeriphery",
      "type": "error"
    },
    {
      "inputs": [],
      "name": "OnlyPermissionless",
      "type": "error"
    },
    {
      "inputs": [],
      "name": "SwapTooSmall",
      "type": "error"
    },
    {
      "inputs": [],
      "name": "TransferFailed",
      "type": "error"
    },
    {
      "inputs": [],
      "name": "UnexpectedSwapAmount",
      "type": "error"
    },
    {
      "inputs": [
        {
          "internalType": "bytes",
          "name": "",
          "type": "bytes"
        }
      ],
      "name": "ZeroExSwapFailed",
      "type": "error"
    },
    {
      "inputs": [],
      "name": "ZeroSwapAmt",
      "type": "error"
    },
    {
      "anonymous": false,
      "inputs": [
        {
          "indexed": true,
          "internalType": "address",
          "name": "adapter",
          "type": "address"
        }
      ],
      "name": "AdapterDeployed",
      "type": "event"
    },
    {
      "anonymous": false,
      "inputs": [
        {
          "indexed": true,
          "internalType": "address",
          "name": "adapter",
          "type": "address"
        }
      ],
      "name": "AdapterOnboarded",
      "type": "event"
    },
    {
      "anonymous": false,
      "inputs": [
        {
          "indexed": true,
          "internalType": "address",
          "name": "adapter",
          "type": "address"
        }
      ],
      "name": "AdapterVerified",
      "type": "event"
    },
    {
      "anonymous": false,
      "inputs": [
        {
          "indexed": true,
          "internalType": "address",
          "name": "sellToken",
          "type": "address"
        },
        {
          "indexed": true,
          "internalType": "address",
          "name": "buyToken",
          "type": "address"
        },
        {
          "indexed": false,
          "internalType": "uint256",
          "name": "sellAmount",
          "type": "uint256"
        },
        {
          "indexed": true,
          "internalType": "uint256",
          "name": "boughtAmount",
          "type": "uint256"
        }
      ],
      "name": "BoughtTokens",
      "type": "event"
    },
    {
      "anonymous": false,
      "inputs": [
        {
          "indexed": true,
          "internalType": "address",
          "name": "factory",
          "type": "address"
        },
        {
          "indexed": true,
          "internalType": "bool",
          "name": "isOn",
          "type": "bool"
        }
      ],
      "name": "FactoryChanged",
      "type": "event"
    },
    {
      "anonymous": false,
      "inputs": [
        {
          "indexed": true,
          "internalType": "address",
          "name": "adapter",
          "type": "address"
        },
        {
          "indexed": true,
          "internalType": "uint256",
          "name": "maturity",
          "type": "uint256"
        },
        {
          "indexed": true,
          "internalType": "address",
          "name": "sponsor",
          "type": "address"
        }
      ],
      "name": "SeriesSponsored",
      "type": "event"
    },
    {
      "anonymous": false,
      "inputs": [
        {
          "indexed": false,
          "internalType": "address",
          "name": "oldSpaceFactory",
          "type": "address"
        },
        {
          "indexed": false,
          "internalType": "address",
          "name": "newSpaceFactory",
          "type": "address"
        }
      ],
      "name": "SpaceFactoryChanged",
      "type": "event"
    },
    {
      "anonymous": false,
      "inputs": [
        {
          "indexed": true,
          "internalType": "address",
          "name": "sender",
          "type": "address"
        },
        {
          "indexed": true,
          "internalType": "bytes32",
          "name": "poolId",
          "type": "bytes32"
        },
        {
          "indexed": false,
          "internalType": "address",
          "name": "assetIn",
          "type": "address"
        },
        {
          "indexed": false,
          "internalType": "address",
          "name": "assetOut",
          "type": "address"
        },
        {
          "indexed": false,
          "internalType": "uint256",
          "name": "amountIn",
          "type": "uint256"
        },
        {
          "indexed": false,
          "internalType": "uint256",
          "name": "amountOut",
          "type": "uint256"
        },
        {
          "indexed": true,
          "internalType": "bytes4",
          "name": "sig",
          "type": "bytes4"
        }
      ],
      "name": "Swapped",
      "type": "event"
    },
    {
      "anonymous": false,
      "inputs": [
        {
          "indexed": true,
          "internalType": "address",
          "name": "user",
          "type": "address"
        },
        {
          "indexed": false,
          "internalType": "bool",
          "name": "trusted",
          "type": "bool"
        }
      ],
      "name": "UserTrustUpdated",
      "type": "event"
    },
    {
      "anonymous": false,
      "inputs": [
        {
          "indexed": true,
          "internalType": "address",
          "name": "sender",
          "type": "address"
        },
        {
          "indexed": false,
          "internalType": "address",
          "name": "adapter",
          "type": "address"
        },
        {
          "indexed": false,
          "internalType": "uint256",
          "name": "maturity",
          "type": "uint256"
        },
        {
          "indexed": false,
          "internalType": "uint256",
          "name": "targetIn",
          "type": "uint256"
        },
        {
          "indexed": false,
          "internalType": "uint256",
          "name": "targetReturned",
          "type": "uint256"
        },
        {
          "indexed": false,
          "internalType": "uint256",
          "name": "ytOut",
          "type": "uint256"
        }
      ],
      "name": "YTsPurchased",
      "type": "event"
    },
    {
      "inputs": [],
      "name": "ETH",
      "outputs": [
        {
          "internalType": "address",
          "name": "",
          "type": "address"
        }
      ],
      "stateMutability": "view",
      "type": "function"
    },
    {
      "inputs": [],
      "name": "MIN_YT_SWAP_IN",
      "outputs": [
        {
          "internalType": "uint256",
          "name": "",
          "type": "uint256"
        }
      ],
      "stateMutability": "view",
      "type": "function"
    },
    {
      "inputs": [],
      "name": "PRICE_ESTIMATE_ACCEPTABLE_ERROR",
      "outputs": [
        {
          "internalType": "uint256",
          "name": "",
          "type": "uint256"
        }
      ],
      "stateMutability": "view",
      "type": "function"
    },
    {
      "inputs": [
        {
          "internalType": "address",
          "name": "adapter",
          "type": "address"
        },
        {
          "internalType": "uint256",
          "name": "maturity",
          "type": "uint256"
        },
        {
          "internalType": "uint256",
          "name": "amt",
          "type": "uint256"
        },
        {
          "components": [
            {
              "internalType": "uint256",
              "name": "minAccepted",
              "type": "uint256"
            },
            {
              "internalType": "uint256",
              "name": "minBptOut",
              "type": "uint256"
            },
            {
              "internalType": "uint256",
              "name": "deadline",
              "type": "uint256"
            }
          ],
          "internalType": "struct Periphery.AddLiquidityParams",
          "name": "params",
          "type": "tuple"
        },
        {
          "internalType": "uint8",
          "name": "mode",
          "type": "uint8"
        },
        {
          "internalType": "address",
          "name": "receiver",
          "type": "address"
        },
        {
          "components": [
            {
              "components": [
                {
                  "components": [
                    {
                      "internalType": "contract ERC20",
                      "name": "token",
                      "type": "address"
                    },
                    {
                      "internalType": "uint256",
                      "name": "amount",
                      "type": "uint256"
                    }
                  ],
                  "internalType": "struct IPermit2.TokenPermissions",
                  "name": "permitted",
                  "type": "tuple"
                },
                {
                  "internalType": "uint256",
                  "name": "nonce",
                  "type": "uint256"
                },
                {
                  "internalType": "uint256",
                  "name": "deadline",
                  "type": "uint256"
                }
              ],
              "internalType": "struct IPermit2.PermitTransferFrom",
              "name": "msg",
              "type": "tuple"
            },
            {
              "internalType": "bytes",
              "name": "sig",
              "type": "bytes"
            }
          ],
          "internalType": "struct Periphery.PermitData",
          "name": "permit",
          "type": "tuple"
        },
        {
          "components": [
            {
              "internalType": "contract ERC20",
              "name": "sellToken",
              "type": "address"
            },
            {
              "internalType": "contract ERC20",
              "name": "buyToken",
              "type": "address"
            },
            {
              "internalType": "uint256",
              "name": "amount",
              "type": "uint256"
            },
            {
              "internalType": "address",
              "name": "spender",
              "type": "address"
            },
            {
              "internalType": "address payable",
              "name": "swapTarget",
              "type": "address"
            },
            {
              "internalType": "bytes",
              "name": "swapCallData",
              "type": "bytes"
            }
          ],
          "internalType": "struct Periphery.SwapQuote",
          "name": "quote",
          "type": "tuple"
        }
      ],
      "name": "addLiquidity",
      "outputs": [
        {
          "internalType": "uint256",
          "name": "tAmount",
          "type": "uint256"
        },
        {
          "internalType": "uint256",
          "name": "issued",
          "type": "uint256"
        },
        {
          "internalType": "uint256",
          "name": "lpShares",
          "type": "uint256"
        }
      ],
      "stateMutability": "payable",
      "type": "function"
    },
    {
      "inputs": [],
      "name": "balancerVault",
      "outputs": [
        {
          "internalType": "contract BalancerVault",
          "name": "",
          "type": "address"
        }
      ],
      "stateMutability": "view",
      "type": "function"
    },
    {
      "inputs": [
        {
          "internalType": "address",
          "name": "adapter",
          "type": "address"
        },
        {
          "internalType": "uint256",
          "name": "maturity",
          "type": "uint256"
        },
        {
          "internalType": "uint256",
          "name": "uBal",
          "type": "uint256"
        },
        {
          "internalType": "address",
          "name": "receiver",
          "type": "address"
        },
        {
          "components": [
            {
              "components": [
                {
                  "components": [
                    {
                      "internalType": "contract ERC20",
                      "name": "token",
                      "type": "address"
                    },
                    {
                      "internalType": "uint256",
                      "name": "amount",
                      "type": "uint256"
                    }
                  ],
                  "internalType": "struct IPermit2.TokenPermissions[]",
                  "name": "permitted",
                  "type": "tuple[]"
                },
                {
                  "internalType": "uint256",
                  "name": "nonce",
                  "type": "uint256"
                },
                {
                  "internalType": "uint256",
                  "name": "deadline",
                  "type": "uint256"
                }
              ],
              "internalType": "struct IPermit2.PermitBatchTransferFrom",
              "name": "msg",
              "type": "tuple"
            },
            {
              "internalType": "bytes",
              "name": "sig",
              "type": "bytes"
            }
          ],
          "internalType": "struct Periphery.PermitBatchData",
          "name": "permit",
          "type": "tuple"
        },
        {
          "components": [
            {
              "internalType": "contract ERC20",
              "name": "sellToken",
              "type": "address"
            },
            {
              "internalType": "contract ERC20",
              "name": "buyToken",
              "type": "address"
            },
            {
              "internalType": "uint256",
              "name": "amount",
              "type": "uint256"
            },
            {
              "internalType": "address",
              "name": "spender",
              "type": "address"
            },
            {
              "internalType": "address payable",
              "name": "swapTarget",
              "type": "address"
            },
            {
              "internalType": "bytes",
              "name": "swapCallData",
              "type": "bytes"
            }
          ],
          "internalType": "struct Periphery.SwapQuote",
          "name": "quote",
          "type": "tuple"
        }
      ],
      "name": "combine",
      "outputs": [
        {
          "internalType": "uint256",
          "name": "amt",
          "type": "uint256"
        }
      ],
      "stateMutability": "payable",
      "type": "function"
    },
    {
      "inputs": [
        {
          "internalType": "address",
          "name": "f",
          "type": "address"
        },
        {
          "internalType": "address",
          "name": "target",
          "type": "address"
        },
        {
          "internalType": "bytes",
          "name": "data",
          "type": "bytes"
        }
      ],
      "name": "deployAdapter",
      "outputs": [
        {
          "internalType": "address",
          "name": "adapter",
          "type": "address"
        }
      ],
      "stateMutability": "nonpayable",
      "type": "function"
    },
    {
      "inputs": [],
      "name": "divider",
      "outputs": [
        {
          "internalType": "contract Divider",
          "name": "",
          "type": "address"
        }
      ],
      "stateMutability": "view",
      "type": "function"
    },
    {
      "inputs": [],
      "name": "exchangeProxy",
      "outputs": [
        {
          "internalType": "address",
          "name": "",
          "type": "address"
        }
      ],
      "stateMutability": "view",
      "type": "function"
    },
    {
      "inputs": [
        {
          "internalType": "address",
          "name": "",
          "type": "address"
        }
      ],
      "name": "factories",
      "outputs": [
        {
          "internalType": "bool",
          "name": "",
          "type": "bool"
        }
      ],
      "stateMutability": "view",
      "type": "function"
    },
    {
      "inputs": [
        {
          "internalType": "address",
          "name": "",
          "type": "address"
        }
      ],
      "name": "isTrusted",
      "outputs": [
        {
          "internalType": "bool",
          "name": "",
          "type": "bool"
        }
      ],
      "stateMutability": "view",
      "type": "function"
    },
    {
      "inputs": [
        {
          "internalType": "address",
          "name": "adapter",
          "type": "address"
        },
        {
          "internalType": "uint256",
          "name": "maturity",
          "type": "uint256"
        },
        {
          "internalType": "uint256",
          "name": "amt",
          "type": "uint256"
        },
        {
          "internalType": "address",
          "name": "receiver",
          "type": "address"
        },
        {
          "components": [
            {
              "components": [
                {
                  "components": [
                    {
                      "internalType": "contract ERC20",
                      "name": "token",
                      "type": "address"
                    },
                    {
                      "internalType": "uint256",
                      "name": "amount",
                      "type": "uint256"
                    }
                  ],
                  "internalType": "struct IPermit2.TokenPermissions",
                  "name": "permitted",
                  "type": "tuple"
                },
                {
                  "internalType": "uint256",
                  "name": "nonce",
                  "type": "uint256"
                },
                {
                  "internalType": "uint256",
                  "name": "deadline",
                  "type": "uint256"
                }
              ],
              "internalType": "struct IPermit2.PermitTransferFrom",
              "name": "msg",
              "type": "tuple"
            },
            {
              "internalType": "bytes",
              "name": "sig",
              "type": "bytes"
            }
          ],
          "internalType": "struct Periphery.PermitData",
          "name": "permit",
          "type": "tuple"
        },
        {
          "components": [
            {
              "internalType": "contract ERC20",
              "name": "sellToken",
              "type": "address"
            },
            {
              "internalType": "contract ERC20",
              "name": "buyToken",
              "type": "address"
            },
            {
              "internalType": "uint256",
              "name": "amount",
              "type": "uint256"
            },
            {
              "internalType": "address",
              "name": "spender",
              "type": "address"
            },
            {
              "internalType": "address payable",
              "name": "swapTarget",
              "type": "address"
            },
            {
              "internalType": "bytes",
              "name": "swapCallData",
              "type": "bytes"
            }
          ],
          "internalType": "struct Periphery.SwapQuote",
          "name": "quote",
          "type": "tuple"
        }
      ],
      "name": "issue",
      "outputs": [
        {
          "internalType": "uint256",
          "name": "uBal",
          "type": "uint256"
        }
      ],
      "stateMutability": "payable",
      "type": "function"
    },
    {
      "inputs": [
        {
          "internalType": "address",
          "name": "initiator",
          "type": "address"
        },
        {
          "internalType": "address",
          "name": "",
          "type": "address"
        },
        {
          "internalType": "uint256",
          "name": "amountBorrrowed",
          "type": "uint256"
        },
        {
          "internalType": "uint256",
          "name": "",
          "type": "uint256"
        },
        {
          "internalType": "bytes",
          "name": "data",
          "type": "bytes"
        }
      ],
      "name": "onFlashLoan",
      "outputs": [
        {
          "internalType": "bytes32",
          "name": "",
          "type": "bytes32"
        }
      ],
      "stateMutability": "nonpayable",
      "type": "function"
    },
    {
      "inputs": [
        {
          "internalType": "address",
          "name": "adapter",
          "type": "address"
        },
        {
          "internalType": "bool",
          "name": "addAdapter",
          "type": "bool"
        }
      ],
      "name": "onboardAdapter",
      "outputs": [],
      "stateMutability": "nonpayable",
      "type": "function"
    },
    {
      "inputs": [],
      "name": "permit2",
      "outputs": [
        {
          "internalType": "contract IPermit2",
          "name": "",
          "type": "address"
        }
      ],
      "stateMutability": "view",
      "type": "function"
    },
    {
      "inputs": [
        {
          "internalType": "address",
          "name": "adapter",
          "type": "address"
        },
        {
          "internalType": "uint256",
          "name": "maturity",
          "type": "uint256"
        },
        {
          "internalType": "uint256",
          "name": "lpBal",
          "type": "uint256"
        },
        {
          "components": [
            {
              "internalType": "uint256",
              "name": "minAccepted",
              "type": "uint256"
            },
            {
              "internalType": "uint256[]",
              "name": "minAmountsOut",
              "type": "uint256[]"
            },
            {
              "internalType": "uint256",
              "name": "deadline",
              "type": "uint256"
            }
          ],
          "internalType": "struct Periphery.RemoveLiquidityParams",
          "name": "params",
          "type": "tuple"
        },
        {
          "internalType": "bool",
          "name": "swapPTs",
          "type": "bool"
        },
        {
          "internalType": "address",
          "name": "receiver",
          "type": "address"
        },
        {
          "components": [
            {
              "components": [
                {
                  "components": [
                    {
                      "internalType": "contract ERC20",
                      "name": "token",
                      "type": "address"
                    },
                    {
                      "internalType": "uint256",
                      "name": "amount",
                      "type": "uint256"
                    }
                  ],
                  "internalType": "struct IPermit2.TokenPermissions",
                  "name": "permitted",
                  "type": "tuple"
                },
                {
                  "internalType": "uint256",
                  "name": "nonce",
                  "type": "uint256"
                },
                {
                  "internalType": "uint256",
                  "name": "deadline",
                  "type": "uint256"
                }
              ],
              "internalType": "struct IPermit2.PermitTransferFrom",
              "name": "msg",
              "type": "tuple"
            },
            {
              "internalType": "bytes",
              "name": "sig",
              "type": "bytes"
            }
          ],
          "internalType": "struct Periphery.PermitData",
          "name": "permit",
          "type": "tuple"
        },
        {
          "components": [
            {
              "internalType": "contract ERC20",
              "name": "sellToken",
              "type": "address"
            },
            {
              "internalType": "contract ERC20",
              "name": "buyToken",
              "type": "address"
            },
            {
              "internalType": "uint256",
              "name": "amount",
              "type": "uint256"
            },
            {
              "internalType": "address",
              "name": "spender",
              "type": "address"
            },
            {
              "internalType": "address payable",
              "name": "swapTarget",
              "type": "address"
            },
            {
              "internalType": "bytes",
              "name": "swapCallData",
              "type": "bytes"
            }
          ],
          "internalType": "struct Periphery.SwapQuote",
          "name": "quote",
          "type": "tuple"
        }
      ],
      "name": "removeLiquidity",
      "outputs": [
        {
          "internalType": "uint256",
          "name": "amt",
          "type": "uint256"
        },
        {
          "internalType": "uint256",
          "name": "ptBal",
          "type": "uint256"
        }
      ],
      "stateMutability": "payable",
      "type": "function"
    },
    {
      "inputs": [
        {
          "internalType": "address",
          "name": "f",
          "type": "address"
        },
        {
          "internalType": "bool",
          "name": "isOn",
          "type": "bool"
        }
      ],
      "name": "setFactory",
      "outputs": [],
      "stateMutability": "nonpayable",
      "type": "function"
    },
    {
      "inputs": [
        {
          "internalType": "address",
          "name": "user",
          "type": "address"
        },
        {
          "internalType": "bool",
          "name": "trusted",
          "type": "bool"
        }
      ],
      "name": "setIsTrusted",
      "outputs": [],
      "stateMutability": "nonpayable",
      "type": "function"
    },
    {
      "inputs": [
        {
          "internalType": "address",
          "name": "newSpaceFactory",
          "type": "address"
        }
      ],
      "name": "setSpaceFactory",
      "outputs": [],
      "stateMutability": "nonpayable",
      "type": "function"
    },
    {
      "inputs": [],
      "name": "spaceFactory",
      "outputs": [
        {
          "internalType": "contract SpaceFactoryLike",
          "name": "",
          "type": "address"
        }
      ],
      "stateMutability": "view",
      "type": "function"
    },
    {
      "inputs": [
        {
          "internalType": "address",
          "name": "adapter",
          "type": "address"
        },
        {
          "internalType": "uint256",
          "name": "maturity",
          "type": "uint256"
        },
        {
          "internalType": "bool",
          "name": "withPool",
          "type": "bool"
        },
        {
          "components": [
            {
              "components": [
                {
                  "components": [
                    {
                      "internalType": "contract ERC20",
                      "name": "token",
                      "type": "address"
                    },
                    {
                      "internalType": "uint256",
                      "name": "amount",
                      "type": "uint256"
                    }
                  ],
                  "internalType": "struct IPermit2.TokenPermissions",
                  "name": "permitted",
                  "type": "tuple"
                },
                {
                  "internalType": "uint256",
                  "name": "nonce",
                  "type": "uint256"
                },
                {
                  "internalType": "uint256",
                  "name": "deadline",
                  "type": "uint256"
                }
              ],
              "internalType": "struct IPermit2.PermitTransferFrom",
              "name": "msg",
              "type": "tuple"
            },
            {
              "internalType": "bytes",
              "name": "sig",
              "type": "bytes"
            }
          ],
          "internalType": "struct Periphery.PermitData",
          "name": "permit",
          "type": "tuple"
        },
        {
          "components": [
            {
              "internalType": "contract ERC20",
              "name": "sellToken",
              "type": "address"
            },
            {
              "internalType": "contract ERC20",
              "name": "buyToken",
              "type": "address"
            },
            {
              "internalType": "uint256",
              "name": "amount",
              "type": "uint256"
            },
            {
              "internalType": "address",
              "name": "spender",
              "type": "address"
            },
            {
              "internalType": "address payable",
              "name": "swapTarget",
              "type": "address"
            },
            {
              "internalType": "bytes",
              "name": "swapCallData",
              "type": "bytes"
            }
          ],
          "internalType": "struct Periphery.SwapQuote",
          "name": "quote",
          "type": "tuple"
        }
      ],
      "name": "sponsorSeries",
      "outputs": [
        {
          "internalType": "address",
          "name": "pt",
          "type": "address"
        },
        {
          "internalType": "address",
          "name": "yt",
          "type": "address"
        }
      ],
      "stateMutability": "payable",
      "type": "function"
    },
    {
      "inputs": [
        {
          "internalType": "address",
          "name": "adapter",
          "type": "address"
        },
        {
          "internalType": "uint256",
          "name": "maturity",
          "type": "uint256"
        },
        {
          "internalType": "bool",
          "name": "withPool",
          "type": "bool"
        }
      ],
      "name": "sponsorSeries",
      "outputs": [
        {
          "internalType": "address",
          "name": "pt",
          "type": "address"
        },
        {
          "internalType": "address",
          "name": "yt",
          "type": "address"
        }
      ],
      "stateMutability": "nonpayable",
      "type": "function"
    },
    {
      "inputs": [
        {
          "internalType": "address",
          "name": "adapter",
          "type": "address"
        },
        {
          "internalType": "uint256",
          "name": "maturity",
          "type": "uint256"
        },
        {
          "internalType": "uint256",
          "name": "amt",
          "type": "uint256"
        },
        {
          "internalType": "uint256",
          "name": "deadline",
          "type": "uint256"
        },
        {
          "internalType": "uint256",
          "name": "minAccepted",
          "type": "uint256"
        },
        {
          "internalType": "address",
          "name": "receiver",
          "type": "address"
        },
        {
          "components": [
            {
              "components": [
                {
                  "components": [
                    {
                      "internalType": "contract ERC20",
                      "name": "token",
                      "type": "address"
                    },
                    {
                      "internalType": "uint256",
                      "name": "amount",
                      "type": "uint256"
                    }
                  ],
                  "internalType": "struct IPermit2.TokenPermissions",
                  "name": "permitted",
                  "type": "tuple"
                },
                {
                  "internalType": "uint256",
                  "name": "nonce",
                  "type": "uint256"
                },
                {
                  "internalType": "uint256",
                  "name": "deadline",
                  "type": "uint256"
                }
              ],
              "internalType": "struct IPermit2.PermitTransferFrom",
              "name": "msg",
              "type": "tuple"
            },
            {
              "internalType": "bytes",
              "name": "sig",
              "type": "bytes"
            }
          ],
          "internalType": "struct Periphery.PermitData",
          "name": "permit",
          "type": "tuple"
        },
        {
          "components": [
            {
              "internalType": "contract ERC20",
              "name": "sellToken",
              "type": "address"
            },
            {
              "internalType": "contract ERC20",
              "name": "buyToken",
              "type": "address"
            },
            {
              "internalType": "uint256",
              "name": "amount",
              "type": "uint256"
            },
            {
              "internalType": "address",
              "name": "spender",
              "type": "address"
            },
            {
              "internalType": "address payable",
              "name": "swapTarget",
              "type": "address"
            },
            {
              "internalType": "bytes",
              "name": "swapCallData",
              "type": "bytes"
            }
          ],
          "internalType": "struct Periphery.SwapQuote",
          "name": "quote",
          "type": "tuple"
        }
      ],
      "name": "swapForPTs",
      "outputs": [
        {
          "internalType": "uint256",
          "name": "ptBal",
          "type": "uint256"
        }
      ],
      "stateMutability": "payable",
      "type": "function"
    },
    {
      "inputs": [
        {
          "internalType": "address",
          "name": "adapter",
          "type": "address"
        },
        {
          "internalType": "uint256",
          "name": "maturity",
          "type": "uint256"
        },
        {
          "internalType": "uint256",
          "name": "amt",
          "type": "uint256"
        },
        {
          "internalType": "uint256",
          "name": "deadline",
          "type": "uint256"
        },
        {
          "internalType": "uint256",
          "name": "targetToBorrow",
          "type": "uint256"
        },
        {
          "internalType": "uint256",
          "name": "minAccepted",
          "type": "uint256"
        },
        {
          "internalType": "address",
          "name": "receiver",
          "type": "address"
        },
        {
          "components": [
            {
              "components": [
                {
                  "components": [
                    {
                      "internalType": "contract ERC20",
                      "name": "token",
                      "type": "address"
                    },
                    {
                      "internalType": "uint256",
                      "name": "amount",
                      "type": "uint256"
                    }
                  ],
                  "internalType": "struct IPermit2.TokenPermissions",
                  "name": "permitted",
                  "type": "tuple"
                },
                {
                  "internalType": "uint256",
                  "name": "nonce",
                  "type": "uint256"
                },
                {
                  "internalType": "uint256",
                  "name": "deadline",
                  "type": "uint256"
                }
              ],
              "internalType": "struct IPermit2.PermitTransferFrom",
              "name": "msg",
              "type": "tuple"
            },
            {
              "internalType": "bytes",
              "name": "sig",
              "type": "bytes"
            }
          ],
          "internalType": "struct Periphery.PermitData",
          "name": "permit",
          "type": "tuple"
        },
        {
          "components": [
            {
              "internalType": "contract ERC20",
              "name": "sellToken",
              "type": "address"
            },
            {
              "internalType": "contract ERC20",
              "name": "buyToken",
              "type": "address"
            },
            {
              "internalType": "uint256",
              "name": "amount",
              "type": "uint256"
            },
            {
              "internalType": "address",
              "name": "spender",
              "type": "address"
            },
            {
              "internalType": "address payable",
              "name": "swapTarget",
              "type": "address"
            },
            {
              "internalType": "bytes",
              "name": "swapCallData",
              "type": "bytes"
            }
          ],
          "internalType": "struct Periphery.SwapQuote",
          "name": "quote",
          "type": "tuple"
        }
      ],
      "name": "swapForYTs",
      "outputs": [
        {
          "internalType": "uint256",
          "name": "targetBal",
          "type": "uint256"
        },
        {
          "internalType": "uint256",
          "name": "ytBal",
          "type": "uint256"
        }
      ],
      "stateMutability": "payable",
      "type": "function"
    },
    {
      "inputs": [
        {
          "internalType": "address",
          "name": "adapter",
          "type": "address"
        },
        {
          "internalType": "uint256",
          "name": "maturity",
          "type": "uint256"
        },
        {
          "internalType": "uint256",
          "name": "ptBal",
          "type": "uint256"
        },
        {
          "internalType": "uint256",
          "name": "deadline",
          "type": "uint256"
        },
        {
          "internalType": "uint256",
          "name": "minAccepted",
          "type": "uint256"
        },
        {
          "internalType": "address",
          "name": "receiver",
          "type": "address"
        },
        {
          "components": [
            {
              "components": [
                {
                  "components": [
                    {
                      "internalType": "contract ERC20",
                      "name": "token",
                      "type": "address"
                    },
                    {
                      "internalType": "uint256",
                      "name": "amount",
                      "type": "uint256"
                    }
                  ],
                  "internalType": "struct IPermit2.TokenPermissions",
                  "name": "permitted",
                  "type": "tuple"
                },
                {
                  "internalType": "uint256",
                  "name": "nonce",
                  "type": "uint256"
                },
                {
                  "internalType": "uint256",
                  "name": "deadline",
                  "type": "uint256"
                }
              ],
              "internalType": "struct IPermit2.PermitTransferFrom",
              "name": "msg",
              "type": "tuple"
            },
            {
              "internalType": "bytes",
              "name": "sig",
              "type": "bytes"
            }
          ],
          "internalType": "struct Periphery.PermitData",
          "name": "permit",
          "type": "tuple"
        },
        {
          "components": [
            {
              "internalType": "contract ERC20",
              "name": "sellToken",
              "type": "address"
            },
            {
              "internalType": "contract ERC20",
              "name": "buyToken",
              "type": "address"
            },
            {
              "internalType": "uint256",
              "name": "amount",
              "type": "uint256"
            },
            {
              "internalType": "address",
              "name": "spender",
              "type": "address"
            },
            {
              "internalType": "address payable",
              "name": "swapTarget",
              "type": "address"
            },
            {
              "internalType": "bytes",
              "name": "swapCallData",
              "type": "bytes"
            }
          ],
          "internalType": "struct Periphery.SwapQuote",
          "name": "quote",
          "type": "tuple"
        }
      ],
      "name": "swapPTs",
      "outputs": [
        {
          "internalType": "uint256",
          "name": "amt",
          "type": "uint256"
        }
      ],
      "stateMutability": "payable",
      "type": "function"
    },
    {
      "inputs": [
        {
          "internalType": "address",
          "name": "adapter",
          "type": "address"
        },
        {
          "internalType": "uint256",
          "name": "maturity",
          "type": "uint256"
        },
        {
          "internalType": "uint256",
          "name": "ytBal",
          "type": "uint256"
        },
        {
          "internalType": "uint256",
          "name": "deadline",
          "type": "uint256"
        },
        {
          "internalType": "uint256",
          "name": "minAccepted",
          "type": "uint256"
        },
        {
          "internalType": "address",
          "name": "receiver",
          "type": "address"
        },
        {
          "components": [
            {
              "components": [
                {
                  "components": [
                    {
                      "internalType": "contract ERC20",
                      "name": "token",
                      "type": "address"
                    },
                    {
                      "internalType": "uint256",
                      "name": "amount",
                      "type": "uint256"
                    }
                  ],
                  "internalType": "struct IPermit2.TokenPermissions",
                  "name": "permitted",
                  "type": "tuple"
                },
                {
                  "internalType": "uint256",
                  "name": "nonce",
                  "type": "uint256"
                },
                {
                  "internalType": "uint256",
                  "name": "deadline",
                  "type": "uint256"
                }
              ],
              "internalType": "struct IPermit2.PermitTransferFrom",
              "name": "msg",
              "type": "tuple"
            },
            {
              "internalType": "bytes",
              "name": "sig",
              "type": "bytes"
            }
          ],
          "internalType": "struct Periphery.PermitData",
          "name": "permit",
          "type": "tuple"
        },
        {
          "components": [
            {
              "internalType": "contract ERC20",
              "name": "sellToken",
              "type": "address"
            },
            {
              "internalType": "contract ERC20",
              "name": "buyToken",
              "type": "address"
            },
            {
              "internalType": "uint256",
              "name": "amount",
              "type": "uint256"
            },
            {
              "internalType": "address",
              "name": "spender",
              "type": "address"
            },
            {
              "internalType": "address payable",
              "name": "swapTarget",
              "type": "address"
            },
            {
              "internalType": "bytes",
              "name": "swapCallData",
              "type": "bytes"
            }
          ],
          "internalType": "struct Periphery.SwapQuote",
          "name": "quote",
          "type": "tuple"
        }
      ],
      "name": "swapYTs",
      "outputs": [
        {
          "internalType": "uint256",
          "name": "amt",
          "type": "uint256"
        }
      ],
      "stateMutability": "payable",
      "type": "function"
    },
    {
      "inputs": [
        {
          "internalType": "address",
          "name": "adapter",
          "type": "address"
        },
        {
          "internalType": "uint256",
          "name": "maturity",
          "type": "uint256"
        },
        {
          "internalType": "uint256",
          "name": "ytBal",
          "type": "uint256"
        }
      ],
      "name": "swapYTsForTarget",
      "outputs": [
        {
          "internalType": "uint256",
          "name": "amt",
          "type": "uint256"
        }
      ],
      "stateMutability": "nonpayable",
      "type": "function"
    },
    {
      "inputs": [
        {
          "internalType": "address",
          "name": "sender",
          "type": "address"
        },
        {
          "internalType": "address",
          "name": "adapter",
          "type": "address"
        },
        {
          "internalType": "uint256",
          "name": "maturity",
          "type": "uint256"
        },
        {
          "internalType": "uint256",
          "name": "ytBal",
          "type": "uint256"
        },
        {
          "components": [
            {
              "components": [
                {
                  "components": [
                    {
                      "internalType": "contract ERC20",
                      "name": "token",
                      "type": "address"
                    },
                    {
                      "internalType": "uint256",
                      "name": "amount",
                      "type": "uint256"
                    }
                  ],
                  "internalType": "struct IPermit2.TokenPermissions",
                  "name": "permitted",
                  "type": "tuple"
                },
                {
                  "internalType": "uint256",
                  "name": "nonce",
                  "type": "uint256"
                },
                {
                  "internalType": "uint256",
                  "name": "deadline",
                  "type": "uint256"
                }
              ],
              "internalType": "struct IPermit2.PermitTransferFrom",
              "name": "msg",
              "type": "tuple"
            },
            {
              "internalType": "bytes",
              "name": "sig",
              "type": "bytes"
            }
          ],
          "internalType": "struct Periphery.PermitData",
          "name": "permit",
          "type": "tuple"
        }
      ],
      "name": "swapYTsForTargetHelper",
      "outputs": [
        {
          "internalType": "uint256",
          "name": "amt",
          "type": "uint256"
        }
      ],
      "stateMutability": "nonpayable",
      "type": "function"
    },
    {
      "inputs": [
        {
          "internalType": "address",
          "name": "",
          "type": "address"
        }
      ],
      "name": "verified",
      "outputs": [
        {
          "internalType": "bool",
          "name": "",
          "type": "bool"
        }
      ],
      "stateMutability": "view",
      "type": "function"
    },
    {
      "inputs": [
        {
          "internalType": "address",
          "name": "adapter",
          "type": "address"
        }
      ],
      "name": "verifyAdapter",
      "outputs": [],
      "stateMutability": "nonpayable",
      "type": "function"
    },
    {
      "stateMutability": "payable",
      "type": "receive"
    }
  ],
  "transactionHash": "0x1043673cd86d63c569011e048bfa24cb5b6e21039f6b6504f18b2cbfc7da413e",
  "args": [
    "0x86bA3E96Be68563E41c2f5769F1AF9fAf758e6E0",
    "0x9e629751b3FE0b030C219e567156adCB70ad5541",
    "0xBA12222222228d8Ba445958a75a0704d566BF2C8",
    "0x000000000022D473030F116dDEE9F6B43aC78BA3",
    "0xDef1C0ded9bec7F1a1670819833240f027b25EfF"
  ],
  "numDeployments": 1,
  "solcInputHash": "81eb9074076a54e3a0390f7f76fe2da8",
  "bytecode": "0x6101006040523480156200001257600080fd5b506040516200616b3803806200616b8339810160408190526200003591620000df565b3360008181526020818152604091829020805460ff19166001908117909155915191825282917fe95aec380cae16330d146d5499ef7db6f3657e477104a733e771bc09e500d986910160405180910390a2506001600160a01b03948516608052600180546001600160a01b0319169486169490941790935590831660a052821660c0521660e0526200014f565b80516001600160a01b0381168114620000da57600080fd5b919050565b600080600080600060a08688031215620000f857600080fd5b6200010386620000c2565b94506200011360208701620000c2565b93506200012360408701620000c2565b92506200013360608701620000c2565b91506200014360808701620000c2565b90509295509295909350565b60805160a05160c05160e051615ed16200029a6000396000818161050b0152611c9c015260008181610254015281816118fc0152611bc30152600081816102b701528181612679015281816128c40152818161296001528181614155015281816142690152818161438f015281816147cf01526148be01526000818161033e01528181610a1501528181610b9d01528181610c4501528181610cfc01528181610ee501528181610f9b0152818161109b015281816112bd015281816113ff015281816114e20152818161199201528181611f7601528181611fc7015281816123490152818161249901528181612dee01528181612efd01528181613023015281816135370152818161360e0152818161385c0152818161391f01528181613abe01528181613da801528181613e0e01528181613eed01528181613f8b015261456f0152615ed16000f3fe6080604052600436106101905760003560e01c8063857bee5f116100d7578063c3abbc6111610085578063c3abbc61146104c6578063c3fc76fb146104e6578063c7c30be1146104f9578063ce3a91281461052d578063d1fad33314610546578063da43f3d614610574578063fab5268914610594578063fdb8c046146105c457600080fd5b8063857bee5f146103f05780638596d158146104105780638cc5cbc41461042357806396d6487914610436578063a239739614610466578063b16bdcfe14610486578063bfe642ca146104a657600080fd5b806323e30c8b1161013f57806323e30c8b146102f95780632e635fd014610319578063378efa371461032c57806371013c101461036057806372661ff11461038057806374e97152146103935780637fa020fe146103bb5780638322fff2146103ce57600080fd5b806243c14b1461019c578063039c839b146101d45780630db065f41461020257806312261ee7146102425780631393916a14610283578063158274a5146102a55780631fc3e733146102d957600080fd5b3661019757005b600080fd5b6101af6101aa366004614a69565b6105dd565b604080516001600160a01b039384168152929091166020830152015b60405180910390f35b3480156101e057600080fd5b506101f46101ef366004614afb565b61075a565b6040519081526020016101cb565b34801561020e57600080fd5b5061023261021d366004614b63565b60036020526000908152604090205460ff1681565b60405190151581526020016101cb565b34801561024e57600080fd5b506102767f000000000000000000000000000000000000000000000000000000000000000081565b6040516101cb9190614b80565b34801561028f57600080fd5b506102a361029e366004614b94565b610794565b005b3480156102b157600080fd5b506102767f000000000000000000000000000000000000000000000000000000000000000081565b3480156102e557600080fd5b506101af6102f4366004614bcd565b610829565b34801561030557600080fd5b506101f4610314366004614c57565b610926565b6101f4610327366004614cd2565b610dbb565b34801561033857600080fd5b506102767f000000000000000000000000000000000000000000000000000000000000000081565b34801561036c57600080fd5b506102a361037b366004614b94565b610ddc565b6101f461038e366004614d81565b610ea0565b6103a66103a1366004614f61565b61118e565b604080519283526020830191909152016101cb565b6103a66103c9366004614fef565b6111da565b3480156103da57600080fd5b50610276600080516020615e7c83398151915281565b3480156103fc57600080fd5b50600154610276906001600160a01b031681565b6101f461041e366004614cd2565b611334565b6101f4610431366004614cd2565b6113e9565b34801561044257600080fd5b50610232610451366004614b63565b60006020819052908152604090205460ff1681565b34801561047257600080fd5b506102a3610481366004614b94565b6113fd565b34801561049257600080fd5b506101f46104a13660046150a8565b6114c8565b3480156104b257600080fd5b506102766104c13660046150dd565b6116fc565b3480156104d257600080fd5b506102a36104e1366004614b63565b6117fb565b6101f46104f4366004615141565b611836565b34801561050557600080fd5b506102767f000000000000000000000000000000000000000000000000000000000000000081565b34801561053957600080fd5b506101f464e8d4a5100081565b6105596105543660046151e3565b611a3f565b604080519384526020840192909252908201526060016101cb565b34801561058057600080fd5b506102a361058f366004614b63565b611aac565b3480156105a057600080fd5b506102326105af366004614b63565b60026020526000908152604090205460ff1681565b3480156105d057600080fd5b506101f46402540be40081565b600080600080886001600160a01b03166327b327d06040518163ffffffff1660e01b8152600401606060405180830381865afa158015610621573d6000803e3d6000fd5b505050506040513d601f19601f8201168201806040525081019061064591906152ae565b9093509150600080516020615e7c83398151915290506106686020870187614b63565b6001600160a01b03161461069157610691866106876020880188614b63565b8760400135611b44565b6001600160a01b0382166106a86020870187614b63565b6001600160a01b0316146106c1576106bf85611c54565b505b6106ce8989898585611f64565b90945092506106f2336106e18430612193565b6001600160a01b0385169190612203565b61074e6107026020870187614b63565b33600080516020615e7c83398151915261071f60208a018a614b63565b6001600160a01b0316146107485761074361073d60208a018a614b63565b30612193565b612287565b47612287565b50509550959350505050565b600033301461077c5760405163fb02114960e01b815260040160405180910390fd5b61078a86868686428761233f565b9695505050505050565b3360009081526020819052604090205460ff166107cc5760405162461bcd60e51b81526004016107c3906152f1565b60405180910390fd5b6001600160a01b03821660008181526020818152604091829020805460ff191685151590811790915591519182527fe95aec380cae16330d146d5499ef7db6f3657e477104a733e771bc09e500d986910160405180910390a25050565b600080600080866001600160a01b03166327b327d06040518163ffffffff1660e01b8152600401606060405180830381865afa15801561086d573d6000803e3d6000fd5b505050506040513d601f19601f8201168201806040525081019061089191906152ae565b6040516323b872dd60e01b815291945092506001600160a01b03841691506323b872dd906108c790339030908690600401615314565b6020604051808303816000875af11580156108e6573d6000803e3d6000fd5b505050506040513d601f19601f8201168201806040525081019061090a9190615338565b506109188787878585611f64565b935093505050935093915050565b600080808080808061093a888a018a615355565b955095509550955095509550856001600160a01b0316336001600160a01b03161461097857604051632668780560e11b815260040160405180910390fd5b6001600160a01b038d1630146109a157604051630295451160e31b815260040160405180910390fd5b6000866001600160a01b031663d4b839926040518163ffffffff1660e01b8152600401602060405180830381865afa1580156109e1573d6000803e3d6000fd5b505050506040513d601f19601f82011682018060405250810190610a0591906153b3565b90508115610c43576000610b99827f00000000000000000000000000000000000000000000000000000000000000006001600160a01b031663d10eb4b98b8b6040518363ffffffff1660e01b8152600401610a619291906153d0565b602060405180830381865afa158015610a7e573d6000803e3d6000fd5b505050506040513d601f19601f82011682018060405250810190610aa291906153b3565b610aac8530612193565b87600160009054906101000a90046001600160a01b03166001600160a01b0316638f38a5558e8e6040518363ffffffff1660e01b8152600401610af09291906153d0565b602060405180830381865afa158015610b0d573d6000803e3d6000fd5b505050506040513d601f19601f82011682018060405250810190610b3191906153b3565b6001600160a01b03166338fff2d06040518163ffffffff1660e01b8152600401602060405180830381865afa158015610b6e573d6000803e3d6000fd5b505050506040513d601f19601f82011682018060405250810190610b9291906153e9565b8a306128b3565b90507f00000000000000000000000000000000000000000000000000000000000000006001600160a01b031663ba89bebd8989898510610bd95789610bdb565b845b6040518463ffffffff1660e01b8152600401610bf993929190615402565b6020604051808303816000875af1158015610c18573d6000803e3d6000fd5b505050506040513d601f19601f82011682018060405250810190610c3c91906153e9565b5050610d88565b7f00000000000000000000000000000000000000000000000000000000000000006001600160a01b031663dfe5ef4888888f89610c809190615439565b6040518463ffffffff1660e01b8152600401610c9e93929190615402565b6020604051808303816000875af1158015610cbd573d6000803e3d6000fd5b505050506040513d601f19601f82011682018060405250810190610ce191906153e9565b5060405163d10eb4b960e01b81526000906001600160a01b037f0000000000000000000000000000000000000000000000000000000000000000169063d10eb4b990610d33908b908b906004016153d0565b602060405180830381865afa158015610d50573d6000803e3d6000fd5b505050506040513d601f19601f82011682018060405250810190610d7491906153b3565b9050610d858183610aac8430612193565b50505b507f439148f0bbc682ca079e46d6e2c2f0c1e3b820f1a291b069d8882abf8cf18dd99d9c50505050505050505050505050565b6000610dcf898989898960018a8a8a612a54565b9998505050505050505050565b3360009081526020819052604090205460ff16610e0b5760405162461bcd60e51b81526004016107c3906152f1565b6001600160a01b03821660009081526002602052604090205481151560ff909116151503610e4c576040516338af801d60e21b815260040160405180910390fd5b6001600160a01b038216600081815260026020526040808220805460ff191685151590811790915590519092917fe63b400aabb14e166c6cf1b963fc9332222bc4dfe22a7fa4a487411d6cb83b3191a35050565b6000600080516020615e7c833981519152610ebe6020840184614b63565b6001600160a01b031614610ee357610ee383610edd6020850185614b63565b87611b44565b7f00000000000000000000000000000000000000000000000000000000000000006001600160a01b031663dfe5ef488888610f208b8a8a89612acc565b6040518463ffffffff1660e01b8152600401610f3e93929190615402565b6020604051808303816000875af1158015610f5d573d6000803e3d6000fd5b505050506040513d601f19601f82011682018060405250810190610f8191906153e9565b60405163d10eb4b960e01b81529091506001600160a01b037f0000000000000000000000000000000000000000000000000000000000000000169063d10eb4b990610fd2908a908a906004016153d0565b602060405180830381865afa158015610fef573d6000803e3d6000fd5b505050506040513d601f19601f8201168201806040525081019061101391906153b3565b6001600160a01b031663a9059cbb85836040518363ffffffff1660e01b81526004016110409291906153d0565b6020604051808303816000875af115801561105f573d6000803e3d6000fd5b505050506040513d601f19601f820116820180604052508101906110839190615338565b5060405163574e779560e01b81526001600160a01b037f0000000000000000000000000000000000000000000000000000000000000000169063574e7795906110d2908a908a906004016153d0565b602060405180830381865afa1580156110ef573d6000803e3d6000fd5b505050506040513d601f19601f8201168201806040525081019061111391906153b3565b6001600160a01b031663a9059cbb85836040518363ffffffff1660e01b81526004016111409291906153d0565b6020604051808303816000875af115801561115f573d6000803e3d6000fd5b505050506040513d601f19601f820116820180604052508101906111839190615338565b509695505050505050565b6000806111a08a8a8a8a8a8a8a612cfc565b90925090506111b18a8387866131c6565b91506111cd6111c66040850160208601614b63565b8684612287565b9850989650505050505050565b600080600080516020615e7c8339815191526111f96020850185614b63565b6001600160a01b03161461121e5761121e846112186020860186614b63565b8b611b44565b6112378b8b61122f8e8d8a89612acc565b8b8b8b6133a6565b80925081935050506112b685838d6001600160a01b031663d4b839926040518163ffffffff1660e01b8152600401602060405180830381865afa158015611282573d6000803e3d6000fd5b505050506040513d601f19601f820116820180604052508101906112a691906153b3565b6001600160a01b03169190612203565b61132685827f00000000000000000000000000000000000000000000000000000000000000006001600160a01b031663574e77958f8f6040518363ffffffff1660e01b81526004016113099291906153d0565b602060405180830381865afa158015611282573d6000803e3d6000fd5b995099975050505050505050565b6000600080516020615e7c8339815191526113526020840184614b63565b6001600160a01b03161461137757611377836113716020850185614b63565b89611b44565b61139089896113888c8b8988612acc565b898989613609565b90506113dd6113a26020840184614b63565b85600080516020615e7c8339815191526113bf6020870187614b63565b6001600160a01b0316146107485761074361073d6020870187614b63565b98975050505050505050565b6000610dcf898989898960008a8a8a612a54565b7f00000000000000000000000000000000000000000000000000000000000000006001600160a01b031663a1256f9f6040518163ffffffff1660e01b8152600401602060405180830381865afa15801561145b573d6000803e3d6000fd5b505050506040513d601f19601f8201168201806040525081019061147f9190615338565b15801561149c57503360009081526020819052604090205460ff16155b156114ba576040516321c64d4b60e21b815260040160405180910390fd5b6114c482826137e7565b5050565b60405163574e779560e01b81526000906001600160a01b037f0000000000000000000000000000000000000000000000000000000000000000169063574e77959061151990879087906004016153d0565b602060405180830381865afa158015611536573d6000803e3d6000fd5b505050506040513d601f19601f8201168201806040525081019061155a91906153b3565b6001600160a01b03166323b872dd3330856040518463ffffffff1660e01b815260040161158993929190615314565b6020604051808303816000875af11580156115a8573d6000803e3d6000fd5b505050506040513d601f19601f820116820180604052508101906115cc9190615338565b506040805160e081018252600060a0820181815260c083018290528284019081526060830182905260808301919091528152815180830183526002815261060f60f31b602082810191909152820152905163039c839b60e01b8152309163039c839b916116449133918991899189919060040161549e565b6020604051808303816000875af1158015611663573d6000803e3d6000fd5b505050506040513d601f19601f8201168201806040525081019061168791906153e9565b90506116f5846001600160a01b031663d4b839926040518163ffffffff1660e01b8152600401602060405180830381865afa1580156116ca573d6000803e3d6000fd5b505050506040513d601f19601f820116820180604052508101906116ee91906153b3565b3383612287565b9392505050565b6001600160a01b03841660009081526002602052604081205460ff166117355760405163722ceb5560e11b815260040160405180910390fd5b604051633cad2dcd60e01b81526001600160a01b03861690633cad2dcd906117659087908790879060040161553a565b6020604051808303816000875af1158015611784573d6000803e3d6000fd5b505050506040513d601f19601f820116820180604052508101906117a891906153b3565b6040519091506001600160a01b038216907f5c4dabb7dca79d442edd65b39b410aef25f4eea4a498150e7e442d5ca508f6d590600090a26117e8816139c0565b6117f38160016137e7565b949350505050565b3360009081526020819052604090205460ff1661182a5760405162461bcd60e51b81526004016107c3906152f1565b611833816139c0565b50565b60408051600280825260608201909252600091829190816020015b60408051808201909152600080825260208201528152602001906001900390816118515790505090506040518060400160405280306001600160a01b0316815260200187815250816000815181106118ab576118ab61555f565b60200260200101819052506040518060400160405280306001600160a01b0316815260200187815250816001815181106118e7576118e761555f565b60209081029190910101526001600160a01b037f00000000000000000000000000000000000000000000000000000000000000001663edd9444b61192b8680615575565b833361193a60208a018a615595565b6040518663ffffffff1660e01b815260040161195a959493929190615654565b600060405180830381600087803b15801561197457600080fd5b505af1158015611988573d6000803e3d6000fd5b50505050611a2a887f00000000000000000000000000000000000000000000000000000000000000006001600160a01b031663ba89bebd8b8b8b6040518463ffffffff1660e01b81526004016119e093929190615402565b6020604051808303816000875af11580156119ff573d6000803e3d6000fd5b505050506040513d601f19601f82011682018060405250810190611a2391906153e9565b87866131c6565b91506111836111c66040850160208601614b63565b60008080600080516020615e7c833981519152611a5f6020860186614b63565b6001600160a01b031614611a7e57611a7e856112186020870187614b63565b611a988b8b611a8f8e8d8b8a612acc565b8b8b8b8b613a0c565b919d909c50909a5098505050505050505050565b3360009081526020819052604090205460ff16611adb5760405162461bcd60e51b81526004016107c3906152f1565b600154604080516001600160a01b03928316815291831660208301527f561ac07fd1f491d12bc2774d0ae20a65b9f4b67297f14592626f265defc9c2c6910160405180910390a1600180546001600160a01b0319166001600160a01b0392909216919091179055565b6000333083604051602401611b5b93929190615314565b60408051601f19818403018152919052602080820180516001600160e01b03166323b872dd60e01b1781528251929350600092839182885af13d156001600051141716905080611c4d5760408051808201909152308152602081018490526001600160a01b037f000000000000000000000000000000000000000000000000000000000000000016906330f28b7a90879033611bfa6080840184615595565b6040518663ffffffff1660e01b8152600401611c1a95949392919061572d565b600060405180830381600087803b158015611c3457600080fd5b505af1158015611c48573d6000803e3d6000fd5b505050505b5050505050565b6000611c666040830160208401614b63565b6001600160a01b0316611c7c6020840184614b63565b6001600160a01b031603611c9257506000919050565b6001600160a01b037f000000000000000000000000000000000000000000000000000000000000000016611ccc60a0840160808501614b63565b6001600160a01b031614611cf3576040516301fb841560e31b815260040160405180910390fd5b600080516020615e7c833981519152611d0f6020840184614b63565b6001600160a01b031614611d5057611d50611d306080840160608501614b63565b600019611d406020860186614b63565b6001600160a01b03169190613b17565b6000600080516020615e7c833981519152611d6e6020850185614b63565b6001600160a01b031614611d9157611d8c61073d6020850185614b63565b611d93565b475b9050600080611da860a0860160808701614b63565b6001600160a01b031634611dbf60a0880188615595565b604051611dcd929190615793565b60006040518083038185875af1925050503d8060008114611e0a576040519150601f19603f3d011682016040523d82523d6000602084013e611e0f565b606091505b509150915081611e34578060405163377e60f160e01b81526004016107c391906157a3565b600080516020615e7c833981519152611e536040870160208801614b63565b6001600160a01b031614611e7957611e7461073d6040870160208801614b63565b611e7b565b475b9350600080516020615e7c833981519152611e996020870187614b63565b6001600160a01b031614611ebc57611eb761073d6020870187614b63565b611ebe565b475b611ec890846157b6565b9250831580611ed5575082155b15611ef35760405163d44b934560e01b815260040160405180910390fd5b83611f046040870160208801614b63565b6001600160a01b0316611f1a6020880188614b63565b6001600160a01b03167f314898f27b62de59a1d7326707c74b7991036f43ed22658d064228c032e76fda86604051611f5491815260200190565b60405180910390a4505050919050565b600080611f9b6001600160a01b0385167f000000000000000000000000000000000000000000000000000000000000000085613b17565b604051631f1cb97760e11b81526001600160a01b038881166004830152602482018890523360448301527f00000000000000000000000000000000000000000000000000000000000000001690633e3972ee9060640160408051808303816000875af115801561200f573d6000803e3d6000fd5b505050506040513d601f19601f8201168201806040525081019061203391906157cd565b6001600160a01b038916600090815260036020526040902054919350915060ff16156120d457600154604051630ecaea7360e01b81526001600160a01b0390911690630ecaea739061208b908a908a906004016153d0565b6020604051808303816000875af11580156120aa573d6000803e3d6000fd5b505050506040513d601f19601f820116820180604052508101906120ce91906153b3565b50612151565b841561215157600154604051630ecaea7360e01b81526001600160a01b0390911690630ecaea739061210c908a908a906004016153d0565b6020604051808303816000875af115801561212b573d6000803e3d6000fd5b505050506040513d601f19601f8201168201806040525081019061214f91906153b3565b505b604051339087906001600160a01b038a16907fe385633dd30b0221b25f7a6f7e18c5992b339b5686322abe8ceb999e81249cd190600090a49550959350505050565b6040516370a0823160e01b81526000906001600160a01b038416906370a08231906121c2908590600401614b80565b602060405180830381865afa1580156121df573d6000803e3d6000fd5b505050506040513d601f19601f820116820180604052508101906116f591906153e9565b600060405163a9059cbb60e01b6000528360045282602452602060006044600080895af13d15601f3d11600160005114161716915060006060528060405250806122815760405162461bcd60e51b815260206004820152600f60248201526e1514905394d1915497d19052531151608a1b60448201526064016107c3565b50505050565b801561233a5773eeeeeeeeeeeeeeeeeeeeeeeeeeeeeeeeeeeeeeed196001600160a01b03841601612326576000826001600160a01b03168260405160006040518083038185875af1925050503d80600081146122ff576040519150601f19603f3d011682016040523d82523d6000602084013e612304565b606091505b5050905080612281576040516312171d8360e31b815260040160405180910390fd5b61233a6001600160a01b0384168383612203565b505050565b600064e8d4a510007f00000000000000000000000000000000000000000000000000000000000000006001600160a01b031663574e779588886040518363ffffffff1660e01b81526004016123959291906153d0565b602060405180830381865afa1580156123b2573d6000803e3d6000fd5b505050506040513d601f19601f820116820180604052508101906123d691906153b3565b6001600160a01b031663313ce5676040518163ffffffff1660e01b8152600401602060405180830381865afa158015612413573d6000803e3d6000fd5b505050506040513d601f19601f8201168201806040525081019061243791906157fc565b612442906012615819565b61244d90600a615920565b612457908661592f565b11612475576040516340a037a360e11b815260040160405180910390fd5b6001600160a01b038716301480159061248e5750333014155b1561252c5761252c827f00000000000000000000000000000000000000000000000000000000000000006001600160a01b031663574e779589896040518363ffffffff1660e01b81526004016124e59291906153d0565b602060405180830381865afa158015612502573d6000803e3d6000fd5b505050506040513d601f19601f8201168201806040525081019061252691906153b3565b86611b44565b600154604051638f38a55560e01b815260009182916001600160a01b0390911690638f38a55590612563908b908b906004016153d0565b602060405180830381865afa158015612580573d6000803e3d6000fd5b505050506040513d601f19601f820116820180604052508101906125a491906153b3565b90506000816001600160a01b03166338fff2d06040518163ffffffff1660e01b8152600401602060405180830381865afa1580156125e6573d6000803e3d6000fd5b505050506040513d601f19601f8201168201806040525081019061260a91906153e9565b9050600080836001600160a01b0316635863056d6040518163ffffffff1660e01b81526004016040805180830381865afa15801561264c573d6000803e3d6000fd5b505050506040513d601f19601f82011682018060405250810190612670919061594e565b915091506000807f00000000000000000000000000000000000000000000000000000000000000006001600160a01b031663f94d4668866040518263ffffffff1660e01b81526004016126c591815260200190565b600060405180830381865afa1580156126e2573d6000803e3d6000fd5b505050506040513d6000823e601f3d908101601f1916820160405261270a91908101906159cd565b5091509150856001600160a01b0316639d2c110c60405180610120016040528060018081111561273c5761273c615a9a565b81526020018587815181106127535761275361555f565b60200260200101516001600160a01b0316815260200185888151811061277b5761277b61555f565b60200260200101516001600160a01b031681526020018e81526020018881526020016000815260200160006001600160a01b0316815260200160006001600160a01b03168152602001604051806020016040528060008152508152508386815181106127e9576127e961555f565b60200260200101518488815181106128035761280361555f565b60200260200101516040518463ffffffff1660e01b815260040161282993929190615ad2565b6020604051808303816000875af1158015612848573d6000803e3d6000fd5b505050506040513d601f19601f8201168201806040525081019061286c91906153e9565b96505050505050506113dd878787848860405160200161289f939291909283526020830191909152604082015260600190565b604051602081830303815290604052613b94565b60006128e96001600160a01b0389167f000000000000000000000000000000000000000000000000000000000000000088613b17565b6040805160c081018252858152600060208083018290526001600160a01b03808d16848601528b811660608086019190915260808086018d90528651808501885285815260a0870152865190810187523081529283018490528782168387015282019290925292516352bbbe2960e01b81529192917f0000000000000000000000000000000000000000000000000000000000000000909116906352bbbe299061299d90859085908a908d90600401615b99565b6020604051808303816000875af11580156129bc573d6000803e3d6000fd5b505050506040513d601f19601f820116820180604052508101906129e091906153e9565b604080516001600160a01b038d811682528c1660208201529081018a9052606081018290529093506001600160e01b03196000351690879033907f771a8215d0541283507c0ebd99d6a6406b7254dc8feccdaa6c160c305d68d7489060800160405180910390a45050979650505050505050565b60008460ff16600114612a7357612a6e8a8a8a8a87613da0565b612a81565b612a81338b8b8b8b8861233f565b9050612a8f8a8286856131c6565b905085811015612ab2576040516351eb56bb60e01b815260040160405180910390fd5b610dcf612ac56040840160208501614b63565b8583612287565b6000846001600160a01b031663d4b839926040518163ffffffff1660e01b8152600401602060405180830381865afa158015612b0c573d6000803e3d6000fd5b505050506040513d601f19601f82011682018060405250810190612b3091906153b3565b6001600160a01b0316612b466020840184614b63565b6001600160a01b031603612b5b5750826117f3565b846001600160a01b0316636f307dc36040518163ffffffff1660e01b8152600401602060405180830381865afa158015612b99573d6000803e3d6000fd5b505050506040513d601f19601f82011682018060405250810190612bbd91906153b3565b6001600160a01b0316612bd36020840184614b63565b6001600160a01b031603612c5457604051634aae9fed60e01b8152600481018590526001600160a01b03861690634aae9fed906024015b6020604051808303816000875af1158015612c29573d6000803e3d6000fd5b505050506040513d601f19601f82011682018060405250810190612c4d91906153e9565b90506117f3565b846001600160a01b0316634aae9fed612c6c84611c54565b6040518263ffffffff1660e01b8152600401612c8a91815260200190565b6020604051808303816000875af1158015612ca9573d6000803e3d6000fd5b505050506040513d601f19601f82011682018060405250810190612ccd91906153e9565b90506117f3612cdf6020840184614b63565b84600080516020615e7c8339815191526113bf6020870187614b63565b600154604051638f38a55560e01b81526000918291829182916001600160a01b0390911690638f38a55590612d37908e908e906004016153d0565b602060405180830381865afa158015612d54573d6000803e3d6000fd5b505050506040513d601f19601f82011682018060405250810190612d7891906153b3565b9050612d8585828b611b44565b806001600160a01b03166338fff2d06040518163ffffffff1660e01b8152600401602060405180830381865afa158015612dc3573d6000803e3d6000fd5b505050506040513d601f19601f82011682018060405250810190612de791906153e9565b91505060007f00000000000000000000000000000000000000000000000000000000000000006001600160a01b031663d10eb4b98c8c6040518363ffffffff1660e01b8152600401612e3a9291906153d0565b602060405180830381865afa158015612e57573d6000803e3d6000fd5b505050506040513d601f19601f82011682018060405250810190612e7b91906153b3565b90506000612ef183838e6001600160a01b031663d4b839926040518163ffffffff1660e01b8152600401602060405180830381865afa158015612ec2573d6000803e3d6000fd5b505050506040513d601f19601f82011682018060405250810190612ee691906153b3565b8c602001518e61414e565b809250819650505060007f00000000000000000000000000000000000000000000000000000000000000006001600160a01b03166395197d308e8e6040518363ffffffff1660e01b8152600401612f499291906153d0565b602060405180830381865afa158015612f66573d6000803e3d6000fd5b505050506040513d601f19601f82011682018060405250810190612f8a91906153e9565b11156130b057612fff8c6001600160a01b0316636fd5ae156040518163ffffffff1660e01b8152600401602060405180830381865afa158015612fd1573d6000803e3d6000fd5b505050506040513d601f19601f82011682018060405250810190612ff591906153e9565b6010908116141590565b1561300c5780935061313e565b604051632b83cccd60e01b81526001600160a01b037f00000000000000000000000000000000000000000000000000000000000000001690632b83cccd9061305c908f908f908690600401615402565b6020604051808303816000875af115801561307b573d6000803e3d6000fd5b505050506040513d601f19601f8201168201806040525081019061309f91906153e9565b6130a99086615439565b945061313e565b6000811180156130bd5750875b1561313a5761309f828d6001600160a01b031663d4b839926040518163ffffffff1660e01b8152600401602060405180830381865afa158015613104573d6000803e3d6000fd5b505050506040513d601f19601f8201168201806040525081019061312891906153b3565b838c60400151878e60000151306128b3565b8093505b83156131b75760405163a9059cbb60e01b81526001600160a01b0383169063a9059cbb90613172908a9088906004016153d0565b6020604051808303816000875af1158015613191573d6000803e3d6000fd5b505050506040513d601f19601f820116820180604052508101906131b59190615338565b505b50505097509795505050505050565b6000846001600160a01b031663d4b839926040518163ffffffff1660e01b8152600401602060405180830381865afa158015613206573d6000803e3d6000fd5b505050506040513d601f19601f8201168201806040525081019061322a91906153b3565b6001600160a01b03166132436040840160208501614b63565b6001600160a01b0316036132585750826117f3565b846001600160a01b0316636f307dc36040518163ffffffff1660e01b8152600401602060405180830381865afa158015613296573d6000803e3d6000fd5b505050506040513d601f19601f820116820180604052508101906132ba91906153b3565b6001600160a01b03166132d36040840160208501614b63565b6001600160a01b03160361330e576040516351c39ea160e01b8152600481018590526001600160a01b038616906351c39ea190602401612c0a565b6040516351c39ea160e01b8152600481018590526001600160a01b038616906351c39ea1906024016020604051808303816000875af1158015613355573d6000803e3d6000fd5b505050506040513d601f19601f8201168201806040525081019061337991906153e9565b5061338382611c54565b90506117f36133956020840184614b63565b8461074361073d6020870187614b63565b6000806000886001600160a01b0316635cffe9de308b6001600160a01b031663d4b839926040518163ffffffff1660e01b8152600401602060405180830381865afa1580156133f9573d6000803e3d6000fd5b505050506040513d601f19601f8201168201806040525081019061341d91906153b3565b888d8d8d8b8e600060405160200161343a96959493929190615c54565b6040516020818303038152906040526040518563ffffffff1660e01b81526004016134689493929190615c89565b6020604051808303816000875af1158015613487573d6000803e3d6000fd5b505050506040513d601f19601f820116820180604052508101906134ab9190615338565b9050806134cb576040516310f99cf760e31b815260040160405180910390fd5b613530896001600160a01b031663d4b839926040518163ffffffff1660e01b8152600401602060405180830381865afa15801561350c573d6000803e3d6000fd5b505050506040513d601f19601f8201168201806040525081019061073d91906153b3565b92506135a07f00000000000000000000000000000000000000000000000000000000000000006001600160a01b031663574e77958b8b6040518363ffffffff1660e01b81526004016135839291906153d0565b602060405180830381865afa15801561350c573d6000803e3d6000fd5b604080516001600160a01b038c168152602081018b9052908101899052606081018590526080810182905290925033907f25841a32c1c1cef7b2d2bcea90bd94fcafbcd2459595475b86087699c16dc4959060a00160405180910390a250965096945050505050565b6000807f00000000000000000000000000000000000000000000000000000000000000006001600160a01b031663d10eb4b989896040518363ffffffff1660e01b815260040161365a9291906153d0565b602060405180830381865afa158015613677573d6000803e3d6000fd5b505050506040513d601f19601f8201168201806040525081019061369b91906153b3565b600154604051638f38a55560e01b81529192506000916001600160a01b0390911690638f38a555906136d3908c908c906004016153d0565b602060405180830381865afa1580156136f0573d6000803e3d6000fd5b505050506040513d601f19601f8201168201806040525081019061371491906153b3565b9050610dcf896001600160a01b031663d4b839926040518163ffffffff1660e01b8152600401602060405180830381865afa158015613757573d6000803e3d6000fd5b505050506040513d601f19601f8201168201806040525081019061377b91906153b3565b838989856001600160a01b03166338fff2d06040518163ffffffff1660e01b8152600401602060405180830381865afa1580156137bc573d6000803e3d6000fd5b505050506040513d601f19601f820116820180604052508101906137e091906153e9565b8a8a6128b3565b6000826001600160a01b031663d4b839926040518163ffffffff1660e01b8152600401602060405180830381865afa158015613827573d6000803e3d6000fd5b505050506040513d601f19601f8201168201806040525081019061384b91906153b3565b90506138836001600160a01b0382167f0000000000000000000000000000000000000000000000000000000000000000600019613b17565b6138996001600160a01b03821684600019613b17565b61390283600019856001600160a01b0316636f307dc36040518163ffffffff1660e01b8152600401602060405180830381865afa1580156138de573d6000803e3d6000fd5b505050506040513d601f19601f82011682018060405250810190611d4091906153b3565b8115613987576040516360d54d4160e01b81526001600160a01b037f000000000000000000000000000000000000000000000000000000000000000016906360d54d4190613954908690600401614b80565b600060405180830381600087803b15801561396e57600080fd5b505af1158015613982573d6000803e3d6000fd5b505050505b6040516001600160a01b038416907fae4a2338a83fc8bfaca3a6cbb54494b5c00e9d8a65dc9cf39135b00da497798290600090a2505050565b6001600160a01b038116600081815260036020526040808220805460ff19166001179055517ff9f4ea4fb47406a3baf9adc8bd38b1c82e5a5fee5de9b3c5af3218400fb530c09190a250565b6000806000613a228a8a8a8a6020015189614310565b90925090508115613b0a578560ff16600003613ab757613a4a308b8b858b604001518961233f565b8751909350831015613a6f576040516351eb56bb60e01b815260040160405180910390fd5b613ab285848c6001600160a01b031663d4b839926040518163ffffffff1660e01b8152600401602060405180830381865afa158015611282573d6000803e3d6000fd5b613b0a565b613b0a85837f00000000000000000000000000000000000000000000000000000000000000006001600160a01b031663574e77958e8e6040518363ffffffff1660e01b81526004016113099291906153d0565b9750975097945050505050565b600060405163095ea7b360e01b6000528360045282602452602060006044600080895af13d15601f3d11600160005114161716915060006060528060405250806122815760405162461bcd60e51b815260206004820152600e60248201526d1054141493d59157d1905253115160921b60448201526064016107c3565b600080846001600160a01b031663d4b839926040518163ffffffff1660e01b8152600401602060405180830381865afa158015613bd5573d6000803e3d6000fd5b505050506040513d601f19601f82011682018060405250810190613bf991906153b3565b90506000816001600160a01b031663313ce5676040518163ffffffff1660e01b8152600401602060405180830381865afa158015613c3b573d6000803e3d6000fd5b505050506040513d601f19601f82011682018060405250810190613c5f91906157fc565b60ff169050600060098210613c9857613c798260126157b6565b613c8490600a615cbc565b613c93906402540be400615cc8565b613c9b565b60015b9050600080600087806020019051810190613cb69190615cea565b9194509250905060006001600160a01b038b16635cffe9de3089868f8f8a613cde8d826157b6565b8a6001604051602001613cf696959493929190615c54565b6040516020818303038152906040526040518563ffffffff1660e01b8152600401613d249493929190615c89565b6020604051808303816000875af1158015613d43573d6000803e3d6000fd5b505050506040513d601f19601f82011682018060405250810190613d679190615338565b905080613d87576040516310f99cf760e31b815260040160405180910390fd5b613d918730612193565b9b9a5050505050505050505050565b6000613df4827f00000000000000000000000000000000000000000000000000000000000000006001600160a01b031663d10eb4b989896040518363ffffffff1660e01b81526004016124e59291906153d0565b60405163095197d360e41b81526000906001600160a01b037f000000000000000000000000000000000000000000000000000000000000000016906395197d3090613e45908a908a906004016153d0565b602060405180830381865afa158015613e62573d6000803e3d6000fd5b505050506040513d601f19601f82011682018060405250810190613e8691906153e9565b118015613ed15750613ecf866001600160a01b0316636fd5ae156040518163ffffffff1660e01b8152600401602060405180830381865afa158015612fd1573d6000803e3d6000fd5b155b15613f7057604051632b83cccd60e01b81526001600160a01b037f00000000000000000000000000000000000000000000000000000000000000001690632b83cccd90613f2690899089908990600401615402565b6020604051808303816000875af1158015613f45573d6000803e3d6000fd5b505050506040513d601f19601f82011682018060405250810190613f6991906153e9565b9050614145565b60405163d10eb4b960e01b815261078a906001600160a01b037f0000000000000000000000000000000000000000000000000000000000000000169063d10eb4b990613fc2908a908a906004016153d0565b602060405180830381865afa158015613fdf573d6000803e3d6000fd5b505050506040513d601f19601f8201168201806040525081019061400391906153b3565b876001600160a01b031663d4b839926040518163ffffffff1660e01b8152600401602060405180830381865afa158015614041573d6000803e3d6000fd5b505050506040513d601f19601f8201168201806040525081019061406591906153b3565b600154604051638f38a55560e01b8152889188916001600160a01b0390911690638f38a5559061409b908e908e906004016153d0565b602060405180830381865afa1580156140b8573d6000803e3d6000fd5b505050506040513d601f19601f820116820180604052508101906140dc91906153b3565b6001600160a01b03166338fff2d06040518163ffffffff1660e01b8152600401602060405180830381865afa158015614119573d6000803e3d6000fd5b505050506040513d601f19601f8201168201806040525081019061413d91906153e9565b6000306128b3565b95945050505050565b60008060007f00000000000000000000000000000000000000000000000000000000000000006001600160a01b031663f94d4668896040518263ffffffff1660e01b81526004016141a191815260200190565b600060405180830381865afa1580156141be573d6000803e3d6000fd5b505050506040513d6000823e601f3d908101601f191682016040526141e691908101906159cd565b50509050600060405180608001604052806141fe8490565b81526020018781526020018660405160200161421c91815260200190565b60405160208183030381529060405281526020016000151581525090506142438730612193565b935061424f8830612193565b604051638bdb391360e01b81529093506001600160a01b037f00000000000000000000000000000000000000000000000000000000000000001690638bdb3913906142a4908c90309081908790600401615ddf565b600060405180830381600087803b1580156142be57600080fd5b505af11580156142d2573d6000803e3d6000fd5b50505050836142e18830612193565b6142eb91906157b6565b9350826142f88930612193565b61430291906157b6565b925050509550959350505050565b600154604051638f38a55560e01b8152600091829182916001600160a01b031690638f38a55590614347908b908b906004016153d0565b602060405180830381865afa158015614364573d6000803e3d6000fd5b505050506040513d601f19601f8201168201806040525081019061438891906153b3565b90506000807f00000000000000000000000000000000000000000000000000000000000000006001600160a01b031663f94d4668846001600160a01b03166338fff2d06040518163ffffffff1660e01b8152600401602060405180830381865afa1580156143fa573d6000803e3d6000fd5b505050506040513d601f19601f8201168201806040525081019061441e91906153e9565b6040518263ffffffff1660e01b815260040161443c91815260200190565b600060405180830381865afa158015614459573d6000803e3d6000fd5b505050506040513d6000823e601f3d908101601f1916820160405261448191908101906159cd565b5091509150600080846001600160a01b0316635863056d6040518163ffffffff1660e01b81526004016040805180830381865afa1580156144c6573d6000803e3d6000fd5b505050506040513d601f19601f820116820180604052508101906144ea919061594e565b9150915060008383815181106145025761450261555f565b602002602001015160001415905060008161451e57600061455c565b61455c8e8686815181106145345761453461555f565b602002602001015187868151811061454e5761454e61555f565b60200260200101518f6146a6565b90506000811161456d576000614600565b7f00000000000000000000000000000000000000000000000000000000000000006001600160a01b031663dfe5ef488f8f846040518463ffffffff1660e01b81526004016145bd93929190615402565b6020604051808303816000875af11580156145dc573d6000803e3d6000fd5b505050506040513d601f19601f8201168201806040525081019061460091906153e9565b604080516002808252606082018352929b506000929091602083019080368337019050509050614630828e6157b6565b8185815181106146425761464261555f565b602002602001018181525050898186815181106146615761466161555f565b6020026020010181815250506146928860405180606001604052808a81526020018481526020018f8152508d6147b5565b985050505050505050509550959350505050565b60006141456147ae8561479d866147978a6001600160a01b031663b8c15a9f6040518163ffffffff1660e01b8152600401602060405180830381865afa1580156146f4573d6000803e3d6000fd5b505050506040513d601f19601f820116820180604052508101906147189190615e11565b614733906001600160801b0316670de0b6b3a76400006157b6565b8b6001600160a01b031663f51e181a6040518163ffffffff1660e01b81526004016020604051808303816000875af1158015614773573d6000803e3d6000fd5b505050506040513d601f19601f8201168201806040525081019061479791906153e9565b906149b6565b6147a79190615439565b86906149d1565b83906149b6565b815160009060005b84515160ff8216101561485a576148487f000000000000000000000000000000000000000000000000000000000000000086602001518360ff16815181106148075761480761555f565b602002602001015187600001518460ff16815181106148285761482861555f565b60200260200101516001600160a01b0316613b179092919063ffffffff16565b8061485281615e3a565b9150506147bd565b50600060405180608001604052808381526020018660200151815260200186602001518760400151604051602001614893929190615e59565b60405160208183030381529060405281526020016000151581525090506148ba8685612193565b92507f00000000000000000000000000000000000000000000000000000000000000006001600160a01b031663b95cac28876001600160a01b03166338fff2d06040518163ffffffff1660e01b8152600401602060405180830381865afa158015614929573d6000803e3d6000fd5b505050506040513d601f19601f8201168201806040525081019061494d91906153e9565b3087856040518563ffffffff1660e01b815260040161496f9493929190615ddf565b600060405180830381600087803b15801561498957600080fd5b505af115801561499d573d6000803e3d6000fd5b50505050826149ac8786612193565b61078a91906157b6565b60006116f58383670de0b6b3a76400006149e2565b92915050565b60006116f583670de0b6b3a7640000845b8282028115158415858304851417166149fa57600080fd5b0492915050565b6001600160a01b038116811461183357600080fd5b8035614a2181614a01565b919050565b801515811461183357600080fd5b8035614a2181614a26565b600060a08284031215614a5157600080fd5b50919050565b600060c08284031215614a5157600080fd5b600080600080600060a08688031215614a8157600080fd5b8535614a8c81614a01565b9450602086013593506040860135614aa381614a26565b925060608601356001600160401b0380821115614abf57600080fd5b614acb89838a01614a3f565b93506080880135915080821115614ae157600080fd5b50614aee88828901614a57565b9150509295509295909350565b600080600080600060a08688031215614b1357600080fd5b8535614b1e81614a01565b94506020860135614b2e81614a01565b9350604086013592506060860135915060808601356001600160401b03811115614b5757600080fd5b614aee88828901614a3f565b600060208284031215614b7557600080fd5b81356116f581614a01565b6001600160a01b0391909116815260200190565b60008060408385031215614ba757600080fd5b8235614bb281614a01565b91506020830135614bc281614a26565b809150509250929050565b600080600060608486031215614be257600080fd5b8335614bed81614a01565b9250602084013591506040840135614c0481614a26565b809150509250925092565b60008083601f840112614c2157600080fd5b5081356001600160401b03811115614c3857600080fd5b602083019150836020828501011115614c5057600080fd5b9250929050565b60008060008060008060a08789031215614c7057600080fd5b8635614c7b81614a01565b95506020870135614c8b81614a01565b9450604087013593506060870135925060808701356001600160401b03811115614cb457600080fd5b614cc089828a01614c0f565b979a9699509497509295939492505050565b600080600080600080600080610100898b031215614cef57600080fd5b8835614cfa81614a01565b97506020890135965060408901359550606089013594506080890135935060a0890135614d2681614a01565b925060c08901356001600160401b0380821115614d4257600080fd5b614d4e8c838d01614a3f565b935060e08b0135915080821115614d6457600080fd5b50614d718b828c01614a57565b9150509295985092959890939650565b60008060008060008060c08789031215614d9a57600080fd5b8635614da581614a01565b955060208701359450604087013593506060870135614dc381614a01565b925060808701356001600160401b0380821115614ddf57600080fd5b614deb8a838b01614a3f565b935060a0890135915080821115614e0157600080fd5b50614e0e89828a01614a57565b9150509295509295509295565b634e487b7160e01b600052604160045260246000fd5b604051606081016001600160401b0381118282101715614e5357614e53614e1b565b60405290565b604051601f8201601f191681016001600160401b0381118282101715614e8157614e81614e1b565b604052919050565b60006001600160401b03821115614ea257614ea2614e1b565b5060051b60200190565b600060608284031215614ebe57600080fd5b614ec6614e31565b9050813581526020808301356001600160401b03811115614ee657600080fd5b8301601f81018513614ef757600080fd5b8035614f0a614f0582614e89565b614e59565b81815260059190911b82018301908381019087831115614f2957600080fd5b928401925b82841015614f4757833582529284019290840190614f2e565b808587015250505050506040820135604082015292915050565b600080600080600080600080610100898b031215614f7e57600080fd5b614f8789614a16565b9750602089013596506040890135955060608901356001600160401b0380821115614fb157600080fd5b614fbd8c838d01614eac565b9650614fcb60808c01614a34565b9550614fd960a08c01614a16565b945060c08b0135915080821115614d4257600080fd5b60008060008060008060008060006101208a8c03121561500e57600080fd5b893561501981614a01565b985060208a0135975060408a0135965060608a0135955060808a0135945060a08a0135935060c08a013561504c81614a01565b925060e08a01356001600160401b038082111561506857600080fd5b6150748d838e01614a3f565b93506101008c013591508082111561508b57600080fd5b506150988c828d01614a57565b9150509295985092959850929598565b6000806000606084860312156150bd57600080fd5b83356150c881614a01565b95602085013595506040909401359392505050565b600080600080606085870312156150f357600080fd5b84356150fe81614a01565b9350602085013561510e81614a01565b925060408501356001600160401b0381111561512957600080fd5b61513587828801614c0f565b95989497509550505050565b60008060008060008060c0878903121561515a57600080fd5b863561516581614a01565b95506020870135945060408701359350606087013561518381614a01565b925060808701356001600160401b038082111561519f57600080fd5b908801906040828b0312156151b357600080fd5b90925060a08801359080821115614e0157600080fd5b60ff8116811461183357600080fd5b8035614a21816151c9565b600080600080600080600080888a0361014081121561520157600080fd5b893561520c81614a01565b985060208a0135975060408a013596506060605f198201121561522e57600080fd5b50615237614e31565b60608a0135815260808a0135602082015260a08a01356040820152945061526060c08a016151d8565b935061526e60e08a01614a16565b92506101008901356001600160401b038082111561528b57600080fd5b6152978c838d01614a3f565b93506101208b0135915080821115614d6457600080fd5b6000806000606084860312156152c357600080fd5b83516152ce81614a01565b60208501519093506152df81614a01565b80925050604084015190509250925092565b602080825260099082015268155395149554d5115160ba1b604082015260600190565b6001600160a01b039384168152919092166020820152604081019190915260600190565b60006020828403121561534a57600080fd5b81516116f581614a26565b60008060008060008060c0878903121561536e57600080fd5b863561537981614a01565b95506020870135945060408701359350606087013592506080870135915060a08701356153a581614a26565b809150509295509295509295565b6000602082840312156153c557600080fd5b81516116f581614a01565b6001600160a01b03929092168252602082015260400190565b6000602082840312156153fb57600080fd5b5051919050565b6001600160a01b039390931683526020830191909152604082015260600190565b634e487b7160e01b600052601160045260246000fd5b6000821982111561544c5761544c615423565b500190565b6000815180845260005b818110156154775760208185018101518683018201520161545b565b81811115615489576000602083870101525b50601f01601f19169290920160200192915050565b600060018060a01b038088168352808716602084015285604084015284606084015260a06080840152835180518281511660a0860152602081015160c086015250602081015160e085015260408101516101008501525050602083015160a06101208401526113dd610140840182615451565b81835281816020850137506000828201602090810191909152601f909101601f19169091010190565b6001600160a01b03841681526040602082018190526000906141459083018486615511565b634e487b7160e01b600052603260045260246000fd5b60008235605e1983360301811261558b57600080fd5b9190910192915050565b6000808335601e198436030181126155ac57600080fd5b8301803591506001600160401b038211156155c657600080fd5b602001915036819003821315614c5057600080fd5b80356155e681614a01565b6001600160a01b03168252602090810135910152565b600081518084526020808501945080840160005b838110156156495761563687835180516001600160a01b03168252602090810151910152565b6040969096019590820190600101615610565b509495945050505050565b60808152600060e082018735601e1989360301811261567257600080fd5b88016020810190356001600160401b0381111561568e57600080fd5b8060061b36038213156156a057600080fd5b60606080860152918290529060009061010085015b818310156156da576156c781856155db565b60409384019360019390930192016156b5565b60208b013560a087015260408b013560c08701528581036020870152615700818b6155fc565b935050505061571a60408401876001600160a01b03169052565b82810360608401526113dd818587615511565b600061010061573c83896155db565b6040880135604084015260608801356060840152615770608084018880516001600160a01b03168252602090810151910152565b6001600160a01b03861660c084015260e083018190526113dd8184018587615511565b8183823760009101908152919050565b6020815260006116f56020830184615451565b6000828210156157c8576157c8615423565b500390565b600080604083850312156157e057600080fd5b82516157eb81614a01565b6020840151909250614bc281614a01565b60006020828403121561580e57600080fd5b81516116f5816151c9565b600060ff821660ff84168082101561583357615833615423565b90039392505050565b600181815b8085111561587757816000190482111561585d5761585d615423565b8085161561586a57918102915b93841c9390800290615841565b509250929050565b60008261588e575060016149cb565b8161589b575060006149cb565b81600181146158b157600281146158bb576158d7565b60019150506149cb565b60ff8411156158cc576158cc615423565b50506001821b6149cb565b5060208310610133831016604e8410600b84101617156158fa575081810a6149cb565b615904838361583c565b806000190482111561591857615918615423565b029392505050565b60006116f560ff84168361587f565b600081600019048311821515161561594957615949615423565b500290565b6000806040838503121561596157600080fd5b505080516020909101519092909150565b600082601f83011261598357600080fd5b81516020615993614f0583614e89565b82815260059290921b840181019181810190868411156159b257600080fd5b8286015b8481101561118357805183529183019183016159b6565b6000806000606084860312156159e257600080fd5b83516001600160401b03808211156159f957600080fd5b818601915086601f830112615a0d57600080fd5b81516020615a1d614f0583614e89565b82815260059290921b8401810191818101908a841115615a3c57600080fd5b948201945b83861015615a63578551615a5481614a01565b82529482019490820190615a41565b91890151919750909350505080821115615a7c57600080fd5b50615a8986828701615972565b925050604084015190509250925092565b634e487b7160e01b600052602160045260246000fd5b60028110615ace57634e487b7160e01b600052602160045260246000fd5b9052565b60608152615ae4606082018551615ab0565b60006020850151615b0060808401826001600160a01b03169052565b5060408501516001600160a01b03811660a084015250606085015160c0830152608085015160e083015260a0850151610100818185015260c08701519150610120615b55818601846001600160a01b03169052565b60e08801516001600160a01b0316610140860152908701516101608501919091529050615b86610180840182615451565b6020840195909552505060400152919050565b60e08152845160e082015260006020860151615bb9610100840182615ab0565b5060408601516001600160a01b03908116610120840152606087015116610140830152608086015161016083015260a086015160c0610180840152615c026101a0840182615451565b915050615c42602083018680516001600160a01b039081168352602080830151151590840152604080830151909116908301526060908101511515910152565b60a082019390935260c0015292915050565b6001600160a01b039690961686526020860194909452604085019290925260608401526080830152151560a082015260c00190565b6001600160a01b038581168252841660208201526040810183905260806060820181905260009061078a90830184615451565b60006116f5838361587f565b600082615ce557634e487b7160e01b600052601260045260246000fd5b500490565b600080600060608486031215615cff57600080fd5b8351925060208401519150604084015190509250925092565b600081518084526020808501945080840160005b8381101561564957815187529582019590820190600101615d2c565b8051608080845281519084018190526000916020919082019060a0860190845b81811015615d8d5783516001600160a01b031683529284019291840191600101615d68565b505082850151915085810383870152615da68183615d18565b9250505060408301518482036040860152615dc18282615451565b9150506060830151615dd7606086018215159052565b509392505050565b8481526001600160a01b0384811660208301528316604082015260806060820181905260009061078a90830184615d48565b600060208284031215615e2357600080fd5b81516001600160801b03811681146116f557600080fd5b600060ff821660ff8103615e5057615e50615423565b60010192915050565b604081526000615e6c6040830185615d18565b9050826020830152939250505056fe000000000000000000000000eeeeeeeeeeeeeeeeeeeeeeeeeeeeeeeeeeeeeeeea2646970667358221220b5fcc0b96e85a00b660cdecc902c357ce18a2f40ae19454f59f3409304f13abd64736f6c634300080f0033",
  "devdoc": {
    "kind": "dev",
    "methods": {
      "addLiquidity(address,uint256,uint256,(uint256,uint256,uint256),uint8,address,(((address,uint256),uint256,uint256),bytes),(address,address,uint256,address,address,bytes))": {
        "details": "see return description of _addLiquidityif quote.sellToken is neither target nor underlying, it will be swapped for underlying on 0x and wrapped into the target",
        "params": {
          "adapter": "Adapter address for the Series",
          "amt": "Amount to provide",
          "maturity": "Maturity date for the Series",
          "mode": "0 = issues and sell YT, 1 = issue and hold YT",
          "params": "AddLiquidityParams struct with the params for the addLiquidity call",
          "permit": "Permit to pull the tokens to swap from",
          "quote": "Quote with swap details",
          "receiver": "Address to receive the BPT"
        }
      },
      "combine(address,uint256,uint256,address,(((address,uint256)[],uint256,uint256),bytes),(address,address,uint256,address,address,bytes))": {
        "details": "if quote.buyToken is neither target nor underlying, it will unwrap target and swap it on 0x",
        "params": {
          "adapter": "Adapter address for the Series",
          "maturity": "Maturity date for the Series",
          "permit": "Permit to pull PT and YT",
          "quote": "Quote with swap details",
          "receiver": "Address where the resulting Target will be transferred",
          "uBal": "Amount of PT and YT to burn"
        },
        "returns": {
          "amt": "Amount of tokens received from reconstituting target"
        }
      },
      "deployAdapter(address,address,bytes)": {
        "details": "Called by external address, deploy a new Adapter via an Adapter Factory",
        "params": {
          "data": "Additional encoded data needed to deploy the adapter",
          "f": "Factory to use",
          "target": "Target to onboard"
        }
      },
      "issue(address,uint256,uint256,address,(((address,uint256),uint256,uint256),bytes),(address,address,uint256,address,address,bytes))": {
        "details": "The balance of PTs and YTs minted will be the same value in units of underlying (less fees)if quote.sellToken is neither target nor underlying, it will swap on 0x and wrap to target and swap it on 0x",
        "params": {
          "adapter": "Adapter address for the Series",
          "amt": "Amount to issue with",
          "maturity": "Maturity date for the Series [unix time]",
          "permit": "Permit to pull tokens",
          "quote": "Quote with swap details",
          "receiver": "Address where the resulting PTs and YTs will be transferred to"
        },
        "returns": {
          "uBal": "Amount of PTs and YTs minted"
        }
      },
      "onFlashLoan(address,address,uint256,uint256,bytes)": {
        "details": "ERC-3156 Flash loan callback"
      },
      "onboardAdapter(address,bool)": {
        "details": "Called by a trusted address, approves Target for issuance, and onboards adapter to the Divider",
        "params": {
          "adapter": "Adapter to onboard",
          "addAdapter": "Whether to call divider.addAdapter or not (useful e.g when upgrading Periphery)"
        }
      },
      "removeLiquidity(address,uint256,uint256,(uint256,uint256[],uint256),bool,address,(((address,uint256),uint256,uint256),bytes),(address,address,uint256,address,address,bytes))": {
        "details": "More info on `minAmountsOut`: https://github.com/balancer-labs/docs-developers/blob/main/resources/joins-and-exits/pool-exits.md#minamountsoutif quote.buyToken is neither target nor underlying, it will unwrap target and swap it on 0x if quote.buyToken is PT, it will return target and PTs",
        "params": {
          "adapter": "Adapter address for the Series",
          "lpBal": "Balance of LP tokens to provide",
          "maturity": "Maturity date for the Series",
          "params": "RemoveLiquidityParams struct with the params for the removeLiquidity call",
          "permit": "Permit to pull the LP tokens",
          "quote": "Quote with swap details",
          "receiver": "Address to receive the Underlying",
          "swapPTs": "Whether to swap PTs or not. If false, it will transfer PTs to the user"
        },
        "returns": {
          "amt": "amount of tokens received and ptBal PTs (in case it's called after maturity and redeem is restricted or intoTarget is false)"
        }
      },
      "setFactory(address,bool)": {
        "params": {
          "f": "Factory's address",
          "isOn": "Flag setting this factory to enabled or disabled"
        }
      },
      "setSpaceFactory(address)": {
        "params": {
          "newSpaceFactory": "The Space Factory addresss to set"
        }
      },
      "sponsorSeries(address,uint256,bool)": {
        "details": "Called by an external address, initializes a new series in the Divider",
        "params": {
          "adapter": "Adapter to associate with the Series",
          "maturity": "Maturity date for the Series, in units of unix time",
          "withPool": "Whether to deploy a Space pool or not (only works for unverified adapters)"
        }
      },
      "sponsorSeries(address,uint256,bool,(((address,uint256),uint256,uint256),bytes),(address,address,uint256,address,address,bytes))": {
        "details": "Called by an external address, initializes a new series in the Divider",
        "params": {
          "adapter": "Adapter to associate with the Series",
          "maturity": "Maturity date for the Series, in units of unix time",
          "permit": "Permit to pull the tokens to swap from",
          "quote": "Quote with swap details",
          "withPool": "Whether to deploy a Space pool or not (only works for unverified adapters)"
        }
      },
      "swapForPTs(address,uint256,uint256,uint256,uint256,address,(((address,uint256),uint256,uint256),bytes),(address,address,uint256,address,address,bytes))": {
        "details": "if quote.sellToken is neither target nor underlying, it will be swapped for underlying on 0x and wrapped into the target",
        "params": {
          "adapter": "Adapter address for the Series",
          "amt": "Amount to swap for PTs",
          "maturity": "Maturity date for the Series",
          "minAccepted": "Min accepted amount of PT",
          "permit": "Permit to pull the tokens to swap from",
          "quote": "Quote with swap details",
          "receiver": "Address to receive the PT"
        },
        "returns": {
          "ptBal": "amount of PT received"
        }
      },
      "swapForYTs(address,uint256,uint256,uint256,uint256,uint256,address,(((address,uint256),uint256,uint256),bytes),(address,address,uint256,address,address,bytes))": {
        "details": "if quote.sellToken is neither target nor underlying, it will be swapped for underlying on 0x and wrapped into the target",
        "params": {
          "adapter": "Adapter address for the Series",
          "amt": "Amount to sell",
          "maturity": "Maturity date for the Series",
          "minAccepted": "Min accepted amount of YT",
          "permit": "Permit to pull the tokens to swap from",
          "quote": "Quote with swap details",
          "receiver": "Address to receive the YT",
          "targetToBorrow": "Amount of Target to borrow"
        },
        "returns": {
          "targetBal": "amount of Target sent back",
          "ytBal": "amount of YT received"
        }
      },
      "swapPTs(address,uint256,uint256,uint256,uint256,address,(((address,uint256),uint256,uint256),bytes),(address,address,uint256,address,address,bytes))": {
        "details": "if quote.buyToken is neither target nor underlying, it will unwrap target and swap it on 0x",
        "params": {
          "adapter": "Adapter address for the series",
          "maturity": "Maturity date for the series",
          "minAccepted": "Min accepted amount of quote.buyToken the user receives",
          "permit": "Permit to pull PTs",
          "ptBal": "Balance of PT to sell",
          "quote": "Quote with swap details",
          "receiver": "Address to receive the tokens"
        },
        "returns": {
          "amt": "amount of tokens received"
        }
      },
      "swapYTs(address,uint256,uint256,uint256,uint256,address,(((address,uint256),uint256,uint256),bytes),(address,address,uint256,address,address,bytes))": {
        "details": "if quote.buyToken is neither target nor underlying, it will unwrap target and swap it on 0x",
        "params": {
          "adapter": "Adapter address for the Series",
          "maturity": "Maturity date for the Series",
          "minAccepted": "Min accepted amount of tokens when selling them on Space",
          "permit": "Permit to pull YTs",
          "quote": "Quote with swap details",
          "receiver": "Address to receive the Target",
          "ytBal": "Balance of YTs to swap"
        },
        "returns": {
          "amt": "amount of Target received"
        }
      },
      "verifyAdapter(address)": {
        "details": "Verifies an Adapter",
        "params": {
          "adapter": "Adapter to verify"
        }
      }
    },
    "title": "Periphery",
    "version": 1
  },
  "userdoc": {
    "kind": "user",
    "methods": {
      "ETH()": {
        "notice": "ETH address"
      },
      "MIN_YT_SWAP_IN()": {
        "notice": "Lower bound on the amount of Claim tokens one can swap in for Target"
      },
      "PRICE_ESTIMATE_ACCEPTABLE_ERROR()": {
        "notice": "Acceptable error when estimating the tokens resulting from a specific swap"
      },
      "addLiquidity(address,uint256,uint256,(uint256,uint256,uint256),uint8,address,(((address,uint256),uint256,uint256),bytes),(address,address,uint256,address,address,bytes))": {
        "notice": "Adds liquidity providing any Token"
      },
      "balancerVault()": {
        "notice": "Sense core Divider address"
      },
      "combine(address,uint256,uint256,address,(((address,uint256)[],uint256,uint256),bytes),(address,address,uint256,address,address,bytes))": {
        "notice": "Reconstitute Target by burning PT and YT"
      },
      "deployAdapter(address,address,bytes)": {
        "notice": "Deploy and onboard a Adapter"
      },
      "divider()": {
        "notice": "Sense core Divider address"
      },
      "factories(address)": {
        "notice": "adapter factories -> is supported"
      },
      "issue(address,uint256,uint256,address,(((address,uint256),uint256,uint256),bytes),(address,address,uint256,address,address,bytes))": {
        "notice": "Mint PTs & YTs of a specific Series"
      },
      "onboardAdapter(address,bool)": {
        "notice": "Onboard a single Adapter w/o needing a factory"
      },
      "permit2()": {
        "notice": "Permit2 contract"
      },
      "removeLiquidity(address,uint256,uint256,(uint256,uint256[],uint256),bool,address,(((address,uint256),uint256,uint256),bytes),(address,address,uint256,address,address,bytes))": {
        "notice": "Removes liquidity providing an amount of LP tokens and returns underlying"
      },
      "setFactory(address,bool)": {
        "notice": "Enable or disable a factory"
      },
      "setSpaceFactory(address)": {
        "notice": "Update the address for the Space Factory"
      },
      "spaceFactory()": {
        "notice": "Sense core Divider address"
      },
      "sponsorSeries(address,uint256,bool)": {
        "notice": "Sponsor a new Series in any adapter previously onboarded onto the Divider"
      },
      "sponsorSeries(address,uint256,bool,(((address,uint256),uint256,uint256),bytes),(address,address,uint256,address,address,bytes))": {
        "notice": "Sponsor a new Series in any adapter previously onboarded onto the Divider"
      },
      "swapForPTs(address,uint256,uint256,uint256,uint256,address,(((address,uint256),uint256,uint256),bytes),(address,address,uint256,address,address,bytes))": {
        "notice": "Swap for PTs of a particular series"
      },
      "swapForYTs(address,uint256,uint256,uint256,uint256,uint256,address,(((address,uint256),uint256,uint256),bytes),(address,address,uint256,address,address,bytes))": {
        "notice": "Swap to YTs of a particular series"
      },
      "swapPTs(address,uint256,uint256,uint256,uint256,address,(((address,uint256),uint256,uint256),bytes),(address,address,uint256,address,address,bytes))": {
        "notice": "Swap PTs of a particular series"
      },
      "swapYTs(address,uint256,uint256,uint256,uint256,address,(((address,uint256),uint256,uint256),bytes),(address,address,uint256,address,address,bytes))": {
        "notice": "Swap YTs of a particular series"
      },
      "swapYTsForTarget(address,uint256,uint256)": {
        "notice": "this function is here for backwards compatibility with AutoRoller. It does not suppport the use of `deadline` parameter. Use `swapYTs` instead."
      },
      "verified(address)": {
        "notice": "adapter -> bool"
      }
    },
    "version": 1
  },
  "storageLayout": {
    "storage": [
      {
        "astId": 24559,
        "contract": "@sense-finance/v1-core/src/Periphery.sol:Periphery",
        "label": "isTrusted",
        "offset": 0,
        "slot": "0",
        "type": "t_mapping(t_address,t_bool)"
      },
      {
        "astId": 4828,
        "contract": "@sense-finance/v1-core/src/Periphery.sol:Periphery",
        "label": "spaceFactory",
        "offset": 0,
        "slot": "1",
        "type": "t_contract(SpaceFactoryLike)4783"
      },
      {
        "astId": 4833,
        "contract": "@sense-finance/v1-core/src/Periphery.sol:Periphery",
        "label": "factories",
        "offset": 0,
        "slot": "2",
        "type": "t_mapping(t_address,t_bool)"
      },
      {
        "astId": 4838,
        "contract": "@sense-finance/v1-core/src/Periphery.sol:Periphery",
        "label": "verified",
        "offset": 0,
        "slot": "3",
        "type": "t_mapping(t_address,t_bool)"
      }
    ],
    "types": {
      "t_address": {
        "encoding": "inplace",
        "label": "address",
        "numberOfBytes": "20"
      },
      "t_bool": {
        "encoding": "inplace",
        "label": "bool",
        "numberOfBytes": "1"
      },
      "t_contract(SpaceFactoryLike)4783": {
        "encoding": "inplace",
        "label": "contract SpaceFactoryLike",
        "numberOfBytes": "20"
      },
      "t_mapping(t_address,t_bool)": {
        "encoding": "mapping",
        "key": "t_address",
        "label": "mapping(address => bool)",
        "numberOfBytes": "32",
        "value": "t_bool"
      }
    }
  }
}