{
  "address": "0xfcbE3C1746310E1cF87140E4d7599967aa5b21de",
  "abi": [
    {
      "inputs": [
        {
          "internalType": "uint256",
          "name": "_maxSecondsBeforePriceIsStale",
          "type": "uint256"
        }
      ],
      "stateMutability": "nonpayable",
      "type": "constructor"
    },
    {
      "inputs": [],
      "name": "AttemptFailed",
      "type": "error"
    },
    {
      "inputs": [],
      "name": "InvalidPrice",
      "type": "error"
    },
    {
      "inputs": [],
      "name": "PriceOracleNotFound",
      "type": "error"
    },
    {
      "anonymous": false,
      "inputs": [
        {
          "indexed": true,
          "internalType": "uint256",
          "name": "maxSecondsBeforePriceIsStale",
          "type": "uint256"
        }
      ],
      "name": "MaxSecondsBeforePriceIsStaleChanged",
      "type": "event"
    },
    {
      "anonymous": false,
      "inputs": [
        {
          "indexed": true,
          "internalType": "address",
          "name": "user",
          "type": "address"
        },
        {
          "indexed": false,
          "internalType": "bool",
          "name": "trusted",
          "type": "bool"
        }
      ],
      "name": "UserTrustUpdated",
      "type": "event"
    },
    {
      "inputs": [],
      "name": "BTC",
      "outputs": [
        {
          "internalType": "address",
          "name": "",
          "type": "address"
        }
      ],
      "stateMutability": "view",
      "type": "function"
    },
    {
      "inputs": [],
      "name": "ETH",
      "outputs": [
        {
          "internalType": "address",
          "name": "",
          "type": "address"
        }
      ],
      "stateMutability": "view",
      "type": "function"
    },
    {
      "inputs": [],
      "name": "USD",
      "outputs": [
        {
          "internalType": "address",
          "name": "",
          "type": "address"
        }
      ],
      "stateMutability": "view",
      "type": "function"
    },
    {
      "inputs": [],
      "name": "feedRegistry",
      "outputs": [
        {
          "internalType": "contract FeedRegistryLike",
          "name": "",
          "type": "address"
        }
      ],
      "stateMutability": "view",
      "type": "function"
    },
    {
      "inputs": [
        {
          "internalType": "address",
          "name": "",
          "type": "address"
        }
      ],
      "name": "isTrusted",
      "outputs": [
        {
          "internalType": "bool",
          "name": "",
          "type": "bool"
        }
      ],
      "stateMutability": "view",
      "type": "function"
    },
    {
      "inputs": [],
      "name": "maxSecondsBeforePriceIsStale",
      "outputs": [
        {
          "internalType": "uint256",
          "name": "",
          "type": "uint256"
        }
      ],
      "stateMutability": "view",
      "type": "function"
    },
    {
      "inputs": [
        {
          "internalType": "address",
          "name": "underlying",
          "type": "address"
        }
      ],
      "name": "price",
      "outputs": [
        {
          "internalType": "uint256",
          "name": "",
          "type": "uint256"
        }
      ],
      "stateMutability": "view",
      "type": "function"
    },
    {
      "inputs": [
        {
          "internalType": "address",
          "name": "user",
          "type": "address"
        },
        {
          "internalType": "bool",
          "name": "trusted",
          "type": "bool"
        }
      ],
      "name": "setIsTrusted",
      "outputs": [],
      "stateMutability": "nonpayable",
      "type": "function"
    },
    {
      "inputs": [
        {
          "internalType": "uint256",
          "name": "_maxSecondsBeforePriceIsStale",
          "type": "uint256"
        }
      ],
      "name": "setMaxSecondsBeforePriceIsStale",
      "outputs": [],
      "stateMutability": "nonpayable",
      "type": "function"
    }
  ],
  "transactionHash": "0x633055161d4aa4563a522da28633602120609bdfa6d514fdb0b3d32ac706bea2",
  "args": [
    "259200"
  ],
  "numDeployments": 1,
  "solcInputHash": "1272f268ed0016603d4f4b050bcdcf1b",
  "bytecode": "0x6080604052600280546001600160a01b0319167347fb2585d2c56fe188d0e6ec628a38b74fceeedf17905534801561003657600080fd5b506040516112fc3803806112fc833981016040819052610055916100af565b3360008181526020818152604091829020805460ff19166001908117909155915191825282917fe95aec380cae16330d146d5499ef7db6f3657e477104a733e771bc09e500d986910160405180910390a2506001556100c8565b6000602082840312156100c157600080fd5b5051919050565b611225806100d76000396000f3fe608060405234801561001057600080fd5b50600436106100a35760003560e01c80638322fff21161007657806396d648791161005b57806396d6487914610159578063aea910781461018c578063e073a241146101ad57600080fd5b80638322fff21461011e57806390238c391461013957600080fd5b80631393916a146100a85780631bf6c21b146100bd5780632792949d146100f05780634d8ce45b1461010b575b600080fd5b6100bb6100b6366004610e0e565b6101b6565b005b6100c661034881565b60405173ffffffffffffffffffffffffffffffffffffffff90911681526020015b60405180910390f35b6100c673bbbbbbbbbbbbbbbbbbbbbbbbbbbbbbbbbbbbbbbb81565b6100bb610119366004610e4a565b6102bc565b6100c673eeeeeeeeeeeeeeeeeeeeeeeeeeeeeeeeeeeeeeee81565b6002546100c69073ffffffffffffffffffffffffffffffffffffffff1681565b61017c610167366004610e63565b60006020819052908152604090205460ff1681565b60405190151581526020016100e7565b61019f61019a366004610e63565b610368565b6040519081526020016100e7565b61019f60015481565b3360009081526020819052604090205460ff16610234576040517f08c379a000000000000000000000000000000000000000000000000000000000815260206004820152600960248201527f554e54525553544544000000000000000000000000000000000000000000000060448201526064015b60405180910390fd5b73ffffffffffffffffffffffffffffffffffffffff82166000818152602081815260409182902080547fffffffffffffffffffffffffffffffffffffffffffffffffffffffffffffff001685151590811790915591519182527fe95aec380cae16330d146d5499ef7db6f3657e477104a733e771bc09e500d986910160405180910390a25050565b3360009081526020819052604090205460ff16610335576040517f08c379a000000000000000000000000000000000000000000000000000000000815260206004820152600960248201527f554e545255535445440000000000000000000000000000000000000000000000604482015260640161022b565b600181905560405181907fec490cfab950d6ec18c2e9a162f86187867edb75fa61bfb7ccac5f2f8e5e5c4690600090a250565b600061037382610379565b92915050565b600073c02aaa39b223fe8d0a0e5c4f27ead9083c756cc273ffffffffffffffffffffffffffffffffffffffff831614156103bc5750670de0b6b3a7640000919050565b6002546040517fbcfd032d00000000000000000000000000000000000000000000000000000000815273ffffffffffffffffffffffffffffffffffffffff848116600483015273eeeeeeeeeeeeeeeeeeeeeeeeeeeeeeeeeeeeeeee60248301529091169063bcfd032d9060440160a060405180830381865afa925050508015610480575060408051601f3d9081017fffffffffffffffffffffffffffffffffffffffffffffffffffffffffffffffe016820190925261047d91810190610e98565b60015b61055e5761048c610ee8565b806308c379a0141561055257506104a1610f76565b806104ac5750610554565b6040517f46656564206e6f7420666f756e640000000000000000000000000000000000006020820152602e0160405160208183030381529060405280519060200120816040516020016104ff919061101e565b604051602081830303815290604052805190602001201461054c576040517f48ae232300000000000000000000000000000000000000000000000000000000815260040160405180910390fd5b5061065d565b505b3d6000803e3d6000fd5b60008413610573575060009695505050505050565b61057c82610d42565b6002546040517f58e2d3a800000000000000000000000000000000000000000000000000000000815273ffffffffffffffffffffffffffffffffffffffff898116600483015273eeeeeeeeeeeeeeeeeeeeeeeeeeeeeeeeeeeeeeee60248301526106529216906358e2d3a890604401602060405180830381865afa158015610608573d6000803e3d6000fd5b505050506040513d601f19601f8201168201806040525081019061062c9190611059565b61063a9060ff16600a6111cb565b61064c86670de0b6b3a7640000610d99565b90610db5565b979650505050505050565b6002546040517fbcfd032d00000000000000000000000000000000000000000000000000000000815273ffffffffffffffffffffffffffffffffffffffff848116600483015261034860248301529091169063bcfd032d9060440160a060405180830381865afa92505050801561070f575060408051601f3d9081017fffffffffffffffffffffffffffffffffffffffffffffffffffffffffffffffe016820190925261070c91810190610e98565b60015b6107e15761071b610ee8565b806308c379a014156105525750610730610f76565b8061073b5750610554565b6040517f46656564206e6f7420666f756e640000000000000000000000000000000000006020820152602e01604051602081830303815290604052805190602001208160405160200161078e919061101e565b60405160208183030381529060405280519060200120146107db576040517f48ae232300000000000000000000000000000000000000000000000000000000815260040160405180910390fd5b506109ab565b600084136107f6575060009695505050505050565b6107ff82610d42565b6002546040517fbcfd032d00000000000000000000000000000000000000000000000000000000815273eeeeeeeeeeeeeeeeeeeeeeeeeeeeeeeeeeeeeeee6004820152610348602482015260009173ffffffffffffffffffffffffffffffffffffffff169063bcfd032d9060440160a060405180830381865afa15801561088a573d6000803e3d6000fd5b505050506040513d601f19601f820116820180604052508101906108ae9190610e98565b509550909250506000821390506108cd57506000979650505050505050565b6108d683610d42565b6002546040517f58e2d3a800000000000000000000000000000000000000000000000000000000815273ffffffffffffffffffffffffffffffffffffffff8a81166004830152610348602483015261099f92849261064c92909116906358e2d3a890604401602060405180830381865afa158015610958573d6000803e3d6000fd5b505050506040513d601f19601f8201168201806040525081019061097c9190611059565b61098a9060ff16600a6111cb565b61064c896a52b7d2dcc80cd2e4000000610d99565b98975050505050505050565b6002546040517fbcfd032d00000000000000000000000000000000000000000000000000000000815273ffffffffffffffffffffffffffffffffffffffff848116600483015273bbbbbbbbbbbbbbbbbbbbbbbbbbbbbbbbbbbbbbbb60248301529091169063bcfd032d9060440160a060405180830381865afa925050508015610a6f575060408051601f3d9081017fffffffffffffffffffffffffffffffffffffffffffffffffffffffffffffffe0168201909252610a6c91810190610e98565b60015b610b4157610a7b610ee8565b806308c379a014156105525750610a90610f76565b80610a9b5750610554565b6040517f46656564206e6f7420666f756e640000000000000000000000000000000000006020820152602e016040516020818303038152906040528051906020012081604051602001610aee919061101e565b6040516020818303038152906040528051906020012014610b3b576040517f48ae232300000000000000000000000000000000000000000000000000000000815260040160405180910390fd5b50610d10565b60008413610b56575060009695505050505050565b610b5f82610d42565b6002546040517fbcfd032d00000000000000000000000000000000000000000000000000000000815273bbbbbbbbbbbbbbbbbbbbbbbbbbbbbbbbbbbbbbbb600482015273eeeeeeeeeeeeeeeeeeeeeeeeeeeeeeeeeeeeeeee602482015260009173ffffffffffffffffffffffffffffffffffffffff169063bcfd032d9060440160a060405180830381865afa158015610bfc573d6000803e3d6000fd5b505050506040513d601f19601f82011682018060405250810190610c209190610e98565b50955090925050600082139050610c3f57506000979650505050505050565b610c4883610d42565b6002546040517f58e2d3a800000000000000000000000000000000000000000000000000000000815273ffffffffffffffffffffffffffffffffffffffff8a8116600483015273bbbbbbbbbbbbbbbbbbbbbbbbbbbbbbbbbbbbbbbb602483015261099f9216906358e2d3a890604401602060405180830381865afa158015610cd4573d6000803e3d6000fd5b505050506040513d601f19601f82011682018060405250810190610cf89190611059565b610d069060ff16600a6111cb565b61064c8784610d99565b6040517f7b874a4700000000000000000000000000000000000000000000000000000000815260040160405180910390fd5b6000600154118015610d605750600154610d5c90826111d7565b4211155b15610d96576040517ebfc92100000000000000000000000000000000000000000000000000000000815260040160405180910390fd5b50565b6000610dae8383670de0b6b3a7640000610dc6565b9392505050565b6000610dae83670de0b6b3a7640000845b828202811515841585830485141716610dde57600080fd5b0492915050565b803573ffffffffffffffffffffffffffffffffffffffff81168114610e0957600080fd5b919050565b60008060408385031215610e2157600080fd5b610e2a83610de5565b915060208301358015158114610e3f57600080fd5b809150509250929050565b600060208284031215610e5c57600080fd5b5035919050565b600060208284031215610e7557600080fd5b610dae82610de5565b805169ffffffffffffffffffff81168114610e0957600080fd5b600080600080600060a08688031215610eb057600080fd5b610eb986610e7e565b9450602086015193506040860151925060608601519150610edc60808701610e7e565b90509295509295909350565b600060033d1115610f015760046000803e5060005160e01c5b90565b7fffffffffffffffffffffffffffffffffffffffffffffffffffffffffffffffe0601f830116810181811067ffffffffffffffff82111715610f6f577f4e487b7100000000000000000000000000000000000000000000000000000000600052604160045260246000fd5b6040525050565b600060443d1015610f845790565b6040517ffffffffffffffffffffffffffffffffffffffffffffffffffffffffffffffffc803d016004833e81513d67ffffffffffffffff8160248401118184111715610fd257505050505090565b8285019150815181811115610fea5750505050505090565b843d87010160208285010111156110045750505050505090565b61101360208286010187610f04565b509095945050505050565b6000825160005b8181101561103f5760208186018101518583015201611025565b8181111561104e576000828501525b509190910192915050565b60006020828403121561106b57600080fd5b815160ff81168114610dae57600080fd5b7f4e487b7100000000000000000000000000000000000000000000000000000000600052601160045260246000fd5b600181815b8085111561110457817fffffffffffffffffffffffffffffffffffffffffffffffffffffffffffffffff048211156110ea576110ea61107c565b808516156110f757918102915b93841c93908002906110b0565b509250929050565b60008261111b57506001610373565b8161112857506000610373565b816001811461113e576002811461114857611164565b6001915050610373565b60ff8411156111595761115961107c565b50506001821b610373565b5060208310610133831016604e8410600b8410161715611187575081810a610373565b61119183836110ab565b807fffffffffffffffffffffffffffffffffffffffffffffffffffffffffffffffff048211156111c3576111c361107c565b029392505050565b6000610dae838361110c565b600082198211156111ea576111ea61107c565b50019056fea26469706673582212203ceb963e793a0836abd39e5382d8b1ea8ec8f30f782ba39d31d4c61ff2b68f9564736f6c634300080b0033",
  "devdoc": {
    "author": "Inspired by: https://github.com/Rari-Capital/fuse-v1/blob/development/src/oracles/ChainlinkPriceOracleV3.sol",
    "details": "Implements `IPricefeed` and `Trust`.",
    "kind": "dev",
    "methods": {
      "price(address)": {
        "details": "Returns the price in ETH of `underlying` (implements `BasePriceOracle`)."
      },
      "setMaxSecondsBeforePriceIsStale(uint256)": {
        "details": "Sets the `maxSecondsBeforePriceIsStale`."
      }
    },
    "title": "ChainlinkPriceOracle",
    "version": 1
  },
  "userdoc": {
    "kind": "user",
    "methods": {},
    "notice": "Returns prices from Chainlink.",
    "version": 1
  },
  "storageLayout": {
    "storage": [
      {
        "astId": 19033,
        "contract": "@sense-finance/v1-core/src/adapters/implementations/oracles/ChainlinkPriceOracle.sol:ChainlinkPriceOracle",
        "label": "isTrusted",
        "offset": 0,
        "slot": "0",
        "type": "t_mapping(t_address,t_bool)"
      },
      {
        "astId": 11810,
        "contract": "@sense-finance/v1-core/src/adapters/implementations/oracles/ChainlinkPriceOracle.sol:ChainlinkPriceOracle",
        "label": "maxSecondsBeforePriceIsStale",
        "offset": 0,
        "slot": "1",
        "type": "t_uint256"
      },
      {
        "astId": 11816,
        "contract": "@sense-finance/v1-core/src/adapters/implementations/oracles/ChainlinkPriceOracle.sol:ChainlinkPriceOracle",
        "label": "feedRegistry",
        "offset": 0,
        "slot": "2",
        "type": "t_contract(FeedRegistryLike)11788"
      }
    ],
    "types": {
      "t_address": {
        "encoding": "inplace",
        "label": "address",
        "numberOfBytes": "20"
      },
      "t_bool": {
        "encoding": "inplace",
        "label": "bool",
        "numberOfBytes": "1"
      },
      "t_contract(FeedRegistryLike)11788": {
        "encoding": "inplace",
        "label": "contract FeedRegistryLike",
        "numberOfBytes": "20"
      },
      "t_mapping(t_address,t_bool)": {
        "encoding": "mapping",
        "key": "t_address",
        "label": "mapping(address => bool)",
        "numberOfBytes": "32",
        "value": "t_bool"
      },
      "t_uint256": {
        "encoding": "inplace",
        "label": "uint256",
        "numberOfBytes": "32"
      }
    }
  }
}