{
  "address": "0x1b037B8aC231A13a22eD91e96228cF3a2259e25B",
  "abi": [
    {
      "inputs": [
        {
          "internalType": "address",
          "name": "_divider",
          "type": "address"
        },
        {
          "components": [
            {
              "internalType": "address",
              "name": "oracle",
              "type": "address"
            },
            {
              "internalType": "address",
              "name": "stake",
              "type": "address"
            },
            {
              "internalType": "uint256",
              "name": "stakeSize",
              "type": "uint256"
            },
            {
              "internalType": "uint256",
              "name": "minm",
              "type": "uint256"
            },
            {
              "internalType": "uint256",
              "name": "maxm",
              "type": "uint256"
            },
            {
              "internalType": "uint128",
              "name": "ifee",
              "type": "uint128"
            },
            {
              "internalType": "uint16",
              "name": "mode",
              "type": "uint16"
            },
            {
              "internalType": "uint64",
              "name": "tilt",
              "type": "uint64"
            },
            {
              "internalType": "uint256",
              "name": "guard",
              "type": "uint256"
            }
          ],
          "internalType": "struct BaseFactory.FactoryParams",
          "name": "_factoryParams",
          "type": "tuple"
        }
      ],
      "stateMutability": "nonpayable",
      "type": "constructor"
    },
    {
      "inputs": [],
      "name": "InvalidPrice",
      "type": "error"
    },
    {
      "inputs": [],
      "name": "OnlyPeriphery",
      "type": "error"
    },
    {
      "inputs": [],
      "name": "TargetNotSupported",
      "type": "error"
    },
    {
      "anonymous": false,
      "inputs": [
        {
          "indexed": true,
          "internalType": "address",
          "name": "target",
          "type": "address"
        },
        {
          "indexed": true,
          "internalType": "bool",
          "name": "supported",
          "type": "bool"
        }
      ],
      "name": "TargetSupported",
      "type": "event"
    },
    {
      "anonymous": false,
      "inputs": [
        {
          "indexed": true,
          "internalType": "address",
          "name": "user",
          "type": "address"
        },
        {
          "indexed": false,
          "internalType": "bool",
          "name": "trusted",
          "type": "bool"
        }
      ],
      "name": "UserTrustUpdated",
      "type": "event"
    },
    {
      "inputs": [],
      "name": "DEFAULT_LEVEL",
      "outputs": [
        {
          "internalType": "uint48",
          "name": "",
          "type": "uint48"
        }
      ],
      "stateMutability": "view",
      "type": "function"
    },
    {
      "inputs": [],
      "name": "ETH_USD_PRICEFEED",
      "outputs": [
        {
          "internalType": "address",
          "name": "",
          "type": "address"
        }
      ],
      "stateMutability": "view",
      "type": "function"
    },
    {
      "inputs": [
        {
          "internalType": "address",
          "name": "_target",
          "type": "address"
        },
        {
          "internalType": "bytes",
          "name": "data",
          "type": "bytes"
        }
      ],
      "name": "deployAdapter",
      "outputs": [
        {
          "internalType": "address",
          "name": "adapter",
          "type": "address"
        }
      ],
      "stateMutability": "nonpayable",
      "type": "function"
    },
    {
      "inputs": [],
      "name": "divider",
      "outputs": [
        {
          "internalType": "address",
          "name": "",
          "type": "address"
        }
      ],
      "stateMutability": "view",
      "type": "function"
    },
    {
      "inputs": [],
      "name": "factoryParams",
      "outputs": [
        {
          "internalType": "address",
          "name": "oracle",
          "type": "address"
        },
        {
          "internalType": "address",
          "name": "stake",
          "type": "address"
        },
        {
          "internalType": "uint256",
          "name": "stakeSize",
          "type": "uint256"
        },
        {
          "internalType": "uint256",
          "name": "minm",
          "type": "uint256"
        },
        {
          "internalType": "uint256",
          "name": "maxm",
          "type": "uint256"
        },
        {
          "internalType": "uint128",
          "name": "ifee",
          "type": "uint128"
        },
        {
          "internalType": "uint16",
          "name": "mode",
          "type": "uint16"
        },
        {
          "internalType": "uint64",
          "name": "tilt",
          "type": "uint64"
        },
        {
          "internalType": "uint256",
          "name": "guard",
          "type": "uint256"
        }
      ],
      "stateMutability": "view",
      "type": "function"
    },
    {
      "inputs": [
        {
          "internalType": "address",
          "name": "",
          "type": "address"
        }
      ],
      "name": "isTrusted",
      "outputs": [
        {
          "internalType": "bool",
          "name": "",
          "type": "bool"
        }
      ],
      "stateMutability": "view",
      "type": "function"
    },
    {
      "inputs": [
        {
          "internalType": "address",
          "name": "user",
          "type": "address"
        },
        {
          "internalType": "bool",
          "name": "trusted",
          "type": "bool"
        }
      ],
      "name": "setIsTrusted",
      "outputs": [],
      "stateMutability": "nonpayable",
      "type": "function"
    },
    {
      "inputs": [
        {
          "internalType": "address",
          "name": "_target",
          "type": "address"
        },
        {
          "internalType": "bool",
          "name": "supported",
          "type": "bool"
        }
      ],
      "name": "supportTarget",
      "outputs": [],
      "stateMutability": "nonpayable",
      "type": "function"
    },
    {
      "inputs": [
        {
          "internalType": "address[]",
          "name": "_targets",
          "type": "address[]"
        },
        {
          "internalType": "bool",
          "name": "supported",
          "type": "bool"
        }
      ],
      "name": "supportTargets",
      "outputs": [],
      "stateMutability": "nonpayable",
      "type": "function"
    },
    {
      "inputs": [
        {
          "internalType": "address",
          "name": "",
          "type": "address"
        }
      ],
      "name": "supportedTargets",
      "outputs": [
        {
          "internalType": "bool",
          "name": "",
          "type": "bool"
        }
      ],
      "stateMutability": "view",
      "type": "function"
    }
  ],
  "transactionHash": "0x3ca4bac2215bd8dff0edf7a8198836af972f25127a3a9f4895ec2a398f4355a2",
  "args": [
    "0x86bA3E96Be68563E41c2f5769F1AF9fAf758e6E0",
    [
      "0x11D341d35BF95654BC7A9db59DBc557cCB4ea101",
      "0xC02aaA39b223FE8D0A0e5C4F27eAD9083C756Cc2",
      "250000000000000000",
      "2629800",
      "315576000",
      "1000000000000000",
      0,
      0,
      "100000000000000000000000"
    ]
  ],
  "numDeployments": 1,
  "solcInputHash": "a6e3c3e2bf371910163f655c74965109",
  "bytecode": "0x60a06040523480156200001157600080fd5b50604051620035d7380380620035d78339810160408190526200003491620001ea565b6001600160a01b0380831660809081528251600080549184166001600160a01b03199283161781556020808601516001805491909616931692909217845560408086015160025560608601516003559285015160045560a08501516005805460c088015160e08901516001600160401b0316600160901b02600160901b600160d01b031961ffff909216600160801b026001600160901b03199093166001600160801b03909516949094179190911716919091179055610100850151600655338082526007909252829020805460ff1916841790559051909182917fe95aec380cae16330d146d5499ef7db6f3657e477104a733e771bc09e500d986916200014191901515815260200190565b60405180910390a2505050620002bb565b80516001600160a01b03811681146200016a57600080fd5b919050565b60405161012081016001600160401b0381118282101715620001a157634e487b7160e01b600052604160045260246000fd5b60405290565b80516001600160801b03811681146200016a57600080fd5b805161ffff811681146200016a57600080fd5b80516001600160401b03811681146200016a57600080fd5b6000808284036101408112156200020057600080fd5b6200020b8462000152565b925061012080601f19830112156200022257600080fd5b6200022c6200016f565b91506200023c6020860162000152565b82526200024c6040860162000152565b6020830152606085015160408301526080850151606083015260a085015160808301526200027d60c08601620001a7565b60a08301526200029060e08601620001bf565b60c0830152610100620002a5818701620001d2565b60e0840152940151938101939093525092909150565b6080516132de620002f96000396000818160f10152818161044601528181610526015281816106ea015281816109e60152610c8601526132de6000f3fe60806040523480156200001157600080fd5b5060043610620000cd5760003560e01c806395a39fb1116200007f578063bbe451d51162000062578063bbe451d514620001df578063cac0e3c214620002e5578063dc69c06f14620002fc57600080fd5b806395a39fb1146200019157806396d6487914620001a857600080fd5b80633cad2dcd11620000b45780633cad2dcd146200013d57806340cc63e1146200015457806393d4750c146200017057600080fd5b80631393916a14620000d2578063378efa3714620000eb575b600080fd5b620000e9620000e336600462000f03565b62000322565b005b620001137f000000000000000000000000000000000000000000000000000000000000000081565b60405173ffffffffffffffffffffffffffffffffffffffff90911681526020015b60405180910390f35b620001136200014e36600462000fc2565b6200042b565b62000113735f4ec3df9cbd43714fe2740f5e3616155c5b841981565b62000179601f81565b60405165ffffffffffff909116815260200162000134565b620000e9620001a236600462001093565b62000773565b620001ce620001b936600462001166565b60076020526000908152604090205460ff1681565b604051901515815260200162000134565b600054600154600254600354600454600554600654620002689673ffffffffffffffffffffffffffffffffffffffff9081169616949392916fffffffffffffffffffffffffffffffff811691700100000000000000000000000000000000820461ffff16917201000000000000000000000000000000000000900467ffffffffffffffff169089565b6040805173ffffffffffffffffffffffffffffffffffffffff9a8b1681529990981660208a015296880195909552606087019390935260808601919091526fffffffffffffffffffffffffffffffff1660a085015261ffff1660c084015267ffffffffffffffff1660e08301526101008201526101200162000134565b620000e9620002f636600462000f03565b620008ea565b620001ce6200030d36600462001166565b60086020526000908152604090205460ff1681565b3360009081526007602052604090205460ff16620003a1576040517f08c379a000000000000000000000000000000000000000000000000000000000815260206004820152600960248201527f554e54525553544544000000000000000000000000000000000000000000000060448201526064015b60405180910390fd5b73ffffffffffffffffffffffffffffffffffffffff821660008181526007602090815260409182902080547fffffffffffffffffffffffffffffffffffffffffffffffffffffffffffffff001685151590811790915591519182527fe95aec380cae16330d146d5499ef7db6f3657e477104a733e771bc09e500d986910160405180910390a25050565b60003373ffffffffffffffffffffffffffffffffffffffff167f000000000000000000000000000000000000000000000000000000000000000073ffffffffffffffffffffffffffffffffffffffff166377aace1a6040518163ffffffff1660e01b8152600401602060405180830381865afa158015620004b0573d6000803e3d6000fd5b505050506040513d601f19601f82011682018060405250810190620004d691906200118d565b73ffffffffffffffffffffffffffffffffffffffff161462000524576040517ffb02114900000000000000000000000000000000000000000000000000000000815260040160405180910390fd5b7f000000000000000000000000000000000000000000000000000000000000000073ffffffffffffffffffffffffffffffffffffffff1663a1256f9f6040518163ffffffff1660e01b8152600401602060405180830381865afa15801562000590573d6000803e3d6000fd5b505050506040513d601f19601f82011682018060405250810190620005b69190620011ad565b158015620005ea575073ffffffffffffffffffffffffffffffffffffffff831660009081526008602052604090205460ff16155b1562000622576040517fa2a94ace00000000000000000000000000000000000000000000000000000000815260040160405180910390fd5b604080516101008101825260005473ffffffffffffffffffffffffffffffffffffffff90811682526001541660208201526002549181019190915260035460608083019190915260045460808301526005547201000000000000000000000000000000000000810467ffffffffffffffff1660a0840152601f60c0840152700100000000000000000000000000000000900461ffff1660e083015284901b7fffffffffffffffffffffffffffffffffffffffff000000000000000000000000166005546040517f00000000000000000000000000000000000000000000000000000000000000009187916fffffffffffffffffffffffffffffffff9091169085906200072e9062000eb1565b6200073d9493929190620011cd565b8190604051809103906000f59050801580156200075e573d6000803e3d6000fd5b5091506200076c82620009e4565b5092915050565b3360009081526007602052604090205460ff16620007ee576040517f08c379a000000000000000000000000000000000000000000000000000000000815260206004820152600960248201527f554e545255535445440000000000000000000000000000000000000000000000604482015260640162000398565b60005b8251811015620008e55781600860008584815181106200081557620008156200128f565b602002602001015173ffffffffffffffffffffffffffffffffffffffff1673ffffffffffffffffffffffffffffffffffffffff16815260200190815260200160002060006101000a81548160ff0219169083151502179055508115158382815181106200088657620008866200128f565b602002602001015173ffffffffffffffffffffffffffffffffffffffff167f34465fae8b1f082faa1eb1845b34c2bfd6b86cc48df2ebf6426eeddd7e3a4c9a60405160405180910390a380620008dc81620012ed565b915050620007f1565b505050565b3360009081526007602052604090205460ff1662000965576040517f08c379a000000000000000000000000000000000000000000000000000000000815260206004820152600960248201527f554e545255535445440000000000000000000000000000000000000000000000604482015260640162000398565b73ffffffffffffffffffffffffffffffffffffffff821660008181526008602052604080822080547fffffffffffffffffffffffffffffffffffffffffffffffffffffffffffffff001685151590811790915590519092917f34465fae8b1f082faa1eb1845b34c2bfd6b86cc48df2ebf6426eeddd7e3a4c9a91a35050565b7f000000000000000000000000000000000000000000000000000000000000000073ffffffffffffffffffffffffffffffffffffffff166372f7a0306040518163ffffffff1660e01b8152600401602060405180830381865afa15801562000a50573d6000803e3d6000fd5b505050506040513d601f19601f8201168201806040525081019062000a769190620011ad565b1562000e4d5760008190508073ffffffffffffffffffffffffffffffffffffffff1663468f02d26040518163ffffffff1660e01b8152600401602060405180830381865afa92505050801562000b09575060408051601f3d9081017fffffffffffffffffffffffffffffffffffffffffffffffffffffffffffffffe016820190925262000b069181019062001329565b60015b62000b145762000e4b565b600080735f4ec3df9cbd43714fe2740f5e3616155c5b841973ffffffffffffffffffffffffffffffffffffffff1663feaf968c6040518163ffffffff1660e01b815260040160a060405180830381865afa15801562000b77573d6000803e3d6000fd5b505050506040513d601f19601f8201168201806040525081019062000b9d91906200135e565b50935050925050611c20814262000bb59190620013b3565b111562000bed576040517ebfc92100000000000000000000000000000000000000000000000000000000815260040160405180910390fd5b600062000c0084846305f5e10062000e50565b905062000c82818673ffffffffffffffffffffffffffffffffffffffff1663f51e181a6040518163ffffffff1660e01b81526004016020604051808303816000875af115801562000c55573d6000803e3d6000fd5b505050506040513d601f19601f8201168201806040525081019062000c7b919062001329565b9062000e67565b90507f000000000000000000000000000000000000000000000000000000000000000073ffffffffffffffffffffffffffffffffffffffff16635fa0cc0a8762000dc1848973ffffffffffffffffffffffffffffffffffffffff1663d4b839926040518163ffffffff1660e01b8152600401602060405180830381865afa15801562000d12573d6000803e3d6000fd5b505050506040513d601f19601f8201168201806040525081019062000d3891906200118d565b73ffffffffffffffffffffffffffffffffffffffff1663313ce5676040518163ffffffff1660e01b8152600401602060405180830381865afa15801562000d83573d6000803e3d6000fd5b505050506040513d601f19601f8201168201806040525081019062000da9919062001329565b62000db690600a62001506565b600654919062000e87565b6040517fffffffff0000000000000000000000000000000000000000000000000000000060e085901b16815273ffffffffffffffffffffffffffffffffffffffff90921660048301526024820152604401600060405180830381600087803b15801562000e2d57600080fd5b505af115801562000e42573d6000803e3d6000fd5b50505050505050505b505b50565b600062000e5f84848462000e91565b949350505050565b600062000e7e8383670de0b6b3a764000062000e91565b90505b92915050565b600062000e5f8483855b82820281151584158583048514171662000eaa57600080fd5b0492915050565b611d94806200151583390190565b73ffffffffffffffffffffffffffffffffffffffff8116811462000e4d57600080fd5b801515811462000e4d57600080fd5b803562000efe8162000ee2565b919050565b6000806040838503121562000f1757600080fd5b823562000f248162000ebf565b9150602083013562000f368162000ee2565b809150509250929050565b7f4e487b7100000000000000000000000000000000000000000000000000000000600052604160045260246000fd5b604051601f82017fffffffffffffffffffffffffffffffffffffffffffffffffffffffffffffffe016810167ffffffffffffffff8111828210171562000fba5762000fba62000f41565b604052919050565b6000806040838503121562000fd657600080fd5b823562000fe38162000ebf565b915060208381013567ffffffffffffffff808211156200100257600080fd5b818601915086601f8301126200101757600080fd5b8135818111156200102c576200102c62000f41565b6200105e847fffffffffffffffffffffffffffffffffffffffffffffffffffffffffffffffe0601f8401160162000f70565b915080825287848285010111156200107557600080fd5b80848401858401376000848284010152508093505050509250929050565b60008060408385031215620010a757600080fd5b823567ffffffffffffffff80821115620010c057600080fd5b818501915085601f830112620010d557600080fd5b8135602082821115620010ec57620010ec62000f41565b8160051b9250620010ff81840162000f70565b82815292840181019281810190898511156200111a57600080fd5b948201945b84861015620011485785359350620011378462000ebf565b83825294820194908201906200111f565b965062001159905087820162000ef1565b9450505050509250929050565b6000602082840312156200117957600080fd5b8135620011868162000ebf565b9392505050565b600060208284031215620011a057600080fd5b8151620011868162000ebf565b600060208284031215620011c057600080fd5b8151620011868162000ee2565b60006101608201905073ffffffffffffffffffffffffffffffffffffffff808716835280861660208401526fffffffffffffffffffffffffffffffff8516604084015280845116606084015280602085015116608084015250604083015160a0830152606083015160c0830152608083015160e083015267ffffffffffffffff60a08401511661010083015260c08301516200127461012084018265ffffffffffff169052565b5060e083015161ffff81166101408401525095945050505050565b7f4e487b7100000000000000000000000000000000000000000000000000000000600052603260045260246000fd5b7f4e487b7100000000000000000000000000000000000000000000000000000000600052601160045260246000fd5b60007fffffffffffffffffffffffffffffffffffffffffffffffffffffffffffffffff821415620013225762001322620012be565b5060010190565b6000602082840312156200133c57600080fd5b5051919050565b805169ffffffffffffffffffff8116811462000efe57600080fd5b600080600080600060a086880312156200137757600080fd5b620013828662001343565b9450602086015193506040860151925060608601519150620013a76080870162001343565b90509295509295909350565b600082821015620013c857620013c8620012be565b500390565b600181815b808511156200142c57817fffffffffffffffffffffffffffffffffffffffffffffffffffffffffffffffff04821115620014105762001410620012be565b808516156200141e57918102915b93841c9390800290620013d2565b509250929050565b600082620014455750600162000e81565b81620014545750600062000e81565b81600181146200146d5760028114620014785762001498565b600191505062000e81565b60ff8411156200148c576200148c620012be565b50506001821b62000e81565b5060208310610133831016604e8410600b8410161715620014bd575081810a62000e81565b620014c98383620013cd565b807fffffffffffffffffffffffffffffffffffffffffffffffffffffffffffffffff04821115620014fe57620014fe620012be565b029392505050565b600062000e7e83836200143456fe6101406040523480156200001257600080fd5b5060405162001d9438038062001d94833981016040819052620000359162000627565b8383846001600160a01b03166338d52e0f6040518163ffffffff1660e01b8152600401602060405180830381865afa15801562000076573d6000803e3d6000fd5b505050506040513d601f19601f820116820180604052508101906200009c91906200072a565b6001600160a01b03808416608090815283821660a081815284841660c09081526001600160801b038a1660e09081528951600080549188166001600160a01b031992831617815560208c015160018054919099169216919091179096556040808b015160025560608b0151600355948a01516004908155928a015160058054938c0151928c015161ffff16600160701b0261ffff60701b1965ffffffffffff90941668010000000000000000026001600160701b03199095166001600160401b0390931692909217939093179190911617905582516306fdde0360e01b81529251899489946306fdde039381810193918290030181865afa158015620001a6573d6000803e3d6000fd5b505050506040513d6000823e601f3d908101601f19168201604052620001d0919081019062000784565b604051602001620001e291906200083c565b6040516020818303038152906040526006908051906020019062000208929190620004d2565b50836001600160a01b03166395d89b416040518163ffffffff1660e01b8152600401600060405180830381865afa15801562000248573d6000803e3d6000fd5b505050506040513d6000823e601f3d908101601f1916820160405262000272919081019062000784565b6040516020016200028491906200086a565b60405160208183030381529060405260079080519060200190620002aa929190620004d2565b5060805160405163095ea7b360e01b81526001600160a01b03918216600482015260001960248201529085169063095ea7b3906044016020604051808303816000875af115801562000300573d6000803e3d6000fd5b505050506040513d601f19601f8201168201806040525081019062000326919062000898565b50602081015160805160405163095ea7b360e01b81526001600160a01b039182166004820152600019602482015291169063095ea7b3906044016020604051808303816000875af115801562000380573d6000803e3d6000fd5b505050506040513d601f19601f82011682018060405250810190620003a6919062000898565b505050505050600060a0516001600160a01b031663313ce5676040518163ffffffff1660e01b8152600401602060405180830381865afa158015620003ef573d6000803e3d6000fd5b505050506040513d601f19601f82011682018060405250810190620004159190620008bc565b60ff1690506200042781600a620009f6565b610100526200043881601262000a04565b6200044590600a620009f6565b6101205260c05160a05160405163095ea7b360e01b81526001600160a01b039182166004820152600019602482015291169063095ea7b3906044016020604051808303816000875af1158015620004a0573d6000803e3d6000fd5b505050506040513d601f19601f82011682018060405250810190620004c6919062000898565b50505050505062000a5b565b828054620004e09062000a1e565b90600052602060002090601f0160209004810192826200050457600085556200054f565b82601f106200051f57805160ff19168380011785556200054f565b828001600101855582156200054f579182015b828111156200054f57825182559160200191906001019062000532565b506200055d92915062000561565b5090565b5b808211156200055d576000815560010162000562565b6001600160a01b03811681146200058e57600080fd5b50565b80516200059e8162000578565b919050565b634e487b7160e01b600052604160045260246000fd5b60405161010081016001600160401b0381118282101715620005df57620005df620005a3565b60405290565b80516001600160401b03811681146200059e57600080fd5b805165ffffffffffff811681146200059e57600080fd5b805161ffff811681146200059e57600080fd5b6000806000808486036101608112156200064057600080fd5b85516200064d8162000578565b6020870151909550620006608162000578565b60408701519094506001600160801b03811681146200067e57600080fd5b9250610100605f1982018113156200069557600080fd5b6200069f620005b9565b91506060870151620006b18162000578565b8252620006c16080880162000591565b602083015260a0870151604083015260c0870151606083015260e08701516080830152620006f1818801620005e5565b60a083015250620007066101208701620005fd565b60c08201526200071a610140870162000614565b60e0820152939692955090935050565b6000602082840312156200073d57600080fd5b81516200074a8162000578565b9392505050565b60005b838110156200076e57818101518382015260200162000754565b838111156200077e576000848401525b50505050565b6000602082840312156200079757600080fd5b81516001600160401b0380821115620007af57600080fd5b818401915084601f830112620007c457600080fd5b815181811115620007d957620007d9620005a3565b604051601f8201601f19908116603f01168101908382118183101715620008045762000804620005a3565b816040528281528760208487010111156200081e57600080fd5b6200083183602083016020880162000751565b979650505050505050565b600082516200085081846020870162000751565b671020b230b83a32b960c11b920191825250600801919050565b600082516200087e81846020870162000751565b6716b0b230b83a32b960c11b920191825250600801919050565b600060208284031215620008ab57600080fd5b815180151581146200074a57600080fd5b600060208284031215620008cf57600080fd5b815160ff811681146200074a57600080fd5b634e487b7160e01b600052601160045260246000fd5b600181815b80851115620009385781600019048211156200091c576200091c620008e1565b808516156200092a57918102915b93841c9390800290620008fc565b509250929050565b6000826200095157506001620009f0565b816200096057506000620009f0565b81600181146200097957600281146200098457620009a4565b6001915050620009f0565b60ff841115620009985762000998620008e1565b50506001821b620009f0565b5060208310610133831016604e8410600b8410161715620009c9575081810a620009f0565b620009d58383620008f7565b8060001904821115620009ec57620009ec620008e1565b0290505b92915050565b60006200074a838362000940565b60008282101562000a195762000a19620008e1565b500390565b600181811c9082168062000a3357607f821691505b6020821081141562000a5557634e487b7160e01b600052602260045260246000fd5b50919050565b60805160a05160c05160e051610100516101205161128e62000b066000396000818161051f01526106750152600081816104f8015261064c0152600061049e0152600081816104190152818161076701526108320152600081816102f501528181610546015281816106ac0152818161088f0152818161095701528181610aaa01528181610b2001528181610c080152610cbb01526000818161034e01526109b6015261128e6000f3fe608060405234801561001057600080fd5b50600436106101ae5760003560e01c80636f307dc3116100ee578063c39a3b2911610097578063d4b8399211610071578063d4b8399214610541578063d9d98ce414610568578063f51e181a146102be578063f60c05ce1461057b57600080fd5b8063c39a3b29146104e1578063cce59386146104f3578063ce4b5bbe1461051a57600080fd5b806395d89b41116100c857806395d89b411461047e578063b484972a14610486578063b8c15a9f1461049957600080fd5b80636f307dc3146104145780636fd5ae151461043b5780638237e5381461045757600080fd5b8063378efa371161015b57806351c39ea11161013557806351c39ea1146103b05780635cffe9de146103c3578063613255ab146103e657806364c56e3c146103f957600080fd5b8063378efa3714610349578063468f02d2146103955780634aae9fed1461039d57600080fd5b8063226778491161018c57806322677849146102be57806327b327d0146102d4578063295a52121461032b57600080fd5b806306fdde03146101b3578063083118d5146101d157806314282f58146102a8575b600080fd5b6101bb610596565b6040516101c89190610ecb565b60405180910390f35b60005460015460025460035460045460055461023f9573ffffffffffffffffffffffffffffffffffffffff90811695169392919067ffffffffffffffff81169068010000000000000000810465ffffffffffff16906e010000000000000000000000000000900461ffff1688565b6040805173ffffffffffffffffffffffffffffffffffffffff998a168152989097166020890152958701949094526060860192909252608085015267ffffffffffffffff1660a084015265ffffffffffff1660c083015261ffff1660e0820152610100016101c8565b6102bc6102b6366004610f3e565b50505050565b005b6102c6610624565b6040519081526020016101c8565b6001546002546040805173ffffffffffffffffffffffffffffffffffffffff7f00000000000000000000000000000000000000000000000000000000000000008116825290931660208401528201526060016101c8565b6005546e010000000000000000000000000000900461ffff166102c6565b6103707f000000000000000000000000000000000000000000000000000000000000000081565b60405173ffffffffffffffffffffffffffffffffffffffff90911681526020016101c8565b6102c6610726565b6102c66103ab366004610f70565b610816565b6102c66103be366004610f70565b610918565b6103d66103d1366004610fae565b61099b565b60405190151581526020016101c8565b6102c66103f436600461104d565b610c3d565b600354600454604080519283526020830191909152016101c8565b6103707f000000000000000000000000000000000000000000000000000000000000000081565b60055468010000000000000000900465ffffffffffff166102c6565b6102c67f439148f0bbc682ca079e46d6e2c2f0c1e3b820f1a291b069d8882abf8cf18dd981565b6101bb610caa565b6102bc610494366004611071565b505050565b6104c07f000000000000000000000000000000000000000000000000000000000000000081565b6040516fffffffffffffffffffffffffffffffff90911681526020016101c8565b60055467ffffffffffffffff166102c6565b6102c67f000000000000000000000000000000000000000000000000000000000000000081565b6102c67f000000000000000000000000000000000000000000000000000000000000000081565b6103707f000000000000000000000000000000000000000000000000000000000000000081565b6102c66105763660046110b8565b610cb7565b610370731887118e49e0f4a78bd71b792a49de03504a764d81565b600680546105a3906110e4565b80601f01602080910402602001604051908101604052809291908181526020018280546105cf906110e4565b801561061c5780601f106105f15761010080835404028352916020019161061c565b820191906000526020600020905b8154815290600101906020018083116105ff57829003601f168201915b505050505081565b6040517f07a2d13a0000000000000000000000000000000000000000000000000000000081527f000000000000000000000000000000000000000000000000000000000000000060048201526000907f00000000000000000000000000000000000000000000000000000000000000009073ffffffffffffffffffffffffffffffffffffffff7f000000000000000000000000000000000000000000000000000000000000000016906307a2d13a90602401602060405180830381865afa1580156106f3573d6000803e3d6000fd5b505050506040513d601f19601f820116820180604052508101906107179190611138565b6107219190611151565b905090565b600080546040517faea9107800000000000000000000000000000000000000000000000000000000815273ffffffffffffffffffffffffffffffffffffffff7f0000000000000000000000000000000000000000000000000000000000000000811660048301529091169063aea9107890602401602060405180830381865afa1580156107b7573d6000803e3d6000fd5b505050506040513d601f19601f820116820180604052508101906107db9190611138565b905080610813576040517ebfc92100000000000000000000000000000000000000000000000000000000815260040160405180910390fd5b90565b600061085a73ffffffffffffffffffffffffffffffffffffffff7f000000000000000000000000000000000000000000000000000000000000000016333085610d47565b6040517f6e553f65000000000000000000000000000000000000000000000000000000008152600481018390523360248201527f000000000000000000000000000000000000000000000000000000000000000073ffffffffffffffffffffffffffffffffffffffff1690636e553f65906044015b6020604051808303816000875af11580156108ee573d6000803e3d6000fd5b505050506040513d601f19601f820116820180604052508101906109129190611138565b92915050565b6040517fba08765200000000000000000000000000000000000000000000000000000000815260048101829052336024820181905260448201526000907f000000000000000000000000000000000000000000000000000000000000000073ffffffffffffffffffffffffffffffffffffffff169063ba087652906064016108cf565b60003373ffffffffffffffffffffffffffffffffffffffff167f000000000000000000000000000000000000000000000000000000000000000073ffffffffffffffffffffffffffffffffffffffff166377aace1a6040518163ffffffff1660e01b8152600401602060405180830381865afa158015610a1f573d6000803e3d6000fd5b505050506040513d601f19601f82011682018060405250810190610a4391906111b5565b73ffffffffffffffffffffffffffffffffffffffff1614610a90576040517ffb02114900000000000000000000000000000000000000000000000000000000815260040160405180910390fd5b610ad173ffffffffffffffffffffffffffffffffffffffff7f0000000000000000000000000000000000000000000000000000000000000000168786610e12565b6040517f23e30c8b00000000000000000000000000000000000000000000000000000000815260009073ffffffffffffffffffffffffffffffffffffffff8816906323e30c8b90610b509033907f0000000000000000000000000000000000000000000000000000000000000000908a9087908b908b906004016111d2565b6020604051808303816000875af1158015610b6f573d6000803e3d6000fd5b505050506040513d601f19601f82011682018060405250810190610b939190611138565b90507f439148f0bbc682ca079e46d6e2c2f0c1e3b820f1a291b069d8882abf8cf18dd98114610bee576040517f207df21c00000000000000000000000000000000000000000000000000000000815260040160405180910390fd5b610c3073ffffffffffffffffffffffffffffffffffffffff7f000000000000000000000000000000000000000000000000000000000000000016883088610d47565b5060019695505050505050565b6040517f70a0823100000000000000000000000000000000000000000000000000000000815230600482015260009073ffffffffffffffffffffffffffffffffffffffff8316906370a0823190602401602060405180830381865afa1580156108ee573d6000803e3d6000fd5b600780546105a3906110e4565b60007f000000000000000000000000000000000000000000000000000000000000000073ffffffffffffffffffffffffffffffffffffffff168373ffffffffffffffffffffffffffffffffffffffff1614610d3e576040517f3dd1b30500000000000000000000000000000000000000000000000000000000815260040160405180910390fd5b50600092915050565b60006040517f23b872dd0000000000000000000000000000000000000000000000000000000081528460048201528360248201528260448201526020600060648360008a5af13d15601f3d1160016000511416171691505080610e0b576040517f08c379a000000000000000000000000000000000000000000000000000000000815260206004820152601460248201527f5452414e534645525f46524f4d5f4641494c454400000000000000000000000060448201526064015b60405180910390fd5b5050505050565b60006040517fa9059cbb000000000000000000000000000000000000000000000000000000008152836004820152826024820152602060006044836000895af13d15601f3d11600160005114161716915050806102b6576040517f08c379a000000000000000000000000000000000000000000000000000000000815260206004820152600f60248201527f5452414e534645525f4641494c454400000000000000000000000000000000006044820152606401610e02565b600060208083528351808285015260005b81811015610ef857858101830151858201604001528201610edc565b81811115610f0a576000604083870101525b50601f017fffffffffffffffffffffffffffffffffffffffffffffffffffffffffffffffe016929092016040019392505050565b60008060008060808587031215610f5457600080fd5b5050823594602084013594506040840135936060013592509050565b600060208284031215610f8257600080fd5b5035919050565b73ffffffffffffffffffffffffffffffffffffffff81168114610fab57600080fd5b50565b600080600080600060808688031215610fc657600080fd5b8535610fd181610f89565b94506020860135610fe181610f89565b935060408601359250606086013567ffffffffffffffff8082111561100557600080fd5b818801915088601f83011261101957600080fd5b81358181111561102857600080fd5b89602082850101111561103a57600080fd5b9699959850939650602001949392505050565b60006020828403121561105f57600080fd5b813561106a81610f89565b9392505050565b60008060006060848603121561108657600080fd5b833561109181610f89565b925060208401359150604084013580151581146110ad57600080fd5b809150509250925092565b600080604083850312156110cb57600080fd5b82356110d681610f89565b946020939093013593505050565b600181811c908216806110f857607f821691505b60208210811415611132577f4e487b7100000000000000000000000000000000000000000000000000000000600052602260045260246000fd5b50919050565b60006020828403121561114a57600080fd5b5051919050565b6000817fffffffffffffffffffffffffffffffffffffffffffffffffffffffffffffffff04831182151516156111b0577f4e487b7100000000000000000000000000000000000000000000000000000000600052601160045260246000fd5b500290565b6000602082840312156111c757600080fd5b815161106a81610f89565b600073ffffffffffffffffffffffffffffffffffffffff808916835280881660208401525085604083015284606083015260a060808301528260a0830152828460c0840137600060c0848401015260c07fffffffffffffffffffffffffffffffffffffffffffffffffffffffffffffffe0601f850116830101905097965050505050505056fea2646970667358221220df6c1f0e4d1cb43b468b1587e1958e8cdc400c13bd56717dcc80386a9e9628d964736f6c634300080b0033a264697066735822122052abfecee8cb91966e68e24d1ff72e5ba67eebd2b7c207b65c16a32bc151c5eb64736f6c634300080b0033",
  "devdoc": {
    "kind": "dev",
    "methods": {
      "deployAdapter(address,bytes)": {
        "params": {
          "_target": "The target address",
          "data": "ABI encoded reward tokens address array"
        }
      },
      "supportTarget(address,bool)": {
        "params": {
          "_target": "The target address",
          "supported": "Whether the target should be supported or not"
        }
      },
      "supportTargets(address[],bool)": {
        "params": {
          "_targets": "Array of target addresses",
          "supported": "Whether the targets should be supported or not"
        }
      }
    },
    "version": 1
  },
  "userdoc": {
    "kind": "user",
    "methods": {
      "DEFAULT_LEVEL()": {
        "notice": "Sets level to `31` by default, which keeps all Divider lifecycle methods public (`issue`, `combine`, `collect`, etc), but not the `onRedeem` hook."
      },
      "deployAdapter(address,bytes)": {
        "notice": "Deploys an ERC4626Adapter contract"
      },
      "divider()": {
        "notice": "Sense core Divider address"
      },
      "factoryParams()": {
        "notice": "params for adapters deployed with this factory"
      },
      "supportTarget(address,bool)": {
        "notice": "(Un)support target"
      },
      "supportTargets(address[],bool)": {
        "notice": "(Un)support multiple target at once"
      }
    },
    "version": 1
  },
  "storageLayout": {
    "storage": [
      {
        "astId": 9300,
        "contract": "@sense-finance/v1-core/src/adapters/abstract/factories/ERC4626Factory.sol:ERC4626Factory",
        "label": "factoryParams",
        "offset": 0,
        "slot": "0",
        "type": "t_struct(FactoryParams)9319_storage"
      },
      {
        "astId": 19033,
        "contract": "@sense-finance/v1-core/src/adapters/abstract/factories/ERC4626Factory.sol:ERC4626Factory",
        "label": "isTrusted",
        "offset": 0,
        "slot": "7",
        "type": "t_mapping(t_address,t_bool)"
      },
      {
        "astId": 9629,
        "contract": "@sense-finance/v1-core/src/adapters/abstract/factories/ERC4626Factory.sol:ERC4626Factory",
        "label": "supportedTargets",
        "offset": 0,
        "slot": "8",
        "type": "t_mapping(t_address,t_bool)"
      }
    ],
    "types": {
      "t_address": {
        "encoding": "inplace",
        "label": "address",
        "numberOfBytes": "20"
      },
      "t_bool": {
        "encoding": "inplace",
        "label": "bool",
        "numberOfBytes": "1"
      },
      "t_mapping(t_address,t_bool)": {
        "encoding": "mapping",
        "key": "t_address",
        "label": "mapping(address => bool)",
        "numberOfBytes": "32",
        "value": "t_bool"
      },
      "t_struct(FactoryParams)9319_storage": {
        "encoding": "inplace",
        "label": "struct BaseFactory.FactoryParams",
        "members": [
          {
            "astId": 9302,
            "contract": "@sense-finance/v1-core/src/adapters/abstract/factories/ERC4626Factory.sol:ERC4626Factory",
            "label": "oracle",
            "offset": 0,
            "slot": "0",
            "type": "t_address"
          },
          {
            "astId": 9304,
            "contract": "@sense-finance/v1-core/src/adapters/abstract/factories/ERC4626Factory.sol:ERC4626Factory",
            "label": "stake",
            "offset": 0,
            "slot": "1",
            "type": "t_address"
          },
          {
            "astId": 9306,
            "contract": "@sense-finance/v1-core/src/adapters/abstract/factories/ERC4626Factory.sol:ERC4626Factory",
            "label": "stakeSize",
            "offset": 0,
            "slot": "2",
            "type": "t_uint256"
          },
          {
            "astId": 9308,
            "contract": "@sense-finance/v1-core/src/adapters/abstract/factories/ERC4626Factory.sol:ERC4626Factory",
            "label": "minm",
            "offset": 0,
            "slot": "3",
            "type": "t_uint256"
          },
          {
            "astId": 9310,
            "contract": "@sense-finance/v1-core/src/adapters/abstract/factories/ERC4626Factory.sol:ERC4626Factory",
            "label": "maxm",
            "offset": 0,
            "slot": "4",
            "type": "t_uint256"
          },
          {
            "astId": 9312,
            "contract": "@sense-finance/v1-core/src/adapters/abstract/factories/ERC4626Factory.sol:ERC4626Factory",
            "label": "ifee",
            "offset": 0,
            "slot": "5",
            "type": "t_uint128"
          },
          {
            "astId": 9314,
            "contract": "@sense-finance/v1-core/src/adapters/abstract/factories/ERC4626Factory.sol:ERC4626Factory",
            "label": "mode",
            "offset": 16,
            "slot": "5",
            "type": "t_uint16"
          },
          {
            "astId": 9316,
            "contract": "@sense-finance/v1-core/src/adapters/abstract/factories/ERC4626Factory.sol:ERC4626Factory",
            "label": "tilt",
            "offset": 18,
            "slot": "5",
            "type": "t_uint64"
          },
          {
            "astId": 9318,
            "contract": "@sense-finance/v1-core/src/adapters/abstract/factories/ERC4626Factory.sol:ERC4626Factory",
            "label": "guard",
            "offset": 0,
            "slot": "6",
            "type": "t_uint256"
          }
        ],
        "numberOfBytes": "224"
      },
      "t_uint128": {
        "encoding": "inplace",
        "label": "uint128",
        "numberOfBytes": "16"
      },
      "t_uint16": {
        "encoding": "inplace",
        "label": "uint16",
        "numberOfBytes": "2"
      },
      "t_uint256": {
        "encoding": "inplace",
        "label": "uint256",
        "numberOfBytes": "32"
      },
      "t_uint64": {
        "encoding": "inplace",
        "label": "uint64",
        "numberOfBytes": "8"
      }
    }
  }
}