{
  "address": "0x0F535b6B3a85635b104608C045bf43437f063519",
  "abi": [
    {
      "inputs": [
        {
          "internalType": "address",
          "name": "_divider",
          "type": "address"
        },
        {
          "internalType": "address",
          "name": "_target",
          "type": "address"
        },
        {
          "internalType": "address",
          "name": "_underlying",
          "type": "address"
        },
        {
          "internalType": "uint128",
          "name": "_ifee",
          "type": "uint128"
        },
        {
          "components": [
            {
              "internalType": "address",
              "name": "oracle",
              "type": "address"
            },
            {
              "internalType": "address",
              "name": "stake",
              "type": "address"
            },
            {
              "internalType": "uint256",
              "name": "stakeSize",
              "type": "uint256"
            },
            {
              "internalType": "uint256",
              "name": "minm",
              "type": "uint256"
            },
            {
              "internalType": "uint256",
              "name": "maxm",
              "type": "uint256"
            },
            {
              "internalType": "uint64",
              "name": "tilt",
              "type": "uint64"
            },
            {
              "internalType": "uint48",
              "name": "level",
              "type": "uint48"
            },
            {
              "internalType": "uint16",
              "name": "mode",
              "type": "uint16"
            }
          ],
          "internalType": "struct BaseAdapter.AdapterParams",
          "name": "_adapterParams",
          "type": "tuple"
        }
      ],
      "stateMutability": "nonpayable",
      "type": "constructor"
    },
    {
      "inputs": [],
      "name": "FlashCallbackFailed",
      "type": "error"
    },
    {
      "inputs": [],
      "name": "OnlyPeriphery",
      "type": "error"
    },
    {
      "inputs": [],
      "name": "SenderNotEligible",
      "type": "error"
    },
    {
      "inputs": [],
      "name": "TokenNotSupported",
      "type": "error"
    },
    {
      "inputs": [],
      "name": "TransferFailed",
      "type": "error"
    },
    {
      "stateMutability": "payable",
      "type": "fallback"
    },
    {
      "inputs": [],
      "name": "CALLBACK_SUCCESS",
      "outputs": [
        {
          "internalType": "bytes32",
          "name": "",
          "type": "bytes32"
        }
      ],
      "stateMutability": "view",
      "type": "function"
    },
    {
      "inputs": [],
      "name": "CETH",
      "outputs": [
        {
          "internalType": "address",
          "name": "",
          "type": "address"
        }
      ],
      "stateMutability": "view",
      "type": "function"
    },
    {
      "inputs": [],
      "name": "CURVESINGLESWAP",
      "outputs": [
        {
          "internalType": "address",
          "name": "",
          "type": "address"
        }
      ],
      "stateMutability": "view",
      "type": "function"
    },
    {
      "inputs": [],
      "name": "SLIPPAGE_TOLERANCE",
      "outputs": [
        {
          "internalType": "uint256",
          "name": "",
          "type": "uint256"
        }
      ],
      "stateMutability": "view",
      "type": "function"
    },
    {
      "inputs": [],
      "name": "STETH",
      "outputs": [
        {
          "internalType": "address",
          "name": "",
          "type": "address"
        }
      ],
      "stateMutability": "view",
      "type": "function"
    },
    {
      "inputs": [],
      "name": "STETHPRICEFEED",
      "outputs": [
        {
          "internalType": "address",
          "name": "",
          "type": "address"
        }
      ],
      "stateMutability": "view",
      "type": "function"
    },
    {
      "inputs": [],
      "name": "WETH",
      "outputs": [
        {
          "internalType": "address",
          "name": "",
          "type": "address"
        }
      ],
      "stateMutability": "view",
      "type": "function"
    },
    {
      "inputs": [],
      "name": "WSTETH",
      "outputs": [
        {
          "internalType": "address",
          "name": "",
          "type": "address"
        }
      ],
      "stateMutability": "view",
      "type": "function"
    },
    {
      "inputs": [],
      "name": "adapterParams",
      "outputs": [
        {
          "internalType": "address",
          "name": "oracle",
          "type": "address"
        },
        {
          "internalType": "address",
          "name": "stake",
          "type": "address"
        },
        {
          "internalType": "uint256",
          "name": "stakeSize",
          "type": "uint256"
        },
        {
          "internalType": "uint256",
          "name": "minm",
          "type": "uint256"
        },
        {
          "internalType": "uint256",
          "name": "maxm",
          "type": "uint256"
        },
        {
          "internalType": "uint64",
          "name": "tilt",
          "type": "uint64"
        },
        {
          "internalType": "uint48",
          "name": "level",
          "type": "uint48"
        },
        {
          "internalType": "uint16",
          "name": "mode",
          "type": "uint16"
        }
      ],
      "stateMutability": "view",
      "type": "function"
    },
    {
      "inputs": [],
      "name": "divider",
      "outputs": [
        {
          "internalType": "address",
          "name": "",
          "type": "address"
        }
      ],
      "stateMutability": "view",
      "type": "function"
    },
    {
      "inputs": [
        {
          "internalType": "address",
          "name": "token",
          "type": "address"
        },
        {
          "internalType": "uint256",
          "name": "",
          "type": "uint256"
        }
      ],
      "name": "flashFee",
      "outputs": [
        {
          "internalType": "uint256",
          "name": "",
          "type": "uint256"
        }
      ],
      "stateMutability": "view",
      "type": "function"
    },
    {
      "inputs": [
        {
          "internalType": "contract IERC3156FlashBorrower",
          "name": "receiver",
          "type": "address"
        },
        {
          "internalType": "address",
          "name": "",
          "type": "address"
        },
        {
          "internalType": "uint256",
          "name": "amount",
          "type": "uint256"
        },
        {
          "internalType": "bytes",
          "name": "data",
          "type": "bytes"
        }
      ],
      "name": "flashLoan",
      "outputs": [
        {
          "internalType": "bool",
          "name": "",
          "type": "bool"
        }
      ],
      "stateMutability": "nonpayable",
      "type": "function"
    },
    {
      "inputs": [],
      "name": "getMaturityBounds",
      "outputs": [
        {
          "internalType": "uint256",
          "name": "",
          "type": "uint256"
        },
        {
          "internalType": "uint256",
          "name": "",
          "type": "uint256"
        }
      ],
      "stateMutability": "view",
      "type": "function"
    },
    {
      "inputs": [],
      "name": "getStakeAndTarget",
      "outputs": [
        {
          "internalType": "address",
          "name": "",
          "type": "address"
        },
        {
          "internalType": "address",
          "name": "",
          "type": "address"
        },
        {
          "internalType": "uint256",
          "name": "",
          "type": "uint256"
        }
      ],
      "stateMutability": "view",
      "type": "function"
    },
    {
      "inputs": [],
      "name": "getUnderlyingPrice",
      "outputs": [
        {
          "internalType": "uint256",
          "name": "price",
          "type": "uint256"
        }
      ],
      "stateMutability": "pure",
      "type": "function"
    },
    {
      "inputs": [],
      "name": "ifee",
      "outputs": [
        {
          "internalType": "uint128",
          "name": "",
          "type": "uint128"
        }
      ],
      "stateMutability": "view",
      "type": "function"
    },
    {
      "inputs": [],
      "name": "level",
      "outputs": [
        {
          "internalType": "uint256",
          "name": "",
          "type": "uint256"
        }
      ],
      "stateMutability": "view",
      "type": "function"
    },
    {
      "inputs": [
        {
          "internalType": "address",
          "name": "token",
          "type": "address"
        }
      ],
      "name": "maxFlashLoan",
      "outputs": [
        {
          "internalType": "uint256",
          "name": "",
          "type": "uint256"
        }
      ],
      "stateMutability": "view",
      "type": "function"
    },
    {
      "inputs": [],
      "name": "mode",
      "outputs": [
        {
          "internalType": "uint256",
          "name": "",
          "type": "uint256"
        }
      ],
      "stateMutability": "view",
      "type": "function"
    },
    {
      "inputs": [],
      "name": "name",
      "outputs": [
        {
          "internalType": "string",
          "name": "",
          "type": "string"
        }
      ],
      "stateMutability": "view",
      "type": "function"
    },
    {
      "inputs": [
        {
          "internalType": "address",
          "name": "",
          "type": "address"
        },
        {
          "internalType": "uint256",
          "name": "",
          "type": "uint256"
        },
        {
          "internalType": "bool",
          "name": "",
          "type": "bool"
        }
      ],
      "name": "notify",
      "outputs": [],
      "stateMutability": "nonpayable",
      "type": "function"
    },
    {
      "inputs": [
        {
          "internalType": "uint256",
          "name": "",
          "type": "uint256"
        },
        {
          "internalType": "uint256",
          "name": "",
          "type": "uint256"
        },
        {
          "internalType": "uint256",
          "name": "",
          "type": "uint256"
        },
        {
          "internalType": "uint256",
          "name": "",
          "type": "uint256"
        }
      ],
      "name": "onRedeem",
      "outputs": [],
      "stateMutability": "nonpayable",
      "type": "function"
    },
    {
      "inputs": [],
      "name": "scale",
      "outputs": [
        {
          "internalType": "uint256",
          "name": "exRate",
          "type": "uint256"
        }
      ],
      "stateMutability": "nonpayable",
      "type": "function"
    },
    {
      "inputs": [],
      "name": "scaleStored",
      "outputs": [
        {
          "internalType": "uint256",
          "name": "",
          "type": "uint256"
        }
      ],
      "stateMutability": "view",
      "type": "function"
    },
    {
      "inputs": [],
      "name": "symbol",
      "outputs": [
        {
          "internalType": "string",
          "name": "",
          "type": "string"
        }
      ],
      "stateMutability": "view",
      "type": "function"
    },
    {
      "inputs": [],
      "name": "target",
      "outputs": [
        {
          "internalType": "address",
          "name": "",
          "type": "address"
        }
      ],
      "stateMutability": "view",
      "type": "function"
    },
    {
      "inputs": [],
      "name": "tilt",
      "outputs": [
        {
          "internalType": "uint256",
          "name": "",
          "type": "uint256"
        }
      ],
      "stateMutability": "view",
      "type": "function"
    },
    {
      "inputs": [],
      "name": "underlying",
      "outputs": [
        {
          "internalType": "address",
          "name": "",
          "type": "address"
        }
      ],
      "stateMutability": "view",
      "type": "function"
    },
    {
      "inputs": [
        {
          "internalType": "uint256",
          "name": "amount",
          "type": "uint256"
        }
      ],
      "name": "unwrapTarget",
      "outputs": [
        {
          "internalType": "uint256",
          "name": "eth",
          "type": "uint256"
        }
      ],
      "stateMutability": "nonpayable",
      "type": "function"
    },
    {
      "inputs": [
        {
          "internalType": "uint256",
          "name": "amount",
          "type": "uint256"
        }
      ],
      "name": "wrapUnderlying",
      "outputs": [
        {
          "internalType": "uint256",
          "name": "wstETH",
          "type": "uint256"
        }
      ],
      "stateMutability": "nonpayable",
      "type": "function"
    }
  ],
  "transactionHash": "0x383e7001ac5b80f8b67a3f9036d8f8838e7b649717908b4de5d9dd76ae940648",
  "args": [
    "0x86bA3E96Be68563E41c2f5769F1AF9fAf758e6E0",
    "0x7f39C581F595B53c5cb19bD0b3f8dA6c935E2Ca0",
    "0xC02aaA39b223FE8D0A0e5C4F27eAD9083C756Cc2",
    "0",
    [
      "0x1887118E49e0F4A78Bd71B792a49dE03504A764D",
      "0xC02aaA39b223FE8D0A0e5C4F27eAD9083C756Cc2",
      "0",
      "2629746",
      "315569520",
      0,
      31,
      0
    ]
  ],
  "numDeployments": 1,
  "solcInputHash": "c685b0e941c886293d0434d81554143d",
  "bytecode": "0x6101006040523480156200001257600080fd5b5060405162001f4e38038062001f4e83398101604081905262000035916200072a565b6001600160a01b03808616608090815281861660a081815283871660c09081526001600160801b03871660e09081528651600080549188166001600160a01b03199283161781556020890151600180549190991692169190911790965560408088015160025560608801516003559487015160049081559287015160058054938901519289015161ffff16600160701b0261ffff60701b1965ffffffffffff90941668010000000000000000026001600160701b03199095166001600160401b0390931692909217939093179190911617905582516306fdde0360e01b815292518994899489948994899491936306fdde0393808301939192908290030181865afa15801562000149573d6000803e3d6000fd5b505050506040513d6000823e601f3d908101601f191682016040526200017391908101906200087a565b60405160200162000185919062000932565b60405160208183030381529060405260069080519060200190620001ab929190620005fb565b50836001600160a01b03166395d89b416040518163ffffffff1660e01b8152600401600060405180830381865afa158015620001eb573d6000803e3d6000fd5b505050506040513d6000823e601f3d908101601f191682016040526200021591908101906200087a565b60405160200162000227919062000960565b604051602081830303815290604052600790805190602001906200024d929190620005fb565b5060805160405163095ea7b360e01b81526001600160a01b03918216600482015260001960248201529085169063095ea7b3906044016020604051808303816000875af1158015620002a3573d6000803e3d6000fd5b505050506040513d601f19601f82011682018060405250810190620002c991906200098e565b50602081015160805160405163095ea7b360e01b81526001600160a01b039182166004820152600019602482015291169063095ea7b3906044016020604051808303816000875af115801562000323573d6000803e3d6000fd5b505050506040513d601f19601f820116820180604052508101906200034991906200098e565b505060405163095ea7b360e01b8152737f39c581f595b53c5cb19bd0b3f8da6c935e2ca06004820152600019602482015273ae7ab96520de3a18e5e111b5eaab095312d7fe84945063095ea7b393506044019150620003a59050565b6020604051808303816000875af1158015620003c5573d6000803e3d6000fd5b505050506040513d601f19601f82011682018060405250810190620003eb91906200098e565b5060405163095ea7b360e01b815273dc24316b9ae028f1497c275eb9192a3ea0f670226004820152600019602482015273ae7ab96520de3a18e5e111b5eaab095312d7fe849063095ea7b3906044016020604051808303816000875af11580156200045a573d6000803e3d6000fd5b505050506040513d601f19601f820116820180604052508101906200048091906200098e565b506200048b6200049a565b6008555062000a099350505050565b60008073ab55bf4dfbf469ebfe082b7872557d1f87692fe66001600160a01b03166308c80d206040518163ffffffff1660e01b8152600401602060405180830381865afa158015620004f0573d6000803e3d6000fd5b505050506040513d601f19601f82011682018060405250810190620005169190620009b2565b604051630f451f7160e31b8152670de0b6b3a7640000600482015290915060009073ae7ab96520de3a18e5e111b5eaab095312d7fe8490637a28fb8890602401602060405180830381865afa15801562000574573d6000803e3d6000fd5b505050506040513d601f19601f820116820180604052508101906200059a9190620009b2565b9050620005b68183620005bd60201b62000f751790919060201c565b9250505090565b6000620005d48383670de0b6b3a7640000620005db565b9392505050565b828202811515841585830485141716620005f457600080fd5b0492915050565b8280546200060990620009cc565b90600052602060002090601f0160209004810192826200062d576000855562000678565b82601f106200064857805160ff191683800117855562000678565b8280016001018555821562000678579182015b82811115620006785782518255916020019190600101906200065b565b50620006869291506200068a565b5090565b5b808211156200068657600081556001016200068b565b80516001600160a01b0381168114620006b957600080fd5b919050565b634e487b7160e01b600052604160045260246000fd5b60405161010081016001600160401b0381118282101715620006fa57620006fa620006be565b60405290565b805165ffffffffffff81168114620006b957600080fd5b805161ffff81168114620006b957600080fd5b60008060008060008587036101808112156200074557600080fd5b6200075087620006a1565b95506200076060208801620006a1565b94506200077060408801620006a1565b60608801519094506001600160801b03811681146200078e57600080fd5b9250610100607f198201811315620007a557600080fd5b620007af620006d4565b9150620007bf60808901620006a1565b8252620007cf60a08901620006a1565b602083015260c0880151604083015260e0880151606083015287015160808201526101208701516001600160401b03811681146200080c57600080fd5b60a082015262000820610140880162000700565b60c082015262000834610160880162000717565b60e0820152809150509295509295909350565b60005b83811015620008645781810151838201526020016200084a565b8381111562000874576000848401525b50505050565b6000602082840312156200088d57600080fd5b81516001600160401b0380821115620008a557600080fd5b818401915084601f830112620008ba57600080fd5b815181811115620008cf57620008cf620006be565b604051601f8201601f19908116603f01168101908382118183101715620008fa57620008fa620006be565b816040528281528760208487010111156200091457600080fd5b6200092783602083016020880162000847565b979650505050505050565b600082516200094681846020870162000847565b671020b230b83a32b960c11b920191825250600801919050565b600082516200097481846020870162000847565b6716b0b230b83a32b960c11b920191825250600801919050565b600060208284031215620009a157600080fd5b81518015158114620005d457600080fd5b600060208284031215620009c557600080fd5b5051919050565b600181811c90821680620009e157607f821691505b6020821081141562000a0357634e487b7160e01b600052602260045260246000fd5b50919050565b60805160a05160c05160e0516114e162000a6d60003960006106280152600061053f01526000818161038d0152818161069301528181610d3001528181610d8001528181610e420152610efe0152600081816103f50152610c7c01526114e16000f3fe60806040526004361061018d5760003560e01c8063613255ab116100d7578063b484972a11610085578063b484972a146105f6578063b8c15a9f14610616578063c39a3b2914610662578063d4b8399214610681578063d9d98ce4146106b5578063d9fb643a146106d5578063e00bfe50146106fd578063f51e181a146107255761018d565b8063613255ab146104e557806364c56e3c146105055780636f307dc31461052d5780636fd5ae15146105615780638237e5381461058557806395d89b41146105b9578063ad5c4648146105ce5761018d565b8063295a52121161013f578063295a5212146103c3578063378efa37146103e3578063468f02d2146104175780634aae9fed146104325780634c2037861461045257806351c39ea11461046d5780635cffe9de1461048d57806361096820146104bd5761018d565b806306fdde03146101e5578063083118d51461021057806314282f58146102ca578063162ba733146102eb5780632063b5cc14610320578063226778491461034857806327b327d01461036c575b3373c02aaa39b223fe8d0a0e5c4f27ead9083c756cc2148015906101c557503373dc24316b9ae028f1497c275eb9192a3ea0f6702214155b156101e3576040516304ae33a760e31b815260040160405180910390fd5b005b3480156101f157600080fd5b506101fa61073a565b60405161020791906111c4565b60405180910390f35b34801561021c57600080fd5b5060005460015460025460035460045460055461026e956001600160a01b0390811695169392919067ffffffffffffffff811690600160401b810465ffffffffffff1690600160701b900461ffff1688565b604080516001600160a01b03998a168152989097166020890152958701949094526060860192909252608085015267ffffffffffffffff1660a084015265ffffffffffff1660c083015261ffff1660e082015261010001610207565b3480156102d657600080fd5b506101e36102e5366004611219565b50505050565b3480156102f757600080fd5b5061031373dc24316b9ae028f1497c275eb9192a3ea0f6702281565b604051610207919061124b565b34801561032c57600080fd5b5061031373ab55bf4dfbf469ebfe082b7872557d1f87692fe681565b34801561035457600080fd5b5061035e60085481565b604051908152602001610207565b34801561037857600080fd5b50600154600254604080516001600160a01b037f0000000000000000000000000000000000000000000000000000000000000000811682529093166020840152820152606001610207565b3480156103cf57600080fd5b50600554600160701b900461ffff1661035e565b3480156103ef57600080fd5b506103137f000000000000000000000000000000000000000000000000000000000000000081565b34801561042357600080fd5b50670de0b6b3a764000061035e565b34801561043e57600080fd5b5061035e61044d36600461125f565b6107c8565b34801561045e57600080fd5b5061035e6611c37937e0800081565b34801561047957600080fd5b5061035e61048836600461125f565b6109eb565b34801561049957600080fd5b506104ad6104a8366004611290565b610c6e565b6040519015158152602001610207565b3480156104c957600080fd5b50610313734ddc2d193948926d02f9b1fe9e1daa0718270ed581565b3480156104f157600080fd5b5061035e61050036600461132f565b610e77565b34801561051157600080fd5b5060035460045460408051928352602083019190915201610207565b34801561053957600080fd5b506103137f000000000000000000000000000000000000000000000000000000000000000081565b34801561056d57600080fd5b50600554600160401b900465ffffffffffff1661035e565b34801561059157600080fd5b5061035e7f439148f0bbc682ca079e46d6e2c2f0c1e3b820f1a291b069d8882abf8cf18dd981565b3480156105c557600080fd5b506101fa610eed565b3480156105da57600080fd5b5061031373c02aaa39b223fe8d0a0e5c4f27ead9083c756cc281565b34801561060257600080fd5b506101e361061136600461134c565b505050565b34801561062257600080fd5b5061064a7f000000000000000000000000000000000000000000000000000000000000000081565b6040516001600160801b039091168152602001610207565b34801561066e57600080fd5b5060055467ffffffffffffffff1661035e565b34801561068d57600080fd5b506103137f000000000000000000000000000000000000000000000000000000000000000081565b3480156106c157600080fd5b5061035e6106d0366004611393565b610efa565b3480156106e157600080fd5b50610313737f39c581f595b53c5cb19bd0b3f8da6c935e2ca081565b34801561070957600080fd5b5061031373ae7ab96520de3a18e5e111b5eaab095312d7fe8481565b34801561073157600080fd5b5061035e610f57565b60068054610747906113bf565b80601f0160208091040260200160405190810160405280929190818152602001828054610773906113bf565b80156107c05780601f10610795576101008083540402835291602001916107c0565b820191906000526020600020905b8154815290600101906020018083116107a357829003601f168201915b505050505081565b60006107ea73c02aaa39b223fe8d0a0e5c4f27ead9083c756cc2333085610f91565b604051632e1a7d4d60e01b81526004810183905273c02aaa39b223fe8d0a0e5c4f27ead9083c756cc290632e1a7d4d90602401600060405180830381600087803b15801561083757600080fd5b505af115801561084b573d6000803e3d6000fd5b505060405163a1903eab60e01b815273ae7ab96520de3a18e5e111b5eaab095312d7fe84925063a1903eab915084906108899060009060040161124b565b60206040518083038185885af11580156108a7573d6000803e3d6000fd5b50505050506040513d601f19601f820116820180604052508101906108cc91906113f4565b506040516370a0823160e01b815260009073ae7ab96520de3a18e5e111b5eaab095312d7fe84906370a082319061090790309060040161124b565b602060405180830381865afa158015610924573d6000803e3d6000fd5b505050506040513d601f19601f8201168201806040525081019061094891906113f4565b604051630ea598cb60e41b8152600481018290529091506109e5903390737f39c581f595b53c5cb19bd0b3f8da6c935e2ca09063ea598cb0906024016020604051808303816000875af11580156109a3573d6000803e3d6000fd5b505050506040513d601f19601f820116820180604052508101906109c791906113f4565b9350737f39c581f595b53c5cb19bd0b3f8da6c935e2ca09084611020565b50919050565b6000610a0d737f39c581f595b53c5cb19bd0b3f8da6c935e2ca0333085610f91565b604051636f074d1f60e11b815260048101839052600090737f39c581f595b53c5cb19bd0b3f8da6c935e2ca09063de0e9a3e906024016020604051808303816000875af1158015610a62573d6000803e3d6000fd5b505050506040513d601f19601f82011682018060405250810190610a8691906113f4565b9050600073ab55bf4dfbf469ebfe082b7872557d1f87692fe66001600160a01b03166308c80d206040518163ffffffff1660e01b8152600401602060405180830381865afa158015610adc573d6000803e3d6000fd5b505050506040513d601f19601f82011682018060405250810190610b0091906113f4565b905073dc24316b9ae028f1497c275eb9192a3ea0f67022633df021246001600085610b4d610b3d6611c37937e08000670de0b6b3a764000061140d565b610b47888a610f75565b90610f75565b6040516001600160e01b031960e087901b168152600f94850b60048201529290930b6024830152604482015260648101919091526084016020604051808303816000875af1158015610ba3573d6000803e3d6000fd5b505050506040513d601f19601f82011682018060405250810190610bc791906113f4565b60405190935060009073c02aaa39b223fe8d0a0e5c4f27ead9083c756cc29085908381818185875af1925050503d8060008114610c20576040519150601f19603f3d011682016040523d82523d6000602084013e610c25565b606091505b5050905080610c47576040516312171d8360e31b815260040160405180910390fd5b610c6673c02aaa39b223fe8d0a0e5c4f27ead9083c756cc23386611020565b505050919050565b6000336001600160a01b03167f00000000000000000000000000000000000000000000000000000000000000006001600160a01b03166377aace1a6040518163ffffffff1660e01b8152600401602060405180830381865afa158015610cd8573d6000803e3d6000fd5b505050506040513d601f19601f82011682018060405250810190610cfc9190611432565b6001600160a01b031614610d235760405163fb02114960e01b815260040160405180910390fd5b610d576001600160a01b037f0000000000000000000000000000000000000000000000000000000000000000168786611020565b6040516323e30c8b60e01b81526000906001600160a01b038816906323e30c8b90610db09033907f0000000000000000000000000000000000000000000000000000000000000000908a9087908b908b9060040161144f565b6020604051808303816000875af1158015610dcf573d6000803e3d6000fd5b505050506040513d601f19601f82011682018060405250810190610df391906113f4565b90507f439148f0bbc682ca079e46d6e2c2f0c1e3b820f1a291b069d8882abf8cf18dd98114610e355760405163081f7c8760e21b815260040160405180910390fd5b610e6a6001600160a01b037f000000000000000000000000000000000000000000000000000000000000000016883088610f91565b5060019695505050505050565b6040516370a0823160e01b81526000906001600160a01b038316906370a0823190610ea690309060040161124b565b602060405180830381865afa158015610ec3573d6000803e3d6000fd5b505050506040513d601f19601f82011682018060405250810190610ee791906113f4565b92915050565b60078054610747906113bf565b60007f00000000000000000000000000000000000000000000000000000000000000006001600160a01b0316836001600160a01b031614610f4e57604051633dd1b30560e01b815260040160405180910390fd5b50600092915050565b6000610f61611098565b90506008548114610f725760088190555b90565b6000610f8a8383670de0b6b3a76400006111a5565b9392505050565b60006040516323b872dd60e01b81528460048201528360248201528260448201526020600060648360008a5af13d15601f3d11600160005114161716915050806110195760405162461bcd60e51b81526020600482015260146024820152731514905394d1915497d19493d357d1905253115160621b60448201526064015b60405180910390fd5b5050505050565b600060405163a9059cbb60e01b8152836004820152826024820152602060006044836000895af13d15601f3d11600160005114161716915050806102e55760405162461bcd60e51b815260206004820152600f60248201526e1514905394d1915497d19052531151608a1b6044820152606401611010565b60008073ab55bf4dfbf469ebfe082b7872557d1f87692fe66001600160a01b03166308c80d206040518163ffffffff1660e01b8152600401602060405180830381865afa1580156110ed573d6000803e3d6000fd5b505050506040513d601f19601f8201168201806040525081019061111191906113f4565b604051630f451f7160e31b8152670de0b6b3a7640000600482015290915060009073ae7ab96520de3a18e5e111b5eaab095312d7fe8490637a28fb8890602401602060405180830381865afa15801561116e573d6000803e3d6000fd5b505050506040513d601f19601f8201168201806040525081019061119291906113f4565b905061119e8282610f75565b9250505090565b8282028115158415858304851417166111bd57600080fd5b0492915050565b600060208083528351808285015260005b818110156111f1578581018301518582016040015282016111d5565b81811115611203576000604083870101525b50601f01601f1916929092016040019392505050565b6000806000806080858703121561122f57600080fd5b5050823594602084013594506040840135936060013592509050565b6001600160a01b0391909116815260200190565b60006020828403121561127157600080fd5b5035919050565b6001600160a01b038116811461128d57600080fd5b50565b6000806000806000608086880312156112a857600080fd5b85356112b381611278565b945060208601356112c381611278565b935060408601359250606086013567ffffffffffffffff808211156112e757600080fd5b818801915088601f8301126112fb57600080fd5b81358181111561130a57600080fd5b89602082850101111561131c57600080fd5b9699959850939650602001949392505050565b60006020828403121561134157600080fd5b8135610f8a81611278565b60008060006060848603121561136157600080fd5b833561136c81611278565b9250602084013591506040840135801515811461138857600080fd5b809150509250925092565b600080604083850312156113a657600080fd5b82356113b181611278565b946020939093013593505050565b600181811c908216806113d357607f821691505b602082108114156109e557634e487b7160e01b600052602260045260246000fd5b60006020828403121561140657600080fd5b5051919050565b60008282101561142d57634e487b7160e01b600052601160045260246000fd5b500390565b60006020828403121561144457600080fd5b8151610f8a81611278565b6001600160a01b03878116825286166020820152604081018590526060810184905260a06080820181905281018290526000828460c0840137600060c0848401015260c0601f19601f850116830101905097965050505050505056fea26469706673582212207d19660262f27850b08e34252731852eb89b45ac85037fbcce7376f47cb30a5b64736f6c634300080b0033",
  "devdoc": {
    "kind": "dev",
    "methods": {
      "flashLoan(address,address,uint256,bytes)": {
        "params": {
          "amount": "The amount of target lent.",
          "data": "(encoded adapter address, maturity and YT amount the use has sent in)",
          "receiver": "The contract receiving target, needs to implement the `onFlashLoan(address user, address adapter, uint256 maturity, uint256 amount)` interface."
        }
      },
      "maxFlashLoan(address)": {
        "details": "The amount of currency available to be lent.",
        "params": {
          "token": "The loan currency."
        },
        "returns": {
          "_0": "The amount of `token` that can be borrowed."
        }
      },
      "scale()": {
        "returns": {
          "exRate": "Eth per wstEtH (natively in 18 decimals)"
        }
      },
      "unwrapTarget(uint256)": {
        "params": {
          "amount": "Target amount"
        },
        "returns": {
          "eth": "amount of underlying returned"
        }
      },
      "wrapUnderlying(uint256)": {
        "params": {
          "amount": "Underlying amount"
        },
        "returns": {
          "wstETH": "amount of target returned"
        }
      }
    },
    "version": 1
  },
  "userdoc": {
    "kind": "user",
    "methods": {
      "adapterParams()": {
        "notice": "adapter params"
      },
      "divider()": {
        "notice": "Sense core Divider address"
      },
      "flashLoan(address,address,uint256,bytes)": {
        "notice": "Loan `amount` target to `receiver`, and takes it back after the callback."
      },
      "getUnderlyingPrice()": {
        "notice": "Returns the current price of the underlying in ETH terms"
      },
      "ifee()": {
        "notice": "Issuance fee"
      },
      "notify(address,uint256,bool)": {
        "notice": "Notification whenever the Divider adds or removes Target"
      },
      "onRedeem(uint256,uint256,uint256,uint256)": {
        "notice": "Hook called whenever a user redeems PT"
      },
      "scaleStored()": {
        "notice": "Cached scale value from the last call to `scale()`"
      },
      "target()": {
        "notice": "Target token to divide"
      },
      "underlying()": {
        "notice": "Underlying for the Target"
      },
      "unwrapTarget(uint256)": {
        "notice": "Deposits target `amount`in return for underlying. Must be overriden by child contracts"
      },
      "wrapUnderlying(uint256)": {
        "notice": "Deposits underlying `amount`in return for target. Must be overriden by child contracts"
      }
    },
    "notice": "Adapter contract for wstETH",
    "version": 1
  },
  "storageLayout": {
    "storage": [
      {
        "astId": 6683,
        "contract": "@sense-finance/v1-core/src/adapters/lido/WstETHAdapter.sol:WstETHAdapter",
        "label": "adapterParams",
        "offset": 0,
        "slot": "0",
        "type": "t_struct(AdapterParams)6708_storage"
      },
      {
        "astId": 6710,
        "contract": "@sense-finance/v1-core/src/adapters/lido/WstETHAdapter.sol:WstETHAdapter",
        "label": "name",
        "offset": 0,
        "slot": "6",
        "type": "t_string_storage"
      },
      {
        "astId": 6712,
        "contract": "@sense-finance/v1-core/src/adapters/lido/WstETHAdapter.sol:WstETHAdapter",
        "label": "symbol",
        "offset": 0,
        "slot": "7",
        "type": "t_string_storage"
      },
      {
        "astId": 9508,
        "contract": "@sense-finance/v1-core/src/adapters/lido/WstETHAdapter.sol:WstETHAdapter",
        "label": "scaleStored",
        "offset": 0,
        "slot": "8",
        "type": "t_uint256"
      }
    ],
    "types": {
      "t_address": {
        "encoding": "inplace",
        "label": "address",
        "numberOfBytes": "20"
      },
      "t_string_storage": {
        "encoding": "bytes",
        "label": "string",
        "numberOfBytes": "32"
      },
      "t_struct(AdapterParams)6708_storage": {
        "encoding": "inplace",
        "label": "struct BaseAdapter.AdapterParams",
        "members": [
          {
            "astId": 6686,
            "contract": "@sense-finance/v1-core/src/adapters/lido/WstETHAdapter.sol:WstETHAdapter",
            "label": "oracle",
            "offset": 0,
            "slot": "0",
            "type": "t_address"
          },
          {
            "astId": 6689,
            "contract": "@sense-finance/v1-core/src/adapters/lido/WstETHAdapter.sol:WstETHAdapter",
            "label": "stake",
            "offset": 0,
            "slot": "1",
            "type": "t_address"
          },
          {
            "astId": 6692,
            "contract": "@sense-finance/v1-core/src/adapters/lido/WstETHAdapter.sol:WstETHAdapter",
            "label": "stakeSize",
            "offset": 0,
            "slot": "2",
            "type": "t_uint256"
          },
          {
            "astId": 6695,
            "contract": "@sense-finance/v1-core/src/adapters/lido/WstETHAdapter.sol:WstETHAdapter",
            "label": "minm",
            "offset": 0,
            "slot": "3",
            "type": "t_uint256"
          },
          {
            "astId": 6698,
            "contract": "@sense-finance/v1-core/src/adapters/lido/WstETHAdapter.sol:WstETHAdapter",
            "label": "maxm",
            "offset": 0,
            "slot": "4",
            "type": "t_uint256"
          },
          {
            "astId": 6701,
            "contract": "@sense-finance/v1-core/src/adapters/lido/WstETHAdapter.sol:WstETHAdapter",
            "label": "tilt",
            "offset": 0,
            "slot": "5",
            "type": "t_uint64"
          },
          {
            "astId": 6704,
            "contract": "@sense-finance/v1-core/src/adapters/lido/WstETHAdapter.sol:WstETHAdapter",
            "label": "level",
            "offset": 8,
            "slot": "5",
            "type": "t_uint48"
          },
          {
            "astId": 6707,
            "contract": "@sense-finance/v1-core/src/adapters/lido/WstETHAdapter.sol:WstETHAdapter",
            "label": "mode",
            "offset": 14,
            "slot": "5",
            "type": "t_uint16"
          }
        ],
        "numberOfBytes": "192"
      },
      "t_uint16": {
        "encoding": "inplace",
        "label": "uint16",
        "numberOfBytes": "2"
      },
      "t_uint256": {
        "encoding": "inplace",
        "label": "uint256",
        "numberOfBytes": "32"
      },
      "t_uint48": {
        "encoding": "inplace",
        "label": "uint48",
        "numberOfBytes": "6"
      },
      "t_uint64": {
        "encoding": "inplace",
        "label": "uint64",
        "numberOfBytes": "8"
      }
    }
  }
}