{
  "address": "0x76702D538cdA84592eb00f95e1c0fbad3Ee8645A",
  "abi": [
    {
      "inputs": [
        {
          "internalType": "address",
          "name": "_divider",
          "type": "address"
        },
        {
          "internalType": "address",
          "name": "_oracle",
          "type": "address"
        },
        {
          "internalType": "uint256",
          "name": "_ifee",
          "type": "uint256"
        },
        {
          "internalType": "address",
          "name": "_stake",
          "type": "address"
        },
        {
          "internalType": "uint256",
          "name": "_stakeSize",
          "type": "uint256"
        },
        {
          "internalType": "uint256",
          "name": "_minm",
          "type": "uint256"
        },
        {
          "internalType": "uint256",
          "name": "_maxm",
          "type": "uint256"
        },
        {
          "internalType": "uint16",
          "name": "_mode",
          "type": "uint16"
        },
        {
          "internalType": "uint64",
          "name": "_tilt",
          "type": "uint64"
        }
      ],
      "stateMutability": "nonpayable",
      "type": "constructor"
    },
    {
      "inputs": [],
      "name": "FlashCallbackFailed",
      "type": "error"
    },
    {
      "inputs": [],
      "name": "InvalidMaturityOffsets",
      "type": "error"
    },
    {
      "inputs": [],
      "name": "OnlyPeriphery",
      "type": "error"
    },
    {
      "inputs": [],
      "name": "SenderNotEligible",
      "type": "error"
    },
    {
      "inputs": [],
      "name": "TokenNotSupported",
      "type": "error"
    },
    {
      "inputs": [],
      "name": "TransferFailed",
      "type": "error"
    },
    {
      "stateMutability": "payable",
      "type": "fallback"
    },
    {
      "inputs": [],
      "name": "CALLBACK_SUCCESS",
      "outputs": [
        {
          "internalType": "bytes32",
          "name": "",
          "type": "bytes32"
        }
      ],
      "stateMutability": "view",
      "type": "function"
    },
    {
      "inputs": [],
      "name": "CETH",
      "outputs": [
        {
          "internalType": "address",
          "name": "",
          "type": "address"
        }
      ],
      "stateMutability": "view",
      "type": "function"
    },
    {
      "inputs": [],
      "name": "CURVESINGLESWAP",
      "outputs": [
        {
          "internalType": "address",
          "name": "",
          "type": "address"
        }
      ],
      "stateMutability": "view",
      "type": "function"
    },
    {
      "inputs": [],
      "name": "SLIPPAGE_TOLERANCE",
      "outputs": [
        {
          "internalType": "uint256",
          "name": "",
          "type": "uint256"
        }
      ],
      "stateMutability": "view",
      "type": "function"
    },
    {
      "inputs": [],
      "name": "STETH",
      "outputs": [
        {
          "internalType": "address",
          "name": "",
          "type": "address"
        }
      ],
      "stateMutability": "view",
      "type": "function"
    },
    {
      "inputs": [],
      "name": "STETHPRICEFEED",
      "outputs": [
        {
          "internalType": "address",
          "name": "",
          "type": "address"
        }
      ],
      "stateMutability": "view",
      "type": "function"
    },
    {
      "inputs": [],
      "name": "WETH",
      "outputs": [
        {
          "internalType": "address",
          "name": "",
          "type": "address"
        }
      ],
      "stateMutability": "view",
      "type": "function"
    },
    {
      "inputs": [],
      "name": "WSTETH",
      "outputs": [
        {
          "internalType": "address",
          "name": "",
          "type": "address"
        }
      ],
      "stateMutability": "view",
      "type": "function"
    },
    {
      "inputs": [],
      "name": "divider",
      "outputs": [
        {
          "internalType": "address",
          "name": "",
          "type": "address"
        }
      ],
      "stateMutability": "view",
      "type": "function"
    },
    {
      "inputs": [
        {
          "internalType": "address",
          "name": "token",
          "type": "address"
        },
        {
          "internalType": "uint256",
          "name": "",
          "type": "uint256"
        }
      ],
      "name": "flashFee",
      "outputs": [
        {
          "internalType": "uint256",
          "name": "",
          "type": "uint256"
        }
      ],
      "stateMutability": "view",
      "type": "function"
    },
    {
      "inputs": [
        {
          "internalType": "contract IERC3156FlashBorrower",
          "name": "receiver",
          "type": "address"
        },
        {
          "internalType": "address",
          "name": "",
          "type": "address"
        },
        {
          "internalType": "uint256",
          "name": "amount",
          "type": "uint256"
        },
        {
          "internalType": "bytes",
          "name": "data",
          "type": "bytes"
        }
      ],
      "name": "flashLoan",
      "outputs": [
        {
          "internalType": "bool",
          "name": "",
          "type": "bool"
        }
      ],
      "stateMutability": "nonpayable",
      "type": "function"
    },
    {
      "inputs": [],
      "name": "getMaturityBounds",
      "outputs": [
        {
          "internalType": "uint256",
          "name": "",
          "type": "uint256"
        },
        {
          "internalType": "uint256",
          "name": "",
          "type": "uint256"
        }
      ],
      "stateMutability": "view",
      "type": "function"
    },
    {
      "inputs": [],
      "name": "getStakeAndTarget",
      "outputs": [
        {
          "internalType": "address",
          "name": "",
          "type": "address"
        },
        {
          "internalType": "address",
          "name": "",
          "type": "address"
        },
        {
          "internalType": "uint256",
          "name": "",
          "type": "uint256"
        }
      ],
      "stateMutability": "view",
      "type": "function"
    },
    {
      "inputs": [],
      "name": "getUnderlyingPrice",
      "outputs": [
        {
          "internalType": "uint256",
          "name": "price",
          "type": "uint256"
        }
      ],
      "stateMutability": "pure",
      "type": "function"
    },
    {
      "inputs": [],
      "name": "ifee",
      "outputs": [
        {
          "internalType": "uint256",
          "name": "",
          "type": "uint256"
        }
      ],
      "stateMutability": "view",
      "type": "function"
    },
    {
      "inputs": [],
      "name": "level",
      "outputs": [
        {
          "internalType": "uint256",
          "name": "",
          "type": "uint256"
        }
      ],
      "stateMutability": "view",
      "type": "function"
    },
    {
      "inputs": [
        {
          "internalType": "address",
          "name": "token",
          "type": "address"
        }
      ],
      "name": "maxFlashLoan",
      "outputs": [
        {
          "internalType": "uint256",
          "name": "",
          "type": "uint256"
        }
      ],
      "stateMutability": "view",
      "type": "function"
    },
    {
      "inputs": [],
      "name": "maxm",
      "outputs": [
        {
          "internalType": "uint256",
          "name": "",
          "type": "uint256"
        }
      ],
      "stateMutability": "view",
      "type": "function"
    },
    {
      "inputs": [],
      "name": "minm",
      "outputs": [
        {
          "internalType": "uint256",
          "name": "",
          "type": "uint256"
        }
      ],
      "stateMutability": "view",
      "type": "function"
    },
    {
      "inputs": [],
      "name": "mode",
      "outputs": [
        {
          "internalType": "uint256",
          "name": "",
          "type": "uint256"
        }
      ],
      "stateMutability": "view",
      "type": "function"
    },
    {
      "inputs": [],
      "name": "name",
      "outputs": [
        {
          "internalType": "string",
          "name": "",
          "type": "string"
        }
      ],
      "stateMutability": "view",
      "type": "function"
    },
    {
      "inputs": [
        {
          "internalType": "address",
          "name": "",
          "type": "address"
        },
        {
          "internalType": "uint256",
          "name": "",
          "type": "uint256"
        },
        {
          "internalType": "bool",
          "name": "",
          "type": "bool"
        }
      ],
      "name": "notify",
      "outputs": [],
      "stateMutability": "nonpayable",
      "type": "function"
    },
    {
      "inputs": [
        {
          "internalType": "uint256",
          "name": "",
          "type": "uint256"
        },
        {
          "internalType": "uint256",
          "name": "",
          "type": "uint256"
        },
        {
          "internalType": "uint256",
          "name": "",
          "type": "uint256"
        },
        {
          "internalType": "uint256",
          "name": "",
          "type": "uint256"
        }
      ],
      "name": "onRedeem",
      "outputs": [],
      "stateMutability": "nonpayable",
      "type": "function"
    },
    {
      "inputs": [],
      "name": "oracle",
      "outputs": [
        {
          "internalType": "address",
          "name": "",
          "type": "address"
        }
      ],
      "stateMutability": "view",
      "type": "function"
    },
    {
      "inputs": [],
      "name": "scale",
      "outputs": [
        {
          "internalType": "uint256",
          "name": "exRate",
          "type": "uint256"
        }
      ],
      "stateMutability": "nonpayable",
      "type": "function"
    },
    {
      "inputs": [],
      "name": "scaleStored",
      "outputs": [
        {
          "internalType": "uint256",
          "name": "",
          "type": "uint256"
        }
      ],
      "stateMutability": "view",
      "type": "function"
    },
    {
      "inputs": [],
      "name": "stake",
      "outputs": [
        {
          "internalType": "address",
          "name": "",
          "type": "address"
        }
      ],
      "stateMutability": "view",
      "type": "function"
    },
    {
      "inputs": [],
      "name": "stakeSize",
      "outputs": [
        {
          "internalType": "uint256",
          "name": "",
          "type": "uint256"
        }
      ],
      "stateMutability": "view",
      "type": "function"
    },
    {
      "inputs": [],
      "name": "symbol",
      "outputs": [
        {
          "internalType": "string",
          "name": "",
          "type": "string"
        }
      ],
      "stateMutability": "view",
      "type": "function"
    },
    {
      "inputs": [],
      "name": "target",
      "outputs": [
        {
          "internalType": "address",
          "name": "",
          "type": "address"
        }
      ],
      "stateMutability": "view",
      "type": "function"
    },
    {
      "inputs": [],
      "name": "tilt",
      "outputs": [
        {
          "internalType": "uint256",
          "name": "",
          "type": "uint256"
        }
      ],
      "stateMutability": "view",
      "type": "function"
    },
    {
      "inputs": [],
      "name": "underlying",
      "outputs": [
        {
          "internalType": "address",
          "name": "",
          "type": "address"
        }
      ],
      "stateMutability": "view",
      "type": "function"
    },
    {
      "inputs": [
        {
          "internalType": "uint256",
          "name": "amount",
          "type": "uint256"
        }
      ],
      "name": "unwrapTarget",
      "outputs": [
        {
          "internalType": "uint256",
          "name": "eth",
          "type": "uint256"
        }
      ],
      "stateMutability": "nonpayable",
      "type": "function"
    },
    {
      "inputs": [
        {
          "internalType": "uint256",
          "name": "amount",
          "type": "uint256"
        }
      ],
      "name": "wrapUnderlying",
      "outputs": [
        {
          "internalType": "uint256",
          "name": "wstETH",
          "type": "uint256"
        }
      ],
      "stateMutability": "nonpayable",
      "type": "function"
    }
  ],
  "transactionHash": "0xcb479c7f138c3d03986f5600989991eea8698d71ed5d37efbe18ad067528705d",
  "args": [
    "0x86bA3E96Be68563E41c2f5769F1AF9fAf758e6E0",
    "0x1887118E49e0F4A78Bd71B792a49dE03504A764D",
    "10000000000000000",
    "0xC02aaA39b223FE8D0A0e5C4F27eAD9083C756Cc2",
    "2500000000000000",
    "0",
    "604800",
    1,
    0
  ],
  "numDeployments": 1,
  "solcInputHash": "a8857417c8d904a9d5fa33595a9f4cf2",
  "bytecode": "0x6102006040523480156200001257600080fd5b50604051620021a9380380620021a9833981016040819052620000359162000698565b88737f39c581f595b53c5cb19bd0b3f8da6c935e2ca073c02aaa39b223fe8d0a0e5c4f27ead9083c756cc28a8a8a8a8a8a8a61ffff168a6001600160401b0316601f83851062000098576040516315a68d0760e11b815260040160405180910390fd5b6001600160a01b03808d166080528b811660a08190528b821660c0528a821660e0526101a08a9052908816610100526101208790526101408690526101608590526101808490526101c0839052604080516306fdde0360e01b815290516306fdde03916004808201926000929091908290030181865afa15801562000121573d6000803e3d6000fd5b505050506040513d6000823e601f3d908101601f191682016040526200014b919081019062000790565b6040516020016200015d919062000848565b6040516020818303038152906040526000908051906020019062000183929190620005d5565b508a6001600160a01b03166395d89b416040518163ffffffff1660e01b8152600401600060405180830381865afa158015620001c3573d6000803e3d6000fd5b505050506040513d6000823e601f3d908101601f19168201604052620001ed919081019062000790565b604051602001620001ff919062000876565b6040516020818303038152906040526001908051906020019062000225929190620005d5565b506101e081905260405163095ea7b360e01b81526001600160a01b038d8116600483015260001960248301528c169063095ea7b3906044016020604051808303816000875af11580156200027d573d6000803e3d6000fd5b505050506040513d601f19601f82011682018060405250810190620002a39190620008bd565b5060405163095ea7b360e01b81526001600160a01b038d81166004830152600019602483015288169063095ea7b3906044016020604051808303816000875af1158015620002f5573d6000803e3d6000fd5b505050506040513d601f19601f820116820180604052508101906200031b9190620008bd565b505060405163095ea7b360e01b815273ae7ab96520de3a18e5e111b5eaab095312d7fe849b5063095ea7b39a506200037b9950737f39c581f595b53c5cb19bd0b3f8da6c935e2ca0985060001997506004019550620008a4945050505050565b6020604051808303816000875af11580156200039b573d6000803e3d6000fd5b505050506040513d601f19601f82011682018060405250810190620003c19190620008bd565b5060405163095ea7b360e01b815273dc24316b9ae028f1497c275eb9192a3ea0f670226004820152600019602482015273ae7ab96520de3a18e5e111b5eaab095312d7fe849063095ea7b3906044016020604051808303816000875af115801562000430573d6000803e3d6000fd5b505050506040513d601f19601f82011682018060405250810190620004569190620008bd565b506200046162000474565b6002555062000938975050505050505050565b60008073ab55bf4dfbf469ebfe082b7872557d1f87692fe66001600160a01b03166308c80d206040518163ffffffff1660e01b8152600401602060405180830381865afa158015620004ca573d6000803e3d6000fd5b505050506040513d601f19601f82011682018060405250810190620004f09190620008e1565b604051630f451f7160e31b8152670de0b6b3a7640000600482015290915060009073ae7ab96520de3a18e5e111b5eaab095312d7fe8490637a28fb8890602401602060405180830381865afa1580156200054e573d6000803e3d6000fd5b505050506040513d601f19601f82011682018060405250810190620005749190620008e1565b90506200059081836200059760201b620011901790919060201c565b9250505090565b6000620005ae8383670de0b6b3a7640000620005b5565b9392505050565b828202811515841585830485141716620005ce57600080fd5b0492915050565b828054620005e390620008fb565b90600052602060002090601f01602090048101928262000607576000855562000652565b82601f106200062257805160ff191683800117855562000652565b8280016001018555821562000652579182015b828111156200065257825182559160200191906001019062000635565b506200066092915062000664565b5090565b5b8082111562000660576000815560010162000665565b80516001600160a01b03811681146200069357600080fd5b919050565b60008060008060008060008060006101208a8c031215620006b857600080fd5b620006c38a6200067b565b9850620006d360208b016200067b565b975060408a01519650620006ea60608b016200067b565b955060808a0151945060a08a0151935060c08a0151925060e08a015161ffff811681146200071757600080fd5b6101008b01519092506001600160401b03811681146200073657600080fd5b809150509295985092959850929598565b634e487b7160e01b600052604160045260246000fd5b60005b838110156200077a57818101518382015260200162000760565b838111156200078a576000848401525b50505050565b600060208284031215620007a357600080fd5b81516001600160401b0380821115620007bb57600080fd5b818401915084601f830112620007d057600080fd5b815181811115620007e557620007e562000747565b604051601f8201601f19908116603f0116810190838211818310171562000810576200081062000747565b816040528281528760208487010111156200082a57600080fd5b6200083d8360208301602088016200075d565b979650505050505050565b600082516200085c8184602087016200075d565b671020b230b83a32b960c11b920191825250600801919050565b600082516200088a8184602087016200075d565b6716b0b230b83a32b960c11b920191825250600801919050565b6001600160a01b03929092168252602082015260400190565b600060208284031215620008d057600080fd5b81518015158114620005ae57600080fd5b600060208284031215620008f457600080fd5b5051919050565b600181811c908216806200091057607f821691505b602082108114156200093257634e487b7160e01b600052602260045260246000fd5b50919050565b60805160a05160c05160e05161010051610120516101405161016051610180516101a0516101c0516101e05161179962000a10600039600061068f015260006107bc015260006107880152600061043d015260008181610328015261061f0152600081816105fc01526108a90152600081816103fd01526104a50152600081816103d601526104d9015260006106c30152600061065b0152600081816103b1015281816107f001528181610eec01528181610f550152818161103001526111000152600081816104710152610e1f01526117996000f3fe6080604052600436106102195760003560e01c8063613255ab1161011d578063b484972a116100b0578063d9d98ce41161007f578063e00bfe5011610064578063e00bfe501461085a578063f51e181a14610882578063fc024d2c1461089757610219565b8063d9d98ce414610812578063d9fb643a1461083257610219565b8063b484972a14610756578063b8c15a9f14610776578063c39a3b29146107aa578063d4b83992146107de57610219565b80637dc0d1d0116100ec5780637dc0d1d0146106b15780638237e538146106e557806395d89b4114610719578063ad5c46481461072e57610219565b8063613255ab146105c957806364c56e3c146105e95780636f307dc3146106495780636fd5ae151461067d57610219565b8063378efa37116101b05780634aae9fed1161017f57806351c39ea11161016457806351c39ea1146105515780635cffe9de1461057157806361096820146105a157610219565b80634aae9fed146105165780634c2037861461053657610219565b8063378efa371461045f5780633a34330e146104935780633a4b66f1146104c7578063468f02d2146104fb57610219565b80632063b5cc116101ec5780632063b5cc14610358578063226778491461038057806327b327d014610396578063295a52121461042b57610219565b806306fdde031461028a57806314282f58146102b5578063162ba733146102d6578063167c3a4f14610316575b3373c02aaa39b223fe8d0a0e5c4f27ead9083c756cc21480159061025157503373dc24316b9ae028f1497c275eb9192a3ea0f6702214155b15610288576040517f25719d3800000000000000000000000000000000000000000000000000000000815260040160405180910390fd5b005b34801561029657600080fd5b5061029f6108cb565b6040516102ac9190611491565b60405180910390f35b3480156102c157600080fd5b506102886102d03660046114e6565b50505050565b3480156102e257600080fd5b506102fe73dc24316b9ae028f1497c275eb9192a3ea0f6702281565b6040516001600160a01b0390911681526020016102ac565b34801561032257600080fd5b5061034a7f000000000000000000000000000000000000000000000000000000000000000081565b6040519081526020016102ac565b34801561036457600080fd5b506102fe73ab55bf4dfbf469ebfe082b7872557d1f87692fe681565b34801561038c57600080fd5b5061034a60025481565b3480156103a257600080fd5b50604080516001600160a01b037f0000000000000000000000000000000000000000000000000000000000000000811682527f00000000000000000000000000000000000000000000000000000000000000001660208201527f0000000000000000000000000000000000000000000000000000000000000000918101919091526060016102ac565b34801561043757600080fd5b5061034a7f000000000000000000000000000000000000000000000000000000000000000081565b34801561046b57600080fd5b506102fe7f000000000000000000000000000000000000000000000000000000000000000081565b34801561049f57600080fd5b5061034a7f000000000000000000000000000000000000000000000000000000000000000081565b3480156104d357600080fd5b506102fe7f000000000000000000000000000000000000000000000000000000000000000081565b34801561050757600080fd5b50670de0b6b3a764000061034a565b34801561052257600080fd5b5061034a610531366004611518565b610959565b34801561054257600080fd5b5061034a6611c37937e0800081565b34801561055d57600080fd5b5061034a61056c366004611518565b610b49565b34801561057d57600080fd5b5061059161058c366004611549565b610e11565b60405190151581526020016102ac565b3480156105ad57600080fd5b506102fe734ddc2d193948926d02f9b1fe9e1daa0718270ed581565b3480156105d557600080fd5b5061034a6105e43660046115e8565b611065565b3480156105f557600080fd5b50604080517f000000000000000000000000000000000000000000000000000000000000000081527f00000000000000000000000000000000000000000000000000000000000000006020820152016102ac565b34801561065557600080fd5b506102fe7f000000000000000000000000000000000000000000000000000000000000000081565b34801561068957600080fd5b5061034a7f000000000000000000000000000000000000000000000000000000000000000081565b3480156106bd57600080fd5b506102fe7f000000000000000000000000000000000000000000000000000000000000000081565b3480156106f157600080fd5b5061034a7f439148f0bbc682ca079e46d6e2c2f0c1e3b820f1a291b069d8882abf8cf18dd981565b34801561072557600080fd5b5061029f6110ef565b34801561073a57600080fd5b506102fe73c02aaa39b223fe8d0a0e5c4f27ead9083c756cc281565b34801561076257600080fd5b50610288610771366004611605565b505050565b34801561078257600080fd5b5061034a7f000000000000000000000000000000000000000000000000000000000000000081565b3480156107b657600080fd5b5061034a7f000000000000000000000000000000000000000000000000000000000000000081565b3480156107ea57600080fd5b506102fe7f000000000000000000000000000000000000000000000000000000000000000081565b34801561081e57600080fd5b5061034a61082d36600461164c565b6110fc565b34801561083e57600080fd5b506102fe737f39c581f595b53c5cb19bd0b3f8da6c935e2ca081565b34801561086657600080fd5b506102fe73ae7ab96520de3a18e5e111b5eaab095312d7fe8481565b34801561088e57600080fd5b5061034a611172565b3480156108a357600080fd5b5061034a7f000000000000000000000000000000000000000000000000000000000000000081565b600080546108d890611678565b80601f016020809104026020016040519081016040528092919081815260200182805461090490611678565b80156109515780601f1061092657610100808354040283529160200191610951565b820191906000526020600020905b81548152906001019060200180831161093457829003601f168201915b505050505081565b600061097b73c02aaa39b223fe8d0a0e5c4f27ead9083c756cc23330856111ac565b6040517f2e1a7d4d0000000000000000000000000000000000000000000000000000000081526004810183905273c02aaa39b223fe8d0a0e5c4f27ead9083c756cc290632e1a7d4d90602401600060405180830381600087803b1580156109e157600080fd5b505af11580156109f5573d6000803e3d6000fd5b50506040517fa1903eab000000000000000000000000000000000000000000000000000000008152600060048201819052925073ae7ab96520de3a18e5e111b5eaab095312d7fe84915063a1903eab90859060240160206040518083038185885af1158015610a68573d6000803e3d6000fd5b50505050506040513d601f19601f82011682018060405250810190610a8d91906116ad565b6040517fea598cb000000000000000000000000000000000000000000000000000000000815260048101829052909150610b43903390737f39c581f595b53c5cb19bd0b3f8da6c935e2ca09063ea598cb0906024016020604051808303816000875af1158015610b01573d6000803e3d6000fd5b505050506040513d601f19601f82011682018060405250810190610b2591906116ad565b9350737f39c581f595b53c5cb19bd0b3f8da6c935e2ca09084611267565b50919050565b6000610b6b737f39c581f595b53c5cb19bd0b3f8da6c935e2ca03330856111ac565b6040517fde0e9a3e00000000000000000000000000000000000000000000000000000000815260048101839052737f39c581f595b53c5cb19bd0b3f8da6c935e2ca09063de0e9a3e906024016020604051808303816000875af1158015610bd6573d6000803e3d6000fd5b505050506040513d601f19601f82011682018060405250810190610bfa91906116ad565b50600073ab55bf4dfbf469ebfe082b7872557d1f87692fe66001600160a01b03166308c80d206040518163ffffffff1660e01b8152600401602060405180830381865afa158015610c4f573d6000803e3d6000fd5b505050506040513d601f19601f82011682018060405250810190610c7391906116ad565b905073dc24316b9ae028f1497c275eb9192a3ea0f67022633df021246001600086610cc0610cb06611c37937e08000670de0b6b3a76400006116c6565b610cba888b611190565b90611190565b6040517fffffffff0000000000000000000000000000000000000000000000000000000060e087901b168152600f94850b60048201529290930b6024830152604482015260648101919091526084016020604051808303816000875af1158015610d2e573d6000803e3d6000fd5b505050506040513d601f19601f82011682018060405250810190610d5291906116ad565b60405190925060009073c02aaa39b223fe8d0a0e5c4f27ead9083c756cc29084908381818185875af1925050503d8060008114610dab576040519150601f19603f3d011682016040523d82523d6000602084013e610db0565b606091505b5050905080610deb576040517f90b8ec1800000000000000000000000000000000000000000000000000000000815260040160405180910390fd5b610e0a73c02aaa39b223fe8d0a0e5c4f27ead9083c756cc23385611267565b5050919050565b6000336001600160a01b03167f00000000000000000000000000000000000000000000000000000000000000006001600160a01b03166377aace1a6040518163ffffffff1660e01b8152600401602060405180830381865afa158015610e7b573d6000803e3d6000fd5b505050506040513d601f19601f82011682018060405250810190610e9f91906116eb565b6001600160a01b031614610edf576040517ffb02114900000000000000000000000000000000000000000000000000000000815260040160405180910390fd5b610f136001600160a01b037f0000000000000000000000000000000000000000000000000000000000000000168786611267565b6040517f23e30c8b0000000000000000000000000000000000000000000000000000000081526000906001600160a01b038816906323e30c8b90610f859033907f0000000000000000000000000000000000000000000000000000000000000000908a9087908b908b90600401611708565b6020604051808303816000875af1158015610fa4573d6000803e3d6000fd5b505050506040513d601f19601f82011682018060405250810190610fc891906116ad565b90507f439148f0bbc682ca079e46d6e2c2f0c1e3b820f1a291b069d8882abf8cf18dd98114611023576040517f207df21c00000000000000000000000000000000000000000000000000000000815260040160405180910390fd5b6110586001600160a01b037f0000000000000000000000000000000000000000000000000000000000000000168830886111ac565b5060019695505050505050565b6040517f70a082310000000000000000000000000000000000000000000000000000000081523060048201526000906001600160a01b038316906370a0823190602401602060405180830381865afa1580156110c5573d6000803e3d6000fd5b505050506040513d601f19601f820116820180604052508101906110e991906116ad565b92915050565b600180546108d890611678565b60007f00000000000000000000000000000000000000000000000000000000000000006001600160a01b0316836001600160a01b031614611169576040517f3dd1b30500000000000000000000000000000000000000000000000000000000815260040160405180910390fd5b50600092915050565b600061117c611307565b9050600254811461118d5760028190555b90565b60006111a58383670de0b6b3a764000061142d565b9392505050565b60006040517f23b872dd0000000000000000000000000000000000000000000000000000000081526001600160a01b03851660048201526001600160a01b038416602482015282604482015260008060648360008a5af191505061120f8161144c565b6112605760405162461bcd60e51b815260206004820152601460248201527f5452414e534645525f46524f4d5f4641494c454400000000000000000000000060448201526064015b60405180910390fd5b5050505050565b60006040517fa9059cbb0000000000000000000000000000000000000000000000000000000081526001600160a01b03841660048201528260248201526000806044836000895af19150506112bb8161144c565b6102d05760405162461bcd60e51b815260206004820152600f60248201527f5452414e534645525f4641494c454400000000000000000000000000000000006044820152606401611257565b60008073ab55bf4dfbf469ebfe082b7872557d1f87692fe66001600160a01b03166308c80d206040518163ffffffff1660e01b8152600401602060405180830381865afa15801561135c573d6000803e3d6000fd5b505050506040513d601f19601f8201168201806040525081019061138091906116ad565b6040517f7a28fb88000000000000000000000000000000000000000000000000000000008152670de0b6b3a7640000600482015290915060009073ae7ab96520de3a18e5e111b5eaab095312d7fe8490637a28fb8890602401602060405180830381865afa1580156113f6573d6000803e3d6000fd5b505050506040513d601f19601f8201168201806040525081019061141a91906116ad565b90506114268282611190565b9250505090565b82820281151584158583048514171661144557600080fd5b0492915050565b60003d8261145e57806000803e806000fd5b80602081146114765780156114875760009250610e0a565b816000803e60005115159250610e0a565b5060019392505050565b600060208083528351808285015260005b818110156114be578581018301518582016040015282016114a2565b818111156114d0576000604083870101525b50601f01601f1916929092016040019392505050565b600080600080608085870312156114fc57600080fd5b5050823594602084013594506040840135936060013592509050565b60006020828403121561152a57600080fd5b5035919050565b6001600160a01b038116811461154657600080fd5b50565b60008060008060006080868803121561156157600080fd5b853561156c81611531565b9450602086013561157c81611531565b935060408601359250606086013567ffffffffffffffff808211156115a057600080fd5b818801915088601f8301126115b457600080fd5b8135818111156115c357600080fd5b8960208285010111156115d557600080fd5b9699959850939650602001949392505050565b6000602082840312156115fa57600080fd5b81356111a581611531565b60008060006060848603121561161a57600080fd5b833561162581611531565b9250602084013591506040840135801515811461164157600080fd5b809150509250925092565b6000806040838503121561165f57600080fd5b823561166a81611531565b946020939093013593505050565b600181811c9082168061168c57607f821691505b60208210811415610b4357634e487b7160e01b600052602260045260246000fd5b6000602082840312156116bf57600080fd5b5051919050565b6000828210156116e657634e487b7160e01b600052601160045260246000fd5b500390565b6000602082840312156116fd57600080fd5b81516111a581611531565b60006001600160a01b03808916835280881660208401525085604083015284606083015260a060808301528260a0830152828460c0840137600060c0848401015260c0601f19601f850116830101905097965050505050505056fea26469706673582212206ea61d210fda086c95c17030a1246e4a96b109d2d913d75f76d5809ec98975b264736f6c634300080b0033",
  "devdoc": {
    "kind": "dev",
    "methods": {
      "flashLoan(address,address,uint256,bytes)": {
        "params": {
          "amount": "The amount of target lent.",
          "data": "(encoded adapter address, maturity and YT amount the use has sent in)",
          "receiver": "The contract receiving target, needs to implement the `onFlashLoan(address user, address adapter, uint256 maturity, uint256 amount)` interface."
        }
      },
      "maxFlashLoan(address)": {
        "details": "The amount of currency available to be lent.",
        "params": {
          "token": "The loan currency."
        },
        "returns": {
          "_0": "The amount of `token` that can be borrowed."
        }
      },
      "scale()": {
        "returns": {
          "exRate": "Eth per wstEtH (natively in 18 decimals)"
        }
      },
      "unwrapTarget(uint256)": {
        "params": {
          "amount": "Target amount"
        },
        "returns": {
          "eth": "amount of underlying returned"
        }
      },
      "wrapUnderlying(uint256)": {
        "params": {
          "amount": "Underlying amount"
        },
        "returns": {
          "wstETH": "amount of target returned"
        }
      }
    },
    "version": 1
  },
  "userdoc": {
    "kind": "user",
    "methods": {
      "divider()": {
        "notice": "Sense core Divider address"
      },
      "flashLoan(address,address,uint256,bytes)": {
        "notice": "Loan `amount` target to `receiver`, and takes it back after the callback."
      },
      "getUnderlyingPrice()": {
        "notice": "Returns the current price of the underlying in ETH terms"
      },
      "ifee()": {
        "notice": "Issuance fee"
      },
      "level()": {
        "notice": "The number this function returns will be used to determine its access by checking for binary digits using the following scheme:<onRedeem(y/n)><collect(y/n)><combine(y/n)><issue(y/n)> (e.g. 0101 enables `collect` and `issue`, but not `combine`)"
      },
      "maxm()": {
        "notice": "Max maturity (seconds after block.timstamp)"
      },
      "minm()": {
        "notice": "Min maturity (seconds after block.timstamp)"
      },
      "mode()": {
        "notice": "0 for monthly, 1 for weekly"
      },
      "notify(address,uint256,bool)": {
        "notice": "Notification whenever the Divider adds or removes Target"
      },
      "onRedeem(uint256,uint256,uint256,uint256)": {
        "notice": "Hook called whenever a user redeems PT"
      },
      "oracle()": {
        "notice": "Oracle address"
      },
      "scaleStored()": {
        "notice": "Cached scale value from the last call to `scale()`"
      },
      "stake()": {
        "notice": "Token to stake at issuance"
      },
      "stakeSize()": {
        "notice": "Amount to stake at issuance"
      },
      "target()": {
        "notice": "Target token to divide"
      },
      "tilt()": {
        "notice": "WAD number representing the percentage of the total principal that's set aside for Yield Tokens (e.g. 0.1e18 means that 10% of the principal is reserved).If `0`, it means no principal is set aside for Yield Tokens"
      },
      "underlying()": {
        "notice": "Underlying for the Target"
      },
      "unwrapTarget(uint256)": {
        "notice": "Deposits target `amount`in return for underlying. Must be overriden by child contracts"
      },
      "wrapUnderlying(uint256)": {
        "notice": "Deposits underlying `amount`in return for target. Must be overriden by child contracts"
      }
    },
    "notice": "Adapter contract for wstETH",
    "version": 1
  },
  "storageLayout": {
    "storage": [
      {
        "astId": 6525,
        "contract": "@sense-finance/v1-core/src/adapters/implementations/lido/WstETHAdapter.sol:WstETHAdapter",
        "label": "name",
        "offset": 0,
        "slot": "0",
        "type": "t_string_storage"
      },
      {
        "astId": 6527,
        "contract": "@sense-finance/v1-core/src/adapters/implementations/lido/WstETHAdapter.sol:WstETHAdapter",
        "label": "symbol",
        "offset": 0,
        "slot": "1",
        "type": "t_string_storage"
      },
      {
        "astId": 8008,
        "contract": "@sense-finance/v1-core/src/adapters/implementations/lido/WstETHAdapter.sol:WstETHAdapter",
        "label": "scaleStored",
        "offset": 0,
        "slot": "2",
        "type": "t_uint256"
      }
    ],
    "types": {
      "t_string_storage": {
        "encoding": "bytes",
        "label": "string",
        "numberOfBytes": "32"
      },
      "t_uint256": {
        "encoding": "inplace",
        "label": "uint256",
        "numberOfBytes": "32"
      }
    }
  }
}