{
  "address": "0xb230662dab0776C690B4B48091abEF9eA582346C",
  "abi": [
    {
      "inputs": [
        {
          "internalType": "string",
          "name": "_name",
          "type": "string"
        },
        {
          "internalType": "string",
          "name": "_symbol",
          "type": "string"
        },
        {
          "internalType": "uint8",
          "name": "_decimal",
          "type": "uint8"
        }
      ],
      "stateMutability": "nonpayable",
      "type": "constructor"
    },
    {
      "anonymous": false,
      "inputs": [
        {
          "indexed": true,
          "internalType": "address",
          "name": "owner",
          "type": "address"
        },
        {
          "indexed": true,
          "internalType": "address",
          "name": "spender",
          "type": "address"
        },
        {
          "indexed": false,
          "internalType": "uint256",
          "name": "amount",
          "type": "uint256"
        }
      ],
      "name": "Approval",
      "type": "event"
    },
    {
      "anonymous": false,
      "inputs": [
        {
          "indexed": true,
          "internalType": "address",
          "name": "from",
          "type": "address"
        },
        {
          "indexed": true,
          "internalType": "address",
          "name": "to",
          "type": "address"
        },
        {
          "indexed": false,
          "internalType": "uint256",
          "name": "amount",
          "type": "uint256"
        }
      ],
      "name": "Transfer",
      "type": "event"
    },
    {
      "anonymous": false,
      "inputs": [
        {
          "indexed": true,
          "internalType": "address",
          "name": "user",
          "type": "address"
        },
        {
          "indexed": false,
          "internalType": "bool",
          "name": "trusted",
          "type": "bool"
        }
      ],
      "name": "UserTrustUpdated",
      "type": "event"
    },
    {
      "inputs": [],
      "name": "DOMAIN_SEPARATOR",
      "outputs": [
        {
          "internalType": "bytes32",
          "name": "",
          "type": "bytes32"
        }
      ],
      "stateMutability": "view",
      "type": "function"
    },
    {
      "inputs": [],
      "name": "PERMIT_TYPEHASH",
      "outputs": [
        {
          "internalType": "bytes32",
          "name": "",
          "type": "bytes32"
        }
      ],
      "stateMutability": "view",
      "type": "function"
    },
    {
      "inputs": [
        {
          "internalType": "address",
          "name": "",
          "type": "address"
        },
        {
          "internalType": "address",
          "name": "",
          "type": "address"
        }
      ],
      "name": "allowance",
      "outputs": [
        {
          "internalType": "uint256",
          "name": "",
          "type": "uint256"
        }
      ],
      "stateMutability": "view",
      "type": "function"
    },
    {
      "inputs": [
        {
          "internalType": "address",
          "name": "spender",
          "type": "address"
        },
        {
          "internalType": "uint256",
          "name": "amount",
          "type": "uint256"
        }
      ],
      "name": "approve",
      "outputs": [
        {
          "internalType": "bool",
          "name": "",
          "type": "bool"
        }
      ],
      "stateMutability": "nonpayable",
      "type": "function"
    },
    {
      "inputs": [
        {
          "internalType": "address",
          "name": "",
          "type": "address"
        }
      ],
      "name": "balanceOf",
      "outputs": [
        {
          "internalType": "uint256",
          "name": "",
          "type": "uint256"
        }
      ],
      "stateMutability": "view",
      "type": "function"
    },
    {
      "inputs": [
        {
          "internalType": "address",
          "name": "account",
          "type": "address"
        },
        {
          "internalType": "uint256",
          "name": "amount",
          "type": "uint256"
        }
      ],
      "name": "burn",
      "outputs": [],
      "stateMutability": "nonpayable",
      "type": "function"
    },
    {
      "inputs": [],
      "name": "decimals",
      "outputs": [
        {
          "internalType": "uint8",
          "name": "",
          "type": "uint8"
        }
      ],
      "stateMutability": "view",
      "type": "function"
    },
    {
      "inputs": [
        {
          "internalType": "address",
          "name": "",
          "type": "address"
        }
      ],
      "name": "isTrusted",
      "outputs": [
        {
          "internalType": "bool",
          "name": "",
          "type": "bool"
        }
      ],
      "stateMutability": "view",
      "type": "function"
    },
    {
      "inputs": [
        {
          "internalType": "address",
          "name": "account",
          "type": "address"
        },
        {
          "internalType": "uint256",
          "name": "amount",
          "type": "uint256"
        }
      ],
      "name": "mint",
      "outputs": [],
      "stateMutability": "nonpayable",
      "type": "function"
    },
    {
      "inputs": [],
      "name": "name",
      "outputs": [
        {
          "internalType": "string",
          "name": "",
          "type": "string"
        }
      ],
      "stateMutability": "view",
      "type": "function"
    },
    {
      "inputs": [
        {
          "internalType": "address",
          "name": "",
          "type": "address"
        }
      ],
      "name": "nonces",
      "outputs": [
        {
          "internalType": "uint256",
          "name": "",
          "type": "uint256"
        }
      ],
      "stateMutability": "view",
      "type": "function"
    },
    {
      "inputs": [
        {
          "internalType": "address",
          "name": "owner",
          "type": "address"
        },
        {
          "internalType": "address",
          "name": "spender",
          "type": "address"
        },
        {
          "internalType": "uint256",
          "name": "value",
          "type": "uint256"
        },
        {
          "internalType": "uint256",
          "name": "deadline",
          "type": "uint256"
        },
        {
          "internalType": "uint8",
          "name": "v",
          "type": "uint8"
        },
        {
          "internalType": "bytes32",
          "name": "r",
          "type": "bytes32"
        },
        {
          "internalType": "bytes32",
          "name": "s",
          "type": "bytes32"
        }
      ],
      "name": "permit",
      "outputs": [],
      "stateMutability": "nonpayable",
      "type": "function"
    },
    {
      "inputs": [
        {
          "internalType": "address",
          "name": "user",
          "type": "address"
        },
        {
          "internalType": "bool",
          "name": "trusted",
          "type": "bool"
        }
      ],
      "name": "setIsTrusted",
      "outputs": [],
      "stateMutability": "nonpayable",
      "type": "function"
    },
    {
      "inputs": [],
      "name": "symbol",
      "outputs": [
        {
          "internalType": "string",
          "name": "",
          "type": "string"
        }
      ],
      "stateMutability": "view",
      "type": "function"
    },
    {
      "inputs": [],
      "name": "totalSupply",
      "outputs": [
        {
          "internalType": "uint256",
          "name": "",
          "type": "uint256"
        }
      ],
      "stateMutability": "view",
      "type": "function"
    },
    {
      "inputs": [
        {
          "internalType": "address",
          "name": "to",
          "type": "address"
        },
        {
          "internalType": "uint256",
          "name": "amount",
          "type": "uint256"
        }
      ],
      "name": "transfer",
      "outputs": [
        {
          "internalType": "bool",
          "name": "",
          "type": "bool"
        }
      ],
      "stateMutability": "nonpayable",
      "type": "function"
    },
    {
      "inputs": [
        {
          "internalType": "address",
          "name": "from",
          "type": "address"
        },
        {
          "internalType": "address",
          "name": "to",
          "type": "address"
        },
        {
          "internalType": "uint256",
          "name": "amount",
          "type": "uint256"
        }
      ],
      "name": "transferFrom",
      "outputs": [
        {
          "internalType": "bool",
          "name": "",
          "type": "bool"
        }
      ],
      "stateMutability": "nonpayable",
      "type": "function"
    }
  ],
  "transactionHash": "0x6e355240b08db470b254144dbf2ff11590c935889c6a7b2b015fab7c83ce3e3a",
  "args": [
    "DAI",
    "DAI",
    18
  ],
  "numDeployments": 1,
  "solcInputHash": "a62402fa1f1d1283a4a3002b020572e4",
  "bytecode": "0x60e06040523480156200001157600080fd5b506040516200120b3803806200120b8339810160408190526200003491620002f5565b3383838382600090805190602001906200005092919062000182565b5081516200006690600190602085019062000182565b5060ff81166080524660a0526200007c620000e6565b60c0525050506001600160a01b038116600081815260066020908152604091829020805460ff1916600190811790915591519182527fe95aec380cae16330d146d5499ef7db6f3657e477104a733e771bc09e500d986910160405180910390a2505050506200045b565b60007f8b73c3c69bb8fe3d512ecc4cf759cc79239f7b179b0ffacaa9a75d522b39400f60006040516200011a9190620003b7565b6040805191829003822060208301939093528101919091527fc89efdaa54c0f20c7adf612882df0950f5a951637e0307cdcb4c672f298b8bc660608201524660808201523060a082015260c00160405160208183030381529060405280519060200120905090565b82805462000190906200037a565b90600052602060002090601f016020900481019282620001b45760008555620001ff565b82601f10620001cf57805160ff1916838001178555620001ff565b82800160010185558215620001ff579182015b82811115620001ff578251825591602001919060010190620001e2565b506200020d92915062000211565b5090565b5b808211156200020d576000815560010162000212565b634e487b7160e01b600052604160045260246000fd5b600082601f8301126200025057600080fd5b81516001600160401b03808211156200026d576200026d62000228565b604051601f8301601f19908116603f0116810190828211818310171562000298576200029862000228565b81604052838152602092508683858801011115620002b557600080fd5b600091505b83821015620002d95785820183015181830184015290820190620002ba565b83821115620002eb5760008385830101525b9695505050505050565b6000806000606084860312156200030b57600080fd5b83516001600160401b03808211156200032357600080fd5b62000331878388016200023e565b945060208601519150808211156200034857600080fd5b5062000357868287016200023e565b925050604084015160ff811681146200036f57600080fd5b809150509250925092565b600181811c908216806200038f57607f821691505b60208210811415620003b157634e487b7160e01b600052602260045260246000fd5b50919050565b600080835481600182811c915080831680620003d457607f831692505b6020808410821415620003f557634e487b7160e01b86526022600452602486fd5b8180156200040c57600181146200041e576200044d565b60ff198616895284890196506200044d565b60008a81526020902060005b86811015620004455781548b8201529085019083016200042a565b505084890196505b509498975050505050505050565b60805160a05160c051610d806200048b60003960006105640152600061052f0152600061019c0152610d806000f3fe608060405234801561001057600080fd5b50600436106100eb5760003560e01c806340c10f191161009257806340c10f19146101d857806370a08231146101eb5780637ecebe001461020b57806395d89b411461022b57806396d64879146102335780639dc29fac14610256578063a9059cbb14610269578063d505accf1461027c578063dd62ed3e1461028f57600080fd5b806306fdde03146100f0578063095ea7b31461010e5780631393916a1461013157806318160ddd1461014657806323b872dd1461015d57806330adf81f14610170578063313ce567146101975780633644e515146101d0575b600080fd5b6100f86102ba565b6040516101059190610a10565b60405180910390f35b61012161011c366004610a81565b610348565b6040519015158152602001610105565b61014461013f366004610aab565b6103b4565b005b61014f60025481565b604051908152602001610105565b61012161016b366004610ae7565b61044b565b61014f7f6e71edae12b1b97f4d1f60370fef10105fa2faae0126114a169c64845d6126c981565b6101be7f000000000000000000000000000000000000000000000000000000000000000081565b60405160ff9091168152602001610105565b61014f61052b565b6101446101e6366004610a81565b610586565b61014f6101f9366004610b23565b60036020526000908152604090205481565b61014f610219366004610b23565b60056020526000908152604090205481565b6100f86105c3565b610121610241366004610b23565b60066020526000908152604090205460ff1681565b610144610264366004610a81565b6105d0565b610121610277366004610a81565b610609565b61014461028a366004610b45565b61066f565b61014f61029d366004610bb8565b600460209081526000928352604080842090915290825290205481565b600080546102c790610beb565b80601f01602080910402602001604051908101604052809291908181526020018280546102f390610beb565b80156103405780601f1061031557610100808354040283529160200191610340565b820191906000526020600020905b81548152906001019060200180831161032357829003601f168201915b505050505081565b3360008181526004602090815260408083206001600160a01b038716808552925280832085905551919290917f8c5be1e5ebec7d5bd14f71427d1e84f3dd0314c0f7b2291e5b200ac8c7c3b925906103a39086815260200190565b60405180910390a350600192915050565b3360009081526006602052604090205460ff166103ec5760405162461bcd60e51b81526004016103e390610c26565b60405180910390fd5b6001600160a01b038216600081815260066020908152604091829020805460ff191685151590811790915591519182527fe95aec380cae16330d146d5499ef7db6f3657e477104a733e771bc09e500d986910160405180910390a25050565b6001600160a01b038316600090815260046020908152604080832033845290915281205460001981146104a7576104828382610c5f565b6001600160a01b03861660009081526004602090815260408083203384529091529020555b6001600160a01b038516600090815260036020526040812080548592906104cf908490610c5f565b90915550506001600160a01b0380851660008181526003602052604090819020805487019055519091871690600080516020610d2b833981519152906105189087815260200190565b60405180910390a3506001949350505050565b60007f000000000000000000000000000000000000000000000000000000000000000046146105615761055c6108ba565b905090565b507f000000000000000000000000000000000000000000000000000000000000000090565b3360009081526006602052604090205460ff166105b55760405162461bcd60e51b81526004016103e390610c26565b6105bf8282610954565b5050565b600180546102c790610beb565b3360009081526006602052604090205460ff166105ff5760405162461bcd60e51b81526004016103e390610c26565b6105bf82826109ae565b3360009081526003602052604081208054839190839061062a908490610c5f565b90915550506001600160a01b03831660008181526003602052604090819020805485019055513390600080516020610d2b833981519152906103a39086815260200190565b428410156106b95760405162461bcd60e51b815260206004820152601760248201527614115493525517d11150511312539157d1561412549151604a1b60448201526064016103e3565b60006106c361052b565b6001600160a01b0389811660008181526005602090815260409182902080546001810190915582517f6e71edae12b1b97f4d1f60370fef10105fa2faae0126114a169c64845d6126c98184015280840194909452938c166060840152608083018b905260a083019390935260c08083018a90528151808403909101815260e08301909152805192019190912061190160f01b6101008301526101028201929092526101228101919091526101420160408051601f198184030181528282528051602091820120600080855291840180845281905260ff88169284019290925260608301869052608083018590529092509060019060a0016020604051602081039080840390855afa1580156107dc573d6000803e3d6000fd5b5050604051601f1901519150506001600160a01b038116158015906108125750886001600160a01b0316816001600160a01b0316145b61084f5760405162461bcd60e51b815260206004820152600e60248201526d24a72b20a624a22fa9a4a3a722a960911b60448201526064016103e3565b6001600160a01b0390811660009081526004602090815260408083208b8516808552908352928190208a905551898152919350918a16917f8c5be1e5ebec7d5bd14f71427d1e84f3dd0314c0f7b2291e5b200ac8c7c3b925910160405180910390a350505050505050565b60007f8b73c3c69bb8fe3d512ecc4cf759cc79239f7b179b0ffacaa9a75d522b39400f60006040516108ec9190610c76565b6040805191829003822060208301939093528101919091527fc89efdaa54c0f20c7adf612882df0950f5a951637e0307cdcb4c672f298b8bc660608201524660808201523060a082015260c00160405160208183030381529060405280519060200120905090565b80600260008282546109669190610d12565b90915550506001600160a01b038216600081815260036020908152604080832080548601905551848152600080516020610d2b83398151915291015b60405180910390a35050565b6001600160a01b038216600090815260036020526040812080548392906109d6908490610c5f565b90915550506002805482900390556040518181526000906001600160a01b03841690600080516020610d2b833981519152906020016109a2565b600060208083528351808285015260005b81811015610a3d57858101830151858201604001528201610a21565b81811115610a4f576000604083870101525b50601f01601f1916929092016040019392505050565b80356001600160a01b0381168114610a7c57600080fd5b919050565b60008060408385031215610a9457600080fd5b610a9d83610a65565b946020939093013593505050565b60008060408385031215610abe57600080fd5b610ac783610a65565b915060208301358015158114610adc57600080fd5b809150509250929050565b600080600060608486031215610afc57600080fd5b610b0584610a65565b9250610b1360208501610a65565b9150604084013590509250925092565b600060208284031215610b3557600080fd5b610b3e82610a65565b9392505050565b600080600080600080600060e0888a031215610b6057600080fd5b610b6988610a65565b9650610b7760208901610a65565b95506040880135945060608801359350608088013560ff81168114610b9b57600080fd5b9699959850939692959460a0840135945060c09093013592915050565b60008060408385031215610bcb57600080fd5b610bd483610a65565b9150610be260208401610a65565b90509250929050565b600181811c90821680610bff57607f821691505b60208210811415610c2057634e487b7160e01b600052602260045260246000fd5b50919050565b602080825260099082015268155395149554d5115160ba1b604082015260600190565b634e487b7160e01b600052601160045260246000fd5b600082821015610c7157610c71610c49565b500390565b600080835481600182811c915080831680610c9257607f831692505b6020808410821415610cb257634e487b7160e01b86526022600452602486fd5b818015610cc65760018114610cd757610d04565b60ff19861689528489019650610d04565b60008a81526020902060005b86811015610cfc5781548b820152908501908301610ce3565b505084890196505b509498975050505050505050565b60008219821115610d2557610d25610c49565b50019056feddf252ad1be2c89b69c2b068fc378daa952ba7f163c4a11628f55a4df523b3efa2646970667358221220bb6955fc6fc9338444f81c3edb02350e9367db01c78e7f545f78df8b7673022064736f6c634300080b0033",
  "devdoc": {
    "kind": "dev",
    "methods": {},
    "version": 1
  },
  "userdoc": {
    "kind": "user",
    "methods": {},
    "version": 1
  },
  "storageLayout": {
    "storage": [
      {
        "astId": 863,
        "contract": "@sense-finance/v1-core/src/tests/test-helpers/mocks/MockToken.sol:AuthdMockToken",
        "label": "name",
        "offset": 0,
        "slot": "0",
        "type": "t_string_storage"
      },
      {
        "astId": 865,
        "contract": "@sense-finance/v1-core/src/tests/test-helpers/mocks/MockToken.sol:AuthdMockToken",
        "label": "symbol",
        "offset": 0,
        "slot": "1",
        "type": "t_string_storage"
      },
      {
        "astId": 869,
        "contract": "@sense-finance/v1-core/src/tests/test-helpers/mocks/MockToken.sol:AuthdMockToken",
        "label": "totalSupply",
        "offset": 0,
        "slot": "2",
        "type": "t_uint256"
      },
      {
        "astId": 873,
        "contract": "@sense-finance/v1-core/src/tests/test-helpers/mocks/MockToken.sol:AuthdMockToken",
        "label": "balanceOf",
        "offset": 0,
        "slot": "3",
        "type": "t_mapping(t_address,t_uint256)"
      },
      {
        "astId": 879,
        "contract": "@sense-finance/v1-core/src/tests/test-helpers/mocks/MockToken.sol:AuthdMockToken",
        "label": "allowance",
        "offset": 0,
        "slot": "4",
        "type": "t_mapping(t_address,t_mapping(t_address,t_uint256))"
      },
      {
        "astId": 892,
        "contract": "@sense-finance/v1-core/src/tests/test-helpers/mocks/MockToken.sol:AuthdMockToken",
        "label": "nonces",
        "offset": 0,
        "slot": "5",
        "type": "t_mapping(t_address,t_uint256)"
      },
      {
        "astId": 14705,
        "contract": "@sense-finance/v1-core/src/tests/test-helpers/mocks/MockToken.sol:AuthdMockToken",
        "label": "isTrusted",
        "offset": 0,
        "slot": "6",
        "type": "t_mapping(t_address,t_bool)"
      }
    ],
    "types": {
      "t_address": {
        "encoding": "inplace",
        "label": "address",
        "numberOfBytes": "20"
      },
      "t_bool": {
        "encoding": "inplace",
        "label": "bool",
        "numberOfBytes": "1"
      },
      "t_mapping(t_address,t_bool)": {
        "encoding": "mapping",
        "key": "t_address",
        "label": "mapping(address => bool)",
        "numberOfBytes": "32",
        "value": "t_bool"
      },
      "t_mapping(t_address,t_mapping(t_address,t_uint256))": {
        "encoding": "mapping",
        "key": "t_address",
        "label": "mapping(address => mapping(address => uint256))",
        "numberOfBytes": "32",
        "value": "t_mapping(t_address,t_uint256)"
      },
      "t_mapping(t_address,t_uint256)": {
        "encoding": "mapping",
        "key": "t_address",
        "label": "mapping(address => uint256)",
        "numberOfBytes": "32",
        "value": "t_uint256"
      },
      "t_string_storage": {
        "encoding": "bytes",
        "label": "string",
        "numberOfBytes": "32"
      },
      "t_uint256": {
        "encoding": "inplace",
        "label": "uint256",
        "numberOfBytes": "32"
      }
    }
  }
}