{
  "address": "0x2CbA20819a6367A417bE016D7f74d1eD34c0a7A7",
  "abi": [
    {
      "inputs": [],
      "name": "_acceptAdmin",
      "outputs": [
        {
          "internalType": "uint256",
          "name": "",
          "type": "uint256"
        }
      ],
      "stateMutability": "nonpayable",
      "type": "function"
    },
    {
      "inputs": [
        {
          "internalType": "bool",
          "name": "isCEther",
          "type": "bool"
        },
        {
          "internalType": "bytes",
          "name": "constructorData",
          "type": "bytes"
        },
        {
          "internalType": "uint256",
          "name": "collateralFactorMantissa",
          "type": "uint256"
        }
      ],
      "name": "_deployMarket",
      "outputs": [
        {
          "internalType": "uint256",
          "name": "",
          "type": "uint256"
        }
      ],
      "stateMutability": "nonpayable",
      "type": "function"
    },
    {
      "inputs": [
        {
          "internalType": "address",
          "name": "token",
          "type": "address"
        }
      ],
      "name": "cTokensByUnderlying",
      "outputs": [
        {
          "internalType": "address",
          "name": "",
          "type": "address"
        }
      ],
      "stateMutability": "nonpayable",
      "type": "function"
    },
    {
      "inputs": [
        {
          "internalType": "address",
          "name": "",
          "type": "address"
        }
      ],
      "name": "ctokens",
      "outputs": [
        {
          "internalType": "address",
          "name": "",
          "type": "address"
        }
      ],
      "stateMutability": "view",
      "type": "function"
    },
    {
      "inputs": [
        {
          "internalType": "address",
          "name": "token",
          "type": "address"
        }
      ],
      "name": "markets",
      "outputs": [
        {
          "components": [
            {
              "internalType": "bool",
              "name": "isListed",
              "type": "bool"
            },
            {
              "internalType": "uint256",
              "name": "collateralFactorMantissa",
              "type": "uint256"
            }
          ],
          "internalType": "struct MockComptroller.Market",
          "name": "",
          "type": "tuple"
        }
      ],
      "stateMutability": "nonpayable",
      "type": "function"
    },
    {
      "inputs": [],
      "name": "nonce",
      "outputs": [
        {
          "internalType": "uint256",
          "name": "",
          "type": "uint256"
        }
      ],
      "stateMutability": "view",
      "type": "function"
    },
    {
      "inputs": [
        {
          "internalType": "address",
          "name": "",
          "type": "address"
        }
      ],
      "name": "underlyings",
      "outputs": [
        {
          "internalType": "address",
          "name": "",
          "type": "address"
        }
      ],
      "stateMutability": "view",
      "type": "function"
    }
  ],
  "transactionHash": "0x7eb8c4b0b2ca64dd38aff3acb286561ca5b05dd6505ded79ca4ca647e7adaab7",
  "args": [],
  "numDeployments": 1,
  "solcInputHash": "a62402fa1f1d1283a4a3002b020572e4",
  "bytecode": "0x608060405234801561001057600080fd5b50610568806100206000396000f3fe608060405234801561001057600080fd5b506004361061006d5760003560e01c806331ff47fa14610072578063679a8da8146100a25780638e8f294b146100cb578063a038236414610138578063aba35b9814610161578063affed0e014610182578063e9c714f21461018b575b600080fd5b6100856100803660046102c3565b610192565b6040516001600160a01b0390911681526020015b60405180910390f35b6100856100b03660046102c3565b6001602052600090815260409020546001600160a01b031681565b61011b6100d93660046102c3565b60408051808201825260008082526020918201819052825180840184526001600160a01b03948516825260018352928120549093161515825281019190915290565b604080518251151581526020928301519281019290925201610099565b6100856101463660046102c3565b6000602081905290815260409020546001600160a01b031681565b61017461016f3660046102e7565b6101db565b604051908152602001610099565b61017460025481565b6000610174565b6001600160a01b03818116600090815260208190526040812054909116156101d357506001600160a01b039081166000908152602081905260409020541690565b506000919050565b6000806101ea8486018661042a565b5050506001600160a01b038087166000908152602081905260409020549697509590951615945061021f935050505057600080fd5b60026000815461022e90610509565b918290555060408051602081019290925243409082015260600160408051808303601f1901815291815281516020928301206001600160a01b03938416600081815280855283812080546001600160a01b031990811697909416968717905594855260019093529083208054909116909117905595945050505050565b6001600160a01b03811681146102c057600080fd5b50565b6000602082840312156102d557600080fd5b81356102e0816102ab565b9392505050565b600080600080606085870312156102fd57600080fd5b8435801515811461030d57600080fd5b9350602085013567ffffffffffffffff8082111561032a57600080fd5b818701915087601f83011261033e57600080fd5b81358181111561034d57600080fd5b88602082850101111561035f57600080fd5b95986020929092019750949560400135945092505050565b8035610382816102ab565b919050565b634e487b7160e01b600052604160045260246000fd5b600082601f8301126103ae57600080fd5b813567ffffffffffffffff808211156103c9576103c9610387565b604051601f8301601f19908116603f011681019082821181831017156103f1576103f1610387565b8160405283815286602085880101111561040a57600080fd5b836020870160208301376000602085830101528094505050505092915050565b60008060008060008060008060006101208a8c03121561044957600080fd5b6104528a610377565b985061046060208b01610377565b975061046e60408b01610377565b965060608a013567ffffffffffffffff8082111561048b57600080fd5b6104978d838e0161039d565b975060808c01359150808211156104ad57600080fd5b6104b98d838e0161039d565b96506104c760a08d01610377565b955060c08c01359150808211156104dd57600080fd5b506104ea8c828d0161039d565b93505060e08a013591506101008a013590509295985092959850929598565b600060001982141561052b57634e487b7160e01b600052601160045260246000fd5b506001019056fea2646970667358221220334099418b067f6cd3b1d917edadfafb0602efc0bce3b87ee5b5b79987413bd464736f6c634300080b0033",
  "devdoc": {
    "kind": "dev",
    "methods": {},
    "version": 1
  },
  "userdoc": {
    "kind": "user",
    "methods": {},
    "version": 1
  },
  "storageLayout": {
    "storage": [
      {
        "astId": 12220,
        "contract": "@sense-finance/v1-core/src/tests/test-helpers/mocks/fuse/MockComptroller.sol:MockComptroller",
        "label": "ctokens",
        "offset": 0,
        "slot": "0",
        "type": "t_mapping(t_address,t_address)"
      },
      {
        "astId": 12224,
        "contract": "@sense-finance/v1-core/src/tests/test-helpers/mocks/fuse/MockComptroller.sol:MockComptroller",
        "label": "underlyings",
        "offset": 0,
        "slot": "1",
        "type": "t_mapping(t_address,t_address)"
      },
      {
        "astId": 12226,
        "contract": "@sense-finance/v1-core/src/tests/test-helpers/mocks/fuse/MockComptroller.sol:MockComptroller",
        "label": "nonce",
        "offset": 0,
        "slot": "2",
        "type": "t_uint256"
      }
    ],
    "types": {
      "t_address": {
        "encoding": "inplace",
        "label": "address",
        "numberOfBytes": "20"
      },
      "t_mapping(t_address,t_address)": {
        "encoding": "mapping",
        "key": "t_address",
        "label": "mapping(address => address)",
        "numberOfBytes": "32",
        "value": "t_address"
      },
      "t_uint256": {
        "encoding": "inplace",
        "label": "uint256",
        "numberOfBytes": "32"
      }
    }
  }
}