{
  "address": "0xf41B69bbe4A8b2dB33e1F132d2AF8eFEdB4c9Fc4",
  "abi": [
    {
      "inputs": [],
      "stateMutability": "nonpayable",
      "type": "constructor"
    },
    {
      "inputs": [
        {
          "internalType": "address[]",
          "name": "_tokens",
          "type": "address[]"
        },
        {
          "internalType": "uint256[]",
          "name": "_amounts",
          "type": "uint256[]"
        },
        {
          "internalType": "address",
          "name": "_user",
          "type": "address"
        }
      ],
      "name": "mint",
      "outputs": [],
      "stateMutability": "nonpayable",
      "type": "function"
    },
    {
      "inputs": [],
      "name": "owner",
      "outputs": [
        {
          "internalType": "address",
          "name": "",
          "type": "address"
        }
      ],
      "stateMutability": "view",
      "type": "function"
    }
  ],
  "transactionHash": "0x5b3c6eb3b4080650aa0c3740c310e3e96a2cbfee8a99028d4322d41b9834d7d0",
  "args": [],
  "numDeployments": 1,
  "solcInputHash": "3d139972f4c417cfc4ecb8cd185814c0",
  "bytecode": "0x608060405234801561001057600080fd5b50600080546001600160a01b03191633179055610367806100326000396000f3fe608060405234801561001057600080fd5b50600436106100365760003560e01c80638da5cb5b1461003b578063ddcf36d31461006a575b600080fd5b60005461004e906001600160a01b031681565b6040516001600160a01b03909116815260200160405180910390f35b61007d61007836600461024f565b61007f565b005b6000546001600160a01b031633146100cb5760405162461bcd60e51b815260206004820152600a60248201526927a7262cafa7aba722a960b11b60448201526064015b60405180910390fd5b8382146101125760405162461bcd60e51b8152602060048201526015602482015274082a4a482b2be988a9c8ea890be9a92a69a82a8869605b1b60448201526064016100c2565b60005b848110156101df5785858281811061012f5761012f6102d0565b905060200201602081019061014491906102e6565b6001600160a01b03166340c10f1983868685818110610165576101656102d0565b6040516001600160e01b031960e087901b1681526001600160a01b0390941660048501526020029190910135602483015250604401600060405180830381600087803b1580156101b457600080fd5b505af11580156101c8573d6000803e3d6000fd5b5050505080806101d790610308565b915050610115565b505050505050565b60008083601f8401126101f957600080fd5b50813567ffffffffffffffff81111561021157600080fd5b6020830191508360208260051b850101111561022c57600080fd5b9250929050565b80356001600160a01b038116811461024a57600080fd5b919050565b60008060008060006060868803121561026757600080fd5b853567ffffffffffffffff8082111561027f57600080fd5b61028b89838a016101e7565b909750955060208801359150808211156102a457600080fd5b506102b1888289016101e7565b90945092506102c4905060408701610233565b90509295509295909350565b634e487b7160e01b600052603260045260246000fd5b6000602082840312156102f857600080fd5b61030182610233565b9392505050565b600060001982141561032a57634e487b7160e01b600052601160045260246000fd5b506001019056fea26469706673582212203dca555177c3545ed9ab32cc7a390987db3a10cee6fe5cedea92fc45e59cbff664736f6c634300080b0033",
  "devdoc": {
    "kind": "dev",
    "methods": {
      "mint(address[],uint256[],address)": {
        "details": "Assumes this contract has authority over the passed in tokens"
      }
    },
    "version": 1
  },
  "userdoc": {
    "kind": "user",
    "methods": {},
    "version": 1
  },
  "storageLayout": {
    "storage": [
      {
        "astId": 11,
        "contract": "src/MultiMint.sol:MultiMint",
        "label": "owner",
        "offset": 0,
        "slot": "0",
        "type": "t_address"
      }
    ],
    "types": {
      "t_address": {
        "encoding": "inplace",
        "label": "address",
        "numberOfBytes": "20"
      }
    }
  }
}