{
  "address": "0x57D69DF010C495aceb22D8433288C1C774Cbb77E",
  "abi": [
    {
      "inputs": [
        {
          "internalType": "address",
          "name": "_fuseDirectory",
          "type": "address"
        },
        {
          "internalType": "address",
          "name": "_comptrollerImpl",
          "type": "address"
        },
        {
          "internalType": "address",
          "name": "_cERC20Impl",
          "type": "address"
        },
        {
          "internalType": "address",
          "name": "_divider",
          "type": "address"
        },
        {
          "internalType": "address",
          "name": "_oracleImpl",
          "type": "address"
        }
      ],
      "stateMutability": "nonpayable",
      "type": "constructor"
    },
    {
      "inputs": [],
      "name": "DuplicateSeries",
      "type": "error"
    },
    {
      "inputs": [],
      "name": "FailedAddLpMarket",
      "type": "error"
    },
    {
      "inputs": [],
      "name": "FailedAddTargetMarket",
      "type": "error"
    },
    {
      "inputs": [],
      "name": "FailedBecomeAdmin",
      "type": "error"
    },
    {
      "inputs": [],
      "name": "FailedToAddPTMarket",
      "type": "error"
    },
    {
      "inputs": [],
      "name": "InvalidParam",
      "type": "error"
    },
    {
      "inputs": [],
      "name": "OracleNotReady",
      "type": "error"
    },
    {
      "inputs": [],
      "name": "PTParamsNotSet",
      "type": "error"
    },
    {
      "inputs": [],
      "name": "PoolNotDeployed",
      "type": "error"
    },
    {
      "inputs": [],
      "name": "PoolParamsNotSet",
      "type": "error"
    },
    {
      "inputs": [],
      "name": "SeriesDoesNotExist",
      "type": "error"
    },
    {
      "inputs": [],
      "name": "SeriesNotQueued",
      "type": "error"
    },
    {
      "inputs": [],
      "name": "TargetNotInFuse",
      "type": "error"
    },
    {
      "inputs": [],
      "name": "TargetParamsNotSet",
      "type": "error"
    },
    {
      "anonymous": false,
      "inputs": [
        {
          "indexed": true,
          "internalType": "bytes32",
          "name": "what",
          "type": "bytes32"
        },
        {
          "components": [
            {
              "internalType": "address",
              "name": "irModel",
              "type": "address"
            },
            {
              "internalType": "uint256",
              "name": "reserveFactor",
              "type": "uint256"
            },
            {
              "internalType": "uint256",
              "name": "collateralFactor",
              "type": "uint256"
            }
          ],
          "indexed": false,
          "internalType": "struct PoolManager.AssetParams",
          "name": "data",
          "type": "tuple"
        }
      ],
      "name": "ParamsSet",
      "type": "event"
    },
    {
      "anonymous": false,
      "inputs": [
        {
          "indexed": false,
          "internalType": "string",
          "name": "name",
          "type": "string"
        },
        {
          "indexed": false,
          "internalType": "address",
          "name": "comptroller",
          "type": "address"
        },
        {
          "indexed": false,
          "internalType": "uint256",
          "name": "poolIndex",
          "type": "uint256"
        },
        {
          "indexed": false,
          "internalType": "uint256",
          "name": "closeFactor",
          "type": "uint256"
        },
        {
          "indexed": false,
          "internalType": "uint256",
          "name": "liqIncentive",
          "type": "uint256"
        }
      ],
      "name": "PoolDeployed",
      "type": "event"
    },
    {
      "anonymous": false,
      "inputs": [
        {
          "indexed": true,
          "internalType": "address",
          "name": "pt",
          "type": "address"
        },
        {
          "indexed": true,
          "internalType": "address",
          "name": "lpToken",
          "type": "address"
        }
      ],
      "name": "SeriesAdded",
      "type": "event"
    },
    {
      "anonymous": false,
      "inputs": [
        {
          "indexed": true,
          "internalType": "address",
          "name": "adapter",
          "type": "address"
        },
        {
          "indexed": true,
          "internalType": "uint256",
          "name": "maturity",
          "type": "uint256"
        },
        {
          "indexed": true,
          "internalType": "address",
          "name": "pool",
          "type": "address"
        }
      ],
      "name": "SeriesQueued",
      "type": "event"
    },
    {
      "anonymous": false,
      "inputs": [
        {
          "indexed": true,
          "internalType": "address",
          "name": "target",
          "type": "address"
        },
        {
          "indexed": true,
          "internalType": "address",
          "name": "cTarget",
          "type": "address"
        }
      ],
      "name": "TargetAdded",
      "type": "event"
    },
    {
      "anonymous": false,
      "inputs": [
        {
          "indexed": true,
          "internalType": "address",
          "name": "user",
          "type": "address"
        },
        {
          "indexed": false,
          "internalType": "bool",
          "name": "trusted",
          "type": "bool"
        }
      ],
      "name": "UserTrustUpdated",
      "type": "event"
    },
    {
      "inputs": [
        {
          "internalType": "address",
          "name": "adapter",
          "type": "address"
        },
        {
          "internalType": "uint256",
          "name": "maturity",
          "type": "uint256"
        }
      ],
      "name": "addSeries",
      "outputs": [
        {
          "internalType": "address",
          "name": "cPT",
          "type": "address"
        },
        {
          "internalType": "address",
          "name": "cLPToken",
          "type": "address"
        }
      ],
      "stateMutability": "nonpayable",
      "type": "function"
    },
    {
      "inputs": [
        {
          "internalType": "address",
          "name": "target",
          "type": "address"
        },
        {
          "internalType": "address",
          "name": "adapter",
          "type": "address"
        }
      ],
      "name": "addTarget",
      "outputs": [
        {
          "internalType": "address",
          "name": "cTarget",
          "type": "address"
        }
      ],
      "stateMutability": "nonpayable",
      "type": "function"
    },
    {
      "inputs": [],
      "name": "cERC20Impl",
      "outputs": [
        {
          "internalType": "address",
          "name": "",
          "type": "address"
        }
      ],
      "stateMutability": "view",
      "type": "function"
    },
    {
      "inputs": [],
      "name": "comptroller",
      "outputs": [
        {
          "internalType": "address",
          "name": "",
          "type": "address"
        }
      ],
      "stateMutability": "view",
      "type": "function"
    },
    {
      "inputs": [],
      "name": "comptrollerImpl",
      "outputs": [
        {
          "internalType": "address",
          "name": "",
          "type": "address"
        }
      ],
      "stateMutability": "view",
      "type": "function"
    },
    {
      "inputs": [
        {
          "internalType": "string",
          "name": "name",
          "type": "string"
        },
        {
          "internalType": "uint256",
          "name": "closeFactor",
          "type": "uint256"
        },
        {
          "internalType": "uint256",
          "name": "liqIncentive",
          "type": "uint256"
        },
        {
          "internalType": "address",
          "name": "fallbackOracle",
          "type": "address"
        }
      ],
      "name": "deployPool",
      "outputs": [
        {
          "internalType": "uint256",
          "name": "_poolIndex",
          "type": "uint256"
        },
        {
          "internalType": "address",
          "name": "_comptroller",
          "type": "address"
        }
      ],
      "stateMutability": "nonpayable",
      "type": "function"
    },
    {
      "inputs": [],
      "name": "divider",
      "outputs": [
        {
          "internalType": "address",
          "name": "",
          "type": "address"
        }
      ],
      "stateMutability": "view",
      "type": "function"
    },
    {
      "inputs": [
        {
          "internalType": "address",
          "name": "to",
          "type": "address"
        },
        {
          "internalType": "uint256",
          "name": "value",
          "type": "uint256"
        },
        {
          "internalType": "bytes",
          "name": "data",
          "type": "bytes"
        },
        {
          "internalType": "uint256",
          "name": "txGas",
          "type": "uint256"
        }
      ],
      "name": "execute",
      "outputs": [
        {
          "internalType": "bool",
          "name": "success",
          "type": "bool"
        }
      ],
      "stateMutability": "nonpayable",
      "type": "function"
    },
    {
      "inputs": [],
      "name": "fuseDirectory",
      "outputs": [
        {
          "internalType": "address",
          "name": "",
          "type": "address"
        }
      ],
      "stateMutability": "view",
      "type": "function"
    },
    {
      "inputs": [
        {
          "internalType": "address",
          "name": "",
          "type": "address"
        }
      ],
      "name": "isTrusted",
      "outputs": [
        {
          "internalType": "bool",
          "name": "",
          "type": "bool"
        }
      ],
      "stateMutability": "view",
      "type": "function"
    },
    {
      "inputs": [],
      "name": "lpOracle",
      "outputs": [
        {
          "internalType": "address",
          "name": "",
          "type": "address"
        }
      ],
      "stateMutability": "view",
      "type": "function"
    },
    {
      "inputs": [],
      "name": "lpTokenParams",
      "outputs": [
        {
          "internalType": "address",
          "name": "irModel",
          "type": "address"
        },
        {
          "internalType": "uint256",
          "name": "reserveFactor",
          "type": "uint256"
        },
        {
          "internalType": "uint256",
          "name": "collateralFactor",
          "type": "uint256"
        }
      ],
      "stateMutability": "view",
      "type": "function"
    },
    {
      "inputs": [],
      "name": "masterOracle",
      "outputs": [
        {
          "internalType": "address",
          "name": "",
          "type": "address"
        }
      ],
      "stateMutability": "view",
      "type": "function"
    },
    {
      "inputs": [],
      "name": "oracleImpl",
      "outputs": [
        {
          "internalType": "address",
          "name": "",
          "type": "address"
        }
      ],
      "stateMutability": "view",
      "type": "function"
    },
    {
      "inputs": [],
      "name": "ptOracle",
      "outputs": [
        {
          "internalType": "address",
          "name": "",
          "type": "address"
        }
      ],
      "stateMutability": "view",
      "type": "function"
    },
    {
      "inputs": [],
      "name": "ptParams",
      "outputs": [
        {
          "internalType": "address",
          "name": "irModel",
          "type": "address"
        },
        {
          "internalType": "uint256",
          "name": "reserveFactor",
          "type": "uint256"
        },
        {
          "internalType": "uint256",
          "name": "collateralFactor",
          "type": "uint256"
        }
      ],
      "stateMutability": "view",
      "type": "function"
    },
    {
      "inputs": [
        {
          "internalType": "address",
          "name": "adapter",
          "type": "address"
        },
        {
          "internalType": "uint256",
          "name": "maturity",
          "type": "uint256"
        },
        {
          "internalType": "address",
          "name": "pool",
          "type": "address"
        }
      ],
      "name": "queueSeries",
      "outputs": [],
      "stateMutability": "nonpayable",
      "type": "function"
    },
    {
      "inputs": [
        {
          "internalType": "address",
          "name": "",
          "type": "address"
        },
        {
          "internalType": "uint256",
          "name": "",
          "type": "uint256"
        }
      ],
      "name": "sSeries",
      "outputs": [
        {
          "internalType": "enum PoolManager.SeriesStatus",
          "name": "status",
          "type": "uint8"
        },
        {
          "internalType": "address",
          "name": "pool",
          "type": "address"
        }
      ],
      "stateMutability": "view",
      "type": "function"
    },
    {
      "inputs": [
        {
          "internalType": "address",
          "name": "user",
          "type": "address"
        },
        {
          "internalType": "bool",
          "name": "trusted",
          "type": "bool"
        }
      ],
      "name": "setIsTrusted",
      "outputs": [],
      "stateMutability": "nonpayable",
      "type": "function"
    },
    {
      "inputs": [
        {
          "internalType": "bytes32",
          "name": "what",
          "type": "bytes32"
        },
        {
          "components": [
            {
              "internalType": "address",
              "name": "irModel",
              "type": "address"
            },
            {
              "internalType": "uint256",
              "name": "reserveFactor",
              "type": "uint256"
            },
            {
              "internalType": "uint256",
              "name": "collateralFactor",
              "type": "uint256"
            }
          ],
          "internalType": "struct PoolManager.AssetParams",
          "name": "data",
          "type": "tuple"
        }
      ],
      "name": "setParams",
      "outputs": [],
      "stateMutability": "nonpayable",
      "type": "function"
    },
    {
      "inputs": [],
      "name": "targetOracle",
      "outputs": [
        {
          "internalType": "address",
          "name": "",
          "type": "address"
        }
      ],
      "stateMutability": "view",
      "type": "function"
    },
    {
      "inputs": [],
      "name": "targetParams",
      "outputs": [
        {
          "internalType": "address",
          "name": "irModel",
          "type": "address"
        },
        {
          "internalType": "uint256",
          "name": "reserveFactor",
          "type": "uint256"
        },
        {
          "internalType": "uint256",
          "name": "collateralFactor",
          "type": "uint256"
        }
      ],
      "stateMutability": "view",
      "type": "function"
    },
    {
      "inputs": [],
      "name": "underlyingOracle",
      "outputs": [
        {
          "internalType": "address",
          "name": "",
          "type": "address"
        }
      ],
      "stateMutability": "view",
      "type": "function"
    }
  ],
  "transactionHash": "0x2a58b604e193122a82efbb26c33d9800fd2728fda8b66497039f571696550691",
  "args": [
    "0x5722369FB680135b8a6b61cD24E2Dbe36c5Bb4D8",
    "0x2CbA20819a6367A417bE016D7f74d1eD34c0a7A7",
    "0x0000000000000000000000000000000000000000",
    "0x240c7D23cfFB8438ad4fdF1a4FAcF47505A4A37f",
    "0x92b831aA539eB83FBE201D4cd99Fb373E876E3c3"
  ],
  "numDeployments": 1,
  "solcInputHash": "a62402fa1f1d1283a4a3002b020572e4",
  "bytecode": "0x6101a06040523480156200001257600080fd5b50604051620044e9380380620044e98339810160408190526200003591620001f2565b3360008181526020818152604091829020805460ff19166001908117909155915191825282917fe95aec380cae16330d146d5499ef7db6f3657e477104a733e771bc09e500d986910160405180910390a2506001600160a01b0380861660c05284811660805283811660a05282811660e052811661010052604051620000bb906200019d565b604051809103906000f080158015620000d8573d6000803e3d6000fd5b506001600160a01b031661012052604051620000f490620001ab565b604051809103906000f08015801562000111573d6000803e3d6000fd5b506001600160a01b0316610140526040516200012d90620001b9565b604051809103906000f0801580156200014a573d6000803e3d6000fd5b506001600160a01b0316610160526040516200016690620001c7565b604051809103906000f08015801562000183573d6000803e3d6000fd5b506001600160a01b03166101805250620002629350505050565b6105ae806200288483390190565b610b918062002e3283390190565b61062780620039c383390190565b6104ff8062003fea83390190565b80516001600160a01b0381168114620001ed57600080fd5b919050565b600080600080600060a086880312156200020b57600080fd5b6200021686620001d5565b94506200022660208701620001d5565b93506200023660408701620001d5565b92506200024660608701620001d5565b91506200025660808701620001d5565b90509295509295909350565b60805160a05160c05160e05161010051610120516101405161016051610180516125486200033c600039600081816101bb015281816107fb015261085201526000818161019401526115730152600081816101570152818161151f01526115ca015260008181610444015281816107a701526108d20152600081816102df015261100201526000818161024401528181610c86015261135001526000818161029201526110dc01526000818161020a01528181610a970152818161178f015261196001526000818161026b015261111001526125486000f3fe608060405234801561001057600080fd5b506004361061014d5760003560e01c80635fe3b567116100c3578063cd387def1161007c578063cd387def14610398578063d8deea69146103d8578063e1b08b2f14610424578063e53e26841461043f578063eaada38214610466578063f191f72d1461047957600080fd5b80635fe3b567146102c757806366e671fa146102da5780636f2cec031461030157806371987b151461033157806374420f4c1461035257806396d648791461037557600080fd5b80631e75fda8116101155780631e75fda8146102055780631ec64fef1461022c578063378efa371461023f57806338d170d0146102665780634fe9a1651461028d5780635e883823146102b457600080fd5b806305d7b9a214610152578063062b032f1461018f57806312c46e61146101b65780631393916a146101dd5780631e413472146101f2575b600080fd5b6101797f000000000000000000000000000000000000000000000000000000000000000081565b6040516101869190611d00565b60405180910390f35b6101797f000000000000000000000000000000000000000000000000000000000000000081565b6101797f000000000000000000000000000000000000000000000000000000000000000081565b6101f06101eb366004611d3a565b610494565b005b6101f0610200366004611d73565b61052a565b6101797f000000000000000000000000000000000000000000000000000000000000000081565b61017961023a366004611dab565b610617565b6101797f000000000000000000000000000000000000000000000000000000000000000081565b6101797f000000000000000000000000000000000000000000000000000000000000000081565b6101797f000000000000000000000000000000000000000000000000000000000000000081565b6101f06102c2366004611dd9565b610c2e565b600154610179906001600160a01b031681565b6101797f000000000000000000000000000000000000000000000000000000000000000081565b61031461030f366004611e1b565b610fcc565b604080519283526001600160a01b03909116602083015201610186565b61034461033f366004611eb2565b61127a565b604051610186929190611ede565b610365610360366004611f67565b611c1b565b6040519015158152602001610186565b61036561038336600461200b565b60006020819052908152604090205460ff1681565b600954600a54600b546103b3926001600160a01b0316919083565b604080516001600160a01b039094168452602084019290925290820152606001610186565b6104166103e6366004611eb2565b600c60209081526000928352604080842090915290825290205460ff81169061010090046001600160a01b031682565b604051610186929190612045565b6003546004546005546103b3926001600160a01b0316919083565b6101797f000000000000000000000000000000000000000000000000000000000000000081565b600254610179906001600160a01b031681565b6006546007546008546103b3926001600160a01b0316919083565b3360009081526020819052604090205460ff166104cc5760405162461bcd60e51b81526004016104c39061207f565b60405180910390fd5b6001600160a01b03821660008181526020818152604091829020805460ff191685151590811790915591519182527fe95aec380cae16330d146d5499ef7db6f3657e477104a733e771bc09e500d98691015b60405180910390a25050565b3360009081526020819052604090205460ff166105595760405162461bcd60e51b81526004016104c39061207f565b816850545f504152414d5360b81b14156105825780600661057a82826120a2565b9050506105e7565b816e4c505f544f4b454e5f504152414d5360881b14156105a95780600961057a82826120a2565b816c5441524745545f504152414d5360981b14156105ce5780600361057a82826120a2565b604051633494a40d60e21b815260040160405180910390fd5b817f19343ac82232ade4f61d24859ca30233e9760fe231cc39a90ddf5bd49acb517e8260405161051e91906120e0565b3360009081526020819052604081205460ff166106465760405162461bcd60e51b81526004016104c39061207f565b6001546001600160a01b031661066f57604051633945869160e01b815260040160405180910390fd5b6003546001600160a01b031661069857604051631afc03bd60e21b815260040160405180910390fd5b6000826001600160a01b0316636f307dc36040518163ffffffff1660e01b8152600401602060405180830381865afa1580156106d8573d6000803e3d6000fd5b505050506040513d601f19601f820116820180604052508101906106fc9190612115565b6040805160028082526060820183529293506000929091602083019080368337019050509050848160008151811061073657610736612132565b60200260200101906001600160a01b031690816001600160a01b031681525050818160018151811061076a5761076a612132565b6001600160a01b039290921660209283029190910182015260408051600280825260608201835260009391929091830190803683370190505090507f0000000000000000000000000000000000000000000000000000000000000000816000815181106107d9576107d9612132565b60200260200101906001600160a01b031690816001600160a01b0316815250507f00000000000000000000000000000000000000000000000000000000000000008160018151811061082d5761082d612132565b6001600160a01b0392831660209182029290920101526040516308d8267d60e11b81527f0000000000000000000000000000000000000000000000000000000000000000909116906311b04cfa9061088b9086908990600401611ede565b600060405180830381600087803b1580156108a557600080fd5b505af11580156108b9573d6000803e3d6000fd5b5050604051633ecf06bd60e01b81526001600160a01b037f0000000000000000000000000000000000000000000000000000000000000000169250633ecf06bd915061090b9089908990600401611ede565b600060405180830381600087803b15801561092557600080fd5b505af1158015610939573d6000803e3d6000fd5b5050600254604051634e48c96360e11b81526001600160a01b039091169250639c9192c6915061096f908590859060040161218c565b600060405180830381600087803b15801561098957600080fd5b505af115801561099d573d6000803e3d6000fd5b5050600154600354604080516306fdde0360e01b81529051600095508b94506001600160a01b0393841693928316928516916306fdde0391600480830192899291908290030181865afa1580156109f8573d6000803e3d6000fd5b505050506040513d6000823e601f3d908101601f19168201604052610a2091908101906121ea565b8a6001600160a01b03166395d89b416040518163ffffffff1660e01b8152600401600060405180830381865afa158015610a5e573d6000803e3d6000fd5b505050506040513d6000823e601f3d908101601f19168201604052610a8691908101906121ea565b600454604051610ac29695949392917f000000000000000000000000000000000000000000000000000000000000000091600090602001612284565b60408051601f19818403018152908290526001546005546315746b7360e31b84529193506000926001600160a01b039091169163aba35b9891610b0c918591879190600401612301565b6020604051808303816000875af1158015610b2b573d6000803e3d6000fd5b505050506040513d601f19601f82011682018060405250810190610b4f919061232c565b90508015610b70576040516353c72d3d60e01b815260040160405180910390fd5b6001546040516318ffa3fd60e11b81526001600160a01b03909116906331ff47fa90610ba0908b90600401611d00565b602060405180830381865afa158015610bbd573d6000803e3d6000fd5b505050506040513d601f19601f82011682018060405250810190610be19190612115565b9550856001600160a01b0316886001600160a01b03167f3ba6ba3fcb7369ef738bc90958eec7a66fb09fe03af0a3f5c4c2863c6b36d2ad60405160405180910390a3505050505092915050565b3360009081526020819052604090205460ff16610c5d5760405162461bcd60e51b81526004016104c39061207f565b60405163d10eb4b960e01b81526001600160a01b038481166004830152602482018490526000917f00000000000000000000000000000000000000000000000000000000000000009091169063d10eb4b990604401602060405180830381865afa158015610ccf573d6000803e3d6000fd5b505050506040513d601f19601f82011682018060405250810190610cf39190612115565b6001600160a01b03161415610d1b57604051631760174360e01b815260040160405180910390fd5b6001600160a01b0383166000908152600c6020908152604080832085845290915281205460ff166002811115610d5357610d5361202f565b14610d71576040516334c2762160e21b815260040160405180910390fd5b6000600160009054906101000a90046001600160a01b03166001600160a01b03166331ff47fa856001600160a01b031663d4b839926040518163ffffffff1660e01b8152600401602060405180830381865afa158015610dd5573d6000803e3d6000fd5b505050506040513d601f19601f82011682018060405250810190610df99190612115565b6040518263ffffffff1660e01b8152600401610e159190611d00565b602060405180830381865afa158015610e32573d6000803e3d6000fd5b505050506040513d601f19601f82011682018060405250810190610e569190612115565b90506001600160a01b038116610e7f57604051632f6924d160e01b815260040160405180910390fd5b600154604051638e8f294b60e01b81526000916001600160a01b031690638e8f294b90610eb0908590600401611d00565b6040805180830381865afa158015610ecc573d6000803e3d6000fd5b505050506040513d601f19601f82011682018060405250810190610ef09190612345565b50905080610f1157604051632f6924d160e01b815260040160405180910390fd5b6040805180820190915280600181526001600160a01b0380861660209283015287166000908152600c825260408082208883529092522081518154829060ff19166001836002811115610f6657610f6661202f565b0217905550602091909101518154610100600160a81b0319166101006001600160a01b039283160217909155604051848216918691908816907f02f6226cb15bc6c090b3bcd5d2443620fe13f5d3675a554b09b91cd344ac52bb90600090a45050505050565b33600090815260208190526040812054819060ff16610ffd5760405162461bcd60e51b81526004016104c39061207f565b6110397f00000000000000000000000000000000000000000000000000000000000000003060601b6bffffffffffffffffffffffff1916611c60565b600280546001600160a01b0319166001600160a01b0392909216918217905560408051600080825260208201908152818301928390526313c550a360e11b90925263278aa1469161109291908730600160448501612373565b600060405180830381600087803b1580156110ac57600080fd5b505af11580156110c0573d6000803e3d6000fd5b5050600254604051630ae218db60e31b81526001600160a01b037f000000000000000000000000000000000000000000000000000000000000000081169450635710c6d89350611141928c928c927f0000000000000000000000000000000000000000000000000000000000000000926000928e928e9216906004016123eb565b60408051808303816000875af115801561115f573d6000803e3d6000fd5b505050506040513d601f19601f82011682018060405250810190611183919061243a565b80925081935050506000816001600160a01b031663e9c714f26040518163ffffffff1660e01b81526004016020604051808303816000875af11580156111cd573d6000803e3d6000fd5b505050506040513d601f19601f820116820180604052508101906111f1919061232c565b9050801561121257604051634bc16da560e11b815260040160405180910390fd5b600180546001600160a01b0319166001600160a01b0384161790556040517f200a9e26954b1b18425cdd75101b3db8dae378a7e43369b4a5acf31252409f4090611267908a908a90869088908c908c9061245f565b60405180910390a1509550959350505050565b60008060016001600160a01b0385166000908152600c6020908152604080832087845290915290205460ff1660028111156112b7576112b761202f565b146112d55760405163198b942b60e21b815260040160405180910390fd5b6006546001600160a01b03166112fe576040516324df3c2360e01b815260040160405180910390fd5b6009546001600160a01b031661132757604051634c68969f60e11b815260040160405180910390fd5b60405163d10eb4b960e01b81526001600160a01b038581166004830152602482018590526000917f00000000000000000000000000000000000000000000000000000000000000009091169063d10eb4b990604401602060405180830381865afa158015611399573d6000803e3d6000fd5b505050506040513d601f19601f820116820180604052508101906113bd9190612115565b6001600160a01b038681166000908152600c60209081526040808320898452909152808220549051631834541f60e21b81526103ff600482015293945061010090049091169182906360d1507c9060240160e060405180830381865afa15801561142b573d6000803e3d6000fd5b505050506040513d601f19601f8201168201806040525081019061144f91906124a1565b965050505050505080600014156114795760405163370aafe360e11b815260040160405180910390fd5b60408051600280825260608201835260009260208301908036833701905050905083816000815181106114ae576114ae612132565b60200260200101906001600160a01b031690816001600160a01b03168152505082816001815181106114e2576114e2612132565b6001600160a01b039290921660209283029190910182015260408051600280825260608201835260009391929091830190803683370190505090507f00000000000000000000000000000000000000000000000000000000000000008160008151811061155157611551612132565b60200260200101906001600160a01b031690816001600160a01b0316815250507f0000000000000000000000000000000000000000000000000000000000000000816001815181106115a5576115a5612132565b6001600160a01b039283166020918202929092010152604051632b7f9ab560e01b81527f000000000000000000000000000000000000000000000000000000000000000090911690632b7f9ab5906116039088908890600401611ede565b600060405180830381600087803b15801561161d57600080fd5b505af1158015611631573d6000803e3d6000fd5b5050600254604051634e48c96360e11b81526001600160a01b039091169250639c9192c69150611667908590859060040161218c565b600060405180830381600087803b15801561168157600080fd5b505af1158015611695573d6000803e3d6000fd5b5050600154600654604080516306fdde0360e01b81529051600095508a94506001600160a01b0393841693928316928516916306fdde0391600480830192899291908290030181865afa1580156116f0573d6000803e3d6000fd5b505050506040513d6000823e601f3d908101601f1916820160405261171891908101906121ea565b896001600160a01b03166395d89b416040518163ffffffff1660e01b8152600401600060405180830381865afa158015611756573d6000803e3d6000fd5b505050506040513d6000823e601f3d908101601f1916820160405261177e91908101906121ea565b6007546040516117ba9695949392917f000000000000000000000000000000000000000000000000000000000000000091600090602001612284565b60408051601f19818403018152908290526001546008546315746b7360e31b84529193506000926001600160a01b039091169163aba35b9891611804918591879190600401612301565b6020604051808303816000875af1158015611823573d6000803e3d6000fd5b505050506040513d601f19601f82011682018060405250810190611847919061232c565b9050801561186857604051634158dfcd60e01b815260040160405180910390fd5b600154600954604080516306fdde0360e01b815290516000938a936001600160a01b039182169390821692918516916306fdde039160048082019289929091908290030181865afa1580156118c1573d6000803e3d6000fd5b505050506040513d6000823e601f3d908101601f191682016040526118e991908101906121ea565b8a6001600160a01b03166395d89b416040518163ffffffff1660e01b8152600401600060405180830381865afa158015611927573d6000803e3d6000fd5b505050506040513d6000823e601f3d908101601f1916820160405261194f91908101906121ea565b600a5460405161198b9695949392917f000000000000000000000000000000000000000000000000000000000000000091600090602001612284565b60408051601f1981840301815290829052600154600b546315746b7360e31b84529193506000926001600160a01b039091169163aba35b98916119d5918591879190600401612301565b6020604051808303816000875af11580156119f4573d6000803e3d6000fd5b505050506040513d601f19601f82011682018060405250810190611a18919061232c565b90508015611a385760405162616fef60e61b815260040160405180910390fd5b6001546040516318ffa3fd60e11b81526001600160a01b03909116906331ff47fa90611a68908c90600401611d00565b602060405180830381865afa158015611a85573d6000803e3d6000fd5b505050506040513d601f19601f82011682018060405250810190611aa99190612115565b6001546040516318ffa3fd60e11b8152919c506001600160a01b0316906331ff47fa90611ada908b90600401611d00565b602060405180830381865afa158015611af7573d6000803e3d6000fd5b505050506040513d601f19601f82011682018060405250810190611b1b9190612115565b600180546040516318c882a560e01b81526001600160a01b0380851660048301526024820193909352929c5016906318c882a5906044016020604051808303816000875af1158015611b71573d6000803e3d6000fd5b505050506040513d601f19601f82011682018060405250810190611b9591906124f5565b506001600160a01b038d166000908152600c602090815260408083208f8452909152902080546002919060ff19166001830217905550876001600160a01b0316896001600160a01b03167f8d522d548d59788ba6bc4204397b0769e9d1f34961a0a60bdade4c473f30e91460405160405180910390a35050505050505050509250929050565b3360009081526020819052604081205460ff16611c4a5760405162461bcd60e51b81526004016104c39061207f565b600080845160208601878987f195945050505050565b6000604051733d602d80600a3d3981f3363d3d373d3d3d363d7360601b81528360601b60148201526e5af43d82803e903d91602b57fd5bf360881b6028820152826037826000f59150506001600160a01b038116611cfa5760405162461bcd60e51b8152602060048201526017602482015276115490cc4c4d8dce8818dc99585d194c8819985a5b1959604a1b60448201526064016104c3565b92915050565b6001600160a01b0391909116815260200190565b6001600160a01b0381168114611d2957600080fd5b50565b8015158114611d2957600080fd5b60008060408385031215611d4d57600080fd5b8235611d5881611d14565b91506020830135611d6881611d2c565b809150509250929050565b6000808284036080811215611d8757600080fd5b833592506060601f1982011215611d9d57600080fd5b506020830190509250929050565b60008060408385031215611dbe57600080fd5b8235611dc981611d14565b91506020830135611d6881611d14565b600080600060608486031215611dee57600080fd5b8335611df981611d14565b9250602084013591506040840135611e1081611d14565b809150509250925092565b600080600080600060808688031215611e3357600080fd5b853567ffffffffffffffff80821115611e4b57600080fd5b818801915088601f830112611e5f57600080fd5b813581811115611e6e57600080fd5b896020828501011115611e8057600080fd5b602092830197509550508601359250604086013591506060860135611ea481611d14565b809150509295509295909350565b60008060408385031215611ec557600080fd5b8235611ed081611d14565b946020939093013593505050565b6001600160a01b0392831681529116602082015260400190565b634e487b7160e01b600052604160045260246000fd5b604051601f8201601f1916810167ffffffffffffffff81118282101715611f3757611f37611ef8565b604052919050565b600067ffffffffffffffff821115611f5957611f59611ef8565b50601f01601f191660200190565b60008060008060808587031215611f7d57600080fd5b8435611f8881611d14565b935060208501359250604085013567ffffffffffffffff811115611fab57600080fd5b8501601f81018713611fbc57600080fd5b8035611fcf611fca82611f3f565b611f0e565b818152886020838501011115611fe457600080fd5b81602084016020830137600091810160200191909152949793965093946060013593505050565b60006020828403121561201d57600080fd5b813561202881611d14565b9392505050565b634e487b7160e01b600052602160045260246000fd5b604081016003841061206757634e487b7160e01b600052602160045260246000fd5b9281526001600160a01b039190911660209091015290565b602080825260099082015268155395149554d5115160ba1b604082015260600190565b81356120ad81611d14565b81546001600160a01b0319166001600160a01b039190911617815560208201356001820155604090910135600290910155565b6060810182356120ef81611d14565b6001600160a01b0316825260208381013590830152604092830135929091019190915290565b60006020828403121561212757600080fd5b815161202881611d14565b634e487b7160e01b600052603260045260246000fd5b600081518084526020808501945080840160005b838110156121815781516001600160a01b03168752958201959082019060010161215c565b509495945050505050565b60408152600061219f6040830185612148565b82810360208401526121b18185612148565b95945050505050565b60005b838110156121d55781810151838201526020016121bd565b838111156121e4576000848401525b50505050565b6000602082840312156121fc57600080fd5b815167ffffffffffffffff81111561221357600080fd5b8201601f8101841361222457600080fd5b8051612232611fca82611f3f565b81815285602083850101111561224757600080fd5b6121b18260208301602086016121ba565b600081518084526122708160208601602086016121ba565b601f01601f19169290920160200192915050565b6001600160a01b03898116825288811660208301528781166040830152610120606083018190526000916122ba8483018a612258565b915083820360808501526122ce8289612258565b961660a0840152505080840360c08201526000845260e081019290925260ff166101009091015260200195945050505050565b831515815260606020820152600061231c6060830185612258565b9050826040830152949350505050565b60006020828403121561233e57600080fd5b5051919050565b6000806040838503121561235857600080fd5b825161236381611d2c565b6020939093015192949293505050565b60a08152600061238660a0830188612148565b82810360208401526123988188612148565b6001600160a01b039687166040850152949095166060830152509015156080909101529392505050565b81835281816020850137506000828201602090810191909152601f909101601f19169091010190565b60c0815260006123ff60c08301898b6123c2565b6001600160a01b0397881660208401529515156040830152506060810193909352608083019190915290921660a09092019190915292915050565b6000806040838503121561244d57600080fd5b825191506020830151611d6881611d14565b60a08152600061247360a08301888a6123c2565b6001600160a01b03969096166020830152506040810193909352606083019190915260809091015292915050565b600080600080600080600060e0888a0312156124bc57600080fd5b5050855160208701516040880151606089015160808a015160a08b015160c0909b0151949c939b50919990985090965094509092509050565b60006020828403121561250757600080fd5b815161202881611d2c56fea264697066735822122047dcf5b14d289ed22b761510336bdc5c24914a1cc1c8b515f792e37643a374d164736f6c634300080b0033608060405234801561001057600080fd5b503360008181526020818152604091829020805460ff19166001908117909155915191825282917fe95aec380cae16330d146d5499ef7db6f3657e477104a733e771bc09e500d986910160405180910390a25061053c806100726000396000f3fe608060405234801561001057600080fd5b506004361061006d5760003560e01c80631393916a146100725780633ecf06bd1461008757806366331bba1461009a57806396d64879146100b7578063aea91078146100da578063e5711ffc146100fb578063fc57d4df1461013c575b600080fd5b610085610080366004610424565b61014f565b005b610085610095366004610462565b6101e4565b6100a2600181565b60405190151581526020015b60405180910390f35b6100a26100c5366004610490565b60006020819052908152604090205460ff1681565b6100ed6100e8366004610490565b610241565b6040519081526020016100ae565b610124610109366004610490565b6001602052600090815260409020546001600160a01b031681565b6040516001600160a01b0390911681526020016100ae565b6100ed61014a366004610490565b610252565b3360009081526020819052604090205460ff166101875760405162461bcd60e51b815260040161017e906104ad565b60405180910390fd5b6001600160a01b03821660008181526020818152604091829020805460ff191685151590811790915591519182527fe95aec380cae16330d146d5499ef7db6f3657e477104a733e771bc09e500d986910160405180910390a25050565b3360009081526020819052604090205460ff166102135760405162461bcd60e51b815260040161017e906104ad565b6001600160a01b03918216600090815260016020526040902080546001600160a01b03191691909216179055565b600061024c826102c9565b92915050565b600080826001600160a01b0316636f307dc36040518163ffffffff1660e01b8152600401602060405180830381865afa158015610293573d6000803e3d6000fd5b505050506040513d601f19601f820116820180604052508101906102b791906104d0565b90506102c2816102c9565b9392505050565b6001600160a01b038082166000908152600160205260408120549091168061030457604051635048c2af60e11b815260040160405180910390fd5b6000816001600160a01b031663226778496040518163ffffffff1660e01b8152600401602060405180830381865afa158015610344573d6000803e3d6000fd5b505050506040513d601f19601f8201168201806040525081019061036891906104ed565b90506103d6826001600160a01b031663468f02d26040518163ffffffff1660e01b8152600401602060405180830381865afa1580156103ab573d6000803e3d6000fd5b505050506040513d601f19601f820116820180604052508101906103cf91906104ed565b82906103de565b949350505050565b60006102c28383670de0b6b3a7640000818302838104831484151760011661040557600080fd5b0492915050565b6001600160a01b038116811461042157600080fd5b50565b6000806040838503121561043757600080fd5b82356104428161040c565b91506020830135801515811461045757600080fd5b809150509250929050565b6000806040838503121561047557600080fd5b82356104808161040c565b915060208301356104578161040c565b6000602082840312156104a257600080fd5b81356102c28161040c565b602080825260099082015268155395149554d5115160ba1b604082015260600190565b6000602082840312156104e257600080fd5b81516102c28161040c565b6000602082840312156104ff57600080fd5b505191905056fea26469706673582212201f3ac5a5e722130dd421feadf08591df9fdb4bba3fb0e2bdabf16ee85f5038bd64736f6c634300080b0033608060405234801561001057600080fd5b503360008181526020818152604091829020805460ff19166001908117909155915191825282917fe95aec380cae16330d146d5499ef7db6f3657e477104a733e771bc09e500d986910160405180910390a2506729a2241af62c0000600255614d58600355610b0d806100846000396000f3fe608060405234801561001057600080fd5b50600436106100a95760003560e01c806396d648791161007157806396d6487914610119578063a4063dbc1461013c578063aea910781461017d578063b371e4ce1461019e578063f6207326146101a7578063fc57d4df146101b057600080fd5b80631393916a146100ae5780632b7f9ab5146100c3578063501f34ce146100d65780635e657adf146100e957806366331bba146100fc575b600080fd5b6100c16100bc36600461080e565b6101c3565b005b6100c16100d136600461084c565b610258565b6100c16100e436600461087a565b6102b5565b6100c16100f736600461087a565b6102e9565b610104600181565b60405190151581526020015b60405180910390f35b610104610127366004610893565b60006020819052908152604090205460ff1681565b61016561014a366004610893565b6001602052600090815260409020546001600160a01b031681565b6040516001600160a01b039091168152602001610110565b61019061018b366004610893565b61031d565b604051908152602001610110565b61019060025481565b61019060035481565b6101906101be366004610893565b61032e565b3360009081526020819052604090205460ff166101fb5760405162461bcd60e51b81526004016101f2906108b0565b60405180910390fd5b6001600160a01b03821660008181526020818152604091829020805460ff191685151590811790915591519182527fe95aec380cae16330d146d5499ef7db6f3657e477104a733e771bc09e500d986910160405180910390a25050565b3360009081526020819052604090205460ff166102875760405162461bcd60e51b81526004016101f2906108b0565b6001600160a01b03918216600090815260016020526040902080546001600160a01b03191691909216179055565b3360009081526020819052604090205460ff166102e45760405162461bcd60e51b81526004016101f2906108b0565b600255565b3360009081526020819052604090205460ff166103185760405162461bcd60e51b81526004016101f2906108b0565b600355565b600061032882610395565b92915050565b6000610328826001600160a01b0316636f307dc36040518163ffffffff1660e01b8152600401602060405180830381865afa158015610371573d6000803e3d6000fd5b505050506040513d601f19601f8201168201806040525081019061039591906108d3565b6001600160a01b03808216600090815260016020526040812054909116806103d057604051633c67586360e01b815260040160405180910390fd5b6000816001600160a01b03166360d1507c6001846001600160a01b031663b48b5b406040518163ffffffff1660e01b8152600401602060405180830381865afa158015610421573d6000803e3d6000fd5b505050506040513d601f19601f8201168201806040525081019061044591906108f0565b61044f9190610909565b6040518263ffffffff1660e01b815260040161046d91815260200190565b60e060405180830381865afa15801561048a573d6000803e3d6000fd5b505050506040513d601f19601f820116820180604052508101906104ae919061092e565b965050505050505080600014156104d85760405163370aafe360e11b815260040160405180910390fd5b604080516001808252818301909252600091816020015b6105146040805160608101909152806000815260200160008152602001600081525090565b8152602001906001900390816104ef57905050604080516060810190915290915080600181526020016003548152602001610e108152508160008151811061055e5761055e610998565b60200260200101819052506000836001600160a01b0316631dccd830836040518263ffffffff1660e01b815260040161059791906109ae565b600060405180830381865afa1580156105b4573d6000803e3d6000fd5b505050506040513d6000823e601f3d908101601f191682016040526105dc9190810190610a25565b90506000816000815181106105f3576105f3610998565b6020026020010151905060025481111561060c57506002545b6000856001600160a01b03166303eadcfc6040518163ffffffff1660e01b8152600401602060405180830381865afa15801561064c573d6000803e3d6000fd5b505050506040513d601f19601f8201168201806040525081019061067091906108d3565b6001600160a01b031663d4b839926040518163ffffffff1660e01b8152600401602060405180830381865afa1580156106ad573d6000803e3d6000fd5b505050506040513d601f19601f820116820180604052508101906106d191906108d3565b6040516315d5220f60e31b81526001600160a01b03821660048201529091506107af90339063aea9107890602401602060405180830381865afa15801561071c573d6000803e3d6000fd5b505050506040513d601f19601f8201168201806040525081019061074091906108f0565b60405163f3f586e560e01b8152600481018590526001600160a01b0389169063f3f586e590602401602060405180830381865afa158015610785573d6000803e3d6000fd5b505050506040513d601f19601f820116820180604052508101906107a991906108f0565b906107bb565b98975050505050505050565b60006107d08383670de0b6b3a76400006107d7565b9392505050565b8282028115158415858304851417166107ef57600080fd5b0492915050565b6001600160a01b038116811461080b57600080fd5b50565b6000806040838503121561082157600080fd5b823561082c816107f6565b91506020830135801515811461084157600080fd5b809150509250929050565b6000806040838503121561085f57600080fd5b823561086a816107f6565b91506020830135610841816107f6565b60006020828403121561088c57600080fd5b5035919050565b6000602082840312156108a557600080fd5b81356107d0816107f6565b602080825260099082015268155395149554d5115160ba1b604082015260600190565b6000602082840312156108e557600080fd5b81516107d0816107f6565b60006020828403121561090257600080fd5b5051919050565b60008282101561092957634e487b7160e01b600052601160045260246000fd5b500390565b600080600080600080600060e0888a03121561094957600080fd5b5050855160208701516040880151606089015160808a015160a08b015160c0909b0151949c939b50919990985090965094509092509050565b634e487b7160e01b600052604160045260246000fd5b634e487b7160e01b600052603260045260246000fd5b60208082528251828201819052600091906040908185019086840185805b83811015610a175782518051600381106109f457634e487b7160e01b84526021600452602484fd5b8652808801518887015286015186860152606090940193918601916001016109cc565b509298975050505050505050565b60006020808385031215610a3857600080fd5b825167ffffffffffffffff80821115610a5057600080fd5b818501915085601f830112610a6457600080fd5b815181811115610a7657610a76610982565b8060051b604051601f19603f83011681018181108582111715610a9b57610a9b610982565b604052918252848201925083810185019188831115610ab957600080fd5b938501935b828510156107af57845184529385019392850192610abe56fea2646970667358221220a5fc3d29b70f4abc4136d592420d22755069ad2db4fd52835e58f7ceade106ec64736f6c634300080b0033608060405234801561001057600080fd5b503360008181526020818152604091829020805460ff19166001908117909155915191825282917fe95aec380cae16330d146d5499ef7db6f3657e477104a733e771bc09e500d986910160405180910390a250614d586002556105af806100786000396000f3fe608060405234801561001057600080fd5b50600436106100785760003560e01c80631393916a1461007d5780635e657adf1461009257806366331bba146100a557806396d64879146100c2578063a4063dbc146100e5578063aea9107814610126578063f620732614610147578063fc57d4df14610150575b600080fd5b61009061008b3660046104ac565b610163565b005b6100906100a03660046104ea565b6101f8565b6100ad600181565b60405190151581526020015b60405180910390f35b6100ad6100d0366004610503565b60006020819052908152604090205460ff1681565b61010e6100f3366004610503565b6001602052600090815260409020546001600160a01b031681565b6040516001600160a01b0390911681526020016100b9565b610139610134366004610503565b61022c565b6040519081526020016100b9565b61013960025481565b61013961015e366004610503565b61023d565b3360009081526020819052604090205460ff1661019b5760405162461bcd60e51b815260040161019290610520565b60405180910390fd5b6001600160a01b03821660008181526020818152604091829020805460ff191685151590811790915591519182527fe95aec380cae16330d146d5499ef7db6f3657e477104a733e771bc09e500d986910160405180910390a25050565b3360009081526020819052604090205460ff166102275760405162461bcd60e51b815260040161019290610520565b600255565b6000610237826102a4565b92915050565b6000610237826001600160a01b0316636f307dc36040518163ffffffff1660e01b8152600401602060405180830381865afa158015610280573d6000803e3d6000fd5b505050506040513d601f19601f820116820180604052508101906102a49190610543565b6000808290506000816001600160a01b03166303eadcfc6040518163ffffffff1660e01b8152600401602060405180830381865afa1580156102ea573d6000803e3d6000fd5b505050506040513d601f19601f8201168201806040525081019061030e9190610543565b6001600160a01b031663d4b839926040518163ffffffff1660e01b8152600401602060405180830381865afa15801561034b573d6000803e3d6000fd5b505050506040513d601f19601f8201168201806040525081019061036f9190610543565b6040516315d5220f60e31b81526001600160a01b038216600482015290915061045190339063aea9107890602401602060405180830381865afa1580156103ba573d6000803e3d6000fd5b505050506040513d601f19601f820116820180604052508101906103de9190610560565b600254604051637259d21760e01b815260048101919091526001600160a01b03851690637259d21790602401602060405180830381865afa158015610427573d6000803e3d6000fd5b505050506040513d601f19601f8201168201806040525081019061044b9190610560565b90610459565b949350505050565b600061046e8383670de0b6b3a7640000610475565b9392505050565b82820281151584158583048514171661048d57600080fd5b0492915050565b6001600160a01b03811681146104a957600080fd5b50565b600080604083850312156104bf57600080fd5b82356104ca81610494565b9150602083013580151581146104df57600080fd5b809150509250929050565b6000602082840312156104fc57600080fd5b5035919050565b60006020828403121561051557600080fd5b813561046e81610494565b602080825260099082015268155395149554d5115160ba1b604082015260600190565b60006020828403121561055557600080fd5b815161046e81610494565b60006020828403121561057257600080fd5b505191905056fea2646970667358221220b4eed13a61347af4e315445d425bdf8137570b6565e170fd1a023a0932a39edc64736f6c634300080b0033608060405234801561001057600080fd5b503360008181526020818152604091829020805460ff19166001908117909155915191825282917fe95aec380cae16330d146d5499ef7db6f3657e477104a733e771bc09e500d986910160405180910390a25061048d806100726000396000f3fe608060405234801561001057600080fd5b506004361061006d5760003560e01c806311b04cfa146100725780631393916a1461008757806366331bba1461009a57806396d64879146100b7578063aea91078146100da578063e5711ffc146100fb578063fc57d4df1461013c575b600080fd5b610085610080366004610375565b61014f565b005b6100856100953660046103ae565b6101b5565b6100a2600181565b60405190151581526020015b60405180910390f35b6100a26100c53660046103e1565b60006020819052908152604090205460ff1681565b6100ed6100e83660046103e1565b610241565b6040519081526020016100ae565b6101246101093660046103e1565b6001602052600090815260409020546001600160a01b031681565b6040516001600160a01b0390911681526020016100ae565b6100ed61014a3660046103e1565b610252565b3360009081526020819052604090205460ff166101875760405162461bcd60e51b815260040161017e906103fe565b60405180910390fd5b6001600160a01b03918216600090815260016020526040902080546001600160a01b03191691909216179055565b3360009081526020819052604090205460ff166101e45760405162461bcd60e51b815260040161017e906103fe565b6001600160a01b03821660008181526020818152604091829020805460ff191685151590811790915591519182527fe95aec380cae16330d146d5499ef7db6f3657e477104a733e771bc09e500d986910160405180910390a25050565b600061024c826102b9565b92915050565b600061024c826001600160a01b0316636f307dc36040518163ffffffff1660e01b8152600401602060405180830381865afa158015610295573d6000803e3d6000fd5b505050506040513d601f19601f820116820180604052508101906102b99190610421565b6001600160a01b03808216600090815260016020526040812054909116806102f457604051635048c2af60e11b815260040160405180910390fd5b806001600160a01b031663468f02d26040518163ffffffff1660e01b8152600401602060405180830381865afa158015610332573d6000803e3d6000fd5b505050506040513d601f19601f82011682018060405250810190610356919061043e565b9392505050565b6001600160a01b038116811461037257600080fd5b50565b6000806040838503121561038857600080fd5b82356103938161035d565b915060208301356103a38161035d565b809150509250929050565b600080604083850312156103c157600080fd5b82356103cc8161035d565b9150602083013580151581146103a357600080fd5b6000602082840312156103f357600080fd5b81356103568161035d565b602080825260099082015268155395149554d5115160ba1b604082015260600190565b60006020828403121561043357600080fd5b81516103568161035d565b60006020828403121561045057600080fd5b505191905056fea264697066735822122048057be46c1926315d64e330ac60cb056ce1cf0fab113c87a7d825bc5a1fe28964736f6c634300080b0033",
  "devdoc": {
    "kind": "dev",
    "methods": {
      "addSeries(address,uint256)": {
        "details": "this can only be done once the yield space pool has filled its buffer and has a TWAP"
      },
      "queueSeries(address,uint256,address)": {
        "details": "called by the Periphery, which will know which pool address to set for this Series"
      }
    },
    "title": "Fuse Pool Manager",
    "version": 1
  },
  "userdoc": {
    "kind": "user",
    "methods": {
      "addSeries(address,uint256)": {
        "notice": "open method to add queued Principal Tokens and LPShares to Fuse pool"
      },
      "cERC20Impl()": {
        "notice": "Implementation of Fuse's cERC20"
      },
      "comptroller()": {
        "notice": "Fuse comptroller for the Sense pool"
      },
      "comptrollerImpl()": {
        "notice": "Implementation of Fuse's comptroller"
      },
      "divider()": {
        "notice": "Sense core Divider address"
      },
      "fuseDirectory()": {
        "notice": "Fuse's pool directory"
      },
      "lpOracle()": {
        "notice": "Sense oracle for Space LP Shares"
      },
      "masterOracle()": {
        "notice": "Master oracle for Sense's assets deployed on Fuse"
      },
      "oracleImpl()": {
        "notice": "Implementation of Fuse's master oracle that routes to individual asset oracles"
      },
      "ptOracle()": {
        "notice": "Sense oracle for Sense Principal Tokens"
      },
      "queueSeries(address,uint256,address)": {
        "notice": "queues a set of (Principal Tokens, LPShare) for a Fuse pool to be deployed once the TWAP is ready"
      },
      "sSeries(address,uint256)": {
        "notice": "Series Pools: adapter -> maturity -> (series status (pt/lp shares), AMM pool)"
      },
      "targetOracle()": {
        "notice": "Sense oracle for SEnse Targets"
      },
      "targetParams()": {
        "notice": "Fuse param config"
      },
      "underlyingOracle()": {
        "notice": "Sense oracle for Underlying assets"
      }
    },
    "notice": "Consolidated Fuse interactions",
    "version": 1
  },
  "storageLayout": {
    "storage": [
      {
        "astId": 14705,
        "contract": "@sense-finance/v1-fuse/src/PoolManager.sol:PoolManager",
        "label": "isTrusted",
        "offset": 0,
        "slot": "0",
        "type": "t_mapping(t_address,t_bool)"
      },
      {
        "astId": 12890,
        "contract": "@sense-finance/v1-fuse/src/PoolManager.sol:PoolManager",
        "label": "comptroller",
        "offset": 0,
        "slot": "1",
        "type": "t_address"
      },
      {
        "astId": 12893,
        "contract": "@sense-finance/v1-fuse/src/PoolManager.sol:PoolManager",
        "label": "masterOracle",
        "offset": 0,
        "slot": "2",
        "type": "t_address"
      },
      {
        "astId": 12897,
        "contract": "@sense-finance/v1-fuse/src/PoolManager.sol:PoolManager",
        "label": "targetParams",
        "offset": 0,
        "slot": "3",
        "type": "t_struct(AssetParams)12922_storage"
      },
      {
        "astId": 12900,
        "contract": "@sense-finance/v1-fuse/src/PoolManager.sol:PoolManager",
        "label": "ptParams",
        "offset": 0,
        "slot": "6",
        "type": "t_struct(AssetParams)12922_storage"
      },
      {
        "astId": 12903,
        "contract": "@sense-finance/v1-fuse/src/PoolManager.sol:PoolManager",
        "label": "lpTokenParams",
        "offset": 0,
        "slot": "9",
        "type": "t_struct(AssetParams)12922_storage"
      },
      {
        "astId": 12911,
        "contract": "@sense-finance/v1-fuse/src/PoolManager.sol:PoolManager",
        "label": "sSeries",
        "offset": 0,
        "slot": "12",
        "type": "t_mapping(t_address,t_mapping(t_uint256,t_struct(Series)12928_storage))"
      }
    ],
    "types": {
      "t_address": {
        "encoding": "inplace",
        "label": "address",
        "numberOfBytes": "20"
      },
      "t_bool": {
        "encoding": "inplace",
        "label": "bool",
        "numberOfBytes": "1"
      },
      "t_enum(SeriesStatus)12915": {
        "encoding": "inplace",
        "label": "enum PoolManager.SeriesStatus",
        "numberOfBytes": "1"
      },
      "t_mapping(t_address,t_bool)": {
        "encoding": "mapping",
        "key": "t_address",
        "label": "mapping(address => bool)",
        "numberOfBytes": "32",
        "value": "t_bool"
      },
      "t_mapping(t_address,t_mapping(t_uint256,t_struct(Series)12928_storage))": {
        "encoding": "mapping",
        "key": "t_address",
        "label": "mapping(address => mapping(uint256 => struct PoolManager.Series))",
        "numberOfBytes": "32",
        "value": "t_mapping(t_uint256,t_struct(Series)12928_storage)"
      },
      "t_mapping(t_uint256,t_struct(Series)12928_storage)": {
        "encoding": "mapping",
        "key": "t_uint256",
        "label": "mapping(uint256 => struct PoolManager.Series)",
        "numberOfBytes": "32",
        "value": "t_struct(Series)12928_storage"
      },
      "t_struct(AssetParams)12922_storage": {
        "encoding": "inplace",
        "label": "struct PoolManager.AssetParams",
        "members": [
          {
            "astId": 12917,
            "contract": "@sense-finance/v1-fuse/src/PoolManager.sol:PoolManager",
            "label": "irModel",
            "offset": 0,
            "slot": "0",
            "type": "t_address"
          },
          {
            "astId": 12919,
            "contract": "@sense-finance/v1-fuse/src/PoolManager.sol:PoolManager",
            "label": "reserveFactor",
            "offset": 0,
            "slot": "1",
            "type": "t_uint256"
          },
          {
            "astId": 12921,
            "contract": "@sense-finance/v1-fuse/src/PoolManager.sol:PoolManager",
            "label": "collateralFactor",
            "offset": 0,
            "slot": "2",
            "type": "t_uint256"
          }
        ],
        "numberOfBytes": "96"
      },
      "t_struct(Series)12928_storage": {
        "encoding": "inplace",
        "label": "struct PoolManager.Series",
        "members": [
          {
            "astId": 12925,
            "contract": "@sense-finance/v1-fuse/src/PoolManager.sol:PoolManager",
            "label": "status",
            "offset": 0,
            "slot": "0",
            "type": "t_enum(SeriesStatus)12915"
          },
          {
            "astId": 12927,
            "contract": "@sense-finance/v1-fuse/src/PoolManager.sol:PoolManager",
            "label": "pool",
            "offset": 1,
            "slot": "0",
            "type": "t_address"
          }
        ],
        "numberOfBytes": "32"
      },
      "t_uint256": {
        "encoding": "inplace",
        "label": "uint256",
        "numberOfBytes": "32"
      }
    }
  }
}