{
  "address": "0xafe465C1cE205a06AB0D8203aE514C6082eBD432",
  "abi": [
    {
      "inputs": [],
      "stateMutability": "nonpayable",
      "type": "constructor"
    },
    {
      "inputs": [],
      "name": "AlreadyInitialized",
      "type": "error"
    },
    {
      "inputs": [],
      "name": "OnlyDivider",
      "type": "error"
    },
    {
      "anonymous": false,
      "inputs": [
        {
          "indexed": true,
          "internalType": "address",
          "name": "user",
          "type": "address"
        },
        {
          "indexed": false,
          "internalType": "bool",
          "name": "trusted",
          "type": "bool"
        }
      ],
      "name": "UserTrustUpdated",
      "type": "event"
    },
    {
      "inputs": [
        {
          "internalType": "address",
          "name": "adapter",
          "type": "address"
        },
        {
          "internalType": "uint248",
          "name": "id",
          "type": "uint248"
        },
        {
          "internalType": "uint256",
          "name": "maturity",
          "type": "uint256"
        }
      ],
      "name": "deploy",
      "outputs": [
        {
          "internalType": "address",
          "name": "pt",
          "type": "address"
        },
        {
          "internalType": "address",
          "name": "yt",
          "type": "address"
        }
      ],
      "stateMutability": "nonpayable",
      "type": "function"
    },
    {
      "inputs": [],
      "name": "divider",
      "outputs": [
        {
          "internalType": "address",
          "name": "",
          "type": "address"
        }
      ],
      "stateMutability": "view",
      "type": "function"
    },
    {
      "inputs": [
        {
          "internalType": "address",
          "name": "_divider",
          "type": "address"
        }
      ],
      "name": "init",
      "outputs": [],
      "stateMutability": "nonpayable",
      "type": "function"
    },
    {
      "inputs": [
        {
          "internalType": "address",
          "name": "",
          "type": "address"
        }
      ],
      "name": "isTrusted",
      "outputs": [
        {
          "internalType": "bool",
          "name": "",
          "type": "bool"
        }
      ],
      "stateMutability": "view",
      "type": "function"
    },
    {
      "inputs": [
        {
          "internalType": "address",
          "name": "user",
          "type": "address"
        },
        {
          "internalType": "bool",
          "name": "trusted",
          "type": "bool"
        }
      ],
      "name": "setIsTrusted",
      "outputs": [],
      "stateMutability": "nonpayable",
      "type": "function"
    }
  ],
  "transactionHash": "0x6e40579bd539df2fb75aa290ebdd0ac611587888a8e36816024654d56d0c3420",
  "args": [],
  "numDeployments": 1,
  "solcInputHash": "a62402fa1f1d1283a4a3002b020572e4",
  "bytecode": "0x608060405234801561001057600080fd5b503360008181526020818152604091829020805460ff19166001908117909155915191825282917fe95aec380cae16330d146d5499ef7db6f3657e477104a733e771bc09e500d986910160405180910390a250613cc9806100726000396000f3fe60806040523480156200001157600080fd5b50600436106200005e5760003560e01c80631393916a146200006357806319ab453c146200007c578063378efa37146200009357806396d6487914620000c4578063afd3adb014620000fb575b600080fd5b6200007a6200007436600462000bf1565b62000133565b005b6200007a6200008d36600462000c33565b620001cb565b600154620000a7906001600160a01b031681565b6040516001600160a01b0390911681526020015b60405180910390f35b620000ea620000d536600462000c33565b60006020819052908152604090205460ff1681565b6040519015158152602001620000bb565b620001126200010c36600462000c5a565b62000249565b604080516001600160a01b03938416815292909116602083015201620000bb565b3360009081526020819052604090205460ff166200016e5760405162461bcd60e51b8152600401620001659062000cab565b60405180910390fd5b6001600160a01b03821660008181526020818152604091829020805460ff191685151590811790915591519182527fe95aec380cae16330d146d5499ef7db6f3657e477104a733e771bc09e500d986910160405180910390a25050565b3360009081526020819052604090205460ff16620001fd5760405162461bcd60e51b8152600401620001659062000cab565b6001546001600160a01b031615620002275760405162dc149f60e41b815260040160405180910390fd5b600180546001600160a01b0319166001600160a01b0392909216919091179055565b60015460009081906001600160a01b031633146200027a57604051638604e36160e01b815260040160405180910390fd5b6000856001600160a01b031663d4b839926040518163ffffffff1660e01b8152600401602060405180830381865afa158015620002bb573d6000803e3d6000fd5b505050506040513d601f19601f82011682018060405250810190620002e1919062000cce565b90506000816001600160a01b031663313ce5676040518163ffffffff1660e01b8152600401602060405180830381865afa15801562000324573d6000803e3d6000fd5b505050506040513d601f19601f820116820180604052508101906200034a919062000cee565b90506000826001600160a01b03166395d89b416040518163ffffffff1660e01b8152600401600060405180830381865afa1580156200038d573d6000803e3d6000fd5b505050506040513d6000823e601f3d908101601f19168201604052620003b7919081019062000d5c565b90506000806000620003c98962000567565b9250925092506000620003dc8a62000611565b90506000848484604051602001620003f79392919062000e15565b604051602081830303815290604052905060006200041e8d6001600160f81b0316620008a1565b9050828782604051602001620004379392919062000e75565b6040516020818303038152906040528783836040516020016200045d9392919062000ef2565b60408051601f198184030181529082905260015490918b916001600160a01b0316906200048a9062000bbc565b62000499949392919062000f8f565b604051809103906000f080158015620004b6573d6000803e3d6000fd5b509a508d8c848984604051602001620004d29392919062000fdd565b604051602081830303815290604052898585604051602001620004f89392919062001056565b60408051601f198184030181529082905260015490918d916001600160a01b031690620005259062000bca565b620005369695949392919062001076565b604051809103906000f08015801562000553573d6000803e3d6000fd5b509950505050505050505050935093915050565b606080606060008060006200057c87620009e6565b9250925092506200058d81620008a1565b95506200059a82620008a1565b9450620005a783620008a1565b9350600a811015620005d85785604051602001620005c69190620010d3565b60405160208183030381529060405295505b600a821015620006075784604051602001620005f59190620010d3565b60405160208183030381529060405294505b5050509193909250565b604080516101c08101825260036101808201818152622530b760e91b6101a0840152825282518084018452818152622332b160e91b60208281019190915280840191909152835180850185528281526226b0b960e91b8183015283850152835180850185528281526220b83960e91b8183015260608481019190915284518086018652838152624d617960e81b818401526080850152845180860186526004808252634a756e6560e01b8285015260a086019190915285518087018752818152634a756c7960e01b8185015260c0860152855180870187528481526241756760e81b8185015260e0860152855180870187529081526314d95c1d60e21b81840152610100850152845180860186528381526213d8dd60ea1b8184015261012085015284518086018652838152622737bb60e91b8184015261014085015284518086019095529184526244656360e81b90840152610160820192909252600080806200077c86620009e6565b91945092509050600062000792600a8362001114565b6040805180820190915260028152610e8d60f31b6020820152909150600b831080620007be5750601483115b1562000833578160011415620007e957506040805180820190915260028152611cdd60f21b60208201525b81600214156200080e57506040805180820190915260028152611b9960f21b60208201525b81600314156200083357506040805180820190915260028152611c9960f21b60208201525b6200083e83620008a1565b81876200084d60018862001141565b600c81106200086057620008606200115b565b60200201516200087088620008a1565b60405160200162000885949392919062001171565b6040516020818303038152906040529650505050505050919050565b606081620008c65750506040805180820190915260018152600360fc1b602082015290565b8160005b8115620008f65780620008dd81620011e8565b9150620008ee9050600a8362001206565b9150620008ca565b60008167ffffffffffffffff81111562000914576200091462000d13565b6040519080825280601f01601f1916602001820160405280156200093f576020820181803683370190505b509050815b8515620009dd576200095860018262001141565b9050600062000969600a8862001206565b6200097690600a6200121d565b62000982908862001141565b6200098f9060306200123f565b905060008160f81b905080848481518110620009af57620009af6200115b565b60200101906001600160f81b031916908160001a905350620009d3600a8962001206565b9750505062000944565b50949350505050565b6000808062000a03620009fd620151808662001206565b62000a10565b9196909550909350915050565b60008080838162253d8c62000a298362010bd962001267565b62000a35919062001267565b9050600062023ab162000a4a836004620012ae565b62000a5691906200133f565b9050600462000a698262023ab1620012ae565b62000a7690600362001267565b62000a8291906200133f565b62000a8e908362001373565b9150600062164b0962000aa384600162001267565b62000ab190610fa0620012ae565b62000abd91906200133f565b9050600462000acf826105b5620012ae565b62000adb91906200133f565b62000ae7908462001373565b62000af490601f62001267565b9250600061098f62000b08856050620012ae565b62000b1491906200133f565b90506000605062000b288361098f620012ae565b62000b3491906200133f565b62000b40908662001373565b905062000b4f600b836200133f565b945062000b5e85600c620012ae565b62000b6b83600262001267565b62000b77919062001373565b9150848362000b8860318762001373565b62000b95906064620012ae565b62000ba1919062001267565b62000bad919062001267565b9a919950975095505050505050565b61122b80620013b983390190565b6116b080620025e483390190565b6001600160a01b038116811462000bee57600080fd5b50565b6000806040838503121562000c0557600080fd5b823562000c128162000bd8565b91506020830135801515811462000c2857600080fd5b809150509250929050565b60006020828403121562000c4657600080fd5b813562000c538162000bd8565b9392505050565b60008060006060848603121562000c7057600080fd5b833562000c7d8162000bd8565b925060208401356001600160f81b038116811462000c9a57600080fd5b929592945050506040919091013590565b602080825260099082015268155395149554d5115160ba1b604082015260600190565b60006020828403121562000ce157600080fd5b815162000c538162000bd8565b60006020828403121562000d0157600080fd5b815160ff8116811462000c5357600080fd5b634e487b7160e01b600052604160045260246000fd5b60005b8381101562000d4657818101518382015260200162000d2c565b8381111562000d56576000848401525b50505050565b60006020828403121562000d6f57600080fd5b815167ffffffffffffffff8082111562000d8857600080fd5b818401915084601f83011262000d9d57600080fd5b81518181111562000db25762000db262000d13565b604051601f8201601f19908116603f0116810190838211818310171562000ddd5762000ddd62000d13565b8160405282815287602084870101111562000df757600080fd5b62000e0a83602083016020880162000d29565b979650505050505050565b6000845162000e2981846020890162000d29565b8083019050602d60f81b808252855162000e4b816001850160208a0162000d29565b6001920191820152835162000e6881600284016020880162000d29565b0160020195945050505050565b6000845162000e8981846020890162000d29565b600160fd1b908301908152845162000ea981600184016020890162000d29565b782053656e7365205072696e636970616c20546f6b656e2c204160381b60019290910191820152835162000ee581601a84016020880162000d29565b01601a0195945050505050565b6273502d60e81b81526000845162000f1281600385016020890162000d29565b8083019050601d60f91b806003830152855162000f37816004850160208a0162000d29565b6004920191820152835162000f5481600584016020880162000d29565b0160050195945050505050565b6000815180845262000f7b81602086016020860162000d29565b601f01601f19169290920160200192915050565b60808152600062000fa4608083018762000f61565b828103602084015262000fb8818762000f61565b60ff95909516604084015250506001600160a01b039190911660609091015292915050565b6000845162000ff181846020890162000d29565b600160fd1b90830190815284516200101181600184016020890162000d29565b742053656e7365205969656c6420546f6b656e2c204160581b6001929091019182015283516200104981601684016020880162000d29565b0160160195945050505050565b6273592d60e81b81526000845162000f1281600385016020890162000d29565b600060018060a01b03808916835287602084015260c06040840152620010a060c084018862000f61565b8381036060850152620010b4818862000f61565b60ff969096166080850152509290921660a09091015250949350505050565b600360fc1b815260008251620010f181600185016020870162000d29565b9190910160010192915050565b634e487b7160e01b600052601260045260246000fd5b600082620011265762001126620010fe565b500690565b634e487b7160e01b600052601160045260246000fd5b6000828210156200115657620011566200112b565b500390565b634e487b7160e01b600052603260045260246000fd5b6000855162001185818460208a0162000d29565b8551908301906200119b818360208a0162000d29565b600160fd1b91018181528551909190620011bd816001850160208a0162000d29565b60019201918201528351620011da81600284016020880162000d29565b016002019695505050505050565b6000600019821415620011ff57620011ff6200112b565b5060010190565b600082620012185762001218620010fe565b500490565b60008160001904831182151516156200123a576200123a6200112b565b500290565b600060ff821660ff84168060ff038211156200125f576200125f6200112b565b019392505050565b600080821280156001600160ff1b03849003851316156200128c576200128c6200112b565b600160ff1b8390038412811615620012a857620012a86200112b565b50500190565b60006001600160ff1b0381841382841380821686840486111615620012d757620012d76200112b565b600160ff1b6000871282811687830589121615620012f957620012f96200112b565b600087129250878205871284841616156200131857620013186200112b565b878505871281841616156200133157620013316200112b565b505050929093029392505050565b600082620013515762001351620010fe565b600160ff1b8214600019841416156200136e576200136e6200112b565b500590565b60008083128015600160ff1b8501841216156200139457620013946200112b565b6001600160ff1b0384018313811615620013b257620013b26200112b565b5050039056fe60e06040523480156200001157600080fd5b506040516200122b3803806200122b8339810160408190526200003491620002f6565b8084848482600090805190602001906200005092919062000183565b5081516200006690600190602085019062000183565b5060ff81166080524660a0526200007c620000e7565b60c0525050506001600160a01b038116600081815260066020908152604091829020805460ff1916600190811790915591519182527fe95aec380cae16330d146d5499ef7db6f3657e477104a733e771bc09e500d986910160405180910390a250505050506200047b565b60007f8b73c3c69bb8fe3d512ecc4cf759cc79239f7b179b0ffacaa9a75d522b39400f60006040516200011b9190620003d7565b6040805191829003822060208301939093528101919091527fc89efdaa54c0f20c7adf612882df0950f5a951637e0307cdcb4c672f298b8bc660608201524660808201523060a082015260c00160405160208183030381529060405280519060200120905090565b82805462000191906200039a565b90600052602060002090601f016020900481019282620001b5576000855562000200565b82601f10620001d057805160ff191683800117855562000200565b8280016001018555821562000200579182015b8281111562000200578251825591602001919060010190620001e3565b506200020e92915062000212565b5090565b5b808211156200020e576000815560010162000213565b634e487b7160e01b600052604160045260246000fd5b600082601f8301126200025157600080fd5b81516001600160401b03808211156200026e576200026e62000229565b604051601f8301601f19908116603f0116810190828211818310171562000299576200029962000229565b81604052838152602092508683858801011115620002b657600080fd5b600091505b83821015620002da5785820183015181830184015290820190620002bb565b83821115620002ec5760008385830101525b9695505050505050565b600080600080608085870312156200030d57600080fd5b84516001600160401b03808211156200032557600080fd5b62000333888389016200023f565b955060208701519150808211156200034a57600080fd5b5062000359878288016200023f565b935050604085015160ff811681146200037157600080fd5b60608601519092506001600160a01b03811681146200038f57600080fd5b939692955090935050565b600181811c90821680620003af57607f821691505b60208210811415620003d157634e487b7160e01b600052602260045260246000fd5b50919050565b600080835481600182811c915080831680620003f457607f831692505b60208084108214156200041557634e487b7160e01b86526022600452602486fd5b8180156200042c57600181146200043e576200046d565b60ff198616895284890196506200046d565b60008a81526020902060005b86811015620004655781548b8201529085019083016200044a565b505084890196505b509498975050505050505050565b60805160a05160c051610d80620004ab60003960006105640152600061052f0152600061019c0152610d806000f3fe608060405234801561001057600080fd5b50600436106100eb5760003560e01c806340c10f191161009257806340c10f19146101d857806370a08231146101eb5780637ecebe001461020b57806395d89b411461022b57806396d64879146102335780639dc29fac14610256578063a9059cbb14610269578063d505accf1461027c578063dd62ed3e1461028f57600080fd5b806306fdde03146100f0578063095ea7b31461010e5780631393916a1461013157806318160ddd1461014657806323b872dd1461015d57806330adf81f14610170578063313ce567146101975780633644e515146101d0575b600080fd5b6100f86102ba565b6040516101059190610a10565b60405180910390f35b61012161011c366004610a81565b610348565b6040519015158152602001610105565b61014461013f366004610aab565b6103b4565b005b61014f60025481565b604051908152602001610105565b61012161016b366004610ae7565b61044b565b61014f7f6e71edae12b1b97f4d1f60370fef10105fa2faae0126114a169c64845d6126c981565b6101be7f000000000000000000000000000000000000000000000000000000000000000081565b60405160ff9091168152602001610105565b61014f61052b565b6101446101e6366004610a81565b610586565b61014f6101f9366004610b23565b60036020526000908152604090205481565b61014f610219366004610b23565b60056020526000908152604090205481565b6100f86105c3565b610121610241366004610b23565b60066020526000908152604090205460ff1681565b610144610264366004610a81565b6105d0565b610121610277366004610a81565b610609565b61014461028a366004610b45565b61066f565b61014f61029d366004610bb8565b600460209081526000928352604080842090915290825290205481565b600080546102c790610beb565b80601f01602080910402602001604051908101604052809291908181526020018280546102f390610beb565b80156103405780601f1061031557610100808354040283529160200191610340565b820191906000526020600020905b81548152906001019060200180831161032357829003601f168201915b505050505081565b3360008181526004602090815260408083206001600160a01b038716808552925280832085905551919290917f8c5be1e5ebec7d5bd14f71427d1e84f3dd0314c0f7b2291e5b200ac8c7c3b925906103a39086815260200190565b60405180910390a350600192915050565b3360009081526006602052604090205460ff166103ec5760405162461bcd60e51b81526004016103e390610c26565b60405180910390fd5b6001600160a01b038216600081815260066020908152604091829020805460ff191685151590811790915591519182527fe95aec380cae16330d146d5499ef7db6f3657e477104a733e771bc09e500d986910160405180910390a25050565b6001600160a01b038316600090815260046020908152604080832033845290915281205460001981146104a7576104828382610c5f565b6001600160a01b03861660009081526004602090815260408083203384529091529020555b6001600160a01b038516600090815260036020526040812080548592906104cf908490610c5f565b90915550506001600160a01b0380851660008181526003602052604090819020805487019055519091871690600080516020610d2b833981519152906105189087815260200190565b60405180910390a3506001949350505050565b60007f000000000000000000000000000000000000000000000000000000000000000046146105615761055c6108ba565b905090565b507f000000000000000000000000000000000000000000000000000000000000000090565b3360009081526006602052604090205460ff166105b55760405162461bcd60e51b81526004016103e390610c26565b6105bf8282610954565b5050565b600180546102c790610beb565b3360009081526006602052604090205460ff166105ff5760405162461bcd60e51b81526004016103e390610c26565b6105bf82826109ae565b3360009081526003602052604081208054839190839061062a908490610c5f565b90915550506001600160a01b03831660008181526003602052604090819020805485019055513390600080516020610d2b833981519152906103a39086815260200190565b428410156106b95760405162461bcd60e51b815260206004820152601760248201527614115493525517d11150511312539157d1561412549151604a1b60448201526064016103e3565b60006106c361052b565b6001600160a01b0389811660008181526005602090815260409182902080546001810190915582517f6e71edae12b1b97f4d1f60370fef10105fa2faae0126114a169c64845d6126c98184015280840194909452938c166060840152608083018b905260a083019390935260c08083018a90528151808403909101815260e08301909152805192019190912061190160f01b6101008301526101028201929092526101228101919091526101420160408051601f198184030181528282528051602091820120600080855291840180845281905260ff88169284019290925260608301869052608083018590529092509060019060a0016020604051602081039080840390855afa1580156107dc573d6000803e3d6000fd5b5050604051601f1901519150506001600160a01b038116158015906108125750886001600160a01b0316816001600160a01b0316145b61084f5760405162461bcd60e51b815260206004820152600e60248201526d24a72b20a624a22fa9a4a3a722a960911b60448201526064016103e3565b6001600160a01b0390811660009081526004602090815260408083208b8516808552908352928190208a905551898152919350918a16917f8c5be1e5ebec7d5bd14f71427d1e84f3dd0314c0f7b2291e5b200ac8c7c3b925910160405180910390a350505050505050565b60007f8b73c3c69bb8fe3d512ecc4cf759cc79239f7b179b0ffacaa9a75d522b39400f60006040516108ec9190610c76565b6040805191829003822060208301939093528101919091527fc89efdaa54c0f20c7adf612882df0950f5a951637e0307cdcb4c672f298b8bc660608201524660808201523060a082015260c00160405160208183030381529060405280519060200120905090565b80600260008282546109669190610d12565b90915550506001600160a01b038216600081815260036020908152604080832080548601905551848152600080516020610d2b83398151915291015b60405180910390a35050565b6001600160a01b038216600090815260036020526040812080548392906109d6908490610c5f565b90915550506002805482900390556040518181526000906001600160a01b03841690600080516020610d2b833981519152906020016109a2565b600060208083528351808285015260005b81811015610a3d57858101830151858201604001528201610a21565b81811115610a4f576000604083870101525b50601f01601f1916929092016040019392505050565b80356001600160a01b0381168114610a7c57600080fd5b919050565b60008060408385031215610a9457600080fd5b610a9d83610a65565b946020939093013593505050565b60008060408385031215610abe57600080fd5b610ac783610a65565b915060208301358015158114610adc57600080fd5b809150509250929050565b600080600060608486031215610afc57600080fd5b610b0584610a65565b9250610b1360208501610a65565b9150604084013590509250925092565b600060208284031215610b3557600080fd5b610b3e82610a65565b9392505050565b600080600080600080600060e0888a031215610b6057600080fd5b610b6988610a65565b9650610b7760208901610a65565b95506040880135945060608801359350608088013560ff81168114610b9b57600080fd5b9699959850939692959460a0840135945060c09093013592915050565b60008060408385031215610bcb57600080fd5b610bd483610a65565b9150610be260208401610a65565b90509250929050565b600181811c90821680610bff57607f821691505b60208210811415610c2057634e487b7160e01b600052602260045260246000fd5b50919050565b602080825260099082015268155395149554d5115160ba1b604082015260600190565b634e487b7160e01b600052601160045260246000fd5b600082821015610c7157610c71610c49565b500390565b600080835481600182811c915080831680610c9257607f831692505b6020808410821415610cb257634e487b7160e01b86526022600452602486fd5b818015610cc65760018114610cd757610d04565b60ff19861689528489019650610d04565b60008a81526020902060005b86811015610cfc5781548b820152908501908301610ce3565b505084890196505b509498975050505050505050565b60008219821115610d2557610d25610c49565b50019056feddf252ad1be2c89b69c2b068fc378daa952ba7f163c4a11628f55a4df523b3efa2646970667358221220eb79f05de98d81ddc345e8e21df26ebadef91a8902a43ab2b667d4ecf7bc126f64736f6c634300080b00336101406040523480156200001257600080fd5b50604051620016b0380380620016b0833981016040819052620000359162000335565b8383838380848484826000908051906020019062000055929190620001a5565b5081516200006b906001906020850190620001a5565b5060ff81166080524660a0526200008162000109565b60c0525050506001600160a01b038116600081815260066020908152604091829020805460ff1916600190811790915591519182527fe95aec380cae16330d146d5499ef7db6f3657e477104a733e771bc09e500d986910160405180910390a25050506001600160a01b0397881660e0525050610120949094525050501661010052620004c8565b60007f8b73c3c69bb8fe3d512ecc4cf759cc79239f7b179b0ffacaa9a75d522b39400f60006040516200013d919062000424565b6040805191829003822060208301939093528101919091527fc89efdaa54c0f20c7adf612882df0950f5a951637e0307cdcb4c672f298b8bc660608201524660808201523060a082015260c00160405160208183030381529060405280519060200120905090565b828054620001b390620003e7565b90600052602060002090601f016020900481019282620001d7576000855562000222565b82601f10620001f257805160ff191683800117855562000222565b8280016001018555821562000222579182015b828111156200022257825182559160200191906001019062000205565b506200023092915062000234565b5090565b5b8082111562000230576000815560010162000235565b80516001600160a01b03811681146200026357600080fd5b919050565b634e487b7160e01b600052604160045260246000fd5b600082601f8301126200029057600080fd5b81516001600160401b0380821115620002ad57620002ad62000268565b604051601f8301601f19908116603f01168101908282118183101715620002d857620002d862000268565b81604052838152602092508683858801011115620002f557600080fd5b600091505b83821015620003195785820183015181830184015290820190620002fa565b838211156200032b5760008385830101525b9695505050505050565b60008060008060008060c087890312156200034f57600080fd5b6200035a876200024b565b6020880151604089015191975095506001600160401b03808211156200037f57600080fd5b6200038d8a838b016200027e565b95506060890151915080821115620003a457600080fd5b50620003b389828a016200027e565b935050608087015160ff81168114620003cb57600080fd5b9150620003db60a088016200024b565b90509295509295509295565b600181811c90821680620003fc57607f821691505b602082108114156200041e57634e487b7160e01b600052602260045260246000fd5b50919050565b600080835481600182811c9150808316806200044157607f831692505b60208084108214156200046257634e487b7160e01b86526022600452602486fd5b8180156200047957600181146200048b57620004ba565b60ff19861689528489019650620004ba565b60008a81526020902060005b86811015620004b25781548b82015290850190830162000497565b505084890196505b509498975050505050505050565b60805160a05160c05160e051610100516101205161115962000557600039600081816101e901528181610598015281816107650152610a9c01526000818161028b01528181610547015281816107140152610a4b01526000818161014101528181610576015281816107430152610a7a01526000610655015260006106200152600061024a01526111596000f3fe608060405234801561001057600080fd5b50600436106101375760003560e01c8063378efa37116100b857806396d648791161007c57806396d64879146103085780639dc29fac1461032b578063a9059cbb1461033e578063d505accf14610351578063dd62ed3e14610364578063e52253811461038f57600080fd5b8063378efa371461028657806340c10f19146102ad57806370a08231146102c05780637ecebe00146102e057806395d89b411461030057600080fd5b8063204f83f9116100ff578063204f83f9146101e457806323b872dd1461020b57806330adf81f1461021e578063313ce567146102455780633644e5151461027e57600080fd5b806303eadcfc1461013c57806306fdde0314610180578063095ea7b3146101955780631393916a146101b857806318160ddd146101cd575b600080fd5b6101637f000000000000000000000000000000000000000000000000000000000000000081565b6040516001600160a01b0390911681526020015b60405180910390f35b610188610397565b6040516101779190610da7565b6101a86101a3366004610e18565b610425565b6040519015158152602001610177565b6101cb6101c6366004610e42565b610491565b005b6101d660025481565b604051908152602001610177565b6101d67f000000000000000000000000000000000000000000000000000000000000000081565b6101a8610219366004610e7e565b610528565b6101d67f6e71edae12b1b97f4d1f60370fef10105fa2faae0126114a169c64845d6126c981565b61026c7f000000000000000000000000000000000000000000000000000000000000000081565b60405160ff9091168152602001610177565b6101d661061c565b6101637f000000000000000000000000000000000000000000000000000000000000000081565b6101cb6102bb366004610e18565b610677565b6101d66102ce366004610eba565b60036020526000908152604090205481565b6101d66102ee366004610eba565b60056020526000908152604090205481565b6101886106b4565b6101a8610316366004610eba565b60066020526000908152604090205460ff1681565b6101cb610339366004610e18565b6106c1565b6101a861034c366004610e18565b6106fa565b6101cb61035f366004610ed5565b6107e6565b6101d6610372366004610f48565b600460209081526000928352604080842090915290825290205481565b6101d6610a31565b600080546103a490610f7b565b80601f01602080910402602001604051908101604052809291908181526020018280546103d090610f7b565b801561041d5780601f106103f25761010080835404028352916020019161041d565b820191906000526020600020905b81548152906001019060200180831161040057829003601f168201915b505050505081565b3360008181526004602090815260408083206001600160a01b038716808552925280832085905551919290917f8c5be1e5ebec7d5bd14f71427d1e84f3dd0314c0f7b2291e5b200ac8c7c3b925906104809086815260200190565b60405180910390a350600192915050565b3360009081526006602052604090205460ff166104c95760405162461bcd60e51b81526004016104c090610fb6565b60405180910390fd5b6001600160a01b038216600081815260066020908152604091829020805460ff191685151590811790915591519182527fe95aec380cae16330d146d5499ef7db6f3657e477104a733e771bc09e500d986910160405180910390a25050565b600081156106095760405163284c6b5d60e21b81526001600160a01b037f0000000000000000000000000000000000000000000000000000000000000000169063a131ad74906105c49087907f0000000000000000000000000000000000000000000000000000000000000000907f00000000000000000000000000000000000000000000000000000000000000009088908a90600401610fd9565b6020604051808303816000875af11580156105e3573d6000803e3d6000fd5b505050506040513d601f19601f820116820180604052508101906106079190611009565b505b610614848484610b0b565b949350505050565b60007f000000000000000000000000000000000000000000000000000000000000000046146106525761064d610beb565b905090565b507f000000000000000000000000000000000000000000000000000000000000000090565b3360009081526006602052604090205460ff166106a65760405162461bcd60e51b81526004016104c090610fb6565b6106b08282610c85565b5050565b600180546103a490610f7b565b3360009081526006602052604090205460ff166106f05760405162461bcd60e51b81526004016104c090610fb6565b6106b08282610cdf565b60405163284c6b5d60e21b81526000906001600160a01b037f0000000000000000000000000000000000000000000000000000000000000000169063a131ad74906107919033907f0000000000000000000000000000000000000000000000000000000000000000907f00000000000000000000000000000000000000000000000000000000000000009088908a90600401610fd9565b6020604051808303816000875af11580156107b0573d6000803e3d6000fd5b505050506040513d601f19601f820116820180604052508101906107d49190611009565b506107df8383610d41565b9392505050565b428410156108305760405162461bcd60e51b815260206004820152601760248201527614115493525517d11150511312539157d1561412549151604a1b60448201526064016104c0565b600061083a61061c565b6001600160a01b0389811660008181526005602090815260409182902080546001810190915582517f6e71edae12b1b97f4d1f60370fef10105fa2faae0126114a169c64845d6126c98184015280840194909452938c166060840152608083018b905260a083019390935260c08083018a90528151808403909101815260e08301909152805192019190912061190160f01b6101008301526101028201929092526101228101919091526101420160408051601f198184030181528282528051602091820120600080855291840180845281905260ff88169284019290925260608301869052608083018590529092509060019060a0016020604051602081039080840390855afa158015610953573d6000803e3d6000fd5b5050604051601f1901519150506001600160a01b038116158015906109895750886001600160a01b0316816001600160a01b0316145b6109c65760405162461bcd60e51b815260206004820152600e60248201526d24a72b20a624a22fa9a4a3a722a960911b60448201526064016104c0565b6001600160a01b0390811660009081526004602090815260408083208b8516808552908352928190208a905551898152919350918a16917f8c5be1e5ebec7d5bd14f71427d1e84f3dd0314c0f7b2291e5b200ac8c7c3b925910160405180910390a350505050505050565b60405163284c6b5d60e21b81526000906001600160a01b037f0000000000000000000000000000000000000000000000000000000000000000169063a131ad7490610ac89033907f0000000000000000000000000000000000000000000000000000000000000000907f00000000000000000000000000000000000000000000000000000000000000009087908190600401610fd9565b6020604051808303816000875af1158015610ae7573d6000803e3d6000fd5b505050506040513d601f19601f8201168201806040525081019061064d9190611009565b6001600160a01b03831660009081526004602090815260408083203384529091528120546000198114610b6757610b428382611038565b6001600160a01b03861660009081526004602090815260408083203384529091529020555b6001600160a01b03851660009081526003602052604081208054859290610b8f908490611038565b90915550506001600160a01b038085166000818152600360205260409081902080548701905551909187169060008051602061110483398151915290610bd89087815260200190565b60405180910390a3506001949350505050565b60007f8b73c3c69bb8fe3d512ecc4cf759cc79239f7b179b0ffacaa9a75d522b39400f6000604051610c1d919061104f565b6040805191829003822060208301939093528101919091527fc89efdaa54c0f20c7adf612882df0950f5a951637e0307cdcb4c672f298b8bc660608201524660808201523060a082015260c00160405160208183030381529060405280519060200120905090565b8060026000828254610c9791906110eb565b90915550506001600160a01b03821660008181526003602090815260408083208054860190555184815260008051602061110483398151915291015b60405180910390a35050565b6001600160a01b03821660009081526003602052604081208054839290610d07908490611038565b90915550506002805482900390556040518181526000906001600160a01b0384169060008051602061110483398151915290602001610cd3565b33600090815260036020526040812080548391908390610d62908490611038565b90915550506001600160a01b03831660008181526003602052604090819020805485019055513390600080516020611104833981519152906104809086815260200190565b600060208083528351808285015260005b81811015610dd457858101830151858201604001528201610db8565b81811115610de6576000604083870101525b50601f01601f1916929092016040019392505050565b80356001600160a01b0381168114610e1357600080fd5b919050565b60008060408385031215610e2b57600080fd5b610e3483610dfc565b946020939093013593505050565b60008060408385031215610e5557600080fd5b610e5e83610dfc565b915060208301358015158114610e7357600080fd5b809150509250929050565b600080600060608486031215610e9357600080fd5b610e9c84610dfc565b9250610eaa60208501610dfc565b9150604084013590509250925092565b600060208284031215610ecc57600080fd5b6107df82610dfc565b600080600080600080600060e0888a031215610ef057600080fd5b610ef988610dfc565b9650610f0760208901610dfc565b95506040880135945060608801359350608088013560ff81168114610f2b57600080fd5b9699959850939692959460a0840135945060c09093013592915050565b60008060408385031215610f5b57600080fd5b610f6483610dfc565b9150610f7260208401610dfc565b90509250929050565b600181811c90821680610f8f57607f821691505b60208210811415610fb057634e487b7160e01b600052602260045260246000fd5b50919050565b602080825260099082015268155395149554d5115160ba1b604082015260600190565b6001600160a01b039586168152938516602085015260408401929092526060830152909116608082015260a00190565b60006020828403121561101b57600080fd5b5051919050565b634e487b7160e01b600052601160045260246000fd5b60008282101561104a5761104a611022565b500390565b600080835481600182811c91508083168061106b57607f831692505b602080841082141561108b57634e487b7160e01b86526022600452602486fd5b81801561109f57600181146110b0576110dd565b60ff198616895284890196506110dd565b60008a81526020902060005b868110156110d55781548b8201529085019083016110bc565b505084890196505b509498975050505050505050565b600082198211156110fe576110fe611022565b50019056feddf252ad1be2c89b69c2b068fc378daa952ba7f163c4a11628f55a4df523b3efa2646970667358221220eb9cf7597ae9cb4ee98d8b71e7931bc66da51b2b8fb769ad2ab9372ccf9d742c64736f6c634300080b0033a2646970667358221220a785260d1e94e8343d2cf3e2cd524be62a7d8e9ebb7cfd0a2dd92f3ce1131b2e64736f6c634300080b0033",
  "devdoc": {
    "kind": "dev",
    "methods": {},
    "version": 1
  },
  "userdoc": {
    "kind": "user",
    "methods": {
      "divider()": {
        "notice": "Program state"
      }
    },
    "version": 1
  },
  "storageLayout": {
    "storage": [
      {
        "astId": 14705,
        "contract": "@sense-finance/v1-core/src/Divider.sol:TokenHandler",
        "label": "isTrusted",
        "offset": 0,
        "slot": "0",
        "type": "t_mapping(t_address,t_bool)"
      },
      {
        "astId": 3790,
        "contract": "@sense-finance/v1-core/src/Divider.sol:TokenHandler",
        "label": "divider",
        "offset": 0,
        "slot": "1",
        "type": "t_address"
      }
    ],
    "types": {
      "t_address": {
        "encoding": "inplace",
        "label": "address",
        "numberOfBytes": "20"
      },
      "t_bool": {
        "encoding": "inplace",
        "label": "bool",
        "numberOfBytes": "1"
      },
      "t_mapping(t_address,t_bool)": {
        "encoding": "mapping",
        "key": "t_address",
        "label": "mapping(address => bool)",
        "numberOfBytes": "32",
        "value": "t_bool"
      }
    }
  }
}