{
  "address": "0x5f6e8e9C888760856e22057CBc81dD9e0494aA34",
  "abi": [
    {
      "inputs": [
        {
          "internalType": "contract IVault",
          "name": "_vault",
          "type": "address"
        },
        {
          "internalType": "address",
          "name": "_divider",
          "type": "address"
        },
        {
          "internalType": "uint256",
          "name": "_ts",
          "type": "uint256"
        },
        {
          "internalType": "uint256",
          "name": "_g1",
          "type": "uint256"
        },
        {
          "internalType": "uint256",
          "name": "_g2",
          "type": "uint256"
        },
        {
          "internalType": "bool",
          "name": "_oracleEnabled",
          "type": "bool"
        }
      ],
      "stateMutability": "nonpayable",
      "type": "constructor"
    },
    {
      "anonymous": false,
      "inputs": [
        {
          "indexed": true,
          "internalType": "address",
          "name": "user",
          "type": "address"
        },
        {
          "indexed": false,
          "internalType": "bool",
          "name": "trusted",
          "type": "bool"
        }
      ],
      "name": "UserTrustUpdated",
      "type": "event"
    },
    {
      "inputs": [
        {
          "internalType": "address",
          "name": "adapter",
          "type": "address"
        },
        {
          "internalType": "uint256",
          "name": "maturity",
          "type": "uint256"
        }
      ],
      "name": "create",
      "outputs": [
        {
          "internalType": "address",
          "name": "pool",
          "type": "address"
        }
      ],
      "stateMutability": "nonpayable",
      "type": "function"
    },
    {
      "inputs": [],
      "name": "divider",
      "outputs": [
        {
          "internalType": "contract DividerLike",
          "name": "",
          "type": "address"
        }
      ],
      "stateMutability": "view",
      "type": "function"
    },
    {
      "inputs": [],
      "name": "g1",
      "outputs": [
        {
          "internalType": "uint256",
          "name": "",
          "type": "uint256"
        }
      ],
      "stateMutability": "view",
      "type": "function"
    },
    {
      "inputs": [],
      "name": "g2",
      "outputs": [
        {
          "internalType": "uint256",
          "name": "",
          "type": "uint256"
        }
      ],
      "stateMutability": "view",
      "type": "function"
    },
    {
      "inputs": [
        {
          "internalType": "address",
          "name": "",
          "type": "address"
        }
      ],
      "name": "isTrusted",
      "outputs": [
        {
          "internalType": "bool",
          "name": "",
          "type": "bool"
        }
      ],
      "stateMutability": "view",
      "type": "function"
    },
    {
      "inputs": [],
      "name": "oracleEnabled",
      "outputs": [
        {
          "internalType": "bool",
          "name": "",
          "type": "bool"
        }
      ],
      "stateMutability": "view",
      "type": "function"
    },
    {
      "inputs": [
        {
          "internalType": "address",
          "name": "",
          "type": "address"
        },
        {
          "internalType": "uint256",
          "name": "",
          "type": "uint256"
        }
      ],
      "name": "pools",
      "outputs": [
        {
          "internalType": "address",
          "name": "",
          "type": "address"
        }
      ],
      "stateMutability": "view",
      "type": "function"
    },
    {
      "inputs": [
        {
          "internalType": "address",
          "name": "user",
          "type": "address"
        },
        {
          "internalType": "bool",
          "name": "trusted",
          "type": "bool"
        }
      ],
      "name": "setIsTrusted",
      "outputs": [],
      "stateMutability": "nonpayable",
      "type": "function"
    },
    {
      "inputs": [
        {
          "internalType": "uint256",
          "name": "_ts",
          "type": "uint256"
        },
        {
          "internalType": "uint256",
          "name": "_g1",
          "type": "uint256"
        },
        {
          "internalType": "uint256",
          "name": "_g2",
          "type": "uint256"
        },
        {
          "internalType": "bool",
          "name": "_oracleEnabled",
          "type": "bool"
        }
      ],
      "name": "setParams",
      "outputs": [],
      "stateMutability": "nonpayable",
      "type": "function"
    },
    {
      "inputs": [
        {
          "internalType": "address",
          "name": "adapter",
          "type": "address"
        },
        {
          "internalType": "uint256",
          "name": "maturity",
          "type": "uint256"
        },
        {
          "internalType": "address",
          "name": "pool",
          "type": "address"
        }
      ],
      "name": "setPool",
      "outputs": [],
      "stateMutability": "nonpayable",
      "type": "function"
    },
    {
      "inputs": [],
      "name": "ts",
      "outputs": [
        {
          "internalType": "uint256",
          "name": "",
          "type": "uint256"
        }
      ],
      "stateMutability": "view",
      "type": "function"
    },
    {
      "inputs": [],
      "name": "vault",
      "outputs": [
        {
          "internalType": "contract IVault",
          "name": "",
          "type": "address"
        }
      ],
      "stateMutability": "view",
      "type": "function"
    }
  ],
  "transactionHash": "0x8e46871b89f29007fd9d2ccbb5ba93f57092d9c584511e2c8891da55c4ac7680",
  "args": [
    "0xBA12222222228d8Ba445958a75a0704d566BF2C8",
    "0x86bA3E96Be68563E41c2f5769F1AF9fAf758e6E0",
    "2640612622",
    "950000000000000000",
    "1052631578947368421",
    true
  ],
  "numDeployments": 1,
  "solcInputHash": "2be197607f5db077d6c9e4e2754d46b6",
  "bytecode": "0x60c060405234801561001057600080fd5b5060405161613238038061613283398101604081905261002f916100c1565b3360008181526020818152604091829020805460ff191660019081179091558251908152915183927fe95aec380cae16330d146d5499ef7db6f3657e477104a733e771bc09e500d98692908290030190a250606095861b6001600160601b03199081166080529490951b90931660a0526002919091556003556004556005805460ff1916911515919091179055610146565b60008060008060008060c087890312156100d9578182fd5b86516100e48161012e565b60208801519096506100f58161012e565b8095505060408701519350606087015192506080870151915060a08701518015158114610120578182fd5b809150509295509295509295565b6001600160a01b038116811461014357600080fd5b50565b60805160601c60a05160601c615fb461017e600039806101f0528061050152806105915250806102e452806107095250615fb46000f3fe60806040523480156200001157600080fd5b5060043610620000e85760003560e01c8063756a24e4116200008d578063bdd8a3661162000063578063bdd8a36614620001cd578063e86d60bf14620001d7578063fbfa77cf14620001e157620000e8565b8063756a24e414620001865780638f38a555146200019f57806396d6487914620001b657620000e8565b8063378efa3711620000c3578063378efa37146200014c5780636970a92414620001565780636d605fcf146200016f57620000e8565b80630ecaea7314620000ed5780631393916a146200011c5780631852288b1462000135575b600080fd5b62000104620000fe36600462000836565b620001eb565b604051620001139190620008eb565b60405180910390f35b620001336200012d366004620007fd565b620003ad565b005b6200013362000146366004620008aa565b6200045c565b62000104620004ff565b6200016062000523565b6040516200011391906200096d565b620001336200018036600462000864565b62000529565b62000190620006b7565b60405162000113919062000918565b62000104620001b036600462000836565b620006c0565b62000190620001c7366004620007b8565b620006e6565b62000160620006fb565b6200016062000701565b6200010462000707565b6000807f00000000000000000000000000000000000000000000000000000000000000006001600160a01b031663d10eb4b985856040518363ffffffff1660e01b81526004016200023e929190620008ff565b602060405180830381600087803b1580156200025957600080fd5b505af11580156200026e573d6000803e3d6000fd5b505050506040513d601f19601f82011682018060405250810190620002949190620007de565b9050620002ae6001600160a01b0382161515606d6200072b565b6001600160a01b038481166000908152600160209081526040808320878452909152902054620002e291161560686200072b565b7f0000000000000000000000000000000000000000000000000000000000000000848483600254600354600454600560009054906101000a900460ff166040516200032d9062000794565b6200034098979695949392919062000923565b604051809103906000f0801580156200035d573d6000803e3d6000fd5b506001600160a01b03948516600090815260016020908152604080832096835295905293909320805473ffffffffffffffffffffffffffffffffffffffff19169484169490941790935550919050565b3360009081526020819052604090205460ff16620003fe576040805162461bcd60e51b8152602060048201526009602482015268155395149554d5115160ba1b604482015290519081900360640190fd5b6001600160a01b03821660008181526020818152604091829020805460ff1916851515908117909155825190815291517fe95aec380cae16330d146d5499ef7db6f3657e477104a733e771bc09e500d9869281900390910190a25050565b3360009081526020819052604090205460ff16620004ad576040805162461bcd60e51b8152602060048201526009602482015268155395149554d5115160ba1b604482015290519081900360640190fd5b620004c5670de0b6b3a764000084111560656200072b565b620004dd670de0b6b3a764000083101560666200072b565b6002939093556003919091556004556005805460ff1916911515919091179055565b7f000000000000000000000000000000000000000000000000000000000000000081565b60045481565b3360009081526020819052604090205460ff166200057a576040805162461bcd60e51b8152602060048201526009602482015268155395149554d5115160ba1b604482015290519081900360640190fd5b60405163d10eb4b960e01b81526200063b906000907f00000000000000000000000000000000000000000000000000000000000000006001600160a01b03169063d10eb4b990620005d29088908890600401620008ff565b602060405180830381600087803b158015620005ed57600080fd5b505af115801562000602573d6000803e3d6000fd5b505050506040513d601f19601f82011682018060405250810190620006289190620007de565b6001600160a01b03161415606d6200072b565b6001600160a01b0383811660009081526001602090815260408083208684529091529020546200066f91161560686200072b565b6001600160a01b03928316600090815260016020908152604080832094835293905291909120805473ffffffffffffffffffffffffffffffffffffffff191691909216179055565b60055460ff1681565b60016020908152600092835260408084209091529082529020546001600160a01b031681565b60006020819052908152604090205460ff1681565b60035481565b60025481565b7f000000000000000000000000000000000000000000000000000000000000000081565b816200073c576200073c8162000740565b5050565b62461bcd60e51b600090815260206004526007602452673f534e5323000030600a808404818106603090810160081b95839006959095019082900491820690940160101b939093010160c81b604452606490fd5b6155ef806200099083390190565b80358015158114620007b357600080fd5b919050565b600060208284031215620007ca578081fd5b8135620007d78162000976565b9392505050565b600060208284031215620007f0578081fd5b8151620007d78162000976565b6000806040838503121562000810578081fd5b82356200081d8162000976565b91506200082d60208401620007a2565b90509250929050565b6000806040838503121562000849578182fd5b8235620008568162000976565b946020939093013593505050565b60008060006060848603121562000879578081fd5b8335620008868162000976565b92506020840135915060408401356200089f8162000976565b809150509250925092565b60008060008060808587031215620008c0578081fd5b843593506020850135925060408501359150620008e060608601620007a2565b905092959194509250565b6001600160a01b0391909116815260200190565b6001600160a01b03929092168252602082015260400190565b901515815260200190565b6001600160a01b03988916815296881660208801526040870195909552929095166060850152608084015260a083019390935260c082019290925290151560e08201526101000190565b90815260200190565b6001600160a01b03811681146200098c57600080fd5b5056fe6102a06040527f6e71edae12b1b97f4d1f60370fef10105fa2faae0126114a169c64845d6126c960e0523480156200003657600080fd5b50604051620055ef380380620055ef833981016040819052620000599162000804565b846001600160a01b03166306fdde036040518163ffffffff1660e01b815260040160006040518083038186803b1580156200009357600080fd5b505afa158015620000a8573d6000803e3d6000fd5b505050506040513d6000823e601f3d908101601f19168201604052620000d2919081019062000898565b604051602001620000e4919062000959565b604051602081830303815290604052856001600160a01b03166395d89b416040518163ffffffff1660e01b815260040160006040518083038186803b1580156200012d57600080fd5b505afa15801562000142573d6000803e3d6000fd5b505050506040513d6000823e601f3d908101601f191682016040526200016c919081019062000898565b6040516020016200017e91906200098f565b6040516020818303038152906040528180604051806040016040528060018152602001603160f81b81525084848160039080519060200190620001c392919062000719565b508051620001d990600490602084019062000719565b50506005805460ff19166012179055508151602092830120608052805191012060a05250507f8b73c3c69bb8fe3d512ecc4cf759cc79239f7b179b0ffacaa9a75d522b39400f60c052506040516309b2760f60e01b81526000906001600160a01b038a16906309b2760f90620002559060029060040162000a59565b602060405180830381600087803b1580156200027057600080fd5b505af115801562000285573d6000803e3d6000fd5b505050506040513d601f19601f82011682018060405250810190620002ab9190620007eb565b90506000886001600160a01b031663d4b839926040518163ffffffff1660e01b815260040160206040518083038186803b158015620002e957600080fd5b505afa158015620002fe573d6000803e3d6000fd5b505050506040513d601f19601f82011682018060405250810190620003249190620007c5565b6040805160028082526060808301845293945090916020830190803683370190505090506000826001600160a01b0316896001600160a01b0316106200036c5760016200036f565b60005b60ff169050888282815181106200038257fe5b60200260200101906001600160a01b031690816001600160a01b03168152505082828260010381518110620003b357fe5b6001600160a01b03928316602091820292909201015260408051600280825260608201909252918e16916366a9c7d29187918691816020016020820280368337019050506040518463ffffffff1660e01b81526004016200041793929190620009bf565b600060405180830381600087803b1580156200043257600080fd5b505af115801562000447573d6000803e3d6000fd5b5050506001600160601b031960608e901b1661026052506101c0849052815182906000906200047257fe5b60200260200101516001600160a01b03166101e0816001600160a01b031660601b8152505081600181518110620004a557fe5b60200260200101516001600160a01b0316610200816001600160a01b031660601b815250508b6001600160a01b031663d2946c2b6040518163ffffffff1660e01b815260040160206040518083038186803b1580156200050457600080fd5b505afa15801562000519573d6000803e3d6000fd5b505050506040513d601f19601f820116820180604052508101906200053f9190620007c5565b6001600160a01b0316610280816001600160a01b031660601b81525050620005eb60128a6001600160a01b031663313ce5676040518163ffffffff1660e01b815260040160206040518083038186803b1580156200059c57600080fd5b505afa158015620005b1573d6000803e3d6000fd5b505050506040513d601f19601f82011682018060405250810190620005d7919062000936565b60ff166200069960201b62001cf11760201c565b600a0a6102208181525050620006366012846001600160a01b031663313ce5676040518163ffffffff1660e01b815260040160206040518083038186803b1580156200059c57600080fd5b600a0a61024052610180969096525050506101a091909152610160929092526101405260609390931b6001600160601b031916610100525061012052600b805460ff60301b19166601000000000000921515929092029190911790555062000aba565b6000620006ab838311156001620006b1565b50900390565b81620006c257620006c281620006c6565b5050565b62461bcd60e51b6000908152602060045260076024526642414c23000030600a808404818106603090810160081b95839006959095019082900491820690940160101b939093010160c81b604452606490fd5b828054600181600116156101000203166002900490600052602060002090601f0160209004810192826200075157600085556200079c565b82601f106200076c57805160ff19168380011785556200079c565b828001600101855582156200079c579182015b828111156200079c5782518255916020019190600101906200077f565b50620007aa929150620007ae565b5090565b5b80821115620007aa5760008155600101620007af565b600060208284031215620007d7578081fd5b8151620007e48162000aa1565b9392505050565b600060208284031215620007fd578081fd5b5051919050565b600080600080600080600080610100898b03121562000821578384fd5b88516200082e8162000aa1565b60208a0151909850620008418162000aa1565b60408a015160608b015191985096506200085b8162000aa1565b809550506080890151935060a0890151925060c0890151915060e0890151801515811462000887578182fd5b809150509295985092959890939650565b600060208284031215620008aa578081fd5b81516001600160401b0380821115620008c1578283fd5b818401915084601f830112620008d5578283fd5b815181811115620008e257fe5b604051601f8201601f1916810160200183811182821017156200090157fe5b60405281815283820160200187101562000919578485fd5b6200092c82602083016020870162000a6e565b9695505050505050565b60006020828403121562000948578081fd5b815160ff81168114620007e4578182fd5b60006b029b2b739b29029b830b1b2960a51b825282516200098281600c85016020870162000a6e565b91909101600c0192915050565b60006553504143452d60d01b82528251620009b281600685016020870162000a6e565b9190910160060192915050565b60006060820185835260206060818501528186518084526080860191508288019350845b8181101562000a0a5784516001600160a01b031683529383019391830191600101620009e3565b505084810360408601528551808252908201925081860190845b8181101562000a4b5782516001600160a01b03168552938301939183019160010162000a24565b509298975050505050505050565b602081016003831062000a6857fe5b91905290565b60005b8381101562000a8b57818101518382015260200162000a71565b8381111562000a9b576000848401525b50505050565b6001600160a01b038116811462000ab757600080fd5b50565b60805160a05160c05160e0516101005160601c610120516101405161016051610180516101a0516101c0516101e05160601c6102005160601c61022051610240516102605160601c6102805160601c61492462000ccb60003980610bfa5280611a58525080610de452806112f452508061293f52508061296652505080610e6c5250806107f25280611323525080610a1c5280612a5b52508061164d5280612a355250806108bd52806114205280611b7d5280611c82528061248652806127a952806129fe5250806109aa5280610af75280610b825280610bb65280610ea95280610ed25280611271528061145e52806114b25280611901528061197952806119ed5280611a2152806121a152806121e4528061221f5280612260528061233852806124ea5280612524528061268e52806126c452806126f7528061284d528061288952806128cb528061290a5280612c0e5280612c515280612c8c5280612cd45280612d085280612d915280612de45280612e2f5280612e635280612ef35280612f2c5280612f785280612fc35250806106c95280610853528061089552806113bb52806113f252806117ff5280611ba35280611ca9528061242152806124585280612744528061277b528061299c52806129d35250806104c752806108ef5280610f7452806118655280611bdc52508061169e525080611edd525080611f1f525080611efe52506149246000f3fe608060405234801561001057600080fd5b50600436106102275760003560e01c80636f48303111610130578063a9059cbb116100b8578063d5c096c41161007c578063d5c096c41461047c578063dd62ed3e1461048f578063e86d60bf146104a2578063f3f586e5146104aa578063ffd088eb146104bd57610227565b8063a9059cbb14610433578063b10be73914610446578063b48b5b4014610459578063bdd8a36614610461578063d505accf1461046957610227565b80638d928af8116100ff5780638d928af8146103ea57806395d89b41146103f25780639d2c110c146103fa578063a457c2d71461040d578063a503e6281461042057610227565b80636f4830311461039b57806370a08231146103a357806374f3b009146103b65780637ecebe00146103d757610227565b80633331bc36116101b3578063580702231161018257806358070223146103245780635863056d1461033757806360d1507c1461034d5780636970a924146103735780636b8432391461037b57610227565b80633331bc36146102ec5780633644e5151461030157806338fff2d014610309578063395093511461031157610227565b806318160ddd116101fa57806318160ddd146102945780631dccd8301461029c578063204f83f9146102bc57806323b872dd146102c4578063313ce567146102d757610227565b806303eadcfc1461022c57806306fdde031461024a5780630845d0301461025f578063095ea7b314610274575b600080fd5b6102346104c5565b60405161024191906146a5565b60405180910390f35b6102526104e9565b6040516102419190614825565b61026761057f565b6040516102419190614782565b6102876102823660046140d3565b610586565b6040516102419190614777565b61026761059d565b6102af6102aa366004614299565b6105a3565b604051610241919061473f565b6102676106c7565b6102876102d236600461401e565b6106eb565b6102df610761565b6040516102419190614886565b6102ff6102fa36600461461c565b61076a565b005b6102676107e1565b6102676107f0565b61028761031f3660046140d3565b610814565b610267610332366004614604565b61084f565b61033f6109a8565b604051610241929190614878565b61036061035b366004614604565b6109d2565b604051610241979695949392919061478b565b610267610a1a565b61038e6103893660046141ca565b610a3e565b60405161024191906146b9565b610267610af5565b6102676103b1366004613fca565b610b19565b6103c96103c43660046143de565b610b34565b604051610241929190614752565b6102676103e5366004613fca565b610dc7565b610234610de2565b610252610e06565b61026761040836600461450d565b610e67565b61028761041b3660046140d3565b611143565b61026761042e366004614604565b611181565b6102876104413660046140d3565b6115a4565b6102676104543660046144db565b6115b1565b610267611646565b61026761164b565b6102ff61047736600461405e565b61166f565b6103c961048a3660046143de565b6117df565b61026761049d366004613fe6565b611b50565b610267611b7b565b6102676104b8366004614604565b611b9f565b610267611ceb565b7f000000000000000000000000000000000000000000000000000000000000000081565b60038054604080516020601f60026000196101006001881615020190951694909404938401819004810282018101909252828152606093909290918301828280156105755780601f1061054a57610100808354040283529160200191610575565b820191906000526020600020905b81548152906001019060200180831161055857829003601f168201915b5050505050905090565b620f424081565b6000610593338484611d07565b5060015b92915050565b60025490565b6060815167ffffffffffffffff811180156105bd57600080fd5b506040519080825280602002602001820160405280156105e7578160200160208202803683370190505b50905060006105f4611d69565b905060005b83518110156106c05773cBe8c43a6e3bE093489b5b1bfF2E851D01D451f66379eaef82600786848151811061062a57fe5b6020026020010151856040518463ffffffff1660e01b815260040161065193929190614803565b60206040518083038186803b15801561066957600080fd5b505af415801561067d573d6000803e3d6000fd5b505050506040513d601f19601f820116820180604052508101906106a191906144f5565b8382815181106106ad57fe5b60209081029190910101526001016105f9565b5050919050565b7f000000000000000000000000000000000000000000000000000000000000000081565b6000806106f88533611b50565b905061071c336001600160a01b03871614806107145750838210155b61019e611d73565b610727858585611d85565b336001600160a01b0386161480159061074257506000198114155b15610754576107548533858403611d07565b60019150505b9392505050565b60055460ff1690565b610784818310801561077d575060148211155b6064611d73565b60006107996001600080600080600080611e6d565b9050825b828110156107db576000818152600760205260409020546107bd90611ecd565b6107d35760008181526007602052604090208290555b60010161079d565b50505050565b60006107eb611ed9565b905090565b7f000000000000000000000000000000000000000000000000000000000000000090565b3360008181526001602090815260408083206001600160a01b0387168452909152812054909161059391859061084a9086611f97565b611d07565b60007f00000000000000000000000000000000000000000000000000000000000000004210610880575060006109a3565b6109a0670de0b6b3a764000061099a6108e7427f00000000000000000000000000000000000000000000000000000000000000000383026108e1847f0000000000000000000000000000000000000000000000000000000000000000611fa9565b90611fa9565b6109946109857f00000000000000000000000000000000000000000000000000000000000000006001600160a01b031663226778496040518163ffffffff1660e01b815260040160206040518083038186803b15801561094657600080fd5b505afa15801561095a573d6000803e3d6000fd5b505050506040513d601f19601f8201168201806040525081019061097e91906144f5565b8890611ffa565b670de0b6b3a764000090611fa9565b90612030565b90611cf1565b90505b919050565b7f000000000000000000000000000000000000000000000000000000000000000090600182900390565b60008060008060008060006109ec6014891061013b611d73565b60006109f78961207f565b9050610a0281612091565b959f949e50929c50909a509850965090945092505050565b7f000000000000000000000000000000000000000000000000000000000000000081565b6060815167ffffffffffffffff81118015610a5857600080fd5b50604051908082528060200260200182016040528015610a82578160200160208202803683370190505b5090506000610a8f611d69565b9050610a99613e93565b60005b8451811015610aed57848181518110610ab157fe5b60200260200101519150610ace82600001518484602001516120f4565b848281518110610ada57fe5b6020908102919091010152600101610a9c565b505050919050565b7f000000000000000000000000000000000000000000000000000000000000000081565b6001600160a01b031660009081526020819052604090205490565b60608088610b5e610b43610de2565b6001600160a01b0316336001600160a01b031614606461218d565b610b72610b696107f0565b8214606761218d565b610b7b8761219b565b610bef86887f000000000000000000000000000000000000000000000000000000000000000081518110610bab57fe5b6020026020010151897f000000000000000000000000000000000000000000000000000000000000000060010381518110610be257fe5b602002602001015161229b565b8415610c2857610c287f0000000000000000000000000000000000000000000000000000000000000000610c23898861241b565b6125e4565b600084806020019051810190610c3e91906144f5565b6040805160028082526060808301845293945090916020830190803683370190505090506000610c6c61059d565b9050610c9f81610c99858d600081518110610c8357fe5b60200260200101516125ee90919063ffffffff16565b90612632565b82600081518110610cac57fe5b602002602001018181525050610ccd81610c99858d600181518110610c8357fe5b82600181518110610cda57fe5b602002602001018181525050610cf08c84612674565b610d2b82600081518110610d0057fe5b60200260200101518b600081518110610d1557fe5b6020026020010151611cf190919063ffffffff16565b8a600081518110610d3857fe5b602002602001018181525050610d6982600181518110610d5457fe5b60200260200101518b600181518110610d1557fe5b8a600181518110610d7657fe5b602002602001018181525050610d8b8a61267e565b610d9482612840565b604080516002808252606082018352849260208301908036833701905050955095505050505b5097509795505050505050565b6001600160a01b031660009081526006602052604090205490565b7f000000000000000000000000000000000000000000000000000000000000000090565b60048054604080516020601f60026000196101006001881615020190951694909404938401819004810282018101909252828152606093909290918301828280156105755780601f1061054a57610100808354040283529160200191610575565b6000807f00000000000000000000000000000000000000000000000000000000000000006001600160a01b031685602001516001600160a01b031614610ed0577f0000000000000000000000000000000000000000000000000000000000000000600114610ef3565b7f0000000000000000000000000000000000000000000000000000000000000000155b90506000610f0082612936565b90506000610f0e8315612936565b9050610f1a868361298a565b9550610f26858261298a565b9450610f30610de2565b6001600160a01b0316336001600160a01b03161415610f7057610f708760a0015184610f5c5786610f5e565b875b85610f695788610f6b565b875b61229b565b60007f00000000000000000000000000000000000000000000000000000000000000006001600160a01b031663f51e181a6040518163ffffffff1660e01b8152600401602060405180830381600087803b158015610fcd57600080fd5b505af1158015610fe1573d6000803e3d6000fd5b505050506040513d601f19601f8201168201806040525081019061100591906144f5565b9050831561103d5761101f61101861059d565b8890611f97565b965061103660085487611ffa90919063ffffffff16565b9550611062565b60085461104b908890611ffa565b965061105f61105861059d565b8790611f97565b95505b60008851600181111561107157fe5b14156110e35761108588606001518461298a565b6060890152836110a457606088015161109e9082611ffa565b60608901525b60006110b88560018b606001518b8b612996565b905084156110cd576110ca8183611fa9565b90505b6110d78184612b77565b9550505050505061075a565b6110f188606001518361298a565b6060890152831561111157606088015161110b9082611ffa565b60608901525b60006111258560008b606001518b8b612996565b905084611139576111368183611fa9565b90505b6110d78185612b8a565b6000806111503385611b50565b905080831061116a5761116533856000611d07565b611177565b6111773385858403611d07565b5060019392505050565b60408051600180825281830190925260009160609190816020015b6111a4613eaa565b81526020019060019003908161119c5790505060408051606081019091529091508060008152602001848152602001610e10815250816000815181106111e657fe5b60209081029190910101526040516301dccd8360e41b81526060903090631dccd830906112179085906004016146fd565b60006040518083038186803b15801561122f57600080fd5b505afa158015611243573d6000803e3d6000fd5b505050506040513d6000823e601f3d908101601f1916820160405261126b9190810190614366565b905060007f00000000000000000000000000000000000000000000000000000000000000006001146112cb576112c6826000815181106112a757fe5b6020026020010151670de0b6b3a7640000611fa990919063ffffffff16565b6112e1565b816000815181106112d857fe5b60200260200101515b905060006112ee8261084f565b905060607f00000000000000000000000000000000000000000000000000000000000000006001600160a01b031663f94d46687f00000000000000000000000000000000000000000000000000000000000000006040518263ffffffff1660e01b815260040161135e9190614782565b60006040518083038186803b15801561137657600080fd5b505afa15801561138a573d6000803e3d6000fd5b505050506040513d6000823e601f3d908101601f191682016040526113b291908101906140fe565b509150506000427f0000000000000000000000000000000000000000000000000000000000000000116113e6576000611414565b670de0b6b3a7640000427f000000000000000000000000000000000000000000000000000000000000000003025b9050600061144a6114457f000000000000000000000000000000000000000000000000000000000000000084611ffa565b612b96565b905060006114f76114a083610994600854887f00000000000000000000000000000000000000000000000000000000000000006001038151811061148a57fe5b6020026020010151611ffa90919063ffffffff16565b6114f1846109946114af61059d565b897f0000000000000000000000000000000000000000000000000000000000000000815181106114db57fe5b6020026020010151611f9790919063ffffffff16565b90611f97565b90506000611535611510670de0b6b3a764000085611fa9565b61099461152e670de0b6b3a76400006114f16109858985848f611f97565b8590611fa9565b9050600061156161155a611551670de0b6b3a76400008a611f97565b60085490611ffa565b8390611fa9565b905061159461156e61059d565b6108e161158d8b61158761158061059d565b8890611cf1565b90611ffa565b8490611f97565b9c9b505050505050505050505050565b6000610593338484611d85565b600073cBe8c43a6e3bE093489b5b1bfF2E851D01D451f6630397bee06007846115d8611d69565b6040518463ffffffff1660e01b81526004016115f6939291906147bb565b60206040518083038186803b15801561160e57600080fd5b505af4158015611622573d6000803e3d6000fd5b505050506040513d601f19601f820116820180604052508101906109a091906144f5565b601490565b7f000000000000000000000000000000000000000000000000000000000000000081565b61167d8442111560d1611d73565b6001600160a01b0380881660008181526006602090815260408083205481517f00000000000000000000000000000000000000000000000000000000000000008185015280830195909552948b166060850152608084018a905260a0840185905260c08085018a90528151808603909101815260e0909401905282519201919091209061170982612bbc565b9050600060018288888860405160008152602001604052604051808581526020018460ff1681526020018381526020018281526020019450505050506020604051602081039080840390855afa158015611767573d6000803e3d6000fd5b5050604051601f19015191506117a990506001600160a01b038216158015906117a157508b6001600160a01b0316826001600160a01b0316145b6101f8611d73565b6001600160a01b038b1660009081526006602052604090206001850190556117d28b8b8b611d07565b5050505050505050505050565b606080886117ee610b43610de2565b6117f9610b696107f0565b611827427f00000000000000000000000000000000000000000000000000000000000000001015606961218d565b606060008580602001905181019061183f9190614399565b9150915061184c8961219b565b6118558261219b565b61185d61059d565b6119e65760007f00000000000000000000000000000000000000000000000000000000000000006001600160a01b031663f51e181a6040518163ffffffff1660e01b8152600401602060405180830381600087803b1580156118be57600080fd5b505af11580156118d2573d6000803e3d6000fd5b505050506040513d601f19601f820116820180604052508101906118f691906144f5565b9050600061192d82857f00000000000000000000000000000000000000000000000000000000000000006001038151811061148a57fe5b905061193d6000620f42406125e4565b600061194c82620f4240611cf1565b90506119588d826125e4565b61196684821015606c61218d565b61196f85612c08565b82600881905550847f0000000000000000000000000000000000000000000000000000000000000000815181106119a257fe5b602002602001016000815250849b506119ba8c61267e565b604080516002808252606082018352879260208301908036833701905050975097505050505050610dba565b611a4d888a7f000000000000000000000000000000000000000000000000000000000000000081518110611a1657fe5b60200260200101518b7f000000000000000000000000000000000000000000000000000000000000000060010381518110610be257fe5b8615611a8157611a817f0000000000000000000000000000000000000000000000000000000000000000610c238b8a61241b565b60006060611a8f848c612cca565b91509150611aa183831015606c61218d565b611aab8c836125e4565b80600081518110611ab857fe5b60200260200101518b600081518110611acd57fe5b60200260200101818151019150818152505080600181518110611aec57fe5b60200260200101518b600181518110611b0157fe5b602002602001018181510191508181525050611b1c8b61267e565b611b2581612c08565b6040805160028082526060820183528392602083019080368337019050509650965050505050610dba565b6001600160a01b03918216600090815260016020908152604080832093909416825291909152205490565b7f000000000000000000000000000000000000000000000000000000000000000081565b60007f00000000000000000000000000000000000000000000000000000000000000004210611bd75750670de0b6b3a76400006109a3565b6109a07f00000000000000000000000000000000000000000000000000000000000000006001600160a01b031663226778496040518163ffffffff1660e01b815260040160206040518083038186803b158015611c3357600080fd5b505afa158015611c47573d6000803e3d6000fd5b505050506040513d601f19601f82011682018060405250810190611c6b91906144f5565b6108e1610985611cd9611ca6670de0b6b3a76400007f0000000000000000000000000000000000000000000000000000000000000000611fa9565b427f000000000000000000000000000000000000000000000000000000000000000003670de0b6b3a76400000290611fa9565b61099487670de0b6b3a7640000611f97565b615da890565b6000611d01838311156001611d73565b50900390565b6001600160a01b03808416600081815260016020908152604080832094871680845294825291829020859055815185815291517f8c5be1e5ebec7d5bd14f71427d1e84f3dd0314c0f7b2291e5b200ac8c7c3b9259281900390910190a3505050565b600b5461ffff1690565b81611d8157611d8181613012565b5050565b611d9c6001600160a01b0384161515610198611d73565b611db36001600160a01b0383161515610199611d73565b611dbe838383612416565b6001600160a01b038316600090815260208190526040902054611de490826101a0613065565b6001600160a01b038085166000908152602081905260408082209390935590841681522054611e139082611f97565b6001600160a01b038084166000818152602081815260409182902094909455805185815290519193928716927fddf252ad1be2c89b69c2b068fc378daa952ba7f163c4a11628f55a4df523b3ef92918290030190a3505050565b6000611e79828261307b565b611e8484601f61307f565b611e8f866054613090565b611e9a88606a61307f565b611ea58a609f613090565b611eb08c60b561307f565b611ebb8e60ea613090565b17171717171798975050505050505050565b60006109a0828261309d565b60007f00000000000000000000000000000000000000000000000000000000000000007f00000000000000000000000000000000000000000000000000000000000000007f0000000000000000000000000000000000000000000000000000000000000000611f466130a7565b3060405160200180868152602001858152602001848152602001838152602001826001600160a01b031681526020019550505050505060405160208183030381529060405280519060200120905090565b600082820161075a8482101583611d73565b6000611fb88215156004611d73565b82611fc557506000610597565b670de0b6b3a764000083810290611fe890858381611fdf57fe5b04146005611d73565b828181611ff157fe5b04915050610597565b600082820261201e84158061201757508385838161201457fe5b04145b6003611d73565b670de0b6b3a764000090049392505050565b60008061203d84846130ab565b90506000612057612050836127106125ee565b6001611f97565b90508082101561206c57600092505050610597565b6120768282611cf1565b92505050610597565b60009081526007602052604090205490565b60008060008060008060006120a5886131b6565b96506120b0886131c3565b95506120bb886131d0565b94506120c6886131dd565b93506120d1886131ea565b92506120dc886131f7565b91506120e788611ecd565b9050919395979092949650565b6040516334171a8560e01b815260009073cBe8c43a6e3bE093489b5b1bfF2E851D01D451f6906334171a8590612135906007908890889088906004016147dd565b60206040518083038186803b15801561214d57600080fd5b505af4158015612161573d6000803e3d6000fd5b505050506040513d601f19601f8201168201806040525081019061218591906144f5565b949350505050565b81611d8157611d8181613204565b6121e1817f0000000000000000000000000000000000000000000000000000000000000000815181106121ca57fe5b60200260200101516121dc6001612936565b613258565b817f00000000000000000000000000000000000000000000000000000000000000008151811061220d57fe5b60200260200101818152505061225d817f00000000000000000000000000000000000000000000000000000000000000006001038151811061224b57fe5b60200260200101516121dc6000612936565b817f00000000000000000000000000000000000000000000000000000000000000006001038151811061228c57fe5b60200260200101818152505050565b600b546601000000000000900460ff1680156122b657508243115b80156122c95750662386f26fc100008110155b156124165760006122fa6122e860085484611ffa90919063ffffffff16565b6108e16122f361059d565b8690611f97565b9050670de0b6b3a764000081106123225761231d81670de0b6b3a7640000611cf1565b612325565b60005b9050600061233282611b9f565b905060007f0000000000000000000000000000000000000000000000000000000000000000156123625781612374565b612374670de0b6b3a764000083611fa9565b600b549091506000906123d99063ffffffff620100008204169061ffff1661239b85613272565b620f424088106123b3576123ae88613272565b6123bf565b6123bf620f4240613272565b600b546701000000000000009004601890810b900b6132b2565b600b5490915061ffff16811461241157600b805465ffffffff00001916620100004263ffffffff16021761ffff191661ffff83161790555b505050505b505050565b600080427f00000000000000000000000000000000000000000000000000000000000000001161244c57600061247a565b670de0b6b3a7640000427f000000000000000000000000000000000000000000000000000000000000000003025b905060006124ab6114457f000000000000000000000000000000000000000000000000000000000000000084611ffa565b905060006124d46124c783600a5461203090919063ffffffff16565b6009546114f19085612030565b90506000612513836109946124e761059d565b8a7f0000000000000000000000000000000000000000000000000000000000000000815181106114db57fe5b90506000612550846109946008548b7f00000000000000000000000000000000000000000000000000000000000000006001038151811061148a57fe5b9050600061255e8383611f97565b90508381116125765760009650505050505050610597565b600061259761258d670de0b6b3a764000088611fa9565b6109948488611fa9565b905060006125bb826108e16125b482670de0b6b3a7640000611cf1565b8d90611ffa565b90506125d56125c982612b96565b6108e18361158761059d565b9b9a5050505050505050505050565b611d81828261330a565b600082820261260884158061201757508385838161201457fe5b80612617576000915050610597565b670de0b6b3a764000060001982015b04600101915050610597565b60006126418215156004611d73565b8261264e57506000610597565b670de0b6b3a76400008381029061266890858381611fdf57fe5b82600182038161262657fe5b611d81828261339f565b60006126b761268b61059d565b837f0000000000000000000000000000000000000000000000000000000000000000815181106114db57fe5b905060006126f0600854847f00000000000000000000000000000000000000000000000000000000000000006001038151811061148a57fe5b90506000807f000000000000000000000000000000000000000000000000000000000000000061272457508290508161272a565b50819050825b600b546601000000000000900460ff1615612832576000427f00000000000000000000000000000000000000000000000000000000000000001161276f57600061279d565b670de0b6b3a7640000427f000000000000000000000000000000000000000000000000000000000000000003025b905060006127ce6114457f000000000000000000000000000000000000000000000000000000000000000084611ffa565b90506127ef6127ea6127e08584612030565b6114f18785612030565b613272565b600b805460189290920b78ffffffffffffffffffffffffffffffffffffffffffffffffff166701000000000000000266ffffffffffffff90921691909117905550505b600991909155600a55505050565b61284a6001612936565b817f00000000000000000000000000000000000000000000000000000000000000008151811061287657fe5b60200260200101518161288557fe5b04817f0000000000000000000000000000000000000000000000000000000000000000815181106128b257fe5b6020026020010181815250506128c86000612936565b817f0000000000000000000000000000000000000000000000000000000000000000600103815181106128f757fe5b60200260200101518161290657fe5b04817f00000000000000000000000000000000000000000000000000000000000000006001038151811061228c57fe5b600081612963577f00000000000000000000000000000000000000000000000000000000000000006109a0565b507f0000000000000000000000000000000000000000000000000000000000000000919050565b600061075a8383613258565b600080427f0000000000000000000000000000000000000000000000000000000000000000116129c75760006129f5565b670de0b6b3a7640000427f000000000000000000000000000000000000000000000000000000000000000003025b90506000612a237f000000000000000000000000000000000000000000000000000000000000000083611ffa565b90506000612a81611445838b612a59577f0000000000000000000000000000000000000000000000000000000000000000612a7b565b7f00000000000000000000000000000000000000000000000000000000000000005b906125ee565b90506000612a8f8783613456565b90506000612a9d8784613456565b905060008a612ab557612ab0888b611cf1565b612ab9565b8989015b90506000612ac78286612030565b90506000612af4612ae0670de0b6b3a764000088611fa9565b612aee8461099a8989611f97565b90613456565b9050612b0c8d1580612b055750818b115b606a61218d565b8c15612b4857612b2f8e612b235781841115612b28565b818410155b606b61218d565b612b398a82611cf1565b98505050505050505050612b6e565b612b648e612b595783821115612b28565b83821015606b61218d565b612b39818c611cf1565b95945050505050565b6000818381612b8257fe5b049392505050565b600061075a8383613482565b6000670de0b6b3a76400008210612bae5760006109a0565b50670de0b6b3a76400000390565b6000612bc6611ed9565b82604051602001808061190160f01b81525060020183815260200182815260200192505050604051602081830303815290604052805190602001209050919050565b612c4e817f000000000000000000000000000000000000000000000000000000000000000081518110612c3757fe5b6020026020010151612c496001612936565b613482565b817f000000000000000000000000000000000000000000000000000000000000000081518110612c7a57fe5b60200260200101818152505061225d817f000000000000000000000000000000000000000000000000000000000000000060010381518110612cb857fe5b6020026020010151612c496000612936565b60006060600080847f000000000000000000000000000000000000000000000000000000000000000081518110612cfd57fe5b6020026020010151857f000000000000000000000000000000000000000000000000000000000000000060010381518110612d3457fe5b6020026020010151915091506060600267ffffffffffffffff81118015612d5a57600080fd5b50604051908082528060200260200182016040528015612d84578160200160208202803683370190505b50905082612e29576000877f000000000000000000000000000000000000000000000000000000000000000060010381518110612dbd57fe5b602002602001015190506000612dde60085483611ffa90919063ffffffff16565b905081837f000000000000000000000000000000000000000000000000000000000000000060010381518110612e1057fe5b6020908102919091010152955090935061300b92505050565b600080887f000000000000000000000000000000000000000000000000000000000000000081518110612e5857fe5b6020026020010151897f000000000000000000000000000000000000000000000000000000000000000060010381518110612e8f57fe5b6020026020010151915091506000612ea561059d565b9050600085612eb48385613258565b81612ebb57fe5b049050600087612ecb8487613258565b81612ed257fe5b04905080821015612f745786612ee88986613258565b81612eef57fe5b04867f000000000000000000000000000000000000000000000000000000000000000081518110612f1c57fe5b60200260200101818152505083867f000000000000000000000000000000000000000000000000000000000000000060010381518110612f5857fe5b602090810291909101015250975092955061300b945050505050565b84867f000000000000000000000000000000000000000000000000000000000000000081518110612fa157fe5b60200260200101818152505087612fb88887613258565b81612fbf57fe5b04867f000000000000000000000000000000000000000000000000000000000000000060010381518110612fef57fe5b6020908102919091010152985093965061300b95505050505050565b9250929050565b62461bcd60e51b6000908152602060045260076024526642414c23000030600a808404818106603090810160081b95839006959095019082900491820690940160101b939093010160c81b604452606490fd5b60006130748484111583611d73565b5050900390565b1b90565b661fffffffffffff91909116901b90565b623fffff91909116901b90565b1c637fffffff1690565b4690565b6000816130c15750670de0b6b3a7640000610597565b826130ce57506000610597565b6130df600160ff1b84106006611d73565b82613105770bce5086492111aea88f4bb1ca6bcf584181ea8059f7653284106007611d73565b826000670c7d713b49da0000831380156131265750670f43fc2c04ee000083125b1561315d576000613136846134b5565b9050670de0b6b3a764000080820784020583670de0b6b3a76400008305020191505061316b565b81613167846135dc565b0290505b670de0b6b3a764000090056131a3680238fd42c5cf03ffff19821280159061319c575068070c1cc73b00c800008213155b6008611d73565b6131ac8161397c565b9695505050505050565b60006109a08260ea613d5a565b60006109a08260b5613d81565b60006109a082609f613d5a565b60006109a082606a613d81565b60006109a0826054613d5a565b60006109a082601f613d81565b62461bcd60e51b600090815260206004526007602452673f534e5323000030600a808404818106603090810160081b95839006959095019082900491820690940160101b939093010160c81b604452606490fd5b600082820261075a84158061201757508385838161201457fe5b60008061327e83613db4565b9050600080821361329757652d79883d200082036132a1565b652d79883d200082015b655af3107a40009005949350505050565b6000806132ce858585426132c58b61207f565b93929190613e10565b90506104b0428890031015806132e457866132ed565b6132ed87613e70565b600081815260076020526040902092909255509695505050505050565b61331660008383612416565b6002546133239082611f97565b6002556001600160a01b0382166000908152602081905260409020546133499082611f97565b6001600160a01b0383166000818152602081815260408083209490945583518581529351929391927fddf252ad1be2c89b69c2b068fc378daa952ba7f163c4a11628f55a4df523b3ef9281900390910190a35050565b6133b66001600160a01b038316151561019b611d73565b6133c282600083612416565b6001600160a01b0382166000908152602081905260409020546133e890826101a1613065565b6001600160a01b03831660009081526020819052604090205560025461340e9082613e7d565b6002556040805182815290516000916001600160a01b038516917fddf252ad1be2c89b69c2b068fc378daa952ba7f163c4a11628f55a4df523b3ef9181900360200190a35050565b60008061346384846130ab565b90506000613476612050836127106125ee565b9050612b6e8282611f97565b60006134918215156004611d73565b8261349e57506000610597565b8160018403816134aa57fe5b046001019050610597565b670de0b6b3a7640000026000806ec097ce7bc90715b34b9f1000000000808401906ec097ce7bc90715b34b9f0fffffffff19850102816134f157fe5b05905060006ec097ce7bc90715b34b9f100000000082800205905081806ec097ce7bc90715b34b9f100000000081840205915060038205016ec097ce7bc90715b34b9f100000000082840205915060058205016ec097ce7bc90715b34b9f100000000082840205915060078205016ec097ce7bc90715b34b9f100000000082840205915060098205016ec097ce7bc90715b34b9f1000000000828402059150600b8205016ec097ce7bc90715b34b9f1000000000828402059150600d8205016ec097ce7bc90715b34b9f1000000000828402059150600f826002919005919091010295945050505050565b6000670de0b6b3a76400008212156136195761360f826ec097ce7bc90715b34b9f10000000008161360957fe5b056135dc565b60000390506109a3565b60007e1600ef3172e58d2e933ec884fde10064c63b5372d805e203c0000000000000831261366a57770195e54c5dd42177f53a27172fa9ec630262827000000000830592506806f05b59d3b2000000015b73011798004d755d3c8bc8e03204cf44619e00000083126136a2576b1425982cf597cd205cef7380830592506803782dace9d9000000015b606492830292026e01855144814a7ff805980ff008400083126136ea576e01855144814a7ff805980ff008400068056bc75e2d63100000840205925068ad78ebc5ac62000000015b6b02df0ab5a80a22c61ab5a7008312613725576b02df0ab5a80a22c61ab5a70068056bc75e2d6310000084020592506856bc75e2d631000000015b693f1fce3da636ea5cf850831261375c57693f1fce3da636ea5cf85068056bc75e2d631000008402059250682b5e3af16b18800000015b690127fa27722cc06cc5e2831261379357690127fa27722cc06cc5e268056bc75e2d6310000084020592506815af1d78b58c400000015b68280e60114edb805d0383126137c85768280e60114edb805d0368056bc75e2d631000008402059250680ad78ebc5ac6200000015b680ebc5fb4174612111083126137f357680ebc5fb4174612111068056bc75e2d631000009384020592015b6808f00f760a4b2db55d8312613828576808f00f760a4b2db55d68056bc75e2d6310000084020592506802b5e3af16b1880000015b6806f5f1775788937937831261385d576806f5f177578893793768056bc75e2d63100000840205925068015af1d78b58c40000015b6806248f33704b2866038312613891576806248f33704b28660368056bc75e2d63100000840205925067ad78ebc5ac620000015b6805c548670b9510e7ac83126138c5576805c548670b9510e7ac68056bc75e2d6310000084020592506756bc75e2d6310000015b600068056bc75e2d63100000840168056bc75e2d6310000080860302816138e857fe5b059050600068056bc75e2d63100000828002059050818068056bc75e2d63100000818402059150600382050168056bc75e2d63100000828402059150600582050168056bc75e2d63100000828402059150600782050168056bc75e2d63100000828402059150600982050168056bc75e2d63100000828402059150600b820501600202606485820105979650505050505050565b60006139ab680238fd42c5cf03ffff1983121580156139a4575068070c1cc73b00c800008313155b6009611d73565b60008212156139df576139c08260000361397c565b6ec097ce7bc90715b34b9f1000000000816139d757fe5b0590506109a3565b60006806f05b59d3b20000008312613a1f57506806f05b59d3b1ffffff1990910190770195e54c5dd42177f53a27172fa9ec630262827000000000613a55565b6803782dace9d90000008312613a5157506803782dace9d8ffffff19909101906b1425982cf597cd205cef7380613a55565b5060015b6064929092029168056bc75e2d6310000068ad78ebc5ac620000008412613aa55768ad78ebc5ac61ffffff199093019268056bc75e2d631000006e01855144814a7ff805980ff008400082020590505b6856bc75e2d6310000008412613ae1576856bc75e2d630ffffff199093019268056bc75e2d631000006b02df0ab5a80a22c61ab5a70082020590505b682b5e3af16b188000008412613b1b57682b5e3af16b187fffff199093019268056bc75e2d63100000693f1fce3da636ea5cf85082020590505b6815af1d78b58c4000008412613b55576815af1d78b58c3fffff199093019268056bc75e2d63100000690127fa27722cc06cc5e282020590505b680ad78ebc5ac62000008412613b8e57680ad78ebc5ac61fffff199093019268056bc75e2d6310000068280e60114edb805d0382020590505b68056bc75e2d631000008412613bc75768056bc75e2d630fffff199093019268056bc75e2d63100000680ebc5fb4174612111082020590505b6802b5e3af16b18800008412613c00576802b5e3af16b187ffff199093019268056bc75e2d631000006808f00f760a4b2db55d82020590505b68015af1d78b58c400008412613c395768015af1d78b58c3ffff199093019268056bc75e2d631000006806f5f177578893793782020590505b68056bc75e2d631000008481019085906002908280020505918201919050600368056bc75e2d631000008783020505918201919050600468056bc75e2d631000008783020505918201919050600568056bc75e2d631000008783020505918201919050600668056bc75e2d631000008783020505918201919050600768056bc75e2d631000008783020505918201919050600868056bc75e2d631000008783020505918201919050600968056bc75e2d631000008783020505918201919050600a68056bc75e2d631000008783020505918201919050600b68056bc75e2d631000008783020505918201919050600c68056bc75e2d631000008783020505918201919050606468056bc75e2d63100000848402058502059695505050505050565b600082821c623fffff16621fffff8113613d745780612185565b623fffff19179392505050565b600082821c661fffffffffffff16660fffffffffffff8113613da35780612185565b661fffffffffffff19179392505050565b6000613dc4600083136064611d73565b670c7d713b49da000082138015613de25750670f43fc2c04ee000082125b15613e0057670de0b6b3a7640000613df9836134b5565b816139d757fe5b613e09826135dc565b90506109a3565b600080613e1c87611ecd565b830390506000818702613e2e896131c3565b0190506000828702613e3f8a6131dd565b0190506000838702613e508b6131f7565b019050613e6289848a858b868c611e6d565b9a9950505050505050505050565b60006109a0826001613e8b565b600061075a83836001613065565b601491010690565b604080518082019091526000808252602082015290565b6040805160608101909152806000815260200160008152602001600081525090565b80356109a3816148d6565b600082601f830112613ee7578081fd5b8151613efa613ef5826148b8565b614894565b818152915060208083019084810181840286018201871015613f1b57600080fd5b60005b84811015613f3a57815184529282019290820190600101613f1e565b505050505092915050565b600082601f830112613f55578081fd5b813567ffffffffffffffff811115613f6957fe5b613f7c601f8201601f1916602001614894565b9150808252836020828501011115613f9357600080fd5b8060208401602084013760009082016020015292915050565b8035600281106109a357600080fd5b8035600381106109a357600080fd5b600060208284031215613fdb578081fd5b813561075a816148d6565b60008060408385031215613ff8578081fd5b8235614003816148d6565b91506020830135614013816148d6565b809150509250929050565b600080600060608486031215614032578081fd5b833561403d816148d6565b9250602084013561404d816148d6565b929592945050506040919091013590565b600080600080600080600060e0888a031215614078578485fd5b8735614083816148d6565b96506020880135614093816148d6565b95506040880135945060608801359350608088013560ff811681146140b6578384fd5b9699959850939692959460a0840135945060c09093013592915050565b600080604083850312156140e5578182fd5b82356140f0816148d6565b946020939093013593505050565b600080600060608486031215614112578081fd5b835167ffffffffffffffff80821115614129578283fd5b818601915086601f83011261413c578283fd5b815161414a613ef5826148b8565b80828252602080830192508086018b82838702890101111561416a578788fd5b8796505b84871015614195578051614181816148d6565b84526001969096019592810192810161416e565b5089015190975093505050808211156141ac578283fd5b506141b986828701613ed7565b925050604084015190509250925092565b600060208083850312156141dc578182fd5b823567ffffffffffffffff808211156141f3578384fd5b818501915085601f830112614206578384fd5b8135614214613ef5826148b8565b818152848101908486016040808502870188018b1015614232578889fd5b8896505b8487101561428a5780828c03121561424c578889fd5b8051818101818110888211171561425f57fe5b825261426a83613fbb565b815282890135898201528452600196909601959287019290810190614236565b50909998505050505050505050565b600060208083850312156142ab578182fd5b823567ffffffffffffffff808211156142c2578384fd5b818501915085601f8301126142d5578384fd5b81356142e3613ef5826148b8565b818152848101908486016060808502870188018b1015614301578889fd5b8896505b8487101561428a5780828c03121561431b578889fd5b60408051828101818110898211171561433057fe5b825261433b84613fbb565b8152838a01358a82015281840135918101919091528452600196909601959287019290810190614305565b600060208284031215614377578081fd5b815167ffffffffffffffff81111561438d578182fd5b61218584828501613ed7565b600080604083850312156143ab578182fd5b825167ffffffffffffffff8111156143c1578283fd5b6143cd85828601613ed7565b925050602083015190509250929050565b600080600080600080600060e0888a0312156143f8578081fd5b8735965060208089013561440b816148d6565b9650604089013561441b816148d6565b9550606089013567ffffffffffffffff80821115614437578384fd5b818b0191508b601f83011261444a578384fd5b8135614458613ef5826148b8565b8082825285820191508585018f878886028801011115614476578788fd5b8795505b8386101561449857803583526001959095019491860191860161447a565b509850505060808b0135955060a08b0135945060c08b01359250808311156144be578384fd5b50506144cc8a828b01613f45565b91505092959891949750929550565b6000602082840312156144ec578081fd5b61075a82613fbb565b600060208284031215614506578081fd5b5051919050565b600080600060608486031215614521578081fd5b833567ffffffffffffffff80821115614538578283fd5b818601915061012080838903121561454e578384fd5b61455781614894565b905061456283613fac565b815261457060208401613ecc565b602082015261458160408401613ecc565b6040820152606083013560608201526080830135608082015260a083013560a08201526145b060c08401613ecc565b60c08201526145c160e08401613ecc565b60e082015261010080840135838111156145d9578586fd5b6145e58a828701613f45565b9183019190915250976020870135975060409096013595945050505050565b600060208284031215614615578081fd5b5035919050565b6000806040838503121561462e578182fd5b50508035926020909101359150565b6000815180845260208085019450808401835b8381101561466c57815187529582019590820190600101614650565b509495945050505050565b6003811061468157fe5b9052565b614690828251614677565b60208181015190830152604090810151910152565b6001600160a01b0391909116815260200190565b6020808252825182820181905260009190848201906040850190845b818110156146f1578351835292840192918401916001016146d5565b50909695505050505050565b6020808252825182820181905260009190848201906040850190845b818110156146f15761472c838551614685565b9284019260609290920191600101614719565b60006020825261075a602083018461463d565b600060408252614765604083018561463d565b8281036020840152612b6e818561463d565b901515815260200190565b90815260200190565b968752602087019590955260408601939093526060850191909152608084015260a083015260c082015260e00190565b838152606081016147cf6020830185614677565b826040830152949350505050565b848152608081016147f16020830186614677565b60408201939093526060015292915050565b83815260a081016148176020830185614685565b826080830152949350505050565b6000602080835283518082850152825b8181101561485157858101830151858201604001528201614835565b818111156148625783604083870101525b50601f01601f1916929092016040019392505050565b918252602082015260400190565b60ff91909116815260200190565b60405181810167ffffffffffffffff811182821017156148b057fe5b604052919050565b600067ffffffffffffffff8211156148cc57fe5b5060209081020190565b6001600160a01b03811681146148eb57600080fd5b5056fea26469706673582212202a24ae2c04026307dd07d61bb838621230425fa12313ad62daef112aa7fb087164736f6c63430007050033a2646970667358221220d729be55272d3a4a8b54dd157a7d603815420f77734bee7b677c7d714f4fff3f64736f6c63430007050033",
  "deployedBytecode": "0x60806040523480156200001157600080fd5b5060043610620000e85760003560e01c8063756a24e4116200008d578063bdd8a3661162000063578063bdd8a36614620001cd578063e86d60bf14620001d7578063fbfa77cf14620001e157620000e8565b8063756a24e414620001865780638f38a555146200019f57806396d6487914620001b657620000e8565b8063378efa3711620000c3578063378efa37146200014c5780636970a92414620001565780636d605fcf146200016f57620000e8565b80630ecaea7314620000ed5780631393916a146200011c5780631852288b1462000135575b600080fd5b62000104620000fe36600462000836565b620001eb565b604051620001139190620008eb565b60405180910390f35b620001336200012d366004620007fd565b620003ad565b005b6200013362000146366004620008aa565b6200045c565b62000104620004ff565b6200016062000523565b6040516200011391906200096d565b620001336200018036600462000864565b62000529565b62000190620006b7565b60405162000113919062000918565b62000104620001b036600462000836565b620006c0565b62000190620001c7366004620007b8565b620006e6565b62000160620006fb565b6200016062000701565b6200010462000707565b6000807f00000000000000000000000000000000000000000000000000000000000000006001600160a01b031663d10eb4b985856040518363ffffffff1660e01b81526004016200023e929190620008ff565b602060405180830381600087803b1580156200025957600080fd5b505af11580156200026e573d6000803e3d6000fd5b505050506040513d601f19601f82011682018060405250810190620002949190620007de565b9050620002ae6001600160a01b0382161515606d6200072b565b6001600160a01b038481166000908152600160209081526040808320878452909152902054620002e291161560686200072b565b7f0000000000000000000000000000000000000000000000000000000000000000848483600254600354600454600560009054906101000a900460ff166040516200032d9062000794565b6200034098979695949392919062000923565b604051809103906000f0801580156200035d573d6000803e3d6000fd5b506001600160a01b03948516600090815260016020908152604080832096835295905293909320805473ffffffffffffffffffffffffffffffffffffffff19169484169490941790935550919050565b3360009081526020819052604090205460ff16620003fe576040805162461bcd60e51b8152602060048201526009602482015268155395149554d5115160ba1b604482015290519081900360640190fd5b6001600160a01b03821660008181526020818152604091829020805460ff1916851515908117909155825190815291517fe95aec380cae16330d146d5499ef7db6f3657e477104a733e771bc09e500d9869281900390910190a25050565b3360009081526020819052604090205460ff16620004ad576040805162461bcd60e51b8152602060048201526009602482015268155395149554d5115160ba1b604482015290519081900360640190fd5b620004c5670de0b6b3a764000084111560656200072b565b620004dd670de0b6b3a764000083101560666200072b565b6002939093556003919091556004556005805460ff1916911515919091179055565b7f000000000000000000000000000000000000000000000000000000000000000081565b60045481565b3360009081526020819052604090205460ff166200057a576040805162461bcd60e51b8152602060048201526009602482015268155395149554d5115160ba1b604482015290519081900360640190fd5b60405163d10eb4b960e01b81526200063b906000907f00000000000000000000000000000000000000000000000000000000000000006001600160a01b03169063d10eb4b990620005d29088908890600401620008ff565b602060405180830381600087803b158015620005ed57600080fd5b505af115801562000602573d6000803e3d6000fd5b505050506040513d601f19601f82011682018060405250810190620006289190620007de565b6001600160a01b03161415606d6200072b565b6001600160a01b0383811660009081526001602090815260408083208684529091529020546200066f91161560686200072b565b6001600160a01b03928316600090815260016020908152604080832094835293905291909120805473ffffffffffffffffffffffffffffffffffffffff191691909216179055565b60055460ff1681565b60016020908152600092835260408084209091529082529020546001600160a01b031681565b60006020819052908152604090205460ff1681565b60035481565b60025481565b7f000000000000000000000000000000000000000000000000000000000000000081565b816200073c576200073c8162000740565b5050565b62461bcd60e51b600090815260206004526007602452673f534e5323000030600a808404818106603090810160081b95839006959095019082900491820690940160101b939093010160c81b604452606490fd5b6155ef806200099083390190565b80358015158114620007b357600080fd5b919050565b600060208284031215620007ca578081fd5b8135620007d78162000976565b9392505050565b600060208284031215620007f0578081fd5b8151620007d78162000976565b6000806040838503121562000810578081fd5b82356200081d8162000976565b91506200082d60208401620007a2565b90509250929050565b6000806040838503121562000849578182fd5b8235620008568162000976565b946020939093013593505050565b60008060006060848603121562000879578081fd5b8335620008868162000976565b92506020840135915060408401356200089f8162000976565b809150509250925092565b60008060008060808587031215620008c0578081fd5b843593506020850135925060408501359150620008e060608601620007a2565b905092959194509250565b6001600160a01b0391909116815260200190565b6001600160a01b03929092168252602082015260400190565b901515815260200190565b6001600160a01b03988916815296881660208801526040870195909552929095166060850152608084015260a083019390935260c082019290925290151560e08201526101000190565b90815260200190565b6001600160a01b03811681146200098c57600080fd5b5056fe6102a06040527f6e71edae12b1b97f4d1f60370fef10105fa2faae0126114a169c64845d6126c960e0523480156200003657600080fd5b50604051620055ef380380620055ef833981016040819052620000599162000804565b846001600160a01b03166306fdde036040518163ffffffff1660e01b815260040160006040518083038186803b1580156200009357600080fd5b505afa158015620000a8573d6000803e3d6000fd5b505050506040513d6000823e601f3d908101601f19168201604052620000d2919081019062000898565b604051602001620000e4919062000959565b604051602081830303815290604052856001600160a01b03166395d89b416040518163ffffffff1660e01b815260040160006040518083038186803b1580156200012d57600080fd5b505afa15801562000142573d6000803e3d6000fd5b505050506040513d6000823e601f3d908101601f191682016040526200016c919081019062000898565b6040516020016200017e91906200098f565b6040516020818303038152906040528180604051806040016040528060018152602001603160f81b81525084848160039080519060200190620001c392919062000719565b508051620001d990600490602084019062000719565b50506005805460ff19166012179055508151602092830120608052805191012060a05250507f8b73c3c69bb8fe3d512ecc4cf759cc79239f7b179b0ffacaa9a75d522b39400f60c052506040516309b2760f60e01b81526000906001600160a01b038a16906309b2760f90620002559060029060040162000a59565b602060405180830381600087803b1580156200027057600080fd5b505af115801562000285573d6000803e3d6000fd5b505050506040513d601f19601f82011682018060405250810190620002ab9190620007eb565b90506000886001600160a01b031663d4b839926040518163ffffffff1660e01b815260040160206040518083038186803b158015620002e957600080fd5b505afa158015620002fe573d6000803e3d6000fd5b505050506040513d601f19601f82011682018060405250810190620003249190620007c5565b6040805160028082526060808301845293945090916020830190803683370190505090506000826001600160a01b0316896001600160a01b0316106200036c5760016200036f565b60005b60ff169050888282815181106200038257fe5b60200260200101906001600160a01b031690816001600160a01b03168152505082828260010381518110620003b357fe5b6001600160a01b03928316602091820292909201015260408051600280825260608201909252918e16916366a9c7d29187918691816020016020820280368337019050506040518463ffffffff1660e01b81526004016200041793929190620009bf565b600060405180830381600087803b1580156200043257600080fd5b505af115801562000447573d6000803e3d6000fd5b5050506001600160601b031960608e901b1661026052506101c0849052815182906000906200047257fe5b60200260200101516001600160a01b03166101e0816001600160a01b031660601b8152505081600181518110620004a557fe5b60200260200101516001600160a01b0316610200816001600160a01b031660601b815250508b6001600160a01b031663d2946c2b6040518163ffffffff1660e01b815260040160206040518083038186803b1580156200050457600080fd5b505afa15801562000519573d6000803e3d6000fd5b505050506040513d601f19601f820116820180604052508101906200053f9190620007c5565b6001600160a01b0316610280816001600160a01b031660601b81525050620005eb60128a6001600160a01b031663313ce5676040518163ffffffff1660e01b815260040160206040518083038186803b1580156200059c57600080fd5b505afa158015620005b1573d6000803e3d6000fd5b505050506040513d601f19601f82011682018060405250810190620005d7919062000936565b60ff166200069960201b62001cf11760201c565b600a0a6102208181525050620006366012846001600160a01b031663313ce5676040518163ffffffff1660e01b815260040160206040518083038186803b1580156200059c57600080fd5b600a0a61024052610180969096525050506101a091909152610160929092526101405260609390931b6001600160601b031916610100525061012052600b805460ff60301b19166601000000000000921515929092029190911790555062000aba565b6000620006ab838311156001620006b1565b50900390565b81620006c257620006c281620006c6565b5050565b62461bcd60e51b6000908152602060045260076024526642414c23000030600a808404818106603090810160081b95839006959095019082900491820690940160101b939093010160c81b604452606490fd5b828054600181600116156101000203166002900490600052602060002090601f0160209004810192826200075157600085556200079c565b82601f106200076c57805160ff19168380011785556200079c565b828001600101855582156200079c579182015b828111156200079c5782518255916020019190600101906200077f565b50620007aa929150620007ae565b5090565b5b80821115620007aa5760008155600101620007af565b600060208284031215620007d7578081fd5b8151620007e48162000aa1565b9392505050565b600060208284031215620007fd578081fd5b5051919050565b600080600080600080600080610100898b03121562000821578384fd5b88516200082e8162000aa1565b60208a0151909850620008418162000aa1565b60408a015160608b015191985096506200085b8162000aa1565b809550506080890151935060a0890151925060c0890151915060e0890151801515811462000887578182fd5b809150509295985092959890939650565b600060208284031215620008aa578081fd5b81516001600160401b0380821115620008c1578283fd5b818401915084601f830112620008d5578283fd5b815181811115620008e257fe5b604051601f8201601f1916810160200183811182821017156200090157fe5b60405281815283820160200187101562000919578485fd5b6200092c82602083016020870162000a6e565b9695505050505050565b60006020828403121562000948578081fd5b815160ff81168114620007e4578182fd5b60006b029b2b739b29029b830b1b2960a51b825282516200098281600c85016020870162000a6e565b91909101600c0192915050565b60006553504143452d60d01b82528251620009b281600685016020870162000a6e565b9190910160060192915050565b60006060820185835260206060818501528186518084526080860191508288019350845b8181101562000a0a5784516001600160a01b031683529383019391830191600101620009e3565b505084810360408601528551808252908201925081860190845b8181101562000a4b5782516001600160a01b03168552938301939183019160010162000a24565b509298975050505050505050565b602081016003831062000a6857fe5b91905290565b60005b8381101562000a8b57818101518382015260200162000a71565b8381111562000a9b576000848401525b50505050565b6001600160a01b038116811462000ab757600080fd5b50565b60805160a05160c05160e0516101005160601c610120516101405161016051610180516101a0516101c0516101e05160601c6102005160601c61022051610240516102605160601c6102805160601c61492462000ccb60003980610bfa5280611a58525080610de452806112f452508061293f52508061296652505080610e6c5250806107f25280611323525080610a1c5280612a5b52508061164d5280612a355250806108bd52806114205280611b7d5280611c82528061248652806127a952806129fe5250806109aa5280610af75280610b825280610bb65280610ea95280610ed25280611271528061145e52806114b25280611901528061197952806119ed5280611a2152806121a152806121e4528061221f5280612260528061233852806124ea5280612524528061268e52806126c452806126f7528061284d528061288952806128cb528061290a5280612c0e5280612c515280612c8c5280612cd45280612d085280612d915280612de45280612e2f5280612e635280612ef35280612f2c5280612f785280612fc35250806106c95280610853528061089552806113bb52806113f252806117ff5280611ba35280611ca9528061242152806124585280612744528061277b528061299c52806129d35250806104c752806108ef5280610f7452806118655280611bdc52508061169e525080611edd525080611f1f525080611efe52506149246000f3fe608060405234801561001057600080fd5b50600436106102275760003560e01c80636f48303111610130578063a9059cbb116100b8578063d5c096c41161007c578063d5c096c41461047c578063dd62ed3e1461048f578063e86d60bf146104a2578063f3f586e5146104aa578063ffd088eb146104bd57610227565b8063a9059cbb14610433578063b10be73914610446578063b48b5b4014610459578063bdd8a36614610461578063d505accf1461046957610227565b80638d928af8116100ff5780638d928af8146103ea57806395d89b41146103f25780639d2c110c146103fa578063a457c2d71461040d578063a503e6281461042057610227565b80636f4830311461039b57806370a08231146103a357806374f3b009146103b65780637ecebe00146103d757610227565b80633331bc36116101b3578063580702231161018257806358070223146103245780635863056d1461033757806360d1507c1461034d5780636970a924146103735780636b8432391461037b57610227565b80633331bc36146102ec5780633644e5151461030157806338fff2d014610309578063395093511461031157610227565b806318160ddd116101fa57806318160ddd146102945780631dccd8301461029c578063204f83f9146102bc57806323b872dd146102c4578063313ce567146102d757610227565b806303eadcfc1461022c57806306fdde031461024a5780630845d0301461025f578063095ea7b314610274575b600080fd5b6102346104c5565b60405161024191906146a5565b60405180910390f35b6102526104e9565b6040516102419190614825565b61026761057f565b6040516102419190614782565b6102876102823660046140d3565b610586565b6040516102419190614777565b61026761059d565b6102af6102aa366004614299565b6105a3565b604051610241919061473f565b6102676106c7565b6102876102d236600461401e565b6106eb565b6102df610761565b6040516102419190614886565b6102ff6102fa36600461461c565b61076a565b005b6102676107e1565b6102676107f0565b61028761031f3660046140d3565b610814565b610267610332366004614604565b61084f565b61033f6109a8565b604051610241929190614878565b61036061035b366004614604565b6109d2565b604051610241979695949392919061478b565b610267610a1a565b61038e6103893660046141ca565b610a3e565b60405161024191906146b9565b610267610af5565b6102676103b1366004613fca565b610b19565b6103c96103c43660046143de565b610b34565b604051610241929190614752565b6102676103e5366004613fca565b610dc7565b610234610de2565b610252610e06565b61026761040836600461450d565b610e67565b61028761041b3660046140d3565b611143565b61026761042e366004614604565b611181565b6102876104413660046140d3565b6115a4565b6102676104543660046144db565b6115b1565b610267611646565b61026761164b565b6102ff61047736600461405e565b61166f565b6103c961048a3660046143de565b6117df565b61026761049d366004613fe6565b611b50565b610267611b7b565b6102676104b8366004614604565b611b9f565b610267611ceb565b7f000000000000000000000000000000000000000000000000000000000000000081565b60038054604080516020601f60026000196101006001881615020190951694909404938401819004810282018101909252828152606093909290918301828280156105755780601f1061054a57610100808354040283529160200191610575565b820191906000526020600020905b81548152906001019060200180831161055857829003601f168201915b5050505050905090565b620f424081565b6000610593338484611d07565b5060015b92915050565b60025490565b6060815167ffffffffffffffff811180156105bd57600080fd5b506040519080825280602002602001820160405280156105e7578160200160208202803683370190505b50905060006105f4611d69565b905060005b83518110156106c05773__$ca06ebe0e37df84d33a229baa7963d6fc2$__6379eaef82600786848151811061062a57fe5b6020026020010151856040518463ffffffff1660e01b815260040161065193929190614803565b60206040518083038186803b15801561066957600080fd5b505af415801561067d573d6000803e3d6000fd5b505050506040513d601f19601f820116820180604052508101906106a191906144f5565b8382815181106106ad57fe5b60209081029190910101526001016105f9565b5050919050565b7f000000000000000000000000000000000000000000000000000000000000000081565b6000806106f88533611b50565b905061071c336001600160a01b03871614806107145750838210155b61019e611d73565b610727858585611d85565b336001600160a01b0386161480159061074257506000198114155b15610754576107548533858403611d07565b60019150505b9392505050565b60055460ff1690565b610784818310801561077d575060148211155b6064611d73565b60006107996001600080600080600080611e6d565b9050825b828110156107db576000818152600760205260409020546107bd90611ecd565b6107d35760008181526007602052604090208290555b60010161079d565b50505050565b60006107eb611ed9565b905090565b7f000000000000000000000000000000000000000000000000000000000000000090565b3360008181526001602090815260408083206001600160a01b0387168452909152812054909161059391859061084a9086611f97565b611d07565b60007f00000000000000000000000000000000000000000000000000000000000000004210610880575060006109a3565b6109a0670de0b6b3a764000061099a6108e7427f00000000000000000000000000000000000000000000000000000000000000000383026108e1847f0000000000000000000000000000000000000000000000000000000000000000611fa9565b90611fa9565b6109946109857f00000000000000000000000000000000000000000000000000000000000000006001600160a01b031663226778496040518163ffffffff1660e01b815260040160206040518083038186803b15801561094657600080fd5b505afa15801561095a573d6000803e3d6000fd5b505050506040513d601f19601f8201168201806040525081019061097e91906144f5565b8890611ffa565b670de0b6b3a764000090611fa9565b90612030565b90611cf1565b90505b919050565b7f000000000000000000000000000000000000000000000000000000000000000090600182900390565b60008060008060008060006109ec6014891061013b611d73565b60006109f78961207f565b9050610a0281612091565b959f949e50929c50909a509850965090945092505050565b7f000000000000000000000000000000000000000000000000000000000000000081565b6060815167ffffffffffffffff81118015610a5857600080fd5b50604051908082528060200260200182016040528015610a82578160200160208202803683370190505b5090506000610a8f611d69565b9050610a99613e93565b60005b8451811015610aed57848181518110610ab157fe5b60200260200101519150610ace82600001518484602001516120f4565b848281518110610ada57fe5b6020908102919091010152600101610a9c565b505050919050565b7f000000000000000000000000000000000000000000000000000000000000000081565b6001600160a01b031660009081526020819052604090205490565b60608088610b5e610b43610de2565b6001600160a01b0316336001600160a01b031614606461218d565b610b72610b696107f0565b8214606761218d565b610b7b8761219b565b610bef86887f000000000000000000000000000000000000000000000000000000000000000081518110610bab57fe5b6020026020010151897f000000000000000000000000000000000000000000000000000000000000000060010381518110610be257fe5b602002602001015161229b565b8415610c2857610c287f0000000000000000000000000000000000000000000000000000000000000000610c23898861241b565b6125e4565b600084806020019051810190610c3e91906144f5565b6040805160028082526060808301845293945090916020830190803683370190505090506000610c6c61059d565b9050610c9f81610c99858d600081518110610c8357fe5b60200260200101516125ee90919063ffffffff16565b90612632565b82600081518110610cac57fe5b602002602001018181525050610ccd81610c99858d600181518110610c8357fe5b82600181518110610cda57fe5b602002602001018181525050610cf08c84612674565b610d2b82600081518110610d0057fe5b60200260200101518b600081518110610d1557fe5b6020026020010151611cf190919063ffffffff16565b8a600081518110610d3857fe5b602002602001018181525050610d6982600181518110610d5457fe5b60200260200101518b600181518110610d1557fe5b8a600181518110610d7657fe5b602002602001018181525050610d8b8a61267e565b610d9482612840565b604080516002808252606082018352849260208301908036833701905050955095505050505b5097509795505050505050565b6001600160a01b031660009081526006602052604090205490565b7f000000000000000000000000000000000000000000000000000000000000000090565b60048054604080516020601f60026000196101006001881615020190951694909404938401819004810282018101909252828152606093909290918301828280156105755780601f1061054a57610100808354040283529160200191610575565b6000807f00000000000000000000000000000000000000000000000000000000000000006001600160a01b031685602001516001600160a01b031614610ed0577f0000000000000000000000000000000000000000000000000000000000000000600114610ef3565b7f0000000000000000000000000000000000000000000000000000000000000000155b90506000610f0082612936565b90506000610f0e8315612936565b9050610f1a868361298a565b9550610f26858261298a565b9450610f30610de2565b6001600160a01b0316336001600160a01b03161415610f7057610f708760a0015184610f5c5786610f5e565b875b85610f695788610f6b565b875b61229b565b60007f00000000000000000000000000000000000000000000000000000000000000006001600160a01b031663f51e181a6040518163ffffffff1660e01b8152600401602060405180830381600087803b158015610fcd57600080fd5b505af1158015610fe1573d6000803e3d6000fd5b505050506040513d601f19601f8201168201806040525081019061100591906144f5565b9050831561103d5761101f61101861059d565b8890611f97565b965061103660085487611ffa90919063ffffffff16565b9550611062565b60085461104b908890611ffa565b965061105f61105861059d565b8790611f97565b95505b60008851600181111561107157fe5b14156110e35761108588606001518461298a565b6060890152836110a457606088015161109e9082611ffa565b60608901525b60006110b88560018b606001518b8b612996565b905084156110cd576110ca8183611fa9565b90505b6110d78184612b77565b9550505050505061075a565b6110f188606001518361298a565b6060890152831561111157606088015161110b9082611ffa565b60608901525b60006111258560008b606001518b8b612996565b905084611139576111368183611fa9565b90505b6110d78185612b8a565b6000806111503385611b50565b905080831061116a5761116533856000611d07565b611177565b6111773385858403611d07565b5060019392505050565b60408051600180825281830190925260009160609190816020015b6111a4613eaa565b81526020019060019003908161119c5790505060408051606081019091529091508060008152602001848152602001610e10815250816000815181106111e657fe5b60209081029190910101526040516301dccd8360e41b81526060903090631dccd830906112179085906004016146fd565b60006040518083038186803b15801561122f57600080fd5b505afa158015611243573d6000803e3d6000fd5b505050506040513d6000823e601f3d908101601f1916820160405261126b9190810190614366565b905060007f00000000000000000000000000000000000000000000000000000000000000006001146112cb576112c6826000815181106112a757fe5b6020026020010151670de0b6b3a7640000611fa990919063ffffffff16565b6112e1565b816000815181106112d857fe5b60200260200101515b905060006112ee8261084f565b905060607f00000000000000000000000000000000000000000000000000000000000000006001600160a01b031663f94d46687f00000000000000000000000000000000000000000000000000000000000000006040518263ffffffff1660e01b815260040161135e9190614782565b60006040518083038186803b15801561137657600080fd5b505afa15801561138a573d6000803e3d6000fd5b505050506040513d6000823e601f3d908101601f191682016040526113b291908101906140fe565b509150506000427f0000000000000000000000000000000000000000000000000000000000000000116113e6576000611414565b670de0b6b3a7640000427f000000000000000000000000000000000000000000000000000000000000000003025b9050600061144a6114457f000000000000000000000000000000000000000000000000000000000000000084611ffa565b612b96565b905060006114f76114a083610994600854887f00000000000000000000000000000000000000000000000000000000000000006001038151811061148a57fe5b6020026020010151611ffa90919063ffffffff16565b6114f1846109946114af61059d565b897f0000000000000000000000000000000000000000000000000000000000000000815181106114db57fe5b6020026020010151611f9790919063ffffffff16565b90611f97565b90506000611535611510670de0b6b3a764000085611fa9565b61099461152e670de0b6b3a76400006114f16109858985848f611f97565b8590611fa9565b9050600061156161155a611551670de0b6b3a76400008a611f97565b60085490611ffa565b8390611fa9565b905061159461156e61059d565b6108e161158d8b61158761158061059d565b8890611cf1565b90611ffa565b8490611f97565b9c9b505050505050505050505050565b6000610593338484611d85565b600073__$ca06ebe0e37df84d33a229baa7963d6fc2$__630397bee06007846115d8611d69565b6040518463ffffffff1660e01b81526004016115f6939291906147bb565b60206040518083038186803b15801561160e57600080fd5b505af4158015611622573d6000803e3d6000fd5b505050506040513d601f19601f820116820180604052508101906109a091906144f5565b601490565b7f000000000000000000000000000000000000000000000000000000000000000081565b61167d8442111560d1611d73565b6001600160a01b0380881660008181526006602090815260408083205481517f00000000000000000000000000000000000000000000000000000000000000008185015280830195909552948b166060850152608084018a905260a0840185905260c08085018a90528151808603909101815260e0909401905282519201919091209061170982612bbc565b9050600060018288888860405160008152602001604052604051808581526020018460ff1681526020018381526020018281526020019450505050506020604051602081039080840390855afa158015611767573d6000803e3d6000fd5b5050604051601f19015191506117a990506001600160a01b038216158015906117a157508b6001600160a01b0316826001600160a01b0316145b6101f8611d73565b6001600160a01b038b1660009081526006602052604090206001850190556117d28b8b8b611d07565b5050505050505050505050565b606080886117ee610b43610de2565b6117f9610b696107f0565b611827427f00000000000000000000000000000000000000000000000000000000000000001015606961218d565b606060008580602001905181019061183f9190614399565b9150915061184c8961219b565b6118558261219b565b61185d61059d565b6119e65760007f00000000000000000000000000000000000000000000000000000000000000006001600160a01b031663f51e181a6040518163ffffffff1660e01b8152600401602060405180830381600087803b1580156118be57600080fd5b505af11580156118d2573d6000803e3d6000fd5b505050506040513d601f19601f820116820180604052508101906118f691906144f5565b9050600061192d82857f00000000000000000000000000000000000000000000000000000000000000006001038151811061148a57fe5b905061193d6000620f42406125e4565b600061194c82620f4240611cf1565b90506119588d826125e4565b61196684821015606c61218d565b61196f85612c08565b82600881905550847f0000000000000000000000000000000000000000000000000000000000000000815181106119a257fe5b602002602001016000815250849b506119ba8c61267e565b604080516002808252606082018352879260208301908036833701905050975097505050505050610dba565b611a4d888a7f000000000000000000000000000000000000000000000000000000000000000081518110611a1657fe5b60200260200101518b7f000000000000000000000000000000000000000000000000000000000000000060010381518110610be257fe5b8615611a8157611a817f0000000000000000000000000000000000000000000000000000000000000000610c238b8a61241b565b60006060611a8f848c612cca565b91509150611aa183831015606c61218d565b611aab8c836125e4565b80600081518110611ab857fe5b60200260200101518b600081518110611acd57fe5b60200260200101818151019150818152505080600181518110611aec57fe5b60200260200101518b600181518110611b0157fe5b602002602001018181510191508181525050611b1c8b61267e565b611b2581612c08565b6040805160028082526060820183528392602083019080368337019050509650965050505050610dba565b6001600160a01b03918216600090815260016020908152604080832093909416825291909152205490565b7f000000000000000000000000000000000000000000000000000000000000000081565b60007f00000000000000000000000000000000000000000000000000000000000000004210611bd75750670de0b6b3a76400006109a3565b6109a07f00000000000000000000000000000000000000000000000000000000000000006001600160a01b031663226778496040518163ffffffff1660e01b815260040160206040518083038186803b158015611c3357600080fd5b505afa158015611c47573d6000803e3d6000fd5b505050506040513d601f19601f82011682018060405250810190611c6b91906144f5565b6108e1610985611cd9611ca6670de0b6b3a76400007f0000000000000000000000000000000000000000000000000000000000000000611fa9565b427f000000000000000000000000000000000000000000000000000000000000000003670de0b6b3a76400000290611fa9565b61099487670de0b6b3a7640000611f97565b615da890565b6000611d01838311156001611d73565b50900390565b6001600160a01b03808416600081815260016020908152604080832094871680845294825291829020859055815185815291517f8c5be1e5ebec7d5bd14f71427d1e84f3dd0314c0f7b2291e5b200ac8c7c3b9259281900390910190a3505050565b600b5461ffff1690565b81611d8157611d8181613012565b5050565b611d9c6001600160a01b0384161515610198611d73565b611db36001600160a01b0383161515610199611d73565b611dbe838383612416565b6001600160a01b038316600090815260208190526040902054611de490826101a0613065565b6001600160a01b038085166000908152602081905260408082209390935590841681522054611e139082611f97565b6001600160a01b038084166000818152602081815260409182902094909455805185815290519193928716927fddf252ad1be2c89b69c2b068fc378daa952ba7f163c4a11628f55a4df523b3ef92918290030190a3505050565b6000611e79828261307b565b611e8484601f61307f565b611e8f866054613090565b611e9a88606a61307f565b611ea58a609f613090565b611eb08c60b561307f565b611ebb8e60ea613090565b17171717171798975050505050505050565b60006109a0828261309d565b60007f00000000000000000000000000000000000000000000000000000000000000007f00000000000000000000000000000000000000000000000000000000000000007f0000000000000000000000000000000000000000000000000000000000000000611f466130a7565b3060405160200180868152602001858152602001848152602001838152602001826001600160a01b031681526020019550505050505060405160208183030381529060405280519060200120905090565b600082820161075a8482101583611d73565b6000611fb88215156004611d73565b82611fc557506000610597565b670de0b6b3a764000083810290611fe890858381611fdf57fe5b04146005611d73565b828181611ff157fe5b04915050610597565b600082820261201e84158061201757508385838161201457fe5b04145b6003611d73565b670de0b6b3a764000090049392505050565b60008061203d84846130ab565b90506000612057612050836127106125ee565b6001611f97565b90508082101561206c57600092505050610597565b6120768282611cf1565b92505050610597565b60009081526007602052604090205490565b60008060008060008060006120a5886131b6565b96506120b0886131c3565b95506120bb886131d0565b94506120c6886131dd565b93506120d1886131ea565b92506120dc886131f7565b91506120e788611ecd565b9050919395979092949650565b6040516334171a8560e01b815260009073__$ca06ebe0e37df84d33a229baa7963d6fc2$__906334171a8590612135906007908890889088906004016147dd565b60206040518083038186803b15801561214d57600080fd5b505af4158015612161573d6000803e3d6000fd5b505050506040513d601f19601f8201168201806040525081019061218591906144f5565b949350505050565b81611d8157611d8181613204565b6121e1817f0000000000000000000000000000000000000000000000000000000000000000815181106121ca57fe5b60200260200101516121dc6001612936565b613258565b817f00000000000000000000000000000000000000000000000000000000000000008151811061220d57fe5b60200260200101818152505061225d817f00000000000000000000000000000000000000000000000000000000000000006001038151811061224b57fe5b60200260200101516121dc6000612936565b817f00000000000000000000000000000000000000000000000000000000000000006001038151811061228c57fe5b60200260200101818152505050565b600b546601000000000000900460ff1680156122b657508243115b80156122c95750662386f26fc100008110155b156124165760006122fa6122e860085484611ffa90919063ffffffff16565b6108e16122f361059d565b8690611f97565b9050670de0b6b3a764000081106123225761231d81670de0b6b3a7640000611cf1565b612325565b60005b9050600061233282611b9f565b905060007f0000000000000000000000000000000000000000000000000000000000000000156123625781612374565b612374670de0b6b3a764000083611fa9565b600b549091506000906123d99063ffffffff620100008204169061ffff1661239b85613272565b620f424088106123b3576123ae88613272565b6123bf565b6123bf620f4240613272565b600b546701000000000000009004601890810b900b6132b2565b600b5490915061ffff16811461241157600b805465ffffffff00001916620100004263ffffffff16021761ffff191661ffff83161790555b505050505b505050565b600080427f00000000000000000000000000000000000000000000000000000000000000001161244c57600061247a565b670de0b6b3a7640000427f000000000000000000000000000000000000000000000000000000000000000003025b905060006124ab6114457f000000000000000000000000000000000000000000000000000000000000000084611ffa565b905060006124d46124c783600a5461203090919063ffffffff16565b6009546114f19085612030565b90506000612513836109946124e761059d565b8a7f0000000000000000000000000000000000000000000000000000000000000000815181106114db57fe5b90506000612550846109946008548b7f00000000000000000000000000000000000000000000000000000000000000006001038151811061148a57fe5b9050600061255e8383611f97565b90508381116125765760009650505050505050610597565b600061259761258d670de0b6b3a764000088611fa9565b6109948488611fa9565b905060006125bb826108e16125b482670de0b6b3a7640000611cf1565b8d90611ffa565b90506125d56125c982612b96565b6108e18361158761059d565b9b9a5050505050505050505050565b611d81828261330a565b600082820261260884158061201757508385838161201457fe5b80612617576000915050610597565b670de0b6b3a764000060001982015b04600101915050610597565b60006126418215156004611d73565b8261264e57506000610597565b670de0b6b3a76400008381029061266890858381611fdf57fe5b82600182038161262657fe5b611d81828261339f565b60006126b761268b61059d565b837f0000000000000000000000000000000000000000000000000000000000000000815181106114db57fe5b905060006126f0600854847f00000000000000000000000000000000000000000000000000000000000000006001038151811061148a57fe5b90506000807f000000000000000000000000000000000000000000000000000000000000000061272457508290508161272a565b50819050825b600b546601000000000000900460ff1615612832576000427f00000000000000000000000000000000000000000000000000000000000000001161276f57600061279d565b670de0b6b3a7640000427f000000000000000000000000000000000000000000000000000000000000000003025b905060006127ce6114457f000000000000000000000000000000000000000000000000000000000000000084611ffa565b90506127ef6127ea6127e08584612030565b6114f18785612030565b613272565b600b805460189290920b78ffffffffffffffffffffffffffffffffffffffffffffffffff166701000000000000000266ffffffffffffff90921691909117905550505b600991909155600a55505050565b61284a6001612936565b817f00000000000000000000000000000000000000000000000000000000000000008151811061287657fe5b60200260200101518161288557fe5b04817f0000000000000000000000000000000000000000000000000000000000000000815181106128b257fe5b6020026020010181815250506128c86000612936565b817f0000000000000000000000000000000000000000000000000000000000000000600103815181106128f757fe5b60200260200101518161290657fe5b04817f00000000000000000000000000000000000000000000000000000000000000006001038151811061228c57fe5b600081612963577f00000000000000000000000000000000000000000000000000000000000000006109a0565b507f0000000000000000000000000000000000000000000000000000000000000000919050565b600061075a8383613258565b600080427f0000000000000000000000000000000000000000000000000000000000000000116129c75760006129f5565b670de0b6b3a7640000427f000000000000000000000000000000000000000000000000000000000000000003025b90506000612a237f000000000000000000000000000000000000000000000000000000000000000083611ffa565b90506000612a81611445838b612a59577f0000000000000000000000000000000000000000000000000000000000000000612a7b565b7f00000000000000000000000000000000000000000000000000000000000000005b906125ee565b90506000612a8f8783613456565b90506000612a9d8784613456565b905060008a612ab557612ab0888b611cf1565b612ab9565b8989015b90506000612ac78286612030565b90506000612af4612ae0670de0b6b3a764000088611fa9565b612aee8461099a8989611f97565b90613456565b9050612b0c8d1580612b055750818b115b606a61218d565b8c15612b4857612b2f8e612b235781841115612b28565b818410155b606b61218d565b612b398a82611cf1565b98505050505050505050612b6e565b612b648e612b595783821115612b28565b83821015606b61218d565b612b39818c611cf1565b95945050505050565b6000818381612b8257fe5b049392505050565b600061075a8383613482565b6000670de0b6b3a76400008210612bae5760006109a0565b50670de0b6b3a76400000390565b6000612bc6611ed9565b82604051602001808061190160f01b81525060020183815260200182815260200192505050604051602081830303815290604052805190602001209050919050565b612c4e817f000000000000000000000000000000000000000000000000000000000000000081518110612c3757fe5b6020026020010151612c496001612936565b613482565b817f000000000000000000000000000000000000000000000000000000000000000081518110612c7a57fe5b60200260200101818152505061225d817f000000000000000000000000000000000000000000000000000000000000000060010381518110612cb857fe5b6020026020010151612c496000612936565b60006060600080847f000000000000000000000000000000000000000000000000000000000000000081518110612cfd57fe5b6020026020010151857f000000000000000000000000000000000000000000000000000000000000000060010381518110612d3457fe5b6020026020010151915091506060600267ffffffffffffffff81118015612d5a57600080fd5b50604051908082528060200260200182016040528015612d84578160200160208202803683370190505b50905082612e29576000877f000000000000000000000000000000000000000000000000000000000000000060010381518110612dbd57fe5b602002602001015190506000612dde60085483611ffa90919063ffffffff16565b905081837f000000000000000000000000000000000000000000000000000000000000000060010381518110612e1057fe5b6020908102919091010152955090935061300b92505050565b600080887f000000000000000000000000000000000000000000000000000000000000000081518110612e5857fe5b6020026020010151897f000000000000000000000000000000000000000000000000000000000000000060010381518110612e8f57fe5b6020026020010151915091506000612ea561059d565b9050600085612eb48385613258565b81612ebb57fe5b049050600087612ecb8487613258565b81612ed257fe5b04905080821015612f745786612ee88986613258565b81612eef57fe5b04867f000000000000000000000000000000000000000000000000000000000000000081518110612f1c57fe5b60200260200101818152505083867f000000000000000000000000000000000000000000000000000000000000000060010381518110612f5857fe5b602090810291909101015250975092955061300b945050505050565b84867f000000000000000000000000000000000000000000000000000000000000000081518110612fa157fe5b60200260200101818152505087612fb88887613258565b81612fbf57fe5b04867f000000000000000000000000000000000000000000000000000000000000000060010381518110612fef57fe5b6020908102919091010152985093965061300b95505050505050565b9250929050565b62461bcd60e51b6000908152602060045260076024526642414c23000030600a808404818106603090810160081b95839006959095019082900491820690940160101b939093010160c81b604452606490fd5b60006130748484111583611d73565b5050900390565b1b90565b661fffffffffffff91909116901b90565b623fffff91909116901b90565b1c637fffffff1690565b4690565b6000816130c15750670de0b6b3a7640000610597565b826130ce57506000610597565b6130df600160ff1b84106006611d73565b82613105770bce5086492111aea88f4bb1ca6bcf584181ea8059f7653284106007611d73565b826000670c7d713b49da0000831380156131265750670f43fc2c04ee000083125b1561315d576000613136846134b5565b9050670de0b6b3a764000080820784020583670de0b6b3a76400008305020191505061316b565b81613167846135dc565b0290505b670de0b6b3a764000090056131a3680238fd42c5cf03ffff19821280159061319c575068070c1cc73b00c800008213155b6008611d73565b6131ac8161397c565b9695505050505050565b60006109a08260ea613d5a565b60006109a08260b5613d81565b60006109a082609f613d5a565b60006109a082606a613d81565b60006109a0826054613d5a565b60006109a082601f613d81565b62461bcd60e51b600090815260206004526007602452673f534e5323000030600a808404818106603090810160081b95839006959095019082900491820690940160101b939093010160c81b604452606490fd5b600082820261075a84158061201757508385838161201457fe5b60008061327e83613db4565b9050600080821361329757652d79883d200082036132a1565b652d79883d200082015b655af3107a40009005949350505050565b6000806132ce858585426132c58b61207f565b93929190613e10565b90506104b0428890031015806132e457866132ed565b6132ed87613e70565b600081815260076020526040902092909255509695505050505050565b61331660008383612416565b6002546133239082611f97565b6002556001600160a01b0382166000908152602081905260409020546133499082611f97565b6001600160a01b0383166000818152602081815260408083209490945583518581529351929391927fddf252ad1be2c89b69c2b068fc378daa952ba7f163c4a11628f55a4df523b3ef9281900390910190a35050565b6133b66001600160a01b038316151561019b611d73565b6133c282600083612416565b6001600160a01b0382166000908152602081905260409020546133e890826101a1613065565b6001600160a01b03831660009081526020819052604090205560025461340e9082613e7d565b6002556040805182815290516000916001600160a01b038516917fddf252ad1be2c89b69c2b068fc378daa952ba7f163c4a11628f55a4df523b3ef9181900360200190a35050565b60008061346384846130ab565b90506000613476612050836127106125ee565b9050612b6e8282611f97565b60006134918215156004611d73565b8261349e57506000610597565b8160018403816134aa57fe5b046001019050610597565b670de0b6b3a7640000026000806ec097ce7bc90715b34b9f1000000000808401906ec097ce7bc90715b34b9f0fffffffff19850102816134f157fe5b05905060006ec097ce7bc90715b34b9f100000000082800205905081806ec097ce7bc90715b34b9f100000000081840205915060038205016ec097ce7bc90715b34b9f100000000082840205915060058205016ec097ce7bc90715b34b9f100000000082840205915060078205016ec097ce7bc90715b34b9f100000000082840205915060098205016ec097ce7bc90715b34b9f1000000000828402059150600b8205016ec097ce7bc90715b34b9f1000000000828402059150600d8205016ec097ce7bc90715b34b9f1000000000828402059150600f826002919005919091010295945050505050565b6000670de0b6b3a76400008212156136195761360f826ec097ce7bc90715b34b9f10000000008161360957fe5b056135dc565b60000390506109a3565b60007e1600ef3172e58d2e933ec884fde10064c63b5372d805e203c0000000000000831261366a57770195e54c5dd42177f53a27172fa9ec630262827000000000830592506806f05b59d3b2000000015b73011798004d755d3c8bc8e03204cf44619e00000083126136a2576b1425982cf597cd205cef7380830592506803782dace9d9000000015b606492830292026e01855144814a7ff805980ff008400083126136ea576e01855144814a7ff805980ff008400068056bc75e2d63100000840205925068ad78ebc5ac62000000015b6b02df0ab5a80a22c61ab5a7008312613725576b02df0ab5a80a22c61ab5a70068056bc75e2d6310000084020592506856bc75e2d631000000015b693f1fce3da636ea5cf850831261375c57693f1fce3da636ea5cf85068056bc75e2d631000008402059250682b5e3af16b18800000015b690127fa27722cc06cc5e2831261379357690127fa27722cc06cc5e268056bc75e2d6310000084020592506815af1d78b58c400000015b68280e60114edb805d0383126137c85768280e60114edb805d0368056bc75e2d631000008402059250680ad78ebc5ac6200000015b680ebc5fb4174612111083126137f357680ebc5fb4174612111068056bc75e2d631000009384020592015b6808f00f760a4b2db55d8312613828576808f00f760a4b2db55d68056bc75e2d6310000084020592506802b5e3af16b1880000015b6806f5f1775788937937831261385d576806f5f177578893793768056bc75e2d63100000840205925068015af1d78b58c40000015b6806248f33704b2866038312613891576806248f33704b28660368056bc75e2d63100000840205925067ad78ebc5ac620000015b6805c548670b9510e7ac83126138c5576805c548670b9510e7ac68056bc75e2d6310000084020592506756bc75e2d6310000015b600068056bc75e2d63100000840168056bc75e2d6310000080860302816138e857fe5b059050600068056bc75e2d63100000828002059050818068056bc75e2d63100000818402059150600382050168056bc75e2d63100000828402059150600582050168056bc75e2d63100000828402059150600782050168056bc75e2d63100000828402059150600982050168056bc75e2d63100000828402059150600b820501600202606485820105979650505050505050565b60006139ab680238fd42c5cf03ffff1983121580156139a4575068070c1cc73b00c800008313155b6009611d73565b60008212156139df576139c08260000361397c565b6ec097ce7bc90715b34b9f1000000000816139d757fe5b0590506109a3565b60006806f05b59d3b20000008312613a1f57506806f05b59d3b1ffffff1990910190770195e54c5dd42177f53a27172fa9ec630262827000000000613a55565b6803782dace9d90000008312613a5157506803782dace9d8ffffff19909101906b1425982cf597cd205cef7380613a55565b5060015b6064929092029168056bc75e2d6310000068ad78ebc5ac620000008412613aa55768ad78ebc5ac61ffffff199093019268056bc75e2d631000006e01855144814a7ff805980ff008400082020590505b6856bc75e2d6310000008412613ae1576856bc75e2d630ffffff199093019268056bc75e2d631000006b02df0ab5a80a22c61ab5a70082020590505b682b5e3af16b188000008412613b1b57682b5e3af16b187fffff199093019268056bc75e2d63100000693f1fce3da636ea5cf85082020590505b6815af1d78b58c4000008412613b55576815af1d78b58c3fffff199093019268056bc75e2d63100000690127fa27722cc06cc5e282020590505b680ad78ebc5ac62000008412613b8e57680ad78ebc5ac61fffff199093019268056bc75e2d6310000068280e60114edb805d0382020590505b68056bc75e2d631000008412613bc75768056bc75e2d630fffff199093019268056bc75e2d63100000680ebc5fb4174612111082020590505b6802b5e3af16b18800008412613c00576802b5e3af16b187ffff199093019268056bc75e2d631000006808f00f760a4b2db55d82020590505b68015af1d78b58c400008412613c395768015af1d78b58c3ffff199093019268056bc75e2d631000006806f5f177578893793782020590505b68056bc75e2d631000008481019085906002908280020505918201919050600368056bc75e2d631000008783020505918201919050600468056bc75e2d631000008783020505918201919050600568056bc75e2d631000008783020505918201919050600668056bc75e2d631000008783020505918201919050600768056bc75e2d631000008783020505918201919050600868056bc75e2d631000008783020505918201919050600968056bc75e2d631000008783020505918201919050600a68056bc75e2d631000008783020505918201919050600b68056bc75e2d631000008783020505918201919050600c68056bc75e2d631000008783020505918201919050606468056bc75e2d63100000848402058502059695505050505050565b600082821c623fffff16621fffff8113613d745780612185565b623fffff19179392505050565b600082821c661fffffffffffff16660fffffffffffff8113613da35780612185565b661fffffffffffff19179392505050565b6000613dc4600083136064611d73565b670c7d713b49da000082138015613de25750670f43fc2c04ee000082125b15613e0057670de0b6b3a7640000613df9836134b5565b816139d757fe5b613e09826135dc565b90506109a3565b600080613e1c87611ecd565b830390506000818702613e2e896131c3565b0190506000828702613e3f8a6131dd565b0190506000838702613e508b6131f7565b019050613e6289848a858b868c611e6d565b9a9950505050505050505050565b60006109a0826001613e8b565b600061075a83836001613065565b601491010690565b604080518082019091526000808252602082015290565b6040805160608101909152806000815260200160008152602001600081525090565b80356109a3816148d6565b600082601f830112613ee7578081fd5b8151613efa613ef5826148b8565b614894565b818152915060208083019084810181840286018201871015613f1b57600080fd5b60005b84811015613f3a57815184529282019290820190600101613f1e565b505050505092915050565b600082601f830112613f55578081fd5b813567ffffffffffffffff811115613f6957fe5b613f7c601f8201601f1916602001614894565b9150808252836020828501011115613f9357600080fd5b8060208401602084013760009082016020015292915050565b8035600281106109a357600080fd5b8035600381106109a357600080fd5b600060208284031215613fdb578081fd5b813561075a816148d6565b60008060408385031215613ff8578081fd5b8235614003816148d6565b91506020830135614013816148d6565b809150509250929050565b600080600060608486031215614032578081fd5b833561403d816148d6565b9250602084013561404d816148d6565b929592945050506040919091013590565b600080600080600080600060e0888a031215614078578485fd5b8735614083816148d6565b96506020880135614093816148d6565b95506040880135945060608801359350608088013560ff811681146140b6578384fd5b9699959850939692959460a0840135945060c09093013592915050565b600080604083850312156140e5578182fd5b82356140f0816148d6565b946020939093013593505050565b600080600060608486031215614112578081fd5b835167ffffffffffffffff80821115614129578283fd5b818601915086601f83011261413c578283fd5b815161414a613ef5826148b8565b80828252602080830192508086018b82838702890101111561416a578788fd5b8796505b84871015614195578051614181816148d6565b84526001969096019592810192810161416e565b5089015190975093505050808211156141ac578283fd5b506141b986828701613ed7565b925050604084015190509250925092565b600060208083850312156141dc578182fd5b823567ffffffffffffffff808211156141f3578384fd5b818501915085601f830112614206578384fd5b8135614214613ef5826148b8565b818152848101908486016040808502870188018b1015614232578889fd5b8896505b8487101561428a5780828c03121561424c578889fd5b8051818101818110888211171561425f57fe5b825261426a83613fbb565b815282890135898201528452600196909601959287019290810190614236565b50909998505050505050505050565b600060208083850312156142ab578182fd5b823567ffffffffffffffff808211156142c2578384fd5b818501915085601f8301126142d5578384fd5b81356142e3613ef5826148b8565b818152848101908486016060808502870188018b1015614301578889fd5b8896505b8487101561428a5780828c03121561431b578889fd5b60408051828101818110898211171561433057fe5b825261433b84613fbb565b8152838a01358a82015281840135918101919091528452600196909601959287019290810190614305565b600060208284031215614377578081fd5b815167ffffffffffffffff81111561438d578182fd5b61218584828501613ed7565b600080604083850312156143ab578182fd5b825167ffffffffffffffff8111156143c1578283fd5b6143cd85828601613ed7565b925050602083015190509250929050565b600080600080600080600060e0888a0312156143f8578081fd5b8735965060208089013561440b816148d6565b9650604089013561441b816148d6565b9550606089013567ffffffffffffffff80821115614437578384fd5b818b0191508b601f83011261444a578384fd5b8135614458613ef5826148b8565b8082825285820191508585018f878886028801011115614476578788fd5b8795505b8386101561449857803583526001959095019491860191860161447a565b509850505060808b0135955060a08b0135945060c08b01359250808311156144be578384fd5b50506144cc8a828b01613f45565b91505092959891949750929550565b6000602082840312156144ec578081fd5b61075a82613fbb565b600060208284031215614506578081fd5b5051919050565b600080600060608486031215614521578081fd5b833567ffffffffffffffff80821115614538578283fd5b818601915061012080838903121561454e578384fd5b61455781614894565b905061456283613fac565b815261457060208401613ecc565b602082015261458160408401613ecc565b6040820152606083013560608201526080830135608082015260a083013560a08201526145b060c08401613ecc565b60c08201526145c160e08401613ecc565b60e082015261010080840135838111156145d9578586fd5b6145e58a828701613f45565b9183019190915250976020870135975060409096013595945050505050565b600060208284031215614615578081fd5b5035919050565b6000806040838503121561462e578182fd5b50508035926020909101359150565b6000815180845260208085019450808401835b8381101561466c57815187529582019590820190600101614650565b509495945050505050565b6003811061468157fe5b9052565b614690828251614677565b60208181015190830152604090810151910152565b6001600160a01b0391909116815260200190565b6020808252825182820181905260009190848201906040850190845b818110156146f1578351835292840192918401916001016146d5565b50909695505050505050565b6020808252825182820181905260009190848201906040850190845b818110156146f15761472c838551614685565b9284019260609290920191600101614719565b60006020825261075a602083018461463d565b600060408252614765604083018561463d565b8281036020840152612b6e818561463d565b901515815260200190565b90815260200190565b968752602087019590955260408601939093526060850191909152608084015260a083015260c082015260e00190565b838152606081016147cf6020830185614677565b826040830152949350505050565b848152608081016147f16020830186614677565b60408201939093526060015292915050565b83815260a081016148176020830185614685565b826080830152949350505050565b6000602080835283518082850152825b8181101561485157858101830151858201604001528201614835565b818111156148625783604083870101525b50601f01601f1916929092016040019392505050565b918252602082015260400190565b60ff91909116815260200190565b60405181810167ffffffffffffffff811182821017156148b057fe5b604052919050565b600067ffffffffffffffff8211156148cc57fe5b5060209081020190565b6001600160a01b03811681146148eb57600080fd5b5056fea26469706673582212202a24ae2c04026307dd07d61bb838621230425fa12313ad62daef112aa7fb087164736f6c63430007050033a2646970667358221220d729be55272d3a4a8b54dd157a7d603815420f77734bee7b677c7d714f4fff3f64736f6c63430007050033",
  "libraries": {
    "QueryProcessor": "0xcBe8c43a6e3bE093489b5b1bfF2E851D01D451f6"
  },
  "devdoc": {
    "kind": "dev",
    "methods": {
      "setPool(address,uint256,address)": {
        "details": "Adding a pool to the mapping prevents a new pool from being deployed for that Series from this factory"
      }
    },
    "version": 1
  },
  "userdoc": {
    "kind": "user",
    "methods": {
      "create(address,uint256)": {
        "notice": "Deploys a new `Space` contract"
      },
      "divider()": {
        "notice": "Sense Divider"
      },
      "oracleEnabled()": {
        "notice": "Oracle flag"
      },
      "pools(address,uint256)": {
        "notice": "Pool registry (adapter -> maturity -> pool address)"
      },
      "setPool(address,uint256,address)": {
        "notice": "Authd action to set a pool address on the \"pools\" registry"
      },
      "ts()": {
        "notice": "Yieldspace config"
      },
      "vault()": {
        "notice": "Balancer Vault"
      }
    },
    "version": 1
  },
  "storageLayout": {
    "storage": [
      {
        "astId": 5118,
        "contract": "lib/v1-space/src/SpaceFactory.sol:SpaceFactory",
        "label": "isTrusted",
        "offset": 0,
        "slot": "0",
        "type": "t_mapping(t_address,t_bool)"
      },
      {
        "astId": 7503,
        "contract": "lib/v1-space/src/SpaceFactory.sol:SpaceFactory",
        "label": "pools",
        "offset": 0,
        "slot": "1",
        "type": "t_mapping(t_address,t_mapping(t_uint256,t_address))"
      },
      {
        "astId": 7506,
        "contract": "lib/v1-space/src/SpaceFactory.sol:SpaceFactory",
        "label": "ts",
        "offset": 0,
        "slot": "2",
        "type": "t_uint256"
      },
      {
        "astId": 7508,
        "contract": "lib/v1-space/src/SpaceFactory.sol:SpaceFactory",
        "label": "g1",
        "offset": 0,
        "slot": "3",
        "type": "t_uint256"
      },
      {
        "astId": 7510,
        "contract": "lib/v1-space/src/SpaceFactory.sol:SpaceFactory",
        "label": "g2",
        "offset": 0,
        "slot": "4",
        "type": "t_uint256"
      },
      {
        "astId": 7513,
        "contract": "lib/v1-space/src/SpaceFactory.sol:SpaceFactory",
        "label": "oracleEnabled",
        "offset": 0,
        "slot": "5",
        "type": "t_bool"
      }
    ],
    "types": {
      "t_address": {
        "encoding": "inplace",
        "label": "address",
        "numberOfBytes": "20"
      },
      "t_bool": {
        "encoding": "inplace",
        "label": "bool",
        "numberOfBytes": "1"
      },
      "t_mapping(t_address,t_bool)": {
        "encoding": "mapping",
        "key": "t_address",
        "label": "mapping(address => bool)",
        "numberOfBytes": "32",
        "value": "t_bool"
      },
      "t_mapping(t_address,t_mapping(t_uint256,t_address))": {
        "encoding": "mapping",
        "key": "t_address",
        "label": "mapping(address => mapping(uint256 => address))",
        "numberOfBytes": "32",
        "value": "t_mapping(t_uint256,t_address)"
      },
      "t_mapping(t_uint256,t_address)": {
        "encoding": "mapping",
        "key": "t_uint256",
        "label": "mapping(uint256 => address)",
        "numberOfBytes": "32",
        "value": "t_address"
      },
      "t_uint256": {
        "encoding": "inplace",
        "label": "uint256",
        "numberOfBytes": "32"
      }
    }
  }
}