{
  "address": "0x754e68fEd0E6ECD06938d74ddf4C5A161a1A27e2",
  "abi": [
    {
      "inputs": [
        {
          "internalType": "address",
          "name": "_divider",
          "type": "address"
        },
        {
          "components": [
            {
              "internalType": "address",
              "name": "oracle",
              "type": "address"
            },
            {
              "internalType": "address",
              "name": "stake",
              "type": "address"
            },
            {
              "internalType": "uint256",
              "name": "stakeSize",
              "type": "uint256"
            },
            {
              "internalType": "uint256",
              "name": "minm",
              "type": "uint256"
            },
            {
              "internalType": "uint256",
              "name": "maxm",
              "type": "uint256"
            },
            {
              "internalType": "uint128",
              "name": "ifee",
              "type": "uint128"
            },
            {
              "internalType": "uint16",
              "name": "mode",
              "type": "uint16"
            },
            {
              "internalType": "uint64",
              "name": "tilt",
              "type": "uint64"
            },
            {
              "internalType": "uint256",
              "name": "guard",
              "type": "uint256"
            }
          ],
          "internalType": "struct BaseFactory.FactoryParams",
          "name": "_factoryParams",
          "type": "tuple"
        },
        {
          "internalType": "address",
          "name": "_reward",
          "type": "address"
        }
      ],
      "stateMutability": "nonpayable",
      "type": "constructor"
    },
    {
      "inputs": [],
      "name": "InvalidPrice",
      "type": "error"
    },
    {
      "inputs": [],
      "name": "TargetNotSupported",
      "type": "error"
    },
    {
      "anonymous": false,
      "inputs": [
        {
          "indexed": false,
          "internalType": "address",
          "name": "addr",
          "type": "address"
        },
        {
          "indexed": true,
          "internalType": "address",
          "name": "target",
          "type": "address"
        }
      ],
      "name": "AdapterAdded",
      "type": "event"
    },
    {
      "anonymous": false,
      "inputs": [
        {
          "indexed": true,
          "internalType": "address",
          "name": "user",
          "type": "address"
        },
        {
          "indexed": false,
          "internalType": "bool",
          "name": "trusted",
          "type": "bool"
        }
      ],
      "name": "UserTrustUpdated",
      "type": "event"
    },
    {
      "inputs": [],
      "name": "CETH",
      "outputs": [
        {
          "internalType": "address",
          "name": "",
          "type": "address"
        }
      ],
      "stateMutability": "view",
      "type": "function"
    },
    {
      "inputs": [],
      "name": "COMP",
      "outputs": [
        {
          "internalType": "address",
          "name": "",
          "type": "address"
        }
      ],
      "stateMutability": "view",
      "type": "function"
    },
    {
      "inputs": [],
      "name": "COMPTROLLER",
      "outputs": [
        {
          "internalType": "address",
          "name": "",
          "type": "address"
        }
      ],
      "stateMutability": "view",
      "type": "function"
    },
    {
      "inputs": [],
      "name": "DEFAULT_LEVEL",
      "outputs": [
        {
          "internalType": "uint48",
          "name": "",
          "type": "uint48"
        }
      ],
      "stateMutability": "view",
      "type": "function"
    },
    {
      "inputs": [],
      "name": "ETH_USD_PRICEFEED",
      "outputs": [
        {
          "internalType": "address",
          "name": "",
          "type": "address"
        }
      ],
      "stateMutability": "view",
      "type": "function"
    },
    {
      "inputs": [],
      "name": "WETH",
      "outputs": [
        {
          "internalType": "address",
          "name": "",
          "type": "address"
        }
      ],
      "stateMutability": "view",
      "type": "function"
    },
    {
      "inputs": [
        {
          "internalType": "address",
          "name": "",
          "type": "address"
        }
      ],
      "name": "adapters",
      "outputs": [
        {
          "internalType": "address",
          "name": "",
          "type": "address"
        }
      ],
      "stateMutability": "view",
      "type": "function"
    },
    {
      "inputs": [
        {
          "internalType": "address",
          "name": "_target",
          "type": "address"
        },
        {
          "internalType": "bytes",
          "name": "data",
          "type": "bytes"
        }
      ],
      "name": "deployAdapter",
      "outputs": [
        {
          "internalType": "address",
          "name": "adapter",
          "type": "address"
        }
      ],
      "stateMutability": "nonpayable",
      "type": "function"
    },
    {
      "inputs": [],
      "name": "divider",
      "outputs": [
        {
          "internalType": "address",
          "name": "",
          "type": "address"
        }
      ],
      "stateMutability": "view",
      "type": "function"
    },
    {
      "inputs": [],
      "name": "factoryParams",
      "outputs": [
        {
          "internalType": "address",
          "name": "oracle",
          "type": "address"
        },
        {
          "internalType": "address",
          "name": "stake",
          "type": "address"
        },
        {
          "internalType": "uint256",
          "name": "stakeSize",
          "type": "uint256"
        },
        {
          "internalType": "uint256",
          "name": "minm",
          "type": "uint256"
        },
        {
          "internalType": "uint256",
          "name": "maxm",
          "type": "uint256"
        },
        {
          "internalType": "uint128",
          "name": "ifee",
          "type": "uint128"
        },
        {
          "internalType": "uint16",
          "name": "mode",
          "type": "uint16"
        },
        {
          "internalType": "uint64",
          "name": "tilt",
          "type": "uint64"
        },
        {
          "internalType": "uint256",
          "name": "guard",
          "type": "uint256"
        }
      ],
      "stateMutability": "view",
      "type": "function"
    },
    {
      "inputs": [
        {
          "internalType": "address",
          "name": "",
          "type": "address"
        }
      ],
      "name": "isTrusted",
      "outputs": [
        {
          "internalType": "bool",
          "name": "",
          "type": "bool"
        }
      ],
      "stateMutability": "view",
      "type": "function"
    },
    {
      "inputs": [],
      "name": "reward",
      "outputs": [
        {
          "internalType": "address",
          "name": "",
          "type": "address"
        }
      ],
      "stateMutability": "view",
      "type": "function"
    },
    {
      "inputs": [
        {
          "internalType": "address",
          "name": "_adapter",
          "type": "address"
        },
        {
          "internalType": "address",
          "name": "_claimer",
          "type": "address"
        }
      ],
      "name": "setClaimer",
      "outputs": [],
      "stateMutability": "nonpayable",
      "type": "function"
    },
    {
      "inputs": [
        {
          "internalType": "address",
          "name": "user",
          "type": "address"
        },
        {
          "internalType": "bool",
          "name": "trusted",
          "type": "bool"
        }
      ],
      "name": "setIsTrusted",
      "outputs": [],
      "stateMutability": "nonpayable",
      "type": "function"
    },
    {
      "inputs": [
        {
          "internalType": "address",
          "name": "_adapter",
          "type": "address"
        },
        {
          "internalType": "address",
          "name": "_rewardToken",
          "type": "address"
        }
      ],
      "name": "setRewardTokens",
      "outputs": [],
      "stateMutability": "nonpayable",
      "type": "function"
    }
  ],
  "transactionHash": "0x1029136d562d5bd037864431b70f814d266d9b16516ee9dbe2ab13aabc7973f4",
  "args": [
    "0x86bA3E96Be68563E41c2f5769F1AF9fAf758e6E0",
    [
      "0x1887118E49e0F4A78Bd71B792a49dE03504A764D",
      "0xC02aaA39b223FE8D0A0e5C4F27eAD9083C756Cc2",
      "250000000000000000",
      "2629800",
      "315576000",
      "1000000000000000",
      0,
      0,
      "100000000000000000000000"
    ],
    "0xc00e94cb662c3520282e6f5717214004a7f26888"
  ],
  "numDeployments": 1,
  "solcInputHash": "c5b7868f48e895394a11bd95266f1225",
  "bytecode": "0x60a06040523480156200001157600080fd5b50604051620050a6380380620050a6833981016040819052620000349162000204565b3360008181526020818152604091829020805460ff19166001908117909155915191825285928592859285928592909182917fe95aec380cae16330d146d5499ef7db6f3657e477104a733e771bc09e500d986910160405180910390a2506001600160a01b0391821660809081528151600280549185166001600160a01b0319928316179055602083015160038054918616918316919091179055604083015160045560608301516005559082015160065560a08201516007805460c085015160e08601516001600160401b0316600160901b02600160901b600160d01b031961ffff909216600160801b026001600160901b03199093166001600160801b03909516949094179190911716919091179055610100909101516008556009805493909216921691909117905550620002e89350505050565b80516001600160a01b03811681146200018457600080fd5b919050565b60405161012081016001600160401b0381118282101715620001bb57634e487b7160e01b600052604160045260246000fd5b60405290565b80516001600160801b03811681146200018457600080fd5b805161ffff811681146200018457600080fd5b80516001600160401b03811681146200018457600080fd5b60008060008385036101608112156200021c57600080fd5b62000227856200016c565b935061012080601f19830112156200023e57600080fd5b6200024862000189565b915062000258602087016200016c565b825262000268604087016200016c565b6020830152606086015160408301526080860151606083015260a086015160808301526200029960c08701620001c1565b60a0830152620002ac60e08701620001d9565b60c0830152610100620002c1818801620001ec565b60e084015290860151908201529150620002df61014085016200016c565b90509250925092565b608051614d8d6200031960003960008181610178015281816106b3015281816109f20152610c960152614d8d6000f3fe60806040523480156200001157600080fd5b5060043610620001095760003560e01c806393d4750c11620000a3578063bbe451d5116200006e578063bbe451d51462000295578063d872a4cc146200039b578063e5711ffc14620003b2578063f5cf673b14620003eb57600080fd5b806393d4750c146200020557806396d648791462000226578063ad5c4648146200025d578063b71501bc146200027957600080fd5b80633cad2dcd11620000e45780633cad2dcd146200019a57806340cc63e114620001b15780635f82c67e14620001cd5780636109682014620001e957600080fd5b80631393916a146200010e578063228cb7331462000127578063378efa371462000172575b600080fd5b620001256200011f36600462000e08565b62000402565b005b600954620001489073ffffffffffffffffffffffffffffffffffffffff1681565b60405173ffffffffffffffffffffffffffffffffffffffff90911681526020015b60405180910390f35b620001487f000000000000000000000000000000000000000000000000000000000000000081565b62000148620001ab36600462000e75565b62000509565b62000148735f4ec3df9cbd43714fe2740f5e3616155c5b841981565b62000148733d9819210a31b4961b30ef54be2aed79b9c9cd3b81565b62000148734ddc2d193948926d02f9b1fe9e1daa0718270ed581565b6200020e601f81565b60405165ffffffffffff909116815260200162000169565b6200024c6200023736600462000f63565b60006020819052908152604090205460ff1681565b604051901515815260200162000169565b6200014873c02aaa39b223fe8d0a0e5c4f27ead9083c756cc281565b6200014873c00e94cb662c3520282e6f5717214004a7f2688881565b6002546003546004546005546006546007546008546200031e9673ffffffffffffffffffffffffffffffffffffffff9081169616949392916fffffffffffffffffffffffffffffffff811691700100000000000000000000000000000000820461ffff16917201000000000000000000000000000000000000900467ffffffffffffffff169089565b6040805173ffffffffffffffffffffffffffffffffffffffff9a8b1681529990981660208a015296880195909552606087019390935260808601919091526fffffffffffffffffffffffffffffffff1660a085015261ffff1660c084015267ffffffffffffffff1660e08301526101008201526101200162000169565b62000125620003ac36600462000f83565b6200081d565b62000148620003c336600462000f63565b60016020526000908152604090205473ffffffffffffffffffffffffffffffffffffffff1681565b62000125620003fc36600462000f83565b62000920565b3360009081526020819052604090205460ff1662000481576040517f08c379a000000000000000000000000000000000000000000000000000000000815260206004820152600960248201527f554e54525553544544000000000000000000000000000000000000000000000060448201526064015b60405180910390fd5b73ffffffffffffffffffffffffffffffffffffffff82166000818152602081815260409182902080547fffffffffffffffffffffffffffffffffffffffffffffffffffffffffffffff001685151590811790915591519182527fe95aec380cae16330d146d5499ef7db6f3657e477104a733e771bc09e500d986910160405180910390a25050565b6040517f8e8f294b00000000000000000000000000000000000000000000000000000000815273ffffffffffffffffffffffffffffffffffffffff831660048201526000908190733d9819210a31b4961b30ef54be2aed79b9c9cd3b90638e8f294b906024016060604051808303816000875af11580156200058f573d6000803e3d6000fd5b505050506040513d601f19601f82011682018060405250810190620005b5919062000fb6565b5050905080620005f1576040517fa2a94ace00000000000000000000000000000000000000000000000000000000815260040160405180910390fd5b604080516101008101825260025473ffffffffffffffffffffffffffffffffffffffff90811682526003541660208201526004549181019190915260055460608083019190915260065460808301526007547201000000000000000000000000000000000000810467ffffffffffffffff1660a0840152601f60c0840152700100000000000000000000000000000000900461ffff1660e083015285901b7fffffffffffffffffffffffffffffffffffffffff000000000000000000000000167f00000000000000000000000000000000000000000000000000000000000000008673ffffffffffffffffffffffffffffffffffffffff8116734ddc2d193948926d02f9b1fe9e1daa0718270ed5146200077d578773ffffffffffffffffffffffffffffffffffffffff16636f307dc36040518163ffffffff1660e01b8152600401602060405180830381865afa15801562000751573d6000803e3d6000fd5b505050506040513d601f19601f8201168201806040525081019062000777919062000ffe565b62000793565b73c02aaa39b223fe8d0a0e5c4f27ead9083c756cc25b6007546009546040516fffffffffffffffffffffffffffffffff90921691879173ffffffffffffffffffffffffffffffffffffffff1690620007d59062000dc8565b620007e6969594939291906200101e565b8190604051809103906000f590508015801562000807573d6000803e3d6000fd5b5092506200081583620009f0565b505092915050565b3360009081526020819052604090205460ff1662000898576040517f08c379a000000000000000000000000000000000000000000000000000000000815260206004820152600960248201527f554e545255535445440000000000000000000000000000000000000000000000604482015260640162000478565b6040517f8aee812700000000000000000000000000000000000000000000000000000000815273ffffffffffffffffffffffffffffffffffffffff8281166004830152831690638aee8127906024015b600060405180830381600087803b1580156200090357600080fd5b505af115801562000918573d6000803e3d6000fd5b505050505050565b3360009081526020819052604090205460ff166200099b576040517f08c379a000000000000000000000000000000000000000000000000000000000815260206004820152600960248201527f554e545255535445440000000000000000000000000000000000000000000000604482015260640162000478565b6040517fcdfb583200000000000000000000000000000000000000000000000000000000815273ffffffffffffffffffffffffffffffffffffffff828116600483015283169063cdfb583290602401620008e8565b7f000000000000000000000000000000000000000000000000000000000000000073ffffffffffffffffffffffffffffffffffffffff166372f7a0306040518163ffffffff1660e01b8152600401602060405180830381865afa15801562000a5c573d6000803e3d6000fd5b505050506040513d601f19601f8201168201806040525081019062000a82919062001108565b1562000d75578073ffffffffffffffffffffffffffffffffffffffff1663468f02d26040518163ffffffff1660e01b8152600401602060405180830381865afa92505050801562000b10575060408051601f3d9081017fffffffffffffffffffffffffffffffffffffffffffffffffffffffffffffffe016820190925262000b0d9181019062001128565b60015b62000b185750565b600080735f4ec3df9cbd43714fe2740f5e3616155c5b841973ffffffffffffffffffffffffffffffffffffffff1663feaf968c6040518163ffffffff1660e01b815260040160a060405180830381865afa15801562000b7b573d6000803e3d6000fd5b505050506040513d601f19601f8201168201806040525081019062000ba1919062001162565b50935050925050611c20814262000bb99190620011e6565b111562000bf1576040517ebfc92100000000000000000000000000000000000000000000000000000000815260040160405180910390fd5b600062000c1062000c08846402540be40062001200565b859062000d78565b905062000c92818673ffffffffffffffffffffffffffffffffffffffff1663f51e181a6040518163ffffffff1660e01b81526004016020604051808303816000875af115801562000c65573d6000803e3d6000fd5b505050506040513d601f19601f8201168201806040525081019062000c8b919062001128565b9062000d96565b90507f000000000000000000000000000000000000000000000000000000000000000073ffffffffffffffffffffffffffffffffffffffff16635fa0cc0a8662000ceb8460026006015462000d9690919063ffffffff16565b6040517fffffffff0000000000000000000000000000000000000000000000000000000060e085901b16815273ffffffffffffffffffffffffffffffffffffffff90921660048301526024820152604401600060405180830381600087803b15801562000d5757600080fd5b505af115801562000d6c573d6000803e3d6000fd5b50505050505050505b50565b600062000d8f8383670de0b6b3a764000062000da8565b9392505050565b600062000d8f83670de0b6b3a7640000845b82820281151584158583048514171662000dc157600080fd5b0492915050565b613b17806200124183390190565b73ffffffffffffffffffffffffffffffffffffffff8116811462000d7557600080fd5b801515811462000d7557600080fd5b6000806040838503121562000e1c57600080fd5b823562000e298162000dd6565b9150602083013562000e3b8162000df9565b809150509250929050565b7f4e487b7100000000000000000000000000000000000000000000000000000000600052604160045260246000fd5b6000806040838503121562000e8957600080fd5b823562000e968162000dd6565b9150602083013567ffffffffffffffff8082111562000eb457600080fd5b818501915085601f83011262000ec957600080fd5b81358181111562000ede5762000ede62000e46565b604051601f82017fffffffffffffffffffffffffffffffffffffffffffffffffffffffffffffffe0908116603f0116810190838211818310171562000f275762000f2762000e46565b8160405282815288602084870101111562000f4157600080fd5b8260208601602083013760006020848301015280955050505050509250929050565b60006020828403121562000f7657600080fd5b813562000d8f8162000dd6565b6000806040838503121562000f9757600080fd5b823562000fa48162000dd6565b9150602083013562000e3b8162000dd6565b60008060006060848603121562000fcc57600080fd5b835162000fd98162000df9565b60208501516040860151919450925062000ff38162000df9565b809150509250925092565b6000602082840312156200101157600080fd5b815162000d8f8162000dd6565b60006101a08201905073ffffffffffffffffffffffffffffffffffffffff8089168352808816602084015280871660408401526fffffffffffffffffffffffffffffffff861660608401528085511660808401528060208601511660a084015250604084015160c0830152606084015160e0830152608084015161010083015267ffffffffffffffff60a08501511661012083015260c0840151620010ce61014084018265ffffffffffff169052565b5060e084015161ffff81166101608401525073ffffffffffffffffffffffffffffffffffffffff8316610180830152979650505050505050565b6000602082840312156200111b57600080fd5b815162000d8f8162000df9565b6000602082840312156200113b57600080fd5b5051919050565b805169ffffffffffffffffffff811681146200115d57600080fd5b919050565b600080600080600060a086880312156200117b57600080fd5b620011868662001142565b9450602086015193506040860151925060608601519150620011ab6080870162001142565b90509295509295909350565b7f4e487b7100000000000000000000000000000000000000000000000000000000600052601160045260246000fd5b600082821015620011fb57620011fb620011b7565b500390565b6000817fffffffffffffffffffffffffffffffffffffffffffffffffffffffffffffffff04831182151516156200123b576200123b620011b7565b50029056fe6101406040523480156200001257600080fd5b5060405162003b1738038062003b17833981016040819052620000359162000633565b6001600160a01b03808716608090815281871660a081815283881660c09081526001600160801b03881660e09081528751600080549188166001600160a01b031992831617815560208a0151600180549190991692169190911790965560408089015160025560608901516003559488015160049081559288015160058054938a0151928a015161ffff16600160701b0261ffff60701b1965ffffffffffff90941668010000000000000000026001600160701b03199095166001600160401b0390931692909217939093179190911617905582516306fdde0360e01b815292518a948694869485948d948d948d948d94936306fdde039382820193929091908290030181865afa1580156200014f573d6000803e3d6000fd5b505050506040513d6000823e601f3d908101601f191682016040526200017991908101906200078f565b6040516020016200018b919062000847565b60405160208183030381529060405260069080519060200190620001b192919062000504565b50836001600160a01b03166395d89b416040518163ffffffff1660e01b8152600401600060405180830381865afa158015620001f1573d6000803e3d6000fd5b505050506040513d6000823e601f3d908101601f191682016040526200021b91908101906200078f565b6040516020016200022d919062000875565b604051602081830303815290604052600790805190602001906200025392919062000504565b5060805160405163095ea7b360e01b81526001600160a01b03918216600482015260001960248201529085169063095ea7b3906044016020604051808303816000875af1158015620002a9573d6000803e3d6000fd5b505050506040513d601f19601f82011682018060405250810190620002cf9190620008a3565b50602081015160805160405163095ea7b360e01b81526001600160a01b039182166004820152600019602482015291169063095ea7b3906044016020604051808303816000875af115801562000329573d6000803e3d6000fd5b505050506040513d601f19601f820116820180604052508101906200034f9190620008a3565b505050506001600160a01b038316600081815260086020908152604091829020805460ff1916600190811790915591519182529193507fe95aec380cae16330d146d5499ef7db6f3657e477104a733e771bc09e500d98692500160405180910390a250600a80546001600160a01b0319166001600160a01b03928316179055734ddc2d193948926d02f9b1fe9e1daa0718270ed5878216146101005262000409915085168660001962000482602090811b6200208b17901c565b836001600160a01b031663313ce5676040518163ffffffff1660e01b8152600401602060405180830381865afa15801562000448573d6000803e3d6000fd5b505050506040513d601f19601f820116820180604052508101906200046e9190620008ce565b60ff16610120525062000930945050505050565b600060405163095ea7b360e01b8152836004820152826024820152602060006044836000895af13d15601f3d1160016000511416171691505080620004fe5760405162461bcd60e51b815260206004820152600e60248201526d1054141493d59157d1905253115160921b604482015260640160405180910390fd5b50505050565b8280546200051290620008f3565b90600052602060002090601f01602090048101928262000536576000855562000581565b82601f106200055157805160ff191683800117855562000581565b8280016001018555821562000581579182015b828111156200058157825182559160200191906001019062000564565b506200058f92915062000593565b5090565b5b808211156200058f576000815560010162000594565b80516001600160a01b0381168114620005c257600080fd5b919050565b634e487b7160e01b600052604160045260246000fd5b60405161010081016001600160401b0381118282101715620006035762000603620005c7565b60405290565b805165ffffffffffff81168114620005c257600080fd5b805161ffff81168114620005c257600080fd5b6000806000806000808688036101a08112156200064f57600080fd5b6200065a88620005aa565b96506200066a60208901620005aa565b95506200067a60408901620005aa565b60608901519095506001600160801b03811681146200069857600080fd5b9350610100607f198201811315620006af57600080fd5b620006b9620005dd565b9150620006c960808a01620005aa565b8252620006d960a08a01620005aa565b602083015260c0890151604083015260e0890151606083015288015160808201526101208801516001600160401b03811681146200071657600080fd5b60a08201526200072a610140890162000609565b60c08201526200073e610160890162000620565b60e08201529150620007546101808801620005aa565b90509295509295509295565b60005b838110156200077d57818101518382015260200162000763565b83811115620004fe5750506000910152565b600060208284031215620007a257600080fd5b81516001600160401b0380821115620007ba57600080fd5b818401915084601f830112620007cf57600080fd5b815181811115620007e457620007e4620005c7565b604051601f8201601f19908116603f011681019083821181831017156200080f576200080f620005c7565b816040528281528760208487010111156200082957600080fd5b6200083c83602083016020880162000760565b979650505050505050565b600082516200085b81846020870162000760565b671020b230b83a32b960c11b920191825250600801919050565b600082516200088981846020870162000760565b6716b0b230b83a32b960c11b920191825250600801919050565b600060208284031215620008b657600080fd5b81518015158114620008c757600080fd5b9392505050565b600060208284031215620008e157600080fd5b815160ff81168114620008c757600080fd5b600181811c908216806200090857607f821691505b602082108114156200092a57634e487b7160e01b600052602260045260246000fd5b50919050565b60805160a05160c05160e05161010051610120516130da62000a3d600039600081816105e50152818161214a0152818161217701526121be01526000818161068001528181610c8e01528181610dde01528181610f16015281816111da015281816113810152611442015260006108e001526000818161078c01528181610cf101528181610db40152818161117501526115180152600081816104e4015281816109e401528181610bec01528181610d7b01528181610f3c01528181610fef015281816111ae015281816112c401528181611b6c01528181611be201528181611cca01528181611f8f01528181612020015261262b0152600081816105840152611a7801526130da6000f3fe6080604052600436106102a45760003560e01c8063613255ab11610161578063b484972a116100ca578063d01c6f2911610084578063d9d98ce411610061578063d9d98ce414610a06578063da4ca41314610a26578063f51e181a14610a3c57005b8063d01c6f2914610978578063d379be23146109a5578063d4b83992146109d257005b8063c39a3b29116100b2578063c39a3b2914610923578063c5c108c714610942578063cdfb58321461095857005b8063b484972a146108ae578063b8c15a9f146108ce57005b80638aee81271161011b57806396d648791161010357806396d6487914610840578063a8d5fd6514610870578063ad5c46481461088657005b80638aee81271461080b57806395d89b411461082b57005b80636f307dc3116101495780636f307dc31461077a5780636fd5ae15146107ae5780638237e538146107d757005b8063613255ab1461073257806364c56e3c1461075257005b8063378efa371161020e57806351c39ea1116101c85780635cffe9de116101a55780635cffe9de146106c25780635f82c67e146106e2578063610968201461070a57005b806351c39ea11461064e57806354cbe6401461066e578063572acb9f146106a257005b806345ed132f116101f657806345ed132f146105d3578063468f02d2146106195780634aae9fed1461062e57005b8063378efa3714610572578063379f53e3146105a657005b8063226778491161025f57806327b327d01161024757806327b327d0146104b6578063295a52121461051a57806329a436081461054557005b80632267784914610441578063228cb7331461046457005b80630e1224231161028d5780630e122423146103b55780631393916a1461040057806314282f581461042057005b806306fdde03146102a6578063083118d5146102d1575b005b3480156102b257600080fd5b506102bb610a51565b6040516102c89190612991565b60405180910390f35b3480156102dd57600080fd5b5060005460015460025460035460045460055461034c9573ffffffffffffffffffffffffffffffffffffffff90811695169392919067ffffffffffffffff81169068010000000000000000810465ffffffffffff16906e010000000000000000000000000000900461ffff1688565b6040805173ffffffffffffffffffffffffffffffffffffffff998a168152989097166020890152958701949094526060860192909252608085015267ffffffffffffffff1660a084015265ffffffffffff1660c083015261ffff1660e0820152610100016102c8565b3480156103c157600080fd5b506103f06103d0366004612a29565b601160209081526000928352604080842090915290825290205460ff1681565b60405190151581526020016102c8565b34801561040c57600080fd5b506102a461041b366004612a6a565b610adf565b34801561042c57600080fd5b506102a461043b366004612a9f565b50505050565b34801561044d57600080fd5b50610456610be7565b6040519081526020016102c8565b34801561047057600080fd5b50600a546104919073ffffffffffffffffffffffffffffffffffffffff1681565b60405173ffffffffffffffffffffffffffffffffffffffff90911681526020016102c8565b3480156104c257600080fd5b506001546002546040805173ffffffffffffffffffffffffffffffffffffffff7f00000000000000000000000000000000000000000000000000000000000000008116825290931660208401528201526060016102c8565b34801561052657600080fd5b506005546e010000000000000000000000000000900461ffff16610456565b34801561055157600080fd5b50610456610560366004612ad1565b600e6020526000908152604090205481565b34801561057e57600080fd5b506104917f000000000000000000000000000000000000000000000000000000000000000081565b3480156105b257600080fd5b506104566105c1366004612ad1565b600f6020526000908152604090205481565b3480156105df57600080fd5b506106077f000000000000000000000000000000000000000000000000000000000000000081565b60405160ff90911681526020016102c8565b34801561062557600080fd5b50610456610c8a565b34801561063a57600080fd5b50610456610649366004612aee565b610d77565b34801561065a57600080fd5b50610456610669366004612aee565b611171565b34801561067a57600080fd5b506103f07f000000000000000000000000000000000000000000000000000000000000000081565b3480156106ae57600080fd5b506102a46106bd366004612b53565b61153f565b3480156106ce57600080fd5b506103f06106dd366004612bbf565b611a5d565b3480156106ee57600080fd5b50610491733d9819210a31b4961b30ef54be2aed79b9c9cd3b81565b34801561071657600080fd5b50610491734ddc2d193948926d02f9b1fe9e1daa0718270ed581565b34801561073e57600080fd5b5061045661074d366004612ad1565b611cff565b34801561075e57600080fd5b50600354600454604080519283526020830191909152016102c8565b34801561078657600080fd5b506104917f000000000000000000000000000000000000000000000000000000000000000081565b3480156107ba57600080fd5b5060055468010000000000000000900465ffffffffffff16610456565b3480156107e357600080fd5b506104567f439148f0bbc682ca079e46d6e2c2f0c1e3b820f1a291b069d8882abf8cf18dd981565b34801561081757600080fd5b506102a4610826366004612ad1565b611d96565b34801561083757600080fd5b506102bb611e86565b34801561084c57600080fd5b506103f061085b366004612ad1565b60086020526000908152604090205460ff1681565b34801561087c57600080fd5b50610456600b5481565b34801561089257600080fd5b5061049173c02aaa39b223fe8d0a0e5c4f27ead9083c756cc281565b3480156108ba57600080fd5b506102a46108c9366004612c5e565b611e93565b3480156108da57600080fd5b506109027f000000000000000000000000000000000000000000000000000000000000000081565b6040516fffffffffffffffffffffffffffffffff90911681526020016102c8565b34801561092f57600080fd5b5060055467ffffffffffffffff16610456565b34801561094e57600080fd5b50610456600c5481565b34801561096457600080fd5b506102a4610973366004612ad1565b611ea3565b34801561098457600080fd5b50610456610993366004612ad1565b60106020526000908152604090205481565b3480156109b157600080fd5b506009546104919073ffffffffffffffffffffffffffffffffffffffff1681565b3480156109de57600080fd5b506104917f000000000000000000000000000000000000000000000000000000000000000081565b348015610a1257600080fd5b50610456610a21366004612a29565b611f8b565b348015610a3257600080fd5b50610456600d5481565b348015610a4857600080fd5b5061045661201b565b60068054610a5e90612c9c565b80601f0160208091040260200160405190810160405280929190818152602001828054610a8a90612c9c565b8015610ad75780601f10610aac57610100808354040283529160200191610ad7565b820191906000526020600020905b815481529060010190602001808311610aba57829003601f168201915b505050505081565b3360009081526008602052604090205460ff16610b5d576040517f08c379a000000000000000000000000000000000000000000000000000000000815260206004820152600960248201527f554e54525553544544000000000000000000000000000000000000000000000060448201526064015b60405180910390fd5b73ffffffffffffffffffffffffffffffffffffffff821660008181526008602090815260409182902080547fffffffffffffffffffffffffffffffffffffffffffffffffffffffffffffff001685151590811790915591519182527fe95aec380cae16330d146d5499ef7db6f3657e477104a733e771bc09e500d986910160405180910390a25050565b6000807f000000000000000000000000000000000000000000000000000000000000000073ffffffffffffffffffffffffffffffffffffffff1663182df0f56040518163ffffffff1660e01b8152600401602060405180830381865afa158015610c55573d6000803e3d6000fd5b505050506040513d601f19601f82011682018060405250810190610c799190612cf0565b9050610c8481612144565b91505090565b60007f0000000000000000000000000000000000000000000000000000000000000000610d6a576000546040517faea9107800000000000000000000000000000000000000000000000000000000815273ffffffffffffffffffffffffffffffffffffffff7f0000000000000000000000000000000000000000000000000000000000000000811660048301529091169063aea9107890602401602060405180830381865afa158015610d41573d6000803e3d6000fd5b505050506040513d601f19601f82011682018060405250810190610d659190612cf0565b905090565b50670de0b6b3a764000090565b60007f0000000000000000000000000000000000000000000000000000000000000000610ddc73ffffffffffffffffffffffffffffffffffffffff7f0000000000000000000000000000000000000000000000000000000000000000163330866121f7565b7f000000000000000000000000000000000000000000000000000000000000000015610e81576040517f2e1a7d4d0000000000000000000000000000000000000000000000000000000081526004810184905273c02aaa39b223fe8d0a0e5c4f27ead9083c756cc290632e1a7d4d90602401600060405180830381600087803b158015610e6857600080fd5b505af1158015610e7c573d6000803e3d6000fd5b505050505b6040517f70a0823100000000000000000000000000000000000000000000000000000000815230600482015260009073ffffffffffffffffffffffffffffffffffffffff8316906370a0823190602401602060405180830381865afa158015610eee573d6000803e3d6000fd5b505050506040513d601f19601f82011682018060405250810190610f129190612cf0565b90507f000000000000000000000000000000000000000000000000000000000000000015610fc0577f000000000000000000000000000000000000000000000000000000000000000073ffffffffffffffffffffffffffffffffffffffff16631249c58b856040518263ffffffff1660e01b81526004016000604051808303818588803b158015610fa257600080fd5b505af1158015610fb6573d6000803e3d6000fd5b50505050506110a8565b6040517fa0712d68000000000000000000000000000000000000000000000000000000008152600481018590527f000000000000000000000000000000000000000000000000000000000000000073ffffffffffffffffffffffffffffffffffffffff169063a0712d68906024016020604051808303816000875af115801561104d573d6000803e3d6000fd5b505050506040513d601f19601f820116820180604052508101906110719190612cf0565b156110a8576040517f07637bd800000000000000000000000000000000000000000000000000000000815260040160405180910390fd5b6040517f70a0823100000000000000000000000000000000000000000000000000000000815230600482015260009073ffffffffffffffffffffffffffffffffffffffff8416906370a0823190602401602060405180830381865afa158015611115573d6000803e3d6000fd5b505050506040513d601f19601f820116820180604052508101906111399190612cf0565b9050611169336111498484612d38565b955073ffffffffffffffffffffffffffffffffffffffff851690866122bd565b505050919050565b60007f00000000000000000000000000000000000000000000000000000000000000006111d673ffffffffffffffffffffffffffffffffffffffff7f0000000000000000000000000000000000000000000000000000000000000000163330866121f7565b60007f0000000000000000000000000000000000000000000000000000000000000000611290576040517f70a0823100000000000000000000000000000000000000000000000000000000815230600482015273ffffffffffffffffffffffffffffffffffffffff8316906370a0823190602401602060405180830381865afa158015611267573d6000803e3d6000fd5b505050506040513d601f19601f8201168201806040525081019061128b9190612cf0565b611292565b475b6040517fdb006a75000000000000000000000000000000000000000000000000000000008152600481018690529091507f000000000000000000000000000000000000000000000000000000000000000073ffffffffffffffffffffffffffffffffffffffff169063db006a75906024016020604051808303816000875af1158015611322573d6000803e3d6000fd5b505050506040513d601f19601f820116820180604052508101906113469190612cf0565b1561137d576040517fbb1205c200000000000000000000000000000000000000000000000000000000815260040160405180910390fd5b60007f0000000000000000000000000000000000000000000000000000000000000000611437576040517f70a0823100000000000000000000000000000000000000000000000000000000815230600482015273ffffffffffffffffffffffffffffffffffffffff8416906370a0823190602401602060405180830381865afa15801561140e573d6000803e3d6000fd5b505050506040513d601f19601f820116820180604052508101906114329190612cf0565b611439565b475b905081810393507f0000000000000000000000000000000000000000000000000000000000000000156114fe5760405160009073c02aaa39b223fe8d0a0e5c4f27ead9083c756cc29086908381818185875af1925050503d80600081146114bc576040519150601f19603f3d011682016040523d82523d6000602084013e6114c1565b606091505b50509050806114fc576040517f90b8ec1800000000000000000000000000000000000000000000000000000000815260040160405180910390fd5b505b61116973ffffffffffffffffffffffffffffffffffffffff7f00000000000000000000000000000000000000000000000000000000000000001633866122bd565b60003073ffffffffffffffffffffffffffffffffffffffff1663378efa376040518163ffffffff1660e01b8152600401602060405180830381865afa15801561158c573d6000803e3d6000fd5b505050506040513d601f19601f820116820180604052508101906115b09190612d4f565b905060005b82811015611a555760005b85811015611a425760008787838181106115dc576115dc612d6c565b90506020020160208101906115f19190612ad1565b905060008473ffffffffffffffffffffffffffffffffffffffff1663574e77953089898881811061162457611624612d6c565b6040517fffffffff0000000000000000000000000000000000000000000000000000000060e087901b16815273ffffffffffffffffffffffffffffffffffffffff90941660048501526020029190910135602483015250604401602060405180830381865afa15801561169b573d6000803e3d6000fd5b505050506040513d601f19601f820116820180604052508101906116bf9190612d4f565b6040517f70a0823100000000000000000000000000000000000000000000000000000000815273ffffffffffffffffffffffffffffffffffffffff848116600483015291909116906370a0823190602401602060405180830381865afa15801561172d573d6000803e3d6000fd5b505050506040513d601f19601f820116820180604052508101906117519190612cf0565b90504287878681811061176657611766612d6c565b905060200201351115801561177b5750600081115b80156117d9575073ffffffffffffffffffffffffffffffffffffffff82166000908152601160205260408120908888878181106117ba576117ba612d6c565b602090810292909201358352508101919091526040016000205460ff16155b15611a2d576117e782612376565b60006118c78673ffffffffffffffffffffffffffffffffffffffff16632f9cd854308b8b8a81811061181b5761181b612d6c565b6040517fffffffff0000000000000000000000000000000000000000000000000000000060e087901b16815273ffffffffffffffffffffffffffffffffffffffff9485166004820152602090910292909201356024830152509087166044820152606401602060405180830381865afa15801561189c573d6000803e3d6000fd5b505050506040513d601f19601f820116820180604052508101906118c09190612cf0565b83906125de565b905080600d60008282546118db9190612d38565b909155505073ffffffffffffffffffffffffffffffffffffffff83166000908152600e602052604081208054839290611915908490612d38565b909155505073ffffffffffffffffffffffffffffffffffffffff83166000908152601060205260408120805483929061194f908490612d9b565b909155505073ffffffffffffffffffffffffffffffffffffffff831660009081526011602052604081206001918a8a8981811061198e5761198e612d6c565b90506020020135815260200190815260200160002060006101000a81548160ff0219169083151502179055508273ffffffffffffffffffffffffffffffffffffffff167f5758e413a9bfd3ec45a67abaa9ee2396cab143a505332bf7ab48c0e624b65f11828a8a89818110611a0557611a05612d6c565b90506020020135604051611a23929190918252602082015260400190565b60405180910390a2505b50508080611a3a90612db3565b9150506115c0565b5080611a4d81612db3565b9150506115b5565b505050505050565b60003373ffffffffffffffffffffffffffffffffffffffff167f000000000000000000000000000000000000000000000000000000000000000073ffffffffffffffffffffffffffffffffffffffff166377aace1a6040518163ffffffff1660e01b8152600401602060405180830381865afa158015611ae1573d6000803e3d6000fd5b505050506040513d601f19601f82011682018060405250810190611b059190612d4f565b73ffffffffffffffffffffffffffffffffffffffff1614611b52576040517ffb02114900000000000000000000000000000000000000000000000000000000815260040160405180910390fd5b611b9373ffffffffffffffffffffffffffffffffffffffff7f00000000000000000000000000000000000000000000000000000000000000001687866122bd565b6040517f23e30c8b00000000000000000000000000000000000000000000000000000000815260009073ffffffffffffffffffffffffffffffffffffffff8816906323e30c8b90611c129033907f0000000000000000000000000000000000000000000000000000000000000000908a9087908b908b90600401612dec565b6020604051808303816000875af1158015611c31573d6000803e3d6000fd5b505050506040513d601f19601f82011682018060405250810190611c559190612cf0565b90507f439148f0bbc682ca079e46d6e2c2f0c1e3b820f1a291b069d8882abf8cf18dd98114611cb0576040517f207df21c00000000000000000000000000000000000000000000000000000000815260040160405180910390fd5b611cf273ffffffffffffffffffffffffffffffffffffffff7f0000000000000000000000000000000000000000000000000000000000000000168830886121f7565b5060019695505050505050565b6040517f70a0823100000000000000000000000000000000000000000000000000000000815230600482015260009073ffffffffffffffffffffffffffffffffffffffff8316906370a0823190602401602060405180830381865afa158015611d6c573d6000803e3d6000fd5b505050506040513d601f19601f82011682018060405250810190611d909190612cf0565b92915050565b3360009081526008602052604090205460ff16611e0f576040517f08c379a000000000000000000000000000000000000000000000000000000000815260206004820152600960248201527f554e5452555354454400000000000000000000000000000000000000000000006044820152606401610b54565b611e176125fa565b600a80547fffffffffffffffffffffffff00000000000000000000000000000000000000001673ffffffffffffffffffffffffffffffffffffffff83169081179091556040517fb74d956cf6ec7842d08ebf0ab19ec03a88c1efd4a50ea4349d30f9c4ce512e9890600090a250565b60078054610a5e90612c9c565b611e9e838383612704565b505050565b3360009081526008602052604090205460ff16611f1c576040517f08c379a000000000000000000000000000000000000000000000000000000000815260206004820152600960248201527f554e5452555354454400000000000000000000000000000000000000000000006044820152606401610b54565b600980547fffffffffffffffffffffffff00000000000000000000000000000000000000001673ffffffffffffffffffffffffffffffffffffffff83169081179091556040517f70e1f29a97aa858ce785e48a42e40cd51020a45c8a2e4520272a6303585916a990600090a250565b60007f000000000000000000000000000000000000000000000000000000000000000073ffffffffffffffffffffffffffffffffffffffff168373ffffffffffffffffffffffffffffffffffffffff1614612012576040517f3dd1b30500000000000000000000000000000000000000000000000000000000815260040160405180910390fd5b50600092915050565b6000807f000000000000000000000000000000000000000000000000000000000000000073ffffffffffffffffffffffffffffffffffffffff1663bd6d894d6040518163ffffffff1660e01b81526004016020604051808303816000875af1158015610c55573d6000803e3d6000fd5b60006040517f095ea7b3000000000000000000000000000000000000000000000000000000008152836004820152826024820152602060006044836000895af13d15601f3d116001600051141617169150508061043b576040517f08c379a000000000000000000000000000000000000000000000000000000000815260206004820152600e60248201527f415050524f56455f4641494c45440000000000000000000000000000000000006044820152606401610b54565b600060087f000000000000000000000000000000000000000000000000000000000000000060ff1610156121b75761219d7f00000000000000000000000000000000000000000000000000000000000000006008612e72565b6121a890600a612fb5565b6121b29083612fc4565b611d90565b6121e260087f0000000000000000000000000000000000000000000000000000000000000000612e72565b6121ed90600a612fb5565b611d909083613001565b60006040517f23b872dd0000000000000000000000000000000000000000000000000000000081528460048201528360248201528260448201526020600060648360008a5af13d15601f3d11600160005114161716915050806122b6576040517f08c379a000000000000000000000000000000000000000000000000000000000815260206004820152601460248201527f5452414e534645525f46524f4d5f4641494c45440000000000000000000000006044820152606401610b54565b5050505050565b60006040517fa9059cbb000000000000000000000000000000000000000000000000000000008152836004820152826024820152602060006044836000895af13d15601f3d116001600051141617169150508061043b576040517f08c379a000000000000000000000000000000000000000000000000000000000815260206004820152600f60248201527f5452414e534645525f4641494c454400000000000000000000000000000000006044820152606401610b54565b61237e6125fa565b600c54600a546040517f70a082310000000000000000000000000000000000000000000000000000000081523060048201526000929173ffffffffffffffffffffffffffffffffffffffff16906370a0823190602401602060405180830381865afa1580156123f1573d6000803e3d6000fd5b505050506040513d601f19601f820116820180604052508101906124159190612cf0565b61241f9190612d38565b600d549091501561245c57600d546124459082906b033b2e3c9fd0803ce800000061291e565b600b60008282546124569190612d9b565b90915550505b73ffffffffffffffffffffffffffffffffffffffff82166000908152600f6020908152604080832054600b54600e909352908320549092916124ab91906b033b2e3c9fd0803ce8000000612933565b9050818111156124db57600a546124db9073ffffffffffffffffffffffffffffffffffffffff16858484036122bd565b600a546040517f70a0823100000000000000000000000000000000000000000000000000000000815230600482015273ffffffffffffffffffffffffffffffffffffffff909116906370a0823190602401602060405180830381865afa158015612549573d6000803e3d6000fd5b505050506040513d601f19601f8201168201806040525081019061256d9190612cf0565b600c55600a5473ffffffffffffffffffffffffffffffffffffffff9081169085167fad4a9acf26d8bba7a8cf1a41160d59be042ee554578e256c98d2ab74cdd435428484116125bd5760006125c7565b6125c78585612d38565b60405190815260200160405180910390a350505050565b60006125f383670de0b6b3a76400008461293c565b9392505050565b43601254146127025743601255604080516001808252818301909252600091602080830190803683370190505090507f00000000000000000000000000000000000000000000000000000000000000008160008151811061265d5761265d612d6c565b73ffffffffffffffffffffffffffffffffffffffff909216602092830291909101909101526040517f1c3db2e0000000000000000000000000000000000000000000000000000000008152733d9819210a31b4961b30ef54be2aed79b9c9cd3b90631c3db2e0906126d4903090859060040161303c565b600060405180830381600087803b1580156126ee57600080fd5b505af11580156122b6573d6000803e3d6000fd5b565b3360009081526008602052604090205460ff1661277d576040517f08c379a000000000000000000000000000000000000000000000000000000000815260206004820152600960248201527f554e5452555354454400000000000000000000000000000000000000000000006044820152606401610b54565b61278683612376565b81156128b15780156127e95781600d60008282546127a49190612d9b565b909155505073ffffffffffffffffffffffffffffffffffffffff83166000908152600e6020526040812080548492906127de908490612d9b565b909155506128b19050565b73ffffffffffffffffffffffffffffffffffffffff83166000908152601060205260409020548015612857578083101561282757600092900361282e565b9091039060005b73ffffffffffffffffffffffffffffffffffffffff841660009081526010602052604090208190555b82156128af5782600d600082825461286f9190612d38565b909155505073ffffffffffffffffffffffffffffffffffffffff84166000908152600e6020526040812080548592906128a9908490612d38565b90915550505b505b600b5473ffffffffffffffffffffffffffffffffffffffff84166000908152600e60205260409020546128f0916b033b2e3c9fd0803ce800000061295b565b73ffffffffffffffffffffffffffffffffffffffff9093166000908152600f60205260409020929092555050565b600061292b84838561293c565b949350505050565b600061292b8484845b82820281151584158583048514171661295457600080fd5b0492915050565b600061292b84848482820281151584158583048514171661297b57600080fd5b6001826001830304018115150290509392505050565b600060208083528351808285015260005b818110156129be578581018301518582016040015282016129a2565b818111156129d0576000604083870101525b50601f017fffffffffffffffffffffffffffffffffffffffffffffffffffffffffffffffe016929092016040019392505050565b73ffffffffffffffffffffffffffffffffffffffff81168114612a2657600080fd5b50565b60008060408385031215612a3c57600080fd5b8235612a4781612a04565b946020939093013593505050565b80358015158114612a6557600080fd5b919050565b60008060408385031215612a7d57600080fd5b8235612a8881612a04565b9150612a9660208401612a55565b90509250929050565b60008060008060808587031215612ab557600080fd5b5050823594602084013594506040840135936060013592509050565b600060208284031215612ae357600080fd5b81356125f381612a04565b600060208284031215612b0057600080fd5b5035919050565b60008083601f840112612b1957600080fd5b50813567ffffffffffffffff811115612b3157600080fd5b6020830191508360208260051b8501011115612b4c57600080fd5b9250929050565b60008060008060408587031215612b6957600080fd5b843567ffffffffffffffff80821115612b8157600080fd5b612b8d88838901612b07565b90965094506020870135915080821115612ba657600080fd5b50612bb387828801612b07565b95989497509550505050565b600080600080600060808688031215612bd757600080fd5b8535612be281612a04565b94506020860135612bf281612a04565b935060408601359250606086013567ffffffffffffffff80821115612c1657600080fd5b818801915088601f830112612c2a57600080fd5b813581811115612c3957600080fd5b896020828501011115612c4b57600080fd5b9699959850939650602001949392505050565b600080600060608486031215612c7357600080fd5b8335612c7e81612a04565b925060208401359150612c9360408501612a55565b90509250925092565b600181811c90821680612cb057607f821691505b60208210811415612cea577f4e487b7100000000000000000000000000000000000000000000000000000000600052602260045260246000fd5b50919050565b600060208284031215612d0257600080fd5b5051919050565b7f4e487b7100000000000000000000000000000000000000000000000000000000600052601160045260246000fd5b600082821015612d4a57612d4a612d09565b500390565b600060208284031215612d6157600080fd5b81516125f381612a04565b7f4e487b7100000000000000000000000000000000000000000000000000000000600052603260045260246000fd5b60008219821115612dae57612dae612d09565b500190565b60007fffffffffffffffffffffffffffffffffffffffffffffffffffffffffffffffff821415612de557612de5612d09565b5060010190565b600073ffffffffffffffffffffffffffffffffffffffff808916835280881660208401525085604083015284606083015260a060808301528260a0830152828460c0840137600060c0848401015260c07fffffffffffffffffffffffffffffffffffffffffffffffffffffffffffffffe0601f8501168301019050979650505050505050565b600060ff821660ff841680821015612e8c57612e8c612d09565b90039392505050565b600181815b80851115612eee57817fffffffffffffffffffffffffffffffffffffffffffffffffffffffffffffffff04821115612ed457612ed4612d09565b80851615612ee157918102915b93841c9390800290612e9a565b509250929050565b600082612f0557506001611d90565b81612f1257506000611d90565b8160018114612f285760028114612f3257612f4e565b6001915050611d90565b60ff841115612f4357612f43612d09565b50506001821b611d90565b5060208310610133831016604e8410600b8410161715612f71575081810a611d90565b612f7b8383612e95565b807fffffffffffffffffffffffffffffffffffffffffffffffffffffffffffffffff04821115612fad57612fad612d09565b029392505050565b60006125f360ff841683612ef6565b6000817fffffffffffffffffffffffffffffffffffffffffffffffffffffffffffffffff0483118215151615612ffc57612ffc612d09565b500290565b600082613037577f4e487b7100000000000000000000000000000000000000000000000000000000600052601260045260246000fd5b500490565b60006040820173ffffffffffffffffffffffffffffffffffffffff80861684526020604081860152828651808552606087019150828801945060005b81811015613096578551851683529483019491830191600101613078565b50909897505050505050505056fea26469706673582212205fa70fe379173b3f88fcc21f76e1e0ab09a92601f0f1dfa577c15833e607bb0c64736f6c634300080b0033a264697066735822122028f08af604aabe39a058c25cb3916b0b70dda9381bc23136089d3ce70db9fecc64736f6c634300080b0033",
  "devdoc": {
    "kind": "dev",
    "methods": {
      "setClaimer(address,address)": {
        "params": {
          "_claimer": "New claimer contract address"
        }
      },
      "setRewardTokens(address,address)": {
        "params": {
          "_adapter": "address of adapter to update the reward token on",
          "_rewardToken": "address of reward token"
        }
      }
    },
    "version": 1
  },
  "userdoc": {
    "events": {
      "AdapterAdded(address,address)": {
        "notice": "Logs the deployment of the adapter"
      }
    },
    "kind": "user",
    "methods": {
      "DEFAULT_LEVEL()": {
        "notice": "Sets level to `31` by default, which keeps all Divider lifecycle methods public (`issue`, `combine`, `collect`, etc), but not the `onRedeem` hook."
      },
      "adapters(address)": {
        "notice": "target -> adapter"
      },
      "divider()": {
        "notice": "Sense core Divider address"
      },
      "factoryParams()": {
        "notice": "params for adapters deployed with this factory"
      },
      "setClaimer(address,address)": {
        "notice": "Sets `claimer` for a given adapter"
      },
      "setRewardTokens(address,address)": {
        "notice": "Update reward token for given adapter"
      }
    },
    "version": 1
  },
  "storageLayout": {
    "storage": [
      {
        "astId": 18982,
        "contract": "@sense-finance/v1-core/src/adapters/implementations/compound/CFactory.sol:CFactory",
        "label": "isTrusted",
        "offset": 0,
        "slot": "0",
        "type": "t_mapping(t_address,t_bool)"
      },
      {
        "astId": 9295,
        "contract": "@sense-finance/v1-core/src/adapters/implementations/compound/CFactory.sol:CFactory",
        "label": "adapters",
        "offset": 0,
        "slot": "1",
        "type": "t_mapping(t_address,t_address)"
      },
      {
        "astId": 9299,
        "contract": "@sense-finance/v1-core/src/adapters/implementations/compound/CFactory.sol:CFactory",
        "label": "factoryParams",
        "offset": 0,
        "slot": "2",
        "type": "t_struct(FactoryParams)9318_storage"
      },
      {
        "astId": 9452,
        "contract": "@sense-finance/v1-core/src/adapters/implementations/compound/CFactory.sol:CFactory",
        "label": "reward",
        "offset": 0,
        "slot": "9",
        "type": "t_address"
      }
    ],
    "types": {
      "t_address": {
        "encoding": "inplace",
        "label": "address",
        "numberOfBytes": "20"
      },
      "t_bool": {
        "encoding": "inplace",
        "label": "bool",
        "numberOfBytes": "1"
      },
      "t_mapping(t_address,t_address)": {
        "encoding": "mapping",
        "key": "t_address",
        "label": "mapping(address => address)",
        "numberOfBytes": "32",
        "value": "t_address"
      },
      "t_mapping(t_address,t_bool)": {
        "encoding": "mapping",
        "key": "t_address",
        "label": "mapping(address => bool)",
        "numberOfBytes": "32",
        "value": "t_bool"
      },
      "t_struct(FactoryParams)9318_storage": {
        "encoding": "inplace",
        "label": "struct BaseFactory.FactoryParams",
        "members": [
          {
            "astId": 9301,
            "contract": "@sense-finance/v1-core/src/adapters/implementations/compound/CFactory.sol:CFactory",
            "label": "oracle",
            "offset": 0,
            "slot": "0",
            "type": "t_address"
          },
          {
            "astId": 9303,
            "contract": "@sense-finance/v1-core/src/adapters/implementations/compound/CFactory.sol:CFactory",
            "label": "stake",
            "offset": 0,
            "slot": "1",
            "type": "t_address"
          },
          {
            "astId": 9305,
            "contract": "@sense-finance/v1-core/src/adapters/implementations/compound/CFactory.sol:CFactory",
            "label": "stakeSize",
            "offset": 0,
            "slot": "2",
            "type": "t_uint256"
          },
          {
            "astId": 9307,
            "contract": "@sense-finance/v1-core/src/adapters/implementations/compound/CFactory.sol:CFactory",
            "label": "minm",
            "offset": 0,
            "slot": "3",
            "type": "t_uint256"
          },
          {
            "astId": 9309,
            "contract": "@sense-finance/v1-core/src/adapters/implementations/compound/CFactory.sol:CFactory",
            "label": "maxm",
            "offset": 0,
            "slot": "4",
            "type": "t_uint256"
          },
          {
            "astId": 9311,
            "contract": "@sense-finance/v1-core/src/adapters/implementations/compound/CFactory.sol:CFactory",
            "label": "ifee",
            "offset": 0,
            "slot": "5",
            "type": "t_uint128"
          },
          {
            "astId": 9313,
            "contract": "@sense-finance/v1-core/src/adapters/implementations/compound/CFactory.sol:CFactory",
            "label": "mode",
            "offset": 16,
            "slot": "5",
            "type": "t_uint16"
          },
          {
            "astId": 9315,
            "contract": "@sense-finance/v1-core/src/adapters/implementations/compound/CFactory.sol:CFactory",
            "label": "tilt",
            "offset": 18,
            "slot": "5",
            "type": "t_uint64"
          },
          {
            "astId": 9317,
            "contract": "@sense-finance/v1-core/src/adapters/implementations/compound/CFactory.sol:CFactory",
            "label": "guard",
            "offset": 0,
            "slot": "6",
            "type": "t_uint256"
          }
        ],
        "numberOfBytes": "224"
      },
      "t_uint128": {
        "encoding": "inplace",
        "label": "uint128",
        "numberOfBytes": "16"
      },
      "t_uint16": {
        "encoding": "inplace",
        "label": "uint16",
        "numberOfBytes": "2"
      },
      "t_uint256": {
        "encoding": "inplace",
        "label": "uint256",
        "numberOfBytes": "32"
      },
      "t_uint64": {
        "encoding": "inplace",
        "label": "uint64",
        "numberOfBytes": "8"
      }
    }
  }
}