{
  "address": "0xE08adc3cE3cc07FCf39306bce79d9D9517147ba3",
  "abi": [
    {
      "inputs": [
        {
          "internalType": "address",
          "name": "_divider",
          "type": "address"
        }
      ],
      "stateMutability": "nonpayable",
      "type": "constructor"
    },
    {
      "anonymous": false,
      "inputs": [
        {
          "indexed": true,
          "internalType": "address",
          "name": "adapter",
          "type": "address"
        }
      ],
      "name": "Stopped",
      "type": "event"
    },
    {
      "anonymous": false,
      "inputs": [
        {
          "indexed": true,
          "internalType": "address",
          "name": "user",
          "type": "address"
        },
        {
          "indexed": false,
          "internalType": "bool",
          "name": "trusted",
          "type": "bool"
        }
      ],
      "name": "UserTrustUpdated",
      "type": "event"
    },
    {
      "inputs": [],
      "name": "divider",
      "outputs": [
        {
          "internalType": "address",
          "name": "",
          "type": "address"
        }
      ],
      "stateMutability": "view",
      "type": "function"
    },
    {
      "inputs": [
        {
          "internalType": "address",
          "name": "",
          "type": "address"
        }
      ],
      "name": "isTrusted",
      "outputs": [
        {
          "internalType": "bool",
          "name": "",
          "type": "bool"
        }
      ],
      "stateMutability": "view",
      "type": "function"
    },
    {
      "inputs": [
        {
          "internalType": "address",
          "name": "user",
          "type": "address"
        },
        {
          "internalType": "bool",
          "name": "trusted",
          "type": "bool"
        }
      ],
      "name": "setIsTrusted",
      "outputs": [],
      "stateMutability": "nonpayable",
      "type": "function"
    },
    {
      "inputs": [
        {
          "internalType": "address[]",
          "name": "adapters",
          "type": "address[]"
        }
      ],
      "name": "stop",
      "outputs": [],
      "stateMutability": "nonpayable",
      "type": "function"
    }
  ],
  "transactionHash": "0x6673ae62d4fb9e1f93803347cb995c32821ebc1db334efad869ef58a6affd9b3",
  "args": [
    "0xa1514E3bA51C59d4E76956409143aE9734883Fd5"
  ],
  "numDeployments": 1,
  "solcInputHash": "e6e4c9ea960c200f06b8bf15d2380dca",
  "bytecode": "0x60a060405234801561001057600080fd5b506040516107c03803806107c083398101604081905261002f91610092565b3360008181526020818152604091829020805460ff19166001908117909155915191825282917fe95aec380cae16330d146d5499ef7db6f3657e477104a733e771bc09e500d986910160405180910390a2506001600160a01b03166080526100c2565b6000602082840312156100a457600080fd5b81516001600160a01b03811681146100bb57600080fd5b9392505050565b6080516106d66100ea60003960008181606b015281816102ab015261032a01526106d66000f3fe608060405234801561001057600080fd5b506004361061004c5760003560e01c80631393916a14610051578063378efa37146100665780639165b05a146100b757806396d64879146100ca575b600080fd5b61006461005f3660046104a1565b6100fd565b005b61008d7f000000000000000000000000000000000000000000000000000000000000000081565b60405173ffffffffffffffffffffffffffffffffffffffff90911681526020015b60405180910390f35b6100646100c536600461050c565b610203565b6100ed6100d83660046105ef565b60006020819052908152604090205460ff1681565b60405190151581526020016100ae565b3360009081526020819052604090205460ff1661017b576040517f08c379a000000000000000000000000000000000000000000000000000000000815260206004820152600960248201527f554e54525553544544000000000000000000000000000000000000000000000060448201526064015b60405180910390fd5b73ffffffffffffffffffffffffffffffffffffffff82166000818152602081815260409182902080547fffffffffffffffffffffffffffffffffffffffffffffffffffffffffffffff001685151590811790915591519182527fe95aec380cae16330d146d5499ef7db6f3657e477104a733e771bc09e500d986910160405180910390a25050565b3360009081526020819052604090205460ff1661027c576040517f08c379a000000000000000000000000000000000000000000000000000000000815260206004820152600960248201527f554e5452555354454400000000000000000000000000000000000000000000006044820152606401610172565b6040517f75708a59000000000000000000000000000000000000000000000000000000008152600060048201527f000000000000000000000000000000000000000000000000000000000000000073ffffffffffffffffffffffffffffffffffffffff16906375708a5990602401600060405180830381600087803b15801561030457600080fd5b505af1158015610318573d6000803e3d6000fd5b5050505060005b8151811015610474577f000000000000000000000000000000000000000000000000000000000000000073ffffffffffffffffffffffffffffffffffffffff1663332f646583838151811061037657610376610611565b60209081029190910101516040517fffffffff0000000000000000000000000000000000000000000000000000000060e084901b16815273ffffffffffffffffffffffffffffffffffffffff909116600482015260006024820152604401600060405180830381600087803b1580156103ee57600080fd5b505af1158015610402573d6000803e3d6000fd5b5050505081818151811061041857610418610611565b602002602001015173ffffffffffffffffffffffffffffffffffffffff167f55c4adf1f68f084b809304657594a92ba835ada8d3b5340955bf05746723c05b60405160405180910390a28061046c81610640565b91505061031f565b5050565b803573ffffffffffffffffffffffffffffffffffffffff8116811461049c57600080fd5b919050565b600080604083850312156104b457600080fd5b6104bd83610478565b9150602083013580151581146104d257600080fd5b809150509250929050565b7f4e487b7100000000000000000000000000000000000000000000000000000000600052604160045260246000fd5b6000602080838503121561051f57600080fd5b823567ffffffffffffffff8082111561053757600080fd5b818501915085601f83011261054b57600080fd5b81358181111561055d5761055d6104dd565b8060051b6040517fffffffffffffffffffffffffffffffffffffffffffffffffffffffffffffffe0603f830116810181811085821117156105a0576105a06104dd565b6040529182528482019250838101850191888311156105be57600080fd5b938501935b828510156105e3576105d485610478565b845293850193928501926105c3565b98975050505050505050565b60006020828403121561060157600080fd5b61060a82610478565b9392505050565b7f4e487b7100000000000000000000000000000000000000000000000000000000600052603260045260246000fd5b60007fffffffffffffffffffffffffffffffffffffffffffffffffffffffffffffffff821415610699577f4e487b7100000000000000000000000000000000000000000000000000000000600052601160045260246000fd5b506001019056fea2646970667358221220515009111580edb9c4ced493170b61678bbcb211cc0a7ea125ec5c3bffb410b264736f6c634300080b0033",
  "devdoc": {
    "kind": "dev",
    "methods": {},
    "version": 1
  },
  "userdoc": {
    "kind": "user",
    "methods": {},
    "notice": "Unsets multiple adapters on the divider",
    "version": 1
  },
  "storageLayout": {
    "storage": [
      {
        "astId": 17157,
        "contract": "@sense-finance/v1-utils/src/EmergencyStop.sol:EmergencyStop",
        "label": "isTrusted",
        "offset": 0,
        "slot": "0",
        "type": "t_mapping(t_address,t_bool)"
      }
    ],
    "types": {
      "t_address": {
        "encoding": "inplace",
        "label": "address",
        "numberOfBytes": "20"
      },
      "t_bool": {
        "encoding": "inplace",
        "label": "bool",
        "numberOfBytes": "1"
      },
      "t_mapping(t_address,t_bool)": {
        "encoding": "mapping",
        "key": "t_address",
        "label": "mapping(address => bool)",
        "numberOfBytes": "32",
        "value": "t_bool"
      }
    }
  }
}