{
  "address": "0x723002eF4076b1F21386A1e78EbCF6B04380F9A5",
  "abi": [
    {
      "inputs": [
        {
          "internalType": "address",
          "name": "_divider",
          "type": "address"
        },
        {
          "internalType": "address",
          "name": "_target",
          "type": "address"
        },
        {
          "internalType": "address",
          "name": "_underlying",
          "type": "address"
        },
        {
          "internalType": "uint128",
          "name": "_ifee",
          "type": "uint128"
        },
        {
          "components": [
            {
              "internalType": "address",
              "name": "oracle",
              "type": "address"
            },
            {
              "internalType": "address",
              "name": "stake",
              "type": "address"
            },
            {
              "internalType": "uint256",
              "name": "stakeSize",
              "type": "uint256"
            },
            {
              "internalType": "uint256",
              "name": "minm",
              "type": "uint256"
            },
            {
              "internalType": "uint256",
              "name": "maxm",
              "type": "uint256"
            },
            {
              "internalType": "uint64",
              "name": "tilt",
              "type": "uint64"
            },
            {
              "internalType": "uint48",
              "name": "level",
              "type": "uint48"
            },
            {
              "internalType": "uint16",
              "name": "mode",
              "type": "uint16"
            }
          ],
          "internalType": "struct BaseAdapter.AdapterParams",
          "name": "_adapterParams",
          "type": "tuple"
        },
        {
          "internalType": "address",
          "name": "_reward",
          "type": "address"
        }
      ],
      "stateMutability": "nonpayable",
      "type": "constructor"
    },
    {
      "inputs": [],
      "name": "FlashCallbackFailed",
      "type": "error"
    },
    {
      "inputs": [],
      "name": "OnlyPeriphery",
      "type": "error"
    },
    {
      "inputs": [],
      "name": "TokenNotSupported",
      "type": "error"
    },
    {
      "anonymous": false,
      "inputs": [
        {
          "indexed": true,
          "internalType": "address",
          "name": "usr",
          "type": "address"
        },
        {
          "indexed": true,
          "internalType": "address",
          "name": "token",
          "type": "address"
        },
        {
          "indexed": false,
          "internalType": "uint256",
          "name": "amount",
          "type": "uint256"
        }
      ],
      "name": "Distributed",
      "type": "event"
    },
    {
      "anonymous": false,
      "inputs": [
        {
          "indexed": true,
          "internalType": "address",
          "name": "usr",
          "type": "address"
        },
        {
          "indexed": false,
          "internalType": "uint256",
          "name": "tBal",
          "type": "uint256"
        },
        {
          "indexed": false,
          "internalType": "uint256",
          "name": "maturity",
          "type": "uint256"
        }
      ],
      "name": "Reconciled",
      "type": "event"
    },
    {
      "anonymous": false,
      "inputs": [
        {
          "indexed": true,
          "internalType": "address",
          "name": "user",
          "type": "address"
        },
        {
          "indexed": false,
          "internalType": "bool",
          "name": "trusted",
          "type": "bool"
        }
      ],
      "name": "UserTrustUpdated",
      "type": "event"
    },
    {
      "inputs": [],
      "name": "CALLBACK_SUCCESS",
      "outputs": [
        {
          "internalType": "bytes32",
          "name": "",
          "type": "bytes32"
        }
      ],
      "stateMutability": "view",
      "type": "function"
    },
    {
      "inputs": [],
      "name": "INITIAL_VALUE",
      "outputs": [
        {
          "internalType": "uint256",
          "name": "",
          "type": "uint256"
        }
      ],
      "stateMutability": "view",
      "type": "function"
    },
    {
      "inputs": [],
      "name": "adapterParams",
      "outputs": [
        {
          "internalType": "address",
          "name": "oracle",
          "type": "address"
        },
        {
          "internalType": "address",
          "name": "stake",
          "type": "address"
        },
        {
          "internalType": "uint256",
          "name": "stakeSize",
          "type": "uint256"
        },
        {
          "internalType": "uint256",
          "name": "minm",
          "type": "uint256"
        },
        {
          "internalType": "uint256",
          "name": "maxm",
          "type": "uint256"
        },
        {
          "internalType": "uint64",
          "name": "tilt",
          "type": "uint64"
        },
        {
          "internalType": "uint48",
          "name": "level",
          "type": "uint48"
        },
        {
          "internalType": "uint16",
          "name": "mode",
          "type": "uint16"
        }
      ],
      "stateMutability": "view",
      "type": "function"
    },
    {
      "inputs": [],
      "name": "divider",
      "outputs": [
        {
          "internalType": "address",
          "name": "",
          "type": "address"
        }
      ],
      "stateMutability": "view",
      "type": "function"
    },
    {
      "inputs": [
        {
          "internalType": "uint256",
          "name": "maturity",
          "type": "uint256"
        },
        {
          "internalType": "uint256",
          "name": "uBal",
          "type": "uint256"
        }
      ],
      "name": "doCombine",
      "outputs": [
        {
          "internalType": "uint256",
          "name": "tBal",
          "type": "uint256"
        }
      ],
      "stateMutability": "nonpayable",
      "type": "function"
    },
    {
      "inputs": [
        {
          "internalType": "uint256",
          "name": "maturity",
          "type": "uint256"
        },
        {
          "internalType": "address",
          "name": "sponsor",
          "type": "address"
        }
      ],
      "name": "doInitSeries",
      "outputs": [],
      "stateMutability": "nonpayable",
      "type": "function"
    },
    {
      "inputs": [
        {
          "internalType": "uint256",
          "name": "maturity",
          "type": "uint256"
        },
        {
          "internalType": "uint256",
          "name": "tBal",
          "type": "uint256"
        }
      ],
      "name": "doIssue",
      "outputs": [],
      "stateMutability": "nonpayable",
      "type": "function"
    },
    {
      "inputs": [
        {
          "internalType": "address",
          "name": "token",
          "type": "address"
        },
        {
          "internalType": "uint256",
          "name": "",
          "type": "uint256"
        }
      ],
      "name": "flashFee",
      "outputs": [
        {
          "internalType": "uint256",
          "name": "",
          "type": "uint256"
        }
      ],
      "stateMutability": "view",
      "type": "function"
    },
    {
      "inputs": [
        {
          "internalType": "contract IERC3156FlashBorrower",
          "name": "receiver",
          "type": "address"
        },
        {
          "internalType": "address",
          "name": "",
          "type": "address"
        },
        {
          "internalType": "uint256",
          "name": "amount",
          "type": "uint256"
        },
        {
          "internalType": "bytes",
          "name": "data",
          "type": "bytes"
        }
      ],
      "name": "flashLoan",
      "outputs": [
        {
          "internalType": "bool",
          "name": "",
          "type": "bool"
        }
      ],
      "stateMutability": "nonpayable",
      "type": "function"
    },
    {
      "inputs": [],
      "name": "getMaturityBounds",
      "outputs": [
        {
          "internalType": "uint256",
          "name": "",
          "type": "uint256"
        },
        {
          "internalType": "uint256",
          "name": "",
          "type": "uint256"
        }
      ],
      "stateMutability": "view",
      "type": "function"
    },
    {
      "inputs": [],
      "name": "getStakeAndTarget",
      "outputs": [
        {
          "internalType": "address",
          "name": "",
          "type": "address"
        },
        {
          "internalType": "address",
          "name": "",
          "type": "address"
        },
        {
          "internalType": "uint256",
          "name": "",
          "type": "uint256"
        }
      ],
      "stateMutability": "view",
      "type": "function"
    },
    {
      "inputs": [],
      "name": "getUnderlyingPrice",
      "outputs": [
        {
          "internalType": "uint256",
          "name": "",
          "type": "uint256"
        }
      ],
      "stateMutability": "view",
      "type": "function"
    },
    {
      "inputs": [],
      "name": "ifee",
      "outputs": [
        {
          "internalType": "uint128",
          "name": "",
          "type": "uint128"
        }
      ],
      "stateMutability": "view",
      "type": "function"
    },
    {
      "inputs": [
        {
          "internalType": "address",
          "name": "",
          "type": "address"
        }
      ],
      "name": "isTrusted",
      "outputs": [
        {
          "internalType": "bool",
          "name": "",
          "type": "bool"
        }
      ],
      "stateMutability": "view",
      "type": "function"
    },
    {
      "inputs": [],
      "name": "level",
      "outputs": [
        {
          "internalType": "uint256",
          "name": "",
          "type": "uint256"
        }
      ],
      "stateMutability": "view",
      "type": "function"
    },
    {
      "inputs": [],
      "name": "lscale",
      "outputs": [
        {
          "internalType": "uint256",
          "name": "timestamp",
          "type": "uint256"
        },
        {
          "internalType": "uint256",
          "name": "value",
          "type": "uint256"
        }
      ],
      "stateMutability": "view",
      "type": "function"
    },
    {
      "inputs": [
        {
          "internalType": "address",
          "name": "token",
          "type": "address"
        }
      ],
      "name": "maxFlashLoan",
      "outputs": [
        {
          "internalType": "uint256",
          "name": "",
          "type": "uint256"
        }
      ],
      "stateMutability": "view",
      "type": "function"
    },
    {
      "inputs": [],
      "name": "mode",
      "outputs": [
        {
          "internalType": "uint256",
          "name": "",
          "type": "uint256"
        }
      ],
      "stateMutability": "view",
      "type": "function"
    },
    {
      "inputs": [],
      "name": "name",
      "outputs": [
        {
          "internalType": "string",
          "name": "",
          "type": "string"
        }
      ],
      "stateMutability": "view",
      "type": "function"
    },
    {
      "inputs": [
        {
          "internalType": "address",
          "name": "_usr",
          "type": "address"
        },
        {
          "internalType": "uint256",
          "name": "amt",
          "type": "uint256"
        },
        {
          "internalType": "bool",
          "name": "join",
          "type": "bool"
        }
      ],
      "name": "notify",
      "outputs": [],
      "stateMutability": "nonpayable",
      "type": "function"
    },
    {
      "inputs": [
        {
          "internalType": "uint256",
          "name": "",
          "type": "uint256"
        },
        {
          "internalType": "uint256",
          "name": "",
          "type": "uint256"
        },
        {
          "internalType": "uint256",
          "name": "",
          "type": "uint256"
        },
        {
          "internalType": "uint256",
          "name": "",
          "type": "uint256"
        }
      ],
      "name": "onRedeem",
      "outputs": [],
      "stateMutability": "nonpayable",
      "type": "function"
    },
    {
      "inputs": [],
      "name": "onRedeemCalls",
      "outputs": [
        {
          "internalType": "uint256",
          "name": "",
          "type": "uint256"
        }
      ],
      "stateMutability": "view",
      "type": "function"
    },
    {
      "inputs": [
        {
          "internalType": "address[]",
          "name": "_usrs",
          "type": "address[]"
        },
        {
          "internalType": "uint256[]",
          "name": "_maturities",
          "type": "uint256[]"
        }
      ],
      "name": "reconcile",
      "outputs": [],
      "stateMutability": "nonpayable",
      "type": "function"
    },
    {
      "inputs": [
        {
          "internalType": "address",
          "name": "",
          "type": "address"
        },
        {
          "internalType": "uint256",
          "name": "",
          "type": "uint256"
        }
      ],
      "name": "reconciled",
      "outputs": [
        {
          "internalType": "bool",
          "name": "",
          "type": "bool"
        }
      ],
      "stateMutability": "view",
      "type": "function"
    },
    {
      "inputs": [
        {
          "internalType": "address",
          "name": "",
          "type": "address"
        }
      ],
      "name": "reconciledAmt",
      "outputs": [
        {
          "internalType": "uint256",
          "name": "",
          "type": "uint256"
        }
      ],
      "stateMutability": "view",
      "type": "function"
    },
    {
      "inputs": [],
      "name": "reward",
      "outputs": [
        {
          "internalType": "address",
          "name": "",
          "type": "address"
        }
      ],
      "stateMutability": "view",
      "type": "function"
    },
    {
      "inputs": [],
      "name": "rewardBal",
      "outputs": [
        {
          "internalType": "uint256",
          "name": "",
          "type": "uint256"
        }
      ],
      "stateMutability": "view",
      "type": "function"
    },
    {
      "inputs": [
        {
          "internalType": "address",
          "name": "",
          "type": "address"
        }
      ],
      "name": "rewarded",
      "outputs": [
        {
          "internalType": "uint256",
          "name": "",
          "type": "uint256"
        }
      ],
      "stateMutability": "view",
      "type": "function"
    },
    {
      "inputs": [],
      "name": "scale",
      "outputs": [
        {
          "internalType": "uint256",
          "name": "_scale",
          "type": "uint256"
        }
      ],
      "stateMutability": "nonpayable",
      "type": "function"
    },
    {
      "inputs": [],
      "name": "scaleStored",
      "outputs": [
        {
          "internalType": "uint256",
          "name": "",
          "type": "uint256"
        }
      ],
      "stateMutability": "view",
      "type": "function"
    },
    {
      "inputs": [],
      "name": "scalingFactor",
      "outputs": [
        {
          "internalType": "uint256",
          "name": "",
          "type": "uint256"
        }
      ],
      "stateMutability": "view",
      "type": "function"
    },
    {
      "inputs": [
        {
          "internalType": "address",
          "name": "user",
          "type": "address"
        },
        {
          "internalType": "bool",
          "name": "trusted",
          "type": "bool"
        }
      ],
      "name": "setIsTrusted",
      "outputs": [],
      "stateMutability": "nonpayable",
      "type": "function"
    },
    {
      "inputs": [
        {
          "internalType": "uint256",
          "name": "_scaleOverride",
          "type": "uint256"
        }
      ],
      "name": "setScale",
      "outputs": [],
      "stateMutability": "nonpayable",
      "type": "function"
    },
    {
      "inputs": [],
      "name": "share",
      "outputs": [
        {
          "internalType": "uint256",
          "name": "",
          "type": "uint256"
        }
      ],
      "stateMutability": "view",
      "type": "function"
    },
    {
      "inputs": [],
      "name": "symbol",
      "outputs": [
        {
          "internalType": "string",
          "name": "",
          "type": "string"
        }
      ],
      "stateMutability": "view",
      "type": "function"
    },
    {
      "inputs": [
        {
          "internalType": "address",
          "name": "",
          "type": "address"
        }
      ],
      "name": "tBalance",
      "outputs": [
        {
          "internalType": "uint256",
          "name": "",
          "type": "uint256"
        }
      ],
      "stateMutability": "view",
      "type": "function"
    },
    {
      "inputs": [],
      "name": "target",
      "outputs": [
        {
          "internalType": "address",
          "name": "",
          "type": "address"
        }
      ],
      "stateMutability": "view",
      "type": "function"
    },
    {
      "inputs": [],
      "name": "tilt",
      "outputs": [
        {
          "internalType": "uint256",
          "name": "",
          "type": "uint256"
        }
      ],
      "stateMutability": "view",
      "type": "function"
    },
    {
      "inputs": [],
      "name": "totalTarget",
      "outputs": [
        {
          "internalType": "uint256",
          "name": "",
          "type": "uint256"
        }
      ],
      "stateMutability": "view",
      "type": "function"
    },
    {
      "inputs": [],
      "name": "underlying",
      "outputs": [
        {
          "internalType": "address",
          "name": "",
          "type": "address"
        }
      ],
      "stateMutability": "view",
      "type": "function"
    },
    {
      "inputs": [
        {
          "internalType": "uint256",
          "name": "tBal",
          "type": "uint256"
        }
      ],
      "name": "unwrapTarget",
      "outputs": [
        {
          "internalType": "uint256",
          "name": "",
          "type": "uint256"
        }
      ],
      "stateMutability": "nonpayable",
      "type": "function"
    },
    {
      "inputs": [
        {
          "internalType": "uint256",
          "name": "uBal",
          "type": "uint256"
        }
      ],
      "name": "wrapUnderlying",
      "outputs": [
        {
          "internalType": "uint256",
          "name": "",
          "type": "uint256"
        }
      ],
      "stateMutability": "nonpayable",
      "type": "function"
    }
  ],
  "transactionHash": "0x7dc8b8be564f16a2f06f9bc2784acc47d0e2c1c6084cf20f609fef2ea495365b",
  "args": [
    "0xa1514E3bA51C59d4E76956409143aE9734883Fd5",
    "0x7b0aE170cA8197b2B340Ac46873d8a409c83e5D5",
    "0x805215F73FBfb2e83A554132Fa65d59446d6fF4b",
    "10000000000000000",
    {
      "oracle": "0x0000000000000000000000000000000000000000",
      "ifee": "10000000000000000",
      "stake": "0xAEfcd438e64501D5a79a13d856DA5c4638EECC48",
      "stakeSize": "10000000000000000",
      "minm": "0",
      "maxm": "4838400",
      "mode": 1,
      "tilt": 0,
      "level": 31,
      "rewardTokens": [
        "0x34AccF02eED08893697b9c212aDBF7a53FE173Fe"
      ]
    },
    "0x34AccF02eED08893697b9c212aDBF7a53FE173Fe"
  ],
  "numDeployments": 1,
  "solcInputHash": "e6e4c9ea960c200f06b8bf15d2380dca",
  "bytecode": "0x610120604052670de0b6b3a764000060115564b89345ad6a6012553480156200002757600080fd5b50604051620038e5380380620038e58339810160408190526200004a9162000630565b6001600160a01b03808716608090815281871660a081815283881660c09081526001600160801b03881660e09081528751600080549188166001600160a01b031992831617815560208a0151600180549190991692169190911790965560408089015160025560608901516003559488015160049081559288015160058054938a0151928a015161ffff16600160701b0261ffff60701b1965ffffffffffff90941668010000000000000000026001600160701b03199095166001600160401b0390931692909217939093179190911617905582516306fdde0360e01b815292518a948694869485948d948d948d948d94936306fdde039382820193929091908290030181865afa15801562000164573d6000803e3d6000fd5b505050506040513d6000823e601f3d908101601f191682016040526200018e919081019062000790565b604051602001620001a0919062000848565b60405160208183030381529060405260069080519060200190620001c692919062000501565b50836001600160a01b03166395d89b416040518163ffffffff1660e01b8152600401600060405180830381865afa15801562000206573d6000803e3d6000fd5b505050506040513d6000823e601f3d908101601f1916820160405262000230919081019062000790565b60405160200162000242919062000876565b604051602081830303815290604052600790805190602001906200026892919062000501565b5060805160405163095ea7b360e01b81526001600160a01b03918216600482015260001960248201529085169063095ea7b3906044016020604051808303816000875af1158015620002be573d6000803e3d6000fd5b505050506040513d601f19601f82011682018060405250810190620002e49190620008a4565b50602081015160805160405163095ea7b360e01b81526001600160a01b039182166004820152600019602482015291169063095ea7b3906044016020604051808303816000875af11580156200033e573d6000803e3d6000fd5b505050506040513d601f19601f82011682018060405250810190620003649190620008a4565b505050506001600160a01b038316600081815260086020908152604091829020805460ff1916600190811790915591519182529193507fe95aec380cae16330d146d5499ef7db6f3657e477104a733e771bc09e500d98692500160405180910390a250806001600160a01b0316610100816001600160a01b03168152505050506000856001600160a01b031663313ce5676040518163ffffffff1660e01b8152600401602060405180830381865afa15801562000425573d6000803e3d6000fd5b505050506040513d601f19601f820116820180604052508101906200044b9190620008cf565b60ff1690506000856001600160a01b031663313ce5676040518163ffffffff1660e01b8152600401602060405180830381865afa15801562000491573d6000803e3d6000fd5b505050506040513d601f19601f82011682018060405250810190620004b79190620008cf565b60ff169050808211620004d657620004d082826200090a565b620004e2565b620004e281836200090a565b620004ef90600a62000a23565b6014555062000a6e9650505050505050565b8280546200050f9062000a31565b90600052602060002090601f0160209004810192826200053357600085556200057e565b82601f106200054e57805160ff19168380011785556200057e565b828001600101855582156200057e579182015b828111156200057e57825182559160200191906001019062000561565b506200058c92915062000590565b5090565b5b808211156200058c576000815560010162000591565b80516001600160a01b0381168114620005bf57600080fd5b919050565b634e487b7160e01b600052604160045260246000fd5b60405161010081016001600160401b0381118282101715620006005762000600620005c4565b60405290565b805165ffffffffffff81168114620005bf57600080fd5b805161ffff81168114620005bf57600080fd5b6000806000806000808688036101a08112156200064c57600080fd5b6200065788620005a7565b96506200066760208901620005a7565b95506200067760408901620005a7565b60608901519095506001600160801b03811681146200069557600080fd5b9350610100607f198201811315620006ac57600080fd5b620006b6620005da565b9150620006c660808a01620005a7565b8252620006d660a08a01620005a7565b602083015260c0890151604083015260e0890151606083015288015160808201526101208801516001600160401b03811681146200071357600080fd5b60a082015262000727610140890162000606565b60c08201526200073b61016089016200061d565b60e08201529150620007516101808801620005a7565b90509295509295509295565b60005b838110156200077a57818101518382015260200162000760565b838111156200078a576000848401525b50505050565b600060208284031215620007a357600080fd5b81516001600160401b0380821115620007bb57600080fd5b818401915084601f830112620007d057600080fd5b815181811115620007e557620007e5620005c4565b604051601f8201601f19908116603f01168101908382118183101715620008105762000810620005c4565b816040528281528760208487010111156200082a57600080fd5b6200083d8360208301602088016200075d565b979650505050505050565b600082516200085c8184602087016200075d565b671020b230b83a32b960c11b920191825250600801919050565b600082516200088a8184602087016200075d565b6716b0b230b83a32b960c11b920191825250600801919050565b600060208284031215620008b757600080fd5b81518015158114620008c857600080fd5b9392505050565b600060208284031215620008e257600080fd5b815160ff81168114620008c857600080fd5b634e487b7160e01b600052601160045260246000fd5b6000828210156200091f576200091f620008f4565b500390565b600181815b8085111562000965578160001904821115620009495762000949620008f4565b808516156200095757918102915b93841c939080029062000929565b509250929050565b6000826200097e5750600162000a1d565b816200098d5750600062000a1d565b8160018114620009a65760028114620009b157620009d1565b600191505062000a1d565b60ff841115620009c557620009c5620008f4565b50506001821b62000a1d565b5060208310610133831016604e8410600b8410161715620009f6575081810a62000a1d565b62000a02838362000924565b806000190482111562000a195762000a19620008f4565b0290505b92915050565b6000620008c883836200096d565b600181811c9082168062000a4657607f821691505b6020821081141562000a6857634e487b7160e01b600052602260045260246000fd5b50919050565b60805160a05160c05160e05161010051612dbb62000b2a60003960008181610459015281816120050152818161212a01528181612181015261221b015260006107140152600061065a0152600081816104c1015281816107aa015281816109c801528181610cae0152818161100301528181611a9a01528181611b1001528181611bf80152611e7101526000818161053a015281816110c201528181611194015281816119a601528181611d030152611dfb0152612dbb6000f3fe608060405234801561001057600080fd5b50600436106102de5760003560e01c806362e10b4e11610186578063b484972a116100e3578063d01c6f2911610097578063da4ca41311610071578063da4ca413146107df578063ed3437f8146107e8578063f51e181a146107f157600080fd5b8063d01c6f2914610785578063d4b83992146107a5578063d9d98ce4146107cc57600080fd5b8063c39a3b29116100c8578063c39a3b2914610757578063c5c108c714610769578063cc074d491461077257600080fd5b8063b484972a146106fc578063b8c15a9f1461070f57600080fd5b806375b2cda81161013a57806395d89b411161011f57806395d89b41146106c857806396d64879146106d0578063a8d5fd65146106f357600080fd5b806375b2cda8146106985780638237e538146106a157600080fd5b80636b0706ed1161016b5780636b0706ed146106475780636f307dc3146106555780636fd5ae151461067c57600080fd5b806362e10b4e1461061857806364c56e3c1461062b57600080fd5b8063378efa371161023f57806351c39ea1116101f35780635cffe9de116101cd5780635cffe9de146105e95780635f677404146105fc578063613255ab1461060557600080fd5b806351c39ea1146105b057806353e0719e146105c3578063572acb9f146105d657600080fd5b80633edc3519116102245780633edc35191461057c578063468f02d21461058f5780634aae9fed1461059d57600080fd5b8063378efa3714610535578063379f53e31461055c57600080fd5b8063226778491161029657806327b327d01161027b57806327b327d0146104a0578063295a5212146104f757806329a436081461051557600080fd5b8063226778491461043e578063228cb7331461045457600080fd5b80630e122423116102c75780630e122423146103d85780631393916a1461041657806314282f581461042b57600080fd5b806306fdde03146102e3578063083118d514610301575b600080fd5b6102eb6107f9565b6040516102f891906126b2565b60405180910390f35b60005460015460025460035460045460055461036f9573ffffffffffffffffffffffffffffffffffffffff90811695169392919067ffffffffffffffff81169068010000000000000000810465ffffffffffff16906e010000000000000000000000000000900461ffff1688565b6040805173ffffffffffffffffffffffffffffffffffffffff998a168152989097166020890152958701949094526060860192909252608085015267ffffffffffffffff1660a084015265ffffffffffff1660c083015261ffff1660e0820152610100016102f8565b6104066103e636600461274a565b600f60209081526000928352604080842090915290825290205460ff1681565b60405190151581526020016102f8565b610429610424366004612784565b610887565b005b6104296104393660046127bd565b61098f565b6104466109aa565b6040519081526020016102f8565b61047b7f000000000000000000000000000000000000000000000000000000000000000081565b60405173ffffffffffffffffffffffffffffffffffffffff90911681526020016102f8565b6001546002546040805173ffffffffffffffffffffffffffffffffffffffff7f00000000000000000000000000000000000000000000000000000000000000008116825290931660208401528201526060016102f8565b6005546e010000000000000000000000000000900461ffff16610446565b6104466105233660046127ef565b600c6020526000908152604090205481565b61047b7f000000000000000000000000000000000000000000000000000000000000000081565b61044661056a3660046127ef565b600d6020526000908152604090205481565b61042961058a36600461280c565b601055565b670de0b6b3a7640000610446565b6104466105ab36600461280c565b6109c3565b6104466105be36600461280c565b610ca9565b6104296105d1366004612825565b610fc8565b6104296105e4366004612893565b61146d565b6104066105f73660046128ff565b61198b565b61044660115481565b6104466106133660046127ef565b611c2d565b610446610626366004612825565b611cc4565b6003546004545b604080519283526020830191909152016102f8565b601554601654610632919082565b61047b7f000000000000000000000000000000000000000000000000000000000000000081565b60055468010000000000000000900465ffffffffffff16610446565b61044660135481565b6104467f439148f0bbc682ca079e46d6e2c2f0c1e3b820f1a291b069d8882abf8cf18dd981565b6102eb611d8c565b6104066106de3660046127ef565b60086020526000908152604090205460ff1681565b61044660095481565b61042961070a36600461299e565b611d99565b6107367f000000000000000000000000000000000000000000000000000000000000000081565b6040516fffffffffffffffffffffffffffffffff90911681526020016102f8565b60055467ffffffffffffffff16610446565b610446600a5481565b6104296107803660046129e0565b611da9565b6104466107933660046127ef565b600e6020526000908152604090205481565b61047b7f000000000000000000000000000000000000000000000000000000000000000081565b6104466107da36600461274a565b611e6d565b610446600b5481565b61044660145481565b610446611efd565b6006805461080690612a05565b80601f016020809104026020016040519081016040528092919081815260200182805461083290612a05565b801561087f5780601f106108545761010080835404028352916020019161087f565b820191906000526020600020905b81548152906001019060200180831161086257829003601f168201915b505050505081565b3360009081526008602052604090205460ff16610905576040517f08c379a000000000000000000000000000000000000000000000000000000000815260206004820152600960248201527f554e54525553544544000000000000000000000000000000000000000000000060448201526064015b60405180910390fd5b73ffffffffffffffffffffffffffffffffffffffff821660008181526008602090815260409182902080547fffffffffffffffffffffffffffffffffffffffffffffffffffffffffffffff001685151590811790915591519182527fe95aec380cae16330d146d5499ef7db6f3657e477104a733e771bc09e500d986910160405180910390a25050565b6013805490600061099f83612a88565b919050555050505050565b601654600090156109bc575060165490565b5060115490565b6000807f0000000000000000000000000000000000000000000000000000000000000000905060008173ffffffffffffffffffffffffffffffffffffffff16636f307dc36040518163ffffffff1660e01b8152600401602060405180830381865afa158015610a36573d6000803e3d6000fd5b505050506040513d601f19601f82011682018060405250810190610a5a9190612ad1565b6040517f23b872dd0000000000000000000000000000000000000000000000000000000081523360048201523060248201526044810186905290915073ffffffffffffffffffffffffffffffffffffffff8216906323b872dd906064016020604051808303816000875af1158015610ad6573d6000803e3d6000fd5b505050506040513d601f19601f82011682018060405250810190610afa9190612aee565b50601654600090610b0c908690611f91565b90508273ffffffffffffffffffffffffffffffffffffffff1663313ce5676040518163ffffffff1660e01b8152600401602060405180830381865afa158015610b59573d6000803e3d6000fd5b505050506040513d601f19601f82011682018060405250810190610b7d9190612b0b565b60ff168273ffffffffffffffffffffffffffffffffffffffff1663313ce5676040518163ffffffff1660e01b8152600401602060405180830381865afa158015610bcb573d6000803e3d6000fd5b505050506040513d601f19601f82011682018060405250810190610bef9190612b0b565b60ff1611610c0957601454610c049082612b2e565b610c16565b601454610c169082612b6b565b6040517f40c10f190000000000000000000000000000000000000000000000000000000081523360048201526024810182905290915073ffffffffffffffffffffffffffffffffffffffff8416906340c10f19906044015b600060405180830381600087803b158015610c8857600080fd5b505af1158015610c9c573d6000803e3d6000fd5b5092979650505050505050565b6000807f0000000000000000000000000000000000000000000000000000000000000000905060008173ffffffffffffffffffffffffffffffffffffffff16636f307dc36040518163ffffffff1660e01b8152600401602060405180830381865afa158015610d1c573d6000803e3d6000fd5b505050506040513d601f19601f82011682018060405250810190610d409190612ad1565b6040517f23b872dd0000000000000000000000000000000000000000000000000000000081523360048201523060248201526044810186905290915073ffffffffffffffffffffffffffffffffffffffff8316906323b872dd906064016020604051808303816000875af1158015610dbc573d6000803e3d6000fd5b505050506040513d601f19601f82011682018060405250810190610de09190612aee565b50601654600090610df2908690611fa6565b90508273ffffffffffffffffffffffffffffffffffffffff1663313ce5676040518163ffffffff1660e01b8152600401602060405180830381865afa158015610e3f573d6000803e3d6000fd5b505050506040513d601f19601f82011682018060405250810190610e639190612b0b565b60ff168273ffffffffffffffffffffffffffffffffffffffff1663313ce5676040518163ffffffff1660e01b8152600401602060405180830381865afa158015610eb1573d6000803e3d6000fd5b505050506040513d601f19601f82011682018060405250810190610ed59190612b0b565b60ff1611610eef57601454610eea9082612b6b565b610efc565b601454610efc9082612b2e565b90508273ffffffffffffffffffffffffffffffffffffffff16636f307dc36040518163ffffffff1660e01b8152600401602060405180830381865afa158015610f49573d6000803e3d6000fd5b505050506040513d601f19601f82011682018060405250810190610f6d9190612ad1565b6040517f40c10f190000000000000000000000000000000000000000000000000000000081523360048201526024810183905273ffffffffffffffffffffffffffffffffffffffff91909116906340c10f1990604401610c6e565b6040517f23b872dd000000000000000000000000000000000000000000000000000000008152336004820152306024820152604481018290527f000000000000000000000000000000000000000000000000000000000000000073ffffffffffffffffffffffffffffffffffffffff16906323b872dd906064016020604051808303816000875af1158015611061573d6000803e3d6000fd5b505050506040513d601f19601f820116820180604052508101906110859190612aee565b506040517fdfe5ef4800000000000000000000000000000000000000000000000000000000815230600482015260248101839052604481018290527f000000000000000000000000000000000000000000000000000000000000000073ffffffffffffffffffffffffffffffffffffffff169063dfe5ef48906064016020604051808303816000875af1158015611120573d6000803e3d6000fd5b505050506040513d601f19601f820116820180604052508101906111449190612ba6565b506040517f0891d30a00000000000000000000000000000000000000000000000000000000815230600482015260248101839052600090819073ffffffffffffffffffffffffffffffffffffffff7f00000000000000000000000000000000000000000000000000000000000000001690630891d30a9060440161012060405180830381865afa1580156111dc573d6000803e3d6000fd5b505050506040513d601f19601f820116820180604052508101906112009190612bbf565b50506040517f70a082310000000000000000000000000000000000000000000000000000000081523060048201529698509396505073ffffffffffffffffffffffffffffffffffffffff87169463a9059cbb94503393508592506370a082319150602401602060405180830381865afa158015611281573d6000803e3d6000fd5b505050506040513d601f19601f820116820180604052508101906112a59190612ba6565b6040517fffffffff0000000000000000000000000000000000000000000000000000000060e085901b16815273ffffffffffffffffffffffffffffffffffffffff909216600483015260248201526044016020604051808303816000875af1158015611315573d6000803e3d6000fd5b505050506040513d601f19601f820116820180604052508101906113399190612aee565b506040517f70a0823100000000000000000000000000000000000000000000000000000000815230600482015273ffffffffffffffffffffffffffffffffffffffff82169063a9059cbb90339083906370a0823190602401602060405180830381865afa1580156113ae573d6000803e3d6000fd5b505050506040513d601f19601f820116820180604052508101906113d29190612ba6565b6040517fffffffff0000000000000000000000000000000000000000000000000000000060e085901b16815273ffffffffffffffffffffffffffffffffffffffff909216600483015260248201526044016020604051808303816000875af1158015611442573d6000803e3d6000fd5b505050506040513d601f19601f820116820180604052508101906114669190612aee565b5050505050565b60003073ffffffffffffffffffffffffffffffffffffffff1663378efa376040518163ffffffff1660e01b8152600401602060405180830381865afa1580156114ba573d6000803e3d6000fd5b505050506040513d601f19601f820116820180604052508101906114de9190612ad1565b905060005b828110156119835760005b8581101561197057600087878381811061150a5761150a612c72565b905060200201602081019061151f91906127ef565b905060008473ffffffffffffffffffffffffffffffffffffffff1663574e77953089898881811061155257611552612c72565b6040517fffffffff0000000000000000000000000000000000000000000000000000000060e087901b16815273ffffffffffffffffffffffffffffffffffffffff90941660048501526020029190910135602483015250604401602060405180830381865afa1580156115c9573d6000803e3d6000fd5b505050506040513d601f19601f820116820180604052508101906115ed9190612ad1565b6040517f70a0823100000000000000000000000000000000000000000000000000000000815273ffffffffffffffffffffffffffffffffffffffff848116600483015291909116906370a0823190602401602060405180830381865afa15801561165b573d6000803e3d6000fd5b505050506040513d601f19601f8201168201806040525081019061167f9190612ba6565b90504287878681811061169457611694612c72565b90506020020135111580156116a95750600081115b8015611707575073ffffffffffffffffffffffffffffffffffffffff82166000908152600f60205260408120908888878181106116e8576116e8612c72565b602090810292909201358352508101919091526040016000205460ff16155b1561195b5761171582611fbb565b60006117f58673ffffffffffffffffffffffffffffffffffffffff16632f9cd854308b8b8a81811061174957611749612c72565b6040517fffffffff0000000000000000000000000000000000000000000000000000000060e087901b16815273ffffffffffffffffffffffffffffffffffffffff9485166004820152602090910292909201356024830152509087166044820152606401602060405180830381865afa1580156117ca573d6000803e3d6000fd5b505050506040513d601f19601f820116820180604052508101906117ee9190612ba6565b839061228f565b905080600b60008282546118099190612ca1565b909155505073ffffffffffffffffffffffffffffffffffffffff83166000908152600c602052604081208054839290611843908490612ca1565b909155505073ffffffffffffffffffffffffffffffffffffffff83166000908152600e60205260408120805483929061187d908490612cb8565b909155505073ffffffffffffffffffffffffffffffffffffffff83166000908152600f602052604081206001918a8a898181106118bc576118bc612c72565b90506020020135815260200190815260200160002060006101000a81548160ff0219169083151502179055508273ffffffffffffffffffffffffffffffffffffffff167f5758e413a9bfd3ec45a67abaa9ee2396cab143a505332bf7ab48c0e624b65f11828a8a8981811061193357611933612c72565b90506020020135604051611951929190918252602082015260400190565b60405180910390a2505b5050808061196890612a88565b9150506114ee565b508061197b81612a88565b9150506114e3565b505050505050565b60003373ffffffffffffffffffffffffffffffffffffffff167f000000000000000000000000000000000000000000000000000000000000000073ffffffffffffffffffffffffffffffffffffffff166377aace1a6040518163ffffffff1660e01b8152600401602060405180830381865afa158015611a0f573d6000803e3d6000fd5b505050506040513d601f19601f82011682018060405250810190611a339190612ad1565b73ffffffffffffffffffffffffffffffffffffffff1614611a80576040517ffb02114900000000000000000000000000000000000000000000000000000000815260040160405180910390fd5b611ac173ffffffffffffffffffffffffffffffffffffffff7f00000000000000000000000000000000000000000000000000000000000000001687866122a4565b6040517f23e30c8b00000000000000000000000000000000000000000000000000000000815260009073ffffffffffffffffffffffffffffffffffffffff8816906323e30c8b90611b409033907f0000000000000000000000000000000000000000000000000000000000000000908a9087908b908b90600401612cd0565b6020604051808303816000875af1158015611b5f573d6000803e3d6000fd5b505050506040513d601f19601f82011682018060405250810190611b839190612ba6565b90507f439148f0bbc682ca079e46d6e2c2f0c1e3b820f1a291b069d8882abf8cf18dd98114611bde576040517f207df21c00000000000000000000000000000000000000000000000000000000815260040160405180910390fd5b611c2073ffffffffffffffffffffffffffffffffffffffff7f00000000000000000000000000000000000000000000000000000000000000001688308861235d565b5060019695505050505050565b6040517f70a0823100000000000000000000000000000000000000000000000000000000815230600482015260009073ffffffffffffffffffffffffffffffffffffffff8316906370a0823190602401602060405180830381865afa158015611c9a573d6000803e3d6000fd5b505050506040513d601f19601f82011682018060405250810190611cbe9190612ba6565b92915050565b6040517fba89bebd00000000000000000000000000000000000000000000000000000000815230600482015260248101839052604481018290526000907f000000000000000000000000000000000000000000000000000000000000000073ffffffffffffffffffffffffffffffffffffffff169063ba89bebd906064016020604051808303816000875af1158015611d61573d6000803e3d6000fd5b505050506040513d601f19601f82011682018060405250810190611d859190612ba6565b9392505050565b6007805461080690612a05565b611da483838361241c565b505050565b6040517f3e3972ee0000000000000000000000000000000000000000000000000000000081523060048201526024810183905273ffffffffffffffffffffffffffffffffffffffff82811660448301527f00000000000000000000000000000000000000000000000000000000000000001690633e3972ee9060640160408051808303816000875af1158015611e43573d6000803e3d6000fd5b505050506040513d601f19601f82011682018060405250810190611e679190612d56565b50505050565b60007f000000000000000000000000000000000000000000000000000000000000000073ffffffffffffffffffffffffffffffffffffffff168373ffffffffffffffffffffffffffffffffffffffff1614611ef4576040517f3dd1b30500000000000000000000000000000000000000000000000000000000815260040160405180910390fd5b50600092915050565b60105460009015611f18575060105460168190554260155590565b601254600090611f3090670dbd2fc137a30000611fa6565b601554909150600090611f439042612ca1565b601654909150611f5557601154611f76565b601654611f6c81611f668486612b2e565b90611fa6565b611f769190612cb8565b6016549093508314611f8c576016839055426015555b505090565b6000611d8583670de0b6b3a764000084612636565b6000611d858383670de0b6b3a7640000612664565b600a546040517f70a082310000000000000000000000000000000000000000000000000000000081523060048201526000919073ffffffffffffffffffffffffffffffffffffffff7f000000000000000000000000000000000000000000000000000000000000000016906370a0823190602401602060405180830381865afa15801561204c573d6000803e3d6000fd5b505050506040513d601f19601f820116820180604052508101906120709190612ba6565b61207a9190612ca1565b600b54909150156120b757600b546120a09082906b033b2e3c9fd0803ce8000000612683565b600960008282546120b19190612cb8565b90915550505b73ffffffffffffffffffffffffffffffffffffffff82166000908152600d6020908152604080832054600954600c9093529083205490929161210691906b033b2e3c9fd0803ce8000000612698565b9050818111156121535761215373ffffffffffffffffffffffffffffffffffffffff7f000000000000000000000000000000000000000000000000000000000000000016858484036122a4565b6040517f70a082310000000000000000000000000000000000000000000000000000000081523060048201527f000000000000000000000000000000000000000000000000000000000000000073ffffffffffffffffffffffffffffffffffffffff16906370a0823190602401602060405180830381865afa1580156121dd573d6000803e3d6000fd5b505050506040513d601f19601f820116820180604052508101906122019190612ba6565b600a5573ffffffffffffffffffffffffffffffffffffffff7f000000000000000000000000000000000000000000000000000000000000000081169085167fad4a9acf26d8bba7a8cf1a41160d59be042ee554578e256c98d2ab74cdd4354284841161226e576000612278565b6122788585612ca1565b60405190815260200160405180910390a350505050565b6000611d8583670de0b6b3a764000084612664565b60006040517fa9059cbb000000000000000000000000000000000000000000000000000000008152836004820152826024820152602060006044836000895af13d15601f3d1160016000511416171691505080611e67576040517f08c379a000000000000000000000000000000000000000000000000000000000815260206004820152600f60248201527f5452414e534645525f4641494c4544000000000000000000000000000000000060448201526064016108fc565b60006040517f23b872dd0000000000000000000000000000000000000000000000000000000081528460048201528360248201528260448201526020600060648360008a5af13d15601f3d1160016000511416171691505080611466576040517f08c379a000000000000000000000000000000000000000000000000000000000815260206004820152601460248201527f5452414e534645525f46524f4d5f4641494c454400000000000000000000000060448201526064016108fc565b3360009081526008602052604090205460ff16612495576040517f08c379a000000000000000000000000000000000000000000000000000000000815260206004820152600960248201527f554e54525553544544000000000000000000000000000000000000000000000060448201526064016108fc565b61249e83611fbb565b81156125c95780156125015781600b60008282546124bc9190612cb8565b909155505073ffffffffffffffffffffffffffffffffffffffff83166000908152600c6020526040812080548492906124f6908490612cb8565b909155506125c99050565b73ffffffffffffffffffffffffffffffffffffffff83166000908152600e6020526040902054801561256f578083101561253f576000929003612546565b9091039060005b73ffffffffffffffffffffffffffffffffffffffff84166000908152600e602052604090208190555b82156125c75782600b60008282546125879190612ca1565b909155505073ffffffffffffffffffffffffffffffffffffffff84166000908152600c6020526040812080548592906125c1908490612ca1565b90915550505b505b60095473ffffffffffffffffffffffffffffffffffffffff84166000908152600c6020526040902054612608916b033b2e3c9fd0803ce80000006126a5565b73ffffffffffffffffffffffffffffffffffffffff9093166000908152600d60205260409020929092555050565b82820281151584158583048514171661264e57600080fd5b6001826001830304018115150290509392505050565b82820281151584158583048514171661267c57600080fd5b0492915050565b6000612690848385612664565b949350505050565b6000612690848484612664565b6000612690848484612636565b600060208083528351808285015260005b818110156126df578581018301518582016040015282016126c3565b818111156126f1576000604083870101525b50601f017fffffffffffffffffffffffffffffffffffffffffffffffffffffffffffffffe016929092016040019392505050565b73ffffffffffffffffffffffffffffffffffffffff8116811461274757600080fd5b50565b6000806040838503121561275d57600080fd5b823561276881612725565b946020939093013593505050565b801515811461274757600080fd5b6000806040838503121561279757600080fd5b82356127a281612725565b915060208301356127b281612776565b809150509250929050565b600080600080608085870312156127d357600080fd5b5050823594602084013594506040840135936060013592509050565b60006020828403121561280157600080fd5b8135611d8581612725565b60006020828403121561281e57600080fd5b5035919050565b6000806040838503121561283857600080fd5b50508035926020909101359150565b60008083601f84011261285957600080fd5b50813567ffffffffffffffff81111561287157600080fd5b6020830191508360208260051b850101111561288c57600080fd5b9250929050565b600080600080604085870312156128a957600080fd5b843567ffffffffffffffff808211156128c157600080fd5b6128cd88838901612847565b909650945060208701359150808211156128e657600080fd5b506128f387828801612847565b95989497509550505050565b60008060008060006080868803121561291757600080fd5b853561292281612725565b9450602086013561293281612725565b935060408601359250606086013567ffffffffffffffff8082111561295657600080fd5b818801915088601f83011261296a57600080fd5b81358181111561297957600080fd5b89602082850101111561298b57600080fd5b9699959850939650602001949392505050565b6000806000606084860312156129b357600080fd5b83356129be81612725565b92506020840135915060408401356129d581612776565b809150509250925092565b600080604083850312156129f357600080fd5b8235915060208301356127b281612725565b600181811c90821680612a1957607f821691505b60208210811415612a53577f4e487b7100000000000000000000000000000000000000000000000000000000600052602260045260246000fd5b50919050565b7f4e487b7100000000000000000000000000000000000000000000000000000000600052601160045260246000fd5b60007fffffffffffffffffffffffffffffffffffffffffffffffffffffffffffffffff821415612aba57612aba612a59565b5060010190565b8051612acc81612725565b919050565b600060208284031215612ae357600080fd5b8151611d8581612725565b600060208284031215612b0057600080fd5b8151611d8581612776565b600060208284031215612b1d57600080fd5b815160ff81168114611d8557600080fd5b6000817fffffffffffffffffffffffffffffffffffffffffffffffffffffffffffffffff0483118215151615612b6657612b66612a59565b500290565b600082612ba1577f4e487b7100000000000000000000000000000000000000000000000000000000600052601260045260246000fd5b500490565b600060208284031215612bb857600080fd5b5051919050565b60008060008060008060008060006101208a8c031215612bde57600080fd5b8951612be981612725565b60208b015190995065ffffffffffff81168114612c0557600080fd5b60408b0151909850612c1681612725565b60608b01519097506bffffffffffffffffffffffff81168114612c3857600080fd5b9550612c4660808b01612ac1565b945060a08a0151935060c08a0151925060e08a015191506101008a015190509295985092959850929598565b7f4e487b7100000000000000000000000000000000000000000000000000000000600052603260045260246000fd5b600082821015612cb357612cb3612a59565b500390565b60008219821115612ccb57612ccb612a59565b500190565b600073ffffffffffffffffffffffffffffffffffffffff808916835280881660208401525085604083015284606083015260a060808301528260a0830152828460c0840137600060c0848401015260c07fffffffffffffffffffffffffffffffffffffffffffffffffffffffffffffffe0601f8501168301019050979650505050505050565b60008060408385031215612d6957600080fd5b8251612d7481612725565b60208401519092506127b28161272556fea2646970667358221220f23b979178c209d33c97b63bdec45a98de8fc5b3f1306496f8af6d82a920b11d64736f6c634300080b0033",
  "devdoc": {
    "kind": "dev",
    "methods": {
      "flashLoan(address,address,uint256,bytes)": {
        "params": {
          "amount": "The amount of target lent.",
          "data": "(encoded adapter address, maturity and YT amount the use has sent in)",
          "receiver": "The contract receiving target, needs to implement the `onFlashLoan(address user, address adapter, uint256 maturity, uint256 amount)` interface."
        }
      },
      "maxFlashLoan(address)": {
        "details": "The amount of currency available to be lent.",
        "params": {
          "token": "The loan currency."
        },
        "returns": {
          "_0": "The amount of `token` that can be borrowed."
        }
      },
      "reconcile(address[],uint256[])": {
        "params": {
          "_maturities": "Maturities of the series that we want to reconcile users on.",
          "_usrs": "Users to reconcile"
        }
      },
      "scale()": {
        "details": "For some Targets, such as cTokens, this is simply the exchange rate, or `supply cToken / supply underlying`For other Targets, such as AMM LP shares, specialized logic will be requiredThis function _must_ return a WAD number representing the current exchange rate between the Target and the Underlying.",
        "returns": {
          "_scale": "value WAD Scale value"
        }
      },
      "scaleStored()": {
        "details": "For situations where you need scale from a view function"
      }
    },
    "version": 1
  },
  "userdoc": {
    "kind": "user",
    "methods": {
      "adapterParams()": {
        "notice": "adapter params"
      },
      "divider()": {
        "notice": "Sense core Divider address"
      },
      "flashLoan(address,address,uint256,bytes)": {
        "notice": "Loan `amount` target to `receiver`, and takes it back after the callback."
      },
      "getUnderlyingPrice()": {
        "notice": "Returns the current price of the underlying in ETH terms"
      },
      "ifee()": {
        "notice": "Issuance fee"
      },
      "lscale()": {
        "notice": "Cached scale value from the last call to `scale()`"
      },
      "onRedeem(uint256,uint256,uint256,uint256)": {
        "notice": "Hook called whenever a user redeems PT"
      },
      "reconcile(address[],uint256[])": {
        "notice": "Reconciles users target balances to zero by distributing rewards on their holdings, to avoid dilution of next Series' YT holders. This function should be called right after a Series matures and will save the user's YT balance (in target terms) on reconciledAmt[usr]. When `notify()` is triggered, we take that amount and subtract it from the user's target balance (`tBalance`) which will fix (or reconcile) his position to prevent dilution."
      },
      "reward()": {
        "notice": "Program state"
      },
      "scale()": {
        "notice": "Calculate and return this adapter's Scale value for the current timestamp. To be overriden by child contracts"
      },
      "scaleStored()": {
        "notice": "Cached scale value getter"
      },
      "target()": {
        "notice": "Target token to divide"
      },
      "underlying()": {
        "notice": "Underlying for the Target"
      }
    },
    "version": 1
  },
  "storageLayout": {
    "storage": [
      {
        "astId": 7393,
        "contract": "@sense-finance/v1-core/src/tests/test-helpers/mocks/MockAdapter.sol:MockAdapter",
        "label": "adapterParams",
        "offset": 0,
        "slot": "0",
        "type": "t_struct(AdapterParams)7418_storage"
      },
      {
        "astId": 7420,
        "contract": "@sense-finance/v1-core/src/tests/test-helpers/mocks/MockAdapter.sol:MockAdapter",
        "label": "name",
        "offset": 0,
        "slot": "6",
        "type": "t_string_storage"
      },
      {
        "astId": 7422,
        "contract": "@sense-finance/v1-core/src/tests/test-helpers/mocks/MockAdapter.sol:MockAdapter",
        "label": "symbol",
        "offset": 0,
        "slot": "7",
        "type": "t_string_storage"
      },
      {
        "astId": 17157,
        "contract": "@sense-finance/v1-core/src/tests/test-helpers/mocks/MockAdapter.sol:MockAdapter",
        "label": "isTrusted",
        "offset": 0,
        "slot": "8",
        "type": "t_mapping(t_address,t_bool)"
      },
      {
        "astId": 7982,
        "contract": "@sense-finance/v1-core/src/tests/test-helpers/mocks/MockAdapter.sol:MockAdapter",
        "label": "share",
        "offset": 0,
        "slot": "9",
        "type": "t_uint256"
      },
      {
        "astId": 7984,
        "contract": "@sense-finance/v1-core/src/tests/test-helpers/mocks/MockAdapter.sol:MockAdapter",
        "label": "rewardBal",
        "offset": 0,
        "slot": "10",
        "type": "t_uint256"
      },
      {
        "astId": 7986,
        "contract": "@sense-finance/v1-core/src/tests/test-helpers/mocks/MockAdapter.sol:MockAdapter",
        "label": "totalTarget",
        "offset": 0,
        "slot": "11",
        "type": "t_uint256"
      },
      {
        "astId": 7990,
        "contract": "@sense-finance/v1-core/src/tests/test-helpers/mocks/MockAdapter.sol:MockAdapter",
        "label": "tBalance",
        "offset": 0,
        "slot": "12",
        "type": "t_mapping(t_address,t_uint256)"
      },
      {
        "astId": 7994,
        "contract": "@sense-finance/v1-core/src/tests/test-helpers/mocks/MockAdapter.sol:MockAdapter",
        "label": "rewarded",
        "offset": 0,
        "slot": "13",
        "type": "t_mapping(t_address,t_uint256)"
      },
      {
        "astId": 7998,
        "contract": "@sense-finance/v1-core/src/tests/test-helpers/mocks/MockAdapter.sol:MockAdapter",
        "label": "reconciledAmt",
        "offset": 0,
        "slot": "14",
        "type": "t_mapping(t_address,t_uint256)"
      },
      {
        "astId": 8004,
        "contract": "@sense-finance/v1-core/src/tests/test-helpers/mocks/MockAdapter.sol:MockAdapter",
        "label": "reconciled",
        "offset": 0,
        "slot": "15",
        "type": "t_mapping(t_address,t_mapping(t_uint256,t_bool))"
      },
      {
        "astId": 12294,
        "contract": "@sense-finance/v1-core/src/tests/test-helpers/mocks/MockAdapter.sol:MockAdapter",
        "label": "scaleOverride",
        "offset": 0,
        "slot": "16",
        "type": "t_uint256"
      },
      {
        "astId": 12297,
        "contract": "@sense-finance/v1-core/src/tests/test-helpers/mocks/MockAdapter.sol:MockAdapter",
        "label": "INITIAL_VALUE",
        "offset": 0,
        "slot": "17",
        "type": "t_uint256"
      },
      {
        "astId": 12300,
        "contract": "@sense-finance/v1-core/src/tests/test-helpers/mocks/MockAdapter.sol:MockAdapter",
        "label": "GROWTH_PER_SECOND",
        "offset": 0,
        "slot": "18",
        "type": "t_uint256"
      },
      {
        "astId": 12302,
        "contract": "@sense-finance/v1-core/src/tests/test-helpers/mocks/MockAdapter.sol:MockAdapter",
        "label": "onRedeemCalls",
        "offset": 0,
        "slot": "19",
        "type": "t_uint256"
      },
      {
        "astId": 12304,
        "contract": "@sense-finance/v1-core/src/tests/test-helpers/mocks/MockAdapter.sol:MockAdapter",
        "label": "scalingFactor",
        "offset": 0,
        "slot": "20",
        "type": "t_uint256"
      },
      {
        "astId": 12313,
        "contract": "@sense-finance/v1-core/src/tests/test-helpers/mocks/MockAdapter.sol:MockAdapter",
        "label": "lscale",
        "offset": 0,
        "slot": "21",
        "type": "t_struct(LScale)12309_storage"
      }
    ],
    "types": {
      "t_address": {
        "encoding": "inplace",
        "label": "address",
        "numberOfBytes": "20"
      },
      "t_bool": {
        "encoding": "inplace",
        "label": "bool",
        "numberOfBytes": "1"
      },
      "t_mapping(t_address,t_bool)": {
        "encoding": "mapping",
        "key": "t_address",
        "label": "mapping(address => bool)",
        "numberOfBytes": "32",
        "value": "t_bool"
      },
      "t_mapping(t_address,t_mapping(t_uint256,t_bool))": {
        "encoding": "mapping",
        "key": "t_address",
        "label": "mapping(address => mapping(uint256 => bool))",
        "numberOfBytes": "32",
        "value": "t_mapping(t_uint256,t_bool)"
      },
      "t_mapping(t_address,t_uint256)": {
        "encoding": "mapping",
        "key": "t_address",
        "label": "mapping(address => uint256)",
        "numberOfBytes": "32",
        "value": "t_uint256"
      },
      "t_mapping(t_uint256,t_bool)": {
        "encoding": "mapping",
        "key": "t_uint256",
        "label": "mapping(uint256 => bool)",
        "numberOfBytes": "32",
        "value": "t_bool"
      },
      "t_string_storage": {
        "encoding": "bytes",
        "label": "string",
        "numberOfBytes": "32"
      },
      "t_struct(AdapterParams)7418_storage": {
        "encoding": "inplace",
        "label": "struct BaseAdapter.AdapterParams",
        "members": [
          {
            "astId": 7396,
            "contract": "@sense-finance/v1-core/src/tests/test-helpers/mocks/MockAdapter.sol:MockAdapter",
            "label": "oracle",
            "offset": 0,
            "slot": "0",
            "type": "t_address"
          },
          {
            "astId": 7399,
            "contract": "@sense-finance/v1-core/src/tests/test-helpers/mocks/MockAdapter.sol:MockAdapter",
            "label": "stake",
            "offset": 0,
            "slot": "1",
            "type": "t_address"
          },
          {
            "astId": 7402,
            "contract": "@sense-finance/v1-core/src/tests/test-helpers/mocks/MockAdapter.sol:MockAdapter",
            "label": "stakeSize",
            "offset": 0,
            "slot": "2",
            "type": "t_uint256"
          },
          {
            "astId": 7405,
            "contract": "@sense-finance/v1-core/src/tests/test-helpers/mocks/MockAdapter.sol:MockAdapter",
            "label": "minm",
            "offset": 0,
            "slot": "3",
            "type": "t_uint256"
          },
          {
            "astId": 7408,
            "contract": "@sense-finance/v1-core/src/tests/test-helpers/mocks/MockAdapter.sol:MockAdapter",
            "label": "maxm",
            "offset": 0,
            "slot": "4",
            "type": "t_uint256"
          },
          {
            "astId": 7411,
            "contract": "@sense-finance/v1-core/src/tests/test-helpers/mocks/MockAdapter.sol:MockAdapter",
            "label": "tilt",
            "offset": 0,
            "slot": "5",
            "type": "t_uint64"
          },
          {
            "astId": 7414,
            "contract": "@sense-finance/v1-core/src/tests/test-helpers/mocks/MockAdapter.sol:MockAdapter",
            "label": "level",
            "offset": 8,
            "slot": "5",
            "type": "t_uint48"
          },
          {
            "astId": 7417,
            "contract": "@sense-finance/v1-core/src/tests/test-helpers/mocks/MockAdapter.sol:MockAdapter",
            "label": "mode",
            "offset": 14,
            "slot": "5",
            "type": "t_uint16"
          }
        ],
        "numberOfBytes": "192"
      },
      "t_struct(LScale)12309_storage": {
        "encoding": "inplace",
        "label": "struct MockAdapter.LScale",
        "members": [
          {
            "astId": 12306,
            "contract": "@sense-finance/v1-core/src/tests/test-helpers/mocks/MockAdapter.sol:MockAdapter",
            "label": "timestamp",
            "offset": 0,
            "slot": "0",
            "type": "t_uint256"
          },
          {
            "astId": 12308,
            "contract": "@sense-finance/v1-core/src/tests/test-helpers/mocks/MockAdapter.sol:MockAdapter",
            "label": "value",
            "offset": 0,
            "slot": "1",
            "type": "t_uint256"
          }
        ],
        "numberOfBytes": "64"
      },
      "t_uint16": {
        "encoding": "inplace",
        "label": "uint16",
        "numberOfBytes": "2"
      },
      "t_uint256": {
        "encoding": "inplace",
        "label": "uint256",
        "numberOfBytes": "32"
      },
      "t_uint48": {
        "encoding": "inplace",
        "label": "uint48",
        "numberOfBytes": "6"
      },
      "t_uint64": {
        "encoding": "inplace",
        "label": "uint64",
        "numberOfBytes": "8"
      }
    }
  }
}