{
  "address": "0x075b11FA648B2C95807AaB310f787b183478829e",
  "abi": [
    {
      "inputs": [
        {
          "internalType": "address",
          "name": "_comptroller",
          "type": "address"
        }
      ],
      "stateMutability": "nonpayable",
      "type": "constructor"
    },
    {
      "inputs": [],
      "name": "comptroller",
      "outputs": [
        {
          "internalType": "address",
          "name": "",
          "type": "address"
        }
      ],
      "stateMutability": "view",
      "type": "function"
    },
    {
      "inputs": [
        {
          "internalType": "string",
          "name": "name",
          "type": "string"
        },
        {
          "internalType": "address",
          "name": "implementation",
          "type": "address"
        },
        {
          "internalType": "bool",
          "name": "enforceWhitelist",
          "type": "bool"
        },
        {
          "internalType": "uint256",
          "name": "closeFactor",
          "type": "uint256"
        },
        {
          "internalType": "uint256",
          "name": "liquidationIncentive",
          "type": "uint256"
        },
        {
          "internalType": "address",
          "name": "priceOracle",
          "type": "address"
        }
      ],
      "name": "deployPool",
      "outputs": [
        {
          "internalType": "uint256",
          "name": "",
          "type": "uint256"
        },
        {
          "internalType": "address",
          "name": "",
          "type": "address"
        }
      ],
      "stateMutability": "nonpayable",
      "type": "function"
    }
  ],
  "transactionHash": "0xd2a7a80d687fa377261eec6a11660e8ab85ff66b66c5d18b501eb092d1c9012d",
  "args": [
    "0x07F1919E4657CcADA277dA661aA667aaB6B90c35"
  ],
  "numDeployments": 1,
  "solcInputHash": "e6e4c9ea960c200f06b8bf15d2380dca",
  "bytecode": "0x608060405234801561001057600080fd5b5060405161032638038061032683398101604081905261002f91610054565b600080546001600160a01b0319166001600160a01b0392909216919091179055610084565b60006020828403121561006657600080fd5b81516001600160a01b038116811461007d57600080fd5b9392505050565b610293806100936000396000f3fe608060405234801561001057600080fd5b50600436106100365760003560e01c80635710c6d81461003b5780635fe3b5671461009d575b600080fd5b61006e61004936600461014a565b6000805473ffffffffffffffffffffffffffffffffffffffff16965096945050505050565b6040805192835273ffffffffffffffffffffffffffffffffffffffff9091166020830152015b60405180910390f35b6000546100bd9073ffffffffffffffffffffffffffffffffffffffff1681565b60405173ffffffffffffffffffffffffffffffffffffffff9091168152602001610094565b7f4e487b7100000000000000000000000000000000000000000000000000000000600052604160045260246000fd5b803573ffffffffffffffffffffffffffffffffffffffff8116811461013557600080fd5b919050565b8035801515811461013557600080fd5b60008060008060008060c0878903121561016357600080fd5b863567ffffffffffffffff8082111561017b57600080fd5b818901915089601f83011261018f57600080fd5b8135818111156101a1576101a16100e2565b604051601f82017fffffffffffffffffffffffffffffffffffffffffffffffffffffffffffffffe0908116603f011681019083821181831017156101e7576101e76100e2565b816040528281528c602084870101111561020057600080fd5b82602086016020830137600060208483010152809a50505050505061022760208801610111565b94506102356040880161013a565b9350606087013592506080870135915061025160a08801610111565b9050929550929550929556fea26469706673582212200b56d80d211508913870cf81a3d4096638a2e8bacd09b695dc0fc4b3935c7a2564736f6c634300080b0033",
  "devdoc": {
    "kind": "dev",
    "methods": {},
    "version": 1
  },
  "userdoc": {
    "kind": "user",
    "methods": {},
    "version": 1
  },
  "storageLayout": {
    "storage": [
      {
        "astId": 14849,
        "contract": "@sense-finance/v1-core/src/tests/test-helpers/mocks/fuse/MockFuseDirectory.sol:MockFuseDirectory",
        "label": "comptroller",
        "offset": 0,
        "slot": "0",
        "type": "t_address"
      }
    ],
    "types": {
      "t_address": {
        "encoding": "inplace",
        "label": "address",
        "numberOfBytes": "20"
      }
    }
  }
}