{
  "address": "0xB3e70779c1d1f2637483A02f1446b211fe4183Fa",
  "abi": [
    {
      "inputs": [],
      "name": "_price",
      "outputs": [
        {
          "internalType": "uint256",
          "name": "",
          "type": "uint256"
        }
      ],
      "stateMutability": "view",
      "type": "function"
    },
    {
      "inputs": [
        {
          "internalType": "address[]",
          "name": "underlyings",
          "type": "address[]"
        },
        {
          "internalType": "contract PriceOracle[]",
          "name": "_oracles",
          "type": "address[]"
        }
      ],
      "name": "add",
      "outputs": [],
      "stateMutability": "nonpayable",
      "type": "function"
    },
    {
      "inputs": [
        {
          "internalType": "contract CToken",
          "name": "",
          "type": "address"
        }
      ],
      "name": "getUnderlyingPrice",
      "outputs": [
        {
          "internalType": "uint256",
          "name": "",
          "type": "uint256"
        }
      ],
      "stateMutability": "view",
      "type": "function"
    },
    {
      "inputs": [
        {
          "internalType": "address[]",
          "name": "underlyings",
          "type": "address[]"
        },
        {
          "internalType": "contract PriceOracle[]",
          "name": "_oracles",
          "type": "address[]"
        },
        {
          "internalType": "contract PriceOracle",
          "name": "_defaultOracle",
          "type": "address"
        },
        {
          "internalType": "address",
          "name": "_admin",
          "type": "address"
        },
        {
          "internalType": "bool",
          "name": "_canAdminOverwrite",
          "type": "bool"
        }
      ],
      "name": "initialize",
      "outputs": [],
      "stateMutability": "nonpayable",
      "type": "function"
    },
    {
      "inputs": [],
      "name": "isPriceOracle",
      "outputs": [
        {
          "internalType": "bool",
          "name": "",
          "type": "bool"
        }
      ],
      "stateMutability": "view",
      "type": "function"
    },
    {
      "inputs": [
        {
          "internalType": "address",
          "name": "",
          "type": "address"
        }
      ],
      "name": "price",
      "outputs": [
        {
          "internalType": "uint256",
          "name": "",
          "type": "uint256"
        }
      ],
      "stateMutability": "view",
      "type": "function"
    },
    {
      "inputs": [
        {
          "internalType": "uint256",
          "name": "price_",
          "type": "uint256"
        }
      ],
      "name": "setPrice",
      "outputs": [],
      "stateMutability": "nonpayable",
      "type": "function"
    },
    {
      "inputs": [
        {
          "internalType": "address",
          "name": "zero",
          "type": "address"
        },
        {
          "internalType": "address",
          "name": "pool",
          "type": "address"
        }
      ],
      "name": "setZero",
      "outputs": [],
      "stateMutability": "nonpayable",
      "type": "function"
    }
  ],
  "transactionHash": "0x29179b3c1dede8093476266ae85bdcc73c7ac8f024006ae595687eb16e3e77f1",
  "args": [],
  "numDeployments": 1,
  "solcInputHash": "e6e4c9ea960c200f06b8bf15d2380dca",
  "bytecode": "0x6080604052670de0b6b3a764000060005534801561001c57600080fd5b506104d98061002c6000396000f3fe608060405234801561001057600080fd5b50600436106100885760003560e01c80639c9192c61161005b5780639c9192c6146100eb578063a162e823146100ff578063aea9107814610111578063fc57d4df1461011157600080fd5b8063235b6ea11461008d578063278aa146146100a957806366331bba146100c057806391b7f5ed146100d8575b600080fd5b61009660005481565b6040519081526020015b60405180910390f35b6100be6100b7366004610281565b5050505050565b005b6100c8600181565b60405190151581526020016100a0565b6100be6100e6366004610375565b600055565b6100be6100f93660046103da565b50505050565b6100be61010d366004610446565b5050565b61009661011f36600461047f565b5060005490565b7f4e487b7100000000000000000000000000000000000000000000000000000000600052604160045260246000fd5b604051601f82017fffffffffffffffffffffffffffffffffffffffffffffffffffffffffffffffe016810167ffffffffffffffff8111828210171561019c5761019c610126565b604052919050565b600067ffffffffffffffff8211156101be576101be610126565b5060051b60200190565b73ffffffffffffffffffffffffffffffffffffffff811681146101ea57600080fd5b50565b80356101f8816101c8565b919050565b600082601f83011261020e57600080fd5b8135602061022361021e836101a4565b610155565b82815260059290921b8401810191818101908684111561024257600080fd5b8286015b84811015610266578035610259816101c8565b8352918301918301610246565b509695505050505050565b803580151581146101f857600080fd5b600080600080600060a0868803121561029957600080fd5b853567ffffffffffffffff808211156102b157600080fd5b818801915088601f8301126102c557600080fd5b813560206102d561021e836101a4565b82815260059290921b8401810191818101908c8411156102f457600080fd5b948201945b8386101561031b57853561030c816101c8565b825294820194908201906102f9565b9950508901359250508082111561033157600080fd5b5061033e888289016101fd565b94505061034d604087016101ed565b925061035b606087016101ed565b915061036960808701610271565b90509295509295909350565b60006020828403121561038757600080fd5b5035919050565b60008083601f8401126103a057600080fd5b50813567ffffffffffffffff8111156103b857600080fd5b6020830191508360208260051b85010111156103d357600080fd5b9250929050565b600080600080604085870312156103f057600080fd5b843567ffffffffffffffff8082111561040857600080fd5b6104148883890161038e565b9096509450602087013591508082111561042d57600080fd5b5061043a8782880161038e565b95989497509550505050565b6000806040838503121561045957600080fd5b8235610464816101c8565b91506020830135610474816101c8565b809150509250929050565b60006020828403121561049157600080fd5b813561049c816101c8565b939250505056fea2646970667358221220647793456a7cfd0f21d5747641ec1e82ac3ee17b23fdeb64d57c8beac2e1f04e64736f6c634300080b0033",
  "devdoc": {
    "kind": "dev",
    "methods": {},
    "version": 1
  },
  "userdoc": {
    "kind": "user",
    "methods": {
      "isPriceOracle()": {
        "notice": "Indicator that this is a PriceOracle contract (for inspection)"
      }
    },
    "version": 1
  },
  "storageLayout": {
    "storage": [
      {
        "astId": 14895,
        "contract": "@sense-finance/v1-core/src/tests/test-helpers/mocks/fuse/MockOracle.sol:MockOracle",
        "label": "_price",
        "offset": 0,
        "slot": "0",
        "type": "t_uint256"
      }
    ],
    "types": {
      "t_uint256": {
        "encoding": "inplace",
        "label": "uint256",
        "numberOfBytes": "32"
      }
    }
  }
}