{
  "address": "0xF494aa5a7589F0FF78974C5d11F5a1f7aC4A6f07",
  "abi": [
    {
      "inputs": [
        {
          "internalType": "address",
          "name": "_divider",
          "type": "address"
        },
        {
          "components": [
            {
              "internalType": "address",
              "name": "oracle",
              "type": "address"
            },
            {
              "internalType": "address",
              "name": "stake",
              "type": "address"
            },
            {
              "internalType": "uint256",
              "name": "stakeSize",
              "type": "uint256"
            },
            {
              "internalType": "uint256",
              "name": "minm",
              "type": "uint256"
            },
            {
              "internalType": "uint256",
              "name": "maxm",
              "type": "uint256"
            },
            {
              "internalType": "uint128",
              "name": "ifee",
              "type": "uint128"
            },
            {
              "internalType": "uint16",
              "name": "mode",
              "type": "uint16"
            },
            {
              "internalType": "uint64",
              "name": "tilt",
              "type": "uint64"
            }
          ],
          "internalType": "struct BaseFactory.FactoryParams",
          "name": "_factoryParams",
          "type": "tuple"
        },
        {
          "internalType": "address[]",
          "name": "_rewardTokens",
          "type": "address[]"
        }
      ],
      "stateMutability": "nonpayable",
      "type": "constructor"
    },
    {
      "inputs": [],
      "name": "OnlyPeriphery",
      "type": "error"
    },
    {
      "inputs": [],
      "name": "TargetNotSupported",
      "type": "error"
    },
    {
      "anonymous": false,
      "inputs": [
        {
          "indexed": false,
          "internalType": "address",
          "name": "addr",
          "type": "address"
        },
        {
          "indexed": true,
          "internalType": "address",
          "name": "target",
          "type": "address"
        }
      ],
      "name": "AdapterAdded",
      "type": "event"
    },
    {
      "anonymous": false,
      "inputs": [
        {
          "indexed": true,
          "internalType": "address",
          "name": "user",
          "type": "address"
        },
        {
          "indexed": false,
          "internalType": "bool",
          "name": "trusted",
          "type": "bool"
        }
      ],
      "name": "UserTrustUpdated",
      "type": "event"
    },
    {
      "inputs": [],
      "name": "DEFAULT_LEVEL",
      "outputs": [
        {
          "internalType": "uint48",
          "name": "",
          "type": "uint48"
        }
      ],
      "stateMutability": "view",
      "type": "function"
    },
    {
      "inputs": [
        {
          "internalType": "address",
          "name": "",
          "type": "address"
        }
      ],
      "name": "adapters",
      "outputs": [
        {
          "internalType": "address",
          "name": "",
          "type": "address"
        }
      ],
      "stateMutability": "view",
      "type": "function"
    },
    {
      "inputs": [
        {
          "internalType": "address",
          "name": "_target",
          "type": "address"
        },
        {
          "internalType": "bool",
          "name": "status",
          "type": "bool"
        }
      ],
      "name": "addTarget",
      "outputs": [],
      "stateMutability": "nonpayable",
      "type": "function"
    },
    {
      "inputs": [
        {
          "internalType": "address",
          "name": "_target",
          "type": "address"
        },
        {
          "internalType": "bytes",
          "name": "data",
          "type": "bytes"
        }
      ],
      "name": "deployAdapter",
      "outputs": [
        {
          "internalType": "address",
          "name": "adapter",
          "type": "address"
        }
      ],
      "stateMutability": "nonpayable",
      "type": "function"
    },
    {
      "inputs": [],
      "name": "divider",
      "outputs": [
        {
          "internalType": "address",
          "name": "",
          "type": "address"
        }
      ],
      "stateMutability": "view",
      "type": "function"
    },
    {
      "inputs": [],
      "name": "factoryParams",
      "outputs": [
        {
          "internalType": "address",
          "name": "oracle",
          "type": "address"
        },
        {
          "internalType": "address",
          "name": "stake",
          "type": "address"
        },
        {
          "internalType": "uint256",
          "name": "stakeSize",
          "type": "uint256"
        },
        {
          "internalType": "uint256",
          "name": "minm",
          "type": "uint256"
        },
        {
          "internalType": "uint256",
          "name": "maxm",
          "type": "uint256"
        },
        {
          "internalType": "uint128",
          "name": "ifee",
          "type": "uint128"
        },
        {
          "internalType": "uint16",
          "name": "mode",
          "type": "uint16"
        },
        {
          "internalType": "uint64",
          "name": "tilt",
          "type": "uint64"
        }
      ],
      "stateMutability": "view",
      "type": "function"
    },
    {
      "inputs": [
        {
          "internalType": "address",
          "name": "",
          "type": "address"
        }
      ],
      "name": "isTrusted",
      "outputs": [
        {
          "internalType": "bool",
          "name": "",
          "type": "bool"
        }
      ],
      "stateMutability": "view",
      "type": "function"
    },
    {
      "inputs": [
        {
          "internalType": "address",
          "name": "user",
          "type": "address"
        },
        {
          "internalType": "bool",
          "name": "trusted",
          "type": "bool"
        }
      ],
      "name": "setIsTrusted",
      "outputs": [],
      "stateMutability": "nonpayable",
      "type": "function"
    },
    {
      "inputs": [
        {
          "internalType": "address[]",
          "name": "_rewardTokens",
          "type": "address[]"
        },
        {
          "internalType": "address[]",
          "name": "_adapters",
          "type": "address[]"
        }
      ],
      "name": "setRewardTokens",
      "outputs": [],
      "stateMutability": "nonpayable",
      "type": "function"
    },
    {
      "inputs": [
        {
          "internalType": "address",
          "name": "",
          "type": "address"
        }
      ],
      "name": "targets",
      "outputs": [
        {
          "internalType": "bool",
          "name": "",
          "type": "bool"
        }
      ],
      "stateMutability": "view",
      "type": "function"
    }
  ],
  "transactionHash": "0x5f225838950ee4ccb6a6b7af3d5f9eb48471485415838e39512f860500622ed7",
  "args": [
    "0xa1514E3bA51C59d4E76956409143aE9734883Fd5",
    [
      "0x0000000000000000000000000000000000000000",
      "0xAEfcd438e64501D5a79a13d856DA5c4638EECC48",
      "1000000000000000000",
      "0",
      "4838400",
      "10000000000000000",
      1,
      0
    ],
    [
      "0x34AccF02eED08893697b9c212aDBF7a53FE173Fe"
    ]
  ],
  "numDeployments": 1,
  "solcInputHash": "e6e4c9ea960c200f06b8bf15d2380dca",
  "bytecode": "0x60a06040523480156200001157600080fd5b50604051620050a5380380620050a583398101604081905262000034916200031a565b3360008181526020818152604091829020805460ff19166001908117909155915191825285928592849284929182917fe95aec380cae16330d146d5499ef7db6f3657e477104a733e771bc09e500d986910160405180910390a2506001600160a01b0391821660809081528151600280549185166001600160a01b031992831617905560208084015160038054919096169216919091179093556040820151600455606082015160055581015160065560a08101516007805460c084015160e0909401516001600160401b0316600160901b02600160901b600160d01b031961ffff909516600160801b026001600160901b03199092166001600160801b039094169390931717929092161790558351620001589350600992509084019062000162565b505050506200041c565b828054828255906000526020600020908101928215620001ba579160200282015b82811115620001ba57825182546001600160a01b0319166001600160a01b0390911617825560209092019160019091019062000183565b50620001c8929150620001cc565b5090565b5b80821115620001c85760008155600101620001cd565b80516001600160a01b0381168114620001fb57600080fd5b919050565b634e487b7160e01b600052604160045260246000fd5b60405161010081016001600160401b03811182821017156200023c576200023c62000200565b60405290565b805161ffff81168114620001fb57600080fd5b80516001600160401b0381168114620001fb57600080fd5b600082601f8301126200027f57600080fd5b815160206001600160401b03808311156200029e576200029e62000200565b8260051b604051601f19603f83011681018181108482111715620002c657620002c662000200565b604052938452858101830193838101925087851115620002e557600080fd5b83870191505b848210156200030f57620002ff82620001e3565b83529183019190830190620002eb565b979650505050505050565b60008060008385036101408112156200033257600080fd5b6200033d85620001e3565b935061010080601f19830112156200035457600080fd5b6200035e62000216565b91506200036e60208701620001e3565b82526200037e60408701620001e3565b6020830152606086015160408301526080860151606083015260a0860151608083015260c086015160018060801b0381168114620003bb57600080fd5b60a0830152620003ce60e0870162000242565b60c0830152620003e081870162000255565b60e0830152506101208501519092506001600160401b038111156200040457600080fd5b62000412868287016200026d565b9150509250925092565b608051614c60620004456000396000818160f10152818161050201526106a20152614c606000f3fe60806040523480156200001157600080fd5b5060043610620000cd5760003560e01c806382d254ea116200007f57806396d64879116200006257806396d64879146200022a578063bbe451d51462000250578063e5711ffc146200034957600080fd5b806382d254ea14620001f257806393d4750c146200020957600080fd5b80633c4598d011620000b45780633c4598d0146200013d5780633cad2dcd14620001a4578063562c478414620001bb57600080fd5b80631393916a14620000d2578063378efa3714620000eb575b600080fd5b620000e9620000e3366004620008fc565b62000382565b005b620001137f000000000000000000000000000000000000000000000000000000000000000081565b60405173ffffffffffffffffffffffffffffffffffffffff90911681526020015b60405180910390f35b620000e96200014e366004620008fc565b73ffffffffffffffffffffffffffffffffffffffff91909116600090815260086020526040902080547fffffffffffffffffffffffffffffffffffffffffffffffffffffffffffffff0016911515919091179055565b62000113620001b5366004620009bf565b62000489565b620001e1620001cc36600462000a90565b60086020526000908152604090205460ff1681565b604051901515815260200162000134565b620000e96200020336600462000b4b565b6200079a565b62000212601f81565b60405165ffffffffffff909116815260200162000134565b620001e16200023b36600462000a90565b60006020819052908152604090205460ff1681565b600254600354600454600554600654600754620002d59573ffffffffffffffffffffffffffffffffffffffff9081169516939291906fffffffffffffffffffffffffffffffff811690700100000000000000000000000000000000810461ffff16907201000000000000000000000000000000000000900467ffffffffffffffff1688565b6040805173ffffffffffffffffffffffffffffffffffffffff998a16815298909716602089015295870194909452606086019290925260808501526fffffffffffffffffffffffffffffffff1660a084015261ffff1660c083015267ffffffffffffffff1660e08201526101000162000134565b620001136200035a36600462000a90565b60016020526000908152604090205473ffffffffffffffffffffffffffffffffffffffff1681565b3360009081526020819052604090205460ff1662000401576040517f08c379a000000000000000000000000000000000000000000000000000000000815260206004820152600960248201527f554e54525553544544000000000000000000000000000000000000000000000060448201526064015b60405180910390fd5b73ffffffffffffffffffffffffffffffffffffffff82166000818152602081815260409182902080547fffffffffffffffffffffffffffffffffffffffffffffffffffffffffffffff001685151590811790915591519182527fe95aec380cae16330d146d5499ef7db6f3657e477104a733e771bc09e500d986910160405180910390a25050565b73ffffffffffffffffffffffffffffffffffffffff821660009081526008602052604081205460ff16620004e9576040517fa2a94ace00000000000000000000000000000000000000000000000000000000815260040160405180910390fd5b3373ffffffffffffffffffffffffffffffffffffffff167f000000000000000000000000000000000000000000000000000000000000000073ffffffffffffffffffffffffffffffffffffffff166377aace1a6040518163ffffffff1660e01b8152600401602060405180830381865afa1580156200056c573d6000803e3d6000fd5b505050506040513d601f19601f8201168201806040525081019062000592919062000bb6565b73ffffffffffffffffffffffffffffffffffffffff1614620005e0576040517ffb02114900000000000000000000000000000000000000000000000000000000815260040160405180910390fd5b604080516101008101825260025473ffffffffffffffffffffffffffffffffffffffff90811682526003541660208201526004549181019190915260055460608083019190915260065460808301526007547201000000000000000000000000000000000000810467ffffffffffffffff1660a0840152601f60c0840152700100000000000000000000000000000000900461ffff1660e083015284901b7fffffffffffffffffffffffffffffffffffffffff000000000000000000000000167f0000000000000000000000000000000000000000000000000000000000000000858673ffffffffffffffffffffffffffffffffffffffff166338d52e0f6040518163ffffffff1660e01b8152600401602060405180830381865afa1580156200070e573d6000803e3d6000fd5b505050506040513d601f19601f8201168201806040525081019062000734919062000bb6565b6007546040516fffffffffffffffffffffffffffffffff9091169086906009906200075f90620008c8565b620007709695949392919062000c2e565b8190604051809103906000f590508015801562000791573d6000803e3d6000fd5b50949350505050565b3360009081526020819052604090205460ff1662000815576040517f08c379a000000000000000000000000000000000000000000000000000000000815260206004820152600960248201527f554e5452555354454400000000000000000000000000000000000000000000006044820152606401620003f8565b60005b8151811015620008c35781818151811062000837576200083762000d0d565b602002602001015173ffffffffffffffffffffffffffffffffffffffff1663201e81a8846040518263ffffffff1660e01b815260040162000879919062000d3c565b600060405180830381600087803b1580156200089457600080fd5b505af1158015620008a9573d6000803e3d6000fd5b505050508080620008ba9062000d98565b91505062000818565b505050565b613e318062000dfa83390190565b73ffffffffffffffffffffffffffffffffffffffff81168114620008f957600080fd5b50565b600080604083850312156200091057600080fd5b82356200091d81620008d6565b9150602083013580151581146200093357600080fd5b809150509250929050565b7f4e487b7100000000000000000000000000000000000000000000000000000000600052604160045260246000fd5b604051601f82017fffffffffffffffffffffffffffffffffffffffffffffffffffffffffffffffe016810167ffffffffffffffff81118282101715620009b757620009b76200093e565b604052919050565b60008060408385031215620009d357600080fd5b8235620009e081620008d6565b915060208381013567ffffffffffffffff80821115620009ff57600080fd5b818601915086601f83011262000a1457600080fd5b81358181111562000a295762000a296200093e565b62000a5b847fffffffffffffffffffffffffffffffffffffffffffffffffffffffffffffffe0601f840116016200096d565b9150808252878482850101111562000a7257600080fd5b80848401858401376000848284010152508093505050509250929050565b60006020828403121562000aa357600080fd5b813562000ab081620008d6565b9392505050565b600082601f83011262000ac957600080fd5b8135602067ffffffffffffffff82111562000ae85762000ae86200093e565b8160051b62000af98282016200096d565b928352848101820192828101908785111562000b1457600080fd5b83870192505b8483101562000b4057823562000b3081620008d6565b8252918301919083019062000b1a565b979650505050505050565b6000806040838503121562000b5f57600080fd5b823567ffffffffffffffff8082111562000b7857600080fd5b62000b868683870162000ab7565b9350602085013591508082111562000b9d57600080fd5b5062000bac8582860162000ab7565b9150509250929050565b60006020828403121562000bc957600080fd5b815162000ab081620008d6565b6000815480845260208085019450836000528060002060005b8381101562000c2357815473ffffffffffffffffffffffffffffffffffffffff168752958201956001918201910162000bef565b509495945050505050565b60006101a073ffffffffffffffffffffffffffffffffffffffff808a168452808916602085015280881660408501526fffffffffffffffffffffffffffffffff871660608501528086511660808501528060208701511660a085015250604085015160c0840152606085015160e0840152608085015161010084015267ffffffffffffffff60a08601511661012084015260c085015162000cda61014085018265ffffffffffff169052565b5060e085015161ffff16610160840152610180830181905262000d008184018562000bd6565b9998505050505050505050565b7f4e487b7100000000000000000000000000000000000000000000000000000000600052603260045260246000fd5b6020808252825182820181905260009190848201906040850190845b8181101562000d8c57835173ffffffffffffffffffffffffffffffffffffffff168352928401929184019160010162000d58565b50909695505050505050565b60007fffffffffffffffffffffffffffffffffffffffffffffffffffffffffffffffff82141562000df2577f4e487b7100000000000000000000000000000000000000000000000000000000600052601160045260246000fd5b506001019056fe6101406040523480156200001257600080fd5b5060405162003e3138038062003e31833981016040819052620000359162000994565b858133888887878383846001600160a01b03166338d52e0f6040518163ffffffff1660e01b8152600401602060405180830381865afa1580156200007d573d6000803e3d6000fd5b505050506040513d601f19601f82011682018060405250810190620000a3919062000ada565b6001600160a01b03808416608090815283821660a081815284841660c09081526001600160801b038a1660e09081528951600080549188166001600160a01b031992831617815560208c015160018054919099169216919091179096556040808b015160025560608b0151600355948a01516004908155928a015160058054938c0151928c015161ffff16600160701b0261ffff60701b1965ffffffffffff90941668010000000000000000026001600160701b03199095166001600160401b0390931692909217939093179190911617905582516306fdde0360e01b81529251899489946306fdde039381810193918290030181865afa158015620001ad573d6000803e3d6000fd5b505050506040513d6000823e601f3d908101601f19168201604052620001d7919081019062000b34565b604051602001620001e9919062000bd2565b604051602081830303815290604052600690805190602001906200020f92919062000721565b50836001600160a01b03166395d89b416040518163ffffffff1660e01b8152600401600060405180830381865afa1580156200024f573d6000803e3d6000fd5b505050506040513d6000823e601f3d908101601f1916820160405262000279919081019062000b34565b6040516020016200028b919062000c00565b60405160208183030381529060405260079080519060200190620002b192919062000721565b5060805160405163095ea7b360e01b81526001600160a01b03918216600482015260001960248201529085169063095ea7b3906044016020604051808303816000875af115801562000307573d6000803e3d6000fd5b505050506040513d601f19601f820116820180604052508101906200032d919062000c2e565b50602081015160805160405163095ea7b360e01b81526001600160a01b039182166004820152600019602482015291169063095ea7b3906044016020604051808303816000875af115801562000387573d6000803e3d6000fd5b505050506040513d601f19601f82011682018060405250810190620003ad919062000c2e565b505050505050600060a0516001600160a01b031663313ce5676040518163ffffffff1660e01b8152600401602060405180830381865afa158015620003f6573d6000803e3d6000fd5b505050506040513d601f19601f820116820180604052508101906200041c919062000c52565b60ff1690506200042e81600a62000d8c565b610100526200043f81601262000d9a565b6200044c90600a62000d8c565b6101205260c05160a05160405163095ea7b360e01b81526001600160a01b039182166004820152600019602482015291169063095ea7b3906044016020604051808303816000875af1158015620004a7573d6000803e3d6000fd5b505050506040513d601f19601f82011682018060405250810190620004cd919062000c2e565b505050506001600160a01b038316600081815260086020908152604091829020805460ff1916600190811790915591519182529193507fe95aec380cae16330d146d5499ef7db6f3657e477104a733e771bc09e500d98692500160405180910390a2506200053d82600162000672565b80516200055290600d906020840190620007b0565b5050506000856001600160a01b031663313ce5676040518163ffffffff1660e01b8152600401602060405180830381865afa15801562000596573d6000803e3d6000fd5b505050506040513d601f19601f82011682018060405250810190620005bc919062000c52565b60ff1690506000856001600160a01b031663313ce5676040518163ffffffff1660e01b8152600401602060405180830381865afa15801562000602573d6000803e3d6000fd5b505050506040513d601f19601f8201168201806040525081019062000628919062000c52565b60ff169050808211620006475762000641828262000d9a565b62000653565b62000653818362000d9a565b6200066090600a62000d8c565b6010555062000df19650505050505050565b3360009081526008602052604090205460ff16620006c25760405162461bcd60e51b8152602060048201526009602482015268155395149554d5115160ba1b604482015260640160405180910390fd5b6001600160a01b038216600081815260086020908152604091829020805460ff191685151590811790915591519182527fe95aec380cae16330d146d5499ef7db6f3657e477104a733e771bc09e500d986910160405180910390a25050565b8280546200072f9062000db4565b90600052602060002090601f0160209004810192826200075357600085556200079e565b82601f106200076e57805160ff19168380011785556200079e565b828001600101855582156200079e579182015b828111156200079e57825182559160200191906001019062000781565b50620007ac92915062000808565b5090565b8280548282559060005260206000209081019282156200079e579160200282015b828111156200079e57825182546001600160a01b0319166001600160a01b03909116178255602090920191600190910190620007d1565b5b80821115620007ac576000815560010162000809565b6001600160a01b03811681146200083557600080fd5b50565b805162000845816200081f565b919050565b634e487b7160e01b600052604160045260246000fd5b60405161010081016001600160401b03811182821017156200088657620008866200084a565b60405290565b604051601f8201601f191681016001600160401b0381118282101715620008b757620008b76200084a565b604052919050565b80516001600160401b03811681146200084557600080fd5b805165ffffffffffff811681146200084557600080fd5b805161ffff811681146200084557600080fd5b600082601f8301126200091357600080fd5b815160206001600160401b038211156200093157620009316200084a565b8160051b620009428282016200088c565b92835284810182019282810190878511156200095d57600080fd5b83870192505b848310156200098957825162000979816200081f565b8252918301919083019062000963565b979650505050505050565b6000806000806000808688036101a0811215620009b057600080fd5b8751620009bd816200081f565b6020890151909750620009d0816200081f565b6040890151909650620009e3816200081f565b60608901519095506001600160801b038116811462000a0157600080fd5b9350610100607f19820181131562000a1857600080fd5b62000a2262000860565b9150608089015162000a34816200081f565b825262000a4460a08a0162000838565b602083015260c0890151604083015260e08901516060830152880151608082015262000a746101208901620008bf565b60a082015262000a886101408901620008d7565b60c082015262000a9c6101608901620008ee565b60e08201526101808801519092506001600160401b0381111562000abf57600080fd5b62000acd89828a0162000901565b9150509295509295509295565b60006020828403121562000aed57600080fd5b815162000afa816200081f565b9392505050565b60005b8381101562000b1e57818101518382015260200162000b04565b8381111562000b2e576000848401525b50505050565b60006020828403121562000b4757600080fd5b81516001600160401b038082111562000b5f57600080fd5b818401915084601f83011262000b7457600080fd5b81518181111562000b895762000b896200084a565b62000b9e601f8201601f19166020016200088c565b915080825285602082850101111562000bb657600080fd5b62000bc981602084016020860162000b01565b50949350505050565b6000825162000be681846020870162000b01565b671020b230b83a32b960c11b920191825250600801919050565b6000825162000c1481846020870162000b01565b6716b0b230b83a32b960c11b920191825250600801919050565b60006020828403121562000c4157600080fd5b8151801515811462000afa57600080fd5b60006020828403121562000c6557600080fd5b815160ff8116811462000afa57600080fd5b634e487b7160e01b600052601160045260246000fd5b600181815b8085111562000cce57816000190482111562000cb25762000cb262000c77565b8085161562000cc057918102915b93841c939080029062000c92565b509250929050565b60008262000ce75750600162000d86565b8162000cf65750600062000d86565b816001811462000d0f576002811462000d1a5762000d3a565b600191505062000d86565b60ff84111562000d2e5762000d2e62000c77565b50506001821b62000d86565b5060208310610133831016604e8410600b841016171562000d5f575081810a62000d86565b62000d6b838362000c8d565b806000190482111562000d825762000d8262000c77565b0290505b92915050565b600062000afa838362000cd6565b60008282101562000daf5762000daf62000c77565b500390565b600181811c9082168062000dc957607f821691505b6020821081141562000deb57634e487b7160e01b600052602260045260246000fd5b50919050565b60805160a05160c05160e0516101005161012051612f6b62000ec66000396000818161077d0152610adc0152600081816107560152610ab3015260006106c20152600081816105eb01528181610bce0152610c5e01526000818161047d015281816107c401528181610b1301528181610cbb01528181610d8301528181610e02015281816118990152818161190f015281816119f70152611d3b0152600081816104f601528181610ec101528181610f93015281816117a501528181611ad801528181611bd40152611cc50152612f6b6000f3fe608060405234801561001057600080fd5b50600436106102d35760003560e01c80636f307dc311610186578063b90d3d0c116100e3578063d01c6f2911610097578063da4ca41311610071578063da4ca413146107f9578063ed3437f814610802578063f51e181a1461044657600080fd5b8063d01c6f291461079f578063d4b83992146107bf578063d9d98ce4146107e657600080fd5b8063cc074d49116100c8578063cc074d491461073e578063cce5938614610751578063ce4b5bbe1461077857600080fd5b8063b90d3d0c14610705578063c39a3b291461072c57600080fd5b80638d8475c41161013a57806396d648791161011f57806396d6487914610687578063b484972a146106aa578063b8c15a9f146106bd57600080fd5b80638d8475c41461066c57806395d89b411461067f57600080fd5b806375b2cda81161016b57806375b2cda8146106295780637bb7bed1146106325780638237e5381461064557600080fd5b80636f307dc3146105e65780636fd5ae151461060d57600080fd5b8063378efa3711610234578063572acb9f116101e8578063613255ab116101cd578063613255ab146105a457806362e10b4e146105b757806364c56e3c146105ca57600080fd5b8063572acb9f1461057e5780635cffe9de1461059157600080fd5b80634aae9fed116102195780634aae9fed1461054557806351c39ea11461055857806353e0719e1461056b57600080fd5b8063378efa37146104f1578063468f02d21461053d57600080fd5b8063201e81a81161028b57806327b327d01161027057806327b327d01461045c578063295a5212146104b357806329a43608146104d157600080fd5b8063201e81a814610433578063226778491461044657600080fd5b80630e122423116102bc5780630e122423146103cd5780631393916a1461040b57806314282f581461042057600080fd5b806306fdde03146102d8578063083118d5146102f6575b600080fd5b6102e061080b565b6040516102ed9190612750565b60405180910390f35b6000546001546002546003546004546005546103649573ffffffffffffffffffffffffffffffffffffffff90811695169392919067ffffffffffffffff81169068010000000000000000810465ffffffffffff16906e010000000000000000000000000000900461ffff1688565b6040805173ffffffffffffffffffffffffffffffffffffffff998a168152989097166020890152958701949094526060860192909252608085015267ffffffffffffffff1660a084015265ffffffffffff1660c083015261ffff1660e0820152610100016102ed565b6103fb6103db3660046127f8565b600c60209081526000928352604080842090915290825290205460ff1681565b60405190151581526020016102ed565b61041e610419366004612832565b610899565b005b61041e61042e36600461286b565b6109a1565b61041e6104413660046128cc565b6109bc565b61044e610a8b565b6040519081526020016102ed565b6001546002546040805173ffffffffffffffffffffffffffffffffffffffff7f00000000000000000000000000000000000000000000000000000000000000008116825290931660208401528201526060016102ed565b6005546e010000000000000000000000000000900461ffff1661044e565b61044e6104df3660046129af565b600a6020526000908152604090205481565b6105187f000000000000000000000000000000000000000000000000000000000000000081565b60405173ffffffffffffffffffffffffffffffffffffffff90911681526020016102ed565b61044e610b8d565b61044e6105533660046129cc565b610c42565b61044e6105663660046129cc565b610d44565b61041e6105793660046129e5565b610dc7565b61041e61058c366004612a53565b61126c565b6103fb61059f366004612abf565b61178a565b61044e6105b23660046129af565b611a2c565b61044e6105c53660046129e5565b611a99565b6003546004545b604080519283526020830191909152016102ed565b6105187f000000000000000000000000000000000000000000000000000000000000000081565b60055468010000000000000000900465ffffffffffff1661044e565b61044e600f5481565b6105186106403660046129cc565b611b61565b61044e7f439148f0bbc682ca079e46d6e2c2f0c1e3b820f1a291b069d8882abf8cf18dd981565b61041e61067a3660046129e5565b611b98565b6102e0611c5b565b6103fb6106953660046129af565b60086020526000908152604090205460ff1681565b61041e6106b8366004612b5e565b611c68565b6106e47f000000000000000000000000000000000000000000000000000000000000000081565b6040516fffffffffffffffffffffffffffffffff90911681526020016102ed565b6105d16107133660046129af565b600e602052600090815260409020805460019091015482565b60055467ffffffffffffffff1661044e565b61041e61074c366004612ba0565b611c73565b61044e7f000000000000000000000000000000000000000000000000000000000000000081565b61044e7f000000000000000000000000000000000000000000000000000000000000000081565b61044e6107ad3660046129af565b600b6020526000908152604090205481565b6105187f000000000000000000000000000000000000000000000000000000000000000081565b61044e6107f43660046127f8565b611d37565b61044e60095481565b61044e60105481565b6006805461081890612bc5565b80601f016020809104026020016040519081016040528092919081815260200182805461084490612bc5565b80156108915780601f1061086657610100808354040283529160200191610891565b820191906000526020600020905b81548152906001019060200180831161087457829003601f168201915b505050505081565b3360009081526008602052604090205460ff16610917576040517f08c379a000000000000000000000000000000000000000000000000000000000815260206004820152600960248201527f554e54525553544544000000000000000000000000000000000000000000000060448201526064015b60405180910390fd5b73ffffffffffffffffffffffffffffffffffffffff821660008181526008602090815260409182902080547fffffffffffffffffffffffffffffffffffffffffffffffffffffffffffffff001685151590811790915591519182527fe95aec380cae16330d146d5499ef7db6f3657e477104a733e771bc09e500d986910160405180910390a25050565b600f80549060006109b183612c48565b919050555050505050565b3360009081526008602052604090205460ff16610a35576040517f08c379a000000000000000000000000000000000000000000000000000000000815260206004820152600960248201527f554e545255535445440000000000000000000000000000000000000000000000604482015260640161090e565b8051610a4890600d9060208401906126b1565b50600d604051610a589190612c81565b604051908190038120907f45fae61b076570d71d045d3f03e5fa6b6401bebddde54161c7126c56a5ce7d6590600090a250565b6040517f07a2d13a0000000000000000000000000000000000000000000000000000000081527f000000000000000000000000000000000000000000000000000000000000000060048201526000907f00000000000000000000000000000000000000000000000000000000000000009073ffffffffffffffffffffffffffffffffffffffff7f000000000000000000000000000000000000000000000000000000000000000016906307a2d13a90602401602060405180830381865afa158015610b5a573d6000803e3d6000fd5b505050506040513d601f19601f82011682018060405250810190610b7e9190612cd4565b610b889190612ced565b905090565b600080546040517faea9107800000000000000000000000000000000000000000000000000000000815273ffffffffffffffffffffffffffffffffffffffff7f0000000000000000000000000000000000000000000000000000000000000000811660048301529091169063aea9107890602401602060405180830381865afa158015610c1e573d6000803e3d6000fd5b505050506040513d601f19601f82011682018060405250810190610b889190612cd4565b6000610c8673ffffffffffffffffffffffffffffffffffffffff7f000000000000000000000000000000000000000000000000000000000000000016333085611dc7565b6040517f6e553f65000000000000000000000000000000000000000000000000000000008152600481018390523360248201527f000000000000000000000000000000000000000000000000000000000000000073ffffffffffffffffffffffffffffffffffffffff1690636e553f65906044015b6020604051808303816000875af1158015610d1a573d6000803e3d6000fd5b505050506040513d601f19601f82011682018060405250810190610d3e9190612cd4565b92915050565b6040517fba08765200000000000000000000000000000000000000000000000000000000815260048101829052336024820181905260448201526000907f000000000000000000000000000000000000000000000000000000000000000073ffffffffffffffffffffffffffffffffffffffff169063ba08765290606401610cfb565b6040517f23b872dd000000000000000000000000000000000000000000000000000000008152336004820152306024820152604481018290527f000000000000000000000000000000000000000000000000000000000000000073ffffffffffffffffffffffffffffffffffffffff16906323b872dd906064016020604051808303816000875af1158015610e60573d6000803e3d6000fd5b505050506040513d601f19601f82011682018060405250810190610e849190612d2a565b506040517fdfe5ef4800000000000000000000000000000000000000000000000000000000815230600482015260248101839052604481018290527f000000000000000000000000000000000000000000000000000000000000000073ffffffffffffffffffffffffffffffffffffffff169063dfe5ef48906064016020604051808303816000875af1158015610f1f573d6000803e3d6000fd5b505050506040513d601f19601f82011682018060405250810190610f439190612cd4565b506040517f0891d30a00000000000000000000000000000000000000000000000000000000815230600482015260248101839052600090819073ffffffffffffffffffffffffffffffffffffffff7f00000000000000000000000000000000000000000000000000000000000000001690630891d30a9060440161012060405180830381865afa158015610fdb573d6000803e3d6000fd5b505050506040513d601f19601f82011682018060405250810190610fff9190612d52565b50506040517f70a082310000000000000000000000000000000000000000000000000000000081523060048201529698509396505073ffffffffffffffffffffffffffffffffffffffff87169463a9059cbb94503393508592506370a082319150602401602060405180830381865afa158015611080573d6000803e3d6000fd5b505050506040513d601f19601f820116820180604052508101906110a49190612cd4565b6040517fffffffff0000000000000000000000000000000000000000000000000000000060e085901b16815273ffffffffffffffffffffffffffffffffffffffff909216600483015260248201526044016020604051808303816000875af1158015611114573d6000803e3d6000fd5b505050506040513d601f19601f820116820180604052508101906111389190612d2a565b506040517f70a0823100000000000000000000000000000000000000000000000000000000815230600482015273ffffffffffffffffffffffffffffffffffffffff82169063a9059cbb90339083906370a0823190602401602060405180830381865afa1580156111ad573d6000803e3d6000fd5b505050506040513d601f19601f820116820180604052508101906111d19190612cd4565b6040517fffffffff0000000000000000000000000000000000000000000000000000000060e085901b16815273ffffffffffffffffffffffffffffffffffffffff909216600483015260248201526044016020604051808303816000875af1158015611241573d6000803e3d6000fd5b505050506040513d601f19601f820116820180604052508101906112659190612d2a565b5050505050565b60003073ffffffffffffffffffffffffffffffffffffffff1663378efa376040518163ffffffff1660e01b8152600401602060405180830381865afa1580156112b9573d6000803e3d6000fd5b505050506040513d601f19601f820116820180604052508101906112dd9190612e05565b905060005b828110156117825760005b8581101561176f57600087878381811061130957611309612e22565b905060200201602081019061131e91906129af565b905060008473ffffffffffffffffffffffffffffffffffffffff1663574e77953089898881811061135157611351612e22565b6040517fffffffff0000000000000000000000000000000000000000000000000000000060e087901b16815273ffffffffffffffffffffffffffffffffffffffff90941660048501526020029190910135602483015250604401602060405180830381865afa1580156113c8573d6000803e3d6000fd5b505050506040513d601f19601f820116820180604052508101906113ec9190612e05565b6040517f70a0823100000000000000000000000000000000000000000000000000000000815273ffffffffffffffffffffffffffffffffffffffff848116600483015291909116906370a0823190602401602060405180830381865afa15801561145a573d6000803e3d6000fd5b505050506040513d601f19601f8201168201806040525081019061147e9190612cd4565b90504287878681811061149357611493612e22565b90506020020135111580156114a85750600081115b8015611506575073ffffffffffffffffffffffffffffffffffffffff82166000908152600c60205260408120908888878181106114e7576114e7612e22565b602090810292909201358352508101919091526040016000205460ff16155b1561175a5761151482611e86565b60006115f48673ffffffffffffffffffffffffffffffffffffffff16632f9cd854308b8b8a81811061154857611548612e22565b6040517fffffffff0000000000000000000000000000000000000000000000000000000060e087901b16815273ffffffffffffffffffffffffffffffffffffffff9485166004820152602090910292909201356024830152509087166044820152606401602060405180830381865afa1580156115c9573d6000803e3d6000fd5b505050506040513d601f19601f820116820180604052508101906115ed9190612cd4565b83906122d8565b905080600960008282546116089190612e51565b909155505073ffffffffffffffffffffffffffffffffffffffff83166000908152600a602052604081208054839290611642908490612e51565b909155505073ffffffffffffffffffffffffffffffffffffffff83166000908152600b60205260408120805483929061167c908490612e68565b909155505073ffffffffffffffffffffffffffffffffffffffff83166000908152600c602052604081206001918a8a898181106116bb576116bb612e22565b90506020020135815260200190815260200160002060006101000a81548160ff0219169083151502179055508273ffffffffffffffffffffffffffffffffffffffff167f5758e413a9bfd3ec45a67abaa9ee2396cab143a505332bf7ab48c0e624b65f11828a8a8981811061173257611732612e22565b90506020020135604051611750929190918252602082015260400190565b60405180910390a2505b5050808061176790612c48565b9150506112ed565b508061177a81612c48565b9150506112e2565b505050505050565b60003373ffffffffffffffffffffffffffffffffffffffff167f000000000000000000000000000000000000000000000000000000000000000073ffffffffffffffffffffffffffffffffffffffff166377aace1a6040518163ffffffff1660e01b8152600401602060405180830381865afa15801561180e573d6000803e3d6000fd5b505050506040513d601f19601f820116820180604052508101906118329190612e05565b73ffffffffffffffffffffffffffffffffffffffff161461187f576040517ffb02114900000000000000000000000000000000000000000000000000000000815260040160405180910390fd5b6118c073ffffffffffffffffffffffffffffffffffffffff7f00000000000000000000000000000000000000000000000000000000000000001687866122ed565b6040517f23e30c8b00000000000000000000000000000000000000000000000000000000815260009073ffffffffffffffffffffffffffffffffffffffff8816906323e30c8b9061193f9033907f0000000000000000000000000000000000000000000000000000000000000000908a9087908b908b90600401612e80565b6020604051808303816000875af115801561195e573d6000803e3d6000fd5b505050506040513d601f19601f820116820180604052508101906119829190612cd4565b90507f439148f0bbc682ca079e46d6e2c2f0c1e3b820f1a291b069d8882abf8cf18dd981146119dd576040517f207df21c00000000000000000000000000000000000000000000000000000000815260040160405180910390fd5b611a1f73ffffffffffffffffffffffffffffffffffffffff7f000000000000000000000000000000000000000000000000000000000000000016883088611dc7565b5060019695505050505050565b6040517f70a0823100000000000000000000000000000000000000000000000000000000815230600482015260009073ffffffffffffffffffffffffffffffffffffffff8316906370a0823190602401602060405180830381865afa158015610d1a573d6000803e3d6000fd5b6040517fba89bebd00000000000000000000000000000000000000000000000000000000815230600482015260248101839052604481018290526000907f000000000000000000000000000000000000000000000000000000000000000073ffffffffffffffffffffffffffffffffffffffff169063ba89bebd906064016020604051808303816000875af1158015611b36573d6000803e3d6000fd5b505050506040513d601f19601f82011682018060405250810190611b5a9190612cd4565b9392505050565b600d8181548110611b7157600080fd5b60009182526020909120015473ffffffffffffffffffffffffffffffffffffffff16905081565b6040517f2b83cccd00000000000000000000000000000000000000000000000000000000815230600482015260248101839052604481018290527f000000000000000000000000000000000000000000000000000000000000000073ffffffffffffffffffffffffffffffffffffffff1690632b83cccd906064016020604051808303816000875af1158015611c32573d6000803e3d6000fd5b505050506040513d601f19601f82011682018060405250810190611c569190612cd4565b505050565b6007805461081890612bc5565b611c568383836123a6565b6040517f3e3972ee0000000000000000000000000000000000000000000000000000000081523060048201526024810183905273ffffffffffffffffffffffffffffffffffffffff82811660448301527f00000000000000000000000000000000000000000000000000000000000000001690633e3972ee9060640160408051808303816000875af1158015611d0d573d6000803e3d6000fd5b505050506040513d601f19601f82011682018060405250810190611d319190612f06565b50505050565b60007f000000000000000000000000000000000000000000000000000000000000000073ffffffffffffffffffffffffffffffffffffffff168373ffffffffffffffffffffffffffffffffffffffff1614611dbe576040517f3dd1b30500000000000000000000000000000000000000000000000000000000815260040160405180910390fd5b50600092915050565b60006040517f23b872dd0000000000000000000000000000000000000000000000000000000081528460048201528360248201528260448201526020600060648360008a5af13d15601f3d1160016000511416171691505080611265576040517f08c379a000000000000000000000000000000000000000000000000000000000815260206004820152601460248201527f5452414e534645525f46524f4d5f4641494c4544000000000000000000000000604482015260640161090e565b60005b600d548110156122d4576000600e6000600d8481548110611eac57611eac612e22565b600091825260208083209091015473ffffffffffffffffffffffffffffffffffffffff168352820192909252604001902060010154600d805484908110611ef557611ef5612e22565b6000918252602090912001546040517f70a0823100000000000000000000000000000000000000000000000000000000815230600482015273ffffffffffffffffffffffffffffffffffffffff909116906370a0823190602401602060405180830381865afa158015611f6c573d6000803e3d6000fd5b505050506040513d601f19601f82011682018060405250810190611f909190612cd4565b611f9a9190612e51565b6009549091501561201e57600954611fc09082906b033b2e3c9fd0803ce800000061263e565b600e6000600d8581548110611fd757611fd7612e22565b600091825260208083209091015473ffffffffffffffffffffffffffffffffffffffff16835282019290925260400181208054909190612018908490612e68565b90915550505b6000600e6000600d858154811061203757612037612e22565b600091825260208083209091015473ffffffffffffffffffffffffffffffffffffffff9081168452838201949094526040928301822093881682526002909301909252812054600d80549193506120f291600e9184918890811061209d5761209d612e22565b600091825260208083209091015473ffffffffffffffffffffffffffffffffffffffff9081168452838201949094526040928301822054938a168252600a90522054906b033b2e3c9fd0803ce8000000612653565b90508181111561213f5761213f85838303600d878154811061211657612116612e22565b60009182526020909120015473ffffffffffffffffffffffffffffffffffffffff1691906122ed565b600d848154811061215257612152612e22565b6000918252602090912001546040517f70a0823100000000000000000000000000000000000000000000000000000000815230600482015273ffffffffffffffffffffffffffffffffffffffff909116906370a0823190602401602060405180830381865afa1580156121c9573d6000803e3d6000fd5b505050506040513d601f19601f820116820180604052508101906121ed9190612cd4565b600e6000600d878154811061220457612204612e22565b600091825260208083209091015473ffffffffffffffffffffffffffffffffffffffff168352820192909252604001902060010155600d80548590811061224d5761224d612e22565b60009182526020909120015473ffffffffffffffffffffffffffffffffffffffff9081169086167fad4a9acf26d8bba7a8cf1a41160d59be042ee554578e256c98d2ab74cdd435428484116122a35760006122ad565b6122ad8585612e51565b60405190815260200160405180910390a350505080806122cc90612c48565b915050611e89565b5050565b6000611b5a83670de0b6b3a76400008461265c565b60006040517fa9059cbb000000000000000000000000000000000000000000000000000000008152836004820152826024820152602060006044836000895af13d15601f3d1160016000511416171691505080611d31576040517f08c379a000000000000000000000000000000000000000000000000000000000815260206004820152600f60248201527f5452414e534645525f4641494c45440000000000000000000000000000000000604482015260640161090e565b3360009081526008602052604090205460ff1661241f576040517f08c379a000000000000000000000000000000000000000000000000000000000815260206004820152600960248201527f554e545255535445440000000000000000000000000000000000000000000000604482015260640161090e565b61242883611e86565b811561255357801561248b5781600960008282546124469190612e68565b909155505073ffffffffffffffffffffffffffffffffffffffff83166000908152600a602052604081208054849290612480908490612e68565b909155506125539050565b73ffffffffffffffffffffffffffffffffffffffff83166000908152600b602052604090205480156124f957808310156124c95760009290036124d0565b9091039060005b73ffffffffffffffffffffffffffffffffffffffff84166000908152600b602052604090208190555b82156125515782600960008282546125119190612e51565b909155505073ffffffffffffffffffffffffffffffffffffffff84166000908152600a60205260408120805485929061254b908490612e51565b90915550505b505b60005b600d54811015611d31576125cf600e6000600d848154811061257a5761257a612e22565b600091825260208083209091015473ffffffffffffffffffffffffffffffffffffffff90811684528382019490945260409283018220549389168252600a90522054906b033b2e3c9fd0803ce800000061267b565b600e6000600d84815481106125e6576125e6612e22565b600091825260208083209091015473ffffffffffffffffffffffffffffffffffffffff90811684528382019490945260409283018220938916825260029093019092529020558061263681612c48565b915050612556565b600061264b84838561265c565b949350505050565b600061264b8484845b82820281151584158583048514171661267457600080fd5b0492915050565b600061264b84848482820281151584158583048514171661269b57600080fd5b6001826001830304018115150290509392505050565b82805482825590600052602060002090810192821561272b579160200282015b8281111561272b57825182547fffffffffffffffffffffffff00000000000000000000000000000000000000001673ffffffffffffffffffffffffffffffffffffffff9091161782556020909201916001909101906126d1565b5061273792915061273b565b5090565b5b80821115612737576000815560010161273c565b600060208083528351808285015260005b8181101561277d57858101830151858201604001528201612761565b8181111561278f576000604083870101525b50601f017fffffffffffffffffffffffffffffffffffffffffffffffffffffffffffffffe016929092016040019392505050565b73ffffffffffffffffffffffffffffffffffffffff811681146127e557600080fd5b50565b80356127f3816127c3565b919050565b6000806040838503121561280b57600080fd5b8235612816816127c3565b946020939093013593505050565b80151581146127e557600080fd5b6000806040838503121561284557600080fd5b8235612850816127c3565b9150602083013561286081612824565b809150509250929050565b6000806000806080858703121561288157600080fd5b5050823594602084013594506040840135936060013592509050565b7f4e487b7100000000000000000000000000000000000000000000000000000000600052604160045260246000fd5b600060208083850312156128df57600080fd5b823567ffffffffffffffff808211156128f757600080fd5b818501915085601f83011261290b57600080fd5b81358181111561291d5761291d61289d565b8060051b6040517fffffffffffffffffffffffffffffffffffffffffffffffffffffffffffffffe0603f830116810181811085821117156129605761296061289d565b60405291825284820192508381018501918883111561297e57600080fd5b938501935b828510156129a357612994856127e8565b84529385019392850192612983565b98975050505050505050565b6000602082840312156129c157600080fd5b8135611b5a816127c3565b6000602082840312156129de57600080fd5b5035919050565b600080604083850312156129f857600080fd5b50508035926020909101359150565b60008083601f840112612a1957600080fd5b50813567ffffffffffffffff811115612a3157600080fd5b6020830191508360208260051b8501011115612a4c57600080fd5b9250929050565b60008060008060408587031215612a6957600080fd5b843567ffffffffffffffff80821115612a8157600080fd5b612a8d88838901612a07565b90965094506020870135915080821115612aa657600080fd5b50612ab387828801612a07565b95989497509550505050565b600080600080600060808688031215612ad757600080fd5b8535612ae2816127c3565b94506020860135612af2816127c3565b935060408601359250606086013567ffffffffffffffff80821115612b1657600080fd5b818801915088601f830112612b2a57600080fd5b813581811115612b3957600080fd5b896020828501011115612b4b57600080fd5b9699959850939650602001949392505050565b600080600060608486031215612b7357600080fd5b8335612b7e816127c3565b9250602084013591506040840135612b9581612824565b809150509250925092565b60008060408385031215612bb357600080fd5b823591506020830135612860816127c3565b600181811c90821680612bd957607f821691505b60208210811415612c13577f4e487b7100000000000000000000000000000000000000000000000000000000600052602260045260246000fd5b50919050565b7f4e487b7100000000000000000000000000000000000000000000000000000000600052601160045260246000fd5b60007fffffffffffffffffffffffffffffffffffffffffffffffffffffffffffffffff821415612c7a57612c7a612c19565b5060010190565b60008183548391508460005260208060002060005b83811015612cc857815473ffffffffffffffffffffffffffffffffffffffff1685529382019360019182019101612c96565b50929695505050505050565b600060208284031215612ce657600080fd5b5051919050565b6000817fffffffffffffffffffffffffffffffffffffffffffffffffffffffffffffffff0483118215151615612d2557612d25612c19565b500290565b600060208284031215612d3c57600080fd5b8151611b5a81612824565b80516127f3816127c3565b60008060008060008060008060006101208a8c031215612d7157600080fd5b8951612d7c816127c3565b60208b015190995065ffffffffffff81168114612d9857600080fd5b60408b0151909850612da9816127c3565b60608b01519097506bffffffffffffffffffffffff81168114612dcb57600080fd5b9550612dd960808b01612d47565b945060a08a0151935060c08a0151925060e08a015191506101008a015190509295985092959850929598565b600060208284031215612e1757600080fd5b8151611b5a816127c3565b7f4e487b7100000000000000000000000000000000000000000000000000000000600052603260045260246000fd5b600082821015612e6357612e63612c19565b500390565b60008219821115612e7b57612e7b612c19565b500190565b600073ffffffffffffffffffffffffffffffffffffffff808916835280881660208401525085604083015284606083015260a060808301528260a0830152828460c0840137600060c0848401015260c07fffffffffffffffffffffffffffffffffffffffffffffffffffffffffffffffe0601f8501168301019050979650505050505050565b60008060408385031215612f1957600080fd5b8251612f24816127c3565b6020840151909250612860816127c356fea26469706673582212202258a1a210a06d3f664199b91828b2976f67b865741fa21d3f5c75d49159948164736f6c634300080b0033a2646970667358221220365d39c49ca26c6acf9a427a78b07264e08f00b87fd5141380f31fc16cbf784264736f6c634300080b0033",
  "devdoc": {
    "kind": "dev",
    "methods": {
      "setRewardTokens(address[],address[])": {
        "params": {
          "_adapters": "array of adapters to update the rewards tokens on",
          "_rewardTokens": "array of rewards tokens addresses"
        }
      }
    },
    "version": 1
  },
  "userdoc": {
    "events": {
      "AdapterAdded(address,address)": {
        "notice": "Logs the deployment of the adapter"
      }
    },
    "kind": "user",
    "methods": {
      "DEFAULT_LEVEL()": {
        "notice": "Sets level to `31` by default, which keeps all Divider lifecycle methods public (`issue`, `combine`, `collect`, etc), but not the `onRedeem` hook."
      },
      "adapters(address)": {
        "notice": "target -> adapter"
      },
      "divider()": {
        "notice": "Sense core Divider address"
      },
      "factoryParams()": {
        "notice": "params for adapters deployed with this factory"
      },
      "setRewardTokens(address[],address[])": {
        "notice": "Replace existing reward tokens array with a new one and update adapters passed"
      }
    },
    "version": 1
  },
  "storageLayout": {
    "storage": [
      {
        "astId": 17157,
        "contract": "@sense-finance/v1-core/src/tests/test-helpers/mocks/MockFactory.sol:Mock4626CropsFactory",
        "label": "isTrusted",
        "offset": 0,
        "slot": "0",
        "type": "t_mapping(t_address,t_bool)"
      },
      {
        "astId": 8964,
        "contract": "@sense-finance/v1-core/src/tests/test-helpers/mocks/MockFactory.sol:Mock4626CropsFactory",
        "label": "adapters",
        "offset": 0,
        "slot": "1",
        "type": "t_mapping(t_address,t_address)"
      },
      {
        "astId": 8968,
        "contract": "@sense-finance/v1-core/src/tests/test-helpers/mocks/MockFactory.sol:Mock4626CropsFactory",
        "label": "factoryParams",
        "offset": 0,
        "slot": "2",
        "type": "t_struct(FactoryParams)8985_storage"
      },
      {
        "astId": 14368,
        "contract": "@sense-finance/v1-core/src/tests/test-helpers/mocks/MockFactory.sol:Mock4626CropsFactory",
        "label": "targets",
        "offset": 0,
        "slot": "8",
        "type": "t_mapping(t_address,t_bool)"
      },
      {
        "astId": 14371,
        "contract": "@sense-finance/v1-core/src/tests/test-helpers/mocks/MockFactory.sol:Mock4626CropsFactory",
        "label": "rewardTokens",
        "offset": 0,
        "slot": "9",
        "type": "t_array(t_address)dyn_storage"
      }
    ],
    "types": {
      "t_address": {
        "encoding": "inplace",
        "label": "address",
        "numberOfBytes": "20"
      },
      "t_array(t_address)dyn_storage": {
        "base": "t_address",
        "encoding": "dynamic_array",
        "label": "address[]",
        "numberOfBytes": "32"
      },
      "t_bool": {
        "encoding": "inplace",
        "label": "bool",
        "numberOfBytes": "1"
      },
      "t_mapping(t_address,t_address)": {
        "encoding": "mapping",
        "key": "t_address",
        "label": "mapping(address => address)",
        "numberOfBytes": "32",
        "value": "t_address"
      },
      "t_mapping(t_address,t_bool)": {
        "encoding": "mapping",
        "key": "t_address",
        "label": "mapping(address => bool)",
        "numberOfBytes": "32",
        "value": "t_bool"
      },
      "t_struct(FactoryParams)8985_storage": {
        "encoding": "inplace",
        "label": "struct BaseFactory.FactoryParams",
        "members": [
          {
            "astId": 8970,
            "contract": "@sense-finance/v1-core/src/tests/test-helpers/mocks/MockFactory.sol:Mock4626CropsFactory",
            "label": "oracle",
            "offset": 0,
            "slot": "0",
            "type": "t_address"
          },
          {
            "astId": 8972,
            "contract": "@sense-finance/v1-core/src/tests/test-helpers/mocks/MockFactory.sol:Mock4626CropsFactory",
            "label": "stake",
            "offset": 0,
            "slot": "1",
            "type": "t_address"
          },
          {
            "astId": 8974,
            "contract": "@sense-finance/v1-core/src/tests/test-helpers/mocks/MockFactory.sol:Mock4626CropsFactory",
            "label": "stakeSize",
            "offset": 0,
            "slot": "2",
            "type": "t_uint256"
          },
          {
            "astId": 8976,
            "contract": "@sense-finance/v1-core/src/tests/test-helpers/mocks/MockFactory.sol:Mock4626CropsFactory",
            "label": "minm",
            "offset": 0,
            "slot": "3",
            "type": "t_uint256"
          },
          {
            "astId": 8978,
            "contract": "@sense-finance/v1-core/src/tests/test-helpers/mocks/MockFactory.sol:Mock4626CropsFactory",
            "label": "maxm",
            "offset": 0,
            "slot": "4",
            "type": "t_uint256"
          },
          {
            "astId": 8980,
            "contract": "@sense-finance/v1-core/src/tests/test-helpers/mocks/MockFactory.sol:Mock4626CropsFactory",
            "label": "ifee",
            "offset": 0,
            "slot": "5",
            "type": "t_uint128"
          },
          {
            "astId": 8982,
            "contract": "@sense-finance/v1-core/src/tests/test-helpers/mocks/MockFactory.sol:Mock4626CropsFactory",
            "label": "mode",
            "offset": 16,
            "slot": "5",
            "type": "t_uint16"
          },
          {
            "astId": 8984,
            "contract": "@sense-finance/v1-core/src/tests/test-helpers/mocks/MockFactory.sol:Mock4626CropsFactory",
            "label": "tilt",
            "offset": 18,
            "slot": "5",
            "type": "t_uint64"
          }
        ],
        "numberOfBytes": "192"
      },
      "t_uint128": {
        "encoding": "inplace",
        "label": "uint128",
        "numberOfBytes": "16"
      },
      "t_uint16": {
        "encoding": "inplace",
        "label": "uint16",
        "numberOfBytes": "2"
      },
      "t_uint256": {
        "encoding": "inplace",
        "label": "uint256",
        "numberOfBytes": "32"
      },
      "t_uint64": {
        "encoding": "inplace",
        "label": "uint64",
        "numberOfBytes": "8"
      }
    }
  }
}