{
  "address": "0xC1Af18Ef3EB81955C392f9346Dd36C4636BFdd1E",
  "abi": [
    {
      "inputs": [
        {
          "internalType": "address",
          "name": "_divider",
          "type": "address"
        },
        {
          "internalType": "address",
          "name": "_target",
          "type": "address"
        },
        {
          "internalType": "address",
          "name": "_underlying",
          "type": "address"
        },
        {
          "internalType": "uint128",
          "name": "_ifee",
          "type": "uint128"
        },
        {
          "components": [
            {
              "internalType": "address",
              "name": "oracle",
              "type": "address"
            },
            {
              "internalType": "address",
              "name": "stake",
              "type": "address"
            },
            {
              "internalType": "uint256",
              "name": "stakeSize",
              "type": "uint256"
            },
            {
              "internalType": "uint256",
              "name": "minm",
              "type": "uint256"
            },
            {
              "internalType": "uint256",
              "name": "maxm",
              "type": "uint256"
            },
            {
              "internalType": "uint64",
              "name": "tilt",
              "type": "uint64"
            },
            {
              "internalType": "uint48",
              "name": "level",
              "type": "uint48"
            },
            {
              "internalType": "uint16",
              "name": "mode",
              "type": "uint16"
            }
          ],
          "internalType": "struct BaseAdapter.AdapterParams",
          "name": "_adapterParams",
          "type": "tuple"
        },
        {
          "internalType": "address[]",
          "name": "_rewardTokens",
          "type": "address[]"
        }
      ],
      "stateMutability": "nonpayable",
      "type": "constructor"
    },
    {
      "inputs": [],
      "name": "FlashCallbackFailed",
      "type": "error"
    },
    {
      "inputs": [],
      "name": "OnlyPeriphery",
      "type": "error"
    },
    {
      "inputs": [],
      "name": "TokenNotSupported",
      "type": "error"
    },
    {
      "anonymous": false,
      "inputs": [
        {
          "indexed": true,
          "internalType": "address",
          "name": "usr",
          "type": "address"
        },
        {
          "indexed": true,
          "internalType": "address",
          "name": "token",
          "type": "address"
        },
        {
          "indexed": false,
          "internalType": "uint256",
          "name": "amount",
          "type": "uint256"
        }
      ],
      "name": "Distributed",
      "type": "event"
    },
    {
      "anonymous": false,
      "inputs": [
        {
          "indexed": true,
          "internalType": "address",
          "name": "usr",
          "type": "address"
        },
        {
          "indexed": false,
          "internalType": "uint256",
          "name": "tBal",
          "type": "uint256"
        },
        {
          "indexed": false,
          "internalType": "uint256",
          "name": "maturity",
          "type": "uint256"
        }
      ],
      "name": "Reconciled",
      "type": "event"
    },
    {
      "anonymous": false,
      "inputs": [
        {
          "indexed": true,
          "internalType": "address[]",
          "name": "rewardTokens",
          "type": "address[]"
        }
      ],
      "name": "RewardTokensChanged",
      "type": "event"
    },
    {
      "anonymous": false,
      "inputs": [
        {
          "indexed": true,
          "internalType": "address",
          "name": "user",
          "type": "address"
        },
        {
          "indexed": false,
          "internalType": "bool",
          "name": "trusted",
          "type": "bool"
        }
      ],
      "name": "UserTrustUpdated",
      "type": "event"
    },
    {
      "inputs": [],
      "name": "CALLBACK_SUCCESS",
      "outputs": [
        {
          "internalType": "bytes32",
          "name": "",
          "type": "bytes32"
        }
      ],
      "stateMutability": "view",
      "type": "function"
    },
    {
      "inputs": [],
      "name": "INITIAL_VALUE",
      "outputs": [
        {
          "internalType": "uint256",
          "name": "",
          "type": "uint256"
        }
      ],
      "stateMutability": "view",
      "type": "function"
    },
    {
      "inputs": [],
      "name": "adapterParams",
      "outputs": [
        {
          "internalType": "address",
          "name": "oracle",
          "type": "address"
        },
        {
          "internalType": "address",
          "name": "stake",
          "type": "address"
        },
        {
          "internalType": "uint256",
          "name": "stakeSize",
          "type": "uint256"
        },
        {
          "internalType": "uint256",
          "name": "minm",
          "type": "uint256"
        },
        {
          "internalType": "uint256",
          "name": "maxm",
          "type": "uint256"
        },
        {
          "internalType": "uint64",
          "name": "tilt",
          "type": "uint64"
        },
        {
          "internalType": "uint48",
          "name": "level",
          "type": "uint48"
        },
        {
          "internalType": "uint16",
          "name": "mode",
          "type": "uint16"
        }
      ],
      "stateMutability": "view",
      "type": "function"
    },
    {
      "inputs": [
        {
          "internalType": "address",
          "name": "",
          "type": "address"
        }
      ],
      "name": "data",
      "outputs": [
        {
          "internalType": "uint256",
          "name": "shares",
          "type": "uint256"
        },
        {
          "internalType": "uint256",
          "name": "rewardedBalances",
          "type": "uint256"
        }
      ],
      "stateMutability": "view",
      "type": "function"
    },
    {
      "inputs": [],
      "name": "divider",
      "outputs": [
        {
          "internalType": "address",
          "name": "",
          "type": "address"
        }
      ],
      "stateMutability": "view",
      "type": "function"
    },
    {
      "inputs": [
        {
          "internalType": "uint256",
          "name": "maturity",
          "type": "uint256"
        },
        {
          "internalType": "uint256",
          "name": "uBal",
          "type": "uint256"
        }
      ],
      "name": "doCombine",
      "outputs": [
        {
          "internalType": "uint256",
          "name": "tBal",
          "type": "uint256"
        }
      ],
      "stateMutability": "nonpayable",
      "type": "function"
    },
    {
      "inputs": [
        {
          "internalType": "uint256",
          "name": "maturity",
          "type": "uint256"
        },
        {
          "internalType": "address",
          "name": "sponsor",
          "type": "address"
        }
      ],
      "name": "doInitSeries",
      "outputs": [],
      "stateMutability": "nonpayable",
      "type": "function"
    },
    {
      "inputs": [
        {
          "internalType": "uint256",
          "name": "maturity",
          "type": "uint256"
        },
        {
          "internalType": "uint256",
          "name": "tBal",
          "type": "uint256"
        }
      ],
      "name": "doIssue",
      "outputs": [],
      "stateMutability": "nonpayable",
      "type": "function"
    },
    {
      "inputs": [
        {
          "internalType": "address",
          "name": "token",
          "type": "address"
        },
        {
          "internalType": "uint256",
          "name": "",
          "type": "uint256"
        }
      ],
      "name": "flashFee",
      "outputs": [
        {
          "internalType": "uint256",
          "name": "",
          "type": "uint256"
        }
      ],
      "stateMutability": "view",
      "type": "function"
    },
    {
      "inputs": [
        {
          "internalType": "contract IERC3156FlashBorrower",
          "name": "receiver",
          "type": "address"
        },
        {
          "internalType": "address",
          "name": "",
          "type": "address"
        },
        {
          "internalType": "uint256",
          "name": "amount",
          "type": "uint256"
        },
        {
          "internalType": "bytes",
          "name": "data",
          "type": "bytes"
        }
      ],
      "name": "flashLoan",
      "outputs": [
        {
          "internalType": "bool",
          "name": "",
          "type": "bool"
        }
      ],
      "stateMutability": "nonpayable",
      "type": "function"
    },
    {
      "inputs": [],
      "name": "getMaturityBounds",
      "outputs": [
        {
          "internalType": "uint256",
          "name": "",
          "type": "uint256"
        },
        {
          "internalType": "uint256",
          "name": "",
          "type": "uint256"
        }
      ],
      "stateMutability": "view",
      "type": "function"
    },
    {
      "inputs": [],
      "name": "getStakeAndTarget",
      "outputs": [
        {
          "internalType": "address",
          "name": "",
          "type": "address"
        },
        {
          "internalType": "address",
          "name": "",
          "type": "address"
        },
        {
          "internalType": "uint256",
          "name": "",
          "type": "uint256"
        }
      ],
      "stateMutability": "view",
      "type": "function"
    },
    {
      "inputs": [],
      "name": "getUnderlyingPrice",
      "outputs": [
        {
          "internalType": "uint256",
          "name": "",
          "type": "uint256"
        }
      ],
      "stateMutability": "view",
      "type": "function"
    },
    {
      "inputs": [],
      "name": "ifee",
      "outputs": [
        {
          "internalType": "uint128",
          "name": "",
          "type": "uint128"
        }
      ],
      "stateMutability": "view",
      "type": "function"
    },
    {
      "inputs": [
        {
          "internalType": "address",
          "name": "",
          "type": "address"
        }
      ],
      "name": "isTrusted",
      "outputs": [
        {
          "internalType": "bool",
          "name": "",
          "type": "bool"
        }
      ],
      "stateMutability": "view",
      "type": "function"
    },
    {
      "inputs": [],
      "name": "level",
      "outputs": [
        {
          "internalType": "uint256",
          "name": "",
          "type": "uint256"
        }
      ],
      "stateMutability": "view",
      "type": "function"
    },
    {
      "inputs": [],
      "name": "lscale",
      "outputs": [
        {
          "internalType": "uint256",
          "name": "timestamp",
          "type": "uint256"
        },
        {
          "internalType": "uint256",
          "name": "value",
          "type": "uint256"
        }
      ],
      "stateMutability": "view",
      "type": "function"
    },
    {
      "inputs": [
        {
          "internalType": "address",
          "name": "token",
          "type": "address"
        }
      ],
      "name": "maxFlashLoan",
      "outputs": [
        {
          "internalType": "uint256",
          "name": "",
          "type": "uint256"
        }
      ],
      "stateMutability": "view",
      "type": "function"
    },
    {
      "inputs": [],
      "name": "mode",
      "outputs": [
        {
          "internalType": "uint256",
          "name": "",
          "type": "uint256"
        }
      ],
      "stateMutability": "view",
      "type": "function"
    },
    {
      "inputs": [],
      "name": "name",
      "outputs": [
        {
          "internalType": "string",
          "name": "",
          "type": "string"
        }
      ],
      "stateMutability": "view",
      "type": "function"
    },
    {
      "inputs": [
        {
          "internalType": "address",
          "name": "_usr",
          "type": "address"
        },
        {
          "internalType": "uint256",
          "name": "amt",
          "type": "uint256"
        },
        {
          "internalType": "bool",
          "name": "join",
          "type": "bool"
        }
      ],
      "name": "notify",
      "outputs": [],
      "stateMutability": "nonpayable",
      "type": "function"
    },
    {
      "inputs": [
        {
          "internalType": "uint256",
          "name": "",
          "type": "uint256"
        },
        {
          "internalType": "uint256",
          "name": "",
          "type": "uint256"
        },
        {
          "internalType": "uint256",
          "name": "",
          "type": "uint256"
        },
        {
          "internalType": "uint256",
          "name": "",
          "type": "uint256"
        }
      ],
      "name": "onRedeem",
      "outputs": [],
      "stateMutability": "nonpayable",
      "type": "function"
    },
    {
      "inputs": [],
      "name": "onRedeemCalls",
      "outputs": [
        {
          "internalType": "uint256",
          "name": "",
          "type": "uint256"
        }
      ],
      "stateMutability": "view",
      "type": "function"
    },
    {
      "inputs": [
        {
          "internalType": "address[]",
          "name": "_usrs",
          "type": "address[]"
        },
        {
          "internalType": "uint256[]",
          "name": "_maturities",
          "type": "uint256[]"
        }
      ],
      "name": "reconcile",
      "outputs": [],
      "stateMutability": "nonpayable",
      "type": "function"
    },
    {
      "inputs": [
        {
          "internalType": "address",
          "name": "",
          "type": "address"
        },
        {
          "internalType": "uint256",
          "name": "",
          "type": "uint256"
        }
      ],
      "name": "reconciled",
      "outputs": [
        {
          "internalType": "bool",
          "name": "",
          "type": "bool"
        }
      ],
      "stateMutability": "view",
      "type": "function"
    },
    {
      "inputs": [
        {
          "internalType": "address",
          "name": "",
          "type": "address"
        }
      ],
      "name": "reconciledAmt",
      "outputs": [
        {
          "internalType": "uint256",
          "name": "",
          "type": "uint256"
        }
      ],
      "stateMutability": "view",
      "type": "function"
    },
    {
      "inputs": [
        {
          "internalType": "uint256",
          "name": "",
          "type": "uint256"
        }
      ],
      "name": "rewardTokens",
      "outputs": [
        {
          "internalType": "address",
          "name": "",
          "type": "address"
        }
      ],
      "stateMutability": "view",
      "type": "function"
    },
    {
      "inputs": [],
      "name": "scale",
      "outputs": [
        {
          "internalType": "uint256",
          "name": "_scale",
          "type": "uint256"
        }
      ],
      "stateMutability": "nonpayable",
      "type": "function"
    },
    {
      "inputs": [],
      "name": "scaleStored",
      "outputs": [
        {
          "internalType": "uint256",
          "name": "",
          "type": "uint256"
        }
      ],
      "stateMutability": "view",
      "type": "function"
    },
    {
      "inputs": [],
      "name": "scalingFactor",
      "outputs": [
        {
          "internalType": "uint256",
          "name": "",
          "type": "uint256"
        }
      ],
      "stateMutability": "view",
      "type": "function"
    },
    {
      "inputs": [
        {
          "internalType": "address",
          "name": "user",
          "type": "address"
        },
        {
          "internalType": "bool",
          "name": "trusted",
          "type": "bool"
        }
      ],
      "name": "setIsTrusted",
      "outputs": [],
      "stateMutability": "nonpayable",
      "type": "function"
    },
    {
      "inputs": [
        {
          "internalType": "address[]",
          "name": "_rewardTokens",
          "type": "address[]"
        }
      ],
      "name": "setRewardTokens",
      "outputs": [],
      "stateMutability": "nonpayable",
      "type": "function"
    },
    {
      "inputs": [
        {
          "internalType": "uint256",
          "name": "_scaleOverride",
          "type": "uint256"
        }
      ],
      "name": "setScale",
      "outputs": [],
      "stateMutability": "nonpayable",
      "type": "function"
    },
    {
      "inputs": [],
      "name": "symbol",
      "outputs": [
        {
          "internalType": "string",
          "name": "",
          "type": "string"
        }
      ],
      "stateMutability": "view",
      "type": "function"
    },
    {
      "inputs": [
        {
          "internalType": "address",
          "name": "",
          "type": "address"
        }
      ],
      "name": "tBalance",
      "outputs": [
        {
          "internalType": "uint256",
          "name": "",
          "type": "uint256"
        }
      ],
      "stateMutability": "view",
      "type": "function"
    },
    {
      "inputs": [],
      "name": "target",
      "outputs": [
        {
          "internalType": "address",
          "name": "",
          "type": "address"
        }
      ],
      "stateMutability": "view",
      "type": "function"
    },
    {
      "inputs": [],
      "name": "tilt",
      "outputs": [
        {
          "internalType": "uint256",
          "name": "",
          "type": "uint256"
        }
      ],
      "stateMutability": "view",
      "type": "function"
    },
    {
      "inputs": [],
      "name": "totalTarget",
      "outputs": [
        {
          "internalType": "uint256",
          "name": "",
          "type": "uint256"
        }
      ],
      "stateMutability": "view",
      "type": "function"
    },
    {
      "inputs": [],
      "name": "underlying",
      "outputs": [
        {
          "internalType": "address",
          "name": "",
          "type": "address"
        }
      ],
      "stateMutability": "view",
      "type": "function"
    },
    {
      "inputs": [
        {
          "internalType": "uint256",
          "name": "tBal",
          "type": "uint256"
        }
      ],
      "name": "unwrapTarget",
      "outputs": [
        {
          "internalType": "uint256",
          "name": "",
          "type": "uint256"
        }
      ],
      "stateMutability": "nonpayable",
      "type": "function"
    },
    {
      "inputs": [
        {
          "internalType": "uint256",
          "name": "uBal",
          "type": "uint256"
        }
      ],
      "name": "wrapUnderlying",
      "outputs": [
        {
          "internalType": "uint256",
          "name": "",
          "type": "uint256"
        }
      ],
      "stateMutability": "nonpayable",
      "type": "function"
    }
  ],
  "transactionHash": "0x57334a8b95e6bcc395beeb28ceca1314a818c4a8701d2223f80b36a4cbbf8350",
  "args": [
    "0xa1514E3bA51C59d4E76956409143aE9734883Fd5",
    "0xB98918bD558171Ac33711eF55F2b27eA9534FFAE",
    "0x5572630ff93De6c1EA18Eb3D0d4a912D0BE1722c",
    "10000000000000000",
    {
      "oracle": "0x0000000000000000000000000000000000000000",
      "stake": "0xAEfcd438e64501D5a79a13d856DA5c4638EECC48",
      "stakeSize": "10000000000000000",
      "minm": "0",
      "maxm": "4838400",
      "mode": 1,
      "tilt": 0,
      "level": 31,
      "rewardTokens": [
        "0x34AccF02eED08893697b9c212aDBF7a53FE173Fe"
      ]
    },
    [
      "0x34AccF02eED08893697b9c212aDBF7a53FE173Fe"
    ]
  ],
  "numDeployments": 1,
  "solcInputHash": "e6e4c9ea960c200f06b8bf15d2380dca",
  "bytecode": "0x610100604052670de0b6b3a764000060105564b89345ad6a6011553480156200002757600080fd5b5060405162003f8a38038062003f8a8339810160408190526200004a9162000803565b6001600160a01b03808716608090815281871660a081815283881660c09081526001600160801b03881660e09081528751600080549188166001600160a01b031992831617815560208a0151600180549190991692169190911790965560408089015160025560608901516003559488015160049081559288015160058054938a0151928a015161ffff16600160701b0261ffff60701b1965ffffffffffff90941668010000000000000000026001600160701b03199095166001600160401b0390931692909217939093179190911617905582516306fdde0360e01b815292518a948694339487948d948d948d948d94936306fdde039382820193929091908290030181865afa15801562000164573d6000803e3d6000fd5b505050506040513d6000823e601f3d908101601f191682016040526200018e91908101906200097c565b604051602001620001a0919062000a1a565b60405160208183030381529060405260069080519060200190620001c6929190620005b8565b50836001600160a01b03166395d89b416040518163ffffffff1660e01b8152600401600060405180830381865afa15801562000206573d6000803e3d6000fd5b505050506040513d6000823e601f3d908101601f191682016040526200023091908101906200097c565b60405160200162000242919062000a48565b6040516020818303038152906040526007908051906020019062000268929190620005b8565b5060805160405163095ea7b360e01b81526001600160a01b03918216600482015260001960248201529085169063095ea7b3906044016020604051808303816000875af1158015620002be573d6000803e3d6000fd5b505050506040513d601f19601f82011682018060405250810190620002e4919062000a76565b50602081015160805160405163095ea7b360e01b81526001600160a01b039182166004820152600019602482015291169063095ea7b3906044016020604051808303816000875af11580156200033e573d6000803e3d6000fd5b505050506040513d601f19601f8201168201806040525081019062000364919062000a76565b505050506001600160a01b038316600081815260086020908152604091829020805460ff1916600190811790915591519182529193507fe95aec380cae16330d146d5499ef7db6f3657e477104a733e771bc09e500d98692500160405180910390a250620003d482600162000509565b8051620003e990600d90602084019062000647565b5050506000856001600160a01b031663313ce5676040518163ffffffff1660e01b8152600401602060405180830381865afa1580156200042d573d6000803e3d6000fd5b505050506040513d601f19601f8201168201806040525081019062000453919062000aa1565b60ff1690506000856001600160a01b031663313ce5676040518163ffffffff1660e01b8152600401602060405180830381865afa15801562000499573d6000803e3d6000fd5b505050506040513d601f19601f82011682018060405250810190620004bf919062000aa1565b60ff169050808211620004de57620004d8828262000adc565b620004ea565b620004ea818362000adc565b620004f790600a62000bf5565b6013555062000c409650505050505050565b3360009081526008602052604090205460ff16620005595760405162461bcd60e51b8152602060048201526009602482015268155395149554d5115160ba1b604482015260640160405180910390fd5b6001600160a01b038216600081815260086020908152604091829020805460ff191685151590811790915591519182527fe95aec380cae16330d146d5499ef7db6f3657e477104a733e771bc09e500d986910160405180910390a25050565b828054620005c69062000c03565b90600052602060002090601f016020900481019282620005ea576000855562000635565b82601f106200060557805160ff191683800117855562000635565b8280016001018555821562000635579182015b828111156200063557825182559160200191906001019062000618565b50620006439291506200069f565b5090565b82805482825590600052602060002090810192821562000635579160200282015b828111156200063557825182546001600160a01b0319166001600160a01b0390911617825560209092019160019091019062000668565b5b80821115620006435760008155600101620006a0565b80516001600160a01b0381168114620006ce57600080fd5b919050565b634e487b7160e01b600052604160045260246000fd5b60405161010081016001600160401b03811182821017156200070f576200070f620006d3565b60405290565b604051601f8201601f191681016001600160401b0381118282101715620007405762000740620006d3565b604052919050565b805165ffffffffffff81168114620006ce57600080fd5b805161ffff81168114620006ce57600080fd5b600082601f8301126200078457600080fd5b815160206001600160401b03821115620007a257620007a2620006d3565b8160051b620007b382820162000715565b9283528481018201928281019087851115620007ce57600080fd5b83870192505b84831015620007f857620007e883620006b6565b82529183019190830190620007d4565b979650505050505050565b6000806000806000808688036101a08112156200081f57600080fd5b6200082a88620006b6565b96506200083a60208901620006b6565b95506200084a60408901620006b6565b60608901519095506001600160801b03811681146200086857600080fd5b9350610100607f1982018113156200087f57600080fd5b62000889620006e9565b91506200089960808a01620006b6565b8252620008a960a08a01620006b6565b602083015260c0890151604083015260e0890151606083015288015160808201526101208801516001600160401b038082168214620008e757600080fd5b8160a0840152620008fc6101408b0162000748565b60c0840152620009106101608b016200075f565b60e08401526101808a0151929450808311156200092c57600080fd5b50506200093c89828a0162000772565b9150509295509295509295565b60005b83811015620009665781810151838201526020016200094c565b8381111562000976576000848401525b50505050565b6000602082840312156200098f57600080fd5b81516001600160401b0380821115620009a757600080fd5b818401915084601f830112620009bc57600080fd5b815181811115620009d157620009d1620006d3565b620009e6601f8201601f191660200162000715565b9150808252856020828501011115620009fe57600080fd5b62000a1181602084016020860162000949565b50949350505050565b6000825162000a2e81846020870162000949565b671020b230b83a32b960c11b920191825250600801919050565b6000825162000a5c81846020870162000949565b6716b0b230b83a32b960c11b920191825250600801919050565b60006020828403121562000a8957600080fd5b8151801515811462000a9a57600080fd5b9392505050565b60006020828403121562000ab457600080fd5b815160ff8116811462000a9a57600080fd5b634e487b7160e01b600052601160045260246000fd5b60008282101562000af15762000af162000ac6565b500390565b600181815b8085111562000b3757816000190482111562000b1b5762000b1b62000ac6565b8085161562000b2957918102915b93841c939080029062000afb565b509250929050565b60008262000b505750600162000bef565b8162000b5f5750600062000bef565b816001811462000b78576002811462000b835762000ba3565b600191505062000bef565b60ff84111562000b975762000b9762000ac6565b50506001821b62000bef565b5060208310610133831016604e8410600b841016171562000bc8575081810a62000bef565b62000bd4838362000af6565b806000190482111562000beb5762000beb62000ac6565b0290505b92915050565b600062000a9a838362000b3f565b600181811c9082168062000c1857607f821691505b6020821081141562000c3a57634e487b7160e01b600052602260045260246000fd5b50919050565b60805160a05160c05160e0516132b562000cd560003960006106df0152600061061b01526000818161047d0152818161079301528181610a8001528181610d66015281816110bb01528181611b5201528181611bc801528181611cb00152611f600152600081816104f60152818161117a0152818161124c01528181611a5e01528181611dbb0152611eea01526132b56000f3fe608060405234801561001057600080fd5b50600436106102d35760003560e01c806362e10b4e11610186578063b484972a116100e3578063d01c6f2911610097578063da4ca41311610071578063da4ca413146107c8578063ed3437f8146107d1578063f51e181a146107da57600080fd5b8063d01c6f291461076e578063d4b839921461078e578063d9d98ce4146107b557600080fd5b8063b90d3d0c116100c8578063b90d3d0c14610722578063c39a3b2914610749578063cc074d491461075b57600080fd5b8063b484972a146106c7578063b8c15a9f146106da57600080fd5b806375b2cda81161013a5780638237e5381161011f5780638237e5381461067557806395d89b411461069c57806396d64879146106a457600080fd5b806375b2cda8146106595780637bb7bed11461066257600080fd5b80636b0706ed1161016b5780636b0706ed146106085780636f307dc3146106165780636fd5ae151461063d57600080fd5b806362e10b4e146105d957806364c56e3c146105ec57600080fd5b8063378efa371161023457806353e0719e116101e85780635cffe9de116101cd5780635cffe9de146105aa5780635f677404146105bd578063613255ab146105c657600080fd5b806353e0719e14610584578063572acb9f1461059757600080fd5b8063468f02d211610219578063468f02d2146105505780634aae9fed1461055e57806351c39ea11461057157600080fd5b8063378efa37146104f15780633edc35191461053d57600080fd5b8063201e81a81161028b57806327b327d01161027057806327b327d01461045c578063295a5212146104b357806329a43608146104d157600080fd5b8063201e81a814610433578063226778491461044657600080fd5b80630e122423116102bc5780630e122423146103cd5780631393916a1461040b57806314282f581461042057600080fd5b806306fdde03146102d8578063083118d5146102f6575b600080fd5b6102e06107e2565b6040516102ed9190612a3c565b60405180910390f35b6000546001546002546003546004546005546103649573ffffffffffffffffffffffffffffffffffffffff90811695169392919067ffffffffffffffff81169068010000000000000000810465ffffffffffff16906e010000000000000000000000000000900461ffff1688565b6040805173ffffffffffffffffffffffffffffffffffffffff998a168152989097166020890152958701949094526060860192909252608085015267ffffffffffffffff1660a084015265ffffffffffff1660c083015261ffff1660e0820152610100016102ed565b6103fb6103db366004612ae4565b600c60209081526000928352604080842090915290825290205460ff1681565b60405190151581526020016102ed565b61041e610419366004612b1e565b610870565b005b61041e61042e366004612b57565b610978565b61041e610441366004612bb8565b610993565b61044e610a62565b6040519081526020016102ed565b6001546002546040805173ffffffffffffffffffffffffffffffffffffffff7f00000000000000000000000000000000000000000000000000000000000000008116825290931660208401528201526060016102ed565b6005546e010000000000000000000000000000900461ffff1661044e565b61044e6104df366004612c9b565b600a6020526000908152604090205481565b6105187f000000000000000000000000000000000000000000000000000000000000000081565b60405173ffffffffffffffffffffffffffffffffffffffff90911681526020016102ed565b61041e61054b366004612cb8565b600f55565b670de0b6b3a764000061044e565b61044e61056c366004612cb8565b610a7b565b61044e61057f366004612cb8565b610d61565b61041e610592366004612cd1565b611080565b61041e6105a5366004612d3f565b611525565b6103fb6105b8366004612dab565b611a43565b61044e60105481565b61044e6105d4366004612c9b565b611ce5565b61044e6105e7366004612cd1565b611d7c565b6003546004545b604080519283526020830191909152016102ed565b6014546015546105f3919082565b6105187f000000000000000000000000000000000000000000000000000000000000000081565b60055468010000000000000000900465ffffffffffff1661044e565b61044e60125481565b610518610670366004612cb8565b611e44565b61044e7f439148f0bbc682ca079e46d6e2c2f0c1e3b820f1a291b069d8882abf8cf18dd981565b6102e0611e7b565b6103fb6106b2366004612c9b565b60086020526000908152604090205460ff1681565b61041e6106d5366004612e4a565b611e88565b6107017f000000000000000000000000000000000000000000000000000000000000000081565b6040516fffffffffffffffffffffffffffffffff90911681526020016102ed565b6105f3610730366004612c9b565b600e602052600090815260409020805460019091015482565b60055467ffffffffffffffff1661044e565b61041e610769366004612e8c565b611e98565b61044e61077c366004612c9b565b600b6020526000908152604090205481565b6105187f000000000000000000000000000000000000000000000000000000000000000081565b61044e6107c3366004612ae4565b611f5c565b61044e60095481565b61044e60135481565b61044e611fec565b600680546107ef90612eb1565b80601f016020809104026020016040519081016040528092919081815260200182805461081b90612eb1565b80156108685780601f1061083d57610100808354040283529160200191610868565b820191906000526020600020905b81548152906001019060200180831161084b57829003601f168201915b505050505081565b3360009081526008602052604090205460ff166108ee576040517f08c379a000000000000000000000000000000000000000000000000000000000815260206004820152600960248201527f554e54525553544544000000000000000000000000000000000000000000000060448201526064015b60405180910390fd5b73ffffffffffffffffffffffffffffffffffffffff821660008181526008602090815260409182902080547fffffffffffffffffffffffffffffffffffffffffffffffffffffffffffffff001685151590811790915591519182527fe95aec380cae16330d146d5499ef7db6f3657e477104a733e771bc09e500d986910160405180910390a25050565b6012805490600061098883612f34565b919050555050505050565b3360009081526008602052604090205460ff16610a0c576040517f08c379a000000000000000000000000000000000000000000000000000000000815260206004820152600960248201527f554e54525553544544000000000000000000000000000000000000000000000060448201526064016108e5565b8051610a1f90600d90602084019061299d565b50600d604051610a2f9190612f6d565b604051908190038120907f45fae61b076570d71d045d3f03e5fa6b6401bebddde54161c7126c56a5ce7d6590600090a250565b60155460009015610a74575060155490565b5060105490565b6000807f0000000000000000000000000000000000000000000000000000000000000000905060008173ffffffffffffffffffffffffffffffffffffffff16636f307dc36040518163ffffffff1660e01b8152600401602060405180830381865afa158015610aee573d6000803e3d6000fd5b505050506040513d601f19601f82011682018060405250810190610b129190612fcb565b6040517f23b872dd0000000000000000000000000000000000000000000000000000000081523360048201523060248201526044810186905290915073ffffffffffffffffffffffffffffffffffffffff8216906323b872dd906064016020604051808303816000875af1158015610b8e573d6000803e3d6000fd5b505050506040513d601f19601f82011682018060405250810190610bb29190612fe8565b50601554600090610bc4908690612080565b90508273ffffffffffffffffffffffffffffffffffffffff1663313ce5676040518163ffffffff1660e01b8152600401602060405180830381865afa158015610c11573d6000803e3d6000fd5b505050506040513d601f19601f82011682018060405250810190610c359190613005565b60ff168273ffffffffffffffffffffffffffffffffffffffff1663313ce5676040518163ffffffff1660e01b8152600401602060405180830381865afa158015610c83573d6000803e3d6000fd5b505050506040513d601f19601f82011682018060405250810190610ca79190613005565b60ff1611610cc157601354610cbc9082613028565b610cce565b601354610cce9082613065565b6040517f40c10f190000000000000000000000000000000000000000000000000000000081523360048201526024810182905290915073ffffffffffffffffffffffffffffffffffffffff8416906340c10f19906044015b600060405180830381600087803b158015610d4057600080fd5b505af1158015610d54573d6000803e3d6000fd5b5092979650505050505050565b6000807f0000000000000000000000000000000000000000000000000000000000000000905060008173ffffffffffffffffffffffffffffffffffffffff16636f307dc36040518163ffffffff1660e01b8152600401602060405180830381865afa158015610dd4573d6000803e3d6000fd5b505050506040513d601f19601f82011682018060405250810190610df89190612fcb565b6040517f23b872dd0000000000000000000000000000000000000000000000000000000081523360048201523060248201526044810186905290915073ffffffffffffffffffffffffffffffffffffffff8316906323b872dd906064016020604051808303816000875af1158015610e74573d6000803e3d6000fd5b505050506040513d601f19601f82011682018060405250810190610e989190612fe8565b50601554600090610eaa908690612095565b90508273ffffffffffffffffffffffffffffffffffffffff1663313ce5676040518163ffffffff1660e01b8152600401602060405180830381865afa158015610ef7573d6000803e3d6000fd5b505050506040513d601f19601f82011682018060405250810190610f1b9190613005565b60ff168273ffffffffffffffffffffffffffffffffffffffff1663313ce5676040518163ffffffff1660e01b8152600401602060405180830381865afa158015610f69573d6000803e3d6000fd5b505050506040513d601f19601f82011682018060405250810190610f8d9190613005565b60ff1611610fa757601354610fa29082613065565b610fb4565b601354610fb49082613028565b90508273ffffffffffffffffffffffffffffffffffffffff16636f307dc36040518163ffffffff1660e01b8152600401602060405180830381865afa158015611001573d6000803e3d6000fd5b505050506040513d601f19601f820116820180604052508101906110259190612fcb565b6040517f40c10f190000000000000000000000000000000000000000000000000000000081523360048201526024810183905273ffffffffffffffffffffffffffffffffffffffff91909116906340c10f1990604401610d26565b6040517f23b872dd000000000000000000000000000000000000000000000000000000008152336004820152306024820152604481018290527f000000000000000000000000000000000000000000000000000000000000000073ffffffffffffffffffffffffffffffffffffffff16906323b872dd906064016020604051808303816000875af1158015611119573d6000803e3d6000fd5b505050506040513d601f19601f8201168201806040525081019061113d9190612fe8565b506040517fdfe5ef4800000000000000000000000000000000000000000000000000000000815230600482015260248101839052604481018290527f000000000000000000000000000000000000000000000000000000000000000073ffffffffffffffffffffffffffffffffffffffff169063dfe5ef48906064016020604051808303816000875af11580156111d8573d6000803e3d6000fd5b505050506040513d601f19601f820116820180604052508101906111fc91906130a0565b506040517f0891d30a00000000000000000000000000000000000000000000000000000000815230600482015260248101839052600090819073ffffffffffffffffffffffffffffffffffffffff7f00000000000000000000000000000000000000000000000000000000000000001690630891d30a9060440161012060405180830381865afa158015611294573d6000803e3d6000fd5b505050506040513d601f19601f820116820180604052508101906112b891906130b9565b50506040517f70a082310000000000000000000000000000000000000000000000000000000081523060048201529698509396505073ffffffffffffffffffffffffffffffffffffffff87169463a9059cbb94503393508592506370a082319150602401602060405180830381865afa158015611339573d6000803e3d6000fd5b505050506040513d601f19601f8201168201806040525081019061135d91906130a0565b6040517fffffffff0000000000000000000000000000000000000000000000000000000060e085901b16815273ffffffffffffffffffffffffffffffffffffffff909216600483015260248201526044016020604051808303816000875af11580156113cd573d6000803e3d6000fd5b505050506040513d601f19601f820116820180604052508101906113f19190612fe8565b506040517f70a0823100000000000000000000000000000000000000000000000000000000815230600482015273ffffffffffffffffffffffffffffffffffffffff82169063a9059cbb90339083906370a0823190602401602060405180830381865afa158015611466573d6000803e3d6000fd5b505050506040513d601f19601f8201168201806040525081019061148a91906130a0565b6040517fffffffff0000000000000000000000000000000000000000000000000000000060e085901b16815273ffffffffffffffffffffffffffffffffffffffff909216600483015260248201526044016020604051808303816000875af11580156114fa573d6000803e3d6000fd5b505050506040513d601f19601f8201168201806040525081019061151e9190612fe8565b5050505050565b60003073ffffffffffffffffffffffffffffffffffffffff1663378efa376040518163ffffffff1660e01b8152600401602060405180830381865afa158015611572573d6000803e3d6000fd5b505050506040513d601f19601f820116820180604052508101906115969190612fcb565b905060005b82811015611a3b5760005b85811015611a285760008787838181106115c2576115c261316c565b90506020020160208101906115d79190612c9b565b905060008473ffffffffffffffffffffffffffffffffffffffff1663574e77953089898881811061160a5761160a61316c565b6040517fffffffff0000000000000000000000000000000000000000000000000000000060e087901b16815273ffffffffffffffffffffffffffffffffffffffff90941660048501526020029190910135602483015250604401602060405180830381865afa158015611681573d6000803e3d6000fd5b505050506040513d601f19601f820116820180604052508101906116a59190612fcb565b6040517f70a0823100000000000000000000000000000000000000000000000000000000815273ffffffffffffffffffffffffffffffffffffffff848116600483015291909116906370a0823190602401602060405180830381865afa158015611713573d6000803e3d6000fd5b505050506040513d601f19601f8201168201806040525081019061173791906130a0565b90504287878681811061174c5761174c61316c565b90506020020135111580156117615750600081115b80156117bf575073ffffffffffffffffffffffffffffffffffffffff82166000908152600c60205260408120908888878181106117a0576117a061316c565b602090810292909201358352508101919091526040016000205460ff16155b15611a13576117cd826120aa565b60006118ad8673ffffffffffffffffffffffffffffffffffffffff16632f9cd854308b8b8a8181106118015761180161316c565b6040517fffffffff0000000000000000000000000000000000000000000000000000000060e087901b16815273ffffffffffffffffffffffffffffffffffffffff9485166004820152602090910292909201356024830152509087166044820152606401602060405180830381865afa158015611882573d6000803e3d6000fd5b505050506040513d601f19601f820116820180604052508101906118a691906130a0565b83906124fc565b905080600960008282546118c1919061319b565b909155505073ffffffffffffffffffffffffffffffffffffffff83166000908152600a6020526040812080548392906118fb90849061319b565b909155505073ffffffffffffffffffffffffffffffffffffffff83166000908152600b6020526040812080548392906119359084906131b2565b909155505073ffffffffffffffffffffffffffffffffffffffff83166000908152600c602052604081206001918a8a898181106119745761197461316c565b90506020020135815260200190815260200160002060006101000a81548160ff0219169083151502179055508273ffffffffffffffffffffffffffffffffffffffff167f5758e413a9bfd3ec45a67abaa9ee2396cab143a505332bf7ab48c0e624b65f11828a8a898181106119eb576119eb61316c565b90506020020135604051611a09929190918252602082015260400190565b60405180910390a2505b50508080611a2090612f34565b9150506115a6565b5080611a3381612f34565b91505061159b565b505050505050565b60003373ffffffffffffffffffffffffffffffffffffffff167f000000000000000000000000000000000000000000000000000000000000000073ffffffffffffffffffffffffffffffffffffffff166377aace1a6040518163ffffffff1660e01b8152600401602060405180830381865afa158015611ac7573d6000803e3d6000fd5b505050506040513d601f19601f82011682018060405250810190611aeb9190612fcb565b73ffffffffffffffffffffffffffffffffffffffff1614611b38576040517ffb02114900000000000000000000000000000000000000000000000000000000815260040160405180910390fd5b611b7973ffffffffffffffffffffffffffffffffffffffff7f0000000000000000000000000000000000000000000000000000000000000000168786612511565b6040517f23e30c8b00000000000000000000000000000000000000000000000000000000815260009073ffffffffffffffffffffffffffffffffffffffff8816906323e30c8b90611bf89033907f0000000000000000000000000000000000000000000000000000000000000000908a9087908b908b906004016131ca565b6020604051808303816000875af1158015611c17573d6000803e3d6000fd5b505050506040513d601f19601f82011682018060405250810190611c3b91906130a0565b90507f439148f0bbc682ca079e46d6e2c2f0c1e3b820f1a291b069d8882abf8cf18dd98114611c96576040517f207df21c00000000000000000000000000000000000000000000000000000000815260040160405180910390fd5b611cd873ffffffffffffffffffffffffffffffffffffffff7f0000000000000000000000000000000000000000000000000000000000000000168830886125ca565b5060019695505050505050565b6040517f70a0823100000000000000000000000000000000000000000000000000000000815230600482015260009073ffffffffffffffffffffffffffffffffffffffff8316906370a0823190602401602060405180830381865afa158015611d52573d6000803e3d6000fd5b505050506040513d601f19601f82011682018060405250810190611d7691906130a0565b92915050565b6040517fba89bebd00000000000000000000000000000000000000000000000000000000815230600482015260248101839052604481018290526000907f000000000000000000000000000000000000000000000000000000000000000073ffffffffffffffffffffffffffffffffffffffff169063ba89bebd906064016020604051808303816000875af1158015611e19573d6000803e3d6000fd5b505050506040513d601f19601f82011682018060405250810190611e3d91906130a0565b9392505050565b600d8181548110611e5457600080fd5b60009182526020909120015473ffffffffffffffffffffffffffffffffffffffff16905081565b600780546107ef90612eb1565b611e93838383612689565b505050565b6040517f3e3972ee0000000000000000000000000000000000000000000000000000000081523060048201526024810183905273ffffffffffffffffffffffffffffffffffffffff82811660448301527f00000000000000000000000000000000000000000000000000000000000000001690633e3972ee9060640160408051808303816000875af1158015611f32573d6000803e3d6000fd5b505050506040513d601f19601f82011682018060405250810190611f569190613250565b50505050565b60007f000000000000000000000000000000000000000000000000000000000000000073ffffffffffffffffffffffffffffffffffffffff168373ffffffffffffffffffffffffffffffffffffffff1614611fe3576040517f3dd1b30500000000000000000000000000000000000000000000000000000000815260040160405180910390fd5b50600092915050565b600f54600090156120075750600f5460158190554260145590565b60115460009061201f90670dbd2fc137a30000612095565b601454909150600090612032904261319b565b60155490915061204457601054612065565b60155461205b816120558486613028565b90612095565b61206591906131b2565b601554909350831461207b576015839055426014555b505090565b6000611e3d83670de0b6b3a764000084612921565b6000611e3d8383670de0b6b3a764000061294f565b60005b600d548110156124f8576000600e6000600d84815481106120d0576120d061316c565b600091825260208083209091015473ffffffffffffffffffffffffffffffffffffffff168352820192909252604001902060010154600d8054849081106121195761211961316c565b6000918252602090912001546040517f70a0823100000000000000000000000000000000000000000000000000000000815230600482015273ffffffffffffffffffffffffffffffffffffffff909116906370a0823190602401602060405180830381865afa158015612190573d6000803e3d6000fd5b505050506040513d601f19601f820116820180604052508101906121b491906130a0565b6121be919061319b565b60095490915015612242576009546121e49082906b033b2e3c9fd0803ce800000061296e565b600e6000600d85815481106121fb576121fb61316c565b600091825260208083209091015473ffffffffffffffffffffffffffffffffffffffff1683528201929092526040018120805490919061223c9084906131b2565b90915550505b6000600e6000600d858154811061225b5761225b61316c565b600091825260208083209091015473ffffffffffffffffffffffffffffffffffffffff9081168452838201949094526040928301822093881682526002909301909252812054600d805491935061231691600e918491889081106122c1576122c161316c565b600091825260208083209091015473ffffffffffffffffffffffffffffffffffffffff9081168452838201949094526040928301822054938a168252600a90522054906b033b2e3c9fd0803ce8000000612983565b9050818111156123635761236385838303600d878154811061233a5761233a61316c565b60009182526020909120015473ffffffffffffffffffffffffffffffffffffffff169190612511565b600d84815481106123765761237661316c565b6000918252602090912001546040517f70a0823100000000000000000000000000000000000000000000000000000000815230600482015273ffffffffffffffffffffffffffffffffffffffff909116906370a0823190602401602060405180830381865afa1580156123ed573d6000803e3d6000fd5b505050506040513d601f19601f8201168201806040525081019061241191906130a0565b600e6000600d87815481106124285761242861316c565b600091825260208083209091015473ffffffffffffffffffffffffffffffffffffffff168352820192909252604001902060010155600d8054859081106124715761247161316c565b60009182526020909120015473ffffffffffffffffffffffffffffffffffffffff9081169086167fad4a9acf26d8bba7a8cf1a41160d59be042ee554578e256c98d2ab74cdd435428484116124c75760006124d1565b6124d1858561319b565b60405190815260200160405180910390a350505080806124f090612f34565b9150506120ad565b5050565b6000611e3d83670de0b6b3a76400008461294f565b60006040517fa9059cbb000000000000000000000000000000000000000000000000000000008152836004820152826024820152602060006044836000895af13d15601f3d1160016000511416171691505080611f56576040517f08c379a000000000000000000000000000000000000000000000000000000000815260206004820152600f60248201527f5452414e534645525f4641494c4544000000000000000000000000000000000060448201526064016108e5565b60006040517f23b872dd0000000000000000000000000000000000000000000000000000000081528460048201528360248201528260448201526020600060648360008a5af13d15601f3d116001600051141617169150508061151e576040517f08c379a000000000000000000000000000000000000000000000000000000000815260206004820152601460248201527f5452414e534645525f46524f4d5f4641494c454400000000000000000000000060448201526064016108e5565b3360009081526008602052604090205460ff16612702576040517f08c379a000000000000000000000000000000000000000000000000000000000815260206004820152600960248201527f554e54525553544544000000000000000000000000000000000000000000000060448201526064016108e5565b61270b836120aa565b811561283657801561276e57816009600082825461272991906131b2565b909155505073ffffffffffffffffffffffffffffffffffffffff83166000908152600a6020526040812080548492906127639084906131b2565b909155506128369050565b73ffffffffffffffffffffffffffffffffffffffff83166000908152600b602052604090205480156127dc57808310156127ac5760009290036127b3565b9091039060005b73ffffffffffffffffffffffffffffffffffffffff84166000908152600b602052604090208190555b82156128345782600960008282546127f4919061319b565b909155505073ffffffffffffffffffffffffffffffffffffffff84166000908152600a60205260408120805485929061282e90849061319b565b90915550505b505b60005b600d54811015611f56576128b2600e6000600d848154811061285d5761285d61316c565b600091825260208083209091015473ffffffffffffffffffffffffffffffffffffffff90811684528382019490945260409283018220549389168252600a90522054906b033b2e3c9fd0803ce8000000612990565b600e6000600d84815481106128c9576128c961316c565b600091825260208083209091015473ffffffffffffffffffffffffffffffffffffffff90811684528382019490945260409283018220938916825260029093019092529020558061291981612f34565b915050612839565b82820281151584158583048514171661293957600080fd5b6001826001830304018115150290509392505050565b82820281151584158583048514171661296757600080fd5b0492915050565b600061297b84838561294f565b949350505050565b600061297b84848461294f565b600061297b848484612921565b828054828255906000526020600020908101928215612a17579160200282015b82811115612a1757825182547fffffffffffffffffffffffff00000000000000000000000000000000000000001673ffffffffffffffffffffffffffffffffffffffff9091161782556020909201916001909101906129bd565b50612a23929150612a27565b5090565b5b80821115612a235760008155600101612a28565b600060208083528351808285015260005b81811015612a6957858101830151858201604001528201612a4d565b81811115612a7b576000604083870101525b50601f017fffffffffffffffffffffffffffffffffffffffffffffffffffffffffffffffe016929092016040019392505050565b73ffffffffffffffffffffffffffffffffffffffff81168114612ad157600080fd5b50565b8035612adf81612aaf565b919050565b60008060408385031215612af757600080fd5b8235612b0281612aaf565b946020939093013593505050565b8015158114612ad157600080fd5b60008060408385031215612b3157600080fd5b8235612b3c81612aaf565b91506020830135612b4c81612b10565b809150509250929050565b60008060008060808587031215612b6d57600080fd5b5050823594602084013594506040840135936060013592509050565b7f4e487b7100000000000000000000000000000000000000000000000000000000600052604160045260246000fd5b60006020808385031215612bcb57600080fd5b823567ffffffffffffffff80821115612be357600080fd5b818501915085601f830112612bf757600080fd5b813581811115612c0957612c09612b89565b8060051b6040517fffffffffffffffffffffffffffffffffffffffffffffffffffffffffffffffe0603f83011681018181108582111715612c4c57612c4c612b89565b604052918252848201925083810185019188831115612c6a57600080fd5b938501935b82851015612c8f57612c8085612ad4565b84529385019392850192612c6f565b98975050505050505050565b600060208284031215612cad57600080fd5b8135611e3d81612aaf565b600060208284031215612cca57600080fd5b5035919050565b60008060408385031215612ce457600080fd5b50508035926020909101359150565b60008083601f840112612d0557600080fd5b50813567ffffffffffffffff811115612d1d57600080fd5b6020830191508360208260051b8501011115612d3857600080fd5b9250929050565b60008060008060408587031215612d5557600080fd5b843567ffffffffffffffff80821115612d6d57600080fd5b612d7988838901612cf3565b90965094506020870135915080821115612d9257600080fd5b50612d9f87828801612cf3565b95989497509550505050565b600080600080600060808688031215612dc357600080fd5b8535612dce81612aaf565b94506020860135612dde81612aaf565b935060408601359250606086013567ffffffffffffffff80821115612e0257600080fd5b818801915088601f830112612e1657600080fd5b813581811115612e2557600080fd5b896020828501011115612e3757600080fd5b9699959850939650602001949392505050565b600080600060608486031215612e5f57600080fd5b8335612e6a81612aaf565b9250602084013591506040840135612e8181612b10565b809150509250925092565b60008060408385031215612e9f57600080fd5b823591506020830135612b4c81612aaf565b600181811c90821680612ec557607f821691505b60208210811415612eff577f4e487b7100000000000000000000000000000000000000000000000000000000600052602260045260246000fd5b50919050565b7f4e487b7100000000000000000000000000000000000000000000000000000000600052601160045260246000fd5b60007fffffffffffffffffffffffffffffffffffffffffffffffffffffffffffffffff821415612f6657612f66612f05565b5060010190565b60008183548391508460005260208060002060005b83811015612fb457815473ffffffffffffffffffffffffffffffffffffffff1685529382019360019182019101612f82565b50929695505050505050565b8051612adf81612aaf565b600060208284031215612fdd57600080fd5b8151611e3d81612aaf565b600060208284031215612ffa57600080fd5b8151611e3d81612b10565b60006020828403121561301757600080fd5b815160ff81168114611e3d57600080fd5b6000817fffffffffffffffffffffffffffffffffffffffffffffffffffffffffffffffff048311821515161561306057613060612f05565b500290565b60008261309b577f4e487b7100000000000000000000000000000000000000000000000000000000600052601260045260246000fd5b500490565b6000602082840312156130b257600080fd5b5051919050565b60008060008060008060008060006101208a8c0312156130d857600080fd5b89516130e381612aaf565b60208b015190995065ffffffffffff811681146130ff57600080fd5b60408b015190985061311081612aaf565b60608b01519097506bffffffffffffffffffffffff8116811461313257600080fd5b955061314060808b01612fc0565b945060a08a0151935060c08a0151925060e08a015191506101008a015190509295985092959850929598565b7f4e487b7100000000000000000000000000000000000000000000000000000000600052603260045260246000fd5b6000828210156131ad576131ad612f05565b500390565b600082198211156131c5576131c5612f05565b500190565b600073ffffffffffffffffffffffffffffffffffffffff808916835280881660208401525085604083015284606083015260a060808301528260a0830152828460c0840137600060c0848401015260c07fffffffffffffffffffffffffffffffffffffffffffffffffffffffffffffffe0601f8501168301019050979650505050505050565b6000806040838503121561326357600080fd5b825161326e81612aaf565b6020840151909250612b4c81612aaf56fea264697066735822122051a97a1cd33cf8d9b28f98ef472d8288481a1ac3ecb53a787929a1a63f1021bd64736f6c634300080b0033",
  "devdoc": {
    "kind": "dev",
    "methods": {
      "flashLoan(address,address,uint256,bytes)": {
        "params": {
          "amount": "The amount of target lent.",
          "data": "(encoded adapter address, maturity and YT amount the use has sent in)",
          "receiver": "The contract receiving target, needs to implement the `onFlashLoan(address user, address adapter, uint256 maturity, uint256 amount)` interface."
        }
      },
      "maxFlashLoan(address)": {
        "details": "The amount of currency available to be lent.",
        "params": {
          "token": "The loan currency."
        },
        "returns": {
          "_0": "The amount of `token` that can be borrowed."
        }
      },
      "reconcile(address[],uint256[])": {
        "params": {
          "_maturities": "Maturities of the series that we want to reconcile users on.",
          "_usrs": "Users to reconcile"
        }
      },
      "scale()": {
        "details": "For some Targets, such as cTokens, this is simply the exchange rate, or `supply cToken / supply underlying`For other Targets, such as AMM LP shares, specialized logic will be requiredThis function _must_ return a WAD number representing the current exchange rate between the Target and the Underlying.",
        "returns": {
          "_scale": "value WAD Scale value"
        }
      },
      "scaleStored()": {
        "details": "For situations where you need scale from a view function"
      },
      "setRewardTokens(address[])": {
        "details": "Calls _claimRewards() in case the new array contains less reward tokens than the old one.",
        "params": {
          "_rewardTokens": "New reward tokens array"
        }
      }
    },
    "version": 1
  },
  "userdoc": {
    "kind": "user",
    "methods": {
      "adapterParams()": {
        "notice": "adapter params"
      },
      "divider()": {
        "notice": "Sense core Divider address"
      },
      "flashLoan(address,address,uint256,bytes)": {
        "notice": "Loan `amount` target to `receiver`, and takes it back after the callback."
      },
      "getUnderlyingPrice()": {
        "notice": "Returns the current price of the underlying in ETH terms"
      },
      "ifee()": {
        "notice": "Issuance fee"
      },
      "lscale()": {
        "notice": "Cached scale value from the last call to `scale()`"
      },
      "onRedeem(uint256,uint256,uint256,uint256)": {
        "notice": "Hook called whenever a user redeems PT"
      },
      "reconcile(address[],uint256[])": {
        "notice": "Reconciles users target balances to zero by distributing rewards on their holdings, to avoid dilution of next Series' YT holders. This function should be called right after a Series matures and will save the user's YT balance (in target terms) on reconciledAmt[usr]. When `notify()` is triggered for on a new Series, we will take that amount and subtract it from the user's target balance (`tBalance`) which will fix (or reconcile) his position to prevent dilution."
      },
      "scale()": {
        "notice": "Calculate and return this adapter's Scale value for the current timestamp. To be overriden by child contracts"
      },
      "scaleStored()": {
        "notice": "Cached scale value getter"
      },
      "setRewardTokens(address[])": {
        "notice": "Overrides the rewardTokens array with a new one."
      },
      "target()": {
        "notice": "Target token to divide"
      },
      "totalTarget()": {
        "notice": "Program state"
      },
      "underlying()": {
        "notice": "Underlying for the Target"
      }
    },
    "version": 1
  },
  "storageLayout": {
    "storage": [
      {
        "astId": 7393,
        "contract": "@sense-finance/v1-core/src/tests/test-helpers/mocks/MockAdapter.sol:MockCropsAdapter",
        "label": "adapterParams",
        "offset": 0,
        "slot": "0",
        "type": "t_struct(AdapterParams)7418_storage"
      },
      {
        "astId": 7420,
        "contract": "@sense-finance/v1-core/src/tests/test-helpers/mocks/MockAdapter.sol:MockCropsAdapter",
        "label": "name",
        "offset": 0,
        "slot": "6",
        "type": "t_string_storage"
      },
      {
        "astId": 7422,
        "contract": "@sense-finance/v1-core/src/tests/test-helpers/mocks/MockAdapter.sol:MockCropsAdapter",
        "label": "symbol",
        "offset": 0,
        "slot": "7",
        "type": "t_string_storage"
      },
      {
        "astId": 17157,
        "contract": "@sense-finance/v1-core/src/tests/test-helpers/mocks/MockAdapter.sol:MockCropsAdapter",
        "label": "isTrusted",
        "offset": 0,
        "slot": "8",
        "type": "t_mapping(t_address,t_bool)"
      },
      {
        "astId": 8422,
        "contract": "@sense-finance/v1-core/src/tests/test-helpers/mocks/MockAdapter.sol:MockCropsAdapter",
        "label": "totalTarget",
        "offset": 0,
        "slot": "9",
        "type": "t_uint256"
      },
      {
        "astId": 8426,
        "contract": "@sense-finance/v1-core/src/tests/test-helpers/mocks/MockAdapter.sol:MockCropsAdapter",
        "label": "tBalance",
        "offset": 0,
        "slot": "10",
        "type": "t_mapping(t_address,t_uint256)"
      },
      {
        "astId": 8430,
        "contract": "@sense-finance/v1-core/src/tests/test-helpers/mocks/MockAdapter.sol:MockCropsAdapter",
        "label": "reconciledAmt",
        "offset": 0,
        "slot": "11",
        "type": "t_mapping(t_address,t_uint256)"
      },
      {
        "astId": 8436,
        "contract": "@sense-finance/v1-core/src/tests/test-helpers/mocks/MockAdapter.sol:MockCropsAdapter",
        "label": "reconciled",
        "offset": 0,
        "slot": "12",
        "type": "t_mapping(t_address,t_mapping(t_uint256,t_bool))"
      },
      {
        "astId": 8439,
        "contract": "@sense-finance/v1-core/src/tests/test-helpers/mocks/MockAdapter.sol:MockCropsAdapter",
        "label": "rewardTokens",
        "offset": 0,
        "slot": "13",
        "type": "t_array(t_address)dyn_storage"
      },
      {
        "astId": 8444,
        "contract": "@sense-finance/v1-core/src/tests/test-helpers/mocks/MockAdapter.sol:MockCropsAdapter",
        "label": "data",
        "offset": 0,
        "slot": "14",
        "type": "t_mapping(t_address,t_struct(Crop)8453_storage)"
      },
      {
        "astId": 13096,
        "contract": "@sense-finance/v1-core/src/tests/test-helpers/mocks/MockAdapter.sol:MockCropsAdapter",
        "label": "scaleOverride",
        "offset": 0,
        "slot": "15",
        "type": "t_uint256"
      },
      {
        "astId": 13099,
        "contract": "@sense-finance/v1-core/src/tests/test-helpers/mocks/MockAdapter.sol:MockCropsAdapter",
        "label": "INITIAL_VALUE",
        "offset": 0,
        "slot": "16",
        "type": "t_uint256"
      },
      {
        "astId": 13102,
        "contract": "@sense-finance/v1-core/src/tests/test-helpers/mocks/MockAdapter.sol:MockCropsAdapter",
        "label": "GROWTH_PER_SECOND",
        "offset": 0,
        "slot": "17",
        "type": "t_uint256"
      },
      {
        "astId": 13104,
        "contract": "@sense-finance/v1-core/src/tests/test-helpers/mocks/MockAdapter.sol:MockCropsAdapter",
        "label": "onRedeemCalls",
        "offset": 0,
        "slot": "18",
        "type": "t_uint256"
      },
      {
        "astId": 13106,
        "contract": "@sense-finance/v1-core/src/tests/test-helpers/mocks/MockAdapter.sol:MockCropsAdapter",
        "label": "scalingFactor",
        "offset": 0,
        "slot": "19",
        "type": "t_uint256"
      },
      {
        "astId": 13115,
        "contract": "@sense-finance/v1-core/src/tests/test-helpers/mocks/MockAdapter.sol:MockCropsAdapter",
        "label": "lscale",
        "offset": 0,
        "slot": "20",
        "type": "t_struct(LScale)13111_storage"
      }
    ],
    "types": {
      "t_address": {
        "encoding": "inplace",
        "label": "address",
        "numberOfBytes": "20"
      },
      "t_array(t_address)dyn_storage": {
        "base": "t_address",
        "encoding": "dynamic_array",
        "label": "address[]",
        "numberOfBytes": "32"
      },
      "t_bool": {
        "encoding": "inplace",
        "label": "bool",
        "numberOfBytes": "1"
      },
      "t_mapping(t_address,t_bool)": {
        "encoding": "mapping",
        "key": "t_address",
        "label": "mapping(address => bool)",
        "numberOfBytes": "32",
        "value": "t_bool"
      },
      "t_mapping(t_address,t_mapping(t_uint256,t_bool))": {
        "encoding": "mapping",
        "key": "t_address",
        "label": "mapping(address => mapping(uint256 => bool))",
        "numberOfBytes": "32",
        "value": "t_mapping(t_uint256,t_bool)"
      },
      "t_mapping(t_address,t_struct(Crop)8453_storage)": {
        "encoding": "mapping",
        "key": "t_address",
        "label": "mapping(address => struct Crops.Crop)",
        "numberOfBytes": "32",
        "value": "t_struct(Crop)8453_storage"
      },
      "t_mapping(t_address,t_uint256)": {
        "encoding": "mapping",
        "key": "t_address",
        "label": "mapping(address => uint256)",
        "numberOfBytes": "32",
        "value": "t_uint256"
      },
      "t_mapping(t_uint256,t_bool)": {
        "encoding": "mapping",
        "key": "t_uint256",
        "label": "mapping(uint256 => bool)",
        "numberOfBytes": "32",
        "value": "t_bool"
      },
      "t_string_storage": {
        "encoding": "bytes",
        "label": "string",
        "numberOfBytes": "32"
      },
      "t_struct(AdapterParams)7418_storage": {
        "encoding": "inplace",
        "label": "struct BaseAdapter.AdapterParams",
        "members": [
          {
            "astId": 7396,
            "contract": "@sense-finance/v1-core/src/tests/test-helpers/mocks/MockAdapter.sol:MockCropsAdapter",
            "label": "oracle",
            "offset": 0,
            "slot": "0",
            "type": "t_address"
          },
          {
            "astId": 7399,
            "contract": "@sense-finance/v1-core/src/tests/test-helpers/mocks/MockAdapter.sol:MockCropsAdapter",
            "label": "stake",
            "offset": 0,
            "slot": "1",
            "type": "t_address"
          },
          {
            "astId": 7402,
            "contract": "@sense-finance/v1-core/src/tests/test-helpers/mocks/MockAdapter.sol:MockCropsAdapter",
            "label": "stakeSize",
            "offset": 0,
            "slot": "2",
            "type": "t_uint256"
          },
          {
            "astId": 7405,
            "contract": "@sense-finance/v1-core/src/tests/test-helpers/mocks/MockAdapter.sol:MockCropsAdapter",
            "label": "minm",
            "offset": 0,
            "slot": "3",
            "type": "t_uint256"
          },
          {
            "astId": 7408,
            "contract": "@sense-finance/v1-core/src/tests/test-helpers/mocks/MockAdapter.sol:MockCropsAdapter",
            "label": "maxm",
            "offset": 0,
            "slot": "4",
            "type": "t_uint256"
          },
          {
            "astId": 7411,
            "contract": "@sense-finance/v1-core/src/tests/test-helpers/mocks/MockAdapter.sol:MockCropsAdapter",
            "label": "tilt",
            "offset": 0,
            "slot": "5",
            "type": "t_uint64"
          },
          {
            "astId": 7414,
            "contract": "@sense-finance/v1-core/src/tests/test-helpers/mocks/MockAdapter.sol:MockCropsAdapter",
            "label": "level",
            "offset": 8,
            "slot": "5",
            "type": "t_uint48"
          },
          {
            "astId": 7417,
            "contract": "@sense-finance/v1-core/src/tests/test-helpers/mocks/MockAdapter.sol:MockCropsAdapter",
            "label": "mode",
            "offset": 14,
            "slot": "5",
            "type": "t_uint16"
          }
        ],
        "numberOfBytes": "192"
      },
      "t_struct(Crop)8453_storage": {
        "encoding": "inplace",
        "label": "struct Crops.Crop",
        "members": [
          {
            "astId": 8446,
            "contract": "@sense-finance/v1-core/src/tests/test-helpers/mocks/MockAdapter.sol:MockCropsAdapter",
            "label": "shares",
            "offset": 0,
            "slot": "0",
            "type": "t_uint256"
          },
          {
            "astId": 8448,
            "contract": "@sense-finance/v1-core/src/tests/test-helpers/mocks/MockAdapter.sol:MockCropsAdapter",
            "label": "rewardedBalances",
            "offset": 0,
            "slot": "1",
            "type": "t_uint256"
          },
          {
            "astId": 8452,
            "contract": "@sense-finance/v1-core/src/tests/test-helpers/mocks/MockAdapter.sol:MockCropsAdapter",
            "label": "rewarded",
            "offset": 0,
            "slot": "2",
            "type": "t_mapping(t_address,t_uint256)"
          }
        ],
        "numberOfBytes": "96"
      },
      "t_struct(LScale)13111_storage": {
        "encoding": "inplace",
        "label": "struct MockCropsAdapter.LScale",
        "members": [
          {
            "astId": 13108,
            "contract": "@sense-finance/v1-core/src/tests/test-helpers/mocks/MockAdapter.sol:MockCropsAdapter",
            "label": "timestamp",
            "offset": 0,
            "slot": "0",
            "type": "t_uint256"
          },
          {
            "astId": 13110,
            "contract": "@sense-finance/v1-core/src/tests/test-helpers/mocks/MockAdapter.sol:MockCropsAdapter",
            "label": "value",
            "offset": 0,
            "slot": "1",
            "type": "t_uint256"
          }
        ],
        "numberOfBytes": "64"
      },
      "t_uint16": {
        "encoding": "inplace",
        "label": "uint16",
        "numberOfBytes": "2"
      },
      "t_uint256": {
        "encoding": "inplace",
        "label": "uint256",
        "numberOfBytes": "32"
      },
      "t_uint48": {
        "encoding": "inplace",
        "label": "uint48",
        "numberOfBytes": "6"
      },
      "t_uint64": {
        "encoding": "inplace",
        "label": "uint64",
        "numberOfBytes": "8"
      }
    }
  }
}