{
  "address": "0xfb5375fde4718dE9B5c0Cde7371341D2342b507b",
  "abi": [
    {
      "inputs": [
        {
          "internalType": "address",
          "name": "_divider",
          "type": "address"
        },
        {
          "components": [
            {
              "internalType": "address",
              "name": "oracle",
              "type": "address"
            },
            {
              "internalType": "address",
              "name": "stake",
              "type": "address"
            },
            {
              "internalType": "uint256",
              "name": "stakeSize",
              "type": "uint256"
            },
            {
              "internalType": "uint256",
              "name": "minm",
              "type": "uint256"
            },
            {
              "internalType": "uint256",
              "name": "maxm",
              "type": "uint256"
            },
            {
              "internalType": "uint128",
              "name": "ifee",
              "type": "uint128"
            },
            {
              "internalType": "uint16",
              "name": "mode",
              "type": "uint16"
            },
            {
              "internalType": "uint64",
              "name": "tilt",
              "type": "uint64"
            }
          ],
          "internalType": "struct BaseFactory.FactoryParams",
          "name": "_factoryParams",
          "type": "tuple"
        },
        {
          "internalType": "address",
          "name": "_reward",
          "type": "address"
        }
      ],
      "stateMutability": "nonpayable",
      "type": "constructor"
    },
    {
      "inputs": [],
      "name": "OnlyPeriphery",
      "type": "error"
    },
    {
      "inputs": [],
      "name": "TargetNotSupported",
      "type": "error"
    },
    {
      "anonymous": false,
      "inputs": [
        {
          "indexed": false,
          "internalType": "address",
          "name": "addr",
          "type": "address"
        },
        {
          "indexed": true,
          "internalType": "address",
          "name": "target",
          "type": "address"
        }
      ],
      "name": "AdapterAdded",
      "type": "event"
    },
    {
      "inputs": [],
      "name": "DEFAULT_LEVEL",
      "outputs": [
        {
          "internalType": "uint48",
          "name": "",
          "type": "uint48"
        }
      ],
      "stateMutability": "view",
      "type": "function"
    },
    {
      "inputs": [
        {
          "internalType": "address",
          "name": "",
          "type": "address"
        }
      ],
      "name": "adapters",
      "outputs": [
        {
          "internalType": "address",
          "name": "",
          "type": "address"
        }
      ],
      "stateMutability": "view",
      "type": "function"
    },
    {
      "inputs": [
        {
          "internalType": "address",
          "name": "_target",
          "type": "address"
        },
        {
          "internalType": "bool",
          "name": "status",
          "type": "bool"
        }
      ],
      "name": "addTarget",
      "outputs": [],
      "stateMutability": "nonpayable",
      "type": "function"
    },
    {
      "inputs": [
        {
          "internalType": "address",
          "name": "_target",
          "type": "address"
        },
        {
          "internalType": "bytes",
          "name": "data",
          "type": "bytes"
        }
      ],
      "name": "deployAdapter",
      "outputs": [
        {
          "internalType": "address",
          "name": "adapter",
          "type": "address"
        }
      ],
      "stateMutability": "nonpayable",
      "type": "function"
    },
    {
      "inputs": [],
      "name": "divider",
      "outputs": [
        {
          "internalType": "address",
          "name": "",
          "type": "address"
        }
      ],
      "stateMutability": "view",
      "type": "function"
    },
    {
      "inputs": [],
      "name": "factoryParams",
      "outputs": [
        {
          "internalType": "address",
          "name": "oracle",
          "type": "address"
        },
        {
          "internalType": "address",
          "name": "stake",
          "type": "address"
        },
        {
          "internalType": "uint256",
          "name": "stakeSize",
          "type": "uint256"
        },
        {
          "internalType": "uint256",
          "name": "minm",
          "type": "uint256"
        },
        {
          "internalType": "uint256",
          "name": "maxm",
          "type": "uint256"
        },
        {
          "internalType": "uint128",
          "name": "ifee",
          "type": "uint128"
        },
        {
          "internalType": "uint16",
          "name": "mode",
          "type": "uint16"
        },
        {
          "internalType": "uint64",
          "name": "tilt",
          "type": "uint64"
        }
      ],
      "stateMutability": "view",
      "type": "function"
    },
    {
      "inputs": [],
      "name": "is4626",
      "outputs": [
        {
          "internalType": "bool",
          "name": "",
          "type": "bool"
        }
      ],
      "stateMutability": "view",
      "type": "function"
    },
    {
      "inputs": [],
      "name": "reward",
      "outputs": [
        {
          "internalType": "address",
          "name": "",
          "type": "address"
        }
      ],
      "stateMutability": "view",
      "type": "function"
    },
    {
      "inputs": [
        {
          "internalType": "address",
          "name": "",
          "type": "address"
        }
      ],
      "name": "targets",
      "outputs": [
        {
          "internalType": "bool",
          "name": "",
          "type": "bool"
        }
      ],
      "stateMutability": "view",
      "type": "function"
    }
  ],
  "transactionHash": "0x15a8da10122e79a669689114c69f16b7d8a7759a3815da8212dcb65e7209bcdb",
  "args": [
    "0xa1514E3bA51C59d4E76956409143aE9734883Fd5",
    [
      "0x0000000000000000000000000000000000000000",
      "0xAEfcd438e64501D5a79a13d856DA5c4638EECC48",
      "1000000000000000000",
      "0",
      "4838400",
      "10000000000000000",
      1,
      0
    ],
    "0x34AccF02eED08893697b9c212aDBF7a53FE173Fe"
  ],
  "numDeployments": 1,
  "solcInputHash": "e6e4c9ea960c200f06b8bf15d2380dca",
  "bytecode": "0x60c060405234801561001057600080fd5b506040516200446b3803806200446b83398101604081905261003191610149565b6001600160a01b0392831660809081528251600180549186166001600160a01b0319928316179055602084015160028054918716919092161790556040830151600355606083015160045582015160055560a0808301516006805460c086015160e0909601516001600160401b0316600160901b02600160901b600160d01b031961ffff909716600160801b026001600160901b03199092166001600160801b039094169390931717949094161790925591909116905261023b565b80516001600160a01b038116811461010457600080fd5b919050565b80516001600160801b038116811461010457600080fd5b805161ffff8116811461010457600080fd5b80516001600160401b038116811461010457600080fd5b600080600083850361014081121561016057600080fd5b610169856100ed565b935061010080601f198301121561017f57600080fd5b60405191508082016001600160401b03811183821017156101b057634e487b7160e01b600052604160045260246000fd5b6040526101bf602087016100ed565b82526101cd604087016100ed565b6020830152606086015160408301526080860151606083015260a086015160808301526101fc60c08701610109565b60a083015261020d60e08701610120565b60c083015261021d818701610132565b60e083015250915061023261012085016100ed565b90509250925092565b60805160a0516141f6620002756000396000818160bb015261061101526000818161010d015281816103c0015261056001526141f66000f3fe60806040523480156200001157600080fd5b5060043610620000b05760003560e01c8063562c4784116200007f57806393d4750c116200006257806393d4750c14620001f4578063bbe451d51462000215578063e5711ffc146200030e57600080fd5b8063562c478414620001af578063850fdf9714620001e657600080fd5b8063228cb73314620000b5578063378efa3714620001075780633c4598d0146200012f5780633cad2dcd1462000198575b600080fd5b620000dd7f000000000000000000000000000000000000000000000000000000000000000081565b60405173ffffffffffffffffffffffffffffffffffffffff90911681526020015b60405180910390f35b620000dd7f000000000000000000000000000000000000000000000000000000000000000081565b6200019662000140366004620006ab565b73ffffffffffffffffffffffffffffffffffffffff91909116600090815260076020526040902080547fffffffffffffffffffffffffffffffffffffffffffffffffffffffffffffff0016911515919091179055565b005b620000dd620001a93660046200071c565b62000347565b620001d5620001c03660046200080a565b60076020526000908152604090205460ff1681565b6040519015158152602001620000fe565b600854620001d59060ff1681565b620001fd601f81565b60405165ffffffffffff9091168152602001620000fe565b6001546002546003546004546005546006546200029a9573ffffffffffffffffffffffffffffffffffffffff9081169516939291906fffffffffffffffffffffffffffffffff811690700100000000000000000000000000000000810461ffff16907201000000000000000000000000000000000000900467ffffffffffffffff1688565b6040805173ffffffffffffffffffffffffffffffffffffffff998a16815298909716602089015295870194909452606086019290925260808501526fffffffffffffffffffffffffffffffff1660a084015261ffff1660c083015267ffffffffffffffff1660e082015261010001620000fe565b620000dd6200031f3660046200080a565b60006020819052908152604090205473ffffffffffffffffffffffffffffffffffffffff1681565b73ffffffffffffffffffffffffffffffffffffffff821660009081526007602052604081205460ff16620003a7576040517fa2a94ace00000000000000000000000000000000000000000000000000000000815260040160405180910390fd5b3373ffffffffffffffffffffffffffffffffffffffff167f000000000000000000000000000000000000000000000000000000000000000073ffffffffffffffffffffffffffffffffffffffff166377aace1a6040518163ffffffff1660e01b8152600401602060405180830381865afa1580156200042a573d6000803e3d6000fd5b505050506040513d601f19601f8201168201806040525081019062000450919062000831565b73ffffffffffffffffffffffffffffffffffffffff16146200049e576040517ffb02114900000000000000000000000000000000000000000000000000000000815260040160405180910390fd5b604080516101008101825260015473ffffffffffffffffffffffffffffffffffffffff90811682526002541660208201526003549181019190915260045460608083019190915260055460808301526006547201000000000000000000000000000000000000810467ffffffffffffffff1660a0840152601f60c0840152700100000000000000000000000000000000900461ffff1660e083015284901b7fffffffffffffffffffffffffffffffffffffffff000000000000000000000000167f0000000000000000000000000000000000000000000000000000000000000000858673ffffffffffffffffffffffffffffffffffffffff166338d52e0f6040518163ffffffff1660e01b8152600401602060405180830381865afa158015620005cc573d6000803e3d6000fd5b505050506040513d601f19601f82011682018060405250810190620005f2919062000831565b6006546040516fffffffffffffffffffffffffffffffff9091169086907f0000000000000000000000000000000000000000000000000000000000000000906200063c9062000677565b6200064d9695949392919062000851565b8190604051809103906000f59050801580156200066e573d6000803e3d6000fd5b50949350505050565b613885806200093c83390190565b73ffffffffffffffffffffffffffffffffffffffff81168114620006a857600080fd5b50565b60008060408385031215620006bf57600080fd5b8235620006cc8162000685565b915060208301358015158114620006e257600080fd5b809150509250929050565b7f4e487b7100000000000000000000000000000000000000000000000000000000600052604160045260246000fd5b600080604083850312156200073057600080fd5b82356200073d8162000685565b9150602083013567ffffffffffffffff808211156200075b57600080fd5b818501915085601f8301126200077057600080fd5b813581811115620007855762000785620006ed565b604051601f82017fffffffffffffffffffffffffffffffffffffffffffffffffffffffffffffffe0908116603f01168101908382118183101715620007ce57620007ce620006ed565b81604052828152886020848701011115620007e857600080fd5b8260208601602083013760006020848301015280955050505050509250929050565b6000602082840312156200081d57600080fd5b81356200082a8162000685565b9392505050565b6000602082840312156200084457600080fd5b81516200082a8162000685565b60006101a08201905073ffffffffffffffffffffffffffffffffffffffff8089168352808816602084015280871660408401526fffffffffffffffffffffffffffffffff861660608401528085511660808401528060208601511660a084015250604084015160c0830152606084015160e0830152608084015161010083015267ffffffffffffffff60a08501511661012083015260c08401516200090161014084018265ffffffffffff169052565b5060e084015161ffff81166101608401525073ffffffffffffffffffffffffffffffffffffffff831661018083015297965050505050505056fe6101606040523480156200001257600080fd5b5060405162003885380380620038858339810160408190526200003591620007bf565b858181888887878383846001600160a01b03166338d52e0f6040518163ffffffff1660e01b8152600401602060405180830381865afa1580156200007d573d6000803e3d6000fd5b505050506040513d601f19601f82011682018060405250810190620000a39190620008e9565b6001600160a01b03808416608090815283821660a081815284841660c09081526001600160801b038a1660e09081528951600080549188166001600160a01b031992831617815560208c015160018054919099169216919091179096556040808b015160025560608b0151600355948a01516004908155928a015160058054938c0151928c015161ffff16600160701b0261ffff60701b1965ffffffffffff90941668010000000000000000026001600160701b03199095166001600160401b0390931692909217939093179190911617905582516306fdde0360e01b81529251899489946306fdde039381810193918290030181865afa158015620001ad573d6000803e3d6000fd5b505050506040513d6000823e601f3d908101601f19168201604052620001d7919081019062000943565b604051602001620001e99190620009fb565b604051602081830303815290604052600690805190602001906200020f9291906200066a565b50836001600160a01b03166395d89b416040518163ffffffff1660e01b8152600401600060405180830381865afa1580156200024f573d6000803e3d6000fd5b505050506040513d6000823e601f3d908101601f1916820160405262000279919081019062000943565b6040516020016200028b919062000a29565b60405160208183030381529060405260079080519060200190620002b19291906200066a565b5060805160405163095ea7b360e01b81526001600160a01b03918216600482015260001960248201529085169063095ea7b3906044016020604051808303816000875af115801562000307573d6000803e3d6000fd5b505050506040513d601f19601f820116820180604052508101906200032d919062000a57565b50602081015160805160405163095ea7b360e01b81526001600160a01b039182166004820152600019602482015291169063095ea7b3906044016020604051808303816000875af115801562000387573d6000803e3d6000fd5b505050506040513d601f19601f82011682018060405250810190620003ad919062000a57565b505050505050600060a0516001600160a01b031663313ce5676040518163ffffffff1660e01b8152600401602060405180830381865afa158015620003f6573d6000803e3d6000fd5b505050506040513d601f19601f820116820180604052508101906200041c919062000a7b565b60ff1690506200042e81600a62000bb5565b610100526200043f81601262000bc3565b6200044c90600a62000bb5565b6101205260c05160a05160405163095ea7b360e01b81526001600160a01b039182166004820152600019602482015291169063095ea7b3906044016020604051808303816000875af1158015620004a7573d6000803e3d6000fd5b505050506040513d601f19601f82011682018060405250810190620004cd919062000a57565b505050506001600160a01b038316600081815260086020908152604091829020805460ff1916600190811790915591519182529193507fe95aec380cae16330d146d5499ef7db6f3657e477104a733e771bc09e500d98692500160405180910390a250806001600160a01b0316610140816001600160a01b03168152505050506000856001600160a01b031663313ce5676040518163ffffffff1660e01b8152600401602060405180830381865afa1580156200058e573d6000803e3d6000fd5b505050506040513d601f19601f82011682018060405250810190620005b4919062000a7b565b60ff1690506000856001600160a01b031663313ce5676040518163ffffffff1660e01b8152600401602060405180830381865afa158015620005fa573d6000803e3d6000fd5b505050506040513d601f19601f8201168201806040525081019062000620919062000a7b565b60ff1690508082116200063f5762000639828262000bc3565b6200064b565b6200064b818362000bc3565b6200065890600a62000bb5565b6011555062000c1a9650505050505050565b828054620006789062000bdd565b90600052602060002090601f0160209004810192826200069c5760008555620006e7565b82601f10620006b757805160ff1916838001178555620006e7565b82800160010185558215620006e7579182015b82811115620006e7578251825591602001919060010190620006ca565b50620006f5929150620006f9565b5090565b5b80821115620006f55760008155600101620006fa565b6001600160a01b03811681146200072657600080fd5b50565b8051620007368162000710565b919050565b634e487b7160e01b600052604160045260246000fd5b60405161010081016001600160401b03811182821017156200077757620007776200073b565b60405290565b80516001600160401b03811681146200073657600080fd5b805165ffffffffffff811681146200073657600080fd5b805161ffff811681146200073657600080fd5b6000806000806000808688036101a0811215620007db57600080fd5b8751620007e88162000710565b6020890151909750620007fb8162000710565b60408901519096506200080e8162000710565b60608901519095506001600160801b03811681146200082c57600080fd5b9350610100607f1982018113156200084357600080fd5b6200084d62000751565b915060808901516200085f8162000710565b82526200086f60a08a0162000729565b602083015260c0890151604083015260e0890151606083015288015160808201526200089f61012089016200077d565b60a0820152620008b3610140890162000795565b60c0820152620008c76101608901620007ac565b60e08201529150620008dd610180880162000729565b90509295509295509295565b600060208284031215620008fc57600080fd5b8151620009098162000710565b9392505050565b60005b838110156200092d57818101518382015260200162000913565b838111156200093d576000848401525b50505050565b6000602082840312156200095657600080fd5b81516001600160401b03808211156200096e57600080fd5b818401915084601f8301126200098357600080fd5b8151818111156200099857620009986200073b565b604051601f8201601f19908116603f01168101908382118183101715620009c357620009c36200073b565b81604052828152876020848701011115620009dd57600080fd5b620009f083602083016020880162000910565b979650505050505050565b6000825162000a0f81846020870162000910565b671020b230b83a32b960c11b920191825250600801919050565b6000825162000a3d81846020870162000910565b6716b0b230b83a32b960c11b920191825250600801919050565b60006020828403121562000a6a57600080fd5b815180151581146200090957600080fd5b60006020828403121562000a8e57600080fd5b815160ff811681146200090957600080fd5b634e487b7160e01b600052601160045260246000fd5b600181815b8085111562000af757816000190482111562000adb5762000adb62000aa0565b8085161562000ae957918102915b93841c939080029062000abb565b509250929050565b60008262000b105750600162000baf565b8162000b1f5750600062000baf565b816001811462000b38576002811462000b435762000b63565b600191505062000baf565b60ff84111562000b575762000b5762000aa0565b50506001821b62000baf565b5060208310610133831016604e8410600b841016171562000b88575081810a62000baf565b62000b94838362000ab6565b806000190482111562000bab5762000bab62000aa0565b0290505b92915050565b600062000909838362000aff565b60008282101562000bd85762000bd862000aa0565b500390565b600181811c9082168062000bf257607f821691505b6020821081141562000c1457634e487b7160e01b600052602260045260246000fd5b50919050565b60805160a05160c05160e051610100516101205161014051612b6162000d246000396000818161046401528181611ed101528181611ff60152818161204d01526120e70152600081816107a70152610a3701526000818161078001528181610a0e0152611ae40152600061070a01526000818161063d01528181610b290152610bb90152600081816104cc015281816107ee01528181610a6e01528181610c1601528181610cde01528181610d5d015281816117f40152818161186a0152818161195201528181611b260152611d3c01526000818161054501528181610e1c01528181610eee0152818161170001528181611a3301528181611bd50152611cc60152612b616000f3fe608060405234801561001057600080fd5b50600436106102e95760003560e01c80636b0706ed11610191578063c39a3b29116100e3578063d01c6f2911610097578063da4ca41311610071578063da4ca41314610823578063ed3437f81461082c578063f51e181a1461044957600080fd5b8063d01c6f29146107c9578063d4b83992146107e9578063d9d98ce41461081057600080fd5b8063cc074d49116100c8578063cc074d4914610768578063cce593861461077b578063ce4b5bbe146107a257600080fd5b8063c39a3b291461074d578063c5c108c71461075f57600080fd5b80638d8475c411610145578063a8d5fd651161011f578063a8d5fd65146106e9578063b484972a146106f2578063b8c15a9f1461070557600080fd5b80638d8475c4146106ab57806395d89b41146106be57806396d64879146106c657600080fd5b80636fd5ae15116101765780636fd5ae151461065f57806375b2cda81461067b5780638237e5381461068457600080fd5b80636b0706ed146106305780636f307dc31461063857600080fd5b8063378efa371161024a57806353e0719e116101fe578063613255ab116101d8578063613255ab146105ee57806362e10b4e1461060157806364c56e3c1461061457600080fd5b806353e0719e146105b5578063572acb9f146105c85780635cffe9de146105db57600080fd5b8063468f02d21161022f578063468f02d2146105875780634aae9fed1461058f57806351c39ea1146105a257600080fd5b8063378efa3714610540578063379f53e31461056757600080fd5b806322677849116102a157806327b327d01161028657806327b327d0146104ab578063295a52121461050257806329a436081461052057600080fd5b80632267784914610449578063228cb7331461045f57600080fd5b80630e122423116102d25780630e122423146103e35780631393916a1461042157806314282f581461043657600080fd5b806306fdde03146102ee578063083118d51461030c575b600080fd5b6102f6610835565b60405161030391906124b6565b60405180910390f35b60005460015460025460035460045460055461037a9573ffffffffffffffffffffffffffffffffffffffff90811695169392919067ffffffffffffffff81169068010000000000000000810465ffffffffffff16906e010000000000000000000000000000900461ffff1688565b6040805173ffffffffffffffffffffffffffffffffffffffff998a168152989097166020890152958701949094526060860192909252608085015267ffffffffffffffff1660a084015265ffffffffffff1660c083015261ffff1660e082015261010001610303565b6104116103f136600461254e565b600f60209081526000928352604080842090915290825290205460ff1681565b6040519015158152602001610303565b61043461042f366004612588565b6108c3565b005b6104346104443660046125c1565b6109cb565b6104516109e6565b604051908152602001610303565b6104867f000000000000000000000000000000000000000000000000000000000000000081565b60405173ffffffffffffffffffffffffffffffffffffffff9091168152602001610303565b6001546002546040805173ffffffffffffffffffffffffffffffffffffffff7f0000000000000000000000000000000000000000000000000000000000000000811682529093166020840152820152606001610303565b6005546e010000000000000000000000000000900461ffff16610451565b61045161052e3660046125f3565b600c6020526000908152604090205481565b6104867f000000000000000000000000000000000000000000000000000000000000000081565b6104516105753660046125f3565b600d6020526000908152604090205481565b610451610ae8565b61045161059d366004612610565b610b9d565b6104516105b0366004612610565b610c9f565b6104346105c3366004612629565b610d22565b6104346105d6366004612697565b6111c7565b6104116105e9366004612703565b6116e5565b6104516105fc3660046125f3565b611987565b61045161060f366004612629565b6119f4565b6003546004545b60408051928352602083019190915201610303565b61061b611abc565b6104867f000000000000000000000000000000000000000000000000000000000000000081565b60055468010000000000000000900465ffffffffffff16610451565b61045160105481565b6104517f439148f0bbc682ca079e46d6e2c2f0c1e3b820f1a291b069d8882abf8cf18dd981565b6104346106b9366004612629565b611b99565b6102f6611c5c565b6104116106d43660046125f3565b60086020526000908152604090205460ff1681565b61045160095481565b6104346107003660046127a2565b611c69565b61072c7f000000000000000000000000000000000000000000000000000000000000000081565b6040516fffffffffffffffffffffffffffffffff9091168152602001610303565b60055467ffffffffffffffff16610451565b610451600a5481565b6104346107763660046127e4565b611c74565b6104517f000000000000000000000000000000000000000000000000000000000000000081565b6104517f000000000000000000000000000000000000000000000000000000000000000081565b6104516107d73660046125f3565b600e6020526000908152604090205481565b6104867f000000000000000000000000000000000000000000000000000000000000000081565b61045161081e36600461254e565b611d38565b610451600b5481565b61045160115481565b6006805461084290612809565b80601f016020809104026020016040519081016040528092919081815260200182805461086e90612809565b80156108bb5780601f10610890576101008083540402835291602001916108bb565b820191906000526020600020905b81548152906001019060200180831161089e57829003601f168201915b505050505081565b3360009081526008602052604090205460ff16610941576040517f08c379a000000000000000000000000000000000000000000000000000000000815260206004820152600960248201527f554e54525553544544000000000000000000000000000000000000000000000060448201526064015b60405180910390fd5b73ffffffffffffffffffffffffffffffffffffffff821660008181526008602090815260409182902080547fffffffffffffffffffffffffffffffffffffffffffffffffffffffffffffff001685151590811790915591519182527fe95aec380cae16330d146d5499ef7db6f3657e477104a733e771bc09e500d986910160405180910390a25050565b601080549060006109db8361288c565b919050555050505050565b6040517f07a2d13a0000000000000000000000000000000000000000000000000000000081527f000000000000000000000000000000000000000000000000000000000000000060048201526000907f00000000000000000000000000000000000000000000000000000000000000009073ffffffffffffffffffffffffffffffffffffffff7f000000000000000000000000000000000000000000000000000000000000000016906307a2d13a90602401602060405180830381865afa158015610ab5573d6000803e3d6000fd5b505050506040513d601f19601f82011682018060405250810190610ad991906128c5565b610ae391906128de565b905090565b600080546040517faea9107800000000000000000000000000000000000000000000000000000000815273ffffffffffffffffffffffffffffffffffffffff7f0000000000000000000000000000000000000000000000000000000000000000811660048301529091169063aea9107890602401602060405180830381865afa158015610b79573d6000803e3d6000fd5b505050506040513d601f19601f82011682018060405250810190610ae391906128c5565b6000610be173ffffffffffffffffffffffffffffffffffffffff7f000000000000000000000000000000000000000000000000000000000000000016333085611dc8565b6040517f6e553f65000000000000000000000000000000000000000000000000000000008152600481018390523360248201527f000000000000000000000000000000000000000000000000000000000000000073ffffffffffffffffffffffffffffffffffffffff1690636e553f65906044015b6020604051808303816000875af1158015610c75573d6000803e3d6000fd5b505050506040513d601f19601f82011682018060405250810190610c9991906128c5565b92915050565b6040517fba08765200000000000000000000000000000000000000000000000000000000815260048101829052336024820181905260448201526000907f000000000000000000000000000000000000000000000000000000000000000073ffffffffffffffffffffffffffffffffffffffff169063ba08765290606401610c56565b6040517f23b872dd000000000000000000000000000000000000000000000000000000008152336004820152306024820152604481018290527f000000000000000000000000000000000000000000000000000000000000000073ffffffffffffffffffffffffffffffffffffffff16906323b872dd906064016020604051808303816000875af1158015610dbb573d6000803e3d6000fd5b505050506040513d601f19601f82011682018060405250810190610ddf919061291b565b506040517fdfe5ef4800000000000000000000000000000000000000000000000000000000815230600482015260248101839052604481018290527f000000000000000000000000000000000000000000000000000000000000000073ffffffffffffffffffffffffffffffffffffffff169063dfe5ef48906064016020604051808303816000875af1158015610e7a573d6000803e3d6000fd5b505050506040513d601f19601f82011682018060405250810190610e9e91906128c5565b506040517f0891d30a00000000000000000000000000000000000000000000000000000000815230600482015260248101839052600090819073ffffffffffffffffffffffffffffffffffffffff7f00000000000000000000000000000000000000000000000000000000000000001690630891d30a9060440161012060405180830381865afa158015610f36573d6000803e3d6000fd5b505050506040513d601f19601f82011682018060405250810190610f5a9190612948565b50506040517f70a082310000000000000000000000000000000000000000000000000000000081523060048201529698509396505073ffffffffffffffffffffffffffffffffffffffff87169463a9059cbb94503393508592506370a082319150602401602060405180830381865afa158015610fdb573d6000803e3d6000fd5b505050506040513d601f19601f82011682018060405250810190610fff91906128c5565b6040517fffffffff0000000000000000000000000000000000000000000000000000000060e085901b16815273ffffffffffffffffffffffffffffffffffffffff909216600483015260248201526044016020604051808303816000875af115801561106f573d6000803e3d6000fd5b505050506040513d601f19601f82011682018060405250810190611093919061291b565b506040517f70a0823100000000000000000000000000000000000000000000000000000000815230600482015273ffffffffffffffffffffffffffffffffffffffff82169063a9059cbb90339083906370a0823190602401602060405180830381865afa158015611108573d6000803e3d6000fd5b505050506040513d601f19601f8201168201806040525081019061112c91906128c5565b6040517fffffffff0000000000000000000000000000000000000000000000000000000060e085901b16815273ffffffffffffffffffffffffffffffffffffffff909216600483015260248201526044016020604051808303816000875af115801561119c573d6000803e3d6000fd5b505050506040513d601f19601f820116820180604052508101906111c0919061291b565b5050505050565b60003073ffffffffffffffffffffffffffffffffffffffff1663378efa376040518163ffffffff1660e01b8152600401602060405180830381865afa158015611214573d6000803e3d6000fd5b505050506040513d601f19601f8201168201806040525081019061123891906129fb565b905060005b828110156116dd5760005b858110156116ca57600087878381811061126457611264612a18565b905060200201602081019061127991906125f3565b905060008473ffffffffffffffffffffffffffffffffffffffff1663574e7795308989888181106112ac576112ac612a18565b6040517fffffffff0000000000000000000000000000000000000000000000000000000060e087901b16815273ffffffffffffffffffffffffffffffffffffffff90941660048501526020029190910135602483015250604401602060405180830381865afa158015611323573d6000803e3d6000fd5b505050506040513d601f19601f8201168201806040525081019061134791906129fb565b6040517f70a0823100000000000000000000000000000000000000000000000000000000815273ffffffffffffffffffffffffffffffffffffffff848116600483015291909116906370a0823190602401602060405180830381865afa1580156113b5573d6000803e3d6000fd5b505050506040513d601f19601f820116820180604052508101906113d991906128c5565b9050428787868181106113ee576113ee612a18565b90506020020135111580156114035750600081115b8015611461575073ffffffffffffffffffffffffffffffffffffffff82166000908152600f602052604081209088888781811061144257611442612a18565b602090810292909201358352508101919091526040016000205460ff16155b156116b55761146f82611e87565b600061154f8673ffffffffffffffffffffffffffffffffffffffff16632f9cd854308b8b8a8181106114a3576114a3612a18565b6040517fffffffff0000000000000000000000000000000000000000000000000000000060e087901b16815273ffffffffffffffffffffffffffffffffffffffff9485166004820152602090910292909201356024830152509087166044820152606401602060405180830381865afa158015611524573d6000803e3d6000fd5b505050506040513d601f19601f8201168201806040525081019061154891906128c5565b839061215b565b905080600b60008282546115639190612a47565b909155505073ffffffffffffffffffffffffffffffffffffffff83166000908152600c60205260408120805483929061159d908490612a47565b909155505073ffffffffffffffffffffffffffffffffffffffff83166000908152600e6020526040812080548392906115d7908490612a5e565b909155505073ffffffffffffffffffffffffffffffffffffffff83166000908152600f602052604081206001918a8a8981811061161657611616612a18565b90506020020135815260200190815260200160002060006101000a81548160ff0219169083151502179055508273ffffffffffffffffffffffffffffffffffffffff167f5758e413a9bfd3ec45a67abaa9ee2396cab143a505332bf7ab48c0e624b65f11828a8a8981811061168d5761168d612a18565b905060200201356040516116ab929190918252602082015260400190565b60405180910390a2505b505080806116c29061288c565b915050611248565b50806116d58161288c565b91505061123d565b505050505050565b60003373ffffffffffffffffffffffffffffffffffffffff167f000000000000000000000000000000000000000000000000000000000000000073ffffffffffffffffffffffffffffffffffffffff166377aace1a6040518163ffffffff1660e01b8152600401602060405180830381865afa158015611769573d6000803e3d6000fd5b505050506040513d601f19601f8201168201806040525081019061178d91906129fb565b73ffffffffffffffffffffffffffffffffffffffff16146117da576040517ffb02114900000000000000000000000000000000000000000000000000000000815260040160405180910390fd5b61181b73ffffffffffffffffffffffffffffffffffffffff7f0000000000000000000000000000000000000000000000000000000000000000168786612170565b6040517f23e30c8b00000000000000000000000000000000000000000000000000000000815260009073ffffffffffffffffffffffffffffffffffffffff8816906323e30c8b9061189a9033907f0000000000000000000000000000000000000000000000000000000000000000908a9087908b908b90600401612a76565b6020604051808303816000875af11580156118b9573d6000803e3d6000fd5b505050506040513d601f19601f820116820180604052508101906118dd91906128c5565b90507f439148f0bbc682ca079e46d6e2c2f0c1e3b820f1a291b069d8882abf8cf18dd98114611938576040517f207df21c00000000000000000000000000000000000000000000000000000000815260040160405180910390fd5b61197a73ffffffffffffffffffffffffffffffffffffffff7f000000000000000000000000000000000000000000000000000000000000000016883088611dc8565b5060019695505050505050565b6040517f70a0823100000000000000000000000000000000000000000000000000000000815230600482015260009073ffffffffffffffffffffffffffffffffffffffff8316906370a0823190602401602060405180830381865afa158015610c75573d6000803e3d6000fd5b6040517fba89bebd00000000000000000000000000000000000000000000000000000000815230600482015260248101839052604481018290526000907f000000000000000000000000000000000000000000000000000000000000000073ffffffffffffffffffffffffffffffffffffffff169063ba89bebd906064016020604051808303816000875af1158015611a91573d6000803e3d6000fd5b505050506040513d601f19601f82011682018060405250810190611ab591906128c5565b9392505050565b6040517f07a2d13a0000000000000000000000000000000000000000000000000000000081527f000000000000000000000000000000000000000000000000000000000000000060048201526000908190819073ffffffffffffffffffffffffffffffffffffffff7f000000000000000000000000000000000000000000000000000000000000000016906307a2d13a90602401602060405180830381865afa158015611b6d573d6000803e3d6000fd5b505050506040513d601f19601f82011682018060405250810190611b9191906128c5565b915091509091565b6040517f2b83cccd00000000000000000000000000000000000000000000000000000000815230600482015260248101839052604481018290527f000000000000000000000000000000000000000000000000000000000000000073ffffffffffffffffffffffffffffffffffffffff1690632b83cccd906064016020604051808303816000875af1158015611c33573d6000803e3d6000fd5b505050506040513d601f19601f82011682018060405250810190611c5791906128c5565b505050565b6007805461084290612809565b611c57838383612229565b6040517f3e3972ee0000000000000000000000000000000000000000000000000000000081523060048201526024810183905273ffffffffffffffffffffffffffffffffffffffff82811660448301527f00000000000000000000000000000000000000000000000000000000000000001690633e3972ee9060640160408051808303816000875af1158015611d0e573d6000803e3d6000fd5b505050506040513d601f19601f82011682018060405250810190611d329190612afc565b50505050565b60007f000000000000000000000000000000000000000000000000000000000000000073ffffffffffffffffffffffffffffffffffffffff168373ffffffffffffffffffffffffffffffffffffffff1614611dbf576040517f3dd1b30500000000000000000000000000000000000000000000000000000000815260040160405180910390fd5b50600092915050565b60006040517f23b872dd0000000000000000000000000000000000000000000000000000000081528460048201528360248201528260448201526020600060648360008a5af13d15601f3d11600160005114161716915050806111c0576040517f08c379a000000000000000000000000000000000000000000000000000000000815260206004820152601460248201527f5452414e534645525f46524f4d5f4641494c45440000000000000000000000006044820152606401610938565b600a546040517f70a082310000000000000000000000000000000000000000000000000000000081523060048201526000919073ffffffffffffffffffffffffffffffffffffffff7f000000000000000000000000000000000000000000000000000000000000000016906370a0823190602401602060405180830381865afa158015611f18573d6000803e3d6000fd5b505050506040513d601f19601f82011682018060405250810190611f3c91906128c5565b611f469190612a47565b600b5490915015611f8357600b54611f6c9082906b033b2e3c9fd0803ce8000000612443565b60096000828254611f7d9190612a5e565b90915550505b73ffffffffffffffffffffffffffffffffffffffff82166000908152600d6020908152604080832054600954600c90935290832054909291611fd291906b033b2e3c9fd0803ce8000000612458565b90508181111561201f5761201f73ffffffffffffffffffffffffffffffffffffffff7f00000000000000000000000000000000000000000000000000000000000000001685848403612170565b6040517f70a082310000000000000000000000000000000000000000000000000000000081523060048201527f000000000000000000000000000000000000000000000000000000000000000073ffffffffffffffffffffffffffffffffffffffff16906370a0823190602401602060405180830381865afa1580156120a9573d6000803e3d6000fd5b505050506040513d601f19601f820116820180604052508101906120cd91906128c5565b600a5573ffffffffffffffffffffffffffffffffffffffff7f000000000000000000000000000000000000000000000000000000000000000081169085167fad4a9acf26d8bba7a8cf1a41160d59be042ee554578e256c98d2ab74cdd4354284841161213a576000612144565b6121448585612a47565b60405190815260200160405180910390a350505050565b6000611ab583670de0b6b3a764000084612461565b60006040517fa9059cbb000000000000000000000000000000000000000000000000000000008152836004820152826024820152602060006044836000895af13d15601f3d1160016000511416171691505080611d32576040517f08c379a000000000000000000000000000000000000000000000000000000000815260206004820152600f60248201527f5452414e534645525f4641494c454400000000000000000000000000000000006044820152606401610938565b3360009081526008602052604090205460ff166122a2576040517f08c379a000000000000000000000000000000000000000000000000000000000815260206004820152600960248201527f554e5452555354454400000000000000000000000000000000000000000000006044820152606401610938565b6122ab83611e87565b81156123d657801561230e5781600b60008282546122c99190612a5e565b909155505073ffffffffffffffffffffffffffffffffffffffff83166000908152600c602052604081208054849290612303908490612a5e565b909155506123d69050565b73ffffffffffffffffffffffffffffffffffffffff83166000908152600e6020526040902054801561237c578083101561234c576000929003612353565b9091039060005b73ffffffffffffffffffffffffffffffffffffffff84166000908152600e602052604090208190555b82156123d45782600b60008282546123949190612a47565b909155505073ffffffffffffffffffffffffffffffffffffffff84166000908152600c6020526040812080548592906123ce908490612a47565b90915550505b505b60095473ffffffffffffffffffffffffffffffffffffffff84166000908152600c6020526040902054612415916b033b2e3c9fd0803ce8000000612480565b73ffffffffffffffffffffffffffffffffffffffff9093166000908152600d60205260409020929092555050565b6000612450848385612461565b949350505050565b60006124508484845b82820281151584158583048514171661247957600080fd5b0492915050565b60006124508484848282028115158415858304851417166124a057600080fd5b6001826001830304018115150290509392505050565b600060208083528351808285015260005b818110156124e3578581018301518582016040015282016124c7565b818111156124f5576000604083870101525b50601f017fffffffffffffffffffffffffffffffffffffffffffffffffffffffffffffffe016929092016040019392505050565b73ffffffffffffffffffffffffffffffffffffffff8116811461254b57600080fd5b50565b6000806040838503121561256157600080fd5b823561256c81612529565b946020939093013593505050565b801515811461254b57600080fd5b6000806040838503121561259b57600080fd5b82356125a681612529565b915060208301356125b68161257a565b809150509250929050565b600080600080608085870312156125d757600080fd5b5050823594602084013594506040840135936060013592509050565b60006020828403121561260557600080fd5b8135611ab581612529565b60006020828403121561262257600080fd5b5035919050565b6000806040838503121561263c57600080fd5b50508035926020909101359150565b60008083601f84011261265d57600080fd5b50813567ffffffffffffffff81111561267557600080fd5b6020830191508360208260051b850101111561269057600080fd5b9250929050565b600080600080604085870312156126ad57600080fd5b843567ffffffffffffffff808211156126c557600080fd5b6126d18883890161264b565b909650945060208701359150808211156126ea57600080fd5b506126f78782880161264b565b95989497509550505050565b60008060008060006080868803121561271b57600080fd5b853561272681612529565b9450602086013561273681612529565b935060408601359250606086013567ffffffffffffffff8082111561275a57600080fd5b818801915088601f83011261276e57600080fd5b81358181111561277d57600080fd5b89602082850101111561278f57600080fd5b9699959850939650602001949392505050565b6000806000606084860312156127b757600080fd5b83356127c281612529565b92506020840135915060408401356127d98161257a565b809150509250925092565b600080604083850312156127f757600080fd5b8235915060208301356125b681612529565b600181811c9082168061281d57607f821691505b60208210811415612857577f4e487b7100000000000000000000000000000000000000000000000000000000600052602260045260246000fd5b50919050565b7f4e487b7100000000000000000000000000000000000000000000000000000000600052601160045260246000fd5b60007fffffffffffffffffffffffffffffffffffffffffffffffffffffffffffffffff8214156128be576128be61285d565b5060010190565b6000602082840312156128d757600080fd5b5051919050565b6000817fffffffffffffffffffffffffffffffffffffffffffffffffffffffffffffffff04831182151516156129165761291661285d565b500290565b60006020828403121561292d57600080fd5b8151611ab58161257a565b805161294381612529565b919050565b60008060008060008060008060006101208a8c03121561296757600080fd5b895161297281612529565b60208b015190995065ffffffffffff8116811461298e57600080fd5b60408b015190985061299f81612529565b60608b01519097506bffffffffffffffffffffffff811681146129c157600080fd5b95506129cf60808b01612938565b945060a08a0151935060c08a0151925060e08a015191506101008a015190509295985092959850929598565b600060208284031215612a0d57600080fd5b8151611ab581612529565b7f4e487b7100000000000000000000000000000000000000000000000000000000600052603260045260246000fd5b600082821015612a5957612a5961285d565b500390565b60008219821115612a7157612a7161285d565b500190565b600073ffffffffffffffffffffffffffffffffffffffff808916835280881660208401525085604083015284606083015260a060808301528260a0830152828460c0840137600060c0848401015260c07fffffffffffffffffffffffffffffffffffffffffffffffffffffffffffffffe0601f8501168301019050979650505050505050565b60008060408385031215612b0f57600080fd5b8251612b1a81612529565b60208401519092506125b68161252956fea26469706673582212206194957314d037aaf3d4f99d19d549adda3c4c34149dc37ca109ea52e16a1bac64736f6c634300080b0033a26469706673582212202bea0dbd58666c2fb70c928fd6872dccd45237b0b93c1a65ab0dfe39355abd8d64736f6c634300080b0033",
  "devdoc": {
    "kind": "dev",
    "methods": {},
    "version": 1
  },
  "userdoc": {
    "events": {
      "AdapterAdded(address,address)": {
        "notice": "Logs the deployment of the adapter"
      }
    },
    "kind": "user",
    "methods": {
      "DEFAULT_LEVEL()": {
        "notice": "Sets level to `31` by default, which keeps all Divider lifecycle methods public (`issue`, `combine`, `collect`, etc), but not the `onRedeem` hook."
      },
      "adapters(address)": {
        "notice": "target -> adapter"
      },
      "divider()": {
        "notice": "Sense core Divider address"
      },
      "factoryParams()": {
        "notice": "params for adapters deployed with this factory"
      }
    },
    "version": 1
  },
  "storageLayout": {
    "storage": [
      {
        "astId": 8964,
        "contract": "@sense-finance/v1-core/src/tests/test-helpers/mocks/MockFactory.sol:Mock4626CropFactory",
        "label": "adapters",
        "offset": 0,
        "slot": "0",
        "type": "t_mapping(t_address,t_address)"
      },
      {
        "astId": 8968,
        "contract": "@sense-finance/v1-core/src/tests/test-helpers/mocks/MockFactory.sol:Mock4626CropFactory",
        "label": "factoryParams",
        "offset": 0,
        "slot": "1",
        "type": "t_struct(FactoryParams)8985_storage"
      },
      {
        "astId": 14111,
        "contract": "@sense-finance/v1-core/src/tests/test-helpers/mocks/MockFactory.sol:Mock4626CropFactory",
        "label": "targets",
        "offset": 0,
        "slot": "7",
        "type": "t_mapping(t_address,t_bool)"
      },
      {
        "astId": 14113,
        "contract": "@sense-finance/v1-core/src/tests/test-helpers/mocks/MockFactory.sol:Mock4626CropFactory",
        "label": "is4626",
        "offset": 0,
        "slot": "8",
        "type": "t_bool"
      }
    ],
    "types": {
      "t_address": {
        "encoding": "inplace",
        "label": "address",
        "numberOfBytes": "20"
      },
      "t_bool": {
        "encoding": "inplace",
        "label": "bool",
        "numberOfBytes": "1"
      },
      "t_mapping(t_address,t_address)": {
        "encoding": "mapping",
        "key": "t_address",
        "label": "mapping(address => address)",
        "numberOfBytes": "32",
        "value": "t_address"
      },
      "t_mapping(t_address,t_bool)": {
        "encoding": "mapping",
        "key": "t_address",
        "label": "mapping(address => bool)",
        "numberOfBytes": "32",
        "value": "t_bool"
      },
      "t_struct(FactoryParams)8985_storage": {
        "encoding": "inplace",
        "label": "struct BaseFactory.FactoryParams",
        "members": [
          {
            "astId": 8970,
            "contract": "@sense-finance/v1-core/src/tests/test-helpers/mocks/MockFactory.sol:Mock4626CropFactory",
            "label": "oracle",
            "offset": 0,
            "slot": "0",
            "type": "t_address"
          },
          {
            "astId": 8972,
            "contract": "@sense-finance/v1-core/src/tests/test-helpers/mocks/MockFactory.sol:Mock4626CropFactory",
            "label": "stake",
            "offset": 0,
            "slot": "1",
            "type": "t_address"
          },
          {
            "astId": 8974,
            "contract": "@sense-finance/v1-core/src/tests/test-helpers/mocks/MockFactory.sol:Mock4626CropFactory",
            "label": "stakeSize",
            "offset": 0,
            "slot": "2",
            "type": "t_uint256"
          },
          {
            "astId": 8976,
            "contract": "@sense-finance/v1-core/src/tests/test-helpers/mocks/MockFactory.sol:Mock4626CropFactory",
            "label": "minm",
            "offset": 0,
            "slot": "3",
            "type": "t_uint256"
          },
          {
            "astId": 8978,
            "contract": "@sense-finance/v1-core/src/tests/test-helpers/mocks/MockFactory.sol:Mock4626CropFactory",
            "label": "maxm",
            "offset": 0,
            "slot": "4",
            "type": "t_uint256"
          },
          {
            "astId": 8980,
            "contract": "@sense-finance/v1-core/src/tests/test-helpers/mocks/MockFactory.sol:Mock4626CropFactory",
            "label": "ifee",
            "offset": 0,
            "slot": "5",
            "type": "t_uint128"
          },
          {
            "astId": 8982,
            "contract": "@sense-finance/v1-core/src/tests/test-helpers/mocks/MockFactory.sol:Mock4626CropFactory",
            "label": "mode",
            "offset": 16,
            "slot": "5",
            "type": "t_uint16"
          },
          {
            "astId": 8984,
            "contract": "@sense-finance/v1-core/src/tests/test-helpers/mocks/MockFactory.sol:Mock4626CropFactory",
            "label": "tilt",
            "offset": 18,
            "slot": "5",
            "type": "t_uint64"
          }
        ],
        "numberOfBytes": "192"
      },
      "t_uint128": {
        "encoding": "inplace",
        "label": "uint128",
        "numberOfBytes": "16"
      },
      "t_uint16": {
        "encoding": "inplace",
        "label": "uint16",
        "numberOfBytes": "2"
      },
      "t_uint256": {
        "encoding": "inplace",
        "label": "uint256",
        "numberOfBytes": "32"
      },
      "t_uint64": {
        "encoding": "inplace",
        "label": "uint64",
        "numberOfBytes": "8"
      }
    }
  }
}