{
  "address": "0xE318c4014330a84e09F08ed5556e2fa6a2fC8DCc",
  "abi": [
    {
      "inputs": [],
      "stateMutability": "nonpayable",
      "type": "constructor"
    },
    {
      "inputs": [
        {
          "internalType": "address[]",
          "name": "_tokens",
          "type": "address[]"
        },
        {
          "internalType": "uint256[]",
          "name": "_amounts",
          "type": "uint256[]"
        },
        {
          "internalType": "address",
          "name": "_user",
          "type": "address"
        }
      ],
      "name": "mint",
      "outputs": [],
      "stateMutability": "nonpayable",
      "type": "function"
    },
    {
      "inputs": [],
      "name": "owner",
      "outputs": [
        {
          "internalType": "address",
          "name": "",
          "type": "address"
        }
      ],
      "stateMutability": "view",
      "type": "function"
    }
  ],
  "transactionHash": "0x9b33b5b6f53a227969b7fd3f7f8fb62c10f8d84e9e854d774f2909ca787066c0",
  "args": [],
  "numDeployments": 1,
  "solcInputHash": "ee4aa8d68e66c9506717f0b537249b36",
  "bytecode": "0x608060405234801561001057600080fd5b50600080546001600160a01b0319163317905561046c806100326000396000f3fe608060405234801561001057600080fd5b50600436106100365760003560e01c80638da5cb5b1461003b578063ddcf36d314610084575b600080fd5b60005461005b9073ffffffffffffffffffffffffffffffffffffffff1681565b60405173ffffffffffffffffffffffffffffffffffffffff909116815260200160405180910390f35b610097610092366004610304565b610099565b005b60005473ffffffffffffffffffffffffffffffffffffffff16331461011f576040517f08c379a000000000000000000000000000000000000000000000000000000000815260206004820152600a60248201527f4f4e4c595f4f574e45520000000000000000000000000000000000000000000060448201526064015b60405180910390fd5b838214610188576040517f08c379a000000000000000000000000000000000000000000000000000000000815260206004820152601560248201527f41525241595f4c454e4754485f4d49534d4154434800000000000000000000006044820152606401610116565b60005b84811015610287578585828181106101a5576101a5610385565b90506020020160208101906101ba91906103b4565b73ffffffffffffffffffffffffffffffffffffffff166340c10f19838686858181106101e8576101e8610385565b6040517fffffffff0000000000000000000000000000000000000000000000000000000060e087901b16815273ffffffffffffffffffffffffffffffffffffffff90941660048501526020029190910135602483015250604401600060405180830381600087803b15801561025c57600080fd5b505af1158015610270573d6000803e3d6000fd5b50505050808061027f906103d6565b91505061018b565b505050505050565b60008083601f8401126102a157600080fd5b50813567ffffffffffffffff8111156102b957600080fd5b6020830191508360208260051b85010111156102d457600080fd5b9250929050565b803573ffffffffffffffffffffffffffffffffffffffff811681146102ff57600080fd5b919050565b60008060008060006060868803121561031c57600080fd5b853567ffffffffffffffff8082111561033457600080fd5b61034089838a0161028f565b9097509550602088013591508082111561035957600080fd5b506103668882890161028f565b90945092506103799050604087016102db565b90509295509295909350565b7f4e487b7100000000000000000000000000000000000000000000000000000000600052603260045260246000fd5b6000602082840312156103c657600080fd5b6103cf826102db565b9392505050565b60007fffffffffffffffffffffffffffffffffffffffffffffffffffffffffffffffff82141561042f577f4e487b7100000000000000000000000000000000000000000000000000000000600052601160045260246000fd5b506001019056fea2646970667358221220b0da71b6fb84c0cca41eb64f71ac539302c5bc80eafdf657653de10d298d439e64736f6c634300080b0033",
  "devdoc": {
    "kind": "dev",
    "methods": {
      "mint(address[],uint256[],address)": {
        "details": "Assumes this contract has authority over the passed in tokens"
      }
    },
    "version": 1
  },
  "userdoc": {
    "kind": "user",
    "methods": {},
    "version": 1
  },
  "storageLayout": {
    "storage": [
      {
        "astId": 11,
        "contract": "src/MultiMint.sol:MultiMint",
        "label": "owner",
        "offset": 0,
        "slot": "0",
        "type": "t_address"
      }
    ],
    "types": {
      "t_address": {
        "encoding": "inplace",
        "label": "address",
        "numberOfBytes": "20"
      }
    }
  }
}