{
  "address": "0x8DC1B05d9A50d7fE500996E139fD9d2eaeeA65aF",
  "abi": [
    {
      "inputs": [],
      "stateMutability": "nonpayable",
      "type": "constructor"
    },
    {
      "inputs": [],
      "name": "AlreadyInitialized",
      "type": "error"
    },
    {
      "inputs": [],
      "name": "OnlyDivider",
      "type": "error"
    },
    {
      "anonymous": false,
      "inputs": [
        {
          "indexed": true,
          "internalType": "address",
          "name": "user",
          "type": "address"
        },
        {
          "indexed": false,
          "internalType": "bool",
          "name": "trusted",
          "type": "bool"
        }
      ],
      "name": "UserTrustUpdated",
      "type": "event"
    },
    {
      "inputs": [
        {
          "internalType": "address",
          "name": "adapter",
          "type": "address"
        },
        {
          "internalType": "uint248",
          "name": "id",
          "type": "uint248"
        },
        {
          "internalType": "uint256",
          "name": "maturity",
          "type": "uint256"
        }
      ],
      "name": "deploy",
      "outputs": [
        {
          "internalType": "address",
          "name": "pt",
          "type": "address"
        },
        {
          "internalType": "address",
          "name": "yt",
          "type": "address"
        }
      ],
      "stateMutability": "nonpayable",
      "type": "function"
    },
    {
      "inputs": [],
      "name": "divider",
      "outputs": [
        {
          "internalType": "address",
          "name": "",
          "type": "address"
        }
      ],
      "stateMutability": "view",
      "type": "function"
    },
    {
      "inputs": [
        {
          "internalType": "address",
          "name": "_divider",
          "type": "address"
        }
      ],
      "name": "init",
      "outputs": [],
      "stateMutability": "nonpayable",
      "type": "function"
    },
    {
      "inputs": [
        {
          "internalType": "address",
          "name": "",
          "type": "address"
        }
      ],
      "name": "isTrusted",
      "outputs": [
        {
          "internalType": "bool",
          "name": "",
          "type": "bool"
        }
      ],
      "stateMutability": "view",
      "type": "function"
    },
    {
      "inputs": [
        {
          "internalType": "address",
          "name": "user",
          "type": "address"
        },
        {
          "internalType": "bool",
          "name": "trusted",
          "type": "bool"
        }
      ],
      "name": "setIsTrusted",
      "outputs": [],
      "stateMutability": "nonpayable",
      "type": "function"
    }
  ],
  "transactionHash": "0xeb8136d7d8ca1e3af69370dadaa4ec6afe644f6727dde4768058dba012904015",
  "args": [],
  "numDeployments": 1,
  "solcInputHash": "e6e4c9ea960c200f06b8bf15d2380dca",
  "bytecode": "0x608060405234801561001057600080fd5b503360008181526020818152604091829020805460ff19166001908117909155915191825282917fe95aec380cae16330d146d5499ef7db6f3657e477104a733e771bc09e500d986910160405180910390a2506149f6806100726000396000f3fe60806040523480156200001157600080fd5b50600436106200006f5760003560e01c8063378efa371162000056578063378efa3714620000a457806396d6487914620000ef578063afd3adb0146200012657600080fd5b80631393916a146200007457806319ab453c146200008d575b600080fd5b6200008b6200008536600462000fe8565b6200016b565b005b6200008b6200009e3660046200102a565b62000272565b600154620000c59073ffffffffffffffffffffffffffffffffffffffff1681565b60405173ffffffffffffffffffffffffffffffffffffffff90911681526020015b60405180910390f35b62000115620001003660046200102a565b60006020819052908152604090205460ff1681565b6040519015158152602001620000e6565b6200013d6200013736600462001051565b62000385565b6040805173ffffffffffffffffffffffffffffffffffffffff938416815292909116602083015201620000e6565b3360009081526020819052604090205460ff16620001ea576040517f08c379a000000000000000000000000000000000000000000000000000000000815260206004820152600960248201527f554e54525553544544000000000000000000000000000000000000000000000060448201526064015b60405180910390fd5b73ffffffffffffffffffffffffffffffffffffffff82166000818152602081815260409182902080547fffffffffffffffffffffffffffffffffffffffffffffffffffffffffffffff001685151590811790915591519182527fe95aec380cae16330d146d5499ef7db6f3657e477104a733e771bc09e500d986910160405180910390a25050565b3360009081526020819052604090205460ff16620002ed576040517f08c379a000000000000000000000000000000000000000000000000000000000815260206004820152600960248201527f554e5452555354454400000000000000000000000000000000000000000000006044820152606401620001e1565b60015473ffffffffffffffffffffffffffffffffffffffff16156200033e576040517f0dc149f000000000000000000000000000000000000000000000000000000000815260040160405180910390fd5b600180547fffffffffffffffffffffffff00000000000000000000000000000000000000001673ffffffffffffffffffffffffffffffffffffffff92909216919091179055565b600154600090819073ffffffffffffffffffffffffffffffffffffffff163314620003dc576040517f8604e36100000000000000000000000000000000000000000000000000000000815260040160405180910390fd5b60008573ffffffffffffffffffffffffffffffffffffffff1663d4b839926040518163ffffffff1660e01b8152600401602060405180830381865afa1580156200042a573d6000803e3d6000fd5b505050506040513d601f19601f82011682018060405250810190620004509190620010ba565b905060008173ffffffffffffffffffffffffffffffffffffffff1663313ce5676040518163ffffffff1660e01b8152600401602060405180830381865afa158015620004a0573d6000803e3d6000fd5b505050506040513d601f19601f82011682018060405250810190620004c69190620010da565b905060008273ffffffffffffffffffffffffffffffffffffffff166395d89b416040518163ffffffff1660e01b8152600401600060405180830381865afa15801562000516573d6000803e3d6000fd5b505050506040513d6000823e601f3d9081017fffffffffffffffffffffffffffffffffffffffffffffffffffffffffffffffe01682016040526200055e919081019062001161565b9050600080600062000570896200077c565b9250925092506000620005838a62000826565b905060008484846040516020016200059e9392919062001238565b60405160208183030381529060405290506000620005dd8d7effffffffffffffffffffffffffffffffffffffffffffffffffffffffffffff1662000c57565b9050828782604051602001620005f693929190620012b4565b6040516020818303038152906040528783836040516020016200061c9392919062001351565b604080517fffffffffffffffffffffffffffffffffffffffffffffffffffffffffffffffe08184030181529082905260015490918b9173ffffffffffffffffffffffffffffffffffffffff1690620006749062000fa6565b62000683949392919062001442565b604051809103906000f080158015620006a0573d6000803e3d6000fd5b509a508d8c848984604051602001620006bc939291906200149c565b604051602081830303815290604052898585604051602001620006e29392919062001539565b604080517fffffffffffffffffffffffffffffffffffffffffffffffffffffffffffffffe08184030181529082905260015490918d9173ffffffffffffffffffffffffffffffffffffffff16906200073a9062000fb4565b6200074b9695949392919062001573565b604051809103906000f08015801562000768573d6000803e3d6000fd5b509950505050505050505050935093915050565b60608060606000806000620007918762000dd0565b925092509250620007a28162000c57565b9550620007af8262000c57565b9450620007bc8362000c57565b9350600a811015620007ed5785604051602001620007db9190620015de565b60405160208183030381529060405295505b600a8210156200081c57846040516020016200080a9190620015de565b60405160208183030381529060405294505b5050509193909250565b604080516101c081018252600361018082018181527f4a616e00000000000000000000000000000000000000000000000000000000006101a08401528252825180840184528181527f466562000000000000000000000000000000000000000000000000000000000060208281019190915280840191909152835180850185528281527f4d617200000000000000000000000000000000000000000000000000000000008183015283850152835180850185528281527f417072000000000000000000000000000000000000000000000000000000000081830152606084810191909152845180860186528381527f4d617900000000000000000000000000000000000000000000000000000000008184015260808501528451808601865260048082527f4a756e65000000000000000000000000000000000000000000000000000000008285015260a0860191909152855180870187528181527f4a756c79000000000000000000000000000000000000000000000000000000008185015260c0860152855180870187528481527f41756700000000000000000000000000000000000000000000000000000000008185015260e0860152855180870187529081527f536570740000000000000000000000000000000000000000000000000000000081840152610100850152845180860186528381527f4f6374000000000000000000000000000000000000000000000000000000000081840152610120850152845180860186528381527f4e6f7600000000000000000000000000000000000000000000000000000000008184015261014085015284518086019095529184527f4465630000000000000000000000000000000000000000000000000000000000908401526101608201929092526000808062000ac68662000dd0565b91945092509050600062000adc600a8362001654565b60408051808201909152600281527f74680000000000000000000000000000000000000000000000000000000000006020820152909150600b83108062000b235750601483115b1562000be957816001141562000b69575060408051808201909152600281527f737400000000000000000000000000000000000000000000000000000000000060208201525b816002141562000ba9575060408051808201909152600281527f6e6400000000000000000000000000000000000000000000000000000000000060208201525b816003141562000be9575060408051808201909152600281527f726400000000000000000000000000000000000000000000000000000000000060208201525b62000bf48362000c57565b818762000c036001886200169a565b600c811062000c165762000c16620016b4565b602002015162000c268862000c57565b60405160200162000c3b9493929190620016e3565b6040516020818303038152906040529650505050505050919050565b60608162000c9857505060408051808201909152600181527f3000000000000000000000000000000000000000000000000000000000000000602082015290565b8160005b811562000cc8578062000caf8162001776565b915062000cc09050600a83620017b2565b915062000c9c565b60008167ffffffffffffffff81111562000ce65762000ce6620010ff565b6040519080825280601f01601f19166020018201604052801562000d11576020820181803683370190505b509050815b851562000dc75762000d2a6001826200169a565b9050600062000d3b600a88620017b2565b62000d4890600a620017c9565b62000d5490886200169a565b62000d6190603062001809565b905060008160f81b90508084848151811062000d815762000d81620016b4565b60200101907effffffffffffffffffffffffffffffffffffffffffffffffffffffffffffff1916908160001a90535062000dbd600a89620017b2565b9750505062000d16565b50949350505050565b6000808062000ded62000de76201518086620017b2565b62000dfa565b9196909550909350915050565b60008080838162253d8c62000e138362010bd962001831565b62000e1f919062001831565b9050600062023ab162000e34836004620018ab565b62000e40919062001973565b9050600462000e538262023ab1620018ab565b62000e6090600362001831565b62000e6c919062001973565b62000e789083620019e1565b9150600062164b0962000e8d84600162001831565b62000e9b90610fa0620018ab565b62000ea7919062001973565b9050600462000eb9826105b5620018ab565b62000ec5919062001973565b62000ed19084620019e1565b62000ede90601f62001831565b9250600061098f62000ef2856050620018ab565b62000efe919062001973565b90506000605062000f128361098f620018ab565b62000f1e919062001973565b62000f2a9086620019e1565b905062000f39600b8362001973565b945062000f4885600c620018ab565b62000f5583600262001831565b62000f619190620019e1565b9150848362000f72603187620019e1565b62000f7f906064620018ab565b62000f8b919062001831565b62000f97919062001831565b9a919950975095505050505050565b61151e8062001a5c83390190565b611a478062002f7a83390190565b73ffffffffffffffffffffffffffffffffffffffff8116811462000fe557600080fd5b50565b6000806040838503121562000ffc57600080fd5b8235620010098162000fc2565b9150602083013580151581146200101f57600080fd5b809150509250929050565b6000602082840312156200103d57600080fd5b81356200104a8162000fc2565b9392505050565b6000806000606084860312156200106757600080fd5b8335620010748162000fc2565b925060208401357effffffffffffffffffffffffffffffffffffffffffffffffffffffffffffff81168114620010a957600080fd5b929592945050506040919091013590565b600060208284031215620010cd57600080fd5b81516200104a8162000fc2565b600060208284031215620010ed57600080fd5b815160ff811681146200104a57600080fd5b7f4e487b7100000000000000000000000000000000000000000000000000000000600052604160045260246000fd5b60005b838110156200114b57818101518382015260200162001131565b838111156200115b576000848401525b50505050565b6000602082840312156200117457600080fd5b815167ffffffffffffffff808211156200118d57600080fd5b818401915084601f830112620011a257600080fd5b815181811115620011b757620011b7620010ff565b604051601f82017fffffffffffffffffffffffffffffffffffffffffffffffffffffffffffffffe0908116603f01168101908382118183101715620012005762001200620010ff565b816040528281528760208487010111156200121a57600080fd5b6200122d8360208301602088016200112e565b979650505050505050565b600084516200124c8184602089016200112e565b80830190507f2d0000000000000000000000000000000000000000000000000000000000000080825285516200128a816001850160208a016200112e565b60019201918201528351620012a78160028401602088016200112e565b0160020195945050505050565b60008451620012c88184602089016200112e565b7f20000000000000000000000000000000000000000000000000000000000000009083019081528451620013048160018401602089016200112e565b7f2053656e7365205072696e636970616c20546f6b656e2c2041000000000000006001929091019182015283516200134481601a8401602088016200112e565b01601a0195945050505050565b7f73502d00000000000000000000000000000000000000000000000000000000008152600084516200138b8160038501602089016200112e565b80830190507f3a000000000000000000000000000000000000000000000000000000000000008060038301528551620013cc816004850160208a016200112e565b60049201918201528351620013e98160058401602088016200112e565b0160050195945050505050565b60008151808452620014108160208601602086016200112e565b601f017fffffffffffffffffffffffffffffffffffffffffffffffffffffffffffffffe0169290920160200192915050565b608081526000620014576080830187620013f6565b82810360208401526200146b8187620013f6565b91505060ff8416604083015273ffffffffffffffffffffffffffffffffffffffff8316606083015295945050505050565b60008451620014b08184602089016200112e565b7f20000000000000000000000000000000000000000000000000000000000000009083019081528451620014ec8160018401602089016200112e565b7f2053656e7365205969656c6420546f6b656e2c204100000000000000000000006001929091019182015283516200152c8160168401602088016200112e565b0160160195945050505050565b7f73592d00000000000000000000000000000000000000000000000000000000008152600084516200138b8160038501602089016200112e565b600073ffffffffffffffffffffffffffffffffffffffff808916835287602084015260c06040840152620015ab60c0840188620013f6565b8381036060850152620015bf8188620013f6565b60ff969096166080850152509290921660a09091015250949350505050565b7f3000000000000000000000000000000000000000000000000000000000000000815260008251620016188160018501602087016200112e565b9190910160010192915050565b7f4e487b7100000000000000000000000000000000000000000000000000000000600052601260045260246000fd5b60008262001666576200166662001625565b500690565b7f4e487b7100000000000000000000000000000000000000000000000000000000600052601160045260246000fd5b600082821015620016af57620016af6200166b565b500390565b7f4e487b7100000000000000000000000000000000000000000000000000000000600052603260045260246000fd5b60008551620016f7818460208a016200112e565b8551908301906200170d818360208a016200112e565b7f2000000000000000000000000000000000000000000000000000000000000000910181815285519091906200174b816001850160208a016200112e565b60019201918201528351620017688160028401602088016200112e565b016002019695505050505050565b60007fffffffffffffffffffffffffffffffffffffffffffffffffffffffffffffffff821415620017ab57620017ab6200166b565b5060010190565b600082620017c457620017c462001625565b500490565b6000817fffffffffffffffffffffffffffffffffffffffffffffffffffffffffffffffff04831182151516156200180457620018046200166b565b500290565b600060ff821660ff84168060ff038211156200182957620018296200166b565b019392505050565b6000808212827f7fffffffffffffffffffffffffffffffffffffffffffffffffffffffffffffff038413811516156200186e576200186e6200166b565b827f8000000000000000000000000000000000000000000000000000000000000000038412811615620018a557620018a56200166b565b50500190565b60007f7fffffffffffffffffffffffffffffffffffffffffffffffffffffffffffffff600084136000841385830485118282161615620018ef57620018ef6200166b565b7f800000000000000000000000000000000000000000000000000000000000000060008712868205881281841616156200192d576200192d6200166b565b600087129250878205871284841616156200194c576200194c6200166b565b878505871281841616156200196557620019656200166b565b505050929093029392505050565b60008262001985576200198562001625565b7fffffffffffffffffffffffffffffffffffffffffffffffffffffffffffffffff83147f800000000000000000000000000000000000000000000000000000000000000083141615620019dc57620019dc6200166b565b500590565b6000808312837f80000000000000000000000000000000000000000000000000000000000000000183128115161562001a1e5762001a1e6200166b565b837f7fffffffffffffffffffffffffffffffffffffffffffffffffffffffffffffff01831381161562001a555762001a556200166b565b5050039056fe60e06040523480156200001157600080fd5b506040516200151e3803806200151e8339810160408190526200003491620002f6565b8084848482600090805190602001906200005092919062000183565b5081516200006690600190602085019062000183565b5060ff81166080524660a0526200007c620000e7565b60c0525050506001600160a01b038116600081815260066020908152604091829020805460ff1916600190811790915591519182527fe95aec380cae16330d146d5499ef7db6f3657e477104a733e771bc09e500d986910160405180910390a250505050506200047b565b60007f8b73c3c69bb8fe3d512ecc4cf759cc79239f7b179b0ffacaa9a75d522b39400f60006040516200011b9190620003d7565b6040805191829003822060208301939093528101919091527fc89efdaa54c0f20c7adf612882df0950f5a951637e0307cdcb4c672f298b8bc660608201524660808201523060a082015260c00160405160208183030381529060405280519060200120905090565b82805462000191906200039a565b90600052602060002090601f016020900481019282620001b5576000855562000200565b82601f10620001d057805160ff191683800117855562000200565b8280016001018555821562000200579182015b8281111562000200578251825591602001919060010190620001e3565b506200020e92915062000212565b5090565b5b808211156200020e576000815560010162000213565b634e487b7160e01b600052604160045260246000fd5b600082601f8301126200025157600080fd5b81516001600160401b03808211156200026e576200026e62000229565b604051601f8301601f19908116603f0116810190828211818310171562000299576200029962000229565b81604052838152602092508683858801011115620002b657600080fd5b600091505b83821015620002da5785820183015181830184015290820190620002bb565b83821115620002ec5760008385830101525b9695505050505050565b600080600080608085870312156200030d57600080fd5b84516001600160401b03808211156200032557600080fd5b62000333888389016200023f565b955060208701519150808211156200034a57600080fd5b5062000359878288016200023f565b935050604085015160ff811681146200037157600080fd5b60608601519092506001600160a01b03811681146200038f57600080fd5b939692955090935050565b600181811c90821680620003af57607f821691505b60208210811415620003d157634e487b7160e01b600052602260045260246000fd5b50919050565b600080835481600182811c915080831680620003f457607f831692505b60208084108214156200041557634e487b7160e01b86526022600452602486fd5b8180156200042c57600181146200043e576200046d565b60ff198616895284890196506200046d565b60008a81526020902060005b86811015620004655781548b8201529085019083016200044a565b505084890196505b509498975050505050505050565b60805160a05160c051611073620004ab6000396000610634015260006105ff0152600061018a01526110736000f3fe608060405234801561001057600080fd5b50600436106101005760003560e01c806370a08231116100975780639dc29fac116100665780639dc29fac14610244578063a9059cbb14610257578063d505accf1461026a578063dd62ed3e1461027d57600080fd5b806370a08231146101d95780637ecebe00146101f957806395d89b411461021957806396d648791461022157600080fd5b806323b872dd116100d357806323b872dd14610172578063313ce567146101855780633644e515146101be57806340c10f19146101c657600080fd5b806306fdde0314610105578063095ea7b3146101235780631393916a1461014657806318160ddd1461015b575b600080fd5b61010d6102a8565b60405161011a9190610cb2565b60405180910390f35b610136610131366004610d4e565b610336565b604051901515815260200161011a565b610159610154366004610d78565b6103af565b005b61016460025481565b60405190815260200161011a565b610136610180366004610db4565b6104b7565b6101ac7f000000000000000000000000000000000000000000000000000000000000000081565b60405160ff909116815260200161011a565b6101646105fb565b6101596101d4366004610d4e565b610656565b6101646101e7366004610df0565b60036020526000908152604090205481565b610164610207366004610df0565b60056020526000908152604090205481565b61010d6106dd565b61013661022f366004610df0565b60066020526000908152604090205460ff1681565b610159610252366004610d4e565b6106ea565b610136610265366004610d4e565b61076d565b610159610278366004610e12565b6107f2565b61016461028b366004610e85565b600460209081526000928352604080842090915290825290205481565b600080546102b590610eb8565b80601f01602080910402602001604051908101604052809291908181526020018280546102e190610eb8565b801561032e5780601f106103035761010080835404028352916020019161032e565b820191906000526020600020905b81548152906001019060200180831161031157829003601f168201915b505050505081565b33600081815260046020908152604080832073ffffffffffffffffffffffffffffffffffffffff8716808552925280832085905551919290917f8c5be1e5ebec7d5bd14f71427d1e84f3dd0314c0f7b2291e5b200ac8c7c3b9259061039e9086815260200190565b60405180910390a350600192915050565b3360009081526006602052604090205460ff1661042d576040517f08c379a000000000000000000000000000000000000000000000000000000000815260206004820152600960248201527f554e54525553544544000000000000000000000000000000000000000000000060448201526064015b60405180910390fd5b73ffffffffffffffffffffffffffffffffffffffff821660008181526006602090815260409182902080547fffffffffffffffffffffffffffffffffffffffffffffffffffffffffffffff001685151590811790915591519182527fe95aec380cae16330d146d5499ef7db6f3657e477104a733e771bc09e500d986910160405180910390a25050565b73ffffffffffffffffffffffffffffffffffffffff831660009081526004602090815260408083203384529091528120547fffffffffffffffffffffffffffffffffffffffffffffffffffffffffffffffff811461054b576105198382610f3b565b73ffffffffffffffffffffffffffffffffffffffff861660009081526004602090815260408083203384529091529020555b73ffffffffffffffffffffffffffffffffffffffff851660009081526003602052604081208054859290610580908490610f3b565b909155505073ffffffffffffffffffffffffffffffffffffffff808516600081815260036020526040908190208054870190555190918716907fddf252ad1be2c89b69c2b068fc378daa952ba7f163c4a11628f55a4df523b3ef906105e89087815260200190565b60405180910390a3506001949350505050565b60007f000000000000000000000000000000000000000000000000000000000000000046146106315761062c610b11565b905090565b507f000000000000000000000000000000000000000000000000000000000000000090565b3360009081526006602052604090205460ff166106cf576040517f08c379a000000000000000000000000000000000000000000000000000000000815260206004820152600960248201527f554e5452555354454400000000000000000000000000000000000000000000006044820152606401610424565b6106d98282610bab565b5050565b600180546102b590610eb8565b3360009081526006602052604090205460ff16610763576040517f08c379a000000000000000000000000000000000000000000000000000000000815260206004820152600960248201527f554e5452555354454400000000000000000000000000000000000000000000006044820152606401610424565b6106d98282610c24565b3360009081526003602052604081208054839190839061078e908490610f3b565b909155505073ffffffffffffffffffffffffffffffffffffffff8316600081815260036020526040908190208054850190555133907fddf252ad1be2c89b69c2b068fc378daa952ba7f163c4a11628f55a4df523b3ef9061039e9086815260200190565b4284101561085c576040517f08c379a000000000000000000000000000000000000000000000000000000000815260206004820152601760248201527f5045524d49545f444541444c494e455f455850495245440000000000000000006044820152606401610424565b600060016108686105fb565b73ffffffffffffffffffffffffffffffffffffffff8a811660008181526005602090815260409182902080546001810190915582517f6e71edae12b1b97f4d1f60370fef10105fa2faae0126114a169c64845d6126c98184015280840194909452938d166060840152608083018c905260a083019390935260c08083018b90528151808403909101815260e0830190915280519201919091207f190100000000000000000000000000000000000000000000000000000000000061010083015261010282019290925261012281019190915261014201604080517fffffffffffffffffffffffffffffffffffffffffffffffffffffffffffffffe08184030181528282528051602091820120600084529083018083525260ff871690820152606081018590526080810184905260a0016020604051602081039080840390855afa1580156109ba573d6000803e3d6000fd5b50506040517fffffffffffffffffffffffffffffffffffffffffffffffffffffffffffffffe0015191505073ffffffffffffffffffffffffffffffffffffffff811615801590610a3557508773ffffffffffffffffffffffffffffffffffffffff168173ffffffffffffffffffffffffffffffffffffffff16145b610a9b576040517f08c379a000000000000000000000000000000000000000000000000000000000815260206004820152600e60248201527f494e56414c49445f5349474e45520000000000000000000000000000000000006044820152606401610424565b73ffffffffffffffffffffffffffffffffffffffff90811660009081526004602090815260408083208a8516808552908352928190208990555188815291928a16917f8c5be1e5ebec7d5bd14f71427d1e84f3dd0314c0f7b2291e5b200ac8c7c3b925910160405180910390a350505050505050565b60007f8b73c3c69bb8fe3d512ecc4cf759cc79239f7b179b0ffacaa9a75d522b39400f6000604051610b439190610f52565b6040805191829003822060208301939093528101919091527fc89efdaa54c0f20c7adf612882df0950f5a951637e0307cdcb4c672f298b8bc660608201524660808201523060a082015260c00160405160208183030381529060405280519060200120905090565b8060026000828254610bbd9190611025565b909155505073ffffffffffffffffffffffffffffffffffffffff82166000818152600360209081526040808320805486019055518481527fddf252ad1be2c89b69c2b068fc378daa952ba7f163c4a11628f55a4df523b3ef91015b60405180910390a35050565b73ffffffffffffffffffffffffffffffffffffffff821660009081526003602052604081208054839290610c59908490610f3b565b909155505060028054829003905560405181815260009073ffffffffffffffffffffffffffffffffffffffff8416907fddf252ad1be2c89b69c2b068fc378daa952ba7f163c4a11628f55a4df523b3ef90602001610c18565b600060208083528351808285015260005b81811015610cdf57858101830151858201604001528201610cc3565b81811115610cf1576000604083870101525b50601f017fffffffffffffffffffffffffffffffffffffffffffffffffffffffffffffffe016929092016040019392505050565b803573ffffffffffffffffffffffffffffffffffffffff81168114610d4957600080fd5b919050565b60008060408385031215610d6157600080fd5b610d6a83610d25565b946020939093013593505050565b60008060408385031215610d8b57600080fd5b610d9483610d25565b915060208301358015158114610da957600080fd5b809150509250929050565b600080600060608486031215610dc957600080fd5b610dd284610d25565b9250610de060208501610d25565b9150604084013590509250925092565b600060208284031215610e0257600080fd5b610e0b82610d25565b9392505050565b600080600080600080600060e0888a031215610e2d57600080fd5b610e3688610d25565b9650610e4460208901610d25565b95506040880135945060608801359350608088013560ff81168114610e6857600080fd5b9699959850939692959460a0840135945060c09093013592915050565b60008060408385031215610e9857600080fd5b610ea183610d25565b9150610eaf60208401610d25565b90509250929050565b600181811c90821680610ecc57607f821691505b60208210811415610f06577f4e487b7100000000000000000000000000000000000000000000000000000000600052602260045260246000fd5b50919050565b7f4e487b7100000000000000000000000000000000000000000000000000000000600052601160045260246000fd5b600082821015610f4d57610f4d610f0c565b500390565b600080835481600182811c915080831680610f6e57607f831692505b6020808410821415610fa7577f4e487b710000000000000000000000000000000000000000000000000000000086526022600452602486fd5b818015610fbb5760018114610fea57611017565b7fffffffffffffffffffffffffffffffffffffffffffffffffffffffffffffff00861689528489019650611017565b60008a81526020902060005b8681101561100f5781548b820152908501908301610ff6565b505084890196505b509498975050505050505050565b6000821982111561103857611038610f0c565b50019056fea264697066735822122013ab10c38efe9ee9e492882433ecc7a73a6bd360ed2b32500f1f0ae1006a16e764736f6c634300080b00336101406040523480156200001257600080fd5b5060405162001a4738038062001a47833981016040819052620000359162000335565b8383838380848484826000908051906020019062000055929190620001a5565b5081516200006b906001906020850190620001a5565b5060ff81166080524660a0526200008162000109565b60c0525050506001600160a01b038116600081815260066020908152604091829020805460ff1916600190811790915591519182527fe95aec380cae16330d146d5499ef7db6f3657e477104a733e771bc09e500d986910160405180910390a25050506001600160a01b0397881660e0525050610120949094525050501661010052620004c8565b60007f8b73c3c69bb8fe3d512ecc4cf759cc79239f7b179b0ffacaa9a75d522b39400f60006040516200013d919062000424565b6040805191829003822060208301939093528101919091527fc89efdaa54c0f20c7adf612882df0950f5a951637e0307cdcb4c672f298b8bc660608201524660808201523060a082015260c00160405160208183030381529060405280519060200120905090565b828054620001b390620003e7565b90600052602060002090601f016020900481019282620001d7576000855562000222565b82601f10620001f257805160ff191683800117855562000222565b8280016001018555821562000222579182015b828111156200022257825182559160200191906001019062000205565b506200023092915062000234565b5090565b5b8082111562000230576000815560010162000235565b80516001600160a01b03811681146200026357600080fd5b919050565b634e487b7160e01b600052604160045260246000fd5b600082601f8301126200029057600080fd5b81516001600160401b0380821115620002ad57620002ad62000268565b604051601f8301601f19908116603f01168101908282118183101715620002d857620002d862000268565b81604052838152602092508683858801011115620002f557600080fd5b600091505b83821015620003195785820183015181830184015290820190620002fa565b838211156200032b5760008385830101525b9695505050505050565b60008060008060008060c087890312156200034f57600080fd5b6200035a876200024b565b6020880151604089015191975095506001600160401b03808211156200037f57600080fd5b6200038d8a838b016200027e565b95506060890151915080821115620003a457600080fd5b50620003b389828a016200027e565b935050608087015160ff81168114620003cb57600080fd5b9150620003db60a088016200024b565b90509295509295509295565b600181811c90821680620003fc57607f821691505b602082108114156200041e57634e487b7160e01b600052602260045260246000fd5b50919050565b600080835481600182811c9150808316806200044157607f831692505b60208084108214156200046257634e487b7160e01b86526022600452602486fd5b8180156200047957600181146200048b57620004ba565b60ff19861689528489019650620004ba565b60008a81526020902060005b86811015620004b25781548b82015290850190830162000497565b505084890196505b509498975050505050505050565b60805160a05160c05160e05161010051610120516114f0620005576000396000818161022b01528181610636015281816108ca0152610d0d0152600081816102a60152818161066b015281816109020152610d440152600081816101760152818161060e015281816108a20152610ce501526000610726015260006106f10152600061026501526114f06000f3fe608060405234801561001057600080fd5b506004361061016c5760003560e01c806340c10f19116100cd5780639dc29fac11610081578063d505accf11610066578063d505accf1461036c578063dd62ed3e1461037f578063e5225381146103aa57600080fd5b80639dc29fac14610346578063a9059cbb1461035957600080fd5b80637ecebe00116100b25780637ecebe00146102fb57806395d89b411461031b57806396d648791461032357600080fd5b806340c10f19146102c857806370a08231146102db57600080fd5b8063204f83f911610124578063313ce56711610109578063313ce567146102605780633644e51514610299578063378efa37146102a157600080fd5b8063204f83f91461022657806323b872dd1461024d57600080fd5b8063095ea7b311610155578063095ea7b3146101d75780631393916a146101fa57806318160ddd1461020f57600080fd5b806303eadcfc1461017157806306fdde03146101c2575b600080fd5b6101987f000000000000000000000000000000000000000000000000000000000000000081565b60405173ffffffffffffffffffffffffffffffffffffffff90911681526020015b60405180910390f35b6101ca6103b2565b6040516101b9919061111d565b6101ea6101e53660046111b9565b610440565b60405190151581526020016101b9565b61020d6102083660046111e3565b6104b9565b005b61021860025481565b6040519081526020016101b9565b6102187f000000000000000000000000000000000000000000000000000000000000000081565b6101ea61025b36600461121f565b6105c1565b6102877f000000000000000000000000000000000000000000000000000000000000000081565b60405160ff90911681526020016101b9565b6102186106ed565b6101987f000000000000000000000000000000000000000000000000000000000000000081565b61020d6102d63660046111b9565b610748565b6102186102e936600461125b565b60036020526000908152604090205481565b61021861030936600461125b565b60056020526000908152604090205481565b6101ca6107cf565b6101ea61033136600461125b565b60066020526000908152604090205460ff1681565b61020d6103543660046111b9565b6107dc565b6101ea6103673660046111b9565b61085f565b61020d61037a366004611276565b610983565b61021861038d3660046112e9565b600460209081526000928352604080842090915290825290205481565b610218610ca2565b600080546103bf9061131c565b80601f01602080910402602001604051908101604052809291908181526020018280546103eb9061131c565b80156104385780601f1061040d57610100808354040283529160200191610438565b820191906000526020600020905b81548152906001019060200180831161041b57829003601f168201915b505050505081565b33600081815260046020908152604080832073ffffffffffffffffffffffffffffffffffffffff8716808552925280832085905551919290917f8c5be1e5ebec7d5bd14f71427d1e84f3dd0314c0f7b2291e5b200ac8c7c3b925906104a89086815260200190565b60405180910390a350600192915050565b3360009081526006602052604090205460ff16610537576040517f08c379a000000000000000000000000000000000000000000000000000000000815260206004820152600960248201527f554e54525553544544000000000000000000000000000000000000000000000060448201526064015b60405180910390fd5b73ffffffffffffffffffffffffffffffffffffffff821660008181526006602090815260409182902080547fffffffffffffffffffffffffffffffffffffffffffffffffffffffffffffff001685151590811790915591519182527fe95aec380cae16330d146d5499ef7db6f3657e477104a733e771bc09e500d986910160405180910390a25050565b600081156106da576040517fa131ad7400000000000000000000000000000000000000000000000000000000815273ffffffffffffffffffffffffffffffffffffffff85811660048301527f0000000000000000000000000000000000000000000000000000000000000000811660248301527f000000000000000000000000000000000000000000000000000000000000000060448301526064820184905284811660848301527f0000000000000000000000000000000000000000000000000000000000000000169063a131ad749060a4016020604051808303816000875af11580156106b4573d6000803e3d6000fd5b505050506040513d601f19601f820116820180604052508101906106d89190611370565b505b6106e5848484610db3565b949350505050565b60007f000000000000000000000000000000000000000000000000000000000000000046146107235761071e610ef7565b905090565b507f000000000000000000000000000000000000000000000000000000000000000090565b3360009081526006602052604090205460ff166107c1576040517f08c379a000000000000000000000000000000000000000000000000000000000815260206004820152600960248201527f554e545255535445440000000000000000000000000000000000000000000000604482015260640161052e565b6107cb8282610f91565b5050565b600180546103bf9061131c565b3360009081526006602052604090205460ff16610855576040517f08c379a000000000000000000000000000000000000000000000000000000000815260206004820152600960248201527f554e545255535445440000000000000000000000000000000000000000000000604482015260640161052e565b6107cb828261100a565b6040517fa131ad7400000000000000000000000000000000000000000000000000000000815233600482015273ffffffffffffffffffffffffffffffffffffffff7f0000000000000000000000000000000000000000000000000000000000000000811660248301527f000000000000000000000000000000000000000000000000000000000000000060448301526064820183905283811660848301526000917f00000000000000000000000000000000000000000000000000000000000000009091169063a131ad749060a4016020604051808303816000875af115801561094d573d6000803e3d6000fd5b505050506040513d601f19601f820116820180604052508101906109719190611370565b5061097c8383611098565b9392505050565b428410156109ed576040517f08c379a000000000000000000000000000000000000000000000000000000000815260206004820152601760248201527f5045524d49545f444541444c494e455f45585049524544000000000000000000604482015260640161052e565b600060016109f96106ed565b73ffffffffffffffffffffffffffffffffffffffff8a811660008181526005602090815260409182902080546001810190915582517f6e71edae12b1b97f4d1f60370fef10105fa2faae0126114a169c64845d6126c98184015280840194909452938d166060840152608083018c905260a083019390935260c08083018b90528151808403909101815260e0830190915280519201919091207f190100000000000000000000000000000000000000000000000000000000000061010083015261010282019290925261012281019190915261014201604080517fffffffffffffffffffffffffffffffffffffffffffffffffffffffffffffffe08184030181528282528051602091820120600084529083018083525260ff871690820152606081018590526080810184905260a0016020604051602081039080840390855afa158015610b4b573d6000803e3d6000fd5b50506040517fffffffffffffffffffffffffffffffffffffffffffffffffffffffffffffffe0015191505073ffffffffffffffffffffffffffffffffffffffff811615801590610bc657508773ffffffffffffffffffffffffffffffffffffffff168173ffffffffffffffffffffffffffffffffffffffff16145b610c2c576040517f08c379a000000000000000000000000000000000000000000000000000000000815260206004820152600e60248201527f494e56414c49445f5349474e4552000000000000000000000000000000000000604482015260640161052e565b73ffffffffffffffffffffffffffffffffffffffff90811660009081526004602090815260408083208a8516808552908352928190208990555188815291928a16917f8c5be1e5ebec7d5bd14f71427d1e84f3dd0314c0f7b2291e5b200ac8c7c3b925910160405180910390a350505050505050565b6040517fa131ad7400000000000000000000000000000000000000000000000000000000815233600482015273ffffffffffffffffffffffffffffffffffffffff7f0000000000000000000000000000000000000000000000000000000000000000811660248301527f0000000000000000000000000000000000000000000000000000000000000000604483015260006064830181905260848301819052917f00000000000000000000000000000000000000000000000000000000000000009091169063a131ad749060a4016020604051808303816000875af1158015610d8f573d6000803e3d6000fd5b505050506040513d601f19601f8201168201806040525081019061071e9190611370565b73ffffffffffffffffffffffffffffffffffffffff831660009081526004602090815260408083203384529091528120547fffffffffffffffffffffffffffffffffffffffffffffffffffffffffffffffff8114610e4757610e1583826113b8565b73ffffffffffffffffffffffffffffffffffffffff861660009081526004602090815260408083203384529091529020555b73ffffffffffffffffffffffffffffffffffffffff851660009081526003602052604081208054859290610e7c9084906113b8565b909155505073ffffffffffffffffffffffffffffffffffffffff808516600081815260036020526040908190208054870190555190918716907fddf252ad1be2c89b69c2b068fc378daa952ba7f163c4a11628f55a4df523b3ef90610ee49087815260200190565b60405180910390a3506001949350505050565b60007f8b73c3c69bb8fe3d512ecc4cf759cc79239f7b179b0ffacaa9a75d522b39400f6000604051610f2991906113cf565b6040805191829003822060208301939093528101919091527fc89efdaa54c0f20c7adf612882df0950f5a951637e0307cdcb4c672f298b8bc660608201524660808201523060a082015260c00160405160208183030381529060405280519060200120905090565b8060026000828254610fa391906114a2565b909155505073ffffffffffffffffffffffffffffffffffffffff82166000818152600360209081526040808320805486019055518481527fddf252ad1be2c89b69c2b068fc378daa952ba7f163c4a11628f55a4df523b3ef91015b60405180910390a35050565b73ffffffffffffffffffffffffffffffffffffffff82166000908152600360205260408120805483929061103f9084906113b8565b909155505060028054829003905560405181815260009073ffffffffffffffffffffffffffffffffffffffff8416907fddf252ad1be2c89b69c2b068fc378daa952ba7f163c4a11628f55a4df523b3ef90602001610ffe565b336000908152600360205260408120805483919083906110b99084906113b8565b909155505073ffffffffffffffffffffffffffffffffffffffff8316600081815260036020526040908190208054850190555133907fddf252ad1be2c89b69c2b068fc378daa952ba7f163c4a11628f55a4df523b3ef906104a89086815260200190565b600060208083528351808285015260005b8181101561114a5785810183015185820160400152820161112e565b8181111561115c576000604083870101525b50601f017fffffffffffffffffffffffffffffffffffffffffffffffffffffffffffffffe016929092016040019392505050565b803573ffffffffffffffffffffffffffffffffffffffff811681146111b457600080fd5b919050565b600080604083850312156111cc57600080fd5b6111d583611190565b946020939093013593505050565b600080604083850312156111f657600080fd5b6111ff83611190565b91506020830135801515811461121457600080fd5b809150509250929050565b60008060006060848603121561123457600080fd5b61123d84611190565b925061124b60208501611190565b9150604084013590509250925092565b60006020828403121561126d57600080fd5b61097c82611190565b600080600080600080600060e0888a03121561129157600080fd5b61129a88611190565b96506112a860208901611190565b95506040880135945060608801359350608088013560ff811681146112cc57600080fd5b9699959850939692959460a0840135945060c09093013592915050565b600080604083850312156112fc57600080fd5b61130583611190565b915061131360208401611190565b90509250929050565b600181811c9082168061133057607f821691505b6020821081141561136a577f4e487b7100000000000000000000000000000000000000000000000000000000600052602260045260246000fd5b50919050565b60006020828403121561138257600080fd5b5051919050565b7f4e487b7100000000000000000000000000000000000000000000000000000000600052601160045260246000fd5b6000828210156113ca576113ca611389565b500390565b600080835481600182811c9150808316806113eb57607f831692505b6020808410821415611424577f4e487b710000000000000000000000000000000000000000000000000000000086526022600452602486fd5b818015611438576001811461146757611494565b7fffffffffffffffffffffffffffffffffffffffffffffffffffffffffffffff00861689528489019650611494565b60008a81526020902060005b8681101561148c5781548b820152908501908301611473565b505084890196505b509498975050505050505050565b600082198211156114b5576114b5611389565b50019056fea26469706673582212207a673abd3e73dce793b4bdad5ed1d65adb16f542b089dd2b203ce20073c18ced64736f6c634300080b0033a26469706673582212206d8849d9e97dc4526825bea7bfdd5bb15e26d31f8c773533a931a93bc66e7ac364736f6c634300080b0033",
  "devdoc": {
    "kind": "dev",
    "methods": {},
    "version": 1
  },
  "userdoc": {
    "kind": "user",
    "methods": {
      "divider()": {
        "notice": "Program state"
      }
    },
    "version": 1
  },
  "storageLayout": {
    "storage": [
      {
        "astId": 17157,
        "contract": "@sense-finance/v1-core/src/Divider.sol:TokenHandler",
        "label": "isTrusted",
        "offset": 0,
        "slot": "0",
        "type": "t_mapping(t_address,t_bool)"
      },
      {
        "astId": 4486,
        "contract": "@sense-finance/v1-core/src/Divider.sol:TokenHandler",
        "label": "divider",
        "offset": 0,
        "slot": "1",
        "type": "t_address"
      }
    ],
    "types": {
      "t_address": {
        "encoding": "inplace",
        "label": "address",
        "numberOfBytes": "20"
      },
      "t_bool": {
        "encoding": "inplace",
        "label": "bool",
        "numberOfBytes": "1"
      },
      "t_mapping(t_address,t_bool)": {
        "encoding": "mapping",
        "key": "t_address",
        "label": "mapping(address => bool)",
        "numberOfBytes": "32",
        "value": "t_bool"
      }
    }
  }
}