{
  "address": "0x2063c8a2d5E7d30277a5BF96720884d0ed0C242D",
  "abi": [
    {
      "inputs": [
        {
          "internalType": "contract IAuthorizer",
          "name": "authorizer",
          "type": "address"
        },
        {
          "internalType": "contract IWETH",
          "name": "weth",
          "type": "address"
        },
        {
          "internalType": "uint256",
          "name": "pauseWindowDuration",
          "type": "uint256"
        },
        {
          "internalType": "uint256",
          "name": "bufferPeriodDuration",
          "type": "uint256"
        }
      ],
      "stateMutability": "nonpayable",
      "type": "constructor"
    },
    {
      "anonymous": false,
      "inputs": [
        {
          "indexed": true,
          "internalType": "contract IAuthorizer",
          "name": "newAuthorizer",
          "type": "address"
        }
      ],
      "name": "AuthorizerChanged",
      "type": "event"
    },
    {
      "anonymous": false,
      "inputs": [
        {
          "indexed": true,
          "internalType": "contract IERC20",
          "name": "token",
          "type": "address"
        },
        {
          "indexed": true,
          "internalType": "address",
          "name": "sender",
          "type": "address"
        },
        {
          "indexed": false,
          "internalType": "address",
          "name": "recipient",
          "type": "address"
        },
        {
          "indexed": false,
          "internalType": "uint256",
          "name": "amount",
          "type": "uint256"
        }
      ],
      "name": "ExternalBalanceTransfer",
      "type": "event"
    },
    {
      "anonymous": false,
      "inputs": [
        {
          "indexed": true,
          "internalType": "contract IFlashLoanRecipient",
          "name": "recipient",
          "type": "address"
        },
        {
          "indexed": true,
          "internalType": "contract IERC20",
          "name": "token",
          "type": "address"
        },
        {
          "indexed": false,
          "internalType": "uint256",
          "name": "amount",
          "type": "uint256"
        },
        {
          "indexed": false,
          "internalType": "uint256",
          "name": "feeAmount",
          "type": "uint256"
        }
      ],
      "name": "FlashLoan",
      "type": "event"
    },
    {
      "anonymous": false,
      "inputs": [
        {
          "indexed": true,
          "internalType": "address",
          "name": "user",
          "type": "address"
        },
        {
          "indexed": true,
          "internalType": "contract IERC20",
          "name": "token",
          "type": "address"
        },
        {
          "indexed": false,
          "internalType": "int256",
          "name": "delta",
          "type": "int256"
        }
      ],
      "name": "InternalBalanceChanged",
      "type": "event"
    },
    {
      "anonymous": false,
      "inputs": [
        {
          "indexed": false,
          "internalType": "bool",
          "name": "paused",
          "type": "bool"
        }
      ],
      "name": "PausedStateChanged",
      "type": "event"
    },
    {
      "anonymous": false,
      "inputs": [
        {
          "indexed": true,
          "internalType": "bytes32",
          "name": "poolId",
          "type": "bytes32"
        },
        {
          "indexed": true,
          "internalType": "address",
          "name": "liquidityProvider",
          "type": "address"
        },
        {
          "indexed": false,
          "internalType": "contract IERC20[]",
          "name": "tokens",
          "type": "address[]"
        },
        {
          "indexed": false,
          "internalType": "int256[]",
          "name": "deltas",
          "type": "int256[]"
        },
        {
          "indexed": false,
          "internalType": "uint256[]",
          "name": "protocolFeeAmounts",
          "type": "uint256[]"
        }
      ],
      "name": "PoolBalanceChanged",
      "type": "event"
    },
    {
      "anonymous": false,
      "inputs": [
        {
          "indexed": true,
          "internalType": "bytes32",
          "name": "poolId",
          "type": "bytes32"
        },
        {
          "indexed": true,
          "internalType": "address",
          "name": "assetManager",
          "type": "address"
        },
        {
          "indexed": true,
          "internalType": "contract IERC20",
          "name": "token",
          "type": "address"
        },
        {
          "indexed": false,
          "internalType": "int256",
          "name": "cashDelta",
          "type": "int256"
        },
        {
          "indexed": false,
          "internalType": "int256",
          "name": "managedDelta",
          "type": "int256"
        }
      ],
      "name": "PoolBalanceManaged",
      "type": "event"
    },
    {
      "anonymous": false,
      "inputs": [
        {
          "indexed": true,
          "internalType": "bytes32",
          "name": "poolId",
          "type": "bytes32"
        },
        {
          "indexed": true,
          "internalType": "address",
          "name": "poolAddress",
          "type": "address"
        },
        {
          "indexed": false,
          "internalType": "enum IVault.PoolSpecialization",
          "name": "specialization",
          "type": "uint8"
        }
      ],
      "name": "PoolRegistered",
      "type": "event"
    },
    {
      "anonymous": false,
      "inputs": [
        {
          "indexed": true,
          "internalType": "address",
          "name": "relayer",
          "type": "address"
        },
        {
          "indexed": true,
          "internalType": "address",
          "name": "sender",
          "type": "address"
        },
        {
          "indexed": false,
          "internalType": "bool",
          "name": "approved",
          "type": "bool"
        }
      ],
      "name": "RelayerApprovalChanged",
      "type": "event"
    },
    {
      "anonymous": false,
      "inputs": [
        {
          "indexed": true,
          "internalType": "bytes32",
          "name": "poolId",
          "type": "bytes32"
        },
        {
          "indexed": true,
          "internalType": "contract IERC20",
          "name": "tokenIn",
          "type": "address"
        },
        {
          "indexed": true,
          "internalType": "contract IERC20",
          "name": "tokenOut",
          "type": "address"
        },
        {
          "indexed": false,
          "internalType": "uint256",
          "name": "amountIn",
          "type": "uint256"
        },
        {
          "indexed": false,
          "internalType": "uint256",
          "name": "amountOut",
          "type": "uint256"
        }
      ],
      "name": "Swap",
      "type": "event"
    },
    {
      "anonymous": false,
      "inputs": [
        {
          "indexed": true,
          "internalType": "bytes32",
          "name": "poolId",
          "type": "bytes32"
        },
        {
          "indexed": false,
          "internalType": "contract IERC20[]",
          "name": "tokens",
          "type": "address[]"
        }
      ],
      "name": "TokensDeregistered",
      "type": "event"
    },
    {
      "anonymous": false,
      "inputs": [
        {
          "indexed": true,
          "internalType": "bytes32",
          "name": "poolId",
          "type": "bytes32"
        },
        {
          "indexed": false,
          "internalType": "contract IERC20[]",
          "name": "tokens",
          "type": "address[]"
        },
        {
          "indexed": false,
          "internalType": "address[]",
          "name": "assetManagers",
          "type": "address[]"
        }
      ],
      "name": "TokensRegistered",
      "type": "event"
    },
    {
      "inputs": [],
      "name": "WETH",
      "outputs": [
        {
          "internalType": "contract IWETH",
          "name": "",
          "type": "address"
        }
      ],
      "stateMutability": "view",
      "type": "function"
    },
    {
      "inputs": [
        {
          "internalType": "enum IVault.SwapKind",
          "name": "kind",
          "type": "uint8"
        },
        {
          "components": [
            {
              "internalType": "bytes32",
              "name": "poolId",
              "type": "bytes32"
            },
            {
              "internalType": "uint256",
              "name": "assetInIndex",
              "type": "uint256"
            },
            {
              "internalType": "uint256",
              "name": "assetOutIndex",
              "type": "uint256"
            },
            {
              "internalType": "uint256",
              "name": "amount",
              "type": "uint256"
            },
            {
              "internalType": "bytes",
              "name": "userData",
              "type": "bytes"
            }
          ],
          "internalType": "struct IVault.BatchSwapStep[]",
          "name": "swaps",
          "type": "tuple[]"
        },
        {
          "internalType": "contract IAsset[]",
          "name": "assets",
          "type": "address[]"
        },
        {
          "components": [
            {
              "internalType": "address",
              "name": "sender",
              "type": "address"
            },
            {
              "internalType": "bool",
              "name": "fromInternalBalance",
              "type": "bool"
            },
            {
              "internalType": "address payable",
              "name": "recipient",
              "type": "address"
            },
            {
              "internalType": "bool",
              "name": "toInternalBalance",
              "type": "bool"
            }
          ],
          "internalType": "struct IVault.FundManagement",
          "name": "funds",
          "type": "tuple"
        },
        {
          "internalType": "int256[]",
          "name": "limits",
          "type": "int256[]"
        },
        {
          "internalType": "uint256",
          "name": "deadline",
          "type": "uint256"
        }
      ],
      "name": "batchSwap",
      "outputs": [
        {
          "internalType": "int256[]",
          "name": "assetDeltas",
          "type": "int256[]"
        }
      ],
      "stateMutability": "payable",
      "type": "function"
    },
    {
      "inputs": [
        {
          "internalType": "bytes32",
          "name": "poolId",
          "type": "bytes32"
        },
        {
          "internalType": "contract IERC20[]",
          "name": "tokens",
          "type": "address[]"
        }
      ],
      "name": "deregisterTokens",
      "outputs": [],
      "stateMutability": "nonpayable",
      "type": "function"
    },
    {
      "inputs": [
        {
          "internalType": "bytes32",
          "name": "poolId",
          "type": "bytes32"
        },
        {
          "internalType": "address",
          "name": "sender",
          "type": "address"
        },
        {
          "internalType": "address payable",
          "name": "recipient",
          "type": "address"
        },
        {
          "components": [
            {
              "internalType": "contract IAsset[]",
              "name": "assets",
              "type": "address[]"
            },
            {
              "internalType": "uint256[]",
              "name": "minAmountsOut",
              "type": "uint256[]"
            },
            {
              "internalType": "bytes",
              "name": "userData",
              "type": "bytes"
            },
            {
              "internalType": "bool",
              "name": "toInternalBalance",
              "type": "bool"
            }
          ],
          "internalType": "struct IVault.ExitPoolRequest",
          "name": "request",
          "type": "tuple"
        }
      ],
      "name": "exitPool",
      "outputs": [],
      "stateMutability": "nonpayable",
      "type": "function"
    },
    {
      "inputs": [
        {
          "internalType": "contract IFlashLoanRecipient",
          "name": "recipient",
          "type": "address"
        },
        {
          "internalType": "contract IERC20[]",
          "name": "tokens",
          "type": "address[]"
        },
        {
          "internalType": "uint256[]",
          "name": "amounts",
          "type": "uint256[]"
        },
        {
          "internalType": "bytes",
          "name": "userData",
          "type": "bytes"
        }
      ],
      "name": "flashLoan",
      "outputs": [],
      "stateMutability": "nonpayable",
      "type": "function"
    },
    {
      "inputs": [
        {
          "internalType": "bytes4",
          "name": "selector",
          "type": "bytes4"
        }
      ],
      "name": "getActionId",
      "outputs": [
        {
          "internalType": "bytes32",
          "name": "",
          "type": "bytes32"
        }
      ],
      "stateMutability": "view",
      "type": "function"
    },
    {
      "inputs": [],
      "name": "getAuthorizer",
      "outputs": [
        {
          "internalType": "contract IAuthorizer",
          "name": "",
          "type": "address"
        }
      ],
      "stateMutability": "view",
      "type": "function"
    },
    {
      "inputs": [],
      "name": "getDomainSeparator",
      "outputs": [
        {
          "internalType": "bytes32",
          "name": "",
          "type": "bytes32"
        }
      ],
      "stateMutability": "view",
      "type": "function"
    },
    {
      "inputs": [
        {
          "internalType": "address",
          "name": "user",
          "type": "address"
        },
        {
          "internalType": "contract IERC20[]",
          "name": "tokens",
          "type": "address[]"
        }
      ],
      "name": "getInternalBalance",
      "outputs": [
        {
          "internalType": "uint256[]",
          "name": "balances",
          "type": "uint256[]"
        }
      ],
      "stateMutability": "view",
      "type": "function"
    },
    {
      "inputs": [
        {
          "internalType": "address",
          "name": "user",
          "type": "address"
        }
      ],
      "name": "getNextNonce",
      "outputs": [
        {
          "internalType": "uint256",
          "name": "",
          "type": "uint256"
        }
      ],
      "stateMutability": "view",
      "type": "function"
    },
    {
      "inputs": [],
      "name": "getPausedState",
      "outputs": [
        {
          "internalType": "bool",
          "name": "paused",
          "type": "bool"
        },
        {
          "internalType": "uint256",
          "name": "pauseWindowEndTime",
          "type": "uint256"
        },
        {
          "internalType": "uint256",
          "name": "bufferPeriodEndTime",
          "type": "uint256"
        }
      ],
      "stateMutability": "view",
      "type": "function"
    },
    {
      "inputs": [
        {
          "internalType": "bytes32",
          "name": "poolId",
          "type": "bytes32"
        }
      ],
      "name": "getPool",
      "outputs": [
        {
          "internalType": "address",
          "name": "",
          "type": "address"
        },
        {
          "internalType": "enum IVault.PoolSpecialization",
          "name": "",
          "type": "uint8"
        }
      ],
      "stateMutability": "view",
      "type": "function"
    },
    {
      "inputs": [
        {
          "internalType": "bytes32",
          "name": "poolId",
          "type": "bytes32"
        },
        {
          "internalType": "contract IERC20",
          "name": "token",
          "type": "address"
        }
      ],
      "name": "getPoolTokenInfo",
      "outputs": [
        {
          "internalType": "uint256",
          "name": "cash",
          "type": "uint256"
        },
        {
          "internalType": "uint256",
          "name": "managed",
          "type": "uint256"
        },
        {
          "internalType": "uint256",
          "name": "lastChangeBlock",
          "type": "uint256"
        },
        {
          "internalType": "address",
          "name": "assetManager",
          "type": "address"
        }
      ],
      "stateMutability": "view",
      "type": "function"
    },
    {
      "inputs": [
        {
          "internalType": "bytes32",
          "name": "poolId",
          "type": "bytes32"
        }
      ],
      "name": "getPoolTokens",
      "outputs": [
        {
          "internalType": "contract IERC20[]",
          "name": "tokens",
          "type": "address[]"
        },
        {
          "internalType": "uint256[]",
          "name": "balances",
          "type": "uint256[]"
        },
        {
          "internalType": "uint256",
          "name": "lastChangeBlock",
          "type": "uint256"
        }
      ],
      "stateMutability": "view",
      "type": "function"
    },
    {
      "inputs": [],
      "name": "getProtocolFeesCollector",
      "outputs": [
        {
          "internalType": "contract IProtocolFeesCollector",
          "name": "",
          "type": "address"
        }
      ],
      "stateMutability": "view",
      "type": "function"
    },
    {
      "inputs": [
        {
          "internalType": "address",
          "name": "user",
          "type": "address"
        },
        {
          "internalType": "address",
          "name": "relayer",
          "type": "address"
        }
      ],
      "name": "hasApprovedRelayer",
      "outputs": [
        {
          "internalType": "bool",
          "name": "",
          "type": "bool"
        }
      ],
      "stateMutability": "view",
      "type": "function"
    },
    {
      "inputs": [
        {
          "internalType": "bytes32",
          "name": "poolId",
          "type": "bytes32"
        },
        {
          "internalType": "address",
          "name": "sender",
          "type": "address"
        },
        {
          "internalType": "address",
          "name": "recipient",
          "type": "address"
        },
        {
          "components": [
            {
              "internalType": "contract IAsset[]",
              "name": "assets",
              "type": "address[]"
            },
            {
              "internalType": "uint256[]",
              "name": "maxAmountsIn",
              "type": "uint256[]"
            },
            {
              "internalType": "bytes",
              "name": "userData",
              "type": "bytes"
            },
            {
              "internalType": "bool",
              "name": "fromInternalBalance",
              "type": "bool"
            }
          ],
          "internalType": "struct IVault.JoinPoolRequest",
          "name": "request",
          "type": "tuple"
        }
      ],
      "name": "joinPool",
      "outputs": [],
      "stateMutability": "payable",
      "type": "function"
    },
    {
      "inputs": [
        {
          "components": [
            {
              "internalType": "enum IVault.PoolBalanceOpKind",
              "name": "kind",
              "type": "uint8"
            },
            {
              "internalType": "bytes32",
              "name": "poolId",
              "type": "bytes32"
            },
            {
              "internalType": "contract IERC20",
              "name": "token",
              "type": "address"
            },
            {
              "internalType": "uint256",
              "name": "amount",
              "type": "uint256"
            }
          ],
          "internalType": "struct IVault.PoolBalanceOp[]",
          "name": "ops",
          "type": "tuple[]"
        }
      ],
      "name": "managePoolBalance",
      "outputs": [],
      "stateMutability": "nonpayable",
      "type": "function"
    },
    {
      "inputs": [
        {
          "components": [
            {
              "internalType": "enum IVault.UserBalanceOpKind",
              "name": "kind",
              "type": "uint8"
            },
            {
              "internalType": "contract IAsset",
              "name": "asset",
              "type": "address"
            },
            {
              "internalType": "uint256",
              "name": "amount",
              "type": "uint256"
            },
            {
              "internalType": "address",
              "name": "sender",
              "type": "address"
            },
            {
              "internalType": "address payable",
              "name": "recipient",
              "type": "address"
            }
          ],
          "internalType": "struct IVault.UserBalanceOp[]",
          "name": "ops",
          "type": "tuple[]"
        }
      ],
      "name": "manageUserBalance",
      "outputs": [],
      "stateMutability": "payable",
      "type": "function"
    },
    {
      "inputs": [
        {
          "internalType": "enum IVault.SwapKind",
          "name": "kind",
          "type": "uint8"
        },
        {
          "components": [
            {
              "internalType": "bytes32",
              "name": "poolId",
              "type": "bytes32"
            },
            {
              "internalType": "uint256",
              "name": "assetInIndex",
              "type": "uint256"
            },
            {
              "internalType": "uint256",
              "name": "assetOutIndex",
              "type": "uint256"
            },
            {
              "internalType": "uint256",
              "name": "amount",
              "type": "uint256"
            },
            {
              "internalType": "bytes",
              "name": "userData",
              "type": "bytes"
            }
          ],
          "internalType": "struct IVault.BatchSwapStep[]",
          "name": "swaps",
          "type": "tuple[]"
        },
        {
          "internalType": "contract IAsset[]",
          "name": "assets",
          "type": "address[]"
        },
        {
          "components": [
            {
              "internalType": "address",
              "name": "sender",
              "type": "address"
            },
            {
              "internalType": "bool",
              "name": "fromInternalBalance",
              "type": "bool"
            },
            {
              "internalType": "address payable",
              "name": "recipient",
              "type": "address"
            },
            {
              "internalType": "bool",
              "name": "toInternalBalance",
              "type": "bool"
            }
          ],
          "internalType": "struct IVault.FundManagement",
          "name": "funds",
          "type": "tuple"
        }
      ],
      "name": "queryBatchSwap",
      "outputs": [
        {
          "internalType": "int256[]",
          "name": "",
          "type": "int256[]"
        }
      ],
      "stateMutability": "nonpayable",
      "type": "function"
    },
    {
      "inputs": [
        {
          "internalType": "enum IVault.PoolSpecialization",
          "name": "specialization",
          "type": "uint8"
        }
      ],
      "name": "registerPool",
      "outputs": [
        {
          "internalType": "bytes32",
          "name": "",
          "type": "bytes32"
        }
      ],
      "stateMutability": "nonpayable",
      "type": "function"
    },
    {
      "inputs": [
        {
          "internalType": "bytes32",
          "name": "poolId",
          "type": "bytes32"
        },
        {
          "internalType": "contract IERC20[]",
          "name": "tokens",
          "type": "address[]"
        },
        {
          "internalType": "address[]",
          "name": "assetManagers",
          "type": "address[]"
        }
      ],
      "name": "registerTokens",
      "outputs": [],
      "stateMutability": "nonpayable",
      "type": "function"
    },
    {
      "inputs": [
        {
          "internalType": "contract IAuthorizer",
          "name": "newAuthorizer",
          "type": "address"
        }
      ],
      "name": "setAuthorizer",
      "outputs": [],
      "stateMutability": "nonpayable",
      "type": "function"
    },
    {
      "inputs": [
        {
          "internalType": "bool",
          "name": "paused",
          "type": "bool"
        }
      ],
      "name": "setPaused",
      "outputs": [],
      "stateMutability": "nonpayable",
      "type": "function"
    },
    {
      "inputs": [
        {
          "internalType": "address",
          "name": "sender",
          "type": "address"
        },
        {
          "internalType": "address",
          "name": "relayer",
          "type": "address"
        },
        {
          "internalType": "bool",
          "name": "approved",
          "type": "bool"
        }
      ],
      "name": "setRelayerApproval",
      "outputs": [],
      "stateMutability": "nonpayable",
      "type": "function"
    },
    {
      "inputs": [
        {
          "components": [
            {
              "internalType": "bytes32",
              "name": "poolId",
              "type": "bytes32"
            },
            {
              "internalType": "enum IVault.SwapKind",
              "name": "kind",
              "type": "uint8"
            },
            {
              "internalType": "contract IAsset",
              "name": "assetIn",
              "type": "address"
            },
            {
              "internalType": "contract IAsset",
              "name": "assetOut",
              "type": "address"
            },
            {
              "internalType": "uint256",
              "name": "amount",
              "type": "uint256"
            },
            {
              "internalType": "bytes",
              "name": "userData",
              "type": "bytes"
            }
          ],
          "internalType": "struct IVault.SingleSwap",
          "name": "singleSwap",
          "type": "tuple"
        },
        {
          "components": [
            {
              "internalType": "address",
              "name": "sender",
              "type": "address"
            },
            {
              "internalType": "bool",
              "name": "fromInternalBalance",
              "type": "bool"
            },
            {
              "internalType": "address payable",
              "name": "recipient",
              "type": "address"
            },
            {
              "internalType": "bool",
              "name": "toInternalBalance",
              "type": "bool"
            }
          ],
          "internalType": "struct IVault.FundManagement",
          "name": "funds",
          "type": "tuple"
        },
        {
          "internalType": "uint256",
          "name": "limit",
          "type": "uint256"
        },
        {
          "internalType": "uint256",
          "name": "deadline",
          "type": "uint256"
        }
      ],
      "name": "swap",
      "outputs": [
        {
          "internalType": "uint256",
          "name": "amountCalculated",
          "type": "uint256"
        }
      ],
      "stateMutability": "payable",
      "type": "function"
    },
    {
      "stateMutability": "payable",
      "type": "receive"
    }
  ],
  "transactionHash": "0x996d1e0d8fd25d3ecd3418ce31dd0fa3292a996f0991e92d8870a7ec1bb4e137",
  "args": [
    "0x18Ff53e4B2E825e4517E50efa8dbe24d384A54E1",
    "0xffc94fb06b924e6dba5f0325bbed941807a018cd",
    0,
    0
  ],
  "numDeployments": 1,
  "solcInputHash": "41b84d3fbc2f55f073f857fa672b4e33",
  "bytecode": "0x6101806040523480156200001257600080fd5b5060405162006d7638038062006d76833981016040819052620000359162000253565b8382826040518060400160405280601181526020017010985b185b98d95c88158c8815985d5b1d607a1b81525080604051806040016040528060018152602001603160f81b815250306001600160a01b031660001b89806001600160a01b03166080816001600160a01b031660601b815250505030604051620000b89062000245565b620000c491906200029f565b604051809103906000f080158015620000e1573d6000803e3d6000fd5b5060601b6001600160601b03191660a052600160005560c052815160209283012060e052805191012061010052507f8b73c3c69bb8fe3d512ecc4cf759cc79239f7b179b0ffacaa9a75d522b39400f61012052620001486276a70083111561019462000181565b6200015c62278d0082111561019562000181565b429091016101408190520161016052620001768162000196565b5050505050620002cc565b8162000192576200019281620001f2565b5050565b6040516001600160a01b038216907f94b979b6831a51293e2641426f97747feed46f17779fed9cd18d1ecefcfe92ef90600090a2600380546001600160a01b0390921661010002610100600160a81b0319909216919091179055565b62461bcd60e51b6000908152602060045260076024526642414c23000030600a808404818106603090810160081b95839006959095019082900491820690940160101b939093010160c81b604452606490fd5b610b32806200624483390190565b6000806000806080858703121562000269578384fd5b84516200027681620002b3565b60208601519094506200028981620002b3565b6040860151606090960151949790965092505050565b6001600160a01b0391909116815260200190565b6001600160a01b0381168114620002c957600080fd5b50565b60805160601c60a05160601c60c05160e05161010051610120516101405161016051615f146200033060003980611a99525080611a755250806128315250806128735250806128525250806110e352508061139c5250806105285250615f146000f3fe6080604052600436106101a55760003560e01c8063945bcec9116100e1578063e6c460921161008a578063f84d066e11610064578063f84d066e1461048a578063f94d4668146104aa578063fa6e671d146104d9578063fec90d72146104f9576101d3565b8063e6c4609214610427578063ed24911d14610447578063f6c009271461045c576101d3565b8063b05f8e48116100bb578063b05f8e48146103cf578063b95cac28146103ff578063d2946c2b14610412576101d3565b8063945bcec914610385578063aaabadc514610398578063ad5c4648146103ba576101d3565b806352bbbe291161014e5780637d3aeb96116101285780637d3aeb9614610305578063851c1bb3146103255780638bdb39131461034557806390193b7c14610365576101d3565b806352bbbe29146102b25780635c38449e146102c557806366a9c7d2146102e5576101d3565b80630f5a6efa1161017f5780630f5a6efa1461024157806316c38b3c1461026e5780631c0de0511461028e576101d3565b8063058a628f146101d857806309b2760f146101f85780630e8e3e841461022e576101d3565b366101d3576101d16101b5610526565b6001600160a01b0316336001600160a01b03161461020661054b565b005b600080fd5b3480156101e457600080fd5b506101d16101f33660046151a2565b61055d565b34801561020457600080fd5b50610218610213366004615757565b610581565b6040516102259190615d4a565b60405180910390f35b6101d161023c36600461537d565b610634565b34801561024d57600080fd5b5061026161025c366004615240565b610770565b6040516102259190615d14565b34801561027a57600080fd5b506101d16102893660046154d1565b610805565b34801561029a57600080fd5b506102a361081e565b60405161022593929190615d32565b6102186102c03660046158fc565b610847565b3480156102d157600080fd5b506101d16102e03660046156cd565b6109e8565b3480156102f157600080fd5b506101d16103003660046155b8565b610dea565b34801561031157600080fd5b506101d161032036600461558a565b610f89565b34801561033157600080fd5b506102186103403660046156a5565b6110dd565b34801561035157600080fd5b506101d1610360366004615521565b611136565b34801561037157600080fd5b506102186103803660046151a2565b61114c565b6102616103933660046157f5565b611167565b3480156103a457600080fd5b506103ad61129b565b6040516102259190615b9c565b3480156103c657600080fd5b506103ad6112af565b3480156103db57600080fd5b506103ef6103ea366004615681565b6112be565b6040516102259493929190615e4a565b6101d161040d366004615521565b611381565b34801561041e57600080fd5b506103ad61139a565b34801561043357600080fd5b506101d161044236600461528d565b6113be565b34801561045357600080fd5b506102186114da565b34801561046857600080fd5b5061047c610477366004615509565b6114e4565b604051610225929190615bb0565b34801561049657600080fd5b506102616104a5366004615773565b61150e565b3480156104b657600080fd5b506104ca6104c5366004615509565b6115f2565b60405161022593929190615cde565b3480156104e557600080fd5b506101d16104f43660046151f6565b611626565b34801561050557600080fd5b506105196105143660046151be565b6116b8565b6040516102259190615d27565b7f00000000000000000000000000000000000000000000000000000000000000005b90565b8161055957610559816116cd565b5050565b610565611720565b61056d611739565b61057681611767565b61057e6117d0565b50565b600061058b611720565b6105936117d7565b60006105a233846006546117ec565b6000818152600560205260409020549091506105c49060ff16156101f461054b565b60008181526005602052604090819020805460ff1916600190811790915560068054909101905551339082907f3c13bc30b8e878c53fd2a36b679409c073afd75950be43d8858768e956fbc20e9061061d908790615dd0565b60405180910390a3905061062f6117d0565b919050565b61063c611720565b6000806000805b845181101561075b5760008060008060006106718a878151811061066357fe5b60200260200101518961182b565b9c50939850919650945092509050600185600381111561068d57fe5b14156106a45761069f848383866118a3565b61074a565b866106b6576106b16117d7565b600196505b60008560038111156106c457fe5b14156106f5576106d6848383866118c6565b6106df846118e6565b1561069f576106ee89846118f3565b985061074a565b61070a610701856118e6565b1561020761054b565b600061071585610548565b9050600286600381111561072557fe5b141561073c5761073781848487611905565b610748565b6107488184848761191e565b505b505060019093019250610643915050565b506107658361198c565b50505061057e6117d0565b606081516001600160401b038111801561078957600080fd5b506040519080825280602002602001820160405280156107b3578160200160208202803683370190505b50905060005b82518110156107fe576107df848483815181106107d257fe5b60200260200101516119af565b8282815181106107eb57fe5b60209081029190910101526001016107b9565b5092915050565b61080d611720565b610815611739565b610576816119da565b600080600061082b611a56565b159250610836611a73565b9150610840611a97565b9050909192565b6000610851611720565b6108596117d7565b835161086481611abb565b610873834211156101fc61054b565b61088660008760800151116101fe61054b565b60006108958760400151611aed565b905060006108a68860600151611aed565b90506108c9816001600160a01b0316836001600160a01b031614156101fd61054b565b6108d1614d15565b885160808201526020890151819060018111156108ea57fe5b908160018111156108f757fe5b9052506001600160a01b03808416602083015282811660408084019190915260808b0151606084015260a08b01516101008401528951821660c08401528901511660e082015260008061094983611b12565b9198509250905061098060008c60200151600181111561096557fe5b146109735789831115610978565b898210155b6101fb61054b565b6109988b60400151838c600001518d60200151611c06565b6109b08b60600151828c604001518d60600151611ce4565b6109d26109c08c604001516118e6565b6109cb5760006109cd565b825b61198c565b5050505050506109e06117d0565b949350505050565b6109f0611720565b6109f86117d7565b610a0483518351611dbe565b606083516001600160401b0381118015610a1d57600080fd5b50604051908082528060200260200182016040528015610a47578160200160208202803683370190505b509050606084516001600160401b0381118015610a6357600080fd5b50604051908082528060200260200182016040528015610a8d578160200160208202803683370190505b5090506000805b8651811015610c06576000878281518110610aab57fe5b602002602001015190506000878381518110610ac357fe5b60200260200101519050610b0e846001600160a01b0316836001600160a01b03161160006001600160a01b0316846001600160a01b031614610b06576066610b09565b60685b61054b565b819350816001600160a01b03166370a08231306040518263ffffffff1660e01b8152600401610b3d9190615b9c565b60206040518083038186803b158015610b5557600080fd5b505afa158015610b69573d6000803e3d6000fd5b505050506040513d601f19601f82011682018060405250810190610b8d91906159de565b858481518110610b9957fe5b602002602001018181525050610bae81611dcb565b868481518110610bba57fe5b602002602001018181525050610be881868581518110610bd657fe5b6020026020010151101561021061054b565b610bfc6001600160a01b0383168b83611e52565b5050600101610a94565b5060405163f04f270760e01b81526001600160a01b0388169063f04f270790610c39908990899088908a90600401615c91565b600060405180830381600087803b158015610c5357600080fd5b505af1158015610c67573d6000803e3d6000fd5b5050505060005b8651811015610dd8576000878281518110610c8557fe5b602002602001015190506000848381518110610c9d57fe5b602002602001015190506000826001600160a01b03166370a08231306040518263ffffffff1660e01b8152600401610cd59190615b9c565b60206040518083038186803b158015610ced57600080fd5b505afa158015610d01573d6000803e3d6000fd5b505050506040513d601f19601f82011682018060405250810190610d2591906159de565b9050610d368282101561020361054b565b60008282039050610d5f888681518110610d4c57fe5b602002602001015182101561025a61054b565b610d698482611ea4565b836001600160a01b03168c6001600160a01b03167f0d7d75e01ab95780d3cd1c8ec0dd6c2ce19e3a20427eec8bf53283b6fb8e95f08c8881518110610daa57fe5b602002602001015184604051610dc1929190615dde565b60405180910390a350505050806001019050610c6e565b50505050610de46117d0565b50505050565b610df2611720565b610dfa6117d7565b82610e0481611ec6565b610e1083518351611dbe565b60005b8351811015610eae576000848281518110610e2a57fe5b60200260200101519050610e5660006001600160a01b0316826001600160a01b0316141561013561054b565b838281518110610e6257fe5b6020908102919091018101516000888152600a835260408082206001600160a01b0395861683529093529190912080546001600160a01b03191692909116919091179055600101610e13565b506000610eba85611ef7565b90506002816002811115610eca57fe5b1415610f1857610ee0845160021461020c61054b565b610f138585600081518110610ef157fe5b602002602001015186600181518110610f0657fe5b6020026020010151611f11565b610f40565b6001816002811115610f2657fe5b1415610f3657610f138585611fbd565b610f408585612015565b847ff5847d3f2197b16cdcd2098ec95d0905cd1abdaf415f07bb7cef2bba8ac5dec48585604051610f72929190615bf9565b60405180910390a25050610f846117d0565b505050565b610f91611720565b610f996117d7565b81610fa381611ec6565b6000610fae84611ef7565b90506002816002811115610fbe57fe5b141561100c57610fd4835160021461020c61054b565b6110078484600081518110610fe557fe5b602002602001015185600181518110610ffa57fe5b602002602001015161206a565b611034565b600181600281111561101a57fe5b141561102a5761100784846120d8565b6110348484612192565b60005b835181101561109a57600a6000868152602001908152602001600020600085838151811061106157fe5b6020908102919091018101516001600160a01b0316825281019190915260400160002080546001600160a01b0319169055600101611037565b50837f7dcdc6d02ef40c7c1a7046a011b058bd7f988fa14e20a66344f9d4e60657d610846040516110cb9190615be6565b60405180910390a250506105596117d0565b604080517f00000000000000000000000000000000000000000000000000000000000000006020808301919091526001600160e01b03198416828401528251602481840301815260449092019092528051910120919050565b610de46001858585611147866121f5565b612201565b6001600160a01b031660009081526002602052604090205490565b6060611171611720565b6111796117d7565b835161118481611abb565b611193834211156101fc61054b565b61119f86518551611dbe565b6111ab8787878b612387565b91506000805b875181101561127d5760008882815181106111c857fe5b6020026020010151905060008583815181106111e057fe5b6020026020010151905061120c8884815181106111f957fe5b60200260200101518213156101fb61054b565b600081131561124c57885160208a0151829161122b9185918491611c06565b611234836118e6565b156112465761124385826118f3565b94505b50611273565b600081121561127357600081600003905061127183828c604001518d60600151611ce4565b505b50506001016111b1565b506112878161198c565b50506112916117d0565b9695505050505050565b60035461010090046001600160a01b031690565b60006112b9610526565b905090565b600080600080856112ce81612615565b6000806112da89611ef7565b905060028160028111156112ea57fe5b1415611301576112fa8989612633565b915061132c565b600181600281111561130f57fe5b141561131f576112fa89896126ad565b611329898961271b565b91505b61133582612733565b965061134082612746565b955061134b8261275c565b6000998a52600a60209081526040808c206001600160a01b039b8c168d5290915290992054969995989796909616955050505050565b6113896117d7565b610de46000858585611147866121f5565b7f000000000000000000000000000000000000000000000000000000000000000090565b6113c6611720565b6113ce6117d7565b6113d6614d65565b60005b82518110156114d0578281815181106113ee57fe5b6020026020010151915060008260200151905061140a81612615565b604083015161142461141c8383612762565b61020961054b565b6000828152600a602090815260408083206001600160a01b038581168552925290912054611457911633146101f661054b565b8351606085015160008061146d848787866127be565b91509150846001600160a01b0316336001600160a01b0316877f6edcaf6241105b4c94c2efdbf3a6b12458eb3d07be3a0e81d24b13c44045fe7a85856040516114b7929190615dde565b60405180910390a45050505050508060010190506113d9565b505061057e6117d0565b60006112b961282d565b600080826114f181612615565b6114fa846128eb565b61150385611ef7565b925092505b50915091565b60603330146115c8576000306001600160a01b0316600036604051611534929190615b65565b6000604051808303816000865af19150503d8060008114611571576040519150601f19603f3d011682016040523d82523d6000602084013e611576565b606091505b50509050806000811461158557fe5b60046000803e6000516001600160e01b031916637d30e60960e11b81146115b0573d6000803e3d6000fd5b50602060005260043d0380600460203e602081016000f35b60606115d685858589612387565b9050602081510263fa61cc126020830352600482036024820181fd5b60608060008361160181612615565b606061160c866128f1565b909550905061161a81612953565b95979096509350505050565b61162e611720565b6116366117d7565b8261164081611abb565b6001600160a01b0384811660008181526004602090815260408083209488168084529490915290819020805460ff1916861515179055519091907f46961fdb4502b646d5095fba7600486a8ac05041d55cdf0f16ed677180b5cad8906116a7908690615d27565b60405180910390a350610f846117d0565b60006116c48383612a01565b90505b92915050565b62461bcd60e51b6000908152602060045260076024526642414c23000030600a808404818106603090810160081b95839006959095019082900491820690940160101b939093010160c81b604452606490fd5b6117326002600054141561019061054b565b6002600055565b60006117506000356001600160e01b0319166110dd565b905061057e61175f8233612a2f565b61019161054b565b6040516001600160a01b038216907f94b979b6831a51293e2641426f97747feed46f17779fed9cd18d1ecefcfe92ef90600090a2600380546001600160a01b039092166101000274ffffffffffffffffffffffffffffffffffffffff0019909216919091179055565b6001600055565b6117ea6117e2611a56565b61019261054b565b565b600069ffffffffffffffffffff8216605084600281111561180957fe5b901b17606085901b6bffffffffffffffffffffffff19161790505b9392505050565b600080600080600080600088606001519050336001600160a01b0316816001600160a01b03161461187d578761186857611863611739565b600197505b61187d6118758233612a01565b6101f761054b565b885160208a015160408b01516080909b0151919b909a9992985090965090945092505050565b6118b8836118b086611aed565b836000612ab9565b50610de48482846000611ce4565b6118d9826118d386611aed565b83612b0f565b610de48482856000611c06565b6001600160a01b03161590565b60008282016116c4848210158361054b565b6119128385836000612ab9565b50610de4828583612b0f565b8015610de4576119396001600160a01b038516848484612b3f565b826001600160a01b0316846001600160a01b03167f540a1a3f28340caec336c81d8d7b3df139ee5cdc1839a4f283d7ebb7eaae2d5c848460405161197e929190615bcd565b60405180910390a350505050565b61199b8134101561020461054b565b348190038015610559576105593382612b99565b6001600160a01b039182166000908152600b6020908152604080832093909416825291909152205490565b80156119fa576119f56119eb611a73565b421061019361054b565b611a0f565b611a0f611a05611a97565b42106101a961054b565b6003805482151560ff19909116811790915560408051918252517f9e3a5e37224532dea67b89face185703738a228a6e8a23dee546960180d3be649181900360200190a150565b6000611a60611a97565b4211806112b957505060035460ff161590565b7f000000000000000000000000000000000000000000000000000000000000000090565b7f000000000000000000000000000000000000000000000000000000000000000090565b336001600160a01b0382161461057e57611ad3611739565b611add8133612a01565b61057e5761057e816101f7612c08565b6000611af8826118e6565b611b0a57611b0582610548565b6116c7565b6116c7610526565b600080600080611b2585608001516128eb565b90506000611b368660800151611ef7565b90506002816002811115611b4657fe5b1415611b5d57611b568683612c3c565b9450611b88565b6001816002811115611b6b57fe5b1415611b7b57611b568683612cec565b611b858683612d7f565b94505b611b9b8660000151876060015187612fa3565b809450819550505085604001516001600160a01b031686602001516001600160a01b031687608001517f2170c741c41531aec20e7c107c24eecfdd15e69c9bb0a8dd37b1840b9e0b207b8787604051611bf5929190615dde565b60405180910390a450509193909250565b82611c1057610de4565b611c19846118e6565b15611c9a57611c2b811561020261054b565b611c3a8347101561020461054b565b611c42610526565b6001600160a01b031663d0e30db0846040518263ffffffff1660e01b81526004016000604051808303818588803b158015611c7c57600080fd5b505af1158015611c90573d6000803e3d6000fd5b5050505050610de4565b6000611ca585610548565b90508115611cc2576000611cbc8483876001612ab9565b90940393505b8315611cdd57611cdd6001600160a01b038216843087612b3f565b5050505050565b82611cee57610de4565b611cf7846118e6565b15611d8757611d09811561020261054b565b611d11610526565b6001600160a01b0316632e1a7d4d846040518263ffffffff1660e01b8152600401611d3c9190615d4a565b600060405180830381600087803b158015611d5657600080fd5b505af1158015611d6a573d6000803e3d6000fd5b50611d82925050506001600160a01b03831684612b99565b610de4565b6000611d9285610548565b90508115611daa57611da5838286612b0f565b611cdd565b611cdd6001600160a01b0382168486611e52565b610559818314606761054b565b600080611dd661139a565b6001600160a01b031663d877845c6040518163ffffffff1660e01b815260040160206040518083038186803b158015611e0e57600080fd5b505afa158015611e22573d6000803e3d6000fd5b505050506040513d601f19601f82011682018060405250810190611e4691906159de565b90506118248382612fd1565b604080516001600160a01b038416602482015260448082018490528251808303909101815260649091019091526020810180516001600160e01b031663a9059cbb60e01b179052610f8490849061301e565b801561055957610559611eb561139a565b6001600160a01b0384169083611e52565b611ecf81612615565b61057e611edb826128eb565b6001600160a01b0316336001600160a01b0316146101f561054b565b600061ffff605083901c166116c7600382106101f461054b565b611f32816001600160a01b0316836001600160a01b0316141561020a61054b565b611f51816001600160a01b0316836001600160a01b031610606661054b565b60008381526009602052604090208054611f8e906001600160a01b0316158015611f86575060018201546001600160a01b0316155b61020b61054b565b80546001600160a01b039384166001600160a01b03199182161782556001909101805492909316911617905550565b6000828152600860205260408120905b8251811015610de4576000611ffe848381518110611fe757fe5b60200260200101518461310990919063ffffffff16565b905061200c8161020a61054b565b50600101611fcd565b6000828152600160205260408120905b8251811015610de457600061205384838151811061203f57fe5b60209081029190910101518490600061316c565b90506120618161020a61054b565b50600101612025565b600080600061207a868686613219565b9250925092506120a461208c846132e0565b801561209c575061209c836132e0565b61020d61054b565b600095865260096020526040862080546001600160a01b031990811682556001909101805490911690559490945550505050565b6000828152600860205260408120905b8251811015610de45760008382815181106120ff57fe5b6020026020010151905061214b61209c600760008881526020019081526020016000206000846001600160a01b03166001600160a01b03168152602001908152602001600020546132e0565b60008581526007602090815260408083206001600160a01b0385168452909152812081905561217a84836132ed565b90506121888161020961054b565b50506001016120e8565b6000828152600160205260408120905b8251811015610de45760008382815181106121b957fe5b6020026020010151905060006121cf84836133fb565b90506121dd61209c826132e0565b6121e7848361340a565b5050508060010190506121a2565b6121fd614d8e565b5090565b612209611720565b8361221381612615565b8361221d81611abb565b612231836000015151846020015151611dbe565b606061224084600001516134dc565b9050606061224e888361356a565b905060608060606122638c8c8c8c8c896135fb565b92509250925060006122748c611ef7565b9050600281600281111561228457fe5b14156122ec576122e78c8760008151811061229b57fe5b6020026020010151866000815181106122b057fe5b6020026020010151896001815181106122c557fe5b6020026020010151886001815181106122da57fe5b60200260200101516137c0565b612315565b60018160028111156122fa57fe5b141561230b576122e78c87866137ff565b6123158c8561386c565b6000808e600181111561232457fe5b1490508b6001600160a01b03168d7fe5ce249087ce04f05a957192435400fd97868dba0e6a4b4c049abf8af80dae788961235e88866138b5565b8760405161236e93929190615c58565b60405180910390a3505050505050505050611cdd6117d0565b606083516001600160401b03811180156123a057600080fd5b506040519080825280602002602001820160405280156123ca578160200160208202803683370190505b5090506123d5614db8565b6123dd614d15565b60008060005b8951811015612608578981815181106123f857fe5b6020026020010151945060008951866020015110801561241c575089518660400151105b905061242981606461054b565b600061244b8b88602001518151811061243e57fe5b6020026020010151611aed565b905060006124628c89604001518151811061243e57fe5b9050612485816001600160a01b0316836001600160a01b031614156101fd61054b565b60608801516124d55761249d600085116101fe61054b565b60006124aa8b848461395c565b6001600160a01b0316876001600160a01b03161490506124cc816101ff61054b565b50606088018590525b87516080880152868a60018111156124e957fe5b908160018111156124f657fe5b9052506001600160a01b0380831660208901528181166040808a01919091526060808b0151908a015260808a01516101008a01528c51821660c08a01528c01511660e088015260008061254889611b12565b9198509250905061255a8c858561397e565b975061258e61256883613998565b8c8c602001518151811061257857fe5b60200260200101516139ac90919063ffffffff16565b8b8b602001518151811061259e57fe5b6020026020010181815250506125dc6125b682613998565b8c8c60400151815181106125c657fe5b60200260200101516139e090919063ffffffff16565b8b8b60400151815181106125ec57fe5b60200260200101818152505050505050508060010190506123e3565b5050505050949350505050565b60008181526005602052604090205461057e9060ff166101f461054b565b600080600080600061264487613a14565b945094509450945050836001600160a01b0316866001600160a01b0316141561267357829450505050506116c7565b816001600160a01b0316866001600160a01b031614156126985793506116c792505050565b6126a36102096116cd565b5050505092915050565b60008281526007602090815260408083206001600160a01b0385168452909152812054816126da82613a8a565b806126f8575060008581526008602052604090206126f89085613a9c565b9050806127135761270885612615565b6127136102096116cd565b509392505050565b60008281526001602052604081206109e081846133fb565b6dffffffffffffffffffffffffffff1690565b60701c6dffffffffffffffffffffffffffff1690565b60e01c90565b60008061276e84611ef7565b9050600281600281111561277e57fe5b14156127965761278e8484613abd565b9150506116c7565b60018160028111156127a457fe5b14156127b45761278e8484613b0e565b61278e8484613b26565b60008060006127cc86611ef7565b905060008760028111156127dc57fe5b14156127f8576127ee86828787613b3e565b9250925050612824565b600187600281111561280657fe5b1415612818576127ee86828787613bb9565b6127ee86828787613c35565b94509492505050565b60007f00000000000000000000000000000000000000000000000000000000000000007f00000000000000000000000000000000000000000000000000000000000000007f000000000000000000000000000000000000000000000000000000000000000061289a613c98565b3060405160200180868152602001858152602001848152602001838152602001826001600160a01b031681526020019550505050505060405160208183030381529060405280519060200120905090565b60601c90565b60608060006128ff84611ef7565b9050600281600281111561290f57fe5b14156129285761291e84613c9c565b925092505061294e565b600181600281111561293657fe5b14156129455761291e84613dd1565b61291e84613ef6565b915091565b6060600082516001600160401b038111801561296e57600080fd5b50604051908082528060200260200182016040528015612998578160200160208202803683370190505b5091506000905060005b82518110156115085760008482815181106129b957fe5b602002602001015190506129cc81613ff0565b8483815181106129d857fe5b6020026020010181815250506129f6836129f18361275c565b61400b565b9250506001016129a2565b6001600160a01b03918216600090815260046020908152604080832093909416825291909152205460ff1690565b6003546040516326f8aa2160e21b815260009161010090046001600160a01b031690639be2a88490612a6990869086903090600401615d53565b60206040518083038186803b158015612a8157600080fd5b505afa158015612a95573d6000803e3d6000fd5b505050506040513d601f19601f820116820180604052508101906116c491906154ed565b600080612ac686866119af565b9050612adf8380612ad75750848210155b61020161054b565b612ae98185614022565b9150818103612b05878783612afd87613998565b600003614031565b5050949350505050565b6000612b1b84846119af565b90506000612b2982846118f3565b9050611cdd858583612b3a87613998565b614031565b604080516001600160a01b0380861660248301528416604482015260648082018490528251808303909101815260849091019091526020810180516001600160e01b03166323b872dd60e01b179052610de490859061301e565b612ba8814710156101a361054b565b6040516000906001600160a01b0384169083908381818185875af1925050503d8060008114612bf3576040519150601f19603f3d011682016040523d82523d6000602084013e612bf8565b606091505b50509050610f84816101a461054b565b6001600160a01b0382166000908152600260205260409020805460018101909155610f84612c36848361408c565b8361054b565b600080600080612c59866080015187602001518860400151613219565b92509250925060008087604001516001600160a01b031688602001516001600160a01b03161015612c8e575083905082612c94565b50829050835b612ca0888884846141da565b60408b015160208c01519199509294509092506001600160a01b03918216911610612cd457612ccf81836142d7565b612cde565b612cde82826142d7565b909255509295945050505050565b600080612d01846080015185602001516126ad565b90506000612d17856080015186604001516126ad565b9050612d25858584846141da565b6080880180516000908152600760208181526040808420828e01516001600160a01b03908116865290835281852098909855935183529081528282209a830151909516815298909352919096209590955550929392505050565b60808201516000908152600160209081526040822090840151829182918290612da9908390614312565b90506000612dc488604001518461431290919063ffffffff16565b9050811580612dd1575080155b15612dee57612de38860800151612615565b612dee6102096116cd565b60001991820191016000612e0184614331565b90506060816001600160401b0381118015612e1b57600080fd5b50604051908082528060200260200182016040528015612e45578160200160208202803683370190505b50600060a08c018190529091505b82811015612ec5576000612e678783614335565b9050612e7281613ff0565b838381518110612e7e57fe5b602002602001018181525050612e9b8c60a001516129f18361275c565b60a08d015281861415612eb057809850612ebc565b84821415612ebc578097505b50600101612e53565b5060405162f64aa560e11b81526001600160a01b038a16906301ec954a90612ef7908d90859089908990600401615dec565b602060405180830381600087803b158015612f1157600080fd5b505af1158015612f25573d6000803e3d6000fd5b505050506040513d601f19601f82011682018060405250810190612f4991906159de565b9750600080612f618c600001518d606001518c612fa3565b9092509050612f70898361434b565b9850612f7c888261437c565b9750612f8987878b614392565b612f9487868a614392565b50505050505050505092915050565b60008080856001811115612fb357fe5b1415612fc3575082905081612fc9565b50819050825b935093915050565b6000828202612ff5841580612fee575083858381612feb57fe5b04145b600361054b565b806130045760009150506116c7565b670de0b6b3a76400006000198201046001019150506116c7565b60006060836001600160a01b0316836040518082805190602001908083835b6020831061305c5780518252601f19909201916020918201910161303d565b6001836020036101000a0380198251168184511680821785525050505050509050019150506000604051808303816000865af19150503d80600081146130be576040519150601f19603f3d011682016040523d82523d6000602084013e6130c3565b606091505b509150915060008214156130db573d6000803e3d6000fd5b610de481516000148061310157508180602001905160208110156130fe57600080fd5b50515b6101a261054b565b60006131158383613a9c565b61316457508154600180820184556000848152602080822090930180546001600160a01b0319166001600160a01b038616908117909155855490825282860190935260409020919091556116c7565b5060006116c7565b6001600160a01b0382166000908152600284016020526040812054806131f957505082546040805180820182526001600160a01b03858116808352602080840187815260008781526001808c018452878220965187546001600160a01b03191696169590951786559051948401949094559482018089559083526002880190945291902091909155611824565b600019016000908152600180860160205260408220018390559050611824565b600080600080600061322b87876143aa565b91509150600061323b83836143db565b60008a81526009602090815260408083208484526002019091528120805460018201549197509293509061326e83613a8a565b8061327d575061327d82613a8a565b8061329e575061328d8c87613abd565b801561329e575061329e8c86613abd565b9050806132b9576132ae8c612615565b6132b96102096116cd565b6132c3838361440e565b98506132cf8383614433565b975050505050505093509350939050565b6001600160e01b03161590565b6001600160a01b038116600090815260018301602052604081205480156133f1578354600019808301910180821461339957600086600001828154811061333057fe5b60009182526020909120015487546001600160a01b039091169150819088908590811061335957fe5b600091825260208083209190910180546001600160a01b0319166001600160a01b0394851617905592909116815260018881019092526040902090830190555b85548690806133a457fe5b60008281526020808220830160001990810180546001600160a01b03191690559092019092556001600160a01b03871682526001888101909152604082209190915593506116c792505050565b60009150506116c7565b60006116c4838361020961444a565b6001600160a01b038116600090815260028301602052604081205480156133f15783546000198083019101808214613492576000818152600180880160209081526040808420868552818520815481546001600160a01b0319166001600160a01b039182161782558286015491860191909155905416845260028a0190915290912090830190555b600081815260018088016020908152604080842080546001600160a01b031916815583018490559389556001600160a01b03881683526002890190529181205592506116c7915050565b60608082516001600160401b03811180156134f657600080fd5b50604051908082528060200260200182016040528015613520578160200160208202803683370190505b50905060005b83518110156107fe5761353e84828151811061243e57fe5b82828151811061354a57fe5b6001600160a01b0390921660209283029190910190910152600101613526565b6060806060613578856128f1565b9150915061358882518551611dbe565b613598600083511161020f61054b565b60005b82518110156135f2576135ea8582815181106135b357fe5b60200260200101516001600160a01b03168483815181106135d057fe5b60200260200101516001600160a01b03161461020861054b565b60010161359b565b50949350505050565b606080606080600061360c86612953565b91509150600061361b8b6128eb565b905060008c600181111561362b57fe5b146136ce57806001600160a01b03166374f3b0098c8c8c878761364c614487565b8f604001516040518863ffffffff1660e01b81526004016136739796959493929190615d72565b600060405180830381600087803b15801561368d57600080fd5b505af11580156136a1573d6000803e3d6000fd5b505050506040513d6000823e601f3d908101601f191682016040526136c9919081019061547b565b613767565b806001600160a01b031663d5c096c48c8c8c87876136ea614487565b8f604001516040518863ffffffff1660e01b81526004016137119796959493929190615d72565b600060405180830381600087803b15801561372b57600080fd5b505af115801561373f573d6000803e3d6000fd5b505050506040513d6000823e601f3d908101601f19168201604052613767919081019061547b565b809550819650505061377d875186518651614501565b60008c600181111561378b57fe5b146137a25761379d8989898888614519565b6137af565b6137af8a8989888861465f565b955050505096509650969350505050565b60006137cc85846143db565b600087815260096020908152604080832084845260020190915290209091506137f585846142d7565b9055505050505050565b60005b8251811015610de45781818151811061381757fe5b602002602001015160076000868152602001908152602001600020600085848151811061384057fe5b6020908102919091018101516001600160a01b0316825281019190915260400160002055600101613802565b6000828152600160205260408120905b8251811015610de4576138ad8184838151811061389557fe5b6020026020010151846143929092919063ffffffff16565b60010161387c565b606082516001600160401b03811180156138ce57600080fd5b506040519080825280602002602001820160405280156138f8578160200160208202803683370190505b50905060005b83518110156107fe57826139285783818151811061391857fe5b602002602001015160000361393d565b83818151811061393457fe5b60200260200101515b82828151811061394957fe5b60209081029190910101526001016138fe565b60008084600181111561396b57fe5b1461397657816109e0565b509092915050565b60008084600181111561398d57fe5b146107fe57826109e0565b60006121fd600160ff1b83106101a561054b565b60008282016116c48284128015906139c45750848212155b806139d957506000841280156139d957508482125b600061054b565b60008183036116c48284128015906139f85750848213155b80613a0d5750600084128015613a0d57508482135b600161054b565b6000818152600960205260408120805460018201546001600160a01b0391821692849290911690829081613a4886856143db565b6000818152600284016020526040902080546001820154919950919250613a6f828261440e565b9650613a7b8282614433565b94505050505091939590929450565b6000613a95826132e0565b1592915050565b6001600160a01b031660009081526001919091016020526040902054151590565b600082815260096020526040812080546001600160a01b0384811691161480613af5575060018101546001600160a01b038481169116145b80156109e0575050506001600160a01b03161515919050565b60008281526008602052604081206109e08184613a9c565b60008281526001602052604081206109e081846147d4565b6000806002856002811115613b4f57fe5b1415613b6557613b608685856147f5565b613b8f565b6001856002811115613b7357fe5b1415613b8457613b60868585614803565b613b8f868585614811565b8215613ba957613ba96001600160a01b0385163385611e52565b5050600081900394909350915050565b6000806002856002811115613bca57fe5b1415613be057613bdb86858561481f565b613c0a565b6001856002811115613bee57fe5b1415613bff57613bdb86858561482d565b613c0a86858561483b565b8215613c2557613c256001600160a01b038516333086612b3f565b5090946000869003945092505050565b6000806002856002811115613c4657fe5b1415613c5e57613c57868585614849565b9050613c8b565b6001856002811115613c6c57fe5b1415613c7d57613c57868585614859565b613c88868585614869565b90505b6000915094509492505050565b4690565b606080600080600080613cae87613a14565b92975090955093509150506001600160a01b0384161580613cd657506001600160a01b038216155b15613cff575050604080516000808252602082019081528183019092529450925061294e915050565b60408051600280825260608201835290916020830190803683370190505095508386600081518110613d2d57fe5b60200260200101906001600160a01b031690816001600160a01b0316815250508186600181518110613d5b57fe5b6001600160a01b03929092166020928302919091018201526040805160028082526060820183529092909190830190803683370190505094508285600081518110613da257fe5b6020026020010181815250508085600181518110613dbc57fe5b60200260200101818152505050505050915091565b60008181526008602052604090206060908190613ded81614331565b6001600160401b0381118015613e0257600080fd5b50604051908082528060200260200182016040528015613e2c578160200160208202803683370190505b50925082516001600160401b0381118015613e4657600080fd5b50604051908082528060200260200182016040528015613e70578160200160208202803683370190505b50915060005b8351811015613eef576000613e8b8383614879565b905080858381518110613e9a57fe5b6001600160a01b03928316602091820292909201810191909152600088815260078252604080822093851682529290915220548451859084908110613edb57fe5b602090810291909101015250600101613e76565b5050915091565b60008181526001602052604090206060908190613f1281614331565b6001600160401b0381118015613f2757600080fd5b50604051908082528060200260200182016040528015613f51578160200160208202803683370190505b50925082516001600160401b0381118015613f6b57600080fd5b50604051908082528060200260200182016040528015613f95578160200160208202803683370190505b50915060005b8351811015613eef57613fae82826148a6565b858381518110613fba57fe5b60200260200101858481518110613fcd57fe5b60209081029190910101919091526001600160a01b039091169052600101613f9b565b6000613ffb82612746565b61400483612733565b0192915050565b60008183101561401b57816116c4565b5090919050565b600081831061401b57816116c4565b6001600160a01b038085166000818152600b602090815260408083209488168084529490915290819020859055517f18e1ea4139e68413d7d08aa752e71568e36b2c5bf940893314c2c5b01eaa0c429061197e908590615d4a565b6000806140976148ca565b9050428110156140ab5760009150506116c7565b60006140b56148d6565b9050806140c7576000925050506116c7565b6000816140d26149e7565b80516020918201206040805180840194909452838101919091523360608401526080830188905260a08084018790528151808503909101815260c0909301905281519101209050600061412482614a36565b90506000806000614133614a82565b925092509250600060018585858560405160008152602001604052604051808581526020018460ff1681526020018381526020018281526020019450505050506020604051602081039080840390855afa158015614195573d6000803e3d6000fd5b5050604051601f1901519150506001600160a01b038116158015906141cb57508a6001600160a01b0316816001600160a01b0316145b9b9a5050505050505050505050565b6000806000806141e986613ff0565b905060006141f686613ff0565b905061420d6142048861275c565b6129f18861275c565b60a08a015260405163274b044360e21b81526001600160a01b03891690639d2c110c90614242908c9086908690600401615e25565b602060405180830381600087803b15801561425c57600080fd5b505af1158015614270573d6000803e3d6000fd5b505050506040513d601f19601f8201168201806040525081019061429491906159de565b92506000806142ac8b600001518c6060015187612fa3565b90925090506142bb898361434b565b96506142c7888261437c565b9550505050509450945094915050565b6000806142ef6142e68561275c565b6129f18561275c565b90506109e06142fd85612733565b61430685612733565b8363ffffffff16614aa9565b6001600160a01b03166000908152600291909101602052604090205490565b5490565b6000908152600191820160205260409020015490565b6000806143618361435b86612733565b906118f3565b9050600061436e85612746565b905043611291838383614ab7565b6000806143618361438c86612733565b90614af0565b60009182526001928301602052604090912090910155565b600080826001600160a01b0316846001600160a01b0316106143cd5782846143d0565b83835b915091509250929050565b600082826040516020016143f0929190615b75565b60405160208183030381529060405280519060200120905092915050565b60006116c461441c84612733565b61442584612733565b61442e8661275c565b614ab7565b60006116c461444184612746565b61442584612746565b6001600160a01b03821660009081526002840160205260408120546144718115158461054b565b61447e8560018303614335565b95945050505050565b600061449161139a565b6001600160a01b03166355c676286040518163ffffffff1660e01b815260040160206040518083038186803b1580156144c957600080fd5b505afa1580156144dd573d6000803e3d6000fd5b505050506040513d601f19601f820116820180604052508101906112b991906159de565b610f84828414801561451257508183145b606761054b565b606083516001600160401b038111801561453257600080fd5b5060405190808252806020026020018201604052801561455c578160200160208202803683370190505b50905060005b85515181101561465557600084828151811061457a57fe5b602002602001015190506145aa8760200151838151811061459757fe5b60200260200101518210156101f961054b565b6000876000015183815181106145bc57fe5b602002602001015190506145d681838b8b60600151611ce4565b60008584815181106145e457fe5b602002602001015190506146006145fa83611aed565b82611ea4565b61462f61460d84836118f3565b89868151811061461957fe5b602002602001015161437c90919063ffffffff16565b85858151811061463b57fe5b602002602001018181525050505050806001019050614562565b5095945050505050565b6060600084516001600160401b038111801561467a57600080fd5b506040519080825280602002602001820160405280156146a4578160200160208202803683370190505b50915060005b8651518110156147ca5760008582815181106146c257fe5b602002602001015190506146f2886020015183815181106146df57fe5b60200260200101518211156101fa61054b565b60008860000151838151811061470457fe5b6020026020010151905061471e81838c8c60600151611c06565b614727816118e6565b156147395761473684836118f3565b93505b600086848151811061474757fe5b6020026020010151905061475d6145fa83611aed565b8083101561477c576147778382038a868151811061461957fe5b6147a4565b6147a48184038a868151811061478e57fe5b602002602001015161434b90919063ffffffff16565b8685815181106147b057fe5b6020026020010181815250505050508060010190506146aa565b506146558161198c565b6001600160a01b031660009081526002919091016020526040902054151590565b610de48383614b0684614b41565b610de48383614b0684614bec565b610de48383614b0684614c47565b610de48383614c9684614b41565b610de48383614c9684614bec565b610de48383614c9684614c47565b60006109e08484614cb785614b41565b60006109e08484614cb785614bec565b60006109e08484614cb785614c47565b600082600001828154811061488a57fe5b6000918252602090912001546001600160a01b03169392505050565b600090815260019182016020526040902080549101546001600160a01b0390911691565b60006112b96000614cd1565b6000803560e01c8063b95cac28811461491e57638bdb39138114614946576352bbbe29811461496e5763945bcec981146149965763fa6e671d81146149be57600092506149e2565b7f3f7b71252bd19113ff48c19c6e004a9bcfcca320a0d74d58e85877cbd7dcae5892506149e2565b7f8bbc57f66ea936902f50a71ce12b92c43f3c5340bb40c27c4e90ab84eeae335392506149e2565b7fe192dcbc143b1e244ad73b813fd3c097b832ad260a157340b4e5e5beda067abe92506149e2565b7f9bfc43a4d98313c6766986ffd7c916c7481566d9f224c6819af0a53388aced3a92506149e2565b7fa3f865aa351e51cfeb40f5178d1564bb629fe9030b83caf6361d1baaf5b90b5a92505b505090565b60606000368080601f0160208091040260200160405190810160405280939291908181526020018383808284376000920191909152505082519293505050608010156105485760803603815290565b6000614a4061282d565b82604051602001808061190160f01b81525060020183815260200182815260200192505050604051602081830303815290604052805190602001209050919050565b6000806000614a916020614cd1565b9250614a9d6040614cd1565b91506108406060614cd1565b60e01b60709190911b010190565b6000838301614ae5858210801590614add57506e01000000000000000000000000000082105b61020e61054b565b61447e858585614aa9565b6000614b0083831115600161054b565b50900390565b600080614b168361438c86612733565b90506000614b278461435b87612746565b90506000614b348661275c565b9050611291838383614ab7565b6000806000806000614b5289613a14565b9450509350935093506000836001600160a01b0316896001600160a01b03161415614b9d576000614b8784898b63ffffffff16565b9050614b938185614cdb565b9093509050614bbf565b6000614bad83898b63ffffffff16565b9050614bb98184614cdb565b90925090505b614bc983836142d7565b8555614bd58383614cf7565b600190950194909455509192505050949350505050565b600080614bf986866126ad565b90506000614c0b82858763ffffffff16565b60008881526007602090815260408083206001600160a01b038b16845290915290208190559050614c3c8183614cdb565b979650505050505050565b600084815260016020526040812081614c6082876133fb565b90506000614c7282868863ffffffff16565b9050614c7f83888361316c565b50614c8a8183614cdb565b98975050505050505050565b600080614ca68361435b86612733565b90506000614b278461438c87612746565b600080614cc384612733565b90504361447e828583614ab7565b3601607f19013590565b6000614ce682612746565b614cef84612746565b039392505050565b60006116c4614d0584612746565b614d0e84612746565b6000614aa9565b60408051610120810190915280600081526000602082018190526040820181905260608083018290526080830182905260a0830182905260c0830182905260e08301919091526101009091015290565b604080516080810190915280600081526000602082018190526040820181905260609091015290565b60405180608001604052806060815260200160608152602001606081526020016000151581525090565b6040518060a0016040528060008019168152602001600081526020016000815260200160008152602001606081525090565b803561062f81615eae565b600082601f830112614e05578081fd5b8135614e18614e1382615e91565b615e6e565b818152915060208083019084810181840286018201871015614e3957600080fd5b60005b84811015614e61578135614e4f81615eae565b84529282019290820190600101614e3c565b505050505092915050565b600082601f830112614e7c578081fd5b8135614e8a614e1382615e91565b818152915060208083019084810160005b84811015614e61578135870160a080601f19838c03011215614ebc57600080fd5b604080518281016001600160401b038282108183111715614ed957fe5b818452888601358352838601358984015260609150818601358484015260809350838601358284015284860135945080851115614f1557600080fd5b5050614f258c8885870101615007565b91810191909152865250509282019290820190600101614e9b565b600082601f830112614f50578081fd5b8135614f5e614e1382615e91565b818152915060208083019084810181840286018201871015614f7f57600080fd5b60005b84811015614e6157813584529282019290820190600101614f82565b600082601f830112614fae578081fd5b8151614fbc614e1382615e91565b818152915060208083019084810181840286018201871015614fdd57600080fd5b60005b84811015614e6157815184529282019290820190600101614fe0565b803561062f81615ec3565b600082601f830112615017578081fd5b81356001600160401b0381111561502a57fe5b61503d601f8201601f1916602001615e6e565b915080825283602082850101111561505457600080fd5b8060208401602084013760009082016020015292915050565b80356002811061062f57600080fd5b60006080828403121561508d578081fd5b6150976080615e6e565b905081356001600160401b03808211156150b057600080fd5b6150bc85838601614df5565b835260208401359150808211156150d257600080fd5b6150de85838601614f40565b602084015260408401359150808211156150f757600080fd5b5061510484828501615007565b60408301525061511660608301614ffc565b606082015292915050565b600060808284031215615132578081fd5b604051608081018181106001600160401b038211171561514e57fe5b604052905080823561515f81615eae565b8152602083013561516f81615ec3565b6020820152604083013561518281615eae565b6040820152606083013561519581615ec3565b6060919091015292915050565b6000602082840312156151b3578081fd5b81356116c481615eae565b600080604083850312156151d0578081fd5b82356151db81615eae565b915060208301356151eb81615eae565b809150509250929050565b60008060006060848603121561520a578081fd5b833561521581615eae565b9250602084013561522581615eae565b9150604084013561523581615ec3565b809150509250925092565b60008060408385031215615252578182fd5b823561525d81615eae565b915060208301356001600160401b03811115615277578182fd5b61528385828601614df5565b9150509250929050565b6000602080838503121561529f578182fd5b82356001600160401b03808211156152b5578384fd5b818501915085601f8301126152c8578384fd5b81356152d6614e1382615e91565b818152848101908486016080808502870188018b10156152f4578889fd5b8896505b8487101561536e5780828c03121561530e578889fd5b60408051828101818110898211171561532357fe5b8252833561533081615ed1565b8152838a01358a8201528184013561534781615eae565b918101919091526060838101359082015284526001969096019592870192908101906152f8565b50909998505050505050505050565b6000602080838503121561538f578182fd5b82356001600160401b03808211156153a5578384fd5b818501915085601f8301126153b8578384fd5b81356153c6614e1382615e91565b8181528481019084860160a0808502870188018b10156153e4578889fd5b8896505b8487101561536e5780828c0312156153fe578889fd5b60408051828101818110898211171561541357fe5b8252833560048110615423578b8cfd5b8152615430848b01614dea565b8a82015281840135828201526060915061544b828501614dea565b828201526080915061545e828501614dea565b9181019190915284526001969096019592870192908101906153e8565b6000806040838503121561548d578182fd5b82516001600160401b03808211156154a3578384fd5b6154af86838701614f9e565b935060208501519150808211156154c4578283fd5b5061528385828601614f9e565b6000602082840312156154e2578081fd5b81356116c481615ec3565b6000602082840312156154fe578081fd5b81516116c481615ec3565b60006020828403121561551a578081fd5b5035919050565b60008060008060808587031215615536578182fd5b84359350602085013561554881615eae565b9250604085013561555881615eae565b915060608501356001600160401b03811115615572578182fd5b61557e8782880161507c565b91505092959194509250565b6000806040838503121561559c578182fd5b8235915060208301356001600160401b03811115615277578182fd5b6000806000606084860312156155cc578081fd5b833592506020808501356001600160401b03808211156155ea578384fd5b6155f688838901614df5565b9450604087013591508082111561560b578384fd5b508501601f8101871361561c578283fd5b803561562a614e1382615e91565b81815283810190838501858402850186018b1015615646578687fd5b8694505b8385101561567157803561565d81615eae565b83526001949094019391850191850161564a565b5080955050505050509250925092565b60008060408385031215615693578182fd5b8235915060208301356151eb81615eae565b6000602082840312156156b6578081fd5b81356001600160e01b0319811681146116c4578182fd5b600080600080608085870312156156e2578182fd5b84356156ed81615eae565b935060208501356001600160401b0380821115615708578384fd5b61571488838901614df5565b94506040870135915080821115615729578384fd5b61573588838901614f40565b9350606087013591508082111561574a578283fd5b5061557e87828801615007565b600060208284031215615768578081fd5b81356116c481615ed1565b60008060008060e08587031215615788578182fd5b6157918561506d565b935060208501356001600160401b03808211156157ac578384fd5b6157b888838901614e6c565b945060408701359150808211156157cd578384fd5b506157da87828801614df5565b9250506157ea8660608701615121565b905092959194509250565b600080600080600080610120878903121561580e578384fd5b6158178761506d565b95506020808801356001600160401b0380821115615833578687fd5b61583f8b838c01614e6c565b975060408a0135915080821115615854578687fd5b6158608b838c01614df5565b965061586f8b60608c01615121565b955060e08a0135915080821115615884578485fd5b508801601f81018a13615895578384fd5b80356158a3614e1382615e91565b81815283810190838501858402850186018e10156158bf578788fd5b8794505b838510156158e15780358352600194909401939185019185016158c3565b50809650505050505061010087013590509295509295509295565b60008060008060e08587031215615911578182fd5b84356001600160401b0380821115615927578384fd5b9086019060c0828903121561593a578384fd5b60405160c08101818110838211171561594f57fe5b604052823581526159626020840161506d565b602082015261597360408401614dea565b604082015261598460608401614dea565b60608201526080830135608082015260a0830135828111156159a4578586fd5b6159b08a828601615007565b60a0830152508096505050506159c98660208701615121565b939693955050505060a08201359160c0013590565b6000602082840312156159ef578081fd5b5051919050565b6001600160a01b03169052565b6000815180845260208085019450808401835b83811015615a3b5781516001600160a01b031687529582019590820190600101615a16565b509495945050505050565b6000815180845260208085019450808401835b83811015615a3b57815187529582019590820190600101615a59565b60008151808452815b81811015615a9a57602081850181015186830182015201615a7e565b81811115615aab5782602083870101525b50601f01601f19169290920160200192915050565b60038110615aca57fe5b9052565b6000610120825160028110615adf57fe5b808552506020830151615af560208601826159f6565b506040830151615b0860408601826159f6565b50606083015160608501526080830151608085015260a083015160a085015260c0830151615b3960c08601826159f6565b5060e0830151615b4c60e08601826159f6565b5061010080840151828287015261129183870182615a75565b6000828483379101908152919050565b6bffffffffffffffffffffffff19606093841b811682529190921b16601482015260280190565b6001600160a01b0391909116815260200190565b6001600160a01b0383168152604081016118246020830184615ac0565b6001600160a01b03929092168252602082015260400190565b6000602082526116c46020830184615a03565b600060408252615c0c6040830185615a03565b828103602084810191909152845180835285820192820190845b81811015615c4b5784516001600160a01b031683529383019391830191600101615c26565b5090979650505050505050565b600060608252615c6b6060830186615a03565b8281036020840152615c7d8186615a46565b905082810360408401526112918185615a46565b600060808252615ca46080830187615a03565b8281036020840152615cb68187615a46565b90508281036040840152615cca8186615a46565b90508281036060840152614c3c8185615a75565b600060608252615cf16060830186615a03565b8281036020840152615d038186615a46565b915050826040830152949350505050565b6000602082526116c46020830184615a46565b901515815260200190565b92151583526020830191909152604082015260600190565b90815260200190565b9283526001600160a01b03918216602084015216604082015260600190565b60008882526001600160a01b03808916602084015280881660408401525060e06060830152615da460e0830187615a46565b8560808401528460a084015282810360c0840152615dc28185615a75565b9a9950505050505050505050565b602081016116c78284615ac0565b918252602082015260400190565b600060808252615dff6080830187615ace565b8281036020840152615e118187615a46565b604084019590955250506060015292915050565b600060608252615e386060830186615ace565b60208301949094525060400152919050565b938452602084019290925260408301526001600160a01b0316606082015260800190565b6040518181016001600160401b0381118282101715615e8957fe5b604052919050565b60006001600160401b03821115615ea457fe5b5060209081020190565b6001600160a01b038116811461057e57600080fd5b801515811461057e57600080fd5b6003811061057e57600080fdfea26469706673582212200a50d487e00af400065998a2ee36950624d5481f7f643eb7fa90b4ecefe218cd64736f6c6343000705003360c060405234801561001057600080fd5b50604051610b32380380610b3283398101604081905261002f9161004d565b30608052600160005560601b6001600160601b03191660a05261007b565b60006020828403121561005e578081fd5b81516001600160a01b0381168114610074578182fd5b9392505050565b60805160a05160601c610a8c6100a66000398061040b528061050d5250806102995250610a8c6000f3fe608060405234801561001057600080fd5b50600436106100935760003560e01c8063851c1bb311610066578063851c1bb3146100f1578063aaabadc514610104578063d877845c14610119578063e42abf3514610121578063fbfa77cf1461014157610093565b806338e9922e1461009857806355c67628146100ad5780636b6b9f69146100cb5780636daefab6146100de575b600080fd5b6100ab6100a636600461096d565b610149565b005b6100b56101a8565b6040516100c291906109f5565b60405180910390f35b6100ab6100d936600461096d565b6101ae565b6100ab6100ec3660046107c4565b610201565b6100b56100ff36600461090d565b610293565b61010c6102ed565b6040516100c2919061099d565b6100b56102fc565b61013461012f366004610845565b610302565b6040516100c291906109b1565b61010c610409565b61015161042d565b6101686706f05b59d3b2000082111561025861045e565b60018190556040517fa9ba3ffe0b6c366b81232caab38605a0699ad5398d6cce76f91ee809e322dafc9061019d9083906109f5565b60405180910390a150565b60015490565b6101b661042d565b6101cc662386f26fc1000082111561025961045e565b60028190556040517f5a0b7386237e7f07fa741efc64e59c9387d2cccafec760efed4d53387f20e19a9061019d9083906109f5565b610209610470565b61021161042d565b61021b8483610489565b60005b8481101561028357600086868381811061023457fe5b90506020020160208101906102499190610951565b9050600085858481811061025957fe5b6020029190910135915061027990506001600160a01b0383168583610496565b505060010161021e565b5061028c610502565b5050505050565b604080517f00000000000000000000000000000000000000000000000000000000000000006020808301919091526001600160e01b031984168284015282516024818403018152604490920190925280519101205b919050565b60006102f7610509565b905090565b60025490565b6060815167ffffffffffffffff8111801561031c57600080fd5b50604051908082528060200260200182016040528015610346578160200160208202803683370190505b50905060005b82518110156104035782818151811061036157fe5b60200260200101516001600160a01b03166370a08231306040518263ffffffff1660e01b8152600401610394919061099d565b60206040518083038186803b1580156103ac57600080fd5b505afa1580156103c0573d6000803e3d6000fd5b505050506040513d601f19601f820116820180604052508101906103e49190610985565b8282815181106103f057fe5b602090810291909101015260010161034c565b50919050565b7f000000000000000000000000000000000000000000000000000000000000000081565b60006104446000356001600160e01b031916610293565b905061045b610453823361059c565b61019161045e565b50565b8161046c5761046c8161062c565b5050565b6104826002600054141561019061045e565b6002600055565b61046c818314606761045e565b604080516001600160a01b038416602482015260448082018490528251808303909101815260649091019091526020810180517bffffffffffffffffffffffffffffffffffffffffffffffffffffffff1663a9059cbb60e01b1790526104fd90849061067f565b505050565b6001600055565b60007f00000000000000000000000000000000000000000000000000000000000000006001600160a01b031663aaabadc56040518163ffffffff1660e01b815260040160206040518083038186803b15801561056457600080fd5b505afa158015610578573d6000803e3d6000fd5b505050506040513d601f19601f820116820180604052508101906102f79190610935565b60006105a6610509565b6001600160a01b0316639be2a8848484306040518463ffffffff1660e01b81526004016105d5939291906109fe565b60206040518083038186803b1580156105ed57600080fd5b505afa158015610601573d6000803e3d6000fd5b505050506040513d601f19601f8201168201806040525081019061062591906108ed565b9392505050565b62461bcd60e51b6000908152602060045260076024526642414c23000030600a808404818106603090810160081b95839006959095019082900491820690940160101b939093010160c81b604452606490fd5b60006060836001600160a01b0316836040518082805190602001908083835b602083106106bd5780518252601f19909201916020918201910161069e565b6001836020036101000a0380198251168184511680821785525050505050509050019150506000604051808303816000865af19150503d806000811461071f576040519150601f19603f3d011682016040523d82523d6000602084013e610724565b606091505b5091509150600082141561073c573d6000803e3d6000fd5b61076a815160001480610762575081806020019051602081101561075f57600080fd5b50515b6101a261045e565b50505050565b60008083601f840112610781578182fd5b50813567ffffffffffffffff811115610798578182fd5b60208301915083602080830285010111156107b257600080fd5b9250929050565b80356102e881610a41565b6000806000806000606086880312156107db578081fd5b853567ffffffffffffffff808211156107f2578283fd5b6107fe89838a01610770565b90975095506020880135915080821115610816578283fd5b5061082388828901610770565b909450925050604086013561083781610a41565b809150509295509295909350565b60006020808385031215610857578182fd5b823567ffffffffffffffff8082111561086e578384fd5b818501915085601f830112610881578384fd5b81358181111561088d57fe5b838102915061089d848301610a1d565b8181528481019084860184860187018a10156108b7578788fd5b8795505b838610156108e0576108cc816107b9565b8352600195909501949186019186016108bb565b5098975050505050505050565b6000602082840312156108fe578081fd5b81518015158114610625578182fd5b60006020828403121561091e578081fd5b81356001600160e01b031981168114610625578182fd5b600060208284031215610946578081fd5b815161062581610a41565b600060208284031215610962578081fd5b813561062581610a41565b60006020828403121561097e578081fd5b5035919050565b600060208284031215610996578081fd5b5051919050565b6001600160a01b0391909116815260200190565b6020808252825182820181905260009190848201906040850190845b818110156109e9578351835292840192918401916001016109cd565b50909695505050505050565b90815260200190565b9283526001600160a01b03918216602084015216604082015260600190565b60405181810167ffffffffffffffff81118282101715610a3957fe5b604052919050565b6001600160a01b038116811461045b57600080fdfea26469706673582212203906065ec977ae7efbd371827af9ce111aafde7f5c6ecbe3c7d9c45336a392cc64736f6c63430007050033",
  "devdoc": {
    "details": "The `Vault` is Balancer V2's core contract. A single instance of it exists for the entire network, and it is the entity used to interact with Pools by Liquidity Providers who join and exit them, Traders who swap, and Asset Managers who withdraw and deposit tokens. The `Vault`'s source code is split among a number of sub-contracts, with the goal of improving readability and making understanding the system easier. Most sub-contracts have been marked as `abstract` to explicitly indicate that only the full `Vault` is meant to be deployed. Roughly speaking, these are the contents of each sub-contract:  - `AssetManagers`: Pool token Asset Manager registry, and Asset Manager interactions.  - `Fees`: set and compute protocol fees.  - `FlashLoans`: flash loan transfers and fees.  - `PoolBalances`: Pool joins and exits.  - `PoolRegistry`: Pool registration, ID management, and basic queries.  - `PoolTokens`: Pool token registration and registration, and balance queries.  - `Swaps`: Pool swaps.  - `UserBalance`: manage user balances (Internal Balance operations and external balance transfers)  - `VaultAuthorization`: access control, relayers and signature validation. Additionally, the different Pool specializations are handled by the `GeneralPoolsBalance`, `MinimalSwapInfoPoolsBalance` and `TwoTokenPoolsBalance` sub-contracts, which in turn make use of the `BalanceAllocation` library. The most important goal of the `Vault` is to make token swaps use as little gas as possible. This is reflected in a multitude of design decisions, from minor things like the format used to store Pool IDs, to major features such as the different Pool specialization settings. Finally, the large number of tasks carried out by the Vault means its bytecode is very large, close to exceeding the contract size limit imposed by EIP 170 (https://eips.ethereum.org/EIPS/eip-170). Manual tuning of the source code was required to improve code generation and bring the bytecode size below this limit. This includes extensive utilization of `internal` functions (particularly inside modifiers), usage of named return arguments, dedicated storage access methods, dynamic revert reason generation, and usage of inline assembly, to name a few.",
    "kind": "dev",
    "methods": {
      "WETH()": {
        "details": "Returns the Vault's WETH instance."
      },
      "batchSwap(uint8,(bytes32,uint256,uint256,uint256,bytes)[],address[],(address,bool,address,bool),int256[],uint256)": {
        "details": "Performs a series of swaps with one or multiple Pools. In each individual swap, the caller determines either the amount of tokens sent to or received from the Pool, depending on the `kind` value. Returns an array with the net Vault asset balance deltas. Positive amounts represent tokens (or ETH) sent to the Vault, and negative amounts represent tokens (or ETH) sent by the Vault. Each delta corresponds to the asset at the same index in the `assets` array. Swaps are executed sequentially, in the order specified by the `swaps` array. Each array element describes a Pool, the token to be sent to this Pool, the token to receive from it, and an amount that is either `amountIn` or `amountOut` depending on the swap kind. Multihop swaps can be executed by passing an `amount` value of zero for a swap. This will cause the amount in/out of the previous swap to be used as the amount in for the current one. In a 'given in' swap, 'tokenIn' must equal the previous swap's `tokenOut`. For a 'given out' swap, `tokenOut` must equal the previous swap's `tokenIn`. The `assets` array contains the addresses of all assets involved in the swaps. These are either token addresses, or the IAsset sentinel value for ETH (the zero address). Each entry in the `swaps` array specifies tokens in and out by referencing an index in `assets`. Note that Pools never interact with ETH directly: it will be wrapped to or unwrapped from WETH by the Vault. Internal Balance usage, sender, and recipient are determined by the `funds` struct. The `limits` array specifies the minimum or maximum amount of each token the vault is allowed to transfer. `batchSwap` can be used to make a single swap, like `swap` does, but doing so requires more gas than the equivalent `swap` call. Emits `Swap` events."
      },
      "deregisterTokens(bytes32,address[])": {
        "details": "Deregisters `tokens` for the `poolId` Pool. Must be called by the Pool's contract. Only registered tokens (via `registerTokens`) can be deregistered. Additionally, they must have zero total balance. For Pools with the Two Token specialization, `tokens` must have a length of two, that is, both tokens must be deregistered in the same `deregisterTokens` call. A deregistered token can be re-registered later on, possibly with a different Asset Manager. Emits a `TokensDeregistered` event."
      },
      "exitPool(bytes32,address,address,(address[],uint256[],bytes,bool))": {
        "details": "Called by users to exit a Pool, which transfers tokens from the Pool's balance to `recipient`. This will trigger custom Pool behavior, which will typically ask for something in return from `sender` - often tokenized Pool shares. The amount of tokens that can be withdrawn is limited by the Pool's `cash` balance (see `getPoolTokenInfo`). If the caller is not `sender`, it must be an authorized relayer for them. The `tokens` and `minAmountsOut` arrays must have the same length, and each entry in these indicates the minimum token amount to receive for each token contract. The amounts to send are decided by the Pool and not the Vault: it just enforces these minimums. If exiting a Pool that holds WETH, it is possible to receive ETH directly: the Vault will do the unwrapping. To enable this mechanism, the IAsset sentinel value (the zero address) must be passed in the `assets` array instead of the WETH address. Note that it is not possible to combine ETH and WETH in the same exit. `assets` must have the same length and order as the array returned by `getPoolTokens`. This prevents issues when interacting with Pools that register and deregister tokens frequently. If receiving ETH however, the array must be sorted *before* replacing the WETH address with the ETH sentinel value (the zero address), which means the final `assets` array might not be sorted. Pools with no registered tokens cannot be exited. If `toInternalBalance` is true, the tokens will be deposited to `recipient`'s Internal Balance. Otherwise, an ERC20 transfer will be performed. Note that ETH cannot be deposited to Internal Balance: attempting to do so will trigger a revert. `minAmountsOut` is the minimum amount of tokens the user expects to get out of the Pool, for each token in the `tokens` array. This array must match the Pool's registered tokens. This causes the Vault to call the `IBasePool.onExitPool` hook on the Pool's contract, where Pools implement their own custom logic. This typically requires additional information from the user (such as the expected number of Pool shares to return). This can be encoded in the `userData` argument, which is ignored by the Vault and passed directly to the Pool's contract. Emits a `PoolBalanceChanged` event."
      },
      "flashLoan(address,address[],uint256[],bytes)": {
        "details": "Performs a 'flash loan', sending tokens to `recipient`, executing the `receiveFlashLoan` hook on it, and then reverting unless the tokens plus a proportional protocol fee have been returned. The `tokens` and `amounts` arrays must have the same length, and each entry in these indicates the loan amount for each token contract. `tokens` must be sorted in ascending order. The 'userData' field is ignored by the Vault, and forwarded as-is to `recipient` as part of the `receiveFlashLoan` call. Emits `FlashLoan` events."
      },
      "getActionId(bytes4)": {
        "details": "Returns the action identifier associated with the external function described by `selector`."
      },
      "getAuthorizer()": {
        "details": "Returns the Vault's Authorizer."
      },
      "getDomainSeparator()": {
        "details": "Returns the EIP712 domain separator."
      },
      "getInternalBalance(address,address[])": {
        "details": "Returns `user`'s Internal Balance for a set of tokens."
      },
      "getNextNonce(address)": {
        "details": "Returns the next nonce used by an address to sign messages."
      },
      "getPausedState()": {
        "details": "Returns the current contract pause status, as well as the end times of the Pause Window and Buffer Period."
      },
      "getPool(bytes32)": {
        "details": "Returns a Pool's contract address and specialization setting."
      },
      "getPoolTokenInfo(bytes32,address)": {
        "details": "Returns detailed information for a Pool's registered token. `cash` is the number of tokens the Vault currently holds for the Pool. `managed` is the number of tokens withdrawn and held outside the Vault by the Pool's token Asset Manager. The Pool's total balance for `token` equals the sum of `cash` and `managed`. Internally, `cash` and `managed` are stored using 112 bits. No action can ever cause a Pool's token `cash`, `managed` or `total` balance to be greater than 2^112 - 1. `lastChangeBlock` is the number of the block in which `token`'s total balance was last modified (via either a join, exit, swap, or Asset Manager update). This value is useful to avoid so-called 'sandwich attacks', for example when developing price oracles. A change of zero (e.g. caused by a swap with amount zero) is considered a change for this purpose, and will update `lastChangeBlock`. `assetManager` is the Pool's token Asset Manager."
      },
      "getPoolTokens(bytes32)": {
        "details": "Returns a Pool's registered tokens, the total balance for each, and the latest block when *any* of the tokens' `balances` changed. The order of the `tokens` array is the same order that will be used in `joinPool`, `exitPool`, as well as in all Pool hooks (where applicable). Calls to `registerTokens` and `deregisterTokens` may change this order. If a Pool only registers tokens once, and these are sorted in ascending order, they will be stored in the same order as passed to `registerTokens`. Total balances include both tokens held by the Vault and those withdrawn by the Pool's Asset Managers. These are the amounts used by joins, exits and swaps. For a detailed breakdown of token balances, use `getPoolTokenInfo` instead."
      },
      "getProtocolFeesCollector()": {
        "details": "Returns the current protocol fee module."
      },
      "hasApprovedRelayer(address,address)": {
        "details": "Returns true if `user` has approved `relayer` to act as a relayer for them."
      },
      "joinPool(bytes32,address,address,(address[],uint256[],bytes,bool))": {
        "details": "Called by users to join a Pool, which transfers tokens from `sender` into the Pool's balance. This will trigger custom Pool behavior, which will typically grant something in return to `recipient` - often tokenized Pool shares. If the caller is not `sender`, it must be an authorized relayer for them. The `assets` and `maxAmountsIn` arrays must have the same length, and each entry indicates the maximum amount to send for each asset. The amounts to send are decided by the Pool and not the Vault: it just enforces these maximums. If joining a Pool that holds WETH, it is possible to send ETH directly: the Vault will do the wrapping. To enable this mechanism, the IAsset sentinel value (the zero address) must be passed in the `assets` array instead of the WETH address. Note that it is not possible to combine ETH and WETH in the same join. Any excess ETH will be sent back to the caller (not the sender, which is important for relayers). `assets` must have the same length and order as the array returned by `getPoolTokens`. This prevents issues when interacting with Pools that register and deregister tokens frequently. If sending ETH however, the array must be sorted *before* replacing the WETH address with the ETH sentinel value (the zero address), which means the final `assets` array might not be sorted. Pools with no registered tokens cannot be joined. If `fromInternalBalance` is true, the caller's Internal Balance will be preferred: ERC20 transfers will only be made for the difference between the requested amount and Internal Balance (if any). Note that ETH cannot be withdrawn from Internal Balance: attempting to do so will trigger a revert. This causes the Vault to call the `IBasePool.onJoinPool` hook on the Pool's contract, where Pools implement their own custom logic. This typically requires additional information from the user (such as the expected number of Pool shares). This can be encoded in the `userData` argument, which is ignored by the Vault and passed directly to the Pool's contract, as is `recipient`. Emits a `PoolBalanceChanged` event."
      },
      "managePoolBalance((uint8,bytes32,address,uint256)[])": {
        "details": "Performs a set of Pool balance operations, which may be either withdrawals, deposits or updates. Pool Balance management features batching, which means a single contract call can be used to perform multiple operations of different kinds, with different Pools and tokens, at once. For each operation, the caller must be registered as the Asset Manager for `token` in `poolId`."
      },
      "manageUserBalance((uint8,address,uint256,address,address)[])": {
        "details": "Performs a set of user balance operations, which involve Internal Balance (deposit, withdraw or transfer) and plain ERC20 transfers using the Vault's allowance. This last feature is particularly useful for relayers, as it lets integrators reuse a user's Vault allowance. For each operation, if the caller is not `sender`, it must be an authorized relayer for them."
      },
      "queryBatchSwap(uint8,(bytes32,uint256,uint256,uint256,bytes)[],address[],(address,bool,address,bool))": {
        "details": "Simulates a call to `batchSwap`, returning an array of Vault asset deltas. Calls to `swap` cannot be simulated directly, but an equivalent `batchSwap` call can and will yield the exact same result. Each element in the array corresponds to the asset at the same index, and indicates the number of tokens (or ETH) the Vault would take from the sender (if positive) or send to the recipient (if negative). The arguments it receives are the same that an equivalent `batchSwap` call would receive. Unlike `batchSwap`, this function performs no checks on the sender or recipient field in the `funds` struct. This makes it suitable to be called by off-chain applications via eth_call without needing to hold tokens, approve them for the Vault, or even know a user's address. Note that this function is not 'view' (due to implementation details): the client code must explicitly execute eth_call instead of eth_sendTransaction."
      },
      "registerPool(uint8)": {
        "details": "Registers the caller account as a Pool with a given specialization setting. Returns the Pool's ID, which is used in all Pool-related functions. Pools cannot be deregistered, nor can the Pool's specialization be changed. The caller is expected to be a smart contract that implements either `IGeneralPool` or `IMinimalSwapInfoPool`, depending on the chosen specialization setting. This contract is known as the Pool's contract. Note that the same contract may register itself as multiple Pools with unique Pool IDs, or in other words, multiple Pools may share the same contract. Emits a `PoolRegistered` event."
      },
      "registerTokens(bytes32,address[],address[])": {
        "details": "Registers `tokens` for the `poolId` Pool. Must be called by the Pool's contract. Pools can only interact with tokens they have registered. Users join a Pool by transferring registered tokens, exit by receiving registered tokens, and can only swap registered tokens. Each token can only be registered once. For Pools with the Two Token specialization, `tokens` must have a length of two, that is, both tokens must be registered in the same `registerTokens` call, and they must be sorted in ascending order. The `tokens` and `assetManagers` arrays must have the same length, and each entry in these indicates the Asset Manager for the corresponding token. Asset Managers can manage a Pool's tokens via `managePoolBalance`, depositing and withdrawing them directly, and can even set their balance to arbitrary amounts. They are therefore expected to be highly secured smart contracts with sound design principles, and the decision to register an Asset Manager should not be made lightly. Pools can choose not to assign an Asset Manager to a given token by passing in the zero address. Once an Asset Manager is set, it cannot be changed except by deregistering the associated token and registering again with a different Asset Manager. Emits a `TokensRegistered` event."
      },
      "setAuthorizer(address)": {
        "details": "Sets a new Authorizer for the Vault. The caller must be allowed by the current Authorizer to do this. Emits an `AuthorizerChanged` event."
      },
      "setPaused(bool)": {
        "details": "Safety mechanism to pause most Vault operations in the event of an emergency - typically detection of an error in some part of the system. The Vault can only be paused during an initial time period, after which pausing is forever disabled. While the contract is paused, the following features are disabled: - depositing and transferring internal balance - transferring external balance (using the Vault's allowance) - swaps - joining Pools - Asset Manager interactions Internal Balance can still be withdrawn, and Pools exited."
      },
      "setRelayerApproval(address,address,bool)": {
        "details": "Allows `relayer` to act as a relayer for `sender` if `approved` is true, and disallows it otherwise. Emits a `RelayerApprovalChanged` event."
      },
      "swap((bytes32,uint8,address,address,uint256,bytes),(address,bool,address,bool),uint256,uint256)": {
        "details": "Performs a swap with a single Pool. If the swap is 'given in' (the number of tokens to send to the Pool is known), it returns the amount of tokens taken from the Pool, which must be greater than or equal to `limit`. If the swap is 'given out' (the number of tokens to take from the Pool is known), it returns the amount of tokens sent to the Pool, which must be less than or equal to `limit`. Internal Balance usage and the recipient are determined by the `funds` struct. Emits a `Swap` event."
      }
    },
    "version": 1
  },
  "userdoc": {
    "kind": "user",
    "methods": {},
    "version": 1
  },
  "storageLayout": {
    "storage": [
      {
        "astId": 5984,
        "contract": "@balancer-labs/v2-vault/contracts/Vault.sol:Vault",
        "label": "_status",
        "offset": 0,
        "slot": "0",
        "type": "t_uint256"
      },
      {
        "astId": 12071,
        "contract": "@balancer-labs/v2-vault/contracts/Vault.sol:Vault",
        "label": "_generalPoolsBalances",
        "offset": 0,
        "slot": "1",
        "type": "t_mapping(t_bytes32,t_struct(IERC20ToBytes32Map)5293_storage)"
      },
      {
        "astId": 950,
        "contract": "@balancer-labs/v2-vault/contracts/Vault.sol:Vault",
        "label": "_nextNonce",
        "offset": 0,
        "slot": "2",
        "type": "t_mapping(t_address,t_uint256)"
      },
      {
        "astId": 1201,
        "contract": "@balancer-labs/v2-vault/contracts/Vault.sol:Vault",
        "label": "_paused",
        "offset": 0,
        "slot": "3",
        "type": "t_bool"
      },
      {
        "astId": 11211,
        "contract": "@balancer-labs/v2-vault/contracts/Vault.sol:Vault",
        "label": "_authorizer",
        "offset": 1,
        "slot": "3",
        "type": "t_contract(IAuthorizer)13658"
      },
      {
        "astId": 11217,
        "contract": "@balancer-labs/v2-vault/contracts/Vault.sol:Vault",
        "label": "_approvedRelayers",
        "offset": 0,
        "slot": "4",
        "type": "t_mapping(t_address,t_mapping(t_address,t_bool))"
      },
      {
        "astId": 8341,
        "contract": "@balancer-labs/v2-vault/contracts/Vault.sol:Vault",
        "label": "_isPoolRegistered",
        "offset": 0,
        "slot": "5",
        "type": "t_mapping(t_bytes32,t_bool)"
      },
      {
        "astId": 8343,
        "contract": "@balancer-labs/v2-vault/contracts/Vault.sol:Vault",
        "label": "_nextPoolNonce",
        "offset": 0,
        "slot": "6",
        "type": "t_uint256"
      },
      {
        "astId": 12487,
        "contract": "@balancer-labs/v2-vault/contracts/Vault.sol:Vault",
        "label": "_minimalSwapInfoPoolsBalances",
        "offset": 0,
        "slot": "7",
        "type": "t_mapping(t_bytes32,t_mapping(t_contract(IERC20)5936,t_bytes32))"
      },
      {
        "astId": 12491,
        "contract": "@balancer-labs/v2-vault/contracts/Vault.sol:Vault",
        "label": "_minimalSwapInfoPoolsTokens",
        "offset": 0,
        "slot": "8",
        "type": "t_mapping(t_bytes32,t_struct(AddressSet)5641_storage)"
      },
      {
        "astId": 12945,
        "contract": "@balancer-labs/v2-vault/contracts/Vault.sol:Vault",
        "label": "_twoTokenPoolTokens",
        "offset": 0,
        "slot": "9",
        "type": "t_mapping(t_bytes32,t_struct(TwoTokenPoolTokens)12941_storage)"
      },
      {
        "astId": 6394,
        "contract": "@balancer-labs/v2-vault/contracts/Vault.sol:Vault",
        "label": "_poolAssetManagers",
        "offset": 0,
        "slot": "10",
        "type": "t_mapping(t_bytes32,t_mapping(t_contract(IERC20)5936,t_address))"
      },
      {
        "astId": 10591,
        "contract": "@balancer-labs/v2-vault/contracts/Vault.sol:Vault",
        "label": "_internalTokenBalance",
        "offset": 0,
        "slot": "11",
        "type": "t_mapping(t_address,t_mapping(t_contract(IERC20)5936,t_uint256))"
      }
    ],
    "types": {
      "t_address": {
        "encoding": "inplace",
        "label": "address",
        "numberOfBytes": "20"
      },
      "t_array(t_address)dyn_storage": {
        "base": "t_address",
        "encoding": "dynamic_array",
        "label": "address[]",
        "numberOfBytes": "32"
      },
      "t_bool": {
        "encoding": "inplace",
        "label": "bool",
        "numberOfBytes": "1"
      },
      "t_bytes32": {
        "encoding": "inplace",
        "label": "bytes32",
        "numberOfBytes": "32"
      },
      "t_contract(IAuthorizer)13658": {
        "encoding": "inplace",
        "label": "contract IAuthorizer",
        "numberOfBytes": "20"
      },
      "t_contract(IERC20)5936": {
        "encoding": "inplace",
        "label": "contract IERC20",
        "numberOfBytes": "20"
      },
      "t_mapping(t_address,t_bool)": {
        "encoding": "mapping",
        "key": "t_address",
        "label": "mapping(address => bool)",
        "numberOfBytes": "32",
        "value": "t_bool"
      },
      "t_mapping(t_address,t_mapping(t_address,t_bool))": {
        "encoding": "mapping",
        "key": "t_address",
        "label": "mapping(address => mapping(address => bool))",
        "numberOfBytes": "32",
        "value": "t_mapping(t_address,t_bool)"
      },
      "t_mapping(t_address,t_mapping(t_contract(IERC20)5936,t_uint256))": {
        "encoding": "mapping",
        "key": "t_address",
        "label": "mapping(address => mapping(contract IERC20 => uint256))",
        "numberOfBytes": "32",
        "value": "t_mapping(t_contract(IERC20)5936,t_uint256)"
      },
      "t_mapping(t_address,t_uint256)": {
        "encoding": "mapping",
        "key": "t_address",
        "label": "mapping(address => uint256)",
        "numberOfBytes": "32",
        "value": "t_uint256"
      },
      "t_mapping(t_bytes32,t_bool)": {
        "encoding": "mapping",
        "key": "t_bytes32",
        "label": "mapping(bytes32 => bool)",
        "numberOfBytes": "32",
        "value": "t_bool"
      },
      "t_mapping(t_bytes32,t_mapping(t_contract(IERC20)5936,t_address))": {
        "encoding": "mapping",
        "key": "t_bytes32",
        "label": "mapping(bytes32 => mapping(contract IERC20 => address))",
        "numberOfBytes": "32",
        "value": "t_mapping(t_contract(IERC20)5936,t_address)"
      },
      "t_mapping(t_bytes32,t_mapping(t_contract(IERC20)5936,t_bytes32))": {
        "encoding": "mapping",
        "key": "t_bytes32",
        "label": "mapping(bytes32 => mapping(contract IERC20 => bytes32))",
        "numberOfBytes": "32",
        "value": "t_mapping(t_contract(IERC20)5936,t_bytes32)"
      },
      "t_mapping(t_bytes32,t_struct(AddressSet)5641_storage)": {
        "encoding": "mapping",
        "key": "t_bytes32",
        "label": "mapping(bytes32 => struct EnumerableSet.AddressSet)",
        "numberOfBytes": "32",
        "value": "t_struct(AddressSet)5641_storage"
      },
      "t_mapping(t_bytes32,t_struct(IERC20ToBytes32Map)5293_storage)": {
        "encoding": "mapping",
        "key": "t_bytes32",
        "label": "mapping(bytes32 => struct EnumerableMap.IERC20ToBytes32Map)",
        "numberOfBytes": "32",
        "value": "t_struct(IERC20ToBytes32Map)5293_storage"
      },
      "t_mapping(t_bytes32,t_struct(TwoTokenPoolBalances)12932_storage)": {
        "encoding": "mapping",
        "key": "t_bytes32",
        "label": "mapping(bytes32 => struct TwoTokenPoolsBalance.TwoTokenPoolBalances)",
        "numberOfBytes": "32",
        "value": "t_struct(TwoTokenPoolBalances)12932_storage"
      },
      "t_mapping(t_bytes32,t_struct(TwoTokenPoolTokens)12941_storage)": {
        "encoding": "mapping",
        "key": "t_bytes32",
        "label": "mapping(bytes32 => struct TwoTokenPoolsBalance.TwoTokenPoolTokens)",
        "numberOfBytes": "32",
        "value": "t_struct(TwoTokenPoolTokens)12941_storage"
      },
      "t_mapping(t_contract(IERC20)5936,t_address)": {
        "encoding": "mapping",
        "key": "t_contract(IERC20)5936",
        "label": "mapping(contract IERC20 => address)",
        "numberOfBytes": "32",
        "value": "t_address"
      },
      "t_mapping(t_contract(IERC20)5936,t_bytes32)": {
        "encoding": "mapping",
        "key": "t_contract(IERC20)5936",
        "label": "mapping(contract IERC20 => bytes32)",
        "numberOfBytes": "32",
        "value": "t_bytes32"
      },
      "t_mapping(t_contract(IERC20)5936,t_uint256)": {
        "encoding": "mapping",
        "key": "t_contract(IERC20)5936",
        "label": "mapping(contract IERC20 => uint256)",
        "numberOfBytes": "32",
        "value": "t_uint256"
      },
      "t_mapping(t_uint256,t_struct(IERC20ToBytes32MapEntry)5282_storage)": {
        "encoding": "mapping",
        "key": "t_uint256",
        "label": "mapping(uint256 => struct EnumerableMap.IERC20ToBytes32MapEntry)",
        "numberOfBytes": "32",
        "value": "t_struct(IERC20ToBytes32MapEntry)5282_storage"
      },
      "t_struct(AddressSet)5641_storage": {
        "encoding": "inplace",
        "label": "struct EnumerableSet.AddressSet",
        "members": [
          {
            "astId": 5636,
            "contract": "@balancer-labs/v2-vault/contracts/Vault.sol:Vault",
            "label": "_values",
            "offset": 0,
            "slot": "0",
            "type": "t_array(t_address)dyn_storage"
          },
          {
            "astId": 5640,
            "contract": "@balancer-labs/v2-vault/contracts/Vault.sol:Vault",
            "label": "_indexes",
            "offset": 0,
            "slot": "1",
            "type": "t_mapping(t_address,t_uint256)"
          }
        ],
        "numberOfBytes": "64"
      },
      "t_struct(IERC20ToBytes32Map)5293_storage": {
        "encoding": "inplace",
        "label": "struct EnumerableMap.IERC20ToBytes32Map",
        "members": [
          {
            "astId": 5284,
            "contract": "@balancer-labs/v2-vault/contracts/Vault.sol:Vault",
            "label": "_length",
            "offset": 0,
            "slot": "0",
            "type": "t_uint256"
          },
          {
            "astId": 5288,
            "contract": "@balancer-labs/v2-vault/contracts/Vault.sol:Vault",
            "label": "_entries",
            "offset": 0,
            "slot": "1",
            "type": "t_mapping(t_uint256,t_struct(IERC20ToBytes32MapEntry)5282_storage)"
          },
          {
            "astId": 5292,
            "contract": "@balancer-labs/v2-vault/contracts/Vault.sol:Vault",
            "label": "_indexes",
            "offset": 0,
            "slot": "2",
            "type": "t_mapping(t_contract(IERC20)5936,t_uint256)"
          }
        ],
        "numberOfBytes": "96"
      },
      "t_struct(IERC20ToBytes32MapEntry)5282_storage": {
        "encoding": "inplace",
        "label": "struct EnumerableMap.IERC20ToBytes32MapEntry",
        "members": [
          {
            "astId": 5279,
            "contract": "@balancer-labs/v2-vault/contracts/Vault.sol:Vault",
            "label": "_key",
            "offset": 0,
            "slot": "0",
            "type": "t_contract(IERC20)5936"
          },
          {
            "astId": 5281,
            "contract": "@balancer-labs/v2-vault/contracts/Vault.sol:Vault",
            "label": "_value",
            "offset": 0,
            "slot": "1",
            "type": "t_bytes32"
          }
        ],
        "numberOfBytes": "64"
      },
      "t_struct(TwoTokenPoolBalances)12932_storage": {
        "encoding": "inplace",
        "label": "struct TwoTokenPoolsBalance.TwoTokenPoolBalances",
        "members": [
          {
            "astId": 12929,
            "contract": "@balancer-labs/v2-vault/contracts/Vault.sol:Vault",
            "label": "sharedCash",
            "offset": 0,
            "slot": "0",
            "type": "t_bytes32"
          },
          {
            "astId": 12931,
            "contract": "@balancer-labs/v2-vault/contracts/Vault.sol:Vault",
            "label": "sharedManaged",
            "offset": 0,
            "slot": "1",
            "type": "t_bytes32"
          }
        ],
        "numberOfBytes": "64"
      },
      "t_struct(TwoTokenPoolTokens)12941_storage": {
        "encoding": "inplace",
        "label": "struct TwoTokenPoolsBalance.TwoTokenPoolTokens",
        "members": [
          {
            "astId": 12934,
            "contract": "@balancer-labs/v2-vault/contracts/Vault.sol:Vault",
            "label": "tokenA",
            "offset": 0,
            "slot": "0",
            "type": "t_contract(IERC20)5936"
          },
          {
            "astId": 12936,
            "contract": "@balancer-labs/v2-vault/contracts/Vault.sol:Vault",
            "label": "tokenB",
            "offset": 0,
            "slot": "1",
            "type": "t_contract(IERC20)5936"
          },
          {
            "astId": 12940,
            "contract": "@balancer-labs/v2-vault/contracts/Vault.sol:Vault",
            "label": "balances",
            "offset": 0,
            "slot": "2",
            "type": "t_mapping(t_bytes32,t_struct(TwoTokenPoolBalances)12932_storage)"
          }
        ],
        "numberOfBytes": "96"
      },
      "t_uint256": {
        "encoding": "inplace",
        "label": "uint256",
        "numberOfBytes": "32"
      }
    }
  }
}