{
  "address": "0x18e880a7FaD35F8f59eA2f5090391408A36f80f2",
  "abi": [
    {
      "inputs": [],
      "name": "claim",
      "outputs": [],
      "stateMutability": "nonpayable",
      "type": "function"
    }
  ],
  "transactionHash": "0x1bb0de69a16590f37a0e911e6679e73b0a3691a049bc82c0c82f34718e773165",
  "args": [],
  "numDeployments": 1,
  "solcInputHash": "81a806f3e1239505ec8805c5164abe8e",
  "bytecode": "0x608060405234801561001057600080fd5b5061023f806100206000396000f3fe608060405234801561001057600080fd5b506004361061002b5760003560e01c80634e71d92d14610030575b600080fd5b61003861003a565b005b6000336001600160a01b031663d4b839926040518163ffffffff1660e01b8152600401602060405180830381865afa15801561007a573d6000803e3d6000fd5b505050506040513d601f19601f8201168201806040525081019061009e919061019e565b6040516370a0823160e01b81523060048201529091506001600160a01b0382169063a9059cbb90339083906370a0823190602401602060405180830381865afa1580156100ef573d6000803e3d6000fd5b505050506040513d601f19601f8201168201806040525081019061011391906101ce565b6040517fffffffff0000000000000000000000000000000000000000000000000000000060e085901b1681526001600160a01b03909216600483015260248201526044016020604051808303816000875af1158015610176573d6000803e3d6000fd5b505050506040513d601f19601f8201168201806040525081019061019a91906101e7565b5050565b6000602082840312156101b057600080fd5b81516001600160a01b03811681146101c757600080fd5b9392505050565b6000602082840312156101e057600080fd5b5051919050565b6000602082840312156101f957600080fd5b815180151581146101c757600080fdfea2646970667358221220b179c7de6ed4c53d8dbe156798d530968f8259cc106a035535a9ba995064d53a64736f6c634300080f0033",
  "devdoc": {
    "details": "This claimer only returns the received target back to the adapter. This is because target has automatic rewards claiming which is triggered when transferring the target.",
    "kind": "dev",
    "methods": {
      "claim()": {
        "details": "Claims rewards on protocol."
      }
    },
    "title": "ExtractableReward",
    "version": 1
  },
  "userdoc": {
    "kind": "user",
    "methods": {},
    "version": 1
  },
  "storageLayout": {
    "storage": [],
    "types": null
  }
}