{
  "address": "0x6B48a75Db6619C95431599059BA0740BBd2A46d9",
  "abi": [
    {
      "inputs": [
        {
          "internalType": "address",
          "name": "_divider",
          "type": "address"
        },
        {
          "components": [
            {
              "internalType": "address",
              "name": "oracle",
              "type": "address"
            },
            {
              "internalType": "uint256",
              "name": "ifee",
              "type": "uint256"
            },
            {
              "internalType": "address",
              "name": "stake",
              "type": "address"
            },
            {
              "internalType": "uint256",
              "name": "stakeSize",
              "type": "uint256"
            },
            {
              "internalType": "uint256",
              "name": "minm",
              "type": "uint256"
            },
            {
              "internalType": "uint256",
              "name": "maxm",
              "type": "uint256"
            },
            {
              "internalType": "uint16",
              "name": "mode",
              "type": "uint16"
            },
            {
              "internalType": "uint64",
              "name": "tilt",
              "type": "uint64"
            }
          ],
          "internalType": "struct BaseFactory.FactoryParams",
          "name": "_factoryParams",
          "type": "tuple"
        },
        {
          "internalType": "address",
          "name": "_reward",
          "type": "address"
        }
      ],
      "stateMutability": "nonpayable",
      "type": "constructor"
    },
    {
      "anonymous": false,
      "inputs": [
        {
          "indexed": false,
          "internalType": "address",
          "name": "addr",
          "type": "address"
        },
        {
          "indexed": true,
          "internalType": "address",
          "name": "target",
          "type": "address"
        }
      ],
      "name": "AdapterAdded",
      "type": "event"
    },
    {
      "inputs": [],
      "name": "COMPTROLLER",
      "outputs": [
        {
          "internalType": "address",
          "name": "",
          "type": "address"
        }
      ],
      "stateMutability": "view",
      "type": "function"
    },
    {
      "inputs": [],
      "name": "DEFAULT_LEVEL",
      "outputs": [
        {
          "internalType": "uint256",
          "name": "",
          "type": "uint256"
        }
      ],
      "stateMutability": "view",
      "type": "function"
    },
    {
      "inputs": [
        {
          "internalType": "address",
          "name": "",
          "type": "address"
        }
      ],
      "name": "adapters",
      "outputs": [
        {
          "internalType": "address",
          "name": "",
          "type": "address"
        }
      ],
      "stateMutability": "view",
      "type": "function"
    },
    {
      "inputs": [
        {
          "internalType": "address",
          "name": "_target",
          "type": "address"
        }
      ],
      "name": "deployAdapter",
      "outputs": [
        {
          "internalType": "address",
          "name": "adapter",
          "type": "address"
        }
      ],
      "stateMutability": "nonpayable",
      "type": "function"
    },
    {
      "inputs": [],
      "name": "divider",
      "outputs": [
        {
          "internalType": "address",
          "name": "",
          "type": "address"
        }
      ],
      "stateMutability": "view",
      "type": "function"
    },
    {
      "inputs": [
        {
          "internalType": "address",
          "name": "_target",
          "type": "address"
        }
      ],
      "name": "exists",
      "outputs": [
        {
          "internalType": "bool",
          "name": "isListed",
          "type": "bool"
        }
      ],
      "stateMutability": "nonpayable",
      "type": "function"
    },
    {
      "inputs": [],
      "name": "factoryParams",
      "outputs": [
        {
          "internalType": "address",
          "name": "oracle",
          "type": "address"
        },
        {
          "internalType": "uint256",
          "name": "ifee",
          "type": "uint256"
        },
        {
          "internalType": "address",
          "name": "stake",
          "type": "address"
        },
        {
          "internalType": "uint256",
          "name": "stakeSize",
          "type": "uint256"
        },
        {
          "internalType": "uint256",
          "name": "minm",
          "type": "uint256"
        },
        {
          "internalType": "uint256",
          "name": "maxm",
          "type": "uint256"
        },
        {
          "internalType": "uint16",
          "name": "mode",
          "type": "uint16"
        },
        {
          "internalType": "uint64",
          "name": "tilt",
          "type": "uint64"
        }
      ],
      "stateMutability": "view",
      "type": "function"
    },
    {
      "inputs": [],
      "name": "protocol",
      "outputs": [
        {
          "internalType": "address",
          "name": "",
          "type": "address"
        }
      ],
      "stateMutability": "view",
      "type": "function"
    },
    {
      "inputs": [],
      "name": "reward",
      "outputs": [
        {
          "internalType": "address",
          "name": "",
          "type": "address"
        }
      ],
      "stateMutability": "view",
      "type": "function"
    }
  ],
  "transactionHash": "0x336407245cf07e7abc0cb4c7427a249567bb2bc99d102344cbca938e315b7fe7",
  "args": [
    "0x86bA3E96Be68563E41c2f5769F1AF9fAf758e6E0",
    [
      "0x1887118E49e0F4A78Bd71B792a49dE03504A764D",
      "2500000000000000",
      "0xC02aaA39b223FE8D0A0e5C4F27eAD9083C756Cc2",
      "250000000000000000",
      "1814000",
      "33507037",
      0,
      0
    ],
    "0xc00e94cb662c3520282e6f5717214004a7f26888"
  ],
  "numDeployments": 1,
  "solcInputHash": "a8857417c8d904a9d5fa33595a9f4cf2",
  "bytecode": "0x60e060405234801561001057600080fd5b506040516133c73803806133c783398101604081905261002f9161012c565b6001600160a01b039283166080908152733d9819210a31b4961b30ef54be2aed79b9c9cd3b60a09081528351600180549187166001600160a01b031992831617905560208501516002556040850151600380549188169190921617905560608401516004559083015160055582015160065560c0808301516007805460e0909501516001600160401b031662010000026001600160501b031990951661ffff9092169190911793909317909255919091169052610217565b80516001600160a01b03811681146100fe57600080fd5b919050565b805161ffff811681146100fe57600080fd5b80516001600160401b03811681146100fe57600080fd5b600080600083850361014081121561014357600080fd5b61014c856100e7565b935061010080601f198301121561016257600080fd5b60405191508082016001600160401b038111838210171561019357634e487b7160e01b600052604160045260246000fd5b6040526101a2602087016100e7565b8252604086015160208301526101ba606087016100e7565b60408301526080860151606083015260a0860151608083015260c086015160a08301526101e960e08701610103565b60c08301526101f9818701610115565b60e083015250915061020e61012085016100e7565b90509250925092565b60805160a05160c05161316d61025a6000396000818160bb015261032001526000818161015b015261041d01526000818161010001526102cb015261316d6000f3fe60806040523480156200001157600080fd5b5060043610620000b05760003560e01c80638ce74426116200007f578063bbe451d51162000062578063bbe451d51462000195578063e5711ffc1462000234578063f6a3d24e146200026057600080fd5b80638ce74426146200015557806393d4750c146200017d57600080fd5b8063228cb73314620000b5578063378efa3714620000fa5780635f82c67e1462000122578063639cc279146200013e575b600080fd5b620000dd7f000000000000000000000000000000000000000000000000000000000000000081565b6040516001600160a01b0390911681526020015b60405180910390f35b620000dd7f000000000000000000000000000000000000000000000000000000000000000081565b620000dd733d9819210a31b4961b30ef54be2aed79b9c9cd3b81565b620000dd6200014f366004620004a6565b62000288565b620000dd7f000000000000000000000000000000000000000000000000000000000000000081565b62000186601f81565b604051908152602001620000f1565b600154600254600354600454600554600654600754620001da966001600160a01b039081169695169392919061ffff81169062010000900467ffffffffffffffff1688565b604080516001600160a01b03998a168152602081019890985295909716948601949094526060850192909252608084015260a083015261ffff1660c082015267ffffffffffffffff90911660e082015261010001620000f1565b620000dd62000245366004620004a6565b6000602081905290815260409020546001600160a01b031681565b6200027762000271366004620004a6565b620003e2565b6040519015158152602001620000f1565b6000606082901b7fffffffffffffffffffffffffffffffffffffffff000000000000000000000000166001546002546003546004546005546006546007546040517f0000000000000000000000000000000000000000000000000000000000000000978b976001600160a01b0391821697909691169490939092909161ffff82169162010000900467ffffffffffffffff1690601f907f0000000000000000000000000000000000000000000000000000000000000000906200034b9062000498565b6001600160a01b039c8d1681529a8c1660208c0152988b1660408b015260608a0197909752948916608089015260a088019390935260c087019190915260e086015261ffff1661010085015267ffffffffffffffff16610120840152610140830152909116610160820152610180018190604051809103906000f5905080158015620003db573d6000803e3d6000fd5b5092915050565b6040517f8e8f294b0000000000000000000000000000000000000000000000000000000081526001600160a01b0382811660048301526000917f000000000000000000000000000000000000000000000000000000000000000090911690638e8f294b906024016060604051808303816000875af115801562000469573d6000803e3d6000fd5b505050506040513d601f19601f820116820180604052508101906200048f9190620004ee565b50909392505050565b612c08806200053083390190565b600060208284031215620004b957600080fd5b81356001600160a01b0381168114620004d157600080fd5b9392505050565b80518015158114620004e957600080fd5b919050565b6000806000606084860312156200050457600080fd5b6200050f84620004d8565b9250602084015191506200052660408501620004d8565b9050925092509256fe6102606040523480156200001257600080fd5b5060405162002c0838038062002c088339810160408190526200003591620005f8565b8b8b6001600160a01b038116734ddc2d193948926d02f9b1fe9e1daa0718270ed514620000c7578c6001600160a01b0316636f307dc36040518163ffffffff1660e01b8152600401602060405180830381865afa1580156200009b573d6000803e3d6000fd5b505050506040513d601f19601f82011682018060405250810190620000c19190620006c8565b620000dd565b73c02aaa39b223fe8d0a0e5c4f27ead9083c756cc25b8c8c8c8c8c8c8c8c8c8c8c8c8c8c8c8c8c8c8c8c61ffff168c6001600160401b03168c83851062000121576040516315a68d0760e11b815260040160405180910390fd5b6001600160a01b03808d166080528b811660a08190528b821660c0528a821660e0526101a08a9052908816610100526101208790526101408690526101608590526101808490526101c0839052604080516306fdde0360e01b815290516306fdde03916004808201926000929091908290030181865afa158015620001aa573d6000803e3d6000fd5b505050506040513d6000823e601f3d908101601f19168201604052620001d4919081019062000736565b604051602001620001e69190620007ee565b604051602081830303815290604052600090805190602001906200020c9291906200051d565b508a6001600160a01b03166395d89b416040518163ffffffff1660e01b8152600401600060405180830381865afa1580156200024c573d6000803e3d6000fd5b505050506040513d6000823e601f3d908101601f1916820160405262000276919081019062000736565b6040516020016200028891906200081c565b60405160208183030381529060405260019080519060200190620002ae9291906200051d565b506101e081905260405163095ea7b360e01b81526001600160a01b038d8116600483015260001960248301528c169063095ea7b3906044016020604051808303816000875af115801562000306573d6000803e3d6000fd5b505050506040513d601f19601f820116820180604052508101906200032c91906200084a565b5060405163095ea7b360e01b81526001600160a01b038d81166004830152600019602483015288169063095ea7b3906044016020604051808303816000875af11580156200037e573d6000803e3d6000fd5b505050506040513d601f19601f82011682018060405250810190620003a491906200084a565b50505050505050505050505050806001600160a01b0316610200816001600160a01b03168152505050505050505050505050505050734ddc2d193948926d02f9b1fe9e1daa0718270ed56001600160a01b03168b6001600160a01b03161415156102208115158152505060c0516001600160a01b031663095ea7b38c6000196040518363ffffffff1660e01b8152600401620004559291906001600160a01b03929092168252602082015260400190565b6020604051808303816000875af115801562000475573d6000803e3d6000fd5b505050506040513d601f19601f820116820180604052508101906200049b91906200084a565b5060c0516001600160a01b031663313ce5676040518163ffffffff1660e01b8152600401602060405180830381865afa158015620004dd573d6000803e3d6000fd5b505050506040513d601f19601f820116820180604052508101906200050391906200086e565b60ff166102405250620008d09a5050505050505050505050565b8280546200052b9062000893565b90600052602060002090601f0160209004810192826200054f57600085556200059a565b82601f106200056a57805160ff19168380011785556200059a565b828001600101855582156200059a579182015b828111156200059a5782518255916020019190600101906200057d565b50620005a8929150620005ac565b5090565b5b80821115620005a85760008155600101620005ad565b80516001600160a01b0381168114620005db57600080fd5b919050565b80516001600160401b0381168114620005db57600080fd5b6000806000806000806000806000806000806101808d8f0312156200061c57600080fd5b620006278d620005c3565b9b506200063760208e01620005c3565b9a506200064760408e01620005c3565b995060608d015198506200065e60808e01620005c3565b975060a08d0151965060c08d0151955060e08d015194506101008d015161ffff811681146200068c57600080fd5b93506200069d6101208e01620005e0565b92506101408d01519150620006b66101608e01620005c3565b90509295989b509295989b509295989b565b600060208284031215620006db57600080fd5b620006e682620005c3565b9392505050565b634e487b7160e01b600052604160045260246000fd5b60005b838110156200072057818101518382015260200162000706565b8381111562000730576000848401525b50505050565b6000602082840312156200074957600080fd5b81516001600160401b03808211156200076157600080fd5b818401915084601f8301126200077657600080fd5b8151818111156200078b576200078b620006ed565b604051601f8201601f19908116603f01168101908382118183101715620007b657620007b6620006ed565b81604052828152876020848701011115620007d057600080fd5b620007e383602083016020880162000703565b979650505050505050565b600082516200080281846020870162000703565b671020b230b83a32b960c11b920191825250600801919050565b600082516200083081846020870162000703565b6716b0b230b83a32b960c11b920191825250600801919050565b6000602082840312156200085d57600080fd5b81518015158114620006e657600080fd5b6000602082840312156200088157600080fd5b815160ff81168114620006e657600080fd5b600181811c90821680620008a857607f821691505b60208210811415620008ca57634e487b7160e01b600052602260045260246000fd5b50919050565b60805160a05160c05160e05161010051610120516101405161016051610180516101a0516101c0516101e05161020051610220516102405161218962000a7f60003960008181610520015281816117500152818161177d01526117c40152600081816105bb01528181610a7901528181610bcb01528181610cdd01528181610f47015281816110bb01526111560152600081816103150152818161198401528181611a8f01528181611acd0152611b4d015260006107230152600061086601526000610832015260006103f60152600081816102be01526106b3015260008181610690015261092f0152600081816103b601526104b801526000818161038f01526104ec0152600081816107570152610af40152600081816106ef01528181610acc01528181610ba101528181610eef015261121f01526000818161036a015281816108b0015281816109e401528181610b7501528181610d0301528181610da901528181610f1b0152818161100b015281816113210152818161138a015281816114650152818161167501526116ec01526000818161045701528181611254015261151a01526121896000f3fe60806040526004361061025e5760003560e01c8063610968201161013e578063ad5c4648116100bf578063d4b8399211610079578063da4ca41311610061578063da4ca413146108f2578063f51e181a14610908578063fc024d2c1461091d57005b8063d4b839921461089e578063d9d98ce4146108d257005b8063b8c15a9f116100a7578063b8c15a9f14610820578063c39a3b2914610854578063c5c108c71461088857005b8063ad5c4648146107d8578063b484972a1461080057005b80636fd5ae15116101105780638237e538116100f85780638237e5381461077957806395d89b41146107ad578063a8d5fd65146107c257005b80636fd5ae15146107115780637dc0d1d01461074557005b80636109682014610635578063613255ab1461065d57806364c56e3c1461067d5780636f307dc3146106dd57005b8063379f53e3116101e05780634aae9fed1161019a57806354cbe6401161018257806354cbe640146105a95780635cffe9de146105ed5780635f82c67e1461060d57005b80634aae9fed1461056957806351c39ea11461058957005b80633a4b66f1116101c85780633a4b66f1146104da57806345ed132f1461050e578063468f02d21461055457005b8063379f53e3146104795780633a34330e146104a657005b8063228cb73311610231578063295a521211610219578063295a5212146103e457806329a4360814610418578063378efa371461044557005b8063228cb7331461030357806327b327d01461034f57005b806306fdde031461026057806314282f581461028b578063167c3a4f146102ac57806322677849146102ee575b005b34801561026c57600080fd5b50610275610951565b6040516102829190611cfd565b60405180910390f35b34801561029757600080fd5b5061025e6102a6366004611d52565b50505050565b3480156102b857600080fd5b506102e07f000000000000000000000000000000000000000000000000000000000000000081565b604051908152602001610282565b3480156102fa57600080fd5b506102e06109df565b34801561030f57600080fd5b506103377f000000000000000000000000000000000000000000000000000000000000000081565b6040516001600160a01b039091168152602001610282565b34801561035b57600080fd5b50604080516001600160a01b037f0000000000000000000000000000000000000000000000000000000000000000811682527f00000000000000000000000000000000000000000000000000000000000000001660208201527f000000000000000000000000000000000000000000000000000000000000000091810191909152606001610282565b3480156103f057600080fd5b506102e07f000000000000000000000000000000000000000000000000000000000000000081565b34801561042457600080fd5b506102e0610433366004611d9c565b60056020526000908152604090205481565b34801561045157600080fd5b506103377f000000000000000000000000000000000000000000000000000000000000000081565b34801561048557600080fd5b506102e0610494366004611d9c565b60066020526000908152604090205481565b3480156104b257600080fd5b506102e07f000000000000000000000000000000000000000000000000000000000000000081565b3480156104e657600080fd5b506103377f000000000000000000000000000000000000000000000000000000000000000081565b34801561051a57600080fd5b506105427f000000000000000000000000000000000000000000000000000000000000000081565b60405160ff9091168152602001610282565b34801561056057600080fd5b506102e0610a75565b34801561057557600080fd5b506102e0610584366004611dc0565b610b71565b34801561059557600080fd5b506102e06105a4366004611dc0565b610eeb565b3480156105b557600080fd5b506105dd7f000000000000000000000000000000000000000000000000000000000000000081565b6040519015158152602001610282565b3480156105f957600080fd5b506105dd610608366004611dd9565b611246565b34801561061957600080fd5b50610337733d9819210a31b4961b30ef54be2aed79b9c9cd3b81565b34801561064157600080fd5b50610337734ddc2d193948926d02f9b1fe9e1daa0718270ed581565b34801561066957600080fd5b506102e0610678366004611d9c565b61149a565b34801561068957600080fd5b50604080517f000000000000000000000000000000000000000000000000000000000000000081527f0000000000000000000000000000000000000000000000000000000000000000602082015201610282565b3480156106e957600080fd5b506103377f000000000000000000000000000000000000000000000000000000000000000081565b34801561071d57600080fd5b506102e07f000000000000000000000000000000000000000000000000000000000000000081565b34801561075157600080fd5b506103377f000000000000000000000000000000000000000000000000000000000000000081565b34801561078557600080fd5b506102e07f439148f0bbc682ca079e46d6e2c2f0c1e3b820f1a291b069d8882abf8cf18dd981565b3480156107b957600080fd5b5061027561150b565b3480156107ce57600080fd5b506102e060025481565b3480156107e457600080fd5b5061033773c02aaa39b223fe8d0a0e5c4f27ead9083c756cc281565b34801561080c57600080fd5b5061025e61081b366004611e78565b611518565b34801561082c57600080fd5b506102e07f000000000000000000000000000000000000000000000000000000000000000081565b34801561086057600080fd5b506102e07f000000000000000000000000000000000000000000000000000000000000000081565b34801561089457600080fd5b506102e060035481565b3480156108aa57600080fd5b506103377f000000000000000000000000000000000000000000000000000000000000000081565b3480156108de57600080fd5b506102e06108ed366004611ebf565b611671565b3480156108fe57600080fd5b506102e060045481565b34801561091457600080fd5b506102e06116e7565b34801561092957600080fd5b506102e07f000000000000000000000000000000000000000000000000000000000000000081565b6000805461095e90611eeb565b80601f016020809104026020016040519081016040528092919081815260200182805461098a90611eeb565b80156109d75780601f106109ac576101008083540402835291602001916109d7565b820191906000526020600020905b8154815290600101906020018083116109ba57829003601f168201915b505050505081565b6000807f00000000000000000000000000000000000000000000000000000000000000006001600160a01b031663182df0f56040518163ffffffff1660e01b8152600401602060405180830381865afa158015610a40573d6000803e3d6000fd5b505050506040513d601f19601f82011682018060405250810190610a649190611f26565b9050610a6f8161174a565b91505090565b60007f0000000000000000000000000000000000000000000000000000000000000000610b64576040517faea910780000000000000000000000000000000000000000000000000000000081526001600160a01b037f0000000000000000000000000000000000000000000000000000000000000000811660048301527f0000000000000000000000000000000000000000000000000000000000000000169063aea9107890602401602060405180830381865afa158015610b3b573d6000803e3d6000fd5b505050506040513d601f19601f82011682018060405250810190610b5f9190611f26565b905090565b50670de0b6b3a764000090565b60007f0000000000000000000000000000000000000000000000000000000000000000610bc96001600160a01b037f0000000000000000000000000000000000000000000000000000000000000000163330866117fd565b7f000000000000000000000000000000000000000000000000000000000000000015610c6e576040517f2e1a7d4d0000000000000000000000000000000000000000000000000000000081526004810184905273c02aaa39b223fe8d0a0e5c4f27ead9083c756cc290632e1a7d4d90602401600060405180830381600087803b158015610c5557600080fd5b505af1158015610c69573d6000803e3d6000fd5b505050505b6040516370a0823160e01b81523060048201526000906001600160a01b038316906370a0823190602401602060405180830381865afa158015610cb5573d6000803e3d6000fd5b505050506040513d601f19601f82011682018060405250810190610cd99190611f26565b90507f000000000000000000000000000000000000000000000000000000000000000015610d7a577f00000000000000000000000000000000000000000000000000000000000000006001600160a01b0316631249c58b856040518263ffffffff1660e01b81526004016000604051808303818588803b158015610d5c57600080fd5b505af1158015610d70573d6000803e3d6000fd5b5050505050610e55565b6040517fa0712d68000000000000000000000000000000000000000000000000000000008152600481018590527f00000000000000000000000000000000000000000000000000000000000000006001600160a01b03169063a0712d68906024016020604051808303816000875af1158015610dfa573d6000803e3d6000fd5b505050506040513d601f19601f82011682018060405250810190610e1e9190611f26565b15610e55576040517f07637bd800000000000000000000000000000000000000000000000000000000815260040160405180910390fd5b6040516370a0823160e01b81523060048201526000906001600160a01b038416906370a0823190602401602060405180830381865afa158015610e9c573d6000803e3d6000fd5b505050506040513d601f19601f82011682018060405250810190610ec09190611f26565b9050610ee333610ed08484611f55565b95506001600160a01b03851690866118b8565b505050919050565b60007f0000000000000000000000000000000000000000000000000000000000000000610f436001600160a01b037f0000000000000000000000000000000000000000000000000000000000000000163330866117fd565b60007f0000000000000000000000000000000000000000000000000000000000000000610fd7576040516370a0823160e01b81523060048201526001600160a01b038316906370a0823190602401602060405180830381865afa158015610fae573d6000803e3d6000fd5b505050506040513d601f19601f82011682018060405250810190610fd29190611f26565b610fd9565b475b6040517fdb006a75000000000000000000000000000000000000000000000000000000008152600481018690529091507f00000000000000000000000000000000000000000000000000000000000000006001600160a01b03169063db006a75906024016020604051808303816000875af115801561105c573d6000803e3d6000fd5b505050506040513d601f19601f820116820180604052508101906110809190611f26565b156110b7576040517fbb1205c200000000000000000000000000000000000000000000000000000000815260040160405180910390fd5b60007f000000000000000000000000000000000000000000000000000000000000000061114b576040516370a0823160e01b81523060048201526001600160a01b038416906370a0823190602401602060405180830381865afa158015611122573d6000803e3d6000fd5b505050506040513d601f19601f820116820180604052508101906111469190611f26565b61114d565b475b905081810393507f0000000000000000000000000000000000000000000000000000000000000000156112125760405160009073c02aaa39b223fe8d0a0e5c4f27ead9083c756cc29086908381818185875af1925050503d80600081146111d0576040519150601f19603f3d011682016040523d82523d6000602084013e6111d5565b606091505b5050905080611210576040517f90b8ec1800000000000000000000000000000000000000000000000000000000815260040160405180910390fd5b505b610ee36001600160a01b037f00000000000000000000000000000000000000000000000000000000000000001633866118b8565b6000336001600160a01b03167f00000000000000000000000000000000000000000000000000000000000000006001600160a01b03166377aace1a6040518163ffffffff1660e01b8152600401602060405180830381865afa1580156112b0573d6000803e3d6000fd5b505050506040513d601f19601f820116820180604052508101906112d49190611f6c565b6001600160a01b031614611314576040517ffb02114900000000000000000000000000000000000000000000000000000000815260040160405180910390fd5b6113486001600160a01b037f00000000000000000000000000000000000000000000000000000000000000001687866118b8565b6040517f23e30c8b0000000000000000000000000000000000000000000000000000000081526000906001600160a01b038816906323e30c8b906113ba9033907f0000000000000000000000000000000000000000000000000000000000000000908a9087908b908b90600401611f89565b6020604051808303816000875af11580156113d9573d6000803e3d6000fd5b505050506040513d601f19601f820116820180604052508101906113fd9190611f26565b90507f439148f0bbc682ca079e46d6e2c2f0c1e3b820f1a291b069d8882abf8cf18dd98114611458576040517f207df21c00000000000000000000000000000000000000000000000000000000815260040160405180910390fd5b61148d6001600160a01b037f0000000000000000000000000000000000000000000000000000000000000000168830886117fd565b5060019695505050505050565b6040516370a0823160e01b81523060048201526000906001600160a01b038316906370a0823190602401602060405180830381865afa1580156114e1573d6000803e3d6000fd5b505050506040513d601f19601f820116820180604052508101906115059190611f26565b92915050565b6001805461095e90611eeb565b7f00000000000000000000000000000000000000000000000000000000000000006001600160a01b0316331461157a576040517f8604e36100000000000000000000000000000000000000000000000000000000815260040160405180910390fd5b61158383611958565b811561161e5780156115d95781600460008282546115a19190611fe4565b90915550506001600160a01b038316600090815260056020526040812080548492906115ce908490611fe4565b9091555061161e9050565b81600460008282546115eb9190611f55565b90915550506001600160a01b03831660009081526005602052604081208054849290611618908490611f55565b90915550505b6002546001600160a01b038416600090815260056020526040902054611650916b033b2e3c9fd0803ce8000000611bc1565b6001600160a01b039093166000908152600660205260409020929092555050565b60007f00000000000000000000000000000000000000000000000000000000000000006001600160a01b0316836001600160a01b0316146116de576040517f3dd1b30500000000000000000000000000000000000000000000000000000000815260040160405180910390fd5b50600092915050565b6000807f00000000000000000000000000000000000000000000000000000000000000006001600160a01b031663bd6d894d6040518163ffffffff1660e01b81526004016020604051808303816000875af1158015610a40573d6000803e3d6000fd5b600060087f000000000000000000000000000000000000000000000000000000000000000060ff1610156117bd576117a37f00000000000000000000000000000000000000000000000000000000000000006008611ffc565b6117ae90600a612103565b6117b89083612112565b611505565b6117e860087f0000000000000000000000000000000000000000000000000000000000000000611ffc565b6117f390600a612103565b6115059083612131565b60006040517f23b872dd0000000000000000000000000000000000000000000000000000000081526001600160a01b03851660048201526001600160a01b038416602482015282604482015260008060648360008a5af191505061186081611bd6565b6118b15760405162461bcd60e51b815260206004820152601460248201527f5452414e534645525f46524f4d5f4641494c454400000000000000000000000060448201526064015b60405180910390fd5b5050505050565b60006040517fa9059cbb0000000000000000000000000000000000000000000000000000000081526001600160a01b03841660048201528260248201526000806044836000895af191505061190c81611bd6565b6102a65760405162461bcd60e51b815260206004820152600f60248201527f5452414e534645525f4641494c4544000000000000000000000000000000000060448201526064016118a8565b611960611c1d565b6003546040516370a0823160e01b8152306004820152600091906001600160a01b037f000000000000000000000000000000000000000000000000000000000000000016906370a0823190602401602060405180830381865afa1580156119cb573d6000803e3d6000fd5b505050506040513d601f19601f820116820180604052508101906119ef9190611f26565b6119f99190611f55565b60045490915015611a3657600454611a1f9082906b033b2e3c9fd0803ce8000000611c96565b60026000828254611a309190611fe4565b90915550505b6001600160a01b038216600090815260066020908152604080832054600254600590935290832054909291611a7891906b033b2e3c9fd0803ce8000000611ca3565b905081811115611ab857611ab86001600160a01b037f000000000000000000000000000000000000000000000000000000000000000016858484036118b8565b6040516370a0823160e01b81523060048201527f00000000000000000000000000000000000000000000000000000000000000006001600160a01b0316906370a0823190602401602060405180830381865afa158015611b1c573d6000803e3d6000fd5b505050506040513d601f19601f82011682018060405250810190611b409190611f26565b6003556001600160a01b037f000000000000000000000000000000000000000000000000000000000000000081169085167fad4a9acf26d8bba7a8cf1a41160d59be042ee554578e256c98d2ab74cdd43542848411611ba0576000611baa565b611baa8585611f55565b60405190815260200160405180910390a350505050565b6000611bce848484611cb0565b949350505050565b60003d82611be857806000803e806000fd5b8060208114611c00578015611c115760009250611c16565b816000803e60005115159250611c16565b600192505b5050919050565b6040517fe9af0292000000000000000000000000000000000000000000000000000000008152306004820152733d9819210a31b4961b30ef54be2aed79b9c9cd3b9063e9af029290602401600060405180830381600087803b158015611c8257600080fd5b505af11580156102a6573d6000803e3d6000fd5b6000611bce848385611cde565b6000611bce848484611cde565b828202811515841585830485141716611cc857600080fd5b6001826001830304018115150290509392505050565b828202811515841585830485141716611cf657600080fd5b0492915050565b600060208083528351808285015260005b81811015611d2a57858101830151858201604001528201611d0e565b81811115611d3c576000604083870101525b50601f01601f1916929092016040019392505050565b60008060008060808587031215611d6857600080fd5b5050823594602084013594506040840135936060013592509050565b6001600160a01b0381168114611d9957600080fd5b50565b600060208284031215611dae57600080fd5b8135611db981611d84565b9392505050565b600060208284031215611dd257600080fd5b5035919050565b600080600080600060808688031215611df157600080fd5b8535611dfc81611d84565b94506020860135611e0c81611d84565b935060408601359250606086013567ffffffffffffffff80821115611e3057600080fd5b818801915088601f830112611e4457600080fd5b813581811115611e5357600080fd5b896020828501011115611e6557600080fd5b9699959850939650602001949392505050565b600080600060608486031215611e8d57600080fd5b8335611e9881611d84565b92506020840135915060408401358015158114611eb457600080fd5b809150509250925092565b60008060408385031215611ed257600080fd5b8235611edd81611d84565b946020939093013593505050565b600181811c90821680611eff57607f821691505b60208210811415611f2057634e487b7160e01b600052602260045260246000fd5b50919050565b600060208284031215611f3857600080fd5b5051919050565b634e487b7160e01b600052601160045260246000fd5b600082821015611f6757611f67611f3f565b500390565b600060208284031215611f7e57600080fd5b8151611db981611d84565b60006001600160a01b03808916835280881660208401525085604083015284606083015260a060808301528260a0830152828460c0840137600060c0848401015260c0601f19601f8501168301019050979650505050505050565b60008219821115611ff757611ff7611f3f565b500190565b600060ff821660ff84168082101561201657612016611f3f565b90039392505050565b600181815b8085111561205a57816000190482111561204057612040611f3f565b8085161561204d57918102915b93841c9390800290612024565b509250929050565b60008261207157506001611505565b8161207e57506000611505565b8160018114612094576002811461209e576120ba565b6001915050611505565b60ff8411156120af576120af611f3f565b50506001821b611505565b5060208310610133831016604e8410600b84101617156120dd575081810a611505565b6120e7838361201f565b80600019048211156120fb576120fb611f3f565b029392505050565b6000611db960ff841683612062565b600081600019048311821515161561212c5761212c611f3f565b500290565b60008261214e57634e487b7160e01b600052601260045260246000fd5b50049056fea264697066735822122018a65d6aa539b211d8ddd7365f518bfe3f044e7f37080d8fd544a9906a34bbf564736f6c634300080b0033a26469706673582212209f39d978eaaafa1cdf62313c2cb3693c966e553e9f45dea89f288d2dbcfbda0764736f6c634300080b0033",
  "devdoc": {
    "kind": "dev",
    "methods": {
      "deployAdapter(address)": {
        "params": {
          "_target": "Address of the Target token"
        }
      }
    },
    "version": 1
  },
  "userdoc": {
    "events": {
      "AdapterAdded(address,address)": {
        "notice": "Logs the deployment of the adapter"
      }
    },
    "kind": "user",
    "methods": {
      "DEFAULT_LEVEL()": {
        "notice": "Sets level to `31` by default, which keeps all Divider lifecycle methods public (`issue`, `combine`, `collect`, etc), but not the `onRedeem` hook."
      },
      "adapters(address)": {
        "notice": "target -> adapter"
      },
      "deployAdapter(address)": {
        "notice": "Deploys both an adapter and a target wrapper for the given _target"
      },
      "divider()": {
        "notice": "Sense core Divider address"
      },
      "exists(address)": {
        "notice": "Target validity check that must be overriden by child contracts"
      },
      "factoryParams()": {
        "notice": "params for adapters deployed with this factory"
      },
      "protocol()": {
        "notice": "Protocol's data contract address"
      }
    },
    "version": 1
  },
  "storageLayout": {
    "storage": [
      {
        "astId": 6898,
        "contract": "@sense-finance/v1-core/src/adapters/implementations/compound/CFactory.sol:CFactory",
        "label": "adapters",
        "offset": 0,
        "slot": "0",
        "type": "t_mapping(t_address,t_address)"
      },
      {
        "astId": 6902,
        "contract": "@sense-finance/v1-core/src/adapters/implementations/compound/CFactory.sol:CFactory",
        "label": "factoryParams",
        "offset": 0,
        "slot": "1",
        "type": "t_struct(FactoryParams)6919_storage"
      }
    ],
    "types": {
      "t_address": {
        "encoding": "inplace",
        "label": "address",
        "numberOfBytes": "20"
      },
      "t_mapping(t_address,t_address)": {
        "encoding": "mapping",
        "key": "t_address",
        "label": "mapping(address => address)",
        "numberOfBytes": "32",
        "value": "t_address"
      },
      "t_struct(FactoryParams)6919_storage": {
        "encoding": "inplace",
        "label": "struct BaseFactory.FactoryParams",
        "members": [
          {
            "astId": 6904,
            "contract": "@sense-finance/v1-core/src/adapters/implementations/compound/CFactory.sol:CFactory",
            "label": "oracle",
            "offset": 0,
            "slot": "0",
            "type": "t_address"
          },
          {
            "astId": 6906,
            "contract": "@sense-finance/v1-core/src/adapters/implementations/compound/CFactory.sol:CFactory",
            "label": "ifee",
            "offset": 0,
            "slot": "1",
            "type": "t_uint256"
          },
          {
            "astId": 6908,
            "contract": "@sense-finance/v1-core/src/adapters/implementations/compound/CFactory.sol:CFactory",
            "label": "stake",
            "offset": 0,
            "slot": "2",
            "type": "t_address"
          },
          {
            "astId": 6910,
            "contract": "@sense-finance/v1-core/src/adapters/implementations/compound/CFactory.sol:CFactory",
            "label": "stakeSize",
            "offset": 0,
            "slot": "3",
            "type": "t_uint256"
          },
          {
            "astId": 6912,
            "contract": "@sense-finance/v1-core/src/adapters/implementations/compound/CFactory.sol:CFactory",
            "label": "minm",
            "offset": 0,
            "slot": "4",
            "type": "t_uint256"
          },
          {
            "astId": 6914,
            "contract": "@sense-finance/v1-core/src/adapters/implementations/compound/CFactory.sol:CFactory",
            "label": "maxm",
            "offset": 0,
            "slot": "5",
            "type": "t_uint256"
          },
          {
            "astId": 6916,
            "contract": "@sense-finance/v1-core/src/adapters/implementations/compound/CFactory.sol:CFactory",
            "label": "mode",
            "offset": 0,
            "slot": "6",
            "type": "t_uint16"
          },
          {
            "astId": 6918,
            "contract": "@sense-finance/v1-core/src/adapters/implementations/compound/CFactory.sol:CFactory",
            "label": "tilt",
            "offset": 2,
            "slot": "6",
            "type": "t_uint64"
          }
        ],
        "numberOfBytes": "224"
      },
      "t_uint16": {
        "encoding": "inplace",
        "label": "uint16",
        "numberOfBytes": "2"
      },
      "t_uint256": {
        "encoding": "inplace",
        "label": "uint256",
        "numberOfBytes": "32"
      },
      "t_uint64": {
        "encoding": "inplace",
        "label": "uint64",
        "numberOfBytes": "8"
      }
    }
  }
}