{
  "address": "0x1341E63605e4d7572b6E0D84ab5FA0c349F123CF",
  "abi": [
    {
      "inputs": [
        {
          "internalType": "address",
          "name": "_underlying",
          "type": "address"
        },
        {
          "internalType": "string",
          "name": "_name",
          "type": "string"
        },
        {
          "internalType": "string",
          "name": "_symbol",
          "type": "string"
        },
        {
          "internalType": "uint8",
          "name": "_decimal",
          "type": "uint8"
        }
      ],
      "stateMutability": "nonpayable",
      "type": "constructor"
    },
    {
      "anonymous": false,
      "inputs": [
        {
          "indexed": true,
          "internalType": "address",
          "name": "owner",
          "type": "address"
        },
        {
          "indexed": true,
          "internalType": "address",
          "name": "spender",
          "type": "address"
        },
        {
          "indexed": false,
          "internalType": "uint256",
          "name": "amount",
          "type": "uint256"
        }
      ],
      "name": "Approval",
      "type": "event"
    },
    {
      "anonymous": false,
      "inputs": [
        {
          "indexed": true,
          "internalType": "address",
          "name": "from",
          "type": "address"
        },
        {
          "indexed": true,
          "internalType": "address",
          "name": "to",
          "type": "address"
        },
        {
          "indexed": false,
          "internalType": "uint256",
          "name": "amount",
          "type": "uint256"
        }
      ],
      "name": "Transfer",
      "type": "event"
    },
    {
      "anonymous": false,
      "inputs": [
        {
          "indexed": true,
          "internalType": "address",
          "name": "user",
          "type": "address"
        },
        {
          "indexed": false,
          "internalType": "bool",
          "name": "trusted",
          "type": "bool"
        }
      ],
      "name": "UserTrustUpdated",
      "type": "event"
    },
    {
      "inputs": [],
      "name": "DOMAIN_SEPARATOR",
      "outputs": [
        {
          "internalType": "bytes32",
          "name": "",
          "type": "bytes32"
        }
      ],
      "stateMutability": "view",
      "type": "function"
    },
    {
      "inputs": [
        {
          "internalType": "address",
          "name": "",
          "type": "address"
        },
        {
          "internalType": "address",
          "name": "",
          "type": "address"
        }
      ],
      "name": "allowance",
      "outputs": [
        {
          "internalType": "uint256",
          "name": "",
          "type": "uint256"
        }
      ],
      "stateMutability": "view",
      "type": "function"
    },
    {
      "inputs": [
        {
          "internalType": "address",
          "name": "spender",
          "type": "address"
        },
        {
          "internalType": "uint256",
          "name": "amount",
          "type": "uint256"
        }
      ],
      "name": "approve",
      "outputs": [
        {
          "internalType": "bool",
          "name": "",
          "type": "bool"
        }
      ],
      "stateMutability": "nonpayable",
      "type": "function"
    },
    {
      "inputs": [
        {
          "internalType": "address",
          "name": "",
          "type": "address"
        }
      ],
      "name": "balanceOf",
      "outputs": [
        {
          "internalType": "uint256",
          "name": "",
          "type": "uint256"
        }
      ],
      "stateMutability": "view",
      "type": "function"
    },
    {
      "inputs": [
        {
          "internalType": "address",
          "name": "account",
          "type": "address"
        },
        {
          "internalType": "uint256",
          "name": "amount",
          "type": "uint256"
        }
      ],
      "name": "burn",
      "outputs": [],
      "stateMutability": "nonpayable",
      "type": "function"
    },
    {
      "inputs": [],
      "name": "decimals",
      "outputs": [
        {
          "internalType": "uint8",
          "name": "",
          "type": "uint8"
        }
      ],
      "stateMutability": "view",
      "type": "function"
    },
    {
      "inputs": [
        {
          "internalType": "address",
          "name": "",
          "type": "address"
        }
      ],
      "name": "isTrusted",
      "outputs": [
        {
          "internalType": "bool",
          "name": "",
          "type": "bool"
        }
      ],
      "stateMutability": "view",
      "type": "function"
    },
    {
      "inputs": [
        {
          "internalType": "address",
          "name": "account",
          "type": "address"
        },
        {
          "internalType": "uint256",
          "name": "amount",
          "type": "uint256"
        }
      ],
      "name": "mint",
      "outputs": [],
      "stateMutability": "nonpayable",
      "type": "function"
    },
    {
      "inputs": [],
      "name": "name",
      "outputs": [
        {
          "internalType": "string",
          "name": "",
          "type": "string"
        }
      ],
      "stateMutability": "view",
      "type": "function"
    },
    {
      "inputs": [
        {
          "internalType": "address",
          "name": "",
          "type": "address"
        }
      ],
      "name": "nonces",
      "outputs": [
        {
          "internalType": "uint256",
          "name": "",
          "type": "uint256"
        }
      ],
      "stateMutability": "view",
      "type": "function"
    },
    {
      "inputs": [
        {
          "internalType": "address",
          "name": "owner",
          "type": "address"
        },
        {
          "internalType": "address",
          "name": "spender",
          "type": "address"
        },
        {
          "internalType": "uint256",
          "name": "value",
          "type": "uint256"
        },
        {
          "internalType": "uint256",
          "name": "deadline",
          "type": "uint256"
        },
        {
          "internalType": "uint8",
          "name": "v",
          "type": "uint8"
        },
        {
          "internalType": "bytes32",
          "name": "r",
          "type": "bytes32"
        },
        {
          "internalType": "bytes32",
          "name": "s",
          "type": "bytes32"
        }
      ],
      "name": "permit",
      "outputs": [],
      "stateMutability": "nonpayable",
      "type": "function"
    },
    {
      "inputs": [
        {
          "internalType": "address",
          "name": "user",
          "type": "address"
        },
        {
          "internalType": "bool",
          "name": "trusted",
          "type": "bool"
        }
      ],
      "name": "setIsTrusted",
      "outputs": [],
      "stateMutability": "nonpayable",
      "type": "function"
    },
    {
      "inputs": [],
      "name": "symbol",
      "outputs": [
        {
          "internalType": "string",
          "name": "",
          "type": "string"
        }
      ],
      "stateMutability": "view",
      "type": "function"
    },
    {
      "inputs": [],
      "name": "totalSupply",
      "outputs": [
        {
          "internalType": "uint256",
          "name": "",
          "type": "uint256"
        }
      ],
      "stateMutability": "view",
      "type": "function"
    },
    {
      "inputs": [
        {
          "internalType": "address",
          "name": "to",
          "type": "address"
        },
        {
          "internalType": "uint256",
          "name": "amount",
          "type": "uint256"
        }
      ],
      "name": "transfer",
      "outputs": [
        {
          "internalType": "bool",
          "name": "",
          "type": "bool"
        }
      ],
      "stateMutability": "nonpayable",
      "type": "function"
    },
    {
      "inputs": [
        {
          "internalType": "address",
          "name": "from",
          "type": "address"
        },
        {
          "internalType": "address",
          "name": "to",
          "type": "address"
        },
        {
          "internalType": "uint256",
          "name": "amount",
          "type": "uint256"
        }
      ],
      "name": "transferFrom",
      "outputs": [
        {
          "internalType": "bool",
          "name": "",
          "type": "bool"
        }
      ],
      "stateMutability": "nonpayable",
      "type": "function"
    },
    {
      "inputs": [],
      "name": "underlying",
      "outputs": [
        {
          "internalType": "address",
          "name": "",
          "type": "address"
        }
      ],
      "stateMutability": "view",
      "type": "function"
    }
  ],
  "transactionHash": "0x07000380f01664288a8997665b5cf4f59fa1522d2d5c61ce2aabe3fdc7361342",
  "args": [
    "0xB209E94E9216331af1158E8588dD69e0a88eA2Da",
    "Compound USDT",
    "cUSDT",
    8
  ],
  "numDeployments": 3,
  "solcInputHash": "ffc29083de9c8b00c6ea1cef30271e63",
  "bytecode": "0x60e06040523480156200001157600080fd5b506040516200131638038062001316833981016040819052620000349162000266565b82828233838383600062000049848262000399565b50600162000058838262000399565b5060ff81166080524660a0526200006e620000fd565b60c0525050506001600160a01b038116600081815260066020908152604091829020805460ff1916600190811790915591519182527fe95aec380cae16330d146d5499ef7db6f3657e477104a733e771bc09e500d986910160405180910390a25050600780546001600160a01b0319166001600160a01b03979097169690961790955550620004e39350505050565b60007f8b73c3c69bb8fe3d512ecc4cf759cc79239f7b179b0ffacaa9a75d522b39400f600060405162000131919062000465565b6040805191829003822060208301939093528101919091527fc89efdaa54c0f20c7adf612882df0950f5a951637e0307cdcb4c672f298b8bc660608201524660808201523060a082015260c00160405160208183030381529060405280519060200120905090565b634e487b7160e01b600052604160045260246000fd5b600082601f830112620001c157600080fd5b81516001600160401b0380821115620001de57620001de62000199565b604051601f8301601f19908116603f0116810190828211818310171562000209576200020962000199565b816040528381526020925086838588010111156200022657600080fd5b600091505b838210156200024a57858201830151818301840152908201906200022b565b838211156200025c5760008385830101525b9695505050505050565b600080600080608085870312156200027d57600080fd5b84516001600160a01b03811681146200029557600080fd5b60208601519094506001600160401b0380821115620002b357600080fd5b620002c188838901620001af565b94506040870151915080821115620002d857600080fd5b50620002e787828801620001af565b925050606085015160ff81168114620002ff57600080fd5b939692955090935050565b600181811c908216806200031f57607f821691505b6020821081036200034057634e487b7160e01b600052602260045260246000fd5b50919050565b601f8211156200039457600081815260208120601f850160051c810160208610156200036f5750805b601f850160051c820191505b8181101562000390578281556001016200037b565b5050505b505050565b81516001600160401b03811115620003b557620003b562000199565b620003cd81620003c684546200030a565b8462000346565b602080601f831160018114620004055760008415620003ec5750858301515b600019600386901b1c1916600185901b17855562000390565b600085815260208120601f198616915b82811015620004365788860151825594840194600190910190840162000415565b5085821015620004555787850151600019600388901b60f8161c191681555b5050505050600190811b01905550565b600080835462000475816200030a565b60018281168015620004905760018114620004a657620004d7565b60ff1984168752821515830287019450620004d7565b8760005260208060002060005b85811015620004ce5781548a820152908401908201620004b3565b50505082870194505b50929695505050505050565b60805160a05160c051610e036200051360003960006105b20152600061057d015260006101950152610e036000f3fe608060405234801561001057600080fd5b506004361061010b5760003560e01c80636f307dc3116100a257806396d648791161007157806396d64879146102575780639dc29fac1461027a578063a9059cbb1461028d578063d505accf146102a0578063dd62ed3e146102b357600080fd5b80636f307dc3146101e457806370a082311461020f5780637ecebe001461022f57806395d89b411461024f57600080fd5b806323b872dd116100de57806323b872dd1461017d578063313ce567146101905780633644e515146101c957806340c10f19146101d157600080fd5b806306fdde0314610110578063095ea7b31461012e5780631393916a1461015157806318160ddd14610166575b600080fd5b6101186102de565b6040516101259190610ad4565b60405180910390f35b61014161013c366004610b45565b61036c565b6040519015158152602001610125565b61016461015f366004610b6f565b6103d8565b005b61016f60025481565b604051908152602001610125565b61014161018b366004610bab565b610487565b6101b77f000000000000000000000000000000000000000000000000000000000000000081565b60405160ff9091168152602001610125565b61016f610579565b6101646101df366004610b45565b6105d4565b6007546101f7906001600160a01b031681565b6040516001600160a01b039091168152602001610125565b61016f61021d366004610be7565b60036020526000908152604090205481565b61016f61023d366004610be7565b60056020526000908152604090205481565b61011861062d565b610141610265366004610be7565b60066020526000908152604090205460ff1681565b610164610288366004610b45565b61063a565b61014161029b366004610b45565b61068f565b6101646102ae366004610c09565b610707565b61016f6102c1366004610c7c565b600460209081526000928352604080842090915290825290205481565b600080546102eb90610caf565b80601f016020809104026020016040519081016040528092919081815260200182805461031790610caf565b80156103645780601f1061033957610100808354040283529160200191610364565b820191906000526020600020905b81548152906001019060200180831161034757829003601f168201915b505050505081565b3360008181526004602090815260408083206001600160a01b038716808552925280832085905551919290917f8c5be1e5ebec7d5bd14f71427d1e84f3dd0314c0f7b2291e5b200ac8c7c3b925906103c79086815260200190565b60405180910390a350600192915050565b3360009081526006602052604090205460ff166104285760405162461bcd60e51b8152602060048201526009602482015268155395149554d5115160ba1b60448201526064015b60405180910390fd5b6001600160a01b038216600081815260066020908152604091829020805460ff191685151590811790915591519182527fe95aec380cae16330d146d5499ef7db6f3657e477104a733e771bc09e500d986910160405180910390a25050565b6001600160a01b038316600090815260046020908152604080832033845290915281205460001981146104e3576104be8382610cff565b6001600160a01b03861660009081526004602090815260408083203384529091529020555b6001600160a01b0385166000908152600360205260408120805485929061050b908490610cff565b90915550506001600160a01b03808516600081815260036020526040908190208054870190555190918716907fddf252ad1be2c89b69c2b068fc378daa952ba7f163c4a11628f55a4df523b3ef906105669087815260200190565b60405180910390a3506001949350505050565b60007f000000000000000000000000000000000000000000000000000000000000000046146105af576105aa61095a565b905090565b507f000000000000000000000000000000000000000000000000000000000000000090565b3360009081526006602052604090205460ff1661061f5760405162461bcd60e51b8152602060048201526009602482015268155395149554d5115160ba1b604482015260640161041f565b61062982826109f4565b5050565b600180546102eb90610caf565b3360009081526006602052604090205460ff166106855760405162461bcd60e51b8152602060048201526009602482015268155395149554d5115160ba1b604482015260640161041f565b6106298282610a60565b336000908152600360205260408120805483919083906106b0908490610cff565b90915550506001600160a01b038316600081815260036020526040908190208054850190555133907fddf252ad1be2c89b69c2b068fc378daa952ba7f163c4a11628f55a4df523b3ef906103c79086815260200190565b428410156107575760405162461bcd60e51b815260206004820152601760248201527f5045524d49545f444541444c494e455f45585049524544000000000000000000604482015260640161041f565b60006001610763610579565b6001600160a01b038a811660008181526005602090815260409182902080546001810190915582517f6e71edae12b1b97f4d1f60370fef10105fa2faae0126114a169c64845d6126c98184015280840194909452938d166060840152608083018c905260a083019390935260c08083018b90528151808403909101815260e08301909152805192019190912061190160f01b6101008301526101028201929092526101228101919091526101420160408051601f198184030181528282528051602091820120600084529083018083525260ff871690820152606081018590526080810184905260a0016020604051602081039080840390855afa15801561086f573d6000803e3d6000fd5b5050604051601f1901519150506001600160a01b038116158015906108a55750876001600160a01b0316816001600160a01b0316145b6108f15760405162461bcd60e51b815260206004820152600e60248201527f494e56414c49445f5349474e4552000000000000000000000000000000000000604482015260640161041f565b6001600160a01b0390811660009081526004602090815260408083208a8516808552908352928190208990555188815291928a16917f8c5be1e5ebec7d5bd14f71427d1e84f3dd0314c0f7b2291e5b200ac8c7c3b925910160405180910390a350505050505050565b60007f8b73c3c69bb8fe3d512ecc4cf759cc79239f7b179b0ffacaa9a75d522b39400f600060405161098c9190610d16565b6040805191829003822060208301939093528101919091527fc89efdaa54c0f20c7adf612882df0950f5a951637e0307cdcb4c672f298b8bc660608201524660808201523060a082015260c00160405160208183030381529060405280519060200120905090565b8060026000828254610a069190610db5565b90915550506001600160a01b0382166000818152600360209081526040808320805486019055518481527fddf252ad1be2c89b69c2b068fc378daa952ba7f163c4a11628f55a4df523b3ef91015b60405180910390a35050565b6001600160a01b03821660009081526003602052604081208054839290610a88908490610cff565b90915550506002805482900390556040518181526000906001600160a01b038416907fddf252ad1be2c89b69c2b068fc378daa952ba7f163c4a11628f55a4df523b3ef90602001610a54565b600060208083528351808285015260005b81811015610b0157858101830151858201604001528201610ae5565b81811115610b13576000604083870101525b50601f01601f1916929092016040019392505050565b80356001600160a01b0381168114610b4057600080fd5b919050565b60008060408385031215610b5857600080fd5b610b6183610b29565b946020939093013593505050565b60008060408385031215610b8257600080fd5b610b8b83610b29565b915060208301358015158114610ba057600080fd5b809150509250929050565b600080600060608486031215610bc057600080fd5b610bc984610b29565b9250610bd760208501610b29565b9150604084013590509250925092565b600060208284031215610bf957600080fd5b610c0282610b29565b9392505050565b600080600080600080600060e0888a031215610c2457600080fd5b610c2d88610b29565b9650610c3b60208901610b29565b95506040880135945060608801359350608088013560ff81168114610c5f57600080fd5b9699959850939692959460a0840135945060c09093013592915050565b60008060408385031215610c8f57600080fd5b610c9883610b29565b9150610ca660208401610b29565b90509250929050565b600181811c90821680610cc357607f821691505b602082108103610ce357634e487b7160e01b600052602260045260246000fd5b50919050565b634e487b7160e01b600052601160045260246000fd5b600082821015610d1157610d11610ce9565b500390565b600080835481600182811c915080831680610d3257607f831692505b60208084108203610d5157634e487b7160e01b86526022600452602486fd5b818015610d655760018114610d7a57610da7565b60ff1986168952841515850289019650610da7565b60008a81526020902060005b86811015610d9f5781548b820152908501908301610d86565b505084890196505b509498975050505050505050565b60008219821115610dc857610dc8610ce9565b50019056fea264697066735822122089863974519b18a9ffd184a8ca30ecfcc5e30ed56f29b7a683f2cb61f37a592f64736f6c634300080f0033",
  "devdoc": {
    "kind": "dev",
    "methods": {},
    "version": 1
  },
  "userdoc": {
    "kind": "user",
    "methods": {},
    "version": 1
  },
  "storageLayout": {
    "storage": [
      {
        "astId": 28483,
        "contract": "@sense-finance/v1-core/src/tests/test-helpers/mocks/MockTarget.sol:AuthdMockTarget",
        "label": "name",
        "offset": 0,
        "slot": "0",
        "type": "t_string_storage"
      },
      {
        "astId": 28485,
        "contract": "@sense-finance/v1-core/src/tests/test-helpers/mocks/MockTarget.sol:AuthdMockTarget",
        "label": "symbol",
        "offset": 0,
        "slot": "1",
        "type": "t_string_storage"
      },
      {
        "astId": 28489,
        "contract": "@sense-finance/v1-core/src/tests/test-helpers/mocks/MockTarget.sol:AuthdMockTarget",
        "label": "totalSupply",
        "offset": 0,
        "slot": "2",
        "type": "t_uint256"
      },
      {
        "astId": 28493,
        "contract": "@sense-finance/v1-core/src/tests/test-helpers/mocks/MockTarget.sol:AuthdMockTarget",
        "label": "balanceOf",
        "offset": 0,
        "slot": "3",
        "type": "t_mapping(t_address,t_uint256)"
      },
      {
        "astId": 28499,
        "contract": "@sense-finance/v1-core/src/tests/test-helpers/mocks/MockTarget.sol:AuthdMockTarget",
        "label": "allowance",
        "offset": 0,
        "slot": "4",
        "type": "t_mapping(t_address,t_mapping(t_address,t_uint256))"
      },
      {
        "astId": 28507,
        "contract": "@sense-finance/v1-core/src/tests/test-helpers/mocks/MockTarget.sol:AuthdMockTarget",
        "label": "nonces",
        "offset": 0,
        "slot": "5",
        "type": "t_mapping(t_address,t_uint256)"
      },
      {
        "astId": 21328,
        "contract": "@sense-finance/v1-core/src/tests/test-helpers/mocks/MockTarget.sol:AuthdMockTarget",
        "label": "isTrusted",
        "offset": 0,
        "slot": "6",
        "type": "t_mapping(t_address,t_bool)"
      },
      {
        "astId": 18321,
        "contract": "@sense-finance/v1-core/src/tests/test-helpers/mocks/MockTarget.sol:AuthdMockTarget",
        "label": "underlying",
        "offset": 0,
        "slot": "7",
        "type": "t_address"
      }
    ],
    "types": {
      "t_address": {
        "encoding": "inplace",
        "label": "address",
        "numberOfBytes": "20"
      },
      "t_bool": {
        "encoding": "inplace",
        "label": "bool",
        "numberOfBytes": "1"
      },
      "t_mapping(t_address,t_bool)": {
        "encoding": "mapping",
        "key": "t_address",
        "label": "mapping(address => bool)",
        "numberOfBytes": "32",
        "value": "t_bool"
      },
      "t_mapping(t_address,t_mapping(t_address,t_uint256))": {
        "encoding": "mapping",
        "key": "t_address",
        "label": "mapping(address => mapping(address => uint256))",
        "numberOfBytes": "32",
        "value": "t_mapping(t_address,t_uint256)"
      },
      "t_mapping(t_address,t_uint256)": {
        "encoding": "mapping",
        "key": "t_address",
        "label": "mapping(address => uint256)",
        "numberOfBytes": "32",
        "value": "t_uint256"
      },
      "t_string_storage": {
        "encoding": "bytes",
        "label": "string",
        "numberOfBytes": "32"
      },
      "t_uint256": {
        "encoding": "inplace",
        "label": "uint256",
        "numberOfBytes": "32"
      }
    }
  }
}