{
  "address": "0xa4f9b98c1Bce4b0A9Bbe5dcBf17dc64a55C79477",
  "abi": [
    {
      "inputs": [
        {
          "internalType": "address",
          "name": "_divider",
          "type": "address"
        },
        {
          "internalType": "address",
          "name": "_target",
          "type": "address"
        },
        {
          "internalType": "address",
          "name": "_underlying",
          "type": "address"
        },
        {
          "components": [
            {
              "internalType": "address",
              "name": "oracle",
              "type": "address"
            },
            {
              "internalType": "address",
              "name": "stake",
              "type": "address"
            },
            {
              "internalType": "uint256",
              "name": "stakeSize",
              "type": "uint256"
            },
            {
              "internalType": "uint256",
              "name": "minm",
              "type": "uint256"
            },
            {
              "internalType": "uint256",
              "name": "maxm",
              "type": "uint256"
            },
            {
              "internalType": "uint64",
              "name": "tilt",
              "type": "uint64"
            },
            {
              "internalType": "uint48",
              "name": "level",
              "type": "uint48"
            },
            {
              "internalType": "uint16",
              "name": "mode",
              "type": "uint16"
            }
          ],
          "internalType": "struct BaseAdapter.AdapterParams",
          "name": "_adapterParams",
          "type": "tuple"
        }
      ],
      "stateMutability": "nonpayable",
      "type": "constructor"
    },
    {
      "inputs": [],
      "name": "FlashCallbackFailed",
      "type": "error"
    },
    {
      "inputs": [],
      "name": "OnlyPeriphery",
      "type": "error"
    },
    {
      "inputs": [],
      "name": "TokenNotSupported",
      "type": "error"
    },
    {
      "anonymous": false,
      "inputs": [
        {
          "indexed": true,
          "internalType": "address",
          "name": "user",
          "type": "address"
        },
        {
          "indexed": false,
          "internalType": "bool",
          "name": "trusted",
          "type": "bool"
        }
      ],
      "name": "UserTrustUpdated",
      "type": "event"
    },
    {
      "inputs": [],
      "name": "CALLBACK_SUCCESS",
      "outputs": [
        {
          "internalType": "bytes32",
          "name": "",
          "type": "bytes32"
        }
      ],
      "stateMutability": "view",
      "type": "function"
    },
    {
      "inputs": [],
      "name": "adapterParams",
      "outputs": [
        {
          "internalType": "address",
          "name": "oracle",
          "type": "address"
        },
        {
          "internalType": "address",
          "name": "stake",
          "type": "address"
        },
        {
          "internalType": "uint256",
          "name": "stakeSize",
          "type": "uint256"
        },
        {
          "internalType": "uint256",
          "name": "minm",
          "type": "uint256"
        },
        {
          "internalType": "uint256",
          "name": "maxm",
          "type": "uint256"
        },
        {
          "internalType": "uint64",
          "name": "tilt",
          "type": "uint64"
        },
        {
          "internalType": "uint48",
          "name": "level",
          "type": "uint48"
        },
        {
          "internalType": "uint16",
          "name": "mode",
          "type": "uint16"
        }
      ],
      "stateMutability": "view",
      "type": "function"
    },
    {
      "inputs": [],
      "name": "divider",
      "outputs": [
        {
          "internalType": "address",
          "name": "",
          "type": "address"
        }
      ],
      "stateMutability": "view",
      "type": "function"
    },
    {
      "inputs": [
        {
          "internalType": "address",
          "name": "token",
          "type": "address"
        },
        {
          "internalType": "uint256",
          "name": "",
          "type": "uint256"
        }
      ],
      "name": "flashFee",
      "outputs": [
        {
          "internalType": "uint256",
          "name": "",
          "type": "uint256"
        }
      ],
      "stateMutability": "view",
      "type": "function"
    },
    {
      "inputs": [
        {
          "internalType": "contract IERC3156FlashBorrower",
          "name": "receiver",
          "type": "address"
        },
        {
          "internalType": "address",
          "name": "",
          "type": "address"
        },
        {
          "internalType": "uint256",
          "name": "amount",
          "type": "uint256"
        },
        {
          "internalType": "bytes",
          "name": "data",
          "type": "bytes"
        }
      ],
      "name": "flashLoan",
      "outputs": [
        {
          "internalType": "bool",
          "name": "",
          "type": "bool"
        }
      ],
      "stateMutability": "nonpayable",
      "type": "function"
    },
    {
      "inputs": [],
      "name": "getMaturityBounds",
      "outputs": [
        {
          "internalType": "uint256",
          "name": "",
          "type": "uint256"
        },
        {
          "internalType": "uint256",
          "name": "",
          "type": "uint256"
        }
      ],
      "stateMutability": "view",
      "type": "function"
    },
    {
      "inputs": [],
      "name": "getStakeAndTarget",
      "outputs": [
        {
          "internalType": "address",
          "name": "",
          "type": "address"
        },
        {
          "internalType": "address",
          "name": "",
          "type": "address"
        },
        {
          "internalType": "uint256",
          "name": "",
          "type": "uint256"
        }
      ],
      "stateMutability": "view",
      "type": "function"
    },
    {
      "inputs": [],
      "name": "getUnderlyingPrice",
      "outputs": [
        {
          "internalType": "uint256",
          "name": "",
          "type": "uint256"
        }
      ],
      "stateMutability": "view",
      "type": "function"
    },
    {
      "inputs": [],
      "name": "ifee",
      "outputs": [
        {
          "internalType": "uint128",
          "name": "",
          "type": "uint128"
        }
      ],
      "stateMutability": "view",
      "type": "function"
    },
    {
      "inputs": [
        {
          "internalType": "address",
          "name": "",
          "type": "address"
        }
      ],
      "name": "isTrusted",
      "outputs": [
        {
          "internalType": "bool",
          "name": "",
          "type": "bool"
        }
      ],
      "stateMutability": "view",
      "type": "function"
    },
    {
      "inputs": [],
      "name": "level",
      "outputs": [
        {
          "internalType": "uint256",
          "name": "",
          "type": "uint256"
        }
      ],
      "stateMutability": "view",
      "type": "function"
    },
    {
      "inputs": [
        {
          "internalType": "address",
          "name": "token",
          "type": "address"
        }
      ],
      "name": "maxFlashLoan",
      "outputs": [
        {
          "internalType": "uint256",
          "name": "",
          "type": "uint256"
        }
      ],
      "stateMutability": "view",
      "type": "function"
    },
    {
      "inputs": [],
      "name": "mode",
      "outputs": [
        {
          "internalType": "uint256",
          "name": "",
          "type": "uint256"
        }
      ],
      "stateMutability": "view",
      "type": "function"
    },
    {
      "inputs": [],
      "name": "name",
      "outputs": [
        {
          "internalType": "string",
          "name": "",
          "type": "string"
        }
      ],
      "stateMutability": "view",
      "type": "function"
    },
    {
      "inputs": [
        {
          "internalType": "address",
          "name": "",
          "type": "address"
        },
        {
          "internalType": "uint256",
          "name": "",
          "type": "uint256"
        },
        {
          "internalType": "bool",
          "name": "",
          "type": "bool"
        }
      ],
      "name": "notify",
      "outputs": [],
      "stateMutability": "nonpayable",
      "type": "function"
    },
    {
      "inputs": [
        {
          "internalType": "uint256",
          "name": "",
          "type": "uint256"
        },
        {
          "internalType": "uint256",
          "name": "",
          "type": "uint256"
        },
        {
          "internalType": "uint256",
          "name": "",
          "type": "uint256"
        },
        {
          "internalType": "uint256",
          "name": "",
          "type": "uint256"
        }
      ],
      "name": "onRedeem",
      "outputs": [],
      "stateMutability": "nonpayable",
      "type": "function"
    },
    {
      "inputs": [],
      "name": "openSponsorWindow",
      "outputs": [],
      "stateMutability": "nonpayable",
      "type": "function"
    },
    {
      "inputs": [],
      "name": "scale",
      "outputs": [
        {
          "internalType": "uint256",
          "name": "",
          "type": "uint256"
        }
      ],
      "stateMutability": "view",
      "type": "function"
    },
    {
      "inputs": [],
      "name": "scaleStored",
      "outputs": [
        {
          "internalType": "uint256",
          "name": "_scale",
          "type": "uint256"
        }
      ],
      "stateMutability": "view",
      "type": "function"
    },
    {
      "inputs": [
        {
          "internalType": "address",
          "name": "user",
          "type": "address"
        },
        {
          "internalType": "bool",
          "name": "trusted",
          "type": "bool"
        }
      ],
      "name": "setIsTrusted",
      "outputs": [],
      "stateMutability": "nonpayable",
      "type": "function"
    },
    {
      "inputs": [
        {
          "internalType": "uint256",
          "name": "_scale",
          "type": "uint256"
        }
      ],
      "name": "setScale",
      "outputs": [],
      "stateMutability": "nonpayable",
      "type": "function"
    },
    {
      "inputs": [],
      "name": "symbol",
      "outputs": [
        {
          "internalType": "string",
          "name": "",
          "type": "string"
        }
      ],
      "stateMutability": "view",
      "type": "function"
    },
    {
      "inputs": [],
      "name": "target",
      "outputs": [
        {
          "internalType": "address",
          "name": "",
          "type": "address"
        }
      ],
      "stateMutability": "view",
      "type": "function"
    },
    {
      "inputs": [],
      "name": "tilt",
      "outputs": [
        {
          "internalType": "uint256",
          "name": "",
          "type": "uint256"
        }
      ],
      "stateMutability": "view",
      "type": "function"
    },
    {
      "inputs": [],
      "name": "underlying",
      "outputs": [
        {
          "internalType": "address",
          "name": "",
          "type": "address"
        }
      ],
      "stateMutability": "view",
      "type": "function"
    },
    {
      "inputs": [
        {
          "internalType": "uint256",
          "name": "tBal",
          "type": "uint256"
        }
      ],
      "name": "unwrapTarget",
      "outputs": [
        {
          "internalType": "uint256",
          "name": "amountOut",
          "type": "uint256"
        }
      ],
      "stateMutability": "nonpayable",
      "type": "function"
    },
    {
      "inputs": [
        {
          "internalType": "uint256",
          "name": "uBal",
          "type": "uint256"
        }
      ],
      "name": "wrapUnderlying",
      "outputs": [
        {
          "internalType": "uint256",
          "name": "amountOut",
          "type": "uint256"
        }
      ],
      "stateMutability": "nonpayable",
      "type": "function"
    }
  ],
  "transactionHash": "0xa0534108a4cb8c4bef49f659e87911df1353da174822f91c5eb47311acbccb48",
  "args": [
    "0x09B10E45A912BcD4E80a8A3119f0cfCcad1e1f12",
    "0xF3A0C5F5Ae311e824DeFDcf9DaDFBd6a7a404DB8",
    "0xB209E94E9216331af1158E8588dD69e0a88eA2Da",
    [
      "0x0000000000000000000000000000000000000000",
      "0xC027849ac78202A17A872021Bd0271DA5df04168",
      "250000000000000000",
      0,
      "315576000",
      0,
      31,
      0
    ]
  ],
  "numDeployments": 3,
  "solcInputHash": "277be13b5f131878be1d8e94788c0d35",
  "bytecode": "0x610100604052670f43fc2c04ee00006009556001600a553480156200002357600080fd5b5060405162001e9d38038062001e9d833981016040819052620000469162000423565b6001600160a01b03808516608090815281851660a081815283861660c090815266044364c5bb000060e08181528751600080549189166001600160a01b031992831617815560208a01516001805491909a1692169190911790975560408089015160025560608901516003559588015160049081559388015160058054948a0151928a015161ffff16600160701b0261ffff60701b1965ffffffffffff90941668010000000000000000026001600160701b03199096166001600160401b039093169290921794909417919091161790915583516306fdde0360e01b8152935133958a958a958a958a9491936306fdde0393808301939192908290030181865afa15801562000159573d6000803e3d6000fd5b505050506040513d6000823e601f3d908101601f191682016040526200018391908101906200054b565b60405160200162000195919062000603565b60405160208183030381529060405260069081620001b49190620006c0565b50836001600160a01b03166395d89b416040518163ffffffff1660e01b8152600401600060405180830381865afa158015620001f4573d6000803e3d6000fd5b505050506040513d6000823e601f3d908101601f191682016040526200021e91908101906200054b565b6040516020016200023091906200078c565b604051602081830303815290604052600790816200024f9190620006c0565b5062000279608051600019866001600160a01b03166200031260201b62000fb3179092919060201c565b620002a660805160001983602001516001600160a01b03166200031260201b62000fb3179092919060201c565b505050506001600160a01b038216600081815260086020908152604091829020805460ff1916600190811790915591519182529192507fe95aec380cae16330d146d5499ef7db6f3657e477104a733e771bc09e500d986910160405180910390a25050505050620007ba565b600060405163095ea7b360e01b6000528360045282602452602060006044600080895af13d15601f3d1160016000511416171691506000606052806040525080620003945760405162461bcd60e51b815260206004820152600e60248201526d1054141493d59157d1905253115160921b604482015260640160405180910390fd5b50505050565b80516001600160a01b0381168114620003b257600080fd5b919050565b634e487b7160e01b600052604160045260246000fd5b60405161010081016001600160401b0381118282101715620003f357620003f3620003b7565b60405290565b805165ffffffffffff81168114620003b257600080fd5b805161ffff81168114620003b257600080fd5b6000806000808486036101608112156200043c57600080fd5b62000447866200039a565b945062000457602087016200039a565b935062000467604087016200039a565b925061010080605f19830112156200047e57600080fd5b62000488620003cd565b915062000498606088016200039a565b8252620004a8608088016200039a565b602083015260a0870151604083015260c0870151606083015260e087015160808301528601516001600160401b0381168114620004e457600080fd5b60a0820152620004f86101208701620003f9565b60c08201526200050c610140870162000410565b60e0820152939692955090935050565b60005b83811015620005395781810151838201526020016200051f565b83811115620003945750506000910152565b6000602082840312156200055e57600080fd5b81516001600160401b03808211156200057657600080fd5b818401915084601f8301126200058b57600080fd5b815181811115620005a057620005a0620003b7565b604051601f8201601f19908116603f01168101908382118183101715620005cb57620005cb620003b7565b81604052828152876020848701011115620005e557600080fd5b620005f88360208301602088016200051c565b979650505050505050565b60008251620006178184602087016200051c565b671020b230b83a32b960c11b920191825250600801919050565b600181811c908216806200064657607f821691505b6020821081036200066757634e487b7160e01b600052602260045260246000fd5b50919050565b601f821115620006bb57600081815260208120601f850160051c81016020861015620006965750805b601f850160051c820191505b81811015620006b757828155600101620006a2565b5050505b505050565b81516001600160401b03811115620006dc57620006dc620003b7565b620006f481620006ed845462000631565b846200066d565b602080601f8311600181146200072c5760008415620007135750858301515b600019600386901b1c1916600185901b178555620006b7565b600085815260208120601f198616915b828110156200075d578886015182559484019460019091019084016200073c565b50858210156200077c5787850151600019600388901b60f8161c191681555b5050505050600190811b01905550565b60008251620007a08184602087016200051c565b6716b0b230b83a32b960c11b920191825250600801919050565b60805160a05160c05160e0516116636200083a60003960006104b401526000818161040c015281816107700152610a2c0152600081816102dd0152818161050e0152818161074b01528181610a0701528181610d4f01528181610d9f01528181610e610152610f5a0152600081816103330152610c9b01526116636000f3fe608060405234801561001057600080fd5b50600436106101b95760003560e01c80635cffe9de116100f957806396d6487911610097578063c39a3b2911610071578063c39a3b29146104f7578063d4b8399214610509578063d9d98ce414610530578063f51e181a1461054357600080fd5b806396d6487914610479578063b484972a1461049c578063b8c15a9f146104af57600080fd5b80636f307dc3116100d35780636f307dc3146104075780636fd5ae151461042e5780638237e5381461044a57806395d89b411461047157600080fd5b80635cffe9de146103b4578063613255ab146103d757806364c56e3c146103ea57600080fd5b8063295a5212116101665780633edc3519116101405780633edc35191461036d578063468f02d2146103805780634aae9fed1461038e57806351c39ea1146103a157600080fd5b8063295a5212146103135780632c5786b814610326578063378efa371461032e57600080fd5b806314282f581161019757806314282f58146102a357806322677849146102b757806327b327d0146102c957600080fd5b806306fdde03146101be578063083118d5146101dc5780631393916a1461028e575b600080fd5b6101c661054c565b6040516101d39190611162565b60405180910390f35b600054600154600254600354600454600554610232956001600160a01b0390811695169392919067ffffffffffffffff81169068010000000000000000810465ffffffffffff1690600160701b900461ffff1688565b604080516001600160a01b03998a168152989097166020890152958701949094526060860192909252608085015267ffffffffffffffff1660a084015265ffffffffffff1660c083015261ffff1660e0820152610100016101d3565b6102a161029c3660046111dd565b6105da565b005b6102a16102b1366004611216565b50505050565b6009545b6040519081526020016101d3565b600154600254604080516001600160a01b037f00000000000000000000000000000000000000000000000000000000000000008116825290931660208401528201526060016101d3565b600554600160701b900461ffff166102bb565b6102a1610689565b6103557f000000000000000000000000000000000000000000000000000000000000000081565b6040516001600160a01b0390911681526020016101d3565b6102a161037b366004611248565b600955565b670de0b6b3a76400006102bb565b6102bb61039c366004611248565b610746565b6102bb6103af366004611248565b610a02565b6103c76103c2366004611261565b610c8d565b60405190151581526020016101d3565b6102bb6103e5366004611300565b610e96565b6103f2610f07565b604080519283526020830191909152016101d3565b6103557f000000000000000000000000000000000000000000000000000000000000000081565b60055468010000000000000000900465ffffffffffff166102bb565b6102bb7f439148f0bbc682ca079e46d6e2c2f0c1e3b820f1a291b069d8882abf8cf18dd981565b6101c6610f49565b6103c7610487366004611300565b60086020526000908152604090205460ff1681565b6102a16104aa366004611324565b505050565b6104d67f000000000000000000000000000000000000000000000000000000000000000081565b6040516fffffffffffffffffffffffffffffffff90911681526020016101d3565b60055467ffffffffffffffff166102bb565b6103557f000000000000000000000000000000000000000000000000000000000000000081565b6102bb61053e366004611366565b610f56565b6102bb60095481565b6006805461055990611392565b80601f016020809104026020016040519081016040528092919081815260200182805461058590611392565b80156105d25780601f106105a7576101008083540402835291602001916105d2565b820191906000526020600020905b8154815290600101906020018083116105b557829003601f168201915b505050505081565b3360009081526008602052604090205460ff1661062a5760405162461bcd60e51b8152602060048201526009602482015268155395149554d5115160ba1b60448201526064015b60405180910390fd5b6001600160a01b038216600081815260086020908152604091829020805460ff191685151590811790915591519182527fe95aec380cae16330d146d5499ef7db6f3657e477104a733e771bc09e500d986910160405180910390a25050565b3360009081526008602052604090205460ff166106d45760405162461bcd60e51b8152602060048201526009602482015268155395149554d5115160ba1b6044820152606401610621565b6002600a819055600154905460405163dfd4718f60e01b81526001600160a01b0390921660048301526024820152339063dfd4718f90604401600060405180830381600087803b15801561072757600080fd5b505af115801561073b573d6000803e3d6000fd5b50506001600a555050565b6000807f0000000000000000000000000000000000000000000000000000000000000000905060007f000000000000000000000000000000000000000000000000000000000000000090506000826001600160a01b031663313ce5676040518163ffffffff1660e01b8152600401602060405180830381865afa1580156107d1573d6000803e3d6000fd5b505050506040513d601f19601f820116820180604052508101906107f591906113cc565b60ff1690506000826001600160a01b031663313ce5676040518163ffffffff1660e01b8152600401602060405180830381865afa15801561083a573d6000803e3d6000fd5b505050506040513d601f19601f8201168201806040525081019061085e91906113cc565b6040516323b872dd60e01b81523360048201523060248201526044810188905260ff9190911691506001600160a01b038416906323b872dd906064016020604051808303816000875af11580156108b9573d6000803e3d6000fd5b505050506040513d601f19601f820116820180604052508101906108dd91906113ef565b5080820361090b576009546108fa87670de0b6b3a7640000611422565b6109049190611457565b9450610998565b81811061095657600a61091e838361146b565b6109289190611566565b60095461093d88670de0b6b3a7640000611422565b6109479190611457565b6109519190611457565b610995565b600a610962828461146b565b61096c9190611566565b60095461098188670de0b6b3a7640000611422565b61098b9190611457565b6109959190611422565b94505b6040516340c10f1960e01b8152336004820152602481018690526001600160a01b038516906340c10f19906044015b600060405180830381600087803b1580156109e157600080fd5b505af11580156109f5573d6000803e3d6000fd5b5050505050505050919050565b6000807f0000000000000000000000000000000000000000000000000000000000000000905060007f000000000000000000000000000000000000000000000000000000000000000090506000826001600160a01b031663313ce5676040518163ffffffff1660e01b8152600401602060405180830381865afa158015610a8d573d6000803e3d6000fd5b505050506040513d601f19601f82011682018060405250810190610ab191906113cc565b60ff1690506000826001600160a01b031663313ce5676040518163ffffffff1660e01b8152600401602060405180830381865afa158015610af6573d6000803e3d6000fd5b505050506040513d601f19601f82011682018060405250810190610b1a91906113cc565b6040516323b872dd60e01b81523360048201523060248201526044810188905260ff9190911691506001600160a01b038516906323b872dd906064016020604051808303816000875af1158015610b75573d6000803e3d6000fd5b505050506040513d601f19601f82011682018060405250810190610b9991906113ef565b50808203610bc957670de0b6b3a764000060095487610bb89190611422565b610bc29190611457565b9450610c5a565b818110610c1657600a610bdc838361146b565b610be69190611566565b670de0b6b3a764000060095488610bfd9190611422565b610c079190611457565b610c119190611422565b610c57565b600a610c22828461146b565b610c2c9190611566565b670de0b6b3a764000060095488610c439190611422565b610c4d9190611457565b610c579190611457565b94505b6040516340c10f1960e01b8152336004820152602481018690526001600160a01b038416906340c10f19906044016109c7565b6000336001600160a01b03167f00000000000000000000000000000000000000000000000000000000000000006001600160a01b03166377aace1a6040518163ffffffff1660e01b8152600401602060405180830381865afa158015610cf7573d6000803e3d6000fd5b505050506040513d601f19601f82011682018060405250810190610d1b9190611575565b6001600160a01b031614610d425760405163fb02114960e01b815260040160405180910390fd5b610d766001600160a01b037f000000000000000000000000000000000000000000000000000000000000000016878661103f565b6040516323e30c8b60e01b81526000906001600160a01b038816906323e30c8b90610dcf9033907f0000000000000000000000000000000000000000000000000000000000000000908a9087908b908b90600401611592565b6020604051808303816000875af1158015610dee573d6000803e3d6000fd5b505050506040513d601f19601f82011682018060405250810190610e1291906115ed565b90507f439148f0bbc682ca079e46d6e2c2f0c1e3b820f1a291b069d8882abf8cf18dd98114610e545760405163081f7c8760e21b815260040160405180910390fd5b610e896001600160a01b037f0000000000000000000000000000000000000000000000000000000000000000168830886110cb565b5060019695505050505050565b6040516370a0823160e01b81523060048201526000906001600160a01b038316906370a0823190602401602060405180830381865afa158015610edd573d6000803e3d6000fd5b505050506040513d601f19601f82011682018060405250810190610f0191906115ed565b92915050565b600080600a54600214610f1c57600080610f31565b6000610f31600267ffffffffffffffff611606565b60ff9091169367ffffffffffffffff90911692509050565b6007805461055990611392565b60007f00000000000000000000000000000000000000000000000000000000000000006001600160a01b0316836001600160a01b031614610faa57604051633dd1b30560e01b815260040160405180910390fd5b50600092915050565b600060405163095ea7b360e01b6000528360045282602452602060006044600080895af13d15601f3d11600160005114161716915060006060528060405250806102b15760405162461bcd60e51b815260206004820152600e60248201527f415050524f56455f4641494c45440000000000000000000000000000000000006044820152606401610621565b600060405163a9059cbb60e01b6000528360045282602452602060006044600080895af13d15601f3d11600160005114161716915060006060528060405250806102b15760405162461bcd60e51b815260206004820152600f60248201527f5452414e534645525f4641494c454400000000000000000000000000000000006044820152606401610621565b60006040516323b872dd60e01b6000528460045283602452826044526020600060646000808a5af13d15601f3d116001600051141617169150600060605280604052508061115b5760405162461bcd60e51b815260206004820152601460248201527f5452414e534645525f46524f4d5f4641494c45440000000000000000000000006044820152606401610621565b5050505050565b600060208083528351808285015260005b8181101561118f57858101830151858201604001528201611173565b818111156111a1576000604083870101525b50601f01601f1916929092016040019392505050565b6001600160a01b03811681146111cc57600080fd5b50565b80151581146111cc57600080fd5b600080604083850312156111f057600080fd5b82356111fb816111b7565b9150602083013561120b816111cf565b809150509250929050565b6000806000806080858703121561122c57600080fd5b5050823594602084013594506040840135936060013592509050565b60006020828403121561125a57600080fd5b5035919050565b60008060008060006080868803121561127957600080fd5b8535611284816111b7565b94506020860135611294816111b7565b935060408601359250606086013567ffffffffffffffff808211156112b857600080fd5b818801915088601f8301126112cc57600080fd5b8135818111156112db57600080fd5b8960208285010111156112ed57600080fd5b9699959850939650602001949392505050565b60006020828403121561131257600080fd5b813561131d816111b7565b9392505050565b60008060006060848603121561133957600080fd5b8335611344816111b7565b925060208401359150604084013561135b816111cf565b809150509250925092565b6000806040838503121561137957600080fd5b8235611384816111b7565b946020939093013593505050565b600181811c908216806113a657607f821691505b6020821081036113c657634e487b7160e01b600052602260045260246000fd5b50919050565b6000602082840312156113de57600080fd5b815160ff8116811461131d57600080fd5b60006020828403121561140157600080fd5b815161131d816111cf565b634e487b7160e01b600052601160045260246000fd5b600081600019048311821515161561143c5761143c61140c565b500290565b634e487b7160e01b600052601260045260246000fd5b60008261146657611466611441565b500490565b60008282101561147d5761147d61140c565b500390565b600181815b808511156114bd5781600019048211156114a3576114a361140c565b808516156114b057918102915b93841c9390800290611487565b509250929050565b6000826114d457506001610f01565b816114e157506000610f01565b81600181146114f757600281146115015761151d565b6001915050610f01565b60ff8411156115125761151261140c565b50506001821b610f01565b5060208310610133831016604e8410600b8410161715611540575081810a610f01565b61154a8383611482565b806000190482111561155e5761155e61140c565b029392505050565b600061131d60ff8416836114c5565b60006020828403121561158757600080fd5b815161131d816111b7565b60006001600160a01b03808916835280881660208401525085604083015284606083015260a060808301528260a0830152828460c0840137600060c0848401015260c0601f19601f8501168301019050979650505050505050565b6000602082840312156115ff57600080fd5b5051919050565b600067ffffffffffffffff8084168061162157611621611441565b9216919091049291505056fea26469706673582212209e1e81e142d955756d330f40e497a143dad7a97b9babaf26193c88108973e81b64736f6c634300080f0033",
  "devdoc": {
    "kind": "dev",
    "methods": {
      "flashLoan(address,address,uint256,bytes)": {
        "params": {
          "amount": "The amount of target lent.",
          "data": "(encoded adapter address, maturity and YT amount the use has sent in)",
          "receiver": "The contract receiving target, needs to implement the `onFlashLoan(address user, address adapter, uint256 maturity, uint256 amount)` interface."
        }
      },
      "maxFlashLoan(address)": {
        "details": "The amount of currency available to be lent.",
        "params": {
          "token": "The loan currency."
        },
        "returns": {
          "_0": "The amount of `token` that can be borrowed."
        }
      },
      "scaleStored()": {
        "details": "For situations where you need scale from a view function"
      }
    },
    "stateVariables": {
      "scale": {
        "details": "For some Targets, such as cTokens, this is simply the exchange rate, or `supply cToken / supply underlying`For other Targets, such as AMM LP shares, specialized logic will be requiredThis function _must_ return a WAD number representing the current exchange rate between the Target and the Underlying.",
        "return": "value WAD Scale value",
        "returns": {
          "_0": "value WAD Scale value"
        }
      }
    },
    "version": 1
  },
  "userdoc": {
    "kind": "user",
    "methods": {
      "adapterParams()": {
        "notice": "adapter params"
      },
      "divider()": {
        "notice": "Sense core Divider address"
      },
      "flashLoan(address,address,uint256,bytes)": {
        "notice": "Loan `amount` target to `receiver`, and takes it back after the callback."
      },
      "getUnderlyingPrice()": {
        "notice": "Returns the current price of the underlying in ETH terms"
      },
      "ifee()": {
        "notice": "Issuance fee"
      },
      "notify(address,uint256,bool)": {
        "notice": "Notification whenever the Divider adds or removes Target"
      },
      "onRedeem(uint256,uint256,uint256,uint256)": {
        "notice": "Hook called whenever a user redeems PT"
      },
      "scale()": {
        "notice": "Calculate and return this adapter's Scale value for the current timestamp. To be overriden by child contracts"
      },
      "scaleStored()": {
        "notice": "Cached scale value getter"
      },
      "target()": {
        "notice": "Target token to divide"
      },
      "underlying()": {
        "notice": "Underlying for the Target"
      }
    },
    "version": 1
  },
  "storageLayout": {
    "storage": [
      {
        "astId": 7480,
        "contract": "lib/auto-roller/src/test/utils/MockOwnedAdapter.sol:MockOwnableAdapter",
        "label": "adapterParams",
        "offset": 0,
        "slot": "0",
        "type": "t_struct(AdapterParams)7505_storage"
      },
      {
        "astId": 7507,
        "contract": "lib/auto-roller/src/test/utils/MockOwnedAdapter.sol:MockOwnableAdapter",
        "label": "name",
        "offset": 0,
        "slot": "6",
        "type": "t_string_storage"
      },
      {
        "astId": 7509,
        "contract": "lib/auto-roller/src/test/utils/MockOwnedAdapter.sol:MockOwnableAdapter",
        "label": "symbol",
        "offset": 0,
        "slot": "7",
        "type": "t_string_storage"
      },
      {
        "astId": 21392,
        "contract": "lib/auto-roller/src/test/utils/MockOwnedAdapter.sol:MockOwnableAdapter",
        "label": "isTrusted",
        "offset": 0,
        "slot": "8",
        "type": "t_mapping(t_address,t_bool)"
      },
      {
        "astId": 27311,
        "contract": "lib/auto-roller/src/test/utils/MockOwnedAdapter.sol:MockOwnableAdapter",
        "label": "scale",
        "offset": 0,
        "slot": "9",
        "type": "t_uint256"
      },
      {
        "astId": 27314,
        "contract": "lib/auto-roller/src/test/utils/MockOwnedAdapter.sol:MockOwnableAdapter",
        "label": "open",
        "offset": 0,
        "slot": "10",
        "type": "t_uint256"
      }
    ],
    "types": {
      "t_address": {
        "encoding": "inplace",
        "label": "address",
        "numberOfBytes": "20"
      },
      "t_bool": {
        "encoding": "inplace",
        "label": "bool",
        "numberOfBytes": "1"
      },
      "t_mapping(t_address,t_bool)": {
        "encoding": "mapping",
        "key": "t_address",
        "label": "mapping(address => bool)",
        "numberOfBytes": "32",
        "value": "t_bool"
      },
      "t_string_storage": {
        "encoding": "bytes",
        "label": "string",
        "numberOfBytes": "32"
      },
      "t_struct(AdapterParams)7505_storage": {
        "encoding": "inplace",
        "label": "struct BaseAdapter.AdapterParams",
        "members": [
          {
            "astId": 7483,
            "contract": "lib/auto-roller/src/test/utils/MockOwnedAdapter.sol:MockOwnableAdapter",
            "label": "oracle",
            "offset": 0,
            "slot": "0",
            "type": "t_address"
          },
          {
            "astId": 7486,
            "contract": "lib/auto-roller/src/test/utils/MockOwnedAdapter.sol:MockOwnableAdapter",
            "label": "stake",
            "offset": 0,
            "slot": "1",
            "type": "t_address"
          },
          {
            "astId": 7489,
            "contract": "lib/auto-roller/src/test/utils/MockOwnedAdapter.sol:MockOwnableAdapter",
            "label": "stakeSize",
            "offset": 0,
            "slot": "2",
            "type": "t_uint256"
          },
          {
            "astId": 7492,
            "contract": "lib/auto-roller/src/test/utils/MockOwnedAdapter.sol:MockOwnableAdapter",
            "label": "minm",
            "offset": 0,
            "slot": "3",
            "type": "t_uint256"
          },
          {
            "astId": 7495,
            "contract": "lib/auto-roller/src/test/utils/MockOwnedAdapter.sol:MockOwnableAdapter",
            "label": "maxm",
            "offset": 0,
            "slot": "4",
            "type": "t_uint256"
          },
          {
            "astId": 7498,
            "contract": "lib/auto-roller/src/test/utils/MockOwnedAdapter.sol:MockOwnableAdapter",
            "label": "tilt",
            "offset": 0,
            "slot": "5",
            "type": "t_uint64"
          },
          {
            "astId": 7501,
            "contract": "lib/auto-roller/src/test/utils/MockOwnedAdapter.sol:MockOwnableAdapter",
            "label": "level",
            "offset": 8,
            "slot": "5",
            "type": "t_uint48"
          },
          {
            "astId": 7504,
            "contract": "lib/auto-roller/src/test/utils/MockOwnedAdapter.sol:MockOwnableAdapter",
            "label": "mode",
            "offset": 14,
            "slot": "5",
            "type": "t_uint16"
          }
        ],
        "numberOfBytes": "192"
      },
      "t_uint16": {
        "encoding": "inplace",
        "label": "uint16",
        "numberOfBytes": "2"
      },
      "t_uint256": {
        "encoding": "inplace",
        "label": "uint256",
        "numberOfBytes": "32"
      },
      "t_uint48": {
        "encoding": "inplace",
        "label": "uint48",
        "numberOfBytes": "6"
      },
      "t_uint64": {
        "encoding": "inplace",
        "label": "uint64",
        "numberOfBytes": "8"
      }
    }
  }
}