{
  "address": "0x897Aec31aB73106E4aD10E6F85a68EdCfe35fcE2",
  "abi": [
    {
      "inputs": [
        {
          "internalType": "contract ERC20",
          "name": "_underlying",
          "type": "address"
        },
        {
          "internalType": "string",
          "name": "_name",
          "type": "string"
        },
        {
          "internalType": "string",
          "name": "_symbol",
          "type": "string"
        },
        {
          "internalType": "uint8",
          "name": "_decimals",
          "type": "uint8"
        }
      ],
      "stateMutability": "nonpayable",
      "type": "constructor"
    },
    {
      "anonymous": false,
      "inputs": [
        {
          "indexed": true,
          "internalType": "address",
          "name": "owner",
          "type": "address"
        },
        {
          "indexed": true,
          "internalType": "address",
          "name": "spender",
          "type": "address"
        },
        {
          "indexed": false,
          "internalType": "uint256",
          "name": "amount",
          "type": "uint256"
        }
      ],
      "name": "Approval",
      "type": "event"
    },
    {
      "anonymous": false,
      "inputs": [
        {
          "indexed": true,
          "internalType": "address",
          "name": "caller",
          "type": "address"
        },
        {
          "indexed": true,
          "internalType": "address",
          "name": "owner",
          "type": "address"
        },
        {
          "indexed": false,
          "internalType": "uint256",
          "name": "assets",
          "type": "uint256"
        },
        {
          "indexed": false,
          "internalType": "uint256",
          "name": "shares",
          "type": "uint256"
        }
      ],
      "name": "Deposit",
      "type": "event"
    },
    {
      "anonymous": false,
      "inputs": [
        {
          "indexed": true,
          "internalType": "address",
          "name": "from",
          "type": "address"
        },
        {
          "indexed": true,
          "internalType": "address",
          "name": "to",
          "type": "address"
        },
        {
          "indexed": false,
          "internalType": "uint256",
          "name": "amount",
          "type": "uint256"
        }
      ],
      "name": "Transfer",
      "type": "event"
    },
    {
      "anonymous": false,
      "inputs": [
        {
          "indexed": true,
          "internalType": "address",
          "name": "caller",
          "type": "address"
        },
        {
          "indexed": true,
          "internalType": "address",
          "name": "receiver",
          "type": "address"
        },
        {
          "indexed": true,
          "internalType": "address",
          "name": "owner",
          "type": "address"
        },
        {
          "indexed": false,
          "internalType": "uint256",
          "name": "assets",
          "type": "uint256"
        },
        {
          "indexed": false,
          "internalType": "uint256",
          "name": "shares",
          "type": "uint256"
        }
      ],
      "name": "Withdraw",
      "type": "event"
    },
    {
      "inputs": [],
      "name": "DOMAIN_SEPARATOR",
      "outputs": [
        {
          "internalType": "bytes32",
          "name": "",
          "type": "bytes32"
        }
      ],
      "stateMutability": "view",
      "type": "function"
    },
    {
      "inputs": [],
      "name": "afterDepositHookCalledCounter",
      "outputs": [
        {
          "internalType": "uint256",
          "name": "",
          "type": "uint256"
        }
      ],
      "stateMutability": "view",
      "type": "function"
    },
    {
      "inputs": [
        {
          "internalType": "address",
          "name": "",
          "type": "address"
        },
        {
          "internalType": "address",
          "name": "",
          "type": "address"
        }
      ],
      "name": "allowance",
      "outputs": [
        {
          "internalType": "uint256",
          "name": "",
          "type": "uint256"
        }
      ],
      "stateMutability": "view",
      "type": "function"
    },
    {
      "inputs": [
        {
          "internalType": "address",
          "name": "spender",
          "type": "address"
        },
        {
          "internalType": "uint256",
          "name": "amount",
          "type": "uint256"
        }
      ],
      "name": "approve",
      "outputs": [
        {
          "internalType": "bool",
          "name": "",
          "type": "bool"
        }
      ],
      "stateMutability": "nonpayable",
      "type": "function"
    },
    {
      "inputs": [],
      "name": "asset",
      "outputs": [
        {
          "internalType": "contract ERC20",
          "name": "",
          "type": "address"
        }
      ],
      "stateMutability": "view",
      "type": "function"
    },
    {
      "inputs": [
        {
          "internalType": "address",
          "name": "",
          "type": "address"
        }
      ],
      "name": "balanceOf",
      "outputs": [
        {
          "internalType": "uint256",
          "name": "",
          "type": "uint256"
        }
      ],
      "stateMutability": "view",
      "type": "function"
    },
    {
      "inputs": [],
      "name": "beforeWithdrawHookCalledCounter",
      "outputs": [
        {
          "internalType": "uint256",
          "name": "",
          "type": "uint256"
        }
      ],
      "stateMutability": "view",
      "type": "function"
    },
    {
      "inputs": [
        {
          "internalType": "uint256",
          "name": "shares",
          "type": "uint256"
        }
      ],
      "name": "convertToAssets",
      "outputs": [
        {
          "internalType": "uint256",
          "name": "",
          "type": "uint256"
        }
      ],
      "stateMutability": "view",
      "type": "function"
    },
    {
      "inputs": [
        {
          "internalType": "uint256",
          "name": "assets",
          "type": "uint256"
        }
      ],
      "name": "convertToShares",
      "outputs": [
        {
          "internalType": "uint256",
          "name": "",
          "type": "uint256"
        }
      ],
      "stateMutability": "view",
      "type": "function"
    },
    {
      "inputs": [],
      "name": "decimals",
      "outputs": [
        {
          "internalType": "uint8",
          "name": "",
          "type": "uint8"
        }
      ],
      "stateMutability": "view",
      "type": "function"
    },
    {
      "inputs": [
        {
          "internalType": "uint256",
          "name": "assets",
          "type": "uint256"
        },
        {
          "internalType": "address",
          "name": "receiver",
          "type": "address"
        }
      ],
      "name": "deposit",
      "outputs": [
        {
          "internalType": "uint256",
          "name": "shares",
          "type": "uint256"
        }
      ],
      "stateMutability": "nonpayable",
      "type": "function"
    },
    {
      "inputs": [
        {
          "internalType": "address",
          "name": "",
          "type": "address"
        }
      ],
      "name": "maxDeposit",
      "outputs": [
        {
          "internalType": "uint256",
          "name": "",
          "type": "uint256"
        }
      ],
      "stateMutability": "view",
      "type": "function"
    },
    {
      "inputs": [
        {
          "internalType": "address",
          "name": "",
          "type": "address"
        }
      ],
      "name": "maxMint",
      "outputs": [
        {
          "internalType": "uint256",
          "name": "",
          "type": "uint256"
        }
      ],
      "stateMutability": "view",
      "type": "function"
    },
    {
      "inputs": [
        {
          "internalType": "address",
          "name": "owner",
          "type": "address"
        }
      ],
      "name": "maxRedeem",
      "outputs": [
        {
          "internalType": "uint256",
          "name": "",
          "type": "uint256"
        }
      ],
      "stateMutability": "view",
      "type": "function"
    },
    {
      "inputs": [
        {
          "internalType": "address",
          "name": "owner",
          "type": "address"
        }
      ],
      "name": "maxWithdraw",
      "outputs": [
        {
          "internalType": "uint256",
          "name": "",
          "type": "uint256"
        }
      ],
      "stateMutability": "view",
      "type": "function"
    },
    {
      "inputs": [
        {
          "internalType": "uint256",
          "name": "shares",
          "type": "uint256"
        },
        {
          "internalType": "address",
          "name": "receiver",
          "type": "address"
        }
      ],
      "name": "mint",
      "outputs": [
        {
          "internalType": "uint256",
          "name": "assets",
          "type": "uint256"
        }
      ],
      "stateMutability": "nonpayable",
      "type": "function"
    },
    {
      "inputs": [],
      "name": "name",
      "outputs": [
        {
          "internalType": "string",
          "name": "",
          "type": "string"
        }
      ],
      "stateMutability": "view",
      "type": "function"
    },
    {
      "inputs": [
        {
          "internalType": "address",
          "name": "",
          "type": "address"
        }
      ],
      "name": "nonces",
      "outputs": [
        {
          "internalType": "uint256",
          "name": "",
          "type": "uint256"
        }
      ],
      "stateMutability": "view",
      "type": "function"
    },
    {
      "inputs": [
        {
          "internalType": "address",
          "name": "owner",
          "type": "address"
        },
        {
          "internalType": "address",
          "name": "spender",
          "type": "address"
        },
        {
          "internalType": "uint256",
          "name": "value",
          "type": "uint256"
        },
        {
          "internalType": "uint256",
          "name": "deadline",
          "type": "uint256"
        },
        {
          "internalType": "uint8",
          "name": "v",
          "type": "uint8"
        },
        {
          "internalType": "bytes32",
          "name": "r",
          "type": "bytes32"
        },
        {
          "internalType": "bytes32",
          "name": "s",
          "type": "bytes32"
        }
      ],
      "name": "permit",
      "outputs": [],
      "stateMutability": "nonpayable",
      "type": "function"
    },
    {
      "inputs": [
        {
          "internalType": "uint256",
          "name": "assets",
          "type": "uint256"
        }
      ],
      "name": "previewDeposit",
      "outputs": [
        {
          "internalType": "uint256",
          "name": "",
          "type": "uint256"
        }
      ],
      "stateMutability": "view",
      "type": "function"
    },
    {
      "inputs": [
        {
          "internalType": "uint256",
          "name": "shares",
          "type": "uint256"
        }
      ],
      "name": "previewMint",
      "outputs": [
        {
          "internalType": "uint256",
          "name": "",
          "type": "uint256"
        }
      ],
      "stateMutability": "view",
      "type": "function"
    },
    {
      "inputs": [
        {
          "internalType": "uint256",
          "name": "shares",
          "type": "uint256"
        }
      ],
      "name": "previewRedeem",
      "outputs": [
        {
          "internalType": "uint256",
          "name": "",
          "type": "uint256"
        }
      ],
      "stateMutability": "view",
      "type": "function"
    },
    {
      "inputs": [
        {
          "internalType": "uint256",
          "name": "assets",
          "type": "uint256"
        }
      ],
      "name": "previewWithdraw",
      "outputs": [
        {
          "internalType": "uint256",
          "name": "",
          "type": "uint256"
        }
      ],
      "stateMutability": "view",
      "type": "function"
    },
    {
      "inputs": [
        {
          "internalType": "uint256",
          "name": "shares",
          "type": "uint256"
        },
        {
          "internalType": "address",
          "name": "receiver",
          "type": "address"
        },
        {
          "internalType": "address",
          "name": "owner",
          "type": "address"
        }
      ],
      "name": "redeem",
      "outputs": [
        {
          "internalType": "uint256",
          "name": "assets",
          "type": "uint256"
        }
      ],
      "stateMutability": "nonpayable",
      "type": "function"
    },
    {
      "inputs": [],
      "name": "symbol",
      "outputs": [
        {
          "internalType": "string",
          "name": "",
          "type": "string"
        }
      ],
      "stateMutability": "view",
      "type": "function"
    },
    {
      "inputs": [],
      "name": "totalAssets",
      "outputs": [
        {
          "internalType": "uint256",
          "name": "",
          "type": "uint256"
        }
      ],
      "stateMutability": "view",
      "type": "function"
    },
    {
      "inputs": [],
      "name": "totalSupply",
      "outputs": [
        {
          "internalType": "uint256",
          "name": "",
          "type": "uint256"
        }
      ],
      "stateMutability": "view",
      "type": "function"
    },
    {
      "inputs": [
        {
          "internalType": "address",
          "name": "to",
          "type": "address"
        },
        {
          "internalType": "uint256",
          "name": "amount",
          "type": "uint256"
        }
      ],
      "name": "transfer",
      "outputs": [
        {
          "internalType": "bool",
          "name": "",
          "type": "bool"
        }
      ],
      "stateMutability": "nonpayable",
      "type": "function"
    },
    {
      "inputs": [
        {
          "internalType": "address",
          "name": "from",
          "type": "address"
        },
        {
          "internalType": "address",
          "name": "to",
          "type": "address"
        },
        {
          "internalType": "uint256",
          "name": "amount",
          "type": "uint256"
        }
      ],
      "name": "transferFrom",
      "outputs": [
        {
          "internalType": "bool",
          "name": "",
          "type": "bool"
        }
      ],
      "stateMutability": "nonpayable",
      "type": "function"
    },
    {
      "inputs": [
        {
          "internalType": "uint256",
          "name": "assets",
          "type": "uint256"
        },
        {
          "internalType": "address",
          "name": "receiver",
          "type": "address"
        },
        {
          "internalType": "address",
          "name": "owner",
          "type": "address"
        }
      ],
      "name": "withdraw",
      "outputs": [
        {
          "internalType": "uint256",
          "name": "shares",
          "type": "uint256"
        }
      ],
      "stateMutability": "nonpayable",
      "type": "function"
    }
  ],
  "transactionHash": "0x1a991141058e00b1e060a6d132eb598ae700134a6be391f831e58efe1362799a",
  "args": [
    "0xc4723445bD201f685A8128DC2D602DD86B696E22",
    "Morpho-Aave Usdt Stablecoin Supply Vault",
    "maUSDT",
    18
  ],
  "numDeployments": 5,
  "solcInputHash": "807180b0b404a719ce8fab2623bee4d1",
  "bytecode": "0x610100604052600060065560006007553480156200001c57600080fd5b5060405162001ea238038062001ea28339810160408190526200003f9162000204565b83838383828282600062000054848262000337565b50600162000063838262000337565b5060ff81166080524660a052620000796200009b565b60c0525050506001600160a01b0390931660e052506200048195505050505050565b60007f8b73c3c69bb8fe3d512ecc4cf759cc79239f7b179b0ffacaa9a75d522b39400f6000604051620000cf919062000403565b6040805191829003822060208301939093528101919091527fc89efdaa54c0f20c7adf612882df0950f5a951637e0307cdcb4c672f298b8bc660608201524660808201523060a082015260c00160405160208183030381529060405280519060200120905090565b634e487b7160e01b600052604160045260246000fd5b600082601f8301126200015f57600080fd5b81516001600160401b03808211156200017c576200017c62000137565b604051601f8301601f19908116603f01168101908282118183101715620001a757620001a762000137565b81604052838152602092508683858801011115620001c457600080fd5b600091505b83821015620001e85785820183015181830184015290820190620001c9565b83821115620001fa5760008385830101525b9695505050505050565b600080600080608085870312156200021b57600080fd5b84516001600160a01b03811681146200023357600080fd5b60208601519094506001600160401b03808211156200025157600080fd5b6200025f888389016200014d565b945060408701519150808211156200027657600080fd5b5062000285878288016200014d565b925050606085015160ff811681146200029d57600080fd5b939692955090935050565b600181811c90821680620002bd57607f821691505b602082108103620002de57634e487b7160e01b600052602260045260246000fd5b50919050565b601f8211156200033257600081815260208120601f850160051c810160208610156200030d5750805b601f850160051c820191505b818110156200032e5782815560010162000319565b5050505b505050565b81516001600160401b0381111562000353576200035362000137565b6200036b81620003648454620002a8565b84620002e4565b602080601f831160018114620003a357600084156200038a5750858301515b600019600386901b1c1916600185901b1785556200032e565b600085815260208120601f198616915b82811015620003d457888601518255948401946001909101908401620003b3565b5085821015620003f35787850151600019600388901b60f8161c191681555b5050505050600190811b01905550565b60008083546200041381620002a8565b600182811680156200042e5760018114620004445762000475565b60ff198416875282151583028701945062000475565b8760005260208060002060005b858110156200046c5781548a82015290840190820162000451565b50505082870194505b50929695505050505050565b60805160a05160c05160e05161198c62000516600039600081816102ba015281816104a2015281816105d1015281816107530152818161098e01528181610a2a01528181610b5501528181610cf201528181610e3e0152610eb601526000610904015260006108d4015260008181610279015281816106610152818161072b01528181610be50152610e8e015261198c6000f3fe608060405234801561001057600080fd5b50600436106101da5760003560e01c806394bf804d11610104578063c63d75b6116100a2578063d905777e11610071578063d905777e1461041a578063dd62ed3e14610443578063ef8b30f71461046e578063fc407ae71461048157600080fd5b8063c63d75b6146102f4578063c6e6f592146103df578063ce96cb77146103f2578063d505accf1461040557600080fd5b8063b3d7f6b9116100de578063b3d7f6b91461039d578063b460af94146103b0578063ba087652146103c3578063bc368a8a146103d657600080fd5b806394bf804d1461036f57806395d89b4114610382578063a9059cbb1461038a57600080fd5b8063313ce5671161017c5780634cdad5061161014b5780634cdad506146103095780636e553f651461031c57806370a082311461032f5780637ecebe001461034f57600080fd5b8063313ce567146102745780633644e515146102ad57806338d52e0f146102b5578063402d267d146102f457600080fd5b8063095ea7b3116101b8578063095ea7b3146102225780630a28a4771461024557806318160ddd1461025857806323b872dd1461026157600080fd5b806301e1d114146101df57806306fdde03146101fa57806307a2d13a1461020f575b600080fd5b6101e761048a565b6040519081526020015b60405180910390f35b61020261051a565b6040516101f191906114da565b6101e761021d36600461152f565b6105a8565b610235610230366004611564565b610696565b60405190151581526020016101f1565b6101e761025336600461152f565b610703565b6101e760025481565b61023561026f36600461158e565b6107de565b61029b7f000000000000000000000000000000000000000000000000000000000000000081565b60405160ff90911681526020016101f1565b6101e76108d0565b6102dc7f000000000000000000000000000000000000000000000000000000000000000081565b6040516001600160a01b0390911681526020016101f1565b6101e76103023660046115ca565b5060001990565b6101e761031736600461152f565b610926565b6101e761032a3660046115e5565b610931565b6101e761033d3660046115ca565b60036020526000908152604090205481565b6101e761035d3660046115ca565b60056020526000908152604090205481565b6101e761037d3660046115e5565b610a10565b610202610aac565b610235610398366004611564565b610ab9565b6101e76103ab36600461152f565b610b31565b6101e76103be366004611611565b610c0b565b6101e76103d1366004611611565b610d19565b6101e760065481565b6101e76103ed36600461152f565b610e65565b6101e76104003660046115ca565b610f41565b61041861041336600461165f565b610f63565b005b6101e76104283660046115ca565b6001600160a01b031660009081526003602052604090205490565b6101e76104513660046116cc565b600460209081526000928352604080842090915290825290205481565b6101e761047c36600461152f565b6111b6565b6101e760075481565b6040516370a0823160e01b81523060048201526000907f00000000000000000000000000000000000000000000000000000000000000006001600160a01b0316906370a0823190602401602060405180830381865afa1580156104f1573d6000803e3d6000fd5b505050506040513d601f19601f8201168201806040525081019061051591906116f6565b905090565b600080546105279061170f565b80601f01602080910402602001604051908101604052809291908181526020018280546105539061170f565b80156105a05780601f10610575576101008083540402835291602001916105a0565b820191906000526020600020905b81548152906001019060200180831161058357829003601f168201915b505050505081565b60025460009080156105cc576105c76105bf61048a565b8490836111c1565b61068f565b61068f7f00000000000000000000000000000000000000000000000000000000000000006001600160a01b031663313ce5676040518163ffffffff1660e01b8152600401602060405180830381865afa15801561062d573d6000803e3d6000fd5b505050506040513d601f19601f820116820180604052508101906106519190611749565b61065c90600a611860565b6106877f0000000000000000000000000000000000000000000000000000000000000000600a611860565b8591906111c1565b9392505050565b3360008181526004602090815260408083206001600160a01b038716808552925280832085905551919290917f8c5be1e5ebec7d5bd14f71427d1e84f3dd0314c0f7b2291e5b200ac8c7c3b925906106f19086815260200190565b60405180910390a35060015b92915050565b6002546000908015610723576105c78161071b61048a565b8591906111e0565b61068f6107517f0000000000000000000000000000000000000000000000000000000000000000600a611860565b7f00000000000000000000000000000000000000000000000000000000000000006001600160a01b031663313ce5676040518163ffffffff1660e01b8152600401602060405180830381865afa1580156107af573d6000803e3d6000fd5b505050506040513d601f19601f820116820180604052508101906107d39190611749565b61071b90600a611860565b6001600160a01b0383166000908152600460209081526040808320338452909152812054600019811461083a57610815838261186f565b6001600160a01b03861660009081526004602090815260408083203384529091529020555b6001600160a01b0385166000908152600360205260408120805485929061086290849061186f565b90915550506001600160a01b03808516600081815260036020526040908190208054870190555190918716907fddf252ad1be2c89b69c2b068fc378daa952ba7f163c4a11628f55a4df523b3ef906108bd9087815260200190565b60405180910390a3506001949350505050565b60007f000000000000000000000000000000000000000000000000000000000000000046146109015761051561120e565b507f000000000000000000000000000000000000000000000000000000000000000090565b60006106fd826105a8565b600061093c836111b6565b9050806000036109815760405162461bcd60e51b815260206004820152600b60248201526a5a45524f5f53484152455360a81b60448201526064015b60405180910390fd5b6109b66001600160a01b037f0000000000000000000000000000000000000000000000000000000000000000163330866112a8565b6109c0828261133f565b60408051848152602081018390526001600160a01b0384169133917fdcbc1c05240f31ff3ad067ef1ee35ce4997762752e3a095284754544f4c709d7910160405180910390a36106fd83826113ab565b6000610a1b83610b31565b9050610a526001600160a01b037f0000000000000000000000000000000000000000000000000000000000000000163330846112a8565b610a5c828461133f565b60408051828152602081018590526001600160a01b0384169133917fdcbc1c05240f31ff3ad067ef1ee35ce4997762752e3a095284754544f4c709d7910160405180910390a36106fd81846113ab565b600180546105279061170f565b33600090815260036020526040812080548391908390610ada90849061186f565b90915550506001600160a01b038316600081815260036020526040908190208054850190555133907fddf252ad1be2c89b69c2b068fc378daa952ba7f163c4a11628f55a4df523b3ef906106f19086815260200190565b6002546000908015610b50576105c7610b4861048a565b8490836111e0565b61068f7f00000000000000000000000000000000000000000000000000000000000000006001600160a01b031663313ce5676040518163ffffffff1660e01b8152600401602060405180830381865afa158015610bb1573d6000803e3d6000fd5b505050506040513d601f19601f82011682018060405250810190610bd59190611749565b610be090600a611860565b61071b7f0000000000000000000000000000000000000000000000000000000000000000600a611860565b6000610c1684610703565b9050336001600160a01b03831614610c86576001600160a01b03821660009081526004602090815260408083203384529091529020546000198114610c8457610c5f828261186f565b6001600160a01b03841660009081526004602090815260408083203384529091529020555b505b610c9084826113c4565b610c9a82826113d4565b60408051858152602081018390526001600160a01b03808516929086169133917ffbde797d201c681b91056529119e0b02407c7bb96a4a2c75c01fc9667232c8db910160405180910390a461068f6001600160a01b037f0000000000000000000000000000000000000000000000000000000000000000168486611448565b6000336001600160a01b03831614610d89576001600160a01b03821660009081526004602090815260408083203384529091529020546000198114610d8757610d62858261186f565b6001600160a01b03841660009081526004602090815260408083203384529091529020555b505b610d9284610926565b905080600003610dd25760405162461bcd60e51b815260206004820152600b60248201526a5a45524f5f41535345545360a81b6044820152606401610978565b610ddc81856113c4565b610de682856113d4565b60408051828152602081018690526001600160a01b03808516929086169133917ffbde797d201c681b91056529119e0b02407c7bb96a4a2c75c01fc9667232c8db910160405180910390a461068f6001600160a01b037f0000000000000000000000000000000000000000000000000000000000000000168483611448565b600254600090821580610e76575080155b610e86576105c78161068761048a565b61068f610eb47f0000000000000000000000000000000000000000000000000000000000000000600a611860565b7f00000000000000000000000000000000000000000000000000000000000000006001600160a01b031663313ce5676040518163ffffffff1660e01b8152600401602060405180830381865afa158015610f12573d6000803e3d6000fd5b505050506040513d601f19601f82011682018060405250810190610f369190611749565b61068790600a611860565b6001600160a01b0381166000908152600360205260408120546106fd906105a8565b42841015610fb35760405162461bcd60e51b815260206004820152601760248201527f5045524d49545f444541444c494e455f455850495245440000000000000000006044820152606401610978565b60006001610fbf6108d0565b6001600160a01b038a811660008181526005602090815260409182902080546001810190915582517f6e71edae12b1b97f4d1f60370fef10105fa2faae0126114a169c64845d6126c98184015280840194909452938d166060840152608083018c905260a083019390935260c08083018b90528151808403909101815260e08301909152805192019190912061190160f01b6101008301526101028201929092526101228101919091526101420160408051601f198184030181528282528051602091820120600084529083018083525260ff871690820152606081018590526080810184905260a0016020604051602081039080840390855afa1580156110cb573d6000803e3d6000fd5b5050604051601f1901519150506001600160a01b038116158015906111015750876001600160a01b0316816001600160a01b0316145b61114d5760405162461bcd60e51b815260206004820152600e60248201527f494e56414c49445f5349474e45520000000000000000000000000000000000006044820152606401610978565b6001600160a01b0390811660009081526004602090815260408083208a8516808552908352928190208990555188815291928a16917f8c5be1e5ebec7d5bd14f71427d1e84f3dd0314c0f7b2291e5b200ac8c7c3b925910160405180910390a350505050505050565b60006106fd82610e65565b8282028115158415858304851417166111d957600080fd5b0492915050565b8282028115158415858304851417166111f857600080fd5b6001826001830304018115150290509392505050565b60007f8b73c3c69bb8fe3d512ecc4cf759cc79239f7b179b0ffacaa9a75d522b39400f60006040516112409190611886565b6040805191829003822060208301939093528101919091527fc89efdaa54c0f20c7adf612882df0950f5a951637e0307cdcb4c672f298b8bc660608201524660808201523060a082015260c00160405160208183030381529060405280519060200120905090565b60006040516323b872dd60e01b6000528460045283602452826044526020600060646000808a5af13d15601f3d11600160005114161716915060006060528060405250806113385760405162461bcd60e51b815260206004820152601460248201527f5452414e534645525f46524f4d5f4641494c45440000000000000000000000006044820152606401610978565b5050505050565b80600260008282546113519190611925565b90915550506001600160a01b0382166000818152600360209081526040808320805486019055518481527fddf252ad1be2c89b69c2b068fc378daa952ba7f163c4a11628f55a4df523b3ef91015b60405180910390a35050565b600780549060006113bb8361193d565b91905055505050565b600680549060006113bb8361193d565b6001600160a01b038216600090815260036020526040812080548392906113fc90849061186f565b90915550506002805482900390556040518181526000906001600160a01b038416907fddf252ad1be2c89b69c2b068fc378daa952ba7f163c4a11628f55a4df523b3ef9060200161139f565b600060405163a9059cbb60e01b6000528360045282602452602060006044600080895af13d15601f3d11600160005114161716915060006060528060405250806114d45760405162461bcd60e51b815260206004820152600f60248201527f5452414e534645525f4641494c454400000000000000000000000000000000006044820152606401610978565b50505050565b600060208083528351808285015260005b81811015611507578581018301518582016040015282016114eb565b81811115611519576000604083870101525b50601f01601f1916929092016040019392505050565b60006020828403121561154157600080fd5b5035919050565b80356001600160a01b038116811461155f57600080fd5b919050565b6000806040838503121561157757600080fd5b61158083611548565b946020939093013593505050565b6000806000606084860312156115a357600080fd5b6115ac84611548565b92506115ba60208501611548565b9150604084013590509250925092565b6000602082840312156115dc57600080fd5b61068f82611548565b600080604083850312156115f857600080fd5b8235915061160860208401611548565b90509250929050565b60008060006060848603121561162657600080fd5b8335925061163660208501611548565b915061164460408501611548565b90509250925092565b60ff8116811461165c57600080fd5b50565b600080600080600080600060e0888a03121561167a57600080fd5b61168388611548565b965061169160208901611548565b9550604088013594506060880135935060808801356116af8161164d565b9699959850939692959460a0840135945060c09093013592915050565b600080604083850312156116df57600080fd5b6116e883611548565b915061160860208401611548565b60006020828403121561170857600080fd5b5051919050565b600181811c9082168061172357607f821691505b60208210810361174357634e487b7160e01b600052602260045260246000fd5b50919050565b60006020828403121561175b57600080fd5b815161068f8161164d565b634e487b7160e01b600052601160045260246000fd5b600181815b808511156117b757816000190482111561179d5761179d611766565b808516156117aa57918102915b93841c9390800290611781565b509250929050565b6000826117ce575060016106fd565b816117db575060006106fd565b81600181146117f157600281146117fb57611817565b60019150506106fd565b60ff84111561180c5761180c611766565b50506001821b6106fd565b5060208310610133831016604e8410600b841016171561183a575081810a6106fd565b611844838361177c565b806000190482111561185857611858611766565b029392505050565b600061068f60ff8416836117bf565b60008282101561188157611881611766565b500390565b600080835481600182811c9150808316806118a257607f831692505b602080841082036118c157634e487b7160e01b86526022600452602486fd5b8180156118d557600181146118ea57611917565b60ff1986168952841515850289019650611917565b60008a81526020902060005b8681101561190f5781548b8201529085019083016118f6565b505084890196505b509498975050505050505050565b6000821982111561193857611938611766565b500190565b60006001820161194f5761194f611766565b506001019056fea2646970667358221220a3227ec659fe397e2002068e996f888c782b5c1baf915eebfa914974584c997e64736f6c634300080f0033",
  "devdoc": {
    "kind": "dev",
    "methods": {},
    "version": 1
  },
  "userdoc": {
    "kind": "user",
    "methods": {},
    "version": 1
  },
  "storageLayout": {
    "storage": [
      {
        "astId": 28547,
        "contract": "@sense-finance/v1-core/src/tests/test-helpers/mocks/MockERC4626.sol:MockERC4626",
        "label": "name",
        "offset": 0,
        "slot": "0",
        "type": "t_string_storage"
      },
      {
        "astId": 28549,
        "contract": "@sense-finance/v1-core/src/tests/test-helpers/mocks/MockERC4626.sol:MockERC4626",
        "label": "symbol",
        "offset": 0,
        "slot": "1",
        "type": "t_string_storage"
      },
      {
        "astId": 28553,
        "contract": "@sense-finance/v1-core/src/tests/test-helpers/mocks/MockERC4626.sol:MockERC4626",
        "label": "totalSupply",
        "offset": 0,
        "slot": "2",
        "type": "t_uint256"
      },
      {
        "astId": 28557,
        "contract": "@sense-finance/v1-core/src/tests/test-helpers/mocks/MockERC4626.sol:MockERC4626",
        "label": "balanceOf",
        "offset": 0,
        "slot": "3",
        "type": "t_mapping(t_address,t_uint256)"
      },
      {
        "astId": 28563,
        "contract": "@sense-finance/v1-core/src/tests/test-helpers/mocks/MockERC4626.sol:MockERC4626",
        "label": "allowance",
        "offset": 0,
        "slot": "4",
        "type": "t_mapping(t_address,t_mapping(t_address,t_uint256))"
      },
      {
        "astId": 28571,
        "contract": "@sense-finance/v1-core/src/tests/test-helpers/mocks/MockERC4626.sol:MockERC4626",
        "label": "nonces",
        "offset": 0,
        "slot": "5",
        "type": "t_mapping(t_address,t_uint256)"
      },
      {
        "astId": 17449,
        "contract": "@sense-finance/v1-core/src/tests/test-helpers/mocks/MockERC4626.sol:MockERC4626",
        "label": "beforeWithdrawHookCalledCounter",
        "offset": 0,
        "slot": "6",
        "type": "t_uint256"
      },
      {
        "astId": 17452,
        "contract": "@sense-finance/v1-core/src/tests/test-helpers/mocks/MockERC4626.sol:MockERC4626",
        "label": "afterDepositHookCalledCounter",
        "offset": 0,
        "slot": "7",
        "type": "t_uint256"
      }
    ],
    "types": {
      "t_address": {
        "encoding": "inplace",
        "label": "address",
        "numberOfBytes": "20"
      },
      "t_mapping(t_address,t_mapping(t_address,t_uint256))": {
        "encoding": "mapping",
        "key": "t_address",
        "label": "mapping(address => mapping(address => uint256))",
        "numberOfBytes": "32",
        "value": "t_mapping(t_address,t_uint256)"
      },
      "t_mapping(t_address,t_uint256)": {
        "encoding": "mapping",
        "key": "t_address",
        "label": "mapping(address => uint256)",
        "numberOfBytes": "32",
        "value": "t_uint256"
      },
      "t_string_storage": {
        "encoding": "bytes",
        "label": "string",
        "numberOfBytes": "32"
      },
      "t_uint256": {
        "encoding": "inplace",
        "label": "uint256",
        "numberOfBytes": "32"
      }
    }
  }
}