{
  "address": "0x27F6f7E23b4D77FE9aD7f9A0756a9b40bddE32c9",
  "abi": [
    {
      "inputs": [
        {
          "internalType": "address",
          "name": "_divider",
          "type": "address"
        },
        {
          "internalType": "address",
          "name": "_restrictedAdmin",
          "type": "address"
        },
        {
          "internalType": "address",
          "name": "_rewardsRecipient",
          "type": "address"
        },
        {
          "components": [
            {
              "internalType": "address",
              "name": "oracle",
              "type": "address"
            },
            {
              "internalType": "address",
              "name": "stake",
              "type": "address"
            },
            {
              "internalType": "uint256",
              "name": "stakeSize",
              "type": "uint256"
            },
            {
              "internalType": "uint256",
              "name": "minm",
              "type": "uint256"
            },
            {
              "internalType": "uint256",
              "name": "maxm",
              "type": "uint256"
            },
            {
              "internalType": "uint128",
              "name": "ifee",
              "type": "uint128"
            },
            {
              "internalType": "uint16",
              "name": "mode",
              "type": "uint16"
            },
            {
              "internalType": "uint64",
              "name": "tilt",
              "type": "uint64"
            },
            {
              "internalType": "uint256",
              "name": "guard",
              "type": "uint256"
            }
          ],
          "internalType": "struct BaseFactory.FactoryParams",
          "name": "_factoryParams",
          "type": "tuple"
        },
        {
          "internalType": "address",
          "name": "_reward",
          "type": "address"
        }
      ],
      "stateMutability": "nonpayable",
      "type": "constructor"
    },
    {
      "inputs": [],
      "name": "OnlyPeriphery",
      "type": "error"
    },
    {
      "inputs": [],
      "name": "TargetNotSupported",
      "type": "error"
    },
    {
      "anonymous": false,
      "inputs": [
        {
          "indexed": true,
          "internalType": "address",
          "name": "oldAdmin",
          "type": "address"
        },
        {
          "indexed": true,
          "internalType": "address",
          "name": "newAdmin",
          "type": "address"
        }
      ],
      "name": "RestrictedAdminChanged",
      "type": "event"
    },
    {
      "anonymous": false,
      "inputs": [
        {
          "indexed": true,
          "internalType": "address",
          "name": "oldRecipient",
          "type": "address"
        },
        {
          "indexed": true,
          "internalType": "address",
          "name": "newRecipient",
          "type": "address"
        }
      ],
      "name": "RewardsRecipientChanged",
      "type": "event"
    },
    {
      "anonymous": false,
      "inputs": [
        {
          "indexed": true,
          "internalType": "address",
          "name": "user",
          "type": "address"
        },
        {
          "indexed": false,
          "internalType": "bool",
          "name": "trusted",
          "type": "bool"
        }
      ],
      "name": "UserTrustUpdated",
      "type": "event"
    },
    {
      "inputs": [],
      "name": "DEFAULT_LEVEL",
      "outputs": [
        {
          "internalType": "uint48",
          "name": "",
          "type": "uint48"
        }
      ],
      "stateMutability": "view",
      "type": "function"
    },
    {
      "inputs": [],
      "name": "ETH_USD_PRICEFEED",
      "outputs": [
        {
          "internalType": "address",
          "name": "",
          "type": "address"
        }
      ],
      "stateMutability": "view",
      "type": "function"
    },
    {
      "inputs": [
        {
          "internalType": "address",
          "name": "_target",
          "type": "address"
        },
        {
          "internalType": "bytes",
          "name": "data",
          "type": "bytes"
        }
      ],
      "name": "deployAdapter",
      "outputs": [
        {
          "internalType": "address",
          "name": "adapter",
          "type": "address"
        }
      ],
      "stateMutability": "nonpayable",
      "type": "function"
    },
    {
      "inputs": [],
      "name": "divider",
      "outputs": [
        {
          "internalType": "address",
          "name": "",
          "type": "address"
        }
      ],
      "stateMutability": "view",
      "type": "function"
    },
    {
      "inputs": [],
      "name": "factoryParams",
      "outputs": [
        {
          "internalType": "address",
          "name": "oracle",
          "type": "address"
        },
        {
          "internalType": "address",
          "name": "stake",
          "type": "address"
        },
        {
          "internalType": "uint256",
          "name": "stakeSize",
          "type": "uint256"
        },
        {
          "internalType": "uint256",
          "name": "minm",
          "type": "uint256"
        },
        {
          "internalType": "uint256",
          "name": "maxm",
          "type": "uint256"
        },
        {
          "internalType": "uint128",
          "name": "ifee",
          "type": "uint128"
        },
        {
          "internalType": "uint16",
          "name": "mode",
          "type": "uint16"
        },
        {
          "internalType": "uint64",
          "name": "tilt",
          "type": "uint64"
        },
        {
          "internalType": "uint256",
          "name": "guard",
          "type": "uint256"
        }
      ],
      "stateMutability": "view",
      "type": "function"
    },
    {
      "inputs": [
        {
          "internalType": "address",
          "name": "",
          "type": "address"
        }
      ],
      "name": "isTrusted",
      "outputs": [
        {
          "internalType": "bool",
          "name": "",
          "type": "bool"
        }
      ],
      "stateMutability": "view",
      "type": "function"
    },
    {
      "inputs": [],
      "name": "restrictedAdmin",
      "outputs": [
        {
          "internalType": "address",
          "name": "",
          "type": "address"
        }
      ],
      "stateMutability": "view",
      "type": "function"
    },
    {
      "inputs": [],
      "name": "reward",
      "outputs": [
        {
          "internalType": "address",
          "name": "",
          "type": "address"
        }
      ],
      "stateMutability": "view",
      "type": "function"
    },
    {
      "inputs": [],
      "name": "rewardsRecipient",
      "outputs": [
        {
          "internalType": "address",
          "name": "",
          "type": "address"
        }
      ],
      "stateMutability": "view",
      "type": "function"
    },
    {
      "inputs": [
        {
          "internalType": "address",
          "name": "user",
          "type": "address"
        },
        {
          "internalType": "bool",
          "name": "trusted",
          "type": "bool"
        }
      ],
      "name": "setIsTrusted",
      "outputs": [],
      "stateMutability": "nonpayable",
      "type": "function"
    },
    {
      "inputs": [
        {
          "internalType": "address",
          "name": "_restrictedAdmin",
          "type": "address"
        }
      ],
      "name": "setRestrictedAdmin",
      "outputs": [],
      "stateMutability": "nonpayable",
      "type": "function"
    },
    {
      "inputs": [
        {
          "internalType": "address",
          "name": "_recipient",
          "type": "address"
        }
      ],
      "name": "setRewardsRecipient",
      "outputs": [],
      "stateMutability": "nonpayable",
      "type": "function"
    },
    {
      "inputs": [
        {
          "internalType": "address",
          "name": "_target",
          "type": "address"
        },
        {
          "internalType": "bool",
          "name": "status",
          "type": "bool"
        }
      ],
      "name": "supportTarget",
      "outputs": [],
      "stateMutability": "nonpayable",
      "type": "function"
    },
    {
      "inputs": [
        {
          "internalType": "address",
          "name": "",
          "type": "address"
        }
      ],
      "name": "targets",
      "outputs": [
        {
          "internalType": "bool",
          "name": "",
          "type": "bool"
        }
      ],
      "stateMutability": "view",
      "type": "function"
    }
  ],
  "transactionHash": "0xebde9d223f29a173c7afa52d70cf68cfcd28af5ab6803a0302ba020b04326bc7",
  "args": [
    "0x09B10E45A912BcD4E80a8A3119f0cfCcad1e1f12",
    "0xf13519734649f7464e5be4aa91987a35594b2b16",
    "0xf13519734649f7464e5be4aa91987a35594b2b16",
    [
      "0xB3e70779c1d1f2637483A02f1446b211fe4183Fa",
      "0xC027849ac78202A17A872021Bd0271DA5df04168",
      "50000000000000000",
      0,
      "315576000",
      "1000000000000000",
      1,
      0,
      "100000000000000000000000"
    ],
    "0x59DB5BaddEa0E6660cAD350E69451ECDC5Bff070"
  ],
  "numDeployments": 2,
  "solcInputHash": "0073b424a71bd7735ea7e320ed127bee",
  "bytecode": "0x60a06040523480156200001157600080fd5b50604051620040fb380380620040fb83398101604081905262000034916200022d565b3360008181526020818152604091829020805460ff19166001908117909155915191825287928792879287928792879287928792879282917fe95aec380cae16330d146d5499ef7db6f3657e477104a733e771bc09e500d986910160405180910390a2506001600160a01b039384166080908152600180549486166001600160a01b03199586161790556002805493861693851693909317909255805160038054918616918516919091179055602081015160048054918616918516919091179055604081015160055560608101516006559081015160075560a08101516008805460c084015160e08501516001600160401b0316600160901b02600160901b600160d01b031961ffff909216600160801b026001600160901b03199093166001600160801b039095169490941791909117169190911790556101000151600955600a8054939092169216919091179055506200033a975050505050505050565b80516001600160a01b0381168114620001ad57600080fd5b919050565b60405161012081016001600160401b0381118282101715620001e457634e487b7160e01b600052604160045260246000fd5b60405290565b80516001600160801b0381168114620001ad57600080fd5b805161ffff81168114620001ad57600080fd5b80516001600160401b0381168114620001ad57600080fd5b60008060008060008587036101a08112156200024857600080fd5b620002538762000195565b9550620002636020880162000195565b9450620002736040880162000195565b935061012080605f19830112156200028a57600080fd5b62000294620001b2565b9150620002a46060890162000195565b8252620002b46080890162000195565b602083015260a0880151604083015260c0880151606083015260e08801516080830152610100620002e7818a01620001ea565b60a0840152620002f9828a0162000202565b60c08401526200030d6101408a0162000215565b60e0840152610160890151908301525091506200032e610180870162000195565b90509295509295909350565b608051613d89620003726000396000818161017d0152818161051f015281816106500152818161074001526107f00152613d896000f3fe60806040523480156200001157600080fd5b5060043610620000fd5760003560e01c8063562c47841162000097578063bbe451d5116200006e578063bbe451d51462000250578063cac0e3c2146200030e578063f67359ea146200034a578063ff2a7d30146200036157600080fd5b8063562c478414620001d257806393d4750c146200020957806396d64879146200022a57600080fd5b8063228cb73311620000d8578063228cb7331462000163578063378efa3714620001775780633cad2dcd146200019f57806340cc63e114620001b657600080fd5b80630c1b797914620001025780631393916a14620001335780631a54259c146200014c575b600080fd5b60015462000116906001600160a01b031681565b6040516001600160a01b0390911681526020015b60405180910390f35b6200014a62000144366004620009ab565b62000375565b005b6200014a6200015d366004620009e9565b62000423565b600a5462000116906001600160a01b031681565b620001167f000000000000000000000000000000000000000000000000000000000000000081565b62000116620001b036600462000a26565b620004d9565b62000116735f4ec3df9cbd43714fe2740f5e3616155c5b841981565b620001f8620001e3366004620009e9565b600b6020526000908152604090205460ff1681565b60405190151581526020016200012a565b62000212601f81565b60405165ffffffffffff90911681526020016200012a565b620001f86200023b366004620009e9565b60006020819052908152604090205460ff1681565b600354600454600554600654600754600854600954620002a7966001600160a01b039081169616949392916001600160801b03811691600160801b820461ffff1691600160901b900467ffffffffffffffff169089565b604080516001600160a01b039a8b1681529990981660208a015296880195909552606087019390935260808601919091526001600160801b031660a085015261ffff1660c084015267ffffffffffffffff1660e0830152610100820152610120016200012a565b6200014a6200031f366004620009ab565b6001600160a01b03919091166000908152600b60205260409020805460ff1916911515919091179055565b6200014a6200035b366004620009e9565b620008bf565b60025462000116906001600160a01b031681565b3360009081526020819052604090205460ff16620003c65760405162461bcd60e51b8152602060048201526009602482015268155395149554d5115160ba1b60448201526064015b60405180910390fd5b6001600160a01b03821660008181526020818152604091829020805460ff191685151590811790915591519182527fe95aec380cae16330d146d5499ef7db6f3657e477104a733e771bc09e500d986910160405180910390a25050565b3360009081526020819052604090205460ff16620004705760405162461bcd60e51b8152602060048201526009602482015268155395149554d5115160ba1b6044820152606401620003bd565b6002546040516001600160a01b038084169216907f952c654458751f95c1440bdb1537809137b3de28466b80ad096a711707ae987a90600090a36002805473ffffffffffffffffffffffffffffffffffffffff19166001600160a01b0392909216919091179055565b6001600160a01b0382166000908152600b602052604081205460ff166200051357604051635154a56760e11b815260040160405180910390fd5b336001600160a01b03167f00000000000000000000000000000000000000000000000000000000000000006001600160a01b03166377aace1a6040518163ffffffff1660e01b8152600401602060405180830381865afa1580156200057c573d6000803e3d6000fd5b505050506040513d601f19601f82011682018060405250810190620005a2919062000af6565b6001600160a01b031614620005ca5760405163fb02114960e01b815260040160405180910390fd5b60408051610100810182526003546001600160a01b039081168252600454166020820152600554918101919091526006546060808301919091526007546080830152600854600160901b810467ffffffffffffffff1660a0840152601f60c0840152600160801b900461ffff1660e083015284901b6bffffffffffffffffffffffff19167f000000000000000000000000000000000000000000000000000000000000000085866001600160a01b03166338d52e0f6040518163ffffffff1660e01b8152600401602060405180830381865afa158015620006af573d6000803e3d6000fd5b505050506040513d601f19601f82011682018060405250810190620006d5919062000af6565b600254600854600a546040516001600160a01b03938416936001600160801b039093169289921690620007089062000975565b6200071a979695949392919062000b16565b8190604051809103906000f59050801580156200073b573d6000803e3d6000fd5b5091507f00000000000000000000000000000000000000000000000000000000000000006001600160a01b03166372f7a0306040518163ffffffff1660e01b8152600401602060405180830381865afa1580156200079d573d6000803e3d6000fd5b505050506040513d601f19601f82011682018060405250810190620007c3919062000be7565b156200084f57604051632fd0660560e11b81526001600160a01b03838116600483015260001960248301527f00000000000000000000000000000000000000000000000000000000000000001690635fa0cc0a90604401600060405180830381600087803b1580156200083557600080fd5b505af11580156200084a573d6000803e3d6000fd5b505050505b600180546040516309c9c8b560e11b81526001600160a01b0391821660048201526024810192909252831690631393916a90604401600060405180830381600087803b1580156200089f57600080fd5b505af1158015620008b4573d6000803e3d6000fd5b505050505092915050565b3360009081526020819052604090205460ff166200090c5760405162461bcd60e51b8152602060048201526009602482015268155395149554d5115160ba1b6044820152606401620003bd565b6001546040516001600160a01b038084169216907fb656925e78f8f28c65d9357077dfd5d3d0056d5eac98c8c1a1e0b426ffd43d4a90600090a36001805473ffffffffffffffffffffffffffffffffffffffff19166001600160a01b0392909216919091179055565b61314c8062000c0883390190565b6001600160a01b03811681146200099957600080fd5b50565b80151581146200099957600080fd5b60008060408385031215620009bf57600080fd5b8235620009cc8162000983565b91506020830135620009de816200099c565b809150509250929050565b600060208284031215620009fc57600080fd5b813562000a098162000983565b9392505050565b634e487b7160e01b600052604160045260246000fd5b6000806040838503121562000a3a57600080fd5b823562000a478162000983565b9150602083013567ffffffffffffffff8082111562000a6557600080fd5b818501915085601f83011262000a7a57600080fd5b81358181111562000a8f5762000a8f62000a10565b604051601f8201601f19908116603f0116810190838211818310171562000aba5762000aba62000a10565b8160405282815288602084870101111562000ad457600080fd5b8260208601602083013760006020848301015280955050505050509250929050565b60006020828403121562000b0957600080fd5b815162000a098162000983565b60006101c0820190506001600160a01b03808a1683528089166020840152808816604084015280871660608401526001600160801b03861660808401528085511660a08401528060208601511660c084015250604084015160e08301526060840151610100830152608084015161012083015267ffffffffffffffff60a08501511661014083015260c084015162000bb961016084018265ffffffffffff169052565b5060e084015161ffff8116610180840152506001600160a01b0383166101a083015298975050505050505050565b60006020828403121562000bfa57600080fd5b815162000a09816200099c56fe6101406040523480156200001257600080fd5b506040516200314c3803806200314c8339810160408190526200003591620006e1565b8681888887878782338686876001600160a01b03166338d52e0f6040518163ffffffff1660e01b8152600401602060405180830381865afa1580156200007f573d6000803e3d6000fd5b505050506040513d601f19601f82011682018060405250810190620000a5919062000823565b6001600160a01b03808416608090815283821660a081815284841660c09081526001600160801b038c1660e09081528b51600080549188166001600160a01b031992831617815560208e015160018054919099169216919091179096556040808d015160025560608d0151600355948c01516004908155928c015160058054938e0151928e015161ffff16600160701b0261ffff60701b1965ffffffffffff90941668010000000000000000026001600160701b03199095166001600160401b0390931692909217939093179190911617905582516306fdde0360e01b815292518b948b946306fdde039381810193918290030181865afa158015620001af573d6000803e3d6000fd5b505050506040513d6000823e601f3d908101601f19168201604052620001d9919081019062000879565b604051602001620001eb919062000931565b604051602081830303815290604052600690816200020a9190620009ee565b50836001600160a01b03166395d89b416040518163ffffffff1660e01b8152600401600060405180830381865afa1580156200024a573d6000803e3d6000fd5b505050506040513d6000823e601f3d908101601f1916820160405262000274919081019062000879565b60405160200162000286919062000aba565b60405160208183030381529060405260079081620002a59190620009ee565b50620002cf608051600019866001600160a01b0316620004fd60201b62001702179092919060201c565b620002fc60805160001983602001516001600160a01b0316620004fd60201b62001702179092919060201c565b505050506001600160a01b038216600081815260086020908152604091829020805460ff1916600190811790915591519182529192507fe95aec380cae16330d146d5499ef7db6f3657e477104a733e771bc09e500d986910160405180910390a25080600960006101000a8154816001600160a01b0302191690836001600160a01b031602179055505060a0516001600160a01b031663313ce5676040518163ffffffff1660e01b8152600401602060405180830381865afa158015620003c7573d6000803e3d6000fd5b505050506040513d601f19601f82011682018060405250810190620003ed919062000ae8565b620003fa90600a62000c22565b610100818152505060c0516001600160a01b031663313ce5676040518163ffffffff1660e01b8152600401602060405180830381865afa15801562000443573d6000803e3d6000fd5b505050506040513d601f19601f8201168201806040525081019062000469919062000ae8565b6200047690601262000c33565b6200048390600a62000c22565b6101208181525050620004b660a05160001960c0516001600160a01b0316620004fd60201b62001702179092919060201c565b5050505050620004ce8260016200058660201b60201c565b600b80546001600160a01b0319166001600160a01b03929092169190911790555062000c599650505050505050565b600060405163095ea7b360e01b6000528360045282602452602060006044600080895af13d15601f3d1160016000511416171691506000606052806040525080620005805760405162461bcd60e51b815260206004820152600e60248201526d1054141493d59157d1905253115160921b60448201526064015b60405180910390fd5b50505050565b3360009081526008602052604090205460ff16620005d35760405162461bcd60e51b8152602060048201526009602482015268155395149554d5115160ba1b604482015260640162000577565b6001600160a01b038216600081815260086020908152604091829020805460ff191685151590811790915591519182527fe95aec380cae16330d146d5499ef7db6f3657e477104a733e771bc09e500d986910160405180910390a25050565b6001600160a01b03811681146200064857600080fd5b50565b8051620006588162000632565b919050565b634e487b7160e01b600052604160045260246000fd5b60405161010081016001600160401b03811182821017156200069957620006996200065d565b60405290565b80516001600160401b03811681146200065857600080fd5b805165ffffffffffff811681146200065857600080fd5b805161ffff811681146200065857600080fd5b60008060008060008060008789036101c0811215620006ff57600080fd5b88516200070c8162000632565b60208a01519098506200071f8162000632565b60408a0151909750620007328162000632565b60608a0151909650620007458162000632565b60808a01519095506001600160801b03811681146200076357600080fd5b9350610100609f1982018113156200077a57600080fd5b6200078462000673565b915060a08a0151620007968162000632565b8252620007a660c08b016200064b565b602083015260e08a0151604083015289015160608201526101208901516080820152620007d76101408a016200069f565b60a0820152620007eb6101608a01620006b7565b60c0820152620007ff6101808a01620006ce565b60e08201529150620008156101a089016200064b565b905092959891949750929550565b6000602082840312156200083657600080fd5b8151620008438162000632565b9392505050565b60005b83811015620008675781810151838201526020016200084d565b83811115620005805750506000910152565b6000602082840312156200088c57600080fd5b81516001600160401b0380821115620008a457600080fd5b818401915084601f830112620008b957600080fd5b815181811115620008ce57620008ce6200065d565b604051601f8201601f19908116603f01168101908382118183101715620008f957620008f96200065d565b816040528281528760208487010111156200091357600080fd5b620009268360208301602088016200084a565b979650505050505050565b60008251620009458184602087016200084a565b671020b230b83a32b960c11b920191825250600801919050565b600181811c908216806200097457607f821691505b6020821081036200099557634e487b7160e01b600052602260045260246000fd5b50919050565b601f821115620009e957600081815260208120601f850160051c81016020861015620009c45750805b601f850160051c820191505b81811015620009e557828155600101620009d0565b5050505b505050565b81516001600160401b0381111562000a0a5762000a0a6200065d565b62000a228162000a1b84546200095f565b846200099b565b602080601f83116001811462000a5a576000841562000a415750858301515b600019600386901b1c1916600185901b178555620009e5565b600085815260208120601f198616915b8281101562000a8b5788860151825594840194600190910190840162000a6a565b508582101562000aaa5787850151600019600388901b60f8161c191681555b5050505050600190811b01905550565b6000825162000ace8184602087016200084a565b6716b0b230b83a32b960c11b920191825250600801919050565b60006020828403121562000afb57600080fd5b815160ff811681146200084357600080fd5b634e487b7160e01b600052601160045260246000fd5b600181815b8085111562000b6457816000190482111562000b485762000b4862000b0d565b8085161562000b5657918102915b93841c939080029062000b28565b509250929050565b60008262000b7d5750600162000c1c565b8162000b8c5750600062000c1c565b816001811462000ba5576002811462000bb05762000bd0565b600191505062000c1c565b60ff84111562000bc45762000bc462000b0d565b50506001821b62000c1c565b5060208310610133831016604e8410600b841016171562000bf5575081810a62000c1c565b62000c01838362000b23565b806000190482111562000c185762000c1862000b0d565b0290505b92915050565b60006200084360ff84168362000b6c565b600060ff821660ff84168082101562000c505762000c5062000b0d565b90039392505050565b60805160a05160c05160e051610100516101205161243362000d196000396000818161072b0152610a280152600081816106f1015281816109ff01526114ae0152600061068e0152600081816105ca01528181610ae70152610b8f0152600081816104770152818161078501528181610a5201528181610bd301528181610c75015281816111b401528181611204015281816112c6015281816114e3015281816116a90152611acc0152600081816104e5015261110001526124336000f3fe608060405234801561001057600080fd5b50600436106102cf5760003560e01c80636b0706ed1161018c578063c5c108c7116100ee578063d4b8399211610097578063f51e181a11610071578063f51e181a14610430578063f60c05ce146107c3578063ff2a7d30146107de57600080fd5b8063d4b8399214610780578063d9d98ce4146107a7578063da4ca413146107ba57600080fd5b8063ce4b5bbe116100c8578063ce4b5bbe14610726578063d01c6f291461074d578063d379be231461076d57600080fd5b8063c5c108c7146106e3578063cce59386146106ec578063cdfb58321461071357600080fd5b80638aee812711610150578063b484972a1161012a578063b484972a14610676578063b8c15a9f14610689578063c39a3b29146106d157600080fd5b80638aee81271461063857806395d89b411461064b57806396d648791461065357600080fd5b80636b0706ed146105bd5780636f307dc3146105c55780636fd5ae15146105ec57806375b2cda8146106085780638237e5381461061157600080fd5b806329a436081161023557806351c39ea1116101f9578063608c44d6116101d3578063608c44d61461057b578063613255ab1461058e57806364c56e3c146105a157600080fd5b806351c39ea114610542578063572acb9f146105555780635cffe9de1461056857600080fd5b806329a43608146104c0578063378efa37146104e0578063379f53e314610507578063468f02d2146105275780634aae9fed1461052f57600080fd5b806314282f5811610297578063228cb73311610271578063228cb7331461043857806327b327d014610463578063295a5212146104ad57600080fd5b806314282f581461040a5780631a54259c1461041d578063226778491461043057600080fd5b806303314efa146102d457806306fdde03146102f0578063083118d5146103055780630e122423146103b75780631393916a146103f5575b600080fd5b6102dd600c5481565b6040519081526020015b60405180910390f35b6102f86107f1565b6040516102e79190611fa1565b60005460015460025460035460045460055461035b956001600160a01b0390811695169392919067ffffffffffffffff81169068010000000000000000810465ffffffffffff1690600160701b900461ffff1688565b604080516001600160a01b03998a168152989097166020890152958701949094526060860192909252608085015267ffffffffffffffff1660a084015265ffffffffffff1660c083015261ffff1660e0820152610100016102e7565b6103e56103c536600461200e565b601260209081526000928352604080842090915290825290205460ff1681565b60405190151581526020016102e7565b610408610403366004612048565b61087f565b005b610408610418366004612081565b61092e565b61040861042b3660046120b3565b610949565b6102dd6109f0565b600b5461044b906001600160a01b031681565b6040516001600160a01b0390911681526020016102e7565b600154600254604080516001600160a01b037f00000000000000000000000000000000000000000000000000000000000000008116825290931660208401528201526060016102e7565b600554600160701b900461ffff166102dd565b6102dd6104ce3660046120b3565b600f6020526000908152604090205481565b61044b7f000000000000000000000000000000000000000000000000000000000000000081565b6102dd6105153660046120b3565b60106020526000908152604090205481565b6102dd610acc565b6102dd61053d3660046120d0565b610b80565b6102dd6105503660046120d0565b610c4f565b610408610563366004612135565b610cac565b6103e56105763660046121a1565b6110f2565b6104086105893660046120b3565b6112fb565b6102dd61059c3660046120b3565b611458565b6003546004545b604080519283526020830191909152016102e7565b6105a861149f565b61044b7f000000000000000000000000000000000000000000000000000000000000000081565b60055468010000000000000000900465ffffffffffff166102dd565b6102dd60135481565b6102dd7f439148f0bbc682ca079e46d6e2c2f0c1e3b820f1a291b069d8882abf8cf18dd981565b6104086106463660046120b3565b611556565b6102f86115f3565b6103e56106613660046120b3565b60086020526000908152604090205460ff1681565b610408610684366004612240565b611600565b6106b07f000000000000000000000000000000000000000000000000000000000000000081565b6040516fffffffffffffffffffffffffffffffff90911681526020016102e7565b60055467ffffffffffffffff166102dd565b6102dd600d5481565b6102dd7f000000000000000000000000000000000000000000000000000000000000000081565b6104086107213660046120b3565b611610565b6102dd7f000000000000000000000000000000000000000000000000000000000000000081565b6102dd61075b3660046120b3565b60116020526000908152604090205481565b600a5461044b906001600160a01b031681565b61044b7f000000000000000000000000000000000000000000000000000000000000000081565b6102dd6107b536600461200e565b6116a5565b6102dd600e5481565b61044b731887118e49e0f4a78bd71b792a49de03504a764d81565b60095461044b906001600160a01b031681565b600680546107fe90612282565b80601f016020809104026020016040519081016040528092919081815260200182805461082a90612282565b80156108775780601f1061084c57610100808354040283529160200191610877565b820191906000526020600020905b81548152906001019060200180831161085a57829003601f168201915b505050505081565b3360009081526008602052604090205460ff166108cf5760405162461bcd60e51b8152602060048201526009602482015268155395149554d5115160ba1b60448201526064015b60405180910390fd5b6001600160a01b038216600081815260086020908152604091829020805460ff191685151590811790915591519182527fe95aec380cae16330d146d5499ef7db6f3657e477104a733e771bc09e500d986910160405180910390a25050565b6013805490600061093e836122d2565b919050555050505050565b3360009081526008602052604090205460ff166109945760405162461bcd60e51b8152602060048201526009602482015268155395149554d5115160ba1b60448201526064016108c6565b6009546040516001600160a01b038084169216907f952c654458751f95c1440bdb1537809137b3de28466b80ad096a711707ae987a90600090a3600980546001600160a01b0319166001600160a01b0392909216919091179055565b6040516303d1689d60e11b81527f000000000000000000000000000000000000000000000000000000000000000060048201526000907f0000000000000000000000000000000000000000000000000000000000000000906001600160a01b037f000000000000000000000000000000000000000000000000000000000000000016906307a2d13a90602401602060405180830381865afa158015610a99573d6000803e3d6000fd5b505050506040513d601f19601f82011682018060405250810190610abd91906122eb565b610ac79190612304565b905090565b600080546040516315d5220f60e31b81526001600160a01b037f0000000000000000000000000000000000000000000000000000000000000000811660048301529091169063aea9107890602401602060405180830381865afa158015610b37573d6000803e3d6000fd5b505050506040513d601f19601f82011682018060405250810190610b5b91906122eb565b905080600003610b7d5760405162bfc92160e01b815260040160405180910390fd5b90565b6000610bb76001600160a01b037f000000000000000000000000000000000000000000000000000000000000000016333085611794565b604051636e553f6560e01b8152600481018390523360248201527f00000000000000000000000000000000000000000000000000000000000000006001600160a01b031690636e553f65906044015b6020604051808303816000875af1158015610c25573d6000803e3d6000fd5b505050506040513d601f19601f82011682018060405250810190610c4991906122eb565b92915050565b604051635d043b2960e11b815260048101829052336024820181905260448201526000907f00000000000000000000000000000000000000000000000000000000000000006001600160a01b03169063ba08765290606401610c06565b6000306001600160a01b031663378efa376040518163ffffffff1660e01b8152600401602060405180830381865afa158015610cec573d6000803e3d6000fd5b505050506040513d601f19601f82011682018060405250810190610d109190612323565b905060005b828110156110ea5760005b858110156110d7576000878783818110610d3c57610d3c612340565b9050602002016020810190610d5191906120b3565b90506000846001600160a01b031663574e779530898988818110610d7757610d77612340565b6040516001600160e01b031960e087901b1681526001600160a01b0390941660048501526020029190910135602483015250604401602060405180830381865afa158015610dc9573d6000803e3d6000fd5b505050506040513d601f19601f82011682018060405250810190610ded9190612323565b6040516370a0823160e01b81526001600160a01b03848116600483015291909116906370a0823190602401602060405180830381865afa158015610e35573d6000803e3d6000fd5b505050506040513d601f19601f82011682018060405250810190610e5991906122eb565b905042878786818110610e6e57610e6e612340565b9050602002013511158015610e835750600081115b8015610ed457506001600160a01b038216600090815260126020526040812090888887818110610eb557610eb5612340565b602090810292909201358352508101919091526040016000205460ff16155b156110c257610ee28261182b565b6000610f90866001600160a01b0316632f9cd854308b8b8a818110610f0957610f09612340565b6040516001600160e01b031960e087901b1681526001600160a01b039485166004820152602090910292909201356024830152509087166044820152606401602060405180830381865afa158015610f65573d6000803e3d6000fd5b505050506040513d601f19601f82011682018060405250810190610f8991906122eb565b8390611a20565b905080600e6000828254610fa49190612356565b90915550506001600160a01b0383166000908152600f602052604081208054839290610fd1908490612356565b90915550506001600160a01b03831660009081526011602052604081208054839290610ffe90849061236d565b90915550506001600160a01b03831660009081526012602052604081206001918a8a8981811061103057611030612340565b90506020020135815260200190815260200160002060006101000a81548160ff021916908315150217905550826001600160a01b03167f5758e413a9bfd3ec45a67abaa9ee2396cab143a505332bf7ab48c0e624b65f11828a8a8981811061109a5761109a612340565b905060200201356040516110b8929190918252602082015260400190565b60405180910390a2505b505080806110cf906122d2565b915050610d20565b50806110e2816122d2565b915050610d15565b505050505050565b6000336001600160a01b03167f00000000000000000000000000000000000000000000000000000000000000006001600160a01b03166377aace1a6040518163ffffffff1660e01b8152600401602060405180830381865afa15801561115c573d6000803e3d6000fd5b505050506040513d601f19601f820116820180604052508101906111809190612323565b6001600160a01b0316146111a75760405163fb02114960e01b815260040160405180910390fd5b6111db6001600160a01b037f0000000000000000000000000000000000000000000000000000000000000000168786611a3c565b6040516323e30c8b60e01b81526000906001600160a01b038816906323e30c8b906112349033907f0000000000000000000000000000000000000000000000000000000000000000908a9087908b908b90600401612385565b6020604051808303816000875af1158015611253573d6000803e3d6000fd5b505050506040513d601f19601f8201168201806040525081019061127791906122eb565b90507f439148f0bbc682ca079e46d6e2c2f0c1e3b820f1a291b069d8882abf8cf18dd981146112b95760405163081f7c8760e21b815260040160405180910390fd5b6112ee6001600160a01b037f000000000000000000000000000000000000000000000000000000000000000016883088611794565b5060019695505050505050565b61130481611ac8565b61132157604051633dd1b30560e01b815260040160405180910390fd5b6040516370a0823160e01b815230600482015281906000906001600160a01b038316906370a0823190602401602060405180830381865afa15801561136a573d6000803e3d6000fd5b505050506040513d601f19601f8201168201806040525081019061138e91906122eb565b6009546040516370a0823160e01b8152306004820152919250611415916001600160a01b03918216918516906370a0823190602401602060405180830381865afa1580156113e0573d6000803e3d6000fd5b505050506040513d601f19601f8201168201806040525081019061140491906122eb565b6001600160a01b0385169190611a3c565b60095460405182916001600160a01b0390811691908616907f9310ccfcb8de723f578a9e4282ea9f521f05ae40dc08f3068dfad528a65ee3c790600090a4505050565b6040516370a0823160e01b81523060048201526000906001600160a01b038316906370a0823190602401602060405180830381865afa158015610c25573d6000803e3d6000fd5b6040516303d1689d60e11b81527f00000000000000000000000000000000000000000000000000000000000000006004820152600090819081906001600160a01b037f000000000000000000000000000000000000000000000000000000000000000016906307a2d13a90602401602060405180830381865afa15801561152a573d6000803e3d6000fd5b505050506040513d601f19601f8201168201806040525081019061154e91906122eb565b915091509091565b3360009081526008602052604090205460ff166115a15760405162461bcd60e51b8152602060048201526009602482015268155395149554d5115160ba1b60448201526064016108c6565b6115a9611b37565b600b80546001600160a01b0319166001600160a01b0383169081179091556040517fb74d956cf6ec7842d08ebf0ab19ec03a88c1efd4a50ea4349d30f9c4ce512e9890600090a250565b600780546107fe90612282565b61160b838383611d90565b505050565b3360009081526008602052604090205460ff1661165b5760405162461bcd60e51b8152602060048201526009602482015268155395149554d5115160ba1b60448201526064016108c6565b600a80546001600160a01b0319166001600160a01b0383169081179091556040517f70e1f29a97aa858ce785e48a42e40cd51020a45c8a2e4520272a6303585916a990600090a250565b60007f00000000000000000000000000000000000000000000000000000000000000006001600160a01b0316836001600160a01b0316146116f957604051633dd1b30560e01b815260040160405180910390fd5b50600092915050565b600060405163095ea7b360e01b6000528360045282602452602060006044600080895af13d15601f3d116001600051141617169150600060605280604052508061178e5760405162461bcd60e51b815260206004820152600e60248201527f415050524f56455f4641494c454400000000000000000000000000000000000060448201526064016108c6565b50505050565b60006040516323b872dd60e01b6000528460045283602452826044526020600060646000808a5af13d15601f3d11600160005114161716915060006060528060405250806118245760405162461bcd60e51b815260206004820152601460248201527f5452414e534645525f46524f4d5f4641494c454400000000000000000000000060448201526064016108c6565b5050505050565b611833611b37565b600d54600b546040516370a0823160e01b8152306004820152600092916001600160a01b0316906370a0823190602401602060405180830381865afa158015611880573d6000803e3d6000fd5b505050506040513d601f19601f820116820180604052508101906118a491906122eb565b6118ae9190612356565b600e54909150156118eb57600e546118d49082906b033b2e3c9fd0803ce8000000611f2e565b600c60008282546118e5919061236d565b90915550505b6001600160a01b038216600090815260106020908152604080832054600c54600f9093529083205490929161192d91906b033b2e3c9fd0803ce8000000611f43565b90508181111561195057600b54611950906001600160a01b031685848403611a3c565b600b546040516370a0823160e01b81523060048201526001600160a01b03909116906370a0823190602401602060405180830381865afa158015611998573d6000803e3d6000fd5b505050506040513d601f19601f820116820180604052508101906119bc91906122eb565b600d55600b546001600160a01b039081169085167fad4a9acf26d8bba7a8cf1a41160d59be042ee554578e256c98d2ab74cdd435428484116119ff576000611a09565b611a098585612356565b60405190815260200160405180910390a350505050565b6000611a3583670de0b6b3a764000084611f4c565b9392505050565b600060405163a9059cbb60e01b6000528360045282602452602060006044600080895af13d15601f3d116001600051141617169150600060605280604052508061178e5760405162461bcd60e51b815260206004820152600f60248201527f5452414e534645525f4641494c4544000000000000000000000000000000000060448201526064016108c6565b60007f00000000000000000000000000000000000000000000000000000000000000006001600160a01b0316826001600160a01b031614158015611b1a57506001546001600160a01b03838116911614155b8015610c49575050600b546001600160a01b039081169116141590565b600a546001600160a01b031615611d8e576000306001600160a01b031663d4b839926040518163ffffffff1660e01b8152600401602060405180830381865afa158015611b88573d6000803e3d6000fd5b505050506040513d601f19601f82011682018060405250810190611bac9190612323565b6040516370a0823160e01b81523060048201529091506000906001600160a01b038316906370a0823190602401602060405180830381865afa158015611bf6573d6000803e3d6000fd5b505050506040513d601f19601f82011682018060405250810190611c1a91906122eb565b90508015611d8b57600a5460405163a9059cbb60e01b81526001600160a01b039182166004820152602481018390529083169063a9059cbb906044016020604051808303816000875af1158015611c75573d6000803e3d6000fd5b505050506040513d601f19601f82011682018060405250810190611c9991906123e0565b50600a60009054906101000a90046001600160a01b03166001600160a01b0316634e71d92d6040518163ffffffff1660e01b8152600401600060405180830381600087803b158015611cea57600080fd5b505af1158015611cfe573d6000803e3d6000fd5b50506040516370a0823160e01b81523060048201528392506001600160a01b03851691506370a0823190602401602060405180830381865afa158015611d48573d6000803e3d6000fd5b505050506040513d601f19601f82011682018060405250810190611d6c91906122eb565b1015611d8b576040516341ac6b7d60e01b815260040160405180910390fd5b50505b565b3360009081526008602052604090205460ff16611ddb5760405162461bcd60e51b8152602060048201526009602482015268155395149554d5115160ba1b60448201526064016108c6565b611de48361182b565b8115611edb578015611e3a5781600e6000828254611e02919061236d565b90915550506001600160a01b0383166000908152600f602052604081208054849290611e2f90849061236d565b90915550611edb9050565b6001600160a01b0383166000908152601160205260409020548015611e8e5780831015611e6b576000929003611e72565b9091039060005b6001600160a01b03841660009081526011602052604090208190555b8215611ed95782600e6000828254611ea69190612356565b90915550506001600160a01b0384166000908152600f602052604081208054859290611ed3908490612356565b90915550505b505b600c546001600160a01b0384166000908152600f6020526040902054611f0d916b033b2e3c9fd0803ce8000000611f6b565b6001600160a01b039093166000908152601060205260409020929092555050565b6000611f3b848385611f4c565b949350505050565b6000611f3b8484845b828202811515841585830485141716611f6457600080fd5b0492915050565b6000611f3b848484828202811515841585830485141716611f8b57600080fd5b6001826001830304018115150290509392505050565b600060208083528351808285015260005b81811015611fce57858101830151858201604001528201611fb2565b81811115611fe0576000604083870101525b50601f01601f1916929092016040019392505050565b6001600160a01b038116811461200b57600080fd5b50565b6000806040838503121561202157600080fd5b823561202c81611ff6565b946020939093013593505050565b801515811461200b57600080fd5b6000806040838503121561205b57600080fd5b823561206681611ff6565b915060208301356120768161203a565b809150509250929050565b6000806000806080858703121561209757600080fd5b5050823594602084013594506040840135936060013592509050565b6000602082840312156120c557600080fd5b8135611a3581611ff6565b6000602082840312156120e257600080fd5b5035919050565b60008083601f8401126120fb57600080fd5b50813567ffffffffffffffff81111561211357600080fd5b6020830191508360208260051b850101111561212e57600080fd5b9250929050565b6000806000806040858703121561214b57600080fd5b843567ffffffffffffffff8082111561216357600080fd5b61216f888389016120e9565b9096509450602087013591508082111561218857600080fd5b50612195878288016120e9565b95989497509550505050565b6000806000806000608086880312156121b957600080fd5b85356121c481611ff6565b945060208601356121d481611ff6565b935060408601359250606086013567ffffffffffffffff808211156121f857600080fd5b818801915088601f83011261220c57600080fd5b81358181111561221b57600080fd5b89602082850101111561222d57600080fd5b9699959850939650602001949392505050565b60008060006060848603121561225557600080fd5b833561226081611ff6565b92506020840135915060408401356122778161203a565b809150509250925092565b600181811c9082168061229657607f821691505b6020821081036122b657634e487b7160e01b600052602260045260246000fd5b50919050565b634e487b7160e01b600052601160045260246000fd5b6000600182016122e4576122e46122bc565b5060010190565b6000602082840312156122fd57600080fd5b5051919050565b600081600019048311821515161561231e5761231e6122bc565b500290565b60006020828403121561233557600080fd5b8151611a3581611ff6565b634e487b7160e01b600052603260045260246000fd5b600082821015612368576123686122bc565b500390565b60008219821115612380576123806122bc565b500190565b60006001600160a01b03808916835280881660208401525085604083015284606083015260a060808301528260a0830152828460c0840137600060c0848401015260c0601f19601f8501168301019050979650505050505050565b6000602082840312156123f257600080fd5b8151611a358161203a56fea2646970667358221220d2cede741f5970b95fa08e5291c579a4871b5914bc85c7c4263624557b49b2c864736f6c634300080f0033a264697066735822122071ff81bb5e82b955dbd0151294df6b5cbe5973de3fe13e32e71de824c561446664736f6c634300080f0033",
  "devdoc": {
    "kind": "dev",
    "methods": {
      "setRewardsRecipient(address)": {
        "details": "existing adapters rewards recipients will not be changed and can be done through `setRewardsRecipient` on each adapter contract"
      }
    },
    "version": 1
  },
  "userdoc": {
    "kind": "user",
    "methods": {
      "DEFAULT_LEVEL()": {
        "notice": "Sets level to `31` by default, which keeps all Divider lifecycle methods public (`issue`, `combine`, `collect`, etc), but not the `onRedeem` hook."
      },
      "divider()": {
        "notice": "Sense core Divider address"
      },
      "factoryParams()": {
        "notice": "params for adapters deployed with this factory"
      },
      "restrictedAdmin()": {
        "notice": "Adapter admin address"
      },
      "rewardsRecipient()": {
        "notice": "Rewards recipient"
      },
      "setRewardsRecipient(address)": {
        "notice": "Set factory rewards recipientall future deployed adapters will have the new rewards recipient"
      }
    },
    "version": 1
  },
  "storageLayout": {
    "storage": [
      {
        "astId": 21392,
        "contract": "@sense-finance/v1-core/src/tests/test-helpers/mocks/MockFactory.sol:Mock4626CropFactory",
        "label": "isTrusted",
        "offset": 0,
        "slot": "0",
        "type": "t_mapping(t_address,t_bool)"
      },
      {
        "astId": 10654,
        "contract": "@sense-finance/v1-core/src/tests/test-helpers/mocks/MockFactory.sol:Mock4626CropFactory",
        "label": "restrictedAdmin",
        "offset": 0,
        "slot": "1",
        "type": "t_address"
      },
      {
        "astId": 10657,
        "contract": "@sense-finance/v1-core/src/tests/test-helpers/mocks/MockFactory.sol:Mock4626CropFactory",
        "label": "rewardsRecipient",
        "offset": 0,
        "slot": "2",
        "type": "t_address"
      },
      {
        "astId": 10661,
        "contract": "@sense-finance/v1-core/src/tests/test-helpers/mocks/MockFactory.sol:Mock4626CropFactory",
        "label": "factoryParams",
        "offset": 0,
        "slot": "3",
        "type": "t_struct(FactoryParams)10680_storage"
      },
      {
        "astId": 10877,
        "contract": "@sense-finance/v1-core/src/tests/test-helpers/mocks/MockFactory.sol:Mock4626CropFactory",
        "label": "reward",
        "offset": 0,
        "slot": "10",
        "type": "t_address"
      },
      {
        "astId": 18033,
        "contract": "@sense-finance/v1-core/src/tests/test-helpers/mocks/MockFactory.sol:Mock4626CropFactory",
        "label": "targets",
        "offset": 0,
        "slot": "11",
        "type": "t_mapping(t_address,t_bool)"
      }
    ],
    "types": {
      "t_address": {
        "encoding": "inplace",
        "label": "address",
        "numberOfBytes": "20"
      },
      "t_bool": {
        "encoding": "inplace",
        "label": "bool",
        "numberOfBytes": "1"
      },
      "t_mapping(t_address,t_bool)": {
        "encoding": "mapping",
        "key": "t_address",
        "label": "mapping(address => bool)",
        "numberOfBytes": "32",
        "value": "t_bool"
      },
      "t_struct(FactoryParams)10680_storage": {
        "encoding": "inplace",
        "label": "struct BaseFactory.FactoryParams",
        "members": [
          {
            "astId": 10663,
            "contract": "@sense-finance/v1-core/src/tests/test-helpers/mocks/MockFactory.sol:Mock4626CropFactory",
            "label": "oracle",
            "offset": 0,
            "slot": "0",
            "type": "t_address"
          },
          {
            "astId": 10665,
            "contract": "@sense-finance/v1-core/src/tests/test-helpers/mocks/MockFactory.sol:Mock4626CropFactory",
            "label": "stake",
            "offset": 0,
            "slot": "1",
            "type": "t_address"
          },
          {
            "astId": 10667,
            "contract": "@sense-finance/v1-core/src/tests/test-helpers/mocks/MockFactory.sol:Mock4626CropFactory",
            "label": "stakeSize",
            "offset": 0,
            "slot": "2",
            "type": "t_uint256"
          },
          {
            "astId": 10669,
            "contract": "@sense-finance/v1-core/src/tests/test-helpers/mocks/MockFactory.sol:Mock4626CropFactory",
            "label": "minm",
            "offset": 0,
            "slot": "3",
            "type": "t_uint256"
          },
          {
            "astId": 10671,
            "contract": "@sense-finance/v1-core/src/tests/test-helpers/mocks/MockFactory.sol:Mock4626CropFactory",
            "label": "maxm",
            "offset": 0,
            "slot": "4",
            "type": "t_uint256"
          },
          {
            "astId": 10673,
            "contract": "@sense-finance/v1-core/src/tests/test-helpers/mocks/MockFactory.sol:Mock4626CropFactory",
            "label": "ifee",
            "offset": 0,
            "slot": "5",
            "type": "t_uint128"
          },
          {
            "astId": 10675,
            "contract": "@sense-finance/v1-core/src/tests/test-helpers/mocks/MockFactory.sol:Mock4626CropFactory",
            "label": "mode",
            "offset": 16,
            "slot": "5",
            "type": "t_uint16"
          },
          {
            "astId": 10677,
            "contract": "@sense-finance/v1-core/src/tests/test-helpers/mocks/MockFactory.sol:Mock4626CropFactory",
            "label": "tilt",
            "offset": 18,
            "slot": "5",
            "type": "t_uint64"
          },
          {
            "astId": 10679,
            "contract": "@sense-finance/v1-core/src/tests/test-helpers/mocks/MockFactory.sol:Mock4626CropFactory",
            "label": "guard",
            "offset": 0,
            "slot": "6",
            "type": "t_uint256"
          }
        ],
        "numberOfBytes": "224"
      },
      "t_uint128": {
        "encoding": "inplace",
        "label": "uint128",
        "numberOfBytes": "16"
      },
      "t_uint16": {
        "encoding": "inplace",
        "label": "uint16",
        "numberOfBytes": "2"
      },
      "t_uint256": {
        "encoding": "inplace",
        "label": "uint256",
        "numberOfBytes": "32"
      },
      "t_uint64": {
        "encoding": "inplace",
        "label": "uint64",
        "numberOfBytes": "8"
      }
    }
  }
}