{
  "address": "0xd56804E048aC4EEfDA5F1cc99079f154150bD727",
  "abi": [
    {
      "inputs": [
        {
          "internalType": "address",
          "name": "_divider",
          "type": "address"
        }
      ],
      "stateMutability": "nonpayable",
      "type": "constructor"
    },
    {
      "inputs": [
        {
          "internalType": "uint256",
          "name": "monthsForward",
          "type": "uint256"
        }
      ],
      "name": "getFutureMaturity",
      "outputs": [
        {
          "internalType": "uint256",
          "name": "",
          "type": "uint256"
        }
      ],
      "stateMutability": "view",
      "type": "function"
    },
    {
      "inputs": [
        {
          "internalType": "uint256",
          "name": "",
          "type": "uint256"
        },
        {
          "internalType": "address",
          "name": "adapter",
          "type": "address"
        },
        {
          "internalType": "uint256",
          "name": "prevMaturity",
          "type": "uint256"
        },
        {
          "internalType": "contract Space",
          "name": "space",
          "type": "address"
        }
      ],
      "name": "getNewTargetedRate",
      "outputs": [
        {
          "internalType": "uint256",
          "name": "",
          "type": "uint256"
        }
      ],
      "stateMutability": "nonpayable",
      "type": "function"
    },
    {
      "inputs": [
        {
          "internalType": "contract PeripheryLike",
          "name": "periphery",
          "type": "address"
        },
        {
          "internalType": "contract OwnedAdapterLike",
          "name": "adapter",
          "type": "address"
        },
        {
          "internalType": "uint256",
          "name": "maturity",
          "type": "uint256"
        }
      ],
      "name": "getSpaceData",
      "outputs": [
        {
          "internalType": "contract Space",
          "name": "",
          "type": "address"
        },
        {
          "internalType": "bytes32",
          "name": "",
          "type": "bytes32"
        },
        {
          "internalType": "uint256",
          "name": "",
          "type": "uint256"
        },
        {
          "internalType": "uint256",
          "name": "",
          "type": "uint256"
        }
      ],
      "stateMutability": "nonpayable",
      "type": "function"
    }
  ],
  "transactionHash": "0x8d59694301ba690a4546b2810d096da1ef7e01242d237140f9d5f72aa121e14b",
  "args": [
    "0x09B10E45A912BcD4E80a8A3119f0cfCcad1e1f12"
  ],
  "numDeployments": 1,
  "solcInputHash": "9d1090958cfcd29d02214650b2b7badc",
  "bytecode": "0x60a060405234801561001057600080fd5b5060405161132438038061132483398101604081905261002f91610040565b6001600160a01b0316608052610070565b60006020828403121561005257600080fd5b81516001600160a01b038116811461006957600080fd5b9392505050565b60805161129961008b600039600061033a01526112996000f3fe608060405234801561001057600080fd5b50600436106100415760003560e01c8063457e79fe146100465780635c25b08314610088578063afb9eaef146100a9575b600080fd5b610059610054366004610ee9565b6100bc565b604080516001600160a01b03909516855260208501939093529183015260608201526080015b60405180910390f35b61009b610096366004610f2a565b6102d6565b60405190815260200161007f565b61009b6100b7366004610f43565b61030b565b6000806000806000876001600160a01b031663857bee5f6040518163ffffffff1660e01b8152600401602060405180830381865afa158015610102573d6000803e3d6000fd5b505050506040513d601f19601f820116820180604052508101906101269190610f8d565b604051638f38a55560e01b81526001600160a01b038981166004830152602482018990529190911690638f38a55590604401602060405180830381865afa158015610175573d6000803e3d6000fd5b505050506040513d601f19601f820116820180604052508101906101999190610f8d565b905080816001600160a01b03166338fff2d06040518163ffffffff1660e01b8152600401602060405180830381865afa1580156101da573d6000803e3d6000fd5b505050506040513d601f19601f820116820180604052508101906101fe9190610fb1565b826001600160a01b0316636f4830316040518163ffffffff1660e01b8152600401602060405180830381865afa15801561023c573d6000803e3d6000fd5b505050506040513d601f19601f820116820180604052508101906102609190610fb1565b896001600160a01b031663f51e181a6040518163ffffffff1660e01b81526004016020604051808303816000875af11580156102a0573d6000803e3d6000fd5b505050506040513d601f19601f820116820180604052508101906102c49190610fb1565b94509450945094505093509350935093565b60008060006102ed6102e84286610513565b6105ea565b509150915061030382826001600080600061060b565b949350505050565b604051630448e98560e11b81526001600160a01b038481166004830152602482018490526000918291829182917f00000000000000000000000000000000000000000000000000000000000000001690630891d30a90604401610120604051808303816000875af1158015610384573d6000803e3d6000fd5b505050506040513d601f19601f820116820180604052508101906103a89190610fda565b509750975050505050935050806000036103c157600080fd5b8181116103d45760009350505050610303565b60006104666103ef670de0b6b3a76400006301e133806110a3565b670de0b6b3a7640000610456816104108861040a818a6110c2565b90610667565b61041a91906110d9565b610451670de0b6b3a764000061043865ffffffffffff8c168f6110c2565b61044291906110a3565b670de0b6b3a764000090610667565b610685565b61046091906110c2565b906106b1565b9050670de0b6b3a76400006104fc61047e82846110d9565b61045161044261049a670de0b6b3a76400006301e133806110a3565b8b6001600160a01b031663e86d60bf6040518163ffffffff1660e01b8152600401602060405180830381865afa1580156104d8573d6000803e3d6000fd5b505050506040513d601f19601f820116820180604052508101906104609190610fb1565b61050691906110c2565b9998505050505050505050565b600080808061052d6105286201518088611107565b6106c6565b9194509250905061053e85836110d9565b9150600c61054d6001846110c2565b6105579190611107565b61056190846110d9565b9250600c6105706001846110c2565b61057a919061111b565b6105859060016110d9565b91506000610593848461083a565b9050808211156105a1578091505b6105ae620151808861111b565b620151806105bd8686866108c0565b6105c791906110a3565b6105d191906110d9565b9450868510156105e057600080fd5b5050505092915050565b600080806105fe6105286201518086611107565b9196909550909350915050565b600081610619603c856110a3565b610625610e10876110a3565b620151806106348b8b8b6108c0565b61063e91906110a3565b61064891906110d9565b61065291906110d9565b61065c91906110d9565b979650505050505050565b600061067c83670de0b6b3a7640000846109fd565b90505b92915050565b6000600160ff1b831061069757600080fd5b600160ff1b82106106a757600080fd5b61067c8383610a1c565b600061067c8383670de0b6b3a76400006109fd565b60008080838162253d8c6106dd8362010bd961112f565b6106e7919061112f565b9050600062023ab16106fa83600461116f565b61070491906111f6565b905060046107158262023ab161116f565b61072090600361112f565b61072a91906111f6565b6107349083611224565b9150600062164b0961074784600161112f565b61075390610fa061116f565b61075d91906111f6565b9050600461076d826105b561116f565b61077791906111f6565b6107819084611224565b61078c90601f61112f565b9250600061098f61079e85605061116f565b6107a891906111f6565b9050600060506107ba8361098f61116f565b6107c491906111f6565b6107ce9086611224565b90506107db600b836111f6565b94506107e885600c61116f565b6107f383600261112f565b6107fd9190611224565b9150848361080c603187611224565b61081790606461116f565b610821919061112f565b61082b919061112f565b9a919950975095505050505050565b6000816001148061084b5750816003145b806108565750816005145b806108615750816007145b8061086c5750816008145b80610877575081600a145b80610882575081600c145b1561088f5750601f61067f565b8160021461089f5750601e61067f565b6108a883610a4d565b6108b357601c6108b6565b601d5b60ff169392505050565b60006107b28410156108d157600080fd5b838383600062253d8c60046064600c6108eb600e88611224565b6108f591906111f6565b6109018861132461112f565b61090b919061112f565b61091591906111f6565b61092090600361116f565b61092a91906111f6565b600c80610938600e88611224565b61094291906111f6565b61094d90600c61116f565b610958600288611224565b6109629190611224565b61096e9061016f61116f565b61097891906111f6565b6004600c610987600e89611224565b61099191906111f6565b61099d896112c061112f565b6109a7919061112f565b6109b3906105b561116f565b6109bd91906111f6565b6109c9617d4b87611224565b6109d3919061112f565b6109dd919061112f565b6109e79190611224565b6109f19190611224565b98975050505050505050565b828202811515841585830485141716610a1557600080fd5b0492915050565b600061067c670de0b6b3a764000083610a3486610a89565b610a3e919061116f565b610a4891906111f6565b610c6f565b6000610a5a60048361111b565b158015610a705750610a6d60648361111b565b15155b8061067f5750610a826101908361111b565b1592915050565b6000808213610acb5760405162461bcd60e51b815260206004820152600960248201526815539111519253915160ba1b60448201526064015b60405180910390fd5b60006060610ad884610e29565b03609f8181039490941b90931c6c465772b2bbbb5f824b15207a3081018102606090811d6d0388eaa27412d5aca026815d636e018202811d6d0df99ac502031bf953eff472fdcc018202811d6d13cdffb29d51d99322bdff5f2211018202811d6d0a0f742023def783a307a986912e018202811d6d01920d8043ca89b5239253284e42018202811d6c0b7a86d7375468fac667a0a527016c29508e458543d8aa4df2abee7883018302821d6d0139601a2efabe717e604cbb4894018302821d6d02247f7a7b6594320649aa03aba1018302821d6c8c3f38e95a6b1ff2ab1c3b343619018302821d6d02384773bdf1ac5676facced60901901830290911d6cb9a025d814b29c212b8b1a07cd19019091027ffffffffffffffff5f6af8f7b3396644f18e157960000000000000000000000000105711340daa0d5f769dba1915cef59f0815a5506027d0267a36c0c95b3975ab3ee5b203a7614a3f75373f047d803ae7b6687f2b393909302929092017d57115e47018c7177eebf7cd370a3356a1b7863008a5ae8028c72b88642840160ae1d92915050565b6000680248ce36a70cb26b3e198213610c8a57506000919050565b680755bf798b4a1bf1e58212610cd15760405162461bcd60e51b815260206004820152600c60248201526b4558505f4f564552464c4f5760a01b6044820152606401610ac2565b6503782dace9d9604e83901b059150600060606bb17217f7d1cf79abc9e3b39884821b056b80000000000000000000000001901d6bb17217f7d1cf79abc9e3b39881029093036c240c330e9fb2d9cbaf0fd5aafb1981018102606090811d6d0277594991cfc85f6e2461837cd9018202811d6d1a521255e34f6a5061b25ef1c9c319018202811d6db1bbb201f443cf962f1a1d3db4a5018202811d6e02c72388d9f74f51a9331fed693f1419018202811d6e05180bb14799ab47a8a8cb2a527d57016d02d16720577bd19bf614176fe9ea6c10fe68e7fd37d0007b713f765084018402831d9081019084016d01d3967ed30fc4f89c02bab5708119010290911d6e0587f503bb6ea29d25fcb7401964500190910279d835ebba824c98fb31b83b2ca45c000000000000000000000000010574029d9dc38563c32e5c2f6dc192ee70ef65f9978af30260c3939093039290921c92915050565b6000808211610e665760405162461bcd60e51b815260206004820152600960248201526815539111519253915160ba1b6044820152606401610ac2565b5060016fffffffffffffffffffffffffffffffff821160071b82811c67ffffffffffffffff1060061b1782811c63ffffffff1060051b1782811c61ffff1060041b1782811c60ff10600390811b90911783811c600f1060021b1783811c909110821b1791821c111790565b6001600160a01b0381168114610ee657600080fd5b50565b600080600060608486031215610efe57600080fd5b8335610f0981610ed1565b92506020840135610f1981610ed1565b929592945050506040919091013590565b600060208284031215610f3c57600080fd5b5035919050565b60008060008060808587031215610f5957600080fd5b843593506020850135610f6b81610ed1565b9250604085013591506060850135610f8281610ed1565b939692955090935050565b600060208284031215610f9f57600080fd5b8151610faa81610ed1565b9392505050565b600060208284031215610fc357600080fd5b5051919050565b8051610fd581610ed1565b919050565b60008060008060008060008060006101208a8c031215610ff957600080fd5b895161100481610ed1565b60208b015190995065ffffffffffff8116811461102057600080fd5b60408b015190985061103181610ed1565b60608b01519097506bffffffffffffffffffffffff8116811461105357600080fd5b955061106160808b01610fca565b945060a08a0151935060c08a0151925060e08a015191506101008a015190509295985092959850929598565b634e487b7160e01b600052601160045260246000fd5b60008160001904831182151516156110bd576110bd61108d565b500290565b6000828210156110d4576110d461108d565b500390565b600082198211156110ec576110ec61108d565b500190565b634e487b7160e01b600052601260045260246000fd5b600082611116576111166110f1565b500490565b60008261112a5761112a6110f1565b500690565b6000808212826001600160ff1b03038413811516156111505761115061108d565b600160ff1b83900384128116156111695761116961108d565b50500190565b60006001600160ff1b036000841360008413858304851182821616156111975761119761108d565b600160ff1b60008712828116878305891216156111b6576111b661108d565b600087129250878205871284841616156111d2576111d261108d565b878505871281841616156111e8576111e861108d565b505050929093029392505050565b600082611205576112056110f1565b600160ff1b82146000198414161561121f5761121f61108d565b500590565b60008083128015600160ff1b8501841216156112425761124261108d565b836001600160ff1b0301831381161561125d5761125d61108d565b5050039056fea2646970667358221220f4e0a5a752a81794c54c353ea9b97beb7492e7dc4fa27fe73b2f2db53641f44964736f6c634300080f0033",
  "devdoc": {
    "kind": "dev",
    "methods": {
      "getFutureMaturity(uint256)": {
        "params": {
          "monthsForward": "Number of months in to advance forward."
        },
        "returns": {
          "_0": "timestamp The timestamp around the number of months forward given, exactly at 00:00 UTC on the top of the month."
        }
      },
      "getNewTargetedRate(uint256,address,uint256,address)": {
        "params": {
          "adapter": "Adapter associated with the matured Series to analyze.",
          "prevMaturity": "Maturity for the maturied Series to analyze.",
          "space": "Maturity associated with the Series who's Space data this function is fetching."
        },
        "returns": {
          "_0": "stretchedRate Rate implied by the previous Series stretched to the Space pool's timestretch period."
        }
      },
      "getSpaceData(address,address,uint256)": {
        "params": {
          "adapter": "Adapter associated with the Series who's Space data this function is fetching.",
          "maturity": "Maturity associated with the Series who's Space data this function is fetching.",
          "periphery": "Currently active Sense Periphery contract."
        },
        "returns": {
          "_0": "space Space pool object associated with the given adapter and maturity.",
          "_1": "poolId Balancer pool ID associated with the Space pool.",
          "_2": "pti Index of the PT token in the Space pool.",
          "_3": "scale Current adapter scale value."
        }
      }
    },
    "version": 1
  },
  "userdoc": {
    "kind": "user",
    "methods": {
      "getFutureMaturity(uint256)": {
        "notice": "Calculate a maturity timestamp around x months in the future on exactly the top of the month."
      },
      "getNewTargetedRate(uint256,address,uint256,address)": {
        "notice": "Calculate the APY implied by the change in scale over the Series term (from issuance to maturity), and stretch it to the Space pools' TS period. param fallbackTargetedRate Optional Target rate to fallback on if nothing can be computed."
      },
      "getSpaceData(address,address,uint256)": {
        "notice": "Calculate a maturity timestamp around x months in the future on exactly the top of the month."
      }
    },
    "version": 1
  },
  "storageLayout": {
    "storage": [],
    "types": null
  }
}