{
  "address": "0xf61c68a42FE0D7aA22182953B0f4aD5960f1e439",
  "abi": [
    {
      "inputs": [
        {
          "internalType": "address",
          "name": "_divider",
          "type": "address"
        },
        {
          "internalType": "address",
          "name": "_target",
          "type": "address"
        },
        {
          "internalType": "address",
          "name": "_oracle",
          "type": "address"
        },
        {
          "internalType": "uint256",
          "name": "_ifee",
          "type": "uint256"
        },
        {
          "internalType": "address",
          "name": "_stake",
          "type": "address"
        },
        {
          "internalType": "uint256",
          "name": "_stakeSize",
          "type": "uint256"
        },
        {
          "internalType": "uint256",
          "name": "_minm",
          "type": "uint256"
        },
        {
          "internalType": "uint256",
          "name": "_maxm",
          "type": "uint256"
        },
        {
          "internalType": "uint16",
          "name": "_mode",
          "type": "uint16"
        },
        {
          "internalType": "uint64",
          "name": "_tilt",
          "type": "uint64"
        },
        {
          "internalType": "uint256",
          "name": "_level",
          "type": "uint256"
        },
        {
          "internalType": "address",
          "name": "_reward",
          "type": "address"
        }
      ],
      "stateMutability": "nonpayable",
      "type": "constructor"
    },
    {
      "inputs": [],
      "name": "FlashCallbackFailed",
      "type": "error"
    },
    {
      "inputs": [],
      "name": "InvalidMaturityOffsets",
      "type": "error"
    },
    {
      "inputs": [],
      "name": "MintFailed",
      "type": "error"
    },
    {
      "inputs": [],
      "name": "OnlyDivider",
      "type": "error"
    },
    {
      "inputs": [],
      "name": "OnlyPeriphery",
      "type": "error"
    },
    {
      "inputs": [],
      "name": "RedeemFailed",
      "type": "error"
    },
    {
      "inputs": [],
      "name": "TransferFailed",
      "type": "error"
    },
    {
      "anonymous": false,
      "inputs": [
        {
          "indexed": true,
          "internalType": "address",
          "name": "usr",
          "type": "address"
        },
        {
          "indexed": true,
          "internalType": "address",
          "name": "token",
          "type": "address"
        },
        {
          "indexed": false,
          "internalType": "uint256",
          "name": "amount",
          "type": "uint256"
        }
      ],
      "name": "Distributed",
      "type": "event"
    },
    {
      "stateMutability": "payable",
      "type": "fallback"
    },
    {
      "inputs": [],
      "name": "CALLBACK_SUCCESS",
      "outputs": [
        {
          "internalType": "bytes32",
          "name": "",
          "type": "bytes32"
        }
      ],
      "stateMutability": "view",
      "type": "function"
    },
    {
      "inputs": [],
      "name": "CETH",
      "outputs": [
        {
          "internalType": "address",
          "name": "",
          "type": "address"
        }
      ],
      "stateMutability": "view",
      "type": "function"
    },
    {
      "inputs": [],
      "name": "COMPTROLLER",
      "outputs": [
        {
          "internalType": "address",
          "name": "",
          "type": "address"
        }
      ],
      "stateMutability": "view",
      "type": "function"
    },
    {
      "inputs": [],
      "name": "WETH",
      "outputs": [
        {
          "internalType": "address",
          "name": "",
          "type": "address"
        }
      ],
      "stateMutability": "view",
      "type": "function"
    },
    {
      "inputs": [],
      "name": "divider",
      "outputs": [
        {
          "internalType": "address",
          "name": "",
          "type": "address"
        }
      ],
      "stateMutability": "view",
      "type": "function"
    },
    {
      "inputs": [
        {
          "internalType": "bytes",
          "name": "data",
          "type": "bytes"
        },
        {
          "internalType": "address",
          "name": "receiver",
          "type": "address"
        },
        {
          "internalType": "address",
          "name": "adapter",
          "type": "address"
        },
        {
          "internalType": "uint256",
          "name": "maturity",
          "type": "uint256"
        },
        {
          "internalType": "uint256",
          "name": "cBalIn",
          "type": "uint256"
        },
        {
          "internalType": "uint256",
          "name": "amount",
          "type": "uint256"
        }
      ],
      "name": "flashLoan",
      "outputs": [
        {
          "internalType": "bool",
          "name": "",
          "type": "bool"
        },
        {
          "internalType": "uint256",
          "name": "",
          "type": "uint256"
        }
      ],
      "stateMutability": "nonpayable",
      "type": "function"
    },
    {
      "inputs": [],
      "name": "getMaturityBounds",
      "outputs": [
        {
          "internalType": "uint256",
          "name": "",
          "type": "uint256"
        },
        {
          "internalType": "uint256",
          "name": "",
          "type": "uint256"
        }
      ],
      "stateMutability": "view",
      "type": "function"
    },
    {
      "inputs": [],
      "name": "getStakeAndTarget",
      "outputs": [
        {
          "internalType": "address",
          "name": "",
          "type": "address"
        },
        {
          "internalType": "address",
          "name": "",
          "type": "address"
        },
        {
          "internalType": "uint256",
          "name": "",
          "type": "uint256"
        }
      ],
      "stateMutability": "view",
      "type": "function"
    },
    {
      "inputs": [],
      "name": "getUnderlyingPrice",
      "outputs": [
        {
          "internalType": "uint256",
          "name": "price",
          "type": "uint256"
        }
      ],
      "stateMutability": "view",
      "type": "function"
    },
    {
      "inputs": [],
      "name": "ifee",
      "outputs": [
        {
          "internalType": "uint256",
          "name": "",
          "type": "uint256"
        }
      ],
      "stateMutability": "view",
      "type": "function"
    },
    {
      "inputs": [],
      "name": "isCETH",
      "outputs": [
        {
          "internalType": "bool",
          "name": "",
          "type": "bool"
        }
      ],
      "stateMutability": "view",
      "type": "function"
    },
    {
      "inputs": [],
      "name": "level",
      "outputs": [
        {
          "internalType": "uint256",
          "name": "",
          "type": "uint256"
        }
      ],
      "stateMutability": "view",
      "type": "function"
    },
    {
      "inputs": [],
      "name": "maxm",
      "outputs": [
        {
          "internalType": "uint256",
          "name": "",
          "type": "uint256"
        }
      ],
      "stateMutability": "view",
      "type": "function"
    },
    {
      "inputs": [],
      "name": "minm",
      "outputs": [
        {
          "internalType": "uint256",
          "name": "",
          "type": "uint256"
        }
      ],
      "stateMutability": "view",
      "type": "function"
    },
    {
      "inputs": [],
      "name": "mode",
      "outputs": [
        {
          "internalType": "uint256",
          "name": "",
          "type": "uint256"
        }
      ],
      "stateMutability": "view",
      "type": "function"
    },
    {
      "inputs": [],
      "name": "name",
      "outputs": [
        {
          "internalType": "string",
          "name": "",
          "type": "string"
        }
      ],
      "stateMutability": "view",
      "type": "function"
    },
    {
      "inputs": [
        {
          "internalType": "address",
          "name": "_usr",
          "type": "address"
        },
        {
          "internalType": "uint256",
          "name": "amt",
          "type": "uint256"
        },
        {
          "internalType": "bool",
          "name": "join",
          "type": "bool"
        }
      ],
      "name": "notify",
      "outputs": [],
      "stateMutability": "nonpayable",
      "type": "function"
    },
    {
      "inputs": [
        {
          "internalType": "uint256",
          "name": "",
          "type": "uint256"
        },
        {
          "internalType": "uint256",
          "name": "",
          "type": "uint256"
        },
        {
          "internalType": "uint256",
          "name": "",
          "type": "uint256"
        },
        {
          "internalType": "uint256",
          "name": "",
          "type": "uint256"
        }
      ],
      "name": "onRedeem",
      "outputs": [],
      "stateMutability": "nonpayable",
      "type": "function"
    },
    {
      "inputs": [],
      "name": "oracle",
      "outputs": [
        {
          "internalType": "address",
          "name": "",
          "type": "address"
        }
      ],
      "stateMutability": "view",
      "type": "function"
    },
    {
      "inputs": [],
      "name": "reward",
      "outputs": [
        {
          "internalType": "address",
          "name": "",
          "type": "address"
        }
      ],
      "stateMutability": "view",
      "type": "function"
    },
    {
      "inputs": [],
      "name": "rewardBal",
      "outputs": [
        {
          "internalType": "uint256",
          "name": "",
          "type": "uint256"
        }
      ],
      "stateMutability": "view",
      "type": "function"
    },
    {
      "inputs": [
        {
          "internalType": "address",
          "name": "",
          "type": "address"
        }
      ],
      "name": "rewarded",
      "outputs": [
        {
          "internalType": "uint256",
          "name": "",
          "type": "uint256"
        }
      ],
      "stateMutability": "view",
      "type": "function"
    },
    {
      "inputs": [],
      "name": "scale",
      "outputs": [
        {
          "internalType": "uint256",
          "name": "",
          "type": "uint256"
        }
      ],
      "stateMutability": "nonpayable",
      "type": "function"
    },
    {
      "inputs": [],
      "name": "scaleStored",
      "outputs": [
        {
          "internalType": "uint256",
          "name": "",
          "type": "uint256"
        }
      ],
      "stateMutability": "view",
      "type": "function"
    },
    {
      "inputs": [],
      "name": "share",
      "outputs": [
        {
          "internalType": "uint256",
          "name": "",
          "type": "uint256"
        }
      ],
      "stateMutability": "view",
      "type": "function"
    },
    {
      "inputs": [],
      "name": "stake",
      "outputs": [
        {
          "internalType": "address",
          "name": "",
          "type": "address"
        }
      ],
      "stateMutability": "view",
      "type": "function"
    },
    {
      "inputs": [],
      "name": "stakeSize",
      "outputs": [
        {
          "internalType": "uint256",
          "name": "",
          "type": "uint256"
        }
      ],
      "stateMutability": "view",
      "type": "function"
    },
    {
      "inputs": [],
      "name": "symbol",
      "outputs": [
        {
          "internalType": "string",
          "name": "",
          "type": "string"
        }
      ],
      "stateMutability": "view",
      "type": "function"
    },
    {
      "inputs": [
        {
          "internalType": "address",
          "name": "",
          "type": "address"
        }
      ],
      "name": "tBalance",
      "outputs": [
        {
          "internalType": "uint256",
          "name": "",
          "type": "uint256"
        }
      ],
      "stateMutability": "view",
      "type": "function"
    },
    {
      "inputs": [],
      "name": "target",
      "outputs": [
        {
          "internalType": "address",
          "name": "",
          "type": "address"
        }
      ],
      "stateMutability": "view",
      "type": "function"
    },
    {
      "inputs": [],
      "name": "tilt",
      "outputs": [
        {
          "internalType": "uint256",
          "name": "",
          "type": "uint256"
        }
      ],
      "stateMutability": "view",
      "type": "function"
    },
    {
      "inputs": [],
      "name": "totalTarget",
      "outputs": [
        {
          "internalType": "uint256",
          "name": "",
          "type": "uint256"
        }
      ],
      "stateMutability": "view",
      "type": "function"
    },
    {
      "inputs": [],
      "name": "uDecimals",
      "outputs": [
        {
          "internalType": "uint8",
          "name": "",
          "type": "uint8"
        }
      ],
      "stateMutability": "view",
      "type": "function"
    },
    {
      "inputs": [],
      "name": "underlying",
      "outputs": [
        {
          "internalType": "address",
          "name": "",
          "type": "address"
        }
      ],
      "stateMutability": "view",
      "type": "function"
    },
    {
      "inputs": [
        {
          "internalType": "uint256",
          "name": "tBal",
          "type": "uint256"
        }
      ],
      "name": "unwrapTarget",
      "outputs": [
        {
          "internalType": "uint256",
          "name": "uBal",
          "type": "uint256"
        }
      ],
      "stateMutability": "nonpayable",
      "type": "function"
    },
    {
      "inputs": [
        {
          "internalType": "uint256",
          "name": "uBal",
          "type": "uint256"
        }
      ],
      "name": "wrapUnderlying",
      "outputs": [
        {
          "internalType": "uint256",
          "name": "tBal",
          "type": "uint256"
        }
      ],
      "stateMutability": "nonpayable",
      "type": "function"
    }
  ],
  "transactionHash": "0x1903900f543689d3aa55c74eeda6eb99178d8e90160be3138a1dbe8299917677",
  "args": [
    "0x6961e8650A1548825f3e17335b7Db2158955C22f",
    "0x39AA39c021dfbaE8faC545936693aC917d5E7563",
    "0x6D2299C48a8dD07a872FDd0F8233924872Ad1071",
    "2500000000000000",
    "0xC02aaA39b223FE8D0A0e5C4F27eAD9083C756Cc2",
    "10000000000000000",
    "0",
    "604800",
    1,
    0,
    31,
    "0xc00e94cb662c3520282e6f5717214004a7f26888"
  ],
  "solcInputHash": "09847c7755e2319c9df8555af39fbe1d",
  "bytecode": "0x6102606040523480156200001257600080fd5b5060405162002aa438038062002aa48339810160408190526200003591620005f8565b8b8b6001600160a01b038116734ddc2d193948926d02f9b1fe9e1daa0718270ed514620000c7578c6001600160a01b0316636f307dc36040518163ffffffff1660e01b8152600401602060405180830381865afa1580156200009b573d6000803e3d6000fd5b505050506040513d601f19601f82011682018060405250810190620000c19190620006c8565b620000dd565b73c02aaa39b223fe8d0a0e5c4f27ead9083c756cc25b8c8c8c8c8c8c8c8c8c8c8c8c8c8c8c8c8c8c8c8c61ffff168c6001600160401b03168c83851062000121576040516315a68d0760e11b815260040160405180910390fd5b6001600160a01b03808d166080528b811660a08190528b821660c0528a821660e0526101a08a9052908816610100526101208790526101408690526101608590526101808490526101c0839052604080516306fdde0360e01b815290516306fdde03916004808201926000929091908290030181865afa158015620001aa573d6000803e3d6000fd5b505050506040513d6000823e601f3d908101601f19168201604052620001d4919081019062000736565b604051602001620001e69190620007ee565b604051602081830303815290604052600090805190602001906200020c9291906200051d565b508a6001600160a01b03166395d89b416040518163ffffffff1660e01b8152600401600060405180830381865afa1580156200024c573d6000803e3d6000fd5b505050506040513d6000823e601f3d908101601f1916820160405262000276919081019062000736565b6040516020016200028891906200081c565b60405160208183030381529060405260019080519060200190620002ae9291906200051d565b506101e081905260405163095ea7b360e01b81526001600160a01b038d8116600483015260001960248301528c169063095ea7b3906044016020604051808303816000875af115801562000306573d6000803e3d6000fd5b505050506040513d601f19601f820116820180604052508101906200032c91906200084a565b5060405163095ea7b360e01b81526001600160a01b038d81166004830152600019602483015288169063095ea7b3906044016020604051808303816000875af11580156200037e573d6000803e3d6000fd5b505050506040513d601f19601f82011682018060405250810190620003a491906200084a565b50505050505050505050505050806001600160a01b0316610200816001600160a01b03168152505050505050505050505050505050734ddc2d193948926d02f9b1fe9e1daa0718270ed56001600160a01b03168b6001600160a01b03161415156102208115158152505060c0516001600160a01b031663095ea7b38c6000196040518363ffffffff1660e01b8152600401620004559291906001600160a01b03929092168252602082015260400190565b6020604051808303816000875af115801562000475573d6000803e3d6000fd5b505050506040513d601f19601f820116820180604052508101906200049b91906200084a565b5060c0516001600160a01b031663313ce5676040518163ffffffff1660e01b8152600401602060405180830381865afa158015620004dd573d6000803e3d6000fd5b505050506040513d601f19601f820116820180604052508101906200050391906200086e565b60ff166102405250620008d09a5050505050505050505050565b8280546200052b9062000893565b90600052602060002090601f0160209004810192826200054f57600085556200059a565b82601f106200056a57805160ff19168380011785556200059a565b828001600101855582156200059a579182015b828111156200059a5782518255916020019190600101906200057d565b50620005a8929150620005ac565b5090565b5b80821115620005a85760008155600101620005ad565b80516001600160a01b0381168114620005db57600080fd5b919050565b80516001600160401b0381168114620005db57600080fd5b6000806000806000806000806000806000806101808d8f0312156200061c57600080fd5b620006278d620005c3565b9b506200063760208e01620005c3565b9a506200064760408e01620005c3565b995060608d015198506200065e60808e01620005c3565b975060a08d0151965060c08d0151955060e08d015194506101008d015161ffff811681146200068c57600080fd5b93506200069d6101208e01620005e0565b92506101408d01519150620006b66101608e01620005c3565b90509295989b509295989b509295989b565b600060208284031215620006db57600080fd5b620006e682620005c3565b9392505050565b634e487b7160e01b600052604160045260246000fd5b60005b838110156200072057818101518382015260200162000706565b8381111562000730576000848401525b50505050565b6000602082840312156200074957600080fd5b81516001600160401b03808211156200076157600080fd5b818401915084601f8301126200077657600080fd5b8151818111156200078b576200078b620006ed565b604051601f8201601f19908116603f01168101908382118183101715620007b657620007b6620006ed565b81604052828152876020848701011115620007d057600080fd5b620007e383602083016020880162000703565b979650505050505050565b600082516200080281846020870162000703565b671020b230b83a32b960c11b920191825250600801919050565b600082516200083081846020870162000703565b6716b0b230b83a32b960c11b920191825250600801919050565b6000602082840312156200085d57600080fd5b81518015158114620006e657600080fd5b6000602082840312156200088157600080fd5b815160ff81168114620006e657600080fd5b600181811c90821680620008a857607f821691505b60208210811415620008ca57634e487b7160e01b600052602260045260246000fd5b50919050565b60805160a05160c05160e05161010051610120516101405161016051610180516101a0516101c0516101e05161020051610220516102405161203362000a71600039600081816105270152818161173b0152818161176801526117af0152600081816105c201528181610c4401528181610d9601528181610ea80152818161111201528181611286015261132101526000818161031c0152818161181a015281816119250152818161196301526119e3015260006106ea0152600061082d015260006107f9015260006103fd0152600081816102c5015261067a01526000818161065701526108d60152600081816103bd01526104bf01526000818161039601526104f301526000818161071e0152610cbf0152600081816106b601528181610d6c015281816110ba01526113ea0152600081816103710152818161087701528181610a6201528181610b7001528181610baf01528181610c9701528181610d4001528181610ece01528181610f74015281816110e6015281816111d6015261157c01526000818161045e01528181610995015261142001526120336000f3fe60806040526004361061022e5760003560e01c80635f82c67e11610126578063ad5c4648116100a7578063c5c108c711610079578063da4ca41311610061578063da4ca41314610899578063f51e181a146108af578063fc024d2c146108c457005b8063c5c108c71461084f578063d4b839921461086557005b8063ad5c46481461079f578063b484972a146107c7578063b8c15a9f146107e7578063c39a3b291461081b57005b80636fd5ae15116100f85780638237e538116100e05780638237e5381461074057806395d89b4114610774578063a8d5fd651461078957005b80636fd5ae15146106d85780637dc0d1d01461070c57005b80635f82c67e146105f4578063610968201461061c57806364c56e3c146106445780636f307dc3146106a457005b8063378efa37116101b057806345ed132f116101825780634aae9fed1161016a5780634aae9fed1461057057806351c39ea11461059057806354cbe640146105b057005b806345ed132f14610515578063468f02d21461055b57005b8063378efa371461044c578063379f53e3146104805780633a34330e146104ad5780633a4b66f1146104e157005b8063226778491161020157806327b327d0116101e957806327b327d014610356578063295a5212146103eb57806329a436081461041f57005b806322677849146102f5578063228cb7331461030a57005b806306fdde031461023057806310d339721461025b57806314282f5814610292578063167c3a4f146102b3575b005b34801561023c57600080fd5b506102456108f8565b6040516102529190611b93565b60405180910390f35b34801561026757600080fd5b5061027b610276366004611c10565b610986565b604080519215158352602083019190915201610252565b34801561029e57600080fd5b5061022e6102ad366004611cbd565b50505050565b3480156102bf57600080fd5b506102e77f000000000000000000000000000000000000000000000000000000000000000081565b604051908152602001610252565b34801561030157600080fd5b506102e7610baa565b34801561031657600080fd5b5061033e7f000000000000000000000000000000000000000000000000000000000000000081565b6040516001600160a01b039091168152602001610252565b34801561036257600080fd5b50604080516001600160a01b037f0000000000000000000000000000000000000000000000000000000000000000811682527f00000000000000000000000000000000000000000000000000000000000000001660208201527f000000000000000000000000000000000000000000000000000000000000000091810191909152606001610252565b3480156103f757600080fd5b506102e77f000000000000000000000000000000000000000000000000000000000000000081565b34801561042b57600080fd5b506102e761043a366004611cef565b60056020526000908152604090205481565b34801561045857600080fd5b5061033e7f000000000000000000000000000000000000000000000000000000000000000081565b34801561048c57600080fd5b506102e761049b366004611cef565b60066020526000908152604090205481565b3480156104b957600080fd5b506102e77f000000000000000000000000000000000000000000000000000000000000000081565b3480156104ed57600080fd5b5061033e7f000000000000000000000000000000000000000000000000000000000000000081565b34801561052157600080fd5b506105497f000000000000000000000000000000000000000000000000000000000000000081565b60405160ff9091168152602001610252565b34801561056757600080fd5b506102e7610c40565b34801561057c57600080fd5b506102e761058b366004611d13565b610d3c565b34801561059c57600080fd5b506102e76105ab366004611d13565b6110b6565b3480156105bc57600080fd5b506105e47f000000000000000000000000000000000000000000000000000000000000000081565b6040519015158152602001610252565b34801561060057600080fd5b5061033e733d9819210a31b4961b30ef54be2aed79b9c9cd3b81565b34801561062857600080fd5b5061033e734ddc2d193948926d02f9b1fe9e1daa0718270ed581565b34801561065057600080fd5b50604080517f000000000000000000000000000000000000000000000000000000000000000081527f0000000000000000000000000000000000000000000000000000000000000000602082015201610252565b3480156106b057600080fd5b5061033e7f000000000000000000000000000000000000000000000000000000000000000081565b3480156106e457600080fd5b506102e77f000000000000000000000000000000000000000000000000000000000000000081565b34801561071857600080fd5b5061033e7f000000000000000000000000000000000000000000000000000000000000000081565b34801561074c57600080fd5b506102e77f439148f0bbc682ca079e46d6e2c2f0c1e3b820f1a291b069d8882abf8cf18dd981565b34801561078057600080fd5b50610245611411565b34801561079557600080fd5b506102e760025481565b3480156107ab57600080fd5b5061033e73c02aaa39b223fe8d0a0e5c4f27ead9083c756cc281565b3480156107d357600080fd5b5061022e6107e2366004611d2c565b61141e565b3480156107f357600080fd5b506102e77f000000000000000000000000000000000000000000000000000000000000000081565b34801561082757600080fd5b506102e77f000000000000000000000000000000000000000000000000000000000000000081565b34801561085b57600080fd5b506102e760035481565b34801561087157600080fd5b5061033e7f000000000000000000000000000000000000000000000000000000000000000081565b3480156108a557600080fd5b506102e760045481565b3480156108bb57600080fd5b506102e7611577565b3480156108d057600080fd5b506102e77f000000000000000000000000000000000000000000000000000000000000000081565b6000805461090590611d73565b80601f016020809104026020016040519081016040528092919081815260200182805461093190611d73565b801561097e5780601f106109535761010080835404028352916020019161097e565b820191906000526020600020905b81548152906001019060200180831161096157829003601f168201915b505050505081565b600080336001600160a01b03167f00000000000000000000000000000000000000000000000000000000000000006001600160a01b03166377aace1a6040518163ffffffff1660e01b8152600401602060405180830381865afa1580156109f1573d6000803e3d6000fd5b505050506040513d601f19601f82011682018060405250810190610a159190611dae565b6001600160a01b031614610a55576040517ffb02114900000000000000000000000000000000000000000000000000000000815260040160405180910390fd5b610a896001600160a01b037f00000000000000000000000000000000000000000000000000000000000000001688856115da565b600080886001600160a01b031663643059b58c8c338c8c8c8c6040518863ffffffff1660e01b8152600401610ac49796959493929190611dcb565b60408051808303816000875af1158015610ae2573d6000803e3d6000fd5b505050506040513d601f19601f82011682018060405250810190610b069190611e24565b915091507f439148f0bbc682ca079e46d6e2c2f0c1e3b820f1a291b069d8882abf8cf18dd98214610b63576040517f207df21c00000000000000000000000000000000000000000000000000000000815260040160405180910390fd5b610b986001600160a01b037f0000000000000000000000000000000000000000000000000000000000000000168a308861167f565b60019b909a5098505050505050505050565b6000807f00000000000000000000000000000000000000000000000000000000000000006001600160a01b031663182df0f56040518163ffffffff1660e01b8152600401602060405180830381865afa158015610c0b573d6000803e3d6000fd5b505050506040513d601f19601f82011682018060405250810190610c2f9190611e48565b9050610c3a81611735565b91505090565b60007f0000000000000000000000000000000000000000000000000000000000000000610d2f576040517ffc57d4df0000000000000000000000000000000000000000000000000000000081526001600160a01b037f0000000000000000000000000000000000000000000000000000000000000000811660048301527f0000000000000000000000000000000000000000000000000000000000000000169063fc57d4df90602401602060405180830381865afa158015610d06573d6000803e3d6000fd5b505050506040513d601f19601f82011682018060405250810190610d2a9190611e48565b905090565b50670de0b6b3a764000090565b60007f0000000000000000000000000000000000000000000000000000000000000000610d946001600160a01b037f00000000000000000000000000000000000000000000000000000000000000001633308661167f565b7f000000000000000000000000000000000000000000000000000000000000000015610e39576040517f2e1a7d4d0000000000000000000000000000000000000000000000000000000081526004810184905273c02aaa39b223fe8d0a0e5c4f27ead9083c756cc290632e1a7d4d90602401600060405180830381600087803b158015610e2057600080fd5b505af1158015610e34573d6000803e3d6000fd5b505050505b6040516370a0823160e01b81523060048201526000906001600160a01b038316906370a0823190602401602060405180830381865afa158015610e80573d6000803e3d6000fd5b505050506040513d601f19601f82011682018060405250810190610ea49190611e48565b90507f000000000000000000000000000000000000000000000000000000000000000015610f45577f00000000000000000000000000000000000000000000000000000000000000006001600160a01b0316631249c58b856040518263ffffffff1660e01b81526004016000604051808303818588803b158015610f2757600080fd5b505af1158015610f3b573d6000803e3d6000fd5b5050505050611020565b6040517fa0712d68000000000000000000000000000000000000000000000000000000008152600481018590527f00000000000000000000000000000000000000000000000000000000000000006001600160a01b03169063a0712d68906024016020604051808303816000875af1158015610fc5573d6000803e3d6000fd5b505050506040513d601f19601f82011682018060405250810190610fe99190611e48565b15611020576040517f07637bd800000000000000000000000000000000000000000000000000000000815260040160405180910390fd5b6040516370a0823160e01b81523060048201526000906001600160a01b038416906370a0823190602401602060405180830381865afa158015611067573d6000803e3d6000fd5b505050506040513d601f19601f8201168201806040525081019061108b9190611e48565b90506110ae3361109b8484611e77565b95506001600160a01b03851690866115da565b505050919050565b60007f000000000000000000000000000000000000000000000000000000000000000061110e6001600160a01b037f00000000000000000000000000000000000000000000000000000000000000001633308661167f565b60007f00000000000000000000000000000000000000000000000000000000000000006111a2576040516370a0823160e01b81523060048201526001600160a01b038316906370a0823190602401602060405180830381865afa158015611179573d6000803e3d6000fd5b505050506040513d601f19601f8201168201806040525081019061119d9190611e48565b6111a4565b475b6040517fdb006a75000000000000000000000000000000000000000000000000000000008152600481018690529091507f00000000000000000000000000000000000000000000000000000000000000006001600160a01b03169063db006a75906024016020604051808303816000875af1158015611227573d6000803e3d6000fd5b505050506040513d601f19601f8201168201806040525081019061124b9190611e48565b15611282576040517fbb1205c200000000000000000000000000000000000000000000000000000000815260040160405180910390fd5b60007f0000000000000000000000000000000000000000000000000000000000000000611316576040516370a0823160e01b81523060048201526001600160a01b038416906370a0823190602401602060405180830381865afa1580156112ed573d6000803e3d6000fd5b505050506040513d601f19601f820116820180604052508101906113119190611e48565b611318565b475b905081810393507f0000000000000000000000000000000000000000000000000000000000000000156113dd5760405160009073c02aaa39b223fe8d0a0e5c4f27ead9083c756cc29086908381818185875af1925050503d806000811461139b576040519150601f19603f3d011682016040523d82523d6000602084013e6113a0565b606091505b50509050806113db576040517f90b8ec1800000000000000000000000000000000000000000000000000000000815260040160405180910390fd5b505b6110ae6001600160a01b037f00000000000000000000000000000000000000000000000000000000000000001633866115da565b6001805461090590611d73565b7f00000000000000000000000000000000000000000000000000000000000000006001600160a01b03163314611480576040517f8604e36100000000000000000000000000000000000000000000000000000000815260040160405180910390fd5b611489836117ee565b81156115245780156114df5781600460008282546114a79190611e8e565b90915550506001600160a01b038316600090815260056020526040812080548492906114d4908490611e8e565b909155506115249050565b81600460008282546114f19190611e77565b90915550506001600160a01b0383166000908152600560205260408120805484929061151e908490611e77565b90915550505b6002546001600160a01b038416600090815260056020526040902054611556916b033b2e3c9fd0803ce8000000611a57565b6001600160a01b039093166000908152600660205260409020929092555050565b6000807f00000000000000000000000000000000000000000000000000000000000000006001600160a01b031663bd6d894d6040518163ffffffff1660e01b81526004016020604051808303816000875af1158015610c0b573d6000803e3d6000fd5b60006040517fa9059cbb0000000000000000000000000000000000000000000000000000000081526001600160a01b03841660048201528260248201526000806044836000895af191505061162e81611a6c565b6102ad5760405162461bcd60e51b815260206004820152600f60248201527f5452414e534645525f4641494c4544000000000000000000000000000000000060448201526064015b60405180910390fd5b60006040517f23b872dd0000000000000000000000000000000000000000000000000000000081526001600160a01b03851660048201526001600160a01b038416602482015282604482015260008060648360008a5af19150506116e281611a6c565b61172e5760405162461bcd60e51b815260206004820152601460248201527f5452414e534645525f46524f4d5f4641494c45440000000000000000000000006044820152606401611676565b5050505050565b600060087f000000000000000000000000000000000000000000000000000000000000000060ff1610156117a85761178e7f00000000000000000000000000000000000000000000000000000000000000006008611ea6565b61179990600a611fad565b6117a39083611fbc565b6117e8565b6117d360087f0000000000000000000000000000000000000000000000000000000000000000611ea6565b6117de90600a611fad565b6117e89083611fdb565b92915050565b6117f6611ab3565b6003546040516370a0823160e01b8152306004820152600091906001600160a01b037f000000000000000000000000000000000000000000000000000000000000000016906370a0823190602401602060405180830381865afa158015611861573d6000803e3d6000fd5b505050506040513d601f19601f820116820180604052508101906118859190611e48565b61188f9190611e77565b600454909150156118cc576004546118b59082906b033b2e3c9fd0803ce8000000611b2c565b600260008282546118c69190611e8e565b90915550505b6001600160a01b03821660009081526006602090815260408083205460025460059093529083205490929161190e91906b033b2e3c9fd0803ce8000000611b39565b90508181111561194e5761194e6001600160a01b037f000000000000000000000000000000000000000000000000000000000000000016858484036115da565b6040516370a0823160e01b81523060048201527f00000000000000000000000000000000000000000000000000000000000000006001600160a01b0316906370a0823190602401602060405180830381865afa1580156119b2573d6000803e3d6000fd5b505050506040513d601f19601f820116820180604052508101906119d69190611e48565b6003556001600160a01b037f000000000000000000000000000000000000000000000000000000000000000081169085167fad4a9acf26d8bba7a8cf1a41160d59be042ee554578e256c98d2ab74cdd43542848411611a36576000611a40565b611a408585611e77565b60405190815260200160405180910390a350505050565b6000611a64848484611b46565b949350505050565b60003d82611a7e57806000803e806000fd5b8060208114611a96578015611aa75760009250611aac565b816000803e60005115159250611aac565b600192505b5050919050565b6040517fe9af0292000000000000000000000000000000000000000000000000000000008152306004820152733d9819210a31b4961b30ef54be2aed79b9c9cd3b9063e9af029290602401600060405180830381600087803b158015611b1857600080fd5b505af11580156102ad573d6000803e3d6000fd5b6000611a64848385611b74565b6000611a64848484611b74565b828202811515841585830485141716611b5e57600080fd5b6001826001830304018115150290509392505050565b828202811515841585830485141716611b8c57600080fd5b0492915050565b600060208083528351808285015260005b81811015611bc057858101830151858201604001528201611ba4565b81811115611bd2576000604083870101525b50601f01601f1916929092016040019392505050565b6001600160a01b0381168114611bfd57600080fd5b50565b8035611c0b81611be8565b919050565b600080600080600080600060c0888a031215611c2b57600080fd5b873567ffffffffffffffff80821115611c4357600080fd5b818a0191508a601f830112611c5757600080fd5b813581811115611c6657600080fd5b8b6020828501011115611c7857600080fd5b602092830199509750611c8e918a019050611c00565b9450611c9c60408901611c00565b969995985093966060810135956080820135955060a0909101359350915050565b60008060008060808587031215611cd357600080fd5b5050823594602084013594506040840135936060013592509050565b600060208284031215611d0157600080fd5b8135611d0c81611be8565b9392505050565b600060208284031215611d2557600080fd5b5035919050565b600080600060608486031215611d4157600080fd5b8335611d4c81611be8565b92506020840135915060408401358015158114611d6857600080fd5b809150509250925092565b600181811c90821680611d8757607f821691505b60208210811415611da857634e487b7160e01b600052602260045260246000fd5b50919050565b600060208284031215611dc057600080fd5b8151611d0c81611be8565b60c081528660c0820152868860e0830137600060e08883018101919091526001600160a01b0396871660208301529490951660408601526060850192909252608084015260a0830152601f909201601f19160101919050565b60008060408385031215611e3757600080fd5b505080516020909101519092909150565b600060208284031215611e5a57600080fd5b5051919050565b634e487b7160e01b600052601160045260246000fd5b600082821015611e8957611e89611e61565b500390565b60008219821115611ea157611ea1611e61565b500190565b600060ff821660ff841680821015611ec057611ec0611e61565b90039392505050565b600181815b80851115611f04578160001904821115611eea57611eea611e61565b80851615611ef757918102915b93841c9390800290611ece565b509250929050565b600082611f1b575060016117e8565b81611f28575060006117e8565b8160018114611f3e5760028114611f4857611f64565b60019150506117e8565b60ff841115611f5957611f59611e61565b50506001821b6117e8565b5060208310610133831016604e8410600b8410161715611f87575081810a6117e8565b611f918383611ec9565b8060001904821115611fa557611fa5611e61565b029392505050565b6000611d0c60ff841683611f0c565b6000816000190483118215151615611fd657611fd6611e61565b500290565b600082611ff857634e487b7160e01b600052601260045260246000fd5b50049056fea2646970667358221220d1c205f6c6d8edd0a2004bf0928455acd79b8160f0222cffec244561047adfa864736f6c634300080b0033",
  "devdoc": {
    "kind": "dev",
    "methods": {
      "flashLoan(bytes,address,address,uint256,uint256,uint256)": {
        "params": {
          "adapter": "adapter address",
          "amount": "The amount of target lent.",
          "cBalIn": "YT amount the user has sent in",
          "maturity": "maturity",
          "receiver": "The contract receiving target, needs to implement the `onFlashLoan(address user, address adapter, uint256 maturity, uint256 amount)` interface."
        }
      },
      "scale()": {
        "returns": {
          "_0": "Exchange rate from Target to Underlying using Compound's `exchangeRateCurrent()`, normed to 18 decimals"
        }
      },
      "scaleStored()": {
        "details": "For situations where you need scale from a view function"
      }
    },
    "version": 1
  },
  "userdoc": {
    "kind": "user",
    "methods": {
      "divider()": {
        "notice": "Sense core Divider address"
      },
      "flashLoan(bytes,address,address,uint256,uint256,uint256)": {
        "notice": "Loan `amount` target to `receiver`, and takes it back after the callback."
      },
      "getUnderlyingPrice()": {
        "notice": "Returns the current price of the underlying in ETH terms"
      },
      "ifee()": {
        "notice": "Issuance fee"
      },
      "level()": {
        "notice": "The number this function returns will be used to determine its access by checking for binary digits using the following scheme:<onRedeem(y/n)><collect(y/n)><combine(y/n)><issue(y/n)> (e.g. 0101 enables `collect` and `issue`, but not `combine`)"
      },
      "maxm()": {
        "notice": "Max maturity (seconds after block.timstamp)"
      },
      "minm()": {
        "notice": "Min maturity (seconds after block.timstamp)"
      },
      "mode()": {
        "notice": "0 for monthly, 1 for weekly"
      },
      "onRedeem(uint256,uint256,uint256,uint256)": {
        "notice": "Hook called whenever a user redeems PT"
      },
      "oracle()": {
        "notice": "Oracle address"
      },
      "reward()": {
        "notice": "Program state"
      },
      "scaleStored()": {
        "notice": "Cached scale value getter"
      },
      "stake()": {
        "notice": "Token to stake at issuance"
      },
      "stakeSize()": {
        "notice": "Amount to stake at issuance"
      },
      "target()": {
        "notice": "Target token to divide"
      },
      "tilt()": {
        "notice": "WAD number representing the percentage of the total principal that's set aside for Yield Tokens (e.g. 0.1e18 means that 10% of the principal is reserved).If `0`, it means no principal is set aside for Yield Tokens"
      },
      "underlying()": {
        "notice": "Underlying for the Target"
      }
    },
    "notice": "Adapter contract for cTokens",
    "version": 1
  },
  "storageLayout": {
    "storage": [
      {
        "astId": 6525,
        "contract": "@sense-finance/v1-core/src/adapters/implementations/compound/CAdapter.sol:CAdapter",
        "label": "name",
        "offset": 0,
        "slot": "0",
        "type": "t_string_storage"
      },
      {
        "astId": 6527,
        "contract": "@sense-finance/v1-core/src/adapters/implementations/compound/CAdapter.sol:CAdapter",
        "label": "symbol",
        "offset": 0,
        "slot": "1",
        "type": "t_string_storage"
      },
      {
        "astId": 6965,
        "contract": "@sense-finance/v1-core/src/adapters/implementations/compound/CAdapter.sol:CAdapter",
        "label": "share",
        "offset": 0,
        "slot": "2",
        "type": "t_uint256"
      },
      {
        "astId": 6967,
        "contract": "@sense-finance/v1-core/src/adapters/implementations/compound/CAdapter.sol:CAdapter",
        "label": "rewardBal",
        "offset": 0,
        "slot": "3",
        "type": "t_uint256"
      },
      {
        "astId": 6969,
        "contract": "@sense-finance/v1-core/src/adapters/implementations/compound/CAdapter.sol:CAdapter",
        "label": "totalTarget",
        "offset": 0,
        "slot": "4",
        "type": "t_uint256"
      },
      {
        "astId": 6973,
        "contract": "@sense-finance/v1-core/src/adapters/implementations/compound/CAdapter.sol:CAdapter",
        "label": "tBalance",
        "offset": 0,
        "slot": "5",
        "type": "t_mapping(t_address,t_uint256)"
      },
      {
        "astId": 6977,
        "contract": "@sense-finance/v1-core/src/adapters/implementations/compound/CAdapter.sol:CAdapter",
        "label": "rewarded",
        "offset": 0,
        "slot": "6",
        "type": "t_mapping(t_address,t_uint256)"
      }
    ],
    "types": {
      "t_address": {
        "encoding": "inplace",
        "label": "address",
        "numberOfBytes": "20"
      },
      "t_mapping(t_address,t_uint256)": {
        "encoding": "mapping",
        "key": "t_address",
        "label": "mapping(address => uint256)",
        "numberOfBytes": "32",
        "value": "t_uint256"
      },
      "t_string_storage": {
        "encoding": "bytes",
        "label": "string",
        "numberOfBytes": "32"
      },
      "t_uint256": {
        "encoding": "inplace",
        "label": "uint256",
        "numberOfBytes": "32"
      }
    }
  }
}