{
  "address": "0x6961e8650A1548825f3e17335b7Db2158955C22f",
  "abi": [
    {
      "inputs": [
        {
          "internalType": "address",
          "name": "_cup",
          "type": "address"
        },
        {
          "internalType": "address",
          "name": "_tokenHandler",
          "type": "address"
        }
      ],
      "stateMutability": "nonpayable",
      "type": "constructor"
    },
    {
      "inputs": [],
      "name": "AlreadySettled",
      "type": "error"
    },
    {
      "inputs": [],
      "name": "CollectNotSettled",
      "type": "error"
    },
    {
      "inputs": [],
      "name": "CombineRestricted",
      "type": "error"
    },
    {
      "inputs": [],
      "name": "DuplicateSeries",
      "type": "error"
    },
    {
      "inputs": [],
      "name": "ExistingValue",
      "type": "error"
    },
    {
      "inputs": [],
      "name": "GuardCapReached",
      "type": "error"
    },
    {
      "inputs": [],
      "name": "InvalidAdapter",
      "type": "error"
    },
    {
      "inputs": [],
      "name": "InvalidMaturity",
      "type": "error"
    },
    {
      "inputs": [],
      "name": "IssuanceFeeCapExceeded",
      "type": "error"
    },
    {
      "inputs": [],
      "name": "IssuanceRestricted",
      "type": "error"
    },
    {
      "inputs": [],
      "name": "IssueOnSettle",
      "type": "error"
    },
    {
      "inputs": [],
      "name": "NotSettled",
      "type": "error"
    },
    {
      "inputs": [],
      "name": "OnlyPeriphery",
      "type": "error"
    },
    {
      "inputs": [],
      "name": "OnlyPermissionless",
      "type": "error"
    },
    {
      "inputs": [],
      "name": "OnlyYT",
      "type": "error"
    },
    {
      "inputs": [],
      "name": "OutOfWindowBoundaries",
      "type": "error"
    },
    {
      "inputs": [],
      "name": "RedeemRestricted",
      "type": "error"
    },
    {
      "inputs": [],
      "name": "SeriesDoesNotExist",
      "type": "error"
    },
    {
      "anonymous": false,
      "inputs": [
        {
          "indexed": true,
          "internalType": "address",
          "name": "adapter",
          "type": "address"
        },
        {
          "indexed": true,
          "internalType": "uint256",
          "name": "id",
          "type": "uint256"
        },
        {
          "indexed": true,
          "internalType": "bool",
          "name": "isOn",
          "type": "bool"
        }
      ],
      "name": "AdapterChanged",
      "type": "event"
    },
    {
      "anonymous": false,
      "inputs": [
        {
          "indexed": true,
          "internalType": "address",
          "name": "adapter",
          "type": "address"
        },
        {
          "indexed": true,
          "internalType": "uint256",
          "name": "maturity",
          "type": "uint256"
        },
        {
          "indexed": false,
          "internalType": "uint256",
          "name": "mscale",
          "type": "uint256"
        },
        {
          "indexed": false,
          "internalType": "address[]",
          "name": "_usrs",
          "type": "address[]"
        },
        {
          "indexed": false,
          "internalType": "uint256[]",
          "name": "_lscales",
          "type": "uint256[]"
        }
      ],
      "name": "Backfilled",
      "type": "event"
    },
    {
      "anonymous": false,
      "inputs": [
        {
          "indexed": true,
          "internalType": "address",
          "name": "adapter",
          "type": "address"
        },
        {
          "indexed": true,
          "internalType": "uint256",
          "name": "maturity",
          "type": "uint256"
        },
        {
          "indexed": false,
          "internalType": "uint256",
          "name": "collected",
          "type": "uint256"
        }
      ],
      "name": "Collected",
      "type": "event"
    },
    {
      "anonymous": false,
      "inputs": [
        {
          "indexed": true,
          "internalType": "address",
          "name": "adapter",
          "type": "address"
        },
        {
          "indexed": true,
          "internalType": "uint256",
          "name": "maturity",
          "type": "uint256"
        },
        {
          "indexed": false,
          "internalType": "uint256",
          "name": "balance",
          "type": "uint256"
        },
        {
          "indexed": true,
          "internalType": "address",
          "name": "sender",
          "type": "address"
        }
      ],
      "name": "Combined",
      "type": "event"
    },
    {
      "anonymous": false,
      "inputs": [
        {
          "indexed": true,
          "internalType": "address",
          "name": "adapter",
          "type": "address"
        },
        {
          "indexed": false,
          "internalType": "uint256",
          "name": "cap",
          "type": "uint256"
        }
      ],
      "name": "GuardChanged",
      "type": "event"
    },
    {
      "anonymous": false,
      "inputs": [
        {
          "indexed": true,
          "internalType": "bool",
          "name": "guarded",
          "type": "bool"
        }
      ],
      "name": "GuardedChanged",
      "type": "event"
    },
    {
      "anonymous": false,
      "inputs": [
        {
          "indexed": true,
          "internalType": "address",
          "name": "adapter",
          "type": "address"
        },
        {
          "indexed": true,
          "internalType": "uint256",
          "name": "maturity",
          "type": "uint256"
        },
        {
          "indexed": false,
          "internalType": "uint256",
          "name": "balance",
          "type": "uint256"
        },
        {
          "indexed": true,
          "internalType": "address",
          "name": "sender",
          "type": "address"
        }
      ],
      "name": "Issued",
      "type": "event"
    },
    {
      "anonymous": false,
      "inputs": [
        {
          "indexed": false,
          "internalType": "address",
          "name": "account",
          "type": "address"
        }
      ],
      "name": "Paused",
      "type": "event"
    },
    {
      "anonymous": false,
      "inputs": [
        {
          "indexed": true,
          "internalType": "address",
          "name": "periphery",
          "type": "address"
        }
      ],
      "name": "PeripheryChanged",
      "type": "event"
    },
    {
      "anonymous": false,
      "inputs": [
        {
          "indexed": true,
          "internalType": "bool",
          "name": "permissionless",
          "type": "bool"
        }
      ],
      "name": "PermissionlessChanged",
      "type": "event"
    },
    {
      "anonymous": false,
      "inputs": [
        {
          "indexed": true,
          "internalType": "address",
          "name": "adapter",
          "type": "address"
        },
        {
          "indexed": true,
          "internalType": "uint256",
          "name": "maturity",
          "type": "uint256"
        },
        {
          "indexed": false,
          "internalType": "uint256",
          "name": "redeemed",
          "type": "uint256"
        }
      ],
      "name": "PrincipalRedeemed",
      "type": "event"
    },
    {
      "anonymous": false,
      "inputs": [
        {
          "indexed": false,
          "internalType": "address",
          "name": "adapter",
          "type": "address"
        },
        {
          "indexed": true,
          "internalType": "uint256",
          "name": "maturity",
          "type": "uint256"
        },
        {
          "indexed": false,
          "internalType": "address",
          "name": "pt",
          "type": "address"
        },
        {
          "indexed": false,
          "internalType": "address",
          "name": "yt",
          "type": "address"
        },
        {
          "indexed": true,
          "internalType": "address",
          "name": "sponsor",
          "type": "address"
        },
        {
          "indexed": true,
          "internalType": "address",
          "name": "target",
          "type": "address"
        }
      ],
      "name": "SeriesInitialized",
      "type": "event"
    },
    {
      "anonymous": false,
      "inputs": [
        {
          "indexed": true,
          "internalType": "address",
          "name": "adapter",
          "type": "address"
        },
        {
          "indexed": true,
          "internalType": "uint256",
          "name": "maturity",
          "type": "uint256"
        },
        {
          "indexed": true,
          "internalType": "address",
          "name": "settler",
          "type": "address"
        }
      ],
      "name": "SeriesSettled",
      "type": "event"
    },
    {
      "anonymous": false,
      "inputs": [
        {
          "indexed": false,
          "internalType": "address",
          "name": "account",
          "type": "address"
        }
      ],
      "name": "Unpaused",
      "type": "event"
    },
    {
      "anonymous": false,
      "inputs": [
        {
          "indexed": true,
          "internalType": "address",
          "name": "user",
          "type": "address"
        },
        {
          "indexed": false,
          "internalType": "bool",
          "name": "trusted",
          "type": "bool"
        }
      ],
      "name": "UserTrustUpdated",
      "type": "event"
    },
    {
      "anonymous": false,
      "inputs": [
        {
          "indexed": true,
          "internalType": "address",
          "name": "adapter",
          "type": "address"
        },
        {
          "indexed": true,
          "internalType": "uint256",
          "name": "maturity",
          "type": "uint256"
        },
        {
          "indexed": false,
          "internalType": "uint256",
          "name": "redeemed",
          "type": "uint256"
        }
      ],
      "name": "YTRedeemed",
      "type": "event"
    },
    {
      "inputs": [],
      "name": "ISSUANCE_FEE_CAP",
      "outputs": [
        {
          "internalType": "uint256",
          "name": "",
          "type": "uint256"
        }
      ],
      "stateMutability": "view",
      "type": "function"
    },
    {
      "inputs": [],
      "name": "SETTLEMENT_WINDOW",
      "outputs": [
        {
          "internalType": "uint256",
          "name": "",
          "type": "uint256"
        }
      ],
      "stateMutability": "view",
      "type": "function"
    },
    {
      "inputs": [],
      "name": "SPONSOR_WINDOW",
      "outputs": [
        {
          "internalType": "uint256",
          "name": "",
          "type": "uint256"
        }
      ],
      "stateMutability": "view",
      "type": "function"
    },
    {
      "inputs": [
        {
          "internalType": "uint256",
          "name": "",
          "type": "uint256"
        }
      ],
      "name": "adapterAddresses",
      "outputs": [
        {
          "internalType": "address",
          "name": "",
          "type": "address"
        }
      ],
      "stateMutability": "view",
      "type": "function"
    },
    {
      "inputs": [],
      "name": "adapterCounter",
      "outputs": [
        {
          "internalType": "uint248",
          "name": "",
          "type": "uint248"
        }
      ],
      "stateMutability": "view",
      "type": "function"
    },
    {
      "inputs": [
        {
          "internalType": "address",
          "name": "",
          "type": "address"
        }
      ],
      "name": "adapterMeta",
      "outputs": [
        {
          "internalType": "uint248",
          "name": "id",
          "type": "uint248"
        },
        {
          "internalType": "bool",
          "name": "enabled",
          "type": "bool"
        },
        {
          "internalType": "uint256",
          "name": "guard",
          "type": "uint256"
        },
        {
          "internalType": "uint8",
          "name": "uDecimals",
          "type": "uint8"
        },
        {
          "internalType": "uint248",
          "name": "level",
          "type": "uint248"
        }
      ],
      "stateMutability": "view",
      "type": "function"
    },
    {
      "inputs": [
        {
          "internalType": "address",
          "name": "adapter",
          "type": "address"
        }
      ],
      "name": "addAdapter",
      "outputs": [],
      "stateMutability": "nonpayable",
      "type": "function"
    },
    {
      "inputs": [
        {
          "internalType": "address",
          "name": "adapter",
          "type": "address"
        },
        {
          "internalType": "uint256",
          "name": "maturity",
          "type": "uint256"
        },
        {
          "internalType": "uint256",
          "name": "mscale",
          "type": "uint256"
        },
        {
          "internalType": "address[]",
          "name": "_usrs",
          "type": "address[]"
        },
        {
          "internalType": "uint256[]",
          "name": "_lscales",
          "type": "uint256[]"
        }
      ],
      "name": "backfillScale",
      "outputs": [],
      "stateMutability": "nonpayable",
      "type": "function"
    },
    {
      "inputs": [
        {
          "internalType": "address",
          "name": "usr",
          "type": "address"
        },
        {
          "internalType": "address",
          "name": "adapter",
          "type": "address"
        },
        {
          "internalType": "uint256",
          "name": "maturity",
          "type": "uint256"
        },
        {
          "internalType": "uint256",
          "name": "uBalTransfer",
          "type": "uint256"
        },
        {
          "internalType": "address",
          "name": "to",
          "type": "address"
        }
      ],
      "name": "collect",
      "outputs": [
        {
          "internalType": "uint256",
          "name": "collected",
          "type": "uint256"
        }
      ],
      "stateMutability": "nonpayable",
      "type": "function"
    },
    {
      "inputs": [
        {
          "internalType": "address",
          "name": "adapter",
          "type": "address"
        },
        {
          "internalType": "uint256",
          "name": "maturity",
          "type": "uint256"
        },
        {
          "internalType": "uint256",
          "name": "uBal",
          "type": "uint256"
        }
      ],
      "name": "combine",
      "outputs": [
        {
          "internalType": "uint256",
          "name": "tBal",
          "type": "uint256"
        }
      ],
      "stateMutability": "nonpayable",
      "type": "function"
    },
    {
      "inputs": [],
      "name": "cup",
      "outputs": [
        {
          "internalType": "address",
          "name": "",
          "type": "address"
        }
      ],
      "stateMutability": "view",
      "type": "function"
    },
    {
      "inputs": [],
      "name": "guarded",
      "outputs": [
        {
          "internalType": "bool",
          "name": "",
          "type": "bool"
        }
      ],
      "stateMutability": "view",
      "type": "function"
    },
    {
      "inputs": [
        {
          "internalType": "address",
          "name": "adapter",
          "type": "address"
        },
        {
          "internalType": "uint256",
          "name": "maturity",
          "type": "uint256"
        },
        {
          "internalType": "address",
          "name": "sponsor",
          "type": "address"
        }
      ],
      "name": "initSeries",
      "outputs": [
        {
          "internalType": "address",
          "name": "pt",
          "type": "address"
        },
        {
          "internalType": "address",
          "name": "yt",
          "type": "address"
        }
      ],
      "stateMutability": "nonpayable",
      "type": "function"
    },
    {
      "inputs": [
        {
          "internalType": "address",
          "name": "",
          "type": "address"
        }
      ],
      "name": "isTrusted",
      "outputs": [
        {
          "internalType": "bool",
          "name": "",
          "type": "bool"
        }
      ],
      "stateMutability": "view",
      "type": "function"
    },
    {
      "inputs": [
        {
          "internalType": "address",
          "name": "adapter",
          "type": "address"
        },
        {
          "internalType": "uint256",
          "name": "maturity",
          "type": "uint256"
        },
        {
          "internalType": "uint256",
          "name": "tBal",
          "type": "uint256"
        }
      ],
      "name": "issue",
      "outputs": [
        {
          "internalType": "uint256",
          "name": "uBal",
          "type": "uint256"
        }
      ],
      "stateMutability": "nonpayable",
      "type": "function"
    },
    {
      "inputs": [
        {
          "internalType": "address",
          "name": "",
          "type": "address"
        },
        {
          "internalType": "uint256",
          "name": "",
          "type": "uint256"
        },
        {
          "internalType": "address",
          "name": "",
          "type": "address"
        }
      ],
      "name": "lscales",
      "outputs": [
        {
          "internalType": "uint256",
          "name": "",
          "type": "uint256"
        }
      ],
      "stateMutability": "view",
      "type": "function"
    },
    {
      "inputs": [
        {
          "internalType": "address",
          "name": "adapter",
          "type": "address"
        },
        {
          "internalType": "uint256",
          "name": "maturity",
          "type": "uint256"
        }
      ],
      "name": "mscale",
      "outputs": [
        {
          "internalType": "uint256",
          "name": "",
          "type": "uint256"
        }
      ],
      "stateMutability": "view",
      "type": "function"
    },
    {
      "inputs": [],
      "name": "paused",
      "outputs": [
        {
          "internalType": "bool",
          "name": "",
          "type": "bool"
        }
      ],
      "stateMutability": "view",
      "type": "function"
    },
    {
      "inputs": [],
      "name": "periphery",
      "outputs": [
        {
          "internalType": "address",
          "name": "",
          "type": "address"
        }
      ],
      "stateMutability": "view",
      "type": "function"
    },
    {
      "inputs": [],
      "name": "permissionless",
      "outputs": [
        {
          "internalType": "bool",
          "name": "",
          "type": "bool"
        }
      ],
      "stateMutability": "view",
      "type": "function"
    },
    {
      "inputs": [
        {
          "internalType": "address",
          "name": "adapter",
          "type": "address"
        },
        {
          "internalType": "uint256",
          "name": "maturity",
          "type": "uint256"
        }
      ],
      "name": "pt",
      "outputs": [
        {
          "internalType": "address",
          "name": "",
          "type": "address"
        }
      ],
      "stateMutability": "view",
      "type": "function"
    },
    {
      "inputs": [
        {
          "internalType": "address",
          "name": "adapter",
          "type": "address"
        },
        {
          "internalType": "uint256",
          "name": "maturity",
          "type": "uint256"
        },
        {
          "internalType": "uint256",
          "name": "uBal",
          "type": "uint256"
        }
      ],
      "name": "redeem",
      "outputs": [
        {
          "internalType": "uint256",
          "name": "tBal",
          "type": "uint256"
        }
      ],
      "stateMutability": "nonpayable",
      "type": "function"
    },
    {
      "inputs": [
        {
          "internalType": "address",
          "name": "",
          "type": "address"
        },
        {
          "internalType": "uint256",
          "name": "",
          "type": "uint256"
        }
      ],
      "name": "series",
      "outputs": [
        {
          "internalType": "address",
          "name": "pt",
          "type": "address"
        },
        {
          "internalType": "uint48",
          "name": "issuance",
          "type": "uint48"
        },
        {
          "internalType": "address",
          "name": "yt",
          "type": "address"
        },
        {
          "internalType": "uint96",
          "name": "tilt",
          "type": "uint96"
        },
        {
          "internalType": "address",
          "name": "sponsor",
          "type": "address"
        },
        {
          "internalType": "uint256",
          "name": "reward",
          "type": "uint256"
        },
        {
          "internalType": "uint256",
          "name": "iscale",
          "type": "uint256"
        },
        {
          "internalType": "uint256",
          "name": "mscale",
          "type": "uint256"
        },
        {
          "internalType": "uint256",
          "name": "maxscale",
          "type": "uint256"
        }
      ],
      "stateMutability": "view",
      "type": "function"
    },
    {
      "inputs": [
        {
          "internalType": "address",
          "name": "adapter",
          "type": "address"
        },
        {
          "internalType": "bool",
          "name": "isOn",
          "type": "bool"
        }
      ],
      "name": "setAdapter",
      "outputs": [],
      "stateMutability": "nonpayable",
      "type": "function"
    },
    {
      "inputs": [
        {
          "internalType": "address",
          "name": "adapter",
          "type": "address"
        },
        {
          "internalType": "uint256",
          "name": "cap",
          "type": "uint256"
        }
      ],
      "name": "setGuard",
      "outputs": [],
      "stateMutability": "nonpayable",
      "type": "function"
    },
    {
      "inputs": [
        {
          "internalType": "bool",
          "name": "_guarded",
          "type": "bool"
        }
      ],
      "name": "setGuarded",
      "outputs": [],
      "stateMutability": "nonpayable",
      "type": "function"
    },
    {
      "inputs": [
        {
          "internalType": "address",
          "name": "user",
          "type": "address"
        },
        {
          "internalType": "bool",
          "name": "trusted",
          "type": "bool"
        }
      ],
      "name": "setIsTrusted",
      "outputs": [],
      "stateMutability": "nonpayable",
      "type": "function"
    },
    {
      "inputs": [
        {
          "internalType": "bool",
          "name": "_paused",
          "type": "bool"
        }
      ],
      "name": "setPaused",
      "outputs": [],
      "stateMutability": "nonpayable",
      "type": "function"
    },
    {
      "inputs": [
        {
          "internalType": "address",
          "name": "_periphery",
          "type": "address"
        }
      ],
      "name": "setPeriphery",
      "outputs": [],
      "stateMutability": "nonpayable",
      "type": "function"
    },
    {
      "inputs": [
        {
          "internalType": "bool",
          "name": "_permissionless",
          "type": "bool"
        }
      ],
      "name": "setPermissionless",
      "outputs": [],
      "stateMutability": "nonpayable",
      "type": "function"
    },
    {
      "inputs": [
        {
          "internalType": "address",
          "name": "adapter",
          "type": "address"
        },
        {
          "internalType": "uint256",
          "name": "maturity",
          "type": "uint256"
        }
      ],
      "name": "settleSeries",
      "outputs": [],
      "stateMutability": "nonpayable",
      "type": "function"
    },
    {
      "inputs": [],
      "name": "tokenHandler",
      "outputs": [
        {
          "internalType": "address",
          "name": "",
          "type": "address"
        }
      ],
      "stateMutability": "view",
      "type": "function"
    },
    {
      "inputs": [
        {
          "internalType": "address",
          "name": "adapter",
          "type": "address"
        },
        {
          "internalType": "uint256",
          "name": "maturity",
          "type": "uint256"
        }
      ],
      "name": "yt",
      "outputs": [
        {
          "internalType": "address",
          "name": "",
          "type": "address"
        }
      ],
      "stateMutability": "view",
      "type": "function"
    }
  ],
  "transactionHash": "0xd0b156ab2661233b31049a3f90d480dfba0ff529dfd288420533418f835ccf46",
  "args": [
    "0x6C4f62b3187bC7e8A8f948Bb50ABec694719D8d3",
    "0xBd16632BD820d931bf57F5Cf2D6A093866eB006B"
  ],
  "solcInputHash": "09847c7755e2319c9df8555af39fbe1d",
  "bytecode": "0x60c0604052600180556002805460ff60b01b1916600160b01b1790553480156200002857600080fd5b5060405162004bb938038062004bb98339810160408190526200004b91620000dc565b3360008181526020818152604091829020805460ff19166001908117909155915191825282917fe95aec380cae16330d146d5499ef7db6f3657e477104a733e771bc09e500d986910160405180910390a2506002805460ff191690556001600160a01b039182166080521660a05262000114565b80516001600160a01b0381168114620000d757600080fd5b919050565b60008060408385031215620000f057600080fd5b620000fb83620000bf565b91506200010b60208401620000bf565b90509250929050565b60805160a051614a6a6200014f600039600081816103d50152610f3f01526000818161046b015281816122c201526122ea0152614a6a6000f3fe608060405234801561001057600080fd5b506004361061020b5760003560e01c806372f7a0301161012a578063a4141638116100bd578063c9eb4f981161008c578063d10eb4b911610071578063d10eb4b914610685578063dfe5ef48146106bb578063f2d63d0e146106ce57600080fd5b8063c9eb4f981461065f578063d10c16a91461067257600080fd5b8063a4141638146105fb578063aeb229341461060e578063ba89bebd14610621578063c5a067e31461063457600080fd5b806395197d30116100f957806395197d301461057857806396d64879146105b1578063a1256f9f146105d4578063a131ad74146105e857600080fd5b806372f7a0301461051057806375708a591461052457806377aace1a146105375780637c9170381461054f57600080fd5b8063332f6465116101a2578063574e779511610171578063574e7795146104c05780635c975abb146104d35780635fa0cc0a146104ea57806360d54d41146104fd57600080fd5b8063332f6465146104535780633ad10beb146104665780633deb6cae146103915780633e3972ee1461048d57600080fd5b806316c38b3c116101de57806316c38b3c146103bd5780631b3d6e87146103d05780632b83cccd1461040f5780632f9cd8541461042257600080fd5b80630891d30a146102105780630cbe8db1146103085780630fe0554d146103915780631393916a146103a8575b600080fd5b61029461021e3660046142ac565b6006602081815260009384526040808520909152918352912080546001820154600283015460038401546004850154600586015495909601546001600160a01b0380861697600160a01b9687900465ffffffffffff1697828716979096046bffffffffffffffffffffffff169591909416939189565b604080516001600160a01b039a8b16815265ffffffffffff90991660208a0152968916968801969096526bffffffffffffffffffffffff909416606087015295909116608085015260a084015260c083019390935260e0820192909252610100810191909152610120015b60405180910390f35b61035a6103163660046142d8565b6005602052600090815260409020805460018201546002909201546001600160f81b038083169360ff600160f81b9094048416939092908116916101009091041685565b604080516001600160f81b039687168152941515602086015284019290925260ff166060830152909116608082015260a0016102ff565b61039a612a3081565b6040519081526020016102ff565b6103bb6103b636600461430a565b6106dc565b005b6103bb6103cb36600461433f565b61078a565b6103f77f000000000000000000000000000000000000000000000000000000000000000081565b6040516001600160a01b0390911681526020016102ff565b61039a61041d36600461435a565b6107ed565b61039a61043036600461438f565b600760209081526000938452604080852082529284528284209052825290205481565b6103bb61046136600461430a565b610c5e565b6103f77f000000000000000000000000000000000000000000000000000000000000000081565b6104a061049b36600461438f565b610cb7565b604080516001600160a01b039384168152929091166020830152016102ff565b6103f76104ce3660046142ac565b611294565b60025460ff165b60405190151581526020016102ff565b6103bb6104f83660046142ac565b6112c4565b6103bb61050b3660046142d8565b61135f565b6002546104da90600160b01b900460ff1681565b6103bb61053236600461433f565b61147f565b6002546103f79061010090046001600160a01b031681565b6103f761055d3660046143d1565b6004602052600090815260409020546001600160a01b031681565b61039a6105863660046142ac565b6001600160a01b03919091166000908152600660209081526040808320938352929052206005015490565b6104da6105bf3660046142d8565b60006020819052908152604090205460ff1681565b6002546104da90600160a81b900460ff1681565b61039a6105f63660046143ea565b61152e565b6103bb6106093660046142ac565b6116bc565b6103bb61061c3660046142d8565b611a1b565b61039a61062f36600461435a565b611acf565b600354610647906001600160f81b031681565b6040516001600160f81b0390911681526020016102ff565b6103bb61066d36600461433f565b611f1f565b6103bb610680366004614495565b611fce565b6103f76106933660046142ac565b6001600160a01b03918216600090815260066020908152604080832093835292905220541690565b61039a6106c936600461435a565b6123e1565b61039a66b1a2bc2ec5000081565b3360009081526020819052604090205460ff1661072c5760405162461bcd60e51b8152602060048201526009602482015268155395149554d5115160ba1b60448201526064015b60405180910390fd5b6001600160a01b03821660008181526020818152604091829020805460ff191685151590811790915591519182527fe95aec380cae16330d146d5499ef7db6f3657e477104a733e771bc09e500d98691015b60405180910390a25050565b3360009081526020819052604090205460ff166107d55760405162461bcd60e51b8152602060048201526009602482015268155395149554d5115160ba1b6044820152606401610723565b806107e5576107e2612b7a565b50565b6107e2612c16565b600060015460011461082e5760405162461bcd60e51b815260206004820152600a6024820152695245454e5452414e435960b01b6044820152606401610723565b600260015561083f60025460ff1690565b1561087f5760405162461bcd60e51b815260206004820152601060248201526f14185d5cd8589b194e881c185d5cd95960821b6044820152606401610723565b6001600160a01b03841660009081526006602090815260408083208684529091529020600501546108dc576040517fba329a9b00000000000000000000000000000000000000000000000000000000815260040160405180910390fd5b6001600160a01b03841660009081526005602052604090206002015461010090046001600160f81b038116906010908116141580156109235750336001600160a01b038616145b1561095a576040517f9ad6d35d00000000000000000000000000000000000000000000000000000000815260040160405180910390fd5b6001600160a01b03858116600090815260066020908152604080832088845290915290819020549051632770a7eb60e21b815233600482015260248101869052911690639dc29fac90604401600060405180830381600087803b1580156109c057600080fd5b505af11580156109d4573d6000803e3d6000fd5b505050506001600160a01b0385166000908152600660209081526040808320878452909152812060010154610a2690600160a01b90046bffffffffffffffffffffffff16670de0b6b3a7640000614541565b6001600160a01b03871660009081526006602081815260408084208a8552909152909120908101546005909101549192508291610a6291612c91565b10610aa9576001600160a01b0386166000908152600660209081526040808320888452909152902060050154610a988286614558565b610aa2919061458d565b9250610add565b6001600160a01b03861660009081526006602081815260408084208985529091529091200154610ada908590612c91565b92505b60208083161415610b94576001600160a01b03861660008181526006602081815260408084208a855290915291829020600581015491015491517f14282f580000000000000000000000000000000000000000000000000000000081526004810188905260248101919091526044810191909152606481018590526314282f5890608401600060405180830381600087803b158015610b7b57600080fd5b505af1158015610b8f573d6000803e3d6000fd5b505050505b610c0d863385896001600160a01b031663d4b839926040518163ffffffff1660e01b8152600401602060405180830381865afa158015610bd8573d6000803e3d6000fd5b505050506040513d601f19601f82011682018060405250810190610bfc91906145a1565b6001600160a01b0316929190612cad565b84866001600160a01b03167f254acd85d06b585a48868458c9f8c661fa6cf830681ee0b3018c9cf79c75711b85604051610c4991815260200190565b60405180910390a35050600180559392505050565b3360009081526020819052604090205460ff16610ca95760405162461bcd60e51b8152602060048201526009602482015268155395149554d5115160ba1b6044820152606401610723565b610cb38282612d63565b5050565b600080600154600114610cf95760405162461bcd60e51b815260206004820152600a6024820152695245454e5452414e435960b01b6044820152606401610723565b6002600155610d0a60025460ff1690565b15610d4a5760405162461bcd60e51b815260206004820152601060248201526f14185d5cd8589b194e881c185d5cd95960821b6044820152606401610723565b60025461010090046001600160a01b03163314610d93576040517ffb02114900000000000000000000000000000000000000000000000000000000815260040160405180910390fd5b6001600160a01b038516600090815260056020526040902054600160f81b900460ff16610dd35760405163fbf66df160e01b815260040160405180910390fd5b6001600160a01b0380861660009081526006602090815260408083208884529091529020541615610e30576040517fd309d88400000000000000000000000000000000000000000000000000000000815260040160405180910390fd5b610e3a8585613094565b610e70576040517fc7a682c800000000000000000000000000000000000000000000000000000000815260040160405180910390fd5b6000806000876001600160a01b03166327b327d06040518163ffffffff1660e01b8152600401606060405180830381865afa158015610eb3573d6000803e3d6000fd5b505050506040513d601f19601f82011682018060405250810190610ed791906145be565b6001600160a01b038b8116600081815260056020526040908190205490517fafd3adb000000000000000000000000000000000000000000000000000000000815260048101929092526001600160f81b03166024820152604481018c905293965091945092507f0000000000000000000000000000000000000000000000000000000000000000169063afd3adb09060640160408051808303816000875af1158015610f87573d6000803e3d6000fd5b505050506040513d601f19601f82011682018060405250810190610fab9190614601565b80955081965050506000886001600160a01b031663f51e181a6040518163ffffffff1660e01b81526004016020604051808303816000875af1158015610ff5573d6000803e3d6000fd5b505050506040513d601f19601f82011682018060405250810190611019919061463b565b905085600660008b6001600160a01b03166001600160a01b0316815260200190815260200160002060008a815260200190815260200160002060000160006101000a8154816001600160a01b0302191690836001600160a01b0316021790555042600660008b6001600160a01b03166001600160a01b0316815260200190815260200160002060008a815260200190815260200160002060000160146101000a81548165ffffffffffff021916908365ffffffffffff16021790555084600660008b6001600160a01b03166001600160a01b0316815260200190815260200160002060008a815260200190815260200160002060010160006101000a8154816001600160a01b0302191690836001600160a01b03160217905550886001600160a01b031663c39a3b296040518163ffffffff1660e01b8152600401602060405180830381865afa158015611171573d6000803e3d6000fd5b505050506040513d601f19601f82011682018060405250810190611195919061463b565b6001600160a01b038a811660009081526006602081815260408084208e85529091529091206001810180548416600160a01b6bffffffffffffffffffffffff9690961695909502949094179093556002830180547fffffffffffffffffffffffff0000000000000000000000000000000000000000168b8416179055600483018490559190910182905561122d908416338b85612cad565b604080516001600160a01b038b811682528881166020830152878116828401529151868316928a16918b917f1f35e8bec0a1a6f4c72b2ae05a4b8fdc78d03eab2dc742fab6ae238201c8189b9181900360600190a450506001805550919590945092505050565b6001600160a01b038083166000908152600660209081526040808320858452909152902060010154165b92915050565b3360009081526020819052604090205460ff1661130f5760405162461bcd60e51b8152602060048201526009602482015268155395149554d5115160ba1b6044820152606401610723565b6001600160a01b03821660008181526005602052604090819020600101839055517ff16a3457e9b9a5c31fda410fd95ed37234eafeb546daeb8a99f8895f94bf8fee9061077e9084815260200190565b60025460ff16156113a55760405162461bcd60e51b815260206004820152601060248201526f14185d5cd8589b194e881c185d5cd95960821b6044820152606401610723565b600254600160a81b900460ff161580156113cf575060025461010090046001600160a01b03163314155b15611406576040517f8719352c00000000000000000000000000000000000000000000000000000000815260040160405180910390fd5b6001600160a01b0381166000908152600560205260409020546001600160f81b03161580159061145657506001600160a01b038116600090815260056020526040902054600160f81b900460ff16155b156114745760405163fbf66df160e01b815260040160405180910390fd5b6107e2816001612d63565b3360009081526020819052604090205460ff166114ca5760405162461bcd60e51b8152602060048201526009602482015268155395149554d5115160ba1b6044820152606401610723565b600280547fffffffffffffffffffff00ffffffffffffffffffffffffffffffffffffffffff16600160a81b831515908102919091179091556040517f44a4c963afeb7bcec3494bbd13068371938a27639a9a9a7bac56c11777fd410990600090a250565b600060015460011461156f5760405162461bcd60e51b815260206004820152600a6024820152695245454e5452414e435960b01b6044820152606401610723565b600260019081556001600160a01b038087166000908152600660209081526040808320898452909152902090910154869186911633146115db576040517fb114ba9800000000000000000000000000000000000000000000000000000000815260040160405180910390fd5b60025460ff16156116215760405162461bcd60e51b815260206004820152601060248201526f14185d5cd8589b194e881c185d5cd95960821b6044820152606401610723565b6040516370a0823160e01b81526001600160a01b038916600482015260009033906370a0823190602401602060405180830381865afa158015611668573d6000803e3d6000fd5b505050506040513d601f19601f8201168201806040525081019061168c919061463b565b90506116ab8989898460008b116116a357856116a5565b8a5b8a613224565b600180559998505050505050505050565b6001546001146116fb5760405162461bcd60e51b815260206004820152600a6024820152695245454e5452414e435960b01b6044820152606401610723565b600260015561170c60025460ff1690565b1561174c5760405162461bcd60e51b815260206004820152601060248201526f14185d5cd8589b194e881c185d5cd95960821b6044820152606401610723565b6001600160a01b038216600090815260056020526040902054600160f81b900460ff1661178c5760405163fbf66df160e01b815260040160405180910390fd5b6001600160a01b038083166000908152600660209081526040808320858452909152902054166117cf57604051631760174360e01b815260040160405180910390fd5b6001600160a01b03821660009081526006602090815260408083208484529091529020600501541561182d576040517f560ff90000000000000000000000000000000000000000000000000000000000815260040160405180910390fd5b6118378282613bab565b61185457604051634296f34160e11b815260040160405180910390fd5b6000826001600160a01b031663f51e181a6040518163ffffffff1660e01b81526004016020604051808303816000875af1158015611896573d6000803e3d6000fd5b505050506040513d601f19601f820116820180604052508101906118ba919061463b565b6001600160a01b038416600090815260066020818152604080842087855290915290912060058101839055015490915081111561191a576001600160a01b0383166000908152600660208181526040808420868552909152909120018190555b6000806000856001600160a01b03166327b327d06040518163ffffffff1660e01b8152600401606060405180830381865afa15801561195d573d6000803e3d6000fd5b505050506040513d601f19601f8201168201806040525081019061198191906145be565b6001600160a01b03808a1660009081526006602090815260408083208c845290915290206003015493965091945092506119c2919085169088903390612cad565b6119d76001600160a01b038316873384612cad565b604051339086906001600160a01b038916907fd1426f892f3cce4b1085d051aa4be26da2192d8db075f55bc75f185d38ea624b90600090a450506001805550505050565b3360009081526020819052604090205460ff16611a665760405162461bcd60e51b8152602060048201526009602482015268155395149554d5115160ba1b6044820152606401610723565b600280547fffffffffffffffffffffff0000000000000000000000000000000000000000ff166101006001600160a01b038416908102919091179091556040517f1deeec14e500a86432231bf144d0a12a439494bd11662a44a7e49d868451e74b90600090a250565b6000600154600114611b105760405162461bcd60e51b815260206004820152600a6024820152695245454e5452414e435960b01b6044820152606401610723565b6002600155611b2160025460ff1690565b15611b615760405162461bcd60e51b815260206004820152601060248201526f14185d5cd8589b194e881c185d5cd95960821b6044820152606401610723565b6001600160a01b038416600090815260056020526040902054600160f81b900460ff16611ba15760405163fbf66df160e01b815260040160405180910390fd5b6001600160a01b03808516600090815260066020908152604080832087845290915290205416611be457604051631760174360e01b815260040160405180910390fd5b6001600160a01b03841660009081526005602052604090206002015461010090046001600160f81b03811690600490811614158015611c2c5750336001600160a01b03861614155b15611c63576040517f66bed65200000000000000000000000000000000000000000000000000000000815260040160405180910390fd5b6001600160a01b03858116600090815260066020908152604080832088845290915290819020549051632770a7eb60e21b815233600482015260248101869052911690639dc29fac90604401600060405180830381600087803b158015611cc957600080fd5b505af1158015611cdd573d6000803e3d6000fd5b505050506000611cf233878787886000613224565b6001600160a01b038716600090815260066020908152604080832089845290915290206005015490915080151580611e0c576001600160a01b0388811660009081526006602090815260408083208b845290915290819020600101549051632770a7eb60e21b815233600482015260248101899052911690639dc29fac90604401600060405180830381600087803b158015611d8d57600080fd5b505af1158015611da1573d6000803e3d6000fd5b5050505060088085161415611de1576001600160a01b03881660009081526007602090815260408083208a84528252808320338452909152902054611e09565b6001600160a01b03881660009081526006602090815260408083208a84529091529020600401545b91505b611e168683612c91565b9450611e5c8833878b6001600160a01b031663d4b839926040518163ffffffff1660e01b8152600401602060405180830381865afa158015610bd8573d6000803e3d6000fd5b80611ec957604051635a424b9560e11b815233600482015260248101869052600060448201526001600160a01b0389169063b484972a90606401600060405180830381600087803b158015611eb057600080fd5b505af1158015611ec4573d6000803e3d6000fd5b505050505b60405194830180865294339088906001600160a01b038b16907fc93ef223012fd8a42ae087bcd98f3ea6c91a3596f56fb683451dda1abc5b695c9060200160405180910390a45050600180555090949350505050565b3360009081526020819052604090205460ff16611f6a5760405162461bcd60e51b8152602060048201526009602482015268155395149554d5115160ba1b6044820152606401610723565b600280547fffffffffffffffffff00ffffffffffffffffffffffffffffffffffffffffffff16600160b01b831515908102919091179091556040517fdbcdd9941cbf70eec96e3ddaf2d230966f8224f1b7ec8af263cb8ca4803dfe6f90600090a250565b3360009081526020819052604090205460ff166120195760405162461bcd60e51b8152602060048201526009602482015268155395149554d5115160ba1b6044820152606401610723565b6001600160a01b0380881660009081526006602090815260408083208a84529091529020541661205c57604051631760174360e01b815260040160405180910390fd5b6000612a3061206b8189614654565b6120759190614654565b905080421161209757604051634296f34160e11b815260040160405180910390fd5b60005b84811015612134578383828181106120b4576120b461466c565b6001600160a01b038c1660009081526007602090815260408083208e84528252822092029390930135929091508888858181106120f3576120f361466c565b905060200201602081019061210891906142d8565b6001600160a01b031681526020810191909152604001600020558061212c81614682565b91505061209a565b50851561238d576001600160a01b0388811660009081526006602081815260408084208c855280835281852082516101208101845281548089168252600160a01b9081900465ffffffffffff16828701526001830154808a16958301959095529093046bffffffffffffffffffffffff16606084015260028101549096166080830152600386015460a0830152600486015460c083015260058601805460e084015295909301546101008201908152938c9052919052918890555187111561221f576001600160a01b03891660009081526006602081815260408084208c8552909152909120018790555b60008060008b6001600160a01b03166327b327d06040518163ffffffff1660e01b8152600401606060405180830381865afa158015612262573d6000803e3d6000fd5b505050506040513d601f19601f8201168201806040525081019061228691906145be565b6001600160a01b038f16600090815260056020526040812054939650919450925090600160f81b900460ff166122c05784608001516122e2565b7f00000000000000000000000000000000000000000000000000000000000000005b90506123288d7f00000000000000000000000000000000000000000000000000000000000000008760a00151876001600160a01b0316612cad909392919063ffffffff16565b6000600660008f6001600160a01b03166001600160a01b0316815260200190815260200160002060008e8152602001908152602001600020600301819055506123878d8284866001600160a01b0316612cad909392919063ffffffff16565b50505050505b86886001600160a01b03167f9f7c9b961af682670e128c89a9a1d940800d7c3d7693ab5608f21dd2c04d740f88888888886040516123cf95949392919061469d565b60405180910390a35050505050505050565b60006001546001146124225760405162461bcd60e51b815260206004820152600a6024820152695245454e5452414e435960b01b6044820152606401610723565b600260015561243360025460ff1690565b156124735760405162461bcd60e51b815260206004820152601060248201526f14185d5cd8589b194e881c185d5cd95960821b6044820152606401610723565b6001600160a01b038416600090815260056020526040902054600160f81b900460ff166124b35760405163fbf66df160e01b815260040160405180910390fd5b6001600160a01b038085166000908152600660209081526040808320878452909152902054166124f657604051631760174360e01b815260040160405180910390fd5b6001600160a01b038416600090815260066020908152604080832086845290915290206005015415612554576040517f0de7115500000000000000000000000000000000000000000000000000000000815260040160405180910390fd5b6001600160a01b0384166000908152600560205260409020600201546001600160f81b036101009091041661258d816002908116141590565b80156125a25750336001600160a01b03861614155b156125d9576040517f8159f88400000000000000000000000000000000000000000000000000000000815260040160405180910390fd5b6000856001600160a01b031663d4b839926040518163ffffffff1660e01b8152600401602060405180830381865afa158015612619573d6000803e3d6000fd5b505050506040513d601f19601f8201168201806040525081019061263d91906145a1565b90506000866001600160a01b031663b8c15a9f6040518163ffffffff1660e01b8152600401602060405180830381865afa15801561267f573d6000803e3d6000fd5b505050506040513d601f19601f820116820180604052508101906126a3919061463b565b905066b1a2bc2ec500008111156126e6576040517f2e68f33400000000000000000000000000000000000000000000000000000000815260040160405180910390fd5b60006126f28683613c3a565b6001600160a01b03891660009081526006602090815260408083208b8452909152812060030180548301905590915061272b8288614541565b600254909150600160b01b900460ff1680156127c957506001600160a01b03898116600081815260056020526040908190206001015490516370a0823160e01b81526004810192909252918991908716906370a0823190602401602060405180830381865afa1580156127a2573d6000803e3d6000fd5b505050506040513d601f19601f820116820180604052508101906127c6919061463b565b01115b15612800576040517f6493914000000000000000000000000000000000000000000000000000000000815260040160405180910390fd5b604051635a424b9560e11b815233600482015260248101829052600160448201526001600160a01b038a169063b484972a90606401600060405180830381600087803b15801561284f57600080fd5b505af1158015612863573d6000803e3d6000fd5b50600092505050600880871614156128de57896001600160a01b031663f51e181a6040518163ffffffff1660e01b81526004016020604051808303816000875af11580156128b5573d6000803e3d6000fd5b505050506040513d601f19601f820116820180604052508101906128d9919061463b565b612906565b6001600160a01b038a1660009081526006602090815260408083208c84529091529020600401545b90506129128282613c3a565b6001600160a01b038b1660009081526007602090815260408083208d84528252808320338452909152902054909750156129e4576001600160a01b038a811660009081526006602090815260408083208d8452909152908190206001015490516370a0823160e01b81523360048201526129df928d928d929116906370a0823190602401602060405180830381865afa1580156129b3573d6000803e3d6000fd5b505050506040513d601f19601f820116820180604052508101906129d7919061463b565b8a3386613c4f565b6129e6565b805b6001600160a01b038b811660008181526007602090815260408083208f845282528083203380855290835281842096909655928252600681528282208e835290528190205490516340c10f1960e01b81526004810193909352602483018a905216906340c10f1990604401600060405180830381600087803b158015612a6b57600080fd5b505af1158015612a7f573d6000803e3d6000fd5b505050506001600160a01b038a811660009081526006602090815260408083208d8452909152908190206001015490516340c10f1960e01b8152336004820152602481018a90529116906340c10f1990604401600060405180830381600087803b158015612aec57600080fd5b505af1158015612b00573d6000803e3d6000fd5b50612b1a925050506001600160a01b038616338c8b612cad565b336001600160a01b0316898b6001600160a01b03167ff75041e6352580ba937fde3a7ff5ff99bd178f75ac104184f85e3abbaaa44fef8a604051612b6091815260200190565b60405180910390a450506001805550929695505050505050565b60025460ff16612bcc5760405162461bcd60e51b815260206004820152601460248201527f5061757361626c653a206e6f74207061757365640000000000000000000000006044820152606401610723565b6002805460ff191690557f5db9ee0a495bf2e6ff9c91a7834c1ba4fdd244a5e8aa4e537bd38aeae4b073aa335b6040516001600160a01b03909116815260200160405180910390a1565b60025460ff1615612c5c5760405162461bcd60e51b815260206004820152601060248201526f14185d5cd8589b194e881c185d5cd95960821b6044820152606401610723565b6002805460ff191660011790557f62e78cea01bee320cd4e420270b5ea74000d11b0c9f74754ebdbfc544b05a258612bf93390565b6000612ca683670de0b6b3a764000084613ceb565b9392505050565b60006040517f23b872dd0000000000000000000000000000000000000000000000000000000081526001600160a01b03851660048201526001600160a01b038416602482015282604482015260008060648360008a5af1915050612d1081613d0a565b612d5c5760405162461bcd60e51b815260206004820152601460248201527f5452414e534645525f46524f4d5f4641494c45440000000000000000000000006044820152606401610723565b5050505050565b6001600160a01b038216600090815260056020908152604091829020825160a08101845281546001600160f81b038082168352600160f81b90910460ff908116151594830185905260018401549583019590955260029092015493841660608201526101009093041660808301528215151415612e0c576040517fe2be007400000000000000000000000000000000000000000000000000000000815260040160405180910390fd5b8115801560208301528290612e29575080516001600160f81b0316155b15612eab5760038054600090612e47906001600160f81b0316614741565b82546001600160f81b039182166101009390930a8381029202191617909155808252600090815260046020526040902080546001600160a01b0385167fffffffffffffffffffffffff00000000000000000000000000000000000000009091161790555b826001600160a01b0316636f307dc36040518163ffffffff1660e01b8152600401602060405180830381865afa158015612ee9573d6000803e3d6000fd5b505050506040513d601f19601f82011682018060405250810190612f0d91906145a1565b6001600160a01b031663313ce5676040518163ffffffff1660e01b8152600401602060405180830381865afa158015612f4a573d6000803e3d6000fd5b505050506040513d601f19601f82011682018060405250810190612f6e9190614768565b60ff166060820152604080517f6fd5ae1500000000000000000000000000000000000000000000000000000000815290516001600160a01b03851691636fd5ae159160048083019260209291908290030181865afa158015612fd4573d6000803e3d6000fd5b505050506040513d601f19601f82011682018060405250810190612ff8919061463b565b6001600160f81b03908116608083019081526001600160a01b03851660008181526005602090815260408083208751928801511515600160f81b029287169283178155818801516001820155606088015195519096166101000260ff9590951694909417600290950194909455915185151593927f0a8660585b632de44cbf81e54e8c01c5bbd8737072677676865a86948c57975991a4505050565b6000806000846001600160a01b03166364c56e3c6040518163ffffffff1660e01b81526004016040805180830381865afa1580156130d6573d6000803e3d6000fd5b505050506040513d601f19601f820116820180604052508101906130fa919061478b565b90925090506131098242614654565b84108061311e575061311b8142614654565b84115b1561312e576000925050506112be565b60008060008061313d88613d51565b9550955095509550505082600014158061315657508115155b8061316057508015155b1561317457600096505050505050506112be565b6000896001600160a01b031663295a52126040518163ffffffff1660e01b8152600401602060405180830381865afa1580156131b4573d6000803e3d6000fd5b505050506040513d601f19601f820116820180604052508101906131d8919061463b565b9050806131f157846001149750505050505050506112be565b80600114156132145761320389613dc5565b6001149750505050505050506112be565b5060009998505050505050505050565b6001600160a01b03808616600090815260066020908152604080832088845290915281205490911661326957604051631760174360e01b815260040160405180910390fd5b6001600160a01b038616600090815260056020526040902054600160f81b900460ff161580156132bd57506001600160a01b0386166000908152600660209081526040808320888452909152902060050154155b156132db5760405163fbf66df160e01b815260040160405180910390fd5b600060066000886001600160a01b03166001600160a01b031681526020019081526020016000206000878152602001908152602001600020604051806101200160405290816000820160009054906101000a90046001600160a01b03166001600160a01b03166001600160a01b031681526020016000820160149054906101000a900465ffffffffffff1665ffffffffffff1665ffffffffffff1681526020016001820160009054906101000a90046001600160a01b03166001600160a01b03166001600160a01b031681526020016001820160149054906101000a90046bffffffffffffffffffffffff166bffffffffffffffffffffffff166bffffffffffffffffffffffff1681526020016002820160009054906101000a90046001600160a01b03166001600160a01b03166001600160a01b031681526020016003820154815260200160048201548152602001600582015481526020016006820154815250509050600060076000896001600160a01b03166001600160a01b03168152602001908152602001600020600088815260200190815260200160002060008a6001600160a01b03166001600160a01b031681526020019081526020016000205490506000600560008a6001600160a01b03166001600160a01b0316815260200190815260200160002060020160019054906101000a90046001600160f81b03166001600160f81b031690506134f5816008908116141590565b15613560576001600160a01b03891660009081526006602090815260408083208b845290915290206005015415613554576001600160a01b03891660009081526006602090815260408083208b84529091529020600401549150613560565b60009350505050613ba1565b6001600160a01b03891660009081526006602090815260408083208b84529091529020600501541561359d576135988a8a8a8a613df9565b6136fa565b6135a9612a3089614654565b4211156135e2576040517f1c221a6900000000000000000000000000000000000000000000000000000000815260040160405180910390fd5b6000896001600160a01b031663f51e181a6040518163ffffffff1660e01b81526004016020604051808303816000875af1158015613624573d6000803e3d6000fd5b505050506040513d601f19601f82011682018060405250810190613648919061463b565b90508361010001518111156136945761010084018190526001600160a01b03808b1660009081526007602090815260408083208d84528252808320938f168352929052208190556136f8565b836101000151600760008c6001600160a01b03166001600160a01b0316815260200190815260200160002060008b815260200190815260200160002060008d6001600160a01b03166001600160a01b03168152602001908152602001600020819055505b505b6000613714846101000151896140cb90919063ffffffff16565b905060006137228985612c91565b9050818111613732576000613736565b8181035b955061377c8b8d888e6001600160a01b031663d4b839926040518163ffffffff1660e01b8152600401602060405180830381865afa158015610bd8573d6000803e3d6000fd5b604051635a424b9560e11b81526001600160a01b038d8116600483015260248201889052600060448301528c169063b484972a90606401600060405180830381600087803b1580156137cd57600080fd5b505af11580156137e1573d6000803e3d6000fd5b505050506001600160a01b03871615613a0b5760408086015190516370a0823160e01b81526001600160a01b03898116600483015260009216906370a0823190602401602060405180830381865afa158015613841573d6000803e3d6000fd5b505050506040513d601f19601f82011682018060405250810190613865919061463b565b90506000811161387a5785610100015161388d565b61388d8c8c838c8c8b6101000151613c4f565b600760008e6001600160a01b03166001600160a01b0316815260200190815260200160002060008d815260200190815260200160002060008a6001600160a01b03166001600160a01b031681526020019081526020016000208190555060006139048761010001518b612c9190919063ffffffff16565b90508c6001600160a01b031663b484972a8f8360006040518463ffffffff1660e01b8152600401613955939291906001600160a01b0393909316835260208301919091521515604082015260600190565b600060405180830381600087803b15801561396f57600080fd5b505af1158015613983573d6000803e3d6000fd5b505050508c6001600160a01b031663b484972a8a8360016040518463ffffffff1660e01b81526004016139d6939291906001600160a01b0393909316835260208301919091521515604082015260600190565b600060405180830381600087803b1580156139f057600080fd5b505af1158015613a04573d6000803e3d6000fd5b5050505050505b84600660008d6001600160a01b03166001600160a01b0316815260200190815260200160002060008c815260200190815260200160002060008201518160000160006101000a8154816001600160a01b0302191690836001600160a01b0316021790555060208201518160000160146101000a81548165ffffffffffff021916908365ffffffffffff16021790555060408201518160010160006101000a8154816001600160a01b0302191690836001600160a01b0316021790555060608201518160010160146101000a8154816bffffffffffffffffffffffff02191690836bffffffffffffffffffffffff16021790555060808201518160020160006101000a8154816001600160a01b0302191690836001600160a01b0316021790555060a0820151816003015560c0820151816004015560e082015181600501556101008201518160060155905050898b6001600160a01b03167f8f0c3d4726e2d22ccf850efced91f2d0c1bea40229449223d795a6cff327623688604051613b9391815260200190565b60405180910390a350505050505b9695505050505050565b600080612a30613bbb8185614654565b613bc59190614654565b6001600160a01b03858116600090815260066020908152604080832088845290915290206002015491925016331415613c1b5742613c05612a3085614541565b11158015613c135750428110155b9150506112be565b42613c28612a3085614654565b108015613c13575042111590506112be565b6000612ca68383670de0b6b3a7640000613ceb565b6001600160a01b0386166000908152600560205260408120600201548190613c7b9060ff16600a614893565b9050613cdf613c8a8685612c91565b6001600160a01b03808b1660009081526007602090815260408083208d84528252808320938a1683529290522054613cc3908990612c91565b613ccd9190614654565b82613cd8888a614654565b91906140e0565b98975050505050505050565b828202811515841585830485141716613d0357600080fd5b0492915050565b60003d82613d1c57806000803e806000fd5b8060208114613d34578015613d455760009250613d4a565b816000803e60005115159250613d4a565b600192505b5050919050565b60008080808080613d6d613d68620151808961458d565b6140f5565b919750955093506000613d8362015180896148a2565b9050613d91610e108261458d565b9350613d9f610e10826148a2565b9050613dac603c8261458d565b9250613db9603c826148a2565b91505091939550919395565b600080613dd5620151808461458d565b90506007613de4826003614654565b613dee91906148a2565b612ca6906001614654565b6001600160a01b03838116600090815260066020908152604080832086845290915290819020600101549051632770a7eb60e21b8152868316600482015260248101849052911690639dc29fac90604401600060405180830381600087803b158015613e6457600080fd5b505af1158015613e78573d6000803e3d6000fd5b505050506001600160a01b03831660009081526006602090815260408083208584529091528120600101548190613ecc90600160a01b90046bffffffffffffffffffffffff16670de0b6b3a7640000614541565b6001600160a01b0386166000908152600660208181526040808420898552909152909120908101546005909101549192508291613f0891612c91565b10613fc9576001600160a01b0385166000908152600660209081526040808320878452909152902060050154613f3e8285614558565b613f48919061458d565b6001600160a01b03861660009081526006602081815260408084208985529091529091200154613f79908590612c91565b613f839190614541565b9150613fc9858784886001600160a01b031663d4b839926040518163ffffffff1660e01b8152600401602060405180830381865afa158015610bd8573d6000803e3d6000fd5b6001600160a01b0385166000818152600660208181526040808420898552909152909120015463b484972a9088906140029087906140cb565b6040517fffffffff0000000000000000000000000000000000000000000000000000000060e085901b1681526001600160a01b039092166004830152602482015260006044820152606401600060405180830381600087803b15801561406757600080fd5b505af115801561407b573d6000803e3d6000fd5b5050505083856001600160a01b03167f8faabbddb6c4302d219d23d550839874e08536d5b8d2522f3ffa1e2ca054896e846040516140bb91815260200190565b60405180910390a3505050505050565b6000612ca683670de0b6b3a764000084614269565b60006140ed848385613ceb565b949350505050565b60008080838162253d8c61410c8362010bd96148b6565b61411691906148b6565b9050600062023ab161412983600461490e565b61413391906149ae565b905060046141448262023ab161490e565b61414f9060036148b6565b61415991906149ae565b61416390836149dc565b9150600062164b096141768460016148b6565b61418290610fa061490e565b61418c91906149ae565b9050600461419c826105b561490e565b6141a691906149ae565b6141b090846149dc565b6141bb90601f6148b6565b9250600061098f6141cd85605061490e565b6141d791906149ae565b9050600060506141e98361098f61490e565b6141f391906149ae565b6141fd90866149dc565b905061420a600b836149ae565b945061421785600c61490e565b6142228360026148b6565b61422c91906149dc565b9150848361423b6031876149dc565b61424690606461490e565b61425091906148b6565b61425a91906148b6565b9a919950975095505050505050565b82820281151584158583048514171661428157600080fd5b6001826001830304018115150290509392505050565b6001600160a01b03811681146107e257600080fd5b600080604083850312156142bf57600080fd5b82356142ca81614297565b946020939093013593505050565b6000602082840312156142ea57600080fd5b8135612ca681614297565b8035801515811461430557600080fd5b919050565b6000806040838503121561431d57600080fd5b823561432881614297565b9150614336602084016142f5565b90509250929050565b60006020828403121561435157600080fd5b612ca6826142f5565b60008060006060848603121561436f57600080fd5b833561437a81614297565b95602085013595506040909401359392505050565b6000806000606084860312156143a457600080fd5b83356143af81614297565b92506020840135915060408401356143c681614297565b809150509250925092565b6000602082840312156143e357600080fd5b5035919050565b600080600080600060a0868803121561440257600080fd5b853561440d81614297565b9450602086013561441d81614297565b93506040860135925060608601359150608086013561443b81614297565b809150509295509295909350565b60008083601f84011261445b57600080fd5b50813567ffffffffffffffff81111561447357600080fd5b6020830191508360208260051b850101111561448e57600080fd5b9250929050565b600080600080600080600060a0888a0312156144b057600080fd5b87356144bb81614297565b96506020880135955060408801359450606088013567ffffffffffffffff808211156144e657600080fd5b6144f28b838c01614449565b909650945060808a013591508082111561450b57600080fd5b506145188a828b01614449565b989b979a50959850939692959293505050565b634e487b7160e01b600052601160045260246000fd5b6000828210156145535761455361452b565b500390565b60008160001904831182151516156145725761457261452b565b500290565b634e487b7160e01b600052601260045260246000fd5b60008261459c5761459c614577565b500490565b6000602082840312156145b357600080fd5b8151612ca681614297565b6000806000606084860312156145d357600080fd5b83516145de81614297565b60208501519093506145ef81614297565b80925050604084015190509250925092565b6000806040838503121561461457600080fd5b825161461f81614297565b602084015190925061463081614297565b809150509250929050565b60006020828403121561464d57600080fd5b5051919050565b600082198211156146675761466761452b565b500190565b634e487b7160e01b600052603260045260246000fd5b60006000198214156146965761469661452b565b5060010190565b85815260606020808301829052908201859052600090869060808401835b888110156146e95783356146ce81614297565b6001600160a01b0316825292820192908201906001016146bb565b5084810360408601528581527f07ffffffffffffffffffffffffffffffffffffffffffffffffffffffffffffff86111561472257600080fd5b8560051b92508287838301376000920101908152979650505050505050565b60006001600160f81b038083168181141561475e5761475e61452b565b6001019392505050565b60006020828403121561477a57600080fd5b815160ff81168114612ca657600080fd5b6000806040838503121561479e57600080fd5b505080516020909101519092909150565b600181815b808511156147ea5781600019048211156147d0576147d061452b565b808516156147dd57918102915b93841c93908002906147b4565b509250929050565b600082614801575060016112be565b8161480e575060006112be565b8160018114614824576002811461482e5761484a565b60019150506112be565b60ff84111561483f5761483f61452b565b50506001821b6112be565b5060208310610133831016604e8410600b841016171561486d575081810a6112be565b61487783836147af565b806000190482111561488b5761488b61452b565b029392505050565b6000612ca660ff8416836147f2565b6000826148b1576148b1614577565b500690565b6000808212827f7fffffffffffffffffffffffffffffffffffffffffffffffffffffffffffffff038413811516156148f0576148f061452b565b82600160ff1b0384128116156149085761490861452b565b50500190565b60007f7fffffffffffffffffffffffffffffffffffffffffffffffffffffffffffffff60008413600084138583048511828216161561494f5761494f61452b565b600160ff1b600087128682058812818416161561496e5761496e61452b565b6000871292508782058712848416161561498a5761498a61452b565b878505871281841616156149a0576149a061452b565b505050929093029392505050565b6000826149bd576149bd614577565b600160ff1b8214600019841416156149d7576149d761452b565b500590565b600080831283600160ff1b018312811516156149fa576149fa61452b565b837f7fffffffffffffffffffffffffffffffffffffffffffffffffffffffffffffff018313811615614a2e57614a2e61452b565b5050039056fea2646970667358221220daac6e04bb66ddbe90d02e7cc64e206e62ef97cd543b92b94634cd8785151d4164736f6c634300080b0033",
  "devdoc": {
    "author": "fedealconada + jparklev",
    "kind": "dev",
    "methods": {
      "addAdapter(address)": {
        "params": {
          "adapter": "Adapter's address"
        }
      },
      "backfillScale(address,uint256,uint256,address[],uint256[])": {
        "params": {
          "_lscales": "Values to set on lscales mapping",
          "_usrs": "Values to set on lscales mapping",
          "adapter": "Adapter's address",
          "maturity": "Maturity date for the Series",
          "mscale": "Value to set as the Series' Scale value at maturity"
        }
      },
      "combine(address,uint256,uint256)": {
        "details": "Explicitly burns YTs before maturity, and implicitly does it at/after maturity through `_collect()`",
        "params": {
          "adapter": "Adapter address for the Series",
          "maturity": "Maturity date for the Series",
          "uBal": "Balance of PT and YT to burn"
        }
      },
      "initSeries(address,uint256,address)": {
        "details": "Deploys two ERC20 contracts, one for PTs and the other one for YTsTransfers some fixed amount of stake asset to this contract",
        "params": {
          "adapter": "Adapter to associate with the Series",
          "maturity": "Maturity date for the new Series, in units of unix time",
          "sponsor": "Sponsor of the Series that puts up a token stake and receives the issuance fees"
        }
      },
      "issue(address,uint256,uint256)": {
        "details": "The balance of PTs and YTs minted will be the same value in units of underlying (less fees)",
        "params": {
          "adapter": "Adapter address for the Series",
          "maturity": "Maturity date for the Series [unix time]",
          "tBal": "Balance of Target to deposit"
        }
      },
      "paused()": {
        "details": "Returns true if the contract is paused, and false otherwise."
      },
      "redeem(address,uint256,uint256)": {
        "details": "The balance of redeemable Target is a function of the change in Scale",
        "params": {
          "adapter": "Adapter address for the Series",
          "maturity": "Maturity date for the Series",
          "uBal": "Amount of PT to burn, which should be equivalent to the amount of Underlying owed to the caller"
        }
      },
      "setAdapter(address,bool)": {
        "params": {
          "adapter": "Adapter's address",
          "isOn": "Flag setting this adapter to enabled or disabled"
        }
      },
      "setGuard(address,uint256)": {
        "params": {
          "adapter": "Adapter address",
          "cap": "The max target that can be deposited on the Adapter"
        }
      },
      "setGuarded(bool)": {
        "params": {
          "_guarded": "bool"
        }
      },
      "setPaused(bool)": {
        "params": {
          "_paused": "boolean"
        }
      },
      "setPeriphery(address)": {
        "params": {
          "_periphery": "Target address"
        }
      },
      "setPermissionless(bool)": {
        "params": {
          "_permissionless": "bool"
        }
      },
      "settleSeries(address,uint256)": {
        "details": "The Series' sponsor has a grace period where only they can settle the SeriesAfter that, the reward becomes MEV",
        "params": {
          "adapter": "Adapter to associate with the Series",
          "maturity": "Maturity date for the new Series"
        }
      }
    },
    "title": "Sense Divider: Divide Assets in Two",
    "version": 1
  },
  "userdoc": {
    "events": {
      "Backfilled(address,uint256,uint256,address[],uint256[])": {
        "notice": "Admin"
      },
      "GuardedChanged(bool)": {
        "notice": "*----* misc"
      },
      "Issued(address,uint256,uint256,address)": {
        "notice": "-***- middle"
      },
      "SeriesInitialized(address,uint256,address,address,address,address)": {
        "notice": "Series lifecycle *---- beginning"
      },
      "SeriesSettled(address,uint256,address)": {
        "notice": "----* end"
      }
    },
    "kind": "user",
    "methods": {
      "ISSUANCE_FEE_CAP()": {
        "notice": "10% issuance fee cap"
      },
      "SETTLEMENT_WINDOW()": {
        "notice": "Buffer after the sponsor window in which anyone can settle the Series"
      },
      "SPONSOR_WINDOW()": {
        "notice": "Buffer before and after the actual maturity in which only the sponsor can settle the Series"
      },
      "adapterAddresses(uint256)": {
        "notice": "adapter ID -> adapter address"
      },
      "adapterCounter()": {
        "notice": "Number of adapters (including turned off)"
      },
      "adapterMeta(address)": {
        "notice": "adapter data"
      },
      "addAdapter(address)": {
        "notice": "Enable an adapter (only when permissionless mode on or if called from periphery)"
      },
      "backfillScale(address,uint256,uint256,address[],uint256[])": {
        "notice": "Backfill a Series' Scale value at maturity if keepers failed to settle it"
      },
      "combine(address,uint256,uint256)": {
        "notice": "Reconstitute Target by burning PT and YT"
      },
      "cup()": {
        "notice": "Sense community multisig"
      },
      "guarded()": {
        "notice": "Guarded launch flag"
      },
      "initSeries(address,uint256,address)": {
        "notice": "Initializes a new Series"
      },
      "issue(address,uint256,uint256)": {
        "notice": "Mint Principal & Yield Tokens of a specific Series"
      },
      "lscales(address,uint256,address)": {
        "notice": "adapter -> maturity -> user -> lscale (last scale)"
      },
      "permissionless()": {
        "notice": "Permissionless flag"
      },
      "pt(address,uint256)": {
        "notice": "Returns address of Principal Token"
      },
      "redeem(address,uint256,uint256)": {
        "notice": "Burn PT of a Series once it's been settled"
      },
      "series(address,uint256)": {
        "notice": "adapter -> maturity -> Series"
      },
      "setAdapter(address,bool)": {
        "notice": "Enable or disable a adapter"
      },
      "setGuard(address,uint256)": {
        "notice": "Set adapter's guard"
      },
      "setGuarded(bool)": {
        "notice": "Set guarded mode"
      },
      "setPaused(bool)": {
        "notice": "Set paused flag"
      },
      "setPeriphery(address)": {
        "notice": "Set periphery's contract"
      },
      "setPermissionless(bool)": {
        "notice": "Set permissioless mode"
      },
      "settleSeries(address,uint256)": {
        "notice": "Settles a Series and transfers the settlement reward to the caller"
      },
      "tokenHandler()": {
        "notice": "Principal/Yield tokens deployer"
      },
      "yt(address,uint256)": {
        "notice": "Returns address of Yield Token"
      }
    },
    "notice": "You can use this contract to issue, combine, and redeem Sense ERC20 Principal and Yield Tokens",
    "version": 1
  },
  "storageLayout": {
    "storage": [
      {
        "astId": 14650,
        "contract": "@sense-finance/v1-core/src/Divider.sol:Divider",
        "label": "isTrusted",
        "offset": 0,
        "slot": "0",
        "type": "t_mapping(t_address,t_bool)"
      },
      {
        "astId": 1282,
        "contract": "@sense-finance/v1-core/src/Divider.sol:Divider",
        "label": "reentrancyStatus",
        "offset": 0,
        "slot": "1",
        "type": "t_uint256"
      },
      {
        "astId": 97,
        "contract": "@sense-finance/v1-core/src/Divider.sol:Divider",
        "label": "_paused",
        "offset": 0,
        "slot": "2",
        "type": "t_bool"
      },
      {
        "astId": 1459,
        "contract": "@sense-finance/v1-core/src/Divider.sol:Divider",
        "label": "periphery",
        "offset": 1,
        "slot": "2",
        "type": "t_address"
      },
      {
        "astId": 1468,
        "contract": "@sense-finance/v1-core/src/Divider.sol:Divider",
        "label": "permissionless",
        "offset": 21,
        "slot": "2",
        "type": "t_bool"
      },
      {
        "astId": 1472,
        "contract": "@sense-finance/v1-core/src/Divider.sol:Divider",
        "label": "guarded",
        "offset": 22,
        "slot": "2",
        "type": "t_bool"
      },
      {
        "astId": 1475,
        "contract": "@sense-finance/v1-core/src/Divider.sol:Divider",
        "label": "adapterCounter",
        "offset": 0,
        "slot": "3",
        "type": "t_uint248"
      },
      {
        "astId": 1480,
        "contract": "@sense-finance/v1-core/src/Divider.sol:Divider",
        "label": "adapterAddresses",
        "offset": 0,
        "slot": "4",
        "type": "t_mapping(t_uint256,t_address)"
      },
      {
        "astId": 1486,
        "contract": "@sense-finance/v1-core/src/Divider.sol:Divider",
        "label": "adapterMeta",
        "offset": 0,
        "slot": "5",
        "type": "t_mapping(t_address,t_struct(AdapterMeta)1533_storage)"
      },
      {
        "astId": 1494,
        "contract": "@sense-finance/v1-core/src/Divider.sol:Divider",
        "label": "series",
        "offset": 0,
        "slot": "6",
        "type": "t_mapping(t_address,t_mapping(t_uint256,t_struct(Series)1522_storage))"
      },
      {
        "astId": 1503,
        "contract": "@sense-finance/v1-core/src/Divider.sol:Divider",
        "label": "lscales",
        "offset": 0,
        "slot": "7",
        "type": "t_mapping(t_address,t_mapping(t_uint256,t_mapping(t_address,t_uint256)))"
      }
    ],
    "types": {
      "t_address": {
        "encoding": "inplace",
        "label": "address",
        "numberOfBytes": "20"
      },
      "t_bool": {
        "encoding": "inplace",
        "label": "bool",
        "numberOfBytes": "1"
      },
      "t_mapping(t_address,t_bool)": {
        "encoding": "mapping",
        "key": "t_address",
        "label": "mapping(address => bool)",
        "numberOfBytes": "32",
        "value": "t_bool"
      },
      "t_mapping(t_address,t_mapping(t_uint256,t_mapping(t_address,t_uint256)))": {
        "encoding": "mapping",
        "key": "t_address",
        "label": "mapping(address => mapping(uint256 => mapping(address => uint256)))",
        "numberOfBytes": "32",
        "value": "t_mapping(t_uint256,t_mapping(t_address,t_uint256))"
      },
      "t_mapping(t_address,t_mapping(t_uint256,t_struct(Series)1522_storage))": {
        "encoding": "mapping",
        "key": "t_address",
        "label": "mapping(address => mapping(uint256 => struct Divider.Series))",
        "numberOfBytes": "32",
        "value": "t_mapping(t_uint256,t_struct(Series)1522_storage)"
      },
      "t_mapping(t_address,t_struct(AdapterMeta)1533_storage)": {
        "encoding": "mapping",
        "key": "t_address",
        "label": "mapping(address => struct Divider.AdapterMeta)",
        "numberOfBytes": "32",
        "value": "t_struct(AdapterMeta)1533_storage"
      },
      "t_mapping(t_address,t_uint256)": {
        "encoding": "mapping",
        "key": "t_address",
        "label": "mapping(address => uint256)",
        "numberOfBytes": "32",
        "value": "t_uint256"
      },
      "t_mapping(t_uint256,t_address)": {
        "encoding": "mapping",
        "key": "t_uint256",
        "label": "mapping(uint256 => address)",
        "numberOfBytes": "32",
        "value": "t_address"
      },
      "t_mapping(t_uint256,t_mapping(t_address,t_uint256))": {
        "encoding": "mapping",
        "key": "t_uint256",
        "label": "mapping(uint256 => mapping(address => uint256))",
        "numberOfBytes": "32",
        "value": "t_mapping(t_address,t_uint256)"
      },
      "t_mapping(t_uint256,t_struct(Series)1522_storage)": {
        "encoding": "mapping",
        "key": "t_uint256",
        "label": "mapping(uint256 => struct Divider.Series)",
        "numberOfBytes": "32",
        "value": "t_struct(Series)1522_storage"
      },
      "t_struct(AdapterMeta)1533_storage": {
        "encoding": "inplace",
        "label": "struct Divider.AdapterMeta",
        "members": [
          {
            "astId": 1524,
            "contract": "@sense-finance/v1-core/src/Divider.sol:Divider",
            "label": "id",
            "offset": 0,
            "slot": "0",
            "type": "t_uint248"
          },
          {
            "astId": 1526,
            "contract": "@sense-finance/v1-core/src/Divider.sol:Divider",
            "label": "enabled",
            "offset": 31,
            "slot": "0",
            "type": "t_bool"
          },
          {
            "astId": 1528,
            "contract": "@sense-finance/v1-core/src/Divider.sol:Divider",
            "label": "guard",
            "offset": 0,
            "slot": "1",
            "type": "t_uint256"
          },
          {
            "astId": 1530,
            "contract": "@sense-finance/v1-core/src/Divider.sol:Divider",
            "label": "uDecimals",
            "offset": 0,
            "slot": "2",
            "type": "t_uint8"
          },
          {
            "astId": 1532,
            "contract": "@sense-finance/v1-core/src/Divider.sol:Divider",
            "label": "level",
            "offset": 1,
            "slot": "2",
            "type": "t_uint248"
          }
        ],
        "numberOfBytes": "96"
      },
      "t_struct(Series)1522_storage": {
        "encoding": "inplace",
        "label": "struct Divider.Series",
        "members": [
          {
            "astId": 1505,
            "contract": "@sense-finance/v1-core/src/Divider.sol:Divider",
            "label": "pt",
            "offset": 0,
            "slot": "0",
            "type": "t_address"
          },
          {
            "astId": 1507,
            "contract": "@sense-finance/v1-core/src/Divider.sol:Divider",
            "label": "issuance",
            "offset": 20,
            "slot": "0",
            "type": "t_uint48"
          },
          {
            "astId": 1509,
            "contract": "@sense-finance/v1-core/src/Divider.sol:Divider",
            "label": "yt",
            "offset": 0,
            "slot": "1",
            "type": "t_address"
          },
          {
            "astId": 1511,
            "contract": "@sense-finance/v1-core/src/Divider.sol:Divider",
            "label": "tilt",
            "offset": 20,
            "slot": "1",
            "type": "t_uint96"
          },
          {
            "astId": 1513,
            "contract": "@sense-finance/v1-core/src/Divider.sol:Divider",
            "label": "sponsor",
            "offset": 0,
            "slot": "2",
            "type": "t_address"
          },
          {
            "astId": 1515,
            "contract": "@sense-finance/v1-core/src/Divider.sol:Divider",
            "label": "reward",
            "offset": 0,
            "slot": "3",
            "type": "t_uint256"
          },
          {
            "astId": 1517,
            "contract": "@sense-finance/v1-core/src/Divider.sol:Divider",
            "label": "iscale",
            "offset": 0,
            "slot": "4",
            "type": "t_uint256"
          },
          {
            "astId": 1519,
            "contract": "@sense-finance/v1-core/src/Divider.sol:Divider",
            "label": "mscale",
            "offset": 0,
            "slot": "5",
            "type": "t_uint256"
          },
          {
            "astId": 1521,
            "contract": "@sense-finance/v1-core/src/Divider.sol:Divider",
            "label": "maxscale",
            "offset": 0,
            "slot": "6",
            "type": "t_uint256"
          }
        ],
        "numberOfBytes": "224"
      },
      "t_uint248": {
        "encoding": "inplace",
        "label": "uint248",
        "numberOfBytes": "31"
      },
      "t_uint256": {
        "encoding": "inplace",
        "label": "uint256",
        "numberOfBytes": "32"
      },
      "t_uint48": {
        "encoding": "inplace",
        "label": "uint48",
        "numberOfBytes": "6"
      },
      "t_uint8": {
        "encoding": "inplace",
        "label": "uint8",
        "numberOfBytes": "1"
      },
      "t_uint96": {
        "encoding": "inplace",
        "label": "uint96",
        "numberOfBytes": "12"
      }
    }
  }
}