{
  "address": "0xc65d66650f17319EfA2168E1cA941FEE3739ce16",
  "abi": [
    {
      "inputs": [
        {
          "internalType": "contract IVault",
          "name": "_vault",
          "type": "address"
        },
        {
          "internalType": "address",
          "name": "_divider",
          "type": "address"
        },
        {
          "internalType": "uint256",
          "name": "_ts",
          "type": "uint256"
        },
        {
          "internalType": "uint256",
          "name": "_g1",
          "type": "uint256"
        },
        {
          "internalType": "uint256",
          "name": "_g2",
          "type": "uint256"
        },
        {
          "internalType": "bool",
          "name": "_oracleEnabled",
          "type": "bool"
        }
      ],
      "stateMutability": "nonpayable",
      "type": "constructor"
    },
    {
      "anonymous": false,
      "inputs": [
        {
          "indexed": true,
          "internalType": "address",
          "name": "user",
          "type": "address"
        },
        {
          "indexed": false,
          "internalType": "bool",
          "name": "trusted",
          "type": "bool"
        }
      ],
      "name": "UserTrustUpdated",
      "type": "event"
    },
    {
      "inputs": [
        {
          "internalType": "address",
          "name": "adapter",
          "type": "address"
        },
        {
          "internalType": "uint256",
          "name": "maturity",
          "type": "uint256"
        }
      ],
      "name": "create",
      "outputs": [
        {
          "internalType": "address",
          "name": "pool",
          "type": "address"
        }
      ],
      "stateMutability": "nonpayable",
      "type": "function"
    },
    {
      "inputs": [],
      "name": "divider",
      "outputs": [
        {
          "internalType": "address",
          "name": "",
          "type": "address"
        }
      ],
      "stateMutability": "view",
      "type": "function"
    },
    {
      "inputs": [],
      "name": "g1",
      "outputs": [
        {
          "internalType": "uint256",
          "name": "",
          "type": "uint256"
        }
      ],
      "stateMutability": "view",
      "type": "function"
    },
    {
      "inputs": [],
      "name": "g2",
      "outputs": [
        {
          "internalType": "uint256",
          "name": "",
          "type": "uint256"
        }
      ],
      "stateMutability": "view",
      "type": "function"
    },
    {
      "inputs": [
        {
          "internalType": "address",
          "name": "",
          "type": "address"
        }
      ],
      "name": "isTrusted",
      "outputs": [
        {
          "internalType": "bool",
          "name": "",
          "type": "bool"
        }
      ],
      "stateMutability": "view",
      "type": "function"
    },
    {
      "inputs": [],
      "name": "oracleEnabled",
      "outputs": [
        {
          "internalType": "bool",
          "name": "",
          "type": "bool"
        }
      ],
      "stateMutability": "view",
      "type": "function"
    },
    {
      "inputs": [
        {
          "internalType": "address",
          "name": "",
          "type": "address"
        },
        {
          "internalType": "uint256",
          "name": "",
          "type": "uint256"
        }
      ],
      "name": "pools",
      "outputs": [
        {
          "internalType": "address",
          "name": "",
          "type": "address"
        }
      ],
      "stateMutability": "view",
      "type": "function"
    },
    {
      "inputs": [
        {
          "internalType": "address",
          "name": "user",
          "type": "address"
        },
        {
          "internalType": "bool",
          "name": "trusted",
          "type": "bool"
        }
      ],
      "name": "setIsTrusted",
      "outputs": [],
      "stateMutability": "nonpayable",
      "type": "function"
    },
    {
      "inputs": [
        {
          "internalType": "uint256",
          "name": "_ts",
          "type": "uint256"
        },
        {
          "internalType": "uint256",
          "name": "_g1",
          "type": "uint256"
        },
        {
          "internalType": "uint256",
          "name": "_g2",
          "type": "uint256"
        },
        {
          "internalType": "bool",
          "name": "_oracleEnabled",
          "type": "bool"
        }
      ],
      "name": "setParams",
      "outputs": [],
      "stateMutability": "nonpayable",
      "type": "function"
    },
    {
      "inputs": [],
      "name": "ts",
      "outputs": [
        {
          "internalType": "uint256",
          "name": "",
          "type": "uint256"
        }
      ],
      "stateMutability": "view",
      "type": "function"
    },
    {
      "inputs": [],
      "name": "vault",
      "outputs": [
        {
          "internalType": "contract IVault",
          "name": "",
          "type": "address"
        }
      ],
      "stateMutability": "view",
      "type": "function"
    }
  ],
  "transactionHash": "0x96b7289e70cd51e0e8534f557f082bda64ff79ff079582c299d82cd1e591a0c3",
  "args": [
    "0xBA12222222228d8Ba445958a75a0704d566BF2C8",
    "0x6961e8650A1548825f3e17335b7Db2158955C22f",
    "3162315320",
    "950000000000000000",
    "1052631578947368421",
    true
  ],
  "solcInputHash": "dc9bd2ff6300f1de8ef59b91525ab065",
  "bytecode": "0x60c060405234801561001057600080fd5b50604051615e94380380615e9483398101604081905261002f916100c1565b3360008181526020818152604091829020805460ff191660019081179091558251908152915183927fe95aec380cae16330d146d5499ef7db6f3657e477104a733e771bc09e500d98692908290030190a250606095861b6001600160601b03199081166080529490951b90931660a0526002919091556003556004556005805460ff1916911515919091179055610146565b60008060008060008060c087890312156100d9578182fd5b86516100e48161012e565b60208801519096506100f58161012e565b8095505060408701519350606087015192506080870151915060a08701518015158114610120578182fd5b809150509295509295509295565b6001600160a01b038116811461014357600080fd5b50565b60805160601c60a05160601c615d1b6101796000398061022352806104ed52508061020052806105675250615d1b6000f3fe60806040523480156200001157600080fd5b5060043610620000dc5760003560e01c8063756a24e4116200008d578063bdd8a3661162000063578063bdd8a36614620001aa578063e86d60bf14620001b4578063fbfa77cf14620001be57620000dc565b8063756a24e414620001635780638f38a555146200017c57806396d64879146200019357620000dc565b80631852288b11620000c35780631852288b1462000129578063378efa3714620001405780636970a924146200014a57620000dc565b80630ecaea7314620000e15780631393916a1462000110575b600080fd5b620000f8620000f236600462000694565b620001c8565b60405162000107919062000703565b60405180910390f35b62000127620001213660046200065b565b62000371565b005b620001276200013a366004620006c2565b62000434565b620000f8620004eb565b620001546200050f565b60405162000107919062000785565b6200016d62000515565b60405162000107919062000730565b620000f86200018d36600462000694565b6200051e565b6200016d620001a436600462000616565b62000544565b6200015462000559565b620001546200055f565b620000f862000565565b6001600160a01b0382811660009081526001602090815260408083208584529091528120549091620001fe911615606862000589565b7f000000000000000000000000000000000000000000000000000000000000000083837f00000000000000000000000000000000000000000000000000000000000000006001600160a01b031663d10eb4b987876040518363ffffffff1660e01b81526004016200027192919062000717565b602060405180830381600087803b1580156200028c57600080fd5b505af1158015620002a1573d6000803e3d6000fd5b505050506040513d601f19601f82011682018060405250810190620002c791906200063c565b60025460035460045460055460405160ff90911690620002e790620005f2565b620002fa9897969594939291906200073b565b604051809103906000f08015801562000317573d6000803e3d6000fd5b506001600160a01b0393841660009081526001602090815260408083209583529490529290922080547fffffffffffffffffffffffff00000000000000000000000000000000000000001693831693909317909255919050565b3360009081526020819052604090205460ff16620003d6576040805162461bcd60e51b815260206004820152600960248201527f554e545255535445440000000000000000000000000000000000000000000000604482015290519081900360640190fd5b6001600160a01b03821660008181526020818152604091829020805460ff1916851515908117909155825190815291517fe95aec380cae16330d146d5499ef7db6f3657e477104a733e771bc09e500d9869281900390910190a25050565b3360009081526020819052604090205460ff1662000499576040805162461bcd60e51b815260206004820152600960248201527f554e545255535445440000000000000000000000000000000000000000000000604482015290519081900360640190fd5b620004b1670de0b6b3a7640000841115606562000589565b620004c9670de0b6b3a7640000831015606662000589565b6002939093556003919091556004556005805460ff1916911515919091179055565b7f000000000000000000000000000000000000000000000000000000000000000081565b60045481565b60055460ff1681565b60016020908152600092835260408084209091529082529020546001600160a01b031681565b60006020819052908152604090205460ff1681565b60035481565b60025481565b7f000000000000000000000000000000000000000000000000000000000000000081565b816200059a576200059a816200059e565b5050565b62461bcd60e51b600090815260206004526007602452673f534e5323000030600a808404818106603090810160081b95839006959095019082900491820690940160101b939093010160c81b604452606490fd5b61553e80620007a883390190565b803580151581146200061157600080fd5b919050565b60006020828403121562000628578081fd5b813562000635816200078e565b9392505050565b6000602082840312156200064e578081fd5b815162000635816200078e565b600080604083850312156200066e578081fd5b82356200067b816200078e565b91506200068b6020840162000600565b90509250929050565b60008060408385031215620006a7578182fd5b8235620006b4816200078e565b946020939093013593505050565b60008060008060808587031215620006d8578182fd5b843593506020850135925060408501359150620006f86060860162000600565b905092959194509250565b6001600160a01b0391909116815260200190565b6001600160a01b03929092168252602082015260400190565b901515815260200190565b6001600160a01b03988916815296881660208801526040870195909552929095166060850152608084015260a083019390935260c082019290925290151560e08201526101000190565b90815260200190565b6001600160a01b0381168114620007a457600080fd5b5056fe6102a06040527f6e71edae12b1b97f4d1f60370fef10105fa2faae0126114a169c64845d6126c960e0523480156200003657600080fd5b506040516200553e3803806200553e8339810160408190526200005991620007c2565b866001600160a01b03166306fdde036040518163ffffffff1660e01b815260040160006040518083038186803b1580156200009357600080fd5b505afa158015620000a8573d6000803e3d6000fd5b505050506040513d6000823e601f3d908101601f19168201604052620000d2919081019062000856565b876001600160a01b03166395d89b416040518163ffffffff1660e01b815260040160006040518083038186803b1580156200010c57600080fd5b505afa15801562000121573d6000803e3d6000fd5b505050506040513d6000823e601f3d908101601f191682016040526200014b919081019062000856565b8180604051806040016040528060018152602001603160f81b8152508484816003908051906020019062000181929190620006d7565b50805162000197906004906020840190620006d7565b50506005805460ff19166012179055508151602092830120608052805191012060a05250507f8b73c3c69bb8fe3d512ecc4cf759cc79239f7b179b0ffacaa9a75d522b39400f60c052506040516309b2760f60e01b81526000906001600160a01b038a16906309b2760f906200021390600290600401620009d2565b602060405180830381600087803b1580156200022e57600080fd5b505af115801562000243573d6000803e3d6000fd5b505050506040513d601f19601f82011682018060405250810190620002699190620007a9565b90506000886001600160a01b031663d4b839926040518163ffffffff1660e01b815260040160206040518083038186803b158015620002a757600080fd5b505afa158015620002bc573d6000803e3d6000fd5b505050506040513d601f19601f82011682018060405250810190620002e2919062000783565b6040805160028082526060808301845293945090916020830190803683370190505090506000826001600160a01b0316896001600160a01b0316106200032a5760016200032d565b60005b60ff169050888282815181106200034057fe5b60200260200101906001600160a01b031690816001600160a01b031681525050828282600103815181106200037157fe5b6001600160a01b03928316602091820292909201015260408051600280825260608201909252918e16916366a9c7d29187918691816020016020820280368337019050506040518463ffffffff1660e01b8152600401620003d59392919062000938565b600060405180830381600087803b158015620003f057600080fd5b505af115801562000405573d6000803e3d6000fd5b5050506001600160601b031960608e901b1661026052506101c0849052815182906000906200043057fe5b60200260200101516001600160a01b03166101e0816001600160a01b031660601b81525050816001815181106200046357fe5b60200260200101516001600160a01b0316610200816001600160a01b031660601b815250508b6001600160a01b031663d2946c2b6040518163ffffffff1660e01b815260040160206040518083038186803b158015620004c257600080fd5b505afa158015620004d7573d6000803e3d6000fd5b505050506040513d601f19601f82011682018060405250810190620004fd919062000783565b6001600160a01b0316610280816001600160a01b031660601b81525050620005a960128a6001600160a01b031663313ce5676040518163ffffffff1660e01b815260040160206040518083038186803b1580156200055a57600080fd5b505afa1580156200056f573d6000803e3d6000fd5b505050506040513d601f19601f8201168201806040525081019062000595919062000915565b60ff166200065760201b62001caf1760201c565b600a0a6102208181525050620005f46012846001600160a01b031663313ce5676040518163ffffffff1660e01b815260040160206040518083038186803b1580156200055a57600080fd5b600a0a61024052610180969096525050506101a091909152610160929092526101405260609390931b6001600160601b031916610100525061012052600b805460ff60301b19166601000000000000921515929092029190911790555062000a00565b6000620006698383111560016200066f565b50900390565b816200068057620006808162000684565b5050565b62461bcd60e51b6000908152602060045260076024526642414c23000030600a808404818106603090810160081b95839006959095019082900491820690940160101b939093010160c81b604452606490fd5b828054600181600116156101000203166002900490600052602060002090601f0160209004810192826200070f57600085556200075a565b82601f106200072a57805160ff19168380011785556200075a565b828001600101855582156200075a579182015b828111156200075a5782518255916020019190600101906200073d565b50620007689291506200076c565b5090565b5b808211156200076857600081556001016200076d565b60006020828403121562000795578081fd5b8151620007a281620009e7565b9392505050565b600060208284031215620007bb578081fd5b5051919050565b600080600080600080600080610100898b031215620007df578384fd5b8851620007ec81620009e7565b60208a0151909850620007ff81620009e7565b60408a015160608b015191985096506200081981620009e7565b809550506080890151935060a0890151925060c0890151915060e0890151801515811462000845578182fd5b809150509295985092959890939650565b6000602080838503121562000869578182fd5b82516001600160401b038082111562000880578384fd5b818501915085601f83011262000894578384fd5b815181811115620008a157fe5b604051601f8201601f1916810185018381118282101715620008bf57fe5b6040528181528382018501881015620008d6578586fd5b8592505b81831015620008f95783830185015181840186015291840191620008da565b818311156200090a57858583830101525b979650505050505050565b60006020828403121562000927578081fd5b815160ff81168114620007a2578182fd5b60006060820185835260206060818501528186518084526080860191508288019350845b81811015620009835784516001600160a01b0316835293830193918301916001016200095c565b505084810360408601528551808252908201925081860190845b81811015620009c45782516001600160a01b0316855293830193918301916001016200099d565b509298975050505050505050565b6020810160038310620009e157fe5b91905290565b6001600160a01b0381168114620009fd57600080fd5b50565b60805160a05160c05160e0516101005160601c610120516101405161016051610180516101a0516101c0516101e05160601c6102005160601c61022051610240516102605160601c6102805160601c61493762000c0760003980610c455280611a75525080610e2b528061133352508061286a52508061289152505080610eb35250806108655280611362525080610a675280612986525080611675528061296052508061145f5280611b73528061243752806127ca52806129295250806109f55280610b425280610bcd5280610c015280610ef05280610f1952806112b0528061149d52806114db528061192552806119855280611a0a5280611a3e528061217852806121bb52806121f6528061223752806122e9528061249b52806124d552806125ac52806125e8528061262a528061266952806126af52806126e552806127185280612b135280612b565280612b915280612bd95280612c0d5280612c965280612cee5280612d395280612d6d5280612df95280612e325280612e7d5280612ec852508061073c52806108c6528061090d52806113fa528061143152806118275280611b995280611c6d52806123d252806124095280612765528061279c52806128c752806128fe52508061053a528061093a5280610f9a52806118895280611bd25250806116c6525080611e9b525080611edd525080611ebc52506149376000f3fe608060405234801561001057600080fd5b50600436106102925760003560e01c806370a0823111610160578063b10be739116100d8578063dd62ed3e1161008c578063e86d60bf11610071578063e86d60bf14610515578063f3f586e51461051d578063ffd088eb1461053057610292565b8063dd62ed3e146104fa578063e6a69ab81461050d57610292565b8063bdd8a366116100bd578063bdd8a366146104cc578063d505accf146104d4578063d5c096c4146104e757610292565b8063b10be739146104b1578063b48b5b40146104c457610292565b806395d89b411161012f578063a457c2d711610114578063a457c2d714610478578063a503e6281461048b578063a9059cbb1461049e57610292565b806395d89b411461045d5780639d2c110c1461046557610292565b806370a082311461040e57806374f3b009146104215780637ecebe00146104425780638d928af81461045557610292565b80633331bc361161020e5780635863056d116101c25780636970a924116101a75780636970a924146103de5780636b843239146103e65780636f4830311461040657610292565b80635863056d146103a257806360d1507c146103b857610292565b806338fff2d0116101f357806338fff2d014610374578063395093511461037c578063580702231461038f57610292565b80633331bc36146103575780633644e5151461036c57610292565b806318160ddd11610265578063204f83f91161024a578063204f83f91461032757806323b872dd1461032f578063313ce5671461034257610292565b806318160ddd146102ff5780631dccd8301461030757610292565b806303eadcfc1461029757806306fdde03146102b55780630845d030146102ca578063095ea7b3146102df575b600080fd5b61029f610538565b6040516102ac91906146b8565b60405180910390f35b6102bd61055c565b6040516102ac9190614838565b6102d26105f2565b6040516102ac9190614795565b6102f26102ed36600461412b565b6105f9565b6040516102ac919061478a565b6102d2610610565b61031a6103153660046142f1565b610616565b6040516102ac9190614752565b6102d261073a565b6102f261033d366004614076565b61075e565b61034a6107d4565b6040516102ac9190614899565b61036a61036536600461462f565b6107dd565b005b6102d2610854565b6102d2610863565b6102f261038a36600461412b565b610887565b6102d261039d366004614617565b6108c2565b6103aa6109f3565b6040516102ac92919061488b565b6103cb6103c6366004614617565b610a1d565b6040516102ac979695949392919061479e565b6102d2610a65565b6103f96103f4366004614222565b610a89565b6040516102ac91906146cc565b6102d2610b40565b6102d261041c366004614022565b610b64565b61043461042f3660046143f1565b610b7f565b6040516102ac929190614765565b6102d2610450366004614022565b610e0e565b61029f610e29565b6102bd610e4d565b6102d2610473366004614520565b610eae565b6102f261048636600461412b565b611169565b6102d2610499366004614617565b6111a7565b6102f26104ac36600461412b565b6115cc565b6102d26104bf3660046144ee565b6115d9565b6102d261166e565b6102d2611673565b61036a6104e23660046140b6565b611697565b6104346104f53660046143f1565b611807565b6102d261050836600461403e565b611b3e565b6102d2611b69565b6102d2611b71565b6102d261052b366004614617565b611b95565b6102d2611ca9565b7f000000000000000000000000000000000000000000000000000000000000000081565b60038054604080516020601f60026000196101006001881615020190951694909404938401819004810282018101909252828152606093909290918301828280156105e85780601f106105bd576101008083540402835291602001916105e8565b820191906000526020600020905b8154815290600101906020018083116105cb57829003601f168201915b5050505050905090565b620f424081565b6000610606338484611cc5565b5060015b92915050565b60025490565b6060815167ffffffffffffffff8111801561063057600080fd5b5060405190808252806020026020018201604052801561065a578160200160208202803683370190505b5090506000610667611d27565b905060005b83518110156107335773d782B9Bc0A7b32cBFe19e9E0E6f6dc99bf6Ef9896379eaef82600786848151811061069d57fe5b6020026020010151856040518463ffffffff1660e01b81526004016106c493929190614816565b60206040518083038186803b1580156106dc57600080fd5b505af41580156106f0573d6000803e3d6000fd5b505050506040513d601f19601f820116820180604052508101906107149190614508565b83828151811061072057fe5b602090810291909101015260010161066c565b5050919050565b7f000000000000000000000000000000000000000000000000000000000000000081565b60008061076b8533611b3e565b905061078f336001600160a01b03871614806107875750838210155b61019e611d31565b61079a858585611d43565b336001600160a01b038616148015906107b557506000198114155b156107c7576107c78533858403611cc5565b60019150505b9392505050565b60055460ff1690565b6107f781831080156107f0575060148211155b6064611d31565b600061080c6001600080600080600080611e2b565b9050825b8281101561084e5760008181526007602052604090205461083090611e8b565b6108465760008181526007602052604090208290555b600101610810565b50505050565b600061085e611e97565b905090565b7f000000000000000000000000000000000000000000000000000000000000000090565b3360008181526001602090815260408083206001600160a01b038716845290915281205490916106069185906108bd9086611f55565b611cc5565b60007f000000000000000000000000000000000000000000000000000000000000000042106108f3575060006109ee565b6109eb670de0b6b3a76400006109e56109326301e13380427f000000000000000000000000000000000000000000000000000000000000000003611f67565b6109df6109d07f00000000000000000000000000000000000000000000000000000000000000006001600160a01b031663226778496040518163ffffffff1660e01b815260040160206040518083038186803b15801561099157600080fd5b505afa1580156109a5573d6000803e3d6000fd5b505050506040513d601f19601f820116820180604052508101906109c99190614508565b8890611fb8565b670de0b6b3a764000090611f67565b90611fee565b90611caf565b90505b919050565b7f000000000000000000000000000000000000000000000000000000000000000090600182900390565b6000806000806000806000610a376014891061013b611d31565b6000610a428961203d565b9050610a4d8161204f565b959f949e50929c50909a509850965090945092505050565b7f000000000000000000000000000000000000000000000000000000000000000081565b6060815167ffffffffffffffff81118015610aa357600080fd5b50604051908082528060200260200182016040528015610acd578160200160208202803683370190505b5090506000610ada611d27565b9050610ae4613eeb565b60005b8451811015610b3857848181518110610afc57fe5b60200260200101519150610b1982600001518484602001516120b2565b848281518110610b2557fe5b6020908102919091010152600101610ae7565b505050919050565b7f000000000000000000000000000000000000000000000000000000000000000081565b6001600160a01b031660009081526020819052604090205490565b60608088610ba9610b8e610e29565b6001600160a01b0316336001600160a01b0316146064612164565b610bbd610bb4610863565b82146067612164565b610bc687612172565b610c3a86887f000000000000000000000000000000000000000000000000000000000000000081518110610bf657fe5b6020026020010151897f000000000000000000000000000000000000000000000000000000000000000060010381518110610c2d57fe5b6020026020010151612272565b8415610c7357610c737f0000000000000000000000000000000000000000000000000000000000000000610c6e89886123cc565b612595565b600084806020019051810190610c899190614508565b90506000610c9f610c98610610565b8390611f67565b604080516002808252606080830184529394509091602083019080368337019050509050610cea828b600081518110610cd457fe5b6020026020010151611fb890919063ffffffff16565b81600081518110610cf757fe5b602002602001018181525050610d14828b600181518110610cd457fe5b81600181518110610d2157fe5b602002602001018181525050610d368161259f565b610d408c84612695565b610d7b81600081518110610d5057fe5b60200260200101518b600081518110610d6557fe5b6020026020010151611caf90919063ffffffff16565b8a600081518110610d8857fe5b602002602001018181525050610db981600181518110610da457fe5b60200260200101518b600181518110610d6557fe5b8a600181518110610dc657fe5b602002602001018181525050610ddb8a61269f565b604080516002808252606082018352839260208301908036833701905050955095505050505b5097509795505050505050565b6001600160a01b031660009081526006602052604090205490565b7f000000000000000000000000000000000000000000000000000000000000000090565b60048054604080516020601f60026000196101006001881615020190951694909404938401819004810282018101909252828152606093909290918301828280156105e85780601f106105bd576101008083540402835291602001916105e8565b6000807f00000000000000000000000000000000000000000000000000000000000000006001600160a01b031685602001516001600160a01b031614610f17577f0000000000000000000000000000000000000000000000000000000000000000600114610f3a565b7f0000000000000000000000000000000000000000000000000000000000000000155b90506000610f4782612861565b90506000610f558315612861565b9050610f6186836128b5565b9550610f6d85826128b5565b9450610f968760a0015184610f825786610f84565b875b85610f8f5788610f91565b875b612272565b60007f00000000000000000000000000000000000000000000000000000000000000006001600160a01b031663f51e181a6040518163ffffffff1660e01b8152600401602060405180830381600087803b158015610ff357600080fd5b505af1158015611007573d6000803e3d6000fd5b505050506040513d601f19601f8201168201806040525081019061102b9190614508565b905083156110635761104561103e610610565b8890611f55565b965061105c60085487611fb890919063ffffffff16565b9550611088565b600854611071908890611fb8565b965061108561107e610610565b8790611f55565b95505b60008851600181111561109757fe5b1415611109576110ab8860600151846128b5565b6060890152836110ca5760608801516110c49082611fb8565b60608901525b60006110de8560018b606001518b8b6128c1565b905084156110f3576110f08183611f67565b90505b6110fd8184612a61565b955050505050506107cd565b6111178860600151836128b5565b606089015283156111375760608801516111319082611fb8565b60608901525b600061114b8560008b606001518b8b6128c1565b90508461115f5761115c8183611f67565b90505b6110fd8185612a74565b6000806111763385611b3e565b90508083106111905761118b33856000611cc5565b61119d565b61119d3385858403611cc5565b5060019392505050565b60408051600180825281830190925260009160609190816020015b6111ca613f02565b8152602001906001900390816111c25790505060408051606081019091529091508060008152602001848152602001610e108152508160008151811061120c57fe5b60209081029190910101526040517f1dccd8300000000000000000000000000000000000000000000000000000000081526060903090631dccd83090611256908590600401614710565b60006040518083038186803b15801561126e57600080fd5b505afa158015611282573d6000803e3d6000fd5b505050506040513d6000823e601f3d908101601f191682016040526112aa91908101906143be565b905060007f000000000000000000000000000000000000000000000000000000000000000060011461130a57611305826000815181106112e657fe5b6020026020010151670de0b6b3a7640000611f6790919063ffffffff16565b611320565b8160008151811061131757fe5b60200260200101515b9050600061132d826108c2565b905060607f00000000000000000000000000000000000000000000000000000000000000006001600160a01b031663f94d46687f00000000000000000000000000000000000000000000000000000000000000006040518263ffffffff1660e01b815260040161139d9190614795565b60006040518083038186803b1580156113b557600080fd5b505afa1580156113c9573d6000803e3d6000fd5b505050506040513d6000823e601f3d908101601f191682016040526113f19190810190614156565b509150506000427f000000000000000000000000000000000000000000000000000000000000000011611425576000611453565b670de0b6b3a7640000427f000000000000000000000000000000000000000000000000000000000000000003025b905060006114896114847f000000000000000000000000000000000000000000000000000000000000000084611fb8565b612a80565b905060006115206114c9836109df600854887f000000000000000000000000000000000000000000000000000000000000000060010381518110610cd457fe5b61151a846109df6114d8610610565b897f00000000000000000000000000000000000000000000000000000000000000008151811061150457fe5b6020026020010151611f5590919063ffffffff16565b90611f55565b9050600061155e611539670de0b6b3a764000085611f67565b6109df611557670de0b6b3a764000061151a6109d08985848f611f55565b8590611f67565b90506000611583610c9861157a670de0b6b3a76400008a611f55565b60085490611fb8565b90506115bc611590610610565b6115b66115af8b6115a96115a2610610565b8890611caf565b90611fb8565b8490611f55565b90611f67565b9c9b505050505050505050505050565b6000610606338484611d43565b600073d782B9Bc0A7b32cBFe19e9E0E6f6dc99bf6Ef989630397bee0600784611600611d27565b6040518463ffffffff1660e01b815260040161161e939291906147ce565b60206040518083038186803b15801561163657600080fd5b505af415801561164a573d6000803e3d6000fd5b505050506040513d601f19601f820116820180604052508101906109eb9190614508565b601490565b7f000000000000000000000000000000000000000000000000000000000000000081565b6116a58442111560d1611d31565b6001600160a01b0380881660008181526006602090815260408083205481517f00000000000000000000000000000000000000000000000000000000000000008185015280830195909552948b166060850152608084018a905260a0840185905260c08085018a90528151808603909101815260e0909401905282519201919091209061173182612aa6565b9050600060018288888860405160008152602001604052604051808581526020018460ff1681526020018381526020018281526020019450505050506020604051602081039080840390855afa15801561178f573d6000803e3d6000fd5b5050604051601f19015191506117d190506001600160a01b038216158015906117c957508b6001600160a01b0316826001600160a01b0316145b6101f8611d31565b6001600160a01b038b1660009081526006602052604090206001850190556117fa8b8b8b611cc5565b5050505050505050505050565b60608088611816610b8e610e29565b611821610bb4610863565b61184f427f000000000000000000000000000000000000000000000000000000000000000010156069612164565b60608480602001905181019061186591906143be565b905061187088612172565b61187981612172565b611881610610565b611a035760007f00000000000000000000000000000000000000000000000000000000000000006001600160a01b031663f51e181a6040518163ffffffff1660e01b8152600401602060405180830381600087803b1580156118e257600080fd5b505af11580156118f6573d6000803e3d6000fd5b505050506040513d601f19601f8201168201806040525081019061191a9190614508565b9050600061195182847f000000000000000000000000000000000000000000000000000000000000000060010381518110610cd457fe5b90506119616000620f4240612595565b6119728b610c6e83620f4240611caf565b61197b83612b0d565b81600881905550827f0000000000000000000000000000000000000000000000000000000000000000815181106119ae57fe5b6020026020010160008152508299506119c68a61269f565b82600260005b506040519080825280602002602001820160405280156119f6578160200160208202803683370190505b5095509550505050610e01565b611a6a87897f000000000000000000000000000000000000000000000000000000000000000081518110611a3357fe5b60200260200101518a7f000000000000000000000000000000000000000000000000000000000000000060010381518110610c2d57fe5b8515611a9e57611a9e7f0000000000000000000000000000000000000000000000000000000000000000610c6e8a896123cc565b60006060611aac838b612bcf565b91509150611ab981612b0d565b611ac38b83612595565b80600081518110611ad057fe5b60200260200101518a600081518110611ae557fe5b60200260200101818151019150818152505080600181518110611b0457fe5b60200260200101518a600181518110611b1957fe5b602002602001018181510191508181525050611b348a61269f565b80600260006119cc565b6001600160a01b03918216600090815260016020908152604080832093909416825291909152205490565b6301e1338081565b7f000000000000000000000000000000000000000000000000000000000000000081565b60007f00000000000000000000000000000000000000000000000000000000000000004210611bcd5750670de0b6b3a76400006109ee565b6109eb7f00000000000000000000000000000000000000000000000000000000000000006001600160a01b031663226778496040518163ffffffff1660e01b815260040160206040518083038186803b158015611c2957600080fd5b505afa158015611c3d573d6000803e3d6000fd5b505050506040513d601f19601f82011682018060405250810190611c619190614508565b6115b66109d0611c97427f0000000000000000000000000000000000000000000000000000000000000000036301e13380611f67565b6109df87670de0b6b3a7640000611f55565b615b6890565b6000611cbf838311156001611d31565b50900390565b6001600160a01b03808416600081815260016020908152604080832094871680845294825291829020859055815185815291517f8c5be1e5ebec7d5bd14f71427d1e84f3dd0314c0f7b2291e5b200ac8c7c3b9259281900390910190a3505050565b600b5461ffff1690565b81611d3f57611d3f81612f16565b5050565b611d5a6001600160a01b0384161515610198611d31565b611d716001600160a01b0383161515610199611d31565b611d7c8383836123c7565b6001600160a01b038316600090815260208190526040902054611da290826101a0612f69565b6001600160a01b038085166000908152602081905260408082209390935590841681522054611dd19082611f55565b6001600160a01b038084166000818152602081815260409182902094909455805185815290519193928716927fddf252ad1be2c89b69c2b068fc378daa952ba7f163c4a11628f55a4df523b3ef92918290030190a3505050565b6000611e378282612f7f565b611e4284601f612f83565b611e4d866054612f94565b611e5888606a612f83565b611e638a609f612f94565b611e6e8c60b5612f83565b611e798e60ea612f94565b17171717171798975050505050505050565b60006109eb8282612fa1565b60007f00000000000000000000000000000000000000000000000000000000000000007f00000000000000000000000000000000000000000000000000000000000000007f0000000000000000000000000000000000000000000000000000000000000000611f04612fab565b3060405160200180868152602001858152602001848152602001838152602001826001600160a01b031681526020019550505050505060405160208183030381529060405280519060200120905090565b60008282016107cd8482101583611d31565b6000611f768215156004611d31565b82611f835750600061060a565b670de0b6b3a764000083810290611fa690858381611f9d57fe5b04146005611d31565b828181611faf57fe5b0491505061060a565b6000828202611fdc841580611fd5575083858381611fd257fe5b04145b6003611d31565b670de0b6b3a764000090049392505050565b600080611ffb8484612faf565b9050600061201561200e836127106130d6565b6001611f55565b90508082101561202a5760009250505061060a565b6120348282611caf565b9250505061060a565b60009081526007602052604090205490565b600080600080600080600061206388613119565b965061206e88613126565b955061207988613133565b945061208488613140565b935061208f8861314d565b925061209a8861315a565b91506120a588611e8b565b9050919395979092949650565b6040517f34171a8500000000000000000000000000000000000000000000000000000000815260009073d782B9Bc0A7b32cBFe19e9E0E6f6dc99bf6Ef989906334171a859061210c906007908890889088906004016147f0565b60206040518083038186803b15801561212457600080fd5b505af4158015612138573d6000803e3d6000fd5b505050506040513d601f19601f8201168201806040525081019061215c9190614508565b949350505050565b81611d3f57611d3f81613167565b6121b8817f0000000000000000000000000000000000000000000000000000000000000000815181106121a157fe5b60200260200101516121b36001612861565b6131bb565b817f0000000000000000000000000000000000000000000000000000000000000000815181106121e457fe5b602002602001018181525050612234817f00000000000000000000000000000000000000000000000000000000000000006001038151811061222257fe5b60200260200101516121b36000612861565b817f00000000000000000000000000000000000000000000000000000000000000006001038151811061226357fe5b60200260200101818152505050565b600b546601000000000000900460ff16801561228d57508243115b80156122a05750662386f26fc100008110155b156123c75760006122d6670de0b6b3a76400006109e56122cb60085486611fb890919063ffffffff16565b6115b661103e610610565b905060006122e382611b95565b905060007f0000000000000000000000000000000000000000000000000000000000000000156123135781612325565b612325670de0b6b3a764000083611f67565b600b5490915060009061238a9063ffffffff620100008204169061ffff1661234c856131d5565b620f424088106123645761235f886131d5565b612370565b612370620f42406131d5565b600b546701000000000000009004601890810b900b613215565b600b5490915061ffff1681146123c257600b805465ffffffff00001916620100004263ffffffff16021761ffff191661ffff83161790555b505050505b505050565b600080427f0000000000000000000000000000000000000000000000000000000000000000116123fd57600061242b565b670de0b6b3a7640000427f000000000000000000000000000000000000000000000000000000000000000003025b9050600061245c6114847f000000000000000000000000000000000000000000000000000000000000000084611fb8565b9050600061248561247883600a54611fee90919063ffffffff16565b60095461151a9085611fee565b905060006124c4836109df612498610610565b8a7f00000000000000000000000000000000000000000000000000000000000000008151811061150457fe5b90506000612501846109df6008548b7f000000000000000000000000000000000000000000000000000000000000000060010381518110610cd457fe5b9050600061250f8383611f55565b9050838111612527576000965050505050505061060a565b600061254861253e670de0b6b3a764000088611f67565b6109df8488611f67565b9050600061256c826115b661256582670de0b6b3a7640000611caf565b8d90611fb8565b905061258661257a82612a80565b6115b6836115a9610610565b9b9a5050505050505050505050565b611d3f828261326d565b6125a96001612861565b817f0000000000000000000000000000000000000000000000000000000000000000815181106125d557fe5b6020026020010151816125e457fe5b04817f00000000000000000000000000000000000000000000000000000000000000008151811061261157fe5b6020026020010181815250506126276000612861565b817f00000000000000000000000000000000000000000000000000000000000000006001038151811061265657fe5b60200260200101518161266557fe5b04817f00000000000000000000000000000000000000000000000000000000000000006001038151811061226357fe5b611d3f8282613302565b60006126d86126ac610610565b837f00000000000000000000000000000000000000000000000000000000000000008151811061150457fe5b90506000612711600854847f000000000000000000000000000000000000000000000000000000000000000060010381518110610cd457fe5b90506000807f000000000000000000000000000000000000000000000000000000000000000061274557508290508161274b565b50819050825b600b546601000000000000900460ff1615612853576000427f0000000000000000000000000000000000000000000000000000000000000000116127905760006127be565b670de0b6b3a7640000427f000000000000000000000000000000000000000000000000000000000000000003025b905060006127ef6114847f000000000000000000000000000000000000000000000000000000000000000084611fb8565b905061281061280b6128018584611fee565b61151a8785611fee565b6131d5565b600b805460189290920b78ffffffffffffffffffffffffffffffffffffffffffffffffff166701000000000000000266ffffffffffffff90921691909117905550505b600991909155600a55505050565b60008161288e577f00000000000000000000000000000000000000000000000000000000000000006109eb565b507f0000000000000000000000000000000000000000000000000000000000000000919050565b60006107cd83836131bb565b600080427f0000000000000000000000000000000000000000000000000000000000000000116128f2576000612920565b670de0b6b3a7640000427f000000000000000000000000000000000000000000000000000000000000000003025b9050600061294e7f000000000000000000000000000000000000000000000000000000000000000083611fb8565b905060006129ac611484838b612984577f00000000000000000000000000000000000000000000000000000000000000006129a6565b7f00000000000000000000000000000000000000000000000000000000000000005b906130d6565b905060006129ba87836133b9565b905060006129c887846133b9565b905060006129ed848c6129e4576129df8a8d611caf565b6109df565b8b8b0190611fee565b90506000612a1a612a06670de0b6b3a764000087611f67565b612a14846109e58888611f55565b906133b9565b9050612a328c1580612a2b5750818a115b606a612164565b8b612a4657612a41818b611caf565b612a50565b612a508982611caf565b9d9c50505050505050505050505050565b6000818381612a6c57fe5b049392505050565b60006107cd83836133ee565b6000670de0b6b3a76400008210612a985760006109eb565b50670de0b6b3a76400000390565b6000612ab0611e97565b8260405160200180807f190100000000000000000000000000000000000000000000000000000000000081525060020183815260200182815260200192505050604051602081830303815290604052805190602001209050919050565b612b53817f000000000000000000000000000000000000000000000000000000000000000081518110612b3c57fe5b6020026020010151612b4e6001612861565b6133ee565b817f000000000000000000000000000000000000000000000000000000000000000081518110612b7f57fe5b602002602001018181525050612234817f000000000000000000000000000000000000000000000000000000000000000060010381518110612bbd57fe5b6020026020010151612b4e6000612861565b60006060600080847f000000000000000000000000000000000000000000000000000000000000000081518110612c0257fe5b6020026020010151857f000000000000000000000000000000000000000000000000000000000000000060010381518110612c3957fe5b6020026020010151915091506060600267ffffffffffffffff81118015612c5f57600080fd5b50604051908082528060200260200182016040528015612c89578160200160208202803683370190505b50905082612d33576000877f000000000000000000000000000000000000000000000000000000000000000060010381518110612cc257fe5b60200260200101519050600083612ce0612cda610610565b846131bb565b81612ce757fe5b04905081837f000000000000000000000000000000000000000000000000000000000000000060010381518110612d1a57fe5b60209081029190910101529550909350612f0f92505050565b600080887f000000000000000000000000000000000000000000000000000000000000000081518110612d6257fe5b6020026020010151897f000000000000000000000000000000000000000000000000000000000000000060010381518110612d9957fe5b602002602001015191509150600084612db3612cda610610565b81612dba57fe5b049050600086612dd1612dcb610610565b866131bb565b81612dd857fe5b04905080821015612e795785612dee88856131bb565b81612df557fe5b04857f000000000000000000000000000000000000000000000000000000000000000081518110612e2257fe5b60200260200101818152505082857f000000000000000000000000000000000000000000000000000000000000000060010381518110612e5e57fe5b6020908102919091010152509650919450612f0f9350505050565b83857f000000000000000000000000000000000000000000000000000000000000000081518110612ea657fe5b60200260200101818152505086612ebd87866131bb565b81612ec457fe5b04857f000000000000000000000000000000000000000000000000000000000000000060010381518110612ef457fe5b60209081029190910101529750929550612f0f945050505050565b9250929050565b62461bcd60e51b6000908152602060045260076024526642414c23000030600a808404818106603090810160081b95839006959095019082900491820690940160101b939093010160c81b604452606490fd5b6000612f788484111583611d31565b5050900390565b1b90565b661fffffffffffff91909116901b90565b623fffff91909116901b90565b1c637fffffff1690565b4690565b600081612fc55750670de0b6b3a764000061060a565b82612fd25750600061060a565b612fff7f800000000000000000000000000000000000000000000000000000000000000084106006611d31565b82613025770bce5086492111aea88f4bb1ca6bcf584181ea8059f7653284106007611d31565b826000670c7d713b49da0000831380156130465750670f43fc2c04ee000083125b1561307d57600061305684613421565b9050670de0b6b3a764000080820784020583670de0b6b3a76400008305020191505061308b565b8161308784613558565b0290505b670de0b6b3a764000090056130c3680238fd42c5cf03ffff1982128015906130bc575068070c1cc73b00c800008213155b6008611d31565b6130cc816138f8565b9695505050505050565b60008282026130f0841580611fd5575083858381611fd257fe5b806130ff57600091505061060a565b670de0b6b3a764000060001982010460010191505061060a565b60006109eb8260ea613db2565b60006109eb8260b5613dd9565b60006109eb82609f613db2565b60006109eb82606a613dd9565b60006109eb826054613db2565b60006109eb82601f613dd9565b62461bcd60e51b600090815260206004526007602452673f534e5323000030600a808404818106603090810160081b95839006959095019082900491820690940160101b939093010160c81b604452606490fd5b60008282026107cd841580611fd5575083858381611fd257fe5b6000806131e183613e0c565b905060008082136131fa57652d79883d20008203613204565b652d79883d200082015b655af3107a40009005949350505050565b600080613231858585426132288b61203d565b93929190613e68565b90506104b0428890031015806132475786613250565b61325087613ec8565b600081815260076020526040902092909255509695505050505050565b613279600083836123c7565b6002546132869082611f55565b6002556001600160a01b0382166000908152602081905260409020546132ac9082611f55565b6001600160a01b0383166000818152602081815260408083209490945583518581529351929391927fddf252ad1be2c89b69c2b068fc378daa952ba7f163c4a11628f55a4df523b3ef9281900390910190a35050565b6133196001600160a01b038316151561019b611d31565b613325826000836123c7565b6001600160a01b03821660009081526020819052604090205461334b90826101a1612f69565b6001600160a01b0383166000908152602081905260409020556002546133719082613ed5565b6002556040805182815290516000916001600160a01b038516917fddf252ad1be2c89b69c2b068fc378daa952ba7f163c4a11628f55a4df523b3ef9181900360200190a35050565b6000806133c68484612faf565b905060006133d961200e836127106130d6565b90506133e58282611f55565b95945050505050565b60006133fd8215156004611d31565b8261340a5750600061060a565b81600184038161341657fe5b04600101905061060a565b670de0b6b3a7640000026000806ec097ce7bc90715b34b9f1000000000808401907fffffffffffffffffffffffffffffffffff3f68318436f8ea4cb460f0000000008501028161346d57fe5b05905060006ec097ce7bc90715b34b9f100000000082800205905081806ec097ce7bc90715b34b9f100000000081840205915060038205016ec097ce7bc90715b34b9f100000000082840205915060058205016ec097ce7bc90715b34b9f100000000082840205915060078205016ec097ce7bc90715b34b9f100000000082840205915060098205016ec097ce7bc90715b34b9f1000000000828402059150600b8205016ec097ce7bc90715b34b9f1000000000828402059150600d8205016ec097ce7bc90715b34b9f1000000000828402059150600f826002919005919091010295945050505050565b6000670de0b6b3a76400008212156135955761358b826ec097ce7bc90715b34b9f10000000008161358557fe5b05613558565b60000390506109ee565b60007e1600ef3172e58d2e933ec884fde10064c63b5372d805e203c000000000000083126135e657770195e54c5dd42177f53a27172fa9ec630262827000000000830592506806f05b59d3b2000000015b73011798004d755d3c8bc8e03204cf44619e000000831261361e576b1425982cf597cd205cef7380830592506803782dace9d9000000015b606492830292026e01855144814a7ff805980ff00840008312613666576e01855144814a7ff805980ff008400068056bc75e2d63100000840205925068ad78ebc5ac62000000015b6b02df0ab5a80a22c61ab5a70083126136a1576b02df0ab5a80a22c61ab5a70068056bc75e2d6310000084020592506856bc75e2d631000000015b693f1fce3da636ea5cf85083126136d857693f1fce3da636ea5cf85068056bc75e2d631000008402059250682b5e3af16b18800000015b690127fa27722cc06cc5e2831261370f57690127fa27722cc06cc5e268056bc75e2d6310000084020592506815af1d78b58c400000015b68280e60114edb805d0383126137445768280e60114edb805d0368056bc75e2d631000008402059250680ad78ebc5ac6200000015b680ebc5fb41746121110831261376f57680ebc5fb4174612111068056bc75e2d631000009384020592015b6808f00f760a4b2db55d83126137a4576808f00f760a4b2db55d68056bc75e2d6310000084020592506802b5e3af16b1880000015b6806f5f177578893793783126137d9576806f5f177578893793768056bc75e2d63100000840205925068015af1d78b58c40000015b6806248f33704b286603831261380d576806248f33704b28660368056bc75e2d63100000840205925067ad78ebc5ac620000015b6805c548670b9510e7ac8312613841576805c548670b9510e7ac68056bc75e2d6310000084020592506756bc75e2d6310000015b600068056bc75e2d63100000840168056bc75e2d63100000808603028161386457fe5b059050600068056bc75e2d63100000828002059050818068056bc75e2d63100000818402059150600382050168056bc75e2d63100000828402059150600582050168056bc75e2d63100000828402059150600782050168056bc75e2d63100000828402059150600982050168056bc75e2d63100000828402059150600b820501600202606485820105979650505050505050565b6000613927680238fd42c5cf03ffff198312158015613920575068070c1cc73b00c800008313155b6009611d31565b600082121561395b5761393c826000036138f8565b6ec097ce7bc90715b34b9f10000000008161395357fe5b0590506109ee565b60006806f05b59d3b200000083126139b157507ffffffffffffffffffffffffffffffffffffffffffffffff90fa4a62c4e00000090910190770195e54c5dd42177f53a27172fa9ec6302628270000000006139fd565b6803782dace9d900000083126139f957507ffffffffffffffffffffffffffffffffffffffffffffffffc87d2531627000000909101906b1425982cf597cd205cef73806139fd565b5060015b6064929092029168056bc75e2d6310000068ad78ebc5ac620000008412613a63577fffffffffffffffffffffffffffffffffffffffffffffff5287143a539e0000009093019268056bc75e2d631000006e01855144814a7ff805980ff008400082020590505b6856bc75e2d6310000008412613ab5577fffffffffffffffffffffffffffffffffffffffffffffffa9438a1d29cf0000009093019268056bc75e2d631000006b02df0ab5a80a22c61ab5a70082020590505b682b5e3af16b188000008412613b05577fffffffffffffffffffffffffffffffffffffffffffffffd4a1c50e94e78000009093019268056bc75e2d63100000693f1fce3da636ea5cf85082020590505b6815af1d78b58c4000008412613b55577fffffffffffffffffffffffffffffffffffffffffffffffea50e2874a73c000009093019268056bc75e2d63100000690127fa27722cc06cc5e282020590505b680ad78ebc5ac62000008412613ba4577ffffffffffffffffffffffffffffffffffffffffffffffff5287143a539e000009093019268056bc75e2d6310000068280e60114edb805d0382020590505b68056bc75e2d631000008412613bf3577ffffffffffffffffffffffffffffffffffffffffffffffffa9438a1d29cf000009093019268056bc75e2d63100000680ebc5fb4174612111082020590505b6802b5e3af16b18800008412613c42577ffffffffffffffffffffffffffffffffffffffffffffffffd4a1c50e94e7800009093019268056bc75e2d631000006808f00f760a4b2db55d82020590505b68015af1d78b58c400008412613c91577ffffffffffffffffffffffffffffffffffffffffffffffffea50e2874a73c00009093019268056bc75e2d631000006806f5f177578893793782020590505b68056bc75e2d631000008481019085906002908280020505918201919050600368056bc75e2d631000008783020505918201919050600468056bc75e2d631000008783020505918201919050600568056bc75e2d631000008783020505918201919050600668056bc75e2d631000008783020505918201919050600768056bc75e2d631000008783020505918201919050600868056bc75e2d631000008783020505918201919050600968056bc75e2d631000008783020505918201919050600a68056bc75e2d631000008783020505918201919050600b68056bc75e2d631000008783020505918201919050600c68056bc75e2d631000008783020505918201919050606468056bc75e2d63100000848402058502059695505050505050565b600082821c623fffff16621fffff8113613dcc578061215c565b623fffff19179392505050565b600082821c661fffffffffffff16660fffffffffffff8113613dfb578061215c565b661fffffffffffff19179392505050565b6000613e1c600083136064611d31565b670c7d713b49da000082138015613e3a5750670f43fc2c04ee000082125b15613e5857670de0b6b3a7640000613e5183613421565b8161395357fe5b613e6182613558565b90506109ee565b600080613e7487611e8b565b830390506000818702613e8689613126565b0190506000828702613e978a613140565b0190506000838702613ea88b61315a565b019050613eba89848a858b868c611e2b565b9a9950505050505050505050565b60006109eb826001613ee3565b60006107cd83836001612f69565b601491010690565b604080518082019091526000808252602082015290565b6040805160608101909152806000815260200160008152602001600081525090565b80356109ee816148e9565b600082601f830112613f3f578081fd5b8151613f52613f4d826148cb565b6148a7565b818152915060208083019084810181840286018201871015613f7357600080fd5b60005b84811015613f9257815184529282019290820190600101613f76565b505050505092915050565b600082601f830112613fad578081fd5b813567ffffffffffffffff811115613fc157fe5b613fd4601f8201601f19166020016148a7565b9150808252836020828501011115613feb57600080fd5b8060208401602084013760009082016020015292915050565b8035600281106109ee57600080fd5b8035600381106109ee57600080fd5b600060208284031215614033578081fd5b81356107cd816148e9565b60008060408385031215614050578081fd5b823561405b816148e9565b9150602083013561406b816148e9565b809150509250929050565b60008060006060848603121561408a578081fd5b8335614095816148e9565b925060208401356140a5816148e9565b929592945050506040919091013590565b600080600080600080600060e0888a0312156140d0578485fd5b87356140db816148e9565b965060208801356140eb816148e9565b95506040880135945060608801359350608088013560ff8116811461410e578384fd5b9699959850939692959460a0840135945060c09093013592915050565b6000806040838503121561413d578182fd5b8235614148816148e9565b946020939093013593505050565b60008060006060848603121561416a578081fd5b835167ffffffffffffffff80821115614181578283fd5b818601915086601f830112614194578283fd5b81516141a2613f4d826148cb565b80828252602080830192508086018b8283870289010111156141c2578788fd5b8796505b848710156141ed5780516141d9816148e9565b8452600196909601959281019281016141c6565b508901519097509350505080821115614204578283fd5b5061421186828701613f2f565b925050604084015190509250925092565b60006020808385031215614234578182fd5b823567ffffffffffffffff8082111561424b578384fd5b818501915085601f83011261425e578384fd5b813561426c613f4d826148cb565b818152848101908486016040808502870188018b101561428a578889fd5b8896505b848710156142e25780828c0312156142a4578889fd5b805181810181811088821117156142b757fe5b82526142c283614013565b81528289013589820152845260019690960195928701929081019061428e565b50909998505050505050505050565b60006020808385031215614303578182fd5b823567ffffffffffffffff8082111561431a578384fd5b818501915085601f83011261432d578384fd5b813561433b613f4d826148cb565b818152848101908486016060808502870188018b1015614359578889fd5b8896505b848710156142e25780828c031215614373578889fd5b60408051828101818110898211171561438857fe5b825261439384614013565b8152838a01358a8201528184013591810191909152845260019690960195928701929081019061435d565b6000602082840312156143cf578081fd5b815167ffffffffffffffff8111156143e5578182fd5b61215c84828501613f2f565b600080600080600080600060e0888a03121561440b578081fd5b8735965060208089013561441e816148e9565b9650604089013561442e816148e9565b9550606089013567ffffffffffffffff8082111561444a578384fd5b818b0191508b601f83011261445d578384fd5b813561446b613f4d826148cb565b8082825285820191508585018f878886028801011115614489578788fd5b8795505b838610156144ab57803583526001959095019491860191860161448d565b509850505060808b0135955060a08b0135945060c08b01359250808311156144d1578384fd5b50506144df8a828b01613f9d565b91505092959891949750929550565b6000602082840312156144ff578081fd5b6107cd82614013565b600060208284031215614519578081fd5b5051919050565b600080600060608486031215614534578081fd5b833567ffffffffffffffff8082111561454b578283fd5b8186019150610120808389031215614561578384fd5b61456a816148a7565b905061457583614004565b815261458360208401613f24565b602082015261459460408401613f24565b6040820152606083013560608201526080830135608082015260a083013560a08201526145c360c08401613f24565b60c08201526145d460e08401613f24565b60e082015261010080840135838111156145ec578586fd5b6145f88a828701613f9d565b9183019190915250976020870135975060409096013595945050505050565b600060208284031215614628578081fd5b5035919050565b60008060408385031215614641578182fd5b50508035926020909101359150565b6000815180845260208085019450808401835b8381101561467f57815187529582019590820190600101614663565b509495945050505050565b6003811061469457fe5b9052565b6146a382825161468a565b60208181015190830152604090810151910152565b6001600160a01b0391909116815260200190565b6020808252825182820181905260009190848201906040850190845b81811015614704578351835292840192918401916001016146e8565b50909695505050505050565b6020808252825182820181905260009190848201906040850190845b818110156147045761473f838551614698565b928401926060929092019160010161472c565b6000602082526107cd6020830184614650565b6000604082526147786040830185614650565b82810360208401526133e58185614650565b901515815260200190565b90815260200190565b968752602087019590955260408601939093526060850191909152608084015260a083015260c082015260e00190565b838152606081016147e2602083018561468a565b826040830152949350505050565b84815260808101614804602083018661468a565b60408201939093526060015292915050565b83815260a0810161482a6020830185614698565b826080830152949350505050565b6000602080835283518082850152825b8181101561486457858101830151858201604001528201614848565b818111156148755783604083870101525b50601f01601f1916929092016040019392505050565b918252602082015260400190565b60ff91909116815260200190565b60405181810167ffffffffffffffff811182821017156148c357fe5b604052919050565b600067ffffffffffffffff8211156148df57fe5b5060209081020190565b6001600160a01b03811681146148fe57600080fd5b5056fea2646970667358221220935c9c9b66ccee677584eb39ce11adfda0085e608da7dce7d9f334bf00dc138864736f6c63430007050033a26469706673582212201d97e1191a18b1194a8522a0d3f26139f59f280fd47871b60522b2b87e3fb74c64736f6c63430007050033",
  "deployedBytecode": "0x60806040523480156200001157600080fd5b5060043610620000dc5760003560e01c8063756a24e4116200008d578063bdd8a3661162000063578063bdd8a36614620001aa578063e86d60bf14620001b4578063fbfa77cf14620001be57620000dc565b8063756a24e414620001635780638f38a555146200017c57806396d64879146200019357620000dc565b80631852288b11620000c35780631852288b1462000129578063378efa3714620001405780636970a924146200014a57620000dc565b80630ecaea7314620000e15780631393916a1462000110575b600080fd5b620000f8620000f236600462000694565b620001c8565b60405162000107919062000703565b60405180910390f35b62000127620001213660046200065b565b62000371565b005b620001276200013a366004620006c2565b62000434565b620000f8620004eb565b620001546200050f565b60405162000107919062000785565b6200016d62000515565b60405162000107919062000730565b620000f86200018d36600462000694565b6200051e565b6200016d620001a436600462000616565b62000544565b6200015462000559565b620001546200055f565b620000f862000565565b6001600160a01b0382811660009081526001602090815260408083208584529091528120549091620001fe911615606862000589565b7f000000000000000000000000000000000000000000000000000000000000000083837f00000000000000000000000000000000000000000000000000000000000000006001600160a01b031663d10eb4b987876040518363ffffffff1660e01b81526004016200027192919062000717565b602060405180830381600087803b1580156200028c57600080fd5b505af1158015620002a1573d6000803e3d6000fd5b505050506040513d601f19601f82011682018060405250810190620002c791906200063c565b60025460035460045460055460405160ff90911690620002e790620005f2565b620002fa9897969594939291906200073b565b604051809103906000f08015801562000317573d6000803e3d6000fd5b506001600160a01b0393841660009081526001602090815260408083209583529490529290922080547fffffffffffffffffffffffff00000000000000000000000000000000000000001693831693909317909255919050565b3360009081526020819052604090205460ff16620003d6576040805162461bcd60e51b815260206004820152600960248201527f554e545255535445440000000000000000000000000000000000000000000000604482015290519081900360640190fd5b6001600160a01b03821660008181526020818152604091829020805460ff1916851515908117909155825190815291517fe95aec380cae16330d146d5499ef7db6f3657e477104a733e771bc09e500d9869281900390910190a25050565b3360009081526020819052604090205460ff1662000499576040805162461bcd60e51b815260206004820152600960248201527f554e545255535445440000000000000000000000000000000000000000000000604482015290519081900360640190fd5b620004b1670de0b6b3a7640000841115606562000589565b620004c9670de0b6b3a7640000831015606662000589565b6002939093556003919091556004556005805460ff1916911515919091179055565b7f000000000000000000000000000000000000000000000000000000000000000081565b60045481565b60055460ff1681565b60016020908152600092835260408084209091529082529020546001600160a01b031681565b60006020819052908152604090205460ff1681565b60035481565b60025481565b7f000000000000000000000000000000000000000000000000000000000000000081565b816200059a576200059a816200059e565b5050565b62461bcd60e51b600090815260206004526007602452673f534e5323000030600a808404818106603090810160081b95839006959095019082900491820690940160101b939093010160c81b604452606490fd5b61553e80620007a883390190565b803580151581146200061157600080fd5b919050565b60006020828403121562000628578081fd5b813562000635816200078e565b9392505050565b6000602082840312156200064e578081fd5b815162000635816200078e565b600080604083850312156200066e578081fd5b82356200067b816200078e565b91506200068b6020840162000600565b90509250929050565b60008060408385031215620006a7578182fd5b8235620006b4816200078e565b946020939093013593505050565b60008060008060808587031215620006d8578182fd5b843593506020850135925060408501359150620006f86060860162000600565b905092959194509250565b6001600160a01b0391909116815260200190565b6001600160a01b03929092168252602082015260400190565b901515815260200190565b6001600160a01b03988916815296881660208801526040870195909552929095166060850152608084015260a083019390935260c082019290925290151560e08201526101000190565b90815260200190565b6001600160a01b0381168114620007a457600080fd5b5056fe6102a06040527f6e71edae12b1b97f4d1f60370fef10105fa2faae0126114a169c64845d6126c960e0523480156200003657600080fd5b506040516200553e3803806200553e8339810160408190526200005991620007c2565b866001600160a01b03166306fdde036040518163ffffffff1660e01b815260040160006040518083038186803b1580156200009357600080fd5b505afa158015620000a8573d6000803e3d6000fd5b505050506040513d6000823e601f3d908101601f19168201604052620000d2919081019062000856565b876001600160a01b03166395d89b416040518163ffffffff1660e01b815260040160006040518083038186803b1580156200010c57600080fd5b505afa15801562000121573d6000803e3d6000fd5b505050506040513d6000823e601f3d908101601f191682016040526200014b919081019062000856565b8180604051806040016040528060018152602001603160f81b8152508484816003908051906020019062000181929190620006d7565b50805162000197906004906020840190620006d7565b50506005805460ff19166012179055508151602092830120608052805191012060a05250507f8b73c3c69bb8fe3d512ecc4cf759cc79239f7b179b0ffacaa9a75d522b39400f60c052506040516309b2760f60e01b81526000906001600160a01b038a16906309b2760f906200021390600290600401620009d2565b602060405180830381600087803b1580156200022e57600080fd5b505af115801562000243573d6000803e3d6000fd5b505050506040513d601f19601f82011682018060405250810190620002699190620007a9565b90506000886001600160a01b031663d4b839926040518163ffffffff1660e01b815260040160206040518083038186803b158015620002a757600080fd5b505afa158015620002bc573d6000803e3d6000fd5b505050506040513d601f19601f82011682018060405250810190620002e2919062000783565b6040805160028082526060808301845293945090916020830190803683370190505090506000826001600160a01b0316896001600160a01b0316106200032a5760016200032d565b60005b60ff169050888282815181106200034057fe5b60200260200101906001600160a01b031690816001600160a01b031681525050828282600103815181106200037157fe5b6001600160a01b03928316602091820292909201015260408051600280825260608201909252918e16916366a9c7d29187918691816020016020820280368337019050506040518463ffffffff1660e01b8152600401620003d59392919062000938565b600060405180830381600087803b158015620003f057600080fd5b505af115801562000405573d6000803e3d6000fd5b5050506001600160601b031960608e901b1661026052506101c0849052815182906000906200043057fe5b60200260200101516001600160a01b03166101e0816001600160a01b031660601b81525050816001815181106200046357fe5b60200260200101516001600160a01b0316610200816001600160a01b031660601b815250508b6001600160a01b031663d2946c2b6040518163ffffffff1660e01b815260040160206040518083038186803b158015620004c257600080fd5b505afa158015620004d7573d6000803e3d6000fd5b505050506040513d601f19601f82011682018060405250810190620004fd919062000783565b6001600160a01b0316610280816001600160a01b031660601b81525050620005a960128a6001600160a01b031663313ce5676040518163ffffffff1660e01b815260040160206040518083038186803b1580156200055a57600080fd5b505afa1580156200056f573d6000803e3d6000fd5b505050506040513d601f19601f8201168201806040525081019062000595919062000915565b60ff166200065760201b62001caf1760201c565b600a0a6102208181525050620005f46012846001600160a01b031663313ce5676040518163ffffffff1660e01b815260040160206040518083038186803b1580156200055a57600080fd5b600a0a61024052610180969096525050506101a091909152610160929092526101405260609390931b6001600160601b031916610100525061012052600b805460ff60301b19166601000000000000921515929092029190911790555062000a00565b6000620006698383111560016200066f565b50900390565b816200068057620006808162000684565b5050565b62461bcd60e51b6000908152602060045260076024526642414c23000030600a808404818106603090810160081b95839006959095019082900491820690940160101b939093010160c81b604452606490fd5b828054600181600116156101000203166002900490600052602060002090601f0160209004810192826200070f57600085556200075a565b82601f106200072a57805160ff19168380011785556200075a565b828001600101855582156200075a579182015b828111156200075a5782518255916020019190600101906200073d565b50620007689291506200076c565b5090565b5b808211156200076857600081556001016200076d565b60006020828403121562000795578081fd5b8151620007a281620009e7565b9392505050565b600060208284031215620007bb578081fd5b5051919050565b600080600080600080600080610100898b031215620007df578384fd5b8851620007ec81620009e7565b60208a0151909850620007ff81620009e7565b60408a015160608b015191985096506200081981620009e7565b809550506080890151935060a0890151925060c0890151915060e0890151801515811462000845578182fd5b809150509295985092959890939650565b6000602080838503121562000869578182fd5b82516001600160401b038082111562000880578384fd5b818501915085601f83011262000894578384fd5b815181811115620008a157fe5b604051601f8201601f1916810185018381118282101715620008bf57fe5b6040528181528382018501881015620008d6578586fd5b8592505b81831015620008f95783830185015181840186015291840191620008da565b818311156200090a57858583830101525b979650505050505050565b60006020828403121562000927578081fd5b815160ff81168114620007a2578182fd5b60006060820185835260206060818501528186518084526080860191508288019350845b81811015620009835784516001600160a01b0316835293830193918301916001016200095c565b505084810360408601528551808252908201925081860190845b81811015620009c45782516001600160a01b0316855293830193918301916001016200099d565b509298975050505050505050565b6020810160038310620009e157fe5b91905290565b6001600160a01b0381168114620009fd57600080fd5b50565b60805160a05160c05160e0516101005160601c610120516101405161016051610180516101a0516101c0516101e05160601c6102005160601c61022051610240516102605160601c6102805160601c61493762000c0760003980610c455280611a75525080610e2b528061133352508061286a52508061289152505080610eb35250806108655280611362525080610a675280612986525080611675528061296052508061145f5280611b73528061243752806127ca52806129295250806109f55280610b425280610bcd5280610c015280610ef05280610f1952806112b0528061149d52806114db528061192552806119855280611a0a5280611a3e528061217852806121bb52806121f6528061223752806122e9528061249b52806124d552806125ac52806125e8528061262a528061266952806126af52806126e552806127185280612b135280612b565280612b915280612bd95280612c0d5280612c965280612cee5280612d395280612d6d5280612df95280612e325280612e7d5280612ec852508061073c52806108c6528061090d52806113fa528061143152806118275280611b995280611c6d52806123d252806124095280612765528061279c52806128c752806128fe52508061053a528061093a5280610f9a52806118895280611bd25250806116c6525080611e9b525080611edd525080611ebc52506149376000f3fe608060405234801561001057600080fd5b50600436106102925760003560e01c806370a0823111610160578063b10be739116100d8578063dd62ed3e1161008c578063e86d60bf11610071578063e86d60bf14610515578063f3f586e51461051d578063ffd088eb1461053057610292565b8063dd62ed3e146104fa578063e6a69ab81461050d57610292565b8063bdd8a366116100bd578063bdd8a366146104cc578063d505accf146104d4578063d5c096c4146104e757610292565b8063b10be739146104b1578063b48b5b40146104c457610292565b806395d89b411161012f578063a457c2d711610114578063a457c2d714610478578063a503e6281461048b578063a9059cbb1461049e57610292565b806395d89b411461045d5780639d2c110c1461046557610292565b806370a082311461040e57806374f3b009146104215780637ecebe00146104425780638d928af81461045557610292565b80633331bc361161020e5780635863056d116101c25780636970a924116101a75780636970a924146103de5780636b843239146103e65780636f4830311461040657610292565b80635863056d146103a257806360d1507c146103b857610292565b806338fff2d0116101f357806338fff2d014610374578063395093511461037c578063580702231461038f57610292565b80633331bc36146103575780633644e5151461036c57610292565b806318160ddd11610265578063204f83f91161024a578063204f83f91461032757806323b872dd1461032f578063313ce5671461034257610292565b806318160ddd146102ff5780631dccd8301461030757610292565b806303eadcfc1461029757806306fdde03146102b55780630845d030146102ca578063095ea7b3146102df575b600080fd5b61029f610538565b6040516102ac91906146b8565b60405180910390f35b6102bd61055c565b6040516102ac9190614838565b6102d26105f2565b6040516102ac9190614795565b6102f26102ed36600461412b565b6105f9565b6040516102ac919061478a565b6102d2610610565b61031a6103153660046142f1565b610616565b6040516102ac9190614752565b6102d261073a565b6102f261033d366004614076565b61075e565b61034a6107d4565b6040516102ac9190614899565b61036a61036536600461462f565b6107dd565b005b6102d2610854565b6102d2610863565b6102f261038a36600461412b565b610887565b6102d261039d366004614617565b6108c2565b6103aa6109f3565b6040516102ac92919061488b565b6103cb6103c6366004614617565b610a1d565b6040516102ac979695949392919061479e565b6102d2610a65565b6103f96103f4366004614222565b610a89565b6040516102ac91906146cc565b6102d2610b40565b6102d261041c366004614022565b610b64565b61043461042f3660046143f1565b610b7f565b6040516102ac929190614765565b6102d2610450366004614022565b610e0e565b61029f610e29565b6102bd610e4d565b6102d2610473366004614520565b610eae565b6102f261048636600461412b565b611169565b6102d2610499366004614617565b6111a7565b6102f26104ac36600461412b565b6115cc565b6102d26104bf3660046144ee565b6115d9565b6102d261166e565b6102d2611673565b61036a6104e23660046140b6565b611697565b6104346104f53660046143f1565b611807565b6102d261050836600461403e565b611b3e565b6102d2611b69565b6102d2611b71565b6102d261052b366004614617565b611b95565b6102d2611ca9565b7f000000000000000000000000000000000000000000000000000000000000000081565b60038054604080516020601f60026000196101006001881615020190951694909404938401819004810282018101909252828152606093909290918301828280156105e85780601f106105bd576101008083540402835291602001916105e8565b820191906000526020600020905b8154815290600101906020018083116105cb57829003601f168201915b5050505050905090565b620f424081565b6000610606338484611cc5565b5060015b92915050565b60025490565b6060815167ffffffffffffffff8111801561063057600080fd5b5060405190808252806020026020018201604052801561065a578160200160208202803683370190505b5090506000610667611d27565b905060005b83518110156107335773__$ca06ebe0e37df84d33a229baa7963d6fc2$__6379eaef82600786848151811061069d57fe5b6020026020010151856040518463ffffffff1660e01b81526004016106c493929190614816565b60206040518083038186803b1580156106dc57600080fd5b505af41580156106f0573d6000803e3d6000fd5b505050506040513d601f19601f820116820180604052508101906107149190614508565b83828151811061072057fe5b602090810291909101015260010161066c565b5050919050565b7f000000000000000000000000000000000000000000000000000000000000000081565b60008061076b8533611b3e565b905061078f336001600160a01b03871614806107875750838210155b61019e611d31565b61079a858585611d43565b336001600160a01b038616148015906107b557506000198114155b156107c7576107c78533858403611cc5565b60019150505b9392505050565b60055460ff1690565b6107f781831080156107f0575060148211155b6064611d31565b600061080c6001600080600080600080611e2b565b9050825b8281101561084e5760008181526007602052604090205461083090611e8b565b6108465760008181526007602052604090208290555b600101610810565b50505050565b600061085e611e97565b905090565b7f000000000000000000000000000000000000000000000000000000000000000090565b3360008181526001602090815260408083206001600160a01b038716845290915281205490916106069185906108bd9086611f55565b611cc5565b60007f000000000000000000000000000000000000000000000000000000000000000042106108f3575060006109ee565b6109eb670de0b6b3a76400006109e56109326301e13380427f000000000000000000000000000000000000000000000000000000000000000003611f67565b6109df6109d07f00000000000000000000000000000000000000000000000000000000000000006001600160a01b031663226778496040518163ffffffff1660e01b815260040160206040518083038186803b15801561099157600080fd5b505afa1580156109a5573d6000803e3d6000fd5b505050506040513d601f19601f820116820180604052508101906109c99190614508565b8890611fb8565b670de0b6b3a764000090611f67565b90611fee565b90611caf565b90505b919050565b7f000000000000000000000000000000000000000000000000000000000000000090600182900390565b6000806000806000806000610a376014891061013b611d31565b6000610a428961203d565b9050610a4d8161204f565b959f949e50929c50909a509850965090945092505050565b7f000000000000000000000000000000000000000000000000000000000000000081565b6060815167ffffffffffffffff81118015610aa357600080fd5b50604051908082528060200260200182016040528015610acd578160200160208202803683370190505b5090506000610ada611d27565b9050610ae4613eeb565b60005b8451811015610b3857848181518110610afc57fe5b60200260200101519150610b1982600001518484602001516120b2565b848281518110610b2557fe5b6020908102919091010152600101610ae7565b505050919050565b7f000000000000000000000000000000000000000000000000000000000000000081565b6001600160a01b031660009081526020819052604090205490565b60608088610ba9610b8e610e29565b6001600160a01b0316336001600160a01b0316146064612164565b610bbd610bb4610863565b82146067612164565b610bc687612172565b610c3a86887f000000000000000000000000000000000000000000000000000000000000000081518110610bf657fe5b6020026020010151897f000000000000000000000000000000000000000000000000000000000000000060010381518110610c2d57fe5b6020026020010151612272565b8415610c7357610c737f0000000000000000000000000000000000000000000000000000000000000000610c6e89886123cc565b612595565b600084806020019051810190610c899190614508565b90506000610c9f610c98610610565b8390611f67565b604080516002808252606080830184529394509091602083019080368337019050509050610cea828b600081518110610cd457fe5b6020026020010151611fb890919063ffffffff16565b81600081518110610cf757fe5b602002602001018181525050610d14828b600181518110610cd457fe5b81600181518110610d2157fe5b602002602001018181525050610d368161259f565b610d408c84612695565b610d7b81600081518110610d5057fe5b60200260200101518b600081518110610d6557fe5b6020026020010151611caf90919063ffffffff16565b8a600081518110610d8857fe5b602002602001018181525050610db981600181518110610da457fe5b60200260200101518b600181518110610d6557fe5b8a600181518110610dc657fe5b602002602001018181525050610ddb8a61269f565b604080516002808252606082018352839260208301908036833701905050955095505050505b5097509795505050505050565b6001600160a01b031660009081526006602052604090205490565b7f000000000000000000000000000000000000000000000000000000000000000090565b60048054604080516020601f60026000196101006001881615020190951694909404938401819004810282018101909252828152606093909290918301828280156105e85780601f106105bd576101008083540402835291602001916105e8565b6000807f00000000000000000000000000000000000000000000000000000000000000006001600160a01b031685602001516001600160a01b031614610f17577f0000000000000000000000000000000000000000000000000000000000000000600114610f3a565b7f0000000000000000000000000000000000000000000000000000000000000000155b90506000610f4782612861565b90506000610f558315612861565b9050610f6186836128b5565b9550610f6d85826128b5565b9450610f968760a0015184610f825786610f84565b875b85610f8f5788610f91565b875b612272565b60007f00000000000000000000000000000000000000000000000000000000000000006001600160a01b031663f51e181a6040518163ffffffff1660e01b8152600401602060405180830381600087803b158015610ff357600080fd5b505af1158015611007573d6000803e3d6000fd5b505050506040513d601f19601f8201168201806040525081019061102b9190614508565b905083156110635761104561103e610610565b8890611f55565b965061105c60085487611fb890919063ffffffff16565b9550611088565b600854611071908890611fb8565b965061108561107e610610565b8790611f55565b95505b60008851600181111561109757fe5b1415611109576110ab8860600151846128b5565b6060890152836110ca5760608801516110c49082611fb8565b60608901525b60006110de8560018b606001518b8b6128c1565b905084156110f3576110f08183611f67565b90505b6110fd8184612a61565b955050505050506107cd565b6111178860600151836128b5565b606089015283156111375760608801516111319082611fb8565b60608901525b600061114b8560008b606001518b8b6128c1565b90508461115f5761115c8183611f67565b90505b6110fd8185612a74565b6000806111763385611b3e565b90508083106111905761118b33856000611cc5565b61119d565b61119d3385858403611cc5565b5060019392505050565b60408051600180825281830190925260009160609190816020015b6111ca613f02565b8152602001906001900390816111c25790505060408051606081019091529091508060008152602001848152602001610e108152508160008151811061120c57fe5b60209081029190910101526040517f1dccd8300000000000000000000000000000000000000000000000000000000081526060903090631dccd83090611256908590600401614710565b60006040518083038186803b15801561126e57600080fd5b505afa158015611282573d6000803e3d6000fd5b505050506040513d6000823e601f3d908101601f191682016040526112aa91908101906143be565b905060007f000000000000000000000000000000000000000000000000000000000000000060011461130a57611305826000815181106112e657fe5b6020026020010151670de0b6b3a7640000611f6790919063ffffffff16565b611320565b8160008151811061131757fe5b60200260200101515b9050600061132d826108c2565b905060607f00000000000000000000000000000000000000000000000000000000000000006001600160a01b031663f94d46687f00000000000000000000000000000000000000000000000000000000000000006040518263ffffffff1660e01b815260040161139d9190614795565b60006040518083038186803b1580156113b557600080fd5b505afa1580156113c9573d6000803e3d6000fd5b505050506040513d6000823e601f3d908101601f191682016040526113f19190810190614156565b509150506000427f000000000000000000000000000000000000000000000000000000000000000011611425576000611453565b670de0b6b3a7640000427f000000000000000000000000000000000000000000000000000000000000000003025b905060006114896114847f000000000000000000000000000000000000000000000000000000000000000084611fb8565b612a80565b905060006115206114c9836109df600854887f000000000000000000000000000000000000000000000000000000000000000060010381518110610cd457fe5b61151a846109df6114d8610610565b897f00000000000000000000000000000000000000000000000000000000000000008151811061150457fe5b6020026020010151611f5590919063ffffffff16565b90611f55565b9050600061155e611539670de0b6b3a764000085611f67565b6109df611557670de0b6b3a764000061151a6109d08985848f611f55565b8590611f67565b90506000611583610c9861157a670de0b6b3a76400008a611f55565b60085490611fb8565b90506115bc611590610610565b6115b66115af8b6115a96115a2610610565b8890611caf565b90611fb8565b8490611f55565b90611f67565b9c9b505050505050505050505050565b6000610606338484611d43565b600073__$ca06ebe0e37df84d33a229baa7963d6fc2$__630397bee0600784611600611d27565b6040518463ffffffff1660e01b815260040161161e939291906147ce565b60206040518083038186803b15801561163657600080fd5b505af415801561164a573d6000803e3d6000fd5b505050506040513d601f19601f820116820180604052508101906109eb9190614508565b601490565b7f000000000000000000000000000000000000000000000000000000000000000081565b6116a58442111560d1611d31565b6001600160a01b0380881660008181526006602090815260408083205481517f00000000000000000000000000000000000000000000000000000000000000008185015280830195909552948b166060850152608084018a905260a0840185905260c08085018a90528151808603909101815260e0909401905282519201919091209061173182612aa6565b9050600060018288888860405160008152602001604052604051808581526020018460ff1681526020018381526020018281526020019450505050506020604051602081039080840390855afa15801561178f573d6000803e3d6000fd5b5050604051601f19015191506117d190506001600160a01b038216158015906117c957508b6001600160a01b0316826001600160a01b0316145b6101f8611d31565b6001600160a01b038b1660009081526006602052604090206001850190556117fa8b8b8b611cc5565b5050505050505050505050565b60608088611816610b8e610e29565b611821610bb4610863565b61184f427f000000000000000000000000000000000000000000000000000000000000000010156069612164565b60608480602001905181019061186591906143be565b905061187088612172565b61187981612172565b611881610610565b611a035760007f00000000000000000000000000000000000000000000000000000000000000006001600160a01b031663f51e181a6040518163ffffffff1660e01b8152600401602060405180830381600087803b1580156118e257600080fd5b505af11580156118f6573d6000803e3d6000fd5b505050506040513d601f19601f8201168201806040525081019061191a9190614508565b9050600061195182847f000000000000000000000000000000000000000000000000000000000000000060010381518110610cd457fe5b90506119616000620f4240612595565b6119728b610c6e83620f4240611caf565b61197b83612b0d565b81600881905550827f0000000000000000000000000000000000000000000000000000000000000000815181106119ae57fe5b6020026020010160008152508299506119c68a61269f565b82600260005b506040519080825280602002602001820160405280156119f6578160200160208202803683370190505b5095509550505050610e01565b611a6a87897f000000000000000000000000000000000000000000000000000000000000000081518110611a3357fe5b60200260200101518a7f000000000000000000000000000000000000000000000000000000000000000060010381518110610c2d57fe5b8515611a9e57611a9e7f0000000000000000000000000000000000000000000000000000000000000000610c6e8a896123cc565b60006060611aac838b612bcf565b91509150611ab981612b0d565b611ac38b83612595565b80600081518110611ad057fe5b60200260200101518a600081518110611ae557fe5b60200260200101818151019150818152505080600181518110611b0457fe5b60200260200101518a600181518110611b1957fe5b602002602001018181510191508181525050611b348a61269f565b80600260006119cc565b6001600160a01b03918216600090815260016020908152604080832093909416825291909152205490565b6301e1338081565b7f000000000000000000000000000000000000000000000000000000000000000081565b60007f00000000000000000000000000000000000000000000000000000000000000004210611bcd5750670de0b6b3a76400006109ee565b6109eb7f00000000000000000000000000000000000000000000000000000000000000006001600160a01b031663226778496040518163ffffffff1660e01b815260040160206040518083038186803b158015611c2957600080fd5b505afa158015611c3d573d6000803e3d6000fd5b505050506040513d601f19601f82011682018060405250810190611c619190614508565b6115b66109d0611c97427f0000000000000000000000000000000000000000000000000000000000000000036301e13380611f67565b6109df87670de0b6b3a7640000611f55565b615b6890565b6000611cbf838311156001611d31565b50900390565b6001600160a01b03808416600081815260016020908152604080832094871680845294825291829020859055815185815291517f8c5be1e5ebec7d5bd14f71427d1e84f3dd0314c0f7b2291e5b200ac8c7c3b9259281900390910190a3505050565b600b5461ffff1690565b81611d3f57611d3f81612f16565b5050565b611d5a6001600160a01b0384161515610198611d31565b611d716001600160a01b0383161515610199611d31565b611d7c8383836123c7565b6001600160a01b038316600090815260208190526040902054611da290826101a0612f69565b6001600160a01b038085166000908152602081905260408082209390935590841681522054611dd19082611f55565b6001600160a01b038084166000818152602081815260409182902094909455805185815290519193928716927fddf252ad1be2c89b69c2b068fc378daa952ba7f163c4a11628f55a4df523b3ef92918290030190a3505050565b6000611e378282612f7f565b611e4284601f612f83565b611e4d866054612f94565b611e5888606a612f83565b611e638a609f612f94565b611e6e8c60b5612f83565b611e798e60ea612f94565b17171717171798975050505050505050565b60006109eb8282612fa1565b60007f00000000000000000000000000000000000000000000000000000000000000007f00000000000000000000000000000000000000000000000000000000000000007f0000000000000000000000000000000000000000000000000000000000000000611f04612fab565b3060405160200180868152602001858152602001848152602001838152602001826001600160a01b031681526020019550505050505060405160208183030381529060405280519060200120905090565b60008282016107cd8482101583611d31565b6000611f768215156004611d31565b82611f835750600061060a565b670de0b6b3a764000083810290611fa690858381611f9d57fe5b04146005611d31565b828181611faf57fe5b0491505061060a565b6000828202611fdc841580611fd5575083858381611fd257fe5b04145b6003611d31565b670de0b6b3a764000090049392505050565b600080611ffb8484612faf565b9050600061201561200e836127106130d6565b6001611f55565b90508082101561202a5760009250505061060a565b6120348282611caf565b9250505061060a565b60009081526007602052604090205490565b600080600080600080600061206388613119565b965061206e88613126565b955061207988613133565b945061208488613140565b935061208f8861314d565b925061209a8861315a565b91506120a588611e8b565b9050919395979092949650565b6040517f34171a8500000000000000000000000000000000000000000000000000000000815260009073__$ca06ebe0e37df84d33a229baa7963d6fc2$__906334171a859061210c906007908890889088906004016147f0565b60206040518083038186803b15801561212457600080fd5b505af4158015612138573d6000803e3d6000fd5b505050506040513d601f19601f8201168201806040525081019061215c9190614508565b949350505050565b81611d3f57611d3f81613167565b6121b8817f0000000000000000000000000000000000000000000000000000000000000000815181106121a157fe5b60200260200101516121b36001612861565b6131bb565b817f0000000000000000000000000000000000000000000000000000000000000000815181106121e457fe5b602002602001018181525050612234817f00000000000000000000000000000000000000000000000000000000000000006001038151811061222257fe5b60200260200101516121b36000612861565b817f00000000000000000000000000000000000000000000000000000000000000006001038151811061226357fe5b60200260200101818152505050565b600b546601000000000000900460ff16801561228d57508243115b80156122a05750662386f26fc100008110155b156123c75760006122d6670de0b6b3a76400006109e56122cb60085486611fb890919063ffffffff16565b6115b661103e610610565b905060006122e382611b95565b905060007f0000000000000000000000000000000000000000000000000000000000000000156123135781612325565b612325670de0b6b3a764000083611f67565b600b5490915060009061238a9063ffffffff620100008204169061ffff1661234c856131d5565b620f424088106123645761235f886131d5565b612370565b612370620f42406131d5565b600b546701000000000000009004601890810b900b613215565b600b5490915061ffff1681146123c257600b805465ffffffff00001916620100004263ffffffff16021761ffff191661ffff83161790555b505050505b505050565b600080427f0000000000000000000000000000000000000000000000000000000000000000116123fd57600061242b565b670de0b6b3a7640000427f000000000000000000000000000000000000000000000000000000000000000003025b9050600061245c6114847f000000000000000000000000000000000000000000000000000000000000000084611fb8565b9050600061248561247883600a54611fee90919063ffffffff16565b60095461151a9085611fee565b905060006124c4836109df612498610610565b8a7f00000000000000000000000000000000000000000000000000000000000000008151811061150457fe5b90506000612501846109df6008548b7f000000000000000000000000000000000000000000000000000000000000000060010381518110610cd457fe5b9050600061250f8383611f55565b9050838111612527576000965050505050505061060a565b600061254861253e670de0b6b3a764000088611f67565b6109df8488611f67565b9050600061256c826115b661256582670de0b6b3a7640000611caf565b8d90611fb8565b905061258661257a82612a80565b6115b6836115a9610610565b9b9a5050505050505050505050565b611d3f828261326d565b6125a96001612861565b817f0000000000000000000000000000000000000000000000000000000000000000815181106125d557fe5b6020026020010151816125e457fe5b04817f00000000000000000000000000000000000000000000000000000000000000008151811061261157fe5b6020026020010181815250506126276000612861565b817f00000000000000000000000000000000000000000000000000000000000000006001038151811061265657fe5b60200260200101518161266557fe5b04817f00000000000000000000000000000000000000000000000000000000000000006001038151811061226357fe5b611d3f8282613302565b60006126d86126ac610610565b837f00000000000000000000000000000000000000000000000000000000000000008151811061150457fe5b90506000612711600854847f000000000000000000000000000000000000000000000000000000000000000060010381518110610cd457fe5b90506000807f000000000000000000000000000000000000000000000000000000000000000061274557508290508161274b565b50819050825b600b546601000000000000900460ff1615612853576000427f0000000000000000000000000000000000000000000000000000000000000000116127905760006127be565b670de0b6b3a7640000427f000000000000000000000000000000000000000000000000000000000000000003025b905060006127ef6114847f000000000000000000000000000000000000000000000000000000000000000084611fb8565b905061281061280b6128018584611fee565b61151a8785611fee565b6131d5565b600b805460189290920b78ffffffffffffffffffffffffffffffffffffffffffffffffff166701000000000000000266ffffffffffffff90921691909117905550505b600991909155600a55505050565b60008161288e577f00000000000000000000000000000000000000000000000000000000000000006109eb565b507f0000000000000000000000000000000000000000000000000000000000000000919050565b60006107cd83836131bb565b600080427f0000000000000000000000000000000000000000000000000000000000000000116128f2576000612920565b670de0b6b3a7640000427f000000000000000000000000000000000000000000000000000000000000000003025b9050600061294e7f000000000000000000000000000000000000000000000000000000000000000083611fb8565b905060006129ac611484838b612984577f00000000000000000000000000000000000000000000000000000000000000006129a6565b7f00000000000000000000000000000000000000000000000000000000000000005b906130d6565b905060006129ba87836133b9565b905060006129c887846133b9565b905060006129ed848c6129e4576129df8a8d611caf565b6109df565b8b8b0190611fee565b90506000612a1a612a06670de0b6b3a764000087611f67565b612a14846109e58888611f55565b906133b9565b9050612a328c1580612a2b5750818a115b606a612164565b8b612a4657612a41818b611caf565b612a50565b612a508982611caf565b9d9c50505050505050505050505050565b6000818381612a6c57fe5b049392505050565b60006107cd83836133ee565b6000670de0b6b3a76400008210612a985760006109eb565b50670de0b6b3a76400000390565b6000612ab0611e97565b8260405160200180807f190100000000000000000000000000000000000000000000000000000000000081525060020183815260200182815260200192505050604051602081830303815290604052805190602001209050919050565b612b53817f000000000000000000000000000000000000000000000000000000000000000081518110612b3c57fe5b6020026020010151612b4e6001612861565b6133ee565b817f000000000000000000000000000000000000000000000000000000000000000081518110612b7f57fe5b602002602001018181525050612234817f000000000000000000000000000000000000000000000000000000000000000060010381518110612bbd57fe5b6020026020010151612b4e6000612861565b60006060600080847f000000000000000000000000000000000000000000000000000000000000000081518110612c0257fe5b6020026020010151857f000000000000000000000000000000000000000000000000000000000000000060010381518110612c3957fe5b6020026020010151915091506060600267ffffffffffffffff81118015612c5f57600080fd5b50604051908082528060200260200182016040528015612c89578160200160208202803683370190505b50905082612d33576000877f000000000000000000000000000000000000000000000000000000000000000060010381518110612cc257fe5b60200260200101519050600083612ce0612cda610610565b846131bb565b81612ce757fe5b04905081837f000000000000000000000000000000000000000000000000000000000000000060010381518110612d1a57fe5b60209081029190910101529550909350612f0f92505050565b600080887f000000000000000000000000000000000000000000000000000000000000000081518110612d6257fe5b6020026020010151897f000000000000000000000000000000000000000000000000000000000000000060010381518110612d9957fe5b602002602001015191509150600084612db3612cda610610565b81612dba57fe5b049050600086612dd1612dcb610610565b866131bb565b81612dd857fe5b04905080821015612e795785612dee88856131bb565b81612df557fe5b04857f000000000000000000000000000000000000000000000000000000000000000081518110612e2257fe5b60200260200101818152505082857f000000000000000000000000000000000000000000000000000000000000000060010381518110612e5e57fe5b6020908102919091010152509650919450612f0f9350505050565b83857f000000000000000000000000000000000000000000000000000000000000000081518110612ea657fe5b60200260200101818152505086612ebd87866131bb565b81612ec457fe5b04857f000000000000000000000000000000000000000000000000000000000000000060010381518110612ef457fe5b60209081029190910101529750929550612f0f945050505050565b9250929050565b62461bcd60e51b6000908152602060045260076024526642414c23000030600a808404818106603090810160081b95839006959095019082900491820690940160101b939093010160c81b604452606490fd5b6000612f788484111583611d31565b5050900390565b1b90565b661fffffffffffff91909116901b90565b623fffff91909116901b90565b1c637fffffff1690565b4690565b600081612fc55750670de0b6b3a764000061060a565b82612fd25750600061060a565b612fff7f800000000000000000000000000000000000000000000000000000000000000084106006611d31565b82613025770bce5086492111aea88f4bb1ca6bcf584181ea8059f7653284106007611d31565b826000670c7d713b49da0000831380156130465750670f43fc2c04ee000083125b1561307d57600061305684613421565b9050670de0b6b3a764000080820784020583670de0b6b3a76400008305020191505061308b565b8161308784613558565b0290505b670de0b6b3a764000090056130c3680238fd42c5cf03ffff1982128015906130bc575068070c1cc73b00c800008213155b6008611d31565b6130cc816138f8565b9695505050505050565b60008282026130f0841580611fd5575083858381611fd257fe5b806130ff57600091505061060a565b670de0b6b3a764000060001982010460010191505061060a565b60006109eb8260ea613db2565b60006109eb8260b5613dd9565b60006109eb82609f613db2565b60006109eb82606a613dd9565b60006109eb826054613db2565b60006109eb82601f613dd9565b62461bcd60e51b600090815260206004526007602452673f534e5323000030600a808404818106603090810160081b95839006959095019082900491820690940160101b939093010160c81b604452606490fd5b60008282026107cd841580611fd5575083858381611fd257fe5b6000806131e183613e0c565b905060008082136131fa57652d79883d20008203613204565b652d79883d200082015b655af3107a40009005949350505050565b600080613231858585426132288b61203d565b93929190613e68565b90506104b0428890031015806132475786613250565b61325087613ec8565b600081815260076020526040902092909255509695505050505050565b613279600083836123c7565b6002546132869082611f55565b6002556001600160a01b0382166000908152602081905260409020546132ac9082611f55565b6001600160a01b0383166000818152602081815260408083209490945583518581529351929391927fddf252ad1be2c89b69c2b068fc378daa952ba7f163c4a11628f55a4df523b3ef9281900390910190a35050565b6133196001600160a01b038316151561019b611d31565b613325826000836123c7565b6001600160a01b03821660009081526020819052604090205461334b90826101a1612f69565b6001600160a01b0383166000908152602081905260409020556002546133719082613ed5565b6002556040805182815290516000916001600160a01b038516917fddf252ad1be2c89b69c2b068fc378daa952ba7f163c4a11628f55a4df523b3ef9181900360200190a35050565b6000806133c68484612faf565b905060006133d961200e836127106130d6565b90506133e58282611f55565b95945050505050565b60006133fd8215156004611d31565b8261340a5750600061060a565b81600184038161341657fe5b04600101905061060a565b670de0b6b3a7640000026000806ec097ce7bc90715b34b9f1000000000808401907fffffffffffffffffffffffffffffffffff3f68318436f8ea4cb460f0000000008501028161346d57fe5b05905060006ec097ce7bc90715b34b9f100000000082800205905081806ec097ce7bc90715b34b9f100000000081840205915060038205016ec097ce7bc90715b34b9f100000000082840205915060058205016ec097ce7bc90715b34b9f100000000082840205915060078205016ec097ce7bc90715b34b9f100000000082840205915060098205016ec097ce7bc90715b34b9f1000000000828402059150600b8205016ec097ce7bc90715b34b9f1000000000828402059150600d8205016ec097ce7bc90715b34b9f1000000000828402059150600f826002919005919091010295945050505050565b6000670de0b6b3a76400008212156135955761358b826ec097ce7bc90715b34b9f10000000008161358557fe5b05613558565b60000390506109ee565b60007e1600ef3172e58d2e933ec884fde10064c63b5372d805e203c000000000000083126135e657770195e54c5dd42177f53a27172fa9ec630262827000000000830592506806f05b59d3b2000000015b73011798004d755d3c8bc8e03204cf44619e000000831261361e576b1425982cf597cd205cef7380830592506803782dace9d9000000015b606492830292026e01855144814a7ff805980ff00840008312613666576e01855144814a7ff805980ff008400068056bc75e2d63100000840205925068ad78ebc5ac62000000015b6b02df0ab5a80a22c61ab5a70083126136a1576b02df0ab5a80a22c61ab5a70068056bc75e2d6310000084020592506856bc75e2d631000000015b693f1fce3da636ea5cf85083126136d857693f1fce3da636ea5cf85068056bc75e2d631000008402059250682b5e3af16b18800000015b690127fa27722cc06cc5e2831261370f57690127fa27722cc06cc5e268056bc75e2d6310000084020592506815af1d78b58c400000015b68280e60114edb805d0383126137445768280e60114edb805d0368056bc75e2d631000008402059250680ad78ebc5ac6200000015b680ebc5fb41746121110831261376f57680ebc5fb4174612111068056bc75e2d631000009384020592015b6808f00f760a4b2db55d83126137a4576808f00f760a4b2db55d68056bc75e2d6310000084020592506802b5e3af16b1880000015b6806f5f177578893793783126137d9576806f5f177578893793768056bc75e2d63100000840205925068015af1d78b58c40000015b6806248f33704b286603831261380d576806248f33704b28660368056bc75e2d63100000840205925067ad78ebc5ac620000015b6805c548670b9510e7ac8312613841576805c548670b9510e7ac68056bc75e2d6310000084020592506756bc75e2d6310000015b600068056bc75e2d63100000840168056bc75e2d63100000808603028161386457fe5b059050600068056bc75e2d63100000828002059050818068056bc75e2d63100000818402059150600382050168056bc75e2d63100000828402059150600582050168056bc75e2d63100000828402059150600782050168056bc75e2d63100000828402059150600982050168056bc75e2d63100000828402059150600b820501600202606485820105979650505050505050565b6000613927680238fd42c5cf03ffff198312158015613920575068070c1cc73b00c800008313155b6009611d31565b600082121561395b5761393c826000036138f8565b6ec097ce7bc90715b34b9f10000000008161395357fe5b0590506109ee565b60006806f05b59d3b200000083126139b157507ffffffffffffffffffffffffffffffffffffffffffffffff90fa4a62c4e00000090910190770195e54c5dd42177f53a27172fa9ec6302628270000000006139fd565b6803782dace9d900000083126139f957507ffffffffffffffffffffffffffffffffffffffffffffffffc87d2531627000000909101906b1425982cf597cd205cef73806139fd565b5060015b6064929092029168056bc75e2d6310000068ad78ebc5ac620000008412613a63577fffffffffffffffffffffffffffffffffffffffffffffff5287143a539e0000009093019268056bc75e2d631000006e01855144814a7ff805980ff008400082020590505b6856bc75e2d6310000008412613ab5577fffffffffffffffffffffffffffffffffffffffffffffffa9438a1d29cf0000009093019268056bc75e2d631000006b02df0ab5a80a22c61ab5a70082020590505b682b5e3af16b188000008412613b05577fffffffffffffffffffffffffffffffffffffffffffffffd4a1c50e94e78000009093019268056bc75e2d63100000693f1fce3da636ea5cf85082020590505b6815af1d78b58c4000008412613b55577fffffffffffffffffffffffffffffffffffffffffffffffea50e2874a73c000009093019268056bc75e2d63100000690127fa27722cc06cc5e282020590505b680ad78ebc5ac62000008412613ba4577ffffffffffffffffffffffffffffffffffffffffffffffff5287143a539e000009093019268056bc75e2d6310000068280e60114edb805d0382020590505b68056bc75e2d631000008412613bf3577ffffffffffffffffffffffffffffffffffffffffffffffffa9438a1d29cf000009093019268056bc75e2d63100000680ebc5fb4174612111082020590505b6802b5e3af16b18800008412613c42577ffffffffffffffffffffffffffffffffffffffffffffffffd4a1c50e94e7800009093019268056bc75e2d631000006808f00f760a4b2db55d82020590505b68015af1d78b58c400008412613c91577ffffffffffffffffffffffffffffffffffffffffffffffffea50e2874a73c00009093019268056bc75e2d631000006806f5f177578893793782020590505b68056bc75e2d631000008481019085906002908280020505918201919050600368056bc75e2d631000008783020505918201919050600468056bc75e2d631000008783020505918201919050600568056bc75e2d631000008783020505918201919050600668056bc75e2d631000008783020505918201919050600768056bc75e2d631000008783020505918201919050600868056bc75e2d631000008783020505918201919050600968056bc75e2d631000008783020505918201919050600a68056bc75e2d631000008783020505918201919050600b68056bc75e2d631000008783020505918201919050600c68056bc75e2d631000008783020505918201919050606468056bc75e2d63100000848402058502059695505050505050565b600082821c623fffff16621fffff8113613dcc578061215c565b623fffff19179392505050565b600082821c661fffffffffffff16660fffffffffffff8113613dfb578061215c565b661fffffffffffff19179392505050565b6000613e1c600083136064611d31565b670c7d713b49da000082138015613e3a5750670f43fc2c04ee000082125b15613e5857670de0b6b3a7640000613e5183613421565b8161395357fe5b613e6182613558565b90506109ee565b600080613e7487611e8b565b830390506000818702613e8689613126565b0190506000828702613e978a613140565b0190506000838702613ea88b61315a565b019050613eba89848a858b868c611e2b565b9a9950505050505050505050565b60006109eb826001613ee3565b60006107cd83836001612f69565b601491010690565b604080518082019091526000808252602082015290565b6040805160608101909152806000815260200160008152602001600081525090565b80356109ee816148e9565b600082601f830112613f3f578081fd5b8151613f52613f4d826148cb565b6148a7565b818152915060208083019084810181840286018201871015613f7357600080fd5b60005b84811015613f9257815184529282019290820190600101613f76565b505050505092915050565b600082601f830112613fad578081fd5b813567ffffffffffffffff811115613fc157fe5b613fd4601f8201601f19166020016148a7565b9150808252836020828501011115613feb57600080fd5b8060208401602084013760009082016020015292915050565b8035600281106109ee57600080fd5b8035600381106109ee57600080fd5b600060208284031215614033578081fd5b81356107cd816148e9565b60008060408385031215614050578081fd5b823561405b816148e9565b9150602083013561406b816148e9565b809150509250929050565b60008060006060848603121561408a578081fd5b8335614095816148e9565b925060208401356140a5816148e9565b929592945050506040919091013590565b600080600080600080600060e0888a0312156140d0578485fd5b87356140db816148e9565b965060208801356140eb816148e9565b95506040880135945060608801359350608088013560ff8116811461410e578384fd5b9699959850939692959460a0840135945060c09093013592915050565b6000806040838503121561413d578182fd5b8235614148816148e9565b946020939093013593505050565b60008060006060848603121561416a578081fd5b835167ffffffffffffffff80821115614181578283fd5b818601915086601f830112614194578283fd5b81516141a2613f4d826148cb565b80828252602080830192508086018b8283870289010111156141c2578788fd5b8796505b848710156141ed5780516141d9816148e9565b8452600196909601959281019281016141c6565b508901519097509350505080821115614204578283fd5b5061421186828701613f2f565b925050604084015190509250925092565b60006020808385031215614234578182fd5b823567ffffffffffffffff8082111561424b578384fd5b818501915085601f83011261425e578384fd5b813561426c613f4d826148cb565b818152848101908486016040808502870188018b101561428a578889fd5b8896505b848710156142e25780828c0312156142a4578889fd5b805181810181811088821117156142b757fe5b82526142c283614013565b81528289013589820152845260019690960195928701929081019061428e565b50909998505050505050505050565b60006020808385031215614303578182fd5b823567ffffffffffffffff8082111561431a578384fd5b818501915085601f83011261432d578384fd5b813561433b613f4d826148cb565b818152848101908486016060808502870188018b1015614359578889fd5b8896505b848710156142e25780828c031215614373578889fd5b60408051828101818110898211171561438857fe5b825261439384614013565b8152838a01358a8201528184013591810191909152845260019690960195928701929081019061435d565b6000602082840312156143cf578081fd5b815167ffffffffffffffff8111156143e5578182fd5b61215c84828501613f2f565b600080600080600080600060e0888a03121561440b578081fd5b8735965060208089013561441e816148e9565b9650604089013561442e816148e9565b9550606089013567ffffffffffffffff8082111561444a578384fd5b818b0191508b601f83011261445d578384fd5b813561446b613f4d826148cb565b8082825285820191508585018f878886028801011115614489578788fd5b8795505b838610156144ab57803583526001959095019491860191860161448d565b509850505060808b0135955060a08b0135945060c08b01359250808311156144d1578384fd5b50506144df8a828b01613f9d565b91505092959891949750929550565b6000602082840312156144ff578081fd5b6107cd82614013565b600060208284031215614519578081fd5b5051919050565b600080600060608486031215614534578081fd5b833567ffffffffffffffff8082111561454b578283fd5b8186019150610120808389031215614561578384fd5b61456a816148a7565b905061457583614004565b815261458360208401613f24565b602082015261459460408401613f24565b6040820152606083013560608201526080830135608082015260a083013560a08201526145c360c08401613f24565b60c08201526145d460e08401613f24565b60e082015261010080840135838111156145ec578586fd5b6145f88a828701613f9d565b9183019190915250976020870135975060409096013595945050505050565b600060208284031215614628578081fd5b5035919050565b60008060408385031215614641578182fd5b50508035926020909101359150565b6000815180845260208085019450808401835b8381101561467f57815187529582019590820190600101614663565b509495945050505050565b6003811061469457fe5b9052565b6146a382825161468a565b60208181015190830152604090810151910152565b6001600160a01b0391909116815260200190565b6020808252825182820181905260009190848201906040850190845b81811015614704578351835292840192918401916001016146e8565b50909695505050505050565b6020808252825182820181905260009190848201906040850190845b818110156147045761473f838551614698565b928401926060929092019160010161472c565b6000602082526107cd6020830184614650565b6000604082526147786040830185614650565b82810360208401526133e58185614650565b901515815260200190565b90815260200190565b968752602087019590955260408601939093526060850191909152608084015260a083015260c082015260e00190565b838152606081016147e2602083018561468a565b826040830152949350505050565b84815260808101614804602083018661468a565b60408201939093526060015292915050565b83815260a0810161482a6020830185614698565b826080830152949350505050565b6000602080835283518082850152825b8181101561486457858101830151858201604001528201614848565b818111156148755783604083870101525b50601f01601f1916929092016040019392505050565b918252602082015260400190565b60ff91909116815260200190565b60405181810167ffffffffffffffff811182821017156148c357fe5b604052919050565b600067ffffffffffffffff8211156148df57fe5b5060209081020190565b6001600160a01b03811681146148fe57600080fd5b5056fea2646970667358221220935c9c9b66ccee677584eb39ce11adfda0085e608da7dce7d9f334bf00dc138864736f6c63430007050033a26469706673582212201d97e1191a18b1194a8522a0d3f26139f59f280fd47871b60522b2b87e3fb74c64736f6c63430007050033",
  "libraries": {
    "QueryProcessor": "0xd782B9Bc0A7b32cBFe19e9E0E6f6dc99bf6Ef989"
  },
  "devdoc": {
    "kind": "dev",
    "methods": {},
    "version": 1
  },
  "userdoc": {
    "kind": "user",
    "methods": {
      "create(address,uint256)": {
        "notice": "Deploys a new `Space` contract"
      },
      "divider()": {
        "notice": "Sense Divider"
      },
      "oracleEnabled()": {
        "notice": "Oracle flag"
      },
      "pools(address,uint256)": {
        "notice": "Pool registry (adapter -> maturity -> pool address)"
      },
      "ts()": {
        "notice": "Yieldspace config"
      },
      "vault()": {
        "notice": "Balancer Vault"
      }
    },
    "version": 1
  },
  "storageLayout": {
    "storage": [
      {
        "astId": 16247,
        "contract": "lib/v1-space/src/SpaceFactory.sol:SpaceFactory",
        "label": "isTrusted",
        "offset": 0,
        "slot": "0",
        "type": "t_mapping(t_address,t_bool)"
      },
      {
        "astId": 18517,
        "contract": "lib/v1-space/src/SpaceFactory.sol:SpaceFactory",
        "label": "pools",
        "offset": 0,
        "slot": "1",
        "type": "t_mapping(t_address,t_mapping(t_uint256,t_address))"
      },
      {
        "astId": 18520,
        "contract": "lib/v1-space/src/SpaceFactory.sol:SpaceFactory",
        "label": "ts",
        "offset": 0,
        "slot": "2",
        "type": "t_uint256"
      },
      {
        "astId": 18522,
        "contract": "lib/v1-space/src/SpaceFactory.sol:SpaceFactory",
        "label": "g1",
        "offset": 0,
        "slot": "3",
        "type": "t_uint256"
      },
      {
        "astId": 18524,
        "contract": "lib/v1-space/src/SpaceFactory.sol:SpaceFactory",
        "label": "g2",
        "offset": 0,
        "slot": "4",
        "type": "t_uint256"
      },
      {
        "astId": 18527,
        "contract": "lib/v1-space/src/SpaceFactory.sol:SpaceFactory",
        "label": "oracleEnabled",
        "offset": 0,
        "slot": "5",
        "type": "t_bool"
      }
    ],
    "types": {
      "t_address": {
        "encoding": "inplace",
        "label": "address",
        "numberOfBytes": "20"
      },
      "t_bool": {
        "encoding": "inplace",
        "label": "bool",
        "numberOfBytes": "1"
      },
      "t_mapping(t_address,t_bool)": {
        "encoding": "mapping",
        "key": "t_address",
        "label": "mapping(address => bool)",
        "numberOfBytes": "32",
        "value": "t_bool"
      },
      "t_mapping(t_address,t_mapping(t_uint256,t_address))": {
        "encoding": "mapping",
        "key": "t_address",
        "label": "mapping(address => mapping(uint256 => address))",
        "numberOfBytes": "32",
        "value": "t_mapping(t_uint256,t_address)"
      },
      "t_mapping(t_uint256,t_address)": {
        "encoding": "mapping",
        "key": "t_uint256",
        "label": "mapping(uint256 => address)",
        "numberOfBytes": "32",
        "value": "t_address"
      },
      "t_uint256": {
        "encoding": "inplace",
        "label": "uint256",
        "numberOfBytes": "32"
      }
    }
  }
}